{
  "contracts/PumpFun.sol": {
    "PumpFun": {
      "abi": [
        {
          "inputs": [
            {
              "internalType": "address",
              "name": "factory_",
              "type": "address"
            },
            {
              "internalType": "address",
              "name": "router_",
              "type": "address"
            },
            {
              "internalType": "address",
              "name": "fees_wallet",
              "type": "address"
            },
            {
              "internalType": "uint256",
              "name": "_fee",
              "type": "uint256"
            },
            {
              "internalType": "uint256",
              "name": "_refFee",
              "type": "uint256"
            }
          ],
          "stateMutability": "nonpayable",
          "type": "constructor"
        },
        {
          "anonymous": false,
          "inputs": [
            {
              "indexed": true,
              "internalType": "address",
              "name": "token",
              "type": "address"
            },
            {
              "indexed": false,
              "internalType": "uint256",
              "name": "amount0",
              "type": "uint256"
            },
            {
              "indexed": false,
              "internalType": "uint256",
              "name": "amount1",
              "type": "uint256"
            }
          ],
          "name": "Deployed",
          "type": "event"
        },
        {
          "anonymous": false,
          "inputs": [
            {
              "indexed": true,
              "internalType": "address",
              "name": "token",
              "type": "address"
            },
            {
              "indexed": true,
              "internalType": "address",
              "name": "pair",
              "type": "address"
            },
            {
              "indexed": false,
              "internalType": "uint256",
              "name": "",
              "type": "uint256"
            }
          ],
          "name": "Launched",
          "type": "event"
        },
        {
          "inputs": [
            {
              "internalType": "address",
              "name": "_user",
              "type": "address"
            },
            {
              "internalType": "address",
              "name": "_token",
              "type": "address"
            },
            {
              "internalType": "uint256",
              "name": "amount",
              "type": "uint256"
            }
          ],
          "name": "approval",
          "outputs": [
            {
              "internalType": "bool",
              "name": "",
              "type": "bool"
            }
          ],
          "stateMutability": "nonpayable",
          "type": "function"
        },
        {
          "inputs": [
            {
              "internalType": "address",
              "name": "token_",
              "type": "address"
            }
          ],
          "name": "deploy",
          "outputs": [],
          "stateMutability": "nonpayable",
          "type": "function"
        },
        {
          "inputs": [],
          "name": "feeTo",
          "outputs": [
            {
              "internalType": "address",
              "name": "",
              "type": "address"
            }
          ],
          "stateMutability": "view",
          "type": "function"
        },
        {
          "inputs": [],
          "name": "feeToSetter",
          "outputs": [
            {
              "internalType": "address",
              "name": "",
              "type": "address"
            }
          ],
          "stateMutability": "view",
          "type": "function"
        },
        {
          "inputs": [
            {
              "internalType": "string",
              "name": "_name",
              "type": "string"
            },
            {
              "internalType": "string",
              "name": "_ticker",
              "type": "string"
            },
            {
              "internalType": "string",
              "name": "desc",
              "type": "string"
            },
            {
              "internalType": "string",
              "name": "img",
              "type": "string"
            },
            {
              "internalType": "string[4]",
              "name": "urls",
              "type": "string[4]"
            },
            {
              "internalType": "uint256",
              "name": "_supply",
              "type": "uint256"
            },
            {
              "internalType": "uint256",
              "name": "maxTx",
              "type": "uint256"
            },
            {
              "internalType": "address",
              "name": "ref",
              "type": "address"
            }
          ],
          "name": "launch",
          "outputs": [
            {
              "internalType": "address",
              "name": "",
              "type": "address"
            },
            {
              "internalType": "address",
              "name": "",
              "type": "address"
            },
            {
              "internalType": "uint256",
              "name": "",
              "type": "uint256"
            }
          ],
          "stateMutability": "payable",
          "type": "function"
        },
        {
          "inputs": [],
          "name": "launchFee",
          "outputs": [
            {
              "internalType": "uint256",
              "name": "",
              "type": "uint256"
            }
          ],
          "stateMutability": "view",
          "type": "function"
        },
        {
          "inputs": [],
          "name": "liquidityFee",
          "outputs": [
            {
              "internalType": "uint256",
              "name": "",
              "type": "uint256"
            }
          ],
          "stateMutability": "pure",
          "type": "function"
        },
        {
          "inputs": [],
          "name": "marketCapLimit",
          "outputs": [
            {
              "internalType": "uint256",
              "name": "",
              "type": "uint256"
            }
          ],
          "stateMutability": "pure",
          "type": "function"
        },
        {
          "inputs": [
            {
              "internalType": "address",
              "name": "",
              "type": "address"
            }
          ],
          "name": "profile",
          "outputs": [
            {
              "internalType": "address",
              "name": "user",
              "type": "address"
            },
            {
              "internalType": "address",
              "name": "referree",
              "type": "address"
            }
          ],
          "stateMutability": "view",
          "type": "function"
        },
        {
          "inputs": [
            {
              "internalType": "uint256",
              "name": "",
              "type": "uint256"
            }
          ],
          "name": "profiles",
          "outputs": [
            {
              "internalType": "address",
              "name": "user",
              "type": "address"
            },
            {
              "internalType": "address",
              "name": "referree",
              "type": "address"
            }
          ],
          "stateMutability": "view",
          "type": "function"
        },
        {
          "inputs": [],
          "name": "referralFee",
          "outputs": [
            {
              "internalType": "uint256",
              "name": "",
              "type": "uint256"
            }
          ],
          "stateMutability": "view",
          "type": "function"
        },
        {
          "inputs": [
            {
              "internalType": "address",
              "name": "",
              "type": "address"
            }
          ],
          "name": "token",
          "outputs": [
            {
              "internalType": "address",
              "name": "token",
              "type": "address"
            },
            {
              "internalType": "address",
              "name": "pair",
              "type": "address"
            },
            {
              "internalType": "string",
              "name": "name",
              "type": "string"
            },
            {
              "internalType": "string",
              "name": "ticker",
              "type": "string"
            },
            {
              "internalType": "uint256",
              "name": "supply",
              "type": "uint256"
            },
            {
              "internalType": "string",
              "name": "description",
              "type": "string"
            },
            {
              "internalType": "string",
              "name": "image",
              "type": "string"
            },
            {
              "internalType": "string",
              "name": "twitter",
              "type": "string"
            },
            {
              "internalType": "string",
              "name": "telegram",
              "type": "string"
            },
            {
              "internalType": "string",
              "name": "youtube",
              "type": "string"
            },
            {
              "internalType": "string",
              "name": "website",
              "type": "string"
            },
            {
              "internalType": "bool",
              "name": "trading",
              "type": "bool"
            }
          ],
          "stateMutability": "view",
          "type": "function"
        },
        {
          "inputs": [
            {
              "internalType": "uint256",
              "name": "",
              "type": "uint256"
            }
          ],
          "name": "tokens",
          "outputs": [
            {
              "internalType": "address",
              "name": "token",
              "type": "address"
            },
            {
              "internalType": "address",
              "name": "pair",
              "type": "address"
            },
            {
              "internalType": "string",
              "name": "name",
              "type": "string"
            },
            {
              "internalType": "string",
              "name": "ticker",
              "type": "string"
            },
            {
              "internalType": "uint256",
              "name": "supply",
              "type": "uint256"
            },
            {
              "internalType": "string",
              "name": "description",
              "type": "string"
            },
            {
              "internalType": "string",
              "name": "image",
              "type": "string"
            },
            {
              "internalType": "string",
              "name": "twitter",
              "type": "string"
            },
            {
              "internalType": "string",
              "name": "telegram",
              "type": "string"
            },
            {
              "internalType": "string",
              "name": "youtube",
              "type": "string"
            },
            {
              "internalType": "string",
              "name": "website",
              "type": "string"
            },
            {
              "internalType": "bool",
              "name": "trading",
              "type": "bool"
            }
          ],
          "stateMutability": "view",
          "type": "function"
        },
        {
          "inputs": [
            {
              "internalType": "uint256",
              "name": "_fee",
              "type": "uint256"
            }
          ],
          "name": "updateLaunchFee",
          "outputs": [
            {
              "internalType": "uint256",
              "name": "",
              "type": "uint256"
            }
          ],
          "stateMutability": "nonpayable",
          "type": "function"
        },
        {
          "inputs": [
            {
              "internalType": "uint256",
              "name": "_fee",
              "type": "uint256"
            }
          ],
          "name": "updateReferralFee",
          "outputs": [
            {
              "internalType": "uint256",
              "name": "",
              "type": "uint256"
            }
          ],
          "stateMutability": "nonpayable",
          "type": "function"
        }
      ],
      "evm": {
        "bytecode": {
          "linkReferences": {},
          "object": "6080346200014d57601f6200335a38819003918201601f19168301916001600160401b03831184841017620001525780849260a0946040528339810103126200014d576200004d8162000168565b906200005c6020820162000168565b916200006b6040830162000168565b92608060608401519301519360018060a01b0319923384600054161760005560018060a01b0392838092168560015416176001551683600254161760025516906003541617600355670de0b6b3a76400009081810291818304149015171562000137576103e8900460045560058111620000f2576005556040516131dc90816200017e8239f35b60405162461bcd60e51b815260206004820152601e60248201527f526566657272616c204665652063616e6e6f74206578636565642035252e00006044820152606490fd5b634e487b7160e01b600052601160045260246000fd5b600080fd5b634e487b7160e01b600052604160045260246000fd5b51906001600160a01b03821682036200014d5756fe608060405260043610156200001357600080fd5b6000803560e01c8063017e7e581462001055578063094b7415146200102c5780634c96a3891462000f425780634f64b2be1462000d0e5780635c52a5f21462000cbf5780636d46a1db1462000beb5780637660f44a1462000bc657806380997e471462000b9f57806384ae2bc61462000b7f57806398118cb41462000b615780639dd9d0fd1462000af8578063a153e6ff1462000174578063c36fe3d61462000119578063cf3cf57314620000f95763f3f524b814620000d257600080fd5b34620000f6576020366003190112620000f657602060043580600555604051908152f35b80fd5b5034620000f65780600319360112620000f6576020600454604051908152f35b5034620000f6576020366003190112620000f6576004356007548110156200017057620001469062001354565b508054600190910154604080516001600160a01b03938416815292909116602083015290f35b0390f35b5080fd5b50610100366003190112620000f6576004356001600160401b0381116200017057620001a590369060040162001307565b6024356001600160401b03811162000ab957620001c790369060040162001307565b6044356001600160401b03811162000af457620001e990369060040162001307565b926064356001600160401b03811162000170576200020c90369060040162001307565b90608435926001600160401b0384116200017057366023850112156200017057604051936200023b85620010e9565b6084810185368211620009b05782600401905b82821062000abd57505060e435929150506001600160a01b038216820362000ab957600454341062000a74576040518061104b8101106001600160401b0361104b8301111762000a605761104b6200215c8239608061104b82015280620002d8620002c1608061104b8401018a620011d8565b61104b83018103602061104b8501015284620011d8565b60a435604061104b8401015260c435606061104b84010152039084f094851562000a55576002546040516315ab88c960e31b815298906020908a9060049082906001600160a01b03165afa98891562000a28576200037a979899602091879162000a33575b506001546040516364e329cb60e11b81526001600160a01b038c811660048301529283166024820152998a92909116908290899082906044820190565b03925af196871562000a28578597620009f0575b506001600160a01b0388163b15620009b0576040516306da678f60e51b81526001600160a01b03888116600483015286908290602490829084908e165af18015620009e557620009b4575b5060025460405163313ce56760e01b81526001600160a01b0391821691602090829060049082908e165afa90811562000950576200042a62000445939262000433928a916200095b575b50620014d4565b60a435620014fc565b906001600160a01b038b169062001402565b15620009b05760053481020434036200099c576200046a606434600502043462001510565b60025460405163313ce56760e01b81529197916001600160a01b0391821691602090829060049082908f165afa908115620009915791620004be6200042a604093620004f0958c916200095b5750620014d4565b8251630e505aa960e31b81526001600160a01b038e166004820152602481019190915292839190829081906044820190565b039160643460050204905af1801562000950576200091b575b5082519060208401519260606040860151950151956040519c8d6001600160401b03610180828181011092011117620009055760408e8e6101808201835260018060a01b031681528d60018060a01b03166020820152015260608d015260a43560808d015260a08c015260c08b015260e08a0152610100890152610120880152610140870152600161016087015260018060a01b03851682526008602052620005b6866040842062001537565b600954600160401b908181101562000905576001810180600955811015620008ef5787600c6200060e926009600052027f6e1540171b6c0c960b71a7020d9f60077f6af931a8bbf590da0223dacf75c7af0162001537565b620006193362001e7b565b156200076e5750503381526006602052604081206001810180549193918391906001600160a01b031680620006e15750508080809360018060a01b03600354165af16200066562001e46565b5015620000f6575060609360036200067f925b0162001dc6565b6009546040518181529091906001600160a01b0380831691908516907f714aa39317ad9a7a7a99db52b44490da5d068a0b2710fffb1a1282ad3cadae1f90602090a3604080516001600160a01b03948516815291909316602082015291820152f35b8280929481928252620006fb336002604085200162001dfd565b6200071860646200070f83600554620014fc565b04809262001510565b95546001600160a01b03165af16200072f62001e46565b5015620001705760035482918291829182916001600160a01b03165af16200075662001e46565b5015620000f6575060609360036200067f9262000678565b604051916200077d83620010e9565b33835260018060a01b03166020830152606060408301526060808301523383526006602052620007b1826040852062001f12565b60075490811015620008db57806001620007cf920160075562001354565b620008c75790620007e09162001f12565b3381526006602052604081206001810180549193918391906001600160a01b031680620008435750508080809360018060a01b03600354165af16200082462001e46565b5015620000f6575060609360036200083d920162001dc6565b6200067f565b82809294819282526200085d336002604085200162001dfd565b6200087160646200070f83600554620014fc565b95546001600160a01b03165af16200088862001e46565b5015620001705760035482918291829182916001600160a01b03165af1620008af62001e46565b5015620000f6575060609360036200083d9262000678565b634e487b7160e01b83526004839052602483fd5b634e487b7160e01b83526041600452602483fd5b634e487b7160e01b600052603260045260246000fd5b634e487b7160e01b600052604160045260246000fd5b620009419060403d60401162000948575b62000938818362001105565b810190620013eb565b5062000509565b503d6200092c565b6040513d89823e3d90fd5b62000982915060203d60201162000989575b62000979818362001105565b810190620014b9565b3862000423565b503d6200096d565b6040513d8a823e3d90fd5b634e487b7160e01b85526011600452602485fd5b8480fd5b6001600160401b038196929611620009d1576040529338620003d9565b634e487b7160e01b82526041600452602482fd5b6040513d88823e3d90fd5b62000a1891975060203d60201162000a20575b62000a0f818362001105565b81019062001498565b95386200038e565b503d62000a03565b6040513d87823e3d90fd5b62000a4e9150823d841162000a205762000a0f818362001105565b386200033d565b6040513d85823e3d90fd5b634e487b7160e01b84526041600452602484fd5b60405162461bcd60e51b815260206004820152601960248201527f496e73756666696369656e7420616d6f756e742073656e742e000000000000006044820152606490fd5b8280fd5b81356001600160401b03811162000af05760209162000ae483926004369189010162001307565b8152019101906200024e565b8680fd5b8380fd5b5034620000f6576020366003190112620000f6576001600160a01b03906040908262000b2362001090565b1681526006602052209060018183541692015416906200016c6040519283928390602090939293604083019460018060a01b03809216845216910152565b5034620000f65780600319360112620000f657602060405160058152f35b5034620000f65780600319360112620000f6576020600554604051908152f35b5034620000f65780600319360112620000f657602060405169152d02c7e14af68000008152f35b5034620000f6576020366003190112620000f657602060043580600455604051908152f35b5034620000f6576020366003190112620000f6576001600160a01b03906040908262000c1662001090565b168152600860205220906200016c81835416916001840154169262000c3e6002820162001127565b9062000c4d6003820162001127565b600482015462000c606005840162001127565b62000c6e6006850162001127565b62000c7c6007860162001127565b9162000c8b6008870162001127565b9362000c9a6009880162001127565b9560ff600b62000cad600a8b0162001127565b99015416986040519c8d9c8d6200121a565b5034620000f6576060366003190112620000f65762000cdd62001090565b90602435906001600160a01b0382168203620000f657602062000d04604435848662001402565b6040519015158152f35b5034620000f6576020366003190112620000f65760043560095481101562000170576009600c92520260018060a01b036200016c81837f6e1540171b6c0c960b71a7020d9f60077f6af931a8bbf590da0223dacf75c7af015416917f6e1540171b6c0c960b71a7020d9f60077f6af931a8bbf590da0223dacf75c7b0840154169262000dbc7f6e1540171b6c0c960b71a7020d9f60077f6af931a8bbf590da0223dacf75c7b1820162001127565b9062000dea7f6e1540171b6c0c960b71a7020d9f60077f6af931a8bbf590da0223dacf75c7b2820162001127565b7f6e1540171b6c0c960b71a7020d9f60077f6af931a8bbf590da0223dacf75c7b382015462000e3b7f6e1540171b6c0c960b71a7020d9f60077f6af931a8bbf590da0223dacf75c7b4840162001127565b62000e687f6e1540171b6c0c960b71a7020d9f60077f6af931a8bbf590da0223dacf75c7b5850162001127565b62000e957f6e1540171b6c0c960b71a7020d9f60077f6af931a8bbf590da0223dacf75c7b6860162001127565b9162000ec37f6e1540171b6c0c960b71a7020d9f60077f6af931a8bbf590da0223dacf75c7b7870162001127565b9362000ef17f6e1540171b6c0c960b71a7020d9f60077f6af931a8bbf590da0223dacf75c7b8880162001127565b9560ff7f6e1540171b6c0c960b71a7020d9f60077f6af931a8bbf590da0223dacf75c7ba62000cad7f6e1540171b6c0c960b71a7020d9f60077f6af931a8bbf590da0223dacf75c7b98b0162001127565b5034620000f6576020366003190112620000f65762000f6062001090565b81604060018060a01b03809362000f7c8285541633146200138f565b16928383526008602052600b8284200160ff19815416905560648160025416918454168351948593849263e79a408960e01b845288600485015284602485015260448401525af1801562000a55577f540bcec33387745b2ced30977dcfe4a623a245511eb0a133989c27c8bb95b4a9916040918591869162001008575b5082519182526020820152a280f35b9050620010259150823d8411620009485762000938818362001105565b3862000ff9565b5034620000f65780600319360112620000f657546040516001600160a01b039091168152602090f35b5034620000f65780600319360112620000f657546020906001600160a01b03906200108490821633146200138f565b60035416604051908152f35b600435906001600160a01b0382168203620010a757565b600080fd5b90600182811c92168015620010de575b6020831014620010c857565b634e487b7160e01b600052602260045260246000fd5b91607f1691620010bc565b608081019081106001600160401b038211176200090557604052565b90601f801991011681019081106001600160401b038211176200090557604052565b906040519182600082546200113c81620010ac565b90818452602094600191600181169081600014620011b4575060011462001171575b5050506200116f9250038362001105565b565b600090815285812095935091905b8183106200119b5750506200116f93508201013880806200115e565b855488840185015294850194879450918301916200117f565b925050506200116f94925060ff191682840152151560051b8201013880806200115e565b919082519283825260005b84811062001205575050826000602080949584010152601f8019910116010190565b602081830181015184830182015201620011e3565b9a97919662001295620012c3969d9e9d6101609c988e62001281620012e39e9962001272620012b39a620012d39f620012a49a6101809160018060a01b038092168852166020870152806040870152850190620011d8565b908382036060850152620011d8565b92608082015260a0818403910152620011d8565b8c810360c08e015290620011d8565b908a820360e08c0152620011d8565b908882036101008a0152620011d8565b90868203610120880152620011d8565b90848203610140860152620011d8565b931515910152565b6001600160401b0381116200090557601f01601f191660200190565b81601f82011215620010a7578035906200132182620012eb565b9262001331604051948562001105565b82845260208383010111620010a757816000926020809301838601378301015290565b600754811015620008ef57600760005260021b7fa66cc928b5edb82af9bd49922954155ab7b0942694bea4ce44661d9a8736c6880190600090565b156200139757565b60405162461bcd60e51b815260206004820152602660248201527f4f6e6c7920746865206f776e65722063616e2063616c6c20746869732066756e60448201526531ba34b7b71760d11b6064820152608490fd5b9190826040910312620010a7576020825192015190565b60405163095ea7b360e01b81526001600160a01b039182166004820152602481019390935260009291602091839160449183918791165af180156200148d576200144e575b5050600190565b6020813d60201162001484575b816200146a6020938362001105565b8101031262000170575180151503620000f6578062001447565b3d91506200145b565b6040513d84823e3d90fd5b90816020910312620010a757516001600160a01b0381168103620010a75790565b90816020910312620010a7575160ff81168103620010a75790565b60ff16604d8111620014e657600a0a90565b634e487b7160e01b600052601160045260246000fd5b81810292918115918404141715620014e657565b91908203918211620014e657565b8181106200152a575050565b600081556001016200151e565b815181546001600160a01b03199081166001600160a01b03928316178355602080850151600185810180549094169190941617909155604084015180516001600160401b03929060028601908481116200090557620015978254620010ac565b93601f9485811162001d94575b50839085831160011462001d2d57620015d7929160009183620018a0575b50508160011b916000199060031b1c19161790565b90555b60039384860160608801518051908682116200090557620015fc8354620010ac565b86811162001cf0575b50849086831160011462001c8a5762001637929160009183620018a05750508160011b916000199060031b1c19161790565b90555b60049160808801518388015560059586880160a08a015180519088821162001a1957620016688354620010ac565b88811162001c59575b50849088831160011462001bf357620016a3929160009183620018a05750508160011b916000199060031b1c19161790565b90555b6006880160c08a015180519088821162001a1957620016c68354620010ac565b88811162001bc2575b50849088831160011462001b5c5762001701929160009183620018a05750508160011b916000199060031b1c19161790565b90555b6007880160e08a015180519088821162001a1957620017248354620010ac565b88811162001b2b575b50849088831160011462001ac5576200175f929160009183620018a05750508160011b916000199060031b1c19161790565b90555b600888016101008a015180519088821162001a1957620017838354620010ac565b88811162001a94575b50849088831160011462001a2e57620017be929160009183620018a05750508160011b916000199060031b1c19161790565b90555b600988016101208a015180519088821162001a1957620017e28354620010ac565b888111620019dd575b50849088831160011462001977576200181d929160009183620018a05750508160011b916000199060031b1c19161790565b90555b600a8801966101408a0151948551978811620019625750620018438854620010ac565b86811162001925575b505081948611600114620018ac57505050826101609593600b95936200188993600092620018a05750508160011b916000199060031b1c19161790565b90555b01910151151560ff80198354169116179055565b015190503880620015c2565b9194939092601f1985168760005284600020946000905b8282106200190d57505091859391600b98966101609a98969410620018f2575b50505050811b0190556200188c565b01519060f884600019921b161c1916905538808080620018e3565b808986988294978701518155019701940190620018c3565b620019509189600052846000209088808b01821c830193878c1062001958575b01901c01906200151e565b38806200184c565b9350829362001945565b604190634e487b7160e01b6000525260246000fd5b869291601f1983169185600052876000209260005b89828210620019c65750508411620019ad575b505050811b01905562001820565b015160001983871b60f8161c191690553880806200199f565b8385015186558b979095019493840193016200198c565b62001a089084600052866000208a8d818701901c82019289871062001a0f575b018d1c01906200151e565b38620017eb565b92508192620019fd565b604187634e487b7160e01b6000525260246000fd5b869291601f1983169185600052876000209260005b8982821062001a7d575050841162001a64575b505050811b019055620017c1565b015160001983871b60f8161c1916905538808062001a56565b8385015186558b9790950194938401930162001a43565b62001abe9084600052866000208a8d818701901c82019289871062001a0f57018d1c01906200151e565b386200178c565b869291601f1983169185600052876000209260005b8982821062001b14575050841162001afb575b505050811b01905562001762565b015160001983871b60f8161c1916905538808062001aed565b8385015186558b9790950194938401930162001ada565b62001b559084600052866000208a8d818701901c82019289871062001a0f57018d1c01906200151e565b386200172d565b869291601f1983169185600052876000209260005b8982821062001bab575050841162001b92575b505050811b01905562001704565b015160001983871b60f8161c1916905538808062001b84565b8385015186558b9790950194938401930162001b71565b62001bec9084600052866000208a8d818701901c82019289871062001a0f57018d1c01906200151e565b38620016cf565b869291601f1983169185600052876000209260005b8982821062001c42575050841162001c29575b505050811b019055620016a6565b015160001983871b60f8161c1916905538808062001c1b565b8385015186558b9790950194938401930162001c08565b62001c839084600052866000208a8d818701901c82019289871062001a0f57018d1c01906200151e565b3862001671565b849291601f1983169185600052876000209260005b8982821062001cd9575050841162001cc0575b505050811b0190556200163a565b0151600019838b1b60f8161c1916905538808062001cb2565b838501518655899790950194938401930162001c9f565b62001d1c9084600052866000208880860160051c82019289871062001d23575b0160051c01906200151e565b3862001605565b9250819262001d10565b879291601f1983169185600052866000209260005b8882821062001d7d575050841162001d63575b505050811b019055620015da565b015160001960f88460031b161c1916905538808062001d55565b8385015186558c9790950194938401930162001d42565b62001dbf9084600052856000208780860160051c82019288871062001d23570160051c01906200151e565b38620015a4565b908154600160401b811015620009055760018101808455811015620008ef576200116f92600052600c602060002091020162001537565b805490600160401b821015620009055760018201808255821015620008ef576000526020600020019060018060a01b03166bffffffffffffffffffffffff60a01b825416179055565b3d1562001e76573d9062001e5a82620012eb565b9162001e6a604051938462001105565b82523d6000602084013e565b606090565b6007549060005b82811062001e9257505050600090565b62001e9d8162001354565b50546001600160a01b0383811691161462001ebb5760010162001e82565b505050600190565b62001ecf8154620010ac565b908162001eda575050565b81601f6000931160011462001eed575055565b90808391825262001f0e601f60208420940160051c8401600185016200151e565b5555565b60018060a01b0390818351166bffffffffffffffffffffffff60a01b9081835416178255600193600183016020928584840151169082541617905560029260028101936040830151958651906001600160401b0382116200090557600160401b97888311620009055786908854848a558085106200213b575b5001906000978852868820908a895b85811062002126575050505050506060600380930193015191825196871162002112578354878555859392918189106200200a575b50505091845282842091015b84841062001feb57505050505050565b600c838262001ffd8994518662001537565b0192019301929062001fdb565b9091929350600c9282600c0292600c840403620020fe5788600c02600c81048a03620020ea57868952878920889695948101939291015b8381106200205157505062001fcf565b849596508981959293949555898c8201556200206f83820162001ec3565b6200207c84820162001ec3565b896004820155620020906005820162001ec3565b6200209e6006820162001ec3565b620020ac6007820162001ec3565b620020ba6008820162001ec3565b620020c86009820162001ec3565b620020d6600a820162001ec3565b89600b820155019087959493929162002041565b634e487b7160e01b89526011600452602489fd5b634e487b7160e01b88526011600452602488fd5b634e487b7160e01b86526041600452602486fd5b898386511695019481850155018b9062001f9a565b62002154908a600052858460002091820191016200151e565b3862001f8b56fe6040608081523462000429576200104b803803806200001e816200042e565b928339810190608081830312620004295780516001600160401b039190828111620004295783620000519183016200046a565b90602093848201519084821162000429576200006f9183016200046a565b606086830151920151906000943360018060a01b031987541617865533867f8be0079c531659141344cd1fd0a4f28419497f9722a3daafe3b4186f6b6457e08180a384518181116200034357600254906001968783811c931680156200041e575b8a84101462000324578190601f93848111620003ca575b508a9084831160011462000363578a9262000357575b5050600019600383901b1c191690871b176002555b8251918211620003435760039283548781811c9116801562000338575b8a821014620003245790818385949311620002cf575b50899183116001146200026c57889262000260575b505060001982841b1c191690851b1790555b670de0b6b3a7640000918281029281840414901517156200024c5781835560058111620001fe57907fddf252ad1be2c89b69c2b068fc378daa952ba7f163c4a11628f55a4df523b3ef929160045533845260058552858420556007845284832060ff199082828254161790553084528186852091825416179055549284519384523393a351610b6e9081620004dd8239f35b855162461bcd60e51b815260048101869052602160248201527f4d6178205472616e73616374696f6e2063616e6e6f74206578636565642035256044820152601760f91b6064820152608490fd5b634e487b7160e01b84526011600452602484fd5b0151905038806200015a565b8489528989208894509190601f1984168a5b8c828210620002b857505084116200029f575b505050811b0190556200016c565b015160001983861b60f8161c1916905538808062000291565b8385015186558b979095019493840193016200027e565b909192508489528989208380860160051c8201928c87106200031a575b9186958b929594930160051c01915b8281106200030b57505062000145565b8b81558695508a9101620002fb565b92508192620002ec565b634e487b7160e01b89526022600452602489fd5b90607f16906200012f565b634e487b7160e01b87526041600452602487fd5b015190503880620000fd565b60028b528b8b208a94509190601f1984168c8e5b828210620003b2575050841162000398575b505050811b0160025562000112565b015160001960f88460031b161c1916905538808062000389565b8385015186558d979095019493840193018e62000377565b90915060028a528a8a208480850160051c8201928d861062000414575b918b91869594930160051c01915b82811062000405575050620000e7565b8c81558594508b9101620003f5565b92508192620003e7565b92607f1692620000d0565b600080fd5b6040519190601f01601f191682016001600160401b038111838210176200045457604052565b634e487b7160e01b600052604160045260246000fd5b919080601f84011215620004295782516001600160401b0381116200045457602090620004a0601f8201601f191683016200042e565b92818452828287010111620004295760005b818110620004c857508260009394955001015290565b8581018301518482018401528201620004b256fe608060408181526004918236101561001657600080fd5b600092833560e01c91826306fdde031461055557508163095ea7b31461052b57816318160ddd1461050c57816323b872dd14610437578163313ce5671461041b57816370a08231146103e3578163715018a6146103845781637437681e146103665781638da5cb5b1461033e57816395d89b4114610239578163a9059cbb14610208578163c2d0ffca1461015557508063db4cf1e01461010a5763dd62ed3e146100bf57600080fd5b34610106578060031936011261010657806020926100db61065d565b6100e3610678565b6001600160a01b0391821683526006865283832091168252845220549051908152f35b5080fd5b50346101065760203660031901126101065761012461065d565b82546001600160a01b03919061013d90831633146106c6565b16825260076020528120805460ff1916600117905580f35b919050346102045760203660031901126102045781359161018060018060a01b0385541633146106c6565b600583116101b85791602091817fff3dd5e80294197918c284bbfc3dadd97d0b40ce92106110946329088f80068a945551908152a180f35b6020608492519162461bcd60e51b8352820152602160248201527f4d6178205472616e73616374696f6e2063616e6e6f74206578636565642035256044820152601760f91b6064820152fd5b8280fd5b50503461010657806003193601126101065760209061023261022861065d565b6024359033610813565b5160018152f35b9190503461020457826003193601126102045780519183600354906001908260011c92600181168015610334575b602095868610821461032157508488529081156102ff57506001146102a6575b6102a28686610298828b038361068e565b5191829182610614565b0390f35b929550600383527fc2575a0e9e593c00f959f8c92f12db2869c3395a3b0502d05e2516446f71f85b5b8284106102ec57505050826102a294610298928201019438610287565b80548685018801529286019281016102cf565b60ff191687860152505050151560051b8301019250610298826102a238610287565b634e487b7160e01b845260229052602483fd5b93607f1693610267565b505034610106578160031936011261010657905490516001600160a01b039091168152602090f35b90503461020457826003193601126102045760209250549051908152f35b83346103e057806003193601126103e0578054816001600160a01b0382166103ad3382146106c6565b7f8be0079c531659141344cd1fd0a4f28419497f9722a3daafe3b4186f6b6457e08280a36001600160a01b031916815580f35b80fd5b5050346101065760203660031901126101065760209181906001600160a01b0361040b61065d565b1681526005845220549051908152f35b5050346101065781600319360112610106576020905160128152f35b8284346103e05760603660031901126103e05761045261065d565b9061045b610678565b610469604435809285610813565b6001600160a01b038316825260066020908152848320338452905283822054845192606084019067ffffffffffffffff8211858310176104f957602087610232886104f1898989898752602883527f45524332303a207472616e7366657220616d6f756e742065786365656473206188840152676c6c6f77616e636560c01b87840152610aed565b903390610711565b634e487b7160e01b815260418852602490fd5b5050346101065781600319360112610106576020906001549051908152f35b50503461010657806003193601126101065760209061023261054b61065d565b6024359033610711565b92915034610610578360031936011261061057600254600181811c9186908281168015610606575b602095868610821461032157508488529081156102ff57506001146105ad576102a28686610298828b038361068e565b929550600283527f405787fa12a823e0f2b7631cc41b3ba8828b3321ca811111fa75cd3aa3bb5ace5b8284106105f357505050826102a294610298928201019438610287565b80548685018801529286019281016105d6565b93607f169361057d565b8380fd5b6020808252825181830181905290939260005b82811061064957505060409293506000838284010152601f8019910116010190565b818101860151848201604001528501610627565b600435906001600160a01b038216820361067357565b600080fd5b602435906001600160a01b038216820361067357565b90601f8019910116810190811067ffffffffffffffff8211176106b057604052565b634e487b7160e01b600052604160045260246000fd5b156106cd57565b606460405162461bcd60e51b815260206004820152602060248201527f4f776e61626c653a2063616c6c6572206973206e6f7420746865206f776e65726044820152fd5b6001600160a01b039081169182156107c257169182156107725760207f8c5be1e5ebec7d5bd14f71427d1e84f3dd0314c0f7b2291e5b200ac8c7c3b925918360005260068252604060002085600052825280604060002055604051908152a3565b60405162461bcd60e51b815260206004820152602260248201527f45524332303a20617070726f766520746f20746865207a65726f206164647265604482015261737360f01b6064820152608490fd5b60405162461bcd60e51b8152602060048201526024808201527f45524332303a20617070726f76652066726f6d20746865207a65726f206164646044820152637265737360e01b6064820152608490fd5b9192916001600160a01b03908116918215610a9a5716908115610a495783156109f2576004805494600154958681029681880414901517156109dd576000958387526020926007845260409160ff838a2054161561098c575b50848852600584528188205482519083820182811067ffffffffffffffff821117610979576108c8929186918652601e83527f536166654d6174683a207375627472616374696f6e206f766572666c6f77000088840152610aed565b858952600585528289205585885281882054908382019182811161096657821061092357508188877fddf252ad1be2c89b69c2b068fc378daa952ba7f163c4a11628f55a4df523b3ef9798999a5260058652205551908152a3565b825162461bcd60e51b8152908101859052601b60248201527f536166654d6174683a206164646974696f6e206f766572666c6f7700000000006044820152606490fd5b634e487b7160e01b8a526011825260248afd5b634e487b7160e01b8b526041845260248bfd5b60649004831161099c573861086c565b83606492519162461bcd60e51b8352820152601860248201527f4578636565647320746865204d61785478416d6f756e742e00000000000000006044820152fd5b601182634e487b7160e01b6000525260246000fd5b60405162461bcd60e51b815260206004820152602960248201527f5472616e7366657220616d6f756e74206d7573742062652067726561746572206044820152687468616e207a65726f60b81b6064820152608490fd5b60405162461bcd60e51b815260206004820152602360248201527f45524332303a207472616e7366657220746f20746865207a65726f206164647260448201526265737360e81b6064820152608490fd5b60405162461bcd60e51b815260206004820152602560248201527f45524332303a207472616e736665722066726f6d20746865207a65726f206164604482015264647265737360d81b6064820152608490fd5b91828211610b1857508103908111610b025790565b634e487b7160e01b600052601160045260246000fd5b60405162461bcd60e51b8152908190610b349060048301610614565b0390fdfea2646970667358221220047c9ea28db18d399065ad86429b5dec4f653ad6a65c727bb656ab23fc5eac9964736f6c63430008180033a26469706673582212200e450a4914c97abfc8b491644337310f618ca84e45108a63ae2de3cfff403be864736f6c63430008180033",
          "opcodes": "PUSH1 0x80 CALLVALUE PUSH3 0x14D JUMPI PUSH1 0x1F PUSH3 0x335A CODESIZE DUP2 SWAP1 SUB SWAP2 DUP3 ADD PUSH1 0x1F NOT AND DUP4 ADD SWAP2 PUSH1 0x1 PUSH1 0x1 PUSH1 0x40 SHL SUB DUP4 GT DUP5 DUP5 LT OR PUSH3 0x152 JUMPI DUP1 DUP5 SWAP3 PUSH1 0xA0 SWAP5 PUSH1 0x40 MSTORE DUP4 CODECOPY DUP2 ADD SUB SLT PUSH3 0x14D JUMPI PUSH3 0x4D DUP2 PUSH3 0x168 JUMP JUMPDEST SWAP1 PUSH3 0x5C PUSH1 0x20 DUP3 ADD PUSH3 0x168 JUMP JUMPDEST SWAP2 PUSH3 0x6B PUSH1 0x40 DUP4 ADD PUSH3 0x168 JUMP JUMPDEST SWAP3 PUSH1 0x80 PUSH1 0x60 DUP5 ADD MLOAD SWAP4 ADD MLOAD SWAP4 PUSH1 0x1 DUP1 PUSH1 0xA0 SHL SUB NOT SWAP3 CALLER DUP5 PUSH1 0x0 SLOAD AND OR PUSH1 0x0 SSTORE PUSH1 0x1 DUP1 PUSH1 0xA0 SHL SUB SWAP3 DUP4 DUP1 SWAP3 AND DUP6 PUSH1 0x1 SLOAD AND OR PUSH1 0x1 SSTORE AND DUP4 PUSH1 0x2 SLOAD AND OR PUSH1 0x2 SSTORE AND SWAP1 PUSH1 0x3 SLOAD AND OR PUSH1 0x3 SSTORE PUSH8 0xDE0B6B3A7640000 SWAP1 DUP2 DUP2 MUL SWAP2 DUP2 DUP4 DIV EQ SWAP1 ISZERO OR ISZERO PUSH3 0x137 JUMPI PUSH2 0x3E8 SWAP1 DIV PUSH1 0x4 SSTORE PUSH1 0x5 DUP2 GT PUSH3 0xF2 JUMPI PUSH1 0x5 SSTORE PUSH1 0x40 MLOAD PUSH2 0x31DC SWAP1 DUP2 PUSH3 0x17E DUP3 CODECOPY RETURN JUMPDEST PUSH1 0x40 MLOAD PUSH3 0x461BCD PUSH1 0xE5 SHL DUP2 MSTORE PUSH1 0x20 PUSH1 0x4 DUP3 ADD MSTORE PUSH1 0x1E PUSH1 0x24 DUP3 ADD MSTORE PUSH32 0x526566657272616C204665652063616E6E6F74206578636565642035252E0000 PUSH1 0x44 DUP3 ADD MSTORE PUSH1 0x64 SWAP1 REVERT JUMPDEST PUSH4 0x4E487B71 PUSH1 0xE0 SHL PUSH1 0x0 MSTORE PUSH1 0x11 PUSH1 0x4 MSTORE PUSH1 0x24 PUSH1 0x0 REVERT JUMPDEST PUSH1 0x0 DUP1 REVERT JUMPDEST PUSH4 0x4E487B71 PUSH1 0xE0 SHL PUSH1 0x0 MSTORE PUSH1 0x41 PUSH1 0x4 MSTORE PUSH1 0x24 PUSH1 0x0 REVERT JUMPDEST MLOAD SWAP1 PUSH1 0x1 PUSH1 0x1 PUSH1 0xA0 SHL SUB DUP3 AND DUP3 SUB PUSH3 0x14D JUMPI JUMP INVALID PUSH1 0x80 PUSH1 0x40 MSTORE PUSH1 0x4 CALLDATASIZE LT ISZERO PUSH3 0x13 JUMPI PUSH1 0x0 DUP1 REVERT JUMPDEST PUSH1 0x0 DUP1 CALLDATALOAD PUSH1 0xE0 SHR DUP1 PUSH4 0x17E7E58 EQ PUSH3 0x1055 JUMPI DUP1 PUSH4 0x94B7415 EQ PUSH3 0x102C JUMPI DUP1 PUSH4 0x4C96A389 EQ PUSH3 0xF42 JUMPI DUP1 PUSH4 0x4F64B2BE EQ PUSH3 0xD0E JUMPI DUP1 PUSH4 0x5C52A5F2 EQ PUSH3 0xCBF JUMPI DUP1 PUSH4 0x6D46A1DB EQ PUSH3 0xBEB JUMPI DUP1 PUSH4 0x7660F44A EQ PUSH3 0xBC6 JUMPI DUP1 PUSH4 0x80997E47 EQ PUSH3 0xB9F JUMPI DUP1 PUSH4 0x84AE2BC6 EQ PUSH3 0xB7F JUMPI DUP1 PUSH4 0x98118CB4 EQ PUSH3 0xB61 JUMPI DUP1 PUSH4 0x9DD9D0FD EQ PUSH3 0xAF8 JUMPI DUP1 PUSH4 0xA153E6FF EQ PUSH3 0x174 JUMPI DUP1 PUSH4 0xC36FE3D6 EQ PUSH3 0x119 JUMPI DUP1 PUSH4 0xCF3CF573 EQ PUSH3 0xF9 JUMPI PUSH4 0xF3F524B8 EQ PUSH3 0xD2 JUMPI PUSH1 0x0 DUP1 REVERT JUMPDEST CALLVALUE PUSH3 0xF6 JUMPI PUSH1 0x20 CALLDATASIZE PUSH1 0x3 NOT ADD SLT PUSH3 0xF6 JUMPI PUSH1 0x20 PUSH1 0x4 CALLDATALOAD DUP1 PUSH1 0x5 SSTORE PUSH1 0x40 MLOAD SWAP1 DUP2 MSTORE RETURN JUMPDEST DUP1 REVERT JUMPDEST POP CALLVALUE PUSH3 0xF6 JUMPI DUP1 PUSH1 0x3 NOT CALLDATASIZE ADD SLT PUSH3 0xF6 JUMPI PUSH1 0x20 PUSH1 0x4 SLOAD PUSH1 0x40 MLOAD SWAP1 DUP2 MSTORE RETURN JUMPDEST POP CALLVALUE PUSH3 0xF6 JUMPI PUSH1 0x20 CALLDATASIZE PUSH1 0x3 NOT ADD SLT PUSH3 0xF6 JUMPI PUSH1 0x4 CALLDATALOAD PUSH1 0x7 SLOAD DUP2 LT ISZERO PUSH3 0x170 JUMPI PUSH3 0x146 SWAP1 PUSH3 0x1354 JUMP JUMPDEST POP DUP1 SLOAD PUSH1 0x1 SWAP1 SWAP2 ADD SLOAD PUSH1 0x40 DUP1 MLOAD PUSH1 0x1 PUSH1 0x1 PUSH1 0xA0 SHL SUB SWAP4 DUP5 AND DUP2 MSTORE SWAP3 SWAP1 SWAP2 AND PUSH1 0x20 DUP4 ADD MSTORE SWAP1 RETURN JUMPDEST SUB SWAP1 RETURN JUMPDEST POP DUP1 REVERT JUMPDEST POP PUSH2 0x100 CALLDATASIZE PUSH1 0x3 NOT ADD SLT PUSH3 0xF6 JUMPI PUSH1 0x4 CALLDATALOAD PUSH1 0x1 PUSH1 0x1 PUSH1 0x40 SHL SUB DUP2 GT PUSH3 0x170 JUMPI PUSH3 0x1A5 SWAP1 CALLDATASIZE SWAP1 PUSH1 0x4 ADD PUSH3 0x1307 JUMP JUMPDEST PUSH1 0x24 CALLDATALOAD PUSH1 0x1 PUSH1 0x1 PUSH1 0x40 SHL SUB DUP2 GT PUSH3 0xAB9 JUMPI PUSH3 0x1C7 SWAP1 CALLDATASIZE SWAP1 PUSH1 0x4 ADD PUSH3 0x1307 JUMP JUMPDEST PUSH1 0x44 CALLDATALOAD PUSH1 0x1 PUSH1 0x1 PUSH1 0x40 SHL SUB DUP2 GT PUSH3 0xAF4 JUMPI PUSH3 0x1E9 SWAP1 CALLDATASIZE SWAP1 PUSH1 0x4 ADD PUSH3 0x1307 JUMP JUMPDEST SWAP3 PUSH1 0x64 CALLDATALOAD PUSH1 0x1 PUSH1 0x1 PUSH1 0x40 SHL SUB DUP2 GT PUSH3 0x170 JUMPI PUSH3 0x20C SWAP1 CALLDATASIZE SWAP1 PUSH1 0x4 ADD PUSH3 0x1307 JUMP JUMPDEST SWAP1 PUSH1 0x84 CALLDATALOAD SWAP3 PUSH1 0x1 PUSH1 0x1 PUSH1 0x40 SHL SUB DUP5 GT PUSH3 0x170 JUMPI CALLDATASIZE PUSH1 0x23 DUP6 ADD SLT ISZERO PUSH3 0x170 JUMPI PUSH1 0x40 MLOAD SWAP4 PUSH3 0x23B DUP6 PUSH3 0x10E9 JUMP JUMPDEST PUSH1 0x84 DUP2 ADD DUP6 CALLDATASIZE DUP3 GT PUSH3 0x9B0 JUMPI DUP3 PUSH1 0x4 ADD SWAP1 JUMPDEST DUP3 DUP3 LT PUSH3 0xABD JUMPI POP POP PUSH1 0xE4 CALLDATALOAD SWAP3 SWAP2 POP POP PUSH1 0x1 PUSH1 0x1 PUSH1 0xA0 SHL SUB DUP3 AND DUP3 SUB PUSH3 0xAB9 JUMPI PUSH1 0x4 SLOAD CALLVALUE LT PUSH3 0xA74 JUMPI PUSH1 0x40 MLOAD DUP1 PUSH2 0x104B DUP2 ADD LT PUSH1 0x1 PUSH1 0x1 PUSH1 0x40 SHL SUB PUSH2 0x104B DUP4 ADD GT OR PUSH3 0xA60 JUMPI PUSH2 0x104B PUSH3 0x215C DUP3 CODECOPY PUSH1 0x80 PUSH2 0x104B DUP3 ADD MSTORE DUP1 PUSH3 0x2D8 PUSH3 0x2C1 PUSH1 0x80 PUSH2 0x104B DUP5 ADD ADD DUP11 PUSH3 0x11D8 JUMP JUMPDEST PUSH2 0x104B DUP4 ADD DUP2 SUB PUSH1 0x20 PUSH2 0x104B DUP6 ADD ADD MSTORE DUP5 PUSH3 0x11D8 JUMP JUMPDEST PUSH1 0xA4 CALLDATALOAD PUSH1 0x40 PUSH2 0x104B DUP5 ADD ADD MSTORE PUSH1 0xC4 CALLDATALOAD PUSH1 0x60 PUSH2 0x104B DUP5 ADD ADD MSTORE SUB SWAP1 DUP5 CREATE SWAP5 DUP6 ISZERO PUSH3 0xA55 JUMPI PUSH1 0x2 SLOAD PUSH1 0x40 MLOAD PUSH4 0x15AB88C9 PUSH1 0xE3 SHL DUP2 MSTORE SWAP9 SWAP1 PUSH1 0x20 SWAP1 DUP11 SWAP1 PUSH1 0x4 SWAP1 DUP3 SWAP1 PUSH1 0x1 PUSH1 0x1 PUSH1 0xA0 SHL SUB AND GAS STATICCALL SWAP9 DUP10 ISZERO PUSH3 0xA28 JUMPI PUSH3 0x37A SWAP8 SWAP9 SWAP10 PUSH1 0x20 SWAP2 DUP8 SWAP2 PUSH3 0xA33 JUMPI JUMPDEST POP PUSH1 0x1 SLOAD PUSH1 0x40 MLOAD PUSH4 0x64E329CB PUSH1 0xE1 SHL DUP2 MSTORE PUSH1 0x1 PUSH1 0x1 PUSH1 0xA0 SHL SUB DUP13 DUP2 AND PUSH1 0x4 DUP4 ADD MSTORE SWAP3 DUP4 AND PUSH1 0x24 DUP3 ADD MSTORE SWAP10 DUP11 SWAP3 SWAP1 SWAP2 AND SWAP1 DUP3 SWAP1 DUP10 SWAP1 DUP3 SWAP1 PUSH1 0x44 DUP3 ADD SWAP1 JUMP JUMPDEST SUB SWAP3 GAS CALL SWAP7 DUP8 ISZERO PUSH3 0xA28 JUMPI DUP6 SWAP8 PUSH3 0x9F0 JUMPI JUMPDEST POP PUSH1 0x1 PUSH1 0x1 PUSH1 0xA0 SHL SUB DUP9 AND EXTCODESIZE ISZERO PUSH3 0x9B0 JUMPI PUSH1 0x40 MLOAD PUSH4 0x6DA678F PUSH1 0xE5 SHL DUP2 MSTORE PUSH1 0x1 PUSH1 0x1 PUSH1 0xA0 SHL SUB DUP9 DUP2 AND PUSH1 0x4 DUP4 ADD MSTORE DUP7 SWAP1 DUP3 SWAP1 PUSH1 0x24 SWAP1 DUP3 SWAP1 DUP5 SWAP1 DUP15 AND GAS CALL DUP1 ISZERO PUSH3 0x9E5 JUMPI PUSH3 0x9B4 JUMPI JUMPDEST POP PUSH1 0x2 SLOAD PUSH1 0x40 MLOAD PUSH4 0x313CE567 PUSH1 0xE0 SHL DUP2 MSTORE PUSH1 0x1 PUSH1 0x1 PUSH1 0xA0 SHL SUB SWAP2 DUP3 AND SWAP2 PUSH1 0x20 SWAP1 DUP3 SWAP1 PUSH1 0x4 SWAP1 DUP3 SWAP1 DUP15 AND GAS STATICCALL SWAP1 DUP2 ISZERO PUSH3 0x950 JUMPI PUSH3 0x42A PUSH3 0x445 SWAP4 SWAP3 PUSH3 0x433 SWAP3 DUP11 SWAP2 PUSH3 0x95B JUMPI JUMPDEST POP PUSH3 0x14D4 JUMP JUMPDEST PUSH1 0xA4 CALLDATALOAD PUSH3 0x14FC JUMP JUMPDEST SWAP1 PUSH1 0x1 PUSH1 0x1 PUSH1 0xA0 SHL SUB DUP12 AND SWAP1 PUSH3 0x1402 JUMP JUMPDEST ISZERO PUSH3 0x9B0 JUMPI PUSH1 0x5 CALLVALUE DUP2 MUL DIV CALLVALUE SUB PUSH3 0x99C JUMPI PUSH3 0x46A PUSH1 0x64 CALLVALUE PUSH1 0x5 MUL DIV CALLVALUE PUSH3 0x1510 JUMP JUMPDEST PUSH1 0x2 SLOAD PUSH1 0x40 MLOAD PUSH4 0x313CE567 PUSH1 0xE0 SHL DUP2 MSTORE SWAP2 SWAP8 SWAP2 PUSH1 0x1 PUSH1 0x1 PUSH1 0xA0 SHL SUB SWAP2 DUP3 AND SWAP2 PUSH1 0x20 SWAP1 DUP3 SWAP1 PUSH1 0x4 SWAP1 DUP3 SWAP1 DUP16 AND GAS STATICCALL SWAP1 DUP2 ISZERO PUSH3 0x991 JUMPI SWAP2 PUSH3 0x4BE PUSH3 0x42A PUSH1 0x40 SWAP4 PUSH3 0x4F0 SWAP6 DUP13 SWAP2 PUSH3 0x95B JUMPI POP PUSH3 0x14D4 JUMP JUMPDEST DUP3 MLOAD PUSH4 0xE505AA9 PUSH1 0xE3 SHL DUP2 MSTORE PUSH1 0x1 PUSH1 0x1 PUSH1 0xA0 SHL SUB DUP15 AND PUSH1 0x4 DUP3 ADD MSTORE PUSH1 0x24 DUP2 ADD SWAP2 SWAP1 SWAP2 MSTORE SWAP3 DUP4 SWAP2 SWAP1 DUP3 SWAP1 DUP2 SWAP1 PUSH1 0x44 DUP3 ADD SWAP1 JUMP JUMPDEST SUB SWAP2 PUSH1 0x64 CALLVALUE PUSH1 0x5 MUL DIV SWAP1 GAS CALL DUP1 ISZERO PUSH3 0x950 JUMPI PUSH3 0x91B JUMPI JUMPDEST POP DUP3 MLOAD SWAP1 PUSH1 0x20 DUP5 ADD MLOAD SWAP3 PUSH1 0x60 PUSH1 0x40 DUP7 ADD MLOAD SWAP6 ADD MLOAD SWAP6 PUSH1 0x40 MLOAD SWAP13 DUP14 PUSH1 0x1 PUSH1 0x1 PUSH1 0x40 SHL SUB PUSH2 0x180 DUP3 DUP2 DUP2 ADD LT SWAP3 ADD GT OR PUSH3 0x905 JUMPI PUSH1 0x40 DUP15 DUP15 PUSH2 0x180 DUP3 ADD DUP4 MSTORE PUSH1 0x1 DUP1 PUSH1 0xA0 SHL SUB AND DUP2 MSTORE DUP14 PUSH1 0x1 DUP1 PUSH1 0xA0 SHL SUB AND PUSH1 0x20 DUP3 ADD MSTORE ADD MSTORE PUSH1 0x60 DUP14 ADD MSTORE PUSH1 0xA4 CALLDATALOAD PUSH1 0x80 DUP14 ADD MSTORE PUSH1 0xA0 DUP13 ADD MSTORE PUSH1 0xC0 DUP12 ADD MSTORE PUSH1 0xE0 DUP11 ADD MSTORE PUSH2 0x100 DUP10 ADD MSTORE PUSH2 0x120 DUP9 ADD MSTORE PUSH2 0x140 DUP8 ADD MSTORE PUSH1 0x1 PUSH2 0x160 DUP8 ADD MSTORE PUSH1 0x1 DUP1 PUSH1 0xA0 SHL SUB DUP6 AND DUP3 MSTORE PUSH1 0x8 PUSH1 0x20 MSTORE PUSH3 0x5B6 DUP7 PUSH1 0x40 DUP5 KECCAK256 PUSH3 0x1537 JUMP JUMPDEST PUSH1 0x9 SLOAD PUSH1 0x1 PUSH1 0x40 SHL SWAP1 DUP2 DUP2 LT ISZERO PUSH3 0x905 JUMPI PUSH1 0x1 DUP2 ADD DUP1 PUSH1 0x9 SSTORE DUP2 LT ISZERO PUSH3 0x8EF JUMPI DUP8 PUSH1 0xC PUSH3 0x60E SWAP3 PUSH1 0x9 PUSH1 0x0 MSTORE MUL PUSH32 0x6E1540171B6C0C960B71A7020D9F60077F6AF931A8BBF590DA0223DACF75C7AF ADD PUSH3 0x1537 JUMP JUMPDEST PUSH3 0x619 CALLER PUSH3 0x1E7B JUMP JUMPDEST ISZERO PUSH3 0x76E JUMPI POP POP CALLER DUP2 MSTORE PUSH1 0x6 PUSH1 0x20 MSTORE PUSH1 0x40 DUP2 KECCAK256 PUSH1 0x1 DUP2 ADD DUP1 SLOAD SWAP2 SWAP4 SWAP2 DUP4 SWAP2 SWAP1 PUSH1 0x1 PUSH1 0x1 PUSH1 0xA0 SHL SUB AND DUP1 PUSH3 0x6E1 JUMPI POP POP DUP1 DUP1 DUP1 SWAP4 PUSH1 0x1 DUP1 PUSH1 0xA0 SHL SUB PUSH1 0x3 SLOAD AND GAS CALL PUSH3 0x665 PUSH3 0x1E46 JUMP JUMPDEST POP ISZERO PUSH3 0xF6 JUMPI POP PUSH1 0x60 SWAP4 PUSH1 0x3 PUSH3 0x67F SWAP3 JUMPDEST ADD PUSH3 0x1DC6 JUMP JUMPDEST PUSH1 0x9 SLOAD PUSH1 0x40 MLOAD DUP2 DUP2 MSTORE SWAP1 SWAP2 SWAP1 PUSH1 0x1 PUSH1 0x1 PUSH1 0xA0 SHL SUB DUP1 DUP4 AND SWAP2 SWAP1 DUP6 AND SWAP1 PUSH32 0x714AA39317AD9A7A7A99DB52B44490DA5D068A0B2710FFFB1A1282AD3CADAE1F SWAP1 PUSH1 0x20 SWAP1 LOG3 PUSH1 0x40 DUP1 MLOAD PUSH1 0x1 PUSH1 0x1 PUSH1 0xA0 SHL SUB SWAP5 DUP6 AND DUP2 MSTORE SWAP2 SWAP1 SWAP4 AND PUSH1 0x20 DUP3 ADD MSTORE SWAP2 DUP3 ADD MSTORE RETURN JUMPDEST DUP3 DUP1 SWAP3 SWAP5 DUP2 SWAP3 DUP3 MSTORE PUSH3 0x6FB CALLER PUSH1 0x2 PUSH1 0x40 DUP6 KECCAK256 ADD PUSH3 0x1DFD JUMP JUMPDEST PUSH3 0x718 PUSH1 0x64 PUSH3 0x70F DUP4 PUSH1 0x5 SLOAD PUSH3 0x14FC JUMP JUMPDEST DIV DUP1 SWAP3 PUSH3 0x1510 JUMP JUMPDEST SWAP6 SLOAD PUSH1 0x1 PUSH1 0x1 PUSH1 0xA0 SHL SUB AND GAS CALL PUSH3 0x72F PUSH3 0x1E46 JUMP JUMPDEST POP ISZERO PUSH3 0x170 JUMPI PUSH1 0x3 SLOAD DUP3 SWAP2 DUP3 SWAP2 DUP3 SWAP2 DUP3 SWAP2 PUSH1 0x1 PUSH1 0x1 PUSH1 0xA0 SHL SUB AND GAS CALL PUSH3 0x756 PUSH3 0x1E46 JUMP JUMPDEST POP ISZERO PUSH3 0xF6 JUMPI POP PUSH1 0x60 SWAP4 PUSH1 0x3 PUSH3 0x67F SWAP3 PUSH3 0x678 JUMP JUMPDEST PUSH1 0x40 MLOAD SWAP2 PUSH3 0x77D DUP4 PUSH3 0x10E9 JUMP JUMPDEST CALLER DUP4 MSTORE PUSH1 0x1 DUP1 PUSH1 0xA0 SHL SUB AND PUSH1 0x20 DUP4 ADD MSTORE PUSH1 0x60 PUSH1 0x40 DUP4 ADD MSTORE PUSH1 0x60 DUP1 DUP4 ADD MSTORE CALLER DUP4 MSTORE PUSH1 0x6 PUSH1 0x20 MSTORE PUSH3 0x7B1 DUP3 PUSH1 0x40 DUP6 KECCAK256 PUSH3 0x1F12 JUMP JUMPDEST PUSH1 0x7 SLOAD SWAP1 DUP2 LT ISZERO PUSH3 0x8DB JUMPI DUP1 PUSH1 0x1 PUSH3 0x7CF SWAP3 ADD PUSH1 0x7 SSTORE PUSH3 0x1354 JUMP JUMPDEST PUSH3 0x8C7 JUMPI SWAP1 PUSH3 0x7E0 SWAP2 PUSH3 0x1F12 JUMP JUMPDEST CALLER DUP2 MSTORE PUSH1 0x6 PUSH1 0x20 MSTORE PUSH1 0x40 DUP2 KECCAK256 PUSH1 0x1 DUP2 ADD DUP1 SLOAD SWAP2 SWAP4 SWAP2 DUP4 SWAP2 SWAP1 PUSH1 0x1 PUSH1 0x1 PUSH1 0xA0 SHL SUB AND DUP1 PUSH3 0x843 JUMPI POP POP DUP1 DUP1 DUP1 SWAP4 PUSH1 0x1 DUP1 PUSH1 0xA0 SHL SUB PUSH1 0x3 SLOAD AND GAS CALL PUSH3 0x824 PUSH3 0x1E46 JUMP JUMPDEST POP ISZERO PUSH3 0xF6 JUMPI POP PUSH1 0x60 SWAP4 PUSH1 0x3 PUSH3 0x83D SWAP3 ADD PUSH3 0x1DC6 JUMP JUMPDEST PUSH3 0x67F JUMP JUMPDEST DUP3 DUP1 SWAP3 SWAP5 DUP2 SWAP3 DUP3 MSTORE PUSH3 0x85D CALLER PUSH1 0x2 PUSH1 0x40 DUP6 KECCAK256 ADD PUSH3 0x1DFD JUMP JUMPDEST PUSH3 0x871 PUSH1 0x64 PUSH3 0x70F DUP4 PUSH1 0x5 SLOAD PUSH3 0x14FC JUMP JUMPDEST SWAP6 SLOAD PUSH1 0x1 PUSH1 0x1 PUSH1 0xA0 SHL SUB AND GAS CALL PUSH3 0x888 PUSH3 0x1E46 JUMP JUMPDEST POP ISZERO PUSH3 0x170 JUMPI PUSH1 0x3 SLOAD DUP3 SWAP2 DUP3 SWAP2 DUP3 SWAP2 DUP3 SWAP2 PUSH1 0x1 PUSH1 0x1 PUSH1 0xA0 SHL SUB AND GAS CALL PUSH3 0x8AF PUSH3 0x1E46 JUMP JUMPDEST POP ISZERO PUSH3 0xF6 JUMPI POP PUSH1 0x60 SWAP4 PUSH1 0x3 PUSH3 0x83D SWAP3 PUSH3 0x678 JUMP JUMPDEST PUSH4 0x4E487B71 PUSH1 0xE0 SHL DUP4 MSTORE PUSH1 0x4 DUP4 SWAP1 MSTORE PUSH1 0x24 DUP4 REVERT JUMPDEST PUSH4 0x4E487B71 PUSH1 0xE0 SHL DUP4 MSTORE PUSH1 0x41 PUSH1 0x4 MSTORE PUSH1 0x24 DUP4 REVERT JUMPDEST PUSH4 0x4E487B71 PUSH1 0xE0 SHL PUSH1 0x0 MSTORE PUSH1 0x32 PUSH1 0x4 MSTORE PUSH1 0x24 PUSH1 0x0 REVERT JUMPDEST PUSH4 0x4E487B71 PUSH1 0xE0 SHL PUSH1 0x0 MSTORE PUSH1 0x41 PUSH1 0x4 MSTORE PUSH1 0x24 PUSH1 0x0 REVERT JUMPDEST PUSH3 0x941 SWAP1 PUSH1 0x40 RETURNDATASIZE PUSH1 0x40 GT PUSH3 0x948 JUMPI JUMPDEST PUSH3 0x938 DUP2 DUP4 PUSH3 0x1105 JUMP JUMPDEST DUP2 ADD SWAP1 PUSH3 0x13EB JUMP JUMPDEST POP PUSH3 0x509 JUMP JUMPDEST POP RETURNDATASIZE PUSH3 0x92C JUMP JUMPDEST PUSH1 0x40 MLOAD RETURNDATASIZE DUP10 DUP3 RETURNDATACOPY RETURNDATASIZE SWAP1 REVERT JUMPDEST PUSH3 0x982 SWAP2 POP PUSH1 0x20 RETURNDATASIZE PUSH1 0x20 GT PUSH3 0x989 JUMPI JUMPDEST PUSH3 0x979 DUP2 DUP4 PUSH3 0x1105 JUMP JUMPDEST DUP2 ADD SWAP1 PUSH3 0x14B9 JUMP JUMPDEST CODESIZE PUSH3 0x423 JUMP JUMPDEST POP RETURNDATASIZE PUSH3 0x96D JUMP JUMPDEST PUSH1 0x40 MLOAD RETURNDATASIZE DUP11 DUP3 RETURNDATACOPY RETURNDATASIZE SWAP1 REVERT JUMPDEST PUSH4 0x4E487B71 PUSH1 0xE0 SHL DUP6 MSTORE PUSH1 0x11 PUSH1 0x4 MSTORE PUSH1 0x24 DUP6 REVERT JUMPDEST DUP5 DUP1 REVERT JUMPDEST PUSH1 0x1 PUSH1 0x1 PUSH1 0x40 SHL SUB DUP2 SWAP7 SWAP3 SWAP7 GT PUSH3 0x9D1 JUMPI PUSH1 0x40 MSTORE SWAP4 CODESIZE PUSH3 0x3D9 JUMP JUMPDEST PUSH4 0x4E487B71 PUSH1 0xE0 SHL DUP3 MSTORE PUSH1 0x41 PUSH1 0x4 MSTORE PUSH1 0x24 DUP3 REVERT JUMPDEST PUSH1 0x40 MLOAD RETURNDATASIZE DUP9 DUP3 RETURNDATACOPY RETURNDATASIZE SWAP1 REVERT JUMPDEST PUSH3 0xA18 SWAP2 SWAP8 POP PUSH1 0x20 RETURNDATASIZE PUSH1 0x20 GT PUSH3 0xA20 JUMPI JUMPDEST PUSH3 0xA0F DUP2 DUP4 PUSH3 0x1105 JUMP JUMPDEST DUP2 ADD SWAP1 PUSH3 0x1498 JUMP JUMPDEST SWAP6 CODESIZE PUSH3 0x38E JUMP JUMPDEST POP RETURNDATASIZE PUSH3 0xA03 JUMP JUMPDEST PUSH1 0x40 MLOAD RETURNDATASIZE DUP8 DUP3 RETURNDATACOPY RETURNDATASIZE SWAP1 REVERT JUMPDEST PUSH3 0xA4E SWAP2 POP DUP3 RETURNDATASIZE DUP5 GT PUSH3 0xA20 JUMPI PUSH3 0xA0F DUP2 DUP4 PUSH3 0x1105 JUMP JUMPDEST CODESIZE PUSH3 0x33D JUMP JUMPDEST PUSH1 0x40 MLOAD RETURNDATASIZE DUP6 DUP3 RETURNDATACOPY RETURNDATASIZE SWAP1 REVERT JUMPDEST PUSH4 0x4E487B71 PUSH1 0xE0 SHL DUP5 MSTORE PUSH1 0x41 PUSH1 0x4 MSTORE PUSH1 0x24 DUP5 REVERT JUMPDEST PUSH1 0x40 MLOAD PUSH3 0x461BCD PUSH1 0xE5 SHL DUP2 MSTORE PUSH1 0x20 PUSH1 0x4 DUP3 ADD MSTORE PUSH1 0x19 PUSH1 0x24 DUP3 ADD MSTORE PUSH32 0x496E73756666696369656E7420616D6F756E742073656E742E00000000000000 PUSH1 0x44 DUP3 ADD MSTORE PUSH1 0x64 SWAP1 REVERT JUMPDEST DUP3 DUP1 REVERT JUMPDEST DUP2 CALLDATALOAD PUSH1 0x1 PUSH1 0x1 PUSH1 0x40 SHL SUB DUP2 GT PUSH3 0xAF0 JUMPI PUSH1 0x20 SWAP2 PUSH3 0xAE4 DUP4 SWAP3 PUSH1 0x4 CALLDATASIZE SWAP2 DUP10 ADD ADD PUSH3 0x1307 JUMP JUMPDEST DUP2 MSTORE ADD SWAP2 ADD SWAP1 PUSH3 0x24E JUMP JUMPDEST DUP7 DUP1 REVERT JUMPDEST DUP4 DUP1 REVERT JUMPDEST POP CALLVALUE PUSH3 0xF6 JUMPI PUSH1 0x20 CALLDATASIZE PUSH1 0x3 NOT ADD SLT PUSH3 0xF6 JUMPI PUSH1 0x1 PUSH1 0x1 PUSH1 0xA0 SHL SUB SWAP1 PUSH1 0x40 SWAP1 DUP3 PUSH3 0xB23 PUSH3 0x1090 JUMP JUMPDEST AND DUP2 MSTORE PUSH1 0x6 PUSH1 0x20 MSTORE KECCAK256 SWAP1 PUSH1 0x1 DUP2 DUP4 SLOAD AND SWAP3 ADD SLOAD AND SWAP1 PUSH3 0x16C PUSH1 0x40 MLOAD SWAP3 DUP4 SWAP3 DUP4 SWAP1 PUSH1 0x20 SWAP1 SWAP4 SWAP3 SWAP4 PUSH1 0x40 DUP4 ADD SWAP5 PUSH1 0x1 DUP1 PUSH1 0xA0 SHL SUB DUP1 SWAP3 AND DUP5 MSTORE AND SWAP2 ADD MSTORE JUMP JUMPDEST POP CALLVALUE PUSH3 0xF6 JUMPI DUP1 PUSH1 0x3 NOT CALLDATASIZE ADD SLT PUSH3 0xF6 JUMPI PUSH1 0x20 PUSH1 0x40 MLOAD PUSH1 0x5 DUP2 MSTORE RETURN JUMPDEST POP CALLVALUE PUSH3 0xF6 JUMPI DUP1 PUSH1 0x3 NOT CALLDATASIZE ADD SLT PUSH3 0xF6 JUMPI PUSH1 0x20 PUSH1 0x5 SLOAD PUSH1 0x40 MLOAD SWAP1 DUP2 MSTORE RETURN JUMPDEST POP CALLVALUE PUSH3 0xF6 JUMPI DUP1 PUSH1 0x3 NOT CALLDATASIZE ADD SLT PUSH3 0xF6 JUMPI PUSH1 0x20 PUSH1 0x40 MLOAD PUSH10 0x152D02C7E14AF6800000 DUP2 MSTORE RETURN JUMPDEST POP CALLVALUE PUSH3 0xF6 JUMPI PUSH1 0x20 CALLDATASIZE PUSH1 0x3 NOT ADD SLT PUSH3 0xF6 JUMPI PUSH1 0x20 PUSH1 0x4 CALLDATALOAD DUP1 PUSH1 0x4 SSTORE PUSH1 0x40 MLOAD SWAP1 DUP2 MSTORE RETURN JUMPDEST POP CALLVALUE PUSH3 0xF6 JUMPI PUSH1 0x20 CALLDATASIZE PUSH1 0x3 NOT ADD SLT PUSH3 0xF6 JUMPI PUSH1 0x1 PUSH1 0x1 PUSH1 0xA0 SHL SUB SWAP1 PUSH1 0x40 SWAP1 DUP3 PUSH3 0xC16 PUSH3 0x1090 JUMP JUMPDEST AND DUP2 MSTORE PUSH1 0x8 PUSH1 0x20 MSTORE KECCAK256 SWAP1 PUSH3 0x16C DUP2 DUP4 SLOAD AND SWAP2 PUSH1 0x1 DUP5 ADD SLOAD AND SWAP3 PUSH3 0xC3E PUSH1 0x2 DUP3 ADD PUSH3 0x1127 JUMP JUMPDEST SWAP1 PUSH3 0xC4D PUSH1 0x3 DUP3 ADD PUSH3 0x1127 JUMP JUMPDEST PUSH1 0x4 DUP3 ADD SLOAD PUSH3 0xC60 PUSH1 0x5 DUP5 ADD PUSH3 0x1127 JUMP JUMPDEST PUSH3 0xC6E PUSH1 0x6 DUP6 ADD PUSH3 0x1127 JUMP JUMPDEST PUSH3 0xC7C PUSH1 0x7 DUP7 ADD PUSH3 0x1127 JUMP JUMPDEST SWAP2 PUSH3 0xC8B PUSH1 0x8 DUP8 ADD PUSH3 0x1127 JUMP JUMPDEST SWAP4 PUSH3 0xC9A PUSH1 0x9 DUP9 ADD PUSH3 0x1127 JUMP JUMPDEST SWAP6 PUSH1 0xFF PUSH1 0xB PUSH3 0xCAD PUSH1 0xA DUP12 ADD PUSH3 0x1127 JUMP JUMPDEST SWAP10 ADD SLOAD AND SWAP9 PUSH1 0x40 MLOAD SWAP13 DUP14 SWAP13 DUP14 PUSH3 0x121A JUMP JUMPDEST POP CALLVALUE PUSH3 0xF6 JUMPI PUSH1 0x60 CALLDATASIZE PUSH1 0x3 NOT ADD SLT PUSH3 0xF6 JUMPI PUSH3 0xCDD PUSH3 0x1090 JUMP JUMPDEST SWAP1 PUSH1 0x24 CALLDATALOAD SWAP1 PUSH1 0x1 PUSH1 0x1 PUSH1 0xA0 SHL SUB DUP3 AND DUP3 SUB PUSH3 0xF6 JUMPI PUSH1 0x20 PUSH3 0xD04 PUSH1 0x44 CALLDATALOAD DUP5 DUP7 PUSH3 0x1402 JUMP JUMPDEST PUSH1 0x40 MLOAD SWAP1 ISZERO ISZERO DUP2 MSTORE RETURN JUMPDEST POP CALLVALUE PUSH3 0xF6 JUMPI PUSH1 0x20 CALLDATASIZE PUSH1 0x3 NOT ADD SLT PUSH3 0xF6 JUMPI PUSH1 0x4 CALLDATALOAD PUSH1 0x9 SLOAD DUP2 LT ISZERO PUSH3 0x170 JUMPI PUSH1 0x9 PUSH1 0xC SWAP3 MSTORE MUL PUSH1 0x1 DUP1 PUSH1 0xA0 SHL SUB PUSH3 0x16C DUP2 DUP4 PUSH32 0x6E1540171B6C0C960B71A7020D9F60077F6AF931A8BBF590DA0223DACF75C7AF ADD SLOAD AND SWAP2 PUSH32 0x6E1540171B6C0C960B71A7020D9F60077F6AF931A8BBF590DA0223DACF75C7B0 DUP5 ADD SLOAD AND SWAP3 PUSH3 0xDBC PUSH32 0x6E1540171B6C0C960B71A7020D9F60077F6AF931A8BBF590DA0223DACF75C7B1 DUP3 ADD PUSH3 0x1127 JUMP JUMPDEST SWAP1 PUSH3 0xDEA PUSH32 0x6E1540171B6C0C960B71A7020D9F60077F6AF931A8BBF590DA0223DACF75C7B2 DUP3 ADD PUSH3 0x1127 JUMP JUMPDEST PUSH32 0x6E1540171B6C0C960B71A7020D9F60077F6AF931A8BBF590DA0223DACF75C7B3 DUP3 ADD SLOAD PUSH3 0xE3B PUSH32 0x6E1540171B6C0C960B71A7020D9F60077F6AF931A8BBF590DA0223DACF75C7B4 DUP5 ADD PUSH3 0x1127 JUMP JUMPDEST PUSH3 0xE68 PUSH32 0x6E1540171B6C0C960B71A7020D9F60077F6AF931A8BBF590DA0223DACF75C7B5 DUP6 ADD PUSH3 0x1127 JUMP JUMPDEST PUSH3 0xE95 PUSH32 0x6E1540171B6C0C960B71A7020D9F60077F6AF931A8BBF590DA0223DACF75C7B6 DUP7 ADD PUSH3 0x1127 JUMP JUMPDEST SWAP2 PUSH3 0xEC3 PUSH32 0x6E1540171B6C0C960B71A7020D9F60077F6AF931A8BBF590DA0223DACF75C7B7 DUP8 ADD PUSH3 0x1127 JUMP JUMPDEST SWAP4 PUSH3 0xEF1 PUSH32 0x6E1540171B6C0C960B71A7020D9F60077F6AF931A8BBF590DA0223DACF75C7B8 DUP9 ADD PUSH3 0x1127 JUMP JUMPDEST SWAP6 PUSH1 0xFF PUSH32 0x6E1540171B6C0C960B71A7020D9F60077F6AF931A8BBF590DA0223DACF75C7BA PUSH3 0xCAD PUSH32 0x6E1540171B6C0C960B71A7020D9F60077F6AF931A8BBF590DA0223DACF75C7B9 DUP12 ADD PUSH3 0x1127 JUMP JUMPDEST POP CALLVALUE PUSH3 0xF6 JUMPI PUSH1 0x20 CALLDATASIZE PUSH1 0x3 NOT ADD SLT PUSH3 0xF6 JUMPI PUSH3 0xF60 PUSH3 0x1090 JUMP JUMPDEST DUP2 PUSH1 0x40 PUSH1 0x1 DUP1 PUSH1 0xA0 SHL SUB DUP1 SWAP4 PUSH3 0xF7C DUP3 DUP6 SLOAD AND CALLER EQ PUSH3 0x138F JUMP JUMPDEST AND SWAP3 DUP4 DUP4 MSTORE PUSH1 0x8 PUSH1 0x20 MSTORE PUSH1 0xB DUP3 DUP5 KECCAK256 ADD PUSH1 0xFF NOT DUP2 SLOAD AND SWAP1 SSTORE PUSH1 0x64 DUP2 PUSH1 0x2 SLOAD AND SWAP2 DUP5 SLOAD AND DUP4 MLOAD SWAP5 DUP6 SWAP4 DUP5 SWAP3 PUSH4 0xE79A4089 PUSH1 0xE0 SHL DUP5 MSTORE DUP9 PUSH1 0x4 DUP6 ADD MSTORE DUP5 PUSH1 0x24 DUP6 ADD MSTORE PUSH1 0x44 DUP5 ADD MSTORE GAS CALL DUP1 ISZERO PUSH3 0xA55 JUMPI PUSH32 0x540BCEC33387745B2CED30977DCFE4A623A245511EB0A133989C27C8BB95B4A9 SWAP2 PUSH1 0x40 SWAP2 DUP6 SWAP2 DUP7 SWAP2 PUSH3 0x1008 JUMPI JUMPDEST POP DUP3 MLOAD SWAP2 DUP3 MSTORE PUSH1 0x20 DUP3 ADD MSTORE LOG2 DUP1 RETURN JUMPDEST SWAP1 POP PUSH3 0x1025 SWAP2 POP DUP3 RETURNDATASIZE DUP5 GT PUSH3 0x948 JUMPI PUSH3 0x938 DUP2 DUP4 PUSH3 0x1105 JUMP JUMPDEST CODESIZE PUSH3 0xFF9 JUMP JUMPDEST POP CALLVALUE PUSH3 0xF6 JUMPI DUP1 PUSH1 0x3 NOT CALLDATASIZE ADD SLT PUSH3 0xF6 JUMPI SLOAD PUSH1 0x40 MLOAD PUSH1 0x1 PUSH1 0x1 PUSH1 0xA0 SHL SUB SWAP1 SWAP2 AND DUP2 MSTORE PUSH1 0x20 SWAP1 RETURN JUMPDEST POP CALLVALUE PUSH3 0xF6 JUMPI DUP1 PUSH1 0x3 NOT CALLDATASIZE ADD SLT PUSH3 0xF6 JUMPI SLOAD PUSH1 0x20 SWAP1 PUSH1 0x1 PUSH1 0x1 PUSH1 0xA0 SHL SUB SWAP1 PUSH3 0x1084 SWAP1 DUP3 AND CALLER EQ PUSH3 0x138F JUMP JUMPDEST PUSH1 0x3 SLOAD AND PUSH1 0x40 MLOAD SWAP1 DUP2 MSTORE RETURN JUMPDEST PUSH1 0x4 CALLDATALOAD SWAP1 PUSH1 0x1 PUSH1 0x1 PUSH1 0xA0 SHL SUB DUP3 AND DUP3 SUB PUSH3 0x10A7 JUMPI JUMP JUMPDEST PUSH1 0x0 DUP1 REVERT JUMPDEST SWAP1 PUSH1 0x1 DUP3 DUP2 SHR SWAP3 AND DUP1 ISZERO PUSH3 0x10DE JUMPI JUMPDEST PUSH1 0x20 DUP4 LT EQ PUSH3 0x10C8 JUMPI JUMP JUMPDEST PUSH4 0x4E487B71 PUSH1 0xE0 SHL PUSH1 0x0 MSTORE PUSH1 0x22 PUSH1 0x4 MSTORE PUSH1 0x24 PUSH1 0x0 REVERT JUMPDEST SWAP2 PUSH1 0x7F AND SWAP2 PUSH3 0x10BC JUMP JUMPDEST PUSH1 0x80 DUP2 ADD SWAP1 DUP2 LT PUSH1 0x1 PUSH1 0x1 PUSH1 0x40 SHL SUB DUP3 GT OR PUSH3 0x905 JUMPI PUSH1 0x40 MSTORE JUMP JUMPDEST SWAP1 PUSH1 0x1F DUP1 NOT SWAP2 ADD AND DUP2 ADD SWAP1 DUP2 LT PUSH1 0x1 PUSH1 0x1 PUSH1 0x40 SHL SUB DUP3 GT OR PUSH3 0x905 JUMPI PUSH1 0x40 MSTORE JUMP JUMPDEST SWAP1 PUSH1 0x40 MLOAD SWAP2 DUP3 PUSH1 0x0 DUP3 SLOAD PUSH3 0x113C DUP2 PUSH3 0x10AC JUMP JUMPDEST SWAP1 DUP2 DUP5 MSTORE PUSH1 0x20 SWAP5 PUSH1 0x1 SWAP2 PUSH1 0x1 DUP2 AND SWAP1 DUP2 PUSH1 0x0 EQ PUSH3 0x11B4 JUMPI POP PUSH1 0x1 EQ PUSH3 0x1171 JUMPI JUMPDEST POP POP POP PUSH3 0x116F SWAP3 POP SUB DUP4 PUSH3 0x1105 JUMP JUMPDEST JUMP JUMPDEST PUSH1 0x0 SWAP1 DUP2 MSTORE DUP6 DUP2 KECCAK256 SWAP6 SWAP4 POP SWAP2 SWAP1 JUMPDEST DUP2 DUP4 LT PUSH3 0x119B JUMPI POP POP PUSH3 0x116F SWAP4 POP DUP3 ADD ADD CODESIZE DUP1 DUP1 PUSH3 0x115E JUMP JUMPDEST DUP6 SLOAD DUP9 DUP5 ADD DUP6 ADD MSTORE SWAP5 DUP6 ADD SWAP5 DUP8 SWAP5 POP SWAP2 DUP4 ADD SWAP2 PUSH3 0x117F JUMP JUMPDEST SWAP3 POP POP POP PUSH3 0x116F SWAP5 SWAP3 POP PUSH1 0xFF NOT AND DUP3 DUP5 ADD MSTORE ISZERO ISZERO PUSH1 0x5 SHL DUP3 ADD ADD CODESIZE DUP1 DUP1 PUSH3 0x115E JUMP JUMPDEST SWAP2 SWAP1 DUP3 MLOAD SWAP3 DUP4 DUP3 MSTORE PUSH1 0x0 JUMPDEST DUP5 DUP2 LT PUSH3 0x1205 JUMPI POP POP DUP3 PUSH1 0x0 PUSH1 0x20 DUP1 SWAP5 SWAP6 DUP5 ADD ADD MSTORE PUSH1 0x1F DUP1 NOT SWAP2 ADD AND ADD ADD SWAP1 JUMP JUMPDEST PUSH1 0x20 DUP2 DUP4 ADD DUP2 ADD MLOAD DUP5 DUP4 ADD DUP3 ADD MSTORE ADD PUSH3 0x11E3 JUMP JUMPDEST SWAP11 SWAP8 SWAP2 SWAP7 PUSH3 0x1295 PUSH3 0x12C3 SWAP7 SWAP14 SWAP15 SWAP14 PUSH2 0x160 SWAP13 SWAP9 DUP15 PUSH3 0x1281 PUSH3 0x12E3 SWAP15 SWAP10 PUSH3 0x1272 PUSH3 0x12B3 SWAP11 PUSH3 0x12D3 SWAP16 PUSH3 0x12A4 SWAP11 PUSH2 0x180 SWAP2 PUSH1 0x1 DUP1 PUSH1 0xA0 SHL SUB DUP1 SWAP3 AND DUP9 MSTORE AND PUSH1 0x20 DUP8 ADD MSTORE DUP1 PUSH1 0x40 DUP8 ADD MSTORE DUP6 ADD SWAP1 PUSH3 0x11D8 JUMP JUMPDEST SWAP1 DUP4 DUP3 SUB PUSH1 0x60 DUP6 ADD MSTORE PUSH3 0x11D8 JUMP JUMPDEST SWAP3 PUSH1 0x80 DUP3 ADD MSTORE PUSH1 0xA0 DUP2 DUP5 SUB SWAP2 ADD MSTORE PUSH3 0x11D8 JUMP JUMPDEST DUP13 DUP2 SUB PUSH1 0xC0 DUP15 ADD MSTORE SWAP1 PUSH3 0x11D8 JUMP JUMPDEST SWAP1 DUP11 DUP3 SUB PUSH1 0xE0 DUP13 ADD MSTORE PUSH3 0x11D8 JUMP JUMPDEST SWAP1 DUP9 DUP3 SUB PUSH2 0x100 DUP11 ADD MSTORE PUSH3 0x11D8 JUMP JUMPDEST SWAP1 DUP7 DUP3 SUB PUSH2 0x120 DUP9 ADD MSTORE PUSH3 0x11D8 JUMP JUMPDEST SWAP1 DUP5 DUP3 SUB PUSH2 0x140 DUP7 ADD MSTORE PUSH3 0x11D8 JUMP JUMPDEST SWAP4 ISZERO ISZERO SWAP2 ADD MSTORE JUMP JUMPDEST PUSH1 0x1 PUSH1 0x1 PUSH1 0x40 SHL SUB DUP2 GT PUSH3 0x905 JUMPI PUSH1 0x1F ADD PUSH1 0x1F NOT AND PUSH1 0x20 ADD SWAP1 JUMP JUMPDEST DUP2 PUSH1 0x1F DUP3 ADD SLT ISZERO PUSH3 0x10A7 JUMPI DUP1 CALLDATALOAD SWAP1 PUSH3 0x1321 DUP3 PUSH3 0x12EB JUMP JUMPDEST SWAP3 PUSH3 0x1331 PUSH1 0x40 MLOAD SWAP5 DUP6 PUSH3 0x1105 JUMP JUMPDEST DUP3 DUP5 MSTORE PUSH1 0x20 DUP4 DUP4 ADD ADD GT PUSH3 0x10A7 JUMPI DUP2 PUSH1 0x0 SWAP3 PUSH1 0x20 DUP1 SWAP4 ADD DUP4 DUP7 ADD CALLDATACOPY DUP4 ADD ADD MSTORE SWAP1 JUMP JUMPDEST PUSH1 0x7 SLOAD DUP2 LT ISZERO PUSH3 0x8EF JUMPI PUSH1 0x7 PUSH1 0x0 MSTORE PUSH1 0x2 SHL PUSH32 0xA66CC928B5EDB82AF9BD49922954155AB7B0942694BEA4CE44661D9A8736C688 ADD SWAP1 PUSH1 0x0 SWAP1 JUMP JUMPDEST ISZERO PUSH3 0x1397 JUMPI JUMP JUMPDEST PUSH1 0x40 MLOAD PUSH3 0x461BCD PUSH1 0xE5 SHL DUP2 MSTORE PUSH1 0x20 PUSH1 0x4 DUP3 ADD MSTORE PUSH1 0x26 PUSH1 0x24 DUP3 ADD MSTORE PUSH32 0x4F6E6C7920746865206F776E65722063616E2063616C6C20746869732066756E PUSH1 0x44 DUP3 ADD MSTORE PUSH6 0x31BA34B7B717 PUSH1 0xD1 SHL PUSH1 0x64 DUP3 ADD MSTORE PUSH1 0x84 SWAP1 REVERT JUMPDEST SWAP2 SWAP1 DUP3 PUSH1 0x40 SWAP2 SUB SLT PUSH3 0x10A7 JUMPI PUSH1 0x20 DUP3 MLOAD SWAP3 ADD MLOAD SWAP1 JUMP JUMPDEST PUSH1 0x40 MLOAD PUSH4 0x95EA7B3 PUSH1 0xE0 SHL DUP2 MSTORE PUSH1 0x1 PUSH1 0x1 PUSH1 0xA0 SHL SUB SWAP2 DUP3 AND PUSH1 0x4 DUP3 ADD MSTORE PUSH1 0x24 DUP2 ADD SWAP4 SWAP1 SWAP4 MSTORE PUSH1 0x0 SWAP3 SWAP2 PUSH1 0x20 SWAP2 DUP4 SWAP2 PUSH1 0x44 SWAP2 DUP4 SWAP2 DUP8 SWAP2 AND GAS CALL DUP1 ISZERO PUSH3 0x148D JUMPI PUSH3 0x144E JUMPI JUMPDEST POP POP PUSH1 0x1 SWAP1 JUMP JUMPDEST PUSH1 0x20 DUP2 RETURNDATASIZE PUSH1 0x20 GT PUSH3 0x1484 JUMPI JUMPDEST DUP2 PUSH3 0x146A PUSH1 0x20 SWAP4 DUP4 PUSH3 0x1105 JUMP JUMPDEST DUP2 ADD SUB SLT PUSH3 0x170 JUMPI MLOAD DUP1 ISZERO ISZERO SUB PUSH3 0xF6 JUMPI DUP1 PUSH3 0x1447 JUMP JUMPDEST RETURNDATASIZE SWAP2 POP PUSH3 0x145B JUMP JUMPDEST PUSH1 0x40 MLOAD RETURNDATASIZE DUP5 DUP3 RETURNDATACOPY RETURNDATASIZE SWAP1 REVERT JUMPDEST SWAP1 DUP2 PUSH1 0x20 SWAP2 SUB SLT PUSH3 0x10A7 JUMPI MLOAD PUSH1 0x1 PUSH1 0x1 PUSH1 0xA0 SHL SUB DUP2 AND DUP2 SUB PUSH3 0x10A7 JUMPI SWAP1 JUMP JUMPDEST SWAP1 DUP2 PUSH1 0x20 SWAP2 SUB SLT PUSH3 0x10A7 JUMPI MLOAD PUSH1 0xFF DUP2 AND DUP2 SUB PUSH3 0x10A7 JUMPI SWAP1 JUMP JUMPDEST PUSH1 0xFF AND PUSH1 0x4D DUP2 GT PUSH3 0x14E6 JUMPI PUSH1 0xA EXP SWAP1 JUMP JUMPDEST PUSH4 0x4E487B71 PUSH1 0xE0 SHL PUSH1 0x0 MSTORE PUSH1 0x11 PUSH1 0x4 MSTORE PUSH1 0x24 PUSH1 0x0 REVERT JUMPDEST DUP2 DUP2 MUL SWAP3 SWAP2 DUP2 ISZERO SWAP2 DUP5 DIV EQ OR ISZERO PUSH3 0x14E6 JUMPI JUMP JUMPDEST SWAP2 SWAP1 DUP3 SUB SWAP2 DUP3 GT PUSH3 0x14E6 JUMPI JUMP JUMPDEST DUP2 DUP2 LT PUSH3 0x152A JUMPI POP POP JUMP JUMPDEST PUSH1 0x0 DUP2 SSTORE PUSH1 0x1 ADD PUSH3 0x151E JUMP JUMPDEST DUP2 MLOAD DUP2 SLOAD PUSH1 0x1 PUSH1 0x1 PUSH1 0xA0 SHL SUB NOT SWAP1 DUP2 AND PUSH1 0x1 PUSH1 0x1 PUSH1 0xA0 SHL SUB SWAP3 DUP4 AND OR DUP4 SSTORE PUSH1 0x20 DUP1 DUP6 ADD MLOAD PUSH1 0x1 DUP6 DUP2 ADD DUP1 SLOAD SWAP1 SWAP5 AND SWAP2 SWAP1 SWAP5 AND OR SWAP1 SWAP2 SSTORE PUSH1 0x40 DUP5 ADD MLOAD DUP1 MLOAD PUSH1 0x1 PUSH1 0x1 PUSH1 0x40 SHL SUB SWAP3 SWAP1 PUSH1 0x2 DUP7 ADD SWAP1 DUP5 DUP2 GT PUSH3 0x905 JUMPI PUSH3 0x1597 DUP3 SLOAD PUSH3 0x10AC JUMP JUMPDEST SWAP4 PUSH1 0x1F SWAP5 DUP6 DUP2 GT PUSH3 0x1D94 JUMPI JUMPDEST POP DUP4 SWAP1 DUP6 DUP4 GT PUSH1 0x1 EQ PUSH3 0x1D2D JUMPI PUSH3 0x15D7 SWAP3 SWAP2 PUSH1 0x0 SWAP2 DUP4 PUSH3 0x18A0 JUMPI JUMPDEST POP POP DUP2 PUSH1 0x1 SHL SWAP2 PUSH1 0x0 NOT SWAP1 PUSH1 0x3 SHL SHR NOT AND OR SWAP1 JUMP JUMPDEST SWAP1 SSTORE JUMPDEST PUSH1 0x3 SWAP4 DUP5 DUP7 ADD PUSH1 0x60 DUP9 ADD MLOAD DUP1 MLOAD SWAP1 DUP7 DUP3 GT PUSH3 0x905 JUMPI PUSH3 0x15FC DUP4 SLOAD PUSH3 0x10AC JUMP JUMPDEST DUP7 DUP2 GT PUSH3 0x1CF0 JUMPI JUMPDEST POP DUP5 SWAP1 DUP7 DUP4 GT PUSH1 0x1 EQ PUSH3 0x1C8A JUMPI PUSH3 0x1637 SWAP3 SWAP2 PUSH1 0x0 SWAP2 DUP4 PUSH3 0x18A0 JUMPI POP POP DUP2 PUSH1 0x1 SHL SWAP2 PUSH1 0x0 NOT SWAP1 PUSH1 0x3 SHL SHR NOT AND OR SWAP1 JUMP JUMPDEST SWAP1 SSTORE JUMPDEST PUSH1 0x4 SWAP2 PUSH1 0x80 DUP9 ADD MLOAD DUP4 DUP9 ADD SSTORE PUSH1 0x5 SWAP6 DUP7 DUP9 ADD PUSH1 0xA0 DUP11 ADD MLOAD DUP1 MLOAD SWAP1 DUP9 DUP3 GT PUSH3 0x1A19 JUMPI PUSH3 0x1668 DUP4 SLOAD PUSH3 0x10AC JUMP JUMPDEST DUP9 DUP2 GT PUSH3 0x1C59 JUMPI JUMPDEST POP DUP5 SWAP1 DUP9 DUP4 GT PUSH1 0x1 EQ PUSH3 0x1BF3 JUMPI PUSH3 0x16A3 SWAP3 SWAP2 PUSH1 0x0 SWAP2 DUP4 PUSH3 0x18A0 JUMPI POP POP DUP2 PUSH1 0x1 SHL SWAP2 PUSH1 0x0 NOT SWAP1 PUSH1 0x3 SHL SHR NOT AND OR SWAP1 JUMP JUMPDEST SWAP1 SSTORE JUMPDEST PUSH1 0x6 DUP9 ADD PUSH1 0xC0 DUP11 ADD MLOAD DUP1 MLOAD SWAP1 DUP9 DUP3 GT PUSH3 0x1A19 JUMPI PUSH3 0x16C6 DUP4 SLOAD PUSH3 0x10AC JUMP JUMPDEST DUP9 DUP2 GT PUSH3 0x1BC2 JUMPI JUMPDEST POP DUP5 SWAP1 DUP9 DUP4 GT PUSH1 0x1 EQ PUSH3 0x1B5C JUMPI PUSH3 0x1701 SWAP3 SWAP2 PUSH1 0x0 SWAP2 DUP4 PUSH3 0x18A0 JUMPI POP POP DUP2 PUSH1 0x1 SHL SWAP2 PUSH1 0x0 NOT SWAP1 PUSH1 0x3 SHL SHR NOT AND OR SWAP1 JUMP JUMPDEST SWAP1 SSTORE JUMPDEST PUSH1 0x7 DUP9 ADD PUSH1 0xE0 DUP11 ADD MLOAD DUP1 MLOAD SWAP1 DUP9 DUP3 GT PUSH3 0x1A19 JUMPI PUSH3 0x1724 DUP4 SLOAD PUSH3 0x10AC JUMP JUMPDEST DUP9 DUP2 GT PUSH3 0x1B2B JUMPI JUMPDEST POP DUP5 SWAP1 DUP9 DUP4 GT PUSH1 0x1 EQ PUSH3 0x1AC5 JUMPI PUSH3 0x175F SWAP3 SWAP2 PUSH1 0x0 SWAP2 DUP4 PUSH3 0x18A0 JUMPI POP POP DUP2 PUSH1 0x1 SHL SWAP2 PUSH1 0x0 NOT SWAP1 PUSH1 0x3 SHL SHR NOT AND OR SWAP1 JUMP JUMPDEST SWAP1 SSTORE JUMPDEST PUSH1 0x8 DUP9 ADD PUSH2 0x100 DUP11 ADD MLOAD DUP1 MLOAD SWAP1 DUP9 DUP3 GT PUSH3 0x1A19 JUMPI PUSH3 0x1783 DUP4 SLOAD PUSH3 0x10AC JUMP JUMPDEST DUP9 DUP2 GT PUSH3 0x1A94 JUMPI JUMPDEST POP DUP5 SWAP1 DUP9 DUP4 GT PUSH1 0x1 EQ PUSH3 0x1A2E JUMPI PUSH3 0x17BE SWAP3 SWAP2 PUSH1 0x0 SWAP2 DUP4 PUSH3 0x18A0 JUMPI POP POP DUP2 PUSH1 0x1 SHL SWAP2 PUSH1 0x0 NOT SWAP1 PUSH1 0x3 SHL SHR NOT AND OR SWAP1 JUMP JUMPDEST SWAP1 SSTORE JUMPDEST PUSH1 0x9 DUP9 ADD PUSH2 0x120 DUP11 ADD MLOAD DUP1 MLOAD SWAP1 DUP9 DUP3 GT PUSH3 0x1A19 JUMPI PUSH3 0x17E2 DUP4 SLOAD PUSH3 0x10AC JUMP JUMPDEST DUP9 DUP2 GT PUSH3 0x19DD JUMPI JUMPDEST POP DUP5 SWAP1 DUP9 DUP4 GT PUSH1 0x1 EQ PUSH3 0x1977 JUMPI PUSH3 0x181D SWAP3 SWAP2 PUSH1 0x0 SWAP2 DUP4 PUSH3 0x18A0 JUMPI POP POP DUP2 PUSH1 0x1 SHL SWAP2 PUSH1 0x0 NOT SWAP1 PUSH1 0x3 SHL SHR NOT AND OR SWAP1 JUMP JUMPDEST SWAP1 SSTORE JUMPDEST PUSH1 0xA DUP9 ADD SWAP7 PUSH2 0x140 DUP11 ADD MLOAD SWAP5 DUP6 MLOAD SWAP8 DUP9 GT PUSH3 0x1962 JUMPI POP PUSH3 0x1843 DUP9 SLOAD PUSH3 0x10AC JUMP JUMPDEST DUP7 DUP2 GT PUSH3 0x1925 JUMPI JUMPDEST POP POP DUP2 SWAP5 DUP7 GT PUSH1 0x1 EQ PUSH3 0x18AC JUMPI POP POP POP DUP3 PUSH2 0x160 SWAP6 SWAP4 PUSH1 0xB SWAP6 SWAP4 PUSH3 0x1889 SWAP4 PUSH1 0x0 SWAP3 PUSH3 0x18A0 JUMPI POP POP DUP2 PUSH1 0x1 SHL SWAP2 PUSH1 0x0 NOT SWAP1 PUSH1 0x3 SHL SHR NOT AND OR SWAP1 JUMP JUMPDEST SWAP1 SSTORE JUMPDEST ADD SWAP2 ADD MLOAD ISZERO ISZERO PUSH1 0xFF DUP1 NOT DUP4 SLOAD AND SWAP2 AND OR SWAP1 SSTORE JUMP JUMPDEST ADD MLOAD SWAP1 POP CODESIZE DUP1 PUSH3 0x15C2 JUMP JUMPDEST SWAP2 SWAP5 SWAP4 SWAP1 SWAP3 PUSH1 0x1F NOT DUP6 AND DUP8 PUSH1 0x0 MSTORE DUP5 PUSH1 0x0 KECCAK256 SWAP5 PUSH1 0x0 SWAP1 JUMPDEST DUP3 DUP3 LT PUSH3 0x190D JUMPI POP POP SWAP2 DUP6 SWAP4 SWAP2 PUSH1 0xB SWAP9 SWAP7 PUSH2 0x160 SWAP11 SWAP9 SWAP7 SWAP5 LT PUSH3 0x18F2 JUMPI JUMPDEST POP POP POP POP DUP2 SHL ADD SWAP1 SSTORE PUSH3 0x188C JUMP JUMPDEST ADD MLOAD SWAP1 PUSH1 0xF8 DUP5 PUSH1 0x0 NOT SWAP3 SHL AND SHR NOT AND SWAP1 SSTORE CODESIZE DUP1 DUP1 DUP1 PUSH3 0x18E3 JUMP JUMPDEST DUP1 DUP10 DUP7 SWAP9 DUP3 SWAP5 SWAP8 DUP8 ADD MLOAD DUP2 SSTORE ADD SWAP8 ADD SWAP5 ADD SWAP1 PUSH3 0x18C3 JUMP JUMPDEST PUSH3 0x1950 SWAP2 DUP10 PUSH1 0x0 MSTORE DUP5 PUSH1 0x0 KECCAK256 SWAP1 DUP9 DUP1 DUP12 ADD DUP3 SHR DUP4 ADD SWAP4 DUP8 DUP13 LT PUSH3 0x1958 JUMPI JUMPDEST ADD SWAP1 SHR ADD SWAP1 PUSH3 0x151E JUMP JUMPDEST CODESIZE DUP1 PUSH3 0x184C JUMP JUMPDEST SWAP4 POP DUP3 SWAP4 PUSH3 0x1945 JUMP JUMPDEST PUSH1 0x41 SWAP1 PUSH4 0x4E487B71 PUSH1 0xE0 SHL PUSH1 0x0 MSTORE MSTORE PUSH1 0x24 PUSH1 0x0 REVERT JUMPDEST DUP7 SWAP3 SWAP2 PUSH1 0x1F NOT DUP4 AND SWAP2 DUP6 PUSH1 0x0 MSTORE DUP8 PUSH1 0x0 KECCAK256 SWAP3 PUSH1 0x0 JUMPDEST DUP10 DUP3 DUP3 LT PUSH3 0x19C6 JUMPI POP POP DUP5 GT PUSH3 0x19AD JUMPI JUMPDEST POP POP POP DUP2 SHL ADD SWAP1 SSTORE PUSH3 0x1820 JUMP JUMPDEST ADD MLOAD PUSH1 0x0 NOT DUP4 DUP8 SHL PUSH1 0xF8 AND SHR NOT AND SWAP1 SSTORE CODESIZE DUP1 DUP1 PUSH3 0x199F JUMP JUMPDEST DUP4 DUP6 ADD MLOAD DUP7 SSTORE DUP12 SWAP8 SWAP1 SWAP6 ADD SWAP5 SWAP4 DUP5 ADD SWAP4 ADD PUSH3 0x198C JUMP JUMPDEST PUSH3 0x1A08 SWAP1 DUP5 PUSH1 0x0 MSTORE DUP7 PUSH1 0x0 KECCAK256 DUP11 DUP14 DUP2 DUP8 ADD SWAP1 SHR DUP3 ADD SWAP3 DUP10 DUP8 LT PUSH3 0x1A0F JUMPI JUMPDEST ADD DUP14 SHR ADD SWAP1 PUSH3 0x151E JUMP JUMPDEST CODESIZE PUSH3 0x17EB JUMP JUMPDEST SWAP3 POP DUP2 SWAP3 PUSH3 0x19FD JUMP JUMPDEST PUSH1 0x41 DUP8 PUSH4 0x4E487B71 PUSH1 0xE0 SHL PUSH1 0x0 MSTORE MSTORE PUSH1 0x24 PUSH1 0x0 REVERT JUMPDEST DUP7 SWAP3 SWAP2 PUSH1 0x1F NOT DUP4 AND SWAP2 DUP6 PUSH1 0x0 MSTORE DUP8 PUSH1 0x0 KECCAK256 SWAP3 PUSH1 0x0 JUMPDEST DUP10 DUP3 DUP3 LT PUSH3 0x1A7D JUMPI POP POP DUP5 GT PUSH3 0x1A64 JUMPI JUMPDEST POP POP POP DUP2 SHL ADD SWAP1 SSTORE PUSH3 0x17C1 JUMP JUMPDEST ADD MLOAD PUSH1 0x0 NOT DUP4 DUP8 SHL PUSH1 0xF8 AND SHR NOT AND SWAP1 SSTORE CODESIZE DUP1 DUP1 PUSH3 0x1A56 JUMP JUMPDEST DUP4 DUP6 ADD MLOAD DUP7 SSTORE DUP12 SWAP8 SWAP1 SWAP6 ADD SWAP5 SWAP4 DUP5 ADD SWAP4 ADD PUSH3 0x1A43 JUMP JUMPDEST PUSH3 0x1ABE SWAP1 DUP5 PUSH1 0x0 MSTORE DUP7 PUSH1 0x0 KECCAK256 DUP11 DUP14 DUP2 DUP8 ADD SWAP1 SHR DUP3 ADD SWAP3 DUP10 DUP8 LT PUSH3 0x1A0F JUMPI ADD DUP14 SHR ADD SWAP1 PUSH3 0x151E JUMP JUMPDEST CODESIZE PUSH3 0x178C JUMP JUMPDEST DUP7 SWAP3 SWAP2 PUSH1 0x1F NOT DUP4 AND SWAP2 DUP6 PUSH1 0x0 MSTORE DUP8 PUSH1 0x0 KECCAK256 SWAP3 PUSH1 0x0 JUMPDEST DUP10 DUP3 DUP3 LT PUSH3 0x1B14 JUMPI POP POP DUP5 GT PUSH3 0x1AFB JUMPI JUMPDEST POP POP POP DUP2 SHL ADD SWAP1 SSTORE PUSH3 0x1762 JUMP JUMPDEST ADD MLOAD PUSH1 0x0 NOT DUP4 DUP8 SHL PUSH1 0xF8 AND SHR NOT AND SWAP1 SSTORE CODESIZE DUP1 DUP1 PUSH3 0x1AED JUMP JUMPDEST DUP4 DUP6 ADD MLOAD DUP7 SSTORE DUP12 SWAP8 SWAP1 SWAP6 ADD SWAP5 SWAP4 DUP5 ADD SWAP4 ADD PUSH3 0x1ADA JUMP JUMPDEST PUSH3 0x1B55 SWAP1 DUP5 PUSH1 0x0 MSTORE DUP7 PUSH1 0x0 KECCAK256 DUP11 DUP14 DUP2 DUP8 ADD SWAP1 SHR DUP3 ADD SWAP3 DUP10 DUP8 LT PUSH3 0x1A0F JUMPI ADD DUP14 SHR ADD SWAP1 PUSH3 0x151E JUMP JUMPDEST CODESIZE PUSH3 0x172D JUMP JUMPDEST DUP7 SWAP3 SWAP2 PUSH1 0x1F NOT DUP4 AND SWAP2 DUP6 PUSH1 0x0 MSTORE DUP8 PUSH1 0x0 KECCAK256 SWAP3 PUSH1 0x0 JUMPDEST DUP10 DUP3 DUP3 LT PUSH3 0x1BAB JUMPI POP POP DUP5 GT PUSH3 0x1B92 JUMPI JUMPDEST POP POP POP DUP2 SHL ADD SWAP1 SSTORE PUSH3 0x1704 JUMP JUMPDEST ADD MLOAD PUSH1 0x0 NOT DUP4 DUP8 SHL PUSH1 0xF8 AND SHR NOT AND SWAP1 SSTORE CODESIZE DUP1 DUP1 PUSH3 0x1B84 JUMP JUMPDEST DUP4 DUP6 ADD MLOAD DUP7 SSTORE DUP12 SWAP8 SWAP1 SWAP6 ADD SWAP5 SWAP4 DUP5 ADD SWAP4 ADD PUSH3 0x1B71 JUMP JUMPDEST PUSH3 0x1BEC SWAP1 DUP5 PUSH1 0x0 MSTORE DUP7 PUSH1 0x0 KECCAK256 DUP11 DUP14 DUP2 DUP8 ADD SWAP1 SHR DUP3 ADD SWAP3 DUP10 DUP8 LT PUSH3 0x1A0F JUMPI ADD DUP14 SHR ADD SWAP1 PUSH3 0x151E JUMP JUMPDEST CODESIZE PUSH3 0x16CF JUMP JUMPDEST DUP7 SWAP3 SWAP2 PUSH1 0x1F NOT DUP4 AND SWAP2 DUP6 PUSH1 0x0 MSTORE DUP8 PUSH1 0x0 KECCAK256 SWAP3 PUSH1 0x0 JUMPDEST DUP10 DUP3 DUP3 LT PUSH3 0x1C42 JUMPI POP POP DUP5 GT PUSH3 0x1C29 JUMPI JUMPDEST POP POP POP DUP2 SHL ADD SWAP1 SSTORE PUSH3 0x16A6 JUMP JUMPDEST ADD MLOAD PUSH1 0x0 NOT DUP4 DUP8 SHL PUSH1 0xF8 AND SHR NOT AND SWAP1 SSTORE CODESIZE DUP1 DUP1 PUSH3 0x1C1B JUMP JUMPDEST DUP4 DUP6 ADD MLOAD DUP7 SSTORE DUP12 SWAP8 SWAP1 SWAP6 ADD SWAP5 SWAP4 DUP5 ADD SWAP4 ADD PUSH3 0x1C08 JUMP JUMPDEST PUSH3 0x1C83 SWAP1 DUP5 PUSH1 0x0 MSTORE DUP7 PUSH1 0x0 KECCAK256 DUP11 DUP14 DUP2 DUP8 ADD SWAP1 SHR DUP3 ADD SWAP3 DUP10 DUP8 LT PUSH3 0x1A0F JUMPI ADD DUP14 SHR ADD SWAP1 PUSH3 0x151E JUMP JUMPDEST CODESIZE PUSH3 0x1671 JUMP JUMPDEST DUP5 SWAP3 SWAP2 PUSH1 0x1F NOT DUP4 AND SWAP2 DUP6 PUSH1 0x0 MSTORE DUP8 PUSH1 0x0 KECCAK256 SWAP3 PUSH1 0x0 JUMPDEST DUP10 DUP3 DUP3 LT PUSH3 0x1CD9 JUMPI POP POP DUP5 GT PUSH3 0x1CC0 JUMPI JUMPDEST POP POP POP DUP2 SHL ADD SWAP1 SSTORE PUSH3 0x163A JUMP JUMPDEST ADD MLOAD PUSH1 0x0 NOT DUP4 DUP12 SHL PUSH1 0xF8 AND SHR NOT AND SWAP1 SSTORE CODESIZE DUP1 DUP1 PUSH3 0x1CB2 JUMP JUMPDEST DUP4 DUP6 ADD MLOAD DUP7 SSTORE DUP10 SWAP8 SWAP1 SWAP6 ADD SWAP5 SWAP4 DUP5 ADD SWAP4 ADD PUSH3 0x1C9F JUMP JUMPDEST PUSH3 0x1D1C SWAP1 DUP5 PUSH1 0x0 MSTORE DUP7 PUSH1 0x0 KECCAK256 DUP9 DUP1 DUP7 ADD PUSH1 0x5 SHR DUP3 ADD SWAP3 DUP10 DUP8 LT PUSH3 0x1D23 JUMPI JUMPDEST ADD PUSH1 0x5 SHR ADD SWAP1 PUSH3 0x151E JUMP JUMPDEST CODESIZE PUSH3 0x1605 JUMP JUMPDEST SWAP3 POP DUP2 SWAP3 PUSH3 0x1D10 JUMP JUMPDEST DUP8 SWAP3 SWAP2 PUSH1 0x1F NOT DUP4 AND SWAP2 DUP6 PUSH1 0x0 MSTORE DUP7 PUSH1 0x0 KECCAK256 SWAP3 PUSH1 0x0 JUMPDEST DUP9 DUP3 DUP3 LT PUSH3 0x1D7D JUMPI POP POP DUP5 GT PUSH3 0x1D63 JUMPI JUMPDEST POP POP POP DUP2 SHL ADD SWAP1 SSTORE PUSH3 0x15DA JUMP JUMPDEST ADD MLOAD PUSH1 0x0 NOT PUSH1 0xF8 DUP5 PUSH1 0x3 SHL AND SHR NOT AND SWAP1 SSTORE CODESIZE DUP1 DUP1 PUSH3 0x1D55 JUMP JUMPDEST DUP4 DUP6 ADD MLOAD DUP7 SSTORE DUP13 SWAP8 SWAP1 SWAP6 ADD SWAP5 SWAP4 DUP5 ADD SWAP4 ADD PUSH3 0x1D42 JUMP JUMPDEST PUSH3 0x1DBF SWAP1 DUP5 PUSH1 0x0 MSTORE DUP6 PUSH1 0x0 KECCAK256 DUP8 DUP1 DUP7 ADD PUSH1 0x5 SHR DUP3 ADD SWAP3 DUP9 DUP8 LT PUSH3 0x1D23 JUMPI ADD PUSH1 0x5 SHR ADD SWAP1 PUSH3 0x151E JUMP JUMPDEST CODESIZE PUSH3 0x15A4 JUMP JUMPDEST SWAP1 DUP2 SLOAD PUSH1 0x1 PUSH1 0x40 SHL DUP2 LT ISZERO PUSH3 0x905 JUMPI PUSH1 0x1 DUP2 ADD DUP1 DUP5 SSTORE DUP2 LT ISZERO PUSH3 0x8EF JUMPI PUSH3 0x116F SWAP3 PUSH1 0x0 MSTORE PUSH1 0xC PUSH1 0x20 PUSH1 0x0 KECCAK256 SWAP2 MUL ADD PUSH3 0x1537 JUMP JUMPDEST DUP1 SLOAD SWAP1 PUSH1 0x1 PUSH1 0x40 SHL DUP3 LT ISZERO PUSH3 0x905 JUMPI PUSH1 0x1 DUP3 ADD DUP1 DUP3 SSTORE DUP3 LT ISZERO PUSH3 0x8EF JUMPI PUSH1 0x0 MSTORE PUSH1 0x20 PUSH1 0x0 KECCAK256 ADD SWAP1 PUSH1 0x1 DUP1 PUSH1 0xA0 SHL SUB AND PUSH12 0xFFFFFFFFFFFFFFFFFFFFFFFF PUSH1 0xA0 SHL DUP3 SLOAD AND OR SWAP1 SSTORE JUMP JUMPDEST RETURNDATASIZE ISZERO PUSH3 0x1E76 JUMPI RETURNDATASIZE SWAP1 PUSH3 0x1E5A DUP3 PUSH3 0x12EB JUMP JUMPDEST SWAP2 PUSH3 0x1E6A PUSH1 0x40 MLOAD SWAP4 DUP5 PUSH3 0x1105 JUMP JUMPDEST DUP3 MSTORE RETURNDATASIZE PUSH1 0x0 PUSH1 0x20 DUP5 ADD RETURNDATACOPY JUMP JUMPDEST PUSH1 0x60 SWAP1 JUMP JUMPDEST PUSH1 0x7 SLOAD SWAP1 PUSH1 0x0 JUMPDEST DUP3 DUP2 LT PUSH3 0x1E92 JUMPI POP POP POP PUSH1 0x0 SWAP1 JUMP JUMPDEST PUSH3 0x1E9D DUP2 PUSH3 0x1354 JUMP JUMPDEST POP SLOAD PUSH1 0x1 PUSH1 0x1 PUSH1 0xA0 SHL SUB DUP4 DUP2 AND SWAP2 AND EQ PUSH3 0x1EBB JUMPI PUSH1 0x1 ADD PUSH3 0x1E82 JUMP JUMPDEST POP POP POP PUSH1 0x1 SWAP1 JUMP JUMPDEST PUSH3 0x1ECF DUP2 SLOAD PUSH3 0x10AC JUMP JUMPDEST SWAP1 DUP2 PUSH3 0x1EDA JUMPI POP POP JUMP JUMPDEST DUP2 PUSH1 0x1F PUSH1 0x0 SWAP4 GT PUSH1 0x1 EQ PUSH3 0x1EED JUMPI POP SSTORE JUMP JUMPDEST SWAP1 DUP1 DUP4 SWAP2 DUP3 MSTORE PUSH3 0x1F0E PUSH1 0x1F PUSH1 0x20 DUP5 KECCAK256 SWAP5 ADD PUSH1 0x5 SHR DUP5 ADD PUSH1 0x1 DUP6 ADD PUSH3 0x151E JUMP JUMPDEST SSTORE SSTORE JUMP JUMPDEST PUSH1 0x1 DUP1 PUSH1 0xA0 SHL SUB SWAP1 DUP2 DUP4 MLOAD AND PUSH12 0xFFFFFFFFFFFFFFFFFFFFFFFF PUSH1 0xA0 SHL SWAP1 DUP2 DUP4 SLOAD AND OR DUP3 SSTORE PUSH1 0x1 SWAP4 PUSH1 0x1 DUP4 ADD PUSH1 0x20 SWAP3 DUP6 DUP5 DUP5 ADD MLOAD AND SWAP1 DUP3 SLOAD AND OR SWAP1 SSTORE PUSH1 0x2 SWAP3 PUSH1 0x2 DUP2 ADD SWAP4 PUSH1 0x40 DUP4 ADD MLOAD SWAP6 DUP7 MLOAD SWAP1 PUSH1 0x1 PUSH1 0x1 PUSH1 0x40 SHL SUB DUP3 GT PUSH3 0x905 JUMPI PUSH1 0x1 PUSH1 0x40 SHL SWAP8 DUP9 DUP4 GT PUSH3 0x905 JUMPI DUP7 SWAP1 DUP9 SLOAD DUP5 DUP11 SSTORE DUP1 DUP6 LT PUSH3 0x213B JUMPI JUMPDEST POP ADD SWAP1 PUSH1 0x0 SWAP8 DUP9 MSTORE DUP7 DUP9 KECCAK256 SWAP1 DUP11 DUP10 JUMPDEST DUP6 DUP2 LT PUSH3 0x2126 JUMPI POP POP POP POP POP POP PUSH1 0x60 PUSH1 0x3 DUP1 SWAP4 ADD SWAP4 ADD MLOAD SWAP2 DUP3 MLOAD SWAP7 DUP8 GT PUSH3 0x2112 JUMPI DUP4 SLOAD DUP8 DUP6 SSTORE DUP6 SWAP4 SWAP3 SWAP2 DUP2 DUP10 LT PUSH3 0x200A JUMPI JUMPDEST POP POP POP SWAP2 DUP5 MSTORE DUP3 DUP5 KECCAK256 SWAP2 ADD JUMPDEST DUP5 DUP5 LT PUSH3 0x1FEB JUMPI POP POP POP POP POP POP JUMP JUMPDEST PUSH1 0xC DUP4 DUP3 PUSH3 0x1FFD DUP10 SWAP5 MLOAD DUP7 PUSH3 0x1537 JUMP JUMPDEST ADD SWAP3 ADD SWAP4 ADD SWAP3 SWAP1 PUSH3 0x1FDB JUMP JUMPDEST SWAP1 SWAP2 SWAP3 SWAP4 POP PUSH1 0xC SWAP3 DUP3 PUSH1 0xC MUL SWAP3 PUSH1 0xC DUP5 DIV SUB PUSH3 0x20FE JUMPI DUP9 PUSH1 0xC MUL PUSH1 0xC DUP2 DIV DUP11 SUB PUSH3 0x20EA JUMPI DUP7 DUP10 MSTORE DUP8 DUP10 KECCAK256 DUP9 SWAP7 SWAP6 SWAP5 DUP2 ADD SWAP4 SWAP3 SWAP2 ADD JUMPDEST DUP4 DUP2 LT PUSH3 0x2051 JUMPI POP POP PUSH3 0x1FCF JUMP JUMPDEST DUP5 SWAP6 SWAP7 POP DUP10 DUP2 SWAP6 SWAP3 SWAP4 SWAP5 SWAP6 SSTORE DUP10 DUP13 DUP3 ADD SSTORE PUSH3 0x206F DUP4 DUP3 ADD PUSH3 0x1EC3 JUMP JUMPDEST PUSH3 0x207C DUP5 DUP3 ADD PUSH3 0x1EC3 JUMP JUMPDEST DUP10 PUSH1 0x4 DUP3 ADD SSTORE PUSH3 0x2090 PUSH1 0x5 DUP3 ADD PUSH3 0x1EC3 JUMP JUMPDEST PUSH3 0x209E PUSH1 0x6 DUP3 ADD PUSH3 0x1EC3 JUMP JUMPDEST PUSH3 0x20AC PUSH1 0x7 DUP3 ADD PUSH3 0x1EC3 JUMP JUMPDEST PUSH3 0x20BA PUSH1 0x8 DUP3 ADD PUSH3 0x1EC3 JUMP JUMPDEST PUSH3 0x20C8 PUSH1 0x9 DUP3 ADD PUSH3 0x1EC3 JUMP JUMPDEST PUSH3 0x20D6 PUSH1 0xA DUP3 ADD PUSH3 0x1EC3 JUMP JUMPDEST DUP10 PUSH1 0xB DUP3 ADD SSTORE ADD SWAP1 DUP8 SWAP6 SWAP5 SWAP4 SWAP3 SWAP2 PUSH3 0x2041 JUMP JUMPDEST PUSH4 0x4E487B71 PUSH1 0xE0 SHL DUP10 MSTORE PUSH1 0x11 PUSH1 0x4 MSTORE PUSH1 0x24 DUP10 REVERT JUMPDEST PUSH4 0x4E487B71 PUSH1 0xE0 SHL DUP9 MSTORE PUSH1 0x11 PUSH1 0x4 MSTORE PUSH1 0x24 DUP9 REVERT JUMPDEST PUSH4 0x4E487B71 PUSH1 0xE0 SHL DUP7 MSTORE PUSH1 0x41 PUSH1 0x4 MSTORE PUSH1 0x24 DUP7 REVERT JUMPDEST DUP10 DUP4 DUP7 MLOAD AND SWAP6 ADD SWAP5 DUP2 DUP6 ADD SSTORE ADD DUP12 SWAP1 PUSH3 0x1F9A JUMP JUMPDEST PUSH3 0x2154 SWAP1 DUP11 PUSH1 0x0 MSTORE DUP6 DUP5 PUSH1 0x0 KECCAK256 SWAP2 DUP3 ADD SWAP2 ADD PUSH3 0x151E JUMP JUMPDEST CODESIZE PUSH3 0x1F8B JUMP INVALID PUSH1 0x40 PUSH1 0x80 DUP2 MSTORE CALLVALUE PUSH3 0x429 JUMPI PUSH3 0x104B DUP1 CODESIZE SUB DUP1 PUSH3 0x1E DUP2 PUSH3 0x42E JUMP JUMPDEST SWAP3 DUP4 CODECOPY DUP2 ADD SWAP1 PUSH1 0x80 DUP2 DUP4 SUB SLT PUSH3 0x429 JUMPI DUP1 MLOAD PUSH1 0x1 PUSH1 0x1 PUSH1 0x40 SHL SUB SWAP2 SWAP1 DUP3 DUP2 GT PUSH3 0x429 JUMPI DUP4 PUSH3 0x51 SWAP2 DUP4 ADD PUSH3 0x46A JUMP JUMPDEST SWAP1 PUSH1 0x20 SWAP4 DUP5 DUP3 ADD MLOAD SWAP1 DUP5 DUP3 GT PUSH3 0x429 JUMPI PUSH3 0x6F SWAP2 DUP4 ADD PUSH3 0x46A JUMP JUMPDEST PUSH1 0x60 DUP7 DUP4 ADD MLOAD SWAP3 ADD MLOAD SWAP1 PUSH1 0x0 SWAP5 CALLER PUSH1 0x1 DUP1 PUSH1 0xA0 SHL SUB NOT DUP8 SLOAD AND OR DUP7 SSTORE CALLER DUP7 PUSH32 0x8BE0079C531659141344CD1FD0A4F28419497F9722A3DAAFE3B4186F6B6457E0 DUP2 DUP1 LOG3 DUP5 MLOAD DUP2 DUP2 GT PUSH3 0x343 JUMPI PUSH1 0x2 SLOAD SWAP1 PUSH1 0x1 SWAP7 DUP8 DUP4 DUP2 SHR SWAP4 AND DUP1 ISZERO PUSH3 0x41E JUMPI JUMPDEST DUP11 DUP5 LT EQ PUSH3 0x324 JUMPI DUP2 SWAP1 PUSH1 0x1F SWAP4 DUP5 DUP2 GT PUSH3 0x3CA JUMPI JUMPDEST POP DUP11 SWAP1 DUP5 DUP4 GT PUSH1 0x1 EQ PUSH3 0x363 JUMPI DUP11 SWAP3 PUSH3 0x357 JUMPI JUMPDEST POP POP PUSH1 0x0 NOT PUSH1 0x3 DUP4 SWAP1 SHL SHR NOT AND SWAP1 DUP8 SHL OR PUSH1 0x2 SSTORE JUMPDEST DUP3 MLOAD SWAP2 DUP3 GT PUSH3 0x343 JUMPI PUSH1 0x3 SWAP3 DUP4 SLOAD DUP8 DUP2 DUP2 SHR SWAP2 AND DUP1 ISZERO PUSH3 0x338 JUMPI JUMPDEST DUP11 DUP3 LT EQ PUSH3 0x324 JUMPI SWAP1 DUP2 DUP4 DUP6 SWAP5 SWAP4 GT PUSH3 0x2CF JUMPI JUMPDEST POP DUP10 SWAP2 DUP4 GT PUSH1 0x1 EQ PUSH3 0x26C JUMPI DUP9 SWAP3 PUSH3 0x260 JUMPI JUMPDEST POP POP PUSH1 0x0 NOT DUP3 DUP5 SHL SHR NOT AND SWAP1 DUP6 SHL OR SWAP1 SSTORE JUMPDEST PUSH8 0xDE0B6B3A7640000 SWAP2 DUP3 DUP2 MUL SWAP3 DUP2 DUP5 DIV EQ SWAP1 ISZERO OR ISZERO PUSH3 0x24C JUMPI DUP2 DUP4 SSTORE PUSH1 0x5 DUP2 GT PUSH3 0x1FE JUMPI SWAP1 PUSH32 0xDDF252AD1BE2C89B69C2B068FC378DAA952BA7F163C4A11628F55A4DF523B3EF SWAP3 SWAP2 PUSH1 0x4 SSTORE CALLER DUP5 MSTORE PUSH1 0x5 DUP6 MSTORE DUP6 DUP5 KECCAK256 SSTORE PUSH1 0x7 DUP5 MSTORE DUP5 DUP4 KECCAK256 PUSH1 0xFF NOT SWAP1 DUP3 DUP3 DUP3 SLOAD AND OR SWAP1 SSTORE ADDRESS DUP5 MSTORE DUP2 DUP7 DUP6 KECCAK256 SWAP2 DUP3 SLOAD AND OR SWAP1 SSTORE SLOAD SWAP3 DUP5 MLOAD SWAP4 DUP5 MSTORE CALLER SWAP4 LOG3 MLOAD PUSH2 0xB6E SWAP1 DUP2 PUSH3 0x4DD DUP3 CODECOPY RETURN JUMPDEST DUP6 MLOAD PUSH3 0x461BCD PUSH1 0xE5 SHL DUP2 MSTORE PUSH1 0x4 DUP2 ADD DUP7 SWAP1 MSTORE PUSH1 0x21 PUSH1 0x24 DUP3 ADD MSTORE PUSH32 0x4D6178205472616E73616374696F6E2063616E6E6F7420657863656564203525 PUSH1 0x44 DUP3 ADD MSTORE PUSH1 0x17 PUSH1 0xF9 SHL PUSH1 0x64 DUP3 ADD MSTORE PUSH1 0x84 SWAP1 REVERT JUMPDEST PUSH4 0x4E487B71 PUSH1 0xE0 SHL DUP5 MSTORE PUSH1 0x11 PUSH1 0x4 MSTORE PUSH1 0x24 DUP5 REVERT JUMPDEST ADD MLOAD SWAP1 POP CODESIZE DUP1 PUSH3 0x15A JUMP JUMPDEST DUP5 DUP10 MSTORE DUP10 DUP10 KECCAK256 DUP9 SWAP5 POP SWAP2 SWAP1 PUSH1 0x1F NOT DUP5 AND DUP11 JUMPDEST DUP13 DUP3 DUP3 LT PUSH3 0x2B8 JUMPI POP POP DUP5 GT PUSH3 0x29F JUMPI JUMPDEST POP POP POP DUP2 SHL ADD SWAP1 SSTORE PUSH3 0x16C JUMP JUMPDEST ADD MLOAD PUSH1 0x0 NOT DUP4 DUP7 SHL PUSH1 0xF8 AND SHR NOT AND SWAP1 SSTORE CODESIZE DUP1 DUP1 PUSH3 0x291 JUMP JUMPDEST DUP4 DUP6 ADD MLOAD DUP7 SSTORE DUP12 SWAP8 SWAP1 SWAP6 ADD SWAP5 SWAP4 DUP5 ADD SWAP4 ADD PUSH3 0x27E JUMP JUMPDEST SWAP1 SWAP2 SWAP3 POP DUP5 DUP10 MSTORE DUP10 DUP10 KECCAK256 DUP4 DUP1 DUP7 ADD PUSH1 0x5 SHR DUP3 ADD SWAP3 DUP13 DUP8 LT PUSH3 0x31A JUMPI JUMPDEST SWAP2 DUP7 SWAP6 DUP12 SWAP3 SWAP6 SWAP5 SWAP4 ADD PUSH1 0x5 SHR ADD SWAP2 JUMPDEST DUP3 DUP2 LT PUSH3 0x30B JUMPI POP POP PUSH3 0x145 JUMP JUMPDEST DUP12 DUP2 SSTORE DUP7 SWAP6 POP DUP11 SWAP2 ADD PUSH3 0x2FB JUMP JUMPDEST SWAP3 POP DUP2 SWAP3 PUSH3 0x2EC JUMP JUMPDEST PUSH4 0x4E487B71 PUSH1 0xE0 SHL DUP10 MSTORE PUSH1 0x22 PUSH1 0x4 MSTORE PUSH1 0x24 DUP10 REVERT JUMPDEST SWAP1 PUSH1 0x7F AND SWAP1 PUSH3 0x12F JUMP JUMPDEST PUSH4 0x4E487B71 PUSH1 0xE0 SHL DUP8 MSTORE PUSH1 0x41 PUSH1 0x4 MSTORE PUSH1 0x24 DUP8 REVERT JUMPDEST ADD MLOAD SWAP1 POP CODESIZE DUP1 PUSH3 0xFD JUMP JUMPDEST PUSH1 0x2 DUP12 MSTORE DUP12 DUP12 KECCAK256 DUP11 SWAP5 POP SWAP2 SWAP1 PUSH1 0x1F NOT DUP5 AND DUP13 DUP15 JUMPDEST DUP3 DUP3 LT PUSH3 0x3B2 JUMPI POP POP DUP5 GT PUSH3 0x398 JUMPI JUMPDEST POP POP POP DUP2 SHL ADD PUSH1 0x2 SSTORE PUSH3 0x112 JUMP JUMPDEST ADD MLOAD PUSH1 0x0 NOT PUSH1 0xF8 DUP5 PUSH1 0x3 SHL AND SHR NOT AND SWAP1 SSTORE CODESIZE DUP1 DUP1 PUSH3 0x389 JUMP JUMPDEST DUP4 DUP6 ADD MLOAD DUP7 SSTORE DUP14 SWAP8 SWAP1 SWAP6 ADD SWAP5 SWAP4 DUP5 ADD SWAP4 ADD DUP15 PUSH3 0x377 JUMP JUMPDEST SWAP1 SWAP2 POP PUSH1 0x2 DUP11 MSTORE DUP11 DUP11 KECCAK256 DUP5 DUP1 DUP6 ADD PUSH1 0x5 SHR DUP3 ADD SWAP3 DUP14 DUP7 LT PUSH3 0x414 JUMPI JUMPDEST SWAP2 DUP12 SWAP2 DUP7 SWAP6 SWAP5 SWAP4 ADD PUSH1 0x5 SHR ADD SWAP2 JUMPDEST DUP3 DUP2 LT PUSH3 0x405 JUMPI POP POP PUSH3 0xE7 JUMP JUMPDEST DUP13 DUP2 SSTORE DUP6 SWAP5 POP DUP12 SWAP2 ADD PUSH3 0x3F5 JUMP JUMPDEST SWAP3 POP DUP2 SWAP3 PUSH3 0x3E7 JUMP JUMPDEST SWAP3 PUSH1 0x7F AND SWAP3 PUSH3 0xD0 JUMP JUMPDEST PUSH1 0x0 DUP1 REVERT JUMPDEST PUSH1 0x40 MLOAD SWAP2 SWAP1 PUSH1 0x1F ADD PUSH1 0x1F NOT AND DUP3 ADD PUSH1 0x1 PUSH1 0x1 PUSH1 0x40 SHL SUB DUP2 GT DUP4 DUP3 LT OR PUSH3 0x454 JUMPI PUSH1 0x40 MSTORE JUMP JUMPDEST PUSH4 0x4E487B71 PUSH1 0xE0 SHL PUSH1 0x0 MSTORE PUSH1 0x41 PUSH1 0x4 MSTORE PUSH1 0x24 PUSH1 0x0 REVERT JUMPDEST SWAP2 SWAP1 DUP1 PUSH1 0x1F DUP5 ADD SLT ISZERO PUSH3 0x429 JUMPI DUP3 MLOAD PUSH1 0x1 PUSH1 0x1 PUSH1 0x40 SHL SUB DUP2 GT PUSH3 0x454 JUMPI PUSH1 0x20 SWAP1 PUSH3 0x4A0 PUSH1 0x1F DUP3 ADD PUSH1 0x1F NOT AND DUP4 ADD PUSH3 0x42E JUMP JUMPDEST SWAP3 DUP2 DUP5 MSTORE DUP3 DUP3 DUP8 ADD ADD GT PUSH3 0x429 JUMPI PUSH1 0x0 JUMPDEST DUP2 DUP2 LT PUSH3 0x4C8 JUMPI POP DUP3 PUSH1 0x0 SWAP4 SWAP5 SWAP6 POP ADD ADD MSTORE SWAP1 JUMP JUMPDEST DUP6 DUP2 ADD DUP4 ADD MLOAD DUP5 DUP3 ADD DUP5 ADD MSTORE DUP3 ADD PUSH3 0x4B2 JUMP INVALID PUSH1 0x80 PUSH1 0x40 DUP2 DUP2 MSTORE PUSH1 0x4 SWAP2 DUP3 CALLDATASIZE LT ISZERO PUSH2 0x16 JUMPI PUSH1 0x0 DUP1 REVERT JUMPDEST PUSH1 0x0 SWAP3 DUP4 CALLDATALOAD PUSH1 0xE0 SHR SWAP2 DUP3 PUSH4 0x6FDDE03 EQ PUSH2 0x555 JUMPI POP DUP2 PUSH4 0x95EA7B3 EQ PUSH2 0x52B JUMPI DUP2 PUSH4 0x18160DDD EQ PUSH2 0x50C JUMPI DUP2 PUSH4 0x23B872DD EQ PUSH2 0x437 JUMPI DUP2 PUSH4 0x313CE567 EQ PUSH2 0x41B JUMPI DUP2 PUSH4 0x70A08231 EQ PUSH2 0x3E3 JUMPI DUP2 PUSH4 0x715018A6 EQ PUSH2 0x384 JUMPI DUP2 PUSH4 0x7437681E EQ PUSH2 0x366 JUMPI DUP2 PUSH4 0x8DA5CB5B EQ PUSH2 0x33E JUMPI DUP2 PUSH4 0x95D89B41 EQ PUSH2 0x239 JUMPI DUP2 PUSH4 0xA9059CBB EQ PUSH2 0x208 JUMPI DUP2 PUSH4 0xC2D0FFCA EQ PUSH2 0x155 JUMPI POP DUP1 PUSH4 0xDB4CF1E0 EQ PUSH2 0x10A JUMPI PUSH4 0xDD62ED3E EQ PUSH2 0xBF JUMPI PUSH1 0x0 DUP1 REVERT JUMPDEST CALLVALUE PUSH2 0x106 JUMPI DUP1 PUSH1 0x3 NOT CALLDATASIZE ADD SLT PUSH2 0x106 JUMPI DUP1 PUSH1 0x20 SWAP3 PUSH2 0xDB PUSH2 0x65D JUMP JUMPDEST PUSH2 0xE3 PUSH2 0x678 JUMP JUMPDEST PUSH1 0x1 PUSH1 0x1 PUSH1 0xA0 SHL SUB SWAP2 DUP3 AND DUP4 MSTORE PUSH1 0x6 DUP7 MSTORE DUP4 DUP4 KECCAK256 SWAP2 AND DUP3 MSTORE DUP5 MSTORE KECCAK256 SLOAD SWAP1 MLOAD SWAP1 DUP2 MSTORE RETURN JUMPDEST POP DUP1 REVERT JUMPDEST POP CALLVALUE PUSH2 0x106 JUMPI PUSH1 0x20 CALLDATASIZE PUSH1 0x3 NOT ADD SLT PUSH2 0x106 JUMPI PUSH2 0x124 PUSH2 0x65D JUMP JUMPDEST DUP3 SLOAD PUSH1 0x1 PUSH1 0x1 PUSH1 0xA0 SHL SUB SWAP2 SWAP1 PUSH2 0x13D SWAP1 DUP4 AND CALLER EQ PUSH2 0x6C6 JUMP JUMPDEST AND DUP3 MSTORE PUSH1 0x7 PUSH1 0x20 MSTORE DUP2 KECCAK256 DUP1 SLOAD PUSH1 0xFF NOT AND PUSH1 0x1 OR SWAP1 SSTORE DUP1 RETURN JUMPDEST SWAP2 SWAP1 POP CALLVALUE PUSH2 0x204 JUMPI PUSH1 0x20 CALLDATASIZE PUSH1 0x3 NOT ADD SLT PUSH2 0x204 JUMPI DUP2 CALLDATALOAD SWAP2 PUSH2 0x180 PUSH1 0x1 DUP1 PUSH1 0xA0 SHL SUB DUP6 SLOAD AND CALLER EQ PUSH2 0x6C6 JUMP JUMPDEST PUSH1 0x5 DUP4 GT PUSH2 0x1B8 JUMPI SWAP2 PUSH1 0x20 SWAP2 DUP2 PUSH32 0xFF3DD5E80294197918C284BBFC3DADD97D0B40CE92106110946329088F80068A SWAP5 SSTORE MLOAD SWAP1 DUP2 MSTORE LOG1 DUP1 RETURN JUMPDEST PUSH1 0x20 PUSH1 0x84 SWAP3 MLOAD SWAP2 PUSH3 0x461BCD PUSH1 0xE5 SHL DUP4 MSTORE DUP3 ADD MSTORE PUSH1 0x21 PUSH1 0x24 DUP3 ADD MSTORE PUSH32 0x4D6178205472616E73616374696F6E2063616E6E6F7420657863656564203525 PUSH1 0x44 DUP3 ADD MSTORE PUSH1 0x17 PUSH1 0xF9 SHL PUSH1 0x64 DUP3 ADD MSTORE REVERT JUMPDEST DUP3 DUP1 REVERT JUMPDEST POP POP CALLVALUE PUSH2 0x106 JUMPI DUP1 PUSH1 0x3 NOT CALLDATASIZE ADD SLT PUSH2 0x106 JUMPI PUSH1 0x20 SWAP1 PUSH2 0x232 PUSH2 0x228 PUSH2 0x65D JUMP JUMPDEST PUSH1 0x24 CALLDATALOAD SWAP1 CALLER PUSH2 0x813 JUMP JUMPDEST MLOAD PUSH1 0x1 DUP2 MSTORE RETURN JUMPDEST SWAP2 SWAP1 POP CALLVALUE PUSH2 0x204 JUMPI DUP3 PUSH1 0x3 NOT CALLDATASIZE ADD SLT PUSH2 0x204 JUMPI DUP1 MLOAD SWAP2 DUP4 PUSH1 0x3 SLOAD SWAP1 PUSH1 0x1 SWAP1 DUP3 PUSH1 0x1 SHR SWAP3 PUSH1 0x1 DUP2 AND DUP1 ISZERO PUSH2 0x334 JUMPI JUMPDEST PUSH1 0x20 SWAP6 DUP7 DUP7 LT DUP3 EQ PUSH2 0x321 JUMPI POP DUP5 DUP9 MSTORE SWAP1 DUP2 ISZERO PUSH2 0x2FF JUMPI POP PUSH1 0x1 EQ PUSH2 0x2A6 JUMPI JUMPDEST PUSH2 0x2A2 DUP7 DUP7 PUSH2 0x298 DUP3 DUP12 SUB DUP4 PUSH2 0x68E JUMP JUMPDEST MLOAD SWAP2 DUP3 SWAP2 DUP3 PUSH2 0x614 JUMP JUMPDEST SUB SWAP1 RETURN JUMPDEST SWAP3 SWAP6 POP PUSH1 0x3 DUP4 MSTORE PUSH32 0xC2575A0E9E593C00F959F8C92F12DB2869C3395A3B0502D05E2516446F71F85B JUMPDEST DUP3 DUP5 LT PUSH2 0x2EC JUMPI POP POP POP DUP3 PUSH2 0x2A2 SWAP5 PUSH2 0x298 SWAP3 DUP3 ADD ADD SWAP5 CODESIZE PUSH2 0x287 JUMP JUMPDEST DUP1 SLOAD DUP7 DUP6 ADD DUP9 ADD MSTORE SWAP3 DUP7 ADD SWAP3 DUP2 ADD PUSH2 0x2CF JUMP JUMPDEST PUSH1 0xFF NOT AND DUP8 DUP7 ADD MSTORE POP POP POP ISZERO ISZERO PUSH1 0x5 SHL DUP4 ADD ADD SWAP3 POP PUSH2 0x298 DUP3 PUSH2 0x2A2 CODESIZE PUSH2 0x287 JUMP JUMPDEST PUSH4 0x4E487B71 PUSH1 0xE0 SHL DUP5 MSTORE PUSH1 0x22 SWAP1 MSTORE PUSH1 0x24 DUP4 REVERT JUMPDEST SWAP4 PUSH1 0x7F AND SWAP4 PUSH2 0x267 JUMP JUMPDEST POP POP CALLVALUE PUSH2 0x106 JUMPI DUP2 PUSH1 0x3 NOT CALLDATASIZE ADD SLT PUSH2 0x106 JUMPI SWAP1 SLOAD SWAP1 MLOAD PUSH1 0x1 PUSH1 0x1 PUSH1 0xA0 SHL SUB SWAP1 SWAP2 AND DUP2 MSTORE PUSH1 0x20 SWAP1 RETURN JUMPDEST SWAP1 POP CALLVALUE PUSH2 0x204 JUMPI DUP3 PUSH1 0x3 NOT CALLDATASIZE ADD SLT PUSH2 0x204 JUMPI PUSH1 0x20 SWAP3 POP SLOAD SWAP1 MLOAD SWAP1 DUP2 MSTORE RETURN JUMPDEST DUP4 CALLVALUE PUSH2 0x3E0 JUMPI DUP1 PUSH1 0x3 NOT CALLDATASIZE ADD SLT PUSH2 0x3E0 JUMPI DUP1 SLOAD DUP2 PUSH1 0x1 PUSH1 0x1 PUSH1 0xA0 SHL SUB DUP3 AND PUSH2 0x3AD CALLER DUP3 EQ PUSH2 0x6C6 JUMP JUMPDEST PUSH32 0x8BE0079C531659141344CD1FD0A4F28419497F9722A3DAAFE3B4186F6B6457E0 DUP3 DUP1 LOG3 PUSH1 0x1 PUSH1 0x1 PUSH1 0xA0 SHL SUB NOT AND DUP2 SSTORE DUP1 RETURN JUMPDEST DUP1 REVERT JUMPDEST POP POP CALLVALUE PUSH2 0x106 JUMPI PUSH1 0x20 CALLDATASIZE PUSH1 0x3 NOT ADD SLT PUSH2 0x106 JUMPI PUSH1 0x20 SWAP2 DUP2 SWAP1 PUSH1 0x1 PUSH1 0x1 PUSH1 0xA0 SHL SUB PUSH2 0x40B PUSH2 0x65D JUMP JUMPDEST AND DUP2 MSTORE PUSH1 0x5 DUP5 MSTORE KECCAK256 SLOAD SWAP1 MLOAD SWAP1 DUP2 MSTORE RETURN JUMPDEST POP POP CALLVALUE PUSH2 0x106 JUMPI DUP2 PUSH1 0x3 NOT CALLDATASIZE ADD SLT PUSH2 0x106 JUMPI PUSH1 0x20 SWAP1 MLOAD PUSH1 0x12 DUP2 MSTORE RETURN JUMPDEST DUP3 DUP5 CALLVALUE PUSH2 0x3E0 JUMPI PUSH1 0x60 CALLDATASIZE PUSH1 0x3 NOT ADD SLT PUSH2 0x3E0 JUMPI PUSH2 0x452 PUSH2 0x65D JUMP JUMPDEST SWAP1 PUSH2 0x45B PUSH2 0x678 JUMP JUMPDEST PUSH2 0x469 PUSH1 0x44 CALLDATALOAD DUP1 SWAP3 DUP6 PUSH2 0x813 JUMP JUMPDEST PUSH1 0x1 PUSH1 0x1 PUSH1 0xA0 SHL SUB DUP4 AND DUP3 MSTORE PUSH1 0x6 PUSH1 0x20 SWAP1 DUP2 MSTORE DUP5 DUP4 KECCAK256 CALLER DUP5 MSTORE SWAP1 MSTORE DUP4 DUP3 KECCAK256 SLOAD DUP5 MLOAD SWAP3 PUSH1 0x60 DUP5 ADD SWAP1 PUSH8 0xFFFFFFFFFFFFFFFF DUP3 GT DUP6 DUP4 LT OR PUSH2 0x4F9 JUMPI PUSH1 0x20 DUP8 PUSH2 0x232 DUP9 PUSH2 0x4F1 DUP10 DUP10 DUP10 DUP10 DUP8 MSTORE PUSH1 0x28 DUP4 MSTORE PUSH32 0x45524332303A207472616E7366657220616D6F756E7420657863656564732061 DUP9 DUP5 ADD MSTORE PUSH8 0x6C6C6F77616E6365 PUSH1 0xC0 SHL DUP8 DUP5 ADD MSTORE PUSH2 0xAED JUMP JUMPDEST SWAP1 CALLER SWAP1 PUSH2 0x711 JUMP JUMPDEST PUSH4 0x4E487B71 PUSH1 0xE0 SHL DUP2 MSTORE PUSH1 0x41 DUP9 MSTORE PUSH1 0x24 SWAP1 REVERT JUMPDEST POP POP CALLVALUE PUSH2 0x106 JUMPI DUP2 PUSH1 0x3 NOT CALLDATASIZE ADD SLT PUSH2 0x106 JUMPI PUSH1 0x20 SWAP1 PUSH1 0x1 SLOAD SWAP1 MLOAD SWAP1 DUP2 MSTORE RETURN JUMPDEST POP POP CALLVALUE PUSH2 0x106 JUMPI DUP1 PUSH1 0x3 NOT CALLDATASIZE ADD SLT PUSH2 0x106 JUMPI PUSH1 0x20 SWAP1 PUSH2 0x232 PUSH2 0x54B PUSH2 0x65D JUMP JUMPDEST PUSH1 0x24 CALLDATALOAD SWAP1 CALLER PUSH2 0x711 JUMP JUMPDEST SWAP3 SWAP2 POP CALLVALUE PUSH2 0x610 JUMPI DUP4 PUSH1 0x3 NOT CALLDATASIZE ADD SLT PUSH2 0x610 JUMPI PUSH1 0x2 SLOAD PUSH1 0x1 DUP2 DUP2 SHR SWAP2 DUP7 SWAP1 DUP3 DUP2 AND DUP1 ISZERO PUSH2 0x606 JUMPI JUMPDEST PUSH1 0x20 SWAP6 DUP7 DUP7 LT DUP3 EQ PUSH2 0x321 JUMPI POP DUP5 DUP9 MSTORE SWAP1 DUP2 ISZERO PUSH2 0x2FF JUMPI POP PUSH1 0x1 EQ PUSH2 0x5AD JUMPI PUSH2 0x2A2 DUP7 DUP7 PUSH2 0x298 DUP3 DUP12 SUB DUP4 PUSH2 0x68E JUMP JUMPDEST SWAP3 SWAP6 POP PUSH1 0x2 DUP4 MSTORE PUSH32 0x405787FA12A823E0F2B7631CC41B3BA8828B3321CA811111FA75CD3AA3BB5ACE JUMPDEST DUP3 DUP5 LT PUSH2 0x5F3 JUMPI POP POP POP DUP3 PUSH2 0x2A2 SWAP5 PUSH2 0x298 SWAP3 DUP3 ADD ADD SWAP5 CODESIZE PUSH2 0x287 JUMP JUMPDEST DUP1 SLOAD DUP7 DUP6 ADD DUP9 ADD MSTORE SWAP3 DUP7 ADD SWAP3 DUP2 ADD PUSH2 0x5D6 JUMP JUMPDEST SWAP4 PUSH1 0x7F AND SWAP4 PUSH2 0x57D JUMP JUMPDEST DUP4 DUP1 REVERT JUMPDEST PUSH1 0x20 DUP1 DUP3 MSTORE DUP3 MLOAD DUP2 DUP4 ADD DUP2 SWAP1 MSTORE SWAP1 SWAP4 SWAP3 PUSH1 0x0 JUMPDEST DUP3 DUP2 LT PUSH2 0x649 JUMPI POP POP PUSH1 0x40 SWAP3 SWAP4 POP PUSH1 0x0 DUP4 DUP3 DUP5 ADD ADD MSTORE PUSH1 0x1F DUP1 NOT SWAP2 ADD AND ADD ADD SWAP1 JUMP JUMPDEST DUP2 DUP2 ADD DUP7 ADD MLOAD DUP5 DUP3 ADD PUSH1 0x40 ADD MSTORE DUP6 ADD PUSH2 0x627 JUMP JUMPDEST PUSH1 0x4 CALLDATALOAD SWAP1 PUSH1 0x1 PUSH1 0x1 PUSH1 0xA0 SHL SUB DUP3 AND DUP3 SUB PUSH2 0x673 JUMPI JUMP JUMPDEST PUSH1 0x0 DUP1 REVERT JUMPDEST PUSH1 0x24 CALLDATALOAD SWAP1 PUSH1 0x1 PUSH1 0x1 PUSH1 0xA0 SHL SUB DUP3 AND DUP3 SUB PUSH2 0x673 JUMPI JUMP JUMPDEST SWAP1 PUSH1 0x1F DUP1 NOT SWAP2 ADD AND DUP2 ADD SWAP1 DUP2 LT PUSH8 0xFFFFFFFFFFFFFFFF DUP3 GT OR PUSH2 0x6B0 JUMPI PUSH1 0x40 MSTORE JUMP JUMPDEST PUSH4 0x4E487B71 PUSH1 0xE0 SHL PUSH1 0x0 MSTORE PUSH1 0x41 PUSH1 0x4 MSTORE PUSH1 0x24 PUSH1 0x0 REVERT JUMPDEST ISZERO PUSH2 0x6CD JUMPI JUMP JUMPDEST PUSH1 0x64 PUSH1 0x40 MLOAD PUSH3 0x461BCD PUSH1 0xE5 SHL DUP2 MSTORE PUSH1 0x20 PUSH1 0x4 DUP3 ADD MSTORE PUSH1 0x20 PUSH1 0x24 DUP3 ADD MSTORE PUSH32 0x4F776E61626C653A2063616C6C6572206973206E6F7420746865206F776E6572 PUSH1 0x44 DUP3 ADD MSTORE REVERT JUMPDEST PUSH1 0x1 PUSH1 0x1 PUSH1 0xA0 SHL SUB SWAP1 DUP2 AND SWAP2 DUP3 ISZERO PUSH2 0x7C2 JUMPI AND SWAP2 DUP3 ISZERO PUSH2 0x772 JUMPI PUSH1 0x20 PUSH32 0x8C5BE1E5EBEC7D5BD14F71427D1E84F3DD0314C0F7B2291E5B200AC8C7C3B925 SWAP2 DUP4 PUSH1 0x0 MSTORE PUSH1 0x6 DUP3 MSTORE PUSH1 0x40 PUSH1 0x0 KECCAK256 DUP6 PUSH1 0x0 MSTORE DUP3 MSTORE DUP1 PUSH1 0x40 PUSH1 0x0 KECCAK256 SSTORE PUSH1 0x40 MLOAD SWAP1 DUP2 MSTORE LOG3 JUMP JUMPDEST PUSH1 0x40 MLOAD PUSH3 0x461BCD PUSH1 0xE5 SHL DUP2 MSTORE PUSH1 0x20 PUSH1 0x4 DUP3 ADD MSTORE PUSH1 0x22 PUSH1 0x24 DUP3 ADD MSTORE PUSH32 0x45524332303A20617070726F766520746F20746865207A65726F206164647265 PUSH1 0x44 DUP3 ADD MSTORE PUSH2 0x7373 PUSH1 0xF0 SHL PUSH1 0x64 DUP3 ADD MSTORE PUSH1 0x84 SWAP1 REVERT JUMPDEST PUSH1 0x40 MLOAD PUSH3 0x461BCD PUSH1 0xE5 SHL DUP2 MSTORE PUSH1 0x20 PUSH1 0x4 DUP3 ADD MSTORE PUSH1 0x24 DUP1 DUP3 ADD MSTORE PUSH32 0x45524332303A20617070726F76652066726F6D20746865207A65726F20616464 PUSH1 0x44 DUP3 ADD MSTORE PUSH4 0x72657373 PUSH1 0xE0 SHL PUSH1 0x64 DUP3 ADD MSTORE PUSH1 0x84 SWAP1 REVERT JUMPDEST SWAP2 SWAP3 SWAP2 PUSH1 0x1 PUSH1 0x1 PUSH1 0xA0 SHL SUB SWAP1 DUP2 AND SWAP2 DUP3 ISZERO PUSH2 0xA9A JUMPI AND SWAP1 DUP2 ISZERO PUSH2 0xA49 JUMPI DUP4 ISZERO PUSH2 0x9F2 JUMPI PUSH1 0x4 DUP1 SLOAD SWAP5 PUSH1 0x1 SLOAD SWAP6 DUP7 DUP2 MUL SWAP7 DUP2 DUP9 DIV EQ SWAP1 ISZERO OR ISZERO PUSH2 0x9DD JUMPI PUSH1 0x0 SWAP6 DUP4 DUP8 MSTORE PUSH1 0x20 SWAP3 PUSH1 0x7 DUP5 MSTORE PUSH1 0x40 SWAP2 PUSH1 0xFF DUP4 DUP11 KECCAK256 SLOAD AND ISZERO PUSH2 0x98C JUMPI JUMPDEST POP DUP5 DUP9 MSTORE PUSH1 0x5 DUP5 MSTORE DUP2 DUP9 KECCAK256 SLOAD DUP3 MLOAD SWAP1 DUP4 DUP3 ADD DUP3 DUP2 LT PUSH8 0xFFFFFFFFFFFFFFFF DUP3 GT OR PUSH2 0x979 JUMPI PUSH2 0x8C8 SWAP3 SWAP2 DUP7 SWAP2 DUP7 MSTORE PUSH1 0x1E DUP4 MSTORE PUSH32 0x536166654D6174683A207375627472616374696F6E206F766572666C6F770000 DUP9 DUP5 ADD MSTORE PUSH2 0xAED JUMP JUMPDEST DUP6 DUP10 MSTORE PUSH1 0x5 DUP6 MSTORE DUP3 DUP10 KECCAK256 SSTORE DUP6 DUP9 MSTORE DUP2 DUP9 KECCAK256 SLOAD SWAP1 DUP4 DUP3 ADD SWAP2 DUP3 DUP2 GT PUSH2 0x966 JUMPI DUP3 LT PUSH2 0x923 JUMPI POP DUP2 DUP9 DUP8 PUSH32 0xDDF252AD1BE2C89B69C2B068FC378DAA952BA7F163C4A11628F55A4DF523B3EF SWAP8 SWAP9 SWAP10 SWAP11 MSTORE PUSH1 0x5 DUP7 MSTORE KECCAK256 SSTORE MLOAD SWAP1 DUP2 MSTORE LOG3 JUMP JUMPDEST DUP3 MLOAD PUSH3 0x461BCD PUSH1 0xE5 SHL DUP2 MSTORE SWAP1 DUP2 ADD DUP6 SWAP1 MSTORE PUSH1 0x1B PUSH1 0x24 DUP3 ADD MSTORE PUSH32 0x536166654D6174683A206164646974696F6E206F766572666C6F770000000000 PUSH1 0x44 DUP3 ADD MSTORE PUSH1 0x64 SWAP1 REVERT JUMPDEST PUSH4 0x4E487B71 PUSH1 0xE0 SHL DUP11 MSTORE PUSH1 0x11 DUP3 MSTORE PUSH1 0x24 DUP11 REVERT JUMPDEST PUSH4 0x4E487B71 PUSH1 0xE0 SHL DUP12 MSTORE PUSH1 0x41 DUP5 MSTORE PUSH1 0x24 DUP12 REVERT JUMPDEST PUSH1 0x64 SWAP1 DIV DUP4 GT PUSH2 0x99C JUMPI CODESIZE PUSH2 0x86C JUMP JUMPDEST DUP4 PUSH1 0x64 SWAP3 MLOAD SWAP2 PUSH3 0x461BCD PUSH1 0xE5 SHL DUP4 MSTORE DUP3 ADD MSTORE PUSH1 0x18 PUSH1 0x24 DUP3 ADD MSTORE PUSH32 0x4578636565647320746865204D61785478416D6F756E742E0000000000000000 PUSH1 0x44 DUP3 ADD MSTORE REVERT JUMPDEST PUSH1 0x11 DUP3 PUSH4 0x4E487B71 PUSH1 0xE0 SHL PUSH1 0x0 MSTORE MSTORE PUSH1 0x24 PUSH1 0x0 REVERT JUMPDEST PUSH1 0x40 MLOAD PUSH3 0x461BCD PUSH1 0xE5 SHL DUP2 MSTORE PUSH1 0x20 PUSH1 0x4 DUP3 ADD MSTORE PUSH1 0x29 PUSH1 0x24 DUP3 ADD MSTORE PUSH32 0x5472616E7366657220616D6F756E74206D757374206265206772656174657220 PUSH1 0x44 DUP3 ADD MSTORE PUSH9 0x7468616E207A65726F PUSH1 0xB8 SHL PUSH1 0x64 DUP3 ADD MSTORE PUSH1 0x84 SWAP1 REVERT JUMPDEST PUSH1 0x40 MLOAD PUSH3 0x461BCD PUSH1 0xE5 SHL DUP2 MSTORE PUSH1 0x20 PUSH1 0x4 DUP3 ADD MSTORE PUSH1 0x23 PUSH1 0x24 DUP3 ADD MSTORE PUSH32 0x45524332303A207472616E7366657220746F20746865207A65726F2061646472 PUSH1 0x44 DUP3 ADD MSTORE PUSH3 0x657373 PUSH1 0xE8 SHL PUSH1 0x64 DUP3 ADD MSTORE PUSH1 0x84 SWAP1 REVERT JUMPDEST PUSH1 0x40 MLOAD PUSH3 0x461BCD PUSH1 0xE5 SHL DUP2 MSTORE PUSH1 0x20 PUSH1 0x4 DUP3 ADD MSTORE PUSH1 0x25 PUSH1 0x24 DUP3 ADD MSTORE PUSH32 0x45524332303A207472616E736665722066726F6D20746865207A65726F206164 PUSH1 0x44 DUP3 ADD MSTORE PUSH5 0x6472657373 PUSH1 0xD8 SHL PUSH1 0x64 DUP3 ADD MSTORE PUSH1 0x84 SWAP1 REVERT JUMPDEST SWAP2 DUP3 DUP3 GT PUSH2 0xB18 JUMPI POP DUP2 SUB SWAP1 DUP2 GT PUSH2 0xB02 JUMPI SWAP1 JUMP JUMPDEST PUSH4 0x4E487B71 PUSH1 0xE0 SHL PUSH1 0x0 MSTORE PUSH1 0x11 PUSH1 0x4 MSTORE PUSH1 0x24 PUSH1 0x0 REVERT JUMPDEST PUSH1 0x40 MLOAD PUSH3 0x461BCD PUSH1 0xE5 SHL DUP2 MSTORE SWAP1 DUP2 SWAP1 PUSH2 0xB34 SWAP1 PUSH1 0x4 DUP4 ADD PUSH2 0x614 JUMP JUMPDEST SUB SWAP1 REVERT INVALID LOG2 PUSH5 0x6970667358 0x22 SLT KECCAK256 DIV PUSH29 0x9EA28DB18D399065AD86429B5DEC4F653AD6A65C727BB656AB23FC5EAC SWAP10 PUSH5 0x736F6C6343 STOP ADDMOD XOR STOP CALLER LOG2 PUSH5 0x6970667358 0x22 SLT KECCAK256 0xE GASLIMIT EXP BLOBHASH EQ 0xC9 PUSH27 0xBFC8B491644337310F618CA84E45108A63AE2DE3CFFF403BE86473 PUSH16 0x6C634300081800330000000000000000 "
        },
        "methodIdentifiers": {
          "approval(address,address,uint256)": "5c52a5f2",
          "deploy(address)": "4c96a389",
          "feeTo()": "017e7e58",
          "feeToSetter()": "094b7415",
          "launch(string,string,string,string,string[4],uint256,uint256,address)": "a153e6ff",
          "launchFee()": "cf3cf573",
          "liquidityFee()": "98118cb4",
          "marketCapLimit()": "80997e47",
          "profile(address)": "9dd9d0fd",
          "profiles(uint256)": "c36fe3d6",
          "referralFee()": "84ae2bc6",
          "token(address)": "6d46a1db",
          "tokens(uint256)": "4f64b2be",
          "updateLaunchFee(uint256)": "7660f44a",
          "updateReferralFee(uint256)": "f3f524b8"
        }
      }
    }
  }
}