{
  "contracts/Pair.sol": {
    "Pair": {
      "abi": [
        {
          "inputs": [
            {
              "internalType": "address",
              "name": "factory_",
              "type": "address"
            },
            {
              "internalType": "address",
              "name": "token0",
              "type": "address"
            },
            {
              "internalType": "address",
              "name": "token1",
              "type": "address"
            }
          ],
          "stateMutability": "nonpayable",
          "type": "constructor"
        },
        {
          "anonymous": false,
          "inputs": [
            {
              "indexed": false,
              "internalType": "uint256",
              "name": "reserve0",
              "type": "uint256"
            },
            {
              "indexed": false,
              "internalType": "uint256",
              "name": "reserve1",
              "type": "uint256"
            },
            {
              "indexed": false,
              "internalType": "address",
              "name": "lp",
              "type": "address"
            }
          ],
          "name": "Burn",
          "type": "event"
        },
        {
          "anonymous": false,
          "inputs": [
            {
              "indexed": false,
              "internalType": "uint256",
              "name": "reserve0",
              "type": "uint256"
            },
            {
              "indexed": false,
              "internalType": "uint256",
              "name": "reserve1",
              "type": "uint256"
            },
            {
              "indexed": false,
              "internalType": "address",
              "name": "lp",
              "type": "address"
            }
          ],
          "name": "Mint",
          "type": "event"
        },
        {
          "anonymous": false,
          "inputs": [
            {
              "indexed": false,
              "internalType": "uint256",
              "name": "amount0In",
              "type": "uint256"
            },
            {
              "indexed": false,
              "internalType": "uint256",
              "name": "amount0Out",
              "type": "uint256"
            },
            {
              "indexed": false,
              "internalType": "uint256",
              "name": "amount1In",
              "type": "uint256"
            },
            {
              "indexed": false,
              "internalType": "uint256",
              "name": "amount1Out",
              "type": "uint256"
            }
          ],
          "name": "Swap",
          "type": "event"
        },
        {
          "inputs": [],
          "name": "MINIMUM_LIQUIDITY",
          "outputs": [
            {
              "internalType": "uint256",
              "name": "",
              "type": "uint256"
            }
          ],
          "stateMutability": "pure",
          "type": "function"
        },
        {
          "inputs": [
            {
              "internalType": "address",
              "name": "_user",
              "type": "address"
            },
            {
              "internalType": "address",
              "name": "_token",
              "type": "address"
            },
            {
              "internalType": "uint256",
              "name": "amount",
              "type": "uint256"
            }
          ],
          "name": "approval",
          "outputs": [
            {
              "internalType": "bool",
              "name": "",
              "type": "bool"
            }
          ],
          "stateMutability": "nonpayable",
          "type": "function"
        },
        {
          "inputs": [
            {
              "internalType": "uint256",
              "name": "reserve0",
              "type": "uint256"
            },
            {
              "internalType": "uint256",
              "name": "reserve1",
              "type": "uint256"
            },
            {
              "internalType": "address",
              "name": "_lp",
              "type": "address"
            }
          ],
          "name": "burn",
          "outputs": [
            {
              "internalType": "bool",
              "name": "",
              "type": "bool"
            }
          ],
          "stateMutability": "nonpayable",
          "type": "function"
        },
        {
          "inputs": [],
          "name": "factory",
          "outputs": [
            {
              "internalType": "address",
              "name": "",
              "type": "address"
            }
          ],
          "stateMutability": "view",
          "type": "function"
        },
        {
          "inputs": [],
          "name": "getReserves",
          "outputs": [
            {
              "internalType": "uint256",
              "name": "reserveA",
              "type": "uint256"
            },
            {
              "internalType": "uint256",
              "name": "reserveB",
              "type": "uint256"
            },
            {
              "internalType": "uint256",
              "name": "timestamp",
              "type": "uint256"
            }
          ],
          "stateMutability": "view",
          "type": "function"
        },
        {
          "inputs": [],
          "name": "kLast",
          "outputs": [
            {
              "internalType": "uint256",
              "name": "",
              "type": "uint256"
            },
            {
              "internalType": "uint256",
              "name": "",
              "type": "uint256"
            }
          ],
          "stateMutability": "view",
          "type": "function"
        },
        {
          "inputs": [],
          "name": "liquidityProvider",
          "outputs": [
            {
              "internalType": "address",
              "name": "",
              "type": "address"
            }
          ],
          "stateMutability": "view",
          "type": "function"
        },
        {
          "inputs": [
            {
              "internalType": "uint256",
              "name": "reserve0",
              "type": "uint256"
            },
            {
              "internalType": "uint256",
              "name": "reserve1",
              "type": "uint256"
            },
            {
              "internalType": "address",
              "name": "_lp",
              "type": "address"
            }
          ],
          "name": "mint",
          "outputs": [
            {
              "internalType": "bool",
              "name": "",
              "type": "bool"
            }
          ],
          "stateMutability": "nonpayable",
          "type": "function"
        },
        {
          "inputs": [],
          "name": "priceALast",
          "outputs": [
            {
              "internalType": "uint256",
              "name": "",
              "type": "uint256"
            },
            {
              "internalType": "uint256",
              "name": "",
              "type": "uint256"
            }
          ],
          "stateMutability": "view",
          "type": "function"
        },
        {
          "inputs": [],
          "name": "priceBLast",
          "outputs": [
            {
              "internalType": "uint256",
              "name": "",
              "type": "uint256"
            },
            {
              "internalType": "uint256",
              "name": "",
              "type": "uint256"
            }
          ],
          "stateMutability": "view",
          "type": "function"
        },
        {
          "inputs": [
            {
              "internalType": "uint256",
              "name": "amount0In",
              "type": "uint256"
            },
            {
              "internalType": "uint256",
              "name": "amount0Out",
              "type": "uint256"
            },
            {
              "internalType": "uint256",
              "name": "amount1In",
              "type": "uint256"
            },
            {
              "internalType": "uint256",
              "name": "amount1Out",
              "type": "uint256"
            }
          ],
          "name": "swap",
          "outputs": [
            {
              "internalType": "bool",
              "name": "",
              "type": "bool"
            }
          ],
          "stateMutability": "nonpayable",
          "type": "function"
        },
        {
          "inputs": [],
          "name": "tokenA",
          "outputs": [
            {
              "internalType": "address",
              "name": "",
              "type": "address"
            }
          ],
          "stateMutability": "view",
          "type": "function"
        },
        {
          "inputs": [],
          "name": "tokenB",
          "outputs": [
            {
              "internalType": "address",
              "name": "",
              "type": "address"
            }
          ],
          "stateMutability": "view",
          "type": "function"
        },
        {
          "stateMutability": "payable",
          "type": "receive"
        }
      ],
      "evm": {
        "bytecode": {
          "linkReferences": {},
          "object": "6080346100a057601f61067f38819003918201601f19168301916001600160401b038311848410176100a5578084926060946040528339810103126100a057610047816100bb565b906100606040610059602084016100bb565b92016100bb565b60018060a01b0380928160018060a01b0319951685600054161760005516836001541617600155169060025416176002556040516105af90816100d08239f35b600080fd5b634e487b7160e01b600052604160045260246000fd5b51906001600160a01b03821682036100a05756fe6080604081815260049182361015610022575b505050361561002057600080fd5b005b600090813560e01c9081630902f1ac14610496575080630e06dfc9146102635780630fc63d101461046d5780635673b02d146103c75780635b8bec551461039e5780635c52a5f2146102b65780635c9d6938146102915780635f64b55b146102685780637464fc3d14610263578063749388c4146101b1578063ba9a7a5614610194578063c45a0155146101685763e7d3fe6b03610012573461016557507f8334f87aeaf76e52b061d93ee968e51fdd3ad53ca04e80271249227997aab3a061015b6020936100f0366104ed565b600380546001600160a01b0319166001600160a01b038316179055865191949293909184919061011f81610547565b828152868a82015288429101525583600555426006558551938493849192604091949360608401958452602084015260018060a01b0316910152565b0390a15160018152f35b80fd5b509034610190578160031936011261019057905490516001600160a01b039091168152602090f35b5080fd5b509034610190578160031936011261019057602090516103e88152f35b503461016557506101c1366104ed565b6003549192916001600160a01b0390811690821603610210579061015b7f254cba6bcaacd15ef1bba85e06c1d71c8cf7a3e036ad089903ba04bad25aaccc939282602097875161011f81610547565b835162461bcd60e51b8152602081870152602760248201527f4f6e6c79204c7020686f6c646572732063616e2063616c6c20746869732066756044820152663731ba34b7b71760c91b6064820152608490fd5b6104c3565b50903461019057816003193601126101905760025490516001600160a01b039091168152602090f35b5082903461016557806003193601126101655750600554905482519182526020820152f35b508092346101905760603660031901126101905780356001600160a01b038181169182900361039a5760243590811680910361039a5760446020928651958693849263095ea7b360e01b845287840152833560248401525af1801561038d57610324575b6020835160018152f35b6020903d602011610385575b601f8201601f191683019067ffffffffffffffff8211848310176103725750602091839185528101031261036e57518015150361019057818061031a565b8280fd5b634e487b7160e01b865260419052602485fd5b3d9150610330565b50505051903d90823e3d90fd5b8380fd5b50903461019057816003193601126101905760035490516001600160a01b039091168152602090f35b503461016557608036600319011261016557507f298c349c742327269dc8de6ad66687767310c948ea309df826f5bd103e19d207608083602094359060243560443590606435926104228261041d878454610517565b61053a565b6104328561041d86600554610517565b91895161043e81610547565b828152838c8201528a429101525560055542600655865193845287840152858301526060820152a15160018152f35b50903461019057816003193601126101905760015490516001600160a01b039091168152602090f35b905082843461039a578360031936011261039a576060935054906005546006549284526020840152820152f35b346104e85760003660031901126104e857604060045460055482519182526020820152f35b600080fd5b60609060031901126104e85760043590602435906044356001600160a01b03811681036104e85790565b9190820180921161052457565b634e487b7160e01b600052601160045260246000fd5b9190820391821161052457565b6060810190811067ffffffffffffffff82111761056357604052565b634e487b7160e01b600052604160045260246000fdfea2646970667358221220e3ba47c5469c56829da13f30ee42bfa811a870c944047dfae3588ec8ab5de0d264736f6c63430008180033",
          "opcodes": "PUSH1 0x80 CALLVALUE PUSH2 0xA0 JUMPI PUSH1 0x1F PUSH2 0x67F CODESIZE DUP2 SWAP1 SUB SWAP2 DUP3 ADD PUSH1 0x1F NOT AND DUP4 ADD SWAP2 PUSH1 0x1 PUSH1 0x1 PUSH1 0x40 SHL SUB DUP4 GT DUP5 DUP5 LT OR PUSH2 0xA5 JUMPI DUP1 DUP5 SWAP3 PUSH1 0x60 SWAP5 PUSH1 0x40 MSTORE DUP4 CODECOPY DUP2 ADD SUB SLT PUSH2 0xA0 JUMPI PUSH2 0x47 DUP2 PUSH2 0xBB JUMP JUMPDEST SWAP1 PUSH2 0x60 PUSH1 0x40 PUSH2 0x59 PUSH1 0x20 DUP5 ADD PUSH2 0xBB JUMP JUMPDEST SWAP3 ADD PUSH2 0xBB JUMP JUMPDEST PUSH1 0x1 DUP1 PUSH1 0xA0 SHL SUB DUP1 SWAP3 DUP2 PUSH1 0x1 DUP1 PUSH1 0xA0 SHL SUB NOT SWAP6 AND DUP6 PUSH1 0x0 SLOAD AND OR PUSH1 0x0 SSTORE AND DUP4 PUSH1 0x1 SLOAD AND OR PUSH1 0x1 SSTORE AND SWAP1 PUSH1 0x2 SLOAD AND OR PUSH1 0x2 SSTORE PUSH1 0x40 MLOAD PUSH2 0x5AF SWAP1 DUP2 PUSH2 0xD0 DUP3 CODECOPY RETURN JUMPDEST PUSH1 0x0 DUP1 REVERT JUMPDEST PUSH4 0x4E487B71 PUSH1 0xE0 SHL PUSH1 0x0 MSTORE PUSH1 0x41 PUSH1 0x4 MSTORE PUSH1 0x24 PUSH1 0x0 REVERT JUMPDEST MLOAD SWAP1 PUSH1 0x1 PUSH1 0x1 PUSH1 0xA0 SHL SUB DUP3 AND DUP3 SUB PUSH2 0xA0 JUMPI JUMP INVALID PUSH1 0x80 PUSH1 0x40 DUP2 DUP2 MSTORE PUSH1 0x4 SWAP2 DUP3 CALLDATASIZE LT ISZERO PUSH2 0x22 JUMPI JUMPDEST POP POP POP CALLDATASIZE ISZERO PUSH2 0x20 JUMPI PUSH1 0x0 DUP1 REVERT JUMPDEST STOP JUMPDEST PUSH1 0x0 SWAP1 DUP2 CALLDATALOAD PUSH1 0xE0 SHR SWAP1 DUP2 PUSH4 0x902F1AC EQ PUSH2 0x496 JUMPI POP DUP1 PUSH4 0xE06DFC9 EQ PUSH2 0x263 JUMPI DUP1 PUSH4 0xFC63D10 EQ PUSH2 0x46D JUMPI DUP1 PUSH4 0x5673B02D EQ PUSH2 0x3C7 JUMPI DUP1 PUSH4 0x5B8BEC55 EQ PUSH2 0x39E JUMPI DUP1 PUSH4 0x5C52A5F2 EQ PUSH2 0x2B6 JUMPI DUP1 PUSH4 0x5C9D6938 EQ PUSH2 0x291 JUMPI DUP1 PUSH4 0x5F64B55B EQ PUSH2 0x268 JUMPI DUP1 PUSH4 0x7464FC3D EQ PUSH2 0x263 JUMPI DUP1 PUSH4 0x749388C4 EQ PUSH2 0x1B1 JUMPI DUP1 PUSH4 0xBA9A7A56 EQ PUSH2 0x194 JUMPI DUP1 PUSH4 0xC45A0155 EQ PUSH2 0x168 JUMPI PUSH4 0xE7D3FE6B SUB PUSH2 0x12 JUMPI CALLVALUE PUSH2 0x165 JUMPI POP PUSH32 0x8334F87AEAF76E52B061D93EE968E51FDD3AD53CA04E80271249227997AAB3A0 PUSH2 0x15B PUSH1 0x20 SWAP4 PUSH2 0xF0 CALLDATASIZE PUSH2 0x4ED JUMP JUMPDEST PUSH1 0x3 DUP1 SLOAD PUSH1 0x1 PUSH1 0x1 PUSH1 0xA0 SHL SUB NOT AND PUSH1 0x1 PUSH1 0x1 PUSH1 0xA0 SHL SUB DUP4 AND OR SWAP1 SSTORE DUP7 MLOAD SWAP2 SWAP5 SWAP3 SWAP4 SWAP1 SWAP2 DUP5 SWAP2 SWAP1 PUSH2 0x11F DUP2 PUSH2 0x547 JUMP JUMPDEST DUP3 DUP2 MSTORE DUP7 DUP11 DUP3 ADD MSTORE DUP9 TIMESTAMP SWAP2 ADD MSTORE SSTORE DUP4 PUSH1 0x5 SSTORE TIMESTAMP PUSH1 0x6 SSTORE DUP6 MLOAD SWAP4 DUP5 SWAP4 DUP5 SWAP2 SWAP3 PUSH1 0x40 SWAP2 SWAP5 SWAP4 PUSH1 0x60 DUP5 ADD SWAP6 DUP5 MSTORE PUSH1 0x20 DUP5 ADD MSTORE PUSH1 0x1 DUP1 PUSH1 0xA0 SHL SUB AND SWAP2 ADD MSTORE JUMP JUMPDEST SUB SWAP1 LOG1 MLOAD PUSH1 0x1 DUP2 MSTORE RETURN JUMPDEST DUP1 REVERT JUMPDEST POP SWAP1 CALLVALUE PUSH2 0x190 JUMPI DUP2 PUSH1 0x3 NOT CALLDATASIZE ADD SLT PUSH2 0x190 JUMPI SWAP1 SLOAD SWAP1 MLOAD PUSH1 0x1 PUSH1 0x1 PUSH1 0xA0 SHL SUB SWAP1 SWAP2 AND DUP2 MSTORE PUSH1 0x20 SWAP1 RETURN JUMPDEST POP DUP1 REVERT JUMPDEST POP SWAP1 CALLVALUE PUSH2 0x190 JUMPI DUP2 PUSH1 0x3 NOT CALLDATASIZE ADD SLT PUSH2 0x190 JUMPI PUSH1 0x20 SWAP1 MLOAD PUSH2 0x3E8 DUP2 MSTORE RETURN JUMPDEST POP CALLVALUE PUSH2 0x165 JUMPI POP PUSH2 0x1C1 CALLDATASIZE PUSH2 0x4ED JUMP JUMPDEST PUSH1 0x3 SLOAD SWAP2 SWAP3 SWAP2 PUSH1 0x1 PUSH1 0x1 PUSH1 0xA0 SHL SUB SWAP1 DUP2 AND SWAP1 DUP3 AND SUB PUSH2 0x210 JUMPI SWAP1 PUSH2 0x15B PUSH32 0x254CBA6BCAACD15EF1BBA85E06C1D71C8CF7A3E036AD089903BA04BAD25AACCC SWAP4 SWAP3 DUP3 PUSH1 0x20 SWAP8 DUP8 MLOAD PUSH2 0x11F DUP2 PUSH2 0x547 JUMP JUMPDEST DUP4 MLOAD PUSH3 0x461BCD PUSH1 0xE5 SHL DUP2 MSTORE PUSH1 0x20 DUP2 DUP8 ADD MSTORE PUSH1 0x27 PUSH1 0x24 DUP3 ADD MSTORE PUSH32 0x4F6E6C79204C7020686F6C646572732063616E2063616C6C2074686973206675 PUSH1 0x44 DUP3 ADD MSTORE PUSH7 0x3731BA34B7B717 PUSH1 0xC9 SHL PUSH1 0x64 DUP3 ADD MSTORE PUSH1 0x84 SWAP1 REVERT JUMPDEST PUSH2 0x4C3 JUMP JUMPDEST POP SWAP1 CALLVALUE PUSH2 0x190 JUMPI DUP2 PUSH1 0x3 NOT CALLDATASIZE ADD SLT PUSH2 0x190 JUMPI PUSH1 0x2 SLOAD SWAP1 MLOAD PUSH1 0x1 PUSH1 0x1 PUSH1 0xA0 SHL SUB SWAP1 SWAP2 AND DUP2 MSTORE PUSH1 0x20 SWAP1 RETURN JUMPDEST POP DUP3 SWAP1 CALLVALUE PUSH2 0x165 JUMPI DUP1 PUSH1 0x3 NOT CALLDATASIZE ADD SLT PUSH2 0x165 JUMPI POP PUSH1 0x5 SLOAD SWAP1 SLOAD DUP3 MLOAD SWAP2 DUP3 MSTORE PUSH1 0x20 DUP3 ADD MSTORE RETURN JUMPDEST POP DUP1 SWAP3 CALLVALUE PUSH2 0x190 JUMPI PUSH1 0x60 CALLDATASIZE PUSH1 0x3 NOT ADD SLT PUSH2 0x190 JUMPI DUP1 CALLDATALOAD PUSH1 0x1 PUSH1 0x1 PUSH1 0xA0 SHL SUB DUP2 DUP2 AND SWAP2 DUP3 SWAP1 SUB PUSH2 0x39A JUMPI PUSH1 0x24 CALLDATALOAD SWAP1 DUP2 AND DUP1 SWAP2 SUB PUSH2 0x39A JUMPI PUSH1 0x44 PUSH1 0x20 SWAP3 DUP7 MLOAD SWAP6 DUP7 SWAP4 DUP5 SWAP3 PUSH4 0x95EA7B3 PUSH1 0xE0 SHL DUP5 MSTORE DUP8 DUP5 ADD MSTORE DUP4 CALLDATALOAD PUSH1 0x24 DUP5 ADD MSTORE GAS CALL DUP1 ISZERO PUSH2 0x38D JUMPI PUSH2 0x324 JUMPI JUMPDEST PUSH1 0x20 DUP4 MLOAD PUSH1 0x1 DUP2 MSTORE RETURN JUMPDEST PUSH1 0x20 SWAP1 RETURNDATASIZE PUSH1 0x20 GT PUSH2 0x385 JUMPI JUMPDEST PUSH1 0x1F DUP3 ADD PUSH1 0x1F NOT AND DUP4 ADD SWAP1 PUSH8 0xFFFFFFFFFFFFFFFF DUP3 GT DUP5 DUP4 LT OR PUSH2 0x372 JUMPI POP PUSH1 0x20 SWAP2 DUP4 SWAP2 DUP6 MSTORE DUP2 ADD SUB SLT PUSH2 0x36E JUMPI MLOAD DUP1 ISZERO ISZERO SUB PUSH2 0x190 JUMPI DUP2 DUP1 PUSH2 0x31A JUMP JUMPDEST DUP3 DUP1 REVERT JUMPDEST PUSH4 0x4E487B71 PUSH1 0xE0 SHL DUP7 MSTORE PUSH1 0x41 SWAP1 MSTORE PUSH1 0x24 DUP6 REVERT JUMPDEST RETURNDATASIZE SWAP2 POP PUSH2 0x330 JUMP JUMPDEST POP POP POP MLOAD SWAP1 RETURNDATASIZE SWAP1 DUP3 RETURNDATACOPY RETURNDATASIZE SWAP1 REVERT JUMPDEST DUP4 DUP1 REVERT JUMPDEST POP SWAP1 CALLVALUE PUSH2 0x190 JUMPI DUP2 PUSH1 0x3 NOT CALLDATASIZE ADD SLT PUSH2 0x190 JUMPI PUSH1 0x3 SLOAD SWAP1 MLOAD PUSH1 0x1 PUSH1 0x1 PUSH1 0xA0 SHL SUB SWAP1 SWAP2 AND DUP2 MSTORE PUSH1 0x20 SWAP1 RETURN JUMPDEST POP CALLVALUE PUSH2 0x165 JUMPI PUSH1 0x80 CALLDATASIZE PUSH1 0x3 NOT ADD SLT PUSH2 0x165 JUMPI POP PUSH32 0x298C349C742327269DC8DE6AD66687767310C948EA309DF826F5BD103E19D207 PUSH1 0x80 DUP4 PUSH1 0x20 SWAP5 CALLDATALOAD SWAP1 PUSH1 0x24 CALLDATALOAD PUSH1 0x44 CALLDATALOAD SWAP1 PUSH1 0x64 CALLDATALOAD SWAP3 PUSH2 0x422 DUP3 PUSH2 0x41D DUP8 DUP5 SLOAD PUSH2 0x517 JUMP JUMPDEST PUSH2 0x53A JUMP JUMPDEST PUSH2 0x432 DUP6 PUSH2 0x41D DUP7 PUSH1 0x5 SLOAD PUSH2 0x517 JUMP JUMPDEST SWAP2 DUP10 MLOAD PUSH2 0x43E DUP2 PUSH2 0x547 JUMP JUMPDEST DUP3 DUP2 MSTORE DUP4 DUP13 DUP3 ADD MSTORE DUP11 TIMESTAMP SWAP2 ADD MSTORE SSTORE PUSH1 0x5 SSTORE TIMESTAMP PUSH1 0x6 SSTORE DUP7 MLOAD SWAP4 DUP5 MSTORE DUP8 DUP5 ADD MSTORE DUP6 DUP4 ADD MSTORE PUSH1 0x60 DUP3 ADD MSTORE LOG1 MLOAD PUSH1 0x1 DUP2 MSTORE RETURN JUMPDEST POP SWAP1 CALLVALUE PUSH2 0x190 JUMPI DUP2 PUSH1 0x3 NOT CALLDATASIZE ADD SLT PUSH2 0x190 JUMPI PUSH1 0x1 SLOAD SWAP1 MLOAD PUSH1 0x1 PUSH1 0x1 PUSH1 0xA0 SHL SUB SWAP1 SWAP2 AND DUP2 MSTORE PUSH1 0x20 SWAP1 RETURN JUMPDEST SWAP1 POP DUP3 DUP5 CALLVALUE PUSH2 0x39A JUMPI DUP4 PUSH1 0x3 NOT CALLDATASIZE ADD SLT PUSH2 0x39A JUMPI PUSH1 0x60 SWAP4 POP SLOAD SWAP1 PUSH1 0x5 SLOAD PUSH1 0x6 SLOAD SWAP3 DUP5 MSTORE PUSH1 0x20 DUP5 ADD MSTORE DUP3 ADD MSTORE RETURN JUMPDEST CALLVALUE PUSH2 0x4E8 JUMPI PUSH1 0x0 CALLDATASIZE PUSH1 0x3 NOT ADD SLT PUSH2 0x4E8 JUMPI PUSH1 0x40 PUSH1 0x4 SLOAD PUSH1 0x5 SLOAD DUP3 MLOAD SWAP2 DUP3 MSTORE PUSH1 0x20 DUP3 ADD MSTORE RETURN JUMPDEST PUSH1 0x0 DUP1 REVERT JUMPDEST PUSH1 0x60 SWAP1 PUSH1 0x3 NOT ADD SLT PUSH2 0x4E8 JUMPI PUSH1 0x4 CALLDATALOAD SWAP1 PUSH1 0x24 CALLDATALOAD SWAP1 PUSH1 0x44 CALLDATALOAD PUSH1 0x1 PUSH1 0x1 PUSH1 0xA0 SHL SUB DUP2 AND DUP2 SUB PUSH2 0x4E8 JUMPI SWAP1 JUMP JUMPDEST SWAP2 SWAP1 DUP3 ADD DUP1 SWAP3 GT PUSH2 0x524 JUMPI JUMP JUMPDEST PUSH4 0x4E487B71 PUSH1 0xE0 SHL PUSH1 0x0 MSTORE PUSH1 0x11 PUSH1 0x4 MSTORE PUSH1 0x24 PUSH1 0x0 REVERT JUMPDEST SWAP2 SWAP1 DUP3 SUB SWAP2 DUP3 GT PUSH2 0x524 JUMPI JUMP JUMPDEST PUSH1 0x60 DUP2 ADD SWAP1 DUP2 LT PUSH8 0xFFFFFFFFFFFFFFFF DUP3 GT OR PUSH2 0x563 JUMPI PUSH1 0x40 MSTORE JUMP JUMPDEST PUSH4 0x4E487B71 PUSH1 0xE0 SHL PUSH1 0x0 MSTORE PUSH1 0x41 PUSH1 0x4 MSTORE PUSH1 0x24 PUSH1 0x0 REVERT INVALID LOG2 PUSH5 0x6970667358 0x22 SLT KECCAK256 0xE3 0xBA SELFBALANCE 0xC5 CHAINID SWAP13 JUMP DUP3 SWAP14 LOG1 EXTCODEHASH ADDRESS 0xEE TIMESTAMP 0xBF 0xA8 GT 0xA8 PUSH17 0xC944047DFAE3588EC8AB5DE0D264736F6C PUSH4 0x43000818 STOP CALLER "
        },
        "methodIdentifiers": {
          "MINIMUM_LIQUIDITY()": "ba9a7a56",
          "approval(address,address,uint256)": "5c52a5f2",
          "burn(uint256,uint256,address)": "749388c4",
          "factory()": "c45a0155",
          "getReserves()": "0902f1ac",
          "kLast()": "7464fc3d",
          "liquidityProvider()": "5b8bec55",
          "mint(uint256,uint256,address)": "e7d3fe6b",
          "priceALast()": "5c9d6938",
          "priceBLast()": "0e06dfc9",
          "swap(uint256,uint256,uint256,uint256)": "5673b02d",
          "tokenA()": "0fc63d10",
          "tokenB()": "5f64b55b"
        }
      }
    }
  }
}