{
  "contracts/PumpFun.sol": {
    "PumpFun": {
      "abi": [
        {
          "inputs": [
            {
              "internalType": "address",
              "name": "factory_",
              "type": "address"
            },
            {
              "internalType": "address",
              "name": "router_",
              "type": "address"
            },
            {
              "internalType": "address",
              "name": "fee_to",
              "type": "address"
            },
            {
              "internalType": "uint256",
              "name": "_fee",
              "type": "uint256"
            }
          ],
          "stateMutability": "nonpayable",
          "type": "constructor"
        },
        {
          "inputs": [],
          "name": "ReentrancyGuardReentrantCall",
          "type": "error"
        },
        {
          "anonymous": false,
          "inputs": [
            {
              "indexed": true,
              "internalType": "address",
              "name": "token",
              "type": "address"
            },
            {
              "indexed": false,
              "internalType": "uint256",
              "name": "amount0",
              "type": "uint256"
            },
            {
              "indexed": false,
              "internalType": "uint256",
              "name": "amount1",
              "type": "uint256"
            }
          ],
          "name": "Deployed",
          "type": "event"
        },
        {
          "anonymous": false,
          "inputs": [
            {
              "indexed": true,
              "internalType": "address",
              "name": "token",
              "type": "address"
            },
            {
              "indexed": true,
              "internalType": "address",
              "name": "pair",
              "type": "address"
            },
            {
              "indexed": false,
              "internalType": "uint256",
              "name": "",
              "type": "uint256"
            }
          ],
          "name": "Launched",
          "type": "event"
        },
        {
          "inputs": [
            {
              "internalType": "address",
              "name": "_user",
              "type": "address"
            },
            {
              "internalType": "address",
              "name": "_token",
              "type": "address"
            },
            {
              "internalType": "uint256",
              "name": "amount",
              "type": "uint256"
            }
          ],
          "name": "approval",
          "outputs": [
            {
              "internalType": "bool",
              "name": "",
              "type": "bool"
            }
          ],
          "stateMutability": "nonpayable",
          "type": "function"
        },
        {
          "inputs": [
            {
              "internalType": "address",
              "name": "tk",
              "type": "address"
            }
          ],
          "name": "deploy",
          "outputs": [],
          "stateMutability": "nonpayable",
          "type": "function"
        },
        {
          "inputs": [],
          "name": "feeTo",
          "outputs": [
            {
              "internalType": "address",
              "name": "",
              "type": "address"
            }
          ],
          "stateMutability": "view",
          "type": "function"
        },
        {
          "inputs": [],
          "name": "feeToSetter",
          "outputs": [
            {
              "internalType": "address",
              "name": "",
              "type": "address"
            }
          ],
          "stateMutability": "view",
          "type": "function"
        },
        {
          "inputs": [],
          "name": "getTokens",
          "outputs": [
            {
              "components": [
                {
                  "internalType": "address",
                  "name": "creator",
                  "type": "address"
                },
                {
                  "internalType": "address",
                  "name": "token",
                  "type": "address"
                },
                {
                  "internalType": "address",
                  "name": "pair",
                  "type": "address"
                },
                {
                  "internalType": "string",
                  "name": "name",
                  "type": "string"
                },
                {
                  "internalType": "string",
                  "name": "ticker",
                  "type": "string"
                },
                {
                  "internalType": "uint256",
                  "name": "supply",
                  "type": "uint256"
                },
                {
                  "internalType": "string",
                  "name": "description",
                  "type": "string"
                },
                {
                  "internalType": "string",
                  "name": "image",
                  "type": "string"
                },
                {
                  "internalType": "string",
                  "name": "twitter",
                  "type": "string"
                },
                {
                  "internalType": "string",
                  "name": "telegram",
                  "type": "string"
                },
                {
                  "internalType": "string",
                  "name": "youtube",
                  "type": "string"
                },
                {
                  "internalType": "string",
                  "name": "website",
                  "type": "string"
                },
                {
                  "internalType": "bool",
                  "name": "trading",
                  "type": "bool"
                },
                {
                  "internalType": "bool",
                  "name": "tradingOnUniswap",
                  "type": "bool"
                }
              ],
              "internalType": "struct PumpFun.Token[]",
              "name": "",
              "type": "tuple[]"
            }
          ],
          "stateMutability": "view",
          "type": "function"
        },
        {
          "inputs": [],
          "name": "getUserTokens",
          "outputs": [
            {
              "components": [
                {
                  "internalType": "address",
                  "name": "creator",
                  "type": "address"
                },
                {
                  "internalType": "address",
                  "name": "token",
                  "type": "address"
                },
                {
                  "internalType": "address",
                  "name": "pair",
                  "type": "address"
                },
                {
                  "internalType": "string",
                  "name": "name",
                  "type": "string"
                },
                {
                  "internalType": "string",
                  "name": "ticker",
                  "type": "string"
                },
                {
                  "internalType": "uint256",
                  "name": "supply",
                  "type": "uint256"
                },
                {
                  "internalType": "string",
                  "name": "description",
                  "type": "string"
                },
                {
                  "internalType": "string",
                  "name": "image",
                  "type": "string"
                },
                {
                  "internalType": "string",
                  "name": "twitter",
                  "type": "string"
                },
                {
                  "internalType": "string",
                  "name": "telegram",
                  "type": "string"
                },
                {
                  "internalType": "string",
                  "name": "youtube",
                  "type": "string"
                },
                {
                  "internalType": "string",
                  "name": "website",
                  "type": "string"
                },
                {
                  "internalType": "bool",
                  "name": "trading",
                  "type": "bool"
                },
                {
                  "internalType": "bool",
                  "name": "tradingOnUniswap",
                  "type": "bool"
                }
              ],
              "internalType": "struct PumpFun.Token[]",
              "name": "",
              "type": "tuple[]"
            }
          ],
          "stateMutability": "view",
          "type": "function"
        },
        {
          "inputs": [
            {
              "internalType": "string",
              "name": "_name",
              "type": "string"
            },
            {
              "internalType": "string",
              "name": "_ticker",
              "type": "string"
            },
            {
              "internalType": "string",
              "name": "desc",
              "type": "string"
            },
            {
              "internalType": "string",
              "name": "img",
              "type": "string"
            },
            {
              "internalType": "string[4]",
              "name": "urls",
              "type": "string[4]"
            },
            {
              "internalType": "uint256",
              "name": "_supply",
              "type": "uint256"
            },
            {
              "internalType": "uint256",
              "name": "maxTx",
              "type": "uint256"
            }
          ],
          "name": "launch",
          "outputs": [
            {
              "internalType": "address",
              "name": "",
              "type": "address"
            },
            {
              "internalType": "address",
              "name": "",
              "type": "address"
            },
            {
              "internalType": "uint256",
              "name": "",
              "type": "uint256"
            }
          ],
          "stateMutability": "payable",
          "type": "function"
        },
        {
          "inputs": [],
          "name": "launchFee",
          "outputs": [
            {
              "internalType": "uint256",
              "name": "",
              "type": "uint256"
            }
          ],
          "stateMutability": "view",
          "type": "function"
        },
        {
          "inputs": [],
          "name": "liquidityFee",
          "outputs": [
            {
              "internalType": "uint256",
              "name": "",
              "type": "uint256"
            }
          ],
          "stateMutability": "pure",
          "type": "function"
        },
        {
          "inputs": [],
          "name": "marketCapLimit",
          "outputs": [
            {
              "internalType": "uint256",
              "name": "",
              "type": "uint256"
            }
          ],
          "stateMutability": "pure",
          "type": "function"
        },
        {
          "inputs": [
            {
              "internalType": "address",
              "name": "",
              "type": "address"
            }
          ],
          "name": "profile",
          "outputs": [
            {
              "internalType": "address",
              "name": "user",
              "type": "address"
            }
          ],
          "stateMutability": "view",
          "type": "function"
        },
        {
          "inputs": [
            {
              "internalType": "uint256",
              "name": "",
              "type": "uint256"
            }
          ],
          "name": "profiles",
          "outputs": [
            {
              "internalType": "address",
              "name": "user",
              "type": "address"
            }
          ],
          "stateMutability": "view",
          "type": "function"
        },
        {
          "inputs": [
            {
              "internalType": "address",
              "name": "fee_to",
              "type": "address"
            }
          ],
          "name": "setFeeTo",
          "outputs": [],
          "stateMutability": "nonpayable",
          "type": "function"
        },
        {
          "inputs": [
            {
              "internalType": "address",
              "name": "",
              "type": "address"
            }
          ],
          "name": "token",
          "outputs": [
            {
              "internalType": "address",
              "name": "creator",
              "type": "address"
            },
            {
              "internalType": "address",
              "name": "token",
              "type": "address"
            },
            {
              "internalType": "address",
              "name": "pair",
              "type": "address"
            },
            {
              "internalType": "string",
              "name": "name",
              "type": "string"
            },
            {
              "internalType": "string",
              "name": "ticker",
              "type": "string"
            },
            {
              "internalType": "uint256",
              "name": "supply",
              "type": "uint256"
            },
            {
              "internalType": "string",
              "name": "description",
              "type": "string"
            },
            {
              "internalType": "string",
              "name": "image",
              "type": "string"
            },
            {
              "internalType": "string",
              "name": "twitter",
              "type": "string"
            },
            {
              "internalType": "string",
              "name": "telegram",
              "type": "string"
            },
            {
              "internalType": "string",
              "name": "youtube",
              "type": "string"
            },
            {
              "internalType": "string",
              "name": "website",
              "type": "string"
            },
            {
              "internalType": "bool",
              "name": "trading",
              "type": "bool"
            },
            {
              "internalType": "bool",
              "name": "tradingOnUniswap",
              "type": "bool"
            }
          ],
          "stateMutability": "view",
          "type": "function"
        },
        {
          "inputs": [
            {
              "internalType": "uint256",
              "name": "",
              "type": "uint256"
            }
          ],
          "name": "tokens",
          "outputs": [
            {
              "internalType": "address",
              "name": "creator",
              "type": "address"
            },
            {
              "internalType": "address",
              "name": "token",
              "type": "address"
            },
            {
              "internalType": "address",
              "name": "pair",
              "type": "address"
            },
            {
              "internalType": "string",
              "name": "name",
              "type": "string"
            },
            {
              "internalType": "string",
              "name": "ticker",
              "type": "string"
            },
            {
              "internalType": "uint256",
              "name": "supply",
              "type": "uint256"
            },
            {
              "internalType": "string",
              "name": "description",
              "type": "string"
            },
            {
              "internalType": "string",
              "name": "image",
              "type": "string"
            },
            {
              "internalType": "string",
              "name": "twitter",
              "type": "string"
            },
            {
              "internalType": "string",
              "name": "telegram",
              "type": "string"
            },
            {
              "internalType": "string",
              "name": "youtube",
              "type": "string"
            },
            {
              "internalType": "string",
              "name": "website",
              "type": "string"
            },
            {
              "internalType": "bool",
              "name": "trading",
              "type": "bool"
            },
            {
              "internalType": "bool",
              "name": "tradingOnUniswap",
              "type": "bool"
            }
          ],
          "stateMutability": "view",
          "type": "function"
        },
        {
          "inputs": [
            {
              "internalType": "uint256",
              "name": "_fee",
              "type": "uint256"
            }
          ],
          "name": "updateLaunchFee",
          "outputs": [
            {
              "internalType": "uint256",
              "name": "",
              "type": "uint256"
            }
          ],
          "stateMutability": "nonpayable",
          "type": "function"
        },
        {
          "inputs": [],
          "name": "withdraw",
          "outputs": [
            {
              "internalType": "bool",
              "name": "",
              "type": "bool"
            }
          ],
          "stateMutability": "nonpayable",
          "type": "function"
        },
        {
          "stateMutability": "payable",
          "type": "receive"
        }
      ],
      "evm": {
        "bytecode": {
          "linkReferences": {},
          "object": "6080346200014657601f62003ccf38819003918201601f19168301916001600160401b038311848410176200014b5780849260809460405283398101031262000146576200004d8162000161565b6200005b6020830162000161565b60606200006b6040850162000161565b9301516001600081905580546001600160a01b03199081163317909155909390926001600160a01b03908116928190620000a785151562000176565b1691620000b683151562000176565b1691620000c583151562000176565b836002541617600255826003541617600355816004541617600455670de0b6b3a76400009182810292818404149015171562000130576103e8734752ba5dbc23f44d87826276bf6fd6b1c372ad2492046005556006541617600655604051613b0b9081620001c48239f35b634e487b7160e01b600052601160045260246000fd5b600080fd5b634e487b7160e01b600052604160045260246000fd5b51906001600160a01b03821682036200014657565b156200017e57565b60405162461bcd60e51b815260206004820152601f60248201527f5a65726f2061646472657373657320617265206e6f7420616c6c6f7765642e006044820152606490fdfe60808060405260043610156200001f575b5036156200001d57600080fd5b005b60009060e0823560e01c918263017e7e5814620017e057508163094b741514620017b55781633ccfd60b14620017345781634c96a38914620010fe5781634f64b2be1462000e7d5781635c52a5f21462000e1a5781636d46a1db1462000d315781637660f44a1462000d0c57816380997e471462000ce55781638a664ebc1462000aee57816398118cb41462000ad05781639dd9d0fd1462000a90578163aa6ca80814620008f957508063ad256f7d14620001c0578063c36fe3d6146200017c578063cf3cf573146200015c5763f46901ed036200001057346200015957602036600319011262000159576200011462001807565b6001546001600160a01b03919062000130908316331462001ce2565b166200013e81151562001d3e565b6bffffffffffffffffffffffff60a01b600454161760045580f35b80fd5b503462000159578060031936011262000159576020600554604051908152f35b50346200015957602036600319011262000159576004359060085482101562000159576020620001ac8362001c72565b50546040516001600160a01b039091168152f35b5060e0366003190112620001595767ffffffffffffffff906004358281116200067857620001f390369060040162001c25565b602435838111620008f5576200020e90369060040162001c25565b90604435848111620008f1576200022a90369060040162001c25565b90606435858111620007f7576200024690369060040162001c25565b9460843590808211620008ed5736602383011215620008ed576040519160808301838110838211176200074e576040526084810183368211620008e95782600401905b828210620008b957505050506200029f62002738565b60055434106200087457604051906110ab80830191821183831017620008605790829162002a2b833960808152620002ee620002df60808301876200196a565b8281036020840152886200196a565b9060a4356040820152606060c435910152039086f093841562000833576003546040516315ab88c960e31b815290602090829060049082906001600160a01b03165afa90811562000797576200038a88969594939260209288916200083e575b506002546040516364e329cb60e11b81526001600160a01b038b8116600483015292831660248201529a8b939190921691839182906044820190565b03925af196871562000833578597620007fb575b5060035460405163313ce56760e01b81526001600160a01b0391821691602090829060049082908c165afa9081156200079757620003ef6200040a9392620003f8928a91620007a2575b5062001dde565b60a43562001e06565b906001600160a01b0389169062002776565b15620007f7573460050293600585043403620007e3573460648604340311620007e35760035460405163313ce56760e01b81526001600160a01b039182169a91602090829060049082908d165afa908115620007d8579a6200047f620003ef604093620004b19e8c91620007a2575062001dde565b8251630e505aa960e31b81526001600160a01b038c16600482015260248101919091529b8c9190829081906044820190565b039160648b04905af1998a15620007975760409798999a62000764575b50835191602085015193606089870151960151968951809d620004f18262001878565b3382528d60018060a01b0316602083015260018060a01b03169a8b91015260608d015260808c015260a43560a08c015260c08b015260e08a015261010089015261012088015261014087015261016086015260019485610180820152836101a082015260018060a01b0385168452600960205262000573816040862062001e33565b600a5490600160401b808310156200074e5787830180600a558310156200073857620005cb82600d8895600a600052027fc65a7bb8d6351c1cf70c95a316cc6a92839c986682d98bc35f958f4883f9d2a80162001e33565b620005d63362002827565b156200067c57508160648194620005fc839433855260076020528b604086200162002701565b6004549190043403906001600160a01b03165af16200061a62001cad565b50156200067857606093600a5492826040518581527f714aa39317ad9a7a7a99db52b44490da5d068a0b2710fffb1a1282ad3cadae1f602060018060a01b03891692a3556040519260018060a01b0316835260208301526040820152f35b5080fd5b9091506200068c33151562001d3e565b604051906200069b826200185b565b338252606060208301523386526007602052620006bc8260408820620028ce565b6008549081101562000724578088620006d9920160085562001c72565b6200071057606486946200070a8695620006f687968796620028ce565b33855260076020528b604086200162002701565b620005fc565b634e487b7160e01b86526004869052602486fd5b634e487b7160e01b86526041600452602486fd5b634e487b7160e01b600052603260045260246000fd5b634e487b7160e01b600052604160045260246000fd5b6200078890883d8a116200078f575b6200077f818362001896565b81019062001dac565b50620004ce565b503d62000773565b6040513d89823e3d90fd5b620007c9915060203d602011620007d0575b620007c0818362001896565b81019062001dc3565b38620003e8565b503d620007b4565b6040513d8a823e3d90fd5b634e487b7160e01b86526011600452602486fd5b8480fd5b6200082391975060203d6020116200082b575b6200081a818362001896565b81019062001d8b565b95386200039e565b503d6200080e565b6040513d87823e3d90fd5b620008599150833d85116200082b576200081a818362001896565b386200034e565b634e487b7160e01b88526041600452602488fd5b60405162461bcd60e51b815260206004820152601960248201527f496e73756666696369656e7420616d6f756e742073656e742e000000000000006044820152606490fd5b8135858111620008e557602091620008d983926004369189010162001c25565b81520191019062000289565b8a80fd5b8880fd5b8580fd5b8380fd5b8280fd5b8234620001595780600319360112620001595750600a805467ffffffffffffffff81116200074e576020600590604051936200093c60208560051b018662001896565b8385526020850192600a6000527fc65a7bb8d6351c1cf70c95a316cc6a92839c986682d98bc35f958f4883f9d2a8916000945b8686106200098b5760405180620009878a8262001a90565b0390f35b600d856001926040516200099f8162001878565b848060a01b0380895416825280868a015416848301526002890154166040820152620009ce60038901620018b9565b6060820152620009e160048901620018b9565b60808201528688015460a0820152620009fd60068901620018b9565b60c082015262000a1060078901620018b9565b8d820152600862000a23818a01620018b9565b61010083015262000a3760098a01620018b9565b61012083015262000a4a878a01620018b9565b61014083015262000a5e600b8a01620018b9565b610160830152600c89015460ff9182821615156101808501521c1615156101a08201528152019401950194926200096f565b82346200015957602036600319011262000159576020906001600160a01b03906040908262000abe62001807565b16815260078452205416604051908152f35b82346200015957806003193601126200015957602060405160058152f35b905034620006785781600319360112620006785762000b0d3362002827565b1562000ca057338252600790604060209360078552206040519162000b32836200185b565b81546001600160a01b03908116845260019283018054929167ffffffffffffffff84116200074e5760405196919260059262000b7386851b8b018a62001896565b8589526000948552898520938a8a015b87871062000ba157898c018b905260405180620009878d8262001a90565b600d8c8a9260405162000bb48162001878565b888a5416815288858b015416838201528860028b015416604082015262000bde60038b01620018b9565b606082015262000bf160048b01620018b9565b6080820152858a015460a082015262000c0d60068b01620018b9565b60c082015262000c1f878b01620018b9565b88820152600862000c32818c01620018b9565b61010083015262000c4660098c01620018b9565b61012083015262000c5a600a8c01620018b9565b61014083015262000c6e600b8c01620018b9565b610160830152600c8b015460ff9182821615156101808501521c1615156101a082015281520196019601959462000b83565b60405162461bcd60e51b815260206004820152601c60248201527f557365722050726f66696c6520646f7365206e6f742065786973742e000000006044820152606490fd5b82346200015957806003193601126200015957602060405169152d02c7e14af68000008152f35b8234620001595760203660031901126200015957602060043580600555604051908152f35b82346200015957602036600319011262000159576001600160a01b03908162000d5962001807565b16815260096020526040902081815416918060018301541690600283015416916003810162000d8890620018b9565b9362000d9760048301620018b9565b9160058101546006820162000dac90620018b9565b62000dba60078401620018b9565b62000dc860088501620018b9565b9062000dd760098601620018b9565b9262000de6600a8701620018b9565b9462000df5600b8801620018b9565b96600c0154986040519c8d9c8d9c8c60081c60ff169c60ff169b620009879e620019ac565b823462000159576060366003190112620001595762000e3862001807565b60243591906001600160a01b038316830362000e785762000e6c60019160209462000e6262002738565b6044359162002776565b91556040519015158152f35b600080fd5b823462000159576020366003190112620001595760043590600a54821015620001595750600a600052600d02600160a01b600190039081817fc65a7bb8d6351c1cf70c95a316cc6a92839c986682d98bc35f958f4883f9d2a801541691807fc65a7bb8d6351c1cf70c95a316cc6a92839c986682d98bc35f958f4883f9d2a983015416907fc65a7bb8d6351c1cf70c95a316cc6a92839c986682d98bc35f958f4883f9d2aa83015416917fc65a7bb8d6351c1cf70c95a316cc6a92839c986682d98bc35f958f4883f9d2ab810162000f5590620018b9565b9362000f837fc65a7bb8d6351c1cf70c95a316cc6a92839c986682d98bc35f958f4883f9d2ac8301620018b9565b917fc65a7bb8d6351c1cf70c95a316cc6a92839c986682d98bc35f958f4883f9d2ad8101547fc65a7bb8d6351c1cf70c95a316cc6a92839c986682d98bc35f958f4883f9d2ae820162000fd690620018b9565b620010037fc65a7bb8d6351c1cf70c95a316cc6a92839c986682d98bc35f958f4883f9d2af8401620018b9565b620010307fc65a7bb8d6351c1cf70c95a316cc6a92839c986682d98bc35f958f4883f9d2b08501620018b9565b906200105e7fc65a7bb8d6351c1cf70c95a316cc6a92839c986682d98bc35f958f4883f9d2b18601620018b9565b926200108c7fc65a7bb8d6351c1cf70c95a316cc6a92839c986682d98bc35f958f4883f9d2b28701620018b9565b94620010ba7fc65a7bb8d6351c1cf70c95a316cc6a92839c986682d98bc35f958f4883f9d2b38801620018b9565b967fc65a7bb8d6351c1cf70c95a316cc6a92839c986682d98bc35f958f4883f9d2b40154986040519c8d9c8d9c8c60081c60ff169c60ff169b620009879e620019ac565b8234620001595760208060031936011262000678576200111d62001807565b6001546001600160a01b03919062001139908316331462001ce2565b6200114362002738565b8181169283151590620011568262001d3e565b8360035416936040519082826004816315ab88c960e31b998a82525afa918215620007d857620011c59284918a9162001712575b5060025460405163e6a4390560e01b81526001600160a01b03808a166004830152909216602483015290938491841690829081906044820190565b03915afa918215620007d8578892620016ee575b50863b15620016ea576040516306da678f60e51b8152918116600483015260249188818481838c5af18015620016df57620016a8575b5090879392918785526009835260408520966040826003541660648b8351998a93849263e79a408960e01b8452600484015283898401523060448401525af1948515620014dd578a968b9662001679575b506200126c9062001d3e565b888a5260098452600c60408b20015460ff8116908162001669575b5015620016255788908260065416604051908c878388816370a0823160e01b988982523060048301525afa91821562001618578b9192620015de575b620012cf935062002776565b15620015aa579082918b9493600654169060405163c45a015560e01b81528781600481865afa91821562000797578891889362001586575b5060046040518095819382525afa9081156200152857620013659a8893889362001562575b506040516364e329cb60e11b81526001600160a01b0391821660048201529216602483015290998a919082908890879083906044820190565b0393165af19788156200155757849862001533575b5060065460405191825230600483015282169047868286818f5afa92831562001528578c928794620014e8575b509160c49160609493604051988995869463f305d71960e01b865260048601528985015280604485015260648401523060848401524260a48401525af1928315620014dd578493620014a8575b50808a6044926006541691604051998a95869463095ea7b360e01b8652600486015260001990850152165af1801562000797577f540bcec33387745b2ced30977dcfe4a623a245511eb0a133989c27c8bb95b4a995604095600c9262001474575b5001805461ffff19166101001790558351928352820152a26001815580f35b6200149890843d8611620014a0575b6200148f818362001896565b8101906200275c565b508962001455565b503d62001483565b6060809294503d8311620014d5575b620014c3818362001896565b81010312620008e95782918a620013f4565b503d620014b7565b6040513d8c823e3d90fd5b9350915094508582813d831162001520575b62001506818362001896565b8101031262000e785790518b9490918b919060c4620013a7565b503d620014fa565b6040513d88823e3d90fd5b6200154f919850853d87116200082b576200081a818362001896565b968b6200137a565b6040513d86823e3d90fd5b6200157e919350843d86116200082b576200081a818362001896565b918f6200132c565b620015a2919350823d84116200082b576200081a818362001896565b918f62001307565b60405162461bcd60e51b815260048101869052600d818601526c2737ba1030b8383937bb32b21760991b6044820152606490fd5b9150508682813d831162001610575b620015f9818362001896565b8101031262000e785789620012cf925191620012c3565b503d620015ed565b50604051903d90823e3d90fd5b60405162461bcd60e51b8152600481018590526017818501527f74726164696e6720697320616c7265616479206f70656e0000000000000000006044820152606490fd5b60ff915060081c16158b62001287565b6200126c97506200169d91965060403d6040116200078f576200077f818362001896565b969096959062001260565b67ffffffffffffffff8199929594939911620016cc5760405296909192886200120f565b634e487b7160e01b825260416004528882fd5b6040513d8b823e3d90fd5b8780fd5b6200170a919250833d85116200082b576200081a818362001896565b9088620011d9565b6200172d9150823d84116200082b576200081a818362001896565b8a6200118a565b8234620001595780600319360112620001595760015481908190819047906001600160a01b03165af16200176762001cad565b50156200177957602060405160018152f35b60405162461bcd60e51b81526020600482015260146024820152732a3930b739b332b91022aa24102330b4b632b21760611b6044820152606490fd5b823462000159578060031936011262000159576001546040516001600160a01b039091168152602090f35b83903462000678578160031936011262000678576004546001600160a01b03168152602090f35b600435906001600160a01b038216820362000e7857565b90600182811c9216801562001850575b60208310146200183a57565b634e487b7160e01b600052602260045260246000fd5b91607f16916200182e565b6040810190811067ffffffffffffffff8211176200074e57604052565b6101c0810190811067ffffffffffffffff8211176200074e57604052565b90601f8019910116810190811067ffffffffffffffff8211176200074e57604052565b90604051918260008254620018ce816200181e565b9081845260209460019160018116908160001462001946575060011462001903575b505050620019019250038362001896565b565b600090815285812095935091905b8183106200192d575050620019019350820101388080620018f0565b8554888401850152948501948794509183019162001911565b925050506200190194925060ff191682840152151560051b820101388080620018f0565b919082519283825260005b84811062001997575050826000602080949584010152601f8019910116010190565b60208183018101518483018201520162001975565b9c9e9d9a9662001a609662001a31918f6101a09f9c9662001a809e9962001a0e62001a509a62001a709f9862001a409a62001a1d956101c09260018060a01b0392838092168a521660208901521660408701528060608701528501906200196a565b9083820360808501526200196a565b9260a082015260c08184039101526200196a565b8d810360e08f0152906200196a565b908b82036101008d01526200196a565b908982036101208b01526200196a565b908782036101408901526200196a565b908582036101608701526200196a565b9415156101808401521515910152565b6020808201908083528351809252604092604081018260408560051b8401019601946000925b85841062001ac8575050505050505090565b9091929394959685808460019362001bdc62001bc762001bb262001b9d8f62001b7462001b5662001b428f9362001b88948f603f19908c0301905251996101c0908b8f8c8f82819360a01b03938492838251169052015116908d0152818d015116908b015260609080828d0151928c01528a01906200196a565b6080808b0151908a8303908b01526200196a565b60a0808a01519089015260c0808a015190898303908a01526200196a565b60e08089015190888303908901526200196a565b6101008088015190878303908801526200196a565b6101208087015190868303908701526200196a565b6101408086015190858303908601526200196a565b6101608085015190848303908501526200196a565b91610180808201511515908301526101a080910151151591015299019401940192959493919062001ab6565b67ffffffffffffffff81116200074e57601f01601f191660200190565b81601f8201121562000e785780359062001c3f8262001c08565b9262001c4f604051948562001896565b8284526020838301011162000e7857816000926020809301838601378301015290565b6008548110156200073857600860005260011b7ff3f7a9fe364faab93b216da50a3214154f22a0a2b415b23a84c8169e8b636ee30190600090565b3d1562001cdd573d9062001cc18262001c08565b9162001cd1604051938462001896565b82523d6000602084013e565b606090565b1562001cea57565b60405162461bcd60e51b815260206004820152602660248201527f4f6e6c7920746865206f776e65722063616e2063616c6c20746869732066756e60448201526531ba34b7b71760d11b6064820152608490fd5b1562001d4657565b60405162461bcd60e51b815260206004820152601f60248201527f5a65726f2061646472657373657320617265206e6f7420616c6c6f7765642e006044820152606490fd5b9081602091031262000e7857516001600160a01b038116810362000e785790565b919082604091031262000e78576020825192015190565b9081602091031262000e78575160ff8116810362000e785790565b60ff16604d811162001df057600a0a90565b634e487b7160e01b600052601160045260246000fd5b8181029291811591840414171562001df057565b81811062001e26575050565b6000815560010162001e1a565b919060018060a01b039283825116936bffffffffffffffffffffffff60a01b948583541617825560019081830195602096828887015116828254161790556002840191604086015116908254161790556003908183019060608501519081519267ffffffffffffffff938481116200074e5762001eb182546200181e565b93601f948b868211620026ce575b50508a90858311600114620026645762001ef3929160009183620021d0575b50508160011b916000199060031b1c19161790565b90555b60049788860160808801518051908682116200264f5762001f1883546200181e565b86811162002612575b508390868311600114620025ac5762001f53929160009183620021d05750508160011b916000199060031b1c19161790565b90555b60059460a0880151868801556006870160c08901518051908782116200233f5762001f8283546200181e565b8781116200257c575b508490878311600114620025165762001fbd929160009183620021d05750508160011b916000199060031b1c19161790565b90555b6007870160e08901518051908782116200233f5762001fe083546200181e565b878111620024e6575b50849087831160011462002480576200201b929160009183620021d05750508160011b916000199060031b1c19161790565b90555b600887016101008901518051908782116200233f576200203f83546200181e565b87811162002450575b508490878311600114620023ea576200207a929160009183620021d05750508160011b916000199060031b1c19161790565b90555b600987016101208901518051908782116200233f576200209e83546200181e565b878111620023ba575b5084908783116001146200235457620020d9929160009183620021d05750508160011b916000199060031b1c19161790565b90555b600a87016101408901518051908782116200233f57620020fd83546200181e565b87811162002304575b5084908783116001146200229e5762002138929160009183620021d05750508160011b916000199060031b1c19161790565b90555b600b8701956101608901519a8b519687116200228957506200215e87546200181e565b8581116200224c575b505081938511600114620021dc575050509080620021a192600c969798600092620021d05750508160011b916000199060031b1c19161790565b90555b019061018081015115159060ff61ff006101a08554930151151560081b1692169061ffff191617179055565b01519050388062001ede565b90919392601f198416998660005283600020936000905b8c82106200223457505084600c999a9b1062002219575b50505050811b019055620021a4565b01519060f884600019921b161c19169055388080806200220a565b808885978294968601518155019601930190620021f3565b620022779188600052846000209087808a01821c830193878b106200227f575b01901c019062001e1a565b388062002167565b935082936200226c565b604190634e487b7160e01b6000525260246000fd5b869291601f1983169185600052876000209260005b89828210620022ed5750508411620022d4575b505050811b0190556200213b565b015160001983871b60f8161c19169055388080620022c6565b8385015186558b97909501949384019301620022b3565b6200232e908460005286600020898086018d1c82019289871062002335575b018c1c019062001e1a565b3862002106565b9250819262002323565b60418d634e487b7160e01b6000525260246000fd5b869291601f1983169185600052876000209260005b89828210620023a357505084116200238a575b505050811b019055620020dc565b015160001983871b60f8161c191690553880806200237c565b8385015186558b9790950194938401930162002369565b620023e3908460005286600020898086018d1c8201928987106200233557018c1c019062001e1a565b38620020a7565b869291601f1983169185600052876000209260005b8982821062002439575050841162002420575b505050811b0190556200207d565b015160001983871b60f8161c1916905538808062002412565b8385015186558b97909501949384019301620023ff565b62002479908460005286600020898086018d1c8201928987106200233557018c1c019062001e1a565b3862002048565b869291601f1983169185600052876000209260005b89828210620024cf5750508411620024b6575b505050811b0190556200201e565b015160001983871b60f8161c19169055388080620024a8565b8385015186558b9790950194938401930162002495565b6200250f908460005286600020898086018d1c8201928987106200233557018c1c019062001e1a565b3862001fe9565b869291601f1983169185600052876000209260005b898282106200256557505084116200254c575b505050811b01905562001fc0565b015160001983871b60f8161c191690553880806200253e565b8385015186558b979095019493840193016200252b565b620025a5908460005286600020898086018d1c8201928987106200233557018c1c019062001e1a565b3862001f8b565b859291601f1983169185600052866000209260005b88828210620025fb5750508411620025e2575b505050811b01905562001f56565b0151600019838b1b60f8161c19169055388080620025d4565b8385015186558a97909501949384019301620025c1565b6200263e9084600052856000208880860160051c82019288871062002645575b0160051c019062001e1a565b3862001f21565b9250819262002632565b60418c634e487b7160e01b6000525260246000fd5b8492918c91601f1984168660005283600020936000905b828210620026b457505084116200269b575b505050811b01905562001ef6565b0151600019838a1b60f8161c191690553880806200268d565b84840151865589979095019493840193908101906200267b565b620026f9918560005287826000209181870160051c830193871062002645570160051c019062001e1a565b388b62001ebf565b908154600160401b8110156200074e576001810180845581101562000738576200190192600052600d602060002091020162001e33565b6002600054146200274a576002600055565b604051633ee5aeb560e01b8152600490fd5b9081602091031262000e785751801515810362000e785790565b620027e0926020929091906001600160a01b039062002799828416151562001d3e565b1690620027a882151562001d3e565b60405163095ea7b360e01b81526001600160a01b03909116600482015260248101929092529092839190829060009082906044820190565b03925af180156200281b57620027f7575b50600190565b620028139060203d602011620014a0576200148f818362001896565b5038620027f1565b6040513d6000823e3d90fd5b6001600160a01b039081166200283f81151562001d3e565b6008549160005b838110620028575750505050600090565b8282620028648362001c72565b50541614620028765760010162002846565b50505050600190565b6200288b81546200181e565b908162002896575050565b81601f60009311600114620028a9575055565b908083918252620028ca601f60208420940160051c84016001850162001e1a565b5555565b815181546001600160a01b0319166001600160a01b039190911617815560209182015180516001939092840191600160401b84116200074e57825484845580851062002955575b506020019160005260206000206000925b8484106200293657505050505050565b600d8382620029488994518662001e33565b0192019301929062002926565b600d9080600d0290600d82040362001df05785600d02600d8104870362001df0576000908682526020822092830192015b828110620029975750505062002915565b8082859255828a820155826002820155620029b5600382016200287f565b620029c3600482016200287f565b826005820155620029d7600682016200287f565b620029e5600782016200287f565b620029f3600882016200287f565b62002a01600982016200287f565b62002a0f600a82016200287f565b62002a1d600b82016200287f565b82600c820155016200298656fe604060808152346200042957620010ab803803806200001e816200042e565b928339810190608081830312620004295780516001600160401b039190828111620004295783620000519183016200046a565b90602093848201519084821162000429576200006f9183016200046a565b606086830151920151906000943360018060a01b031987541617865533867f8be0079c531659141344cd1fd0a4f28419497f9722a3daafe3b4186f6b6457e08180a384518181116200034357600254906001968783811c931680156200041e575b8a84101462000324578190601f93848111620003ca575b508a9084831160011462000363578a9262000357575b5050600019600383901b1c191690871b176002555b8251918211620003435760039283548781811c9116801562000338575b8a821014620003245790818385949311620002cf575b50899183116001146200026c57889262000260575b505060001982841b1c191690851b1790555b670de0b6b3a7640000918281029281840414901517156200024c5781835560058111620001fe57907fddf252ad1be2c89b69c2b068fc378daa952ba7f163c4a11628f55a4df523b3ef929160045533845260058552858420556007845284832060ff199082828254161790553084528186852091825416179055549284519384523393a351610bce9081620004dd8239f35b855162461bcd60e51b815260048101869052602160248201527f4d6178205472616e73616374696f6e2063616e6e6f74206578636565642035256044820152601760f91b6064820152608490fd5b634e487b7160e01b84526011600452602484fd5b0151905038806200015a565b8489528989208894509190601f1984168a5b8c828210620002b857505084116200029f575b505050811b0190556200016c565b015160001983861b60f8161c1916905538808062000291565b8385015186558b979095019493840193016200027e565b909192508489528989208380860160051c8201928c87106200031a575b9186958b929594930160051c01915b8281106200030b57505062000145565b8b81558695508a9101620002fb565b92508192620002ec565b634e487b7160e01b89526022600452602489fd5b90607f16906200012f565b634e487b7160e01b87526041600452602487fd5b015190503880620000fd565b60028b528b8b208a94509190601f1984168c8e5b828210620003b2575050841162000398575b505050811b0160025562000112565b015160001960f88460031b161c1916905538808062000389565b8385015186558d979095019493840193018e62000377565b90915060028a528a8a208480850160051c8201928d861062000414575b918b91869594930160051c01915b82811062000405575050620000e7565b8c81558594508b9101620003f5565b92508192620003e7565b92607f1692620000d0565b600080fd5b6040519190601f01601f191682016001600160401b038111838210176200045457604052565b634e487b7160e01b600052604160045260246000fd5b919080601f84011215620004295782516001600160401b0381116200045457602090620004a0601f8201601f191683016200042e565b92818452828287010111620004295760005b818110620004c857508260009394955001015290565b8581018301518482018401528201620004b256fe608060408181526004918236101561001657600080fd5b600092833560e01c91826306fdde03146105b557508163095ea7b31461058b57816318160ddd1461056c57816323b872dd14610497578163313ce5671461047b57816370a0823114610443578163715018a6146103e45781637437681e146103c65781638da5cb5b1461039e57816395d89b4114610299578163a9059cbb14610268578163c2d0ffca146101b9578163db4cf1e01461010a575063dd62ed3e146100bf57600080fd5b34610106578060031936011261010657806020926100db6106bd565b6100e36106d8565b6001600160a01b0391821683526006865283832091168252845220549051908152f35b5080fd5b9050346101b55760203660031901126101b5576101256106bd565b83546001600160a01b03919061013e9083163314610726565b1690811561015e5750825260076020528120805460ff1916600117905580f35b608490602084519162461bcd60e51b8352820152602b60248201527f45524332303a204578636c756465204d61782054782066726f6d20746865207a60448201526a65726f206164647265737360a81b6064820152fd5b8280fd5b919050346101b55760203660031901126101b5578135916101e460018060a01b038554163314610726565b6005831161021c5791602091817fff3dd5e80294197918c284bbfc3dadd97d0b40ce92106110946329088f80068a945551908152a180f35b6020608492519162461bcd60e51b8352820152602160248201527f4d6178205472616e73616374696f6e2063616e6e6f74206578636565642035256044820152601760f91b6064820152fd5b5050346101065780600319360112610106576020906102926102886106bd565b6024359033610873565b5160018152f35b919050346101b557826003193601126101b55780519183600354906001908260011c92600181168015610394575b6020958686108214610381575084885290811561035f5750600114610306575b61030286866102f8828b03836106ee565b5191829182610674565b0390f35b929550600383527fc2575a0e9e593c00f959f8c92f12db2869c3395a3b0502d05e2516446f71f85b5b82841061034c5750505082610302946102f89282010194386102e7565b805486850188015292860192810161032f565b60ff191687860152505050151560051b83010192506102f882610302386102e7565b634e487b7160e01b845260229052602483fd5b93607f16936102c7565b505034610106578160031936011261010657905490516001600160a01b039091168152602090f35b9050346101b557826003193601126101b55760209250549051908152f35b83346104405780600319360112610440578054816001600160a01b03821661040d338214610726565b7f8be0079c531659141344cd1fd0a4f28419497f9722a3daafe3b4186f6b6457e08280a36001600160a01b031916815580f35b80fd5b5050346101065760203660031901126101065760209181906001600160a01b0361046b6106bd565b1681526005845220549051908152f35b5050346101065781600319360112610106576020905160128152f35b828434610440576060366003190112610440576104b26106bd565b906104bb6106d8565b6104c9604435809285610873565b6001600160a01b038316825260066020908152848320338452905283822054845192606084019067ffffffffffffffff8211858310176105595760208761029288610551898989898752602883527f45524332303a207472616e7366657220616d6f756e742065786365656473206188840152676c6c6f77616e636560c01b87840152610b4d565b903390610771565b634e487b7160e01b815260418852602490fd5b5050346101065781600319360112610106576020906001549051908152f35b5050346101065780600319360112610106576020906102926105ab6106bd565b6024359033610771565b92915034610670578360031936011261067057600254600181811c9186908281168015610666575b6020958686108214610381575084885290811561035f575060011461060d5761030286866102f8828b03836106ee565b929550600283527f405787fa12a823e0f2b7631cc41b3ba8828b3321ca811111fa75cd3aa3bb5ace5b8284106106535750505082610302946102f89282010194386102e7565b8054868501880152928601928101610636565b93607f16936105dd565b8380fd5b6020808252825181830181905290939260005b8281106106a957505060409293506000838284010152601f8019910116010190565b818101860151848201604001528501610687565b600435906001600160a01b03821682036106d357565b600080fd5b602435906001600160a01b03821682036106d357565b90601f8019910116810190811067ffffffffffffffff82111761071057604052565b634e487b7160e01b600052604160045260246000fd5b1561072d57565b606460405162461bcd60e51b815260206004820152602060248201527f4f776e61626c653a2063616c6c6572206973206e6f7420746865206f776e65726044820152fd5b6001600160a01b0390811691821561082257169182156107d25760207f8c5be1e5ebec7d5bd14f71427d1e84f3dd0314c0f7b2291e5b200ac8c7c3b925918360005260068252604060002085600052825280604060002055604051908152a3565b60405162461bcd60e51b815260206004820152602260248201527f45524332303a20617070726f766520746f20746865207a65726f206164647265604482015261737360f01b6064820152608490fd5b60405162461bcd60e51b8152602060048201526024808201527f45524332303a20617070726f76652066726f6d20746865207a65726f206164646044820152637265737360e01b6064820152608490fd5b9192916001600160a01b03908116918215610afa5716908115610aa9578315610a5257600480549460015495868102968188041490151715610a3d576000958387526020926007845260409160ff838a205416156109ec575b50848852600584528188205482519083820182811067ffffffffffffffff8211176109d957610928929186918652601e83527f536166654d6174683a207375627472616374696f6e206f766572666c6f77000088840152610b4d565b85895260058552828920558588528188205490838201918281116109c657821061098357508188877fddf252ad1be2c89b69c2b068fc378daa952ba7f163c4a11628f55a4df523b3ef9798999a5260058652205551908152a3565b825162461bcd60e51b8152908101859052601b60248201527f536166654d6174683a206164646974696f6e206f766572666c6f7700000000006044820152606490fd5b634e487b7160e01b8a526011825260248afd5b634e487b7160e01b8b526041845260248bfd5b6064900483116109fc57386108cc565b83606492519162461bcd60e51b8352820152601860248201527f4578636565647320746865204d61785478416d6f756e742e00000000000000006044820152fd5b601182634e487b7160e01b6000525260246000fd5b60405162461bcd60e51b815260206004820152602960248201527f5472616e7366657220616d6f756e74206d7573742062652067726561746572206044820152687468616e207a65726f60b81b6064820152608490fd5b60405162461bcd60e51b815260206004820152602360248201527f45524332303a207472616e7366657220746f20746865207a65726f206164647260448201526265737360e81b6064820152608490fd5b60405162461bcd60e51b815260206004820152602560248201527f45524332303a207472616e736665722066726f6d20746865207a65726f206164604482015264647265737360d81b6064820152608490fd5b91828211610b7857508103908111610b625790565b634e487b7160e01b600052601160045260246000fd5b60405162461bcd60e51b8152908190610b949060048301610674565b0390fdfea2646970667358221220c49e554740cb71aa09a85b3746b1a934acbfb9371a9f5eefd27a7b626ea785f264736f6c63430008180033a26469706673582212201d8047352491d695e33c2cfd88f3dad60f1d631c7695ebbad22742122015ab0d64736f6c63430008180033",
          "opcodes": "PUSH1 0x80 CALLVALUE PUSH3 0x146 JUMPI PUSH1 0x1F PUSH3 0x3CCF CODESIZE DUP2 SWAP1 SUB SWAP2 DUP3 ADD PUSH1 0x1F NOT AND DUP4 ADD SWAP2 PUSH1 0x1 PUSH1 0x1 PUSH1 0x40 SHL SUB DUP4 GT DUP5 DUP5 LT OR PUSH3 0x14B JUMPI DUP1 DUP5 SWAP3 PUSH1 0x80 SWAP5 PUSH1 0x40 MSTORE DUP4 CODECOPY DUP2 ADD SUB SLT PUSH3 0x146 JUMPI PUSH3 0x4D DUP2 PUSH3 0x161 JUMP JUMPDEST PUSH3 0x5B PUSH1 0x20 DUP4 ADD PUSH3 0x161 JUMP JUMPDEST PUSH1 0x60 PUSH3 0x6B PUSH1 0x40 DUP6 ADD PUSH3 0x161 JUMP JUMPDEST SWAP4 ADD MLOAD PUSH1 0x1 PUSH1 0x0 DUP2 SWAP1 SSTORE DUP1 SLOAD PUSH1 0x1 PUSH1 0x1 PUSH1 0xA0 SHL SUB NOT SWAP1 DUP2 AND CALLER OR SWAP1 SWAP2 SSTORE SWAP1 SWAP4 SWAP1 SWAP3 PUSH1 0x1 PUSH1 0x1 PUSH1 0xA0 SHL SUB SWAP1 DUP2 AND SWAP3 DUP2 SWAP1 PUSH3 0xA7 DUP6 ISZERO ISZERO PUSH3 0x176 JUMP JUMPDEST AND SWAP2 PUSH3 0xB6 DUP4 ISZERO ISZERO PUSH3 0x176 JUMP JUMPDEST AND SWAP2 PUSH3 0xC5 DUP4 ISZERO ISZERO PUSH3 0x176 JUMP JUMPDEST DUP4 PUSH1 0x2 SLOAD AND OR PUSH1 0x2 SSTORE DUP3 PUSH1 0x3 SLOAD AND OR PUSH1 0x3 SSTORE DUP2 PUSH1 0x4 SLOAD AND OR PUSH1 0x4 SSTORE PUSH8 0xDE0B6B3A7640000 SWAP2 DUP3 DUP2 MUL SWAP3 DUP2 DUP5 DIV EQ SWAP1 ISZERO OR ISZERO PUSH3 0x130 JUMPI PUSH2 0x3E8 PUSH20 0x4752BA5DBC23F44D87826276BF6FD6B1C372AD24 SWAP3 DIV PUSH1 0x5 SSTORE PUSH1 0x6 SLOAD AND OR PUSH1 0x6 SSTORE PUSH1 0x40 MLOAD PUSH2 0x3B0B SWAP1 DUP2 PUSH3 0x1C4 DUP3 CODECOPY RETURN JUMPDEST PUSH4 0x4E487B71 PUSH1 0xE0 SHL PUSH1 0x0 MSTORE PUSH1 0x11 PUSH1 0x4 MSTORE PUSH1 0x24 PUSH1 0x0 REVERT JUMPDEST PUSH1 0x0 DUP1 REVERT JUMPDEST PUSH4 0x4E487B71 PUSH1 0xE0 SHL PUSH1 0x0 MSTORE PUSH1 0x41 PUSH1 0x4 MSTORE PUSH1 0x24 PUSH1 0x0 REVERT JUMPDEST MLOAD SWAP1 PUSH1 0x1 PUSH1 0x1 PUSH1 0xA0 SHL SUB DUP3 AND DUP3 SUB PUSH3 0x146 JUMPI JUMP JUMPDEST ISZERO PUSH3 0x17E JUMPI JUMP JUMPDEST PUSH1 0x40 MLOAD PUSH3 0x461BCD PUSH1 0xE5 SHL DUP2 MSTORE PUSH1 0x20 PUSH1 0x4 DUP3 ADD MSTORE PUSH1 0x1F PUSH1 0x24 DUP3 ADD MSTORE PUSH32 0x5A65726F2061646472657373657320617265206E6F7420616C6C6F7765642E00 PUSH1 0x44 DUP3 ADD MSTORE PUSH1 0x64 SWAP1 REVERT INVALID PUSH1 0x80 DUP1 PUSH1 0x40 MSTORE PUSH1 0x4 CALLDATASIZE LT ISZERO PUSH3 0x1F JUMPI JUMPDEST POP CALLDATASIZE ISZERO PUSH3 0x1D JUMPI PUSH1 0x0 DUP1 REVERT JUMPDEST STOP JUMPDEST PUSH1 0x0 SWAP1 PUSH1 0xE0 DUP3 CALLDATALOAD PUSH1 0xE0 SHR SWAP2 DUP3 PUSH4 0x17E7E58 EQ PUSH3 0x17E0 JUMPI POP DUP2 PUSH4 0x94B7415 EQ PUSH3 0x17B5 JUMPI DUP2 PUSH4 0x3CCFD60B EQ PUSH3 0x1734 JUMPI DUP2 PUSH4 0x4C96A389 EQ PUSH3 0x10FE JUMPI DUP2 PUSH4 0x4F64B2BE EQ PUSH3 0xE7D JUMPI DUP2 PUSH4 0x5C52A5F2 EQ PUSH3 0xE1A JUMPI DUP2 PUSH4 0x6D46A1DB EQ PUSH3 0xD31 JUMPI DUP2 PUSH4 0x7660F44A EQ PUSH3 0xD0C JUMPI DUP2 PUSH4 0x80997E47 EQ PUSH3 0xCE5 JUMPI DUP2 PUSH4 0x8A664EBC EQ PUSH3 0xAEE JUMPI DUP2 PUSH4 0x98118CB4 EQ PUSH3 0xAD0 JUMPI DUP2 PUSH4 0x9DD9D0FD EQ PUSH3 0xA90 JUMPI DUP2 PUSH4 0xAA6CA808 EQ PUSH3 0x8F9 JUMPI POP DUP1 PUSH4 0xAD256F7D EQ PUSH3 0x1C0 JUMPI DUP1 PUSH4 0xC36FE3D6 EQ PUSH3 0x17C JUMPI DUP1 PUSH4 0xCF3CF573 EQ PUSH3 0x15C JUMPI PUSH4 0xF46901ED SUB PUSH3 0x10 JUMPI CALLVALUE PUSH3 0x159 JUMPI PUSH1 0x20 CALLDATASIZE PUSH1 0x3 NOT ADD SLT PUSH3 0x159 JUMPI PUSH3 0x114 PUSH3 0x1807 JUMP JUMPDEST PUSH1 0x1 SLOAD PUSH1 0x1 PUSH1 0x1 PUSH1 0xA0 SHL SUB SWAP2 SWAP1 PUSH3 0x130 SWAP1 DUP4 AND CALLER EQ PUSH3 0x1CE2 JUMP JUMPDEST AND PUSH3 0x13E DUP2 ISZERO ISZERO PUSH3 0x1D3E JUMP JUMPDEST PUSH12 0xFFFFFFFFFFFFFFFFFFFFFFFF PUSH1 0xA0 SHL PUSH1 0x4 SLOAD AND OR PUSH1 0x4 SSTORE DUP1 RETURN JUMPDEST DUP1 REVERT JUMPDEST POP CALLVALUE PUSH3 0x159 JUMPI DUP1 PUSH1 0x3 NOT CALLDATASIZE ADD SLT PUSH3 0x159 JUMPI PUSH1 0x20 PUSH1 0x5 SLOAD PUSH1 0x40 MLOAD SWAP1 DUP2 MSTORE RETURN JUMPDEST POP CALLVALUE PUSH3 0x159 JUMPI PUSH1 0x20 CALLDATASIZE PUSH1 0x3 NOT ADD SLT PUSH3 0x159 JUMPI PUSH1 0x4 CALLDATALOAD SWAP1 PUSH1 0x8 SLOAD DUP3 LT ISZERO PUSH3 0x159 JUMPI PUSH1 0x20 PUSH3 0x1AC DUP4 PUSH3 0x1C72 JUMP JUMPDEST POP SLOAD PUSH1 0x40 MLOAD PUSH1 0x1 PUSH1 0x1 PUSH1 0xA0 SHL SUB SWAP1 SWAP2 AND DUP2 MSTORE RETURN JUMPDEST POP PUSH1 0xE0 CALLDATASIZE PUSH1 0x3 NOT ADD SLT PUSH3 0x159 JUMPI PUSH8 0xFFFFFFFFFFFFFFFF SWAP1 PUSH1 0x4 CALLDATALOAD DUP3 DUP2 GT PUSH3 0x678 JUMPI PUSH3 0x1F3 SWAP1 CALLDATASIZE SWAP1 PUSH1 0x4 ADD PUSH3 0x1C25 JUMP JUMPDEST PUSH1 0x24 CALLDATALOAD DUP4 DUP2 GT PUSH3 0x8F5 JUMPI PUSH3 0x20E SWAP1 CALLDATASIZE SWAP1 PUSH1 0x4 ADD PUSH3 0x1C25 JUMP JUMPDEST SWAP1 PUSH1 0x44 CALLDATALOAD DUP5 DUP2 GT PUSH3 0x8F1 JUMPI PUSH3 0x22A SWAP1 CALLDATASIZE SWAP1 PUSH1 0x4 ADD PUSH3 0x1C25 JUMP JUMPDEST SWAP1 PUSH1 0x64 CALLDATALOAD DUP6 DUP2 GT PUSH3 0x7F7 JUMPI PUSH3 0x246 SWAP1 CALLDATASIZE SWAP1 PUSH1 0x4 ADD PUSH3 0x1C25 JUMP JUMPDEST SWAP5 PUSH1 0x84 CALLDATALOAD SWAP1 DUP1 DUP3 GT PUSH3 0x8ED JUMPI CALLDATASIZE PUSH1 0x23 DUP4 ADD SLT ISZERO PUSH3 0x8ED JUMPI PUSH1 0x40 MLOAD SWAP2 PUSH1 0x80 DUP4 ADD DUP4 DUP2 LT DUP4 DUP3 GT OR PUSH3 0x74E JUMPI PUSH1 0x40 MSTORE PUSH1 0x84 DUP2 ADD DUP4 CALLDATASIZE DUP3 GT PUSH3 0x8E9 JUMPI DUP3 PUSH1 0x4 ADD SWAP1 JUMPDEST DUP3 DUP3 LT PUSH3 0x8B9 JUMPI POP POP POP POP PUSH3 0x29F PUSH3 0x2738 JUMP JUMPDEST PUSH1 0x5 SLOAD CALLVALUE LT PUSH3 0x874 JUMPI PUSH1 0x40 MLOAD SWAP1 PUSH2 0x10AB DUP1 DUP4 ADD SWAP2 DUP3 GT DUP4 DUP4 LT OR PUSH3 0x860 JUMPI SWAP1 DUP3 SWAP2 PUSH3 0x2A2B DUP4 CODECOPY PUSH1 0x80 DUP2 MSTORE PUSH3 0x2EE PUSH3 0x2DF PUSH1 0x80 DUP4 ADD DUP8 PUSH3 0x196A JUMP JUMPDEST DUP3 DUP2 SUB PUSH1 0x20 DUP5 ADD MSTORE DUP9 PUSH3 0x196A JUMP JUMPDEST SWAP1 PUSH1 0xA4 CALLDATALOAD PUSH1 0x40 DUP3 ADD MSTORE PUSH1 0x60 PUSH1 0xC4 CALLDATALOAD SWAP2 ADD MSTORE SUB SWAP1 DUP7 CREATE SWAP4 DUP5 ISZERO PUSH3 0x833 JUMPI PUSH1 0x3 SLOAD PUSH1 0x40 MLOAD PUSH4 0x15AB88C9 PUSH1 0xE3 SHL DUP2 MSTORE SWAP1 PUSH1 0x20 SWAP1 DUP3 SWAP1 PUSH1 0x4 SWAP1 DUP3 SWAP1 PUSH1 0x1 PUSH1 0x1 PUSH1 0xA0 SHL SUB AND GAS STATICCALL SWAP1 DUP2 ISZERO PUSH3 0x797 JUMPI PUSH3 0x38A DUP9 SWAP7 SWAP6 SWAP5 SWAP4 SWAP3 PUSH1 0x20 SWAP3 DUP9 SWAP2 PUSH3 0x83E JUMPI JUMPDEST POP PUSH1 0x2 SLOAD PUSH1 0x40 MLOAD PUSH4 0x64E329CB PUSH1 0xE1 SHL DUP2 MSTORE PUSH1 0x1 PUSH1 0x1 PUSH1 0xA0 SHL SUB DUP12 DUP2 AND PUSH1 0x4 DUP4 ADD MSTORE SWAP3 DUP4 AND PUSH1 0x24 DUP3 ADD MSTORE SWAP11 DUP12 SWAP4 SWAP2 SWAP1 SWAP3 AND SWAP2 DUP4 SWAP2 DUP3 SWAP1 PUSH1 0x44 DUP3 ADD SWAP1 JUMP JUMPDEST SUB SWAP3 GAS CALL SWAP7 DUP8 ISZERO PUSH3 0x833 JUMPI DUP6 SWAP8 PUSH3 0x7FB JUMPI JUMPDEST POP PUSH1 0x3 SLOAD PUSH1 0x40 MLOAD PUSH4 0x313CE567 PUSH1 0xE0 SHL DUP2 MSTORE PUSH1 0x1 PUSH1 0x1 PUSH1 0xA0 SHL SUB SWAP2 DUP3 AND SWAP2 PUSH1 0x20 SWAP1 DUP3 SWAP1 PUSH1 0x4 SWAP1 DUP3 SWAP1 DUP13 AND GAS STATICCALL SWAP1 DUP2 ISZERO PUSH3 0x797 JUMPI PUSH3 0x3EF PUSH3 0x40A SWAP4 SWAP3 PUSH3 0x3F8 SWAP3 DUP11 SWAP2 PUSH3 0x7A2 JUMPI JUMPDEST POP PUSH3 0x1DDE JUMP JUMPDEST PUSH1 0xA4 CALLDATALOAD PUSH3 0x1E06 JUMP JUMPDEST SWAP1 PUSH1 0x1 PUSH1 0x1 PUSH1 0xA0 SHL SUB DUP10 AND SWAP1 PUSH3 0x2776 JUMP JUMPDEST ISZERO PUSH3 0x7F7 JUMPI CALLVALUE PUSH1 0x5 MUL SWAP4 PUSH1 0x5 DUP6 DIV CALLVALUE SUB PUSH3 0x7E3 JUMPI CALLVALUE PUSH1 0x64 DUP7 DIV CALLVALUE SUB GT PUSH3 0x7E3 JUMPI PUSH1 0x3 SLOAD PUSH1 0x40 MLOAD PUSH4 0x313CE567 PUSH1 0xE0 SHL DUP2 MSTORE PUSH1 0x1 PUSH1 0x1 PUSH1 0xA0 SHL SUB SWAP2 DUP3 AND SWAP11 SWAP2 PUSH1 0x20 SWAP1 DUP3 SWAP1 PUSH1 0x4 SWAP1 DUP3 SWAP1 DUP14 AND GAS STATICCALL SWAP1 DUP2 ISZERO PUSH3 0x7D8 JUMPI SWAP11 PUSH3 0x47F PUSH3 0x3EF PUSH1 0x40 SWAP4 PUSH3 0x4B1 SWAP15 DUP13 SWAP2 PUSH3 0x7A2 JUMPI POP PUSH3 0x1DDE JUMP JUMPDEST DUP3 MLOAD PUSH4 0xE505AA9 PUSH1 0xE3 SHL DUP2 MSTORE PUSH1 0x1 PUSH1 0x1 PUSH1 0xA0 SHL SUB DUP13 AND PUSH1 0x4 DUP3 ADD MSTORE PUSH1 0x24 DUP2 ADD SWAP2 SWAP1 SWAP2 MSTORE SWAP12 DUP13 SWAP2 SWAP1 DUP3 SWAP1 DUP2 SWAP1 PUSH1 0x44 DUP3 ADD SWAP1 JUMP JUMPDEST SUB SWAP2 PUSH1 0x64 DUP12 DIV SWAP1 GAS CALL SWAP10 DUP11 ISZERO PUSH3 0x797 JUMPI PUSH1 0x40 SWAP8 SWAP9 SWAP10 SWAP11 PUSH3 0x764 JUMPI JUMPDEST POP DUP4 MLOAD SWAP2 PUSH1 0x20 DUP6 ADD MLOAD SWAP4 PUSH1 0x60 DUP10 DUP8 ADD MLOAD SWAP7 ADD MLOAD SWAP7 DUP10 MLOAD DUP1 SWAP14 PUSH3 0x4F1 DUP3 PUSH3 0x1878 JUMP JUMPDEST CALLER DUP3 MSTORE DUP14 PUSH1 0x1 DUP1 PUSH1 0xA0 SHL SUB AND PUSH1 0x20 DUP4 ADD MSTORE PUSH1 0x1 DUP1 PUSH1 0xA0 SHL SUB AND SWAP11 DUP12 SWAP2 ADD MSTORE PUSH1 0x60 DUP14 ADD MSTORE PUSH1 0x80 DUP13 ADD MSTORE PUSH1 0xA4 CALLDATALOAD PUSH1 0xA0 DUP13 ADD MSTORE PUSH1 0xC0 DUP12 ADD MSTORE PUSH1 0xE0 DUP11 ADD MSTORE PUSH2 0x100 DUP10 ADD MSTORE PUSH2 0x120 DUP9 ADD MSTORE PUSH2 0x140 DUP8 ADD MSTORE PUSH2 0x160 DUP7 ADD MSTORE PUSH1 0x1 SWAP5 DUP6 PUSH2 0x180 DUP3 ADD MSTORE DUP4 PUSH2 0x1A0 DUP3 ADD MSTORE PUSH1 0x1 DUP1 PUSH1 0xA0 SHL SUB DUP6 AND DUP5 MSTORE PUSH1 0x9 PUSH1 0x20 MSTORE PUSH3 0x573 DUP2 PUSH1 0x40 DUP7 KECCAK256 PUSH3 0x1E33 JUMP JUMPDEST PUSH1 0xA SLOAD SWAP1 PUSH1 0x1 PUSH1 0x40 SHL DUP1 DUP4 LT ISZERO PUSH3 0x74E JUMPI DUP8 DUP4 ADD DUP1 PUSH1 0xA SSTORE DUP4 LT ISZERO PUSH3 0x738 JUMPI PUSH3 0x5CB DUP3 PUSH1 0xD DUP9 SWAP6 PUSH1 0xA PUSH1 0x0 MSTORE MUL PUSH32 0xC65A7BB8D6351C1CF70C95A316CC6A92839C986682D98BC35F958F4883F9D2A8 ADD PUSH3 0x1E33 JUMP JUMPDEST PUSH3 0x5D6 CALLER PUSH3 0x2827 JUMP JUMPDEST ISZERO PUSH3 0x67C JUMPI POP DUP2 PUSH1 0x64 DUP2 SWAP5 PUSH3 0x5FC DUP4 SWAP5 CALLER DUP6 MSTORE PUSH1 0x7 PUSH1 0x20 MSTORE DUP12 PUSH1 0x40 DUP7 KECCAK256 ADD PUSH3 0x2701 JUMP JUMPDEST PUSH1 0x4 SLOAD SWAP2 SWAP1 DIV CALLVALUE SUB SWAP1 PUSH1 0x1 PUSH1 0x1 PUSH1 0xA0 SHL SUB AND GAS CALL PUSH3 0x61A PUSH3 0x1CAD JUMP JUMPDEST POP ISZERO PUSH3 0x678 JUMPI PUSH1 0x60 SWAP4 PUSH1 0xA SLOAD SWAP3 DUP3 PUSH1 0x40 MLOAD DUP6 DUP2 MSTORE PUSH32 0x714AA39317AD9A7A7A99DB52B44490DA5D068A0B2710FFFB1A1282AD3CADAE1F PUSH1 0x20 PUSH1 0x1 DUP1 PUSH1 0xA0 SHL SUB DUP10 AND SWAP3 LOG3 SSTORE PUSH1 0x40 MLOAD SWAP3 PUSH1 0x1 DUP1 PUSH1 0xA0 SHL SUB AND DUP4 MSTORE PUSH1 0x20 DUP4 ADD MSTORE PUSH1 0x40 DUP3 ADD MSTORE RETURN JUMPDEST POP DUP1 REVERT JUMPDEST SWAP1 SWAP2 POP PUSH3 0x68C CALLER ISZERO ISZERO PUSH3 0x1D3E JUMP JUMPDEST PUSH1 0x40 MLOAD SWAP1 PUSH3 0x69B DUP3 PUSH3 0x185B JUMP JUMPDEST CALLER DUP3 MSTORE PUSH1 0x60 PUSH1 0x20 DUP4 ADD MSTORE CALLER DUP7 MSTORE PUSH1 0x7 PUSH1 0x20 MSTORE PUSH3 0x6BC DUP3 PUSH1 0x40 DUP9 KECCAK256 PUSH3 0x28CE JUMP JUMPDEST PUSH1 0x8 SLOAD SWAP1 DUP2 LT ISZERO PUSH3 0x724 JUMPI DUP1 DUP9 PUSH3 0x6D9 SWAP3 ADD PUSH1 0x8 SSTORE PUSH3 0x1C72 JUMP JUMPDEST PUSH3 0x710 JUMPI PUSH1 0x64 DUP7 SWAP5 PUSH3 0x70A DUP7 SWAP6 PUSH3 0x6F6 DUP8 SWAP7 DUP8 SWAP7 PUSH3 0x28CE JUMP JUMPDEST CALLER DUP6 MSTORE PUSH1 0x7 PUSH1 0x20 MSTORE DUP12 PUSH1 0x40 DUP7 KECCAK256 ADD PUSH3 0x2701 JUMP JUMPDEST PUSH3 0x5FC JUMP JUMPDEST PUSH4 0x4E487B71 PUSH1 0xE0 SHL DUP7 MSTORE PUSH1 0x4 DUP7 SWAP1 MSTORE PUSH1 0x24 DUP7 REVERT JUMPDEST PUSH4 0x4E487B71 PUSH1 0xE0 SHL DUP7 MSTORE PUSH1 0x41 PUSH1 0x4 MSTORE PUSH1 0x24 DUP7 REVERT JUMPDEST PUSH4 0x4E487B71 PUSH1 0xE0 SHL PUSH1 0x0 MSTORE PUSH1 0x32 PUSH1 0x4 MSTORE PUSH1 0x24 PUSH1 0x0 REVERT JUMPDEST PUSH4 0x4E487B71 PUSH1 0xE0 SHL PUSH1 0x0 MSTORE PUSH1 0x41 PUSH1 0x4 MSTORE PUSH1 0x24 PUSH1 0x0 REVERT JUMPDEST PUSH3 0x788 SWAP1 DUP9 RETURNDATASIZE DUP11 GT PUSH3 0x78F JUMPI JUMPDEST PUSH3 0x77F DUP2 DUP4 PUSH3 0x1896 JUMP JUMPDEST DUP2 ADD SWAP1 PUSH3 0x1DAC JUMP JUMPDEST POP PUSH3 0x4CE JUMP JUMPDEST POP RETURNDATASIZE PUSH3 0x773 JUMP JUMPDEST PUSH1 0x40 MLOAD RETURNDATASIZE DUP10 DUP3 RETURNDATACOPY RETURNDATASIZE SWAP1 REVERT JUMPDEST PUSH3 0x7C9 SWAP2 POP PUSH1 0x20 RETURNDATASIZE PUSH1 0x20 GT PUSH3 0x7D0 JUMPI JUMPDEST PUSH3 0x7C0 DUP2 DUP4 PUSH3 0x1896 JUMP JUMPDEST DUP2 ADD SWAP1 PUSH3 0x1DC3 JUMP JUMPDEST CODESIZE PUSH3 0x3E8 JUMP JUMPDEST POP RETURNDATASIZE PUSH3 0x7B4 JUMP JUMPDEST PUSH1 0x40 MLOAD RETURNDATASIZE DUP11 DUP3 RETURNDATACOPY RETURNDATASIZE SWAP1 REVERT JUMPDEST PUSH4 0x4E487B71 PUSH1 0xE0 SHL DUP7 MSTORE PUSH1 0x11 PUSH1 0x4 MSTORE PUSH1 0x24 DUP7 REVERT JUMPDEST DUP5 DUP1 REVERT JUMPDEST PUSH3 0x823 SWAP2 SWAP8 POP PUSH1 0x20 RETURNDATASIZE PUSH1 0x20 GT PUSH3 0x82B JUMPI JUMPDEST PUSH3 0x81A DUP2 DUP4 PUSH3 0x1896 JUMP JUMPDEST DUP2 ADD SWAP1 PUSH3 0x1D8B JUMP JUMPDEST SWAP6 CODESIZE PUSH3 0x39E JUMP JUMPDEST POP RETURNDATASIZE PUSH3 0x80E JUMP JUMPDEST PUSH1 0x40 MLOAD RETURNDATASIZE DUP8 DUP3 RETURNDATACOPY RETURNDATASIZE SWAP1 REVERT JUMPDEST PUSH3 0x859 SWAP2 POP DUP4 RETURNDATASIZE DUP6 GT PUSH3 0x82B JUMPI PUSH3 0x81A DUP2 DUP4 PUSH3 0x1896 JUMP JUMPDEST CODESIZE PUSH3 0x34E JUMP JUMPDEST PUSH4 0x4E487B71 PUSH1 0xE0 SHL DUP9 MSTORE PUSH1 0x41 PUSH1 0x4 MSTORE PUSH1 0x24 DUP9 REVERT JUMPDEST PUSH1 0x40 MLOAD PUSH3 0x461BCD PUSH1 0xE5 SHL DUP2 MSTORE PUSH1 0x20 PUSH1 0x4 DUP3 ADD MSTORE PUSH1 0x19 PUSH1 0x24 DUP3 ADD MSTORE PUSH32 0x496E73756666696369656E7420616D6F756E742073656E742E00000000000000 PUSH1 0x44 DUP3 ADD MSTORE PUSH1 0x64 SWAP1 REVERT JUMPDEST DUP2 CALLDATALOAD DUP6 DUP2 GT PUSH3 0x8E5 JUMPI PUSH1 0x20 SWAP2 PUSH3 0x8D9 DUP4 SWAP3 PUSH1 0x4 CALLDATASIZE SWAP2 DUP10 ADD ADD PUSH3 0x1C25 JUMP JUMPDEST DUP2 MSTORE ADD SWAP2 ADD SWAP1 PUSH3 0x289 JUMP JUMPDEST DUP11 DUP1 REVERT JUMPDEST DUP9 DUP1 REVERT JUMPDEST DUP6 DUP1 REVERT JUMPDEST DUP4 DUP1 REVERT JUMPDEST DUP3 DUP1 REVERT JUMPDEST DUP3 CALLVALUE PUSH3 0x159 JUMPI DUP1 PUSH1 0x3 NOT CALLDATASIZE ADD SLT PUSH3 0x159 JUMPI POP PUSH1 0xA DUP1 SLOAD PUSH8 0xFFFFFFFFFFFFFFFF DUP2 GT PUSH3 0x74E JUMPI PUSH1 0x20 PUSH1 0x5 SWAP1 PUSH1 0x40 MLOAD SWAP4 PUSH3 0x93C PUSH1 0x20 DUP6 PUSH1 0x5 SHL ADD DUP7 PUSH3 0x1896 JUMP JUMPDEST DUP4 DUP6 MSTORE PUSH1 0x20 DUP6 ADD SWAP3 PUSH1 0xA PUSH1 0x0 MSTORE PUSH32 0xC65A7BB8D6351C1CF70C95A316CC6A92839C986682D98BC35F958F4883F9D2A8 SWAP2 PUSH1 0x0 SWAP5 JUMPDEST DUP7 DUP7 LT PUSH3 0x98B JUMPI PUSH1 0x40 MLOAD DUP1 PUSH3 0x987 DUP11 DUP3 PUSH3 0x1A90 JUMP JUMPDEST SUB SWAP1 RETURN JUMPDEST PUSH1 0xD DUP6 PUSH1 0x1 SWAP3 PUSH1 0x40 MLOAD PUSH3 0x99F DUP2 PUSH3 0x1878 JUMP JUMPDEST DUP5 DUP1 PUSH1 0xA0 SHL SUB DUP1 DUP10 SLOAD AND DUP3 MSTORE DUP1 DUP7 DUP11 ADD SLOAD AND DUP5 DUP4 ADD MSTORE PUSH1 0x2 DUP10 ADD SLOAD AND PUSH1 0x40 DUP3 ADD MSTORE PUSH3 0x9CE PUSH1 0x3 DUP10 ADD PUSH3 0x18B9 JUMP JUMPDEST PUSH1 0x60 DUP3 ADD MSTORE PUSH3 0x9E1 PUSH1 0x4 DUP10 ADD PUSH3 0x18B9 JUMP JUMPDEST PUSH1 0x80 DUP3 ADD MSTORE DUP7 DUP9 ADD SLOAD PUSH1 0xA0 DUP3 ADD MSTORE PUSH3 0x9FD PUSH1 0x6 DUP10 ADD PUSH3 0x18B9 JUMP JUMPDEST PUSH1 0xC0 DUP3 ADD MSTORE PUSH3 0xA10 PUSH1 0x7 DUP10 ADD PUSH3 0x18B9 JUMP JUMPDEST DUP14 DUP3 ADD MSTORE PUSH1 0x8 PUSH3 0xA23 DUP2 DUP11 ADD PUSH3 0x18B9 JUMP JUMPDEST PUSH2 0x100 DUP4 ADD MSTORE PUSH3 0xA37 PUSH1 0x9 DUP11 ADD PUSH3 0x18B9 JUMP JUMPDEST PUSH2 0x120 DUP4 ADD MSTORE PUSH3 0xA4A DUP8 DUP11 ADD PUSH3 0x18B9 JUMP JUMPDEST PUSH2 0x140 DUP4 ADD MSTORE PUSH3 0xA5E PUSH1 0xB DUP11 ADD PUSH3 0x18B9 JUMP JUMPDEST PUSH2 0x160 DUP4 ADD MSTORE PUSH1 0xC DUP10 ADD SLOAD PUSH1 0xFF SWAP2 DUP3 DUP3 AND ISZERO ISZERO PUSH2 0x180 DUP6 ADD MSTORE SHR AND ISZERO ISZERO PUSH2 0x1A0 DUP3 ADD MSTORE DUP2 MSTORE ADD SWAP5 ADD SWAP6 ADD SWAP5 SWAP3 PUSH3 0x96F JUMP JUMPDEST DUP3 CALLVALUE PUSH3 0x159 JUMPI PUSH1 0x20 CALLDATASIZE PUSH1 0x3 NOT ADD SLT PUSH3 0x159 JUMPI PUSH1 0x20 SWAP1 PUSH1 0x1 PUSH1 0x1 PUSH1 0xA0 SHL SUB SWAP1 PUSH1 0x40 SWAP1 DUP3 PUSH3 0xABE PUSH3 0x1807 JUMP JUMPDEST AND DUP2 MSTORE PUSH1 0x7 DUP5 MSTORE KECCAK256 SLOAD AND PUSH1 0x40 MLOAD SWAP1 DUP2 MSTORE RETURN JUMPDEST DUP3 CALLVALUE PUSH3 0x159 JUMPI DUP1 PUSH1 0x3 NOT CALLDATASIZE ADD SLT PUSH3 0x159 JUMPI PUSH1 0x20 PUSH1 0x40 MLOAD PUSH1 0x5 DUP2 MSTORE RETURN JUMPDEST SWAP1 POP CALLVALUE PUSH3 0x678 JUMPI DUP2 PUSH1 0x3 NOT CALLDATASIZE ADD SLT PUSH3 0x678 JUMPI PUSH3 0xB0D CALLER PUSH3 0x2827 JUMP JUMPDEST ISZERO PUSH3 0xCA0 JUMPI CALLER DUP3 MSTORE PUSH1 0x7 SWAP1 PUSH1 0x40 PUSH1 0x20 SWAP4 PUSH1 0x7 DUP6 MSTORE KECCAK256 PUSH1 0x40 MLOAD SWAP2 PUSH3 0xB32 DUP4 PUSH3 0x185B JUMP JUMPDEST DUP2 SLOAD PUSH1 0x1 PUSH1 0x1 PUSH1 0xA0 SHL SUB SWAP1 DUP2 AND DUP5 MSTORE PUSH1 0x1 SWAP3 DUP4 ADD DUP1 SLOAD SWAP3 SWAP2 PUSH8 0xFFFFFFFFFFFFFFFF DUP5 GT PUSH3 0x74E JUMPI PUSH1 0x40 MLOAD SWAP7 SWAP2 SWAP3 PUSH1 0x5 SWAP3 PUSH3 0xB73 DUP7 DUP6 SHL DUP12 ADD DUP11 PUSH3 0x1896 JUMP JUMPDEST DUP6 DUP10 MSTORE PUSH1 0x0 SWAP5 DUP6 MSTORE DUP10 DUP6 KECCAK256 SWAP4 DUP11 DUP11 ADD JUMPDEST DUP8 DUP8 LT PUSH3 0xBA1 JUMPI DUP10 DUP13 ADD DUP12 SWAP1 MSTORE PUSH1 0x40 MLOAD DUP1 PUSH3 0x987 DUP14 DUP3 PUSH3 0x1A90 JUMP JUMPDEST PUSH1 0xD DUP13 DUP11 SWAP3 PUSH1 0x40 MLOAD PUSH3 0xBB4 DUP2 PUSH3 0x1878 JUMP JUMPDEST DUP9 DUP11 SLOAD AND DUP2 MSTORE DUP9 DUP6 DUP12 ADD SLOAD AND DUP4 DUP3 ADD MSTORE DUP9 PUSH1 0x2 DUP12 ADD SLOAD AND PUSH1 0x40 DUP3 ADD MSTORE PUSH3 0xBDE PUSH1 0x3 DUP12 ADD PUSH3 0x18B9 JUMP JUMPDEST PUSH1 0x60 DUP3 ADD MSTORE PUSH3 0xBF1 PUSH1 0x4 DUP12 ADD PUSH3 0x18B9 JUMP JUMPDEST PUSH1 0x80 DUP3 ADD MSTORE DUP6 DUP11 ADD SLOAD PUSH1 0xA0 DUP3 ADD MSTORE PUSH3 0xC0D PUSH1 0x6 DUP12 ADD PUSH3 0x18B9 JUMP JUMPDEST PUSH1 0xC0 DUP3 ADD MSTORE PUSH3 0xC1F DUP8 DUP12 ADD PUSH3 0x18B9 JUMP JUMPDEST DUP9 DUP3 ADD MSTORE PUSH1 0x8 PUSH3 0xC32 DUP2 DUP13 ADD PUSH3 0x18B9 JUMP JUMPDEST PUSH2 0x100 DUP4 ADD MSTORE PUSH3 0xC46 PUSH1 0x9 DUP13 ADD PUSH3 0x18B9 JUMP JUMPDEST PUSH2 0x120 DUP4 ADD MSTORE PUSH3 0xC5A PUSH1 0xA DUP13 ADD PUSH3 0x18B9 JUMP JUMPDEST PUSH2 0x140 DUP4 ADD MSTORE PUSH3 0xC6E PUSH1 0xB DUP13 ADD PUSH3 0x18B9 JUMP JUMPDEST PUSH2 0x160 DUP4 ADD MSTORE PUSH1 0xC DUP12 ADD SLOAD PUSH1 0xFF SWAP2 DUP3 DUP3 AND ISZERO ISZERO PUSH2 0x180 DUP6 ADD MSTORE SHR AND ISZERO ISZERO PUSH2 0x1A0 DUP3 ADD MSTORE DUP2 MSTORE ADD SWAP7 ADD SWAP7 ADD SWAP6 SWAP5 PUSH3 0xB83 JUMP JUMPDEST PUSH1 0x40 MLOAD PUSH3 0x461BCD PUSH1 0xE5 SHL DUP2 MSTORE PUSH1 0x20 PUSH1 0x4 DUP3 ADD MSTORE PUSH1 0x1C PUSH1 0x24 DUP3 ADD MSTORE PUSH32 0x557365722050726F66696C6520646F7365206E6F742065786973742E00000000 PUSH1 0x44 DUP3 ADD MSTORE PUSH1 0x64 SWAP1 REVERT JUMPDEST DUP3 CALLVALUE PUSH3 0x159 JUMPI DUP1 PUSH1 0x3 NOT CALLDATASIZE ADD SLT PUSH3 0x159 JUMPI PUSH1 0x20 PUSH1 0x40 MLOAD PUSH10 0x152D02C7E14AF6800000 DUP2 MSTORE RETURN JUMPDEST DUP3 CALLVALUE PUSH3 0x159 JUMPI PUSH1 0x20 CALLDATASIZE PUSH1 0x3 NOT ADD SLT PUSH3 0x159 JUMPI PUSH1 0x20 PUSH1 0x4 CALLDATALOAD DUP1 PUSH1 0x5 SSTORE PUSH1 0x40 MLOAD SWAP1 DUP2 MSTORE RETURN JUMPDEST DUP3 CALLVALUE PUSH3 0x159 JUMPI PUSH1 0x20 CALLDATASIZE PUSH1 0x3 NOT ADD SLT PUSH3 0x159 JUMPI PUSH1 0x1 PUSH1 0x1 PUSH1 0xA0 SHL SUB SWAP1 DUP2 PUSH3 0xD59 PUSH3 0x1807 JUMP JUMPDEST AND DUP2 MSTORE PUSH1 0x9 PUSH1 0x20 MSTORE PUSH1 0x40 SWAP1 KECCAK256 DUP2 DUP2 SLOAD AND SWAP2 DUP1 PUSH1 0x1 DUP4 ADD SLOAD AND SWAP1 PUSH1 0x2 DUP4 ADD SLOAD AND SWAP2 PUSH1 0x3 DUP2 ADD PUSH3 0xD88 SWAP1 PUSH3 0x18B9 JUMP JUMPDEST SWAP4 PUSH3 0xD97 PUSH1 0x4 DUP4 ADD PUSH3 0x18B9 JUMP JUMPDEST SWAP2 PUSH1 0x5 DUP2 ADD SLOAD PUSH1 0x6 DUP3 ADD PUSH3 0xDAC SWAP1 PUSH3 0x18B9 JUMP JUMPDEST PUSH3 0xDBA PUSH1 0x7 DUP5 ADD PUSH3 0x18B9 JUMP JUMPDEST PUSH3 0xDC8 PUSH1 0x8 DUP6 ADD PUSH3 0x18B9 JUMP JUMPDEST SWAP1 PUSH3 0xDD7 PUSH1 0x9 DUP7 ADD PUSH3 0x18B9 JUMP JUMPDEST SWAP3 PUSH3 0xDE6 PUSH1 0xA DUP8 ADD PUSH3 0x18B9 JUMP JUMPDEST SWAP5 PUSH3 0xDF5 PUSH1 0xB DUP9 ADD PUSH3 0x18B9 JUMP JUMPDEST SWAP7 PUSH1 0xC ADD SLOAD SWAP9 PUSH1 0x40 MLOAD SWAP13 DUP14 SWAP13 DUP14 SWAP13 DUP13 PUSH1 0x8 SHR PUSH1 0xFF AND SWAP13 PUSH1 0xFF AND SWAP12 PUSH3 0x987 SWAP15 PUSH3 0x19AC JUMP JUMPDEST DUP3 CALLVALUE PUSH3 0x159 JUMPI PUSH1 0x60 CALLDATASIZE PUSH1 0x3 NOT ADD SLT PUSH3 0x159 JUMPI PUSH3 0xE38 PUSH3 0x1807 JUMP JUMPDEST PUSH1 0x24 CALLDATALOAD SWAP2 SWAP1 PUSH1 0x1 PUSH1 0x1 PUSH1 0xA0 SHL SUB DUP4 AND DUP4 SUB PUSH3 0xE78 JUMPI PUSH3 0xE6C PUSH1 0x1 SWAP2 PUSH1 0x20 SWAP5 PUSH3 0xE62 PUSH3 0x2738 JUMP JUMPDEST PUSH1 0x44 CALLDATALOAD SWAP2 PUSH3 0x2776 JUMP JUMPDEST SWAP2 SSTORE PUSH1 0x40 MLOAD SWAP1 ISZERO ISZERO DUP2 MSTORE RETURN JUMPDEST PUSH1 0x0 DUP1 REVERT JUMPDEST DUP3 CALLVALUE PUSH3 0x159 JUMPI PUSH1 0x20 CALLDATASIZE PUSH1 0x3 NOT ADD SLT PUSH3 0x159 JUMPI PUSH1 0x4 CALLDATALOAD SWAP1 PUSH1 0xA SLOAD DUP3 LT ISZERO PUSH3 0x159 JUMPI POP PUSH1 0xA PUSH1 0x0 MSTORE PUSH1 0xD MUL PUSH1 0x1 PUSH1 0xA0 SHL PUSH1 0x1 SWAP1 SUB SWAP1 DUP2 DUP2 PUSH32 0xC65A7BB8D6351C1CF70C95A316CC6A92839C986682D98BC35F958F4883F9D2A8 ADD SLOAD AND SWAP2 DUP1 PUSH32 0xC65A7BB8D6351C1CF70C95A316CC6A92839C986682D98BC35F958F4883F9D2A9 DUP4 ADD SLOAD AND SWAP1 PUSH32 0xC65A7BB8D6351C1CF70C95A316CC6A92839C986682D98BC35F958F4883F9D2AA DUP4 ADD SLOAD AND SWAP2 PUSH32 0xC65A7BB8D6351C1CF70C95A316CC6A92839C986682D98BC35F958F4883F9D2AB DUP2 ADD PUSH3 0xF55 SWAP1 PUSH3 0x18B9 JUMP JUMPDEST SWAP4 PUSH3 0xF83 PUSH32 0xC65A7BB8D6351C1CF70C95A316CC6A92839C986682D98BC35F958F4883F9D2AC DUP4 ADD PUSH3 0x18B9 JUMP JUMPDEST SWAP2 PUSH32 0xC65A7BB8D6351C1CF70C95A316CC6A92839C986682D98BC35F958F4883F9D2AD DUP2 ADD SLOAD PUSH32 0xC65A7BB8D6351C1CF70C95A316CC6A92839C986682D98BC35F958F4883F9D2AE DUP3 ADD PUSH3 0xFD6 SWAP1 PUSH3 0x18B9 JUMP JUMPDEST PUSH3 0x1003 PUSH32 0xC65A7BB8D6351C1CF70C95A316CC6A92839C986682D98BC35F958F4883F9D2AF DUP5 ADD PUSH3 0x18B9 JUMP JUMPDEST PUSH3 0x1030 PUSH32 0xC65A7BB8D6351C1CF70C95A316CC6A92839C986682D98BC35F958F4883F9D2B0 DUP6 ADD PUSH3 0x18B9 JUMP JUMPDEST SWAP1 PUSH3 0x105E PUSH32 0xC65A7BB8D6351C1CF70C95A316CC6A92839C986682D98BC35F958F4883F9D2B1 DUP7 ADD PUSH3 0x18B9 JUMP JUMPDEST SWAP3 PUSH3 0x108C PUSH32 0xC65A7BB8D6351C1CF70C95A316CC6A92839C986682D98BC35F958F4883F9D2B2 DUP8 ADD PUSH3 0x18B9 JUMP JUMPDEST SWAP5 PUSH3 0x10BA PUSH32 0xC65A7BB8D6351C1CF70C95A316CC6A92839C986682D98BC35F958F4883F9D2B3 DUP9 ADD PUSH3 0x18B9 JUMP JUMPDEST SWAP7 PUSH32 0xC65A7BB8D6351C1CF70C95A316CC6A92839C986682D98BC35F958F4883F9D2B4 ADD SLOAD SWAP9 PUSH1 0x40 MLOAD SWAP13 DUP14 SWAP13 DUP14 SWAP13 DUP13 PUSH1 0x8 SHR PUSH1 0xFF AND SWAP13 PUSH1 0xFF AND SWAP12 PUSH3 0x987 SWAP15 PUSH3 0x19AC JUMP JUMPDEST DUP3 CALLVALUE PUSH3 0x159 JUMPI PUSH1 0x20 DUP1 PUSH1 0x3 NOT CALLDATASIZE ADD SLT PUSH3 0x678 JUMPI PUSH3 0x111D PUSH3 0x1807 JUMP JUMPDEST PUSH1 0x1 SLOAD PUSH1 0x1 PUSH1 0x1 PUSH1 0xA0 SHL SUB SWAP2 SWAP1 PUSH3 0x1139 SWAP1 DUP4 AND CALLER EQ PUSH3 0x1CE2 JUMP JUMPDEST PUSH3 0x1143 PUSH3 0x2738 JUMP JUMPDEST DUP2 DUP2 AND SWAP3 DUP4 ISZERO ISZERO SWAP1 PUSH3 0x1156 DUP3 PUSH3 0x1D3E JUMP JUMPDEST DUP4 PUSH1 0x3 SLOAD AND SWAP4 PUSH1 0x40 MLOAD SWAP1 DUP3 DUP3 PUSH1 0x4 DUP2 PUSH4 0x15AB88C9 PUSH1 0xE3 SHL SWAP10 DUP11 DUP3 MSTORE GAS STATICCALL SWAP2 DUP3 ISZERO PUSH3 0x7D8 JUMPI PUSH3 0x11C5 SWAP3 DUP5 SWAP2 DUP11 SWAP2 PUSH3 0x1712 JUMPI JUMPDEST POP PUSH1 0x2 SLOAD PUSH1 0x40 MLOAD PUSH4 0xE6A43905 PUSH1 0xE0 SHL DUP2 MSTORE PUSH1 0x1 PUSH1 0x1 PUSH1 0xA0 SHL SUB DUP1 DUP11 AND PUSH1 0x4 DUP4 ADD MSTORE SWAP1 SWAP3 AND PUSH1 0x24 DUP4 ADD MSTORE SWAP1 SWAP4 DUP5 SWAP2 DUP5 AND SWAP1 DUP3 SWAP1 DUP2 SWAP1 PUSH1 0x44 DUP3 ADD SWAP1 JUMP JUMPDEST SUB SWAP2 GAS STATICCALL SWAP2 DUP3 ISZERO PUSH3 0x7D8 JUMPI DUP9 SWAP3 PUSH3 0x16EE JUMPI JUMPDEST POP DUP7 EXTCODESIZE ISZERO PUSH3 0x16EA JUMPI PUSH1 0x40 MLOAD PUSH4 0x6DA678F PUSH1 0xE5 SHL DUP2 MSTORE SWAP2 DUP2 AND PUSH1 0x4 DUP4 ADD MSTORE PUSH1 0x24 SWAP2 DUP9 DUP2 DUP5 DUP2 DUP4 DUP13 GAS CALL DUP1 ISZERO PUSH3 0x16DF JUMPI PUSH3 0x16A8 JUMPI JUMPDEST POP SWAP1 DUP8 SWAP4 SWAP3 SWAP2 DUP8 DUP6 MSTORE PUSH1 0x9 DUP4 MSTORE PUSH1 0x40 DUP6 KECCAK256 SWAP7 PUSH1 0x40 DUP3 PUSH1 0x3 SLOAD AND PUSH1 0x64 DUP12 DUP4 MLOAD SWAP10 DUP11 SWAP4 DUP5 SWAP3 PUSH4 0xE79A4089 PUSH1 0xE0 SHL DUP5 MSTORE PUSH1 0x4 DUP5 ADD MSTORE DUP4 DUP10 DUP5 ADD MSTORE ADDRESS PUSH1 0x44 DUP5 ADD MSTORE GAS CALL SWAP5 DUP6 ISZERO PUSH3 0x14DD JUMPI DUP11 SWAP7 DUP12 SWAP7 PUSH3 0x1679 JUMPI JUMPDEST POP PUSH3 0x126C SWAP1 PUSH3 0x1D3E JUMP JUMPDEST DUP9 DUP11 MSTORE PUSH1 0x9 DUP5 MSTORE PUSH1 0xC PUSH1 0x40 DUP12 KECCAK256 ADD SLOAD PUSH1 0xFF DUP2 AND SWAP1 DUP2 PUSH3 0x1669 JUMPI JUMPDEST POP ISZERO PUSH3 0x1625 JUMPI DUP9 SWAP1 DUP3 PUSH1 0x6 SLOAD AND PUSH1 0x40 MLOAD SWAP1 DUP13 DUP8 DUP4 DUP9 DUP2 PUSH4 0x70A08231 PUSH1 0xE0 SHL SWAP9 DUP10 DUP3 MSTORE ADDRESS PUSH1 0x4 DUP4 ADD MSTORE GAS STATICCALL SWAP2 DUP3 ISZERO PUSH3 0x1618 JUMPI DUP12 SWAP2 SWAP3 PUSH3 0x15DE JUMPI JUMPDEST PUSH3 0x12CF SWAP4 POP PUSH3 0x2776 JUMP JUMPDEST ISZERO PUSH3 0x15AA JUMPI SWAP1 DUP3 SWAP2 DUP12 SWAP5 SWAP4 PUSH1 0x6 SLOAD AND SWAP1 PUSH1 0x40 MLOAD PUSH4 0xC45A0155 PUSH1 0xE0 SHL DUP2 MSTORE DUP8 DUP2 PUSH1 0x4 DUP2 DUP7 GAS STATICCALL SWAP2 DUP3 ISZERO PUSH3 0x797 JUMPI DUP9 SWAP2 DUP9 SWAP4 PUSH3 0x1586 JUMPI JUMPDEST POP PUSH1 0x4 PUSH1 0x40 MLOAD DUP1 SWAP6 DUP2 SWAP4 DUP3 MSTORE GAS STATICCALL SWAP1 DUP2 ISZERO PUSH3 0x1528 JUMPI PUSH3 0x1365 SWAP11 DUP9 SWAP4 DUP9 SWAP4 PUSH3 0x1562 JUMPI JUMPDEST POP PUSH1 0x40 MLOAD PUSH4 0x64E329CB PUSH1 0xE1 SHL DUP2 MSTORE PUSH1 0x1 PUSH1 0x1 PUSH1 0xA0 SHL SUB SWAP2 DUP3 AND PUSH1 0x4 DUP3 ADD MSTORE SWAP3 AND PUSH1 0x24 DUP4 ADD MSTORE SWAP1 SWAP10 DUP11 SWAP2 SWAP1 DUP3 SWAP1 DUP9 SWAP1 DUP8 SWAP1 DUP4 SWAP1 PUSH1 0x44 DUP3 ADD SWAP1 JUMP JUMPDEST SUB SWAP4 AND GAS CALL SWAP8 DUP9 ISZERO PUSH3 0x1557 JUMPI DUP5 SWAP9 PUSH3 0x1533 JUMPI JUMPDEST POP PUSH1 0x6 SLOAD PUSH1 0x40 MLOAD SWAP2 DUP3 MSTORE ADDRESS PUSH1 0x4 DUP4 ADD MSTORE DUP3 AND SWAP1 SELFBALANCE DUP7 DUP3 DUP7 DUP2 DUP16 GAS STATICCALL SWAP3 DUP4 ISZERO PUSH3 0x1528 JUMPI DUP13 SWAP3 DUP8 SWAP5 PUSH3 0x14E8 JUMPI JUMPDEST POP SWAP2 PUSH1 0xC4 SWAP2 PUSH1 0x60 SWAP5 SWAP4 PUSH1 0x40 MLOAD SWAP9 DUP10 SWAP6 DUP7 SWAP5 PUSH4 0xF305D719 PUSH1 0xE0 SHL DUP7 MSTORE PUSH1 0x4 DUP7 ADD MSTORE DUP10 DUP6 ADD MSTORE DUP1 PUSH1 0x44 DUP6 ADD MSTORE PUSH1 0x64 DUP5 ADD MSTORE ADDRESS PUSH1 0x84 DUP5 ADD MSTORE TIMESTAMP PUSH1 0xA4 DUP5 ADD MSTORE GAS CALL SWAP3 DUP4 ISZERO PUSH3 0x14DD JUMPI DUP5 SWAP4 PUSH3 0x14A8 JUMPI JUMPDEST POP DUP1 DUP11 PUSH1 0x44 SWAP3 PUSH1 0x6 SLOAD AND SWAP2 PUSH1 0x40 MLOAD SWAP10 DUP11 SWAP6 DUP7 SWAP5 PUSH4 0x95EA7B3 PUSH1 0xE0 SHL DUP7 MSTORE PUSH1 0x4 DUP7 ADD MSTORE PUSH1 0x0 NOT SWAP1 DUP6 ADD MSTORE AND GAS CALL DUP1 ISZERO PUSH3 0x797 JUMPI PUSH32 0x540BCEC33387745B2CED30977DCFE4A623A245511EB0A133989C27C8BB95B4A9 SWAP6 PUSH1 0x40 SWAP6 PUSH1 0xC SWAP3 PUSH3 0x1474 JUMPI JUMPDEST POP ADD DUP1 SLOAD PUSH2 0xFFFF NOT AND PUSH2 0x100 OR SWAP1 SSTORE DUP4 MLOAD SWAP3 DUP4 MSTORE DUP3 ADD MSTORE LOG2 PUSH1 0x1 DUP2 SSTORE DUP1 RETURN JUMPDEST PUSH3 0x1498 SWAP1 DUP5 RETURNDATASIZE DUP7 GT PUSH3 0x14A0 JUMPI JUMPDEST PUSH3 0x148F DUP2 DUP4 PUSH3 0x1896 JUMP JUMPDEST DUP2 ADD SWAP1 PUSH3 0x275C JUMP JUMPDEST POP DUP10 PUSH3 0x1455 JUMP JUMPDEST POP RETURNDATASIZE PUSH3 0x1483 JUMP JUMPDEST PUSH1 0x60 DUP1 SWAP3 SWAP5 POP RETURNDATASIZE DUP4 GT PUSH3 0x14D5 JUMPI JUMPDEST PUSH3 0x14C3 DUP2 DUP4 PUSH3 0x1896 JUMP JUMPDEST DUP2 ADD SUB SLT PUSH3 0x8E9 JUMPI DUP3 SWAP2 DUP11 PUSH3 0x13F4 JUMP JUMPDEST POP RETURNDATASIZE PUSH3 0x14B7 JUMP JUMPDEST PUSH1 0x40 MLOAD RETURNDATASIZE DUP13 DUP3 RETURNDATACOPY RETURNDATASIZE SWAP1 REVERT JUMPDEST SWAP4 POP SWAP2 POP SWAP5 POP DUP6 DUP3 DUP2 RETURNDATASIZE DUP4 GT PUSH3 0x1520 JUMPI JUMPDEST PUSH3 0x1506 DUP2 DUP4 PUSH3 0x1896 JUMP JUMPDEST DUP2 ADD SUB SLT PUSH3 0xE78 JUMPI SWAP1 MLOAD DUP12 SWAP5 SWAP1 SWAP2 DUP12 SWAP2 SWAP1 PUSH1 0xC4 PUSH3 0x13A7 JUMP JUMPDEST POP RETURNDATASIZE PUSH3 0x14FA JUMP JUMPDEST PUSH1 0x40 MLOAD RETURNDATASIZE DUP9 DUP3 RETURNDATACOPY RETURNDATASIZE SWAP1 REVERT JUMPDEST PUSH3 0x154F SWAP2 SWAP9 POP DUP6 RETURNDATASIZE DUP8 GT PUSH3 0x82B JUMPI PUSH3 0x81A DUP2 DUP4 PUSH3 0x1896 JUMP JUMPDEST SWAP7 DUP12 PUSH3 0x137A JUMP JUMPDEST PUSH1 0x40 MLOAD RETURNDATASIZE DUP7 DUP3 RETURNDATACOPY RETURNDATASIZE SWAP1 REVERT JUMPDEST PUSH3 0x157E SWAP2 SWAP4 POP DUP5 RETURNDATASIZE DUP7 GT PUSH3 0x82B JUMPI PUSH3 0x81A DUP2 DUP4 PUSH3 0x1896 JUMP JUMPDEST SWAP2 DUP16 PUSH3 0x132C JUMP JUMPDEST PUSH3 0x15A2 SWAP2 SWAP4 POP DUP3 RETURNDATASIZE DUP5 GT PUSH3 0x82B JUMPI PUSH3 0x81A DUP2 DUP4 PUSH3 0x1896 JUMP JUMPDEST SWAP2 DUP16 PUSH3 0x1307 JUMP JUMPDEST PUSH1 0x40 MLOAD PUSH3 0x461BCD PUSH1 0xE5 SHL DUP2 MSTORE PUSH1 0x4 DUP2 ADD DUP7 SWAP1 MSTORE PUSH1 0xD DUP2 DUP7 ADD MSTORE PUSH13 0x2737BA1030B8383937BB32B217 PUSH1 0x99 SHL PUSH1 0x44 DUP3 ADD MSTORE PUSH1 0x64 SWAP1 REVERT JUMPDEST SWAP2 POP POP DUP7 DUP3 DUP2 RETURNDATASIZE DUP4 GT PUSH3 0x1610 JUMPI JUMPDEST PUSH3 0x15F9 DUP2 DUP4 PUSH3 0x1896 JUMP JUMPDEST DUP2 ADD SUB SLT PUSH3 0xE78 JUMPI DUP10 PUSH3 0x12CF SWAP3 MLOAD SWAP2 PUSH3 0x12C3 JUMP JUMPDEST POP RETURNDATASIZE PUSH3 0x15ED JUMP JUMPDEST POP PUSH1 0x40 MLOAD SWAP1 RETURNDATASIZE SWAP1 DUP3 RETURNDATACOPY RETURNDATASIZE SWAP1 REVERT JUMPDEST PUSH1 0x40 MLOAD PUSH3 0x461BCD PUSH1 0xE5 SHL DUP2 MSTORE PUSH1 0x4 DUP2 ADD DUP6 SWAP1 MSTORE PUSH1 0x17 DUP2 DUP6 ADD MSTORE PUSH32 0x74726164696E6720697320616C7265616479206F70656E000000000000000000 PUSH1 0x44 DUP3 ADD MSTORE PUSH1 0x64 SWAP1 REVERT JUMPDEST PUSH1 0xFF SWAP2 POP PUSH1 0x8 SHR AND ISZERO DUP12 PUSH3 0x1287 JUMP JUMPDEST PUSH3 0x126C SWAP8 POP PUSH3 0x169D SWAP2 SWAP7 POP PUSH1 0x40 RETURNDATASIZE PUSH1 0x40 GT PUSH3 0x78F JUMPI PUSH3 0x77F DUP2 DUP4 PUSH3 0x1896 JUMP JUMPDEST SWAP7 SWAP1 SWAP7 SWAP6 SWAP1 PUSH3 0x1260 JUMP JUMPDEST PUSH8 0xFFFFFFFFFFFFFFFF DUP2 SWAP10 SWAP3 SWAP6 SWAP5 SWAP4 SWAP10 GT PUSH3 0x16CC JUMPI PUSH1 0x40 MSTORE SWAP7 SWAP1 SWAP2 SWAP3 DUP9 PUSH3 0x120F JUMP JUMPDEST PUSH4 0x4E487B71 PUSH1 0xE0 SHL DUP3 MSTORE PUSH1 0x41 PUSH1 0x4 MSTORE DUP9 DUP3 REVERT JUMPDEST PUSH1 0x40 MLOAD RETURNDATASIZE DUP12 DUP3 RETURNDATACOPY RETURNDATASIZE SWAP1 REVERT JUMPDEST DUP8 DUP1 REVERT JUMPDEST PUSH3 0x170A SWAP2 SWAP3 POP DUP4 RETURNDATASIZE DUP6 GT PUSH3 0x82B JUMPI PUSH3 0x81A DUP2 DUP4 PUSH3 0x1896 JUMP JUMPDEST SWAP1 DUP9 PUSH3 0x11D9 JUMP JUMPDEST PUSH3 0x172D SWAP2 POP DUP3 RETURNDATASIZE DUP5 GT PUSH3 0x82B JUMPI PUSH3 0x81A DUP2 DUP4 PUSH3 0x1896 JUMP JUMPDEST DUP11 PUSH3 0x118A JUMP JUMPDEST DUP3 CALLVALUE PUSH3 0x159 JUMPI DUP1 PUSH1 0x3 NOT CALLDATASIZE ADD SLT PUSH3 0x159 JUMPI PUSH1 0x1 SLOAD DUP2 SWAP1 DUP2 SWAP1 DUP2 SWAP1 SELFBALANCE SWAP1 PUSH1 0x1 PUSH1 0x1 PUSH1 0xA0 SHL SUB AND GAS CALL PUSH3 0x1767 PUSH3 0x1CAD JUMP JUMPDEST POP ISZERO PUSH3 0x1779 JUMPI PUSH1 0x20 PUSH1 0x40 MLOAD PUSH1 0x1 DUP2 MSTORE RETURN JUMPDEST PUSH1 0x40 MLOAD PUSH3 0x461BCD PUSH1 0xE5 SHL DUP2 MSTORE PUSH1 0x20 PUSH1 0x4 DUP3 ADD MSTORE PUSH1 0x14 PUSH1 0x24 DUP3 ADD MSTORE PUSH20 0x2A3930B739B332B91022AA24102330B4B632B217 PUSH1 0x61 SHL PUSH1 0x44 DUP3 ADD MSTORE PUSH1 0x64 SWAP1 REVERT JUMPDEST DUP3 CALLVALUE PUSH3 0x159 JUMPI DUP1 PUSH1 0x3 NOT CALLDATASIZE ADD SLT PUSH3 0x159 JUMPI PUSH1 0x1 SLOAD PUSH1 0x40 MLOAD PUSH1 0x1 PUSH1 0x1 PUSH1 0xA0 SHL SUB SWAP1 SWAP2 AND DUP2 MSTORE PUSH1 0x20 SWAP1 RETURN JUMPDEST DUP4 SWAP1 CALLVALUE PUSH3 0x678 JUMPI DUP2 PUSH1 0x3 NOT CALLDATASIZE ADD SLT PUSH3 0x678 JUMPI PUSH1 0x4 SLOAD PUSH1 0x1 PUSH1 0x1 PUSH1 0xA0 SHL SUB AND DUP2 MSTORE PUSH1 0x20 SWAP1 RETURN JUMPDEST PUSH1 0x4 CALLDATALOAD SWAP1 PUSH1 0x1 PUSH1 0x1 PUSH1 0xA0 SHL SUB DUP3 AND DUP3 SUB PUSH3 0xE78 JUMPI JUMP JUMPDEST SWAP1 PUSH1 0x1 DUP3 DUP2 SHR SWAP3 AND DUP1 ISZERO PUSH3 0x1850 JUMPI JUMPDEST PUSH1 0x20 DUP4 LT EQ PUSH3 0x183A JUMPI JUMP JUMPDEST PUSH4 0x4E487B71 PUSH1 0xE0 SHL PUSH1 0x0 MSTORE PUSH1 0x22 PUSH1 0x4 MSTORE PUSH1 0x24 PUSH1 0x0 REVERT JUMPDEST SWAP2 PUSH1 0x7F AND SWAP2 PUSH3 0x182E JUMP JUMPDEST PUSH1 0x40 DUP2 ADD SWAP1 DUP2 LT PUSH8 0xFFFFFFFFFFFFFFFF DUP3 GT OR PUSH3 0x74E JUMPI PUSH1 0x40 MSTORE JUMP JUMPDEST PUSH2 0x1C0 DUP2 ADD SWAP1 DUP2 LT PUSH8 0xFFFFFFFFFFFFFFFF DUP3 GT OR PUSH3 0x74E JUMPI PUSH1 0x40 MSTORE JUMP JUMPDEST SWAP1 PUSH1 0x1F DUP1 NOT SWAP2 ADD AND DUP2 ADD SWAP1 DUP2 LT PUSH8 0xFFFFFFFFFFFFFFFF DUP3 GT OR PUSH3 0x74E JUMPI PUSH1 0x40 MSTORE JUMP JUMPDEST SWAP1 PUSH1 0x40 MLOAD SWAP2 DUP3 PUSH1 0x0 DUP3 SLOAD PUSH3 0x18CE DUP2 PUSH3 0x181E JUMP JUMPDEST SWAP1 DUP2 DUP5 MSTORE PUSH1 0x20 SWAP5 PUSH1 0x1 SWAP2 PUSH1 0x1 DUP2 AND SWAP1 DUP2 PUSH1 0x0 EQ PUSH3 0x1946 JUMPI POP PUSH1 0x1 EQ PUSH3 0x1903 JUMPI JUMPDEST POP POP POP PUSH3 0x1901 SWAP3 POP SUB DUP4 PUSH3 0x1896 JUMP JUMPDEST JUMP JUMPDEST PUSH1 0x0 SWAP1 DUP2 MSTORE DUP6 DUP2 KECCAK256 SWAP6 SWAP4 POP SWAP2 SWAP1 JUMPDEST DUP2 DUP4 LT PUSH3 0x192D JUMPI POP POP PUSH3 0x1901 SWAP4 POP DUP3 ADD ADD CODESIZE DUP1 DUP1 PUSH3 0x18F0 JUMP JUMPDEST DUP6 SLOAD DUP9 DUP5 ADD DUP6 ADD MSTORE SWAP5 DUP6 ADD SWAP5 DUP8 SWAP5 POP SWAP2 DUP4 ADD SWAP2 PUSH3 0x1911 JUMP JUMPDEST SWAP3 POP POP POP PUSH3 0x1901 SWAP5 SWAP3 POP PUSH1 0xFF NOT AND DUP3 DUP5 ADD MSTORE ISZERO ISZERO PUSH1 0x5 SHL DUP3 ADD ADD CODESIZE DUP1 DUP1 PUSH3 0x18F0 JUMP JUMPDEST SWAP2 SWAP1 DUP3 MLOAD SWAP3 DUP4 DUP3 MSTORE PUSH1 0x0 JUMPDEST DUP5 DUP2 LT PUSH3 0x1997 JUMPI POP POP DUP3 PUSH1 0x0 PUSH1 0x20 DUP1 SWAP5 SWAP6 DUP5 ADD ADD MSTORE PUSH1 0x1F DUP1 NOT SWAP2 ADD AND ADD ADD SWAP1 JUMP JUMPDEST PUSH1 0x20 DUP2 DUP4 ADD DUP2 ADD MLOAD DUP5 DUP4 ADD DUP3 ADD MSTORE ADD PUSH3 0x1975 JUMP JUMPDEST SWAP13 SWAP15 SWAP14 SWAP11 SWAP7 PUSH3 0x1A60 SWAP7 PUSH3 0x1A31 SWAP2 DUP16 PUSH2 0x1A0 SWAP16 SWAP13 SWAP7 PUSH3 0x1A80 SWAP15 SWAP10 PUSH3 0x1A0E PUSH3 0x1A50 SWAP11 PUSH3 0x1A70 SWAP16 SWAP9 PUSH3 0x1A40 SWAP11 PUSH3 0x1A1D SWAP6 PUSH2 0x1C0 SWAP3 PUSH1 0x1 DUP1 PUSH1 0xA0 SHL SUB SWAP3 DUP4 DUP1 SWAP3 AND DUP11 MSTORE AND PUSH1 0x20 DUP10 ADD MSTORE AND PUSH1 0x40 DUP8 ADD MSTORE DUP1 PUSH1 0x60 DUP8 ADD MSTORE DUP6 ADD SWAP1 PUSH3 0x196A JUMP JUMPDEST SWAP1 DUP4 DUP3 SUB PUSH1 0x80 DUP6 ADD MSTORE PUSH3 0x196A JUMP JUMPDEST SWAP3 PUSH1 0xA0 DUP3 ADD MSTORE PUSH1 0xC0 DUP2 DUP5 SUB SWAP2 ADD MSTORE PUSH3 0x196A JUMP JUMPDEST DUP14 DUP2 SUB PUSH1 0xE0 DUP16 ADD MSTORE SWAP1 PUSH3 0x196A JUMP JUMPDEST SWAP1 DUP12 DUP3 SUB PUSH2 0x100 DUP14 ADD MSTORE PUSH3 0x196A JUMP JUMPDEST SWAP1 DUP10 DUP3 SUB PUSH2 0x120 DUP12 ADD MSTORE PUSH3 0x196A JUMP JUMPDEST SWAP1 DUP8 DUP3 SUB PUSH2 0x140 DUP10 ADD MSTORE PUSH3 0x196A JUMP JUMPDEST SWAP1 DUP6 DUP3 SUB PUSH2 0x160 DUP8 ADD MSTORE PUSH3 0x196A JUMP JUMPDEST SWAP5 ISZERO ISZERO PUSH2 0x180 DUP5 ADD MSTORE ISZERO ISZERO SWAP2 ADD MSTORE JUMP JUMPDEST PUSH1 0x20 DUP1 DUP3 ADD SWAP1 DUP1 DUP4 MSTORE DUP4 MLOAD DUP1 SWAP3 MSTORE PUSH1 0x40 SWAP3 PUSH1 0x40 DUP2 ADD DUP3 PUSH1 0x40 DUP6 PUSH1 0x5 SHL DUP5 ADD ADD SWAP7 ADD SWAP5 PUSH1 0x0 SWAP3 JUMPDEST DUP6 DUP5 LT PUSH3 0x1AC8 JUMPI POP POP POP POP POP POP POP SWAP1 JUMP JUMPDEST SWAP1 SWAP2 SWAP3 SWAP4 SWAP5 SWAP6 SWAP7 DUP6 DUP1 DUP5 PUSH1 0x1 SWAP4 PUSH3 0x1BDC PUSH3 0x1BC7 PUSH3 0x1BB2 PUSH3 0x1B9D DUP16 PUSH3 0x1B74 PUSH3 0x1B56 PUSH3 0x1B42 DUP16 SWAP4 PUSH3 0x1B88 SWAP5 DUP16 PUSH1 0x3F NOT SWAP1 DUP13 SUB ADD SWAP1 MSTORE MLOAD SWAP10 PUSH2 0x1C0 SWAP1 DUP12 DUP16 DUP13 DUP16 DUP3 DUP2 SWAP4 PUSH1 0xA0 SHL SUB SWAP4 DUP5 SWAP3 DUP4 DUP3 MLOAD AND SWAP1 MSTORE ADD MLOAD AND SWAP1 DUP14 ADD MSTORE DUP2 DUP14 ADD MLOAD AND SWAP1 DUP12 ADD MSTORE PUSH1 0x60 SWAP1 DUP1 DUP3 DUP14 ADD MLOAD SWAP3 DUP13 ADD MSTORE DUP11 ADD SWAP1 PUSH3 0x196A JUMP JUMPDEST PUSH1 0x80 DUP1 DUP12 ADD MLOAD SWAP1 DUP11 DUP4 SUB SWAP1 DUP12 ADD MSTORE PUSH3 0x196A JUMP JUMPDEST PUSH1 0xA0 DUP1 DUP11 ADD MLOAD SWAP1 DUP10 ADD MSTORE PUSH1 0xC0 DUP1 DUP11 ADD MLOAD SWAP1 DUP10 DUP4 SUB SWAP1 DUP11 ADD MSTORE PUSH3 0x196A JUMP JUMPDEST PUSH1 0xE0 DUP1 DUP10 ADD MLOAD SWAP1 DUP9 DUP4 SUB SWAP1 DUP10 ADD MSTORE PUSH3 0x196A JUMP JUMPDEST PUSH2 0x100 DUP1 DUP9 ADD MLOAD SWAP1 DUP8 DUP4 SUB SWAP1 DUP9 ADD MSTORE PUSH3 0x196A JUMP JUMPDEST PUSH2 0x120 DUP1 DUP8 ADD MLOAD SWAP1 DUP7 DUP4 SUB SWAP1 DUP8 ADD MSTORE PUSH3 0x196A JUMP JUMPDEST PUSH2 0x140 DUP1 DUP7 ADD MLOAD SWAP1 DUP6 DUP4 SUB SWAP1 DUP7 ADD MSTORE PUSH3 0x196A JUMP JUMPDEST PUSH2 0x160 DUP1 DUP6 ADD MLOAD SWAP1 DUP5 DUP4 SUB SWAP1 DUP6 ADD MSTORE PUSH3 0x196A JUMP JUMPDEST SWAP2 PUSH2 0x180 DUP1 DUP3 ADD MLOAD ISZERO ISZERO SWAP1 DUP4 ADD MSTORE PUSH2 0x1A0 DUP1 SWAP2 ADD MLOAD ISZERO ISZERO SWAP2 ADD MSTORE SWAP10 ADD SWAP5 ADD SWAP5 ADD SWAP3 SWAP6 SWAP5 SWAP4 SWAP2 SWAP1 PUSH3 0x1AB6 JUMP JUMPDEST PUSH8 0xFFFFFFFFFFFFFFFF DUP2 GT PUSH3 0x74E JUMPI PUSH1 0x1F ADD PUSH1 0x1F NOT AND PUSH1 0x20 ADD SWAP1 JUMP JUMPDEST DUP2 PUSH1 0x1F DUP3 ADD SLT ISZERO PUSH3 0xE78 JUMPI DUP1 CALLDATALOAD SWAP1 PUSH3 0x1C3F DUP3 PUSH3 0x1C08 JUMP JUMPDEST SWAP3 PUSH3 0x1C4F PUSH1 0x40 MLOAD SWAP5 DUP6 PUSH3 0x1896 JUMP JUMPDEST DUP3 DUP5 MSTORE PUSH1 0x20 DUP4 DUP4 ADD ADD GT PUSH3 0xE78 JUMPI DUP2 PUSH1 0x0 SWAP3 PUSH1 0x20 DUP1 SWAP4 ADD DUP4 DUP7 ADD CALLDATACOPY DUP4 ADD ADD MSTORE SWAP1 JUMP JUMPDEST PUSH1 0x8 SLOAD DUP2 LT ISZERO PUSH3 0x738 JUMPI PUSH1 0x8 PUSH1 0x0 MSTORE PUSH1 0x1 SHL PUSH32 0xF3F7A9FE364FAAB93B216DA50A3214154F22A0A2B415B23A84C8169E8B636EE3 ADD SWAP1 PUSH1 0x0 SWAP1 JUMP JUMPDEST RETURNDATASIZE ISZERO PUSH3 0x1CDD JUMPI RETURNDATASIZE SWAP1 PUSH3 0x1CC1 DUP3 PUSH3 0x1C08 JUMP JUMPDEST SWAP2 PUSH3 0x1CD1 PUSH1 0x40 MLOAD SWAP4 DUP5 PUSH3 0x1896 JUMP JUMPDEST DUP3 MSTORE RETURNDATASIZE PUSH1 0x0 PUSH1 0x20 DUP5 ADD RETURNDATACOPY JUMP JUMPDEST PUSH1 0x60 SWAP1 JUMP JUMPDEST ISZERO PUSH3 0x1CEA JUMPI JUMP JUMPDEST PUSH1 0x40 MLOAD PUSH3 0x461BCD PUSH1 0xE5 SHL DUP2 MSTORE PUSH1 0x20 PUSH1 0x4 DUP3 ADD MSTORE PUSH1 0x26 PUSH1 0x24 DUP3 ADD MSTORE PUSH32 0x4F6E6C7920746865206F776E65722063616E2063616C6C20746869732066756E PUSH1 0x44 DUP3 ADD MSTORE PUSH6 0x31BA34B7B717 PUSH1 0xD1 SHL PUSH1 0x64 DUP3 ADD MSTORE PUSH1 0x84 SWAP1 REVERT JUMPDEST ISZERO PUSH3 0x1D46 JUMPI JUMP JUMPDEST PUSH1 0x40 MLOAD PUSH3 0x461BCD PUSH1 0xE5 SHL DUP2 MSTORE PUSH1 0x20 PUSH1 0x4 DUP3 ADD MSTORE PUSH1 0x1F PUSH1 0x24 DUP3 ADD MSTORE PUSH32 0x5A65726F2061646472657373657320617265206E6F7420616C6C6F7765642E00 PUSH1 0x44 DUP3 ADD MSTORE PUSH1 0x64 SWAP1 REVERT JUMPDEST SWAP1 DUP2 PUSH1 0x20 SWAP2 SUB SLT PUSH3 0xE78 JUMPI MLOAD PUSH1 0x1 PUSH1 0x1 PUSH1 0xA0 SHL SUB DUP2 AND DUP2 SUB PUSH3 0xE78 JUMPI SWAP1 JUMP JUMPDEST SWAP2 SWAP1 DUP3 PUSH1 0x40 SWAP2 SUB SLT PUSH3 0xE78 JUMPI PUSH1 0x20 DUP3 MLOAD SWAP3 ADD MLOAD SWAP1 JUMP JUMPDEST SWAP1 DUP2 PUSH1 0x20 SWAP2 SUB SLT PUSH3 0xE78 JUMPI MLOAD PUSH1 0xFF DUP2 AND DUP2 SUB PUSH3 0xE78 JUMPI SWAP1 JUMP JUMPDEST PUSH1 0xFF AND PUSH1 0x4D DUP2 GT PUSH3 0x1DF0 JUMPI PUSH1 0xA EXP SWAP1 JUMP JUMPDEST PUSH4 0x4E487B71 PUSH1 0xE0 SHL PUSH1 0x0 MSTORE PUSH1 0x11 PUSH1 0x4 MSTORE PUSH1 0x24 PUSH1 0x0 REVERT JUMPDEST DUP2 DUP2 MUL SWAP3 SWAP2 DUP2 ISZERO SWAP2 DUP5 DIV EQ OR ISZERO PUSH3 0x1DF0 JUMPI JUMP JUMPDEST DUP2 DUP2 LT PUSH3 0x1E26 JUMPI POP POP JUMP JUMPDEST PUSH1 0x0 DUP2 SSTORE PUSH1 0x1 ADD PUSH3 0x1E1A JUMP JUMPDEST SWAP2 SWAP1 PUSH1 0x1 DUP1 PUSH1 0xA0 SHL SUB SWAP3 DUP4 DUP3 MLOAD AND SWAP4 PUSH12 0xFFFFFFFFFFFFFFFFFFFFFFFF PUSH1 0xA0 SHL SWAP5 DUP6 DUP4 SLOAD AND OR DUP3 SSTORE PUSH1 0x1 SWAP1 DUP2 DUP4 ADD SWAP6 PUSH1 0x20 SWAP7 DUP3 DUP9 DUP8 ADD MLOAD AND DUP3 DUP3 SLOAD AND OR SWAP1 SSTORE PUSH1 0x2 DUP5 ADD SWAP2 PUSH1 0x40 DUP7 ADD MLOAD AND SWAP1 DUP3 SLOAD AND OR SWAP1 SSTORE PUSH1 0x3 SWAP1 DUP2 DUP4 ADD SWAP1 PUSH1 0x60 DUP6 ADD MLOAD SWAP1 DUP2 MLOAD SWAP3 PUSH8 0xFFFFFFFFFFFFFFFF SWAP4 DUP5 DUP2 GT PUSH3 0x74E JUMPI PUSH3 0x1EB1 DUP3 SLOAD PUSH3 0x181E JUMP JUMPDEST SWAP4 PUSH1 0x1F SWAP5 DUP12 DUP7 DUP3 GT PUSH3 0x26CE JUMPI JUMPDEST POP POP DUP11 SWAP1 DUP6 DUP4 GT PUSH1 0x1 EQ PUSH3 0x2664 JUMPI PUSH3 0x1EF3 SWAP3 SWAP2 PUSH1 0x0 SWAP2 DUP4 PUSH3 0x21D0 JUMPI JUMPDEST POP POP DUP2 PUSH1 0x1 SHL SWAP2 PUSH1 0x0 NOT SWAP1 PUSH1 0x3 SHL SHR NOT AND OR SWAP1 JUMP JUMPDEST SWAP1 SSTORE JUMPDEST PUSH1 0x4 SWAP8 DUP9 DUP7 ADD PUSH1 0x80 DUP9 ADD MLOAD DUP1 MLOAD SWAP1 DUP7 DUP3 GT PUSH3 0x264F JUMPI PUSH3 0x1F18 DUP4 SLOAD PUSH3 0x181E JUMP JUMPDEST DUP7 DUP2 GT PUSH3 0x2612 JUMPI JUMPDEST POP DUP4 SWAP1 DUP7 DUP4 GT PUSH1 0x1 EQ PUSH3 0x25AC JUMPI PUSH3 0x1F53 SWAP3 SWAP2 PUSH1 0x0 SWAP2 DUP4 PUSH3 0x21D0 JUMPI POP POP DUP2 PUSH1 0x1 SHL SWAP2 PUSH1 0x0 NOT SWAP1 PUSH1 0x3 SHL SHR NOT AND OR SWAP1 JUMP JUMPDEST SWAP1 SSTORE JUMPDEST PUSH1 0x5 SWAP5 PUSH1 0xA0 DUP9 ADD MLOAD DUP7 DUP9 ADD SSTORE PUSH1 0x6 DUP8 ADD PUSH1 0xC0 DUP10 ADD MLOAD DUP1 MLOAD SWAP1 DUP8 DUP3 GT PUSH3 0x233F JUMPI PUSH3 0x1F82 DUP4 SLOAD PUSH3 0x181E JUMP JUMPDEST DUP8 DUP2 GT PUSH3 0x257C JUMPI JUMPDEST POP DUP5 SWAP1 DUP8 DUP4 GT PUSH1 0x1 EQ PUSH3 0x2516 JUMPI PUSH3 0x1FBD SWAP3 SWAP2 PUSH1 0x0 SWAP2 DUP4 PUSH3 0x21D0 JUMPI POP POP DUP2 PUSH1 0x1 SHL SWAP2 PUSH1 0x0 NOT SWAP1 PUSH1 0x3 SHL SHR NOT AND OR SWAP1 JUMP JUMPDEST SWAP1 SSTORE JUMPDEST PUSH1 0x7 DUP8 ADD PUSH1 0xE0 DUP10 ADD MLOAD DUP1 MLOAD SWAP1 DUP8 DUP3 GT PUSH3 0x233F JUMPI PUSH3 0x1FE0 DUP4 SLOAD PUSH3 0x181E JUMP JUMPDEST DUP8 DUP2 GT PUSH3 0x24E6 JUMPI JUMPDEST POP DUP5 SWAP1 DUP8 DUP4 GT PUSH1 0x1 EQ PUSH3 0x2480 JUMPI PUSH3 0x201B SWAP3 SWAP2 PUSH1 0x0 SWAP2 DUP4 PUSH3 0x21D0 JUMPI POP POP DUP2 PUSH1 0x1 SHL SWAP2 PUSH1 0x0 NOT SWAP1 PUSH1 0x3 SHL SHR NOT AND OR SWAP1 JUMP JUMPDEST SWAP1 SSTORE JUMPDEST PUSH1 0x8 DUP8 ADD PUSH2 0x100 DUP10 ADD MLOAD DUP1 MLOAD SWAP1 DUP8 DUP3 GT PUSH3 0x233F JUMPI PUSH3 0x203F DUP4 SLOAD PUSH3 0x181E JUMP JUMPDEST DUP8 DUP2 GT PUSH3 0x2450 JUMPI JUMPDEST POP DUP5 SWAP1 DUP8 DUP4 GT PUSH1 0x1 EQ PUSH3 0x23EA JUMPI PUSH3 0x207A SWAP3 SWAP2 PUSH1 0x0 SWAP2 DUP4 PUSH3 0x21D0 JUMPI POP POP DUP2 PUSH1 0x1 SHL SWAP2 PUSH1 0x0 NOT SWAP1 PUSH1 0x3 SHL SHR NOT AND OR SWAP1 JUMP JUMPDEST SWAP1 SSTORE JUMPDEST PUSH1 0x9 DUP8 ADD PUSH2 0x120 DUP10 ADD MLOAD DUP1 MLOAD SWAP1 DUP8 DUP3 GT PUSH3 0x233F JUMPI PUSH3 0x209E DUP4 SLOAD PUSH3 0x181E JUMP JUMPDEST DUP8 DUP2 GT PUSH3 0x23BA JUMPI JUMPDEST POP DUP5 SWAP1 DUP8 DUP4 GT PUSH1 0x1 EQ PUSH3 0x2354 JUMPI PUSH3 0x20D9 SWAP3 SWAP2 PUSH1 0x0 SWAP2 DUP4 PUSH3 0x21D0 JUMPI POP POP DUP2 PUSH1 0x1 SHL SWAP2 PUSH1 0x0 NOT SWAP1 PUSH1 0x3 SHL SHR NOT AND OR SWAP1 JUMP JUMPDEST SWAP1 SSTORE JUMPDEST PUSH1 0xA DUP8 ADD PUSH2 0x140 DUP10 ADD MLOAD DUP1 MLOAD SWAP1 DUP8 DUP3 GT PUSH3 0x233F JUMPI PUSH3 0x20FD DUP4 SLOAD PUSH3 0x181E JUMP JUMPDEST DUP8 DUP2 GT PUSH3 0x2304 JUMPI JUMPDEST POP DUP5 SWAP1 DUP8 DUP4 GT PUSH1 0x1 EQ PUSH3 0x229E JUMPI PUSH3 0x2138 SWAP3 SWAP2 PUSH1 0x0 SWAP2 DUP4 PUSH3 0x21D0 JUMPI POP POP DUP2 PUSH1 0x1 SHL SWAP2 PUSH1 0x0 NOT SWAP1 PUSH1 0x3 SHL SHR NOT AND OR SWAP1 JUMP JUMPDEST SWAP1 SSTORE JUMPDEST PUSH1 0xB DUP8 ADD SWAP6 PUSH2 0x160 DUP10 ADD MLOAD SWAP11 DUP12 MLOAD SWAP7 DUP8 GT PUSH3 0x2289 JUMPI POP PUSH3 0x215E DUP8 SLOAD PUSH3 0x181E JUMP JUMPDEST DUP6 DUP2 GT PUSH3 0x224C JUMPI JUMPDEST POP POP DUP2 SWAP4 DUP6 GT PUSH1 0x1 EQ PUSH3 0x21DC JUMPI POP POP POP SWAP1 DUP1 PUSH3 0x21A1 SWAP3 PUSH1 0xC SWAP7 SWAP8 SWAP9 PUSH1 0x0 SWAP3 PUSH3 0x21D0 JUMPI POP POP DUP2 PUSH1 0x1 SHL SWAP2 PUSH1 0x0 NOT SWAP1 PUSH1 0x3 SHL SHR NOT AND OR SWAP1 JUMP JUMPDEST SWAP1 SSTORE JUMPDEST ADD SWAP1 PUSH2 0x180 DUP2 ADD MLOAD ISZERO ISZERO SWAP1 PUSH1 0xFF PUSH2 0xFF00 PUSH2 0x1A0 DUP6 SLOAD SWAP4 ADD MLOAD ISZERO ISZERO PUSH1 0x8 SHL AND SWAP3 AND SWAP1 PUSH2 0xFFFF NOT AND OR OR SWAP1 SSTORE JUMP JUMPDEST ADD MLOAD SWAP1 POP CODESIZE DUP1 PUSH3 0x1EDE JUMP JUMPDEST SWAP1 SWAP2 SWAP4 SWAP3 PUSH1 0x1F NOT DUP5 AND SWAP10 DUP7 PUSH1 0x0 MSTORE DUP4 PUSH1 0x0 KECCAK256 SWAP4 PUSH1 0x0 SWAP1 JUMPDEST DUP13 DUP3 LT PUSH3 0x2234 JUMPI POP POP DUP5 PUSH1 0xC SWAP10 SWAP11 SWAP12 LT PUSH3 0x2219 JUMPI JUMPDEST POP POP POP POP DUP2 SHL ADD SWAP1 SSTORE PUSH3 0x21A4 JUMP JUMPDEST ADD MLOAD SWAP1 PUSH1 0xF8 DUP5 PUSH1 0x0 NOT SWAP3 SHL AND SHR NOT AND SWAP1 SSTORE CODESIZE DUP1 DUP1 DUP1 PUSH3 0x220A JUMP JUMPDEST DUP1 DUP9 DUP6 SWAP8 DUP3 SWAP5 SWAP7 DUP7 ADD MLOAD DUP2 SSTORE ADD SWAP7 ADD SWAP4 ADD SWAP1 PUSH3 0x21F3 JUMP JUMPDEST PUSH3 0x2277 SWAP2 DUP9 PUSH1 0x0 MSTORE DUP5 PUSH1 0x0 KECCAK256 SWAP1 DUP8 DUP1 DUP11 ADD DUP3 SHR DUP4 ADD SWAP4 DUP8 DUP12 LT PUSH3 0x227F JUMPI JUMPDEST ADD SWAP1 SHR ADD SWAP1 PUSH3 0x1E1A JUMP JUMPDEST CODESIZE DUP1 PUSH3 0x2167 JUMP JUMPDEST SWAP4 POP DUP3 SWAP4 PUSH3 0x226C JUMP JUMPDEST PUSH1 0x41 SWAP1 PUSH4 0x4E487B71 PUSH1 0xE0 SHL PUSH1 0x0 MSTORE MSTORE PUSH1 0x24 PUSH1 0x0 REVERT JUMPDEST DUP7 SWAP3 SWAP2 PUSH1 0x1F NOT DUP4 AND SWAP2 DUP6 PUSH1 0x0 MSTORE DUP8 PUSH1 0x0 KECCAK256 SWAP3 PUSH1 0x0 JUMPDEST DUP10 DUP3 DUP3 LT PUSH3 0x22ED JUMPI POP POP DUP5 GT PUSH3 0x22D4 JUMPI JUMPDEST POP POP POP DUP2 SHL ADD SWAP1 SSTORE PUSH3 0x213B JUMP JUMPDEST ADD MLOAD PUSH1 0x0 NOT DUP4 DUP8 SHL PUSH1 0xF8 AND SHR NOT AND SWAP1 SSTORE CODESIZE DUP1 DUP1 PUSH3 0x22C6 JUMP JUMPDEST DUP4 DUP6 ADD MLOAD DUP7 SSTORE DUP12 SWAP8 SWAP1 SWAP6 ADD SWAP5 SWAP4 DUP5 ADD SWAP4 ADD PUSH3 0x22B3 JUMP JUMPDEST PUSH3 0x232E SWAP1 DUP5 PUSH1 0x0 MSTORE DUP7 PUSH1 0x0 KECCAK256 DUP10 DUP1 DUP7 ADD DUP14 SHR DUP3 ADD SWAP3 DUP10 DUP8 LT PUSH3 0x2335 JUMPI JUMPDEST ADD DUP13 SHR ADD SWAP1 PUSH3 0x1E1A JUMP JUMPDEST CODESIZE PUSH3 0x2106 JUMP JUMPDEST SWAP3 POP DUP2 SWAP3 PUSH3 0x2323 JUMP JUMPDEST PUSH1 0x41 DUP14 PUSH4 0x4E487B71 PUSH1 0xE0 SHL PUSH1 0x0 MSTORE MSTORE PUSH1 0x24 PUSH1 0x0 REVERT JUMPDEST DUP7 SWAP3 SWAP2 PUSH1 0x1F NOT DUP4 AND SWAP2 DUP6 PUSH1 0x0 MSTORE DUP8 PUSH1 0x0 KECCAK256 SWAP3 PUSH1 0x0 JUMPDEST DUP10 DUP3 DUP3 LT PUSH3 0x23A3 JUMPI POP POP DUP5 GT PUSH3 0x238A JUMPI JUMPDEST POP POP POP DUP2 SHL ADD SWAP1 SSTORE PUSH3 0x20DC JUMP JUMPDEST ADD MLOAD PUSH1 0x0 NOT DUP4 DUP8 SHL PUSH1 0xF8 AND SHR NOT AND SWAP1 SSTORE CODESIZE DUP1 DUP1 PUSH3 0x237C JUMP JUMPDEST DUP4 DUP6 ADD MLOAD DUP7 SSTORE DUP12 SWAP8 SWAP1 SWAP6 ADD SWAP5 SWAP4 DUP5 ADD SWAP4 ADD PUSH3 0x2369 JUMP JUMPDEST PUSH3 0x23E3 SWAP1 DUP5 PUSH1 0x0 MSTORE DUP7 PUSH1 0x0 KECCAK256 DUP10 DUP1 DUP7 ADD DUP14 SHR DUP3 ADD SWAP3 DUP10 DUP8 LT PUSH3 0x2335 JUMPI ADD DUP13 SHR ADD SWAP1 PUSH3 0x1E1A JUMP JUMPDEST CODESIZE PUSH3 0x20A7 JUMP JUMPDEST DUP7 SWAP3 SWAP2 PUSH1 0x1F NOT DUP4 AND SWAP2 DUP6 PUSH1 0x0 MSTORE DUP8 PUSH1 0x0 KECCAK256 SWAP3 PUSH1 0x0 JUMPDEST DUP10 DUP3 DUP3 LT PUSH3 0x2439 JUMPI POP POP DUP5 GT PUSH3 0x2420 JUMPI JUMPDEST POP POP POP DUP2 SHL ADD SWAP1 SSTORE PUSH3 0x207D JUMP JUMPDEST ADD MLOAD PUSH1 0x0 NOT DUP4 DUP8 SHL PUSH1 0xF8 AND SHR NOT AND SWAP1 SSTORE CODESIZE DUP1 DUP1 PUSH3 0x2412 JUMP JUMPDEST DUP4 DUP6 ADD MLOAD DUP7 SSTORE DUP12 SWAP8 SWAP1 SWAP6 ADD SWAP5 SWAP4 DUP5 ADD SWAP4 ADD PUSH3 0x23FF JUMP JUMPDEST PUSH3 0x2479 SWAP1 DUP5 PUSH1 0x0 MSTORE DUP7 PUSH1 0x0 KECCAK256 DUP10 DUP1 DUP7 ADD DUP14 SHR DUP3 ADD SWAP3 DUP10 DUP8 LT PUSH3 0x2335 JUMPI ADD DUP13 SHR ADD SWAP1 PUSH3 0x1E1A JUMP JUMPDEST CODESIZE PUSH3 0x2048 JUMP JUMPDEST DUP7 SWAP3 SWAP2 PUSH1 0x1F NOT DUP4 AND SWAP2 DUP6 PUSH1 0x0 MSTORE DUP8 PUSH1 0x0 KECCAK256 SWAP3 PUSH1 0x0 JUMPDEST DUP10 DUP3 DUP3 LT PUSH3 0x24CF JUMPI POP POP DUP5 GT PUSH3 0x24B6 JUMPI JUMPDEST POP POP POP DUP2 SHL ADD SWAP1 SSTORE PUSH3 0x201E JUMP JUMPDEST ADD MLOAD PUSH1 0x0 NOT DUP4 DUP8 SHL PUSH1 0xF8 AND SHR NOT AND SWAP1 SSTORE CODESIZE DUP1 DUP1 PUSH3 0x24A8 JUMP JUMPDEST DUP4 DUP6 ADD MLOAD DUP7 SSTORE DUP12 SWAP8 SWAP1 SWAP6 ADD SWAP5 SWAP4 DUP5 ADD SWAP4 ADD PUSH3 0x2495 JUMP JUMPDEST PUSH3 0x250F SWAP1 DUP5 PUSH1 0x0 MSTORE DUP7 PUSH1 0x0 KECCAK256 DUP10 DUP1 DUP7 ADD DUP14 SHR DUP3 ADD SWAP3 DUP10 DUP8 LT PUSH3 0x2335 JUMPI ADD DUP13 SHR ADD SWAP1 PUSH3 0x1E1A JUMP JUMPDEST CODESIZE PUSH3 0x1FE9 JUMP JUMPDEST DUP7 SWAP3 SWAP2 PUSH1 0x1F NOT DUP4 AND SWAP2 DUP6 PUSH1 0x0 MSTORE DUP8 PUSH1 0x0 KECCAK256 SWAP3 PUSH1 0x0 JUMPDEST DUP10 DUP3 DUP3 LT PUSH3 0x2565 JUMPI POP POP DUP5 GT PUSH3 0x254C JUMPI JUMPDEST POP POP POP DUP2 SHL ADD SWAP1 SSTORE PUSH3 0x1FC0 JUMP JUMPDEST ADD MLOAD PUSH1 0x0 NOT DUP4 DUP8 SHL PUSH1 0xF8 AND SHR NOT AND SWAP1 SSTORE CODESIZE DUP1 DUP1 PUSH3 0x253E JUMP JUMPDEST DUP4 DUP6 ADD MLOAD DUP7 SSTORE DUP12 SWAP8 SWAP1 SWAP6 ADD SWAP5 SWAP4 DUP5 ADD SWAP4 ADD PUSH3 0x252B JUMP JUMPDEST PUSH3 0x25A5 SWAP1 DUP5 PUSH1 0x0 MSTORE DUP7 PUSH1 0x0 KECCAK256 DUP10 DUP1 DUP7 ADD DUP14 SHR DUP3 ADD SWAP3 DUP10 DUP8 LT PUSH3 0x2335 JUMPI ADD DUP13 SHR ADD SWAP1 PUSH3 0x1E1A JUMP JUMPDEST CODESIZE PUSH3 0x1F8B JUMP JUMPDEST DUP6 SWAP3 SWAP2 PUSH1 0x1F NOT DUP4 AND SWAP2 DUP6 PUSH1 0x0 MSTORE DUP7 PUSH1 0x0 KECCAK256 SWAP3 PUSH1 0x0 JUMPDEST DUP9 DUP3 DUP3 LT PUSH3 0x25FB JUMPI POP POP DUP5 GT PUSH3 0x25E2 JUMPI JUMPDEST POP POP POP DUP2 SHL ADD SWAP1 SSTORE PUSH3 0x1F56 JUMP JUMPDEST ADD MLOAD PUSH1 0x0 NOT DUP4 DUP12 SHL PUSH1 0xF8 AND SHR NOT AND SWAP1 SSTORE CODESIZE DUP1 DUP1 PUSH3 0x25D4 JUMP JUMPDEST DUP4 DUP6 ADD MLOAD DUP7 SSTORE DUP11 SWAP8 SWAP1 SWAP6 ADD SWAP5 SWAP4 DUP5 ADD SWAP4 ADD PUSH3 0x25C1 JUMP JUMPDEST PUSH3 0x263E SWAP1 DUP5 PUSH1 0x0 MSTORE DUP6 PUSH1 0x0 KECCAK256 DUP9 DUP1 DUP7 ADD PUSH1 0x5 SHR DUP3 ADD SWAP3 DUP9 DUP8 LT PUSH3 0x2645 JUMPI JUMPDEST ADD PUSH1 0x5 SHR ADD SWAP1 PUSH3 0x1E1A JUMP JUMPDEST CODESIZE PUSH3 0x1F21 JUMP JUMPDEST SWAP3 POP DUP2 SWAP3 PUSH3 0x2632 JUMP JUMPDEST PUSH1 0x41 DUP13 PUSH4 0x4E487B71 PUSH1 0xE0 SHL PUSH1 0x0 MSTORE MSTORE PUSH1 0x24 PUSH1 0x0 REVERT JUMPDEST DUP5 SWAP3 SWAP2 DUP13 SWAP2 PUSH1 0x1F NOT DUP5 AND DUP7 PUSH1 0x0 MSTORE DUP4 PUSH1 0x0 KECCAK256 SWAP4 PUSH1 0x0 SWAP1 JUMPDEST DUP3 DUP3 LT PUSH3 0x26B4 JUMPI POP POP DUP5 GT PUSH3 0x269B JUMPI JUMPDEST POP POP POP DUP2 SHL ADD SWAP1 SSTORE PUSH3 0x1EF6 JUMP JUMPDEST ADD MLOAD PUSH1 0x0 NOT DUP4 DUP11 SHL PUSH1 0xF8 AND SHR NOT AND SWAP1 SSTORE CODESIZE DUP1 DUP1 PUSH3 0x268D JUMP JUMPDEST DUP5 DUP5 ADD MLOAD DUP7 SSTORE DUP10 SWAP8 SWAP1 SWAP6 ADD SWAP5 SWAP4 DUP5 ADD SWAP4 SWAP1 DUP2 ADD SWAP1 PUSH3 0x267B JUMP JUMPDEST PUSH3 0x26F9 SWAP2 DUP6 PUSH1 0x0 MSTORE DUP8 DUP3 PUSH1 0x0 KECCAK256 SWAP2 DUP2 DUP8 ADD PUSH1 0x5 SHR DUP4 ADD SWAP4 DUP8 LT PUSH3 0x2645 JUMPI ADD PUSH1 0x5 SHR ADD SWAP1 PUSH3 0x1E1A JUMP JUMPDEST CODESIZE DUP12 PUSH3 0x1EBF JUMP JUMPDEST SWAP1 DUP2 SLOAD PUSH1 0x1 PUSH1 0x40 SHL DUP2 LT ISZERO PUSH3 0x74E JUMPI PUSH1 0x1 DUP2 ADD DUP1 DUP5 SSTORE DUP2 LT ISZERO PUSH3 0x738 JUMPI PUSH3 0x1901 SWAP3 PUSH1 0x0 MSTORE PUSH1 0xD PUSH1 0x20 PUSH1 0x0 KECCAK256 SWAP2 MUL ADD PUSH3 0x1E33 JUMP JUMPDEST PUSH1 0x2 PUSH1 0x0 SLOAD EQ PUSH3 0x274A JUMPI PUSH1 0x2 PUSH1 0x0 SSTORE JUMP JUMPDEST PUSH1 0x40 MLOAD PUSH4 0x3EE5AEB5 PUSH1 0xE0 SHL DUP2 MSTORE PUSH1 0x4 SWAP1 REVERT JUMPDEST SWAP1 DUP2 PUSH1 0x20 SWAP2 SUB SLT PUSH3 0xE78 JUMPI MLOAD DUP1 ISZERO ISZERO DUP2 SUB PUSH3 0xE78 JUMPI SWAP1 JUMP JUMPDEST PUSH3 0x27E0 SWAP3 PUSH1 0x20 SWAP3 SWAP1 SWAP2 SWAP1 PUSH1 0x1 PUSH1 0x1 PUSH1 0xA0 SHL SUB SWAP1 PUSH3 0x2799 DUP3 DUP5 AND ISZERO ISZERO PUSH3 0x1D3E JUMP JUMPDEST AND SWAP1 PUSH3 0x27A8 DUP3 ISZERO ISZERO PUSH3 0x1D3E JUMP JUMPDEST PUSH1 0x40 MLOAD PUSH4 0x95EA7B3 PUSH1 0xE0 SHL DUP2 MSTORE PUSH1 0x1 PUSH1 0x1 PUSH1 0xA0 SHL SUB SWAP1 SWAP2 AND PUSH1 0x4 DUP3 ADD MSTORE PUSH1 0x24 DUP2 ADD SWAP3 SWAP1 SWAP3 MSTORE SWAP1 SWAP3 DUP4 SWAP2 SWAP1 DUP3 SWAP1 PUSH1 0x0 SWAP1 DUP3 SWAP1 PUSH1 0x44 DUP3 ADD SWAP1 JUMP JUMPDEST SUB SWAP3 GAS CALL DUP1 ISZERO PUSH3 0x281B JUMPI PUSH3 0x27F7 JUMPI JUMPDEST POP PUSH1 0x1 SWAP1 JUMP JUMPDEST PUSH3 0x2813 SWAP1 PUSH1 0x20 RETURNDATASIZE PUSH1 0x20 GT PUSH3 0x14A0 JUMPI PUSH3 0x148F DUP2 DUP4 PUSH3 0x1896 JUMP JUMPDEST POP CODESIZE PUSH3 0x27F1 JUMP JUMPDEST PUSH1 0x40 MLOAD RETURNDATASIZE PUSH1 0x0 DUP3 RETURNDATACOPY RETURNDATASIZE SWAP1 REVERT JUMPDEST PUSH1 0x1 PUSH1 0x1 PUSH1 0xA0 SHL SUB SWAP1 DUP2 AND PUSH3 0x283F DUP2 ISZERO ISZERO PUSH3 0x1D3E JUMP JUMPDEST PUSH1 0x8 SLOAD SWAP2 PUSH1 0x0 JUMPDEST DUP4 DUP2 LT PUSH3 0x2857 JUMPI POP POP POP POP PUSH1 0x0 SWAP1 JUMP JUMPDEST DUP3 DUP3 PUSH3 0x2864 DUP4 PUSH3 0x1C72 JUMP JUMPDEST POP SLOAD AND EQ PUSH3 0x2876 JUMPI PUSH1 0x1 ADD PUSH3 0x2846 JUMP JUMPDEST POP POP POP POP PUSH1 0x1 SWAP1 JUMP JUMPDEST PUSH3 0x288B DUP2 SLOAD PUSH3 0x181E JUMP JUMPDEST SWAP1 DUP2 PUSH3 0x2896 JUMPI POP POP JUMP JUMPDEST DUP2 PUSH1 0x1F PUSH1 0x0 SWAP4 GT PUSH1 0x1 EQ PUSH3 0x28A9 JUMPI POP SSTORE JUMP JUMPDEST SWAP1 DUP1 DUP4 SWAP2 DUP3 MSTORE PUSH3 0x28CA PUSH1 0x1F PUSH1 0x20 DUP5 KECCAK256 SWAP5 ADD PUSH1 0x5 SHR DUP5 ADD PUSH1 0x1 DUP6 ADD PUSH3 0x1E1A JUMP JUMPDEST SSTORE SSTORE JUMP JUMPDEST DUP2 MLOAD DUP2 SLOAD PUSH1 0x1 PUSH1 0x1 PUSH1 0xA0 SHL SUB NOT AND PUSH1 0x1 PUSH1 0x1 PUSH1 0xA0 SHL SUB SWAP2 SWAP1 SWAP2 AND OR DUP2 SSTORE PUSH1 0x20 SWAP2 DUP3 ADD MLOAD DUP1 MLOAD PUSH1 0x1 SWAP4 SWAP1 SWAP3 DUP5 ADD SWAP2 PUSH1 0x1 PUSH1 0x40 SHL DUP5 GT PUSH3 0x74E JUMPI DUP3 SLOAD DUP5 DUP5 SSTORE DUP1 DUP6 LT PUSH3 0x2955 JUMPI JUMPDEST POP PUSH1 0x20 ADD SWAP2 PUSH1 0x0 MSTORE PUSH1 0x20 PUSH1 0x0 KECCAK256 PUSH1 0x0 SWAP3 JUMPDEST DUP5 DUP5 LT PUSH3 0x2936 JUMPI POP POP POP POP POP POP JUMP JUMPDEST PUSH1 0xD DUP4 DUP3 PUSH3 0x2948 DUP10 SWAP5 MLOAD DUP7 PUSH3 0x1E33 JUMP JUMPDEST ADD SWAP3 ADD SWAP4 ADD SWAP3 SWAP1 PUSH3 0x2926 JUMP JUMPDEST PUSH1 0xD SWAP1 DUP1 PUSH1 0xD MUL SWAP1 PUSH1 0xD DUP3 DIV SUB PUSH3 0x1DF0 JUMPI DUP6 PUSH1 0xD MUL PUSH1 0xD DUP2 DIV DUP8 SUB PUSH3 0x1DF0 JUMPI PUSH1 0x0 SWAP1 DUP7 DUP3 MSTORE PUSH1 0x20 DUP3 KECCAK256 SWAP3 DUP4 ADD SWAP3 ADD JUMPDEST DUP3 DUP2 LT PUSH3 0x2997 JUMPI POP POP POP PUSH3 0x2915 JUMP JUMPDEST DUP1 DUP3 DUP6 SWAP3 SSTORE DUP3 DUP11 DUP3 ADD SSTORE DUP3 PUSH1 0x2 DUP3 ADD SSTORE PUSH3 0x29B5 PUSH1 0x3 DUP3 ADD PUSH3 0x287F JUMP JUMPDEST PUSH3 0x29C3 PUSH1 0x4 DUP3 ADD PUSH3 0x287F JUMP JUMPDEST DUP3 PUSH1 0x5 DUP3 ADD SSTORE PUSH3 0x29D7 PUSH1 0x6 DUP3 ADD PUSH3 0x287F JUMP JUMPDEST PUSH3 0x29E5 PUSH1 0x7 DUP3 ADD PUSH3 0x287F JUMP JUMPDEST PUSH3 0x29F3 PUSH1 0x8 DUP3 ADD PUSH3 0x287F JUMP JUMPDEST PUSH3 0x2A01 PUSH1 0x9 DUP3 ADD PUSH3 0x287F JUMP JUMPDEST PUSH3 0x2A0F PUSH1 0xA DUP3 ADD PUSH3 0x287F JUMP JUMPDEST PUSH3 0x2A1D PUSH1 0xB DUP3 ADD PUSH3 0x287F JUMP JUMPDEST DUP3 PUSH1 0xC DUP3 ADD SSTORE ADD PUSH3 0x2986 JUMP INVALID PUSH1 0x40 PUSH1 0x80 DUP2 MSTORE CALLVALUE PUSH3 0x429 JUMPI PUSH3 0x10AB DUP1 CODESIZE SUB DUP1 PUSH3 0x1E DUP2 PUSH3 0x42E JUMP JUMPDEST SWAP3 DUP4 CODECOPY DUP2 ADD SWAP1 PUSH1 0x80 DUP2 DUP4 SUB SLT PUSH3 0x429 JUMPI DUP1 MLOAD PUSH1 0x1 PUSH1 0x1 PUSH1 0x40 SHL SUB SWAP2 SWAP1 DUP3 DUP2 GT PUSH3 0x429 JUMPI DUP4 PUSH3 0x51 SWAP2 DUP4 ADD PUSH3 0x46A JUMP JUMPDEST SWAP1 PUSH1 0x20 SWAP4 DUP5 DUP3 ADD MLOAD SWAP1 DUP5 DUP3 GT PUSH3 0x429 JUMPI PUSH3 0x6F SWAP2 DUP4 ADD PUSH3 0x46A JUMP JUMPDEST PUSH1 0x60 DUP7 DUP4 ADD MLOAD SWAP3 ADD MLOAD SWAP1 PUSH1 0x0 SWAP5 CALLER PUSH1 0x1 DUP1 PUSH1 0xA0 SHL SUB NOT DUP8 SLOAD AND OR DUP7 SSTORE CALLER DUP7 PUSH32 0x8BE0079C531659141344CD1FD0A4F28419497F9722A3DAAFE3B4186F6B6457E0 DUP2 DUP1 LOG3 DUP5 MLOAD DUP2 DUP2 GT PUSH3 0x343 JUMPI PUSH1 0x2 SLOAD SWAP1 PUSH1 0x1 SWAP7 DUP8 DUP4 DUP2 SHR SWAP4 AND DUP1 ISZERO PUSH3 0x41E JUMPI JUMPDEST DUP11 DUP5 LT EQ PUSH3 0x324 JUMPI DUP2 SWAP1 PUSH1 0x1F SWAP4 DUP5 DUP2 GT PUSH3 0x3CA JUMPI JUMPDEST POP DUP11 SWAP1 DUP5 DUP4 GT PUSH1 0x1 EQ PUSH3 0x363 JUMPI DUP11 SWAP3 PUSH3 0x357 JUMPI JUMPDEST POP POP PUSH1 0x0 NOT PUSH1 0x3 DUP4 SWAP1 SHL SHR NOT AND SWAP1 DUP8 SHL OR PUSH1 0x2 SSTORE JUMPDEST DUP3 MLOAD SWAP2 DUP3 GT PUSH3 0x343 JUMPI PUSH1 0x3 SWAP3 DUP4 SLOAD DUP8 DUP2 DUP2 SHR SWAP2 AND DUP1 ISZERO PUSH3 0x338 JUMPI JUMPDEST DUP11 DUP3 LT EQ PUSH3 0x324 JUMPI SWAP1 DUP2 DUP4 DUP6 SWAP5 SWAP4 GT PUSH3 0x2CF JUMPI JUMPDEST POP DUP10 SWAP2 DUP4 GT PUSH1 0x1 EQ PUSH3 0x26C JUMPI DUP9 SWAP3 PUSH3 0x260 JUMPI JUMPDEST POP POP PUSH1 0x0 NOT DUP3 DUP5 SHL SHR NOT AND SWAP1 DUP6 SHL OR SWAP1 SSTORE JUMPDEST PUSH8 0xDE0B6B3A7640000 SWAP2 DUP3 DUP2 MUL SWAP3 DUP2 DUP5 DIV EQ SWAP1 ISZERO OR ISZERO PUSH3 0x24C JUMPI DUP2 DUP4 SSTORE PUSH1 0x5 DUP2 GT PUSH3 0x1FE JUMPI SWAP1 PUSH32 0xDDF252AD1BE2C89B69C2B068FC378DAA952BA7F163C4A11628F55A4DF523B3EF SWAP3 SWAP2 PUSH1 0x4 SSTORE CALLER DUP5 MSTORE PUSH1 0x5 DUP6 MSTORE DUP6 DUP5 KECCAK256 SSTORE PUSH1 0x7 DUP5 MSTORE DUP5 DUP4 KECCAK256 PUSH1 0xFF NOT SWAP1 DUP3 DUP3 DUP3 SLOAD AND OR SWAP1 SSTORE ADDRESS DUP5 MSTORE DUP2 DUP7 DUP6 KECCAK256 SWAP2 DUP3 SLOAD AND OR SWAP1 SSTORE SLOAD SWAP3 DUP5 MLOAD SWAP4 DUP5 MSTORE CALLER SWAP4 LOG3 MLOAD PUSH2 0xBCE SWAP1 DUP2 PUSH3 0x4DD DUP3 CODECOPY RETURN JUMPDEST DUP6 MLOAD PUSH3 0x461BCD PUSH1 0xE5 SHL DUP2 MSTORE PUSH1 0x4 DUP2 ADD DUP7 SWAP1 MSTORE PUSH1 0x21 PUSH1 0x24 DUP3 ADD MSTORE PUSH32 0x4D6178205472616E73616374696F6E2063616E6E6F7420657863656564203525 PUSH1 0x44 DUP3 ADD MSTORE PUSH1 0x17 PUSH1 0xF9 SHL PUSH1 0x64 DUP3 ADD MSTORE PUSH1 0x84 SWAP1 REVERT JUMPDEST PUSH4 0x4E487B71 PUSH1 0xE0 SHL DUP5 MSTORE PUSH1 0x11 PUSH1 0x4 MSTORE PUSH1 0x24 DUP5 REVERT JUMPDEST ADD MLOAD SWAP1 POP CODESIZE DUP1 PUSH3 0x15A JUMP JUMPDEST DUP5 DUP10 MSTORE DUP10 DUP10 KECCAK256 DUP9 SWAP5 POP SWAP2 SWAP1 PUSH1 0x1F NOT DUP5 AND DUP11 JUMPDEST DUP13 DUP3 DUP3 LT PUSH3 0x2B8 JUMPI POP POP DUP5 GT PUSH3 0x29F JUMPI JUMPDEST POP POP POP DUP2 SHL ADD SWAP1 SSTORE PUSH3 0x16C JUMP JUMPDEST ADD MLOAD PUSH1 0x0 NOT DUP4 DUP7 SHL PUSH1 0xF8 AND SHR NOT AND SWAP1 SSTORE CODESIZE DUP1 DUP1 PUSH3 0x291 JUMP JUMPDEST DUP4 DUP6 ADD MLOAD DUP7 SSTORE DUP12 SWAP8 SWAP1 SWAP6 ADD SWAP5 SWAP4 DUP5 ADD SWAP4 ADD PUSH3 0x27E JUMP JUMPDEST SWAP1 SWAP2 SWAP3 POP DUP5 DUP10 MSTORE DUP10 DUP10 KECCAK256 DUP4 DUP1 DUP7 ADD PUSH1 0x5 SHR DUP3 ADD SWAP3 DUP13 DUP8 LT PUSH3 0x31A JUMPI JUMPDEST SWAP2 DUP7 SWAP6 DUP12 SWAP3 SWAP6 SWAP5 SWAP4 ADD PUSH1 0x5 SHR ADD SWAP2 JUMPDEST DUP3 DUP2 LT PUSH3 0x30B JUMPI POP POP PUSH3 0x145 JUMP JUMPDEST DUP12 DUP2 SSTORE DUP7 SWAP6 POP DUP11 SWAP2 ADD PUSH3 0x2FB JUMP JUMPDEST SWAP3 POP DUP2 SWAP3 PUSH3 0x2EC JUMP JUMPDEST PUSH4 0x4E487B71 PUSH1 0xE0 SHL DUP10 MSTORE PUSH1 0x22 PUSH1 0x4 MSTORE PUSH1 0x24 DUP10 REVERT JUMPDEST SWAP1 PUSH1 0x7F AND SWAP1 PUSH3 0x12F JUMP JUMPDEST PUSH4 0x4E487B71 PUSH1 0xE0 SHL DUP8 MSTORE PUSH1 0x41 PUSH1 0x4 MSTORE PUSH1 0x24 DUP8 REVERT JUMPDEST ADD MLOAD SWAP1 POP CODESIZE DUP1 PUSH3 0xFD JUMP JUMPDEST PUSH1 0x2 DUP12 MSTORE DUP12 DUP12 KECCAK256 DUP11 SWAP5 POP SWAP2 SWAP1 PUSH1 0x1F NOT DUP5 AND DUP13 DUP15 JUMPDEST DUP3 DUP3 LT PUSH3 0x3B2 JUMPI POP POP DUP5 GT PUSH3 0x398 JUMPI JUMPDEST POP POP POP DUP2 SHL ADD PUSH1 0x2 SSTORE PUSH3 0x112 JUMP JUMPDEST ADD MLOAD PUSH1 0x0 NOT PUSH1 0xF8 DUP5 PUSH1 0x3 SHL AND SHR NOT AND SWAP1 SSTORE CODESIZE DUP1 DUP1 PUSH3 0x389 JUMP JUMPDEST DUP4 DUP6 ADD MLOAD DUP7 SSTORE DUP14 SWAP8 SWAP1 SWAP6 ADD SWAP5 SWAP4 DUP5 ADD SWAP4 ADD DUP15 PUSH3 0x377 JUMP JUMPDEST SWAP1 SWAP2 POP PUSH1 0x2 DUP11 MSTORE DUP11 DUP11 KECCAK256 DUP5 DUP1 DUP6 ADD PUSH1 0x5 SHR DUP3 ADD SWAP3 DUP14 DUP7 LT PUSH3 0x414 JUMPI JUMPDEST SWAP2 DUP12 SWAP2 DUP7 SWAP6 SWAP5 SWAP4 ADD PUSH1 0x5 SHR ADD SWAP2 JUMPDEST DUP3 DUP2 LT PUSH3 0x405 JUMPI POP POP PUSH3 0xE7 JUMP JUMPDEST DUP13 DUP2 SSTORE DUP6 SWAP5 POP DUP12 SWAP2 ADD PUSH3 0x3F5 JUMP JUMPDEST SWAP3 POP DUP2 SWAP3 PUSH3 0x3E7 JUMP JUMPDEST SWAP3 PUSH1 0x7F AND SWAP3 PUSH3 0xD0 JUMP JUMPDEST PUSH1 0x0 DUP1 REVERT JUMPDEST PUSH1 0x40 MLOAD SWAP2 SWAP1 PUSH1 0x1F ADD PUSH1 0x1F NOT AND DUP3 ADD PUSH1 0x1 PUSH1 0x1 PUSH1 0x40 SHL SUB DUP2 GT DUP4 DUP3 LT OR PUSH3 0x454 JUMPI PUSH1 0x40 MSTORE JUMP JUMPDEST PUSH4 0x4E487B71 PUSH1 0xE0 SHL PUSH1 0x0 MSTORE PUSH1 0x41 PUSH1 0x4 MSTORE PUSH1 0x24 PUSH1 0x0 REVERT JUMPDEST SWAP2 SWAP1 DUP1 PUSH1 0x1F DUP5 ADD SLT ISZERO PUSH3 0x429 JUMPI DUP3 MLOAD PUSH1 0x1 PUSH1 0x1 PUSH1 0x40 SHL SUB DUP2 GT PUSH3 0x454 JUMPI PUSH1 0x20 SWAP1 PUSH3 0x4A0 PUSH1 0x1F DUP3 ADD PUSH1 0x1F NOT AND DUP4 ADD PUSH3 0x42E JUMP JUMPDEST SWAP3 DUP2 DUP5 MSTORE DUP3 DUP3 DUP8 ADD ADD GT PUSH3 0x429 JUMPI PUSH1 0x0 JUMPDEST DUP2 DUP2 LT PUSH3 0x4C8 JUMPI POP DUP3 PUSH1 0x0 SWAP4 SWAP5 SWAP6 POP ADD ADD MSTORE SWAP1 JUMP JUMPDEST DUP6 DUP2 ADD DUP4 ADD MLOAD DUP5 DUP3 ADD DUP5 ADD MSTORE DUP3 ADD PUSH3 0x4B2 JUMP INVALID PUSH1 0x80 PUSH1 0x40 DUP2 DUP2 MSTORE PUSH1 0x4 SWAP2 DUP3 CALLDATASIZE LT ISZERO PUSH2 0x16 JUMPI PUSH1 0x0 DUP1 REVERT JUMPDEST PUSH1 0x0 SWAP3 DUP4 CALLDATALOAD PUSH1 0xE0 SHR SWAP2 DUP3 PUSH4 0x6FDDE03 EQ PUSH2 0x5B5 JUMPI POP DUP2 PUSH4 0x95EA7B3 EQ PUSH2 0x58B JUMPI DUP2 PUSH4 0x18160DDD EQ PUSH2 0x56C JUMPI DUP2 PUSH4 0x23B872DD EQ PUSH2 0x497 JUMPI DUP2 PUSH4 0x313CE567 EQ PUSH2 0x47B JUMPI DUP2 PUSH4 0x70A08231 EQ PUSH2 0x443 JUMPI DUP2 PUSH4 0x715018A6 EQ PUSH2 0x3E4 JUMPI DUP2 PUSH4 0x7437681E EQ PUSH2 0x3C6 JUMPI DUP2 PUSH4 0x8DA5CB5B EQ PUSH2 0x39E JUMPI DUP2 PUSH4 0x95D89B41 EQ PUSH2 0x299 JUMPI DUP2 PUSH4 0xA9059CBB EQ PUSH2 0x268 JUMPI DUP2 PUSH4 0xC2D0FFCA EQ PUSH2 0x1B9 JUMPI DUP2 PUSH4 0xDB4CF1E0 EQ PUSH2 0x10A JUMPI POP PUSH4 0xDD62ED3E EQ PUSH2 0xBF JUMPI PUSH1 0x0 DUP1 REVERT JUMPDEST CALLVALUE PUSH2 0x106 JUMPI DUP1 PUSH1 0x3 NOT CALLDATASIZE ADD SLT PUSH2 0x106 JUMPI DUP1 PUSH1 0x20 SWAP3 PUSH2 0xDB PUSH2 0x6BD JUMP JUMPDEST PUSH2 0xE3 PUSH2 0x6D8 JUMP JUMPDEST PUSH1 0x1 PUSH1 0x1 PUSH1 0xA0 SHL SUB SWAP2 DUP3 AND DUP4 MSTORE PUSH1 0x6 DUP7 MSTORE DUP4 DUP4 KECCAK256 SWAP2 AND DUP3 MSTORE DUP5 MSTORE KECCAK256 SLOAD SWAP1 MLOAD SWAP1 DUP2 MSTORE RETURN JUMPDEST POP DUP1 REVERT JUMPDEST SWAP1 POP CALLVALUE PUSH2 0x1B5 JUMPI PUSH1 0x20 CALLDATASIZE PUSH1 0x3 NOT ADD SLT PUSH2 0x1B5 JUMPI PUSH2 0x125 PUSH2 0x6BD JUMP JUMPDEST DUP4 SLOAD PUSH1 0x1 PUSH1 0x1 PUSH1 0xA0 SHL SUB SWAP2 SWAP1 PUSH2 0x13E SWAP1 DUP4 AND CALLER EQ PUSH2 0x726 JUMP JUMPDEST AND SWAP1 DUP2 ISZERO PUSH2 0x15E JUMPI POP DUP3 MSTORE PUSH1 0x7 PUSH1 0x20 MSTORE DUP2 KECCAK256 DUP1 SLOAD PUSH1 0xFF NOT AND PUSH1 0x1 OR SWAP1 SSTORE DUP1 RETURN JUMPDEST PUSH1 0x84 SWAP1 PUSH1 0x20 DUP5 MLOAD SWAP2 PUSH3 0x461BCD PUSH1 0xE5 SHL DUP4 MSTORE DUP3 ADD MSTORE PUSH1 0x2B PUSH1 0x24 DUP3 ADD MSTORE PUSH32 0x45524332303A204578636C756465204D61782054782066726F6D20746865207A PUSH1 0x44 DUP3 ADD MSTORE PUSH11 0x65726F2061646472657373 PUSH1 0xA8 SHL PUSH1 0x64 DUP3 ADD MSTORE REVERT JUMPDEST DUP3 DUP1 REVERT JUMPDEST SWAP2 SWAP1 POP CALLVALUE PUSH2 0x1B5 JUMPI PUSH1 0x20 CALLDATASIZE PUSH1 0x3 NOT ADD SLT PUSH2 0x1B5 JUMPI DUP2 CALLDATALOAD SWAP2 PUSH2 0x1E4 PUSH1 0x1 DUP1 PUSH1 0xA0 SHL SUB DUP6 SLOAD AND CALLER EQ PUSH2 0x726 JUMP JUMPDEST PUSH1 0x5 DUP4 GT PUSH2 0x21C JUMPI SWAP2 PUSH1 0x20 SWAP2 DUP2 PUSH32 0xFF3DD5E80294197918C284BBFC3DADD97D0B40CE92106110946329088F80068A SWAP5 SSTORE MLOAD SWAP1 DUP2 MSTORE LOG1 DUP1 RETURN JUMPDEST PUSH1 0x20 PUSH1 0x84 SWAP3 MLOAD SWAP2 PUSH3 0x461BCD PUSH1 0xE5 SHL DUP4 MSTORE DUP3 ADD MSTORE PUSH1 0x21 PUSH1 0x24 DUP3 ADD MSTORE PUSH32 0x4D6178205472616E73616374696F6E2063616E6E6F7420657863656564203525 PUSH1 0x44 DUP3 ADD MSTORE PUSH1 0x17 PUSH1 0xF9 SHL PUSH1 0x64 DUP3 ADD MSTORE REVERT JUMPDEST POP POP CALLVALUE PUSH2 0x106 JUMPI DUP1 PUSH1 0x3 NOT CALLDATASIZE ADD SLT PUSH2 0x106 JUMPI PUSH1 0x20 SWAP1 PUSH2 0x292 PUSH2 0x288 PUSH2 0x6BD JUMP JUMPDEST PUSH1 0x24 CALLDATALOAD SWAP1 CALLER PUSH2 0x873 JUMP JUMPDEST MLOAD PUSH1 0x1 DUP2 MSTORE RETURN JUMPDEST SWAP2 SWAP1 POP CALLVALUE PUSH2 0x1B5 JUMPI DUP3 PUSH1 0x3 NOT CALLDATASIZE ADD SLT PUSH2 0x1B5 JUMPI DUP1 MLOAD SWAP2 DUP4 PUSH1 0x3 SLOAD SWAP1 PUSH1 0x1 SWAP1 DUP3 PUSH1 0x1 SHR SWAP3 PUSH1 0x1 DUP2 AND DUP1 ISZERO PUSH2 0x394 JUMPI JUMPDEST PUSH1 0x20 SWAP6 DUP7 DUP7 LT DUP3 EQ PUSH2 0x381 JUMPI POP DUP5 DUP9 MSTORE SWAP1 DUP2 ISZERO PUSH2 0x35F JUMPI POP PUSH1 0x1 EQ PUSH2 0x306 JUMPI JUMPDEST PUSH2 0x302 DUP7 DUP7 PUSH2 0x2F8 DUP3 DUP12 SUB DUP4 PUSH2 0x6EE JUMP JUMPDEST MLOAD SWAP2 DUP3 SWAP2 DUP3 PUSH2 0x674 JUMP JUMPDEST SUB SWAP1 RETURN JUMPDEST SWAP3 SWAP6 POP PUSH1 0x3 DUP4 MSTORE PUSH32 0xC2575A0E9E593C00F959F8C92F12DB2869C3395A3B0502D05E2516446F71F85B JUMPDEST DUP3 DUP5 LT PUSH2 0x34C JUMPI POP POP POP DUP3 PUSH2 0x302 SWAP5 PUSH2 0x2F8 SWAP3 DUP3 ADD ADD SWAP5 CODESIZE PUSH2 0x2E7 JUMP JUMPDEST DUP1 SLOAD DUP7 DUP6 ADD DUP9 ADD MSTORE SWAP3 DUP7 ADD SWAP3 DUP2 ADD PUSH2 0x32F JUMP JUMPDEST PUSH1 0xFF NOT AND DUP8 DUP7 ADD MSTORE POP POP POP ISZERO ISZERO PUSH1 0x5 SHL DUP4 ADD ADD SWAP3 POP PUSH2 0x2F8 DUP3 PUSH2 0x302 CODESIZE PUSH2 0x2E7 JUMP JUMPDEST PUSH4 0x4E487B71 PUSH1 0xE0 SHL DUP5 MSTORE PUSH1 0x22 SWAP1 MSTORE PUSH1 0x24 DUP4 REVERT JUMPDEST SWAP4 PUSH1 0x7F AND SWAP4 PUSH2 0x2C7 JUMP JUMPDEST POP POP CALLVALUE PUSH2 0x106 JUMPI DUP2 PUSH1 0x3 NOT CALLDATASIZE ADD SLT PUSH2 0x106 JUMPI SWAP1 SLOAD SWAP1 MLOAD PUSH1 0x1 PUSH1 0x1 PUSH1 0xA0 SHL SUB SWAP1 SWAP2 AND DUP2 MSTORE PUSH1 0x20 SWAP1 RETURN JUMPDEST SWAP1 POP CALLVALUE PUSH2 0x1B5 JUMPI DUP3 PUSH1 0x3 NOT CALLDATASIZE ADD SLT PUSH2 0x1B5 JUMPI PUSH1 0x20 SWAP3 POP SLOAD SWAP1 MLOAD SWAP1 DUP2 MSTORE RETURN JUMPDEST DUP4 CALLVALUE PUSH2 0x440 JUMPI DUP1 PUSH1 0x3 NOT CALLDATASIZE ADD SLT PUSH2 0x440 JUMPI DUP1 SLOAD DUP2 PUSH1 0x1 PUSH1 0x1 PUSH1 0xA0 SHL SUB DUP3 AND PUSH2 0x40D CALLER DUP3 EQ PUSH2 0x726 JUMP JUMPDEST PUSH32 0x8BE0079C531659141344CD1FD0A4F28419497F9722A3DAAFE3B4186F6B6457E0 DUP3 DUP1 LOG3 PUSH1 0x1 PUSH1 0x1 PUSH1 0xA0 SHL SUB NOT AND DUP2 SSTORE DUP1 RETURN JUMPDEST DUP1 REVERT JUMPDEST POP POP CALLVALUE PUSH2 0x106 JUMPI PUSH1 0x20 CALLDATASIZE PUSH1 0x3 NOT ADD SLT PUSH2 0x106 JUMPI PUSH1 0x20 SWAP2 DUP2 SWAP1 PUSH1 0x1 PUSH1 0x1 PUSH1 0xA0 SHL SUB PUSH2 0x46B PUSH2 0x6BD JUMP JUMPDEST AND DUP2 MSTORE PUSH1 0x5 DUP5 MSTORE KECCAK256 SLOAD SWAP1 MLOAD SWAP1 DUP2 MSTORE RETURN JUMPDEST POP POP CALLVALUE PUSH2 0x106 JUMPI DUP2 PUSH1 0x3 NOT CALLDATASIZE ADD SLT PUSH2 0x106 JUMPI PUSH1 0x20 SWAP1 MLOAD PUSH1 0x12 DUP2 MSTORE RETURN JUMPDEST DUP3 DUP5 CALLVALUE PUSH2 0x440 JUMPI PUSH1 0x60 CALLDATASIZE PUSH1 0x3 NOT ADD SLT PUSH2 0x440 JUMPI PUSH2 0x4B2 PUSH2 0x6BD JUMP JUMPDEST SWAP1 PUSH2 0x4BB PUSH2 0x6D8 JUMP JUMPDEST PUSH2 0x4C9 PUSH1 0x44 CALLDATALOAD DUP1 SWAP3 DUP6 PUSH2 0x873 JUMP JUMPDEST PUSH1 0x1 PUSH1 0x1 PUSH1 0xA0 SHL SUB DUP4 AND DUP3 MSTORE PUSH1 0x6 PUSH1 0x20 SWAP1 DUP2 MSTORE DUP5 DUP4 KECCAK256 CALLER DUP5 MSTORE SWAP1 MSTORE DUP4 DUP3 KECCAK256 SLOAD DUP5 MLOAD SWAP3 PUSH1 0x60 DUP5 ADD SWAP1 PUSH8 0xFFFFFFFFFFFFFFFF DUP3 GT DUP6 DUP4 LT OR PUSH2 0x559 JUMPI PUSH1 0x20 DUP8 PUSH2 0x292 DUP9 PUSH2 0x551 DUP10 DUP10 DUP10 DUP10 DUP8 MSTORE PUSH1 0x28 DUP4 MSTORE PUSH32 0x45524332303A207472616E7366657220616D6F756E7420657863656564732061 DUP9 DUP5 ADD MSTORE PUSH8 0x6C6C6F77616E6365 PUSH1 0xC0 SHL DUP8 DUP5 ADD MSTORE PUSH2 0xB4D JUMP JUMPDEST SWAP1 CALLER SWAP1 PUSH2 0x771 JUMP JUMPDEST PUSH4 0x4E487B71 PUSH1 0xE0 SHL DUP2 MSTORE PUSH1 0x41 DUP9 MSTORE PUSH1 0x24 SWAP1 REVERT JUMPDEST POP POP CALLVALUE PUSH2 0x106 JUMPI DUP2 PUSH1 0x3 NOT CALLDATASIZE ADD SLT PUSH2 0x106 JUMPI PUSH1 0x20 SWAP1 PUSH1 0x1 SLOAD SWAP1 MLOAD SWAP1 DUP2 MSTORE RETURN JUMPDEST POP POP CALLVALUE PUSH2 0x106 JUMPI DUP1 PUSH1 0x3 NOT CALLDATASIZE ADD SLT PUSH2 0x106 JUMPI PUSH1 0x20 SWAP1 PUSH2 0x292 PUSH2 0x5AB PUSH2 0x6BD JUMP JUMPDEST PUSH1 0x24 CALLDATALOAD SWAP1 CALLER PUSH2 0x771 JUMP JUMPDEST SWAP3 SWAP2 POP CALLVALUE PUSH2 0x670 JUMPI DUP4 PUSH1 0x3 NOT CALLDATASIZE ADD SLT PUSH2 0x670 JUMPI PUSH1 0x2 SLOAD PUSH1 0x1 DUP2 DUP2 SHR SWAP2 DUP7 SWAP1 DUP3 DUP2 AND DUP1 ISZERO PUSH2 0x666 JUMPI JUMPDEST PUSH1 0x20 SWAP6 DUP7 DUP7 LT DUP3 EQ PUSH2 0x381 JUMPI POP DUP5 DUP9 MSTORE SWAP1 DUP2 ISZERO PUSH2 0x35F JUMPI POP PUSH1 0x1 EQ PUSH2 0x60D JUMPI PUSH2 0x302 DUP7 DUP7 PUSH2 0x2F8 DUP3 DUP12 SUB DUP4 PUSH2 0x6EE JUMP JUMPDEST SWAP3 SWAP6 POP PUSH1 0x2 DUP4 MSTORE PUSH32 0x405787FA12A823E0F2B7631CC41B3BA8828B3321CA811111FA75CD3AA3BB5ACE JUMPDEST DUP3 DUP5 LT PUSH2 0x653 JUMPI POP POP POP DUP3 PUSH2 0x302 SWAP5 PUSH2 0x2F8 SWAP3 DUP3 ADD ADD SWAP5 CODESIZE PUSH2 0x2E7 JUMP JUMPDEST DUP1 SLOAD DUP7 DUP6 ADD DUP9 ADD MSTORE SWAP3 DUP7 ADD SWAP3 DUP2 ADD PUSH2 0x636 JUMP JUMPDEST SWAP4 PUSH1 0x7F AND SWAP4 PUSH2 0x5DD JUMP JUMPDEST DUP4 DUP1 REVERT JUMPDEST PUSH1 0x20 DUP1 DUP3 MSTORE DUP3 MLOAD DUP2 DUP4 ADD DUP2 SWAP1 MSTORE SWAP1 SWAP4 SWAP3 PUSH1 0x0 JUMPDEST DUP3 DUP2 LT PUSH2 0x6A9 JUMPI POP POP PUSH1 0x40 SWAP3 SWAP4 POP PUSH1 0x0 DUP4 DUP3 DUP5 ADD ADD MSTORE PUSH1 0x1F DUP1 NOT SWAP2 ADD AND ADD ADD SWAP1 JUMP JUMPDEST DUP2 DUP2 ADD DUP7 ADD MLOAD DUP5 DUP3 ADD PUSH1 0x40 ADD MSTORE DUP6 ADD PUSH2 0x687 JUMP JUMPDEST PUSH1 0x4 CALLDATALOAD SWAP1 PUSH1 0x1 PUSH1 0x1 PUSH1 0xA0 SHL SUB DUP3 AND DUP3 SUB PUSH2 0x6D3 JUMPI JUMP JUMPDEST PUSH1 0x0 DUP1 REVERT JUMPDEST PUSH1 0x24 CALLDATALOAD SWAP1 PUSH1 0x1 PUSH1 0x1 PUSH1 0xA0 SHL SUB DUP3 AND DUP3 SUB PUSH2 0x6D3 JUMPI JUMP JUMPDEST SWAP1 PUSH1 0x1F DUP1 NOT SWAP2 ADD AND DUP2 ADD SWAP1 DUP2 LT PUSH8 0xFFFFFFFFFFFFFFFF DUP3 GT OR PUSH2 0x710 JUMPI PUSH1 0x40 MSTORE JUMP JUMPDEST PUSH4 0x4E487B71 PUSH1 0xE0 SHL PUSH1 0x0 MSTORE PUSH1 0x41 PUSH1 0x4 MSTORE PUSH1 0x24 PUSH1 0x0 REVERT JUMPDEST ISZERO PUSH2 0x72D JUMPI JUMP JUMPDEST PUSH1 0x64 PUSH1 0x40 MLOAD PUSH3 0x461BCD PUSH1 0xE5 SHL DUP2 MSTORE PUSH1 0x20 PUSH1 0x4 DUP3 ADD MSTORE PUSH1 0x20 PUSH1 0x24 DUP3 ADD MSTORE PUSH32 0x4F776E61626C653A2063616C6C6572206973206E6F7420746865206F776E6572 PUSH1 0x44 DUP3 ADD MSTORE REVERT JUMPDEST PUSH1 0x1 PUSH1 0x1 PUSH1 0xA0 SHL SUB SWAP1 DUP2 AND SWAP2 DUP3 ISZERO PUSH2 0x822 JUMPI AND SWAP2 DUP3 ISZERO PUSH2 0x7D2 JUMPI PUSH1 0x20 PUSH32 0x8C5BE1E5EBEC7D5BD14F71427D1E84F3DD0314C0F7B2291E5B200AC8C7C3B925 SWAP2 DUP4 PUSH1 0x0 MSTORE PUSH1 0x6 DUP3 MSTORE PUSH1 0x40 PUSH1 0x0 KECCAK256 DUP6 PUSH1 0x0 MSTORE DUP3 MSTORE DUP1 PUSH1 0x40 PUSH1 0x0 KECCAK256 SSTORE PUSH1 0x40 MLOAD SWAP1 DUP2 MSTORE LOG3 JUMP JUMPDEST PUSH1 0x40 MLOAD PUSH3 0x461BCD PUSH1 0xE5 SHL DUP2 MSTORE PUSH1 0x20 PUSH1 0x4 DUP3 ADD MSTORE PUSH1 0x22 PUSH1 0x24 DUP3 ADD MSTORE PUSH32 0x45524332303A20617070726F766520746F20746865207A65726F206164647265 PUSH1 0x44 DUP3 ADD MSTORE PUSH2 0x7373 PUSH1 0xF0 SHL PUSH1 0x64 DUP3 ADD MSTORE PUSH1 0x84 SWAP1 REVERT JUMPDEST PUSH1 0x40 MLOAD PUSH3 0x461BCD PUSH1 0xE5 SHL DUP2 MSTORE PUSH1 0x20 PUSH1 0x4 DUP3 ADD MSTORE PUSH1 0x24 DUP1 DUP3 ADD MSTORE PUSH32 0x45524332303A20617070726F76652066726F6D20746865207A65726F20616464 PUSH1 0x44 DUP3 ADD MSTORE PUSH4 0x72657373 PUSH1 0xE0 SHL PUSH1 0x64 DUP3 ADD MSTORE PUSH1 0x84 SWAP1 REVERT JUMPDEST SWAP2 SWAP3 SWAP2 PUSH1 0x1 PUSH1 0x1 PUSH1 0xA0 SHL SUB SWAP1 DUP2 AND SWAP2 DUP3 ISZERO PUSH2 0xAFA JUMPI AND SWAP1 DUP2 ISZERO PUSH2 0xAA9 JUMPI DUP4 ISZERO PUSH2 0xA52 JUMPI PUSH1 0x4 DUP1 SLOAD SWAP5 PUSH1 0x1 SLOAD SWAP6 DUP7 DUP2 MUL SWAP7 DUP2 DUP9 DIV EQ SWAP1 ISZERO OR ISZERO PUSH2 0xA3D JUMPI PUSH1 0x0 SWAP6 DUP4 DUP8 MSTORE PUSH1 0x20 SWAP3 PUSH1 0x7 DUP5 MSTORE PUSH1 0x40 SWAP2 PUSH1 0xFF DUP4 DUP11 KECCAK256 SLOAD AND ISZERO PUSH2 0x9EC JUMPI JUMPDEST POP DUP5 DUP9 MSTORE PUSH1 0x5 DUP5 MSTORE DUP2 DUP9 KECCAK256 SLOAD DUP3 MLOAD SWAP1 DUP4 DUP3 ADD DUP3 DUP2 LT PUSH8 0xFFFFFFFFFFFFFFFF DUP3 GT OR PUSH2 0x9D9 JUMPI PUSH2 0x928 SWAP3 SWAP2 DUP7 SWAP2 DUP7 MSTORE PUSH1 0x1E DUP4 MSTORE PUSH32 0x536166654D6174683A207375627472616374696F6E206F766572666C6F770000 DUP9 DUP5 ADD MSTORE PUSH2 0xB4D JUMP JUMPDEST DUP6 DUP10 MSTORE PUSH1 0x5 DUP6 MSTORE DUP3 DUP10 KECCAK256 SSTORE DUP6 DUP9 MSTORE DUP2 DUP9 KECCAK256 SLOAD SWAP1 DUP4 DUP3 ADD SWAP2 DUP3 DUP2 GT PUSH2 0x9C6 JUMPI DUP3 LT PUSH2 0x983 JUMPI POP DUP2 DUP9 DUP8 PUSH32 0xDDF252AD1BE2C89B69C2B068FC378DAA952BA7F163C4A11628F55A4DF523B3EF SWAP8 SWAP9 SWAP10 SWAP11 MSTORE PUSH1 0x5 DUP7 MSTORE KECCAK256 SSTORE MLOAD SWAP1 DUP2 MSTORE LOG3 JUMP JUMPDEST DUP3 MLOAD PUSH3 0x461BCD PUSH1 0xE5 SHL DUP2 MSTORE SWAP1 DUP2 ADD DUP6 SWAP1 MSTORE PUSH1 0x1B PUSH1 0x24 DUP3 ADD MSTORE PUSH32 0x536166654D6174683A206164646974696F6E206F766572666C6F770000000000 PUSH1 0x44 DUP3 ADD MSTORE PUSH1 0x64 SWAP1 REVERT JUMPDEST PUSH4 0x4E487B71 PUSH1 0xE0 SHL DUP11 MSTORE PUSH1 0x11 DUP3 MSTORE PUSH1 0x24 DUP11 REVERT JUMPDEST PUSH4 0x4E487B71 PUSH1 0xE0 SHL DUP12 MSTORE PUSH1 0x41 DUP5 MSTORE PUSH1 0x24 DUP12 REVERT JUMPDEST PUSH1 0x64 SWAP1 DIV DUP4 GT PUSH2 0x9FC JUMPI CODESIZE PUSH2 0x8CC JUMP JUMPDEST DUP4 PUSH1 0x64 SWAP3 MLOAD SWAP2 PUSH3 0x461BCD PUSH1 0xE5 SHL DUP4 MSTORE DUP3 ADD MSTORE PUSH1 0x18 PUSH1 0x24 DUP3 ADD MSTORE PUSH32 0x4578636565647320746865204D61785478416D6F756E742E0000000000000000 PUSH1 0x44 DUP3 ADD MSTORE REVERT JUMPDEST PUSH1 0x11 DUP3 PUSH4 0x4E487B71 PUSH1 0xE0 SHL PUSH1 0x0 MSTORE MSTORE PUSH1 0x24 PUSH1 0x0 REVERT JUMPDEST PUSH1 0x40 MLOAD PUSH3 0x461BCD PUSH1 0xE5 SHL DUP2 MSTORE PUSH1 0x20 PUSH1 0x4 DUP3 ADD MSTORE PUSH1 0x29 PUSH1 0x24 DUP3 ADD MSTORE PUSH32 0x5472616E7366657220616D6F756E74206D757374206265206772656174657220 PUSH1 0x44 DUP3 ADD MSTORE PUSH9 0x7468616E207A65726F PUSH1 0xB8 SHL PUSH1 0x64 DUP3 ADD MSTORE PUSH1 0x84 SWAP1 REVERT JUMPDEST PUSH1 0x40 MLOAD PUSH3 0x461BCD PUSH1 0xE5 SHL DUP2 MSTORE PUSH1 0x20 PUSH1 0x4 DUP3 ADD MSTORE PUSH1 0x23 PUSH1 0x24 DUP3 ADD MSTORE PUSH32 0x45524332303A207472616E7366657220746F20746865207A65726F2061646472 PUSH1 0x44 DUP3 ADD MSTORE PUSH3 0x657373 PUSH1 0xE8 SHL PUSH1 0x64 DUP3 ADD MSTORE PUSH1 0x84 SWAP1 REVERT JUMPDEST PUSH1 0x40 MLOAD PUSH3 0x461BCD PUSH1 0xE5 SHL DUP2 MSTORE PUSH1 0x20 PUSH1 0x4 DUP3 ADD MSTORE PUSH1 0x25 PUSH1 0x24 DUP3 ADD MSTORE PUSH32 0x45524332303A207472616E736665722066726F6D20746865207A65726F206164 PUSH1 0x44 DUP3 ADD MSTORE PUSH5 0x6472657373 PUSH1 0xD8 SHL PUSH1 0x64 DUP3 ADD MSTORE PUSH1 0x84 SWAP1 REVERT JUMPDEST SWAP2 DUP3 DUP3 GT PUSH2 0xB78 JUMPI POP DUP2 SUB SWAP1 DUP2 GT PUSH2 0xB62 JUMPI SWAP1 JUMP JUMPDEST PUSH4 0x4E487B71 PUSH1 0xE0 SHL PUSH1 0x0 MSTORE PUSH1 0x11 PUSH1 0x4 MSTORE PUSH1 0x24 PUSH1 0x0 REVERT JUMPDEST PUSH1 0x40 MLOAD PUSH3 0x461BCD PUSH1 0xE5 SHL DUP2 MSTORE SWAP1 DUP2 SWAP1 PUSH2 0xB94 SWAP1 PUSH1 0x4 DUP4 ADD PUSH2 0x674 JUMP JUMPDEST SUB SWAP1 REVERT INVALID LOG2 PUSH5 0x6970667358 0x22 SLT KECCAK256 0xC4 SWAP15 SSTORE SELFBALANCE BLOCKHASH 0xCB PUSH18 0xAA09A85B3746B1A934ACBFB9371A9F5EEFD2 PUSH27 0x7B626EA785F264736F6C63430008180033A2646970667358221220 SAR DUP1 SELFBALANCE CALLDATALOAD 0x24 SWAP2 0xD6 SWAP6 0xE3 EXTCODECOPY 0x2C REVERT DUP9 RETURN 0xDA 0xD6 0xF SAR PUSH4 0x1C7695EB 0xBA 0xD2 0x27 TIMESTAMP SLT KECCAK256 ISZERO 0xAB 0xD PUSH5 0x736F6C6343 STOP ADDMOD XOR STOP CALLER "
        },
        "methodIdentifiers": {
          "approval(address,address,uint256)": "5c52a5f2",
          "deploy(address)": "4c96a389",
          "feeTo()": "017e7e58",
          "feeToSetter()": "094b7415",
          "getTokens()": "aa6ca808",
          "getUserTokens()": "8a664ebc",
          "launch(string,string,string,string,string[4],uint256,uint256)": "ad256f7d",
          "launchFee()": "cf3cf573",
          "liquidityFee()": "98118cb4",
          "marketCapLimit()": "80997e47",
          "profile(address)": "9dd9d0fd",
          "profiles(uint256)": "c36fe3d6",
          "setFeeTo(address)": "f46901ed",
          "token(address)": "6d46a1db",
          "tokens(uint256)": "4f64b2be",
          "updateLaunchFee(uint256)": "7660f44a",
          "withdraw()": "3ccfd60b"
        }
      }
    }
  }
}