{
  "contracts/Router.sol": {
    "Router": {
      "abi": [
        {
          "inputs": [
            {
              "internalType": "address",
              "name": "factory_",
              "type": "address"
            },
            {
              "internalType": "address",
              "name": "weth",
              "type": "address"
            },
            {
              "internalType": "uint256",
              "name": "refFee",
              "type": "uint256"
            }
          ],
          "stateMutability": "nonpayable",
          "type": "constructor"
        },
        {
          "inputs": [],
          "name": "ReentrancyGuardReentrantCall",
          "type": "error"
        },
        {
          "inputs": [],
          "name": "WETH",
          "outputs": [
            {
              "internalType": "address",
              "name": "",
              "type": "address"
            }
          ],
          "stateMutability": "view",
          "type": "function"
        },
        {
          "inputs": [
            {
              "internalType": "address",
              "name": "token",
              "type": "address"
            },
            {
              "internalType": "uint256",
              "name": "amountToken",
              "type": "uint256"
            }
          ],
          "name": "addLiquidityETH",
          "outputs": [
            {
              "internalType": "uint256",
              "name": "",
              "type": "uint256"
            },
            {
              "internalType": "uint256",
              "name": "",
              "type": "uint256"
            }
          ],
          "stateMutability": "payable",
          "type": "function"
        },
        {
          "inputs": [],
          "name": "factory",
          "outputs": [
            {
              "internalType": "address",
              "name": "",
              "type": "address"
            }
          ],
          "stateMutability": "view",
          "type": "function"
        },
        {
          "inputs": [
            {
              "internalType": "address",
              "name": "token",
              "type": "address"
            },
            {
              "internalType": "address",
              "name": "weth",
              "type": "address"
            },
            {
              "internalType": "uint256",
              "name": "amountIn",
              "type": "uint256"
            }
          ],
          "name": "getAmountsOut",
          "outputs": [
            {
              "internalType": "uint256",
              "name": "_amountOut",
              "type": "uint256"
            }
          ],
          "stateMutability": "nonpayable",
          "type": "function"
        },
        {
          "inputs": [],
          "name": "referralFee",
          "outputs": [
            {
              "internalType": "uint256",
              "name": "",
              "type": "uint256"
            }
          ],
          "stateMutability": "view",
          "type": "function"
        },
        {
          "inputs": [
            {
              "internalType": "address",
              "name": "token",
              "type": "address"
            },
            {
              "internalType": "uint256",
              "name": "liquidity",
              "type": "uint256"
            },
            {
              "internalType": "address",
              "name": "to",
              "type": "address"
            }
          ],
          "name": "removeLiquidityETH",
          "outputs": [
            {
              "internalType": "uint256",
              "name": "",
              "type": "uint256"
            },
            {
              "internalType": "uint256",
              "name": "",
              "type": "uint256"
            }
          ],
          "stateMutability": "nonpayable",
          "type": "function"
        },
        {
          "inputs": [
            {
              "internalType": "address",
              "name": "token",
              "type": "address"
            },
            {
              "internalType": "address",
              "name": "to",
              "type": "address"
            },
            {
              "internalType": "address",
              "name": "referree",
              "type": "address"
            }
          ],
          "name": "swapETHForTokens",
          "outputs": [
            {
              "internalType": "uint256",
              "name": "",
              "type": "uint256"
            },
            {
              "internalType": "uint256",
              "name": "",
              "type": "uint256"
            }
          ],
          "stateMutability": "payable",
          "type": "function"
        },
        {
          "inputs": [
            {
              "internalType": "uint256",
              "name": "amountIn",
              "type": "uint256"
            },
            {
              "internalType": "address",
              "name": "token",
              "type": "address"
            },
            {
              "internalType": "address",
              "name": "to",
              "type": "address"
            },
            {
              "internalType": "address",
              "name": "referree",
              "type": "address"
            }
          ],
          "name": "swapTokensForETH",
          "outputs": [
            {
              "internalType": "uint256",
              "name": "",
              "type": "uint256"
            },
            {
              "internalType": "uint256",
              "name": "",
              "type": "uint256"
            }
          ],
          "stateMutability": "nonpayable",
          "type": "function"
        }
      ],
      "evm": {
        "bytecode": {
          "linkReferences": {},
          "object": "6080346200010a57601f6200178938819003918201601f19168301916001600160401b038311848410176200010f578084926060946040528339810103126200010a576200004d8162000125565b9060406200005e6020830162000125565b9101516001600055916001600160a01b0390811691620000808315156200013a565b16906200008f8215156200013a565b60018060a01b031990816001541617600155600254161760025560058111620000c5576003556040516116019081620001888239f35b60405162461bcd60e51b815260206004820152601e60248201527f526566657272616c204665652063616e6e6f74206578636565642035252e00006044820152606490fd5b600080fd5b634e487b7160e01b600052604160045260246000fd5b51906001600160a01b03821682036200010a57565b156200014257565b60405162461bcd60e51b815260206004820152601f60248201527f5a65726f2061646472657373657320617265206e6f7420616c6c6f7765642e006044820152606490fdfe6080604052600436101561001257600080fd5b60003560e01c806345608d0014610fd8578063512b1e6e146109e757806357f8d901146105fe5780637282d5481461046c57806384ae2bc61461044e578063ad5c464814610425578063c45a0155146103fc5763e79a40891461007457600080fd5b346103495760603660031901126103495761008d61101c565b60243590610099611048565b916100a2611230565b6001600160a01b0382811693610110916100bd86151561105e565b6100ca818316151561105e565b60015460025460405163e6a4390560e01b81526001600160a01b038881166004830152918416909116602482015260209490929185918491841690829081906044820190565b03915afa918215610303576000926103cd575b50811695604051630240bc6b60e21b81526060816004818b5afa9081156103035760009161039c575b506040516316d3df1560e31b815285816004818c5afa801561030357869160009161036b575b5061018e6101c693606461018781948c611135565b0499611135565b604051632e2952f960e11b81523060048201526001600160a01b03909a1660248b015204604489018190529791829081906064820190565b038160008c5af19081156103035760009161034e575b501561034957604051637b1a490960e01b81526001600160a01b03841660048201526024810186905290848260448160008c5af1938415610303576000869461023161026b978b96849161032c575b50611198565b6040516323b872dd60e01b81526001600160a01b039182166004820152921660248301526044820193909352938492839182906064820190565b03925af18015610303576102879160009161030f575b506111e4565b604051631d24e23160e21b81526004810184905260248101839052336044820152938190859060649082906000905af1938415610303576040946102d6575b5060016000558351928352820152f35b6102f590823d84116102fc575b6102ed81836110dc565b81019061111d565b50386102c6565b503d6102e3565b6040513d6000823e3d90fd5b6103269150833d85116102fc576102ed81836110dc565b38610281565b6103439150883d8a116102fc576102ed81836110dc565b3861022b565b600080fd5b6103659150853d87116102fc576102ed81836110dc565b386101dc565b82819392503d8311610395575b61038281836110dc565b810103126103495751859061018e610172565b503d610378565b6103be915060603d6060116103c6575b6103b681836110dc565b810190611253565b50503861014c565b503d6103ac565b6103ee919250843d86116103f5575b6103e681836110dc565b8101906110fe565b9038610123565b503d6103dc565b34610349576000366003190112610349576001546040516001600160a01b039091168152602090f35b34610349576000366003190112610349576002546040516001600160a01b039091168152602090f35b34610349576000366003190112610349576020600354604051908152f35b60403660031901126103495761048061101c565b60243561048b611230565b6001600160a01b0382811692906104a384151561105e565b60015460025460405163e6a4390560e01b81526001600160a01b0394851660048201529083169093166024840152602092919083908390604490829085165afa918215610303576000926105df575b506105056105003484611454565b611198565b6040516323b872dd60e01b81523360048201526001600160a01b038316602482015260448101859052948390869060649082906000905af191821561030357610558849360009788916105c257506111e4565b60405163e7d3fe6b60e01b815260048101869052346024820152336044820152958692606492849291165af1928315610303576040936105a5575b50600160005582519182523490820152f35b6105bb90823d84116102fc576102ed81836110dc565b5083610593565b6105d99150853d87116102fc576102ed81836110dc565b88610281565b6105f7919250833d85116103f5576103e681836110dc565b90856104f2565b60603660031901126103495761061261101c565b61061a611032565b90610623611048565b9061062c611230565b6001600160a01b038181169361064385151561105e565b610650828216151561105e565b60015460025460405163e6a4390560e01b81526001600160a01b038681166004830152918516918216602482015296602094919390929091908116908589604481855afa988915610303576000996109c8575b506106ee866106b7838c169734908b6112c8565b604051632e2952f960e11b81523060048201526001600160a01b03909a1660248b015260448a018190529891829081906064820190565b038160008a5af1908115610303576000916109ab575b50156109765760405163cf82046160e01b81528681600481865afa8015610303578891600091610944575b5060649161073c91611135565b049060009089161561092c57509161076f9391866107a79461077560646107658c600354611135565b049788809361118b565b8b61117e565b604051637b1a490960e01b81526001600160a01b03909c1660048d015260248c01919091529994859081906044820190565b038160008a5af1908115610303576107ca889260049660009161090f5750611198565b604051622fcfcb60e31b815294859182905afa9384156103035761084a996108106105006000938a988d8d9987926108e8575b5061050061080b9187611454565b611454565b6040516323b872dd60e01b81526001600160a01b039182166004820152921660248301526044820193909352978892839182906064820190565b03925af190811561030357610869839260009788916108d157506111e4565b608460405180978193635673b02d60e01b83528160048401528760248401528860448401528160648401525af1938415610303576040946108b4575060016000558351928352820152f35b6108ca90823d84116102fc576102ed81836110dc565b50846102c6565b6105d99150843d86116102fc576102ed81836110dc565b61080b919250610907610500918d803d106103f5576103e681836110dc565b9291506107fd565b6109269150843d86116102fc576102ed81836110dc565b8d61022b565b93919750918561093e6004948961117e565b986107ca565b809250888092503d831161096f575b61095d81836110dc565b8101031261034957518790606461072f565b503d610953565b60405162461bcd60e51b815260048101879052600d60248201526c2737ba1020b8383937bb32b21760991b6044820152606490fd5b6109c29150873d89116102fc576102ed81836110dc565b8a610704565b6109e0919950863d88116103f5576103e681836110dc565b97896106a3565b3461034957608036600319011261034957610a00611032565b610a08611048565b906064356001600160a01b038116900361034957610a24611230565b610a386001600160a01b038216151561105e565b610a4c6001600160a01b038316151561105e565b60015460025460405163e6a4390560e01b81526001600160a01b03848116600483015291821660248201819052919092169390602083604481885afa92831561030357600093610fb7575b50610aac6001600160a01b038516151561105e565b60405163e6a4390560e01b81526001600160a01b03858116600483015282166024820152602081604481895afa90811561030357600091610f98575b50604051630240bc6b60e21b81526001600160a01b039190911691606082600481865afa90811561030357600493600093600093610f6e575b5060209060405195868092637464fc3d60e01b82525afa93841561030357600094610f3a575b50610f1f57610b9392610b60610b79926004359061150a565b90610b74610b6c61126e565b831515611564565b61115e565b90610b8e610b85611299565b82841115611564565b61117e565b925b6040516323b872dd60e01b81526001600160a01b038381166004808401919091528582166024840152356044830152909160209183916064918391600091165af190811561030357600091610f00575b5015610ebb5760405163cf82046160e01b8152602081600481885afa8015610303578491600091610e85575b50606491610c1e91611135565b0493846064356001600160a01b031615610e705750610c8f906020610c5c6064610c4a88600354611135565b0496610c56888a61118b565b9061117e565b604051637b1a490960e01b81526001600160a01b0360643516600482015260248101979097529592839081906044820190565b038160006001600160a01b0389165af190811561030357610cbc602092600494600091610e535750611198565b604051622fcfcb60e31b815292839182905afa90811561030357600091610e34575b50604051637b1a490960e01b8082526001600160a01b03909316600482015260248101859052916020838060448101038160006001600160a01b0389165af192831561030357602093610d3891600091610e175750611198565b6040519081526001600160a01b03918216600482015260248101959095528490604490829060009086165af190811561030357610d806020926000958691610dfa5750611198565b608460405180958193635673b02d60e01b8352600435600484015281602484015281604484015286606484015260018060a01b03165af191821561030357604092610ddb575b50600160005581519060043582526020820152f35b610df39060203d6020116102fc576102ed81836110dc565b5082610dc6565b610e119150843d86116102fc576102ed81836110dc565b8661022b565b610e2e9150853d87116102fc576102ed81836110dc565b8861022b565b610e4d915060203d6020116103f5576103e681836110dc565b85610cde565b610e6a9150843d86116102fc576102ed81836110dc565b8961022b565b610e7f6020916004939661117e565b94610cbc565b9150506020813d602011610eb3575b81610ea1602093836110dc565b81010312610349575183906064610c11565b3d9150610e94565b60405162461bcd60e51b815260206004820152601860248201527f5472616e73666572206f6620746f6b656e206661696c656400000000000000006044820152606490fd5b610f19915060203d6020116102fc576102ed81836110dc565b85610be5565b90610f3492610b60610b79926004359061150a565b92610b95565b9093506020813d602011610f66575b81610f56602093836110dc565b8101031261034957519288610b47565b3d9150610f49565b60209450610f8c91935060603d6060116103c6576103b681836110dc565b94919050939290610b21565b610fb1915060203d6020116103f5576103e681836110dc565b86610ae8565b610fd191935060203d6020116103f5576103e681836110dc565b9185610a97565b3461034957606036600319011261034957602061100f610ff661101c565b610ffe611032565b611006611230565b604435916112c8565b6001600055604051908152f35b600435906001600160a01b038216820361034957565b602435906001600160a01b038216820361034957565b604435906001600160a01b038216820361034957565b1561106557565b60405162461bcd60e51b815260206004820152601f60248201527f5a65726f2061646472657373657320617265206e6f7420616c6c6f7765642e006044820152606490fd5b6040810190811067ffffffffffffffff8211176110c657604052565b634e487b7160e01b600052604160045260246000fd5b90601f8019910116810190811067ffffffffffffffff8211176110c657604052565b9081602091031261034957516001600160a01b03811681036103495790565b90816020910312610349575180151581036103495790565b8181029291811591840414171561114857565b634e487b7160e01b600052601160045260246000fd5b8115611168570490565b634e487b7160e01b600052601260045260246000fd5b9190820391821161114857565b9190820180921161114857565b1561119f57565b60405162461bcd60e51b815260206004820152601760248201527f5472616e73666572206f6620455448206661696c65642e0000000000000000006044820152606490fd5b156111eb57565b60405162461bcd60e51b815260206004820152601960248201527f5472616e73666572206f6620746f6b656e206661696c65642e000000000000006044820152606490fd5b600260005414611241576002600055565b604051633ee5aeb560e01b8152600490fd5b90816060910312610349578051916040602083015192015190565b6040519061127b826110aa565b600f82526e111a5d9a5cda5bdb8819985a5b1959608a1b6020830152565b604051906112a6826110aa565b601382527229bab13a3930b1ba34b7b7103330b4b632b21760691b6020830152565b6001600160a01b039290916112e0848416151561105e565b6001546002546040805163e6a4390560e01b81526001600160a01b039687166004820152918716958616602483015260209690959290919087908290604490829086165afa9081156114495790829160009161142c575b501692855196630240bc6b60e21b8852606088600481885afa948515611421576000986000966113f2575b509080600492895193848092637464fc3d60e01b82525afa9788156113e857506000976113b8575b505016036113a75791610b60610b79926113a4959461150a565b90565b91610b60610b79926113a49561150a565b9080929750813d83116113e1575b6113d081836110dc565b81010312610349575194388061138a565b503d6113c6565b513d6000823e3d90fd5b8299506004929196506114139060603d6060116103c6576103b681836110dc565b9a9190509996919250611362565b87513d6000823e3d90fd5b6114439150883d8a116103f5576103e681836110dc565b38611337565b86513d6000823e3d90fd5b6001600160a01b031661146881151561105e565b60008080809481945af1903d15611504573d9067ffffffffffffffff82116114f057604051916114a2601f8201601f1916602001846110dc565b825260203d92013e5b80156114b45790565b60405162461bcd60e51b81526020600482015260146024820152732a3930b739b332b91022aa24102330b4b632b21760611b6044820152606490fd5b634e487b7160e01b81526041600452602490fd5b506114ab565b90611515908261118b565b90811061151f5790565b60405162461bcd60e51b815260206004820152601b60248201527f536166654d6174683a206164646974696f6e206f766572666c6f7700000000006044820152606490fd5b1561156c5750565b6040519062461bcd60e51b82528160208060048301528251908160248401526000935b8285106115b2575050604492506000838284010152601f80199101168101030190fd5b848101820151868601604401529381019385935061158f56fea26469706673582212205bf2dfa8b25c028193ee2454774b047fcbc292c1ab75040e169149503cc40b9264736f6c63430008180033",
          "opcodes": "PUSH1 0x80 CALLVALUE PUSH3 0x10A JUMPI PUSH1 0x1F PUSH3 0x1789 CODESIZE DUP2 SWAP1 SUB SWAP2 DUP3 ADD PUSH1 0x1F NOT AND DUP4 ADD SWAP2 PUSH1 0x1 PUSH1 0x1 PUSH1 0x40 SHL SUB DUP4 GT DUP5 DUP5 LT OR PUSH3 0x10F JUMPI DUP1 DUP5 SWAP3 PUSH1 0x60 SWAP5 PUSH1 0x40 MSTORE DUP4 CODECOPY DUP2 ADD SUB SLT PUSH3 0x10A JUMPI PUSH3 0x4D DUP2 PUSH3 0x125 JUMP JUMPDEST SWAP1 PUSH1 0x40 PUSH3 0x5E PUSH1 0x20 DUP4 ADD PUSH3 0x125 JUMP JUMPDEST SWAP2 ADD MLOAD PUSH1 0x1 PUSH1 0x0 SSTORE SWAP2 PUSH1 0x1 PUSH1 0x1 PUSH1 0xA0 SHL SUB SWAP1 DUP2 AND SWAP2 PUSH3 0x80 DUP4 ISZERO ISZERO PUSH3 0x13A JUMP JUMPDEST AND SWAP1 PUSH3 0x8F DUP3 ISZERO ISZERO PUSH3 0x13A JUMP JUMPDEST PUSH1 0x1 DUP1 PUSH1 0xA0 SHL SUB NOT SWAP1 DUP2 PUSH1 0x1 SLOAD AND OR PUSH1 0x1 SSTORE PUSH1 0x2 SLOAD AND OR PUSH1 0x2 SSTORE PUSH1 0x5 DUP2 GT PUSH3 0xC5 JUMPI PUSH1 0x3 SSTORE PUSH1 0x40 MLOAD PUSH2 0x1601 SWAP1 DUP2 PUSH3 0x188 DUP3 CODECOPY RETURN JUMPDEST PUSH1 0x40 MLOAD PUSH3 0x461BCD PUSH1 0xE5 SHL DUP2 MSTORE PUSH1 0x20 PUSH1 0x4 DUP3 ADD MSTORE PUSH1 0x1E PUSH1 0x24 DUP3 ADD MSTORE PUSH32 0x526566657272616C204665652063616E6E6F74206578636565642035252E0000 PUSH1 0x44 DUP3 ADD MSTORE PUSH1 0x64 SWAP1 REVERT JUMPDEST PUSH1 0x0 DUP1 REVERT JUMPDEST PUSH4 0x4E487B71 PUSH1 0xE0 SHL PUSH1 0x0 MSTORE PUSH1 0x41 PUSH1 0x4 MSTORE PUSH1 0x24 PUSH1 0x0 REVERT JUMPDEST MLOAD SWAP1 PUSH1 0x1 PUSH1 0x1 PUSH1 0xA0 SHL SUB DUP3 AND DUP3 SUB PUSH3 0x10A JUMPI JUMP JUMPDEST ISZERO PUSH3 0x142 JUMPI JUMP JUMPDEST PUSH1 0x40 MLOAD PUSH3 0x461BCD PUSH1 0xE5 SHL DUP2 MSTORE PUSH1 0x20 PUSH1 0x4 DUP3 ADD MSTORE PUSH1 0x1F PUSH1 0x24 DUP3 ADD MSTORE PUSH32 0x5A65726F2061646472657373657320617265206E6F7420616C6C6F7765642E00 PUSH1 0x44 DUP3 ADD MSTORE PUSH1 0x64 SWAP1 REVERT INVALID PUSH1 0x80 PUSH1 0x40 MSTORE PUSH1 0x4 CALLDATASIZE LT ISZERO PUSH2 0x12 JUMPI PUSH1 0x0 DUP1 REVERT JUMPDEST PUSH1 0x0 CALLDATALOAD PUSH1 0xE0 SHR DUP1 PUSH4 0x45608D00 EQ PUSH2 0xFD8 JUMPI DUP1 PUSH4 0x512B1E6E EQ PUSH2 0x9E7 JUMPI DUP1 PUSH4 0x57F8D901 EQ PUSH2 0x5FE JUMPI DUP1 PUSH4 0x7282D548 EQ PUSH2 0x46C JUMPI DUP1 PUSH4 0x84AE2BC6 EQ PUSH2 0x44E JUMPI DUP1 PUSH4 0xAD5C4648 EQ PUSH2 0x425 JUMPI DUP1 PUSH4 0xC45A0155 EQ PUSH2 0x3FC JUMPI PUSH4 0xE79A4089 EQ PUSH2 0x74 JUMPI PUSH1 0x0 DUP1 REVERT JUMPDEST CALLVALUE PUSH2 0x349 JUMPI PUSH1 0x60 CALLDATASIZE PUSH1 0x3 NOT ADD SLT PUSH2 0x349 JUMPI PUSH2 0x8D PUSH2 0x101C JUMP JUMPDEST PUSH1 0x24 CALLDATALOAD SWAP1 PUSH2 0x99 PUSH2 0x1048 JUMP JUMPDEST SWAP2 PUSH2 0xA2 PUSH2 0x1230 JUMP JUMPDEST PUSH1 0x1 PUSH1 0x1 PUSH1 0xA0 SHL SUB DUP3 DUP2 AND SWAP4 PUSH2 0x110 SWAP2 PUSH2 0xBD DUP7 ISZERO ISZERO PUSH2 0x105E JUMP JUMPDEST PUSH2 0xCA DUP2 DUP4 AND ISZERO ISZERO PUSH2 0x105E JUMP JUMPDEST PUSH1 0x1 SLOAD PUSH1 0x2 SLOAD PUSH1 0x40 MLOAD PUSH4 0xE6A43905 PUSH1 0xE0 SHL DUP2 MSTORE PUSH1 0x1 PUSH1 0x1 PUSH1 0xA0 SHL SUB DUP9 DUP2 AND PUSH1 0x4 DUP4 ADD MSTORE SWAP2 DUP5 AND SWAP1 SWAP2 AND PUSH1 0x24 DUP3 ADD MSTORE PUSH1 0x20 SWAP5 SWAP1 SWAP3 SWAP2 DUP6 SWAP2 DUP5 SWAP2 DUP5 AND SWAP1 DUP3 SWAP1 DUP2 SWAP1 PUSH1 0x44 DUP3 ADD SWAP1 JUMP JUMPDEST SUB SWAP2 GAS STATICCALL SWAP2 DUP3 ISZERO PUSH2 0x303 JUMPI PUSH1 0x0 SWAP3 PUSH2 0x3CD JUMPI JUMPDEST POP DUP2 AND SWAP6 PUSH1 0x40 MLOAD PUSH4 0x240BC6B PUSH1 0xE2 SHL DUP2 MSTORE PUSH1 0x60 DUP2 PUSH1 0x4 DUP2 DUP12 GAS STATICCALL SWAP1 DUP2 ISZERO PUSH2 0x303 JUMPI PUSH1 0x0 SWAP2 PUSH2 0x39C JUMPI JUMPDEST POP PUSH1 0x40 MLOAD PUSH4 0x16D3DF15 PUSH1 0xE3 SHL DUP2 MSTORE DUP6 DUP2 PUSH1 0x4 DUP2 DUP13 GAS STATICCALL DUP1 ISZERO PUSH2 0x303 JUMPI DUP7 SWAP2 PUSH1 0x0 SWAP2 PUSH2 0x36B JUMPI JUMPDEST POP PUSH2 0x18E PUSH2 0x1C6 SWAP4 PUSH1 0x64 PUSH2 0x187 DUP2 SWAP5 DUP13 PUSH2 0x1135 JUMP JUMPDEST DIV SWAP10 PUSH2 0x1135 JUMP JUMPDEST PUSH1 0x40 MLOAD PUSH4 0x2E2952F9 PUSH1 0xE1 SHL DUP2 MSTORE ADDRESS PUSH1 0x4 DUP3 ADD MSTORE PUSH1 0x1 PUSH1 0x1 PUSH1 0xA0 SHL SUB SWAP1 SWAP11 AND PUSH1 0x24 DUP12 ADD MSTORE DIV PUSH1 0x44 DUP10 ADD DUP2 SWAP1 MSTORE SWAP8 SWAP2 DUP3 SWAP1 DUP2 SWAP1 PUSH1 0x64 DUP3 ADD SWAP1 JUMP JUMPDEST SUB DUP2 PUSH1 0x0 DUP13 GAS CALL SWAP1 DUP2 ISZERO PUSH2 0x303 JUMPI PUSH1 0x0 SWAP2 PUSH2 0x34E JUMPI JUMPDEST POP ISZERO PUSH2 0x349 JUMPI PUSH1 0x40 MLOAD PUSH4 0x7B1A4909 PUSH1 0xE0 SHL DUP2 MSTORE PUSH1 0x1 PUSH1 0x1 PUSH1 0xA0 SHL SUB DUP5 AND PUSH1 0x4 DUP3 ADD MSTORE PUSH1 0x24 DUP2 ADD DUP7 SWAP1 MSTORE SWAP1 DUP5 DUP3 PUSH1 0x44 DUP2 PUSH1 0x0 DUP13 GAS CALL SWAP4 DUP5 ISZERO PUSH2 0x303 JUMPI PUSH1 0x0 DUP7 SWAP5 PUSH2 0x231 PUSH2 0x26B SWAP8 DUP12 SWAP7 DUP5 SWAP2 PUSH2 0x32C JUMPI JUMPDEST POP PUSH2 0x1198 JUMP JUMPDEST PUSH1 0x40 MLOAD PUSH4 0x23B872DD PUSH1 0xE0 SHL DUP2 MSTORE PUSH1 0x1 PUSH1 0x1 PUSH1 0xA0 SHL SUB SWAP2 DUP3 AND PUSH1 0x4 DUP3 ADD MSTORE SWAP3 AND PUSH1 0x24 DUP4 ADD MSTORE PUSH1 0x44 DUP3 ADD SWAP4 SWAP1 SWAP4 MSTORE SWAP4 DUP5 SWAP3 DUP4 SWAP2 DUP3 SWAP1 PUSH1 0x64 DUP3 ADD SWAP1 JUMP JUMPDEST SUB SWAP3 GAS CALL DUP1 ISZERO PUSH2 0x303 JUMPI PUSH2 0x287 SWAP2 PUSH1 0x0 SWAP2 PUSH2 0x30F JUMPI JUMPDEST POP PUSH2 0x11E4 JUMP JUMPDEST PUSH1 0x40 MLOAD PUSH4 0x1D24E231 PUSH1 0xE2 SHL DUP2 MSTORE PUSH1 0x4 DUP2 ADD DUP5 SWAP1 MSTORE PUSH1 0x24 DUP2 ADD DUP4 SWAP1 MSTORE CALLER PUSH1 0x44 DUP3 ADD MSTORE SWAP4 DUP2 SWAP1 DUP6 SWAP1 PUSH1 0x64 SWAP1 DUP3 SWAP1 PUSH1 0x0 SWAP1 GAS CALL SWAP4 DUP5 ISZERO PUSH2 0x303 JUMPI PUSH1 0x40 SWAP5 PUSH2 0x2D6 JUMPI JUMPDEST POP PUSH1 0x1 PUSH1 0x0 SSTORE DUP4 MLOAD SWAP3 DUP4 MSTORE DUP3 ADD MSTORE RETURN JUMPDEST PUSH2 0x2F5 SWAP1 DUP3 RETURNDATASIZE DUP5 GT PUSH2 0x2FC JUMPI JUMPDEST PUSH2 0x2ED DUP2 DUP4 PUSH2 0x10DC JUMP JUMPDEST DUP2 ADD SWAP1 PUSH2 0x111D JUMP JUMPDEST POP CODESIZE PUSH2 0x2C6 JUMP JUMPDEST POP RETURNDATASIZE PUSH2 0x2E3 JUMP JUMPDEST PUSH1 0x40 MLOAD RETURNDATASIZE PUSH1 0x0 DUP3 RETURNDATACOPY RETURNDATASIZE SWAP1 REVERT JUMPDEST PUSH2 0x326 SWAP2 POP DUP4 RETURNDATASIZE DUP6 GT PUSH2 0x2FC JUMPI PUSH2 0x2ED DUP2 DUP4 PUSH2 0x10DC JUMP JUMPDEST CODESIZE PUSH2 0x281 JUMP JUMPDEST PUSH2 0x343 SWAP2 POP DUP9 RETURNDATASIZE DUP11 GT PUSH2 0x2FC JUMPI PUSH2 0x2ED DUP2 DUP4 PUSH2 0x10DC JUMP JUMPDEST CODESIZE PUSH2 0x22B JUMP JUMPDEST PUSH1 0x0 DUP1 REVERT JUMPDEST PUSH2 0x365 SWAP2 POP DUP6 RETURNDATASIZE DUP8 GT PUSH2 0x2FC JUMPI PUSH2 0x2ED DUP2 DUP4 PUSH2 0x10DC JUMP JUMPDEST CODESIZE PUSH2 0x1DC JUMP JUMPDEST DUP3 DUP2 SWAP4 SWAP3 POP RETURNDATASIZE DUP4 GT PUSH2 0x395 JUMPI JUMPDEST PUSH2 0x382 DUP2 DUP4 PUSH2 0x10DC JUMP JUMPDEST DUP2 ADD SUB SLT PUSH2 0x349 JUMPI MLOAD DUP6 SWAP1 PUSH2 0x18E PUSH2 0x172 JUMP JUMPDEST POP RETURNDATASIZE PUSH2 0x378 JUMP JUMPDEST PUSH2 0x3BE SWAP2 POP PUSH1 0x60 RETURNDATASIZE PUSH1 0x60 GT PUSH2 0x3C6 JUMPI JUMPDEST PUSH2 0x3B6 DUP2 DUP4 PUSH2 0x10DC JUMP JUMPDEST DUP2 ADD SWAP1 PUSH2 0x1253 JUMP JUMPDEST POP POP CODESIZE PUSH2 0x14C JUMP JUMPDEST POP RETURNDATASIZE PUSH2 0x3AC JUMP JUMPDEST PUSH2 0x3EE SWAP2 SWAP3 POP DUP5 RETURNDATASIZE DUP7 GT PUSH2 0x3F5 JUMPI JUMPDEST PUSH2 0x3E6 DUP2 DUP4 PUSH2 0x10DC JUMP JUMPDEST DUP2 ADD SWAP1 PUSH2 0x10FE JUMP JUMPDEST SWAP1 CODESIZE PUSH2 0x123 JUMP JUMPDEST POP RETURNDATASIZE PUSH2 0x3DC JUMP JUMPDEST CALLVALUE PUSH2 0x349 JUMPI PUSH1 0x0 CALLDATASIZE PUSH1 0x3 NOT ADD SLT PUSH2 0x349 JUMPI PUSH1 0x1 SLOAD PUSH1 0x40 MLOAD PUSH1 0x1 PUSH1 0x1 PUSH1 0xA0 SHL SUB SWAP1 SWAP2 AND DUP2 MSTORE PUSH1 0x20 SWAP1 RETURN JUMPDEST CALLVALUE PUSH2 0x349 JUMPI PUSH1 0x0 CALLDATASIZE PUSH1 0x3 NOT ADD SLT PUSH2 0x349 JUMPI PUSH1 0x2 SLOAD PUSH1 0x40 MLOAD PUSH1 0x1 PUSH1 0x1 PUSH1 0xA0 SHL SUB SWAP1 SWAP2 AND DUP2 MSTORE PUSH1 0x20 SWAP1 RETURN JUMPDEST CALLVALUE PUSH2 0x349 JUMPI PUSH1 0x0 CALLDATASIZE PUSH1 0x3 NOT ADD SLT PUSH2 0x349 JUMPI PUSH1 0x20 PUSH1 0x3 SLOAD PUSH1 0x40 MLOAD SWAP1 DUP2 MSTORE RETURN JUMPDEST PUSH1 0x40 CALLDATASIZE PUSH1 0x3 NOT ADD SLT PUSH2 0x349 JUMPI PUSH2 0x480 PUSH2 0x101C JUMP JUMPDEST PUSH1 0x24 CALLDATALOAD PUSH2 0x48B PUSH2 0x1230 JUMP JUMPDEST PUSH1 0x1 PUSH1 0x1 PUSH1 0xA0 SHL SUB DUP3 DUP2 AND SWAP3 SWAP1 PUSH2 0x4A3 DUP5 ISZERO ISZERO PUSH2 0x105E JUMP JUMPDEST PUSH1 0x1 SLOAD PUSH1 0x2 SLOAD PUSH1 0x40 MLOAD PUSH4 0xE6A43905 PUSH1 0xE0 SHL DUP2 MSTORE PUSH1 0x1 PUSH1 0x1 PUSH1 0xA0 SHL SUB SWAP5 DUP6 AND PUSH1 0x4 DUP3 ADD MSTORE SWAP1 DUP4 AND SWAP1 SWAP4 AND PUSH1 0x24 DUP5 ADD MSTORE PUSH1 0x20 SWAP3 SWAP2 SWAP1 DUP4 SWAP1 DUP4 SWAP1 PUSH1 0x44 SWAP1 DUP3 SWAP1 DUP6 AND GAS STATICCALL SWAP2 DUP3 ISZERO PUSH2 0x303 JUMPI PUSH1 0x0 SWAP3 PUSH2 0x5DF JUMPI JUMPDEST POP PUSH2 0x505 PUSH2 0x500 CALLVALUE DUP5 PUSH2 0x1454 JUMP JUMPDEST PUSH2 0x1198 JUMP JUMPDEST PUSH1 0x40 MLOAD PUSH4 0x23B872DD PUSH1 0xE0 SHL DUP2 MSTORE CALLER PUSH1 0x4 DUP3 ADD MSTORE PUSH1 0x1 PUSH1 0x1 PUSH1 0xA0 SHL SUB DUP4 AND PUSH1 0x24 DUP3 ADD MSTORE PUSH1 0x44 DUP2 ADD DUP6 SWAP1 MSTORE SWAP5 DUP4 SWAP1 DUP7 SWAP1 PUSH1 0x64 SWAP1 DUP3 SWAP1 PUSH1 0x0 SWAP1 GAS CALL SWAP2 DUP3 ISZERO PUSH2 0x303 JUMPI PUSH2 0x558 DUP5 SWAP4 PUSH1 0x0 SWAP8 DUP9 SWAP2 PUSH2 0x5C2 JUMPI POP PUSH2 0x11E4 JUMP JUMPDEST PUSH1 0x40 MLOAD PUSH4 0xE7D3FE6B PUSH1 0xE0 SHL DUP2 MSTORE PUSH1 0x4 DUP2 ADD DUP7 SWAP1 MSTORE CALLVALUE PUSH1 0x24 DUP3 ADD MSTORE CALLER PUSH1 0x44 DUP3 ADD MSTORE SWAP6 DUP7 SWAP3 PUSH1 0x64 SWAP3 DUP5 SWAP3 SWAP2 AND GAS CALL SWAP3 DUP4 ISZERO PUSH2 0x303 JUMPI PUSH1 0x40 SWAP4 PUSH2 0x5A5 JUMPI JUMPDEST POP PUSH1 0x1 PUSH1 0x0 SSTORE DUP3 MLOAD SWAP2 DUP3 MSTORE CALLVALUE SWAP1 DUP3 ADD MSTORE RETURN JUMPDEST PUSH2 0x5BB SWAP1 DUP3 RETURNDATASIZE DUP5 GT PUSH2 0x2FC JUMPI PUSH2 0x2ED DUP2 DUP4 PUSH2 0x10DC JUMP JUMPDEST POP DUP4 PUSH2 0x593 JUMP JUMPDEST PUSH2 0x5D9 SWAP2 POP DUP6 RETURNDATASIZE DUP8 GT PUSH2 0x2FC JUMPI PUSH2 0x2ED DUP2 DUP4 PUSH2 0x10DC JUMP JUMPDEST DUP9 PUSH2 0x281 JUMP JUMPDEST PUSH2 0x5F7 SWAP2 SWAP3 POP DUP4 RETURNDATASIZE DUP6 GT PUSH2 0x3F5 JUMPI PUSH2 0x3E6 DUP2 DUP4 PUSH2 0x10DC JUMP JUMPDEST SWAP1 DUP6 PUSH2 0x4F2 JUMP JUMPDEST PUSH1 0x60 CALLDATASIZE PUSH1 0x3 NOT ADD SLT PUSH2 0x349 JUMPI PUSH2 0x612 PUSH2 0x101C JUMP JUMPDEST PUSH2 0x61A PUSH2 0x1032 JUMP JUMPDEST SWAP1 PUSH2 0x623 PUSH2 0x1048 JUMP JUMPDEST SWAP1 PUSH2 0x62C PUSH2 0x1230 JUMP JUMPDEST PUSH1 0x1 PUSH1 0x1 PUSH1 0xA0 SHL SUB DUP2 DUP2 AND SWAP4 PUSH2 0x643 DUP6 ISZERO ISZERO PUSH2 0x105E JUMP JUMPDEST PUSH2 0x650 DUP3 DUP3 AND ISZERO ISZERO PUSH2 0x105E JUMP JUMPDEST PUSH1 0x1 SLOAD PUSH1 0x2 SLOAD PUSH1 0x40 MLOAD PUSH4 0xE6A43905 PUSH1 0xE0 SHL DUP2 MSTORE PUSH1 0x1 PUSH1 0x1 PUSH1 0xA0 SHL SUB DUP7 DUP2 AND PUSH1 0x4 DUP4 ADD MSTORE SWAP2 DUP6 AND SWAP2 DUP3 AND PUSH1 0x24 DUP3 ADD MSTORE SWAP7 PUSH1 0x20 SWAP5 SWAP2 SWAP4 SWAP1 SWAP3 SWAP1 SWAP2 SWAP1 DUP2 AND SWAP1 DUP6 DUP10 PUSH1 0x44 DUP2 DUP6 GAS STATICCALL SWAP9 DUP10 ISZERO PUSH2 0x303 JUMPI PUSH1 0x0 SWAP10 PUSH2 0x9C8 JUMPI JUMPDEST POP PUSH2 0x6EE DUP7 PUSH2 0x6B7 DUP4 DUP13 AND SWAP8 CALLVALUE SWAP1 DUP12 PUSH2 0x12C8 JUMP JUMPDEST PUSH1 0x40 MLOAD PUSH4 0x2E2952F9 PUSH1 0xE1 SHL DUP2 MSTORE ADDRESS PUSH1 0x4 DUP3 ADD MSTORE PUSH1 0x1 PUSH1 0x1 PUSH1 0xA0 SHL SUB SWAP1 SWAP11 AND PUSH1 0x24 DUP12 ADD MSTORE PUSH1 0x44 DUP11 ADD DUP2 SWAP1 MSTORE SWAP9 SWAP2 DUP3 SWAP1 DUP2 SWAP1 PUSH1 0x64 DUP3 ADD SWAP1 JUMP JUMPDEST SUB DUP2 PUSH1 0x0 DUP11 GAS CALL SWAP1 DUP2 ISZERO PUSH2 0x303 JUMPI PUSH1 0x0 SWAP2 PUSH2 0x9AB JUMPI JUMPDEST POP ISZERO PUSH2 0x976 JUMPI PUSH1 0x40 MLOAD PUSH4 0xCF820461 PUSH1 0xE0 SHL DUP2 MSTORE DUP7 DUP2 PUSH1 0x4 DUP2 DUP7 GAS STATICCALL DUP1 ISZERO PUSH2 0x303 JUMPI DUP9 SWAP2 PUSH1 0x0 SWAP2 PUSH2 0x944 JUMPI JUMPDEST POP PUSH1 0x64 SWAP2 PUSH2 0x73C SWAP2 PUSH2 0x1135 JUMP JUMPDEST DIV SWAP1 PUSH1 0x0 SWAP1 DUP10 AND ISZERO PUSH2 0x92C JUMPI POP SWAP2 PUSH2 0x76F SWAP4 SWAP2 DUP7 PUSH2 0x7A7 SWAP5 PUSH2 0x775 PUSH1 0x64 PUSH2 0x765 DUP13 PUSH1 0x3 SLOAD PUSH2 0x1135 JUMP JUMPDEST DIV SWAP8 DUP9 DUP1 SWAP4 PUSH2 0x118B JUMP JUMPDEST DUP12 PUSH2 0x117E JUMP JUMPDEST PUSH1 0x40 MLOAD PUSH4 0x7B1A4909 PUSH1 0xE0 SHL DUP2 MSTORE PUSH1 0x1 PUSH1 0x1 PUSH1 0xA0 SHL SUB SWAP1 SWAP13 AND PUSH1 0x4 DUP14 ADD MSTORE PUSH1 0x24 DUP13 ADD SWAP2 SWAP1 SWAP2 MSTORE SWAP10 SWAP5 DUP6 SWAP1 DUP2 SWAP1 PUSH1 0x44 DUP3 ADD SWAP1 JUMP JUMPDEST SUB DUP2 PUSH1 0x0 DUP11 GAS CALL SWAP1 DUP2 ISZERO PUSH2 0x303 JUMPI PUSH2 0x7CA DUP9 SWAP3 PUSH1 0x4 SWAP7 PUSH1 0x0 SWAP2 PUSH2 0x90F JUMPI POP PUSH2 0x1198 JUMP JUMPDEST PUSH1 0x40 MLOAD PUSH3 0x2FCFCB PUSH1 0xE3 SHL DUP2 MSTORE SWAP5 DUP6 SWAP2 DUP3 SWAP1 GAS STATICCALL SWAP4 DUP5 ISZERO PUSH2 0x303 JUMPI PUSH2 0x84A SWAP10 PUSH2 0x810 PUSH2 0x500 PUSH1 0x0 SWAP4 DUP11 SWAP9 DUP14 DUP14 SWAP10 DUP8 SWAP3 PUSH2 0x8E8 JUMPI JUMPDEST POP PUSH2 0x500 PUSH2 0x80B SWAP2 DUP8 PUSH2 0x1454 JUMP JUMPDEST PUSH2 0x1454 JUMP JUMPDEST PUSH1 0x40 MLOAD PUSH4 0x23B872DD PUSH1 0xE0 SHL DUP2 MSTORE PUSH1 0x1 PUSH1 0x1 PUSH1 0xA0 SHL SUB SWAP2 DUP3 AND PUSH1 0x4 DUP3 ADD MSTORE SWAP3 AND PUSH1 0x24 DUP4 ADD MSTORE PUSH1 0x44 DUP3 ADD SWAP4 SWAP1 SWAP4 MSTORE SWAP8 DUP9 SWAP3 DUP4 SWAP2 DUP3 SWAP1 PUSH1 0x64 DUP3 ADD SWAP1 JUMP JUMPDEST SUB SWAP3 GAS CALL SWAP1 DUP2 ISZERO PUSH2 0x303 JUMPI PUSH2 0x869 DUP4 SWAP3 PUSH1 0x0 SWAP8 DUP9 SWAP2 PUSH2 0x8D1 JUMPI POP PUSH2 0x11E4 JUMP JUMPDEST PUSH1 0x84 PUSH1 0x40 MLOAD DUP1 SWAP8 DUP2 SWAP4 PUSH4 0x5673B02D PUSH1 0xE0 SHL DUP4 MSTORE DUP2 PUSH1 0x4 DUP5 ADD MSTORE DUP8 PUSH1 0x24 DUP5 ADD MSTORE DUP9 PUSH1 0x44 DUP5 ADD MSTORE DUP2 PUSH1 0x64 DUP5 ADD MSTORE GAS CALL SWAP4 DUP5 ISZERO PUSH2 0x303 JUMPI PUSH1 0x40 SWAP5 PUSH2 0x8B4 JUMPI POP PUSH1 0x1 PUSH1 0x0 SSTORE DUP4 MLOAD SWAP3 DUP4 MSTORE DUP3 ADD MSTORE RETURN JUMPDEST PUSH2 0x8CA SWAP1 DUP3 RETURNDATASIZE DUP5 GT PUSH2 0x2FC JUMPI PUSH2 0x2ED DUP2 DUP4 PUSH2 0x10DC JUMP JUMPDEST POP DUP5 PUSH2 0x2C6 JUMP JUMPDEST PUSH2 0x5D9 SWAP2 POP DUP5 RETURNDATASIZE DUP7 GT PUSH2 0x2FC JUMPI PUSH2 0x2ED DUP2 DUP4 PUSH2 0x10DC JUMP JUMPDEST PUSH2 0x80B SWAP2 SWAP3 POP PUSH2 0x907 PUSH2 0x500 SWAP2 DUP14 DUP1 RETURNDATASIZE LT PUSH2 0x3F5 JUMPI PUSH2 0x3E6 DUP2 DUP4 PUSH2 0x10DC JUMP JUMPDEST SWAP3 SWAP2 POP PUSH2 0x7FD JUMP JUMPDEST PUSH2 0x926 SWAP2 POP DUP5 RETURNDATASIZE DUP7 GT PUSH2 0x2FC JUMPI PUSH2 0x2ED DUP2 DUP4 PUSH2 0x10DC JUMP JUMPDEST DUP14 PUSH2 0x22B JUMP JUMPDEST SWAP4 SWAP2 SWAP8 POP SWAP2 DUP6 PUSH2 0x93E PUSH1 0x4 SWAP5 DUP10 PUSH2 0x117E JUMP JUMPDEST SWAP9 PUSH2 0x7CA JUMP JUMPDEST DUP1 SWAP3 POP DUP9 DUP1 SWAP3 POP RETURNDATASIZE DUP4 GT PUSH2 0x96F JUMPI JUMPDEST PUSH2 0x95D DUP2 DUP4 PUSH2 0x10DC JUMP JUMPDEST DUP2 ADD SUB SLT PUSH2 0x349 JUMPI MLOAD DUP8 SWAP1 PUSH1 0x64 PUSH2 0x72F JUMP JUMPDEST POP RETURNDATASIZE PUSH2 0x953 JUMP JUMPDEST PUSH1 0x40 MLOAD PUSH3 0x461BCD PUSH1 0xE5 SHL DUP2 MSTORE PUSH1 0x4 DUP2 ADD DUP8 SWAP1 MSTORE PUSH1 0xD PUSH1 0x24 DUP3 ADD MSTORE PUSH13 0x2737BA1020B8383937BB32B217 PUSH1 0x99 SHL PUSH1 0x44 DUP3 ADD MSTORE PUSH1 0x64 SWAP1 REVERT JUMPDEST PUSH2 0x9C2 SWAP2 POP DUP8 RETURNDATASIZE DUP10 GT PUSH2 0x2FC JUMPI PUSH2 0x2ED DUP2 DUP4 PUSH2 0x10DC JUMP JUMPDEST DUP11 PUSH2 0x704 JUMP JUMPDEST PUSH2 0x9E0 SWAP2 SWAP10 POP DUP7 RETURNDATASIZE DUP9 GT PUSH2 0x3F5 JUMPI PUSH2 0x3E6 DUP2 DUP4 PUSH2 0x10DC JUMP JUMPDEST SWAP8 DUP10 PUSH2 0x6A3 JUMP JUMPDEST CALLVALUE PUSH2 0x349 JUMPI PUSH1 0x80 CALLDATASIZE PUSH1 0x3 NOT ADD SLT PUSH2 0x349 JUMPI PUSH2 0xA00 PUSH2 0x1032 JUMP JUMPDEST PUSH2 0xA08 PUSH2 0x1048 JUMP JUMPDEST SWAP1 PUSH1 0x64 CALLDATALOAD PUSH1 0x1 PUSH1 0x1 PUSH1 0xA0 SHL SUB DUP2 AND SWAP1 SUB PUSH2 0x349 JUMPI PUSH2 0xA24 PUSH2 0x1230 JUMP JUMPDEST PUSH2 0xA38 PUSH1 0x1 PUSH1 0x1 PUSH1 0xA0 SHL SUB DUP3 AND ISZERO ISZERO PUSH2 0x105E JUMP JUMPDEST PUSH2 0xA4C PUSH1 0x1 PUSH1 0x1 PUSH1 0xA0 SHL SUB DUP4 AND ISZERO ISZERO PUSH2 0x105E JUMP JUMPDEST PUSH1 0x1 SLOAD PUSH1 0x2 SLOAD PUSH1 0x40 MLOAD PUSH4 0xE6A43905 PUSH1 0xE0 SHL DUP2 MSTORE PUSH1 0x1 PUSH1 0x1 PUSH1 0xA0 SHL SUB DUP5 DUP2 AND PUSH1 0x4 DUP4 ADD MSTORE SWAP2 DUP3 AND PUSH1 0x24 DUP3 ADD DUP2 SWAP1 MSTORE SWAP2 SWAP1 SWAP3 AND SWAP4 SWAP1 PUSH1 0x20 DUP4 PUSH1 0x44 DUP2 DUP9 GAS STATICCALL SWAP3 DUP4 ISZERO PUSH2 0x303 JUMPI PUSH1 0x0 SWAP4 PUSH2 0xFB7 JUMPI JUMPDEST POP PUSH2 0xAAC PUSH1 0x1 PUSH1 0x1 PUSH1 0xA0 SHL SUB DUP6 AND ISZERO ISZERO PUSH2 0x105E JUMP JUMPDEST PUSH1 0x40 MLOAD PUSH4 0xE6A43905 PUSH1 0xE0 SHL DUP2 MSTORE PUSH1 0x1 PUSH1 0x1 PUSH1 0xA0 SHL SUB DUP6 DUP2 AND PUSH1 0x4 DUP4 ADD MSTORE DUP3 AND PUSH1 0x24 DUP3 ADD MSTORE PUSH1 0x20 DUP2 PUSH1 0x44 DUP2 DUP10 GAS STATICCALL SWAP1 DUP2 ISZERO PUSH2 0x303 JUMPI PUSH1 0x0 SWAP2 PUSH2 0xF98 JUMPI JUMPDEST POP PUSH1 0x40 MLOAD PUSH4 0x240BC6B PUSH1 0xE2 SHL DUP2 MSTORE PUSH1 0x1 PUSH1 0x1 PUSH1 0xA0 SHL SUB SWAP2 SWAP1 SWAP2 AND SWAP2 PUSH1 0x60 DUP3 PUSH1 0x4 DUP2 DUP7 GAS STATICCALL SWAP1 DUP2 ISZERO PUSH2 0x303 JUMPI PUSH1 0x4 SWAP4 PUSH1 0x0 SWAP4 PUSH1 0x0 SWAP4 PUSH2 0xF6E JUMPI JUMPDEST POP PUSH1 0x20 SWAP1 PUSH1 0x40 MLOAD SWAP6 DUP7 DUP1 SWAP3 PUSH4 0x7464FC3D PUSH1 0xE0 SHL DUP3 MSTORE GAS STATICCALL SWAP4 DUP5 ISZERO PUSH2 0x303 JUMPI PUSH1 0x0 SWAP5 PUSH2 0xF3A JUMPI JUMPDEST POP PUSH2 0xF1F JUMPI PUSH2 0xB93 SWAP3 PUSH2 0xB60 PUSH2 0xB79 SWAP3 PUSH1 0x4 CALLDATALOAD SWAP1 PUSH2 0x150A JUMP JUMPDEST SWAP1 PUSH2 0xB74 PUSH2 0xB6C PUSH2 0x126E JUMP JUMPDEST DUP4 ISZERO ISZERO PUSH2 0x1564 JUMP JUMPDEST PUSH2 0x115E JUMP JUMPDEST SWAP1 PUSH2 0xB8E PUSH2 0xB85 PUSH2 0x1299 JUMP JUMPDEST DUP3 DUP5 GT ISZERO PUSH2 0x1564 JUMP JUMPDEST PUSH2 0x117E JUMP JUMPDEST SWAP3 JUMPDEST PUSH1 0x40 MLOAD PUSH4 0x23B872DD PUSH1 0xE0 SHL DUP2 MSTORE PUSH1 0x1 PUSH1 0x1 PUSH1 0xA0 SHL SUB DUP4 DUP2 AND PUSH1 0x4 DUP1 DUP5 ADD SWAP2 SWAP1 SWAP2 MSTORE DUP6 DUP3 AND PUSH1 0x24 DUP5 ADD MSTORE CALLDATALOAD PUSH1 0x44 DUP4 ADD MSTORE SWAP1 SWAP2 PUSH1 0x20 SWAP2 DUP4 SWAP2 PUSH1 0x64 SWAP2 DUP4 SWAP2 PUSH1 0x0 SWAP2 AND GAS CALL SWAP1 DUP2 ISZERO PUSH2 0x303 JUMPI PUSH1 0x0 SWAP2 PUSH2 0xF00 JUMPI JUMPDEST POP ISZERO PUSH2 0xEBB JUMPI PUSH1 0x40 MLOAD PUSH4 0xCF820461 PUSH1 0xE0 SHL DUP2 MSTORE PUSH1 0x20 DUP2 PUSH1 0x4 DUP2 DUP9 GAS STATICCALL DUP1 ISZERO PUSH2 0x303 JUMPI DUP5 SWAP2 PUSH1 0x0 SWAP2 PUSH2 0xE85 JUMPI JUMPDEST POP PUSH1 0x64 SWAP2 PUSH2 0xC1E SWAP2 PUSH2 0x1135 JUMP JUMPDEST DIV SWAP4 DUP5 PUSH1 0x64 CALLDATALOAD PUSH1 0x1 PUSH1 0x1 PUSH1 0xA0 SHL SUB AND ISZERO PUSH2 0xE70 JUMPI POP PUSH2 0xC8F SWAP1 PUSH1 0x20 PUSH2 0xC5C PUSH1 0x64 PUSH2 0xC4A DUP9 PUSH1 0x3 SLOAD PUSH2 0x1135 JUMP JUMPDEST DIV SWAP7 PUSH2 0xC56 DUP9 DUP11 PUSH2 0x118B JUMP JUMPDEST SWAP1 PUSH2 0x117E JUMP JUMPDEST PUSH1 0x40 MLOAD PUSH4 0x7B1A4909 PUSH1 0xE0 SHL DUP2 MSTORE PUSH1 0x1 PUSH1 0x1 PUSH1 0xA0 SHL SUB PUSH1 0x64 CALLDATALOAD AND PUSH1 0x4 DUP3 ADD MSTORE PUSH1 0x24 DUP2 ADD SWAP8 SWAP1 SWAP8 MSTORE SWAP6 SWAP3 DUP4 SWAP1 DUP2 SWAP1 PUSH1 0x44 DUP3 ADD SWAP1 JUMP JUMPDEST SUB DUP2 PUSH1 0x0 PUSH1 0x1 PUSH1 0x1 PUSH1 0xA0 SHL SUB DUP10 AND GAS CALL SWAP1 DUP2 ISZERO PUSH2 0x303 JUMPI PUSH2 0xCBC PUSH1 0x20 SWAP3 PUSH1 0x4 SWAP5 PUSH1 0x0 SWAP2 PUSH2 0xE53 JUMPI POP PUSH2 0x1198 JUMP JUMPDEST PUSH1 0x40 MLOAD PUSH3 0x2FCFCB PUSH1 0xE3 SHL DUP2 MSTORE SWAP3 DUP4 SWAP2 DUP3 SWAP1 GAS STATICCALL SWAP1 DUP2 ISZERO PUSH2 0x303 JUMPI PUSH1 0x0 SWAP2 PUSH2 0xE34 JUMPI JUMPDEST POP PUSH1 0x40 MLOAD PUSH4 0x7B1A4909 PUSH1 0xE0 SHL DUP1 DUP3 MSTORE PUSH1 0x1 PUSH1 0x1 PUSH1 0xA0 SHL SUB SWAP1 SWAP4 AND PUSH1 0x4 DUP3 ADD MSTORE PUSH1 0x24 DUP2 ADD DUP6 SWAP1 MSTORE SWAP2 PUSH1 0x20 DUP4 DUP1 PUSH1 0x44 DUP2 ADD SUB DUP2 PUSH1 0x0 PUSH1 0x1 PUSH1 0x1 PUSH1 0xA0 SHL SUB DUP10 AND GAS CALL SWAP3 DUP4 ISZERO PUSH2 0x303 JUMPI PUSH1 0x20 SWAP4 PUSH2 0xD38 SWAP2 PUSH1 0x0 SWAP2 PUSH2 0xE17 JUMPI POP PUSH2 0x1198 JUMP JUMPDEST PUSH1 0x40 MLOAD SWAP1 DUP2 MSTORE PUSH1 0x1 PUSH1 0x1 PUSH1 0xA0 SHL SUB SWAP2 DUP3 AND PUSH1 0x4 DUP3 ADD MSTORE PUSH1 0x24 DUP2 ADD SWAP6 SWAP1 SWAP6 MSTORE DUP5 SWAP1 PUSH1 0x44 SWAP1 DUP3 SWAP1 PUSH1 0x0 SWAP1 DUP7 AND GAS CALL SWAP1 DUP2 ISZERO PUSH2 0x303 JUMPI PUSH2 0xD80 PUSH1 0x20 SWAP3 PUSH1 0x0 SWAP6 DUP7 SWAP2 PUSH2 0xDFA JUMPI POP PUSH2 0x1198 JUMP JUMPDEST PUSH1 0x84 PUSH1 0x40 MLOAD DUP1 SWAP6 DUP2 SWAP4 PUSH4 0x5673B02D PUSH1 0xE0 SHL DUP4 MSTORE PUSH1 0x4 CALLDATALOAD PUSH1 0x4 DUP5 ADD MSTORE DUP2 PUSH1 0x24 DUP5 ADD MSTORE DUP2 PUSH1 0x44 DUP5 ADD MSTORE DUP7 PUSH1 0x64 DUP5 ADD MSTORE PUSH1 0x1 DUP1 PUSH1 0xA0 SHL SUB AND GAS CALL SWAP2 DUP3 ISZERO PUSH2 0x303 JUMPI PUSH1 0x40 SWAP3 PUSH2 0xDDB JUMPI JUMPDEST POP PUSH1 0x1 PUSH1 0x0 SSTORE DUP2 MLOAD SWAP1 PUSH1 0x4 CALLDATALOAD DUP3 MSTORE PUSH1 0x20 DUP3 ADD MSTORE RETURN JUMPDEST PUSH2 0xDF3 SWAP1 PUSH1 0x20 RETURNDATASIZE PUSH1 0x20 GT PUSH2 0x2FC JUMPI PUSH2 0x2ED DUP2 DUP4 PUSH2 0x10DC JUMP JUMPDEST POP DUP3 PUSH2 0xDC6 JUMP JUMPDEST PUSH2 0xE11 SWAP2 POP DUP5 RETURNDATASIZE DUP7 GT PUSH2 0x2FC JUMPI PUSH2 0x2ED DUP2 DUP4 PUSH2 0x10DC JUMP JUMPDEST DUP7 PUSH2 0x22B JUMP JUMPDEST PUSH2 0xE2E SWAP2 POP DUP6 RETURNDATASIZE DUP8 GT PUSH2 0x2FC JUMPI PUSH2 0x2ED DUP2 DUP4 PUSH2 0x10DC JUMP JUMPDEST DUP9 PUSH2 0x22B JUMP JUMPDEST PUSH2 0xE4D SWAP2 POP PUSH1 0x20 RETURNDATASIZE PUSH1 0x20 GT PUSH2 0x3F5 JUMPI PUSH2 0x3E6 DUP2 DUP4 PUSH2 0x10DC JUMP JUMPDEST DUP6 PUSH2 0xCDE JUMP JUMPDEST PUSH2 0xE6A SWAP2 POP DUP5 RETURNDATASIZE DUP7 GT PUSH2 0x2FC JUMPI PUSH2 0x2ED DUP2 DUP4 PUSH2 0x10DC JUMP JUMPDEST DUP10 PUSH2 0x22B JUMP JUMPDEST PUSH2 0xE7F PUSH1 0x20 SWAP2 PUSH1 0x4 SWAP4 SWAP7 PUSH2 0x117E JUMP JUMPDEST SWAP5 PUSH2 0xCBC JUMP JUMPDEST SWAP2 POP POP PUSH1 0x20 DUP2 RETURNDATASIZE PUSH1 0x20 GT PUSH2 0xEB3 JUMPI JUMPDEST DUP2 PUSH2 0xEA1 PUSH1 0x20 SWAP4 DUP4 PUSH2 0x10DC JUMP JUMPDEST DUP2 ADD SUB SLT PUSH2 0x349 JUMPI MLOAD DUP4 SWAP1 PUSH1 0x64 PUSH2 0xC11 JUMP JUMPDEST RETURNDATASIZE SWAP2 POP PUSH2 0xE94 JUMP JUMPDEST PUSH1 0x40 MLOAD PUSH3 0x461BCD PUSH1 0xE5 SHL DUP2 MSTORE PUSH1 0x20 PUSH1 0x4 DUP3 ADD MSTORE PUSH1 0x18 PUSH1 0x24 DUP3 ADD MSTORE PUSH32 0x5472616E73666572206F6620746F6B656E206661696C65640000000000000000 PUSH1 0x44 DUP3 ADD MSTORE PUSH1 0x64 SWAP1 REVERT JUMPDEST PUSH2 0xF19 SWAP2 POP PUSH1 0x20 RETURNDATASIZE PUSH1 0x20 GT PUSH2 0x2FC JUMPI PUSH2 0x2ED DUP2 DUP4 PUSH2 0x10DC JUMP JUMPDEST DUP6 PUSH2 0xBE5 JUMP JUMPDEST SWAP1 PUSH2 0xF34 SWAP3 PUSH2 0xB60 PUSH2 0xB79 SWAP3 PUSH1 0x4 CALLDATALOAD SWAP1 PUSH2 0x150A JUMP JUMPDEST SWAP3 PUSH2 0xB95 JUMP JUMPDEST SWAP1 SWAP4 POP PUSH1 0x20 DUP2 RETURNDATASIZE PUSH1 0x20 GT PUSH2 0xF66 JUMPI JUMPDEST DUP2 PUSH2 0xF56 PUSH1 0x20 SWAP4 DUP4 PUSH2 0x10DC JUMP JUMPDEST DUP2 ADD SUB SLT PUSH2 0x349 JUMPI MLOAD SWAP3 DUP9 PUSH2 0xB47 JUMP JUMPDEST RETURNDATASIZE SWAP2 POP PUSH2 0xF49 JUMP JUMPDEST PUSH1 0x20 SWAP5 POP PUSH2 0xF8C SWAP2 SWAP4 POP PUSH1 0x60 RETURNDATASIZE PUSH1 0x60 GT PUSH2 0x3C6 JUMPI PUSH2 0x3B6 DUP2 DUP4 PUSH2 0x10DC JUMP JUMPDEST SWAP5 SWAP2 SWAP1 POP SWAP4 SWAP3 SWAP1 PUSH2 0xB21 JUMP JUMPDEST PUSH2 0xFB1 SWAP2 POP PUSH1 0x20 RETURNDATASIZE PUSH1 0x20 GT PUSH2 0x3F5 JUMPI PUSH2 0x3E6 DUP2 DUP4 PUSH2 0x10DC JUMP JUMPDEST DUP7 PUSH2 0xAE8 JUMP JUMPDEST PUSH2 0xFD1 SWAP2 SWAP4 POP PUSH1 0x20 RETURNDATASIZE PUSH1 0x20 GT PUSH2 0x3F5 JUMPI PUSH2 0x3E6 DUP2 DUP4 PUSH2 0x10DC JUMP JUMPDEST SWAP2 DUP6 PUSH2 0xA97 JUMP JUMPDEST CALLVALUE PUSH2 0x349 JUMPI PUSH1 0x60 CALLDATASIZE PUSH1 0x3 NOT ADD SLT PUSH2 0x349 JUMPI PUSH1 0x20 PUSH2 0x100F PUSH2 0xFF6 PUSH2 0x101C JUMP JUMPDEST PUSH2 0xFFE PUSH2 0x1032 JUMP JUMPDEST PUSH2 0x1006 PUSH2 0x1230 JUMP JUMPDEST PUSH1 0x44 CALLDATALOAD SWAP2 PUSH2 0x12C8 JUMP JUMPDEST PUSH1 0x1 PUSH1 0x0 SSTORE PUSH1 0x40 MLOAD SWAP1 DUP2 MSTORE RETURN JUMPDEST PUSH1 0x4 CALLDATALOAD SWAP1 PUSH1 0x1 PUSH1 0x1 PUSH1 0xA0 SHL SUB DUP3 AND DUP3 SUB PUSH2 0x349 JUMPI JUMP JUMPDEST PUSH1 0x24 CALLDATALOAD SWAP1 PUSH1 0x1 PUSH1 0x1 PUSH1 0xA0 SHL SUB DUP3 AND DUP3 SUB PUSH2 0x349 JUMPI JUMP JUMPDEST PUSH1 0x44 CALLDATALOAD SWAP1 PUSH1 0x1 PUSH1 0x1 PUSH1 0xA0 SHL SUB DUP3 AND DUP3 SUB PUSH2 0x349 JUMPI JUMP JUMPDEST ISZERO PUSH2 0x1065 JUMPI JUMP JUMPDEST PUSH1 0x40 MLOAD PUSH3 0x461BCD PUSH1 0xE5 SHL DUP2 MSTORE PUSH1 0x20 PUSH1 0x4 DUP3 ADD MSTORE PUSH1 0x1F PUSH1 0x24 DUP3 ADD MSTORE PUSH32 0x5A65726F2061646472657373657320617265206E6F7420616C6C6F7765642E00 PUSH1 0x44 DUP3 ADD MSTORE PUSH1 0x64 SWAP1 REVERT JUMPDEST PUSH1 0x40 DUP2 ADD SWAP1 DUP2 LT PUSH8 0xFFFFFFFFFFFFFFFF DUP3 GT OR PUSH2 0x10C6 JUMPI PUSH1 0x40 MSTORE JUMP JUMPDEST PUSH4 0x4E487B71 PUSH1 0xE0 SHL PUSH1 0x0 MSTORE PUSH1 0x41 PUSH1 0x4 MSTORE PUSH1 0x24 PUSH1 0x0 REVERT JUMPDEST SWAP1 PUSH1 0x1F DUP1 NOT SWAP2 ADD AND DUP2 ADD SWAP1 DUP2 LT PUSH8 0xFFFFFFFFFFFFFFFF DUP3 GT OR PUSH2 0x10C6 JUMPI PUSH1 0x40 MSTORE JUMP JUMPDEST SWAP1 DUP2 PUSH1 0x20 SWAP2 SUB SLT PUSH2 0x349 JUMPI MLOAD PUSH1 0x1 PUSH1 0x1 PUSH1 0xA0 SHL SUB DUP2 AND DUP2 SUB PUSH2 0x349 JUMPI SWAP1 JUMP JUMPDEST SWAP1 DUP2 PUSH1 0x20 SWAP2 SUB SLT PUSH2 0x349 JUMPI MLOAD DUP1 ISZERO ISZERO DUP2 SUB PUSH2 0x349 JUMPI SWAP1 JUMP JUMPDEST DUP2 DUP2 MUL SWAP3 SWAP2 DUP2 ISZERO SWAP2 DUP5 DIV EQ OR ISZERO PUSH2 0x1148 JUMPI JUMP JUMPDEST PUSH4 0x4E487B71 PUSH1 0xE0 SHL PUSH1 0x0 MSTORE PUSH1 0x11 PUSH1 0x4 MSTORE PUSH1 0x24 PUSH1 0x0 REVERT JUMPDEST DUP2 ISZERO PUSH2 0x1168 JUMPI DIV SWAP1 JUMP JUMPDEST PUSH4 0x4E487B71 PUSH1 0xE0 SHL PUSH1 0x0 MSTORE PUSH1 0x12 PUSH1 0x4 MSTORE PUSH1 0x24 PUSH1 0x0 REVERT JUMPDEST SWAP2 SWAP1 DUP3 SUB SWAP2 DUP3 GT PUSH2 0x1148 JUMPI JUMP JUMPDEST SWAP2 SWAP1 DUP3 ADD DUP1 SWAP3 GT PUSH2 0x1148 JUMPI JUMP JUMPDEST ISZERO PUSH2 0x119F JUMPI JUMP JUMPDEST PUSH1 0x40 MLOAD PUSH3 0x461BCD PUSH1 0xE5 SHL DUP2 MSTORE PUSH1 0x20 PUSH1 0x4 DUP3 ADD MSTORE PUSH1 0x17 PUSH1 0x24 DUP3 ADD MSTORE PUSH32 0x5472616E73666572206F6620455448206661696C65642E000000000000000000 PUSH1 0x44 DUP3 ADD MSTORE PUSH1 0x64 SWAP1 REVERT JUMPDEST ISZERO PUSH2 0x11EB JUMPI JUMP JUMPDEST PUSH1 0x40 MLOAD PUSH3 0x461BCD PUSH1 0xE5 SHL DUP2 MSTORE PUSH1 0x20 PUSH1 0x4 DUP3 ADD MSTORE PUSH1 0x19 PUSH1 0x24 DUP3 ADD MSTORE PUSH32 0x5472616E73666572206F6620746F6B656E206661696C65642E00000000000000 PUSH1 0x44 DUP3 ADD MSTORE PUSH1 0x64 SWAP1 REVERT JUMPDEST PUSH1 0x2 PUSH1 0x0 SLOAD EQ PUSH2 0x1241 JUMPI PUSH1 0x2 PUSH1 0x0 SSTORE JUMP JUMPDEST PUSH1 0x40 MLOAD PUSH4 0x3EE5AEB5 PUSH1 0xE0 SHL DUP2 MSTORE PUSH1 0x4 SWAP1 REVERT JUMPDEST SWAP1 DUP2 PUSH1 0x60 SWAP2 SUB SLT PUSH2 0x349 JUMPI DUP1 MLOAD SWAP2 PUSH1 0x40 PUSH1 0x20 DUP4 ADD MLOAD SWAP3 ADD MLOAD SWAP1 JUMP JUMPDEST PUSH1 0x40 MLOAD SWAP1 PUSH2 0x127B DUP3 PUSH2 0x10AA JUMP JUMPDEST PUSH1 0xF DUP3 MSTORE PUSH15 0x111A5D9A5CDA5BDB8819985A5B1959 PUSH1 0x8A SHL PUSH1 0x20 DUP4 ADD MSTORE JUMP JUMPDEST PUSH1 0x40 MLOAD SWAP1 PUSH2 0x12A6 DUP3 PUSH2 0x10AA JUMP JUMPDEST PUSH1 0x13 DUP3 MSTORE PUSH19 0x29BAB13A3930B1BA34B7B7103330B4B632B217 PUSH1 0x69 SHL PUSH1 0x20 DUP4 ADD MSTORE JUMP JUMPDEST PUSH1 0x1 PUSH1 0x1 PUSH1 0xA0 SHL SUB SWAP3 SWAP1 SWAP2 PUSH2 0x12E0 DUP5 DUP5 AND ISZERO ISZERO PUSH2 0x105E JUMP JUMPDEST PUSH1 0x1 SLOAD PUSH1 0x2 SLOAD PUSH1 0x40 DUP1 MLOAD PUSH4 0xE6A43905 PUSH1 0xE0 SHL DUP2 MSTORE PUSH1 0x1 PUSH1 0x1 PUSH1 0xA0 SHL SUB SWAP7 DUP8 AND PUSH1 0x4 DUP3 ADD MSTORE SWAP2 DUP8 AND SWAP6 DUP7 AND PUSH1 0x24 DUP4 ADD MSTORE PUSH1 0x20 SWAP7 SWAP1 SWAP6 SWAP3 SWAP1 SWAP2 SWAP1 DUP8 SWAP1 DUP3 SWAP1 PUSH1 0x44 SWAP1 DUP3 SWAP1 DUP7 AND GAS STATICCALL SWAP1 DUP2 ISZERO PUSH2 0x1449 JUMPI SWAP1 DUP3 SWAP2 PUSH1 0x0 SWAP2 PUSH2 0x142C JUMPI JUMPDEST POP AND SWAP3 DUP6 MLOAD SWAP7 PUSH4 0x240BC6B PUSH1 0xE2 SHL DUP9 MSTORE PUSH1 0x60 DUP9 PUSH1 0x4 DUP2 DUP9 GAS STATICCALL SWAP5 DUP6 ISZERO PUSH2 0x1421 JUMPI PUSH1 0x0 SWAP9 PUSH1 0x0 SWAP7 PUSH2 0x13F2 JUMPI JUMPDEST POP SWAP1 DUP1 PUSH1 0x4 SWAP3 DUP10 MLOAD SWAP4 DUP5 DUP1 SWAP3 PUSH4 0x7464FC3D PUSH1 0xE0 SHL DUP3 MSTORE GAS STATICCALL SWAP8 DUP9 ISZERO PUSH2 0x13E8 JUMPI POP PUSH1 0x0 SWAP8 PUSH2 0x13B8 JUMPI JUMPDEST POP POP AND SUB PUSH2 0x13A7 JUMPI SWAP2 PUSH2 0xB60 PUSH2 0xB79 SWAP3 PUSH2 0x13A4 SWAP6 SWAP5 PUSH2 0x150A JUMP JUMPDEST SWAP1 JUMP JUMPDEST SWAP2 PUSH2 0xB60 PUSH2 0xB79 SWAP3 PUSH2 0x13A4 SWAP6 PUSH2 0x150A JUMP JUMPDEST SWAP1 DUP1 SWAP3 SWAP8 POP DUP2 RETURNDATASIZE DUP4 GT PUSH2 0x13E1 JUMPI JUMPDEST PUSH2 0x13D0 DUP2 DUP4 PUSH2 0x10DC JUMP JUMPDEST DUP2 ADD SUB SLT PUSH2 0x349 JUMPI MLOAD SWAP5 CODESIZE DUP1 PUSH2 0x138A JUMP JUMPDEST POP RETURNDATASIZE PUSH2 0x13C6 JUMP JUMPDEST MLOAD RETURNDATASIZE PUSH1 0x0 DUP3 RETURNDATACOPY RETURNDATASIZE SWAP1 REVERT JUMPDEST DUP3 SWAP10 POP PUSH1 0x4 SWAP3 SWAP2 SWAP7 POP PUSH2 0x1413 SWAP1 PUSH1 0x60 RETURNDATASIZE PUSH1 0x60 GT PUSH2 0x3C6 JUMPI PUSH2 0x3B6 DUP2 DUP4 PUSH2 0x10DC JUMP JUMPDEST SWAP11 SWAP2 SWAP1 POP SWAP10 SWAP7 SWAP2 SWAP3 POP PUSH2 0x1362 JUMP JUMPDEST DUP8 MLOAD RETURNDATASIZE PUSH1 0x0 DUP3 RETURNDATACOPY RETURNDATASIZE SWAP1 REVERT JUMPDEST PUSH2 0x1443 SWAP2 POP DUP9 RETURNDATASIZE DUP11 GT PUSH2 0x3F5 JUMPI PUSH2 0x3E6 DUP2 DUP4 PUSH2 0x10DC JUMP JUMPDEST CODESIZE PUSH2 0x1337 JUMP JUMPDEST DUP7 MLOAD RETURNDATASIZE PUSH1 0x0 DUP3 RETURNDATACOPY RETURNDATASIZE SWAP1 REVERT JUMPDEST PUSH1 0x1 PUSH1 0x1 PUSH1 0xA0 SHL SUB AND PUSH2 0x1468 DUP2 ISZERO ISZERO PUSH2 0x105E JUMP JUMPDEST PUSH1 0x0 DUP1 DUP1 DUP1 SWAP5 DUP2 SWAP5 GAS CALL SWAP1 RETURNDATASIZE ISZERO PUSH2 0x1504 JUMPI RETURNDATASIZE SWAP1 PUSH8 0xFFFFFFFFFFFFFFFF DUP3 GT PUSH2 0x14F0 JUMPI PUSH1 0x40 MLOAD SWAP2 PUSH2 0x14A2 PUSH1 0x1F DUP3 ADD PUSH1 0x1F NOT AND PUSH1 0x20 ADD DUP5 PUSH2 0x10DC JUMP JUMPDEST DUP3 MSTORE PUSH1 0x20 RETURNDATASIZE SWAP3 ADD RETURNDATACOPY JUMPDEST DUP1 ISZERO PUSH2 0x14B4 JUMPI SWAP1 JUMP JUMPDEST PUSH1 0x40 MLOAD PUSH3 0x461BCD PUSH1 0xE5 SHL DUP2 MSTORE PUSH1 0x20 PUSH1 0x4 DUP3 ADD MSTORE PUSH1 0x14 PUSH1 0x24 DUP3 ADD MSTORE PUSH20 0x2A3930B739B332B91022AA24102330B4B632B217 PUSH1 0x61 SHL PUSH1 0x44 DUP3 ADD MSTORE PUSH1 0x64 SWAP1 REVERT JUMPDEST PUSH4 0x4E487B71 PUSH1 0xE0 SHL DUP2 MSTORE PUSH1 0x41 PUSH1 0x4 MSTORE PUSH1 0x24 SWAP1 REVERT JUMPDEST POP PUSH2 0x14AB JUMP JUMPDEST SWAP1 PUSH2 0x1515 SWAP1 DUP3 PUSH2 0x118B JUMP JUMPDEST SWAP1 DUP2 LT PUSH2 0x151F JUMPI SWAP1 JUMP JUMPDEST PUSH1 0x40 MLOAD PUSH3 0x461BCD PUSH1 0xE5 SHL DUP2 MSTORE PUSH1 0x20 PUSH1 0x4 DUP3 ADD MSTORE PUSH1 0x1B PUSH1 0x24 DUP3 ADD MSTORE PUSH32 0x536166654D6174683A206164646974696F6E206F766572666C6F770000000000 PUSH1 0x44 DUP3 ADD MSTORE PUSH1 0x64 SWAP1 REVERT JUMPDEST ISZERO PUSH2 0x156C JUMPI POP JUMP JUMPDEST PUSH1 0x40 MLOAD SWAP1 PUSH3 0x461BCD PUSH1 0xE5 SHL DUP3 MSTORE DUP2 PUSH1 0x20 DUP1 PUSH1 0x4 DUP4 ADD MSTORE DUP3 MLOAD SWAP1 DUP2 PUSH1 0x24 DUP5 ADD MSTORE PUSH1 0x0 SWAP4 JUMPDEST DUP3 DUP6 LT PUSH2 0x15B2 JUMPI POP POP PUSH1 0x44 SWAP3 POP PUSH1 0x0 DUP4 DUP3 DUP5 ADD ADD MSTORE PUSH1 0x1F DUP1 NOT SWAP2 ADD AND DUP2 ADD SUB ADD SWAP1 REVERT JUMPDEST DUP5 DUP2 ADD DUP3 ADD MLOAD DUP7 DUP7 ADD PUSH1 0x44 ADD MSTORE SWAP4 DUP2 ADD SWAP4 DUP6 SWAP4 POP PUSH2 0x158F JUMP INVALID LOG2 PUSH5 0x6970667358 0x22 SLT KECCAK256 JUMPDEST CALLCODE 0xDF 0xA8 0xB2 TLOAD MUL DUP2 SWAP4 0xEE 0x24 SLOAD PUSH24 0x4B047FCBC292C1AB75040E169149503CC40B9264736F6C63 NUMBER STOP ADDMOD XOR STOP CALLER "
        },
        "methodIdentifiers": {
          "WETH()": "ad5c4648",
          "addLiquidityETH(address,uint256)": "7282d548",
          "factory()": "c45a0155",
          "getAmountsOut(address,address,uint256)": "45608d00",
          "referralFee()": "84ae2bc6",
          "removeLiquidityETH(address,uint256,address)": "e79a4089",
          "swapETHForTokens(address,address,address)": "57f8d901",
          "swapTokensForETH(uint256,address,address,address)": "512b1e6e"
        }
      }
    }
  }
}