{
  "contracts/Router.sol": {
    "Router": {
      "abi": [
        {
          "inputs": [
            {
              "internalType": "address",
              "name": "factory_",
              "type": "address"
            },
            {
              "internalType": "address",
              "name": "weth",
              "type": "address"
            }
          ],
          "stateMutability": "nonpayable",
          "type": "constructor"
        },
        {
          "inputs": [],
          "name": "ReentrancyGuardReentrantCall",
          "type": "error"
        },
        {
          "inputs": [],
          "name": "WETH",
          "outputs": [
            {
              "internalType": "address",
              "name": "",
              "type": "address"
            }
          ],
          "stateMutability": "view",
          "type": "function"
        },
        {
          "inputs": [
            {
              "internalType": "address",
              "name": "token",
              "type": "address"
            },
            {
              "internalType": "uint256",
              "name": "amountToken",
              "type": "uint256"
            }
          ],
          "name": "addLiquidityETH",
          "outputs": [
            {
              "internalType": "uint256",
              "name": "",
              "type": "uint256"
            },
            {
              "internalType": "uint256",
              "name": "",
              "type": "uint256"
            }
          ],
          "stateMutability": "payable",
          "type": "function"
        },
        {
          "inputs": [],
          "name": "factory",
          "outputs": [
            {
              "internalType": "address",
              "name": "",
              "type": "address"
            }
          ],
          "stateMutability": "view",
          "type": "function"
        },
        {
          "inputs": [
            {
              "internalType": "address",
              "name": "token",
              "type": "address"
            },
            {
              "internalType": "address",
              "name": "weth",
              "type": "address"
            },
            {
              "internalType": "uint256",
              "name": "amountIn",
              "type": "uint256"
            }
          ],
          "name": "getAmountsOut",
          "outputs": [
            {
              "internalType": "uint256",
              "name": "_amountOut",
              "type": "uint256"
            }
          ],
          "stateMutability": "nonpayable",
          "type": "function"
        },
        {
          "inputs": [
            {
              "internalType": "address",
              "name": "token",
              "type": "address"
            },
            {
              "internalType": "uint256",
              "name": "liquidity",
              "type": "uint256"
            },
            {
              "internalType": "address",
              "name": "to",
              "type": "address"
            }
          ],
          "name": "removeLiquidityETH",
          "outputs": [
            {
              "internalType": "uint256",
              "name": "",
              "type": "uint256"
            },
            {
              "internalType": "uint256",
              "name": "",
              "type": "uint256"
            }
          ],
          "stateMutability": "nonpayable",
          "type": "function"
        },
        {
          "inputs": [
            {
              "internalType": "address",
              "name": "token",
              "type": "address"
            },
            {
              "internalType": "address",
              "name": "to",
              "type": "address"
            }
          ],
          "name": "swapETHForTokens",
          "outputs": [
            {
              "internalType": "uint256",
              "name": "",
              "type": "uint256"
            },
            {
              "internalType": "uint256",
              "name": "",
              "type": "uint256"
            }
          ],
          "stateMutability": "payable",
          "type": "function"
        },
        {
          "inputs": [
            {
              "internalType": "uint256",
              "name": "amountIn",
              "type": "uint256"
            },
            {
              "internalType": "address",
              "name": "token",
              "type": "address"
            },
            {
              "internalType": "address",
              "name": "to",
              "type": "address"
            }
          ],
          "name": "swapTokensForETH",
          "outputs": [
            {
              "internalType": "uint256",
              "name": "",
              "type": "uint256"
            },
            {
              "internalType": "uint256",
              "name": "",
              "type": "uint256"
            }
          ],
          "stateMutability": "nonpayable",
          "type": "function"
        }
      ],
      "evm": {
        "bytecode": {
          "linkReferences": {},
          "object": "608034620000b257601f620014ad38819003918201601f19168301916001600160401b03831184841017620000b7578084926040948552833981010312620000b2576200005a60206200005283620000cd565b9201620000cd565b60016000556001600160a01b03918216919062000079831515620000e2565b169062000088821515620000e2565b60018060a01b031990816001541617600155600254161760025560405161137d9081620001308239f35b600080fd5b634e487b7160e01b600052604160045260246000fd5b51906001600160a01b0382168203620000b257565b15620000ea57565b60405162461bcd60e51b815260206004820152601f60248201527f5a65726f2061646472657373657320617265206e6f7420616c6c6f7765642e006044820152606490fdfe60406080815260048036101561001457600080fd5b6000803560e01c806345608d0014610d405780636bf09f10146108965780637282d548146106fd5780637f54a36914610428578063ad5c4648146103ff578063c45a0155146103d25763e79a40891461006c57600080fd5b346103cf5760603660031901126103cf57610085610d79565b9160243591610092610daa565b61009a611135565b6001600160a01b03928584166100b1811515610efb565b6100be8584161515610efb565b600154600254895163e6a4390560e01b81526001600160a01b038a8116868301908152928916166020808401919091529790959290918891879182900360400190829085165afa9485156103c5578695610396575b508416938951630240bc6b60e21b81526060818681895afa801561032e576064610159610195938b938d8c928d92610359575b50849161015291611047565b049c611047565b8d51632e2952f960e11b8152308982019081526001600160a01b03909e1660208f015291900460408d018190529b909283918291606090910190565b03818a8a5af190811561032e57879161033c575b5015610338578951637b1a490960e01b81526001600160a01b038316858201908152602081018a905288908290819060400103818a8a5af190811561032e5792878b9361020361024097948c978491610311575b5061109d565b8d516323b872dd60e01b81526001600160a01b03918216898201908152919093166020820152604081019490945290948593849291839160600190565b03925af19081156103075792859261026461029393879687916102ea575b506110e9565b8951631d24e23160e21b8152908101898152602081018990523360408201529094859384928391606090910190565b03925af180156102e05790600192916102b3575b50558351928352820152f35b6102d290843d86116102d9575b6102ca8183610f79565b81019061102f565b50386102a7565b503d6102c0565b86513d84823e3d90fd5b6103019150863d88116102d9576102ca8183610f79565b3861025e565b88513d86823e3d90fd5b6103289150883d8a116102d9576102ca8183610f79565b386101fd565b8b513d89823e3d90fd5b8580fd5b6103539150883d8a116102d9576102ca8183610f79565b386101a9565b6101529193508592506103839060603d60601161038f575b61037b8183610f79565b810190610fba565b50939093925090610146565b503d610371565b6103b7919550873d89116103be575b6103af8183610f79565b810190610f9b565b9338610113565b503d6103a5565b8a513d88823e3d90fd5b80fd5b5082346103fb57816003193601126103fb5760015490516001600160a01b039091168152602090f35b5080fd5b5082346103fb57816003193601126103fb5760025490516001600160a01b039091168152602090f35b50826003193601126103cf5761043c610d79565b90610445610d94565b9061044e611135565b6001600160a01b0383811694909290610468861515610efb565b6104758483161515610efb565b83600154169584600254169288519563e6a4390560e01b87526020968781806104ba898d8a840190602090939293604083019460018060a01b03809216845216910152565b03818d5afa90811561032e57889088926106d8575b506104e3829361051d93169734908c610dc0565b8c51632e2952f960e11b8152308882019081526001600160a01b03909c1660208d015260408c01829052909a909283918291606090910190565b03818a8a5af190811561032e5787916106bb575b501561068857895163cf82046160e01b8152878186818d5afa90811561032e578791610655575b506105666064913490611047565b0484886105738334611090565b9b8d5192838092622fcfcb60e31b82525afa90811561064b578a936102036105b56105bf98958f958e99968e968792610624575b506105b56105ba9187611291565b61109d565b611291565b03925af19081156103075785926105e0869360849385916102ea57506110e9565b828a519586948593635673b02d60e01b85528401528960248401528a60448401528160648401525af180156102e05790600192916102b35750558351928352820152f35b6105ba9192506106436105b5918d803d106103be576103af8183610f79565b9291506105a7565b8c513d8a823e3d90fd5b90508781813d8311610681575b61066c8183610f79565b8101031261067d5751610566610558565b8680fd5b503d610662565b895162461bcd60e51b8152808501889052600d60248201526c2737ba1020b8383937bb32b21760991b6044820152606490fd5b6106d29150883d8a116102d9576102ca8183610f79565b38610531565b61051d92506106f66104e391833d85116103be576103af8183610f79565b92506104cf565b50826003193601126103cf57610711610d79565b906024359261071e611135565b6001600160a01b039083821690610736821515610efb565b600154600254885163e6a4390560e01b81526001600160a01b03978816848201908152918616909716602080830191909152969391879185918716908290819060400103915afa92831561086d578593610877575b506107996105b53485611291565b87516323b872dd60e01b8152338382019081526001600160a01b0385166020820152604081018990529091879183919082908990829060600103925af190811561086d57916107f48794926108239488916102ea57506110e9565b885163e7d3fe6b60e01b8152908101888152346020820152336040820152909485938492889291849160600190565b0393165af18015610863579060019291610846575b505582519182523490820152f35b61085c90843d86116102d9576102ca8183610f79565b5038610838565b85513d84823e3d90fd5b88513d87823e3d90fd5b61088f919350863d88116103be576103af8183610f79565b913861078b565b5090346103fb5760603660031901126103fb578035916108b4610d94565b906108bd610daa565b6108c5611135565b6001600160a01b039383851680151592906108df84610efb565b6108ec8288161515610efb565b6001546002548a5163e6a4390560e01b8082526001600160a01b038a8116888401908152938c1616602080850191909152938b169a9399909391928a908490819003604001818e5afa928315610d13578d918b918b95610d1d575b5084956109628561099e9697169b61095d611135565b610efb565b60015460025494519182526001600160a01b03928316828c01908152948716928316602086015291949093849287169183918291604090910190565b03915afa908115610d135790878e6060938c93610cf4575b5051630240bc6b60e21b81529485928391165afa801561064b5793610a7e93898b948f9897948f809684938591610cce575b506109f38185611158565b92610cb75791610a0a610a2392610a3d95946111d1565b90610a1e610a16610fd5565b83151561122a565b611070565b90610a38610a2f611000565b8284111561122a565b611090565b975b60018255516323b872dd60e01b81526001600160a01b038089168b83019081529316602084015260408301949094529294859384929091839160600190565b03925af19081156103c5578691610c9a575b5015610c5757885163cf82046160e01b8152868185818b5afa9081156103c5578385939289928991610c1f575b50610acd610ad592606492611047565b048095611090565b988b5193848092622fcfcb60e31b82525afa9182156103c5578692610c00575b508951637b1a490960e01b8082526001600160a01b03909216858201908152602081018a905288908290819060400103818a8a5af190811561032e5788939291610b45918991610be9575061109d565b8a519081526001600160a01b0390911684820190815260208101939093529182908190604001038187875af1908115610307578592610b8e89936084938891610bd2575061109d565b858a519586948593635673b02d60e01b85528401528160248401528160448401528960648401525af180156102e05790600192916102b35750558351928352820152f35b6103289150863d88116102d9576102ca8183610f79565b6103289150853d87116102d9576102ca8183610f79565b610c18919250873d89116103be576103af8183610f79565b9038610af5565b939450505081813d8311610c50575b610c388183610f79565b81010312610338575183919087908490610acd610abd565b503d610c2e565b885162461bcd60e51b8152808401879052601860248201527f5472616e73666572206f6620746f6b656e206661696c656400000000000000006044820152606490fd5b610cb19150873d89116102d9576102ca8183610f79565b38610a90565b91610a0a610a2392610cc8956111d1565b97610a3f565b9050610cea91935060603d60601161038f5761037b8183610f79565b50929092386109e8565b610d0c9193508d803d106103be576103af8183610f79565b91386109b6565b8d513d8b823e3d90fd5b61099e949550610d3990833d85116103be576103af8183610f79565b9493610947565b5082346103fb5760603660031901126103fb57602090610d72610d61610d79565b610d69610d94565b60443591610dc0565b9051908152f35b600435906001600160a01b0382168203610d8f57565b600080fd5b602435906001600160a01b0382168203610d8f57565b604435906001600160a01b0382168203610d8f57565b91610dc9611135565b6001600160a01b0392610e2690610de38186161515610efb565b60015460025460405163e6a4390560e01b81526001600160a01b039384166004820152908716928316602482015292602091849190881690829081906044820190565b03915afa918215610ed0578592606091600091610edc575b50600460405180988193630240bc6b60e21b8352165afa918215610ed0576000958693610ea8575b50610e718387611158565b941603610e925791610a0a610a2392610e8a95946111d1565b906001600055565b91610a0a610a2392610ea3956111d1565b610e8a565b909250610ec591955060603d60601161038f5761037b8183610f79565b509490949138610e66565b6040513d6000823e3d90fd5b610ef5915060203d6020116103be576103af8183610f79565b38610e3e565b15610f0257565b60405162461bcd60e51b815260206004820152601f60248201527f5a65726f2061646472657373657320617265206e6f7420616c6c6f7765642e006044820152606490fd5b6040810190811067ffffffffffffffff821117610f6357604052565b634e487b7160e01b600052604160045260246000fd5b90601f8019910116810190811067ffffffffffffffff821117610f6357604052565b90816020910312610d8f57516001600160a01b0381168103610d8f5790565b90816060910312610d8f578051916040602083015192015190565b60405190610fe282610f47565b600f82526e111a5d9a5cda5bdb8819985a5b1959608a1b6020830152565b6040519061100d82610f47565b601382527229bab13a3930b1ba34b7b7103330b4b632b21760691b6020830152565b90816020910312610d8f57518015158103610d8f5790565b8181029291811591840414171561105a57565b634e487b7160e01b600052601160045260246000fd5b811561107a570490565b634e487b7160e01b600052601260045260246000fd5b9190820391821161105a57565b156110a457565b60405162461bcd60e51b815260206004820152601760248201527f5472616e73666572206f6620455448206661696c65642e0000000000000000006044820152606490fd5b156110f057565b60405162461bcd60e51b815260206004820152601960248201527f5472616e73666572206f6620746f6b656e206661696c65642e000000000000006044820152606490fd5b600260005414611146576002600055565b604051633ee5aeb560e01b8152600490fd5b9081156111ca5761117361116c8284611047565b9283611070565b0361117b5790565b60405162461bcd60e51b815260206004820152602160248201527f536166654d6174683a206d756c7469706c69636174696f6e206f766572666c6f6044820152607760f81b6064820152608490fd5b5050600090565b9081019081811161105a5781106111e55790565b60405162461bcd60e51b815260206004820152601b60248201527f536166654d6174683a206164646974696f6e206f766572666c6f7700000000006044820152606490fd5b156112325750565b6040519062461bcd60e51b82528160208060048301528251908160248401526000935b828510611278575050604492506000838284010152601f80199101168101030190fd5b8481018201518686016044015293810193859350611255565b6001600160a01b03166112a5811515610efb565b60008080809481945af1903d15611341573d9067ffffffffffffffff821161132d57604051916112df601f8201601f191660200184610f79565b825260203d92013e5b80156112f15790565b60405162461bcd60e51b81526020600482015260146024820152732a3930b739b332b91022aa24102330b4b632b21760611b6044820152606490fd5b634e487b7160e01b81526041600452602490fd5b506112e856fea26469706673582212207b80cba1b3e69efce9bb7d15ce96c48b83f5c0c01ae28bb80c3d9e42f3f3a1b964736f6c63430008180033",
          "opcodes": "PUSH1 0x80 CALLVALUE PUSH3 0xB2 JUMPI PUSH1 0x1F PUSH3 0x14AD CODESIZE DUP2 SWAP1 SUB SWAP2 DUP3 ADD PUSH1 0x1F NOT AND DUP4 ADD SWAP2 PUSH1 0x1 PUSH1 0x1 PUSH1 0x40 SHL SUB DUP4 GT DUP5 DUP5 LT OR PUSH3 0xB7 JUMPI DUP1 DUP5 SWAP3 PUSH1 0x40 SWAP5 DUP6 MSTORE DUP4 CODECOPY DUP2 ADD SUB SLT PUSH3 0xB2 JUMPI PUSH3 0x5A PUSH1 0x20 PUSH3 0x52 DUP4 PUSH3 0xCD JUMP JUMPDEST SWAP3 ADD PUSH3 0xCD JUMP JUMPDEST PUSH1 0x1 PUSH1 0x0 SSTORE PUSH1 0x1 PUSH1 0x1 PUSH1 0xA0 SHL SUB SWAP2 DUP3 AND SWAP2 SWAP1 PUSH3 0x79 DUP4 ISZERO ISZERO PUSH3 0xE2 JUMP JUMPDEST AND SWAP1 PUSH3 0x88 DUP3 ISZERO ISZERO PUSH3 0xE2 JUMP JUMPDEST PUSH1 0x1 DUP1 PUSH1 0xA0 SHL SUB NOT SWAP1 DUP2 PUSH1 0x1 SLOAD AND OR PUSH1 0x1 SSTORE PUSH1 0x2 SLOAD AND OR PUSH1 0x2 SSTORE PUSH1 0x40 MLOAD PUSH2 0x137D SWAP1 DUP2 PUSH3 0x130 DUP3 CODECOPY RETURN JUMPDEST PUSH1 0x0 DUP1 REVERT JUMPDEST PUSH4 0x4E487B71 PUSH1 0xE0 SHL PUSH1 0x0 MSTORE PUSH1 0x41 PUSH1 0x4 MSTORE PUSH1 0x24 PUSH1 0x0 REVERT JUMPDEST MLOAD SWAP1 PUSH1 0x1 PUSH1 0x1 PUSH1 0xA0 SHL SUB DUP3 AND DUP3 SUB PUSH3 0xB2 JUMPI JUMP JUMPDEST ISZERO PUSH3 0xEA JUMPI JUMP JUMPDEST PUSH1 0x40 MLOAD PUSH3 0x461BCD PUSH1 0xE5 SHL DUP2 MSTORE PUSH1 0x20 PUSH1 0x4 DUP3 ADD MSTORE PUSH1 0x1F PUSH1 0x24 DUP3 ADD MSTORE PUSH32 0x5A65726F2061646472657373657320617265206E6F7420616C6C6F7765642E00 PUSH1 0x44 DUP3 ADD MSTORE PUSH1 0x64 SWAP1 REVERT INVALID PUSH1 0x40 PUSH1 0x80 DUP2 MSTORE PUSH1 0x4 DUP1 CALLDATASIZE LT ISZERO PUSH2 0x14 JUMPI PUSH1 0x0 DUP1 REVERT JUMPDEST PUSH1 0x0 DUP1 CALLDATALOAD PUSH1 0xE0 SHR DUP1 PUSH4 0x45608D00 EQ PUSH2 0xD40 JUMPI DUP1 PUSH4 0x6BF09F10 EQ PUSH2 0x896 JUMPI DUP1 PUSH4 0x7282D548 EQ PUSH2 0x6FD JUMPI DUP1 PUSH4 0x7F54A369 EQ PUSH2 0x428 JUMPI DUP1 PUSH4 0xAD5C4648 EQ PUSH2 0x3FF JUMPI DUP1 PUSH4 0xC45A0155 EQ PUSH2 0x3D2 JUMPI PUSH4 0xE79A4089 EQ PUSH2 0x6C JUMPI PUSH1 0x0 DUP1 REVERT JUMPDEST CALLVALUE PUSH2 0x3CF JUMPI PUSH1 0x60 CALLDATASIZE PUSH1 0x3 NOT ADD SLT PUSH2 0x3CF JUMPI PUSH2 0x85 PUSH2 0xD79 JUMP JUMPDEST SWAP2 PUSH1 0x24 CALLDATALOAD SWAP2 PUSH2 0x92 PUSH2 0xDAA JUMP JUMPDEST PUSH2 0x9A PUSH2 0x1135 JUMP JUMPDEST PUSH1 0x1 PUSH1 0x1 PUSH1 0xA0 SHL SUB SWAP3 DUP6 DUP5 AND PUSH2 0xB1 DUP2 ISZERO ISZERO PUSH2 0xEFB JUMP JUMPDEST PUSH2 0xBE DUP6 DUP5 AND ISZERO ISZERO PUSH2 0xEFB JUMP JUMPDEST PUSH1 0x1 SLOAD PUSH1 0x2 SLOAD DUP10 MLOAD PUSH4 0xE6A43905 PUSH1 0xE0 SHL DUP2 MSTORE PUSH1 0x1 PUSH1 0x1 PUSH1 0xA0 SHL SUB DUP11 DUP2 AND DUP7 DUP4 ADD SWAP1 DUP2 MSTORE SWAP3 DUP10 AND AND PUSH1 0x20 DUP1 DUP5 ADD SWAP2 SWAP1 SWAP2 MSTORE SWAP8 SWAP1 SWAP6 SWAP3 SWAP1 SWAP2 DUP9 SWAP2 DUP8 SWAP2 DUP3 SWAP1 SUB PUSH1 0x40 ADD SWAP1 DUP3 SWAP1 DUP6 AND GAS STATICCALL SWAP5 DUP6 ISZERO PUSH2 0x3C5 JUMPI DUP7 SWAP6 PUSH2 0x396 JUMPI JUMPDEST POP DUP5 AND SWAP4 DUP10 MLOAD PUSH4 0x240BC6B PUSH1 0xE2 SHL DUP2 MSTORE PUSH1 0x60 DUP2 DUP7 DUP2 DUP10 GAS STATICCALL DUP1 ISZERO PUSH2 0x32E JUMPI PUSH1 0x64 PUSH2 0x159 PUSH2 0x195 SWAP4 DUP12 SWAP4 DUP14 DUP13 SWAP3 DUP14 SWAP3 PUSH2 0x359 JUMPI JUMPDEST POP DUP5 SWAP2 PUSH2 0x152 SWAP2 PUSH2 0x1047 JUMP JUMPDEST DIV SWAP13 PUSH2 0x1047 JUMP JUMPDEST DUP14 MLOAD PUSH4 0x2E2952F9 PUSH1 0xE1 SHL DUP2 MSTORE ADDRESS DUP10 DUP3 ADD SWAP1 DUP2 MSTORE PUSH1 0x1 PUSH1 0x1 PUSH1 0xA0 SHL SUB SWAP1 SWAP15 AND PUSH1 0x20 DUP16 ADD MSTORE SWAP2 SWAP1 DIV PUSH1 0x40 DUP14 ADD DUP2 SWAP1 MSTORE SWAP12 SWAP1 SWAP3 DUP4 SWAP2 DUP3 SWAP2 PUSH1 0x60 SWAP1 SWAP2 ADD SWAP1 JUMP JUMPDEST SUB DUP2 DUP11 DUP11 GAS CALL SWAP1 DUP2 ISZERO PUSH2 0x32E JUMPI DUP8 SWAP2 PUSH2 0x33C JUMPI JUMPDEST POP ISZERO PUSH2 0x338 JUMPI DUP10 MLOAD PUSH4 0x7B1A4909 PUSH1 0xE0 SHL DUP2 MSTORE PUSH1 0x1 PUSH1 0x1 PUSH1 0xA0 SHL SUB DUP4 AND DUP6 DUP3 ADD SWAP1 DUP2 MSTORE PUSH1 0x20 DUP2 ADD DUP11 SWAP1 MSTORE DUP9 SWAP1 DUP3 SWAP1 DUP2 SWAP1 PUSH1 0x40 ADD SUB DUP2 DUP11 DUP11 GAS CALL SWAP1 DUP2 ISZERO PUSH2 0x32E JUMPI SWAP3 DUP8 DUP12 SWAP4 PUSH2 0x203 PUSH2 0x240 SWAP8 SWAP5 DUP13 SWAP8 DUP5 SWAP2 PUSH2 0x311 JUMPI JUMPDEST POP PUSH2 0x109D JUMP JUMPDEST DUP14 MLOAD PUSH4 0x23B872DD PUSH1 0xE0 SHL DUP2 MSTORE PUSH1 0x1 PUSH1 0x1 PUSH1 0xA0 SHL SUB SWAP2 DUP3 AND DUP10 DUP3 ADD SWAP1 DUP2 MSTORE SWAP2 SWAP1 SWAP4 AND PUSH1 0x20 DUP3 ADD MSTORE PUSH1 0x40 DUP2 ADD SWAP5 SWAP1 SWAP5 MSTORE SWAP1 SWAP5 DUP6 SWAP4 DUP5 SWAP3 SWAP2 DUP4 SWAP2 PUSH1 0x60 ADD SWAP1 JUMP JUMPDEST SUB SWAP3 GAS CALL SWAP1 DUP2 ISZERO PUSH2 0x307 JUMPI SWAP3 DUP6 SWAP3 PUSH2 0x264 PUSH2 0x293 SWAP4 DUP8 SWAP7 DUP8 SWAP2 PUSH2 0x2EA JUMPI JUMPDEST POP PUSH2 0x10E9 JUMP JUMPDEST DUP10 MLOAD PUSH4 0x1D24E231 PUSH1 0xE2 SHL DUP2 MSTORE SWAP1 DUP2 ADD DUP10 DUP2 MSTORE PUSH1 0x20 DUP2 ADD DUP10 SWAP1 MSTORE CALLER PUSH1 0x40 DUP3 ADD MSTORE SWAP1 SWAP5 DUP6 SWAP4 DUP5 SWAP3 DUP4 SWAP2 PUSH1 0x60 SWAP1 SWAP2 ADD SWAP1 JUMP JUMPDEST SUB SWAP3 GAS CALL DUP1 ISZERO PUSH2 0x2E0 JUMPI SWAP1 PUSH1 0x1 SWAP3 SWAP2 PUSH2 0x2B3 JUMPI JUMPDEST POP SSTORE DUP4 MLOAD SWAP3 DUP4 MSTORE DUP3 ADD MSTORE RETURN JUMPDEST PUSH2 0x2D2 SWAP1 DUP5 RETURNDATASIZE DUP7 GT PUSH2 0x2D9 JUMPI JUMPDEST PUSH2 0x2CA DUP2 DUP4 PUSH2 0xF79 JUMP JUMPDEST DUP2 ADD SWAP1 PUSH2 0x102F JUMP JUMPDEST POP CODESIZE PUSH2 0x2A7 JUMP JUMPDEST POP RETURNDATASIZE PUSH2 0x2C0 JUMP JUMPDEST DUP7 MLOAD RETURNDATASIZE DUP5 DUP3 RETURNDATACOPY RETURNDATASIZE SWAP1 REVERT JUMPDEST PUSH2 0x301 SWAP2 POP DUP7 RETURNDATASIZE DUP9 GT PUSH2 0x2D9 JUMPI PUSH2 0x2CA DUP2 DUP4 PUSH2 0xF79 JUMP JUMPDEST CODESIZE PUSH2 0x25E JUMP JUMPDEST DUP9 MLOAD RETURNDATASIZE DUP7 DUP3 RETURNDATACOPY RETURNDATASIZE SWAP1 REVERT JUMPDEST PUSH2 0x328 SWAP2 POP DUP9 RETURNDATASIZE DUP11 GT PUSH2 0x2D9 JUMPI PUSH2 0x2CA DUP2 DUP4 PUSH2 0xF79 JUMP JUMPDEST CODESIZE PUSH2 0x1FD JUMP JUMPDEST DUP12 MLOAD RETURNDATASIZE DUP10 DUP3 RETURNDATACOPY RETURNDATASIZE SWAP1 REVERT JUMPDEST DUP6 DUP1 REVERT JUMPDEST PUSH2 0x353 SWAP2 POP DUP9 RETURNDATASIZE DUP11 GT PUSH2 0x2D9 JUMPI PUSH2 0x2CA DUP2 DUP4 PUSH2 0xF79 JUMP JUMPDEST CODESIZE PUSH2 0x1A9 JUMP JUMPDEST PUSH2 0x152 SWAP2 SWAP4 POP DUP6 SWAP3 POP PUSH2 0x383 SWAP1 PUSH1 0x60 RETURNDATASIZE PUSH1 0x60 GT PUSH2 0x38F JUMPI JUMPDEST PUSH2 0x37B DUP2 DUP4 PUSH2 0xF79 JUMP JUMPDEST DUP2 ADD SWAP1 PUSH2 0xFBA JUMP JUMPDEST POP SWAP4 SWAP1 SWAP4 SWAP3 POP SWAP1 PUSH2 0x146 JUMP JUMPDEST POP RETURNDATASIZE PUSH2 0x371 JUMP JUMPDEST PUSH2 0x3B7 SWAP2 SWAP6 POP DUP8 RETURNDATASIZE DUP10 GT PUSH2 0x3BE JUMPI JUMPDEST PUSH2 0x3AF DUP2 DUP4 PUSH2 0xF79 JUMP JUMPDEST DUP2 ADD SWAP1 PUSH2 0xF9B JUMP JUMPDEST SWAP4 CODESIZE PUSH2 0x113 JUMP JUMPDEST POP RETURNDATASIZE PUSH2 0x3A5 JUMP JUMPDEST DUP11 MLOAD RETURNDATASIZE DUP9 DUP3 RETURNDATACOPY RETURNDATASIZE SWAP1 REVERT JUMPDEST DUP1 REVERT JUMPDEST POP DUP3 CALLVALUE PUSH2 0x3FB JUMPI DUP2 PUSH1 0x3 NOT CALLDATASIZE ADD SLT PUSH2 0x3FB JUMPI PUSH1 0x1 SLOAD SWAP1 MLOAD PUSH1 0x1 PUSH1 0x1 PUSH1 0xA0 SHL SUB SWAP1 SWAP2 AND DUP2 MSTORE PUSH1 0x20 SWAP1 RETURN JUMPDEST POP DUP1 REVERT JUMPDEST POP DUP3 CALLVALUE PUSH2 0x3FB JUMPI DUP2 PUSH1 0x3 NOT CALLDATASIZE ADD SLT PUSH2 0x3FB JUMPI PUSH1 0x2 SLOAD SWAP1 MLOAD PUSH1 0x1 PUSH1 0x1 PUSH1 0xA0 SHL SUB SWAP1 SWAP2 AND DUP2 MSTORE PUSH1 0x20 SWAP1 RETURN JUMPDEST POP DUP3 PUSH1 0x3 NOT CALLDATASIZE ADD SLT PUSH2 0x3CF JUMPI PUSH2 0x43C PUSH2 0xD79 JUMP JUMPDEST SWAP1 PUSH2 0x445 PUSH2 0xD94 JUMP JUMPDEST SWAP1 PUSH2 0x44E PUSH2 0x1135 JUMP JUMPDEST PUSH1 0x1 PUSH1 0x1 PUSH1 0xA0 SHL SUB DUP4 DUP2 AND SWAP5 SWAP1 SWAP3 SWAP1 PUSH2 0x468 DUP7 ISZERO ISZERO PUSH2 0xEFB JUMP JUMPDEST PUSH2 0x475 DUP5 DUP4 AND ISZERO ISZERO PUSH2 0xEFB JUMP JUMPDEST DUP4 PUSH1 0x1 SLOAD AND SWAP6 DUP5 PUSH1 0x2 SLOAD AND SWAP3 DUP9 MLOAD SWAP6 PUSH4 0xE6A43905 PUSH1 0xE0 SHL DUP8 MSTORE PUSH1 0x20 SWAP7 DUP8 DUP2 DUP1 PUSH2 0x4BA DUP10 DUP14 DUP11 DUP5 ADD SWAP1 PUSH1 0x20 SWAP1 SWAP4 SWAP3 SWAP4 PUSH1 0x40 DUP4 ADD SWAP5 PUSH1 0x1 DUP1 PUSH1 0xA0 SHL SUB DUP1 SWAP3 AND DUP5 MSTORE AND SWAP2 ADD MSTORE JUMP JUMPDEST SUB DUP2 DUP14 GAS STATICCALL SWAP1 DUP2 ISZERO PUSH2 0x32E JUMPI DUP9 SWAP1 DUP9 SWAP3 PUSH2 0x6D8 JUMPI JUMPDEST POP PUSH2 0x4E3 DUP3 SWAP4 PUSH2 0x51D SWAP4 AND SWAP8 CALLVALUE SWAP1 DUP13 PUSH2 0xDC0 JUMP JUMPDEST DUP13 MLOAD PUSH4 0x2E2952F9 PUSH1 0xE1 SHL DUP2 MSTORE ADDRESS DUP9 DUP3 ADD SWAP1 DUP2 MSTORE PUSH1 0x1 PUSH1 0x1 PUSH1 0xA0 SHL SUB SWAP1 SWAP13 AND PUSH1 0x20 DUP14 ADD MSTORE PUSH1 0x40 DUP13 ADD DUP3 SWAP1 MSTORE SWAP1 SWAP11 SWAP1 SWAP3 DUP4 SWAP2 DUP3 SWAP2 PUSH1 0x60 SWAP1 SWAP2 ADD SWAP1 JUMP JUMPDEST SUB DUP2 DUP11 DUP11 GAS CALL SWAP1 DUP2 ISZERO PUSH2 0x32E JUMPI DUP8 SWAP2 PUSH2 0x6BB JUMPI JUMPDEST POP ISZERO PUSH2 0x688 JUMPI DUP10 MLOAD PUSH4 0xCF820461 PUSH1 0xE0 SHL DUP2 MSTORE DUP8 DUP2 DUP7 DUP2 DUP14 GAS STATICCALL SWAP1 DUP2 ISZERO PUSH2 0x32E JUMPI DUP8 SWAP2 PUSH2 0x655 JUMPI JUMPDEST POP PUSH2 0x566 PUSH1 0x64 SWAP2 CALLVALUE SWAP1 PUSH2 0x1047 JUMP JUMPDEST DIV DUP5 DUP9 PUSH2 0x573 DUP4 CALLVALUE PUSH2 0x1090 JUMP JUMPDEST SWAP12 DUP14 MLOAD SWAP3 DUP4 DUP1 SWAP3 PUSH3 0x2FCFCB PUSH1 0xE3 SHL DUP3 MSTORE GAS STATICCALL SWAP1 DUP2 ISZERO PUSH2 0x64B JUMPI DUP11 SWAP4 PUSH2 0x203 PUSH2 0x5B5 PUSH2 0x5BF SWAP9 SWAP6 DUP16 SWAP6 DUP15 SWAP10 SWAP7 DUP15 SWAP7 DUP8 SWAP3 PUSH2 0x624 JUMPI JUMPDEST POP PUSH2 0x5B5 PUSH2 0x5BA SWAP2 DUP8 PUSH2 0x1291 JUMP JUMPDEST PUSH2 0x109D JUMP JUMPDEST PUSH2 0x1291 JUMP JUMPDEST SUB SWAP3 GAS CALL SWAP1 DUP2 ISZERO PUSH2 0x307 JUMPI DUP6 SWAP3 PUSH2 0x5E0 DUP7 SWAP4 PUSH1 0x84 SWAP4 DUP6 SWAP2 PUSH2 0x2EA JUMPI POP PUSH2 0x10E9 JUMP JUMPDEST DUP3 DUP11 MLOAD SWAP6 DUP7 SWAP5 DUP6 SWAP4 PUSH4 0x5673B02D PUSH1 0xE0 SHL DUP6 MSTORE DUP5 ADD MSTORE DUP10 PUSH1 0x24 DUP5 ADD MSTORE DUP11 PUSH1 0x44 DUP5 ADD MSTORE DUP2 PUSH1 0x64 DUP5 ADD MSTORE GAS CALL DUP1 ISZERO PUSH2 0x2E0 JUMPI SWAP1 PUSH1 0x1 SWAP3 SWAP2 PUSH2 0x2B3 JUMPI POP SSTORE DUP4 MLOAD SWAP3 DUP4 MSTORE DUP3 ADD MSTORE RETURN JUMPDEST PUSH2 0x5BA SWAP2 SWAP3 POP PUSH2 0x643 PUSH2 0x5B5 SWAP2 DUP14 DUP1 RETURNDATASIZE LT PUSH2 0x3BE JUMPI PUSH2 0x3AF DUP2 DUP4 PUSH2 0xF79 JUMP JUMPDEST SWAP3 SWAP2 POP PUSH2 0x5A7 JUMP JUMPDEST DUP13 MLOAD RETURNDATASIZE DUP11 DUP3 RETURNDATACOPY RETURNDATASIZE SWAP1 REVERT JUMPDEST SWAP1 POP DUP8 DUP2 DUP2 RETURNDATASIZE DUP4 GT PUSH2 0x681 JUMPI JUMPDEST PUSH2 0x66C DUP2 DUP4 PUSH2 0xF79 JUMP JUMPDEST DUP2 ADD SUB SLT PUSH2 0x67D JUMPI MLOAD PUSH2 0x566 PUSH2 0x558 JUMP JUMPDEST DUP7 DUP1 REVERT JUMPDEST POP RETURNDATASIZE PUSH2 0x662 JUMP JUMPDEST DUP10 MLOAD PUSH3 0x461BCD PUSH1 0xE5 SHL DUP2 MSTORE DUP1 DUP6 ADD DUP9 SWAP1 MSTORE PUSH1 0xD PUSH1 0x24 DUP3 ADD MSTORE PUSH13 0x2737BA1020B8383937BB32B217 PUSH1 0x99 SHL PUSH1 0x44 DUP3 ADD MSTORE PUSH1 0x64 SWAP1 REVERT JUMPDEST PUSH2 0x6D2 SWAP2 POP DUP9 RETURNDATASIZE DUP11 GT PUSH2 0x2D9 JUMPI PUSH2 0x2CA DUP2 DUP4 PUSH2 0xF79 JUMP JUMPDEST CODESIZE PUSH2 0x531 JUMP JUMPDEST PUSH2 0x51D SWAP3 POP PUSH2 0x6F6 PUSH2 0x4E3 SWAP2 DUP4 RETURNDATASIZE DUP6 GT PUSH2 0x3BE JUMPI PUSH2 0x3AF DUP2 DUP4 PUSH2 0xF79 JUMP JUMPDEST SWAP3 POP PUSH2 0x4CF JUMP JUMPDEST POP DUP3 PUSH1 0x3 NOT CALLDATASIZE ADD SLT PUSH2 0x3CF JUMPI PUSH2 0x711 PUSH2 0xD79 JUMP JUMPDEST SWAP1 PUSH1 0x24 CALLDATALOAD SWAP3 PUSH2 0x71E PUSH2 0x1135 JUMP JUMPDEST PUSH1 0x1 PUSH1 0x1 PUSH1 0xA0 SHL SUB SWAP1 DUP4 DUP3 AND SWAP1 PUSH2 0x736 DUP3 ISZERO ISZERO PUSH2 0xEFB JUMP JUMPDEST PUSH1 0x1 SLOAD PUSH1 0x2 SLOAD DUP9 MLOAD PUSH4 0xE6A43905 PUSH1 0xE0 SHL DUP2 MSTORE PUSH1 0x1 PUSH1 0x1 PUSH1 0xA0 SHL SUB SWAP8 DUP9 AND DUP5 DUP3 ADD SWAP1 DUP2 MSTORE SWAP2 DUP7 AND SWAP1 SWAP8 AND PUSH1 0x20 DUP1 DUP4 ADD SWAP2 SWAP1 SWAP2 MSTORE SWAP7 SWAP4 SWAP2 DUP8 SWAP2 DUP6 SWAP2 DUP8 AND SWAP1 DUP3 SWAP1 DUP2 SWAP1 PUSH1 0x40 ADD SUB SWAP2 GAS STATICCALL SWAP3 DUP4 ISZERO PUSH2 0x86D JUMPI DUP6 SWAP4 PUSH2 0x877 JUMPI JUMPDEST POP PUSH2 0x799 PUSH2 0x5B5 CALLVALUE DUP6 PUSH2 0x1291 JUMP JUMPDEST DUP8 MLOAD PUSH4 0x23B872DD PUSH1 0xE0 SHL DUP2 MSTORE CALLER DUP4 DUP3 ADD SWAP1 DUP2 MSTORE PUSH1 0x1 PUSH1 0x1 PUSH1 0xA0 SHL SUB DUP6 AND PUSH1 0x20 DUP3 ADD MSTORE PUSH1 0x40 DUP2 ADD DUP10 SWAP1 MSTORE SWAP1 SWAP2 DUP8 SWAP2 DUP4 SWAP2 SWAP1 DUP3 SWAP1 DUP10 SWAP1 DUP3 SWAP1 PUSH1 0x60 ADD SUB SWAP3 GAS CALL SWAP1 DUP2 ISZERO PUSH2 0x86D JUMPI SWAP2 PUSH2 0x7F4 DUP8 SWAP5 SWAP3 PUSH2 0x823 SWAP5 DUP9 SWAP2 PUSH2 0x2EA JUMPI POP PUSH2 0x10E9 JUMP JUMPDEST DUP9 MLOAD PUSH4 0xE7D3FE6B PUSH1 0xE0 SHL DUP2 MSTORE SWAP1 DUP2 ADD DUP9 DUP2 MSTORE CALLVALUE PUSH1 0x20 DUP3 ADD MSTORE CALLER PUSH1 0x40 DUP3 ADD MSTORE SWAP1 SWAP5 DUP6 SWAP4 DUP5 SWAP3 DUP9 SWAP3 SWAP2 DUP5 SWAP2 PUSH1 0x60 ADD SWAP1 JUMP JUMPDEST SUB SWAP4 AND GAS CALL DUP1 ISZERO PUSH2 0x863 JUMPI SWAP1 PUSH1 0x1 SWAP3 SWAP2 PUSH2 0x846 JUMPI JUMPDEST POP SSTORE DUP3 MLOAD SWAP2 DUP3 MSTORE CALLVALUE SWAP1 DUP3 ADD MSTORE RETURN JUMPDEST PUSH2 0x85C SWAP1 DUP5 RETURNDATASIZE DUP7 GT PUSH2 0x2D9 JUMPI PUSH2 0x2CA DUP2 DUP4 PUSH2 0xF79 JUMP JUMPDEST POP CODESIZE PUSH2 0x838 JUMP JUMPDEST DUP6 MLOAD RETURNDATASIZE DUP5 DUP3 RETURNDATACOPY RETURNDATASIZE SWAP1 REVERT JUMPDEST DUP9 MLOAD RETURNDATASIZE DUP8 DUP3 RETURNDATACOPY RETURNDATASIZE SWAP1 REVERT JUMPDEST PUSH2 0x88F SWAP2 SWAP4 POP DUP7 RETURNDATASIZE DUP9 GT PUSH2 0x3BE JUMPI PUSH2 0x3AF DUP2 DUP4 PUSH2 0xF79 JUMP JUMPDEST SWAP2 CODESIZE PUSH2 0x78B JUMP JUMPDEST POP SWAP1 CALLVALUE PUSH2 0x3FB JUMPI PUSH1 0x60 CALLDATASIZE PUSH1 0x3 NOT ADD SLT PUSH2 0x3FB JUMPI DUP1 CALLDATALOAD SWAP2 PUSH2 0x8B4 PUSH2 0xD94 JUMP JUMPDEST SWAP1 PUSH2 0x8BD PUSH2 0xDAA JUMP JUMPDEST PUSH2 0x8C5 PUSH2 0x1135 JUMP JUMPDEST PUSH1 0x1 PUSH1 0x1 PUSH1 0xA0 SHL SUB SWAP4 DUP4 DUP6 AND DUP1 ISZERO ISZERO SWAP3 SWAP1 PUSH2 0x8DF DUP5 PUSH2 0xEFB JUMP JUMPDEST PUSH2 0x8EC DUP3 DUP9 AND ISZERO ISZERO PUSH2 0xEFB JUMP JUMPDEST PUSH1 0x1 SLOAD PUSH1 0x2 SLOAD DUP11 MLOAD PUSH4 0xE6A43905 PUSH1 0xE0 SHL DUP1 DUP3 MSTORE PUSH1 0x1 PUSH1 0x1 PUSH1 0xA0 SHL SUB DUP11 DUP2 AND DUP9 DUP5 ADD SWAP1 DUP2 MSTORE SWAP4 DUP13 AND AND PUSH1 0x20 DUP1 DUP6 ADD SWAP2 SWAP1 SWAP2 MSTORE SWAP4 DUP12 AND SWAP11 SWAP4 SWAP10 SWAP1 SWAP4 SWAP2 SWAP3 DUP11 SWAP1 DUP5 SWAP1 DUP2 SWAP1 SUB PUSH1 0x40 ADD DUP2 DUP15 GAS STATICCALL SWAP3 DUP4 ISZERO PUSH2 0xD13 JUMPI DUP14 SWAP2 DUP12 SWAP2 DUP12 SWAP6 PUSH2 0xD1D JUMPI JUMPDEST POP DUP5 SWAP6 PUSH2 0x962 DUP6 PUSH2 0x99E SWAP7 SWAP8 AND SWAP12 PUSH2 0x95D PUSH2 0x1135 JUMP JUMPDEST PUSH2 0xEFB JUMP JUMPDEST PUSH1 0x1 SLOAD PUSH1 0x2 SLOAD SWAP5 MLOAD SWAP2 DUP3 MSTORE PUSH1 0x1 PUSH1 0x1 PUSH1 0xA0 SHL SUB SWAP3 DUP4 AND DUP3 DUP13 ADD SWAP1 DUP2 MSTORE SWAP5 DUP8 AND SWAP3 DUP4 AND PUSH1 0x20 DUP7 ADD MSTORE SWAP2 SWAP5 SWAP1 SWAP4 DUP5 SWAP3 DUP8 AND SWAP2 DUP4 SWAP2 DUP3 SWAP2 PUSH1 0x40 SWAP1 SWAP2 ADD SWAP1 JUMP JUMPDEST SUB SWAP2 GAS STATICCALL SWAP1 DUP2 ISZERO PUSH2 0xD13 JUMPI SWAP1 DUP8 DUP15 PUSH1 0x60 SWAP4 DUP13 SWAP4 PUSH2 0xCF4 JUMPI JUMPDEST POP MLOAD PUSH4 0x240BC6B PUSH1 0xE2 SHL DUP2 MSTORE SWAP5 DUP6 SWAP3 DUP4 SWAP2 AND GAS STATICCALL DUP1 ISZERO PUSH2 0x64B JUMPI SWAP4 PUSH2 0xA7E SWAP4 DUP10 DUP12 SWAP5 DUP16 SWAP9 SWAP8 SWAP5 DUP16 DUP1 SWAP7 DUP5 SWAP4 DUP6 SWAP2 PUSH2 0xCCE JUMPI JUMPDEST POP PUSH2 0x9F3 DUP2 DUP6 PUSH2 0x1158 JUMP JUMPDEST SWAP3 PUSH2 0xCB7 JUMPI SWAP2 PUSH2 0xA0A PUSH2 0xA23 SWAP3 PUSH2 0xA3D SWAP6 SWAP5 PUSH2 0x11D1 JUMP JUMPDEST SWAP1 PUSH2 0xA1E PUSH2 0xA16 PUSH2 0xFD5 JUMP JUMPDEST DUP4 ISZERO ISZERO PUSH2 0x122A JUMP JUMPDEST PUSH2 0x1070 JUMP JUMPDEST SWAP1 PUSH2 0xA38 PUSH2 0xA2F PUSH2 0x1000 JUMP JUMPDEST DUP3 DUP5 GT ISZERO PUSH2 0x122A JUMP JUMPDEST PUSH2 0x1090 JUMP JUMPDEST SWAP8 JUMPDEST PUSH1 0x1 DUP3 SSTORE MLOAD PUSH4 0x23B872DD PUSH1 0xE0 SHL DUP2 MSTORE PUSH1 0x1 PUSH1 0x1 PUSH1 0xA0 SHL SUB DUP1 DUP10 AND DUP12 DUP4 ADD SWAP1 DUP2 MSTORE SWAP4 AND PUSH1 0x20 DUP5 ADD MSTORE PUSH1 0x40 DUP4 ADD SWAP5 SWAP1 SWAP5 MSTORE SWAP3 SWAP5 DUP6 SWAP4 DUP5 SWAP3 SWAP1 SWAP2 DUP4 SWAP2 PUSH1 0x60 ADD SWAP1 JUMP JUMPDEST SUB SWAP3 GAS CALL SWAP1 DUP2 ISZERO PUSH2 0x3C5 JUMPI DUP7 SWAP2 PUSH2 0xC9A JUMPI JUMPDEST POP ISZERO PUSH2 0xC57 JUMPI DUP9 MLOAD PUSH4 0xCF820461 PUSH1 0xE0 SHL DUP2 MSTORE DUP7 DUP2 DUP6 DUP2 DUP12 GAS STATICCALL SWAP1 DUP2 ISZERO PUSH2 0x3C5 JUMPI DUP4 DUP6 SWAP4 SWAP3 DUP10 SWAP3 DUP10 SWAP2 PUSH2 0xC1F JUMPI JUMPDEST POP PUSH2 0xACD PUSH2 0xAD5 SWAP3 PUSH1 0x64 SWAP3 PUSH2 0x1047 JUMP JUMPDEST DIV DUP1 SWAP6 PUSH2 0x1090 JUMP JUMPDEST SWAP9 DUP12 MLOAD SWAP4 DUP5 DUP1 SWAP3 PUSH3 0x2FCFCB PUSH1 0xE3 SHL DUP3 MSTORE GAS STATICCALL SWAP2 DUP3 ISZERO PUSH2 0x3C5 JUMPI DUP7 SWAP3 PUSH2 0xC00 JUMPI JUMPDEST POP DUP10 MLOAD PUSH4 0x7B1A4909 PUSH1 0xE0 SHL DUP1 DUP3 MSTORE PUSH1 0x1 PUSH1 0x1 PUSH1 0xA0 SHL SUB SWAP1 SWAP3 AND DUP6 DUP3 ADD SWAP1 DUP2 MSTORE PUSH1 0x20 DUP2 ADD DUP11 SWAP1 MSTORE DUP9 SWAP1 DUP3 SWAP1 DUP2 SWAP1 PUSH1 0x40 ADD SUB DUP2 DUP11 DUP11 GAS CALL SWAP1 DUP2 ISZERO PUSH2 0x32E JUMPI DUP9 SWAP4 SWAP3 SWAP2 PUSH2 0xB45 SWAP2 DUP10 SWAP2 PUSH2 0xBE9 JUMPI POP PUSH2 0x109D JUMP JUMPDEST DUP11 MLOAD SWAP1 DUP2 MSTORE PUSH1 0x1 PUSH1 0x1 PUSH1 0xA0 SHL SUB SWAP1 SWAP2 AND DUP5 DUP3 ADD SWAP1 DUP2 MSTORE PUSH1 0x20 DUP2 ADD SWAP4 SWAP1 SWAP4 MSTORE SWAP2 DUP3 SWAP1 DUP2 SWAP1 PUSH1 0x40 ADD SUB DUP2 DUP8 DUP8 GAS CALL SWAP1 DUP2 ISZERO PUSH2 0x307 JUMPI DUP6 SWAP3 PUSH2 0xB8E DUP10 SWAP4 PUSH1 0x84 SWAP4 DUP9 SWAP2 PUSH2 0xBD2 JUMPI POP PUSH2 0x109D JUMP JUMPDEST DUP6 DUP11 MLOAD SWAP6 DUP7 SWAP5 DUP6 SWAP4 PUSH4 0x5673B02D PUSH1 0xE0 SHL DUP6 MSTORE DUP5 ADD MSTORE DUP2 PUSH1 0x24 DUP5 ADD MSTORE DUP2 PUSH1 0x44 DUP5 ADD MSTORE DUP10 PUSH1 0x64 DUP5 ADD MSTORE GAS CALL DUP1 ISZERO PUSH2 0x2E0 JUMPI SWAP1 PUSH1 0x1 SWAP3 SWAP2 PUSH2 0x2B3 JUMPI POP SSTORE DUP4 MLOAD SWAP3 DUP4 MSTORE DUP3 ADD MSTORE RETURN JUMPDEST PUSH2 0x328 SWAP2 POP DUP7 RETURNDATASIZE DUP9 GT PUSH2 0x2D9 JUMPI PUSH2 0x2CA DUP2 DUP4 PUSH2 0xF79 JUMP JUMPDEST PUSH2 0x328 SWAP2 POP DUP6 RETURNDATASIZE DUP8 GT PUSH2 0x2D9 JUMPI PUSH2 0x2CA DUP2 DUP4 PUSH2 0xF79 JUMP JUMPDEST PUSH2 0xC18 SWAP2 SWAP3 POP DUP8 RETURNDATASIZE DUP10 GT PUSH2 0x3BE JUMPI PUSH2 0x3AF DUP2 DUP4 PUSH2 0xF79 JUMP JUMPDEST SWAP1 CODESIZE PUSH2 0xAF5 JUMP JUMPDEST SWAP4 SWAP5 POP POP POP DUP2 DUP2 RETURNDATASIZE DUP4 GT PUSH2 0xC50 JUMPI JUMPDEST PUSH2 0xC38 DUP2 DUP4 PUSH2 0xF79 JUMP JUMPDEST DUP2 ADD SUB SLT PUSH2 0x338 JUMPI MLOAD DUP4 SWAP2 SWAP1 DUP8 SWAP1 DUP5 SWAP1 PUSH2 0xACD PUSH2 0xABD JUMP JUMPDEST POP RETURNDATASIZE PUSH2 0xC2E JUMP JUMPDEST DUP9 MLOAD PUSH3 0x461BCD PUSH1 0xE5 SHL DUP2 MSTORE DUP1 DUP5 ADD DUP8 SWAP1 MSTORE PUSH1 0x18 PUSH1 0x24 DUP3 ADD MSTORE PUSH32 0x5472616E73666572206F6620746F6B656E206661696C65640000000000000000 PUSH1 0x44 DUP3 ADD MSTORE PUSH1 0x64 SWAP1 REVERT JUMPDEST PUSH2 0xCB1 SWAP2 POP DUP8 RETURNDATASIZE DUP10 GT PUSH2 0x2D9 JUMPI PUSH2 0x2CA DUP2 DUP4 PUSH2 0xF79 JUMP JUMPDEST CODESIZE PUSH2 0xA90 JUMP JUMPDEST SWAP2 PUSH2 0xA0A PUSH2 0xA23 SWAP3 PUSH2 0xCC8 SWAP6 PUSH2 0x11D1 JUMP JUMPDEST SWAP8 PUSH2 0xA3F JUMP JUMPDEST SWAP1 POP PUSH2 0xCEA SWAP2 SWAP4 POP PUSH1 0x60 RETURNDATASIZE PUSH1 0x60 GT PUSH2 0x38F JUMPI PUSH2 0x37B DUP2 DUP4 PUSH2 0xF79 JUMP JUMPDEST POP SWAP3 SWAP1 SWAP3 CODESIZE PUSH2 0x9E8 JUMP JUMPDEST PUSH2 0xD0C SWAP2 SWAP4 POP DUP14 DUP1 RETURNDATASIZE LT PUSH2 0x3BE JUMPI PUSH2 0x3AF DUP2 DUP4 PUSH2 0xF79 JUMP JUMPDEST SWAP2 CODESIZE PUSH2 0x9B6 JUMP JUMPDEST DUP14 MLOAD RETURNDATASIZE DUP12 DUP3 RETURNDATACOPY RETURNDATASIZE SWAP1 REVERT JUMPDEST PUSH2 0x99E SWAP5 SWAP6 POP PUSH2 0xD39 SWAP1 DUP4 RETURNDATASIZE DUP6 GT PUSH2 0x3BE JUMPI PUSH2 0x3AF DUP2 DUP4 PUSH2 0xF79 JUMP JUMPDEST SWAP5 SWAP4 PUSH2 0x947 JUMP JUMPDEST POP DUP3 CALLVALUE PUSH2 0x3FB JUMPI PUSH1 0x60 CALLDATASIZE PUSH1 0x3 NOT ADD SLT PUSH2 0x3FB JUMPI PUSH1 0x20 SWAP1 PUSH2 0xD72 PUSH2 0xD61 PUSH2 0xD79 JUMP JUMPDEST PUSH2 0xD69 PUSH2 0xD94 JUMP JUMPDEST PUSH1 0x44 CALLDATALOAD SWAP2 PUSH2 0xDC0 JUMP JUMPDEST SWAP1 MLOAD SWAP1 DUP2 MSTORE RETURN JUMPDEST PUSH1 0x4 CALLDATALOAD SWAP1 PUSH1 0x1 PUSH1 0x1 PUSH1 0xA0 SHL SUB DUP3 AND DUP3 SUB PUSH2 0xD8F JUMPI JUMP JUMPDEST PUSH1 0x0 DUP1 REVERT JUMPDEST PUSH1 0x24 CALLDATALOAD SWAP1 PUSH1 0x1 PUSH1 0x1 PUSH1 0xA0 SHL SUB DUP3 AND DUP3 SUB PUSH2 0xD8F JUMPI JUMP JUMPDEST PUSH1 0x44 CALLDATALOAD SWAP1 PUSH1 0x1 PUSH1 0x1 PUSH1 0xA0 SHL SUB DUP3 AND DUP3 SUB PUSH2 0xD8F JUMPI JUMP JUMPDEST SWAP2 PUSH2 0xDC9 PUSH2 0x1135 JUMP JUMPDEST PUSH1 0x1 PUSH1 0x1 PUSH1 0xA0 SHL SUB SWAP3 PUSH2 0xE26 SWAP1 PUSH2 0xDE3 DUP2 DUP7 AND ISZERO ISZERO PUSH2 0xEFB JUMP JUMPDEST PUSH1 0x1 SLOAD PUSH1 0x2 SLOAD PUSH1 0x40 MLOAD PUSH4 0xE6A43905 PUSH1 0xE0 SHL DUP2 MSTORE PUSH1 0x1 PUSH1 0x1 PUSH1 0xA0 SHL SUB SWAP4 DUP5 AND PUSH1 0x4 DUP3 ADD MSTORE SWAP1 DUP8 AND SWAP3 DUP4 AND PUSH1 0x24 DUP3 ADD MSTORE SWAP3 PUSH1 0x20 SWAP2 DUP5 SWAP2 SWAP1 DUP9 AND SWAP1 DUP3 SWAP1 DUP2 SWAP1 PUSH1 0x44 DUP3 ADD SWAP1 JUMP JUMPDEST SUB SWAP2 GAS STATICCALL SWAP2 DUP3 ISZERO PUSH2 0xED0 JUMPI DUP6 SWAP3 PUSH1 0x60 SWAP2 PUSH1 0x0 SWAP2 PUSH2 0xEDC JUMPI JUMPDEST POP PUSH1 0x4 PUSH1 0x40 MLOAD DUP1 SWAP9 DUP2 SWAP4 PUSH4 0x240BC6B PUSH1 0xE2 SHL DUP4 MSTORE AND GAS STATICCALL SWAP2 DUP3 ISZERO PUSH2 0xED0 JUMPI PUSH1 0x0 SWAP6 DUP7 SWAP4 PUSH2 0xEA8 JUMPI JUMPDEST POP PUSH2 0xE71 DUP4 DUP8 PUSH2 0x1158 JUMP JUMPDEST SWAP5 AND SUB PUSH2 0xE92 JUMPI SWAP2 PUSH2 0xA0A PUSH2 0xA23 SWAP3 PUSH2 0xE8A SWAP6 SWAP5 PUSH2 0x11D1 JUMP JUMPDEST SWAP1 PUSH1 0x1 PUSH1 0x0 SSTORE JUMP JUMPDEST SWAP2 PUSH2 0xA0A PUSH2 0xA23 SWAP3 PUSH2 0xEA3 SWAP6 PUSH2 0x11D1 JUMP JUMPDEST PUSH2 0xE8A JUMP JUMPDEST SWAP1 SWAP3 POP PUSH2 0xEC5 SWAP2 SWAP6 POP PUSH1 0x60 RETURNDATASIZE PUSH1 0x60 GT PUSH2 0x38F JUMPI PUSH2 0x37B DUP2 DUP4 PUSH2 0xF79 JUMP JUMPDEST POP SWAP5 SWAP1 SWAP5 SWAP2 CODESIZE PUSH2 0xE66 JUMP JUMPDEST PUSH1 0x40 MLOAD RETURNDATASIZE PUSH1 0x0 DUP3 RETURNDATACOPY RETURNDATASIZE SWAP1 REVERT JUMPDEST PUSH2 0xEF5 SWAP2 POP PUSH1 0x20 RETURNDATASIZE PUSH1 0x20 GT PUSH2 0x3BE JUMPI PUSH2 0x3AF DUP2 DUP4 PUSH2 0xF79 JUMP JUMPDEST CODESIZE PUSH2 0xE3E JUMP JUMPDEST ISZERO PUSH2 0xF02 JUMPI JUMP JUMPDEST PUSH1 0x40 MLOAD PUSH3 0x461BCD PUSH1 0xE5 SHL DUP2 MSTORE PUSH1 0x20 PUSH1 0x4 DUP3 ADD MSTORE PUSH1 0x1F PUSH1 0x24 DUP3 ADD MSTORE PUSH32 0x5A65726F2061646472657373657320617265206E6F7420616C6C6F7765642E00 PUSH1 0x44 DUP3 ADD MSTORE PUSH1 0x64 SWAP1 REVERT JUMPDEST PUSH1 0x40 DUP2 ADD SWAP1 DUP2 LT PUSH8 0xFFFFFFFFFFFFFFFF DUP3 GT OR PUSH2 0xF63 JUMPI PUSH1 0x40 MSTORE JUMP JUMPDEST PUSH4 0x4E487B71 PUSH1 0xE0 SHL PUSH1 0x0 MSTORE PUSH1 0x41 PUSH1 0x4 MSTORE PUSH1 0x24 PUSH1 0x0 REVERT JUMPDEST SWAP1 PUSH1 0x1F DUP1 NOT SWAP2 ADD AND DUP2 ADD SWAP1 DUP2 LT PUSH8 0xFFFFFFFFFFFFFFFF DUP3 GT OR PUSH2 0xF63 JUMPI PUSH1 0x40 MSTORE JUMP JUMPDEST SWAP1 DUP2 PUSH1 0x20 SWAP2 SUB SLT PUSH2 0xD8F JUMPI MLOAD PUSH1 0x1 PUSH1 0x1 PUSH1 0xA0 SHL SUB DUP2 AND DUP2 SUB PUSH2 0xD8F JUMPI SWAP1 JUMP JUMPDEST SWAP1 DUP2 PUSH1 0x60 SWAP2 SUB SLT PUSH2 0xD8F JUMPI DUP1 MLOAD SWAP2 PUSH1 0x40 PUSH1 0x20 DUP4 ADD MLOAD SWAP3 ADD MLOAD SWAP1 JUMP JUMPDEST PUSH1 0x40 MLOAD SWAP1 PUSH2 0xFE2 DUP3 PUSH2 0xF47 JUMP JUMPDEST PUSH1 0xF DUP3 MSTORE PUSH15 0x111A5D9A5CDA5BDB8819985A5B1959 PUSH1 0x8A SHL PUSH1 0x20 DUP4 ADD MSTORE JUMP JUMPDEST PUSH1 0x40 MLOAD SWAP1 PUSH2 0x100D DUP3 PUSH2 0xF47 JUMP JUMPDEST PUSH1 0x13 DUP3 MSTORE PUSH19 0x29BAB13A3930B1BA34B7B7103330B4B632B217 PUSH1 0x69 SHL PUSH1 0x20 DUP4 ADD MSTORE JUMP JUMPDEST SWAP1 DUP2 PUSH1 0x20 SWAP2 SUB SLT PUSH2 0xD8F JUMPI MLOAD DUP1 ISZERO ISZERO DUP2 SUB PUSH2 0xD8F JUMPI SWAP1 JUMP JUMPDEST DUP2 DUP2 MUL SWAP3 SWAP2 DUP2 ISZERO SWAP2 DUP5 DIV EQ OR ISZERO PUSH2 0x105A JUMPI JUMP JUMPDEST PUSH4 0x4E487B71 PUSH1 0xE0 SHL PUSH1 0x0 MSTORE PUSH1 0x11 PUSH1 0x4 MSTORE PUSH1 0x24 PUSH1 0x0 REVERT JUMPDEST DUP2 ISZERO PUSH2 0x107A JUMPI DIV SWAP1 JUMP JUMPDEST PUSH4 0x4E487B71 PUSH1 0xE0 SHL PUSH1 0x0 MSTORE PUSH1 0x12 PUSH1 0x4 MSTORE PUSH1 0x24 PUSH1 0x0 REVERT JUMPDEST SWAP2 SWAP1 DUP3 SUB SWAP2 DUP3 GT PUSH2 0x105A JUMPI JUMP JUMPDEST ISZERO PUSH2 0x10A4 JUMPI JUMP JUMPDEST PUSH1 0x40 MLOAD PUSH3 0x461BCD PUSH1 0xE5 SHL DUP2 MSTORE PUSH1 0x20 PUSH1 0x4 DUP3 ADD MSTORE PUSH1 0x17 PUSH1 0x24 DUP3 ADD MSTORE PUSH32 0x5472616E73666572206F6620455448206661696C65642E000000000000000000 PUSH1 0x44 DUP3 ADD MSTORE PUSH1 0x64 SWAP1 REVERT JUMPDEST ISZERO PUSH2 0x10F0 JUMPI JUMP JUMPDEST PUSH1 0x40 MLOAD PUSH3 0x461BCD PUSH1 0xE5 SHL DUP2 MSTORE PUSH1 0x20 PUSH1 0x4 DUP3 ADD MSTORE PUSH1 0x19 PUSH1 0x24 DUP3 ADD MSTORE PUSH32 0x5472616E73666572206F6620746F6B656E206661696C65642E00000000000000 PUSH1 0x44 DUP3 ADD MSTORE PUSH1 0x64 SWAP1 REVERT JUMPDEST PUSH1 0x2 PUSH1 0x0 SLOAD EQ PUSH2 0x1146 JUMPI PUSH1 0x2 PUSH1 0x0 SSTORE JUMP JUMPDEST PUSH1 0x40 MLOAD PUSH4 0x3EE5AEB5 PUSH1 0xE0 SHL DUP2 MSTORE PUSH1 0x4 SWAP1 REVERT JUMPDEST SWAP1 DUP2 ISZERO PUSH2 0x11CA JUMPI PUSH2 0x1173 PUSH2 0x116C DUP3 DUP5 PUSH2 0x1047 JUMP JUMPDEST SWAP3 DUP4 PUSH2 0x1070 JUMP JUMPDEST SUB PUSH2 0x117B JUMPI SWAP1 JUMP JUMPDEST PUSH1 0x40 MLOAD PUSH3 0x461BCD PUSH1 0xE5 SHL DUP2 MSTORE PUSH1 0x20 PUSH1 0x4 DUP3 ADD MSTORE PUSH1 0x21 PUSH1 0x24 DUP3 ADD MSTORE PUSH32 0x536166654D6174683A206D756C7469706C69636174696F6E206F766572666C6F PUSH1 0x44 DUP3 ADD MSTORE PUSH1 0x77 PUSH1 0xF8 SHL PUSH1 0x64 DUP3 ADD MSTORE PUSH1 0x84 SWAP1 REVERT JUMPDEST POP POP PUSH1 0x0 SWAP1 JUMP JUMPDEST SWAP1 DUP2 ADD SWAP1 DUP2 DUP2 GT PUSH2 0x105A JUMPI DUP2 LT PUSH2 0x11E5 JUMPI SWAP1 JUMP JUMPDEST PUSH1 0x40 MLOAD PUSH3 0x461BCD PUSH1 0xE5 SHL DUP2 MSTORE PUSH1 0x20 PUSH1 0x4 DUP3 ADD MSTORE PUSH1 0x1B PUSH1 0x24 DUP3 ADD MSTORE PUSH32 0x536166654D6174683A206164646974696F6E206F766572666C6F770000000000 PUSH1 0x44 DUP3 ADD MSTORE PUSH1 0x64 SWAP1 REVERT JUMPDEST ISZERO PUSH2 0x1232 JUMPI POP JUMP JUMPDEST PUSH1 0x40 MLOAD SWAP1 PUSH3 0x461BCD PUSH1 0xE5 SHL DUP3 MSTORE DUP2 PUSH1 0x20 DUP1 PUSH1 0x4 DUP4 ADD MSTORE DUP3 MLOAD SWAP1 DUP2 PUSH1 0x24 DUP5 ADD MSTORE PUSH1 0x0 SWAP4 JUMPDEST DUP3 DUP6 LT PUSH2 0x1278 JUMPI POP POP PUSH1 0x44 SWAP3 POP PUSH1 0x0 DUP4 DUP3 DUP5 ADD ADD MSTORE PUSH1 0x1F DUP1 NOT SWAP2 ADD AND DUP2 ADD SUB ADD SWAP1 REVERT JUMPDEST DUP5 DUP2 ADD DUP3 ADD MLOAD DUP7 DUP7 ADD PUSH1 0x44 ADD MSTORE SWAP4 DUP2 ADD SWAP4 DUP6 SWAP4 POP PUSH2 0x1255 JUMP JUMPDEST PUSH1 0x1 PUSH1 0x1 PUSH1 0xA0 SHL SUB AND PUSH2 0x12A5 DUP2 ISZERO ISZERO PUSH2 0xEFB JUMP JUMPDEST PUSH1 0x0 DUP1 DUP1 DUP1 SWAP5 DUP2 SWAP5 GAS CALL SWAP1 RETURNDATASIZE ISZERO PUSH2 0x1341 JUMPI RETURNDATASIZE SWAP1 PUSH8 0xFFFFFFFFFFFFFFFF DUP3 GT PUSH2 0x132D JUMPI PUSH1 0x40 MLOAD SWAP2 PUSH2 0x12DF PUSH1 0x1F DUP3 ADD PUSH1 0x1F NOT AND PUSH1 0x20 ADD DUP5 PUSH2 0xF79 JUMP JUMPDEST DUP3 MSTORE PUSH1 0x20 RETURNDATASIZE SWAP3 ADD RETURNDATACOPY JUMPDEST DUP1 ISZERO PUSH2 0x12F1 JUMPI SWAP1 JUMP JUMPDEST PUSH1 0x40 MLOAD PUSH3 0x461BCD PUSH1 0xE5 SHL DUP2 MSTORE PUSH1 0x20 PUSH1 0x4 DUP3 ADD MSTORE PUSH1 0x14 PUSH1 0x24 DUP3 ADD MSTORE PUSH20 0x2A3930B739B332B91022AA24102330B4B632B217 PUSH1 0x61 SHL PUSH1 0x44 DUP3 ADD MSTORE PUSH1 0x64 SWAP1 REVERT JUMPDEST PUSH4 0x4E487B71 PUSH1 0xE0 SHL DUP2 MSTORE PUSH1 0x41 PUSH1 0x4 MSTORE PUSH1 0x24 SWAP1 REVERT JUMPDEST POP PUSH2 0x12E8 JUMP INVALID LOG2 PUSH5 0x6970667358 0x22 SLT KECCAK256 PUSH28 0x80CBA1B3E69EFCE9BB7D15CE96C48B83F5C0C01AE28BB80C3D9E42F3 RETURN LOG1 0xB9 PUSH5 0x736F6C6343 STOP ADDMOD XOR STOP CALLER "
        },
        "methodIdentifiers": {
          "WETH()": "ad5c4648",
          "addLiquidityETH(address,uint256)": "7282d548",
          "factory()": "c45a0155",
          "getAmountsOut(address,address,uint256)": "45608d00",
          "removeLiquidityETH(address,uint256,address)": "e79a4089",
          "swapETHForTokens(address,address)": "7f54a369",
          "swapTokensForETH(uint256,address,address)": "6bf09f10"
        }
      }
    }
  }
}