{
  "contracts/Pair.sol": {
    "Pair": {
      "abi": [
        {
          "inputs": [
            {
              "internalType": "address",
              "name": "factory_",
              "type": "address"
            },
            {
              "internalType": "address",
              "name": "token0",
              "type": "address"
            },
            {
              "internalType": "address",
              "name": "token1",
              "type": "address"
            }
          ],
          "stateMutability": "nonpayable",
          "type": "constructor"
        },
        {
          "inputs": [],
          "name": "ReentrancyGuardReentrantCall",
          "type": "error"
        },
        {
          "anonymous": false,
          "inputs": [
            {
              "indexed": false,
              "internalType": "uint256",
              "name": "reserve0",
              "type": "uint256"
            },
            {
              "indexed": false,
              "internalType": "uint256",
              "name": "reserve1",
              "type": "uint256"
            },
            {
              "indexed": false,
              "internalType": "address",
              "name": "lp",
              "type": "address"
            }
          ],
          "name": "Burn",
          "type": "event"
        },
        {
          "anonymous": false,
          "inputs": [
            {
              "indexed": false,
              "internalType": "uint256",
              "name": "reserve0",
              "type": "uint256"
            },
            {
              "indexed": false,
              "internalType": "uint256",
              "name": "reserve1",
              "type": "uint256"
            },
            {
              "indexed": false,
              "internalType": "address",
              "name": "lp",
              "type": "address"
            }
          ],
          "name": "Mint",
          "type": "event"
        },
        {
          "anonymous": false,
          "inputs": [
            {
              "indexed": false,
              "internalType": "uint256",
              "name": "amount0In",
              "type": "uint256"
            },
            {
              "indexed": false,
              "internalType": "uint256",
              "name": "amount0Out",
              "type": "uint256"
            },
            {
              "indexed": false,
              "internalType": "uint256",
              "name": "amount1In",
              "type": "uint256"
            },
            {
              "indexed": false,
              "internalType": "uint256",
              "name": "amount1Out",
              "type": "uint256"
            }
          ],
          "name": "Swap",
          "type": "event"
        },
        {
          "inputs": [],
          "name": "MINIMUM_LIQUIDITY",
          "outputs": [
            {
              "internalType": "uint256",
              "name": "",
              "type": "uint256"
            }
          ],
          "stateMutability": "pure",
          "type": "function"
        },
        {
          "inputs": [
            {
              "internalType": "address",
              "name": "_user",
              "type": "address"
            },
            {
              "internalType": "address",
              "name": "_token",
              "type": "address"
            },
            {
              "internalType": "uint256",
              "name": "amount",
              "type": "uint256"
            }
          ],
          "name": "approval",
          "outputs": [
            {
              "internalType": "bool",
              "name": "",
              "type": "bool"
            }
          ],
          "stateMutability": "nonpayable",
          "type": "function"
        },
        {
          "inputs": [],
          "name": "balance",
          "outputs": [
            {
              "internalType": "uint256",
              "name": "",
              "type": "uint256"
            }
          ],
          "stateMutability": "view",
          "type": "function"
        },
        {
          "inputs": [
            {
              "internalType": "uint256",
              "name": "reserve0",
              "type": "uint256"
            },
            {
              "internalType": "uint256",
              "name": "reserve1",
              "type": "uint256"
            },
            {
              "internalType": "address",
              "name": "_lp",
              "type": "address"
            }
          ],
          "name": "burn",
          "outputs": [
            {
              "internalType": "bool",
              "name": "",
              "type": "bool"
            }
          ],
          "stateMutability": "nonpayable",
          "type": "function"
        },
        {
          "inputs": [],
          "name": "factory",
          "outputs": [
            {
              "internalType": "address",
              "name": "",
              "type": "address"
            }
          ],
          "stateMutability": "view",
          "type": "function"
        },
        {
          "inputs": [],
          "name": "getReserves",
          "outputs": [
            {
              "internalType": "uint256",
              "name": "reserveA",
              "type": "uint256"
            },
            {
              "internalType": "uint256",
              "name": "reserveB",
              "type": "uint256"
            },
            {
              "internalType": "uint256",
              "name": "timestamp",
              "type": "uint256"
            }
          ],
          "stateMutability": "view",
          "type": "function"
        },
        {
          "inputs": [],
          "name": "kLast",
          "outputs": [
            {
              "internalType": "uint256",
              "name": "",
              "type": "uint256"
            }
          ],
          "stateMutability": "view",
          "type": "function"
        },
        {
          "inputs": [
            {
              "internalType": "uint256",
              "name": "ethInUSD",
              "type": "uint256"
            }
          ],
          "name": "liquidity",
          "outputs": [
            {
              "internalType": "uint256",
              "name": "",
              "type": "uint256"
            }
          ],
          "stateMutability": "view",
          "type": "function"
        },
        {
          "inputs": [],
          "name": "liquidityProvider",
          "outputs": [
            {
              "internalType": "address",
              "name": "",
              "type": "address"
            }
          ],
          "stateMutability": "view",
          "type": "function"
        },
        {
          "inputs": [
            {
              "internalType": "uint256",
              "name": "ethInUSD",
              "type": "uint256"
            }
          ],
          "name": "marketCap",
          "outputs": [
            {
              "internalType": "uint256",
              "name": "",
              "type": "uint256"
            }
          ],
          "stateMutability": "view",
          "type": "function"
        },
        {
          "inputs": [
            {
              "internalType": "uint256",
              "name": "reserve0",
              "type": "uint256"
            },
            {
              "internalType": "uint256",
              "name": "reserve1",
              "type": "uint256"
            },
            {
              "internalType": "address",
              "name": "_lp",
              "type": "address"
            }
          ],
          "name": "mint",
          "outputs": [
            {
              "internalType": "bool",
              "name": "",
              "type": "bool"
            }
          ],
          "stateMutability": "nonpayable",
          "type": "function"
        },
        {
          "inputs": [],
          "name": "priceALast",
          "outputs": [
            {
              "internalType": "uint256",
              "name": "",
              "type": "uint256"
            }
          ],
          "stateMutability": "view",
          "type": "function"
        },
        {
          "inputs": [],
          "name": "priceBLast",
          "outputs": [
            {
              "internalType": "uint256",
              "name": "",
              "type": "uint256"
            }
          ],
          "stateMutability": "view",
          "type": "function"
        },
        {
          "inputs": [
            {
              "internalType": "uint256",
              "name": "amount0In",
              "type": "uint256"
            },
            {
              "internalType": "uint256",
              "name": "amount0Out",
              "type": "uint256"
            },
            {
              "internalType": "uint256",
              "name": "amount1In",
              "type": "uint256"
            },
            {
              "internalType": "uint256",
              "name": "amount1Out",
              "type": "uint256"
            }
          ],
          "name": "swap",
          "outputs": [
            {
              "internalType": "bool",
              "name": "",
              "type": "bool"
            }
          ],
          "stateMutability": "nonpayable",
          "type": "function"
        },
        {
          "inputs": [],
          "name": "tokenA",
          "outputs": [
            {
              "internalType": "address",
              "name": "",
              "type": "address"
            }
          ],
          "stateMutability": "view",
          "type": "function"
        },
        {
          "inputs": [],
          "name": "tokenB",
          "outputs": [
            {
              "internalType": "address",
              "name": "",
              "type": "address"
            }
          ],
          "stateMutability": "view",
          "type": "function"
        },
        {
          "inputs": [
            {
              "internalType": "address",
              "name": "_address",
              "type": "address"
            },
            {
              "internalType": "uint256",
              "name": "amount",
              "type": "uint256"
            }
          ],
          "name": "transferETH",
          "outputs": [
            {
              "internalType": "bool",
              "name": "",
              "type": "bool"
            }
          ],
          "stateMutability": "nonpayable",
          "type": "function"
        },
        {
          "stateMutability": "payable",
          "type": "receive"
        }
      ],
      "evm": {
        "bytecode": {
          "linkReferences": {},
          "object": "6080346100cb57601f610a3138819003918201601f19168301916001600160401b038311848410176100d0578084926060946040528339810103126100cb57610047816100e6565b906100606040610059602084016100e6565b92016100e6565b6001600055916001600160a01b0390811691819061007f8415156100fa565b169261008c8415156100fa565b16916100998315156100fa565b60018060a01b03199182600154161760015581600254161760025560035416176003556040516108ea90816101478239f35b600080fd5b634e487b7160e01b600052604160045260246000fd5b51906001600160a01b03821682036100cb57565b1561010157565b60405162461bcd60e51b815260206004820152601f60248201527f5a65726f2061646472657373657320617265206e6f7420616c6c6f7765642e006044820152606490fdfe6080604081815260049182361015610022575b505050361561002057600080fd5b005b600090813560e01c9081630902f1ac146106b2575080630e06dfc91461068e5780630fc63d10146106655780635436e922146106435780635673b02d146105945780635b8bec551461056c5780635c52a5f21461047a5780635c9d6938146104565780635f64b55b1461042d5780637464fc3d1461040e578063749388c41461030b5780637b1a490914610239578063b69ef8a81461021e578063ba9a7a5614610201578063c45a0155146101d4578063c8f1c3af146101a35763e7d3fe6b0361001257346101a057507f8334f87aeaf76e52b061d93ee968e51fdd3ad53ca04e80271249227997aab3a061019660209361011c366106fb565b83546001600160a01b0319166001600160a01b038216179093559290916101438484610745565b865161014e81610788565b848152858982015281888201526060429101528360055584600655600755426008558551938493849192604091949360608401958452602084015260018060a01b0316910152565b0390a15160018152f35b80fd5b50346101a05760203660031901126101a057506101cd602092356101c8600654610828565b610745565b9051908152f35b5090346101fd57816003193601126101fd5760015490516001600160a01b039091168152602090f35b5080fd5b5090346101fd57816003193601126101fd57602090516103e88152f35b5090346101fd57816003193601126101fd5751478152602090f35b508290346101a057826003193601126101a057808080806001600160a01b036102606106e0565b1661026c8115156107dc565b602435905af1903d15610305573d9067ffffffffffffffff82116102f2578451916102a1601f8201601f1916602001846107ba565b825260203d92013e5b156102b9576020825160018152f35b6020606492519162461bcd60e51b835282015260146024820152732a3930b739b332b91022aa24102330b4b632b21760611b6044820152fd5b634e487b7160e01b815260418452602490fd5b506102aa565b508290346101a0575061031d366106fb565b90926001600160a01b03808316906103368215156107dc565b825416036103bb576020857f254cba6bcaacd15ef1bba85e06c1d71c8cf7a3e036ad089903ba04bad25aaccc86866101968760075486519061037782610788565b8482528589830152878201526060429101528260055583600655426008558551938493849192604091949360608401958452602084015260018060a01b0316910152565b608490602086519162461bcd60e51b8352820152602760248201527f4f6e6c79204c7020686f6c646572732063616e2063616c6c20746869732066756044820152663731ba34b7b71760c91b6064820152fd5b5090346101fd57816003193601126101fd576020906007549051908152f35b5090346101fd57816003193601126101fd5760035490516001600160a01b039091168152602090f35b5090346101fd57816003193601126101fd576020906101cd60065460055490610725565b509134610540576060366003190112610540576104956106e0565b6001600160a01b0360243581811693929084900361056857600286541461055857602092916044916002885516916104ce8315156107dc565b6104d98515156107dc565b868651958694859363095ea7b360e01b8552840152833560248401525af1801561054c57610510575b506001602092555160018152f35b6020813d602011610544575b81610529602093836107ba565b810103126105405751801515036101fd5738610502565b8280fd5b3d915061051c565b505051903d90823e3d90fd5b8451633ee5aeb560e01b81528390fd5b8580fd5b5091346105405782600319360112610540575490516001600160a01b03909116815260209150f35b50346101a05760803660031901126101a057507f298c349c742327269dc8de6ad66687767310c948ea309df826f5bd103e19d207608060209335602435604435606435916105ed816105e88660055461076e565b61077b565b6105fd846105e88560065461076e565b9060075489519061060d82610788565b828252838c8301528a82015260604291015260055560065542600855865193845287840152858301526060820152a15160018152f35b50346101a05760203660031901126101a057506101cd60209235600654610745565b5090346101fd57816003193601126101fd5760025490516001600160a01b039091168152602090f35b5090346101fd57816003193601126101fd576020906101cd60055460065490610725565b9050823461054057826003193601126105405760609250600554906006546008549284526020840152820152f35b600435906001600160a01b03821682036106f657565b600080fd5b60609060031901126106f65760043590602435906044356001600160a01b03811681036106f65790565b811561072f570490565b634e487b7160e01b600052601260045260246000fd5b8181029291811591840414171561075857565b634e487b7160e01b600052601160045260246000fd5b9190820180921161075857565b9190820391821161075857565b6080810190811067ffffffffffffffff8211176107a457604052565b634e487b7160e01b600052604160045260246000fd5b90601f8019910116810190811067ffffffffffffffff8211176107a457604052565b156107e357565b60405162461bcd60e51b815260206004820152601f60248201527f5a65726f2061646472657373657320617265206e6f7420616c6c6f7765642e006044820152606490fd5b80156108ae5780806001146108a7576002146108a1576001908161013382101682600b8310161761089957906002815b80821161087057505081600019048111610758570290565b90928060001904811161075857818416610890575b800292811c90610858565b80920291610885565b600291500a90565b50600490565b5050600190565b5060009056fea26469706673582212202bdd8a8fac2a568dfb73e823a9b980dc38b6152056ac7946e1b8710283e6f07164736f6c63430008180033",
          "opcodes": "PUSH1 0x80 CALLVALUE PUSH2 0xCB JUMPI PUSH1 0x1F PUSH2 0xA31 CODESIZE DUP2 SWAP1 SUB SWAP2 DUP3 ADD PUSH1 0x1F NOT AND DUP4 ADD SWAP2 PUSH1 0x1 PUSH1 0x1 PUSH1 0x40 SHL SUB DUP4 GT DUP5 DUP5 LT OR PUSH2 0xD0 JUMPI DUP1 DUP5 SWAP3 PUSH1 0x60 SWAP5 PUSH1 0x40 MSTORE DUP4 CODECOPY DUP2 ADD SUB SLT PUSH2 0xCB JUMPI PUSH2 0x47 DUP2 PUSH2 0xE6 JUMP JUMPDEST SWAP1 PUSH2 0x60 PUSH1 0x40 PUSH2 0x59 PUSH1 0x20 DUP5 ADD PUSH2 0xE6 JUMP JUMPDEST SWAP3 ADD PUSH2 0xE6 JUMP JUMPDEST PUSH1 0x1 PUSH1 0x0 SSTORE SWAP2 PUSH1 0x1 PUSH1 0x1 PUSH1 0xA0 SHL SUB SWAP1 DUP2 AND SWAP2 DUP2 SWAP1 PUSH2 0x7F DUP5 ISZERO ISZERO PUSH2 0xFA JUMP JUMPDEST AND SWAP3 PUSH2 0x8C DUP5 ISZERO ISZERO PUSH2 0xFA JUMP JUMPDEST AND SWAP2 PUSH2 0x99 DUP4 ISZERO ISZERO PUSH2 0xFA JUMP JUMPDEST PUSH1 0x1 DUP1 PUSH1 0xA0 SHL SUB NOT SWAP2 DUP3 PUSH1 0x1 SLOAD AND OR PUSH1 0x1 SSTORE DUP2 PUSH1 0x2 SLOAD AND OR PUSH1 0x2 SSTORE PUSH1 0x3 SLOAD AND OR PUSH1 0x3 SSTORE PUSH1 0x40 MLOAD PUSH2 0x8EA SWAP1 DUP2 PUSH2 0x147 DUP3 CODECOPY RETURN JUMPDEST PUSH1 0x0 DUP1 REVERT JUMPDEST PUSH4 0x4E487B71 PUSH1 0xE0 SHL PUSH1 0x0 MSTORE PUSH1 0x41 PUSH1 0x4 MSTORE PUSH1 0x24 PUSH1 0x0 REVERT JUMPDEST MLOAD SWAP1 PUSH1 0x1 PUSH1 0x1 PUSH1 0xA0 SHL SUB DUP3 AND DUP3 SUB PUSH2 0xCB JUMPI JUMP JUMPDEST ISZERO PUSH2 0x101 JUMPI JUMP JUMPDEST PUSH1 0x40 MLOAD PUSH3 0x461BCD PUSH1 0xE5 SHL DUP2 MSTORE PUSH1 0x20 PUSH1 0x4 DUP3 ADD MSTORE PUSH1 0x1F PUSH1 0x24 DUP3 ADD MSTORE PUSH32 0x5A65726F2061646472657373657320617265206E6F7420616C6C6F7765642E00 PUSH1 0x44 DUP3 ADD MSTORE PUSH1 0x64 SWAP1 REVERT INVALID PUSH1 0x80 PUSH1 0x40 DUP2 DUP2 MSTORE PUSH1 0x4 SWAP2 DUP3 CALLDATASIZE LT ISZERO PUSH2 0x22 JUMPI JUMPDEST POP POP POP CALLDATASIZE ISZERO PUSH2 0x20 JUMPI PUSH1 0x0 DUP1 REVERT JUMPDEST STOP JUMPDEST PUSH1 0x0 SWAP1 DUP2 CALLDATALOAD PUSH1 0xE0 SHR SWAP1 DUP2 PUSH4 0x902F1AC EQ PUSH2 0x6B2 JUMPI POP DUP1 PUSH4 0xE06DFC9 EQ PUSH2 0x68E JUMPI DUP1 PUSH4 0xFC63D10 EQ PUSH2 0x665 JUMPI DUP1 PUSH4 0x5436E922 EQ PUSH2 0x643 JUMPI DUP1 PUSH4 0x5673B02D EQ PUSH2 0x594 JUMPI DUP1 PUSH4 0x5B8BEC55 EQ PUSH2 0x56C JUMPI DUP1 PUSH4 0x5C52A5F2 EQ PUSH2 0x47A JUMPI DUP1 PUSH4 0x5C9D6938 EQ PUSH2 0x456 JUMPI DUP1 PUSH4 0x5F64B55B EQ PUSH2 0x42D JUMPI DUP1 PUSH4 0x7464FC3D EQ PUSH2 0x40E JUMPI DUP1 PUSH4 0x749388C4 EQ PUSH2 0x30B JUMPI DUP1 PUSH4 0x7B1A4909 EQ PUSH2 0x239 JUMPI DUP1 PUSH4 0xB69EF8A8 EQ PUSH2 0x21E JUMPI DUP1 PUSH4 0xBA9A7A56 EQ PUSH2 0x201 JUMPI DUP1 PUSH4 0xC45A0155 EQ PUSH2 0x1D4 JUMPI DUP1 PUSH4 0xC8F1C3AF EQ PUSH2 0x1A3 JUMPI PUSH4 0xE7D3FE6B SUB PUSH2 0x12 JUMPI CALLVALUE PUSH2 0x1A0 JUMPI POP PUSH32 0x8334F87AEAF76E52B061D93EE968E51FDD3AD53CA04E80271249227997AAB3A0 PUSH2 0x196 PUSH1 0x20 SWAP4 PUSH2 0x11C CALLDATASIZE PUSH2 0x6FB JUMP JUMPDEST DUP4 SLOAD PUSH1 0x1 PUSH1 0x1 PUSH1 0xA0 SHL SUB NOT AND PUSH1 0x1 PUSH1 0x1 PUSH1 0xA0 SHL SUB DUP3 AND OR SWAP1 SWAP4 SSTORE SWAP3 SWAP1 SWAP2 PUSH2 0x143 DUP5 DUP5 PUSH2 0x745 JUMP JUMPDEST DUP7 MLOAD PUSH2 0x14E DUP2 PUSH2 0x788 JUMP JUMPDEST DUP5 DUP2 MSTORE DUP6 DUP10 DUP3 ADD MSTORE DUP2 DUP9 DUP3 ADD MSTORE PUSH1 0x60 TIMESTAMP SWAP2 ADD MSTORE DUP4 PUSH1 0x5 SSTORE DUP5 PUSH1 0x6 SSTORE PUSH1 0x7 SSTORE TIMESTAMP PUSH1 0x8 SSTORE DUP6 MLOAD SWAP4 DUP5 SWAP4 DUP5 SWAP2 SWAP3 PUSH1 0x40 SWAP2 SWAP5 SWAP4 PUSH1 0x60 DUP5 ADD SWAP6 DUP5 MSTORE PUSH1 0x20 DUP5 ADD MSTORE PUSH1 0x1 DUP1 PUSH1 0xA0 SHL SUB AND SWAP2 ADD MSTORE JUMP JUMPDEST SUB SWAP1 LOG1 MLOAD PUSH1 0x1 DUP2 MSTORE RETURN JUMPDEST DUP1 REVERT JUMPDEST POP CALLVALUE PUSH2 0x1A0 JUMPI PUSH1 0x20 CALLDATASIZE PUSH1 0x3 NOT ADD SLT PUSH2 0x1A0 JUMPI POP PUSH2 0x1CD PUSH1 0x20 SWAP3 CALLDATALOAD PUSH2 0x1C8 PUSH1 0x6 SLOAD PUSH2 0x828 JUMP JUMPDEST PUSH2 0x745 JUMP JUMPDEST SWAP1 MLOAD SWAP1 DUP2 MSTORE RETURN JUMPDEST POP SWAP1 CALLVALUE PUSH2 0x1FD JUMPI DUP2 PUSH1 0x3 NOT CALLDATASIZE ADD SLT PUSH2 0x1FD JUMPI PUSH1 0x1 SLOAD SWAP1 MLOAD PUSH1 0x1 PUSH1 0x1 PUSH1 0xA0 SHL SUB SWAP1 SWAP2 AND DUP2 MSTORE PUSH1 0x20 SWAP1 RETURN JUMPDEST POP DUP1 REVERT JUMPDEST POP SWAP1 CALLVALUE PUSH2 0x1FD JUMPI DUP2 PUSH1 0x3 NOT CALLDATASIZE ADD SLT PUSH2 0x1FD JUMPI PUSH1 0x20 SWAP1 MLOAD PUSH2 0x3E8 DUP2 MSTORE RETURN JUMPDEST POP SWAP1 CALLVALUE PUSH2 0x1FD JUMPI DUP2 PUSH1 0x3 NOT CALLDATASIZE ADD SLT PUSH2 0x1FD JUMPI MLOAD SELFBALANCE DUP2 MSTORE PUSH1 0x20 SWAP1 RETURN JUMPDEST POP DUP3 SWAP1 CALLVALUE PUSH2 0x1A0 JUMPI DUP3 PUSH1 0x3 NOT CALLDATASIZE ADD SLT PUSH2 0x1A0 JUMPI DUP1 DUP1 DUP1 DUP1 PUSH1 0x1 PUSH1 0x1 PUSH1 0xA0 SHL SUB PUSH2 0x260 PUSH2 0x6E0 JUMP JUMPDEST AND PUSH2 0x26C DUP2 ISZERO ISZERO PUSH2 0x7DC JUMP JUMPDEST PUSH1 0x24 CALLDATALOAD SWAP1 GAS CALL SWAP1 RETURNDATASIZE ISZERO PUSH2 0x305 JUMPI RETURNDATASIZE SWAP1 PUSH8 0xFFFFFFFFFFFFFFFF DUP3 GT PUSH2 0x2F2 JUMPI DUP5 MLOAD SWAP2 PUSH2 0x2A1 PUSH1 0x1F DUP3 ADD PUSH1 0x1F NOT AND PUSH1 0x20 ADD DUP5 PUSH2 0x7BA JUMP JUMPDEST DUP3 MSTORE PUSH1 0x20 RETURNDATASIZE SWAP3 ADD RETURNDATACOPY JUMPDEST ISZERO PUSH2 0x2B9 JUMPI PUSH1 0x20 DUP3 MLOAD PUSH1 0x1 DUP2 MSTORE RETURN JUMPDEST PUSH1 0x20 PUSH1 0x64 SWAP3 MLOAD SWAP2 PUSH3 0x461BCD PUSH1 0xE5 SHL DUP4 MSTORE DUP3 ADD MSTORE PUSH1 0x14 PUSH1 0x24 DUP3 ADD MSTORE PUSH20 0x2A3930B739B332B91022AA24102330B4B632B217 PUSH1 0x61 SHL PUSH1 0x44 DUP3 ADD MSTORE REVERT JUMPDEST PUSH4 0x4E487B71 PUSH1 0xE0 SHL DUP2 MSTORE PUSH1 0x41 DUP5 MSTORE PUSH1 0x24 SWAP1 REVERT JUMPDEST POP PUSH2 0x2AA JUMP JUMPDEST POP DUP3 SWAP1 CALLVALUE PUSH2 0x1A0 JUMPI POP PUSH2 0x31D CALLDATASIZE PUSH2 0x6FB JUMP JUMPDEST SWAP1 SWAP3 PUSH1 0x1 PUSH1 0x1 PUSH1 0xA0 SHL SUB DUP1 DUP4 AND SWAP1 PUSH2 0x336 DUP3 ISZERO ISZERO PUSH2 0x7DC JUMP JUMPDEST DUP3 SLOAD AND SUB PUSH2 0x3BB JUMPI PUSH1 0x20 DUP6 PUSH32 0x254CBA6BCAACD15EF1BBA85E06C1D71C8CF7A3E036AD089903BA04BAD25AACCC DUP7 DUP7 PUSH2 0x196 DUP8 PUSH1 0x7 SLOAD DUP7 MLOAD SWAP1 PUSH2 0x377 DUP3 PUSH2 0x788 JUMP JUMPDEST DUP5 DUP3 MSTORE DUP6 DUP10 DUP4 ADD MSTORE DUP8 DUP3 ADD MSTORE PUSH1 0x60 TIMESTAMP SWAP2 ADD MSTORE DUP3 PUSH1 0x5 SSTORE DUP4 PUSH1 0x6 SSTORE TIMESTAMP PUSH1 0x8 SSTORE DUP6 MLOAD SWAP4 DUP5 SWAP4 DUP5 SWAP2 SWAP3 PUSH1 0x40 SWAP2 SWAP5 SWAP4 PUSH1 0x60 DUP5 ADD SWAP6 DUP5 MSTORE PUSH1 0x20 DUP5 ADD MSTORE PUSH1 0x1 DUP1 PUSH1 0xA0 SHL SUB AND SWAP2 ADD MSTORE JUMP JUMPDEST PUSH1 0x84 SWAP1 PUSH1 0x20 DUP7 MLOAD SWAP2 PUSH3 0x461BCD PUSH1 0xE5 SHL DUP4 MSTORE DUP3 ADD MSTORE PUSH1 0x27 PUSH1 0x24 DUP3 ADD MSTORE PUSH32 0x4F6E6C79204C7020686F6C646572732063616E2063616C6C2074686973206675 PUSH1 0x44 DUP3 ADD MSTORE PUSH7 0x3731BA34B7B717 PUSH1 0xC9 SHL PUSH1 0x64 DUP3 ADD MSTORE REVERT JUMPDEST POP SWAP1 CALLVALUE PUSH2 0x1FD JUMPI DUP2 PUSH1 0x3 NOT CALLDATASIZE ADD SLT PUSH2 0x1FD JUMPI PUSH1 0x20 SWAP1 PUSH1 0x7 SLOAD SWAP1 MLOAD SWAP1 DUP2 MSTORE RETURN JUMPDEST POP SWAP1 CALLVALUE PUSH2 0x1FD JUMPI DUP2 PUSH1 0x3 NOT CALLDATASIZE ADD SLT PUSH2 0x1FD JUMPI PUSH1 0x3 SLOAD SWAP1 MLOAD PUSH1 0x1 PUSH1 0x1 PUSH1 0xA0 SHL SUB SWAP1 SWAP2 AND DUP2 MSTORE PUSH1 0x20 SWAP1 RETURN JUMPDEST POP SWAP1 CALLVALUE PUSH2 0x1FD JUMPI DUP2 PUSH1 0x3 NOT CALLDATASIZE ADD SLT PUSH2 0x1FD JUMPI PUSH1 0x20 SWAP1 PUSH2 0x1CD PUSH1 0x6 SLOAD PUSH1 0x5 SLOAD SWAP1 PUSH2 0x725 JUMP JUMPDEST POP SWAP2 CALLVALUE PUSH2 0x540 JUMPI PUSH1 0x60 CALLDATASIZE PUSH1 0x3 NOT ADD SLT PUSH2 0x540 JUMPI PUSH2 0x495 PUSH2 0x6E0 JUMP JUMPDEST PUSH1 0x1 PUSH1 0x1 PUSH1 0xA0 SHL SUB PUSH1 0x24 CALLDATALOAD DUP2 DUP2 AND SWAP4 SWAP3 SWAP1 DUP5 SWAP1 SUB PUSH2 0x568 JUMPI PUSH1 0x2 DUP7 SLOAD EQ PUSH2 0x558 JUMPI PUSH1 0x20 SWAP3 SWAP2 PUSH1 0x44 SWAP2 PUSH1 0x2 DUP9 SSTORE AND SWAP2 PUSH2 0x4CE DUP4 ISZERO ISZERO PUSH2 0x7DC JUMP JUMPDEST PUSH2 0x4D9 DUP6 ISZERO ISZERO PUSH2 0x7DC JUMP JUMPDEST DUP7 DUP7 MLOAD SWAP6 DUP7 SWAP5 DUP6 SWAP4 PUSH4 0x95EA7B3 PUSH1 0xE0 SHL DUP6 MSTORE DUP5 ADD MSTORE DUP4 CALLDATALOAD PUSH1 0x24 DUP5 ADD MSTORE GAS CALL DUP1 ISZERO PUSH2 0x54C JUMPI PUSH2 0x510 JUMPI JUMPDEST POP PUSH1 0x1 PUSH1 0x20 SWAP3 SSTORE MLOAD PUSH1 0x1 DUP2 MSTORE RETURN JUMPDEST PUSH1 0x20 DUP2 RETURNDATASIZE PUSH1 0x20 GT PUSH2 0x544 JUMPI JUMPDEST DUP2 PUSH2 0x529 PUSH1 0x20 SWAP4 DUP4 PUSH2 0x7BA JUMP JUMPDEST DUP2 ADD SUB SLT PUSH2 0x540 JUMPI MLOAD DUP1 ISZERO ISZERO SUB PUSH2 0x1FD JUMPI CODESIZE PUSH2 0x502 JUMP JUMPDEST DUP3 DUP1 REVERT JUMPDEST RETURNDATASIZE SWAP2 POP PUSH2 0x51C JUMP JUMPDEST POP POP MLOAD SWAP1 RETURNDATASIZE SWAP1 DUP3 RETURNDATACOPY RETURNDATASIZE SWAP1 REVERT JUMPDEST DUP5 MLOAD PUSH4 0x3EE5AEB5 PUSH1 0xE0 SHL DUP2 MSTORE DUP4 SWAP1 REVERT JUMPDEST DUP6 DUP1 REVERT JUMPDEST POP SWAP2 CALLVALUE PUSH2 0x540 JUMPI DUP3 PUSH1 0x3 NOT CALLDATASIZE ADD SLT PUSH2 0x540 JUMPI SLOAD SWAP1 MLOAD PUSH1 0x1 PUSH1 0x1 PUSH1 0xA0 SHL SUB SWAP1 SWAP2 AND DUP2 MSTORE PUSH1 0x20 SWAP2 POP RETURN JUMPDEST POP CALLVALUE PUSH2 0x1A0 JUMPI PUSH1 0x80 CALLDATASIZE PUSH1 0x3 NOT ADD SLT PUSH2 0x1A0 JUMPI POP PUSH32 0x298C349C742327269DC8DE6AD66687767310C948EA309DF826F5BD103E19D207 PUSH1 0x80 PUSH1 0x20 SWAP4 CALLDATALOAD PUSH1 0x24 CALLDATALOAD PUSH1 0x44 CALLDATALOAD PUSH1 0x64 CALLDATALOAD SWAP2 PUSH2 0x5ED DUP2 PUSH2 0x5E8 DUP7 PUSH1 0x5 SLOAD PUSH2 0x76E JUMP JUMPDEST PUSH2 0x77B JUMP JUMPDEST PUSH2 0x5FD DUP5 PUSH2 0x5E8 DUP6 PUSH1 0x6 SLOAD PUSH2 0x76E JUMP JUMPDEST SWAP1 PUSH1 0x7 SLOAD DUP10 MLOAD SWAP1 PUSH2 0x60D DUP3 PUSH2 0x788 JUMP JUMPDEST DUP3 DUP3 MSTORE DUP4 DUP13 DUP4 ADD MSTORE DUP11 DUP3 ADD MSTORE PUSH1 0x60 TIMESTAMP SWAP2 ADD MSTORE PUSH1 0x5 SSTORE PUSH1 0x6 SSTORE TIMESTAMP PUSH1 0x8 SSTORE DUP7 MLOAD SWAP4 DUP5 MSTORE DUP8 DUP5 ADD MSTORE DUP6 DUP4 ADD MSTORE PUSH1 0x60 DUP3 ADD MSTORE LOG1 MLOAD PUSH1 0x1 DUP2 MSTORE RETURN JUMPDEST POP CALLVALUE PUSH2 0x1A0 JUMPI PUSH1 0x20 CALLDATASIZE PUSH1 0x3 NOT ADD SLT PUSH2 0x1A0 JUMPI POP PUSH2 0x1CD PUSH1 0x20 SWAP3 CALLDATALOAD PUSH1 0x6 SLOAD PUSH2 0x745 JUMP JUMPDEST POP SWAP1 CALLVALUE PUSH2 0x1FD JUMPI DUP2 PUSH1 0x3 NOT CALLDATASIZE ADD SLT PUSH2 0x1FD JUMPI PUSH1 0x2 SLOAD SWAP1 MLOAD PUSH1 0x1 PUSH1 0x1 PUSH1 0xA0 SHL SUB SWAP1 SWAP2 AND DUP2 MSTORE PUSH1 0x20 SWAP1 RETURN JUMPDEST POP SWAP1 CALLVALUE PUSH2 0x1FD JUMPI DUP2 PUSH1 0x3 NOT CALLDATASIZE ADD SLT PUSH2 0x1FD JUMPI PUSH1 0x20 SWAP1 PUSH2 0x1CD PUSH1 0x5 SLOAD PUSH1 0x6 SLOAD SWAP1 PUSH2 0x725 JUMP JUMPDEST SWAP1 POP DUP3 CALLVALUE PUSH2 0x540 JUMPI DUP3 PUSH1 0x3 NOT CALLDATASIZE ADD SLT PUSH2 0x540 JUMPI PUSH1 0x60 SWAP3 POP PUSH1 0x5 SLOAD SWAP1 PUSH1 0x6 SLOAD PUSH1 0x8 SLOAD SWAP3 DUP5 MSTORE PUSH1 0x20 DUP5 ADD MSTORE DUP3 ADD MSTORE RETURN JUMPDEST PUSH1 0x4 CALLDATALOAD SWAP1 PUSH1 0x1 PUSH1 0x1 PUSH1 0xA0 SHL SUB DUP3 AND DUP3 SUB PUSH2 0x6F6 JUMPI JUMP JUMPDEST PUSH1 0x0 DUP1 REVERT JUMPDEST PUSH1 0x60 SWAP1 PUSH1 0x3 NOT ADD SLT PUSH2 0x6F6 JUMPI PUSH1 0x4 CALLDATALOAD SWAP1 PUSH1 0x24 CALLDATALOAD SWAP1 PUSH1 0x44 CALLDATALOAD PUSH1 0x1 PUSH1 0x1 PUSH1 0xA0 SHL SUB DUP2 AND DUP2 SUB PUSH2 0x6F6 JUMPI SWAP1 JUMP JUMPDEST DUP2 ISZERO PUSH2 0x72F JUMPI DIV SWAP1 JUMP JUMPDEST PUSH4 0x4E487B71 PUSH1 0xE0 SHL PUSH1 0x0 MSTORE PUSH1 0x12 PUSH1 0x4 MSTORE PUSH1 0x24 PUSH1 0x0 REVERT JUMPDEST DUP2 DUP2 MUL SWAP3 SWAP2 DUP2 ISZERO SWAP2 DUP5 DIV EQ OR ISZERO PUSH2 0x758 JUMPI JUMP JUMPDEST PUSH4 0x4E487B71 PUSH1 0xE0 SHL PUSH1 0x0 MSTORE PUSH1 0x11 PUSH1 0x4 MSTORE PUSH1 0x24 PUSH1 0x0 REVERT JUMPDEST SWAP2 SWAP1 DUP3 ADD DUP1 SWAP3 GT PUSH2 0x758 JUMPI JUMP JUMPDEST SWAP2 SWAP1 DUP3 SUB SWAP2 DUP3 GT PUSH2 0x758 JUMPI JUMP JUMPDEST PUSH1 0x80 DUP2 ADD SWAP1 DUP2 LT PUSH8 0xFFFFFFFFFFFFFFFF DUP3 GT OR PUSH2 0x7A4 JUMPI PUSH1 0x40 MSTORE JUMP JUMPDEST PUSH4 0x4E487B71 PUSH1 0xE0 SHL PUSH1 0x0 MSTORE PUSH1 0x41 PUSH1 0x4 MSTORE PUSH1 0x24 PUSH1 0x0 REVERT JUMPDEST SWAP1 PUSH1 0x1F DUP1 NOT SWAP2 ADD AND DUP2 ADD SWAP1 DUP2 LT PUSH8 0xFFFFFFFFFFFFFFFF DUP3 GT OR PUSH2 0x7A4 JUMPI PUSH1 0x40 MSTORE JUMP JUMPDEST ISZERO PUSH2 0x7E3 JUMPI JUMP JUMPDEST PUSH1 0x40 MLOAD PUSH3 0x461BCD PUSH1 0xE5 SHL DUP2 MSTORE PUSH1 0x20 PUSH1 0x4 DUP3 ADD MSTORE PUSH1 0x1F PUSH1 0x24 DUP3 ADD MSTORE PUSH32 0x5A65726F2061646472657373657320617265206E6F7420616C6C6F7765642E00 PUSH1 0x44 DUP3 ADD MSTORE PUSH1 0x64 SWAP1 REVERT JUMPDEST DUP1 ISZERO PUSH2 0x8AE JUMPI DUP1 DUP1 PUSH1 0x1 EQ PUSH2 0x8A7 JUMPI PUSH1 0x2 EQ PUSH2 0x8A1 JUMPI PUSH1 0x1 SWAP1 DUP2 PUSH2 0x133 DUP3 LT AND DUP3 PUSH1 0xB DUP4 LT AND OR PUSH2 0x899 JUMPI SWAP1 PUSH1 0x2 DUP2 JUMPDEST DUP1 DUP3 GT PUSH2 0x870 JUMPI POP POP DUP2 PUSH1 0x0 NOT DIV DUP2 GT PUSH2 0x758 JUMPI MUL SWAP1 JUMP JUMPDEST SWAP1 SWAP3 DUP1 PUSH1 0x0 NOT DIV DUP2 GT PUSH2 0x758 JUMPI DUP2 DUP5 AND PUSH2 0x890 JUMPI JUMPDEST DUP1 MUL SWAP3 DUP2 SHR SWAP1 PUSH2 0x858 JUMP JUMPDEST DUP1 SWAP3 MUL SWAP2 PUSH2 0x885 JUMP JUMPDEST PUSH1 0x2 SWAP2 POP EXP SWAP1 JUMP JUMPDEST POP PUSH1 0x4 SWAP1 JUMP JUMPDEST POP POP PUSH1 0x1 SWAP1 JUMP JUMPDEST POP PUSH1 0x0 SWAP1 JUMP INVALID LOG2 PUSH5 0x6970667358 0x22 SLT KECCAK256 0x2B 0xDD DUP11 DUP16 0xAC 0x2A JUMP DUP14 0xFB PUSH20 0xE823A9B980DC38B6152056AC7946E1B8710283E6 CREATE PUSH18 0x64736F6C6343000818003300000000000000 "
        },
        "methodIdentifiers": {
          "MINIMUM_LIQUIDITY()": "ba9a7a56",
          "approval(address,address,uint256)": "5c52a5f2",
          "balance()": "b69ef8a8",
          "burn(uint256,uint256,address)": "749388c4",
          "factory()": "c45a0155",
          "getReserves()": "0902f1ac",
          "kLast()": "7464fc3d",
          "liquidity(uint256)": "c8f1c3af",
          "liquidityProvider()": "5b8bec55",
          "marketCap(uint256)": "5436e922",
          "mint(uint256,uint256,address)": "e7d3fe6b",
          "priceALast()": "5c9d6938",
          "priceBLast()": "0e06dfc9",
          "swap(uint256,uint256,uint256,uint256)": "5673b02d",
          "tokenA()": "0fc63d10",
          "tokenB()": "5f64b55b",
          "transferETH(address,uint256)": "7b1a4909"
        }
      }
    }
  }
}