{
  "contracts/Factory.sol": {
    "Factory": {
      "abi": [
        {
          "inputs": [
            {
              "internalType": "address",
              "name": "fee_to",
              "type": "address"
            }
          ],
          "stateMutability": "nonpayable",
          "type": "constructor"
        },
        {
          "inputs": [],
          "name": "ReentrancyGuardReentrantCall",
          "type": "error"
        },
        {
          "anonymous": false,
          "inputs": [
            {
              "indexed": true,
              "internalType": "address",
              "name": "tokenA",
              "type": "address"
            },
            {
              "indexed": true,
              "internalType": "address",
              "name": "tokenB",
              "type": "address"
            },
            {
              "indexed": false,
              "internalType": "address",
              "name": "pair",
              "type": "address"
            },
            {
              "indexed": false,
              "internalType": "uint256",
              "name": "",
              "type": "uint256"
            }
          ],
          "name": "PairCreated",
          "type": "event"
        },
        {
          "inputs": [
            {
              "internalType": "uint256",
              "name": "n",
              "type": "uint256"
            }
          ],
          "name": "allPairs",
          "outputs": [
            {
              "internalType": "address",
              "name": "",
              "type": "address"
            }
          ],
          "stateMutability": "view",
          "type": "function"
        },
        {
          "inputs": [],
          "name": "allPairsLength",
          "outputs": [
            {
              "internalType": "uint256",
              "name": "",
              "type": "uint256"
            }
          ],
          "stateMutability": "view",
          "type": "function"
        },
        {
          "inputs": [
            {
              "internalType": "address",
              "name": "tokenA",
              "type": "address"
            },
            {
              "internalType": "address",
              "name": "tokenB",
              "type": "address"
            }
          ],
          "name": "createPair",
          "outputs": [
            {
              "internalType": "address",
              "name": "",
              "type": "address"
            }
          ],
          "stateMutability": "nonpayable",
          "type": "function"
        },
        {
          "inputs": [],
          "name": "feeTo",
          "outputs": [
            {
              "internalType": "address",
              "name": "",
              "type": "address"
            }
          ],
          "stateMutability": "view",
          "type": "function"
        },
        {
          "inputs": [],
          "name": "feeToSetter",
          "outputs": [
            {
              "internalType": "address",
              "name": "",
              "type": "address"
            }
          ],
          "stateMutability": "view",
          "type": "function"
        },
        {
          "inputs": [
            {
              "internalType": "address",
              "name": "tokenA",
              "type": "address"
            },
            {
              "internalType": "address",
              "name": "tokenB",
              "type": "address"
            }
          ],
          "name": "getPair",
          "outputs": [
            {
              "internalType": "address",
              "name": "",
              "type": "address"
            }
          ],
          "stateMutability": "view",
          "type": "function"
        },
        {
          "inputs": [
            {
              "internalType": "address",
              "name": "fee_to",
              "type": "address"
            }
          ],
          "name": "setFeeTo",
          "outputs": [],
          "stateMutability": "nonpayable",
          "type": "function"
        },
        {
          "inputs": [],
          "name": "txFee",
          "outputs": [
            {
              "internalType": "uint256",
              "name": "",
              "type": "uint256"
            }
          ],
          "stateMutability": "pure",
          "type": "function"
        }
      ],
      "evm": {
        "bytecode": {
          "linkReferences": {},
          "object": "6080346100cd57601f610e0638819003918201601f19168301916001600160401b038311848410176100d2578084926020946040528339810103126100cd57516001600160a01b038116908190036100cd576001600081905580546001600160a01b031990811633179091558115610088576002541617600255604051610d1d90816100e98239f35b60405162461bcd60e51b815260206004820152601f60248201527f5a65726f2061646472657373657320617265206e6f7420616c6c6f7765642e006044820152606490fd5b600080fd5b634e487b7160e01b600052604160045260246000fdfe6080604081815260048036101561001557600080fd5b600092833560e01c908163017e7e581461039057508063094b7415146103675780631e3dd18b1461032e578063574f2ba314610311578063c9c6539614610197578063cf8204611461017b578063e6a439051461012b5763f46901ed1461007b57600080fd5b34610127576020366003190112610127576100946103b5565b6001546001600160a01b039391929190841633036100d5575050166100ba811515610433565b6bffffffffffffffffffffffff60a01b600254161760025580f35b906020608492519162461bcd60e51b8352820152602660248201527f4f6e6c7920746865206f776e65722063616e2063616c6c20746869732066756e60448201526531ba34b7b71760d11b6064820152fd5b8280fd5b505034610177578060031936011261017757602091816101496103b5565b916101526103d0565b6001600160a01b03938416825260038652828220908416825285522054915191168152f35b5080fd5b5050346101775781600319360112610177576020905160058152f35b509190346101775780600319360112610177576101b26103b5565b906101bb6103d0565b92600281541461030157600281556001600160a01b039283169383906101e2861515610433565b166101ee811515610433565b825194610868958681019681881067ffffffffffffffff8911176102e4576104808239308752606081602098848a820152858882015203019084f080156102f7578516948184526003875284842083855287528484206bffffffffffffffffffffffff60a01b90878282541617905560038852858520838652885286868620918254161790558754680100000000000000008110156102e45794809697987f0d3648bd0f6ba80134a33ba9275ac585d9d315f0ad8355cddefde31afa28d0e9926102be886001809a0184556103e6565b819291549060031b918c831b921b1916179055548151908982528a820152a35551908152f35b634e487b7160e01b855260418952602485fd5b84513d85823e3d90fd5b8151633ee5aeb560e01b81528590fd5b503461012757826003193601126101275760209250549051908152f35b509134610364576020366003190112610364575061034e602092356103e6565b905491519160018060a01b039160031b1c168152f35b80fd5b50503461017757816003193601126101775760015490516001600160a01b039091168152602090f35b8490346101775781600319360112610177576002546001600160a01b03168152602090f35b600435906001600160a01b03821682036103cb57565b600080fd5b602435906001600160a01b03821682036103cb57565b60045481101561041d5760046000527f8a35acfbc15ff81a39ae7d344fd709f28e8600b4aa8c65c6b64bfe7fe36bd19b0190600090565b634e487b7160e01b600052603260045260246000fd5b1561043a57565b60405162461bcd60e51b815260206004820152601f60248201527f5a65726f2061646472657373657320617265206e6f7420616c6c6f7765642e006044820152606490fdfe6080346100cb57601f61086838819003918201601f19168301916001600160401b038311848410176100d0578084926060946040528339810103126100cb57610047816100e6565b906100606040610059602084016100e6565b92016100e6565b6001600055916001600160a01b0390811691819061007f8415156100fa565b169261008c8415156100fa565b16916100998315156100fa565b60018060a01b031991826001541617600155816002541617600255600354161760035560405161072190816101478239f35b600080fd5b634e487b7160e01b600052604160045260246000fd5b51906001600160a01b03821682036100cb57565b1561010157565b60405162461bcd60e51b815260206004820152601f60248201527f5a65726f2061646472657373657320617265206e6f7420616c6c6f7765642e006044820152606490fdfe6080604081815260049182361015610022575b505050361561002057600080fd5b005b600090813560e01c9081630902f1ac14610583575080630e06dfc9146103485780630fc63d101461055a5780635673b02d146104b45780635b8bec551461048c5780635c52a5f21461039a5780635c9d6938146103765780635f64b55b1461034d5780637464fc3d14610348578063749388c41461028d5780637b1a4909146101bb578063ba9a7a561461019e578063c45a0155146101715763e7d3fe6b03610012573461016e57507f8334f87aeaf76e52b061d93ee968e51fdd3ad53ca04e80271249227997aab3a06101646020936100fb366105f1565b83546001600160a01b0319166001600160a01b03821617909355855190939192906101258161064b565b838152848882015286429101528260055583600655426007558551938493849192604091949360608401958452602084015260018060a01b0316910152565b0390a15160018152f35b80fd5b50903461019a578160031936011261019a5760015490516001600160a01b039091168152602090f35b5080fd5b50903461019a578160031936011261019a57602090516103e88152f35b5082903461016e578260031936011261016e57808080806001600160a01b036101e26105db565b166101ee81151561069f565b602435905af1903d15610287573d9067ffffffffffffffff821161027457845191610223601f8201601f19166020018461067d565b825260203d92013e5b1561023b576020825160018152f35b6020606492519162461bcd60e51b835282015260146024820152732a3930b739b332b91022aa24102330b4b632b21760611b6044820152fd5b634e487b7160e01b815260418452602490fd5b5061022c565b5082903461016e575061029f366105f1565b90926001600160a01b03808316906102b882151561069f565b825416036102f5576020857f254cba6bcaacd15ef1bba85e06c1d71c8cf7a3e036ad089903ba04bad25aaccc86866101648785516101258161064b565b608490602086519162461bcd60e51b8352820152602760248201527f4f6e6c79204c7020686f6c646572732063616e2063616c6c20746869732066756044820152663731ba34b7b71760c91b6064820152fd5b6105b1565b50903461019a578160031936011261019a5760035490516001600160a01b039091168152602090f35b503461016e578060031936011261016e575060065460055482519182526020820152f35b509134610460576060366003190112610460576103b56105db565b6001600160a01b0360243581811693929084900361048857600286541461047857602092916044916002885516916103ee83151561069f565b6103f985151561069f565b868651958694859363095ea7b360e01b8552840152833560248401525af1801561046c57610430575b506001602092555160018152f35b6020813d602011610464575b816104496020938361067d565b8101031261046057518015150361019a5738610422565b8280fd5b3d915061043c565b505051903d90823e3d90fd5b8451633ee5aeb560e01b81528390fd5b8580fd5b5091346104605782600319360112610460575490516001600160a01b03909116815260209150f35b503461016e57608036600319011261016e57507f298c349c742327269dc8de6ad66687767310c948ea309df826f5bd103e19d2076080602093356024356044356064359161050d816105088660055461061b565b61063e565b61051d846105088560065461061b565b9088516105298161064b565b818152828b820152894291015260055560065542600755865193845287840152858301526060820152a15160018152f35b50903461019a578160031936011261019a5760025490516001600160a01b039091168152602090f35b9050823461046057826003193601126104605760609250600554906006546007549284526020840152820152f35b346105d65760003660031901126105d657604060055460065482519182526020820152f35b600080fd5b600435906001600160a01b03821682036105d657565b60609060031901126105d65760043590602435906044356001600160a01b03811681036105d65790565b9190820180921161062857565b634e487b7160e01b600052601160045260246000fd5b9190820391821161062857565b6060810190811067ffffffffffffffff82111761066757604052565b634e487b7160e01b600052604160045260246000fd5b90601f8019910116810190811067ffffffffffffffff82111761066757604052565b156106a657565b60405162461bcd60e51b815260206004820152601f60248201527f5a65726f2061646472657373657320617265206e6f7420616c6c6f7765642e006044820152606490fdfea2646970667358221220f3665adf3144f2d72303f900527d29b8e541a1687ac63c3b24e93acc4064f72864736f6c63430008180033a26469706673582212209bc6c5cbd2cdaa4cb2e18f22c14f39e4ea8a336e434fabba455320b5184e0cb964736f6c63430008180033",
          "opcodes": "PUSH1 0x80 CALLVALUE PUSH2 0xCD JUMPI PUSH1 0x1F PUSH2 0xE06 CODESIZE DUP2 SWAP1 SUB SWAP2 DUP3 ADD PUSH1 0x1F NOT AND DUP4 ADD SWAP2 PUSH1 0x1 PUSH1 0x1 PUSH1 0x40 SHL SUB DUP4 GT DUP5 DUP5 LT OR PUSH2 0xD2 JUMPI DUP1 DUP5 SWAP3 PUSH1 0x20 SWAP5 PUSH1 0x40 MSTORE DUP4 CODECOPY DUP2 ADD SUB SLT PUSH2 0xCD JUMPI MLOAD PUSH1 0x1 PUSH1 0x1 PUSH1 0xA0 SHL SUB DUP2 AND SWAP1 DUP2 SWAP1 SUB PUSH2 0xCD JUMPI PUSH1 0x1 PUSH1 0x0 DUP2 SWAP1 SSTORE DUP1 SLOAD PUSH1 0x1 PUSH1 0x1 PUSH1 0xA0 SHL SUB NOT SWAP1 DUP2 AND CALLER OR SWAP1 SWAP2 SSTORE DUP2 ISZERO PUSH2 0x88 JUMPI PUSH1 0x2 SLOAD AND OR PUSH1 0x2 SSTORE PUSH1 0x40 MLOAD PUSH2 0xD1D SWAP1 DUP2 PUSH2 0xE9 DUP3 CODECOPY RETURN JUMPDEST PUSH1 0x40 MLOAD PUSH3 0x461BCD PUSH1 0xE5 SHL DUP2 MSTORE PUSH1 0x20 PUSH1 0x4 DUP3 ADD MSTORE PUSH1 0x1F PUSH1 0x24 DUP3 ADD MSTORE PUSH32 0x5A65726F2061646472657373657320617265206E6F7420616C6C6F7765642E00 PUSH1 0x44 DUP3 ADD MSTORE PUSH1 0x64 SWAP1 REVERT JUMPDEST PUSH1 0x0 DUP1 REVERT JUMPDEST PUSH4 0x4E487B71 PUSH1 0xE0 SHL PUSH1 0x0 MSTORE PUSH1 0x41 PUSH1 0x4 MSTORE PUSH1 0x24 PUSH1 0x0 REVERT INVALID PUSH1 0x80 PUSH1 0x40 DUP2 DUP2 MSTORE PUSH1 0x4 DUP1 CALLDATASIZE LT ISZERO PUSH2 0x15 JUMPI PUSH1 0x0 DUP1 REVERT JUMPDEST PUSH1 0x0 SWAP3 DUP4 CALLDATALOAD PUSH1 0xE0 SHR SWAP1 DUP2 PUSH4 0x17E7E58 EQ PUSH2 0x390 JUMPI POP DUP1 PUSH4 0x94B7415 EQ PUSH2 0x367 JUMPI DUP1 PUSH4 0x1E3DD18B EQ PUSH2 0x32E JUMPI DUP1 PUSH4 0x574F2BA3 EQ PUSH2 0x311 JUMPI DUP1 PUSH4 0xC9C65396 EQ PUSH2 0x197 JUMPI DUP1 PUSH4 0xCF820461 EQ PUSH2 0x17B JUMPI DUP1 PUSH4 0xE6A43905 EQ PUSH2 0x12B JUMPI PUSH4 0xF46901ED EQ PUSH2 0x7B JUMPI PUSH1 0x0 DUP1 REVERT JUMPDEST CALLVALUE PUSH2 0x127 JUMPI PUSH1 0x20 CALLDATASIZE PUSH1 0x3 NOT ADD SLT PUSH2 0x127 JUMPI PUSH2 0x94 PUSH2 0x3B5 JUMP JUMPDEST PUSH1 0x1 SLOAD PUSH1 0x1 PUSH1 0x1 PUSH1 0xA0 SHL SUB SWAP4 SWAP2 SWAP3 SWAP2 SWAP1 DUP5 AND CALLER SUB PUSH2 0xD5 JUMPI POP POP AND PUSH2 0xBA DUP2 ISZERO ISZERO PUSH2 0x433 JUMP JUMPDEST PUSH12 0xFFFFFFFFFFFFFFFFFFFFFFFF PUSH1 0xA0 SHL PUSH1 0x2 SLOAD AND OR PUSH1 0x2 SSTORE DUP1 RETURN JUMPDEST SWAP1 PUSH1 0x20 PUSH1 0x84 SWAP3 MLOAD SWAP2 PUSH3 0x461BCD PUSH1 0xE5 SHL DUP4 MSTORE DUP3 ADD MSTORE PUSH1 0x26 PUSH1 0x24 DUP3 ADD MSTORE PUSH32 0x4F6E6C7920746865206F776E65722063616E2063616C6C20746869732066756E PUSH1 0x44 DUP3 ADD MSTORE PUSH6 0x31BA34B7B717 PUSH1 0xD1 SHL PUSH1 0x64 DUP3 ADD MSTORE REVERT JUMPDEST DUP3 DUP1 REVERT JUMPDEST POP POP CALLVALUE PUSH2 0x177 JUMPI DUP1 PUSH1 0x3 NOT CALLDATASIZE ADD SLT PUSH2 0x177 JUMPI PUSH1 0x20 SWAP2 DUP2 PUSH2 0x149 PUSH2 0x3B5 JUMP JUMPDEST SWAP2 PUSH2 0x152 PUSH2 0x3D0 JUMP JUMPDEST PUSH1 0x1 PUSH1 0x1 PUSH1 0xA0 SHL SUB SWAP4 DUP5 AND DUP3 MSTORE PUSH1 0x3 DUP7 MSTORE DUP3 DUP3 KECCAK256 SWAP1 DUP5 AND DUP3 MSTORE DUP6 MSTORE KECCAK256 SLOAD SWAP2 MLOAD SWAP2 AND DUP2 MSTORE RETURN JUMPDEST POP DUP1 REVERT JUMPDEST POP POP CALLVALUE PUSH2 0x177 JUMPI DUP2 PUSH1 0x3 NOT CALLDATASIZE ADD SLT PUSH2 0x177 JUMPI PUSH1 0x20 SWAP1 MLOAD PUSH1 0x5 DUP2 MSTORE RETURN JUMPDEST POP SWAP2 SWAP1 CALLVALUE PUSH2 0x177 JUMPI DUP1 PUSH1 0x3 NOT CALLDATASIZE ADD SLT PUSH2 0x177 JUMPI PUSH2 0x1B2 PUSH2 0x3B5 JUMP JUMPDEST SWAP1 PUSH2 0x1BB PUSH2 0x3D0 JUMP JUMPDEST SWAP3 PUSH1 0x2 DUP2 SLOAD EQ PUSH2 0x301 JUMPI PUSH1 0x2 DUP2 SSTORE PUSH1 0x1 PUSH1 0x1 PUSH1 0xA0 SHL SUB SWAP3 DUP4 AND SWAP4 DUP4 SWAP1 PUSH2 0x1E2 DUP7 ISZERO ISZERO PUSH2 0x433 JUMP JUMPDEST AND PUSH2 0x1EE DUP2 ISZERO ISZERO PUSH2 0x433 JUMP JUMPDEST DUP3 MLOAD SWAP5 PUSH2 0x868 SWAP6 DUP7 DUP2 ADD SWAP7 DUP2 DUP9 LT PUSH8 0xFFFFFFFFFFFFFFFF DUP10 GT OR PUSH2 0x2E4 JUMPI PUSH2 0x480 DUP3 CODECOPY ADDRESS DUP8 MSTORE PUSH1 0x60 DUP2 PUSH1 0x20 SWAP9 DUP5 DUP11 DUP3 ADD MSTORE DUP6 DUP9 DUP3 ADD MSTORE SUB ADD SWAP1 DUP5 CREATE DUP1 ISZERO PUSH2 0x2F7 JUMPI DUP6 AND SWAP5 DUP2 DUP5 MSTORE PUSH1 0x3 DUP8 MSTORE DUP5 DUP5 KECCAK256 DUP4 DUP6 MSTORE DUP8 MSTORE DUP5 DUP5 KECCAK256 PUSH12 0xFFFFFFFFFFFFFFFFFFFFFFFF PUSH1 0xA0 SHL SWAP1 DUP8 DUP3 DUP3 SLOAD AND OR SWAP1 SSTORE PUSH1 0x3 DUP9 MSTORE DUP6 DUP6 KECCAK256 DUP4 DUP7 MSTORE DUP9 MSTORE DUP7 DUP7 DUP7 KECCAK256 SWAP2 DUP3 SLOAD AND OR SWAP1 SSTORE DUP8 SLOAD PUSH9 0x10000000000000000 DUP2 LT ISZERO PUSH2 0x2E4 JUMPI SWAP5 DUP1 SWAP7 SWAP8 SWAP9 PUSH32 0xD3648BD0F6BA80134A33BA9275AC585D9D315F0AD8355CDDEFDE31AFA28D0E9 SWAP3 PUSH2 0x2BE DUP9 PUSH1 0x1 DUP1 SWAP11 ADD DUP5 SSTORE PUSH2 0x3E6 JUMP JUMPDEST DUP2 SWAP3 SWAP2 SLOAD SWAP1 PUSH1 0x3 SHL SWAP2 DUP13 DUP4 SHL SWAP3 SHL NOT AND OR SWAP1 SSTORE SLOAD DUP2 MLOAD SWAP1 DUP10 DUP3 MSTORE DUP11 DUP3 ADD MSTORE LOG3 SSTORE MLOAD SWAP1 DUP2 MSTORE RETURN JUMPDEST PUSH4 0x4E487B71 PUSH1 0xE0 SHL DUP6 MSTORE PUSH1 0x41 DUP10 MSTORE PUSH1 0x24 DUP6 REVERT JUMPDEST DUP5 MLOAD RETURNDATASIZE DUP6 DUP3 RETURNDATACOPY RETURNDATASIZE SWAP1 REVERT JUMPDEST DUP2 MLOAD PUSH4 0x3EE5AEB5 PUSH1 0xE0 SHL DUP2 MSTORE DUP6 SWAP1 REVERT JUMPDEST POP CALLVALUE PUSH2 0x127 JUMPI DUP3 PUSH1 0x3 NOT CALLDATASIZE ADD SLT PUSH2 0x127 JUMPI PUSH1 0x20 SWAP3 POP SLOAD SWAP1 MLOAD SWAP1 DUP2 MSTORE RETURN JUMPDEST POP SWAP2 CALLVALUE PUSH2 0x364 JUMPI PUSH1 0x20 CALLDATASIZE PUSH1 0x3 NOT ADD SLT PUSH2 0x364 JUMPI POP PUSH2 0x34E PUSH1 0x20 SWAP3 CALLDATALOAD PUSH2 0x3E6 JUMP JUMPDEST SWAP1 SLOAD SWAP2 MLOAD SWAP2 PUSH1 0x1 DUP1 PUSH1 0xA0 SHL SUB SWAP2 PUSH1 0x3 SHL SHR AND DUP2 MSTORE RETURN JUMPDEST DUP1 REVERT JUMPDEST POP POP CALLVALUE PUSH2 0x177 JUMPI DUP2 PUSH1 0x3 NOT CALLDATASIZE ADD SLT PUSH2 0x177 JUMPI PUSH1 0x1 SLOAD SWAP1 MLOAD PUSH1 0x1 PUSH1 0x1 PUSH1 0xA0 SHL SUB SWAP1 SWAP2 AND DUP2 MSTORE PUSH1 0x20 SWAP1 RETURN JUMPDEST DUP5 SWAP1 CALLVALUE PUSH2 0x177 JUMPI DUP2 PUSH1 0x3 NOT CALLDATASIZE ADD SLT PUSH2 0x177 JUMPI PUSH1 0x2 SLOAD PUSH1 0x1 PUSH1 0x1 PUSH1 0xA0 SHL SUB AND DUP2 MSTORE PUSH1 0x20 SWAP1 RETURN JUMPDEST PUSH1 0x4 CALLDATALOAD SWAP1 PUSH1 0x1 PUSH1 0x1 PUSH1 0xA0 SHL SUB DUP3 AND DUP3 SUB PUSH2 0x3CB JUMPI JUMP JUMPDEST PUSH1 0x0 DUP1 REVERT JUMPDEST PUSH1 0x24 CALLDATALOAD SWAP1 PUSH1 0x1 PUSH1 0x1 PUSH1 0xA0 SHL SUB DUP3 AND DUP3 SUB PUSH2 0x3CB JUMPI JUMP JUMPDEST PUSH1 0x4 SLOAD DUP2 LT ISZERO PUSH2 0x41D JUMPI PUSH1 0x4 PUSH1 0x0 MSTORE PUSH32 0x8A35ACFBC15FF81A39AE7D344FD709F28E8600B4AA8C65C6B64BFE7FE36BD19B ADD SWAP1 PUSH1 0x0 SWAP1 JUMP JUMPDEST PUSH4 0x4E487B71 PUSH1 0xE0 SHL PUSH1 0x0 MSTORE PUSH1 0x32 PUSH1 0x4 MSTORE PUSH1 0x24 PUSH1 0x0 REVERT JUMPDEST ISZERO PUSH2 0x43A JUMPI JUMP JUMPDEST PUSH1 0x40 MLOAD PUSH3 0x461BCD PUSH1 0xE5 SHL DUP2 MSTORE PUSH1 0x20 PUSH1 0x4 DUP3 ADD MSTORE PUSH1 0x1F PUSH1 0x24 DUP3 ADD MSTORE PUSH32 0x5A65726F2061646472657373657320617265206E6F7420616C6C6F7765642E00 PUSH1 0x44 DUP3 ADD MSTORE PUSH1 0x64 SWAP1 REVERT INVALID PUSH1 0x80 CALLVALUE PUSH2 0xCB JUMPI PUSH1 0x1F PUSH2 0x868 CODESIZE DUP2 SWAP1 SUB SWAP2 DUP3 ADD PUSH1 0x1F NOT AND DUP4 ADD SWAP2 PUSH1 0x1 PUSH1 0x1 PUSH1 0x40 SHL SUB DUP4 GT DUP5 DUP5 LT OR PUSH2 0xD0 JUMPI DUP1 DUP5 SWAP3 PUSH1 0x60 SWAP5 PUSH1 0x40 MSTORE DUP4 CODECOPY DUP2 ADD SUB SLT PUSH2 0xCB JUMPI PUSH2 0x47 DUP2 PUSH2 0xE6 JUMP JUMPDEST SWAP1 PUSH2 0x60 PUSH1 0x40 PUSH2 0x59 PUSH1 0x20 DUP5 ADD PUSH2 0xE6 JUMP JUMPDEST SWAP3 ADD PUSH2 0xE6 JUMP JUMPDEST PUSH1 0x1 PUSH1 0x0 SSTORE SWAP2 PUSH1 0x1 PUSH1 0x1 PUSH1 0xA0 SHL SUB SWAP1 DUP2 AND SWAP2 DUP2 SWAP1 PUSH2 0x7F DUP5 ISZERO ISZERO PUSH2 0xFA JUMP JUMPDEST AND SWAP3 PUSH2 0x8C DUP5 ISZERO ISZERO PUSH2 0xFA JUMP JUMPDEST AND SWAP2 PUSH2 0x99 DUP4 ISZERO ISZERO PUSH2 0xFA JUMP JUMPDEST PUSH1 0x1 DUP1 PUSH1 0xA0 SHL SUB NOT SWAP2 DUP3 PUSH1 0x1 SLOAD AND OR PUSH1 0x1 SSTORE DUP2 PUSH1 0x2 SLOAD AND OR PUSH1 0x2 SSTORE PUSH1 0x3 SLOAD AND OR PUSH1 0x3 SSTORE PUSH1 0x40 MLOAD PUSH2 0x721 SWAP1 DUP2 PUSH2 0x147 DUP3 CODECOPY RETURN JUMPDEST PUSH1 0x0 DUP1 REVERT JUMPDEST PUSH4 0x4E487B71 PUSH1 0xE0 SHL PUSH1 0x0 MSTORE PUSH1 0x41 PUSH1 0x4 MSTORE PUSH1 0x24 PUSH1 0x0 REVERT JUMPDEST MLOAD SWAP1 PUSH1 0x1 PUSH1 0x1 PUSH1 0xA0 SHL SUB DUP3 AND DUP3 SUB PUSH2 0xCB JUMPI JUMP JUMPDEST ISZERO PUSH2 0x101 JUMPI JUMP JUMPDEST PUSH1 0x40 MLOAD PUSH3 0x461BCD PUSH1 0xE5 SHL DUP2 MSTORE PUSH1 0x20 PUSH1 0x4 DUP3 ADD MSTORE PUSH1 0x1F PUSH1 0x24 DUP3 ADD MSTORE PUSH32 0x5A65726F2061646472657373657320617265206E6F7420616C6C6F7765642E00 PUSH1 0x44 DUP3 ADD MSTORE PUSH1 0x64 SWAP1 REVERT INVALID PUSH1 0x80 PUSH1 0x40 DUP2 DUP2 MSTORE PUSH1 0x4 SWAP2 DUP3 CALLDATASIZE LT ISZERO PUSH2 0x22 JUMPI JUMPDEST POP POP POP CALLDATASIZE ISZERO PUSH2 0x20 JUMPI PUSH1 0x0 DUP1 REVERT JUMPDEST STOP JUMPDEST PUSH1 0x0 SWAP1 DUP2 CALLDATALOAD PUSH1 0xE0 SHR SWAP1 DUP2 PUSH4 0x902F1AC EQ PUSH2 0x583 JUMPI POP DUP1 PUSH4 0xE06DFC9 EQ PUSH2 0x348 JUMPI DUP1 PUSH4 0xFC63D10 EQ PUSH2 0x55A JUMPI DUP1 PUSH4 0x5673B02D EQ PUSH2 0x4B4 JUMPI DUP1 PUSH4 0x5B8BEC55 EQ PUSH2 0x48C JUMPI DUP1 PUSH4 0x5C52A5F2 EQ PUSH2 0x39A JUMPI DUP1 PUSH4 0x5C9D6938 EQ PUSH2 0x376 JUMPI DUP1 PUSH4 0x5F64B55B EQ PUSH2 0x34D JUMPI DUP1 PUSH4 0x7464FC3D EQ PUSH2 0x348 JUMPI DUP1 PUSH4 0x749388C4 EQ PUSH2 0x28D JUMPI DUP1 PUSH4 0x7B1A4909 EQ PUSH2 0x1BB JUMPI DUP1 PUSH4 0xBA9A7A56 EQ PUSH2 0x19E JUMPI DUP1 PUSH4 0xC45A0155 EQ PUSH2 0x171 JUMPI PUSH4 0xE7D3FE6B SUB PUSH2 0x12 JUMPI CALLVALUE PUSH2 0x16E JUMPI POP PUSH32 0x8334F87AEAF76E52B061D93EE968E51FDD3AD53CA04E80271249227997AAB3A0 PUSH2 0x164 PUSH1 0x20 SWAP4 PUSH2 0xFB CALLDATASIZE PUSH2 0x5F1 JUMP JUMPDEST DUP4 SLOAD PUSH1 0x1 PUSH1 0x1 PUSH1 0xA0 SHL SUB NOT AND PUSH1 0x1 PUSH1 0x1 PUSH1 0xA0 SHL SUB DUP3 AND OR SWAP1 SWAP4 SSTORE DUP6 MLOAD SWAP1 SWAP4 SWAP2 SWAP3 SWAP1 PUSH2 0x125 DUP2 PUSH2 0x64B JUMP JUMPDEST DUP4 DUP2 MSTORE DUP5 DUP9 DUP3 ADD MSTORE DUP7 TIMESTAMP SWAP2 ADD MSTORE DUP3 PUSH1 0x5 SSTORE DUP4 PUSH1 0x6 SSTORE TIMESTAMP PUSH1 0x7 SSTORE DUP6 MLOAD SWAP4 DUP5 SWAP4 DUP5 SWAP2 SWAP3 PUSH1 0x40 SWAP2 SWAP5 SWAP4 PUSH1 0x60 DUP5 ADD SWAP6 DUP5 MSTORE PUSH1 0x20 DUP5 ADD MSTORE PUSH1 0x1 DUP1 PUSH1 0xA0 SHL SUB AND SWAP2 ADD MSTORE JUMP JUMPDEST SUB SWAP1 LOG1 MLOAD PUSH1 0x1 DUP2 MSTORE RETURN JUMPDEST DUP1 REVERT JUMPDEST POP SWAP1 CALLVALUE PUSH2 0x19A JUMPI DUP2 PUSH1 0x3 NOT CALLDATASIZE ADD SLT PUSH2 0x19A JUMPI PUSH1 0x1 SLOAD SWAP1 MLOAD PUSH1 0x1 PUSH1 0x1 PUSH1 0xA0 SHL SUB SWAP1 SWAP2 AND DUP2 MSTORE PUSH1 0x20 SWAP1 RETURN JUMPDEST POP DUP1 REVERT JUMPDEST POP SWAP1 CALLVALUE PUSH2 0x19A JUMPI DUP2 PUSH1 0x3 NOT CALLDATASIZE ADD SLT PUSH2 0x19A JUMPI PUSH1 0x20 SWAP1 MLOAD PUSH2 0x3E8 DUP2 MSTORE RETURN JUMPDEST POP DUP3 SWAP1 CALLVALUE PUSH2 0x16E JUMPI DUP3 PUSH1 0x3 NOT CALLDATASIZE ADD SLT PUSH2 0x16E JUMPI DUP1 DUP1 DUP1 DUP1 PUSH1 0x1 PUSH1 0x1 PUSH1 0xA0 SHL SUB PUSH2 0x1E2 PUSH2 0x5DB JUMP JUMPDEST AND PUSH2 0x1EE DUP2 ISZERO ISZERO PUSH2 0x69F JUMP JUMPDEST PUSH1 0x24 CALLDATALOAD SWAP1 GAS CALL SWAP1 RETURNDATASIZE ISZERO PUSH2 0x287 JUMPI RETURNDATASIZE SWAP1 PUSH8 0xFFFFFFFFFFFFFFFF DUP3 GT PUSH2 0x274 JUMPI DUP5 MLOAD SWAP2 PUSH2 0x223 PUSH1 0x1F DUP3 ADD PUSH1 0x1F NOT AND PUSH1 0x20 ADD DUP5 PUSH2 0x67D JUMP JUMPDEST DUP3 MSTORE PUSH1 0x20 RETURNDATASIZE SWAP3 ADD RETURNDATACOPY JUMPDEST ISZERO PUSH2 0x23B JUMPI PUSH1 0x20 DUP3 MLOAD PUSH1 0x1 DUP2 MSTORE RETURN JUMPDEST PUSH1 0x20 PUSH1 0x64 SWAP3 MLOAD SWAP2 PUSH3 0x461BCD PUSH1 0xE5 SHL DUP4 MSTORE DUP3 ADD MSTORE PUSH1 0x14 PUSH1 0x24 DUP3 ADD MSTORE PUSH20 0x2A3930B739B332B91022AA24102330B4B632B217 PUSH1 0x61 SHL PUSH1 0x44 DUP3 ADD MSTORE REVERT JUMPDEST PUSH4 0x4E487B71 PUSH1 0xE0 SHL DUP2 MSTORE PUSH1 0x41 DUP5 MSTORE PUSH1 0x24 SWAP1 REVERT JUMPDEST POP PUSH2 0x22C JUMP JUMPDEST POP DUP3 SWAP1 CALLVALUE PUSH2 0x16E JUMPI POP PUSH2 0x29F CALLDATASIZE PUSH2 0x5F1 JUMP JUMPDEST SWAP1 SWAP3 PUSH1 0x1 PUSH1 0x1 PUSH1 0xA0 SHL SUB DUP1 DUP4 AND SWAP1 PUSH2 0x2B8 DUP3 ISZERO ISZERO PUSH2 0x69F JUMP JUMPDEST DUP3 SLOAD AND SUB PUSH2 0x2F5 JUMPI PUSH1 0x20 DUP6 PUSH32 0x254CBA6BCAACD15EF1BBA85E06C1D71C8CF7A3E036AD089903BA04BAD25AACCC DUP7 DUP7 PUSH2 0x164 DUP8 DUP6 MLOAD PUSH2 0x125 DUP2 PUSH2 0x64B JUMP JUMPDEST PUSH1 0x84 SWAP1 PUSH1 0x20 DUP7 MLOAD SWAP2 PUSH3 0x461BCD PUSH1 0xE5 SHL DUP4 MSTORE DUP3 ADD MSTORE PUSH1 0x27 PUSH1 0x24 DUP3 ADD MSTORE PUSH32 0x4F6E6C79204C7020686F6C646572732063616E2063616C6C2074686973206675 PUSH1 0x44 DUP3 ADD MSTORE PUSH7 0x3731BA34B7B717 PUSH1 0xC9 SHL PUSH1 0x64 DUP3 ADD MSTORE REVERT JUMPDEST PUSH2 0x5B1 JUMP JUMPDEST POP SWAP1 CALLVALUE PUSH2 0x19A JUMPI DUP2 PUSH1 0x3 NOT CALLDATASIZE ADD SLT PUSH2 0x19A JUMPI PUSH1 0x3 SLOAD SWAP1 MLOAD PUSH1 0x1 PUSH1 0x1 PUSH1 0xA0 SHL SUB SWAP1 SWAP2 AND DUP2 MSTORE PUSH1 0x20 SWAP1 RETURN JUMPDEST POP CALLVALUE PUSH2 0x16E JUMPI DUP1 PUSH1 0x3 NOT CALLDATASIZE ADD SLT PUSH2 0x16E JUMPI POP PUSH1 0x6 SLOAD PUSH1 0x5 SLOAD DUP3 MLOAD SWAP2 DUP3 MSTORE PUSH1 0x20 DUP3 ADD MSTORE RETURN JUMPDEST POP SWAP2 CALLVALUE PUSH2 0x460 JUMPI PUSH1 0x60 CALLDATASIZE PUSH1 0x3 NOT ADD SLT PUSH2 0x460 JUMPI PUSH2 0x3B5 PUSH2 0x5DB JUMP JUMPDEST PUSH1 0x1 PUSH1 0x1 PUSH1 0xA0 SHL SUB PUSH1 0x24 CALLDATALOAD DUP2 DUP2 AND SWAP4 SWAP3 SWAP1 DUP5 SWAP1 SUB PUSH2 0x488 JUMPI PUSH1 0x2 DUP7 SLOAD EQ PUSH2 0x478 JUMPI PUSH1 0x20 SWAP3 SWAP2 PUSH1 0x44 SWAP2 PUSH1 0x2 DUP9 SSTORE AND SWAP2 PUSH2 0x3EE DUP4 ISZERO ISZERO PUSH2 0x69F JUMP JUMPDEST PUSH2 0x3F9 DUP6 ISZERO ISZERO PUSH2 0x69F JUMP JUMPDEST DUP7 DUP7 MLOAD SWAP6 DUP7 SWAP5 DUP6 SWAP4 PUSH4 0x95EA7B3 PUSH1 0xE0 SHL DUP6 MSTORE DUP5 ADD MSTORE DUP4 CALLDATALOAD PUSH1 0x24 DUP5 ADD MSTORE GAS CALL DUP1 ISZERO PUSH2 0x46C JUMPI PUSH2 0x430 JUMPI JUMPDEST POP PUSH1 0x1 PUSH1 0x20 SWAP3 SSTORE MLOAD PUSH1 0x1 DUP2 MSTORE RETURN JUMPDEST PUSH1 0x20 DUP2 RETURNDATASIZE PUSH1 0x20 GT PUSH2 0x464 JUMPI JUMPDEST DUP2 PUSH2 0x449 PUSH1 0x20 SWAP4 DUP4 PUSH2 0x67D JUMP JUMPDEST DUP2 ADD SUB SLT PUSH2 0x460 JUMPI MLOAD DUP1 ISZERO ISZERO SUB PUSH2 0x19A JUMPI CODESIZE PUSH2 0x422 JUMP JUMPDEST DUP3 DUP1 REVERT JUMPDEST RETURNDATASIZE SWAP2 POP PUSH2 0x43C JUMP JUMPDEST POP POP MLOAD SWAP1 RETURNDATASIZE SWAP1 DUP3 RETURNDATACOPY RETURNDATASIZE SWAP1 REVERT JUMPDEST DUP5 MLOAD PUSH4 0x3EE5AEB5 PUSH1 0xE0 SHL DUP2 MSTORE DUP4 SWAP1 REVERT JUMPDEST DUP6 DUP1 REVERT JUMPDEST POP SWAP2 CALLVALUE PUSH2 0x460 JUMPI DUP3 PUSH1 0x3 NOT CALLDATASIZE ADD SLT PUSH2 0x460 JUMPI SLOAD SWAP1 MLOAD PUSH1 0x1 PUSH1 0x1 PUSH1 0xA0 SHL SUB SWAP1 SWAP2 AND DUP2 MSTORE PUSH1 0x20 SWAP2 POP RETURN JUMPDEST POP CALLVALUE PUSH2 0x16E JUMPI PUSH1 0x80 CALLDATASIZE PUSH1 0x3 NOT ADD SLT PUSH2 0x16E JUMPI POP PUSH32 0x298C349C742327269DC8DE6AD66687767310C948EA309DF826F5BD103E19D207 PUSH1 0x80 PUSH1 0x20 SWAP4 CALLDATALOAD PUSH1 0x24 CALLDATALOAD PUSH1 0x44 CALLDATALOAD PUSH1 0x64 CALLDATALOAD SWAP2 PUSH2 0x50D DUP2 PUSH2 0x508 DUP7 PUSH1 0x5 SLOAD PUSH2 0x61B JUMP JUMPDEST PUSH2 0x63E JUMP JUMPDEST PUSH2 0x51D DUP5 PUSH2 0x508 DUP6 PUSH1 0x6 SLOAD PUSH2 0x61B JUMP JUMPDEST SWAP1 DUP9 MLOAD PUSH2 0x529 DUP2 PUSH2 0x64B JUMP JUMPDEST DUP2 DUP2 MSTORE DUP3 DUP12 DUP3 ADD MSTORE DUP10 TIMESTAMP SWAP2 ADD MSTORE PUSH1 0x5 SSTORE PUSH1 0x6 SSTORE TIMESTAMP PUSH1 0x7 SSTORE DUP7 MLOAD SWAP4 DUP5 MSTORE DUP8 DUP5 ADD MSTORE DUP6 DUP4 ADD MSTORE PUSH1 0x60 DUP3 ADD MSTORE LOG1 MLOAD PUSH1 0x1 DUP2 MSTORE RETURN JUMPDEST POP SWAP1 CALLVALUE PUSH2 0x19A JUMPI DUP2 PUSH1 0x3 NOT CALLDATASIZE ADD SLT PUSH2 0x19A JUMPI PUSH1 0x2 SLOAD SWAP1 MLOAD PUSH1 0x1 PUSH1 0x1 PUSH1 0xA0 SHL SUB SWAP1 SWAP2 AND DUP2 MSTORE PUSH1 0x20 SWAP1 RETURN JUMPDEST SWAP1 POP DUP3 CALLVALUE PUSH2 0x460 JUMPI DUP3 PUSH1 0x3 NOT CALLDATASIZE ADD SLT PUSH2 0x460 JUMPI PUSH1 0x60 SWAP3 POP PUSH1 0x5 SLOAD SWAP1 PUSH1 0x6 SLOAD PUSH1 0x7 SLOAD SWAP3 DUP5 MSTORE PUSH1 0x20 DUP5 ADD MSTORE DUP3 ADD MSTORE RETURN JUMPDEST CALLVALUE PUSH2 0x5D6 JUMPI PUSH1 0x0 CALLDATASIZE PUSH1 0x3 NOT ADD SLT PUSH2 0x5D6 JUMPI PUSH1 0x40 PUSH1 0x5 SLOAD PUSH1 0x6 SLOAD DUP3 MLOAD SWAP2 DUP3 MSTORE PUSH1 0x20 DUP3 ADD MSTORE RETURN JUMPDEST PUSH1 0x0 DUP1 REVERT JUMPDEST PUSH1 0x4 CALLDATALOAD SWAP1 PUSH1 0x1 PUSH1 0x1 PUSH1 0xA0 SHL SUB DUP3 AND DUP3 SUB PUSH2 0x5D6 JUMPI JUMP JUMPDEST PUSH1 0x60 SWAP1 PUSH1 0x3 NOT ADD SLT PUSH2 0x5D6 JUMPI PUSH1 0x4 CALLDATALOAD SWAP1 PUSH1 0x24 CALLDATALOAD SWAP1 PUSH1 0x44 CALLDATALOAD PUSH1 0x1 PUSH1 0x1 PUSH1 0xA0 SHL SUB DUP2 AND DUP2 SUB PUSH2 0x5D6 JUMPI SWAP1 JUMP JUMPDEST SWAP2 SWAP1 DUP3 ADD DUP1 SWAP3 GT PUSH2 0x628 JUMPI JUMP JUMPDEST PUSH4 0x4E487B71 PUSH1 0xE0 SHL PUSH1 0x0 MSTORE PUSH1 0x11 PUSH1 0x4 MSTORE PUSH1 0x24 PUSH1 0x0 REVERT JUMPDEST SWAP2 SWAP1 DUP3 SUB SWAP2 DUP3 GT PUSH2 0x628 JUMPI JUMP JUMPDEST PUSH1 0x60 DUP2 ADD SWAP1 DUP2 LT PUSH8 0xFFFFFFFFFFFFFFFF DUP3 GT OR PUSH2 0x667 JUMPI PUSH1 0x40 MSTORE JUMP JUMPDEST PUSH4 0x4E487B71 PUSH1 0xE0 SHL PUSH1 0x0 MSTORE PUSH1 0x41 PUSH1 0x4 MSTORE PUSH1 0x24 PUSH1 0x0 REVERT JUMPDEST SWAP1 PUSH1 0x1F DUP1 NOT SWAP2 ADD AND DUP2 ADD SWAP1 DUP2 LT PUSH8 0xFFFFFFFFFFFFFFFF DUP3 GT OR PUSH2 0x667 JUMPI PUSH1 0x40 MSTORE JUMP JUMPDEST ISZERO PUSH2 0x6A6 JUMPI JUMP JUMPDEST PUSH1 0x40 MLOAD PUSH3 0x461BCD PUSH1 0xE5 SHL DUP2 MSTORE PUSH1 0x20 PUSH1 0x4 DUP3 ADD MSTORE PUSH1 0x1F PUSH1 0x24 DUP3 ADD MSTORE PUSH32 0x5A65726F2061646472657373657320617265206E6F7420616C6C6F7765642E00 PUSH1 0x44 DUP3 ADD MSTORE PUSH1 0x64 SWAP1 REVERT INVALID LOG2 PUSH5 0x6970667358 0x22 SLT KECCAK256 RETURN PUSH7 0x5ADF3144F2D723 SUB 0xF9 STOP MSTORE PUSH30 0x29B8E541A1687AC63C3B24E93ACC4064F72864736F6C63430008180033A2 PUSH5 0x6970667358 0x22 SLT KECCAK256 SWAP12 0xC6 0xC5 0xCB 0xD2 0xCD 0xAA 0x4C 0xB2 0xE1 DUP16 0x22 0xC1 0x4F CODECOPY 0xE4 0xEA DUP11 CALLER PUSH15 0x434FABBA455320B5184E0CB964736F PUSH13 0x63430008180033000000000000 "
        },
        "methodIdentifiers": {
          "allPairs(uint256)": "1e3dd18b",
          "allPairsLength()": "574f2ba3",
          "createPair(address,address)": "c9c65396",
          "feeTo()": "017e7e58",
          "feeToSetter()": "094b7415",
          "getPair(address,address)": "e6a43905",
          "setFeeTo(address)": "f46901ed",
          "txFee()": "cf820461"
        }
      }
    }
  }
}