{
  "contracts/Router.sol": {
    "Router": {
      "abi": [
        {
          "inputs": [
            {
              "internalType": "address",
              "name": "factory_",
              "type": "address"
            },
            {
              "internalType": "address",
              "name": "weth",
              "type": "address"
            }
          ],
          "stateMutability": "nonpayable",
          "type": "constructor"
        },
        {
          "inputs": [],
          "name": "WETH",
          "outputs": [
            {
              "internalType": "address",
              "name": "",
              "type": "address"
            }
          ],
          "stateMutability": "view",
          "type": "function"
        },
        {
          "inputs": [
            {
              "internalType": "address",
              "name": "token",
              "type": "address"
            },
            {
              "internalType": "uint256",
              "name": "amountToken",
              "type": "uint256"
            }
          ],
          "name": "addLiquidityETH",
          "outputs": [
            {
              "internalType": "uint256",
              "name": "",
              "type": "uint256"
            },
            {
              "internalType": "uint256",
              "name": "",
              "type": "uint256"
            }
          ],
          "stateMutability": "payable",
          "type": "function"
        },
        {
          "inputs": [],
          "name": "factory",
          "outputs": [
            {
              "internalType": "address",
              "name": "",
              "type": "address"
            }
          ],
          "stateMutability": "view",
          "type": "function"
        },
        {
          "inputs": [
            {
              "internalType": "address",
              "name": "token",
              "type": "address"
            },
            {
              "internalType": "uint256",
              "name": "amountIn",
              "type": "uint256"
            }
          ],
          "name": "getAmountsOut",
          "outputs": [
            {
              "internalType": "uint256",
              "name": "_amountOut",
              "type": "uint256"
            }
          ],
          "stateMutability": "view",
          "type": "function"
        },
        {
          "inputs": [
            {
              "internalType": "address",
              "name": "token",
              "type": "address"
            },
            {
              "internalType": "uint256",
              "name": "liquidity",
              "type": "uint256"
            },
            {
              "internalType": "address",
              "name": "to",
              "type": "address"
            }
          ],
          "name": "removeLiquidityETH",
          "outputs": [
            {
              "internalType": "uint256",
              "name": "",
              "type": "uint256"
            },
            {
              "internalType": "uint256",
              "name": "",
              "type": "uint256"
            }
          ],
          "stateMutability": "payable",
          "type": "function"
        },
        {
          "inputs": [
            {
              "internalType": "address",
              "name": "token",
              "type": "address"
            },
            {
              "internalType": "address",
              "name": "to",
              "type": "address"
            }
          ],
          "name": "swapETHForTokens",
          "outputs": [
            {
              "internalType": "uint256",
              "name": "",
              "type": "uint256"
            },
            {
              "internalType": "uint256",
              "name": "",
              "type": "uint256"
            }
          ],
          "stateMutability": "payable",
          "type": "function"
        },
        {
          "inputs": [
            {
              "internalType": "uint256",
              "name": "amountIn",
              "type": "uint256"
            },
            {
              "internalType": "address",
              "name": "token",
              "type": "address"
            },
            {
              "internalType": "address",
              "name": "to",
              "type": "address"
            }
          ],
          "name": "swapTokensForETH",
          "outputs": [
            {
              "internalType": "uint256",
              "name": "",
              "type": "uint256"
            },
            {
              "internalType": "uint256",
              "name": "",
              "type": "uint256"
            }
          ],
          "stateMutability": "nonpayable",
          "type": "function"
        }
      ],
      "evm": {
        "bytecode": {
          "linkReferences": {},
          "object": "60803461008d57601f610f7338819003918201601f19168301916001600160401b0383118484101761009257808492604094855283398101031261008d57610052602061004b836100a8565b92016100a8565b600080546001600160a01b039384166001600160a01b03199182161790915560018054929093169116179055604051610eb690816100bd8239f35b600080fd5b634e487b7160e01b600052604160045260246000fd5b51906001600160a01b038216820361008d5756fe60806040908082526004908136101561001757600080fd5b600090813560e01c9081636bf09f101461086d575080637282d548146106f45780637f54a369146103e2578063ad5c4648146103b9578063b682894b14610389578063c45a01551461035d5763e79a40891461007257600080fd5b606036600319011261035a576100e2610089610b65565b9160243592610096610b4f565b8254600154885163e6a4390560e01b81526001600160a01b03858116828b0190815292811660208481019190915291999197909591949193919288928b92908816918391829160400190565b03915afa978815610350578598610321575b508851630240bc6b60e21b815288851694906060818681895afa8015610317576064916101379189918a916102dc575b5061013084918d610bea565b049a610bea565b8b51632e2952f960e11b8152308782019081526001600160a01b038716602082015292909104604083018190529a9189908290819060600103818b8b5af19081156102d25788916102b5575b50156102b1579282878b936101e2968e6101a66101a18f8f9a610e12565b610c40565b516323b872dd60e01b81526001600160a01b039182168a8201908152919094166020820152604081019590955291958694859391849160600190565b0393165af19081156102a757928592610207610236938796879161028a575b50610c8c565b8951631d24e23160e21b8152908101898152602081018990523360408201529095869384928391606090910190565b03925af190811561027f5750610252575b508351928352820152f35b61027190823d8411610278575b6102698183610b7b565b810190610bd2565b5038610247565b503d61025f565b8651903d90823e3d90fd5b6102a19150863d8811610278576102698183610b7b565b38610201565b88513d86823e3d90fd5b8680fd5b6102cc9150893d8b11610278576102698183610b7b565b38610183565b8c513d8a823e3d90fd5b61013092508491506103059060603d606011610310575b6102fd8183610b7b565b810190610cd8565b509290929150610124565b503d6102f3565b8b513d89823e3d90fd5b610342919850863d8811610349575b61033a8183610b7b565b810190610bb3565b96386100f4565b503d610330565b89513d87823e3d90fd5b80fd5b508234610385578160031936011261038557905490516001600160a01b039091168152602090f35b5080fd5b5082346103855780600319360112610385576020906103b26103a9610b65565b60243590610d00565b9051908152f35b50823461038557816003193601126103855760015490516001600160a01b039091168152602090f35b508260031936011261035a576103f6610b65565b906103ff610b34565b8154600154865163e6a4390560e01b81526001600160a01b0386811682890190815292811660208481018290529894821697909695909390929089908290819060400103818b5afa9081156106ea5786916106cd575b50610464828216973490610d00565b8a51632e2952f960e11b8152308782019081526001600160a01b0387166020820152604081018390529199918b908290819060600103818b8d5af19081156102d25788916106b0575b501561067d578a5163cf82046160e01b81528a818881855afa9081156102d2578b88928e928b91610642575b506104e76064913490610bea565b04936104f38534610c33565b9251622fcfcb60e31b815293849182905afa918215610638579361053c6101a18e98958c958f99956105799c998c899361060f575b50506101a16105379187610e12565b610e12565b8d516323b872dd60e01b81526001600160a01b039182168a8201908152919094166020820152604081019590955291958694859391849160600190565b0393165af190811561060557869261059b8593608493859161028a5750610c8c565b8289519687948593635673b02d60e01b85528401528860248401523460448401528160648401525af19081156105fa57506105dd575b50825191348352820152f35b6105f390833d8511610278576102698183610b7b565b50386105d1565b8551903d90823e3d90fd5b87513d85823e3d90fd5b6105379293506101a1918161062f92903d106103495761033a8183610b7b565b9291508c610528565b8d513d8b823e3d90fd5b935050905081813d8311610676575b61065b8183610b7b565b81010312610672575186908c908c906104e76104d9565b8780fd5b503d610651565b8a5162461bcd60e51b81528087018b9052600d60248201526c2737ba1020b8383937bb32b21760991b6044820152606490fd5b6106c791508b3d8d11610278576102698183610b7b565b386104ad565b6106e49150893d8b116103495761033a8183610b7b565b38610455565b8a513d88823e3d90fd5b5090826003193601126103855761075a9061070d610b65565b8354600154865163e6a4390560e01b81526001600160a01b038085168287019081529281166020848101919091526024359890979196909592949093889286928916918391829160400190565b03915afa9283156102a75785918791869561084a575b506107bc906107826101a13488610e12565b8a516323b872dd60e01b8152338682019081526001600160a01b0388166020820152604081018c90529094859384928a9291849160600190565b0393165af19081156102a757916107df87949261080e94879161028a5750610c8c565b885163e7d3fe6b60e01b8152908101888152346020820152336040820152909586938492879291849160600190565b0393165af19081156105fa575061082d575b5082519182523490820152f35b61084390823d8411610278576102698183610b7b565b5038610820565b6107bc91955061086690833d85116103495761033a8183610b7b565b9490610770565b8491508334610b30576060366003190112610b305780359161088d610b34565b94610896610b4f565b815460015463e6a4390560e01b85526001600160a01b03898116868801908152918116602083810191909152969390929091908316908790879081906040010381845afa95861561035057888a9b8992889c9b9c99610b0b575b5090818989888a610903868b9998610d00565b9f516323b872dd60e01b81526001600160a01b0398891691810191825297909316602084015260408301949094528593849283906060010393165af1908115610aa1578691610aee575b5015610aab57895163cf82046160e01b815287818681855afa908115610aa1578592918a918891610a67575b5060649161098691610bea565b049288610993858c610c33565b928d5194858092622fcfcb60e31b82525afa928315610a5d576101a16084958b98958a958f99956109d5958c8994610a32575b5050610537916101a191610e12565b8b519788958694635673b02d60e01b86528501528260248501528260448501528a6064850152165af190811561027f5750610a1557508351928352820152f35b610a2b90823d8411610278576102698183610b7b565b5084610247565b6101a1929450610537939181610a5392903d106103495761033a8183610b7b565b939150918c6109c6565b8c513d89823e3d90fd5b92935050508781813d8311610a9a575b610a818183610b7b565b81010312610a96575184919089906064610979565b8580fd5b503d610a77565b8b513d88823e3d90fd5b895162461bcd60e51b8152808501889052601860248201527f5472616e73666572206f6620746f6b656e206661696c656400000000000000006044820152606490fd5b610b059150883d8a11610278576102698183610b7b565b8b61094d565b8392919950610b279086943d85116103495761033a8183610b7b565b989091926108f0565b8380fd5b602435906001600160a01b0382168203610b4a57565b600080fd5b604435906001600160a01b0382168203610b4a57565b600435906001600160a01b0382168203610b4a57565b90601f8019910116810190811067ffffffffffffffff821117610b9d57604052565b634e487b7160e01b600052604160045260246000fd5b90816020910312610b4a57516001600160a01b0381168103610b4a5790565b90816020910312610b4a57518015158103610b4a5790565b81810292918115918404141715610bfd57565b634e487b7160e01b600052601160045260246000fd5b8115610c1d570490565b634e487b7160e01b600052601260045260246000fd5b91908203918211610bfd57565b15610c4757565b60405162461bcd60e51b815260206004820152601760248201527f5472616e73666572206f6620455448206661696c65642e0000000000000000006044820152606490fd5b15610c9357565b60405162461bcd60e51b815260206004820152601960248201527f5472616e73666572206f6620746f6b656e206661696c65642e000000000000006044820152606490fd5b90816060910312610b4a578051916040602083015192015190565b91908201809211610bfd57565b6000805460015460405163e6a4390560e01b81526001600160a01b038581166004830152918216602482018190529195939492602090829060449082908a165afa908115610de85786916060918791610df3575b50600460405180998193630240bc6b60e21b8352165afa928315610de85785968694610dc0575b50610d868488610bea565b95501603610daf5791610da0610da692610dac9594610cf3565b90610c13565b90610c33565b90565b91610da0610da692610dac95610cf3565b909350610ddd91965060603d606011610310576102fd8183610b7b565b509590959238610d7b565b6040513d87823e3d90fd5b610e0c915060203d6020116103495761033a8183610b7b565b38610d54565b600080808094819460018060a01b03165af1903d15610e7b573d67ffffffffffffffff8111610e675760405190610e53601f8201601f191660200183610b7b565b81528160203d92013e5b811561035a575090565b634e487b7160e01b82526041600452602482fd5b610e5d56fea26469706673582212209e490b47745265f89611aaa8b8c91a278f113bd0236b8272c355bb77f82446a364736f6c63430008180033",
          "opcodes": "PUSH1 0x80 CALLVALUE PUSH2 0x8D JUMPI PUSH1 0x1F PUSH2 0xF73 CODESIZE DUP2 SWAP1 SUB SWAP2 DUP3 ADD PUSH1 0x1F NOT AND DUP4 ADD SWAP2 PUSH1 0x1 PUSH1 0x1 PUSH1 0x40 SHL SUB DUP4 GT DUP5 DUP5 LT OR PUSH2 0x92 JUMPI DUP1 DUP5 SWAP3 PUSH1 0x40 SWAP5 DUP6 MSTORE DUP4 CODECOPY DUP2 ADD SUB SLT PUSH2 0x8D JUMPI PUSH2 0x52 PUSH1 0x20 PUSH2 0x4B DUP4 PUSH2 0xA8 JUMP JUMPDEST SWAP3 ADD PUSH2 0xA8 JUMP JUMPDEST PUSH1 0x0 DUP1 SLOAD PUSH1 0x1 PUSH1 0x1 PUSH1 0xA0 SHL SUB SWAP4 DUP5 AND PUSH1 0x1 PUSH1 0x1 PUSH1 0xA0 SHL SUB NOT SWAP2 DUP3 AND OR SWAP1 SWAP2 SSTORE PUSH1 0x1 DUP1 SLOAD SWAP3 SWAP1 SWAP4 AND SWAP2 AND OR SWAP1 SSTORE PUSH1 0x40 MLOAD PUSH2 0xEB6 SWAP1 DUP2 PUSH2 0xBD DUP3 CODECOPY RETURN JUMPDEST PUSH1 0x0 DUP1 REVERT JUMPDEST PUSH4 0x4E487B71 PUSH1 0xE0 SHL PUSH1 0x0 MSTORE PUSH1 0x41 PUSH1 0x4 MSTORE PUSH1 0x24 PUSH1 0x0 REVERT JUMPDEST MLOAD SWAP1 PUSH1 0x1 PUSH1 0x1 PUSH1 0xA0 SHL SUB DUP3 AND DUP3 SUB PUSH2 0x8D JUMPI JUMP INVALID PUSH1 0x80 PUSH1 0x40 SWAP1 DUP1 DUP3 MSTORE PUSH1 0x4 SWAP1 DUP2 CALLDATASIZE LT ISZERO PUSH2 0x17 JUMPI PUSH1 0x0 DUP1 REVERT JUMPDEST PUSH1 0x0 SWAP1 DUP2 CALLDATALOAD PUSH1 0xE0 SHR SWAP1 DUP2 PUSH4 0x6BF09F10 EQ PUSH2 0x86D JUMPI POP DUP1 PUSH4 0x7282D548 EQ PUSH2 0x6F4 JUMPI DUP1 PUSH4 0x7F54A369 EQ PUSH2 0x3E2 JUMPI DUP1 PUSH4 0xAD5C4648 EQ PUSH2 0x3B9 JUMPI DUP1 PUSH4 0xB682894B EQ PUSH2 0x389 JUMPI DUP1 PUSH4 0xC45A0155 EQ PUSH2 0x35D JUMPI PUSH4 0xE79A4089 EQ PUSH2 0x72 JUMPI PUSH1 0x0 DUP1 REVERT JUMPDEST PUSH1 0x60 CALLDATASIZE PUSH1 0x3 NOT ADD SLT PUSH2 0x35A JUMPI PUSH2 0xE2 PUSH2 0x89 PUSH2 0xB65 JUMP JUMPDEST SWAP2 PUSH1 0x24 CALLDATALOAD SWAP3 PUSH2 0x96 PUSH2 0xB4F JUMP JUMPDEST DUP3 SLOAD PUSH1 0x1 SLOAD DUP9 MLOAD PUSH4 0xE6A43905 PUSH1 0xE0 SHL DUP2 MSTORE PUSH1 0x1 PUSH1 0x1 PUSH1 0xA0 SHL SUB DUP6 DUP2 AND DUP3 DUP12 ADD SWAP1 DUP2 MSTORE SWAP3 DUP2 AND PUSH1 0x20 DUP5 DUP2 ADD SWAP2 SWAP1 SWAP2 MSTORE SWAP2 SWAP10 SWAP2 SWAP8 SWAP1 SWAP6 SWAP2 SWAP5 SWAP2 SWAP4 SWAP2 SWAP3 DUP9 SWAP3 DUP12 SWAP3 SWAP1 DUP9 AND SWAP2 DUP4 SWAP2 DUP3 SWAP2 PUSH1 0x40 ADD SWAP1 JUMP JUMPDEST SUB SWAP2 GAS STATICCALL SWAP8 DUP9 ISZERO PUSH2 0x350 JUMPI DUP6 SWAP9 PUSH2 0x321 JUMPI JUMPDEST POP DUP9 MLOAD PUSH4 0x240BC6B PUSH1 0xE2 SHL DUP2 MSTORE DUP9 DUP6 AND SWAP5 SWAP1 PUSH1 0x60 DUP2 DUP7 DUP2 DUP10 GAS STATICCALL DUP1 ISZERO PUSH2 0x317 JUMPI PUSH1 0x64 SWAP2 PUSH2 0x137 SWAP2 DUP10 SWAP2 DUP11 SWAP2 PUSH2 0x2DC JUMPI JUMPDEST POP PUSH2 0x130 DUP5 SWAP2 DUP14 PUSH2 0xBEA JUMP JUMPDEST DIV SWAP11 PUSH2 0xBEA JUMP JUMPDEST DUP12 MLOAD PUSH4 0x2E2952F9 PUSH1 0xE1 SHL DUP2 MSTORE ADDRESS DUP8 DUP3 ADD SWAP1 DUP2 MSTORE PUSH1 0x1 PUSH1 0x1 PUSH1 0xA0 SHL SUB DUP8 AND PUSH1 0x20 DUP3 ADD MSTORE SWAP3 SWAP1 SWAP2 DIV PUSH1 0x40 DUP4 ADD DUP2 SWAP1 MSTORE SWAP11 SWAP2 DUP10 SWAP1 DUP3 SWAP1 DUP2 SWAP1 PUSH1 0x60 ADD SUB DUP2 DUP12 DUP12 GAS CALL SWAP1 DUP2 ISZERO PUSH2 0x2D2 JUMPI DUP9 SWAP2 PUSH2 0x2B5 JUMPI JUMPDEST POP ISZERO PUSH2 0x2B1 JUMPI SWAP3 DUP3 DUP8 DUP12 SWAP4 PUSH2 0x1E2 SWAP7 DUP15 PUSH2 0x1A6 PUSH2 0x1A1 DUP16 DUP16 SWAP11 PUSH2 0xE12 JUMP JUMPDEST PUSH2 0xC40 JUMP JUMPDEST MLOAD PUSH4 0x23B872DD PUSH1 0xE0 SHL DUP2 MSTORE PUSH1 0x1 PUSH1 0x1 PUSH1 0xA0 SHL SUB SWAP2 DUP3 AND DUP11 DUP3 ADD SWAP1 DUP2 MSTORE SWAP2 SWAP1 SWAP5 AND PUSH1 0x20 DUP3 ADD MSTORE PUSH1 0x40 DUP2 ADD SWAP6 SWAP1 SWAP6 MSTORE SWAP2 SWAP6 DUP7 SWAP5 DUP6 SWAP4 SWAP2 DUP5 SWAP2 PUSH1 0x60 ADD SWAP1 JUMP JUMPDEST SUB SWAP4 AND GAS CALL SWAP1 DUP2 ISZERO PUSH2 0x2A7 JUMPI SWAP3 DUP6 SWAP3 PUSH2 0x207 PUSH2 0x236 SWAP4 DUP8 SWAP7 DUP8 SWAP2 PUSH2 0x28A JUMPI JUMPDEST POP PUSH2 0xC8C JUMP JUMPDEST DUP10 MLOAD PUSH4 0x1D24E231 PUSH1 0xE2 SHL DUP2 MSTORE SWAP1 DUP2 ADD DUP10 DUP2 MSTORE PUSH1 0x20 DUP2 ADD DUP10 SWAP1 MSTORE CALLER PUSH1 0x40 DUP3 ADD MSTORE SWAP1 SWAP6 DUP7 SWAP4 DUP5 SWAP3 DUP4 SWAP2 PUSH1 0x60 SWAP1 SWAP2 ADD SWAP1 JUMP JUMPDEST SUB SWAP3 GAS CALL SWAP1 DUP2 ISZERO PUSH2 0x27F JUMPI POP PUSH2 0x252 JUMPI JUMPDEST POP DUP4 MLOAD SWAP3 DUP4 MSTORE DUP3 ADD MSTORE RETURN JUMPDEST PUSH2 0x271 SWAP1 DUP3 RETURNDATASIZE DUP5 GT PUSH2 0x278 JUMPI JUMPDEST PUSH2 0x269 DUP2 DUP4 PUSH2 0xB7B JUMP JUMPDEST DUP2 ADD SWAP1 PUSH2 0xBD2 JUMP JUMPDEST POP CODESIZE PUSH2 0x247 JUMP JUMPDEST POP RETURNDATASIZE PUSH2 0x25F JUMP JUMPDEST DUP7 MLOAD SWAP1 RETURNDATASIZE SWAP1 DUP3 RETURNDATACOPY RETURNDATASIZE SWAP1 REVERT JUMPDEST PUSH2 0x2A1 SWAP2 POP DUP7 RETURNDATASIZE DUP9 GT PUSH2 0x278 JUMPI PUSH2 0x269 DUP2 DUP4 PUSH2 0xB7B JUMP JUMPDEST CODESIZE PUSH2 0x201 JUMP JUMPDEST DUP9 MLOAD RETURNDATASIZE DUP7 DUP3 RETURNDATACOPY RETURNDATASIZE SWAP1 REVERT JUMPDEST DUP7 DUP1 REVERT JUMPDEST PUSH2 0x2CC SWAP2 POP DUP10 RETURNDATASIZE DUP12 GT PUSH2 0x278 JUMPI PUSH2 0x269 DUP2 DUP4 PUSH2 0xB7B JUMP JUMPDEST CODESIZE PUSH2 0x183 JUMP JUMPDEST DUP13 MLOAD RETURNDATASIZE DUP11 DUP3 RETURNDATACOPY RETURNDATASIZE SWAP1 REVERT JUMPDEST PUSH2 0x130 SWAP3 POP DUP5 SWAP2 POP PUSH2 0x305 SWAP1 PUSH1 0x60 RETURNDATASIZE PUSH1 0x60 GT PUSH2 0x310 JUMPI JUMPDEST PUSH2 0x2FD DUP2 DUP4 PUSH2 0xB7B JUMP JUMPDEST DUP2 ADD SWAP1 PUSH2 0xCD8 JUMP JUMPDEST POP SWAP3 SWAP1 SWAP3 SWAP2 POP PUSH2 0x124 JUMP JUMPDEST POP RETURNDATASIZE PUSH2 0x2F3 JUMP JUMPDEST DUP12 MLOAD RETURNDATASIZE DUP10 DUP3 RETURNDATACOPY RETURNDATASIZE SWAP1 REVERT JUMPDEST PUSH2 0x342 SWAP2 SWAP9 POP DUP7 RETURNDATASIZE DUP9 GT PUSH2 0x349 JUMPI JUMPDEST PUSH2 0x33A DUP2 DUP4 PUSH2 0xB7B JUMP JUMPDEST DUP2 ADD SWAP1 PUSH2 0xBB3 JUMP JUMPDEST SWAP7 CODESIZE PUSH2 0xF4 JUMP JUMPDEST POP RETURNDATASIZE PUSH2 0x330 JUMP JUMPDEST DUP10 MLOAD RETURNDATASIZE DUP8 DUP3 RETURNDATACOPY RETURNDATASIZE SWAP1 REVERT JUMPDEST DUP1 REVERT JUMPDEST POP DUP3 CALLVALUE PUSH2 0x385 JUMPI DUP2 PUSH1 0x3 NOT CALLDATASIZE ADD SLT PUSH2 0x385 JUMPI SWAP1 SLOAD SWAP1 MLOAD PUSH1 0x1 PUSH1 0x1 PUSH1 0xA0 SHL SUB SWAP1 SWAP2 AND DUP2 MSTORE PUSH1 0x20 SWAP1 RETURN JUMPDEST POP DUP1 REVERT JUMPDEST POP DUP3 CALLVALUE PUSH2 0x385 JUMPI DUP1 PUSH1 0x3 NOT CALLDATASIZE ADD SLT PUSH2 0x385 JUMPI PUSH1 0x20 SWAP1 PUSH2 0x3B2 PUSH2 0x3A9 PUSH2 0xB65 JUMP JUMPDEST PUSH1 0x24 CALLDATALOAD SWAP1 PUSH2 0xD00 JUMP JUMPDEST SWAP1 MLOAD SWAP1 DUP2 MSTORE RETURN JUMPDEST POP DUP3 CALLVALUE PUSH2 0x385 JUMPI DUP2 PUSH1 0x3 NOT CALLDATASIZE ADD SLT PUSH2 0x385 JUMPI PUSH1 0x1 SLOAD SWAP1 MLOAD PUSH1 0x1 PUSH1 0x1 PUSH1 0xA0 SHL SUB SWAP1 SWAP2 AND DUP2 MSTORE PUSH1 0x20 SWAP1 RETURN JUMPDEST POP DUP3 PUSH1 0x3 NOT CALLDATASIZE ADD SLT PUSH2 0x35A JUMPI PUSH2 0x3F6 PUSH2 0xB65 JUMP JUMPDEST SWAP1 PUSH2 0x3FF PUSH2 0xB34 JUMP JUMPDEST DUP2 SLOAD PUSH1 0x1 SLOAD DUP7 MLOAD PUSH4 0xE6A43905 PUSH1 0xE0 SHL DUP2 MSTORE PUSH1 0x1 PUSH1 0x1 PUSH1 0xA0 SHL SUB DUP7 DUP2 AND DUP3 DUP10 ADD SWAP1 DUP2 MSTORE SWAP3 DUP2 AND PUSH1 0x20 DUP5 DUP2 ADD DUP3 SWAP1 MSTORE SWAP9 SWAP5 DUP3 AND SWAP8 SWAP1 SWAP7 SWAP6 SWAP1 SWAP4 SWAP1 SWAP3 SWAP1 DUP10 SWAP1 DUP3 SWAP1 DUP2 SWAP1 PUSH1 0x40 ADD SUB DUP2 DUP12 GAS STATICCALL SWAP1 DUP2 ISZERO PUSH2 0x6EA JUMPI DUP7 SWAP2 PUSH2 0x6CD JUMPI JUMPDEST POP PUSH2 0x464 DUP3 DUP3 AND SWAP8 CALLVALUE SWAP1 PUSH2 0xD00 JUMP JUMPDEST DUP11 MLOAD PUSH4 0x2E2952F9 PUSH1 0xE1 SHL DUP2 MSTORE ADDRESS DUP8 DUP3 ADD SWAP1 DUP2 MSTORE PUSH1 0x1 PUSH1 0x1 PUSH1 0xA0 SHL SUB DUP8 AND PUSH1 0x20 DUP3 ADD MSTORE PUSH1 0x40 DUP2 ADD DUP4 SWAP1 MSTORE SWAP2 SWAP10 SWAP2 DUP12 SWAP1 DUP3 SWAP1 DUP2 SWAP1 PUSH1 0x60 ADD SUB DUP2 DUP12 DUP14 GAS CALL SWAP1 DUP2 ISZERO PUSH2 0x2D2 JUMPI DUP9 SWAP2 PUSH2 0x6B0 JUMPI JUMPDEST POP ISZERO PUSH2 0x67D JUMPI DUP11 MLOAD PUSH4 0xCF820461 PUSH1 0xE0 SHL DUP2 MSTORE DUP11 DUP2 DUP9 DUP2 DUP6 GAS STATICCALL SWAP1 DUP2 ISZERO PUSH2 0x2D2 JUMPI DUP12 DUP9 SWAP3 DUP15 SWAP3 DUP12 SWAP2 PUSH2 0x642 JUMPI JUMPDEST POP PUSH2 0x4E7 PUSH1 0x64 SWAP2 CALLVALUE SWAP1 PUSH2 0xBEA JUMP JUMPDEST DIV SWAP4 PUSH2 0x4F3 DUP6 CALLVALUE PUSH2 0xC33 JUMP JUMPDEST SWAP3 MLOAD PUSH3 0x2FCFCB PUSH1 0xE3 SHL DUP2 MSTORE SWAP4 DUP5 SWAP2 DUP3 SWAP1 GAS STATICCALL SWAP2 DUP3 ISZERO PUSH2 0x638 JUMPI SWAP4 PUSH2 0x53C PUSH2 0x1A1 DUP15 SWAP9 SWAP6 DUP13 SWAP6 DUP16 SWAP10 SWAP6 PUSH2 0x579 SWAP13 SWAP10 DUP13 DUP10 SWAP4 PUSH2 0x60F JUMPI JUMPDEST POP POP PUSH2 0x1A1 PUSH2 0x537 SWAP2 DUP8 PUSH2 0xE12 JUMP JUMPDEST PUSH2 0xE12 JUMP JUMPDEST DUP14 MLOAD PUSH4 0x23B872DD PUSH1 0xE0 SHL DUP2 MSTORE PUSH1 0x1 PUSH1 0x1 PUSH1 0xA0 SHL SUB SWAP2 DUP3 AND DUP11 DUP3 ADD SWAP1 DUP2 MSTORE SWAP2 SWAP1 SWAP5 AND PUSH1 0x20 DUP3 ADD MSTORE PUSH1 0x40 DUP2 ADD SWAP6 SWAP1 SWAP6 MSTORE SWAP2 SWAP6 DUP7 SWAP5 DUP6 SWAP4 SWAP2 DUP5 SWAP2 PUSH1 0x60 ADD SWAP1 JUMP JUMPDEST SUB SWAP4 AND GAS CALL SWAP1 DUP2 ISZERO PUSH2 0x605 JUMPI DUP7 SWAP3 PUSH2 0x59B DUP6 SWAP4 PUSH1 0x84 SWAP4 DUP6 SWAP2 PUSH2 0x28A JUMPI POP PUSH2 0xC8C JUMP JUMPDEST DUP3 DUP10 MLOAD SWAP7 DUP8 SWAP5 DUP6 SWAP4 PUSH4 0x5673B02D PUSH1 0xE0 SHL DUP6 MSTORE DUP5 ADD MSTORE DUP9 PUSH1 0x24 DUP5 ADD MSTORE CALLVALUE PUSH1 0x44 DUP5 ADD MSTORE DUP2 PUSH1 0x64 DUP5 ADD MSTORE GAS CALL SWAP1 DUP2 ISZERO PUSH2 0x5FA JUMPI POP PUSH2 0x5DD JUMPI JUMPDEST POP DUP3 MLOAD SWAP2 CALLVALUE DUP4 MSTORE DUP3 ADD MSTORE RETURN JUMPDEST PUSH2 0x5F3 SWAP1 DUP4 RETURNDATASIZE DUP6 GT PUSH2 0x278 JUMPI PUSH2 0x269 DUP2 DUP4 PUSH2 0xB7B JUMP JUMPDEST POP CODESIZE PUSH2 0x5D1 JUMP JUMPDEST DUP6 MLOAD SWAP1 RETURNDATASIZE SWAP1 DUP3 RETURNDATACOPY RETURNDATASIZE SWAP1 REVERT JUMPDEST DUP8 MLOAD RETURNDATASIZE DUP6 DUP3 RETURNDATACOPY RETURNDATASIZE SWAP1 REVERT JUMPDEST PUSH2 0x537 SWAP3 SWAP4 POP PUSH2 0x1A1 SWAP2 DUP2 PUSH2 0x62F SWAP3 SWAP1 RETURNDATASIZE LT PUSH2 0x349 JUMPI PUSH2 0x33A DUP2 DUP4 PUSH2 0xB7B JUMP JUMPDEST SWAP3 SWAP2 POP DUP13 PUSH2 0x528 JUMP JUMPDEST DUP14 MLOAD RETURNDATASIZE DUP12 DUP3 RETURNDATACOPY RETURNDATASIZE SWAP1 REVERT JUMPDEST SWAP4 POP POP SWAP1 POP DUP2 DUP2 RETURNDATASIZE DUP4 GT PUSH2 0x676 JUMPI JUMPDEST PUSH2 0x65B DUP2 DUP4 PUSH2 0xB7B JUMP JUMPDEST DUP2 ADD SUB SLT PUSH2 0x672 JUMPI MLOAD DUP7 SWAP1 DUP13 SWAP1 DUP13 SWAP1 PUSH2 0x4E7 PUSH2 0x4D9 JUMP JUMPDEST DUP8 DUP1 REVERT JUMPDEST POP RETURNDATASIZE PUSH2 0x651 JUMP JUMPDEST DUP11 MLOAD PUSH3 0x461BCD PUSH1 0xE5 SHL DUP2 MSTORE DUP1 DUP8 ADD DUP12 SWAP1 MSTORE PUSH1 0xD PUSH1 0x24 DUP3 ADD MSTORE PUSH13 0x2737BA1020B8383937BB32B217 PUSH1 0x99 SHL PUSH1 0x44 DUP3 ADD MSTORE PUSH1 0x64 SWAP1 REVERT JUMPDEST PUSH2 0x6C7 SWAP2 POP DUP12 RETURNDATASIZE DUP14 GT PUSH2 0x278 JUMPI PUSH2 0x269 DUP2 DUP4 PUSH2 0xB7B JUMP JUMPDEST CODESIZE PUSH2 0x4AD JUMP JUMPDEST PUSH2 0x6E4 SWAP2 POP DUP10 RETURNDATASIZE DUP12 GT PUSH2 0x349 JUMPI PUSH2 0x33A DUP2 DUP4 PUSH2 0xB7B JUMP JUMPDEST CODESIZE PUSH2 0x455 JUMP JUMPDEST DUP11 MLOAD RETURNDATASIZE DUP9 DUP3 RETURNDATACOPY RETURNDATASIZE SWAP1 REVERT JUMPDEST POP SWAP1 DUP3 PUSH1 0x3 NOT CALLDATASIZE ADD SLT PUSH2 0x385 JUMPI PUSH2 0x75A SWAP1 PUSH2 0x70D PUSH2 0xB65 JUMP JUMPDEST DUP4 SLOAD PUSH1 0x1 SLOAD DUP7 MLOAD PUSH4 0xE6A43905 PUSH1 0xE0 SHL DUP2 MSTORE PUSH1 0x1 PUSH1 0x1 PUSH1 0xA0 SHL SUB DUP1 DUP6 AND DUP3 DUP8 ADD SWAP1 DUP2 MSTORE SWAP3 DUP2 AND PUSH1 0x20 DUP5 DUP2 ADD SWAP2 SWAP1 SWAP2 MSTORE PUSH1 0x24 CALLDATALOAD SWAP9 SWAP1 SWAP8 SWAP2 SWAP7 SWAP1 SWAP6 SWAP3 SWAP5 SWAP1 SWAP4 DUP9 SWAP3 DUP7 SWAP3 DUP10 AND SWAP2 DUP4 SWAP2 DUP3 SWAP2 PUSH1 0x40 ADD SWAP1 JUMP JUMPDEST SUB SWAP2 GAS STATICCALL SWAP3 DUP4 ISZERO PUSH2 0x2A7 JUMPI DUP6 SWAP2 DUP8 SWAP2 DUP7 SWAP6 PUSH2 0x84A JUMPI JUMPDEST POP PUSH2 0x7BC SWAP1 PUSH2 0x782 PUSH2 0x1A1 CALLVALUE DUP9 PUSH2 0xE12 JUMP JUMPDEST DUP11 MLOAD PUSH4 0x23B872DD PUSH1 0xE0 SHL DUP2 MSTORE CALLER DUP7 DUP3 ADD SWAP1 DUP2 MSTORE PUSH1 0x1 PUSH1 0x1 PUSH1 0xA0 SHL SUB DUP9 AND PUSH1 0x20 DUP3 ADD MSTORE PUSH1 0x40 DUP2 ADD DUP13 SWAP1 MSTORE SWAP1 SWAP5 DUP6 SWAP4 DUP5 SWAP3 DUP11 SWAP3 SWAP2 DUP5 SWAP2 PUSH1 0x60 ADD SWAP1 JUMP JUMPDEST SUB SWAP4 AND GAS CALL SWAP1 DUP2 ISZERO PUSH2 0x2A7 JUMPI SWAP2 PUSH2 0x7DF DUP8 SWAP5 SWAP3 PUSH2 0x80E SWAP5 DUP8 SWAP2 PUSH2 0x28A JUMPI POP PUSH2 0xC8C JUMP JUMPDEST DUP9 MLOAD PUSH4 0xE7D3FE6B PUSH1 0xE0 SHL DUP2 MSTORE SWAP1 DUP2 ADD DUP9 DUP2 MSTORE CALLVALUE PUSH1 0x20 DUP3 ADD MSTORE CALLER PUSH1 0x40 DUP3 ADD MSTORE SWAP1 SWAP6 DUP7 SWAP4 DUP5 SWAP3 DUP8 SWAP3 SWAP2 DUP5 SWAP2 PUSH1 0x60 ADD SWAP1 JUMP JUMPDEST SUB SWAP4 AND GAS CALL SWAP1 DUP2 ISZERO PUSH2 0x5FA JUMPI POP PUSH2 0x82D JUMPI JUMPDEST POP DUP3 MLOAD SWAP2 DUP3 MSTORE CALLVALUE SWAP1 DUP3 ADD MSTORE RETURN JUMPDEST PUSH2 0x843 SWAP1 DUP3 RETURNDATASIZE DUP5 GT PUSH2 0x278 JUMPI PUSH2 0x269 DUP2 DUP4 PUSH2 0xB7B JUMP JUMPDEST POP CODESIZE PUSH2 0x820 JUMP JUMPDEST PUSH2 0x7BC SWAP2 SWAP6 POP PUSH2 0x866 SWAP1 DUP4 RETURNDATASIZE DUP6 GT PUSH2 0x349 JUMPI PUSH2 0x33A DUP2 DUP4 PUSH2 0xB7B JUMP JUMPDEST SWAP5 SWAP1 PUSH2 0x770 JUMP JUMPDEST DUP5 SWAP2 POP DUP4 CALLVALUE PUSH2 0xB30 JUMPI PUSH1 0x60 CALLDATASIZE PUSH1 0x3 NOT ADD SLT PUSH2 0xB30 JUMPI DUP1 CALLDATALOAD SWAP2 PUSH2 0x88D PUSH2 0xB34 JUMP JUMPDEST SWAP5 PUSH2 0x896 PUSH2 0xB4F JUMP JUMPDEST DUP2 SLOAD PUSH1 0x1 SLOAD PUSH4 0xE6A43905 PUSH1 0xE0 SHL DUP6 MSTORE PUSH1 0x1 PUSH1 0x1 PUSH1 0xA0 SHL SUB DUP10 DUP2 AND DUP7 DUP9 ADD SWAP1 DUP2 MSTORE SWAP2 DUP2 AND PUSH1 0x20 DUP4 DUP2 ADD SWAP2 SWAP1 SWAP2 MSTORE SWAP7 SWAP4 SWAP1 SWAP3 SWAP1 SWAP2 SWAP1 DUP4 AND SWAP1 DUP8 SWAP1 DUP8 SWAP1 DUP2 SWAP1 PUSH1 0x40 ADD SUB DUP2 DUP5 GAS STATICCALL SWAP6 DUP7 ISZERO PUSH2 0x350 JUMPI DUP9 DUP11 SWAP12 DUP10 SWAP3 DUP9 SWAP13 SWAP12 SWAP13 SWAP10 PUSH2 0xB0B JUMPI JUMPDEST POP SWAP1 DUP2 DUP10 DUP10 DUP9 DUP11 PUSH2 0x903 DUP7 DUP12 SWAP10 SWAP9 PUSH2 0xD00 JUMP JUMPDEST SWAP16 MLOAD PUSH4 0x23B872DD PUSH1 0xE0 SHL DUP2 MSTORE PUSH1 0x1 PUSH1 0x1 PUSH1 0xA0 SHL SUB SWAP9 DUP10 AND SWAP2 DUP2 ADD SWAP2 DUP3 MSTORE SWAP8 SWAP1 SWAP4 AND PUSH1 0x20 DUP5 ADD MSTORE PUSH1 0x40 DUP4 ADD SWAP5 SWAP1 SWAP5 MSTORE DUP6 SWAP4 DUP5 SWAP3 DUP4 SWAP1 PUSH1 0x60 ADD SUB SWAP4 AND GAS CALL SWAP1 DUP2 ISZERO PUSH2 0xAA1 JUMPI DUP7 SWAP2 PUSH2 0xAEE JUMPI JUMPDEST POP ISZERO PUSH2 0xAAB JUMPI DUP10 MLOAD PUSH4 0xCF820461 PUSH1 0xE0 SHL DUP2 MSTORE DUP8 DUP2 DUP7 DUP2 DUP6 GAS STATICCALL SWAP1 DUP2 ISZERO PUSH2 0xAA1 JUMPI DUP6 SWAP3 SWAP2 DUP11 SWAP2 DUP9 SWAP2 PUSH2 0xA67 JUMPI JUMPDEST POP PUSH1 0x64 SWAP2 PUSH2 0x986 SWAP2 PUSH2 0xBEA JUMP JUMPDEST DIV SWAP3 DUP9 PUSH2 0x993 DUP6 DUP13 PUSH2 0xC33 JUMP JUMPDEST SWAP3 DUP14 MLOAD SWAP5 DUP6 DUP1 SWAP3 PUSH3 0x2FCFCB PUSH1 0xE3 SHL DUP3 MSTORE GAS STATICCALL SWAP3 DUP4 ISZERO PUSH2 0xA5D JUMPI PUSH2 0x1A1 PUSH1 0x84 SWAP6 DUP12 SWAP9 SWAP6 DUP11 SWAP6 DUP16 SWAP10 SWAP6 PUSH2 0x9D5 SWAP6 DUP13 DUP10 SWAP5 PUSH2 0xA32 JUMPI JUMPDEST POP POP PUSH2 0x537 SWAP2 PUSH2 0x1A1 SWAP2 PUSH2 0xE12 JUMP JUMPDEST DUP12 MLOAD SWAP8 DUP9 SWAP6 DUP7 SWAP5 PUSH4 0x5673B02D PUSH1 0xE0 SHL DUP7 MSTORE DUP6 ADD MSTORE DUP3 PUSH1 0x24 DUP6 ADD MSTORE DUP3 PUSH1 0x44 DUP6 ADD MSTORE DUP11 PUSH1 0x64 DUP6 ADD MSTORE AND GAS CALL SWAP1 DUP2 ISZERO PUSH2 0x27F JUMPI POP PUSH2 0xA15 JUMPI POP DUP4 MLOAD SWAP3 DUP4 MSTORE DUP3 ADD MSTORE RETURN JUMPDEST PUSH2 0xA2B SWAP1 DUP3 RETURNDATASIZE DUP5 GT PUSH2 0x278 JUMPI PUSH2 0x269 DUP2 DUP4 PUSH2 0xB7B JUMP JUMPDEST POP DUP5 PUSH2 0x247 JUMP JUMPDEST PUSH2 0x1A1 SWAP3 SWAP5 POP PUSH2 0x537 SWAP4 SWAP2 DUP2 PUSH2 0xA53 SWAP3 SWAP1 RETURNDATASIZE LT PUSH2 0x349 JUMPI PUSH2 0x33A DUP2 DUP4 PUSH2 0xB7B JUMP JUMPDEST SWAP4 SWAP2 POP SWAP2 DUP13 PUSH2 0x9C6 JUMP JUMPDEST DUP13 MLOAD RETURNDATASIZE DUP10 DUP3 RETURNDATACOPY RETURNDATASIZE SWAP1 REVERT JUMPDEST SWAP3 SWAP4 POP POP POP DUP8 DUP2 DUP2 RETURNDATASIZE DUP4 GT PUSH2 0xA9A JUMPI JUMPDEST PUSH2 0xA81 DUP2 DUP4 PUSH2 0xB7B JUMP JUMPDEST DUP2 ADD SUB SLT PUSH2 0xA96 JUMPI MLOAD DUP5 SWAP2 SWAP1 DUP10 SWAP1 PUSH1 0x64 PUSH2 0x979 JUMP JUMPDEST DUP6 DUP1 REVERT JUMPDEST POP RETURNDATASIZE PUSH2 0xA77 JUMP JUMPDEST DUP12 MLOAD RETURNDATASIZE DUP9 DUP3 RETURNDATACOPY RETURNDATASIZE SWAP1 REVERT JUMPDEST DUP10 MLOAD PUSH3 0x461BCD PUSH1 0xE5 SHL DUP2 MSTORE DUP1 DUP6 ADD DUP9 SWAP1 MSTORE PUSH1 0x18 PUSH1 0x24 DUP3 ADD MSTORE PUSH32 0x5472616E73666572206F6620746F6B656E206661696C65640000000000000000 PUSH1 0x44 DUP3 ADD MSTORE PUSH1 0x64 SWAP1 REVERT JUMPDEST PUSH2 0xB05 SWAP2 POP DUP9 RETURNDATASIZE DUP11 GT PUSH2 0x278 JUMPI PUSH2 0x269 DUP2 DUP4 PUSH2 0xB7B JUMP JUMPDEST DUP12 PUSH2 0x94D JUMP JUMPDEST DUP4 SWAP3 SWAP2 SWAP10 POP PUSH2 0xB27 SWAP1 DUP7 SWAP5 RETURNDATASIZE DUP6 GT PUSH2 0x349 JUMPI PUSH2 0x33A DUP2 DUP4 PUSH2 0xB7B JUMP JUMPDEST SWAP9 SWAP1 SWAP2 SWAP3 PUSH2 0x8F0 JUMP JUMPDEST DUP4 DUP1 REVERT JUMPDEST PUSH1 0x24 CALLDATALOAD SWAP1 PUSH1 0x1 PUSH1 0x1 PUSH1 0xA0 SHL SUB DUP3 AND DUP3 SUB PUSH2 0xB4A JUMPI JUMP JUMPDEST PUSH1 0x0 DUP1 REVERT JUMPDEST PUSH1 0x44 CALLDATALOAD SWAP1 PUSH1 0x1 PUSH1 0x1 PUSH1 0xA0 SHL SUB DUP3 AND DUP3 SUB PUSH2 0xB4A JUMPI JUMP JUMPDEST PUSH1 0x4 CALLDATALOAD SWAP1 PUSH1 0x1 PUSH1 0x1 PUSH1 0xA0 SHL SUB DUP3 AND DUP3 SUB PUSH2 0xB4A JUMPI JUMP JUMPDEST SWAP1 PUSH1 0x1F DUP1 NOT SWAP2 ADD AND DUP2 ADD SWAP1 DUP2 LT PUSH8 0xFFFFFFFFFFFFFFFF DUP3 GT OR PUSH2 0xB9D JUMPI PUSH1 0x40 MSTORE JUMP JUMPDEST PUSH4 0x4E487B71 PUSH1 0xE0 SHL PUSH1 0x0 MSTORE PUSH1 0x41 PUSH1 0x4 MSTORE PUSH1 0x24 PUSH1 0x0 REVERT JUMPDEST SWAP1 DUP2 PUSH1 0x20 SWAP2 SUB SLT PUSH2 0xB4A JUMPI MLOAD PUSH1 0x1 PUSH1 0x1 PUSH1 0xA0 SHL SUB DUP2 AND DUP2 SUB PUSH2 0xB4A JUMPI SWAP1 JUMP JUMPDEST SWAP1 DUP2 PUSH1 0x20 SWAP2 SUB SLT PUSH2 0xB4A JUMPI MLOAD DUP1 ISZERO ISZERO DUP2 SUB PUSH2 0xB4A JUMPI SWAP1 JUMP JUMPDEST DUP2 DUP2 MUL SWAP3 SWAP2 DUP2 ISZERO SWAP2 DUP5 DIV EQ OR ISZERO PUSH2 0xBFD JUMPI JUMP JUMPDEST PUSH4 0x4E487B71 PUSH1 0xE0 SHL PUSH1 0x0 MSTORE PUSH1 0x11 PUSH1 0x4 MSTORE PUSH1 0x24 PUSH1 0x0 REVERT JUMPDEST DUP2 ISZERO PUSH2 0xC1D JUMPI DIV SWAP1 JUMP JUMPDEST PUSH4 0x4E487B71 PUSH1 0xE0 SHL PUSH1 0x0 MSTORE PUSH1 0x12 PUSH1 0x4 MSTORE PUSH1 0x24 PUSH1 0x0 REVERT JUMPDEST SWAP2 SWAP1 DUP3 SUB SWAP2 DUP3 GT PUSH2 0xBFD JUMPI JUMP JUMPDEST ISZERO PUSH2 0xC47 JUMPI JUMP JUMPDEST PUSH1 0x40 MLOAD PUSH3 0x461BCD PUSH1 0xE5 SHL DUP2 MSTORE PUSH1 0x20 PUSH1 0x4 DUP3 ADD MSTORE PUSH1 0x17 PUSH1 0x24 DUP3 ADD MSTORE PUSH32 0x5472616E73666572206F6620455448206661696C65642E000000000000000000 PUSH1 0x44 DUP3 ADD MSTORE PUSH1 0x64 SWAP1 REVERT JUMPDEST ISZERO PUSH2 0xC93 JUMPI JUMP JUMPDEST PUSH1 0x40 MLOAD PUSH3 0x461BCD PUSH1 0xE5 SHL DUP2 MSTORE PUSH1 0x20 PUSH1 0x4 DUP3 ADD MSTORE PUSH1 0x19 PUSH1 0x24 DUP3 ADD MSTORE PUSH32 0x5472616E73666572206F6620746F6B656E206661696C65642E00000000000000 PUSH1 0x44 DUP3 ADD MSTORE PUSH1 0x64 SWAP1 REVERT JUMPDEST SWAP1 DUP2 PUSH1 0x60 SWAP2 SUB SLT PUSH2 0xB4A JUMPI DUP1 MLOAD SWAP2 PUSH1 0x40 PUSH1 0x20 DUP4 ADD MLOAD SWAP3 ADD MLOAD SWAP1 JUMP JUMPDEST SWAP2 SWAP1 DUP3 ADD DUP1 SWAP3 GT PUSH2 0xBFD JUMPI JUMP JUMPDEST PUSH1 0x0 DUP1 SLOAD PUSH1 0x1 SLOAD PUSH1 0x40 MLOAD PUSH4 0xE6A43905 PUSH1 0xE0 SHL DUP2 MSTORE PUSH1 0x1 PUSH1 0x1 PUSH1 0xA0 SHL SUB DUP6 DUP2 AND PUSH1 0x4 DUP4 ADD MSTORE SWAP2 DUP3 AND PUSH1 0x24 DUP3 ADD DUP2 SWAP1 MSTORE SWAP2 SWAP6 SWAP4 SWAP5 SWAP3 PUSH1 0x20 SWAP1 DUP3 SWAP1 PUSH1 0x44 SWAP1 DUP3 SWAP1 DUP11 AND GAS STATICCALL SWAP1 DUP2 ISZERO PUSH2 0xDE8 JUMPI DUP7 SWAP2 PUSH1 0x60 SWAP2 DUP8 SWAP2 PUSH2 0xDF3 JUMPI JUMPDEST POP PUSH1 0x4 PUSH1 0x40 MLOAD DUP1 SWAP10 DUP2 SWAP4 PUSH4 0x240BC6B PUSH1 0xE2 SHL DUP4 MSTORE AND GAS STATICCALL SWAP3 DUP4 ISZERO PUSH2 0xDE8 JUMPI DUP6 SWAP7 DUP7 SWAP5 PUSH2 0xDC0 JUMPI JUMPDEST POP PUSH2 0xD86 DUP5 DUP9 PUSH2 0xBEA JUMP JUMPDEST SWAP6 POP AND SUB PUSH2 0xDAF JUMPI SWAP2 PUSH2 0xDA0 PUSH2 0xDA6 SWAP3 PUSH2 0xDAC SWAP6 SWAP5 PUSH2 0xCF3 JUMP JUMPDEST SWAP1 PUSH2 0xC13 JUMP JUMPDEST SWAP1 PUSH2 0xC33 JUMP JUMPDEST SWAP1 JUMP JUMPDEST SWAP2 PUSH2 0xDA0 PUSH2 0xDA6 SWAP3 PUSH2 0xDAC SWAP6 PUSH2 0xCF3 JUMP JUMPDEST SWAP1 SWAP4 POP PUSH2 0xDDD SWAP2 SWAP7 POP PUSH1 0x60 RETURNDATASIZE PUSH1 0x60 GT PUSH2 0x310 JUMPI PUSH2 0x2FD DUP2 DUP4 PUSH2 0xB7B JUMP JUMPDEST POP SWAP6 SWAP1 SWAP6 SWAP3 CODESIZE PUSH2 0xD7B JUMP JUMPDEST PUSH1 0x40 MLOAD RETURNDATASIZE DUP8 DUP3 RETURNDATACOPY RETURNDATASIZE SWAP1 REVERT JUMPDEST PUSH2 0xE0C SWAP2 POP PUSH1 0x20 RETURNDATASIZE PUSH1 0x20 GT PUSH2 0x349 JUMPI PUSH2 0x33A DUP2 DUP4 PUSH2 0xB7B JUMP JUMPDEST CODESIZE PUSH2 0xD54 JUMP JUMPDEST PUSH1 0x0 DUP1 DUP1 DUP1 SWAP5 DUP2 SWAP5 PUSH1 0x1 DUP1 PUSH1 0xA0 SHL SUB AND GAS CALL SWAP1 RETURNDATASIZE ISZERO PUSH2 0xE7B JUMPI RETURNDATASIZE PUSH8 0xFFFFFFFFFFFFFFFF DUP2 GT PUSH2 0xE67 JUMPI PUSH1 0x40 MLOAD SWAP1 PUSH2 0xE53 PUSH1 0x1F DUP3 ADD PUSH1 0x1F NOT AND PUSH1 0x20 ADD DUP4 PUSH2 0xB7B JUMP JUMPDEST DUP2 MSTORE DUP2 PUSH1 0x20 RETURNDATASIZE SWAP3 ADD RETURNDATACOPY JUMPDEST DUP2 ISZERO PUSH2 0x35A JUMPI POP SWAP1 JUMP JUMPDEST PUSH4 0x4E487B71 PUSH1 0xE0 SHL DUP3 MSTORE PUSH1 0x41 PUSH1 0x4 MSTORE PUSH1 0x24 DUP3 REVERT JUMPDEST PUSH2 0xE5D JUMP INVALID LOG2 PUSH5 0x6970667358 0x22 SLT KECCAK256 SWAP15 BLOBHASH SIGNEXTEND SELFBALANCE PUSH21 0x5265F89611AAA8B8C91A278F113BD0236B8272C355 0xBB PUSH24 0xF82446A364736F6C63430008180033000000000000000000 "
        },
        "methodIdentifiers": {
          "WETH()": "ad5c4648",
          "addLiquidityETH(address,uint256)": "7282d548",
          "factory()": "c45a0155",
          "getAmountsOut(address,uint256)": "b682894b",
          "removeLiquidityETH(address,uint256,address)": "e79a4089",
          "swapETHForTokens(address,address)": "7f54a369",
          "swapTokensForETH(uint256,address,address)": "6bf09f10"
        }
      }
    }
  }
}