{
  "contracts/PumpFun.sol": {
    "PumpFun": {
      "abi": [
        {
          "inputs": [
            {
              "internalType": "address",
              "name": "factory_",
              "type": "address"
            },
            {
              "internalType": "address",
              "name": "router_",
              "type": "address"
            },
            {
              "internalType": "address",
              "name": "fees_wallet",
              "type": "address"
            },
            {
              "internalType": "uint256",
              "name": "_fee",
              "type": "uint256"
            },
            {
              "internalType": "uint256",
              "name": "_refFee",
              "type": "uint256"
            },
            {
              "internalType": "uint256",
              "name": "_lpFee",
              "type": "uint256"
            }
          ],
          "stateMutability": "nonpayable",
          "type": "constructor"
        },
        {
          "anonymous": false,
          "inputs": [
            {
              "indexed": true,
              "internalType": "address",
              "name": "token",
              "type": "address"
            },
            {
              "indexed": true,
              "internalType": "address",
              "name": "pair",
              "type": "address"
            },
            {
              "indexed": false,
              "internalType": "uint256",
              "name": "",
              "type": "uint256"
            }
          ],
          "name": "Launched",
          "type": "event"
        },
        {
          "inputs": [
            {
              "internalType": "address",
              "name": "_user",
              "type": "address"
            },
            {
              "internalType": "address",
              "name": "_token",
              "type": "address"
            },
            {
              "internalType": "uint256",
              "name": "amount",
              "type": "uint256"
            }
          ],
          "name": "approval",
          "outputs": [
            {
              "internalType": "bool",
              "name": "",
              "type": "bool"
            }
          ],
          "stateMutability": "nonpayable",
          "type": "function"
        },
        {
          "inputs": [],
          "name": "deploy",
          "outputs": [
            {
              "internalType": "uint256",
              "name": "",
              "type": "uint256"
            }
          ],
          "stateMutability": "pure",
          "type": "function"
        },
        {
          "inputs": [],
          "name": "feeTo",
          "outputs": [
            {
              "internalType": "address",
              "name": "",
              "type": "address"
            }
          ],
          "stateMutability": "view",
          "type": "function"
        },
        {
          "inputs": [],
          "name": "feeToSetter",
          "outputs": [
            {
              "internalType": "address",
              "name": "",
              "type": "address"
            }
          ],
          "stateMutability": "view",
          "type": "function"
        },
        {
          "inputs": [
            {
              "internalType": "string",
              "name": "_name",
              "type": "string"
            },
            {
              "internalType": "string",
              "name": "_ticker",
              "type": "string"
            },
            {
              "internalType": "string",
              "name": "desc",
              "type": "string"
            },
            {
              "internalType": "string",
              "name": "img",
              "type": "string"
            },
            {
              "internalType": "string[4]",
              "name": "urls",
              "type": "string[4]"
            },
            {
              "internalType": "uint256",
              "name": "_supply",
              "type": "uint256"
            },
            {
              "internalType": "uint256",
              "name": "maxTx",
              "type": "uint256"
            },
            {
              "internalType": "address",
              "name": "ref",
              "type": "address"
            }
          ],
          "name": "launch",
          "outputs": [
            {
              "internalType": "address",
              "name": "",
              "type": "address"
            },
            {
              "internalType": "address",
              "name": "",
              "type": "address"
            },
            {
              "internalType": "uint256",
              "name": "",
              "type": "uint256"
            }
          ],
          "stateMutability": "payable",
          "type": "function"
        },
        {
          "inputs": [],
          "name": "launchFee",
          "outputs": [
            {
              "internalType": "uint256",
              "name": "",
              "type": "uint256"
            }
          ],
          "stateMutability": "view",
          "type": "function"
        },
        {
          "inputs": [],
          "name": "liquidityFee",
          "outputs": [
            {
              "internalType": "uint256",
              "name": "",
              "type": "uint256"
            }
          ],
          "stateMutability": "view",
          "type": "function"
        },
        {
          "inputs": [],
          "name": "marketCap",
          "outputs": [
            {
              "internalType": "uint256",
              "name": "",
              "type": "uint256"
            }
          ],
          "stateMutability": "pure",
          "type": "function"
        },
        {
          "inputs": [
            {
              "internalType": "address",
              "name": "",
              "type": "address"
            }
          ],
          "name": "profile",
          "outputs": [
            {
              "internalType": "address",
              "name": "user",
              "type": "address"
            },
            {
              "internalType": "address",
              "name": "referree",
              "type": "address"
            }
          ],
          "stateMutability": "view",
          "type": "function"
        },
        {
          "inputs": [
            {
              "internalType": "uint256",
              "name": "",
              "type": "uint256"
            }
          ],
          "name": "profiles",
          "outputs": [
            {
              "internalType": "address",
              "name": "user",
              "type": "address"
            },
            {
              "internalType": "address",
              "name": "referree",
              "type": "address"
            }
          ],
          "stateMutability": "view",
          "type": "function"
        },
        {
          "inputs": [],
          "name": "referralFee",
          "outputs": [
            {
              "internalType": "uint256",
              "name": "",
              "type": "uint256"
            }
          ],
          "stateMutability": "view",
          "type": "function"
        },
        {
          "inputs": [
            {
              "internalType": "address",
              "name": "",
              "type": "address"
            }
          ],
          "name": "token",
          "outputs": [
            {
              "internalType": "address",
              "name": "token",
              "type": "address"
            },
            {
              "internalType": "address",
              "name": "pair",
              "type": "address"
            },
            {
              "internalType": "string",
              "name": "name",
              "type": "string"
            },
            {
              "internalType": "string",
              "name": "ticker",
              "type": "string"
            },
            {
              "internalType": "uint256",
              "name": "supply",
              "type": "uint256"
            },
            {
              "internalType": "string",
              "name": "description",
              "type": "string"
            },
            {
              "internalType": "string",
              "name": "image",
              "type": "string"
            },
            {
              "internalType": "string",
              "name": "twitter",
              "type": "string"
            },
            {
              "internalType": "string",
              "name": "telegram",
              "type": "string"
            },
            {
              "internalType": "string",
              "name": "youtube",
              "type": "string"
            },
            {
              "internalType": "string",
              "name": "website",
              "type": "string"
            }
          ],
          "stateMutability": "view",
          "type": "function"
        },
        {
          "inputs": [
            {
              "internalType": "uint256",
              "name": "",
              "type": "uint256"
            }
          ],
          "name": "tokens",
          "outputs": [
            {
              "internalType": "address",
              "name": "token",
              "type": "address"
            },
            {
              "internalType": "address",
              "name": "pair",
              "type": "address"
            },
            {
              "internalType": "string",
              "name": "name",
              "type": "string"
            },
            {
              "internalType": "string",
              "name": "ticker",
              "type": "string"
            },
            {
              "internalType": "uint256",
              "name": "supply",
              "type": "uint256"
            },
            {
              "internalType": "string",
              "name": "description",
              "type": "string"
            },
            {
              "internalType": "string",
              "name": "image",
              "type": "string"
            },
            {
              "internalType": "string",
              "name": "twitter",
              "type": "string"
            },
            {
              "internalType": "string",
              "name": "telegram",
              "type": "string"
            },
            {
              "internalType": "string",
              "name": "youtube",
              "type": "string"
            },
            {
              "internalType": "string",
              "name": "website",
              "type": "string"
            }
          ],
          "stateMutability": "view",
          "type": "function"
        },
        {
          "inputs": [
            {
              "internalType": "uint256",
              "name": "_fee",
              "type": "uint256"
            }
          ],
          "name": "updateLaunchFee",
          "outputs": [
            {
              "internalType": "uint256",
              "name": "",
              "type": "uint256"
            }
          ],
          "stateMutability": "nonpayable",
          "type": "function"
        },
        {
          "inputs": [
            {
              "internalType": "uint256",
              "name": "_fee",
              "type": "uint256"
            }
          ],
          "name": "updateLiquidityFee",
          "outputs": [
            {
              "internalType": "uint256",
              "name": "",
              "type": "uint256"
            }
          ],
          "stateMutability": "nonpayable",
          "type": "function"
        },
        {
          "inputs": [
            {
              "internalType": "uint256",
              "name": "_fee",
              "type": "uint256"
            }
          ],
          "name": "updateReferralFee",
          "outputs": [
            {
              "internalType": "uint256",
              "name": "",
              "type": "uint256"
            }
          ],
          "stateMutability": "nonpayable",
          "type": "function"
        }
      ],
      "evm": {
        "bytecode": {
          "linkReferences": {},
          "object": "608034620001a357601f6200306238819003918201601f19168301916001600160401b03831184841017620001a85780849260c094604052833981010312620001a3576200004d81620001be565b906200005c60208201620001be565b6200006a60408301620001be565b9260608301519160a060808501519401519460018060a01b0319923384600054161760005560018060a01b0392838092168560015416176001551683600354161760035516906004541617600455670de0b6b3a7640000908181029181830414901517156200018d576103e89004600555600581116200014857600582116200010357600655600755604051612e8e9081620001d48239f35b60405162461bcd60e51b815260206004820152601f60248201527f4c6971756964697479204665652063616e6e6f74206578636565642035252e006044820152606490fd5b60405162461bcd60e51b815260206004820152601e60248201527f526566657272616c204665652063616e6e6f74206578636565642035252e00006044820152606490fd5b634e487b7160e01b600052601160045260246000fd5b600080fd5b634e487b7160e01b600052604160045260246000fd5b51906001600160a01b0382168203620001a35756fe60808060405260043610156200001457600080fd5b60003560e01c908163017e7e581462000df757508063094b74151462000dcc5780632c135b931462000da55780634f64b2be1462000b9c5780635c52a5f21462000b4f5780636d46a1db1462000a835780637660f44a1462000a5f578063775c300c1462000a4157806384ae2bc61462000a215780638e67566314620009fd57806398118cb414620009dd5780639dd9d0fd1462000981578063a153e6ff146200017f578063c36fe3d61462000129578063cf3cf57314620001095763f3f524b814620000e057600080fd5b34620001045760203660031901126200010457602060043580600655604051908152f35b600080fd5b346200010457600036600319011262000104576020600554604051908152f35b346200010457602036600319011262000104576004356009548110156200010457620001559062001133565b508054600190910154604080516001600160a01b03938416815292909116602083015290f35b0390f35b61010036600319011262000104576004356001600160401b0381116200010457620001af903690600401620010e6565b6024356001600160401b0381116200010457620001d1903690600401620010e6565b6044356001600160401b0381116200010457620001f3903690600401620010e6565b6064356001600160401b038111620001045762000215903690600401620010e6565b92608435926001600160401b038411620001045736602385011215620001045760405193620002448562000ebd565b84906084810190368211620001045780600401925b8284106200094e57505060e435929150506001600160a01b0382168203620001045760055434106200090957604051610ff581818101106001600160401b0382840111176200072f5780829162001e648339608081830152620002d9620002c66080838501018862000fac565b8284018103602084860101528562000fac565b9060a43560408285010152606060c435918401015203906000f094851562000849576003546040516315ab88c960e31b81529590602090879060049082906001600160a01b03165afa95861562000849576200037996602091600091620008e7575b506001546040516364e329cb60e11b81526001600160a01b038b81166004830152928316602482015298899290911690829060009082906044820190565b03925af19586156200084957600096620008af575b5060035460405163313ce56760e01b8152906001600160a01b0390811690602090839060049082908d165afa80156200084957620003df620003e891620003fa946000916200088b575b5062001247565b60a4356200126f565b906001600160a01b038a16906200116e565b156200010457606462000410346007546200126f565b04976004620004208a3462001283565b60035460405163313ce56760e01b8152919b91926001600160a01b039182169291602091859182908f165afa91821562000849578b62000474620003df604095620004a39760009162000855575062001247565b8451630e505aa960e31b81526001600160a01b0390921660048301526024820152938492839182906044820190565b03925af18015620008495762000818575b5033600090815260086020526040902060018101549099906001600160a01b031680156200075b57506004546000918291829182916001600160a01b03165af1620004fe62001291565b501562000104575b825190602084015192606060408601519501519560405198896101608101106001600160401b036101608c0111176200072f576101608a0160405260018060a01b038c168a5260018060a01b038b1660208b015260408a0152606089015260a435608089015260a088015260c087015260e086015261010085015261012084015261014083015260018060a01b038416600052600a602052620005ae826040600020620012df565b600b54600160401b90818110156200072f576001810180600b55811015620007455783600b620006059281600052027f0175b7a638427703f0dbe7bb9bbf987a2551717b34e79f33b5b1008d1fa01db901620012df565b620006103362001b89565b156200068b575050620006299060036060950162001b52565b600b546040518181529091906001600160a01b0380831691908516907f714aa39317ad9a7a7a99db52b44490da5d068a0b2710fffb1a1282ad3cadae1f90602090a3604080516001600160a01b03948516815291909316602082015291820152f35b60405192916200069b8462000ebd565b33845260018060a01b0316602084015260606040840152606080840152336000526008602052620006d183604060002062001c20565b600954908110156200072f57806001620006ef920160095562001133565b92909262000719576060956200070c600392620007139562001c20565b0162001b52565b62000629565b634e487b7160e01b600052600060045260246000fd5b634e487b7160e01b600052604160045260246000fd5b634e487b7160e01b600052603260045260246000fd5b6000526002604060002001805491600160401b8310156200072f576001830180835583101562000745576000808093928e95829483526020832001336bffffffffffffffffffffffff60a01b825416179055620007ca6064620007c1836006546200126f565b04809262001283565b6001909601546001600160a01b03165af1620007e562001291565b501562000104576004546000918291829182916001600160a01b03165af16200080d62001291565b506200050657600080fd5b604090813d831162000841575b62000831818362000ed9565b81010312620001045789620004b4565b503d62000825565b6040513d6000823e3d90fd5b6200087c915060203d60201162000883575b62000873818362000ed9565b8101906200122c565b38620003d8565b503d62000867565b620008a8915060203d602011620008835762000873818362000ed9565b8d620003d8565b620008d791965060203d602011620008df575b620008ce818362000ed9565b8101906200120b565b94886200038e565b503d620008c2565b620009029150823d8411620008df57620008ce818362000ed9565b8a6200033b565b60405162461bcd60e51b815260206004820152601960248201527f496e73756666696369656e7420616d6f756e742073656e742e000000000000006044820152606490fd5b83356001600160401b038111620001045760209162000975839260043691870101620010e6565b81520193019262000259565b346200010457602036600319011262000104576001600160a01b0380620009a7620010b3565b16600090815260086020908152604091829020805460019091015483516001600160a01b03928616831681529416169083015290f35b346200010457600036600319011262000104576020600754604051908152f35b34620001045760203660031901126200010457602060043580600755604051908152f35b346200010457600036600319011262000104576020600654604051908152f35b34620001045760003660031901126200010457602060405160008152f35b34620001045760203660031901126200010457602060043580600555604051908152f35b346200010457602036600319011262000104576001600160a01b038062000aa9620010b3565b16600052600a6020526040600020906200017b81835416916001840154169262000ad66002820162000efb565b9062000ae56003820162000efb565b600482015462000af86005840162000efb565b62000b066006850162000efb565b9062000b156007860162000efb565b9262000b246008870162000efb565b9462000b41600a62000b3960098a0162000efb565b980162000efb565b976040519b8c9b8c62000fee565b3462000104576060366003190112620001045762000b6c620010b3565b6024356001600160a01b0381168103620001045760209162000b9291604435916200116e565b6040519015158152f35b34620001045760203660031901126200010457600435600b548110156200010457600b90816000520260018060a01b036200017b81837f0175b7a638427703f0dbe7bb9bbf987a2551717b34e79f33b5b1008d1fa01db9015416917f0175b7a638427703f0dbe7bb9bbf987a2551717b34e79f33b5b1008d1fa01dba840154169262000c4a7f0175b7a638427703f0dbe7bb9bbf987a2551717b34e79f33b5b1008d1fa01dbb820162000efb565b9062000c787f0175b7a638427703f0dbe7bb9bbf987a2551717b34e79f33b5b1008d1fa01dbc820162000efb565b7f0175b7a638427703f0dbe7bb9bbf987a2551717b34e79f33b5b1008d1fa01dbd82015462000cc97f0175b7a638427703f0dbe7bb9bbf987a2551717b34e79f33b5b1008d1fa01dbe840162000efb565b62000cf67f0175b7a638427703f0dbe7bb9bbf987a2551717b34e79f33b5b1008d1fa01dbf850162000efb565b9062000d247f0175b7a638427703f0dbe7bb9bbf987a2551717b34e79f33b5b1008d1fa01dc0860162000efb565b9262000d527f0175b7a638427703f0dbe7bb9bbf987a2551717b34e79f33b5b1008d1fa01dc1870162000efb565b9462000b417f0175b7a638427703f0dbe7bb9bbf987a2551717b34e79f33b5b1008d1fa01dc362000b397f0175b7a638427703f0dbe7bb9bbf987a2551717b34e79f33b5b1008d1fa01dc28a0162000efb565b34620001045760003660031901126200010457602060405169152d02c7e14af68000008152f35b346200010457600036600319011262000104576000546040516001600160a01b039091168152602090f35b346200010457600036600319011262000104576000546001600160a01b0391908216330362000e2f5760208260045416604051908152f35b62461bcd60e51b815260206004820152602660248201527f4f6e6c7920746865206f776e65722063616e2063616c6c20746869732066756e60448201526531ba34b7b71760d11b6064820152608490fd5b90600182811c9216801562000eb2575b602083101462000e9c57565b634e487b7160e01b600052602260045260246000fd5b91607f169162000e90565b608081019081106001600160401b038211176200072f57604052565b90601f801991011681019081106001600160401b038211176200072f57604052565b9060405191826000825462000f108162000e80565b9081845260209460019160018116908160001462000f88575060011462000f45575b50505062000f439250038362000ed9565b565b600090815285812095935091905b81831062000f6f57505062000f43935082010138808062000f32565b8554888401850152948501948794509183019162000f53565b9250505062000f4394925060ff191682840152151560051b82010138808062000f32565b919082519283825260005b84811062000fd9575050826000602080949584010152601f8019910116010190565b60208183018101518483018201520162000fb7565b9996908a6200109097620010b09d9b97608062001051620010809962001042620010a09f9a620010719a62001062996101609160018060a01b038092168b521660208a01528060408a015288019062000fac565b90868203606088015262000fac565b9301528c820360a08e015262000fac565b908a820360c08c015262000fac565b9088820360e08a015262000fac565b9086820361010088015262000fac565b9084820361012086015262000fac565b9161014081840391015262000fac565b90565b600435906001600160a01b03821682036200010457565b6001600160401b0381116200072f57601f01601f191660200190565b81601f8201121562000104578035906200110082620010ca565b9262001110604051948562000ed9565b828452602083830101116200010457816000926020809301838601378301015290565b6009548110156200074557600960005260021b7f6e1540171b6c0c960b71a7020d9f60077f6af931a8bbf590da0223dacf75c7af0190600090565b60405163095ea7b360e01b81526001600160a01b039182166004820152602481019390935260009291602091839160449183918791165af180156200120057620011ba575b5050600190565b6020813d602011620011f7575b81620011d66020938362000ed9565b81010312620011f3575180151503620011f05780620011b3565b80fd5b5080fd5b3d9150620011c7565b6040513d84823e3d90fd5b908160209103126200010457516001600160a01b0381168103620001045790565b9081602091031262000104575160ff81168103620001045790565b60ff16604d81116200125957600a0a90565b634e487b7160e01b600052601160045260246000fd5b818102929181159184041417156200125957565b919082039182116200125957565b3d15620012c1573d90620012a582620010ca565b91620012b5604051938462000ed9565b82523d6000602084013e565b606090565b818110620012d2575050565b60008155600101620012c6565b815181546001600160a01b03199081166001600160a01b039283161783556020808501516001858101805490941691909416179091556040840151805190936001600160401b03939092909160028401908581116200072f5762001344825462000e80565b96601f9788811162001b20575b50839088831160011462001ab9576200138492916000918362001632575b50508160011b916000199060031b1c19161790565b90555b600380840160608801518051908782116200072f57620013a8835462000e80565b89811162001a7c575b50849089831160011462001a1657620013e3929160009183620016325750508160011b916000199060031b1c19161790565b90555b60049360808801518582015560059081810160a08a0151805190898211620017a95762001414835462000e80565b8b8111620019e6575b5086908b831160011462001980576200144f929160009183620016325750508160011b916000199060031b1c19161790565b90555b6006810160c08a0151805190898211620017a95762001472835462000e80565b8b811162001950575b5086908b8311600114620018ea57620014ad929160009183620016325750508160011b916000199060031b1c19161790565b90555b6007810160e08a0151805190898211620017a957620014d0835462000e80565b8b8111620018ba575b5086908b831160011462001854576200150b929160009183620016325750508160011b916000199060031b1c19161790565b90555b600881016101008a0151805190898211620017a9576200152f835462000e80565b8b811162001824575b5086908b8311600114620017be576200156a929160009183620016325750508160011b916000199060031b1c19161790565b90555b600981016101208a0151805190898211620017a9576200158e835462000e80565b8b81116200176e575b5086908b8311600114620016fb57826101409593600a9593620015d193600092620016325750508160011b916000199060031b1c19161790565b90555b01980151948551968711620016e65750620015f0885462000e80565b878111620016a9575b5050819585116001146200163e575050506200162e928291600092620016325750508160011b916000199060031b1c19161790565b9055565b0151905038806200136f565b9194909284601f1981168860005285600020956000905b898383106200168e575050501062001673575b50505050811b019055565b01519060f884600019921b161c191690553880808062001668565b85870151895590970196948501948893509081019062001655565b620016d49189600052846000209089808a01821c830193878b10620016dc575b01901c0190620012c6565b3880620015f9565b93508293620016c9565b604190634e487b7160e01b6000525260246000fd5b889291601f1983169185600052896000209260005b8b82821062001757575050916101409795939185600a989694106200173e575b505050811b019055620015d4565b0151600019838b1b60f8161c1916905538808062001730565b8385015186558d9790950194938401930162001710565b620017989084600052886000208d808601891c8201928b87106200179f575b01881c0190620012c6565b3862001597565b925081926200178d565b604189634e487b7160e01b6000525260246000fd5b889291601f1983169185600052896000209260005b8b8282106200180d5750508411620017f4575b505050811b0190556200156d565b015160001983891b60f8161c19169055388080620017e6565b8385015186558d97909501949384019301620017d3565b6200184d9084600052886000208d808601891c8201928b87106200179f5701881c0190620012c6565b3862001538565b889291601f1983169185600052896000209260005b8b828210620018a357505084116200188a575b505050811b0190556200150e565b015160001983891b60f8161c191690553880806200187c565b8385015186558d9790950194938401930162001869565b620018e39084600052886000208d808601891c8201928b87106200179f5701881c0190620012c6565b38620014d9565b889291601f1983169185600052896000209260005b8b82821062001939575050841162001920575b505050811b019055620014b0565b015160001983891b60f8161c1916905538808062001912565b8385015186558d97909501949384019301620018ff565b620019799084600052886000208d808601891c8201928b87106200179f5701881c0190620012c6565b386200147b565b889291601f1983169185600052896000209260005b8b828210620019cf5750508411620019b6575b505050811b01905562001452565b015160001983891b60f8161c19169055388080620019a8565b8385015186558d9790950194938401930162001995565b62001a0f9084600052886000208d808601891c8201928b87106200179f5701881c0190620012c6565b386200141d565b869291601f1983169185600052876000209260005b8982821062001a65575050841162001a4c575b505050811b019055620013e6565b015160001983871b60f8161c1916905538808062001a3e565b8385015186558b9790950194938401930162001a2b565b62001aa89084600052866000208b80860160051c82019289871062001aaf575b0160051c0190620012c6565b38620013b1565b9250819262001a9c565b859291601f1983169185600052866000209260005b8882821062001b09575050841162001aef575b505050811b01905562001387565b015160001960f88460031b161c1916905538808062001ae1565b8385015186558a9790950194938401930162001ace565b62001b4b9084600052856000208a80860160051c82019288871062001aaf570160051c0190620012c6565b3862001351565b908154600160401b8110156200072f5760018101808455811015620007455762000f4392600052600b6020600020910201620012df565b6009549060005b82811062001ba057505050600090565b62001bab8162001133565b50546001600160a01b0383811691161462001bc95760010162001b90565b505050600190565b62001bdd815462000e80565b908162001be8575050565b81601f6000931160011462001bfb575055565b90808391825262001c1c601f60208420940160051c840160018501620012c6565b5555565b60018060a01b0390818351166bffffffffffffffffffffffff60a01b9081835416178255600193600183016020928584840151169082541617905560029260028101936040830151958651906001600160401b0382116200072f57600160401b978883116200072f5786908854848a5580851062001e43575b5001906000978852868820908a895b85811062001e2e575050505050506060600380930193015191825196871162001e1a5783548785558593929181891062001d18575b50505091845282842091015b84841062001cf957505050505050565b600b838262001d0b89945186620012df565b0192019301929062001ce9565b9091929350600b9282600b0292600b84040362001e065788600b02600b81048a0362001df257868952878920889695948101939291015b83811062001d5f57505062001cdd565b849596508981959293949555898c82015562001d7d83820162001bd1565b62001d8a84820162001bd1565b89600482015562001d9e6005820162001bd1565b62001dac6006820162001bd1565b62001dba6007820162001bd1565b62001dc86008820162001bd1565b62001dd66009820162001bd1565b62001de4600a820162001bd1565b019087959493929162001d4f565b634e487b7160e01b89526011600452602489fd5b634e487b7160e01b88526011600452602488fd5b634e487b7160e01b86526041600452602486fd5b898386511695019481850155018b9062001ca8565b62001e5c908a60005285846000209182019101620012c6565b3862001c9956fe60406080815234620004295762000ff5803803806200001e816200042e565b928339810190608081830312620004295780516001600160401b039190828111620004295783620000519183016200046a565b90602093848201519084821162000429576200006f9183016200046a565b606086830151920151906000943360018060a01b031987541617865533867f8be0079c531659141344cd1fd0a4f28419497f9722a3daafe3b4186f6b6457e08180a384518181116200034357600254906001968783811c931680156200041e575b8a84101462000324578190601f93848111620003ca575b508a9084831160011462000363578a9262000357575b5050600019600383901b1c191690871b176002555b8251918211620003435760039283548781811c9116801562000338575b8a821014620003245790818385949311620002cf575b50899183116001146200026c57889262000260575b505060001982841b1c191690851b1790555b670de0b6b3a7640000918281029281840414901517156200024c5781835560058111620001fe57907fddf252ad1be2c89b69c2b068fc378daa952ba7f163c4a11628f55a4df523b3ef929160045533845260058552858420556007845284832060ff199082828254161790553084528186852091825416179055549284519384523393a351610b189081620004dd8239f35b855162461bcd60e51b815260048101869052602160248201527f4d6178205472616e73616374696f6e2063616e6e6f74206578636565642035256044820152601760f91b6064820152608490fd5b634e487b7160e01b84526011600452602484fd5b0151905038806200015a565b8489528989208894509190601f1984168a5b8c828210620002b857505084116200029f575b505050811b0190556200016c565b015160001983861b60f8161c1916905538808062000291565b8385015186558b979095019493840193016200027e565b909192508489528989208380860160051c8201928c87106200031a575b9186958b929594930160051c01915b8281106200030b57505062000145565b8b81558695508a9101620002fb565b92508192620002ec565b634e487b7160e01b89526022600452602489fd5b90607f16906200012f565b634e487b7160e01b87526041600452602487fd5b015190503880620000fd565b60028b528b8b208a94509190601f1984168c8e5b828210620003b2575050841162000398575b505050811b0160025562000112565b015160001960f88460031b161c1916905538808062000389565b8385015186558d979095019493840193018e62000377565b90915060028a528a8a208480850160051c8201928d861062000414575b918b91869594930160051c01915b82811062000405575050620000e7565b8c81558594508b9101620003f5565b92508192620003e7565b92607f1692620000d0565b600080fd5b6040519190601f01601f191682016001600160401b038111838210176200045457604052565b634e487b7160e01b600052604160045260246000fd5b919080601f84011215620004295782516001600160401b0381116200045457602090620004a0601f8201601f191683016200042e565b92818452828287010111620004295760005b818110620004c857508260009394955001015290565b8581018301518482018401528201620004b256fe608060408181526004918236101561001657600080fd5b600092833560e01c91826306fdde03146104ff57508163095ea7b3146104d557816318160ddd146104b657816323b872dd146103e1578163313ce567146103c557816370a082311461038d578163715018a61461032e5781637437681e146103105781638da5cb5b146102e857816395d89b41146101e3578163a9059cbb146101b2578163c2d0ffca146100ff575063dd62ed3e146100b457600080fd5b346100fb57806003193601126100fb57806020926100d0610607565b6100d8610622565b6001600160a01b0391821683526006865283832091168252845220549051908152f35b5080fd5b919050346101ae5760203660031901126101ae5781359161012a60018060a01b038554163314610670565b600583116101625791602091817fff3dd5e80294197918c284bbfc3dadd97d0b40ce92106110946329088f80068a945551908152a180f35b6020608492519162461bcd60e51b8352820152602160248201527f4d6178205472616e73616374696f6e2063616e6e6f74206578636565642035256044820152601760f91b6064820152fd5b8280fd5b5050346100fb57806003193601126100fb576020906101dc6101d2610607565b60243590336107bd565b5160018152f35b919050346101ae57826003193601126101ae5780519183600354906001908260011c926001811680156102de575b60209586861082146102cb57508488529081156102a95750600114610250575b61024c8686610242828b0383610638565b51918291826105be565b0390f35b929550600383527fc2575a0e9e593c00f959f8c92f12db2869c3395a3b0502d05e2516446f71f85b5b828410610296575050508261024c94610242928201019438610231565b8054868501880152928601928101610279565b60ff191687860152505050151560051b83010192506102428261024c38610231565b634e487b7160e01b845260229052602483fd5b93607f1693610211565b5050346100fb57816003193601126100fb57905490516001600160a01b039091168152602090f35b9050346101ae57826003193601126101ae5760209250549051908152f35b833461038a578060031936011261038a578054816001600160a01b038216610357338214610670565b7f8be0079c531659141344cd1fd0a4f28419497f9722a3daafe3b4186f6b6457e08280a36001600160a01b031916815580f35b80fd5b5050346100fb5760203660031901126100fb5760209181906001600160a01b036103b5610607565b1681526005845220549051908152f35b5050346100fb57816003193601126100fb576020905160128152f35b82843461038a57606036600319011261038a576103fc610607565b90610405610622565b6104136044358092856107bd565b6001600160a01b038316825260066020908152848320338452905283822054845192606084019067ffffffffffffffff8211858310176104a3576020876101dc8861049b898989898752602883527f45524332303a207472616e7366657220616d6f756e742065786365656473206188840152676c6c6f77616e636560c01b87840152610a97565b9033906106bb565b634e487b7160e01b815260418852602490fd5b5050346100fb57816003193601126100fb576020906001549051908152f35b5050346100fb57806003193601126100fb576020906101dc6104f5610607565b60243590336106bb565b929150346105ba57836003193601126105ba57600254600181811c91869082811680156105b0575b60209586861082146102cb57508488529081156102a957506001146105575761024c8686610242828b0383610638565b929550600283527f405787fa12a823e0f2b7631cc41b3ba8828b3321ca811111fa75cd3aa3bb5ace5b82841061059d575050508261024c94610242928201019438610231565b8054868501880152928601928101610580565b93607f1693610527565b8380fd5b6020808252825181830181905290939260005b8281106105f357505060409293506000838284010152601f8019910116010190565b8181018601518482016040015285016105d1565b600435906001600160a01b038216820361061d57565b600080fd5b602435906001600160a01b038216820361061d57565b90601f8019910116810190811067ffffffffffffffff82111761065a57604052565b634e487b7160e01b600052604160045260246000fd5b1561067757565b606460405162461bcd60e51b815260206004820152602060248201527f4f776e61626c653a2063616c6c6572206973206e6f7420746865206f776e65726044820152fd5b6001600160a01b0390811691821561076c571691821561071c5760207f8c5be1e5ebec7d5bd14f71427d1e84f3dd0314c0f7b2291e5b200ac8c7c3b925918360005260068252604060002085600052825280604060002055604051908152a3565b60405162461bcd60e51b815260206004820152602260248201527f45524332303a20617070726f766520746f20746865207a65726f206164647265604482015261737360f01b6064820152608490fd5b60405162461bcd60e51b8152602060048201526024808201527f45524332303a20617070726f76652066726f6d20746865207a65726f206164646044820152637265737360e01b6064820152608490fd5b9192916001600160a01b03908116918215610a4457169081156109f357831561099c57600480549460015495868102968188041490151715610987576000958387526020926007845260409160ff838a20541615610936575b50848852600584528188205482519083820182811067ffffffffffffffff82111761092357610872929186918652601e83527f536166654d6174683a207375627472616374696f6e206f766572666c6f77000088840152610a97565b85895260058552828920558588528188205490838201918281116109105782106108cd57508188877fddf252ad1be2c89b69c2b068fc378daa952ba7f163c4a11628f55a4df523b3ef9798999a5260058652205551908152a3565b825162461bcd60e51b8152908101859052601b60248201527f536166654d6174683a206164646974696f6e206f766572666c6f7700000000006044820152606490fd5b634e487b7160e01b8a526011825260248afd5b634e487b7160e01b8b526041845260248bfd5b6064900483116109465738610816565b83606492519162461bcd60e51b8352820152601860248201527f4578636565647320746865204d61785478416d6f756e742e00000000000000006044820152fd5b601182634e487b7160e01b6000525260246000fd5b60405162461bcd60e51b815260206004820152602960248201527f5472616e7366657220616d6f756e74206d7573742062652067726561746572206044820152687468616e207a65726f60b81b6064820152608490fd5b60405162461bcd60e51b815260206004820152602360248201527f45524332303a207472616e7366657220746f20746865207a65726f206164647260448201526265737360e81b6064820152608490fd5b60405162461bcd60e51b815260206004820152602560248201527f45524332303a207472616e736665722066726f6d20746865207a65726f206164604482015264647265737360d81b6064820152608490fd5b91828211610ac257508103908111610aac5790565b634e487b7160e01b600052601160045260246000fd5b60405162461bcd60e51b8152908190610ade90600483016105be565b0390fdfea2646970667358221220125325736e75a597f98b9c4b5c0bb93954d3bb1aef8717cc3f9f5f7b8cd6bc4a64736f6c63430008180033a2646970667358221220161feb5e22a096ac97bdf601a370e9092167c7e4f17c32f1b1e7bbe6567bf6ff64736f6c63430008180033",
          "opcodes": "PUSH1 0x80 CALLVALUE PUSH3 0x1A3 JUMPI PUSH1 0x1F PUSH3 0x3062 CODESIZE DUP2 SWAP1 SUB SWAP2 DUP3 ADD PUSH1 0x1F NOT AND DUP4 ADD SWAP2 PUSH1 0x1 PUSH1 0x1 PUSH1 0x40 SHL SUB DUP4 GT DUP5 DUP5 LT OR PUSH3 0x1A8 JUMPI DUP1 DUP5 SWAP3 PUSH1 0xC0 SWAP5 PUSH1 0x40 MSTORE DUP4 CODECOPY DUP2 ADD SUB SLT PUSH3 0x1A3 JUMPI PUSH3 0x4D DUP2 PUSH3 0x1BE JUMP JUMPDEST SWAP1 PUSH3 0x5C PUSH1 0x20 DUP3 ADD PUSH3 0x1BE JUMP JUMPDEST PUSH3 0x6A PUSH1 0x40 DUP4 ADD PUSH3 0x1BE JUMP JUMPDEST SWAP3 PUSH1 0x60 DUP4 ADD MLOAD SWAP2 PUSH1 0xA0 PUSH1 0x80 DUP6 ADD MLOAD SWAP5 ADD MLOAD SWAP5 PUSH1 0x1 DUP1 PUSH1 0xA0 SHL SUB NOT SWAP3 CALLER DUP5 PUSH1 0x0 SLOAD AND OR PUSH1 0x0 SSTORE PUSH1 0x1 DUP1 PUSH1 0xA0 SHL SUB SWAP3 DUP4 DUP1 SWAP3 AND DUP6 PUSH1 0x1 SLOAD AND OR PUSH1 0x1 SSTORE AND DUP4 PUSH1 0x3 SLOAD AND OR PUSH1 0x3 SSTORE AND SWAP1 PUSH1 0x4 SLOAD AND OR PUSH1 0x4 SSTORE PUSH8 0xDE0B6B3A7640000 SWAP1 DUP2 DUP2 MUL SWAP2 DUP2 DUP4 DIV EQ SWAP1 ISZERO OR ISZERO PUSH3 0x18D JUMPI PUSH2 0x3E8 SWAP1 DIV PUSH1 0x5 SSTORE PUSH1 0x5 DUP2 GT PUSH3 0x148 JUMPI PUSH1 0x5 DUP3 GT PUSH3 0x103 JUMPI PUSH1 0x6 SSTORE PUSH1 0x7 SSTORE PUSH1 0x40 MLOAD PUSH2 0x2E8E SWAP1 DUP2 PUSH3 0x1D4 DUP3 CODECOPY RETURN JUMPDEST PUSH1 0x40 MLOAD PUSH3 0x461BCD PUSH1 0xE5 SHL DUP2 MSTORE PUSH1 0x20 PUSH1 0x4 DUP3 ADD MSTORE PUSH1 0x1F PUSH1 0x24 DUP3 ADD MSTORE PUSH32 0x4C6971756964697479204665652063616E6E6F74206578636565642035252E00 PUSH1 0x44 DUP3 ADD MSTORE PUSH1 0x64 SWAP1 REVERT JUMPDEST PUSH1 0x40 MLOAD PUSH3 0x461BCD PUSH1 0xE5 SHL DUP2 MSTORE PUSH1 0x20 PUSH1 0x4 DUP3 ADD MSTORE PUSH1 0x1E PUSH1 0x24 DUP3 ADD MSTORE PUSH32 0x526566657272616C204665652063616E6E6F74206578636565642035252E0000 PUSH1 0x44 DUP3 ADD MSTORE PUSH1 0x64 SWAP1 REVERT JUMPDEST PUSH4 0x4E487B71 PUSH1 0xE0 SHL PUSH1 0x0 MSTORE PUSH1 0x11 PUSH1 0x4 MSTORE PUSH1 0x24 PUSH1 0x0 REVERT JUMPDEST PUSH1 0x0 DUP1 REVERT JUMPDEST PUSH4 0x4E487B71 PUSH1 0xE0 SHL PUSH1 0x0 MSTORE PUSH1 0x41 PUSH1 0x4 MSTORE PUSH1 0x24 PUSH1 0x0 REVERT JUMPDEST MLOAD SWAP1 PUSH1 0x1 PUSH1 0x1 PUSH1 0xA0 SHL SUB DUP3 AND DUP3 SUB PUSH3 0x1A3 JUMPI JUMP INVALID PUSH1 0x80 DUP1 PUSH1 0x40 MSTORE PUSH1 0x4 CALLDATASIZE LT ISZERO PUSH3 0x14 JUMPI PUSH1 0x0 DUP1 REVERT JUMPDEST PUSH1 0x0 CALLDATALOAD PUSH1 0xE0 SHR SWAP1 DUP2 PUSH4 0x17E7E58 EQ PUSH3 0xDF7 JUMPI POP DUP1 PUSH4 0x94B7415 EQ PUSH3 0xDCC JUMPI DUP1 PUSH4 0x2C135B93 EQ PUSH3 0xDA5 JUMPI DUP1 PUSH4 0x4F64B2BE EQ PUSH3 0xB9C JUMPI DUP1 PUSH4 0x5C52A5F2 EQ PUSH3 0xB4F JUMPI DUP1 PUSH4 0x6D46A1DB EQ PUSH3 0xA83 JUMPI DUP1 PUSH4 0x7660F44A EQ PUSH3 0xA5F JUMPI DUP1 PUSH4 0x775C300C EQ PUSH3 0xA41 JUMPI DUP1 PUSH4 0x84AE2BC6 EQ PUSH3 0xA21 JUMPI DUP1 PUSH4 0x8E675663 EQ PUSH3 0x9FD JUMPI DUP1 PUSH4 0x98118CB4 EQ PUSH3 0x9DD JUMPI DUP1 PUSH4 0x9DD9D0FD EQ PUSH3 0x981 JUMPI DUP1 PUSH4 0xA153E6FF EQ PUSH3 0x17F JUMPI DUP1 PUSH4 0xC36FE3D6 EQ PUSH3 0x129 JUMPI DUP1 PUSH4 0xCF3CF573 EQ PUSH3 0x109 JUMPI PUSH4 0xF3F524B8 EQ PUSH3 0xE0 JUMPI PUSH1 0x0 DUP1 REVERT JUMPDEST CALLVALUE PUSH3 0x104 JUMPI PUSH1 0x20 CALLDATASIZE PUSH1 0x3 NOT ADD SLT PUSH3 0x104 JUMPI PUSH1 0x20 PUSH1 0x4 CALLDATALOAD DUP1 PUSH1 0x6 SSTORE PUSH1 0x40 MLOAD SWAP1 DUP2 MSTORE RETURN JUMPDEST PUSH1 0x0 DUP1 REVERT JUMPDEST CALLVALUE PUSH3 0x104 JUMPI PUSH1 0x0 CALLDATASIZE PUSH1 0x3 NOT ADD SLT PUSH3 0x104 JUMPI PUSH1 0x20 PUSH1 0x5 SLOAD PUSH1 0x40 MLOAD SWAP1 DUP2 MSTORE RETURN JUMPDEST CALLVALUE PUSH3 0x104 JUMPI PUSH1 0x20 CALLDATASIZE PUSH1 0x3 NOT ADD SLT PUSH3 0x104 JUMPI PUSH1 0x4 CALLDATALOAD PUSH1 0x9 SLOAD DUP2 LT ISZERO PUSH3 0x104 JUMPI PUSH3 0x155 SWAP1 PUSH3 0x1133 JUMP JUMPDEST POP DUP1 SLOAD PUSH1 0x1 SWAP1 SWAP2 ADD SLOAD PUSH1 0x40 DUP1 MLOAD PUSH1 0x1 PUSH1 0x1 PUSH1 0xA0 SHL SUB SWAP4 DUP5 AND DUP2 MSTORE SWAP3 SWAP1 SWAP2 AND PUSH1 0x20 DUP4 ADD MSTORE SWAP1 RETURN JUMPDEST SUB SWAP1 RETURN JUMPDEST PUSH2 0x100 CALLDATASIZE PUSH1 0x3 NOT ADD SLT PUSH3 0x104 JUMPI PUSH1 0x4 CALLDATALOAD PUSH1 0x1 PUSH1 0x1 PUSH1 0x40 SHL SUB DUP2 GT PUSH3 0x104 JUMPI PUSH3 0x1AF SWAP1 CALLDATASIZE SWAP1 PUSH1 0x4 ADD PUSH3 0x10E6 JUMP JUMPDEST PUSH1 0x24 CALLDATALOAD PUSH1 0x1 PUSH1 0x1 PUSH1 0x40 SHL SUB DUP2 GT PUSH3 0x104 JUMPI PUSH3 0x1D1 SWAP1 CALLDATASIZE SWAP1 PUSH1 0x4 ADD PUSH3 0x10E6 JUMP JUMPDEST PUSH1 0x44 CALLDATALOAD PUSH1 0x1 PUSH1 0x1 PUSH1 0x40 SHL SUB DUP2 GT PUSH3 0x104 JUMPI PUSH3 0x1F3 SWAP1 CALLDATASIZE SWAP1 PUSH1 0x4 ADD PUSH3 0x10E6 JUMP JUMPDEST PUSH1 0x64 CALLDATALOAD PUSH1 0x1 PUSH1 0x1 PUSH1 0x40 SHL SUB DUP2 GT PUSH3 0x104 JUMPI PUSH3 0x215 SWAP1 CALLDATASIZE SWAP1 PUSH1 0x4 ADD PUSH3 0x10E6 JUMP JUMPDEST SWAP3 PUSH1 0x84 CALLDATALOAD SWAP3 PUSH1 0x1 PUSH1 0x1 PUSH1 0x40 SHL SUB DUP5 GT PUSH3 0x104 JUMPI CALLDATASIZE PUSH1 0x23 DUP6 ADD SLT ISZERO PUSH3 0x104 JUMPI PUSH1 0x40 MLOAD SWAP4 PUSH3 0x244 DUP6 PUSH3 0xEBD JUMP JUMPDEST DUP5 SWAP1 PUSH1 0x84 DUP2 ADD SWAP1 CALLDATASIZE DUP3 GT PUSH3 0x104 JUMPI DUP1 PUSH1 0x4 ADD SWAP3 JUMPDEST DUP3 DUP5 LT PUSH3 0x94E JUMPI POP POP PUSH1 0xE4 CALLDATALOAD SWAP3 SWAP2 POP POP PUSH1 0x1 PUSH1 0x1 PUSH1 0xA0 SHL SUB DUP3 AND DUP3 SUB PUSH3 0x104 JUMPI PUSH1 0x5 SLOAD CALLVALUE LT PUSH3 0x909 JUMPI PUSH1 0x40 MLOAD PUSH2 0xFF5 DUP2 DUP2 DUP2 ADD LT PUSH1 0x1 PUSH1 0x1 PUSH1 0x40 SHL SUB DUP3 DUP5 ADD GT OR PUSH3 0x72F JUMPI DUP1 DUP3 SWAP2 PUSH3 0x1E64 DUP4 CODECOPY PUSH1 0x80 DUP2 DUP4 ADD MSTORE PUSH3 0x2D9 PUSH3 0x2C6 PUSH1 0x80 DUP4 DUP6 ADD ADD DUP9 PUSH3 0xFAC JUMP JUMPDEST DUP3 DUP5 ADD DUP2 SUB PUSH1 0x20 DUP5 DUP7 ADD ADD MSTORE DUP6 PUSH3 0xFAC JUMP JUMPDEST SWAP1 PUSH1 0xA4 CALLDATALOAD PUSH1 0x40 DUP3 DUP6 ADD ADD MSTORE PUSH1 0x60 PUSH1 0xC4 CALLDATALOAD SWAP2 DUP5 ADD ADD MSTORE SUB SWAP1 PUSH1 0x0 CREATE SWAP5 DUP6 ISZERO PUSH3 0x849 JUMPI PUSH1 0x3 SLOAD PUSH1 0x40 MLOAD PUSH4 0x15AB88C9 PUSH1 0xE3 SHL DUP2 MSTORE SWAP6 SWAP1 PUSH1 0x20 SWAP1 DUP8 SWAP1 PUSH1 0x4 SWAP1 DUP3 SWAP1 PUSH1 0x1 PUSH1 0x1 PUSH1 0xA0 SHL SUB AND GAS STATICCALL SWAP6 DUP7 ISZERO PUSH3 0x849 JUMPI PUSH3 0x379 SWAP7 PUSH1 0x20 SWAP2 PUSH1 0x0 SWAP2 PUSH3 0x8E7 JUMPI JUMPDEST POP PUSH1 0x1 SLOAD PUSH1 0x40 MLOAD PUSH4 0x64E329CB PUSH1 0xE1 SHL DUP2 MSTORE PUSH1 0x1 PUSH1 0x1 PUSH1 0xA0 SHL SUB DUP12 DUP2 AND PUSH1 0x4 DUP4 ADD MSTORE SWAP3 DUP4 AND PUSH1 0x24 DUP3 ADD MSTORE SWAP9 DUP10 SWAP3 SWAP1 SWAP2 AND SWAP1 DUP3 SWAP1 PUSH1 0x0 SWAP1 DUP3 SWAP1 PUSH1 0x44 DUP3 ADD SWAP1 JUMP JUMPDEST SUB SWAP3 GAS CALL SWAP6 DUP7 ISZERO PUSH3 0x849 JUMPI PUSH1 0x0 SWAP7 PUSH3 0x8AF JUMPI JUMPDEST POP PUSH1 0x3 SLOAD PUSH1 0x40 MLOAD PUSH4 0x313CE567 PUSH1 0xE0 SHL DUP2 MSTORE SWAP1 PUSH1 0x1 PUSH1 0x1 PUSH1 0xA0 SHL SUB SWAP1 DUP2 AND SWAP1 PUSH1 0x20 SWAP1 DUP4 SWAP1 PUSH1 0x4 SWAP1 DUP3 SWAP1 DUP14 AND GAS STATICCALL DUP1 ISZERO PUSH3 0x849 JUMPI PUSH3 0x3DF PUSH3 0x3E8 SWAP2 PUSH3 0x3FA SWAP5 PUSH1 0x0 SWAP2 PUSH3 0x88B JUMPI JUMPDEST POP PUSH3 0x1247 JUMP JUMPDEST PUSH1 0xA4 CALLDATALOAD PUSH3 0x126F JUMP JUMPDEST SWAP1 PUSH1 0x1 PUSH1 0x1 PUSH1 0xA0 SHL SUB DUP11 AND SWAP1 PUSH3 0x116E JUMP JUMPDEST ISZERO PUSH3 0x104 JUMPI PUSH1 0x64 PUSH3 0x410 CALLVALUE PUSH1 0x7 SLOAD PUSH3 0x126F JUMP JUMPDEST DIV SWAP8 PUSH1 0x4 PUSH3 0x420 DUP11 CALLVALUE PUSH3 0x1283 JUMP JUMPDEST PUSH1 0x3 SLOAD PUSH1 0x40 MLOAD PUSH4 0x313CE567 PUSH1 0xE0 SHL DUP2 MSTORE SWAP2 SWAP12 SWAP2 SWAP3 PUSH1 0x1 PUSH1 0x1 PUSH1 0xA0 SHL SUB SWAP2 DUP3 AND SWAP3 SWAP2 PUSH1 0x20 SWAP2 DUP6 SWAP2 DUP3 SWAP1 DUP16 AND GAS STATICCALL SWAP2 DUP3 ISZERO PUSH3 0x849 JUMPI DUP12 PUSH3 0x474 PUSH3 0x3DF PUSH1 0x40 SWAP6 PUSH3 0x4A3 SWAP8 PUSH1 0x0 SWAP2 PUSH3 0x855 JUMPI POP PUSH3 0x1247 JUMP JUMPDEST DUP5 MLOAD PUSH4 0xE505AA9 PUSH1 0xE3 SHL DUP2 MSTORE PUSH1 0x1 PUSH1 0x1 PUSH1 0xA0 SHL SUB SWAP1 SWAP3 AND PUSH1 0x4 DUP4 ADD MSTORE PUSH1 0x24 DUP3 ADD MSTORE SWAP4 DUP5 SWAP3 DUP4 SWAP2 DUP3 SWAP1 PUSH1 0x44 DUP3 ADD SWAP1 JUMP JUMPDEST SUB SWAP3 GAS CALL DUP1 ISZERO PUSH3 0x849 JUMPI PUSH3 0x818 JUMPI JUMPDEST POP CALLER PUSH1 0x0 SWAP1 DUP2 MSTORE PUSH1 0x8 PUSH1 0x20 MSTORE PUSH1 0x40 SWAP1 KECCAK256 PUSH1 0x1 DUP2 ADD SLOAD SWAP1 SWAP10 SWAP1 PUSH1 0x1 PUSH1 0x1 PUSH1 0xA0 SHL SUB AND DUP1 ISZERO PUSH3 0x75B JUMPI POP PUSH1 0x4 SLOAD PUSH1 0x0 SWAP2 DUP3 SWAP2 DUP3 SWAP2 DUP3 SWAP2 PUSH1 0x1 PUSH1 0x1 PUSH1 0xA0 SHL SUB AND GAS CALL PUSH3 0x4FE PUSH3 0x1291 JUMP JUMPDEST POP ISZERO PUSH3 0x104 JUMPI JUMPDEST DUP3 MLOAD SWAP1 PUSH1 0x20 DUP5 ADD MLOAD SWAP3 PUSH1 0x60 PUSH1 0x40 DUP7 ADD MLOAD SWAP6 ADD MLOAD SWAP6 PUSH1 0x40 MLOAD SWAP9 DUP10 PUSH2 0x160 DUP2 ADD LT PUSH1 0x1 PUSH1 0x1 PUSH1 0x40 SHL SUB PUSH2 0x160 DUP13 ADD GT OR PUSH3 0x72F JUMPI PUSH2 0x160 DUP11 ADD PUSH1 0x40 MSTORE PUSH1 0x1 DUP1 PUSH1 0xA0 SHL SUB DUP13 AND DUP11 MSTORE PUSH1 0x1 DUP1 PUSH1 0xA0 SHL SUB DUP12 AND PUSH1 0x20 DUP12 ADD MSTORE PUSH1 0x40 DUP11 ADD MSTORE PUSH1 0x60 DUP10 ADD MSTORE PUSH1 0xA4 CALLDATALOAD PUSH1 0x80 DUP10 ADD MSTORE PUSH1 0xA0 DUP9 ADD MSTORE PUSH1 0xC0 DUP8 ADD MSTORE PUSH1 0xE0 DUP7 ADD MSTORE PUSH2 0x100 DUP6 ADD MSTORE PUSH2 0x120 DUP5 ADD MSTORE PUSH2 0x140 DUP4 ADD MSTORE PUSH1 0x1 DUP1 PUSH1 0xA0 SHL SUB DUP5 AND PUSH1 0x0 MSTORE PUSH1 0xA PUSH1 0x20 MSTORE PUSH3 0x5AE DUP3 PUSH1 0x40 PUSH1 0x0 KECCAK256 PUSH3 0x12DF JUMP JUMPDEST PUSH1 0xB SLOAD PUSH1 0x1 PUSH1 0x40 SHL SWAP1 DUP2 DUP2 LT ISZERO PUSH3 0x72F JUMPI PUSH1 0x1 DUP2 ADD DUP1 PUSH1 0xB SSTORE DUP2 LT ISZERO PUSH3 0x745 JUMPI DUP4 PUSH1 0xB PUSH3 0x605 SWAP3 DUP2 PUSH1 0x0 MSTORE MUL PUSH32 0x175B7A638427703F0DBE7BB9BBF987A2551717B34E79F33B5B1008D1FA01DB9 ADD PUSH3 0x12DF JUMP JUMPDEST PUSH3 0x610 CALLER PUSH3 0x1B89 JUMP JUMPDEST ISZERO PUSH3 0x68B JUMPI POP POP PUSH3 0x629 SWAP1 PUSH1 0x3 PUSH1 0x60 SWAP6 ADD PUSH3 0x1B52 JUMP JUMPDEST PUSH1 0xB SLOAD PUSH1 0x40 MLOAD DUP2 DUP2 MSTORE SWAP1 SWAP2 SWAP1 PUSH1 0x1 PUSH1 0x1 PUSH1 0xA0 SHL SUB DUP1 DUP4 AND SWAP2 SWAP1 DUP6 AND SWAP1 PUSH32 0x714AA39317AD9A7A7A99DB52B44490DA5D068A0B2710FFFB1A1282AD3CADAE1F SWAP1 PUSH1 0x20 SWAP1 LOG3 PUSH1 0x40 DUP1 MLOAD PUSH1 0x1 PUSH1 0x1 PUSH1 0xA0 SHL SUB SWAP5 DUP6 AND DUP2 MSTORE SWAP2 SWAP1 SWAP4 AND PUSH1 0x20 DUP3 ADD MSTORE SWAP2 DUP3 ADD MSTORE RETURN JUMPDEST PUSH1 0x40 MLOAD SWAP3 SWAP2 PUSH3 0x69B DUP5 PUSH3 0xEBD JUMP JUMPDEST CALLER DUP5 MSTORE PUSH1 0x1 DUP1 PUSH1 0xA0 SHL SUB AND PUSH1 0x20 DUP5 ADD MSTORE PUSH1 0x60 PUSH1 0x40 DUP5 ADD MSTORE PUSH1 0x60 DUP1 DUP5 ADD MSTORE CALLER PUSH1 0x0 MSTORE PUSH1 0x8 PUSH1 0x20 MSTORE PUSH3 0x6D1 DUP4 PUSH1 0x40 PUSH1 0x0 KECCAK256 PUSH3 0x1C20 JUMP JUMPDEST PUSH1 0x9 SLOAD SWAP1 DUP2 LT ISZERO PUSH3 0x72F JUMPI DUP1 PUSH1 0x1 PUSH3 0x6EF SWAP3 ADD PUSH1 0x9 SSTORE PUSH3 0x1133 JUMP JUMPDEST SWAP3 SWAP1 SWAP3 PUSH3 0x719 JUMPI PUSH1 0x60 SWAP6 PUSH3 0x70C PUSH1 0x3 SWAP3 PUSH3 0x713 SWAP6 PUSH3 0x1C20 JUMP JUMPDEST ADD PUSH3 0x1B52 JUMP JUMPDEST PUSH3 0x629 JUMP JUMPDEST PUSH4 0x4E487B71 PUSH1 0xE0 SHL PUSH1 0x0 MSTORE PUSH1 0x0 PUSH1 0x4 MSTORE PUSH1 0x24 PUSH1 0x0 REVERT JUMPDEST PUSH4 0x4E487B71 PUSH1 0xE0 SHL PUSH1 0x0 MSTORE PUSH1 0x41 PUSH1 0x4 MSTORE PUSH1 0x24 PUSH1 0x0 REVERT JUMPDEST PUSH4 0x4E487B71 PUSH1 0xE0 SHL PUSH1 0x0 MSTORE PUSH1 0x32 PUSH1 0x4 MSTORE PUSH1 0x24 PUSH1 0x0 REVERT JUMPDEST PUSH1 0x0 MSTORE PUSH1 0x2 PUSH1 0x40 PUSH1 0x0 KECCAK256 ADD DUP1 SLOAD SWAP2 PUSH1 0x1 PUSH1 0x40 SHL DUP4 LT ISZERO PUSH3 0x72F JUMPI PUSH1 0x1 DUP4 ADD DUP1 DUP4 SSTORE DUP4 LT ISZERO PUSH3 0x745 JUMPI PUSH1 0x0 DUP1 DUP1 SWAP4 SWAP3 DUP15 SWAP6 DUP3 SWAP5 DUP4 MSTORE PUSH1 0x20 DUP4 KECCAK256 ADD CALLER PUSH12 0xFFFFFFFFFFFFFFFFFFFFFFFF PUSH1 0xA0 SHL DUP3 SLOAD AND OR SWAP1 SSTORE PUSH3 0x7CA PUSH1 0x64 PUSH3 0x7C1 DUP4 PUSH1 0x6 SLOAD PUSH3 0x126F JUMP JUMPDEST DIV DUP1 SWAP3 PUSH3 0x1283 JUMP JUMPDEST PUSH1 0x1 SWAP1 SWAP7 ADD SLOAD PUSH1 0x1 PUSH1 0x1 PUSH1 0xA0 SHL SUB AND GAS CALL PUSH3 0x7E5 PUSH3 0x1291 JUMP JUMPDEST POP ISZERO PUSH3 0x104 JUMPI PUSH1 0x4 SLOAD PUSH1 0x0 SWAP2 DUP3 SWAP2 DUP3 SWAP2 DUP3 SWAP2 PUSH1 0x1 PUSH1 0x1 PUSH1 0xA0 SHL SUB AND GAS CALL PUSH3 0x80D PUSH3 0x1291 JUMP JUMPDEST POP PUSH3 0x506 JUMPI PUSH1 0x0 DUP1 REVERT JUMPDEST PUSH1 0x40 SWAP1 DUP2 RETURNDATASIZE DUP4 GT PUSH3 0x841 JUMPI JUMPDEST PUSH3 0x831 DUP2 DUP4 PUSH3 0xED9 JUMP JUMPDEST DUP2 ADD SUB SLT PUSH3 0x104 JUMPI DUP10 PUSH3 0x4B4 JUMP JUMPDEST POP RETURNDATASIZE PUSH3 0x825 JUMP JUMPDEST PUSH1 0x40 MLOAD RETURNDATASIZE PUSH1 0x0 DUP3 RETURNDATACOPY RETURNDATASIZE SWAP1 REVERT JUMPDEST PUSH3 0x87C SWAP2 POP PUSH1 0x20 RETURNDATASIZE PUSH1 0x20 GT PUSH3 0x883 JUMPI JUMPDEST PUSH3 0x873 DUP2 DUP4 PUSH3 0xED9 JUMP JUMPDEST DUP2 ADD SWAP1 PUSH3 0x122C JUMP JUMPDEST CODESIZE PUSH3 0x3D8 JUMP JUMPDEST POP RETURNDATASIZE PUSH3 0x867 JUMP JUMPDEST PUSH3 0x8A8 SWAP2 POP PUSH1 0x20 RETURNDATASIZE PUSH1 0x20 GT PUSH3 0x883 JUMPI PUSH3 0x873 DUP2 DUP4 PUSH3 0xED9 JUMP JUMPDEST DUP14 PUSH3 0x3D8 JUMP JUMPDEST PUSH3 0x8D7 SWAP2 SWAP7 POP PUSH1 0x20 RETURNDATASIZE PUSH1 0x20 GT PUSH3 0x8DF JUMPI JUMPDEST PUSH3 0x8CE DUP2 DUP4 PUSH3 0xED9 JUMP JUMPDEST DUP2 ADD SWAP1 PUSH3 0x120B JUMP JUMPDEST SWAP5 DUP9 PUSH3 0x38E JUMP JUMPDEST POP RETURNDATASIZE PUSH3 0x8C2 JUMP JUMPDEST PUSH3 0x902 SWAP2 POP DUP3 RETURNDATASIZE DUP5 GT PUSH3 0x8DF JUMPI PUSH3 0x8CE DUP2 DUP4 PUSH3 0xED9 JUMP JUMPDEST DUP11 PUSH3 0x33B JUMP JUMPDEST PUSH1 0x40 MLOAD PUSH3 0x461BCD PUSH1 0xE5 SHL DUP2 MSTORE PUSH1 0x20 PUSH1 0x4 DUP3 ADD MSTORE PUSH1 0x19 PUSH1 0x24 DUP3 ADD MSTORE PUSH32 0x496E73756666696369656E7420616D6F756E742073656E742E00000000000000 PUSH1 0x44 DUP3 ADD MSTORE PUSH1 0x64 SWAP1 REVERT JUMPDEST DUP4 CALLDATALOAD PUSH1 0x1 PUSH1 0x1 PUSH1 0x40 SHL SUB DUP2 GT PUSH3 0x104 JUMPI PUSH1 0x20 SWAP2 PUSH3 0x975 DUP4 SWAP3 PUSH1 0x4 CALLDATASIZE SWAP2 DUP8 ADD ADD PUSH3 0x10E6 JUMP JUMPDEST DUP2 MSTORE ADD SWAP4 ADD SWAP3 PUSH3 0x259 JUMP JUMPDEST CALLVALUE PUSH3 0x104 JUMPI PUSH1 0x20 CALLDATASIZE PUSH1 0x3 NOT ADD SLT PUSH3 0x104 JUMPI PUSH1 0x1 PUSH1 0x1 PUSH1 0xA0 SHL SUB DUP1 PUSH3 0x9A7 PUSH3 0x10B3 JUMP JUMPDEST AND PUSH1 0x0 SWAP1 DUP2 MSTORE PUSH1 0x8 PUSH1 0x20 SWAP1 DUP2 MSTORE PUSH1 0x40 SWAP2 DUP3 SWAP1 KECCAK256 DUP1 SLOAD PUSH1 0x1 SWAP1 SWAP2 ADD SLOAD DUP4 MLOAD PUSH1 0x1 PUSH1 0x1 PUSH1 0xA0 SHL SUB SWAP3 DUP7 AND DUP4 AND DUP2 MSTORE SWAP5 AND AND SWAP1 DUP4 ADD MSTORE SWAP1 RETURN JUMPDEST CALLVALUE PUSH3 0x104 JUMPI PUSH1 0x0 CALLDATASIZE PUSH1 0x3 NOT ADD SLT PUSH3 0x104 JUMPI PUSH1 0x20 PUSH1 0x7 SLOAD PUSH1 0x40 MLOAD SWAP1 DUP2 MSTORE RETURN JUMPDEST CALLVALUE PUSH3 0x104 JUMPI PUSH1 0x20 CALLDATASIZE PUSH1 0x3 NOT ADD SLT PUSH3 0x104 JUMPI PUSH1 0x20 PUSH1 0x4 CALLDATALOAD DUP1 PUSH1 0x7 SSTORE PUSH1 0x40 MLOAD SWAP1 DUP2 MSTORE RETURN JUMPDEST CALLVALUE PUSH3 0x104 JUMPI PUSH1 0x0 CALLDATASIZE PUSH1 0x3 NOT ADD SLT PUSH3 0x104 JUMPI PUSH1 0x20 PUSH1 0x6 SLOAD PUSH1 0x40 MLOAD SWAP1 DUP2 MSTORE RETURN JUMPDEST CALLVALUE PUSH3 0x104 JUMPI PUSH1 0x0 CALLDATASIZE PUSH1 0x3 NOT ADD SLT PUSH3 0x104 JUMPI PUSH1 0x20 PUSH1 0x40 MLOAD PUSH1 0x0 DUP2 MSTORE RETURN JUMPDEST CALLVALUE PUSH3 0x104 JUMPI PUSH1 0x20 CALLDATASIZE PUSH1 0x3 NOT ADD SLT PUSH3 0x104 JUMPI PUSH1 0x20 PUSH1 0x4 CALLDATALOAD DUP1 PUSH1 0x5 SSTORE PUSH1 0x40 MLOAD SWAP1 DUP2 MSTORE RETURN JUMPDEST CALLVALUE PUSH3 0x104 JUMPI PUSH1 0x20 CALLDATASIZE PUSH1 0x3 NOT ADD SLT PUSH3 0x104 JUMPI PUSH1 0x1 PUSH1 0x1 PUSH1 0xA0 SHL SUB DUP1 PUSH3 0xAA9 PUSH3 0x10B3 JUMP JUMPDEST AND PUSH1 0x0 MSTORE PUSH1 0xA PUSH1 0x20 MSTORE PUSH1 0x40 PUSH1 0x0 KECCAK256 SWAP1 PUSH3 0x17B DUP2 DUP4 SLOAD AND SWAP2 PUSH1 0x1 DUP5 ADD SLOAD AND SWAP3 PUSH3 0xAD6 PUSH1 0x2 DUP3 ADD PUSH3 0xEFB JUMP JUMPDEST SWAP1 PUSH3 0xAE5 PUSH1 0x3 DUP3 ADD PUSH3 0xEFB JUMP JUMPDEST PUSH1 0x4 DUP3 ADD SLOAD PUSH3 0xAF8 PUSH1 0x5 DUP5 ADD PUSH3 0xEFB JUMP JUMPDEST PUSH3 0xB06 PUSH1 0x6 DUP6 ADD PUSH3 0xEFB JUMP JUMPDEST SWAP1 PUSH3 0xB15 PUSH1 0x7 DUP7 ADD PUSH3 0xEFB JUMP JUMPDEST SWAP3 PUSH3 0xB24 PUSH1 0x8 DUP8 ADD PUSH3 0xEFB JUMP JUMPDEST SWAP5 PUSH3 0xB41 PUSH1 0xA PUSH3 0xB39 PUSH1 0x9 DUP11 ADD PUSH3 0xEFB JUMP JUMPDEST SWAP9 ADD PUSH3 0xEFB JUMP JUMPDEST SWAP8 PUSH1 0x40 MLOAD SWAP12 DUP13 SWAP12 DUP13 PUSH3 0xFEE JUMP JUMPDEST CALLVALUE PUSH3 0x104 JUMPI PUSH1 0x60 CALLDATASIZE PUSH1 0x3 NOT ADD SLT PUSH3 0x104 JUMPI PUSH3 0xB6C PUSH3 0x10B3 JUMP JUMPDEST PUSH1 0x24 CALLDATALOAD PUSH1 0x1 PUSH1 0x1 PUSH1 0xA0 SHL SUB DUP2 AND DUP2 SUB PUSH3 0x104 JUMPI PUSH1 0x20 SWAP2 PUSH3 0xB92 SWAP2 PUSH1 0x44 CALLDATALOAD SWAP2 PUSH3 0x116E JUMP JUMPDEST PUSH1 0x40 MLOAD SWAP1 ISZERO ISZERO DUP2 MSTORE RETURN JUMPDEST CALLVALUE PUSH3 0x104 JUMPI PUSH1 0x20 CALLDATASIZE PUSH1 0x3 NOT ADD SLT PUSH3 0x104 JUMPI PUSH1 0x4 CALLDATALOAD PUSH1 0xB SLOAD DUP2 LT ISZERO PUSH3 0x104 JUMPI PUSH1 0xB SWAP1 DUP2 PUSH1 0x0 MSTORE MUL PUSH1 0x1 DUP1 PUSH1 0xA0 SHL SUB PUSH3 0x17B DUP2 DUP4 PUSH32 0x175B7A638427703F0DBE7BB9BBF987A2551717B34E79F33B5B1008D1FA01DB9 ADD SLOAD AND SWAP2 PUSH32 0x175B7A638427703F0DBE7BB9BBF987A2551717B34E79F33B5B1008D1FA01DBA DUP5 ADD SLOAD AND SWAP3 PUSH3 0xC4A PUSH32 0x175B7A638427703F0DBE7BB9BBF987A2551717B34E79F33B5B1008D1FA01DBB DUP3 ADD PUSH3 0xEFB JUMP JUMPDEST SWAP1 PUSH3 0xC78 PUSH32 0x175B7A638427703F0DBE7BB9BBF987A2551717B34E79F33B5B1008D1FA01DBC DUP3 ADD PUSH3 0xEFB JUMP JUMPDEST PUSH32 0x175B7A638427703F0DBE7BB9BBF987A2551717B34E79F33B5B1008D1FA01DBD DUP3 ADD SLOAD PUSH3 0xCC9 PUSH32 0x175B7A638427703F0DBE7BB9BBF987A2551717B34E79F33B5B1008D1FA01DBE DUP5 ADD PUSH3 0xEFB JUMP JUMPDEST PUSH3 0xCF6 PUSH32 0x175B7A638427703F0DBE7BB9BBF987A2551717B34E79F33B5B1008D1FA01DBF DUP6 ADD PUSH3 0xEFB JUMP JUMPDEST SWAP1 PUSH3 0xD24 PUSH32 0x175B7A638427703F0DBE7BB9BBF987A2551717B34E79F33B5B1008D1FA01DC0 DUP7 ADD PUSH3 0xEFB JUMP JUMPDEST SWAP3 PUSH3 0xD52 PUSH32 0x175B7A638427703F0DBE7BB9BBF987A2551717B34E79F33B5B1008D1FA01DC1 DUP8 ADD PUSH3 0xEFB JUMP JUMPDEST SWAP5 PUSH3 0xB41 PUSH32 0x175B7A638427703F0DBE7BB9BBF987A2551717B34E79F33B5B1008D1FA01DC3 PUSH3 0xB39 PUSH32 0x175B7A638427703F0DBE7BB9BBF987A2551717B34E79F33B5B1008D1FA01DC2 DUP11 ADD PUSH3 0xEFB JUMP JUMPDEST CALLVALUE PUSH3 0x104 JUMPI PUSH1 0x0 CALLDATASIZE PUSH1 0x3 NOT ADD SLT PUSH3 0x104 JUMPI PUSH1 0x20 PUSH1 0x40 MLOAD PUSH10 0x152D02C7E14AF6800000 DUP2 MSTORE RETURN JUMPDEST CALLVALUE PUSH3 0x104 JUMPI PUSH1 0x0 CALLDATASIZE PUSH1 0x3 NOT ADD SLT PUSH3 0x104 JUMPI PUSH1 0x0 SLOAD PUSH1 0x40 MLOAD PUSH1 0x1 PUSH1 0x1 PUSH1 0xA0 SHL SUB SWAP1 SWAP2 AND DUP2 MSTORE PUSH1 0x20 SWAP1 RETURN JUMPDEST CALLVALUE PUSH3 0x104 JUMPI PUSH1 0x0 CALLDATASIZE PUSH1 0x3 NOT ADD SLT PUSH3 0x104 JUMPI PUSH1 0x0 SLOAD PUSH1 0x1 PUSH1 0x1 PUSH1 0xA0 SHL SUB SWAP2 SWAP1 DUP3 AND CALLER SUB PUSH3 0xE2F JUMPI PUSH1 0x20 DUP3 PUSH1 0x4 SLOAD AND PUSH1 0x40 MLOAD SWAP1 DUP2 MSTORE RETURN JUMPDEST PUSH3 0x461BCD PUSH1 0xE5 SHL DUP2 MSTORE PUSH1 0x20 PUSH1 0x4 DUP3 ADD MSTORE PUSH1 0x26 PUSH1 0x24 DUP3 ADD MSTORE PUSH32 0x4F6E6C7920746865206F776E65722063616E2063616C6C20746869732066756E PUSH1 0x44 DUP3 ADD MSTORE PUSH6 0x31BA34B7B717 PUSH1 0xD1 SHL PUSH1 0x64 DUP3 ADD MSTORE PUSH1 0x84 SWAP1 REVERT JUMPDEST SWAP1 PUSH1 0x1 DUP3 DUP2 SHR SWAP3 AND DUP1 ISZERO PUSH3 0xEB2 JUMPI JUMPDEST PUSH1 0x20 DUP4 LT EQ PUSH3 0xE9C JUMPI JUMP JUMPDEST PUSH4 0x4E487B71 PUSH1 0xE0 SHL PUSH1 0x0 MSTORE PUSH1 0x22 PUSH1 0x4 MSTORE PUSH1 0x24 PUSH1 0x0 REVERT JUMPDEST SWAP2 PUSH1 0x7F AND SWAP2 PUSH3 0xE90 JUMP JUMPDEST PUSH1 0x80 DUP2 ADD SWAP1 DUP2 LT PUSH1 0x1 PUSH1 0x1 PUSH1 0x40 SHL SUB DUP3 GT OR PUSH3 0x72F JUMPI PUSH1 0x40 MSTORE JUMP JUMPDEST SWAP1 PUSH1 0x1F DUP1 NOT SWAP2 ADD AND DUP2 ADD SWAP1 DUP2 LT PUSH1 0x1 PUSH1 0x1 PUSH1 0x40 SHL SUB DUP3 GT OR PUSH3 0x72F JUMPI PUSH1 0x40 MSTORE JUMP JUMPDEST SWAP1 PUSH1 0x40 MLOAD SWAP2 DUP3 PUSH1 0x0 DUP3 SLOAD PUSH3 0xF10 DUP2 PUSH3 0xE80 JUMP JUMPDEST SWAP1 DUP2 DUP5 MSTORE PUSH1 0x20 SWAP5 PUSH1 0x1 SWAP2 PUSH1 0x1 DUP2 AND SWAP1 DUP2 PUSH1 0x0 EQ PUSH3 0xF88 JUMPI POP PUSH1 0x1 EQ PUSH3 0xF45 JUMPI JUMPDEST POP POP POP PUSH3 0xF43 SWAP3 POP SUB DUP4 PUSH3 0xED9 JUMP JUMPDEST JUMP JUMPDEST PUSH1 0x0 SWAP1 DUP2 MSTORE DUP6 DUP2 KECCAK256 SWAP6 SWAP4 POP SWAP2 SWAP1 JUMPDEST DUP2 DUP4 LT PUSH3 0xF6F JUMPI POP POP PUSH3 0xF43 SWAP4 POP DUP3 ADD ADD CODESIZE DUP1 DUP1 PUSH3 0xF32 JUMP JUMPDEST DUP6 SLOAD DUP9 DUP5 ADD DUP6 ADD MSTORE SWAP5 DUP6 ADD SWAP5 DUP8 SWAP5 POP SWAP2 DUP4 ADD SWAP2 PUSH3 0xF53 JUMP JUMPDEST SWAP3 POP POP POP PUSH3 0xF43 SWAP5 SWAP3 POP PUSH1 0xFF NOT AND DUP3 DUP5 ADD MSTORE ISZERO ISZERO PUSH1 0x5 SHL DUP3 ADD ADD CODESIZE DUP1 DUP1 PUSH3 0xF32 JUMP JUMPDEST SWAP2 SWAP1 DUP3 MLOAD SWAP3 DUP4 DUP3 MSTORE PUSH1 0x0 JUMPDEST DUP5 DUP2 LT PUSH3 0xFD9 JUMPI POP POP DUP3 PUSH1 0x0 PUSH1 0x20 DUP1 SWAP5 SWAP6 DUP5 ADD ADD MSTORE PUSH1 0x1F DUP1 NOT SWAP2 ADD AND ADD ADD SWAP1 JUMP JUMPDEST PUSH1 0x20 DUP2 DUP4 ADD DUP2 ADD MLOAD DUP5 DUP4 ADD DUP3 ADD MSTORE ADD PUSH3 0xFB7 JUMP JUMPDEST SWAP10 SWAP7 SWAP1 DUP11 PUSH3 0x1090 SWAP8 PUSH3 0x10B0 SWAP14 SWAP12 SWAP8 PUSH1 0x80 PUSH3 0x1051 PUSH3 0x1080 SWAP10 PUSH3 0x1042 PUSH3 0x10A0 SWAP16 SWAP11 PUSH3 0x1071 SWAP11 PUSH3 0x1062 SWAP10 PUSH2 0x160 SWAP2 PUSH1 0x1 DUP1 PUSH1 0xA0 SHL SUB DUP1 SWAP3 AND DUP12 MSTORE AND PUSH1 0x20 DUP11 ADD MSTORE DUP1 PUSH1 0x40 DUP11 ADD MSTORE DUP9 ADD SWAP1 PUSH3 0xFAC JUMP JUMPDEST SWAP1 DUP7 DUP3 SUB PUSH1 0x60 DUP9 ADD MSTORE PUSH3 0xFAC JUMP JUMPDEST SWAP4 ADD MSTORE DUP13 DUP3 SUB PUSH1 0xA0 DUP15 ADD MSTORE PUSH3 0xFAC JUMP JUMPDEST SWAP1 DUP11 DUP3 SUB PUSH1 0xC0 DUP13 ADD MSTORE PUSH3 0xFAC JUMP JUMPDEST SWAP1 DUP9 DUP3 SUB PUSH1 0xE0 DUP11 ADD MSTORE PUSH3 0xFAC JUMP JUMPDEST SWAP1 DUP7 DUP3 SUB PUSH2 0x100 DUP9 ADD MSTORE PUSH3 0xFAC JUMP JUMPDEST SWAP1 DUP5 DUP3 SUB PUSH2 0x120 DUP7 ADD MSTORE PUSH3 0xFAC JUMP JUMPDEST SWAP2 PUSH2 0x140 DUP2 DUP5 SUB SWAP2 ADD MSTORE PUSH3 0xFAC JUMP JUMPDEST SWAP1 JUMP JUMPDEST PUSH1 0x4 CALLDATALOAD SWAP1 PUSH1 0x1 PUSH1 0x1 PUSH1 0xA0 SHL SUB DUP3 AND DUP3 SUB PUSH3 0x104 JUMPI JUMP JUMPDEST PUSH1 0x1 PUSH1 0x1 PUSH1 0x40 SHL SUB DUP2 GT PUSH3 0x72F JUMPI PUSH1 0x1F ADD PUSH1 0x1F NOT AND PUSH1 0x20 ADD SWAP1 JUMP JUMPDEST DUP2 PUSH1 0x1F DUP3 ADD SLT ISZERO PUSH3 0x104 JUMPI DUP1 CALLDATALOAD SWAP1 PUSH3 0x1100 DUP3 PUSH3 0x10CA JUMP JUMPDEST SWAP3 PUSH3 0x1110 PUSH1 0x40 MLOAD SWAP5 DUP6 PUSH3 0xED9 JUMP JUMPDEST DUP3 DUP5 MSTORE PUSH1 0x20 DUP4 DUP4 ADD ADD GT PUSH3 0x104 JUMPI DUP2 PUSH1 0x0 SWAP3 PUSH1 0x20 DUP1 SWAP4 ADD DUP4 DUP7 ADD CALLDATACOPY DUP4 ADD ADD MSTORE SWAP1 JUMP JUMPDEST PUSH1 0x9 SLOAD DUP2 LT ISZERO PUSH3 0x745 JUMPI PUSH1 0x9 PUSH1 0x0 MSTORE PUSH1 0x2 SHL PUSH32 0x6E1540171B6C0C960B71A7020D9F60077F6AF931A8BBF590DA0223DACF75C7AF ADD SWAP1 PUSH1 0x0 SWAP1 JUMP JUMPDEST PUSH1 0x40 MLOAD PUSH4 0x95EA7B3 PUSH1 0xE0 SHL DUP2 MSTORE PUSH1 0x1 PUSH1 0x1 PUSH1 0xA0 SHL SUB SWAP2 DUP3 AND PUSH1 0x4 DUP3 ADD MSTORE PUSH1 0x24 DUP2 ADD SWAP4 SWAP1 SWAP4 MSTORE PUSH1 0x0 SWAP3 SWAP2 PUSH1 0x20 SWAP2 DUP4 SWAP2 PUSH1 0x44 SWAP2 DUP4 SWAP2 DUP8 SWAP2 AND GAS CALL DUP1 ISZERO PUSH3 0x1200 JUMPI PUSH3 0x11BA JUMPI JUMPDEST POP POP PUSH1 0x1 SWAP1 JUMP JUMPDEST PUSH1 0x20 DUP2 RETURNDATASIZE PUSH1 0x20 GT PUSH3 0x11F7 JUMPI JUMPDEST DUP2 PUSH3 0x11D6 PUSH1 0x20 SWAP4 DUP4 PUSH3 0xED9 JUMP JUMPDEST DUP2 ADD SUB SLT PUSH3 0x11F3 JUMPI MLOAD DUP1 ISZERO ISZERO SUB PUSH3 0x11F0 JUMPI DUP1 PUSH3 0x11B3 JUMP JUMPDEST DUP1 REVERT JUMPDEST POP DUP1 REVERT JUMPDEST RETURNDATASIZE SWAP2 POP PUSH3 0x11C7 JUMP JUMPDEST PUSH1 0x40 MLOAD RETURNDATASIZE DUP5 DUP3 RETURNDATACOPY RETURNDATASIZE SWAP1 REVERT JUMPDEST SWAP1 DUP2 PUSH1 0x20 SWAP2 SUB SLT PUSH3 0x104 JUMPI MLOAD PUSH1 0x1 PUSH1 0x1 PUSH1 0xA0 SHL SUB DUP2 AND DUP2 SUB PUSH3 0x104 JUMPI SWAP1 JUMP JUMPDEST SWAP1 DUP2 PUSH1 0x20 SWAP2 SUB SLT PUSH3 0x104 JUMPI MLOAD PUSH1 0xFF DUP2 AND DUP2 SUB PUSH3 0x104 JUMPI SWAP1 JUMP JUMPDEST PUSH1 0xFF AND PUSH1 0x4D DUP2 GT PUSH3 0x1259 JUMPI PUSH1 0xA EXP SWAP1 JUMP JUMPDEST PUSH4 0x4E487B71 PUSH1 0xE0 SHL PUSH1 0x0 MSTORE PUSH1 0x11 PUSH1 0x4 MSTORE PUSH1 0x24 PUSH1 0x0 REVERT JUMPDEST DUP2 DUP2 MUL SWAP3 SWAP2 DUP2 ISZERO SWAP2 DUP5 DIV EQ OR ISZERO PUSH3 0x1259 JUMPI JUMP JUMPDEST SWAP2 SWAP1 DUP3 SUB SWAP2 DUP3 GT PUSH3 0x1259 JUMPI JUMP JUMPDEST RETURNDATASIZE ISZERO PUSH3 0x12C1 JUMPI RETURNDATASIZE SWAP1 PUSH3 0x12A5 DUP3 PUSH3 0x10CA JUMP JUMPDEST SWAP2 PUSH3 0x12B5 PUSH1 0x40 MLOAD SWAP4 DUP5 PUSH3 0xED9 JUMP JUMPDEST DUP3 MSTORE RETURNDATASIZE PUSH1 0x0 PUSH1 0x20 DUP5 ADD RETURNDATACOPY JUMP JUMPDEST PUSH1 0x60 SWAP1 JUMP JUMPDEST DUP2 DUP2 LT PUSH3 0x12D2 JUMPI POP POP JUMP JUMPDEST PUSH1 0x0 DUP2 SSTORE PUSH1 0x1 ADD PUSH3 0x12C6 JUMP JUMPDEST DUP2 MLOAD DUP2 SLOAD PUSH1 0x1 PUSH1 0x1 PUSH1 0xA0 SHL SUB NOT SWAP1 DUP2 AND PUSH1 0x1 PUSH1 0x1 PUSH1 0xA0 SHL SUB SWAP3 DUP4 AND OR DUP4 SSTORE PUSH1 0x20 DUP1 DUP6 ADD MLOAD PUSH1 0x1 DUP6 DUP2 ADD DUP1 SLOAD SWAP1 SWAP5 AND SWAP2 SWAP1 SWAP5 AND OR SWAP1 SWAP2 SSTORE PUSH1 0x40 DUP5 ADD MLOAD DUP1 MLOAD SWAP1 SWAP4 PUSH1 0x1 PUSH1 0x1 PUSH1 0x40 SHL SUB SWAP4 SWAP1 SWAP3 SWAP1 SWAP2 PUSH1 0x2 DUP5 ADD SWAP1 DUP6 DUP2 GT PUSH3 0x72F JUMPI PUSH3 0x1344 DUP3 SLOAD PUSH3 0xE80 JUMP JUMPDEST SWAP7 PUSH1 0x1F SWAP8 DUP9 DUP2 GT PUSH3 0x1B20 JUMPI JUMPDEST POP DUP4 SWAP1 DUP9 DUP4 GT PUSH1 0x1 EQ PUSH3 0x1AB9 JUMPI PUSH3 0x1384 SWAP3 SWAP2 PUSH1 0x0 SWAP2 DUP4 PUSH3 0x1632 JUMPI JUMPDEST POP POP DUP2 PUSH1 0x1 SHL SWAP2 PUSH1 0x0 NOT SWAP1 PUSH1 0x3 SHL SHR NOT AND OR SWAP1 JUMP JUMPDEST SWAP1 SSTORE JUMPDEST PUSH1 0x3 DUP1 DUP5 ADD PUSH1 0x60 DUP9 ADD MLOAD DUP1 MLOAD SWAP1 DUP8 DUP3 GT PUSH3 0x72F JUMPI PUSH3 0x13A8 DUP4 SLOAD PUSH3 0xE80 JUMP JUMPDEST DUP10 DUP2 GT PUSH3 0x1A7C JUMPI JUMPDEST POP DUP5 SWAP1 DUP10 DUP4 GT PUSH1 0x1 EQ PUSH3 0x1A16 JUMPI PUSH3 0x13E3 SWAP3 SWAP2 PUSH1 0x0 SWAP2 DUP4 PUSH3 0x1632 JUMPI POP POP DUP2 PUSH1 0x1 SHL SWAP2 PUSH1 0x0 NOT SWAP1 PUSH1 0x3 SHL SHR NOT AND OR SWAP1 JUMP JUMPDEST SWAP1 SSTORE JUMPDEST PUSH1 0x4 SWAP4 PUSH1 0x80 DUP9 ADD MLOAD DUP6 DUP3 ADD SSTORE PUSH1 0x5 SWAP1 DUP2 DUP2 ADD PUSH1 0xA0 DUP11 ADD MLOAD DUP1 MLOAD SWAP1 DUP10 DUP3 GT PUSH3 0x17A9 JUMPI PUSH3 0x1414 DUP4 SLOAD PUSH3 0xE80 JUMP JUMPDEST DUP12 DUP2 GT PUSH3 0x19E6 JUMPI JUMPDEST POP DUP7 SWAP1 DUP12 DUP4 GT PUSH1 0x1 EQ PUSH3 0x1980 JUMPI PUSH3 0x144F SWAP3 SWAP2 PUSH1 0x0 SWAP2 DUP4 PUSH3 0x1632 JUMPI POP POP DUP2 PUSH1 0x1 SHL SWAP2 PUSH1 0x0 NOT SWAP1 PUSH1 0x3 SHL SHR NOT AND OR SWAP1 JUMP JUMPDEST SWAP1 SSTORE JUMPDEST PUSH1 0x6 DUP2 ADD PUSH1 0xC0 DUP11 ADD MLOAD DUP1 MLOAD SWAP1 DUP10 DUP3 GT PUSH3 0x17A9 JUMPI PUSH3 0x1472 DUP4 SLOAD PUSH3 0xE80 JUMP JUMPDEST DUP12 DUP2 GT PUSH3 0x1950 JUMPI JUMPDEST POP DUP7 SWAP1 DUP12 DUP4 GT PUSH1 0x1 EQ PUSH3 0x18EA JUMPI PUSH3 0x14AD SWAP3 SWAP2 PUSH1 0x0 SWAP2 DUP4 PUSH3 0x1632 JUMPI POP POP DUP2 PUSH1 0x1 SHL SWAP2 PUSH1 0x0 NOT SWAP1 PUSH1 0x3 SHL SHR NOT AND OR SWAP1 JUMP JUMPDEST SWAP1 SSTORE JUMPDEST PUSH1 0x7 DUP2 ADD PUSH1 0xE0 DUP11 ADD MLOAD DUP1 MLOAD SWAP1 DUP10 DUP3 GT PUSH3 0x17A9 JUMPI PUSH3 0x14D0 DUP4 SLOAD PUSH3 0xE80 JUMP JUMPDEST DUP12 DUP2 GT PUSH3 0x18BA JUMPI JUMPDEST POP DUP7 SWAP1 DUP12 DUP4 GT PUSH1 0x1 EQ PUSH3 0x1854 JUMPI PUSH3 0x150B SWAP3 SWAP2 PUSH1 0x0 SWAP2 DUP4 PUSH3 0x1632 JUMPI POP POP DUP2 PUSH1 0x1 SHL SWAP2 PUSH1 0x0 NOT SWAP1 PUSH1 0x3 SHL SHR NOT AND OR SWAP1 JUMP JUMPDEST SWAP1 SSTORE JUMPDEST PUSH1 0x8 DUP2 ADD PUSH2 0x100 DUP11 ADD MLOAD DUP1 MLOAD SWAP1 DUP10 DUP3 GT PUSH3 0x17A9 JUMPI PUSH3 0x152F DUP4 SLOAD PUSH3 0xE80 JUMP JUMPDEST DUP12 DUP2 GT PUSH3 0x1824 JUMPI JUMPDEST POP DUP7 SWAP1 DUP12 DUP4 GT PUSH1 0x1 EQ PUSH3 0x17BE JUMPI PUSH3 0x156A SWAP3 SWAP2 PUSH1 0x0 SWAP2 DUP4 PUSH3 0x1632 JUMPI POP POP DUP2 PUSH1 0x1 SHL SWAP2 PUSH1 0x0 NOT SWAP1 PUSH1 0x3 SHL SHR NOT AND OR SWAP1 JUMP JUMPDEST SWAP1 SSTORE JUMPDEST PUSH1 0x9 DUP2 ADD PUSH2 0x120 DUP11 ADD MLOAD DUP1 MLOAD SWAP1 DUP10 DUP3 GT PUSH3 0x17A9 JUMPI PUSH3 0x158E DUP4 SLOAD PUSH3 0xE80 JUMP JUMPDEST DUP12 DUP2 GT PUSH3 0x176E JUMPI JUMPDEST POP DUP7 SWAP1 DUP12 DUP4 GT PUSH1 0x1 EQ PUSH3 0x16FB JUMPI DUP3 PUSH2 0x140 SWAP6 SWAP4 PUSH1 0xA SWAP6 SWAP4 PUSH3 0x15D1 SWAP4 PUSH1 0x0 SWAP3 PUSH3 0x1632 JUMPI POP POP DUP2 PUSH1 0x1 SHL SWAP2 PUSH1 0x0 NOT SWAP1 PUSH1 0x3 SHL SHR NOT AND OR SWAP1 JUMP JUMPDEST SWAP1 SSTORE JUMPDEST ADD SWAP9 ADD MLOAD SWAP5 DUP6 MLOAD SWAP7 DUP8 GT PUSH3 0x16E6 JUMPI POP PUSH3 0x15F0 DUP9 SLOAD PUSH3 0xE80 JUMP JUMPDEST DUP8 DUP2 GT PUSH3 0x16A9 JUMPI JUMPDEST POP POP DUP2 SWAP6 DUP6 GT PUSH1 0x1 EQ PUSH3 0x163E JUMPI POP POP POP PUSH3 0x162E SWAP3 DUP3 SWAP2 PUSH1 0x0 SWAP3 PUSH3 0x1632 JUMPI POP POP DUP2 PUSH1 0x1 SHL SWAP2 PUSH1 0x0 NOT SWAP1 PUSH1 0x3 SHL SHR NOT AND OR SWAP1 JUMP JUMPDEST SWAP1 SSTORE JUMP JUMPDEST ADD MLOAD SWAP1 POP CODESIZE DUP1 PUSH3 0x136F JUMP JUMPDEST SWAP2 SWAP5 SWAP1 SWAP3 DUP5 PUSH1 0x1F NOT DUP2 AND DUP9 PUSH1 0x0 MSTORE DUP6 PUSH1 0x0 KECCAK256 SWAP6 PUSH1 0x0 SWAP1 JUMPDEST DUP10 DUP4 DUP4 LT PUSH3 0x168E JUMPI POP POP POP LT PUSH3 0x1673 JUMPI JUMPDEST POP POP POP POP DUP2 SHL ADD SWAP1 SSTORE JUMP JUMPDEST ADD MLOAD SWAP1 PUSH1 0xF8 DUP5 PUSH1 0x0 NOT SWAP3 SHL AND SHR NOT AND SWAP1 SSTORE CODESIZE DUP1 DUP1 DUP1 PUSH3 0x1668 JUMP JUMPDEST DUP6 DUP8 ADD MLOAD DUP10 SSTORE SWAP1 SWAP8 ADD SWAP7 SWAP5 DUP6 ADD SWAP5 DUP9 SWAP4 POP SWAP1 DUP2 ADD SWAP1 PUSH3 0x1655 JUMP JUMPDEST PUSH3 0x16D4 SWAP2 DUP10 PUSH1 0x0 MSTORE DUP5 PUSH1 0x0 KECCAK256 SWAP1 DUP10 DUP1 DUP11 ADD DUP3 SHR DUP4 ADD SWAP4 DUP8 DUP12 LT PUSH3 0x16DC JUMPI JUMPDEST ADD SWAP1 SHR ADD SWAP1 PUSH3 0x12C6 JUMP JUMPDEST CODESIZE DUP1 PUSH3 0x15F9 JUMP JUMPDEST SWAP4 POP DUP3 SWAP4 PUSH3 0x16C9 JUMP JUMPDEST PUSH1 0x41 SWAP1 PUSH4 0x4E487B71 PUSH1 0xE0 SHL PUSH1 0x0 MSTORE MSTORE PUSH1 0x24 PUSH1 0x0 REVERT JUMPDEST DUP9 SWAP3 SWAP2 PUSH1 0x1F NOT DUP4 AND SWAP2 DUP6 PUSH1 0x0 MSTORE DUP10 PUSH1 0x0 KECCAK256 SWAP3 PUSH1 0x0 JUMPDEST DUP12 DUP3 DUP3 LT PUSH3 0x1757 JUMPI POP POP SWAP2 PUSH2 0x140 SWAP8 SWAP6 SWAP4 SWAP2 DUP6 PUSH1 0xA SWAP9 SWAP7 SWAP5 LT PUSH3 0x173E JUMPI JUMPDEST POP POP POP DUP2 SHL ADD SWAP1 SSTORE PUSH3 0x15D4 JUMP JUMPDEST ADD MLOAD PUSH1 0x0 NOT DUP4 DUP12 SHL PUSH1 0xF8 AND SHR NOT AND SWAP1 SSTORE CODESIZE DUP1 DUP1 PUSH3 0x1730 JUMP JUMPDEST DUP4 DUP6 ADD MLOAD DUP7 SSTORE DUP14 SWAP8 SWAP1 SWAP6 ADD SWAP5 SWAP4 DUP5 ADD SWAP4 ADD PUSH3 0x1710 JUMP JUMPDEST PUSH3 0x1798 SWAP1 DUP5 PUSH1 0x0 MSTORE DUP9 PUSH1 0x0 KECCAK256 DUP14 DUP1 DUP7 ADD DUP10 SHR DUP3 ADD SWAP3 DUP12 DUP8 LT PUSH3 0x179F JUMPI JUMPDEST ADD DUP9 SHR ADD SWAP1 PUSH3 0x12C6 JUMP JUMPDEST CODESIZE PUSH3 0x1597 JUMP JUMPDEST SWAP3 POP DUP2 SWAP3 PUSH3 0x178D JUMP JUMPDEST PUSH1 0x41 DUP10 PUSH4 0x4E487B71 PUSH1 0xE0 SHL PUSH1 0x0 MSTORE MSTORE PUSH1 0x24 PUSH1 0x0 REVERT JUMPDEST DUP9 SWAP3 SWAP2 PUSH1 0x1F NOT DUP4 AND SWAP2 DUP6 PUSH1 0x0 MSTORE DUP10 PUSH1 0x0 KECCAK256 SWAP3 PUSH1 0x0 JUMPDEST DUP12 DUP3 DUP3 LT PUSH3 0x180D JUMPI POP POP DUP5 GT PUSH3 0x17F4 JUMPI JUMPDEST POP POP POP DUP2 SHL ADD SWAP1 SSTORE PUSH3 0x156D JUMP JUMPDEST ADD MLOAD PUSH1 0x0 NOT DUP4 DUP10 SHL PUSH1 0xF8 AND SHR NOT AND SWAP1 SSTORE CODESIZE DUP1 DUP1 PUSH3 0x17E6 JUMP JUMPDEST DUP4 DUP6 ADD MLOAD DUP7 SSTORE DUP14 SWAP8 SWAP1 SWAP6 ADD SWAP5 SWAP4 DUP5 ADD SWAP4 ADD PUSH3 0x17D3 JUMP JUMPDEST PUSH3 0x184D SWAP1 DUP5 PUSH1 0x0 MSTORE DUP9 PUSH1 0x0 KECCAK256 DUP14 DUP1 DUP7 ADD DUP10 SHR DUP3 ADD SWAP3 DUP12 DUP8 LT PUSH3 0x179F JUMPI ADD DUP9 SHR ADD SWAP1 PUSH3 0x12C6 JUMP JUMPDEST CODESIZE PUSH3 0x1538 JUMP JUMPDEST DUP9 SWAP3 SWAP2 PUSH1 0x1F NOT DUP4 AND SWAP2 DUP6 PUSH1 0x0 MSTORE DUP10 PUSH1 0x0 KECCAK256 SWAP3 PUSH1 0x0 JUMPDEST DUP12 DUP3 DUP3 LT PUSH3 0x18A3 JUMPI POP POP DUP5 GT PUSH3 0x188A JUMPI JUMPDEST POP POP POP DUP2 SHL ADD SWAP1 SSTORE PUSH3 0x150E JUMP JUMPDEST ADD MLOAD PUSH1 0x0 NOT DUP4 DUP10 SHL PUSH1 0xF8 AND SHR NOT AND SWAP1 SSTORE CODESIZE DUP1 DUP1 PUSH3 0x187C JUMP JUMPDEST DUP4 DUP6 ADD MLOAD DUP7 SSTORE DUP14 SWAP8 SWAP1 SWAP6 ADD SWAP5 SWAP4 DUP5 ADD SWAP4 ADD PUSH3 0x1869 JUMP JUMPDEST PUSH3 0x18E3 SWAP1 DUP5 PUSH1 0x0 MSTORE DUP9 PUSH1 0x0 KECCAK256 DUP14 DUP1 DUP7 ADD DUP10 SHR DUP3 ADD SWAP3 DUP12 DUP8 LT PUSH3 0x179F JUMPI ADD DUP9 SHR ADD SWAP1 PUSH3 0x12C6 JUMP JUMPDEST CODESIZE PUSH3 0x14D9 JUMP JUMPDEST DUP9 SWAP3 SWAP2 PUSH1 0x1F NOT DUP4 AND SWAP2 DUP6 PUSH1 0x0 MSTORE DUP10 PUSH1 0x0 KECCAK256 SWAP3 PUSH1 0x0 JUMPDEST DUP12 DUP3 DUP3 LT PUSH3 0x1939 JUMPI POP POP DUP5 GT PUSH3 0x1920 JUMPI JUMPDEST POP POP POP DUP2 SHL ADD SWAP1 SSTORE PUSH3 0x14B0 JUMP JUMPDEST ADD MLOAD PUSH1 0x0 NOT DUP4 DUP10 SHL PUSH1 0xF8 AND SHR NOT AND SWAP1 SSTORE CODESIZE DUP1 DUP1 PUSH3 0x1912 JUMP JUMPDEST DUP4 DUP6 ADD MLOAD DUP7 SSTORE DUP14 SWAP8 SWAP1 SWAP6 ADD SWAP5 SWAP4 DUP5 ADD SWAP4 ADD PUSH3 0x18FF JUMP JUMPDEST PUSH3 0x1979 SWAP1 DUP5 PUSH1 0x0 MSTORE DUP9 PUSH1 0x0 KECCAK256 DUP14 DUP1 DUP7 ADD DUP10 SHR DUP3 ADD SWAP3 DUP12 DUP8 LT PUSH3 0x179F JUMPI ADD DUP9 SHR ADD SWAP1 PUSH3 0x12C6 JUMP JUMPDEST CODESIZE PUSH3 0x147B JUMP JUMPDEST DUP9 SWAP3 SWAP2 PUSH1 0x1F NOT DUP4 AND SWAP2 DUP6 PUSH1 0x0 MSTORE DUP10 PUSH1 0x0 KECCAK256 SWAP3 PUSH1 0x0 JUMPDEST DUP12 DUP3 DUP3 LT PUSH3 0x19CF JUMPI POP POP DUP5 GT PUSH3 0x19B6 JUMPI JUMPDEST POP POP POP DUP2 SHL ADD SWAP1 SSTORE PUSH3 0x1452 JUMP JUMPDEST ADD MLOAD PUSH1 0x0 NOT DUP4 DUP10 SHL PUSH1 0xF8 AND SHR NOT AND SWAP1 SSTORE CODESIZE DUP1 DUP1 PUSH3 0x19A8 JUMP JUMPDEST DUP4 DUP6 ADD MLOAD DUP7 SSTORE DUP14 SWAP8 SWAP1 SWAP6 ADD SWAP5 SWAP4 DUP5 ADD SWAP4 ADD PUSH3 0x1995 JUMP JUMPDEST PUSH3 0x1A0F SWAP1 DUP5 PUSH1 0x0 MSTORE DUP9 PUSH1 0x0 KECCAK256 DUP14 DUP1 DUP7 ADD DUP10 SHR DUP3 ADD SWAP3 DUP12 DUP8 LT PUSH3 0x179F JUMPI ADD DUP9 SHR ADD SWAP1 PUSH3 0x12C6 JUMP JUMPDEST CODESIZE PUSH3 0x141D JUMP JUMPDEST DUP7 SWAP3 SWAP2 PUSH1 0x1F NOT DUP4 AND SWAP2 DUP6 PUSH1 0x0 MSTORE DUP8 PUSH1 0x0 KECCAK256 SWAP3 PUSH1 0x0 JUMPDEST DUP10 DUP3 DUP3 LT PUSH3 0x1A65 JUMPI POP POP DUP5 GT PUSH3 0x1A4C JUMPI JUMPDEST POP POP POP DUP2 SHL ADD SWAP1 SSTORE PUSH3 0x13E6 JUMP JUMPDEST ADD MLOAD PUSH1 0x0 NOT DUP4 DUP8 SHL PUSH1 0xF8 AND SHR NOT AND SWAP1 SSTORE CODESIZE DUP1 DUP1 PUSH3 0x1A3E JUMP JUMPDEST DUP4 DUP6 ADD MLOAD DUP7 SSTORE DUP12 SWAP8 SWAP1 SWAP6 ADD SWAP5 SWAP4 DUP5 ADD SWAP4 ADD PUSH3 0x1A2B JUMP JUMPDEST PUSH3 0x1AA8 SWAP1 DUP5 PUSH1 0x0 MSTORE DUP7 PUSH1 0x0 KECCAK256 DUP12 DUP1 DUP7 ADD PUSH1 0x5 SHR DUP3 ADD SWAP3 DUP10 DUP8 LT PUSH3 0x1AAF JUMPI JUMPDEST ADD PUSH1 0x5 SHR ADD SWAP1 PUSH3 0x12C6 JUMP JUMPDEST CODESIZE PUSH3 0x13B1 JUMP JUMPDEST SWAP3 POP DUP2 SWAP3 PUSH3 0x1A9C JUMP JUMPDEST DUP6 SWAP3 SWAP2 PUSH1 0x1F NOT DUP4 AND SWAP2 DUP6 PUSH1 0x0 MSTORE DUP7 PUSH1 0x0 KECCAK256 SWAP3 PUSH1 0x0 JUMPDEST DUP9 DUP3 DUP3 LT PUSH3 0x1B09 JUMPI POP POP DUP5 GT PUSH3 0x1AEF JUMPI JUMPDEST POP POP POP DUP2 SHL ADD SWAP1 SSTORE PUSH3 0x1387 JUMP JUMPDEST ADD MLOAD PUSH1 0x0 NOT PUSH1 0xF8 DUP5 PUSH1 0x3 SHL AND SHR NOT AND SWAP1 SSTORE CODESIZE DUP1 DUP1 PUSH3 0x1AE1 JUMP JUMPDEST DUP4 DUP6 ADD MLOAD DUP7 SSTORE DUP11 SWAP8 SWAP1 SWAP6 ADD SWAP5 SWAP4 DUP5 ADD SWAP4 ADD PUSH3 0x1ACE JUMP JUMPDEST PUSH3 0x1B4B SWAP1 DUP5 PUSH1 0x0 MSTORE DUP6 PUSH1 0x0 KECCAK256 DUP11 DUP1 DUP7 ADD PUSH1 0x5 SHR DUP3 ADD SWAP3 DUP9 DUP8 LT PUSH3 0x1AAF JUMPI ADD PUSH1 0x5 SHR ADD SWAP1 PUSH3 0x12C6 JUMP JUMPDEST CODESIZE PUSH3 0x1351 JUMP JUMPDEST SWAP1 DUP2 SLOAD PUSH1 0x1 PUSH1 0x40 SHL DUP2 LT ISZERO PUSH3 0x72F JUMPI PUSH1 0x1 DUP2 ADD DUP1 DUP5 SSTORE DUP2 LT ISZERO PUSH3 0x745 JUMPI PUSH3 0xF43 SWAP3 PUSH1 0x0 MSTORE PUSH1 0xB PUSH1 0x20 PUSH1 0x0 KECCAK256 SWAP2 MUL ADD PUSH3 0x12DF JUMP JUMPDEST PUSH1 0x9 SLOAD SWAP1 PUSH1 0x0 JUMPDEST DUP3 DUP2 LT PUSH3 0x1BA0 JUMPI POP POP POP PUSH1 0x0 SWAP1 JUMP JUMPDEST PUSH3 0x1BAB DUP2 PUSH3 0x1133 JUMP JUMPDEST POP SLOAD PUSH1 0x1 PUSH1 0x1 PUSH1 0xA0 SHL SUB DUP4 DUP2 AND SWAP2 AND EQ PUSH3 0x1BC9 JUMPI PUSH1 0x1 ADD PUSH3 0x1B90 JUMP JUMPDEST POP POP POP PUSH1 0x1 SWAP1 JUMP JUMPDEST PUSH3 0x1BDD DUP2 SLOAD PUSH3 0xE80 JUMP JUMPDEST SWAP1 DUP2 PUSH3 0x1BE8 JUMPI POP POP JUMP JUMPDEST DUP2 PUSH1 0x1F PUSH1 0x0 SWAP4 GT PUSH1 0x1 EQ PUSH3 0x1BFB JUMPI POP SSTORE JUMP JUMPDEST SWAP1 DUP1 DUP4 SWAP2 DUP3 MSTORE PUSH3 0x1C1C PUSH1 0x1F PUSH1 0x20 DUP5 KECCAK256 SWAP5 ADD PUSH1 0x5 SHR DUP5 ADD PUSH1 0x1 DUP6 ADD PUSH3 0x12C6 JUMP JUMPDEST SSTORE SSTORE JUMP JUMPDEST PUSH1 0x1 DUP1 PUSH1 0xA0 SHL SUB SWAP1 DUP2 DUP4 MLOAD AND PUSH12 0xFFFFFFFFFFFFFFFFFFFFFFFF PUSH1 0xA0 SHL SWAP1 DUP2 DUP4 SLOAD AND OR DUP3 SSTORE PUSH1 0x1 SWAP4 PUSH1 0x1 DUP4 ADD PUSH1 0x20 SWAP3 DUP6 DUP5 DUP5 ADD MLOAD AND SWAP1 DUP3 SLOAD AND OR SWAP1 SSTORE PUSH1 0x2 SWAP3 PUSH1 0x2 DUP2 ADD SWAP4 PUSH1 0x40 DUP4 ADD MLOAD SWAP6 DUP7 MLOAD SWAP1 PUSH1 0x1 PUSH1 0x1 PUSH1 0x40 SHL SUB DUP3 GT PUSH3 0x72F JUMPI PUSH1 0x1 PUSH1 0x40 SHL SWAP8 DUP9 DUP4 GT PUSH3 0x72F JUMPI DUP7 SWAP1 DUP9 SLOAD DUP5 DUP11 SSTORE DUP1 DUP6 LT PUSH3 0x1E43 JUMPI JUMPDEST POP ADD SWAP1 PUSH1 0x0 SWAP8 DUP9 MSTORE DUP7 DUP9 KECCAK256 SWAP1 DUP11 DUP10 JUMPDEST DUP6 DUP2 LT PUSH3 0x1E2E JUMPI POP POP POP POP POP POP PUSH1 0x60 PUSH1 0x3 DUP1 SWAP4 ADD SWAP4 ADD MLOAD SWAP2 DUP3 MLOAD SWAP7 DUP8 GT PUSH3 0x1E1A JUMPI DUP4 SLOAD DUP8 DUP6 SSTORE DUP6 SWAP4 SWAP3 SWAP2 DUP2 DUP10 LT PUSH3 0x1D18 JUMPI JUMPDEST POP POP POP SWAP2 DUP5 MSTORE DUP3 DUP5 KECCAK256 SWAP2 ADD JUMPDEST DUP5 DUP5 LT PUSH3 0x1CF9 JUMPI POP POP POP POP POP POP JUMP JUMPDEST PUSH1 0xB DUP4 DUP3 PUSH3 0x1D0B DUP10 SWAP5 MLOAD DUP7 PUSH3 0x12DF JUMP JUMPDEST ADD SWAP3 ADD SWAP4 ADD SWAP3 SWAP1 PUSH3 0x1CE9 JUMP JUMPDEST SWAP1 SWAP2 SWAP3 SWAP4 POP PUSH1 0xB SWAP3 DUP3 PUSH1 0xB MUL SWAP3 PUSH1 0xB DUP5 DIV SUB PUSH3 0x1E06 JUMPI DUP9 PUSH1 0xB MUL PUSH1 0xB DUP2 DIV DUP11 SUB PUSH3 0x1DF2 JUMPI DUP7 DUP10 MSTORE DUP8 DUP10 KECCAK256 DUP9 SWAP7 SWAP6 SWAP5 DUP2 ADD SWAP4 SWAP3 SWAP2 ADD JUMPDEST DUP4 DUP2 LT PUSH3 0x1D5F JUMPI POP POP PUSH3 0x1CDD JUMP JUMPDEST DUP5 SWAP6 SWAP7 POP DUP10 DUP2 SWAP6 SWAP3 SWAP4 SWAP5 SWAP6 SSTORE DUP10 DUP13 DUP3 ADD SSTORE PUSH3 0x1D7D DUP4 DUP3 ADD PUSH3 0x1BD1 JUMP JUMPDEST PUSH3 0x1D8A DUP5 DUP3 ADD PUSH3 0x1BD1 JUMP JUMPDEST DUP10 PUSH1 0x4 DUP3 ADD SSTORE PUSH3 0x1D9E PUSH1 0x5 DUP3 ADD PUSH3 0x1BD1 JUMP JUMPDEST PUSH3 0x1DAC PUSH1 0x6 DUP3 ADD PUSH3 0x1BD1 JUMP JUMPDEST PUSH3 0x1DBA PUSH1 0x7 DUP3 ADD PUSH3 0x1BD1 JUMP JUMPDEST PUSH3 0x1DC8 PUSH1 0x8 DUP3 ADD PUSH3 0x1BD1 JUMP JUMPDEST PUSH3 0x1DD6 PUSH1 0x9 DUP3 ADD PUSH3 0x1BD1 JUMP JUMPDEST PUSH3 0x1DE4 PUSH1 0xA DUP3 ADD PUSH3 0x1BD1 JUMP JUMPDEST ADD SWAP1 DUP8 SWAP6 SWAP5 SWAP4 SWAP3 SWAP2 PUSH3 0x1D4F JUMP JUMPDEST PUSH4 0x4E487B71 PUSH1 0xE0 SHL DUP10 MSTORE PUSH1 0x11 PUSH1 0x4 MSTORE PUSH1 0x24 DUP10 REVERT JUMPDEST PUSH4 0x4E487B71 PUSH1 0xE0 SHL DUP9 MSTORE PUSH1 0x11 PUSH1 0x4 MSTORE PUSH1 0x24 DUP9 REVERT JUMPDEST PUSH4 0x4E487B71 PUSH1 0xE0 SHL DUP7 MSTORE PUSH1 0x41 PUSH1 0x4 MSTORE PUSH1 0x24 DUP7 REVERT JUMPDEST DUP10 DUP4 DUP7 MLOAD AND SWAP6 ADD SWAP5 DUP2 DUP6 ADD SSTORE ADD DUP12 SWAP1 PUSH3 0x1CA8 JUMP JUMPDEST PUSH3 0x1E5C SWAP1 DUP11 PUSH1 0x0 MSTORE DUP6 DUP5 PUSH1 0x0 KECCAK256 SWAP2 DUP3 ADD SWAP2 ADD PUSH3 0x12C6 JUMP JUMPDEST CODESIZE PUSH3 0x1C99 JUMP INVALID PUSH1 0x40 PUSH1 0x80 DUP2 MSTORE CALLVALUE PUSH3 0x429 JUMPI PUSH3 0xFF5 DUP1 CODESIZE SUB DUP1 PUSH3 0x1E DUP2 PUSH3 0x42E JUMP JUMPDEST SWAP3 DUP4 CODECOPY DUP2 ADD SWAP1 PUSH1 0x80 DUP2 DUP4 SUB SLT PUSH3 0x429 JUMPI DUP1 MLOAD PUSH1 0x1 PUSH1 0x1 PUSH1 0x40 SHL SUB SWAP2 SWAP1 DUP3 DUP2 GT PUSH3 0x429 JUMPI DUP4 PUSH3 0x51 SWAP2 DUP4 ADD PUSH3 0x46A JUMP JUMPDEST SWAP1 PUSH1 0x20 SWAP4 DUP5 DUP3 ADD MLOAD SWAP1 DUP5 DUP3 GT PUSH3 0x429 JUMPI PUSH3 0x6F SWAP2 DUP4 ADD PUSH3 0x46A JUMP JUMPDEST PUSH1 0x60 DUP7 DUP4 ADD MLOAD SWAP3 ADD MLOAD SWAP1 PUSH1 0x0 SWAP5 CALLER PUSH1 0x1 DUP1 PUSH1 0xA0 SHL SUB NOT DUP8 SLOAD AND OR DUP7 SSTORE CALLER DUP7 PUSH32 0x8BE0079C531659141344CD1FD0A4F28419497F9722A3DAAFE3B4186F6B6457E0 DUP2 DUP1 LOG3 DUP5 MLOAD DUP2 DUP2 GT PUSH3 0x343 JUMPI PUSH1 0x2 SLOAD SWAP1 PUSH1 0x1 SWAP7 DUP8 DUP4 DUP2 SHR SWAP4 AND DUP1 ISZERO PUSH3 0x41E JUMPI JUMPDEST DUP11 DUP5 LT EQ PUSH3 0x324 JUMPI DUP2 SWAP1 PUSH1 0x1F SWAP4 DUP5 DUP2 GT PUSH3 0x3CA JUMPI JUMPDEST POP DUP11 SWAP1 DUP5 DUP4 GT PUSH1 0x1 EQ PUSH3 0x363 JUMPI DUP11 SWAP3 PUSH3 0x357 JUMPI JUMPDEST POP POP PUSH1 0x0 NOT PUSH1 0x3 DUP4 SWAP1 SHL SHR NOT AND SWAP1 DUP8 SHL OR PUSH1 0x2 SSTORE JUMPDEST DUP3 MLOAD SWAP2 DUP3 GT PUSH3 0x343 JUMPI PUSH1 0x3 SWAP3 DUP4 SLOAD DUP8 DUP2 DUP2 SHR SWAP2 AND DUP1 ISZERO PUSH3 0x338 JUMPI JUMPDEST DUP11 DUP3 LT EQ PUSH3 0x324 JUMPI SWAP1 DUP2 DUP4 DUP6 SWAP5 SWAP4 GT PUSH3 0x2CF JUMPI JUMPDEST POP DUP10 SWAP2 DUP4 GT PUSH1 0x1 EQ PUSH3 0x26C JUMPI DUP9 SWAP3 PUSH3 0x260 JUMPI JUMPDEST POP POP PUSH1 0x0 NOT DUP3 DUP5 SHL SHR NOT AND SWAP1 DUP6 SHL OR SWAP1 SSTORE JUMPDEST PUSH8 0xDE0B6B3A7640000 SWAP2 DUP3 DUP2 MUL SWAP3 DUP2 DUP5 DIV EQ SWAP1 ISZERO OR ISZERO PUSH3 0x24C JUMPI DUP2 DUP4 SSTORE PUSH1 0x5 DUP2 GT PUSH3 0x1FE JUMPI SWAP1 PUSH32 0xDDF252AD1BE2C89B69C2B068FC378DAA952BA7F163C4A11628F55A4DF523B3EF SWAP3 SWAP2 PUSH1 0x4 SSTORE CALLER DUP5 MSTORE PUSH1 0x5 DUP6 MSTORE DUP6 DUP5 KECCAK256 SSTORE PUSH1 0x7 DUP5 MSTORE DUP5 DUP4 KECCAK256 PUSH1 0xFF NOT SWAP1 DUP3 DUP3 DUP3 SLOAD AND OR SWAP1 SSTORE ADDRESS DUP5 MSTORE DUP2 DUP7 DUP6 KECCAK256 SWAP2 DUP3 SLOAD AND OR SWAP1 SSTORE SLOAD SWAP3 DUP5 MLOAD SWAP4 DUP5 MSTORE CALLER SWAP4 LOG3 MLOAD PUSH2 0xB18 SWAP1 DUP2 PUSH3 0x4DD DUP3 CODECOPY RETURN JUMPDEST DUP6 MLOAD PUSH3 0x461BCD PUSH1 0xE5 SHL DUP2 MSTORE PUSH1 0x4 DUP2 ADD DUP7 SWAP1 MSTORE PUSH1 0x21 PUSH1 0x24 DUP3 ADD MSTORE PUSH32 0x4D6178205472616E73616374696F6E2063616E6E6F7420657863656564203525 PUSH1 0x44 DUP3 ADD MSTORE PUSH1 0x17 PUSH1 0xF9 SHL PUSH1 0x64 DUP3 ADD MSTORE PUSH1 0x84 SWAP1 REVERT JUMPDEST PUSH4 0x4E487B71 PUSH1 0xE0 SHL DUP5 MSTORE PUSH1 0x11 PUSH1 0x4 MSTORE PUSH1 0x24 DUP5 REVERT JUMPDEST ADD MLOAD SWAP1 POP CODESIZE DUP1 PUSH3 0x15A JUMP JUMPDEST DUP5 DUP10 MSTORE DUP10 DUP10 KECCAK256 DUP9 SWAP5 POP SWAP2 SWAP1 PUSH1 0x1F NOT DUP5 AND DUP11 JUMPDEST DUP13 DUP3 DUP3 LT PUSH3 0x2B8 JUMPI POP POP DUP5 GT PUSH3 0x29F JUMPI JUMPDEST POP POP POP DUP2 SHL ADD SWAP1 SSTORE PUSH3 0x16C JUMP JUMPDEST ADD MLOAD PUSH1 0x0 NOT DUP4 DUP7 SHL PUSH1 0xF8 AND SHR NOT AND SWAP1 SSTORE CODESIZE DUP1 DUP1 PUSH3 0x291 JUMP JUMPDEST DUP4 DUP6 ADD MLOAD DUP7 SSTORE DUP12 SWAP8 SWAP1 SWAP6 ADD SWAP5 SWAP4 DUP5 ADD SWAP4 ADD PUSH3 0x27E JUMP JUMPDEST SWAP1 SWAP2 SWAP3 POP DUP5 DUP10 MSTORE DUP10 DUP10 KECCAK256 DUP4 DUP1 DUP7 ADD PUSH1 0x5 SHR DUP3 ADD SWAP3 DUP13 DUP8 LT PUSH3 0x31A JUMPI JUMPDEST SWAP2 DUP7 SWAP6 DUP12 SWAP3 SWAP6 SWAP5 SWAP4 ADD PUSH1 0x5 SHR ADD SWAP2 JUMPDEST DUP3 DUP2 LT PUSH3 0x30B JUMPI POP POP PUSH3 0x145 JUMP JUMPDEST DUP12 DUP2 SSTORE DUP7 SWAP6 POP DUP11 SWAP2 ADD PUSH3 0x2FB JUMP JUMPDEST SWAP3 POP DUP2 SWAP3 PUSH3 0x2EC JUMP JUMPDEST PUSH4 0x4E487B71 PUSH1 0xE0 SHL DUP10 MSTORE PUSH1 0x22 PUSH1 0x4 MSTORE PUSH1 0x24 DUP10 REVERT JUMPDEST SWAP1 PUSH1 0x7F AND SWAP1 PUSH3 0x12F JUMP JUMPDEST PUSH4 0x4E487B71 PUSH1 0xE0 SHL DUP8 MSTORE PUSH1 0x41 PUSH1 0x4 MSTORE PUSH1 0x24 DUP8 REVERT JUMPDEST ADD MLOAD SWAP1 POP CODESIZE DUP1 PUSH3 0xFD JUMP JUMPDEST PUSH1 0x2 DUP12 MSTORE DUP12 DUP12 KECCAK256 DUP11 SWAP5 POP SWAP2 SWAP1 PUSH1 0x1F NOT DUP5 AND DUP13 DUP15 JUMPDEST DUP3 DUP3 LT PUSH3 0x3B2 JUMPI POP POP DUP5 GT PUSH3 0x398 JUMPI JUMPDEST POP POP POP DUP2 SHL ADD PUSH1 0x2 SSTORE PUSH3 0x112 JUMP JUMPDEST ADD MLOAD PUSH1 0x0 NOT PUSH1 0xF8 DUP5 PUSH1 0x3 SHL AND SHR NOT AND SWAP1 SSTORE CODESIZE DUP1 DUP1 PUSH3 0x389 JUMP JUMPDEST DUP4 DUP6 ADD MLOAD DUP7 SSTORE DUP14 SWAP8 SWAP1 SWAP6 ADD SWAP5 SWAP4 DUP5 ADD SWAP4 ADD DUP15 PUSH3 0x377 JUMP JUMPDEST SWAP1 SWAP2 POP PUSH1 0x2 DUP11 MSTORE DUP11 DUP11 KECCAK256 DUP5 DUP1 DUP6 ADD PUSH1 0x5 SHR DUP3 ADD SWAP3 DUP14 DUP7 LT PUSH3 0x414 JUMPI JUMPDEST SWAP2 DUP12 SWAP2 DUP7 SWAP6 SWAP5 SWAP4 ADD PUSH1 0x5 SHR ADD SWAP2 JUMPDEST DUP3 DUP2 LT PUSH3 0x405 JUMPI POP POP PUSH3 0xE7 JUMP JUMPDEST DUP13 DUP2 SSTORE DUP6 SWAP5 POP DUP12 SWAP2 ADD PUSH3 0x3F5 JUMP JUMPDEST SWAP3 POP DUP2 SWAP3 PUSH3 0x3E7 JUMP JUMPDEST SWAP3 PUSH1 0x7F AND SWAP3 PUSH3 0xD0 JUMP JUMPDEST PUSH1 0x0 DUP1 REVERT JUMPDEST PUSH1 0x40 MLOAD SWAP2 SWAP1 PUSH1 0x1F ADD PUSH1 0x1F NOT AND DUP3 ADD PUSH1 0x1 PUSH1 0x1 PUSH1 0x40 SHL SUB DUP2 GT DUP4 DUP3 LT OR PUSH3 0x454 JUMPI PUSH1 0x40 MSTORE JUMP JUMPDEST PUSH4 0x4E487B71 PUSH1 0xE0 SHL PUSH1 0x0 MSTORE PUSH1 0x41 PUSH1 0x4 MSTORE PUSH1 0x24 PUSH1 0x0 REVERT JUMPDEST SWAP2 SWAP1 DUP1 PUSH1 0x1F DUP5 ADD SLT ISZERO PUSH3 0x429 JUMPI DUP3 MLOAD PUSH1 0x1 PUSH1 0x1 PUSH1 0x40 SHL SUB DUP2 GT PUSH3 0x454 JUMPI PUSH1 0x20 SWAP1 PUSH3 0x4A0 PUSH1 0x1F DUP3 ADD PUSH1 0x1F NOT AND DUP4 ADD PUSH3 0x42E JUMP JUMPDEST SWAP3 DUP2 DUP5 MSTORE DUP3 DUP3 DUP8 ADD ADD GT PUSH3 0x429 JUMPI PUSH1 0x0 JUMPDEST DUP2 DUP2 LT PUSH3 0x4C8 JUMPI POP DUP3 PUSH1 0x0 SWAP4 SWAP5 SWAP6 POP ADD ADD MSTORE SWAP1 JUMP JUMPDEST DUP6 DUP2 ADD DUP4 ADD MLOAD DUP5 DUP3 ADD DUP5 ADD MSTORE DUP3 ADD PUSH3 0x4B2 JUMP INVALID PUSH1 0x80 PUSH1 0x40 DUP2 DUP2 MSTORE PUSH1 0x4 SWAP2 DUP3 CALLDATASIZE LT ISZERO PUSH2 0x16 JUMPI PUSH1 0x0 DUP1 REVERT JUMPDEST PUSH1 0x0 SWAP3 DUP4 CALLDATALOAD PUSH1 0xE0 SHR SWAP2 DUP3 PUSH4 0x6FDDE03 EQ PUSH2 0x4FF JUMPI POP DUP2 PUSH4 0x95EA7B3 EQ PUSH2 0x4D5 JUMPI DUP2 PUSH4 0x18160DDD EQ PUSH2 0x4B6 JUMPI DUP2 PUSH4 0x23B872DD EQ PUSH2 0x3E1 JUMPI DUP2 PUSH4 0x313CE567 EQ PUSH2 0x3C5 JUMPI DUP2 PUSH4 0x70A08231 EQ PUSH2 0x38D JUMPI DUP2 PUSH4 0x715018A6 EQ PUSH2 0x32E JUMPI DUP2 PUSH4 0x7437681E EQ PUSH2 0x310 JUMPI DUP2 PUSH4 0x8DA5CB5B EQ PUSH2 0x2E8 JUMPI DUP2 PUSH4 0x95D89B41 EQ PUSH2 0x1E3 JUMPI DUP2 PUSH4 0xA9059CBB EQ PUSH2 0x1B2 JUMPI DUP2 PUSH4 0xC2D0FFCA EQ PUSH2 0xFF JUMPI POP PUSH4 0xDD62ED3E EQ PUSH2 0xB4 JUMPI PUSH1 0x0 DUP1 REVERT JUMPDEST CALLVALUE PUSH2 0xFB JUMPI DUP1 PUSH1 0x3 NOT CALLDATASIZE ADD SLT PUSH2 0xFB JUMPI DUP1 PUSH1 0x20 SWAP3 PUSH2 0xD0 PUSH2 0x607 JUMP JUMPDEST PUSH2 0xD8 PUSH2 0x622 JUMP JUMPDEST PUSH1 0x1 PUSH1 0x1 PUSH1 0xA0 SHL SUB SWAP2 DUP3 AND DUP4 MSTORE PUSH1 0x6 DUP7 MSTORE DUP4 DUP4 KECCAK256 SWAP2 AND DUP3 MSTORE DUP5 MSTORE KECCAK256 SLOAD SWAP1 MLOAD SWAP1 DUP2 MSTORE RETURN JUMPDEST POP DUP1 REVERT JUMPDEST SWAP2 SWAP1 POP CALLVALUE PUSH2 0x1AE JUMPI PUSH1 0x20 CALLDATASIZE PUSH1 0x3 NOT ADD SLT PUSH2 0x1AE JUMPI DUP2 CALLDATALOAD SWAP2 PUSH2 0x12A PUSH1 0x1 DUP1 PUSH1 0xA0 SHL SUB DUP6 SLOAD AND CALLER EQ PUSH2 0x670 JUMP JUMPDEST PUSH1 0x5 DUP4 GT PUSH2 0x162 JUMPI SWAP2 PUSH1 0x20 SWAP2 DUP2 PUSH32 0xFF3DD5E80294197918C284BBFC3DADD97D0B40CE92106110946329088F80068A SWAP5 SSTORE MLOAD SWAP1 DUP2 MSTORE LOG1 DUP1 RETURN JUMPDEST PUSH1 0x20 PUSH1 0x84 SWAP3 MLOAD SWAP2 PUSH3 0x461BCD PUSH1 0xE5 SHL DUP4 MSTORE DUP3 ADD MSTORE PUSH1 0x21 PUSH1 0x24 DUP3 ADD MSTORE PUSH32 0x4D6178205472616E73616374696F6E2063616E6E6F7420657863656564203525 PUSH1 0x44 DUP3 ADD MSTORE PUSH1 0x17 PUSH1 0xF9 SHL PUSH1 0x64 DUP3 ADD MSTORE REVERT JUMPDEST DUP3 DUP1 REVERT JUMPDEST POP POP CALLVALUE PUSH2 0xFB JUMPI DUP1 PUSH1 0x3 NOT CALLDATASIZE ADD SLT PUSH2 0xFB JUMPI PUSH1 0x20 SWAP1 PUSH2 0x1DC PUSH2 0x1D2 PUSH2 0x607 JUMP JUMPDEST PUSH1 0x24 CALLDATALOAD SWAP1 CALLER PUSH2 0x7BD JUMP JUMPDEST MLOAD PUSH1 0x1 DUP2 MSTORE RETURN JUMPDEST SWAP2 SWAP1 POP CALLVALUE PUSH2 0x1AE JUMPI DUP3 PUSH1 0x3 NOT CALLDATASIZE ADD SLT PUSH2 0x1AE JUMPI DUP1 MLOAD SWAP2 DUP4 PUSH1 0x3 SLOAD SWAP1 PUSH1 0x1 SWAP1 DUP3 PUSH1 0x1 SHR SWAP3 PUSH1 0x1 DUP2 AND DUP1 ISZERO PUSH2 0x2DE JUMPI JUMPDEST PUSH1 0x20 SWAP6 DUP7 DUP7 LT DUP3 EQ PUSH2 0x2CB JUMPI POP DUP5 DUP9 MSTORE SWAP1 DUP2 ISZERO PUSH2 0x2A9 JUMPI POP PUSH1 0x1 EQ PUSH2 0x250 JUMPI JUMPDEST PUSH2 0x24C DUP7 DUP7 PUSH2 0x242 DUP3 DUP12 SUB DUP4 PUSH2 0x638 JUMP JUMPDEST MLOAD SWAP2 DUP3 SWAP2 DUP3 PUSH2 0x5BE JUMP JUMPDEST SUB SWAP1 RETURN JUMPDEST SWAP3 SWAP6 POP PUSH1 0x3 DUP4 MSTORE PUSH32 0xC2575A0E9E593C00F959F8C92F12DB2869C3395A3B0502D05E2516446F71F85B JUMPDEST DUP3 DUP5 LT PUSH2 0x296 JUMPI POP POP POP DUP3 PUSH2 0x24C SWAP5 PUSH2 0x242 SWAP3 DUP3 ADD ADD SWAP5 CODESIZE PUSH2 0x231 JUMP JUMPDEST DUP1 SLOAD DUP7 DUP6 ADD DUP9 ADD MSTORE SWAP3 DUP7 ADD SWAP3 DUP2 ADD PUSH2 0x279 JUMP JUMPDEST PUSH1 0xFF NOT AND DUP8 DUP7 ADD MSTORE POP POP POP ISZERO ISZERO PUSH1 0x5 SHL DUP4 ADD ADD SWAP3 POP PUSH2 0x242 DUP3 PUSH2 0x24C CODESIZE PUSH2 0x231 JUMP JUMPDEST PUSH4 0x4E487B71 PUSH1 0xE0 SHL DUP5 MSTORE PUSH1 0x22 SWAP1 MSTORE PUSH1 0x24 DUP4 REVERT JUMPDEST SWAP4 PUSH1 0x7F AND SWAP4 PUSH2 0x211 JUMP JUMPDEST POP POP CALLVALUE PUSH2 0xFB JUMPI DUP2 PUSH1 0x3 NOT CALLDATASIZE ADD SLT PUSH2 0xFB JUMPI SWAP1 SLOAD SWAP1 MLOAD PUSH1 0x1 PUSH1 0x1 PUSH1 0xA0 SHL SUB SWAP1 SWAP2 AND DUP2 MSTORE PUSH1 0x20 SWAP1 RETURN JUMPDEST SWAP1 POP CALLVALUE PUSH2 0x1AE JUMPI DUP3 PUSH1 0x3 NOT CALLDATASIZE ADD SLT PUSH2 0x1AE JUMPI PUSH1 0x20 SWAP3 POP SLOAD SWAP1 MLOAD SWAP1 DUP2 MSTORE RETURN JUMPDEST DUP4 CALLVALUE PUSH2 0x38A JUMPI DUP1 PUSH1 0x3 NOT CALLDATASIZE ADD SLT PUSH2 0x38A JUMPI DUP1 SLOAD DUP2 PUSH1 0x1 PUSH1 0x1 PUSH1 0xA0 SHL SUB DUP3 AND PUSH2 0x357 CALLER DUP3 EQ PUSH2 0x670 JUMP JUMPDEST PUSH32 0x8BE0079C531659141344CD1FD0A4F28419497F9722A3DAAFE3B4186F6B6457E0 DUP3 DUP1 LOG3 PUSH1 0x1 PUSH1 0x1 PUSH1 0xA0 SHL SUB NOT AND DUP2 SSTORE DUP1 RETURN JUMPDEST DUP1 REVERT JUMPDEST POP POP CALLVALUE PUSH2 0xFB JUMPI PUSH1 0x20 CALLDATASIZE PUSH1 0x3 NOT ADD SLT PUSH2 0xFB JUMPI PUSH1 0x20 SWAP2 DUP2 SWAP1 PUSH1 0x1 PUSH1 0x1 PUSH1 0xA0 SHL SUB PUSH2 0x3B5 PUSH2 0x607 JUMP JUMPDEST AND DUP2 MSTORE PUSH1 0x5 DUP5 MSTORE KECCAK256 SLOAD SWAP1 MLOAD SWAP1 DUP2 MSTORE RETURN JUMPDEST POP POP CALLVALUE PUSH2 0xFB JUMPI DUP2 PUSH1 0x3 NOT CALLDATASIZE ADD SLT PUSH2 0xFB JUMPI PUSH1 0x20 SWAP1 MLOAD PUSH1 0x12 DUP2 MSTORE RETURN JUMPDEST DUP3 DUP5 CALLVALUE PUSH2 0x38A JUMPI PUSH1 0x60 CALLDATASIZE PUSH1 0x3 NOT ADD SLT PUSH2 0x38A JUMPI PUSH2 0x3FC PUSH2 0x607 JUMP JUMPDEST SWAP1 PUSH2 0x405 PUSH2 0x622 JUMP JUMPDEST PUSH2 0x413 PUSH1 0x44 CALLDATALOAD DUP1 SWAP3 DUP6 PUSH2 0x7BD JUMP JUMPDEST PUSH1 0x1 PUSH1 0x1 PUSH1 0xA0 SHL SUB DUP4 AND DUP3 MSTORE PUSH1 0x6 PUSH1 0x20 SWAP1 DUP2 MSTORE DUP5 DUP4 KECCAK256 CALLER DUP5 MSTORE SWAP1 MSTORE DUP4 DUP3 KECCAK256 SLOAD DUP5 MLOAD SWAP3 PUSH1 0x60 DUP5 ADD SWAP1 PUSH8 0xFFFFFFFFFFFFFFFF DUP3 GT DUP6 DUP4 LT OR PUSH2 0x4A3 JUMPI PUSH1 0x20 DUP8 PUSH2 0x1DC DUP9 PUSH2 0x49B DUP10 DUP10 DUP10 DUP10 DUP8 MSTORE PUSH1 0x28 DUP4 MSTORE PUSH32 0x45524332303A207472616E7366657220616D6F756E7420657863656564732061 DUP9 DUP5 ADD MSTORE PUSH8 0x6C6C6F77616E6365 PUSH1 0xC0 SHL DUP8 DUP5 ADD MSTORE PUSH2 0xA97 JUMP JUMPDEST SWAP1 CALLER SWAP1 PUSH2 0x6BB JUMP JUMPDEST PUSH4 0x4E487B71 PUSH1 0xE0 SHL DUP2 MSTORE PUSH1 0x41 DUP9 MSTORE PUSH1 0x24 SWAP1 REVERT JUMPDEST POP POP CALLVALUE PUSH2 0xFB JUMPI DUP2 PUSH1 0x3 NOT CALLDATASIZE ADD SLT PUSH2 0xFB JUMPI PUSH1 0x20 SWAP1 PUSH1 0x1 SLOAD SWAP1 MLOAD SWAP1 DUP2 MSTORE RETURN JUMPDEST POP POP CALLVALUE PUSH2 0xFB JUMPI DUP1 PUSH1 0x3 NOT CALLDATASIZE ADD SLT PUSH2 0xFB JUMPI PUSH1 0x20 SWAP1 PUSH2 0x1DC PUSH2 0x4F5 PUSH2 0x607 JUMP JUMPDEST PUSH1 0x24 CALLDATALOAD SWAP1 CALLER PUSH2 0x6BB JUMP JUMPDEST SWAP3 SWAP2 POP CALLVALUE PUSH2 0x5BA JUMPI DUP4 PUSH1 0x3 NOT CALLDATASIZE ADD SLT PUSH2 0x5BA JUMPI PUSH1 0x2 SLOAD PUSH1 0x1 DUP2 DUP2 SHR SWAP2 DUP7 SWAP1 DUP3 DUP2 AND DUP1 ISZERO PUSH2 0x5B0 JUMPI JUMPDEST PUSH1 0x20 SWAP6 DUP7 DUP7 LT DUP3 EQ PUSH2 0x2CB JUMPI POP DUP5 DUP9 MSTORE SWAP1 DUP2 ISZERO PUSH2 0x2A9 JUMPI POP PUSH1 0x1 EQ PUSH2 0x557 JUMPI PUSH2 0x24C DUP7 DUP7 PUSH2 0x242 DUP3 DUP12 SUB DUP4 PUSH2 0x638 JUMP JUMPDEST SWAP3 SWAP6 POP PUSH1 0x2 DUP4 MSTORE PUSH32 0x405787FA12A823E0F2B7631CC41B3BA8828B3321CA811111FA75CD3AA3BB5ACE JUMPDEST DUP3 DUP5 LT PUSH2 0x59D JUMPI POP POP POP DUP3 PUSH2 0x24C SWAP5 PUSH2 0x242 SWAP3 DUP3 ADD ADD SWAP5 CODESIZE PUSH2 0x231 JUMP JUMPDEST DUP1 SLOAD DUP7 DUP6 ADD DUP9 ADD MSTORE SWAP3 DUP7 ADD SWAP3 DUP2 ADD PUSH2 0x580 JUMP JUMPDEST SWAP4 PUSH1 0x7F AND SWAP4 PUSH2 0x527 JUMP JUMPDEST DUP4 DUP1 REVERT JUMPDEST PUSH1 0x20 DUP1 DUP3 MSTORE DUP3 MLOAD DUP2 DUP4 ADD DUP2 SWAP1 MSTORE SWAP1 SWAP4 SWAP3 PUSH1 0x0 JUMPDEST DUP3 DUP2 LT PUSH2 0x5F3 JUMPI POP POP PUSH1 0x40 SWAP3 SWAP4 POP PUSH1 0x0 DUP4 DUP3 DUP5 ADD ADD MSTORE PUSH1 0x1F DUP1 NOT SWAP2 ADD AND ADD ADD SWAP1 JUMP JUMPDEST DUP2 DUP2 ADD DUP7 ADD MLOAD DUP5 DUP3 ADD PUSH1 0x40 ADD MSTORE DUP6 ADD PUSH2 0x5D1 JUMP JUMPDEST PUSH1 0x4 CALLDATALOAD SWAP1 PUSH1 0x1 PUSH1 0x1 PUSH1 0xA0 SHL SUB DUP3 AND DUP3 SUB PUSH2 0x61D JUMPI JUMP JUMPDEST PUSH1 0x0 DUP1 REVERT JUMPDEST PUSH1 0x24 CALLDATALOAD SWAP1 PUSH1 0x1 PUSH1 0x1 PUSH1 0xA0 SHL SUB DUP3 AND DUP3 SUB PUSH2 0x61D JUMPI JUMP JUMPDEST SWAP1 PUSH1 0x1F DUP1 NOT SWAP2 ADD AND DUP2 ADD SWAP1 DUP2 LT PUSH8 0xFFFFFFFFFFFFFFFF DUP3 GT OR PUSH2 0x65A JUMPI PUSH1 0x40 MSTORE JUMP JUMPDEST PUSH4 0x4E487B71 PUSH1 0xE0 SHL PUSH1 0x0 MSTORE PUSH1 0x41 PUSH1 0x4 MSTORE PUSH1 0x24 PUSH1 0x0 REVERT JUMPDEST ISZERO PUSH2 0x677 JUMPI JUMP JUMPDEST PUSH1 0x64 PUSH1 0x40 MLOAD PUSH3 0x461BCD PUSH1 0xE5 SHL DUP2 MSTORE PUSH1 0x20 PUSH1 0x4 DUP3 ADD MSTORE PUSH1 0x20 PUSH1 0x24 DUP3 ADD MSTORE PUSH32 0x4F776E61626C653A2063616C6C6572206973206E6F7420746865206F776E6572 PUSH1 0x44 DUP3 ADD MSTORE REVERT JUMPDEST PUSH1 0x1 PUSH1 0x1 PUSH1 0xA0 SHL SUB SWAP1 DUP2 AND SWAP2 DUP3 ISZERO PUSH2 0x76C JUMPI AND SWAP2 DUP3 ISZERO PUSH2 0x71C JUMPI PUSH1 0x20 PUSH32 0x8C5BE1E5EBEC7D5BD14F71427D1E84F3DD0314C0F7B2291E5B200AC8C7C3B925 SWAP2 DUP4 PUSH1 0x0 MSTORE PUSH1 0x6 DUP3 MSTORE PUSH1 0x40 PUSH1 0x0 KECCAK256 DUP6 PUSH1 0x0 MSTORE DUP3 MSTORE DUP1 PUSH1 0x40 PUSH1 0x0 KECCAK256 SSTORE PUSH1 0x40 MLOAD SWAP1 DUP2 MSTORE LOG3 JUMP JUMPDEST PUSH1 0x40 MLOAD PUSH3 0x461BCD PUSH1 0xE5 SHL DUP2 MSTORE PUSH1 0x20 PUSH1 0x4 DUP3 ADD MSTORE PUSH1 0x22 PUSH1 0x24 DUP3 ADD MSTORE PUSH32 0x45524332303A20617070726F766520746F20746865207A65726F206164647265 PUSH1 0x44 DUP3 ADD MSTORE PUSH2 0x7373 PUSH1 0xF0 SHL PUSH1 0x64 DUP3 ADD MSTORE PUSH1 0x84 SWAP1 REVERT JUMPDEST PUSH1 0x40 MLOAD PUSH3 0x461BCD PUSH1 0xE5 SHL DUP2 MSTORE PUSH1 0x20 PUSH1 0x4 DUP3 ADD MSTORE PUSH1 0x24 DUP1 DUP3 ADD MSTORE PUSH32 0x45524332303A20617070726F76652066726F6D20746865207A65726F20616464 PUSH1 0x44 DUP3 ADD MSTORE PUSH4 0x72657373 PUSH1 0xE0 SHL PUSH1 0x64 DUP3 ADD MSTORE PUSH1 0x84 SWAP1 REVERT JUMPDEST SWAP2 SWAP3 SWAP2 PUSH1 0x1 PUSH1 0x1 PUSH1 0xA0 SHL SUB SWAP1 DUP2 AND SWAP2 DUP3 ISZERO PUSH2 0xA44 JUMPI AND SWAP1 DUP2 ISZERO PUSH2 0x9F3 JUMPI DUP4 ISZERO PUSH2 0x99C JUMPI PUSH1 0x4 DUP1 SLOAD SWAP5 PUSH1 0x1 SLOAD SWAP6 DUP7 DUP2 MUL SWAP7 DUP2 DUP9 DIV EQ SWAP1 ISZERO OR ISZERO PUSH2 0x987 JUMPI PUSH1 0x0 SWAP6 DUP4 DUP8 MSTORE PUSH1 0x20 SWAP3 PUSH1 0x7 DUP5 MSTORE PUSH1 0x40 SWAP2 PUSH1 0xFF DUP4 DUP11 KECCAK256 SLOAD AND ISZERO PUSH2 0x936 JUMPI JUMPDEST POP DUP5 DUP9 MSTORE PUSH1 0x5 DUP5 MSTORE DUP2 DUP9 KECCAK256 SLOAD DUP3 MLOAD SWAP1 DUP4 DUP3 ADD DUP3 DUP2 LT PUSH8 0xFFFFFFFFFFFFFFFF DUP3 GT OR PUSH2 0x923 JUMPI PUSH2 0x872 SWAP3 SWAP2 DUP7 SWAP2 DUP7 MSTORE PUSH1 0x1E DUP4 MSTORE PUSH32 0x536166654D6174683A207375627472616374696F6E206F766572666C6F770000 DUP9 DUP5 ADD MSTORE PUSH2 0xA97 JUMP JUMPDEST DUP6 DUP10 MSTORE PUSH1 0x5 DUP6 MSTORE DUP3 DUP10 KECCAK256 SSTORE DUP6 DUP9 MSTORE DUP2 DUP9 KECCAK256 SLOAD SWAP1 DUP4 DUP3 ADD SWAP2 DUP3 DUP2 GT PUSH2 0x910 JUMPI DUP3 LT PUSH2 0x8CD JUMPI POP DUP2 DUP9 DUP8 PUSH32 0xDDF252AD1BE2C89B69C2B068FC378DAA952BA7F163C4A11628F55A4DF523B3EF SWAP8 SWAP9 SWAP10 SWAP11 MSTORE PUSH1 0x5 DUP7 MSTORE KECCAK256 SSTORE MLOAD SWAP1 DUP2 MSTORE LOG3 JUMP JUMPDEST DUP3 MLOAD PUSH3 0x461BCD PUSH1 0xE5 SHL DUP2 MSTORE SWAP1 DUP2 ADD DUP6 SWAP1 MSTORE PUSH1 0x1B PUSH1 0x24 DUP3 ADD MSTORE PUSH32 0x536166654D6174683A206164646974696F6E206F766572666C6F770000000000 PUSH1 0x44 DUP3 ADD MSTORE PUSH1 0x64 SWAP1 REVERT JUMPDEST PUSH4 0x4E487B71 PUSH1 0xE0 SHL DUP11 MSTORE PUSH1 0x11 DUP3 MSTORE PUSH1 0x24 DUP11 REVERT JUMPDEST PUSH4 0x4E487B71 PUSH1 0xE0 SHL DUP12 MSTORE PUSH1 0x41 DUP5 MSTORE PUSH1 0x24 DUP12 REVERT JUMPDEST PUSH1 0x64 SWAP1 DIV DUP4 GT PUSH2 0x946 JUMPI CODESIZE PUSH2 0x816 JUMP JUMPDEST DUP4 PUSH1 0x64 SWAP3 MLOAD SWAP2 PUSH3 0x461BCD PUSH1 0xE5 SHL DUP4 MSTORE DUP3 ADD MSTORE PUSH1 0x18 PUSH1 0x24 DUP3 ADD MSTORE PUSH32 0x4578636565647320746865204D61785478416D6F756E742E0000000000000000 PUSH1 0x44 DUP3 ADD MSTORE REVERT JUMPDEST PUSH1 0x11 DUP3 PUSH4 0x4E487B71 PUSH1 0xE0 SHL PUSH1 0x0 MSTORE MSTORE PUSH1 0x24 PUSH1 0x0 REVERT JUMPDEST PUSH1 0x40 MLOAD PUSH3 0x461BCD PUSH1 0xE5 SHL DUP2 MSTORE PUSH1 0x20 PUSH1 0x4 DUP3 ADD MSTORE PUSH1 0x29 PUSH1 0x24 DUP3 ADD MSTORE PUSH32 0x5472616E7366657220616D6F756E74206D757374206265206772656174657220 PUSH1 0x44 DUP3 ADD MSTORE PUSH9 0x7468616E207A65726F PUSH1 0xB8 SHL PUSH1 0x64 DUP3 ADD MSTORE PUSH1 0x84 SWAP1 REVERT JUMPDEST PUSH1 0x40 MLOAD PUSH3 0x461BCD PUSH1 0xE5 SHL DUP2 MSTORE PUSH1 0x20 PUSH1 0x4 DUP3 ADD MSTORE PUSH1 0x23 PUSH1 0x24 DUP3 ADD MSTORE PUSH32 0x45524332303A207472616E7366657220746F20746865207A65726F2061646472 PUSH1 0x44 DUP3 ADD MSTORE PUSH3 0x657373 PUSH1 0xE8 SHL PUSH1 0x64 DUP3 ADD MSTORE PUSH1 0x84 SWAP1 REVERT JUMPDEST PUSH1 0x40 MLOAD PUSH3 0x461BCD PUSH1 0xE5 SHL DUP2 MSTORE PUSH1 0x20 PUSH1 0x4 DUP3 ADD MSTORE PUSH1 0x25 PUSH1 0x24 DUP3 ADD MSTORE PUSH32 0x45524332303A207472616E736665722066726F6D20746865207A65726F206164 PUSH1 0x44 DUP3 ADD MSTORE PUSH5 0x6472657373 PUSH1 0xD8 SHL PUSH1 0x64 DUP3 ADD MSTORE PUSH1 0x84 SWAP1 REVERT JUMPDEST SWAP2 DUP3 DUP3 GT PUSH2 0xAC2 JUMPI POP DUP2 SUB SWAP1 DUP2 GT PUSH2 0xAAC JUMPI SWAP1 JUMP JUMPDEST PUSH4 0x4E487B71 PUSH1 0xE0 SHL PUSH1 0x0 MSTORE PUSH1 0x11 PUSH1 0x4 MSTORE PUSH1 0x24 PUSH1 0x0 REVERT JUMPDEST PUSH1 0x40 MLOAD PUSH3 0x461BCD PUSH1 0xE5 SHL DUP2 MSTORE SWAP1 DUP2 SWAP1 PUSH2 0xADE SWAP1 PUSH1 0x4 DUP4 ADD PUSH2 0x5BE JUMP JUMPDEST SUB SWAP1 REVERT INVALID LOG2 PUSH5 0x6970667358 0x22 SLT KECCAK256 SLT MSTORE8 0x25 PUSH20 0x6E75A597F98B9C4B5C0BB93954D3BB1AEF8717CC EXTCODEHASH SWAP16 PUSH0 PUSH28 0x8CD6BC4A64736F6C63430008180033A2646970667358221220161FEB MCOPY 0x22 LOG0 SWAP7 0xAC SWAP8 0xBD 0xF6 ADD LOG3 PUSH17 0xE9092167C7E4F17C32F1B1E7BBE6567BF6 SELFDESTRUCT PUSH5 0x736F6C6343 STOP ADDMOD XOR STOP CALLER "
        },
        "methodIdentifiers": {
          "approval(address,address,uint256)": "5c52a5f2",
          "deploy()": "775c300c",
          "feeTo()": "017e7e58",
          "feeToSetter()": "094b7415",
          "launch(string,string,string,string,string[4],uint256,uint256,address)": "a153e6ff",
          "launchFee()": "cf3cf573",
          "liquidityFee()": "98118cb4",
          "marketCap()": "2c135b93",
          "profile(address)": "9dd9d0fd",
          "profiles(uint256)": "c36fe3d6",
          "referralFee()": "84ae2bc6",
          "token(address)": "6d46a1db",
          "tokens(uint256)": "4f64b2be",
          "updateLaunchFee(uint256)": "7660f44a",
          "updateLiquidityFee(uint256)": "8e675663",
          "updateReferralFee(uint256)": "f3f524b8"
        }
      }
    }
  }
}