{
  "contracts/Pair.sol": {
    "Pair": {
      "abi": [
        {
          "inputs": [
            {
              "internalType": "address",
              "name": "factory_",
              "type": "address"
            },
            {
              "internalType": "address",
              "name": "token0",
              "type": "address"
            },
            {
              "internalType": "address",
              "name": "token1",
              "type": "address"
            }
          ],
          "stateMutability": "nonpayable",
          "type": "constructor"
        },
        {
          "inputs": [],
          "name": "ReentrancyGuardReentrantCall",
          "type": "error"
        },
        {
          "anonymous": false,
          "inputs": [
            {
              "indexed": false,
              "internalType": "uint256",
              "name": "reserve0",
              "type": "uint256"
            },
            {
              "indexed": false,
              "internalType": "uint256",
              "name": "reserve1",
              "type": "uint256"
            },
            {
              "indexed": false,
              "internalType": "address",
              "name": "lp",
              "type": "address"
            }
          ],
          "name": "Burn",
          "type": "event"
        },
        {
          "anonymous": false,
          "inputs": [
            {
              "indexed": false,
              "internalType": "uint256",
              "name": "reserve0",
              "type": "uint256"
            },
            {
              "indexed": false,
              "internalType": "uint256",
              "name": "reserve1",
              "type": "uint256"
            },
            {
              "indexed": false,
              "internalType": "address",
              "name": "lp",
              "type": "address"
            }
          ],
          "name": "Mint",
          "type": "event"
        },
        {
          "anonymous": false,
          "inputs": [
            {
              "indexed": false,
              "internalType": "uint256",
              "name": "amount0In",
              "type": "uint256"
            },
            {
              "indexed": false,
              "internalType": "uint256",
              "name": "amount0Out",
              "type": "uint256"
            },
            {
              "indexed": false,
              "internalType": "uint256",
              "name": "amount1In",
              "type": "uint256"
            },
            {
              "indexed": false,
              "internalType": "uint256",
              "name": "amount1Out",
              "type": "uint256"
            }
          ],
          "name": "Swap",
          "type": "event"
        },
        {
          "inputs": [],
          "name": "MINIMUM_LIQUIDITY",
          "outputs": [
            {
              "internalType": "uint256",
              "name": "",
              "type": "uint256"
            }
          ],
          "stateMutability": "pure",
          "type": "function"
        },
        {
          "inputs": [
            {
              "internalType": "address",
              "name": "_user",
              "type": "address"
            },
            {
              "internalType": "address",
              "name": "_token",
              "type": "address"
            },
            {
              "internalType": "uint256",
              "name": "amount",
              "type": "uint256"
            }
          ],
          "name": "approval",
          "outputs": [
            {
              "internalType": "bool",
              "name": "",
              "type": "bool"
            }
          ],
          "stateMutability": "nonpayable",
          "type": "function"
        },
        {
          "inputs": [],
          "name": "balance",
          "outputs": [
            {
              "internalType": "uint256",
              "name": "",
              "type": "uint256"
            }
          ],
          "stateMutability": "view",
          "type": "function"
        },
        {
          "inputs": [
            {
              "internalType": "uint256",
              "name": "reserve0",
              "type": "uint256"
            },
            {
              "internalType": "uint256",
              "name": "reserve1",
              "type": "uint256"
            },
            {
              "internalType": "address",
              "name": "_lp",
              "type": "address"
            }
          ],
          "name": "burn",
          "outputs": [
            {
              "internalType": "bool",
              "name": "",
              "type": "bool"
            }
          ],
          "stateMutability": "nonpayable",
          "type": "function"
        },
        {
          "inputs": [],
          "name": "factory",
          "outputs": [
            {
              "internalType": "address",
              "name": "",
              "type": "address"
            }
          ],
          "stateMutability": "view",
          "type": "function"
        },
        {
          "inputs": [],
          "name": "getReserves",
          "outputs": [
            {
              "internalType": "uint256",
              "name": "reserveA",
              "type": "uint256"
            },
            {
              "internalType": "uint256",
              "name": "reserveB",
              "type": "uint256"
            },
            {
              "internalType": "uint256",
              "name": "timestamp",
              "type": "uint256"
            }
          ],
          "stateMutability": "view",
          "type": "function"
        },
        {
          "inputs": [],
          "name": "kLast",
          "outputs": [
            {
              "internalType": "uint256",
              "name": "",
              "type": "uint256"
            }
          ],
          "stateMutability": "view",
          "type": "function"
        },
        {
          "inputs": [],
          "name": "liquidityProvider",
          "outputs": [
            {
              "internalType": "address",
              "name": "",
              "type": "address"
            }
          ],
          "stateMutability": "view",
          "type": "function"
        },
        {
          "inputs": [
            {
              "internalType": "uint256",
              "name": "reserve0",
              "type": "uint256"
            },
            {
              "internalType": "uint256",
              "name": "reserve1",
              "type": "uint256"
            },
            {
              "internalType": "address",
              "name": "_lp",
              "type": "address"
            }
          ],
          "name": "mint",
          "outputs": [
            {
              "internalType": "bool",
              "name": "",
              "type": "bool"
            }
          ],
          "stateMutability": "nonpayable",
          "type": "function"
        },
        {
          "inputs": [],
          "name": "priceALast",
          "outputs": [
            {
              "internalType": "uint256",
              "name": "",
              "type": "uint256"
            },
            {
              "internalType": "uint256",
              "name": "",
              "type": "uint256"
            }
          ],
          "stateMutability": "view",
          "type": "function"
        },
        {
          "inputs": [],
          "name": "priceBLast",
          "outputs": [
            {
              "internalType": "uint256",
              "name": "",
              "type": "uint256"
            },
            {
              "internalType": "uint256",
              "name": "",
              "type": "uint256"
            }
          ],
          "stateMutability": "view",
          "type": "function"
        },
        {
          "inputs": [
            {
              "internalType": "uint256",
              "name": "amount0In",
              "type": "uint256"
            },
            {
              "internalType": "uint256",
              "name": "amount0Out",
              "type": "uint256"
            },
            {
              "internalType": "uint256",
              "name": "amount1In",
              "type": "uint256"
            },
            {
              "internalType": "uint256",
              "name": "amount1Out",
              "type": "uint256"
            }
          ],
          "name": "swap",
          "outputs": [
            {
              "internalType": "bool",
              "name": "",
              "type": "bool"
            }
          ],
          "stateMutability": "nonpayable",
          "type": "function"
        },
        {
          "inputs": [],
          "name": "tokenA",
          "outputs": [
            {
              "internalType": "address",
              "name": "",
              "type": "address"
            }
          ],
          "stateMutability": "view",
          "type": "function"
        },
        {
          "inputs": [],
          "name": "tokenB",
          "outputs": [
            {
              "internalType": "address",
              "name": "",
              "type": "address"
            }
          ],
          "stateMutability": "view",
          "type": "function"
        },
        {
          "inputs": [
            {
              "internalType": "address",
              "name": "_address",
              "type": "address"
            },
            {
              "internalType": "uint256",
              "name": "amount",
              "type": "uint256"
            }
          ],
          "name": "transferETH",
          "outputs": [
            {
              "internalType": "bool",
              "name": "",
              "type": "bool"
            }
          ],
          "stateMutability": "nonpayable",
          "type": "function"
        },
        {
          "stateMutability": "payable",
          "type": "receive"
        }
      ],
      "evm": {
        "bytecode": {
          "linkReferences": {},
          "object": "6080346100cb57601f61092438819003918201601f19168301916001600160401b038311848410176100d0578084926060946040528339810103126100cb57610047816100e6565b906100606040610059602084016100e6565b92016100e6565b6001600055916001600160a01b0390811691819061007f8415156100fa565b169261008c8415156100fa565b16916100998315156100fa565b60018060a01b03199182600154161760015581600254161760025560035416176003556040516107dd90816101478239f35b600080fd5b634e487b7160e01b600052604160045260246000fd5b51906001600160a01b03821682036100cb57565b1561010157565b60405162461bcd60e51b815260206004820152601f60248201527f5a65726f2061646472657373657320617265206e6f7420616c6c6f7765642e006044820152606490fdfe6080604081815260049182361015610022575b505050361561002057600080fd5b005b600090813560e01c9081630902f1ac14610664575080630e06dfc9146106405780630fc63d10146106175780635673b02d146105685780635b8bec55146105405780635c52a5f21461044e5780635c9d69381461042a5780635f64b55b146104015780637464fc3d146103e2578063749388c4146102df5780637b1a49091461020d578063b69ef8a8146101f2578063ba9a7a56146101d5578063c45a0155146101a85763e7d3fe6b0361001257346101a5576100de366106ad565b85546001600160a01b0319166001600160a01b038216178655909282840290831584830486141715610192576020867f8334f87aeaf76e52b061d93ee968e51fdd3ad53ca04e80271249227997aab3a087876101888888865161014081610707565b848152858982015281888201526060429101528360055584600655600755426008558551938493849192604091949360608401958452602084015260018060a01b0316910152565b0390a15160018152f35b634e487b7160e01b815260118752602490fd5b80fd5b5090346101d157816003193601126101d15760015490516001600160a01b039091168152602090f35b5080fd5b5090346101d157816003193601126101d157602090516103e88152f35b5090346101d157816003193601126101d15751478152602090f35b508290346101a557826003193601126101a557808080806001600160a01b03610234610692565b1661024081151561075b565b602435905af1903d156102d9573d9067ffffffffffffffff82116102c657845191610275601f8201601f191660200184610739565b825260203d92013e5b1561028d576020825160018152f35b6020606492519162461bcd60e51b835282015260146024820152732a3930b739b332b91022aa24102330b4b632b21760611b6044820152fd5b634e487b7160e01b815260418452602490fd5b5061027e565b508290346101a557506102f1366106ad565b90926001600160a01b038083169061030a82151561075b565b8254160361038f576020857f254cba6bcaacd15ef1bba85e06c1d71c8cf7a3e036ad089903ba04bad25aaccc86866101888760075486519061034b82610707565b8482528589830152878201526060429101528260055583600655426008558551938493849192604091949360608401958452602084015260018060a01b0316910152565b608490602086519162461bcd60e51b8352820152602760248201527f4f6e6c79204c7020686f6c646572732063616e2063616c6c20746869732066756044820152663731ba34b7b71760c91b6064820152fd5b5090346101d157816003193601126101d1576020906007549051908152f35b5090346101d157816003193601126101d15760035490516001600160a01b039091168152602090f35b50346101a557806003193601126101a5575060065460055482519182526020820152f35b50913461051457606036600319011261051457610469610692565b6001600160a01b0360243581811693929084900361053c57600286541461052c57602092916044916002885516916104a283151561075b565b6104ad85151561075b565b868651958694859363095ea7b360e01b8552840152833560248401525af18015610520576104e4575b506001602092555160018152f35b6020813d602011610518575b816104fd60209383610739565b810103126105145751801515036101d157386104d6565b8280fd5b3d91506104f0565b505051903d90823e3d90fd5b8451633ee5aeb560e01b81528390fd5b8580fd5b5091346105145782600319360112610514575490516001600160a01b03909116815260209150f35b50346101a55760803660031901126101a557507f298c349c742327269dc8de6ad66687767310c948ea309df826f5bd103e19d207608060209335602435604435606435916105c1816105bc866005546106d7565b6106fa565b6105d1846105bc856006546106d7565b906007548951906105e182610707565b828252838c8301528a82015260604291015260055560065542600855865193845287840152858301526060820152a15160018152f35b5090346101d157816003193601126101d15760025490516001600160a01b039091168152602090f35b50346101a557806003193601126101a5575060055460065482519182526020820152f35b9050823461051457826003193601126105145760609250600554906006546008549284526020840152820152f35b600435906001600160a01b03821682036106a857565b600080fd5b60609060031901126106a85760043590602435906044356001600160a01b03811681036106a85790565b919082018092116106e457565b634e487b7160e01b600052601160045260246000fd5b919082039182116106e457565b6080810190811067ffffffffffffffff82111761072357604052565b634e487b7160e01b600052604160045260246000fd5b90601f8019910116810190811067ffffffffffffffff82111761072357604052565b1561076257565b60405162461bcd60e51b815260206004820152601f60248201527f5a65726f2061646472657373657320617265206e6f7420616c6c6f7765642e006044820152606490fdfea2646970667358221220b3752b7d290fbde27727ab709cc6250c226c8d432b0f59d1c5b31cc19f878ab764736f6c63430008180033",
          "opcodes": "PUSH1 0x80 CALLVALUE PUSH2 0xCB JUMPI PUSH1 0x1F PUSH2 0x924 CODESIZE DUP2 SWAP1 SUB SWAP2 DUP3 ADD PUSH1 0x1F NOT AND DUP4 ADD SWAP2 PUSH1 0x1 PUSH1 0x1 PUSH1 0x40 SHL SUB DUP4 GT DUP5 DUP5 LT OR PUSH2 0xD0 JUMPI DUP1 DUP5 SWAP3 PUSH1 0x60 SWAP5 PUSH1 0x40 MSTORE DUP4 CODECOPY DUP2 ADD SUB SLT PUSH2 0xCB JUMPI PUSH2 0x47 DUP2 PUSH2 0xE6 JUMP JUMPDEST SWAP1 PUSH2 0x60 PUSH1 0x40 PUSH2 0x59 PUSH1 0x20 DUP5 ADD PUSH2 0xE6 JUMP JUMPDEST SWAP3 ADD PUSH2 0xE6 JUMP JUMPDEST PUSH1 0x1 PUSH1 0x0 SSTORE SWAP2 PUSH1 0x1 PUSH1 0x1 PUSH1 0xA0 SHL SUB SWAP1 DUP2 AND SWAP2 DUP2 SWAP1 PUSH2 0x7F DUP5 ISZERO ISZERO PUSH2 0xFA JUMP JUMPDEST AND SWAP3 PUSH2 0x8C DUP5 ISZERO ISZERO PUSH2 0xFA JUMP JUMPDEST AND SWAP2 PUSH2 0x99 DUP4 ISZERO ISZERO PUSH2 0xFA JUMP JUMPDEST PUSH1 0x1 DUP1 PUSH1 0xA0 SHL SUB NOT SWAP2 DUP3 PUSH1 0x1 SLOAD AND OR PUSH1 0x1 SSTORE DUP2 PUSH1 0x2 SLOAD AND OR PUSH1 0x2 SSTORE PUSH1 0x3 SLOAD AND OR PUSH1 0x3 SSTORE PUSH1 0x40 MLOAD PUSH2 0x7DD SWAP1 DUP2 PUSH2 0x147 DUP3 CODECOPY RETURN JUMPDEST PUSH1 0x0 DUP1 REVERT JUMPDEST PUSH4 0x4E487B71 PUSH1 0xE0 SHL PUSH1 0x0 MSTORE PUSH1 0x41 PUSH1 0x4 MSTORE PUSH1 0x24 PUSH1 0x0 REVERT JUMPDEST MLOAD SWAP1 PUSH1 0x1 PUSH1 0x1 PUSH1 0xA0 SHL SUB DUP3 AND DUP3 SUB PUSH2 0xCB JUMPI JUMP JUMPDEST ISZERO PUSH2 0x101 JUMPI JUMP JUMPDEST PUSH1 0x40 MLOAD PUSH3 0x461BCD PUSH1 0xE5 SHL DUP2 MSTORE PUSH1 0x20 PUSH1 0x4 DUP3 ADD MSTORE PUSH1 0x1F PUSH1 0x24 DUP3 ADD MSTORE PUSH32 0x5A65726F2061646472657373657320617265206E6F7420616C6C6F7765642E00 PUSH1 0x44 DUP3 ADD MSTORE PUSH1 0x64 SWAP1 REVERT INVALID PUSH1 0x80 PUSH1 0x40 DUP2 DUP2 MSTORE PUSH1 0x4 SWAP2 DUP3 CALLDATASIZE LT ISZERO PUSH2 0x22 JUMPI JUMPDEST POP POP POP CALLDATASIZE ISZERO PUSH2 0x20 JUMPI PUSH1 0x0 DUP1 REVERT JUMPDEST STOP JUMPDEST PUSH1 0x0 SWAP1 DUP2 CALLDATALOAD PUSH1 0xE0 SHR SWAP1 DUP2 PUSH4 0x902F1AC EQ PUSH2 0x664 JUMPI POP DUP1 PUSH4 0xE06DFC9 EQ PUSH2 0x640 JUMPI DUP1 PUSH4 0xFC63D10 EQ PUSH2 0x617 JUMPI DUP1 PUSH4 0x5673B02D EQ PUSH2 0x568 JUMPI DUP1 PUSH4 0x5B8BEC55 EQ PUSH2 0x540 JUMPI DUP1 PUSH4 0x5C52A5F2 EQ PUSH2 0x44E JUMPI DUP1 PUSH4 0x5C9D6938 EQ PUSH2 0x42A JUMPI DUP1 PUSH4 0x5F64B55B EQ PUSH2 0x401 JUMPI DUP1 PUSH4 0x7464FC3D EQ PUSH2 0x3E2 JUMPI DUP1 PUSH4 0x749388C4 EQ PUSH2 0x2DF JUMPI DUP1 PUSH4 0x7B1A4909 EQ PUSH2 0x20D JUMPI DUP1 PUSH4 0xB69EF8A8 EQ PUSH2 0x1F2 JUMPI DUP1 PUSH4 0xBA9A7A56 EQ PUSH2 0x1D5 JUMPI DUP1 PUSH4 0xC45A0155 EQ PUSH2 0x1A8 JUMPI PUSH4 0xE7D3FE6B SUB PUSH2 0x12 JUMPI CALLVALUE PUSH2 0x1A5 JUMPI PUSH2 0xDE CALLDATASIZE PUSH2 0x6AD JUMP JUMPDEST DUP6 SLOAD PUSH1 0x1 PUSH1 0x1 PUSH1 0xA0 SHL SUB NOT AND PUSH1 0x1 PUSH1 0x1 PUSH1 0xA0 SHL SUB DUP3 AND OR DUP7 SSTORE SWAP1 SWAP3 DUP3 DUP5 MUL SWAP1 DUP4 ISZERO DUP5 DUP4 DIV DUP7 EQ OR ISZERO PUSH2 0x192 JUMPI PUSH1 0x20 DUP7 PUSH32 0x8334F87AEAF76E52B061D93EE968E51FDD3AD53CA04E80271249227997AAB3A0 DUP8 DUP8 PUSH2 0x188 DUP9 DUP9 DUP7 MLOAD PUSH2 0x140 DUP2 PUSH2 0x707 JUMP JUMPDEST DUP5 DUP2 MSTORE DUP6 DUP10 DUP3 ADD MSTORE DUP2 DUP9 DUP3 ADD MSTORE PUSH1 0x60 TIMESTAMP SWAP2 ADD MSTORE DUP4 PUSH1 0x5 SSTORE DUP5 PUSH1 0x6 SSTORE PUSH1 0x7 SSTORE TIMESTAMP PUSH1 0x8 SSTORE DUP6 MLOAD SWAP4 DUP5 SWAP4 DUP5 SWAP2 SWAP3 PUSH1 0x40 SWAP2 SWAP5 SWAP4 PUSH1 0x60 DUP5 ADD SWAP6 DUP5 MSTORE PUSH1 0x20 DUP5 ADD MSTORE PUSH1 0x1 DUP1 PUSH1 0xA0 SHL SUB AND SWAP2 ADD MSTORE JUMP JUMPDEST SUB SWAP1 LOG1 MLOAD PUSH1 0x1 DUP2 MSTORE RETURN JUMPDEST PUSH4 0x4E487B71 PUSH1 0xE0 SHL DUP2 MSTORE PUSH1 0x11 DUP8 MSTORE PUSH1 0x24 SWAP1 REVERT JUMPDEST DUP1 REVERT JUMPDEST POP SWAP1 CALLVALUE PUSH2 0x1D1 JUMPI DUP2 PUSH1 0x3 NOT CALLDATASIZE ADD SLT PUSH2 0x1D1 JUMPI PUSH1 0x1 SLOAD SWAP1 MLOAD PUSH1 0x1 PUSH1 0x1 PUSH1 0xA0 SHL SUB SWAP1 SWAP2 AND DUP2 MSTORE PUSH1 0x20 SWAP1 RETURN JUMPDEST POP DUP1 REVERT JUMPDEST POP SWAP1 CALLVALUE PUSH2 0x1D1 JUMPI DUP2 PUSH1 0x3 NOT CALLDATASIZE ADD SLT PUSH2 0x1D1 JUMPI PUSH1 0x20 SWAP1 MLOAD PUSH2 0x3E8 DUP2 MSTORE RETURN JUMPDEST POP SWAP1 CALLVALUE PUSH2 0x1D1 JUMPI DUP2 PUSH1 0x3 NOT CALLDATASIZE ADD SLT PUSH2 0x1D1 JUMPI MLOAD SELFBALANCE DUP2 MSTORE PUSH1 0x20 SWAP1 RETURN JUMPDEST POP DUP3 SWAP1 CALLVALUE PUSH2 0x1A5 JUMPI DUP3 PUSH1 0x3 NOT CALLDATASIZE ADD SLT PUSH2 0x1A5 JUMPI DUP1 DUP1 DUP1 DUP1 PUSH1 0x1 PUSH1 0x1 PUSH1 0xA0 SHL SUB PUSH2 0x234 PUSH2 0x692 JUMP JUMPDEST AND PUSH2 0x240 DUP2 ISZERO ISZERO PUSH2 0x75B JUMP JUMPDEST PUSH1 0x24 CALLDATALOAD SWAP1 GAS CALL SWAP1 RETURNDATASIZE ISZERO PUSH2 0x2D9 JUMPI RETURNDATASIZE SWAP1 PUSH8 0xFFFFFFFFFFFFFFFF DUP3 GT PUSH2 0x2C6 JUMPI DUP5 MLOAD SWAP2 PUSH2 0x275 PUSH1 0x1F DUP3 ADD PUSH1 0x1F NOT AND PUSH1 0x20 ADD DUP5 PUSH2 0x739 JUMP JUMPDEST DUP3 MSTORE PUSH1 0x20 RETURNDATASIZE SWAP3 ADD RETURNDATACOPY JUMPDEST ISZERO PUSH2 0x28D JUMPI PUSH1 0x20 DUP3 MLOAD PUSH1 0x1 DUP2 MSTORE RETURN JUMPDEST PUSH1 0x20 PUSH1 0x64 SWAP3 MLOAD SWAP2 PUSH3 0x461BCD PUSH1 0xE5 SHL DUP4 MSTORE DUP3 ADD MSTORE PUSH1 0x14 PUSH1 0x24 DUP3 ADD MSTORE PUSH20 0x2A3930B739B332B91022AA24102330B4B632B217 PUSH1 0x61 SHL PUSH1 0x44 DUP3 ADD MSTORE REVERT JUMPDEST PUSH4 0x4E487B71 PUSH1 0xE0 SHL DUP2 MSTORE PUSH1 0x41 DUP5 MSTORE PUSH1 0x24 SWAP1 REVERT JUMPDEST POP PUSH2 0x27E JUMP JUMPDEST POP DUP3 SWAP1 CALLVALUE PUSH2 0x1A5 JUMPI POP PUSH2 0x2F1 CALLDATASIZE PUSH2 0x6AD JUMP JUMPDEST SWAP1 SWAP3 PUSH1 0x1 PUSH1 0x1 PUSH1 0xA0 SHL SUB DUP1 DUP4 AND SWAP1 PUSH2 0x30A DUP3 ISZERO ISZERO PUSH2 0x75B JUMP JUMPDEST DUP3 SLOAD AND SUB PUSH2 0x38F JUMPI PUSH1 0x20 DUP6 PUSH32 0x254CBA6BCAACD15EF1BBA85E06C1D71C8CF7A3E036AD089903BA04BAD25AACCC DUP7 DUP7 PUSH2 0x188 DUP8 PUSH1 0x7 SLOAD DUP7 MLOAD SWAP1 PUSH2 0x34B DUP3 PUSH2 0x707 JUMP JUMPDEST DUP5 DUP3 MSTORE DUP6 DUP10 DUP4 ADD MSTORE DUP8 DUP3 ADD MSTORE PUSH1 0x60 TIMESTAMP SWAP2 ADD MSTORE DUP3 PUSH1 0x5 SSTORE DUP4 PUSH1 0x6 SSTORE TIMESTAMP PUSH1 0x8 SSTORE DUP6 MLOAD SWAP4 DUP5 SWAP4 DUP5 SWAP2 SWAP3 PUSH1 0x40 SWAP2 SWAP5 SWAP4 PUSH1 0x60 DUP5 ADD SWAP6 DUP5 MSTORE PUSH1 0x20 DUP5 ADD MSTORE PUSH1 0x1 DUP1 PUSH1 0xA0 SHL SUB AND SWAP2 ADD MSTORE JUMP JUMPDEST PUSH1 0x84 SWAP1 PUSH1 0x20 DUP7 MLOAD SWAP2 PUSH3 0x461BCD PUSH1 0xE5 SHL DUP4 MSTORE DUP3 ADD MSTORE PUSH1 0x27 PUSH1 0x24 DUP3 ADD MSTORE PUSH32 0x4F6E6C79204C7020686F6C646572732063616E2063616C6C2074686973206675 PUSH1 0x44 DUP3 ADD MSTORE PUSH7 0x3731BA34B7B717 PUSH1 0xC9 SHL PUSH1 0x64 DUP3 ADD MSTORE REVERT JUMPDEST POP SWAP1 CALLVALUE PUSH2 0x1D1 JUMPI DUP2 PUSH1 0x3 NOT CALLDATASIZE ADD SLT PUSH2 0x1D1 JUMPI PUSH1 0x20 SWAP1 PUSH1 0x7 SLOAD SWAP1 MLOAD SWAP1 DUP2 MSTORE RETURN JUMPDEST POP SWAP1 CALLVALUE PUSH2 0x1D1 JUMPI DUP2 PUSH1 0x3 NOT CALLDATASIZE ADD SLT PUSH2 0x1D1 JUMPI PUSH1 0x3 SLOAD SWAP1 MLOAD PUSH1 0x1 PUSH1 0x1 PUSH1 0xA0 SHL SUB SWAP1 SWAP2 AND DUP2 MSTORE PUSH1 0x20 SWAP1 RETURN JUMPDEST POP CALLVALUE PUSH2 0x1A5 JUMPI DUP1 PUSH1 0x3 NOT CALLDATASIZE ADD SLT PUSH2 0x1A5 JUMPI POP PUSH1 0x6 SLOAD PUSH1 0x5 SLOAD DUP3 MLOAD SWAP2 DUP3 MSTORE PUSH1 0x20 DUP3 ADD MSTORE RETURN JUMPDEST POP SWAP2 CALLVALUE PUSH2 0x514 JUMPI PUSH1 0x60 CALLDATASIZE PUSH1 0x3 NOT ADD SLT PUSH2 0x514 JUMPI PUSH2 0x469 PUSH2 0x692 JUMP JUMPDEST PUSH1 0x1 PUSH1 0x1 PUSH1 0xA0 SHL SUB PUSH1 0x24 CALLDATALOAD DUP2 DUP2 AND SWAP4 SWAP3 SWAP1 DUP5 SWAP1 SUB PUSH2 0x53C JUMPI PUSH1 0x2 DUP7 SLOAD EQ PUSH2 0x52C JUMPI PUSH1 0x20 SWAP3 SWAP2 PUSH1 0x44 SWAP2 PUSH1 0x2 DUP9 SSTORE AND SWAP2 PUSH2 0x4A2 DUP4 ISZERO ISZERO PUSH2 0x75B JUMP JUMPDEST PUSH2 0x4AD DUP6 ISZERO ISZERO PUSH2 0x75B JUMP JUMPDEST DUP7 DUP7 MLOAD SWAP6 DUP7 SWAP5 DUP6 SWAP4 PUSH4 0x95EA7B3 PUSH1 0xE0 SHL DUP6 MSTORE DUP5 ADD MSTORE DUP4 CALLDATALOAD PUSH1 0x24 DUP5 ADD MSTORE GAS CALL DUP1 ISZERO PUSH2 0x520 JUMPI PUSH2 0x4E4 JUMPI JUMPDEST POP PUSH1 0x1 PUSH1 0x20 SWAP3 SSTORE MLOAD PUSH1 0x1 DUP2 MSTORE RETURN JUMPDEST PUSH1 0x20 DUP2 RETURNDATASIZE PUSH1 0x20 GT PUSH2 0x518 JUMPI JUMPDEST DUP2 PUSH2 0x4FD PUSH1 0x20 SWAP4 DUP4 PUSH2 0x739 JUMP JUMPDEST DUP2 ADD SUB SLT PUSH2 0x514 JUMPI MLOAD DUP1 ISZERO ISZERO SUB PUSH2 0x1D1 JUMPI CODESIZE PUSH2 0x4D6 JUMP JUMPDEST DUP3 DUP1 REVERT JUMPDEST RETURNDATASIZE SWAP2 POP PUSH2 0x4F0 JUMP JUMPDEST POP POP MLOAD SWAP1 RETURNDATASIZE SWAP1 DUP3 RETURNDATACOPY RETURNDATASIZE SWAP1 REVERT JUMPDEST DUP5 MLOAD PUSH4 0x3EE5AEB5 PUSH1 0xE0 SHL DUP2 MSTORE DUP4 SWAP1 REVERT JUMPDEST DUP6 DUP1 REVERT JUMPDEST POP SWAP2 CALLVALUE PUSH2 0x514 JUMPI DUP3 PUSH1 0x3 NOT CALLDATASIZE ADD SLT PUSH2 0x514 JUMPI SLOAD SWAP1 MLOAD PUSH1 0x1 PUSH1 0x1 PUSH1 0xA0 SHL SUB SWAP1 SWAP2 AND DUP2 MSTORE PUSH1 0x20 SWAP2 POP RETURN JUMPDEST POP CALLVALUE PUSH2 0x1A5 JUMPI PUSH1 0x80 CALLDATASIZE PUSH1 0x3 NOT ADD SLT PUSH2 0x1A5 JUMPI POP PUSH32 0x298C349C742327269DC8DE6AD66687767310C948EA309DF826F5BD103E19D207 PUSH1 0x80 PUSH1 0x20 SWAP4 CALLDATALOAD PUSH1 0x24 CALLDATALOAD PUSH1 0x44 CALLDATALOAD PUSH1 0x64 CALLDATALOAD SWAP2 PUSH2 0x5C1 DUP2 PUSH2 0x5BC DUP7 PUSH1 0x5 SLOAD PUSH2 0x6D7 JUMP JUMPDEST PUSH2 0x6FA JUMP JUMPDEST PUSH2 0x5D1 DUP5 PUSH2 0x5BC DUP6 PUSH1 0x6 SLOAD PUSH2 0x6D7 JUMP JUMPDEST SWAP1 PUSH1 0x7 SLOAD DUP10 MLOAD SWAP1 PUSH2 0x5E1 DUP3 PUSH2 0x707 JUMP JUMPDEST DUP3 DUP3 MSTORE DUP4 DUP13 DUP4 ADD MSTORE DUP11 DUP3 ADD MSTORE PUSH1 0x60 TIMESTAMP SWAP2 ADD MSTORE PUSH1 0x5 SSTORE PUSH1 0x6 SSTORE TIMESTAMP PUSH1 0x8 SSTORE DUP7 MLOAD SWAP4 DUP5 MSTORE DUP8 DUP5 ADD MSTORE DUP6 DUP4 ADD MSTORE PUSH1 0x60 DUP3 ADD MSTORE LOG1 MLOAD PUSH1 0x1 DUP2 MSTORE RETURN JUMPDEST POP SWAP1 CALLVALUE PUSH2 0x1D1 JUMPI DUP2 PUSH1 0x3 NOT CALLDATASIZE ADD SLT PUSH2 0x1D1 JUMPI PUSH1 0x2 SLOAD SWAP1 MLOAD PUSH1 0x1 PUSH1 0x1 PUSH1 0xA0 SHL SUB SWAP1 SWAP2 AND DUP2 MSTORE PUSH1 0x20 SWAP1 RETURN JUMPDEST POP CALLVALUE PUSH2 0x1A5 JUMPI DUP1 PUSH1 0x3 NOT CALLDATASIZE ADD SLT PUSH2 0x1A5 JUMPI POP PUSH1 0x5 SLOAD PUSH1 0x6 SLOAD DUP3 MLOAD SWAP2 DUP3 MSTORE PUSH1 0x20 DUP3 ADD MSTORE RETURN JUMPDEST SWAP1 POP DUP3 CALLVALUE PUSH2 0x514 JUMPI DUP3 PUSH1 0x3 NOT CALLDATASIZE ADD SLT PUSH2 0x514 JUMPI PUSH1 0x60 SWAP3 POP PUSH1 0x5 SLOAD SWAP1 PUSH1 0x6 SLOAD PUSH1 0x8 SLOAD SWAP3 DUP5 MSTORE PUSH1 0x20 DUP5 ADD MSTORE DUP3 ADD MSTORE RETURN JUMPDEST PUSH1 0x4 CALLDATALOAD SWAP1 PUSH1 0x1 PUSH1 0x1 PUSH1 0xA0 SHL SUB DUP3 AND DUP3 SUB PUSH2 0x6A8 JUMPI JUMP JUMPDEST PUSH1 0x0 DUP1 REVERT JUMPDEST PUSH1 0x60 SWAP1 PUSH1 0x3 NOT ADD SLT PUSH2 0x6A8 JUMPI PUSH1 0x4 CALLDATALOAD SWAP1 PUSH1 0x24 CALLDATALOAD SWAP1 PUSH1 0x44 CALLDATALOAD PUSH1 0x1 PUSH1 0x1 PUSH1 0xA0 SHL SUB DUP2 AND DUP2 SUB PUSH2 0x6A8 JUMPI SWAP1 JUMP JUMPDEST SWAP2 SWAP1 DUP3 ADD DUP1 SWAP3 GT PUSH2 0x6E4 JUMPI JUMP JUMPDEST PUSH4 0x4E487B71 PUSH1 0xE0 SHL PUSH1 0x0 MSTORE PUSH1 0x11 PUSH1 0x4 MSTORE PUSH1 0x24 PUSH1 0x0 REVERT JUMPDEST SWAP2 SWAP1 DUP3 SUB SWAP2 DUP3 GT PUSH2 0x6E4 JUMPI JUMP JUMPDEST PUSH1 0x80 DUP2 ADD SWAP1 DUP2 LT PUSH8 0xFFFFFFFFFFFFFFFF DUP3 GT OR PUSH2 0x723 JUMPI PUSH1 0x40 MSTORE JUMP JUMPDEST PUSH4 0x4E487B71 PUSH1 0xE0 SHL PUSH1 0x0 MSTORE PUSH1 0x41 PUSH1 0x4 MSTORE PUSH1 0x24 PUSH1 0x0 REVERT JUMPDEST SWAP1 PUSH1 0x1F DUP1 NOT SWAP2 ADD AND DUP2 ADD SWAP1 DUP2 LT PUSH8 0xFFFFFFFFFFFFFFFF DUP3 GT OR PUSH2 0x723 JUMPI PUSH1 0x40 MSTORE JUMP JUMPDEST ISZERO PUSH2 0x762 JUMPI JUMP JUMPDEST PUSH1 0x40 MLOAD PUSH3 0x461BCD PUSH1 0xE5 SHL DUP2 MSTORE PUSH1 0x20 PUSH1 0x4 DUP3 ADD MSTORE PUSH1 0x1F PUSH1 0x24 DUP3 ADD MSTORE PUSH32 0x5A65726F2061646472657373657320617265206E6F7420616C6C6F7765642E00 PUSH1 0x44 DUP3 ADD MSTORE PUSH1 0x64 SWAP1 REVERT INVALID LOG2 PUSH5 0x6970667358 0x22 SLT KECCAK256 0xB3 PUSH22 0x2B7D290FBDE27727AB709CC6250C226C8D432B0F59D1 0xC5 0xB3 SHR 0xC1 SWAP16 DUP8 DUP11 0xB7 PUSH5 0x736F6C6343 STOP ADDMOD XOR STOP CALLER "
        },
        "methodIdentifiers": {
          "MINIMUM_LIQUIDITY()": "ba9a7a56",
          "approval(address,address,uint256)": "5c52a5f2",
          "balance()": "b69ef8a8",
          "burn(uint256,uint256,address)": "749388c4",
          "factory()": "c45a0155",
          "getReserves()": "0902f1ac",
          "kLast()": "7464fc3d",
          "liquidityProvider()": "5b8bec55",
          "mint(uint256,uint256,address)": "e7d3fe6b",
          "priceALast()": "5c9d6938",
          "priceBLast()": "0e06dfc9",
          "swap(uint256,uint256,uint256,uint256)": "5673b02d",
          "tokenA()": "0fc63d10",
          "tokenB()": "5f64b55b",
          "transferETH(address,uint256)": "7b1a4909"
        }
      }
    }
  }
}