{
  "_format": "hh-sol-artifact-1",
  "contractName": "PumpFun",
  "sourceName": "contracts/PumpFun.sol",
  "abi": [
    {
      "inputs": [
        {
          "internalType": "address",
          "name": "factory_",
          "type": "address"
        },
        {
          "internalType": "address",
          "name": "router_",
          "type": "address"
        },
        {
          "internalType": "address",
          "name": "fee_to",
          "type": "address"
        },
        {
          "internalType": "uint256",
          "name": "_fee",
          "type": "uint256"
        }
      ],
      "stateMutability": "nonpayable",
      "type": "constructor"
    },
    {
      "inputs": [],
      "name": "ReentrancyGuardReentrantCall",
      "type": "error"
    },
    {
      "anonymous": false,
      "inputs": [
        {
          "indexed": true,
          "internalType": "address",
          "name": "token",
          "type": "address"
        },
        {
          "indexed": false,
          "internalType": "uint256",
          "name": "amount0",
          "type": "uint256"
        },
        {
          "indexed": false,
          "internalType": "uint256",
          "name": "amount1",
          "type": "uint256"
        }
      ],
      "name": "Deployed",
      "type": "event"
    },
    {
      "anonymous": false,
      "inputs": [
        {
          "indexed": true,
          "internalType": "address",
          "name": "token",
          "type": "address"
        },
        {
          "indexed": true,
          "internalType": "address",
          "name": "pair",
          "type": "address"
        },
        {
          "indexed": false,
          "internalType": "uint256",
          "name": "",
          "type": "uint256"
        }
      ],
      "name": "Launched",
      "type": "event"
    },
    {
      "inputs": [
        {
          "internalType": "address",
          "name": "_user",
          "type": "address"
        },
        {
          "internalType": "address",
          "name": "_token",
          "type": "address"
        },
        {
          "internalType": "uint256",
          "name": "amount",
          "type": "uint256"
        }
      ],
      "name": "approval",
      "outputs": [
        {
          "internalType": "bool",
          "name": "",
          "type": "bool"
        }
      ],
      "stateMutability": "nonpayable",
      "type": "function"
    },
    {
      "inputs": [
        {
          "internalType": "address",
          "name": "tk",
          "type": "address"
        }
      ],
      "name": "deploy",
      "outputs": [],
      "stateMutability": "nonpayable",
      "type": "function"
    },
    {
      "inputs": [],
      "name": "feeTo",
      "outputs": [
        {
          "internalType": "address",
          "name": "",
          "type": "address"
        }
      ],
      "stateMutability": "view",
      "type": "function"
    },
    {
      "inputs": [],
      "name": "feeToSetter",
      "outputs": [
        {
          "internalType": "address",
          "name": "",
          "type": "address"
        }
      ],
      "stateMutability": "view",
      "type": "function"
    },
    {
      "inputs": [],
      "name": "getTokens",
      "outputs": [
        {
          "components": [
            {
              "internalType": "address",
              "name": "creator",
              "type": "address"
            },
            {
              "internalType": "address",
              "name": "token",
              "type": "address"
            },
            {
              "internalType": "address",
              "name": "pair",
              "type": "address"
            },
            {
              "components": [
                {
                  "internalType": "address",
                  "name": "token",
                  "type": "address"
                },
                {
                  "internalType": "string",
                  "name": "name",
                  "type": "string"
                },
                {
                  "internalType": "string",
                  "name": "ticker",
                  "type": "string"
                },
                {
                  "internalType": "uint256",
                  "name": "supply",
                  "type": "uint256"
                },
                {
                  "internalType": "uint256",
                  "name": "price",
                  "type": "uint256"
                },
                {
                  "internalType": "uint256",
                  "name": "marketCap",
                  "type": "uint256"
                },
                {
                  "internalType": "uint256",
                  "name": "liquidity",
                  "type": "uint256"
                },
                {
                  "internalType": "uint256",
                  "name": "_liquidity",
                  "type": "uint256"
                },
                {
                  "internalType": "uint256",
                  "name": "volume",
                  "type": "uint256"
                },
                {
                  "internalType": "uint256",
                  "name": "volume24H",
                  "type": "uint256"
                },
                {
                  "internalType": "uint256",
                  "name": "prevPrice",
                  "type": "uint256"
                },
                {
                  "internalType": "uint256",
                  "name": "lastUpdated",
                  "type": "uint256"
                }
              ],
              "internalType": "struct PumpFun.Data",
              "name": "data",
              "type": "tuple"
            },
            {
              "internalType": "string",
              "name": "description",
              "type": "string"
            },
            {
              "internalType": "string",
              "name": "image",
              "type": "string"
            },
            {
              "internalType": "string",
              "name": "twitter",
              "type": "string"
            },
            {
              "internalType": "string",
              "name": "telegram",
              "type": "string"
            },
            {
              "internalType": "string",
              "name": "youtube",
              "type": "string"
            },
            {
              "internalType": "string",
              "name": "website",
              "type": "string"
            },
            {
              "internalType": "bool",
              "name": "trading",
              "type": "bool"
            },
            {
              "internalType": "bool",
              "name": "tradingOnUniswap",
              "type": "bool"
            }
          ],
          "internalType": "struct PumpFun.Token[]",
          "name": "",
          "type": "tuple[]"
        }
      ],
      "stateMutability": "view",
      "type": "function"
    },
    {
      "inputs": [],
      "name": "getUserTokens",
      "outputs": [
        {
          "components": [
            {
              "internalType": "address",
              "name": "creator",
              "type": "address"
            },
            {
              "internalType": "address",
              "name": "token",
              "type": "address"
            },
            {
              "internalType": "address",
              "name": "pair",
              "type": "address"
            },
            {
              "components": [
                {
                  "internalType": "address",
                  "name": "token",
                  "type": "address"
                },
                {
                  "internalType": "string",
                  "name": "name",
                  "type": "string"
                },
                {
                  "internalType": "string",
                  "name": "ticker",
                  "type": "string"
                },
                {
                  "internalType": "uint256",
                  "name": "supply",
                  "type": "uint256"
                },
                {
                  "internalType": "uint256",
                  "name": "price",
                  "type": "uint256"
                },
                {
                  "internalType": "uint256",
                  "name": "marketCap",
                  "type": "uint256"
                },
                {
                  "internalType": "uint256",
                  "name": "liquidity",
                  "type": "uint256"
                },
                {
                  "internalType": "uint256",
                  "name": "_liquidity",
                  "type": "uint256"
                },
                {
                  "internalType": "uint256",
                  "name": "volume",
                  "type": "uint256"
                },
                {
                  "internalType": "uint256",
                  "name": "volume24H",
                  "type": "uint256"
                },
                {
                  "internalType": "uint256",
                  "name": "prevPrice",
                  "type": "uint256"
                },
                {
                  "internalType": "uint256",
                  "name": "lastUpdated",
                  "type": "uint256"
                }
              ],
              "internalType": "struct PumpFun.Data",
              "name": "data",
              "type": "tuple"
            },
            {
              "internalType": "string",
              "name": "description",
              "type": "string"
            },
            {
              "internalType": "string",
              "name": "image",
              "type": "string"
            },
            {
              "internalType": "string",
              "name": "twitter",
              "type": "string"
            },
            {
              "internalType": "string",
              "name": "telegram",
              "type": "string"
            },
            {
              "internalType": "string",
              "name": "youtube",
              "type": "string"
            },
            {
              "internalType": "string",
              "name": "website",
              "type": "string"
            },
            {
              "internalType": "bool",
              "name": "trading",
              "type": "bool"
            },
            {
              "internalType": "bool",
              "name": "tradingOnUniswap",
              "type": "bool"
            }
          ],
          "internalType": "struct PumpFun.Token[]",
          "name": "",
          "type": "tuple[]"
        }
      ],
      "stateMutability": "view",
      "type": "function"
    },
    {
      "inputs": [
        {
          "internalType": "string",
          "name": "_name",
          "type": "string"
        },
        {
          "internalType": "string",
          "name": "_ticker",
          "type": "string"
        },
        {
          "internalType": "string",
          "name": "desc",
          "type": "string"
        },
        {
          "internalType": "string",
          "name": "img",
          "type": "string"
        },
        {
          "internalType": "string[4]",
          "name": "urls",
          "type": "string[4]"
        },
        {
          "internalType": "uint256",
          "name": "_supply",
          "type": "uint256"
        },
        {
          "internalType": "uint256",
          "name": "maxTx",
          "type": "uint256"
        }
      ],
      "name": "launch",
      "outputs": [
        {
          "internalType": "address",
          "name": "",
          "type": "address"
        },
        {
          "internalType": "address",
          "name": "",
          "type": "address"
        },
        {
          "internalType": "uint256",
          "name": "",
          "type": "uint256"
        }
      ],
      "stateMutability": "payable",
      "type": "function"
    },
    {
      "inputs": [],
      "name": "launchFee",
      "outputs": [
        {
          "internalType": "uint256",
          "name": "",
          "type": "uint256"
        }
      ],
      "stateMutability": "view",
      "type": "function"
    },
    {
      "inputs": [],
      "name": "liquidityFee",
      "outputs": [
        {
          "internalType": "uint256",
          "name": "",
          "type": "uint256"
        }
      ],
      "stateMutability": "pure",
      "type": "function"
    },
    {
      "inputs": [],
      "name": "marketCapLimit",
      "outputs": [
        {
          "internalType": "uint256",
          "name": "",
          "type": "uint256"
        }
      ],
      "stateMutability": "pure",
      "type": "function"
    },
    {
      "inputs": [
        {
          "internalType": "address",
          "name": "",
          "type": "address"
        }
      ],
      "name": "profile",
      "outputs": [
        {
          "internalType": "address",
          "name": "user",
          "type": "address"
        }
      ],
      "stateMutability": "view",
      "type": "function"
    },
    {
      "inputs": [
        {
          "internalType": "uint256",
          "name": "",
          "type": "uint256"
        }
      ],
      "name": "profiles",
      "outputs": [
        {
          "internalType": "address",
          "name": "user",
          "type": "address"
        }
      ],
      "stateMutability": "view",
      "type": "function"
    },
    {
      "inputs": [
        {
          "internalType": "address",
          "name": "fee_to",
          "type": "address"
        }
      ],
      "name": "setFeeTo",
      "outputs": [],
      "stateMutability": "nonpayable",
      "type": "function"
    },
    {
      "inputs": [
        {
          "internalType": "address",
          "name": "tk",
          "type": "address"
        },
        {
          "internalType": "address",
          "name": "to",
          "type": "address"
        },
        {
          "internalType": "address",
          "name": "referree",
          "type": "address"
        }
      ],
      "name": "swapETHForTokens",
      "outputs": [
        {
          "internalType": "bool",
          "name": "",
          "type": "bool"
        }
      ],
      "stateMutability": "payable",
      "type": "function"
    },
    {
      "inputs": [
        {
          "internalType": "uint256",
          "name": "amountIn",
          "type": "uint256"
        },
        {
          "internalType": "address",
          "name": "tk",
          "type": "address"
        },
        {
          "internalType": "address",
          "name": "to",
          "type": "address"
        },
        {
          "internalType": "address",
          "name": "referree",
          "type": "address"
        }
      ],
      "name": "swapTokensForETH",
      "outputs": [
        {
          "internalType": "bool",
          "name": "",
          "type": "bool"
        }
      ],
      "stateMutability": "nonpayable",
      "type": "function"
    },
    {
      "inputs": [
        {
          "internalType": "address",
          "name": "",
          "type": "address"
        }
      ],
      "name": "token",
      "outputs": [
        {
          "internalType": "address",
          "name": "creator",
          "type": "address"
        },
        {
          "internalType": "address",
          "name": "token",
          "type": "address"
        },
        {
          "internalType": "address",
          "name": "pair",
          "type": "address"
        },
        {
          "components": [
            {
              "internalType": "address",
              "name": "token",
              "type": "address"
            },
            {
              "internalType": "string",
              "name": "name",
              "type": "string"
            },
            {
              "internalType": "string",
              "name": "ticker",
              "type": "string"
            },
            {
              "internalType": "uint256",
              "name": "supply",
              "type": "uint256"
            },
            {
              "internalType": "uint256",
              "name": "price",
              "type": "uint256"
            },
            {
              "internalType": "uint256",
              "name": "marketCap",
              "type": "uint256"
            },
            {
              "internalType": "uint256",
              "name": "liquidity",
              "type": "uint256"
            },
            {
              "internalType": "uint256",
              "name": "_liquidity",
              "type": "uint256"
            },
            {
              "internalType": "uint256",
              "name": "volume",
              "type": "uint256"
            },
            {
              "internalType": "uint256",
              "name": "volume24H",
              "type": "uint256"
            },
            {
              "internalType": "uint256",
              "name": "prevPrice",
              "type": "uint256"
            },
            {
              "internalType": "uint256",
              "name": "lastUpdated",
              "type": "uint256"
            }
          ],
          "internalType": "struct PumpFun.Data",
          "name": "data",
          "type": "tuple"
        },
        {
          "internalType": "string",
          "name": "description",
          "type": "string"
        },
        {
          "internalType": "string",
          "name": "image",
          "type": "string"
        },
        {
          "internalType": "string",
          "name": "twitter",
          "type": "string"
        },
        {
          "internalType": "string",
          "name": "telegram",
          "type": "string"
        },
        {
          "internalType": "string",
          "name": "youtube",
          "type": "string"
        },
        {
          "internalType": "string",
          "name": "website",
          "type": "string"
        },
        {
          "internalType": "bool",
          "name": "trading",
          "type": "bool"
        },
        {
          "internalType": "bool",
          "name": "tradingOnUniswap",
          "type": "bool"
        }
      ],
      "stateMutability": "view",
      "type": "function"
    },
    {
      "inputs": [
        {
          "internalType": "uint256",
          "name": "",
          "type": "uint256"
        }
      ],
      "name": "tokens",
      "outputs": [
        {
          "internalType": "address",
          "name": "creator",
          "type": "address"
        },
        {
          "internalType": "address",
          "name": "token",
          "type": "address"
        },
        {
          "internalType": "address",
          "name": "pair",
          "type": "address"
        },
        {
          "components": [
            {
              "internalType": "address",
              "name": "token",
              "type": "address"
            },
            {
              "internalType": "string",
              "name": "name",
              "type": "string"
            },
            {
              "internalType": "string",
              "name": "ticker",
              "type": "string"
            },
            {
              "internalType": "uint256",
              "name": "supply",
              "type": "uint256"
            },
            {
              "internalType": "uint256",
              "name": "price",
              "type": "uint256"
            },
            {
              "internalType": "uint256",
              "name": "marketCap",
              "type": "uint256"
            },
            {
              "internalType": "uint256",
              "name": "liquidity",
              "type": "uint256"
            },
            {
              "internalType": "uint256",
              "name": "_liquidity",
              "type": "uint256"
            },
            {
              "internalType": "uint256",
              "name": "volume",
              "type": "uint256"
            },
            {
              "internalType": "uint256",
              "name": "volume24H",
              "type": "uint256"
            },
            {
              "internalType": "uint256",
              "name": "prevPrice",
              "type": "uint256"
            },
            {
              "internalType": "uint256",
              "name": "lastUpdated",
              "type": "uint256"
            }
          ],
          "internalType": "struct PumpFun.Data",
          "name": "data",
          "type": "tuple"
        },
        {
          "internalType": "string",
          "name": "description",
          "type": "string"
        },
        {
          "internalType": "string",
          "name": "image",
          "type": "string"
        },
        {
          "internalType": "string",
          "name": "twitter",
          "type": "string"
        },
        {
          "internalType": "string",
          "name": "telegram",
          "type": "string"
        },
        {
          "internalType": "string",
          "name": "youtube",
          "type": "string"
        },
        {
          "internalType": "string",
          "name": "website",
          "type": "string"
        },
        {
          "internalType": "bool",
          "name": "trading",
          "type": "bool"
        },
        {
          "internalType": "bool",
          "name": "tradingOnUniswap",
          "type": "bool"
        }
      ],
      "stateMutability": "view",
      "type": "function"
    },
    {
      "inputs": [
        {
          "internalType": "uint256",
          "name": "_fee",
          "type": "uint256"
        }
      ],
      "name": "updateLaunchFee",
      "outputs": [
        {
          "internalType": "uint256",
          "name": "",
          "type": "uint256"
        }
      ],
      "stateMutability": "nonpayable",
      "type": "function"
    },
    {
      "inputs": [],
      "name": "withdraw",
      "outputs": [
        {
          "internalType": "bool",
          "name": "",
          "type": "bool"
        }
      ],
      "stateMutability": "nonpayable",
      "type": "function"
    },
    {
      "stateMutability": "payable",
      "type": "receive"
    }
  ],
  "bytecode": "0x6080346200014657601f62004d1638819003918201601f19168301916001600160401b038311848410176200014b5780849260809460405283398101031262000146576200004d8162000161565b6200005b6020830162000161565b60606200006b6040850162000161565b9301516001600081905580546001600160a01b03199081163317909155909390926001600160a01b03908116928190620000a785151562000176565b1691620000b683151562000176565b1691620000c583151562000176565b836002541617600255826003541617600355816004541617600455670de0b6b3a76400009182810292818404149015171562000130576103e8734752ba5dbc23f44d87826276bf6fd6b1c372ad2492046005556006541617600655604051614b529081620001c48239f35b634e487b7160e01b600052601160045260246000fd5b600080fd5b634e487b7160e01b600052604160045260246000fd5b51906001600160a01b03821682036200014657565b156200017e57565b60405162461bcd60e51b815260206004820152601f60248201527f5a65726f2061646472657373657320617265206e6f7420616c6c6f7765642e006044820152606490fdfe60808060405260043610156200001f575b5036156200001d57600080fd5b005b600090813560e01c908163017e7e58146200255657508063094b7415146200252b5780633ccfd60b14620024aa5780634c96a3891462001aa95780634f64b2be1462001a46578063512b1e6e14620015ca57806357f8d90114620010935780635c52a5f214620010425780636d46a1db1462000f725780637660f44a1462000f4d57806380997e471462000f265780638a664ebc1462000d5257806398118cb41462000d345780639dd9d0fd1462000cf4578063aa6ca8081462000b7e578063ad256f7d14620001d0578063c36fe3d6146200018c578063cf3cf573146200016c5763f46901ed03620000105734620001695760203660031901126200016957620001296200257d565b6001546001600160a01b03919062000145908316331462002bd3565b166200015381151562002c2f565b6001600160601b0360a01b600454161760045580f35b80fd5b503462000169578060031936011262000169576020600554604051908152f35b50346200016957602036600319011262000169576004359060085482101562000169576020620001bc8362002b63565b50546040516001600160a01b039091168152f35b5060e036600319011262000169576001600160401b036004358181116200078b576200020190369060040162002b16565b60243582811162000b7a576200021c90369060040162002b16565b9060443583811162000b76576200023890369060040162002b16565b9160643584811162000b72576200025490369060040162002b16565b926084359480861162000b6e573660238701121562000b6e576040519560808701878110838211176200086157604052608481018736821162000b6a5782600401905b82821062000b3a5750505050620002ad62003749565b600554341062000af557604051906110ab8083019182118383101762000ae15790829162003a72833960808152620002fc620002ed608083018862002803565b82810360208401528662002803565b9060a4356040820152606060c435910152039087f094851562000ad6576003546040516315ab88c960e31b81529590602090879060049082906001600160a01b03165afa958615620008c65762000395966020918a9162000ab4575b506002546040516364e329cb60e11b81526001600160a01b038b8116600483015292831660248201529889929091169082908c9082906044820190565b03925af1958615620008c657889662000a7c575b5060405163313ce56760e01b81526020816004816001600160a01b038c165afa801562000a7157899062000a2d575b60ff915016604d811162000a1957620003f790600a0a60a43562002d1b565b600354620004149082906001600160a01b038b8116911662003787565b1562000a1557346005029060058204340362000a015762000439606483043462002d0d565b60035460408051630e505aa960e31b81526001600160a01b038d8116600483015260248201869052939a9390928391604491839160648a0491165af18015620009c157620009cc575b50604051635d4d3d2b60e11b8152916020836004816001600160a01b038e165afa928315620009c1578c9362000984575b50620004c26004938262002d2f565b604051635d4d3d2b60e11b8152939092906020908590816001600160a01b038f165afa93841562000979578d946200093f575b50606485046064860460011b04600214606486041517156200092b57908c94939291600460208d60405192838092635d4d3d2b60e11b825260018060a01b03165afa9687156200091f5796620008e5575b50858060011b0460021486151715620008d157908d9594939291600460208e60405192838092635d4d3d2b60e11b825260018060a01b03165afa908115620008c6578f989162000877575b509a8291620005aa620005b69d60649897969562002d2f565b986040519d8e62002651565b60018060a01b03168d5260208d015260408c015260608b015260808a015260a08901520460011b60c087015260011b60e08601528861010086015288610120860152610140850152426101608501528151602083015191606060408501519401519460405196620006278862002651565b33885260018060a01b038b16602089015260018060a01b038a1660408901526060880152608087015260a086015260c085015260e084015261010083015261012082015260016101408201528461016082015260018060a01b0384168552600960205262000699816040872062002d50565b600a5490600160401b91828110156200086157806001620006be9201600a55620025c2565b9290926200084b57620006d382889462002d50565b620006de3362003838565b156200078f575081809362000703829333845260076020526001604085200162003712565b6004546001600160a01b03165af16200071b62002b9e565b50156200078b57600a546040518181526060949192916001916001600160a01b0380851691908716907f714aa39317ad9a7a7a99db52b44490da5d068a0b2710fffb1a1282ad3cadae1f90602090a355604080516001600160a01b03948516815291909316602082015291820152f35b8280fd5b9091506200079f33151562002c2f565b60405190620007ae826200266e565b338252606060208301523387526007602052620007cf8260408920620038df565b600854908110156200083757806001620007ed920160085562002b63565b620008235786936200081d85946200080886958695620038df565b33845260076020526001604085200162003712565b62000703565b634e487b7160e01b87526004879052602487fd5b634e487b7160e01b87526041600452602487fd5b634e487b7160e01b600052600060045260246000fd5b634e487b7160e01b600052604160045260246000fd5b95949392919750506020853d602011620008bd575b816200089b602093836200268a565b81010312620008b85793518d969394929391929190606462000591565b600080fd5b3d91506200088c565b6040513d8a823e3d90fd5b634e487b7160e01b8e52601160045260248efd5b9095506020813d60201162000916575b8162000904602093836200268a565b81010312620008b85751943862000546565b3d9150620008f5565b604051903d90823e3d90fd5b634e487b7160e01b8d52601160045260248dfd5b9093506020813d60201162000970575b816200095e602093836200268a565b81010312620008b857519238620004f5565b3d91506200094f565b6040513d8f823e3d90fd5b92506020833d602011620009b8575b81620009a2602093836200268a565b81010312620008b857915191620004c2620004b3565b3d915062000993565b6040513d8e823e3d90fd5b620009f29060403d604011620009f9575b620009e981836200268a565b81019062002c9d565b5062000482565b503d620009dd565b634e487b7160e01b8a52601160045260248afd5b8880fd5b634e487b7160e01b89526011600452602489fd5b506020813d60201162000a68575b8162000a4a602093836200268a565b8101031262000a15575160ff8116810362000a155760ff90620003d8565b3d915062000a3b565b6040513d8b823e3d90fd5b62000aa491965060203d60201162000aac575b62000a9b81836200268a565b81019062002c7c565b9438620003a9565b503d62000a8f565b62000acf9150823d841162000aac5762000a9b81836200268a565b3862000358565b6040513d88823e3d90fd5b634e487b7160e01b89526041600452602489fd5b60405162461bcd60e51b815260206004820152601960248201527f496e73756666696369656e7420616d6f756e742073656e742e000000000000006044820152606490fd5b813585811162000b665760209162000b5a83926004369189010162002b16565b81520191019062000297565b8b80fd5b8980fd5b8680fd5b8580fd5b8480fd5b8380fd5b50346200016957806003193601126200016957600a546001600160401b03811162000861576020906040519062000bbc60208260051b01836200268a565b80825260208201600a6000527fc65a7bb8d6351c1cf70c95a316cc6a92839c986682d98bc35f958f4883f9d2a8936000915b83831062000c0a576040518062000c068782620029af565b0390f35b60168260019260405162000c1e8162002651565b848060a01b03808b5416825280868c0154168483015260028b015416604082015262000c4d60038b016200275d565b606082015262000c60600f8b01620026ac565b608082015262000c7360108b01620026ac565b60a082015262000c8660118b01620026ac565b60c082015262000c9960128b01620026ac565b60e082015262000cac60138b01620026ac565b61010082015262000cc060148b01620026ac565b61012082015260158a015460ff90818116151561014084015260081c16151561016082015281520196019201919462000bee565b50346200016957602036600319011262000169576020906001600160a01b03906040908262000d226200257d565b16815260078452205416604051908152f35b50346200016957806003193601126200016957602060405160058152f35b5034620001695780600319360112620001695762000d703362003838565b1562000ee1573381526040602091600783522060405162000d91816200266e565b81546001600160a01b039081168252600192830180549093916001600160401b0382116200086157936040519462000dcf878460051b01876200268a565b8286526000918252868220908787015b84841062000dfd578689018890526040518062000c068a82620029af565b601689879260405162000e108162002651565b8587541681528585880154168382015285600288015416604082015262000e3a600388016200275d565b606082015262000e4d600f8801620026ac565b608082015262000e6060108801620026ac565b60a082015262000e7360118801620026ac565b60c082015262000e8660128801620026ac565b60e082015262000e9960138801620026ac565b61010082015262000ead60148801620026ac565b610120820152601587015460ff90818116151561014084015260081c16151561016082015281520193019301929162000ddf565b60405162461bcd60e51b815260206004820152601c60248201527f557365722050726f66696c6520646f7365206e6f742065786973742e000000006044820152606490fd5b50346200016957806003193601126200016957602060405169152d02c7e14af68000008152f35b5034620001695760203660031901126200016957602060043580600555604051908152f35b50346200016957602036600319011262000169576001600160a01b03906040908262000f9d6200257d565b1681526009602052209062000c06818354169282600182015416926002820154169362000fcd600383016200275d565b9162000fdc600f8201620026ac565b62000fea60108301620026ac565b62000ff860118401620026ac565b6200100660128501620026ac565b916200101560138601620026ac565b9360156200102660148801620026ac565b960154976040519b8c9b60ff808c60081c169b16998d620028e6565b5034620001695760603660031901126200016957602090600162001087620010696200257d565b6200107362002594565b6200107d62003749565b6044359162003787565b91556040519015158152f35b5060603660031901126200016957620010ab6200257d565b90620010b662002594565b620010c0620025ab565b90620010d76001600160a01b038516151562002c2f565b6001600160a01b031690620010ee82151562002c2f565b6001600160a01b0316906200110582151562002c2f565b6002546003546040516315ab88c960e31b81526001600160a01b039182169392909116602082600481875afa91821562000ad6579160209162001180938892620015a6575b5060405163e6a4390560e01b81526001600160a01b03808b16600483015290921660248301529092839190829081906044820190565b03915afa9081156200152f576004939291606091879162001582575b50604051630240bc6b60e21b815294859182906001600160a01b03165afa9384156200152f578591869487966200153a575b50604080516357f8d90160e01b81526001600160a01b038a16600482015260248101929092526044820192909252928390606490829034905af19081156200152f5785928692620014f8575b506200123883620012316200123f94829462002d0d565b9562002ce9565b9462002ce9565b6001600160a01b0386168552600960205260408520600e015490919062001267904262002d0d565b92828060011b0460021483151715620014e457848060011b0460021485151715620014e45760018060a01b03871686526009602052620012c683620012bf83620012b983600660408d20015462002d1b565b62002d2f565b9262002d2f565b9162015180851115620014b75780925b6201518086111562001497576001600160a01b038916885260096020526040882060070154945b60018060a01b038a16895260096020526200133e83600b60408c208560078201558760088201558b60011b60098201558460011b600a820155015462002ce9565b60018060a01b038b168a52600960205260408a2090600b82015585600c82015586600d8201556201518088116200148a575b50885b600a548110156200147f57808a858d8c62001390600196620025c2565b5086015460a087901b879003838116911614620013b3575b505050500162001373565b6200141f93600b926040928a6007620013cc8a620025c2565b5001558c6008620013dd8a620025c2565b5001556009620013ed89620025c2565b50918a1b910155620013ff87620025c2565b50600a8a8a1b910155878060a01b03168152600960205220015462002ce9565b600b6200142c83620025c2565b50015586600c6200143d83620025c2565b50015587600d6200144e83620025c2565b50015562015180891162001467575b8a858d8c620013a8565b6200147281620025c2565b50600e429101556200145d565b602060405160018152f35b600e429101553862001370565b6001600160a01b0389168852600960205260408820600d015494620012fd565b6001600160a01b0388168752600960205260408720600c0154620014dd90829062002ce9565b92620012d6565b634e487b7160e01b86526011600452602486fd5b6200123193506200123f925062001524620012389160403d604011620009f957620009e981836200268a565b90945092506200121a565b6040513d87823e3d90fd5b6200156b91965060409295506064935060603d6060116200157a575b6200156281836200268a565b81019062002ccd565b959193909596919250620011ce565b503d62001556565b6200159f915060203d60201162000aac5762000a9b81836200268a565b386200119c565b620015c2919250833d851162000aac5762000a9b81836200268a565b90386200114a565b5034620001695760803660031901126200016957620015e862002594565b90620015f3620025ab565b6064356001600160a01b0381169190829003620008b857620016206001600160a01b038516151562002c2f565b6001600160a01b03166200163681151562002c2f565b6200164382151562002c2f565b6002546003546040516315ab88c960e31b81526001600160a01b0391821692909116602082600481865afa91821562000ad65791602091620016bc938892620015a6575060405163e6a4390560e01b81526001600160a01b03808b16600483015290921660248301529092839190829081906044820190565b03915afa9081156200152f576004939291606091879162001a22575b50604051630240bc6b60e21b815294859182906001600160a01b03165afa9384156200152f57859286948796620019ec575b5090608460409288845195869485936328958f3760e11b855260043560048601528d60018060a01b03166024860152604485015260648401525af19182156200152f5785918693620019b6575b5062001775836200176e6200177c94829462002ce9565b9562002d0d565b9462002d0d565b6001600160a01b0386168552600960205260408520600e0154909190620017a4904262002d0d565b92828060011b0460021483151715620014e457848060011b0460021485151715620014e45760018060a01b03871686526009602052620017f683620012bf83620012b983600660408d20015462002d1b565b9162015180851115620019895780925b6201518086111562001969576001600160a01b038916885260096020526040882060070154945b60018060a01b038a16895260096020526200186e83600b60408c208560078201558760088201558b60011b60098201558460011b600a820155015462002ce9565b60018060a01b038b168a52600960205260408a2090600b82015585600c82015586600d8201556201518088116200195c575b50885b600a548110156200147f57808a858d8c620018c0600196620025c2565b5086015460a087901b879003838116911614620018e3575b5050505001620018a3565b620018fc93600b926040928a6007620013cc8a620025c2565b600b6200190983620025c2565b50015586600c6200191a83620025c2565b50015587600d6200192b83620025c2565b50015562015180891162001944575b8a858d8c620018d8565b6200194f81620025c2565b50600e429101556200193a565b600e4291015538620018a0565b6001600160a01b0389168852600960205260408820600d0154946200182d565b6001600160a01b0388168752600960205260408720600c0154620019af90829062002ce9565b9262001806565b6200176e93506200177c9250620019e2620017759160403d604011620009f957620009e981836200268a565b9450925062001757565b62001a1391965060409295506084945060603d6060116200157a576200156281836200268a565b9591949095969192506200170a565b62001a3f915060203d60201162000aac5762000a9b81836200268a565b38620016d8565b5034620001695760203660031901126200016957600435600a5481101562001aa55762001a7390620025c2565b508054600182015460028301546001600160a01b03908116939181169262000c0692911662000fcd600383016200275d565b5080fd5b503462000169576020366003190112620001695762001ac76200257d565b9062001adf60018060a01b0360015416331462002bd3565b62001ae962003749565b62001aff6001600160a01b038316151562002c2f565b6003546040516315ab88c960e31b815290602090829060049082906001600160a01b03165afa908115620024595762001b7891602091849162002488575b5060025460405163e6a4390560e01b81526001600160a01b038781166004830152928316602482015293849290911690829081906044820190565b03915afa9081156200245957829162002464575b506001600160a01b0383163b1562001aa5576040516306da678f60e51b81526001600160a01b03918216600482015290829082906024908290849088165af1801562002459576200242c575b506001600160a01b0380831680835260096020526040808420600354825163e79a408960e01b8152600481019490945260646024850181905230604486015295969395919486929183918991165af1908115620024215784938592620023f8575b5060018060a01b0381168552600960205260408520600681015462001c8e60056040519362001c688562002651565b6001600160a01b038616855262001c8260048201620026ac565b602086015201620026ac565b604083015260608201528560808201528560a08201528560c08201528560e0820152856101008201528561012082015285610140820152426101608201526003840160018060a01b038251166001600160601b0360a01b82541617905560208101518051906001600160401b038211620023395762001d11600487015462002614565b601f8111620023c1575b50602090601f83116001146200234d5762001d4f929189918362002274575b50508160011b916000199060031b1c19161790565b60048501555b60408101518051906001600160401b038211620023395762001d7b600587015462002614565b601f8111620022f6575b50602090601f83116001146200228057918062001dbd9261016095948b92620022745750508160011b916000199060031b1c19161790565b60058601555b606081015160068601556080810151600786015560a0810151600886015560c0810151600986015560e0810151600a860155610100810151600b860155610120810151600c860155610140810151600d8601550151600e84015562001e336001600160a01b038216151562002c2f565b6001600160a01b03811685526009602052604085206015015460ff8116908162002264575b50156200221f576006546040516370a0823160e01b80825230600483015293916001600160a01b03908116906020908390602490829088165afa908115620008c65784908992620021e0575b62001eb0935062003787565b15620021ab5760065460405163c45a015560e01b81528794916001600160a01b0316602082600481845afa91821562000ad657869262002181575b506020600491604051928380926315ab88c960e31b82525afa90811562000ad657869260209262001f539285916200215f575b506040516364e329cb60e11b81526001600160a01b03808a166004830152909116602482015293849283919082906044820190565b03926001600160a01b03165af19081156200152f5785916200213b575b5060065460405192835230600484015247926001600160a01b0391821691602090829060249082908a165afa90811562002130578791620020f2575b509060c4606092604051958693849263f305d71960e01b845260018060a01b038b16600485015260248401528a60448401528a60648401523060848401524260a48401525af19182156200152f57602092620020ce575b5060065460405163095ea7b360e01b81526001600160a01b0391821660048201526000196024820152958692604492849291165af1801562000ad6577f540bcec33387745b2ced30977dcfe4a623a245511eb0a133989c27c8bb95b4a99460409460159262002098575b5001805461ffff1916610100179055825194855260208501526001600160a01b031692a26001815580f35b620020be9060203d602011620020c6575b620020b581836200268a565b8101906200376d565b50386200206d565b503d620020a9565b620020ea9060603d6060116200157a576200156281836200268a565b505062002003565b919650506020813d60201162002127575b8162002112602093836200268a565b81010312620008b8575188959060c462001fac565b3d915062002103565b6040513d89823e3d90fd5b62002158915060203d60201162000aac5762000a9b81836200268a565b3862001f70565b6200217a9150843d861162000aac5762000a9b81836200268a565b3862001f1e565b6004919250620021a2602091823d841162000aac5762000a9b81836200268a565b92915062001eeb565b60405162461bcd60e51b815260206004820152600d60248201526c2737ba1030b8383937bb32b21760991b6044820152606490fd5b9150506020823d60201162002216575b81620021ff602093836200268a565b81010312620008b8578362001eb092519162001ea4565b3d9150620021f0565b60405162461bcd60e51b815260206004820152601760248201527f74726164696e6720697320616c7265616479206f70656e0000000000000000006044820152606490fd5b60ff915060081c16153862001e58565b01519050388062001d3a565b906005870189526020892091895b601f1985168110620022dd57509183916001936101609695601f19811610620022c3575b505050811b01600586015562001dc3565b015160001960f88460031b161c19169055388080620022b2565b919260206001819286850151815501940192016200228e565b6200232790600588018a5260208a20601f850160051c810191602086106200232e575b601f0160051c019062002cb4565b3862001d85565b909150819062002319565b634e487b7160e01b88526041600452602488fd5b9190600487018952602089209089935b601f1984168510620023a5576001945083601f198116106200238b575b505050811b01600485015562001d55565b015160001960f88460031b161c191690553880806200237a565b818101518355602094850194600190930192909101906200235d565b620023f190600488018a5260208a20601f850160051c810191602086106200232e57601f0160051c019062002cb4565b3862001d1b565b90935062002418915060403d604011620009f957620009e981836200268a565b90923862001c39565b6040513d86823e3d90fd5b6001600160401b03811162002445576040523862001bd8565b634e487b7160e01b82526041600452602482fd5b6040513d84823e3d90fd5b62002481915060203d60201162000aac5762000a9b81836200268a565b3862001b8c565b620024a39150823d841162000aac5762000a9b81836200268a565b3862001b3d565b5034620001695780600319360112620001695760015481908190819047906001600160a01b03165af1620024dd62002b9e565b5015620024ef57602060405160018152f35b60405162461bcd60e51b81526020600482015260146024820152732a3930b739b332b91022aa24102330b4b632b21760611b6044820152606490fd5b503462000169578060031936011262000169576001546040516001600160a01b039091168152602090f35b90503462001aa5578160031936011262001aa5576004546001600160a01b03168152602090f35b600435906001600160a01b0382168203620008b857565b602435906001600160a01b0382168203620008b857565b604435906001600160a01b0382168203620008b857565b600a54811015620025fe57601690600a600052027fc65a7bb8d6351c1cf70c95a316cc6a92839c986682d98bc35f958f4883f9d2a80190600090565b634e487b7160e01b600052603260045260246000fd5b90600182811c9216801562002646575b60208310146200263057565b634e487b7160e01b600052602260045260246000fd5b91607f169162002624565b61018081019081106001600160401b038211176200086157604052565b604081019081106001600160401b038211176200086157604052565b90601f801991011681019081106001600160401b038211176200086157604052565b90604051918260008254620026c18162002614565b90818452602094600191600181169081600014620027395750600114620026f6575b505050620026f4925003836200268a565b565b600090815285812095935091905b81831062002720575050620026f49350820101388080620026e3565b8554888401850152948501948794509183019162002704565b92505050620026f494925060ff191682840152151560051b820101388080620026e3565b906040516200276c8162002651565b82546001600160a01b0316815291829061016090600b906200279160018201620026ac565b6020850152620027a460028201620026ac565b60408501526003810154606085015260048101546080850152600581015460a0850152600681015460c0850152600781015460e085015260088101546101008501526009810154610120850152600a8101546101408501520154910152565b919082519283825260005b84811062002830575050826000602080949584010152601f8019910116010190565b6020818301810151848301820152016200280e565b90620028856200287261018060018060a01b03855116845260208501519080602086015284019062002803565b6040840151838203604085015262002803565b91606081015160608301526080810151608083015260a081015160a083015260c081015160c083015260e081015160e08301526101008082015190830152610120808201519083015261014080820151908301526101608091015191015290565b9a9c9b98946200298f96620029528d6200296193620029436101609f9c96996200297f9a6200299f9f9a99620029709a6101809260018060a01b039283809216895216602088015216604086015280606086015284019062002845565b91608081840391015262002803565b8d810360a08f01529062002803565b908b820360c08d015262002803565b9089820360e08b015262002803565b9087820361010089015262002803565b9085820361012087015262002803565b9415156101408401521515910152565b6020808201908083528351809252604092604081018260408560051b8401019601946000925b858410620029e7575050505050505090565b909192939495968580600192603f198582030187528a519062002ace62002ab962002aa462002a9062002a7c62002a6862002a548d610180908d8060a01b03808c51168b52808d8d0151168d8c0152818c015116908a015260609080828c0151928b015289019062002845565b6080808a015190898303908a015262002803565b60a080890151908883039089015262002803565b60c080880151908783039088015262002803565b60e080870151908683039087015262002803565b61010080860151908583039086015262002803565b61012080850151908483039085015262002803565b9161014080820151151590830152610160809101511515910152990194019401929594939190620029d5565b6001600160401b0381116200086157601f01601f191660200190565b81601f82011215620008b85780359062002b308262002afa565b9262002b4060405194856200268a565b82845260208383010111620008b857816000926020809301838601378301015290565b600854811015620025fe57600860005260011b7ff3f7a9fe364faab93b216da50a3214154f22a0a2b415b23a84c8169e8b636ee30190600090565b3d1562002bce573d9062002bb28262002afa565b9162002bc260405193846200268a565b82523d6000602084013e565b606090565b1562002bdb57565b60405162461bcd60e51b815260206004820152602660248201527f4f6e6c7920746865206f776e65722063616e2063616c6c20746869732066756e60448201526531ba34b7b71760d11b6064820152608490fd5b1562002c3757565b60405162461bcd60e51b815260206004820152601f60248201527f5a65726f2061646472657373657320617265206e6f7420616c6c6f7765642e006044820152606490fd5b90816020910312620008b857516001600160a01b0381168103620008b85790565b9190826040910312620008b8576020825192015190565b81811062002cc0575050565b6000815560010162002cb4565b90816060910312620008b8578051916040602083015192015190565b9190820180921162002cf757565b634e487b7160e01b600052601160045260246000fd5b9190820391821162002cf757565b8181029291811591840414171562002cf757565b811562002d3a570490565b634e487b7160e01b600052601260045260246000fd5b9060018060a01b0390818151166001600160601b0360a01b908185541617845560018401836020840151168282541617905560028401836040840151168282541617905560038401906060830151938451169082541617905560049283810160208401518051906001600160401b038211620036fd5762002dd2835462002614565b601f8111620036c7575b50602090601f83116001146200365a5762002e10929160009183620022745750508160011b916000199060031b1c19161790565b90555b60408301518051906001600160401b038211620036455762002e39600584015462002614565b601f81116200360c575b50602090601f8311600114620035955762002e77929160009183620022745750508160011b916000199060031b1c19161790565b60058201555b606083015160068201556080830151600782015560a0830151600882015560c0830151600982015560e0830151600a8201556101009384840151600b8301556101209081850151600c8401556101409586860151600d85015561016080960151600e850155600f840160808601518051906001600160401b038211620033975762002f09835462002614565b601f81116200355f575b50602090601f8311600114620034f25762002f47929160009183620022745750508160011b916000199060031b1c19161790565b90555b6010840160a08601518051906001600160401b038211620033975762002f71835462002614565b601f8111620034bc575b50602090601f83116001146200344f5762002faf929160009183620022745750508160011b916000199060031b1c19161790565b90555b6011840160c08601518051906001600160401b038211620033975762002fd9835462002614565b601f811162003419575b50602090601f8311600114620033ac5762003017929160009183620022745750508160011b916000199060031b1c19161790565b90555b6012840160e08601518051906001600160401b038211620033975762003041835462002614565b601f811162003361575b50602090601f8311600114620032f4576200307f929160009183620022745750508160011b916000199060031b1c19161790565b90555b840151805160138501916001600160401b038211620032df57620030a7835462002614565b601f8111620032a9575b50602090601f83116001146200323c57620030e5929160009183620022745750508160011b916000199060031b1c19161790565b90555b60148301918401518051916001600160401b0383116200322757506200310f835462002614565b601f8111620031f1575b50602090601f83116001146200317b5792620031578360159460ff979461ff0097600092620022745750508160011b916000199060031b1c19161790565b90555b01948301511515938554930151151560081b1692169061ffff191617179055565b90601f198316918460005260206000209260005b818110620031d857509360ff969361ff0096936001938360159810620031be575b505050811b0190556200315a565b015160001960f88460031b161c19169055388080620031b0565b929360206001819287860151815501950193016200318f565b6200322090846000526020600020601f850160051c810191602086106200232e57601f0160051c019062002cb4565b3862003119565b604190634e487b7160e01b6000525260246000fd5b90601f198316918460005260206000209260005b81811062003290575090846001959493921062003276575b505050811b019055620030e8565b015160001960f88460031b161c1916905538808062003268565b9293602060018192878601518155019501930162003250565b620032d890846000526020600020601f850160051c810191602086106200232e57601f0160051c019062002cb4565b38620030b1565b604184634e487b7160e01b6000525260246000fd5b90601f198316918460005260206000209260005b8181106200334857509084600195949392106200332e575b505050811b01905562003082565b015160001960f88460031b161c1916905538808062003320565b9293602060018192878601518155019501930162003308565b6200339090846000526020600020601f850160051c810191602086106200232e57601f0160051c019062002cb4565b386200304b565b604185634e487b7160e01b6000525260246000fd5b90601f198316918460005260206000209260005b818110620034005750908460019594939210620033e6575b505050811b0190556200301a565b015160001960f88460031b161c19169055388080620033d8565b92936020600181928786015181550195019301620033c0565b6200344890846000526020600020601f850160051c810191602086106200232e57601f0160051c019062002cb4565b3862002fe3565b90601f198316918460005260206000209260005b818110620034a3575090846001959493921062003489575b505050811b01905562002fb2565b015160001960f88460031b161c191690553880806200347b565b9293602060018192878601518155019501930162003463565b620034eb90846000526020600020601f850160051c810191602086106200232e57601f0160051c019062002cb4565b3862002f7b565b90601f198316918460005260206000209260005b8181106200354657509084600195949392106200352c575b505050811b01905562002f4a565b015160001960f88460031b161c191690553880806200351e565b9293602060018192878601518155019501930162003506565b6200358e90846000526020600020601f850160051c810191602086106200232e57601f0160051c019062002cb4565b3862002f13565b9190600584016000526020600020906000935b601f1984168510620035f0576001945083601f19811610620035d6575b505050811b01600582015562002e7d565b015160001960f88460031b161c19169055388080620035c5565b81810151835560209485019460019093019290910190620035a8565b6200363e90600585016000526020600020601f850160051c810191602086106200232e57601f0160051c019062002cb4565b3862002e43565b604186634e487b7160e01b6000525260246000fd5b90601f198316918460005260206000209260005b818110620036ae575090846001959493921062003694575b505050811b01905562002e13565b015160001960f88460031b161c1916905538808062003686565b929360206001819287860151815501950193016200366e565b620036f690846000526020600020601f850160051c810191602086106200232e57601f0160051c019062002cb4565b3862002ddc565b604187634e487b7160e01b6000525260246000fd5b908154600160401b811015620008615760018101808455811015620025fe57620026f4926000526016602060002091020162002d50565b6002600054146200375b576002600055565b604051633ee5aeb560e01b8152600490fd5b90816020910312620008b857518015158103620008b85790565b620037f1926020929091906001600160a01b0390620037aa828416151562002c2f565b1690620037b982151562002c2f565b60405163095ea7b360e01b81526001600160a01b03909116600482015260248101929092529092839190829060009082906044820190565b03925af180156200382c5762003808575b50600190565b620038249060203d602011620020c657620020b581836200268a565b503862003802565b6040513d6000823e3d90fd5b6001600160a01b039081166200385081151562002c2f565b6008549160005b838110620038685750505050600090565b8282620038758362002b63565b50541614620038875760010162003857565b50505050600190565b6200389c815462002614565b9081620038a7575050565b81601f60009311600114620038ba575055565b908083918252620038db601f60208420940160051c84016001850162002cb4565b5555565b815181546001600160a01b0319166001600160a01b039190911617815560209182015180516001939092840191600160401b84116200086157825484845580851062003966575b506020019160005260206000206000925b8484106200394757505050505050565b60168382620039598994518662002d50565b0192019301929062003937565b6016908060160290601682040362002cf7578560160260168104870362002cf7576000908682526020822092830192015b828110620039a85750505062003926565b8082859255828a820155826002820155826003820155620039cc6004820162003890565b620039da6005820162003890565b82600682015582600782015582600882015582600982015582600a82015582600b82015582600c82015582600d82015582600e82015562003a1e600f820162003890565b62003a2c6010820162003890565b62003a3a6011820162003890565b62003a486012820162003890565b62003a566013820162003890565b62003a646014820162003890565b826015820155016200399756fe604060808152346200042957620010ab803803806200001e816200042e565b928339810190608081830312620004295780516001600160401b039190828111620004295783620000519183016200046a565b90602093848201519084821162000429576200006f9183016200046a565b606086830151920151906000943360018060a01b031987541617865533867f8be0079c531659141344cd1fd0a4f28419497f9722a3daafe3b4186f6b6457e08180a384518181116200034357600254906001968783811c931680156200041e575b8a84101462000324578190601f93848111620003ca575b508a9084831160011462000363578a9262000357575b5050600019600383901b1c191690871b176002555b8251918211620003435760039283548781811c9116801562000338575b8a821014620003245790818385949311620002cf575b50899183116001146200026c57889262000260575b505060001982841b1c191690851b1790555b670de0b6b3a7640000918281029281840414901517156200024c5781835560058111620001fe57907fddf252ad1be2c89b69c2b068fc378daa952ba7f163c4a11628f55a4df523b3ef929160045533845260058552858420556007845284832060ff199082828254161790553084528186852091825416179055549284519384523393a351610bce9081620004dd8239f35b855162461bcd60e51b815260048101869052602160248201527f4d6178205472616e73616374696f6e2063616e6e6f74206578636565642035256044820152601760f91b6064820152608490fd5b634e487b7160e01b84526011600452602484fd5b0151905038806200015a565b8489528989208894509190601f1984168a5b8c828210620002b857505084116200029f575b505050811b0190556200016c565b015160001983861b60f8161c1916905538808062000291565b8385015186558b979095019493840193016200027e565b909192508489528989208380860160051c8201928c87106200031a575b9186958b929594930160051c01915b8281106200030b57505062000145565b8b81558695508a9101620002fb565b92508192620002ec565b634e487b7160e01b89526022600452602489fd5b90607f16906200012f565b634e487b7160e01b87526041600452602487fd5b015190503880620000fd565b60028b528b8b208a94509190601f1984168c8e5b828210620003b2575050841162000398575b505050811b0160025562000112565b015160001960f88460031b161c1916905538808062000389565b8385015186558d979095019493840193018e62000377565b90915060028a528a8a208480850160051c8201928d861062000414575b918b91869594930160051c01915b82811062000405575050620000e7565b8c81558594508b9101620003f5565b92508192620003e7565b92607f1692620000d0565b600080fd5b6040519190601f01601f191682016001600160401b038111838210176200045457604052565b634e487b7160e01b600052604160045260246000fd5b919080601f84011215620004295782516001600160401b0381116200045457602090620004a0601f8201601f191683016200042e565b92818452828287010111620004295760005b818110620004c857508260009394955001015290565b8581018301518482018401528201620004b256fe608060408181526004918236101561001657600080fd5b600092833560e01c91826306fdde03146105b557508163095ea7b31461058b57816318160ddd1461056c57816323b872dd14610497578163313ce5671461047b57816370a0823114610443578163715018a6146103e45781637437681e146103c65781638da5cb5b1461039e57816395d89b4114610299578163a9059cbb14610268578163c2d0ffca146101b9578163db4cf1e01461010a575063dd62ed3e146100bf57600080fd5b34610106578060031936011261010657806020926100db6106bd565b6100e36106d8565b6001600160a01b0391821683526006865283832091168252845220549051908152f35b5080fd5b9050346101b55760203660031901126101b5576101256106bd565b83546001600160a01b03919061013e9083163314610726565b1690811561015e5750825260076020528120805460ff1916600117905580f35b608490602084519162461bcd60e51b8352820152602b60248201527f45524332303a204578636c756465204d61782054782066726f6d20746865207a60448201526a65726f206164647265737360a81b6064820152fd5b8280fd5b919050346101b55760203660031901126101b5578135916101e460018060a01b038554163314610726565b6005831161021c5791602091817fff3dd5e80294197918c284bbfc3dadd97d0b40ce92106110946329088f80068a945551908152a180f35b6020608492519162461bcd60e51b8352820152602160248201527f4d6178205472616e73616374696f6e2063616e6e6f74206578636565642035256044820152601760f91b6064820152fd5b5050346101065780600319360112610106576020906102926102886106bd565b6024359033610873565b5160018152f35b919050346101b557826003193601126101b55780519183600354906001908260011c92600181168015610394575b6020958686108214610381575084885290811561035f5750600114610306575b61030286866102f8828b03836106ee565b5191829182610674565b0390f35b929550600383527fc2575a0e9e593c00f959f8c92f12db2869c3395a3b0502d05e2516446f71f85b5b82841061034c5750505082610302946102f89282010194386102e7565b805486850188015292860192810161032f565b60ff191687860152505050151560051b83010192506102f882610302386102e7565b634e487b7160e01b845260229052602483fd5b93607f16936102c7565b505034610106578160031936011261010657905490516001600160a01b039091168152602090f35b9050346101b557826003193601126101b55760209250549051908152f35b83346104405780600319360112610440578054816001600160a01b03821661040d338214610726565b7f8be0079c531659141344cd1fd0a4f28419497f9722a3daafe3b4186f6b6457e08280a36001600160a01b031916815580f35b80fd5b5050346101065760203660031901126101065760209181906001600160a01b0361046b6106bd565b1681526005845220549051908152f35b5050346101065781600319360112610106576020905160128152f35b828434610440576060366003190112610440576104b26106bd565b906104bb6106d8565b6104c9604435809285610873565b6001600160a01b038316825260066020908152848320338452905283822054845192606084019067ffffffffffffffff8211858310176105595760208761029288610551898989898752602883527f45524332303a207472616e7366657220616d6f756e742065786365656473206188840152676c6c6f77616e636560c01b87840152610b4d565b903390610771565b634e487b7160e01b815260418852602490fd5b5050346101065781600319360112610106576020906001549051908152f35b5050346101065780600319360112610106576020906102926105ab6106bd565b6024359033610771565b92915034610670578360031936011261067057600254600181811c9186908281168015610666575b6020958686108214610381575084885290811561035f575060011461060d5761030286866102f8828b03836106ee565b929550600283527f405787fa12a823e0f2b7631cc41b3ba8828b3321ca811111fa75cd3aa3bb5ace5b8284106106535750505082610302946102f89282010194386102e7565b8054868501880152928601928101610636565b93607f16936105dd565b8380fd5b6020808252825181830181905290939260005b8281106106a957505060409293506000838284010152601f8019910116010190565b818101860151848201604001528501610687565b600435906001600160a01b03821682036106d357565b600080fd5b602435906001600160a01b03821682036106d357565b90601f8019910116810190811067ffffffffffffffff82111761071057604052565b634e487b7160e01b600052604160045260246000fd5b1561072d57565b606460405162461bcd60e51b815260206004820152602060248201527f4f776e61626c653a2063616c6c6572206973206e6f7420746865206f776e65726044820152fd5b6001600160a01b0390811691821561082257169182156107d25760207f8c5be1e5ebec7d5bd14f71427d1e84f3dd0314c0f7b2291e5b200ac8c7c3b925918360005260068252604060002085600052825280604060002055604051908152a3565b60405162461bcd60e51b815260206004820152602260248201527f45524332303a20617070726f766520746f20746865207a65726f206164647265604482015261737360f01b6064820152608490fd5b60405162461bcd60e51b8152602060048201526024808201527f45524332303a20617070726f76652066726f6d20746865207a65726f206164646044820152637265737360e01b6064820152608490fd5b9192916001600160a01b03908116918215610afa5716908115610aa9578315610a5257600480549460015495868102968188041490151715610a3d576000958387526020926007845260409160ff838a205416156109ec575b50848852600584528188205482519083820182811067ffffffffffffffff8211176109d957610928929186918652601e83527f536166654d6174683a207375627472616374696f6e206f766572666c6f77000088840152610b4d565b85895260058552828920558588528188205490838201918281116109c657821061098357508188877fddf252ad1be2c89b69c2b068fc378daa952ba7f163c4a11628f55a4df523b3ef9798999a5260058652205551908152a3565b825162461bcd60e51b8152908101859052601b60248201527f536166654d6174683a206164646974696f6e206f766572666c6f7700000000006044820152606490fd5b634e487b7160e01b8a526011825260248afd5b634e487b7160e01b8b526041845260248bfd5b6064900483116109fc57386108cc565b83606492519162461bcd60e51b8352820152601860248201527f4578636565647320746865204d61785478416d6f756e742e00000000000000006044820152fd5b601182634e487b7160e01b6000525260246000fd5b60405162461bcd60e51b815260206004820152602960248201527f5472616e7366657220616d6f756e74206d7573742062652067726561746572206044820152687468616e207a65726f60b81b6064820152608490fd5b60405162461bcd60e51b815260206004820152602360248201527f45524332303a207472616e7366657220746f20746865207a65726f206164647260448201526265737360e81b6064820152608490fd5b60405162461bcd60e51b815260206004820152602560248201527f45524332303a207472616e736665722066726f6d20746865207a65726f206164604482015264647265737360d81b6064820152608490fd5b91828211610b7857508103908111610b625790565b634e487b7160e01b600052601160045260246000fd5b60405162461bcd60e51b8152908190610b949060048301610674565b0390fdfea2646970667358221220c49e554740cb71aa09a85b3746b1a934acbfb9371a9f5eefd27a7b626ea785f264736f6c63430008180033a2646970667358221220506eb97533b2c357abfb939dcce51ea89a576494dd825b1466c1d204729608b764736f6c63430008180033",
  "linkReferences": {},
  "deployedLinkReferences": {}
}