{
  "_format": "hh-sol-artifact-1",
  "contractName": "Router",
  "sourceName": "contracts/Router.sol",
  "abi": [
    {
      "inputs": [
        {
          "internalType": "address",
          "name": "factory_",
          "type": "address"
        },
        {
          "internalType": "address",
          "name": "weth",
          "type": "address"
        },
        {
          "internalType": "uint256",
          "name": "refFee",
          "type": "uint256"
        }
      ],
      "stateMutability": "nonpayable",
      "type": "constructor"
    },
    {
      "inputs": [],
      "name": "ReentrancyGuardReentrantCall",
      "type": "error"
    },
    {
      "inputs": [],
      "name": "WETH",
      "outputs": [
        {
          "internalType": "address",
          "name": "",
          "type": "address"
        }
      ],
      "stateMutability": "view",
      "type": "function"
    },
    {
      "inputs": [
        {
          "internalType": "address",
          "name": "token",
          "type": "address"
        },
        {
          "internalType": "uint256",
          "name": "amountToken",
          "type": "uint256"
        }
      ],
      "name": "addLiquidityETH",
      "outputs": [
        {
          "internalType": "uint256",
          "name": "",
          "type": "uint256"
        },
        {
          "internalType": "uint256",
          "name": "",
          "type": "uint256"
        }
      ],
      "stateMutability": "payable",
      "type": "function"
    },
    {
      "inputs": [],
      "name": "factory",
      "outputs": [
        {
          "internalType": "address",
          "name": "",
          "type": "address"
        }
      ],
      "stateMutability": "view",
      "type": "function"
    },
    {
      "inputs": [
        {
          "internalType": "address",
          "name": "token",
          "type": "address"
        },
        {
          "internalType": "address",
          "name": "weth",
          "type": "address"
        },
        {
          "internalType": "uint256",
          "name": "amountIn",
          "type": "uint256"
        }
      ],
      "name": "getAmountsOut",
      "outputs": [
        {
          "internalType": "uint256",
          "name": "_amountOut",
          "type": "uint256"
        }
      ],
      "stateMutability": "nonpayable",
      "type": "function"
    },
    {
      "inputs": [],
      "name": "referralFee",
      "outputs": [
        {
          "internalType": "uint256",
          "name": "",
          "type": "uint256"
        }
      ],
      "stateMutability": "view",
      "type": "function"
    },
    {
      "inputs": [
        {
          "internalType": "address",
          "name": "token",
          "type": "address"
        },
        {
          "internalType": "uint256",
          "name": "liquidity",
          "type": "uint256"
        },
        {
          "internalType": "address",
          "name": "to",
          "type": "address"
        }
      ],
      "name": "removeLiquidityETH",
      "outputs": [
        {
          "internalType": "uint256",
          "name": "",
          "type": "uint256"
        },
        {
          "internalType": "uint256",
          "name": "",
          "type": "uint256"
        }
      ],
      "stateMutability": "nonpayable",
      "type": "function"
    },
    {
      "inputs": [
        {
          "internalType": "address",
          "name": "token",
          "type": "address"
        },
        {
          "internalType": "address",
          "name": "to",
          "type": "address"
        },
        {
          "internalType": "address",
          "name": "referree",
          "type": "address"
        }
      ],
      "name": "swapETHForTokens",
      "outputs": [
        {
          "internalType": "uint256",
          "name": "",
          "type": "uint256"
        },
        {
          "internalType": "uint256",
          "name": "",
          "type": "uint256"
        }
      ],
      "stateMutability": "payable",
      "type": "function"
    },
    {
      "inputs": [
        {
          "internalType": "uint256",
          "name": "amountIn",
          "type": "uint256"
        },
        {
          "internalType": "address",
          "name": "token",
          "type": "address"
        },
        {
          "internalType": "address",
          "name": "to",
          "type": "address"
        },
        {
          "internalType": "address",
          "name": "referree",
          "type": "address"
        }
      ],
      "name": "swapTokensForETH",
      "outputs": [
        {
          "internalType": "uint256",
          "name": "",
          "type": "uint256"
        },
        {
          "internalType": "uint256",
          "name": "",
          "type": "uint256"
        }
      ],
      "stateMutability": "nonpayable",
      "type": "function"
    }
  ],
  "bytecode": "0x6080346200010a57601f6200179c38819003918201601f19168301916001600160401b038311848410176200010f578084926060946040528339810103126200010a576200004d8162000125565b9060406200005e6020830162000125565b9101516001600055916001600160a01b0390811691620000808315156200013a565b16906200008f8215156200013a565b60018060a01b031990816001541617600155600254161760025560058111620000c5576003556040516116149081620001888239f35b60405162461bcd60e51b815260206004820152601e60248201527f526566657272616c204665652063616e6e6f74206578636565642035252e00006044820152606490fd5b600080fd5b634e487b7160e01b600052604160045260246000fd5b51906001600160a01b03821682036200010a57565b156200014257565b60405162461bcd60e51b815260206004820152601f60248201527f5a65726f2061646472657373657320617265206e6f7420616c6c6f7765642e006044820152606490fdfe6080604052600436101561001257600080fd5b60003560e01c806345608d0014610feb578063512b1e6e146109f557806357f8d901146105fe5780637282d5481461046c57806384ae2bc61461044e578063ad5c464814610425578063c45a0155146103fc5763e79a40891461007457600080fd5b346103495760603660031901126103495761008d61102f565b6024359061009961105b565b916100a2611243565b6001600160a01b0382811693610110916100bd861515611071565b6100ca8183161515611071565b60015460025460405163e6a4390560e01b81526001600160a01b038881166004830152918416909116602482015260209490929185918491841690829081906044820190565b03915afa918215610303576000926103cd575b50811695604051630240bc6b60e21b81526060816004818b5afa9081156103035760009161039c575b506040516316d3df1560e31b815285816004818c5afa801561030357869160009161036b575b5061018e6101c693606461018781948c611148565b0499611148565b604051632e2952f960e11b81523060048201526001600160a01b03909a1660248b015204604489018190529791829081906064820190565b038160008c5af19081156103035760009161034e575b501561034957604051637b1a490960e01b81526001600160a01b03841660048201526024810186905290848260448160008c5af1938415610303576000869461023161026b978b96849161032c575b506111ab565b6040516323b872dd60e01b81526001600160a01b039182166004820152921660248301526044820193909352938492839182906064820190565b03925af18015610303576102879160009161030f575b506111f7565b604051631d24e23160e21b81526004810184905260248101839052336044820152938190859060649082906000905af1938415610303576040946102d6575b5060016000558351928352820152f35b6102f590823d84116102fc575b6102ed81836110ef565b810190611130565b50386102c6565b503d6102e3565b6040513d6000823e3d90fd5b6103269150833d85116102fc576102ed81836110ef565b38610281565b6103439150883d8a116102fc576102ed81836110ef565b3861022b565b600080fd5b6103659150853d87116102fc576102ed81836110ef565b386101dc565b82819392503d8311610395575b61038281836110ef565b810103126103495751859061018e610172565b503d610378565b6103be915060603d6060116103c6575b6103b681836110ef565b810190611266565b50503861014c565b503d6103ac565b6103ee919250843d86116103f5575b6103e681836110ef565b810190611111565b9038610123565b503d6103dc565b34610349576000366003190112610349576001546040516001600160a01b039091168152602090f35b34610349576000366003190112610349576002546040516001600160a01b039091168152602090f35b34610349576000366003190112610349576020600354604051908152f35b60403660031901126103495761048061102f565b60243561048b611243565b6001600160a01b0382811692906104a3841515611071565b60015460025460405163e6a4390560e01b81526001600160a01b0394851660048201529083169093166024840152602092919083908390604490829085165afa918215610303576000926105df575b506105056105003484611467565b6111ab565b6040516323b872dd60e01b81523360048201526001600160a01b038316602482015260448101859052948390869060649082906000905af191821561030357610558849360009788916105c257506111f7565b60405163e7d3fe6b60e01b815260048101869052346024820152336044820152958692606492849291165af1928315610303576040936105a5575b50600160005582519182523490820152f35b6105bb90823d84116102fc576102ed81836110ef565b5083610593565b6105d99150853d87116102fc576102ed81836110ef565b88610281565b6105f7919250833d85116103f5576103e681836110ef565b90856104f2565b60603660031901126103495761061261102f565b61061a611045565b9061062361105b565b9061062c611243565b6001600160a01b0381811693610643851515611071565b6106508282161515611071565b818416151561065e81611071565b60015460025460405163e6a4390560e01b81526001600160a01b03878116600483015291861691821660248201529760209591949092909190811690868a604481855afa998a156103035760009a6109cc575b50866106c56106fc928c169734908b6112db565b604051632e2952f960e11b81523060048201526001600160a01b03909a1660248b015260448a018190529891829081906064820190565b038160008a5af1908115610303576000916109af575b501561097a5760405163cf82046160e01b81528681600481855afa8015610303578891600091610948575b5060649161074a91611148565b04931561093157906107ac92918660646107668a600354611148565b0461077a610774828961119e565b8b611191565b604051637b1a490960e01b81526001600160a01b03909c1660048d015260248c01919091529994859081906044820190565b038160008a5af1908115610303576107cf889260049660009161091457506111ab565b604051622fcfcb60e31b815294859182905afa9384156103035761084f996108156105006000938a988d8d9987926108ed575b506105006108109187611467565b611467565b6040516323b872dd60e01b81526001600160a01b039182166004820152921660248301526044820193909352978892839182906064820190565b03925af19081156103035761086e839260009788916108d657506111f7565b608460405180978193635673b02d60e01b83528160048401528760248401528860448401528160648401525af1938415610303576040946108b9575060016000558351928352820152f35b6108cf90823d84116102fc576102ed81836110ef565b50846102c6565b6105d99150843d86116102fc576102ed81836110ef565b61081091925061090c610500918d803d106103f5576103e681836110ef565b929150610802565b61092b9150843d86116102fc576102ed81836110ef565b8d61022b565b965090600491856109428589611191565b986107cf565b809250888092503d8311610973575b61096181836110ef565b8101031261034957518790606461073d565b503d610957565b60405162461bcd60e51b815260048101879052600d60248201526c2737ba1020b8383937bb32b21760991b6044820152606490fd5b6109c69150873d89116102fc576102ed81836110ef565b8a610712565b6106fc919a506106c56109ec8992833d85116103f5576103e681836110ef565b9b9250506106b1565b3461034957608036600319011261034957610a0e611045565b610a1661105b565b6064356001600160a01b03811692919083900361034957610a35611243565b610a496001600160a01b0383161515611071565b610a5d6001600160a01b0382161515611071565b610a68831515611071565b60015460025460405163e6a4390560e01b81526001600160a01b038581166004830152918216602482018190529093929190911690602084604481855afa93841561030357600094610fca575b50610aca6001600160a01b0386161515611071565b60405163e6a4390560e01b81526001600160a01b03868116600483015282166024820152602081604481865afa90811561030357600091610fab575b50604051630240bc6b60e21b81526001600160a01b039190911691606082600481865afa90811561030357600493600093600093610f81575b5060209060405195868092637464fc3d60e01b82525afa93841561030357600094610f4d575b50610f3257610bb192610b7e610b97926004359061151d565b90610b92610b8a611281565b831515611577565b611171565b90610bac610ba36112ac565b82841115611577565b611191565b935b6040516323b872dd60e01b81526001600160a01b038481166004808401919091528682166024840152356044830152909160209183916064918391600091165af190811561030357600091610f13575b5015610ece5760405163cf82046160e01b8152602081600481855afa8015610303578591600091610e98575b50606491610c3c91611148565b0494859015610e835750610ca2906020610c6f6064610c5d88600354611148565b0496610c69888a61119e565b90611191565b604051637b1a490960e01b81526001600160a01b0360643516600482015260248101979097529592839081906044820190565b038160006001600160a01b0389165af190811561030357610ccf602092600494600091610e6657506111ab565b604051622fcfcb60e31b815292839182905afa90811561030357600091610e47575b50604051637b1a490960e01b8082526001600160a01b03909316600482015260248101859052916020838060448101038160006001600160a01b0389165af192831561030357602093610d4b91600091610e2a57506111ab565b6040519081526001600160a01b03918216600482015260248101959095528490604490829060009086165af190811561030357610d936020926000958691610e0d57506111ab565b608460405180958193635673b02d60e01b8352600435600484015281602484015281604484015286606484015260018060a01b03165af191821561030357604092610dee575b50600160005581519060043582526020820152f35b610e069060203d6020116102fc576102ed81836110ef565b5082610dd9565b610e249150843d86116102fc576102ed81836110ef565b8661022b565b610e419150853d87116102fc576102ed81836110ef565b8861022b565b610e60915060203d6020116103f5576103e681836110ef565b85610cf1565b610e7d9150843d86116102fc576102ed81836110ef565b8961022b565b610e9260209160049396611191565b94610ccf565b9150506020813d602011610ec6575b81610eb4602093836110ef565b81010312610349575184906064610c2f565b3d9150610ea7565b60405162461bcd60e51b815260206004820152601860248201527f5472616e73666572206f6620746f6b656e206661696c656400000000000000006044820152606490fd5b610f2c915060203d6020116102fc576102ed81836110ef565b86610c03565b90610f4792610b7e610b97926004359061151d565b93610bb3565b9093506020813d602011610f79575b81610f69602093836110ef565b8101031261034957519289610b65565b3d9150610f5c565b60209450610f9f91935060603d6060116103c6576103b681836110ef565b94919050939290610b3f565b610fc4915060203d6020116103f5576103e681836110ef565b87610b06565b610fe491945060203d6020116103f5576103e681836110ef565b9286610ab5565b3461034957606036600319011261034957602061102261100961102f565b611011611045565b611019611243565b604435916112db565b6001600055604051908152f35b600435906001600160a01b038216820361034957565b602435906001600160a01b038216820361034957565b604435906001600160a01b038216820361034957565b1561107857565b60405162461bcd60e51b815260206004820152601f60248201527f5a65726f2061646472657373657320617265206e6f7420616c6c6f7765642e006044820152606490fd5b6040810190811067ffffffffffffffff8211176110d957604052565b634e487b7160e01b600052604160045260246000fd5b90601f8019910116810190811067ffffffffffffffff8211176110d957604052565b9081602091031261034957516001600160a01b03811681036103495790565b90816020910312610349575180151581036103495790565b8181029291811591840414171561115b57565b634e487b7160e01b600052601160045260246000fd5b811561117b570490565b634e487b7160e01b600052601260045260246000fd5b9190820391821161115b57565b9190820180921161115b57565b156111b257565b60405162461bcd60e51b815260206004820152601760248201527f5472616e73666572206f6620455448206661696c65642e0000000000000000006044820152606490fd5b156111fe57565b60405162461bcd60e51b815260206004820152601960248201527f5472616e73666572206f6620746f6b656e206661696c65642e000000000000006044820152606490fd5b600260005414611254576002600055565b604051633ee5aeb560e01b8152600490fd5b90816060910312610349578051916040602083015192015190565b6040519061128e826110bd565b600f82526e111a5d9a5cda5bdb8819985a5b1959608a1b6020830152565b604051906112b9826110bd565b601382527229bab13a3930b1ba34b7b7103330b4b632b21760691b6020830152565b6001600160a01b039290916112f38484161515611071565b6001546002546040805163e6a4390560e01b81526001600160a01b039687166004820152918716958616602483015260209690959290919087908290604490829086165afa90811561145c5790829160009161143f575b501692855196630240bc6b60e21b8852606088600481885afa94851561143457600098600096611405575b509080600492895193848092637464fc3d60e01b82525afa9788156113fb57506000976113cb575b505016036113ba5791610b7e610b97926113b7959461151d565b90565b91610b7e610b97926113b79561151d565b9080929750813d83116113f4575b6113e381836110ef565b81010312610349575194388061139d565b503d6113d9565b513d6000823e3d90fd5b8299506004929196506114269060603d6060116103c6576103b681836110ef565b9a9190509996919250611375565b87513d6000823e3d90fd5b6114569150883d8a116103f5576103e681836110ef565b3861134a565b86513d6000823e3d90fd5b6001600160a01b031661147b811515611071565b60008080809481945af1903d15611517573d9067ffffffffffffffff821161150357604051916114b5601f8201601f1916602001846110ef565b825260203d92013e5b80156114c75790565b60405162461bcd60e51b81526020600482015260146024820152732a3930b739b332b91022aa24102330b4b632b21760611b6044820152606490fd5b634e487b7160e01b81526041600452602490fd5b506114be565b90611528908261119e565b9081106115325790565b60405162461bcd60e51b815260206004820152601b60248201527f536166654d6174683a206164646974696f6e206f766572666c6f7700000000006044820152606490fd5b1561157f5750565b6040519062461bcd60e51b82528160208060048301528251908160248401526000935b8285106115c5575050604492506000838284010152601f80199101168101030190fd5b84810182015186860160440152938101938593506115a256fea2646970667358221220980c199b80578602393c057cf338ff4be493ea09d24d68ef083da7172896e57564736f6c63430008180033",
  "linkReferences": {},
  "deployedLinkReferences": {}
}