{
  "_format": "hh-sol-artifact-1",
  "contractName": "PumpFun",
  "sourceName": "contracts/PumpFun.sol",
  "abi": [
    {
      "inputs": [
        {
          "internalType": "address",
          "name": "factory_",
          "type": "address"
        },
        {
          "internalType": "address",
          "name": "router_",
          "type": "address"
        },
        {
          "internalType": "address",
          "name": "fee_to",
          "type": "address"
        },
        {
          "internalType": "uint256",
          "name": "_fee",
          "type": "uint256"
        },
        {
          "internalType": "uint256",
          "name": "_refFee",
          "type": "uint256"
        },
        {
          "internalType": "uint256",
          "name": "min",
          "type": "uint256"
        }
      ],
      "stateMutability": "nonpayable",
      "type": "constructor"
    },
    {
      "inputs": [],
      "name": "ReentrancyGuardReentrantCall",
      "type": "error"
    },
    {
      "anonymous": false,
      "inputs": [
        {
          "indexed": true,
          "internalType": "address",
          "name": "token",
          "type": "address"
        },
        {
          "indexed": false,
          "internalType": "uint256",
          "name": "amount0",
          "type": "uint256"
        },
        {
          "indexed": false,
          "internalType": "uint256",
          "name": "amount1",
          "type": "uint256"
        }
      ],
      "name": "Deployed",
      "type": "event"
    },
    {
      "anonymous": false,
      "inputs": [
        {
          "indexed": true,
          "internalType": "address",
          "name": "token",
          "type": "address"
        },
        {
          "indexed": true,
          "internalType": "address",
          "name": "pair",
          "type": "address"
        },
        {
          "indexed": false,
          "internalType": "uint256",
          "name": "",
          "type": "uint256"
        }
      ],
      "name": "Launched",
      "type": "event"
    },
    {
      "inputs": [
        {
          "internalType": "address",
          "name": "_user",
          "type": "address"
        },
        {
          "internalType": "address",
          "name": "_token",
          "type": "address"
        },
        {
          "internalType": "uint256",
          "name": "amount",
          "type": "uint256"
        }
      ],
      "name": "approval",
      "outputs": [
        {
          "internalType": "bool",
          "name": "",
          "type": "bool"
        }
      ],
      "stateMutability": "nonpayable",
      "type": "function"
    },
    {
      "inputs": [
        {
          "internalType": "address",
          "name": "tk",
          "type": "address"
        }
      ],
      "name": "deploy",
      "outputs": [],
      "stateMutability": "nonpayable",
      "type": "function"
    },
    {
      "inputs": [],
      "name": "feeTo",
      "outputs": [
        {
          "internalType": "address",
          "name": "",
          "type": "address"
        }
      ],
      "stateMutability": "view",
      "type": "function"
    },
    {
      "inputs": [],
      "name": "feeToSetter",
      "outputs": [
        {
          "internalType": "address",
          "name": "",
          "type": "address"
        }
      ],
      "stateMutability": "view",
      "type": "function"
    },
    {
      "inputs": [
        {
          "internalType": "address",
          "name": "tk",
          "type": "address"
        }
      ],
      "name": "getTokenUrls",
      "outputs": [
        {
          "internalType": "string[4]",
          "name": "",
          "type": "string[4]"
        }
      ],
      "stateMutability": "view",
      "type": "function"
    },
    {
      "inputs": [
        {
          "internalType": "uint256",
          "name": "ethInUSD",
          "type": "uint256"
        }
      ],
      "name": "getTokens",
      "outputs": [
        {
          "components": [
            {
              "internalType": "address",
              "name": "creator",
              "type": "address"
            },
            {
              "internalType": "address",
              "name": "token",
              "type": "address"
            },
            {
              "internalType": "address",
              "name": "pair",
              "type": "address"
            },
            {
              "internalType": "string",
              "name": "name",
              "type": "string"
            },
            {
              "internalType": "string",
              "name": "ticker",
              "type": "string"
            },
            {
              "internalType": "uint256",
              "name": "supply",
              "type": "uint256"
            },
            {
              "internalType": "uint256",
              "name": "mCap",
              "type": "uint256"
            },
            {
              "internalType": "uint256",
              "name": "liquidity",
              "type": "uint256"
            },
            {
              "internalType": "string",
              "name": "description",
              "type": "string"
            },
            {
              "internalType": "string",
              "name": "image",
              "type": "string"
            },
            {
              "internalType": "string[4]",
              "name": "urls",
              "type": "string[4]"
            },
            {
              "internalType": "bool",
              "name": "trading",
              "type": "bool"
            },
            {
              "internalType": "bool",
              "name": "tradingOnUniswap",
              "type": "bool"
            }
          ],
          "internalType": "struct PumpFun.Token[]",
          "name": "",
          "type": "tuple[]"
        }
      ],
      "stateMutability": "nonpayable",
      "type": "function"
    },
    {
      "inputs": [],
      "name": "getUserReferrals",
      "outputs": [
        {
          "internalType": "address[]",
          "name": "",
          "type": "address[]"
        }
      ],
      "stateMutability": "view",
      "type": "function"
    },
    {
      "inputs": [],
      "name": "getUserTokens",
      "outputs": [
        {
          "components": [
            {
              "internalType": "address",
              "name": "creator",
              "type": "address"
            },
            {
              "internalType": "address",
              "name": "token",
              "type": "address"
            },
            {
              "internalType": "address",
              "name": "pair",
              "type": "address"
            },
            {
              "internalType": "string",
              "name": "name",
              "type": "string"
            },
            {
              "internalType": "string",
              "name": "ticker",
              "type": "string"
            },
            {
              "internalType": "uint256",
              "name": "supply",
              "type": "uint256"
            },
            {
              "internalType": "uint256",
              "name": "mCap",
              "type": "uint256"
            },
            {
              "internalType": "uint256",
              "name": "liquidity",
              "type": "uint256"
            },
            {
              "internalType": "string",
              "name": "description",
              "type": "string"
            },
            {
              "internalType": "string",
              "name": "image",
              "type": "string"
            },
            {
              "internalType": "string[4]",
              "name": "urls",
              "type": "string[4]"
            },
            {
              "internalType": "bool",
              "name": "trading",
              "type": "bool"
            },
            {
              "internalType": "bool",
              "name": "tradingOnUniswap",
              "type": "bool"
            }
          ],
          "internalType": "struct PumpFun.Token[]",
          "name": "",
          "type": "tuple[]"
        }
      ],
      "stateMutability": "view",
      "type": "function"
    },
    {
      "inputs": [
        {
          "internalType": "string",
          "name": "_name",
          "type": "string"
        },
        {
          "internalType": "string",
          "name": "_ticker",
          "type": "string"
        },
        {
          "internalType": "string",
          "name": "desc",
          "type": "string"
        },
        {
          "internalType": "string",
          "name": "img",
          "type": "string"
        },
        {
          "internalType": "string[4]",
          "name": "urls",
          "type": "string[4]"
        },
        {
          "internalType": "uint256",
          "name": "_supply",
          "type": "uint256"
        },
        {
          "internalType": "uint256",
          "name": "maxTx",
          "type": "uint256"
        },
        {
          "internalType": "address",
          "name": "ref",
          "type": "address"
        },
        {
          "internalType": "uint256",
          "name": "ethInUSD",
          "type": "uint256"
        }
      ],
      "name": "launch",
      "outputs": [
        {
          "internalType": "address",
          "name": "",
          "type": "address"
        },
        {
          "internalType": "address",
          "name": "",
          "type": "address"
        },
        {
          "internalType": "uint256",
          "name": "",
          "type": "uint256"
        }
      ],
      "stateMutability": "payable",
      "type": "function"
    },
    {
      "inputs": [],
      "name": "launchFee",
      "outputs": [
        {
          "internalType": "uint256",
          "name": "",
          "type": "uint256"
        }
      ],
      "stateMutability": "view",
      "type": "function"
    },
    {
      "inputs": [],
      "name": "liquidityFee",
      "outputs": [
        {
          "internalType": "uint256",
          "name": "",
          "type": "uint256"
        }
      ],
      "stateMutability": "pure",
      "type": "function"
    },
    {
      "inputs": [],
      "name": "marketCapLimit",
      "outputs": [
        {
          "internalType": "uint256",
          "name": "",
          "type": "uint256"
        }
      ],
      "stateMutability": "pure",
      "type": "function"
    },
    {
      "inputs": [
        {
          "internalType": "address",
          "name": "",
          "type": "address"
        }
      ],
      "name": "profile",
      "outputs": [
        {
          "internalType": "address",
          "name": "user",
          "type": "address"
        },
        {
          "internalType": "address",
          "name": "referree",
          "type": "address"
        }
      ],
      "stateMutability": "view",
      "type": "function"
    },
    {
      "inputs": [
        {
          "internalType": "uint256",
          "name": "",
          "type": "uint256"
        }
      ],
      "name": "profiles",
      "outputs": [
        {
          "internalType": "address",
          "name": "user",
          "type": "address"
        },
        {
          "internalType": "address",
          "name": "referree",
          "type": "address"
        }
      ],
      "stateMutability": "view",
      "type": "function"
    },
    {
      "inputs": [],
      "name": "referralFee",
      "outputs": [
        {
          "internalType": "uint256",
          "name": "",
          "type": "uint256"
        }
      ],
      "stateMutability": "view",
      "type": "function"
    },
    {
      "inputs": [
        {
          "internalType": "address",
          "name": "fee_to",
          "type": "address"
        }
      ],
      "name": "setFeeTo",
      "outputs": [],
      "stateMutability": "nonpayable",
      "type": "function"
    },
    {
      "inputs": [
        {
          "internalType": "address",
          "name": "",
          "type": "address"
        }
      ],
      "name": "token",
      "outputs": [
        {
          "internalType": "address",
          "name": "creator",
          "type": "address"
        },
        {
          "internalType": "address",
          "name": "token",
          "type": "address"
        },
        {
          "internalType": "address",
          "name": "pair",
          "type": "address"
        },
        {
          "internalType": "string",
          "name": "name",
          "type": "string"
        },
        {
          "internalType": "string",
          "name": "ticker",
          "type": "string"
        },
        {
          "internalType": "uint256",
          "name": "supply",
          "type": "uint256"
        },
        {
          "internalType": "uint256",
          "name": "mCap",
          "type": "uint256"
        },
        {
          "internalType": "uint256",
          "name": "liquidity",
          "type": "uint256"
        },
        {
          "internalType": "string",
          "name": "description",
          "type": "string"
        },
        {
          "internalType": "string",
          "name": "image",
          "type": "string"
        },
        {
          "internalType": "bool",
          "name": "trading",
          "type": "bool"
        },
        {
          "internalType": "bool",
          "name": "tradingOnUniswap",
          "type": "bool"
        }
      ],
      "stateMutability": "view",
      "type": "function"
    },
    {
      "inputs": [
        {
          "internalType": "uint256",
          "name": "",
          "type": "uint256"
        }
      ],
      "name": "tokens",
      "outputs": [
        {
          "internalType": "address",
          "name": "creator",
          "type": "address"
        },
        {
          "internalType": "address",
          "name": "token",
          "type": "address"
        },
        {
          "internalType": "address",
          "name": "pair",
          "type": "address"
        },
        {
          "internalType": "string",
          "name": "name",
          "type": "string"
        },
        {
          "internalType": "string",
          "name": "ticker",
          "type": "string"
        },
        {
          "internalType": "uint256",
          "name": "supply",
          "type": "uint256"
        },
        {
          "internalType": "uint256",
          "name": "mCap",
          "type": "uint256"
        },
        {
          "internalType": "uint256",
          "name": "liquidity",
          "type": "uint256"
        },
        {
          "internalType": "string",
          "name": "description",
          "type": "string"
        },
        {
          "internalType": "string",
          "name": "image",
          "type": "string"
        },
        {
          "internalType": "bool",
          "name": "trading",
          "type": "bool"
        },
        {
          "internalType": "bool",
          "name": "tradingOnUniswap",
          "type": "bool"
        }
      ],
      "stateMutability": "view",
      "type": "function"
    },
    {
      "inputs": [
        {
          "internalType": "uint256",
          "name": "_fee",
          "type": "uint256"
        }
      ],
      "name": "updateLaunchFee",
      "outputs": [
        {
          "internalType": "uint256",
          "name": "",
          "type": "uint256"
        }
      ],
      "stateMutability": "nonpayable",
      "type": "function"
    },
    {
      "inputs": [
        {
          "internalType": "uint256",
          "name": "_fee",
          "type": "uint256"
        }
      ],
      "name": "updateReferralFee",
      "outputs": [
        {
          "internalType": "uint256",
          "name": "",
          "type": "uint256"
        }
      ],
      "stateMutability": "nonpayable",
      "type": "function"
    },
    {
      "inputs": [],
      "name": "withdraw",
      "outputs": [
        {
          "internalType": "bool",
          "name": "",
          "type": "bool"
        }
      ],
      "stateMutability": "nonpayable",
      "type": "function"
    }
  ],
  "bytecode": "0x608034620001a057601f62003f2e38819003918201601f19168301916001600160401b03831184841017620001a55780849260c094604052833981010312620001a0576200004d81620001bb565b6200005b60208301620001bb565b6200006960408401620001bb565b9060608401519060a0608086015195015192600160005560018060a01b0319943386600154161760015560018060a01b038080921693620000ac851515620001d0565b1691620000bb831515620001d0565b1691620000ca831515620001d0565b856002541617600255846003541617600355836004541617600455670de0b6b3a7640000908181029181830414901517156200018a576103e89004600655600583116200014557734752ba5dbc23f44d87826276bf6fd6b1c372ad24926007556005556008541617600855604051613d1090816200021e8239f35b60405162461bcd60e51b815260206004820152601e60248201527f526566657272616c204665652063616e6e6f74206578636565642035252e00006044820152606490fd5b634e487b7160e01b600052601160045260246000fd5b600080fd5b634e487b7160e01b600052604160045260246000fd5b51906001600160a01b0382168203620001a057565b15620001d857565b60405162461bcd60e51b815260206004820152601f60248201527f5a65726f2061646472657373657320617265206e6f7420616c6c6f7765642e006044820152606490fdfe60808060405260043610156200001457600080fd5b600090813560e01c908163017e7e58146200198157508063094b741514620019565780633ccfd60b14620018d55780634c96a38914620012d15780634f64b2be14620012725780635c52a5f214620012145780636d46a1db146200115f5780637660f44a146200113a5780637c8f0323146200083157806380997e47146200080a57806384ae2bc614620007ea5780638a664ebc146200071557806398118cb414620006f75780639dd9d0fd146200068e578063c0f45e7014620005fd578063c36fe3d614620005aa578063cf3cf573146200058a578063d3c9cc2614620002aa578063e1ea9d7314620001a3578063f3f524b8146200017e5763f46901ed146200011e57600080fd5b346200017b5760203660031901126200017b576200013b620019a8565b6001546001600160a01b03919062000157908316331462001e8f565b166200016581151562001eeb565b6001600160601b0360a01b600454161760045580f35b80fd5b50346200017b5760203660031901126200017b57602060043580600755604051908152f35b50346200017b57806003193601126200017b57620001cb620001c533620029b1565b620026d6565b338152602060098152604082209160405190620001e88262001a6c565b60018060a01b0393848154168352600192856001830154168582015260028201916040519283878254918281520191865287862090865b8181106200029457505050600360609262000241866200024f94038762001a89565b604085019586520162002837565b9101525193604051938085019181865286518093528160408701970193905b8382106200027c5786880387f35b8451811688529682019693820193908501906200026e565b82548b168452928901929188019188016200021f565b50346200017b576020806003193601126200058657600435825b600c54811015620004da57620002da81620019bf565b506002908101546001600160a01b03929190831690620002fa83620019bf565b50846001809201541692604051958691630240bc6b60e21b835282600460609485935afa968715620004cf578a928b9862000494575b5050826200033e87620019bf565b500154168952600b88526040892092811590811562000369575b5050505050506001915001620002c4565b670de0b6b3a76400009384890480911b91818304149015171562000480579089620003998a600496959462001fb3565b96604051958680926318160ddd60e01b82525afa93841562000475578b946200043b575b506200042557620003df620003ef93620003e5938a9360019a04910462001fb3565b62001fb3565b6005549062001fd5565b60068181840155836007809401556200040885620019bf565b5001556200041683620019bf565b50015538808080808062000358565b634e487b7160e01b600052601260045260246000fd5b9093508981813d83116200046d575b62000456818362001a89565b810103126200046857519238620003bd565b600080fd5b503d6200044a565b6040513d8d823e3d90fd5b634e487b7160e01b8b52601160045260248bfd5b8091929850620004bd9350903d10620004c7575b620004b4818362001a89565b810190620028a6565b5095388062000330565b503d620004a8565b6040513d8c823e3d90fd5b82600c5467ffffffffffffffff811162000570576040519062000503838260051b018362001a89565b808252828201600c6000527fdf6966c971051c3d54ec59162606531493a51404a002842f56009d7e5cf4a8c7936000915b8383106200055057604051806200054c878262001ce7565b0390f35b600f82600192620005618962002723565b81520196019201919462000534565b634e487b7160e01b600052604160045260246000fd5b5080fd5b50346200017b57806003193601126200017b576020600654604051908152f35b50346200017b5760203660031901126200017b57600435600a548110156200058657620005d79062001e1f565b508054600190910154604080516001600160a01b03938416815292909116602083015290f35b50346200017b5760208060031936011262000586576200061c620019a8565b906040516200062b8162001a6c565b835b6080811062000680576200054c610140620006696040886001600160a01b0389166200065b81151562001eeb565b8152600b6020522062002723565b015160405191829160208352602083019062001ca5565b60608282015282016200062d565b50346200017b5760203660031901126200017b576001600160a01b039060409082620006b9620019a8565b1681526009602052209060018183541692015416906200054c6040519283928390602090939293604083019460018060a01b03809216845216910152565b50346200017b57806003193601126200017b57602060405160058152f35b50346200017b57806003193601126200017b5762000737620001c533620029b1565b33815260206009602052604082209060405192620007558462001a6c565b60018060a01b0390818454168552600182600186015416602087015260028501926040519081956020865493848152019585526020852094915b838310620007d2576200054c60608b620007c060038d8d620007b4818f038262001a89565b60408501520162002837565b91829101526040519182918262001ce7565b8554811687529581019594840194918401916200078f565b50346200017b57806003193601126200017b576020600754604051908152f35b50346200017b57806003193601126200017b57602060405169152d02c7e14af68000008152f35b506101203660031901126200017b5767ffffffffffffffff60043581811162000d5e576200086490369060040162001c58565b9060243581811162000dee576200088090369060040162001c58565b9260443582811162000586576200089c90369060040162001c58565b9360643583811162000d5e57620008b890369060040162001c58565b9260843581811162000dee573660238201121562000dee5760405190620008df8262001a6c565b6084810182368211620010325782600401905b8282106200110a57505060e435939150506001600160a01b038316830362000468576200091e620028c2565b6006543410620010c557604051906110ab908282810110908284011117620010b15780829162002c30833960808183015262000977620009646080838501018b62001b5d565b8284018103602084860101528762001b5d565b9060a43560408285010152606060c4359184010152039085f0948515620010a6576003546040516315ab88c960e31b815298906020908a9060049082906001600160a01b03165afa9889156200109b578697989960209162000a17989162001079575b506002546040516364e329cb60e11b81526001600160a01b038c8116600483015292831660248201529889929091169082908b9082906044820190565b03925af19586156200106e57879662001036575b5060035460405163313ce56760e01b81526001600160a01b0391821691602090829060049082908e165afa90811562000fdd5762000a7c62000a97939262000a85928c9162000fe8575b5062001f8b565b60a43562001fb3565b906001600160a01b038b169062002900565b15620010325760053481020434036200101e5762000abc606434600502043462001fc7565b60035460405163313ce56760e01b81529196916001600160a01b0391821691602090829060049082908f165afa908115620004cf579162000b1062000a7c60409362000b42958e9162000fe8575062001f8b565b8251630e505aa960e31b81526001600160a01b038e166004820152602481019190915292839190829081906044820190565b039160643460050204905af1801562000fdd5762000fa8575b50670de0b6b3a76400006064346005020404600181901b8190046002149015171562000f945762000ba361010435670de0b6b3a7640000606434600502040460011b62001fb3565b9062000bc7620003e561010435670de0b6b3a7640000606434600502040462001fb3565b906040519b62000bd78d62001a4e565b338d528c60208d60018060a01b03169101528c604060018060a01b038c1691015260608d015260808c015260a43560a08c015260c08b015260e08a015261010089015261012088015261014087015260016101608701528361018087015260018060a01b0385168452600b60205262000c5486604086206200204b565b600c54600160401b9081811015620005705780600162000c789201600c55620019bf565b62000f7e578762000c89916200204b565b62000c9433620029b1565b1562000df25750503383526009602052604083206001810180549192918591906001600160a01b03168062000d625750508080809360018060a01b03600454165af162000ce062001e5a565b501562000d5e57606094600362000cf9925b016200265b565b600c5460405181815290926001916001600160a01b0384811691908716907f714aa39317ad9a7a7a99db52b44490da5d068a0b2710fffb1a1282ad3cadae1f90602090a355604080516001600160a01b03948516815291909316602082015291820152f35b8280fd5b828092948192825262000d7c336002604085200162002692565b62000d99606462000d908360075462001fb3565b04809262001fc7565b95546001600160a01b03165af162000db062001e5a565b501562000dee5760045484918291829182916001600160a01b03165af162000dd762001e5a565b501562000d5e57606094600362000cf99262000cf2565b8380fd5b62000dff33151562001eeb565b6040519162000e0e8362001a6c565b33835260018060a01b0316602083015260606040830152606080830152338552600960205262000e42826040872062002a09565b600a549081101562000f6a5780600162000e609201600a5562001e1f565b62000f56579062000e719162002a09565b3383526009602052604083206001810180549192918591906001600160a01b03168062000ed35750508080809360018060a01b03600454165af162000eb562001e5a565b501562000d5e57606094600362000ecd92016200265b565b62000cf9565b828092948192825262000eed336002604085200162002692565b62000f01606462000d908360075462001fb3565b95546001600160a01b03165af162000f1862001e5a565b501562000dee5760045484918291829182916001600160a01b03165af162000f3f62001e5a565b501562000d5e57606094600362000ecd9262000cf2565b634e487b7160e01b85526004859052602485fd5b634e487b7160e01b85526041600452602485fd5b634e487b7160e01b600052600060045260246000fd5b634e487b7160e01b88526011600452602488fd5b62000fce9060403d60401162000fd5575b62000fc5818362001a89565b81019062001f59565b5062000b5b565b503d62000fb9565b6040513d8b823e3d90fd5b6200100f915060203d60201162001016575b62001006818362001a89565b81019062001f70565b3862000a75565b503d62000ffa565b634e487b7160e01b87526011600452602487fd5b8680fd5b6200105e91965060203d60201162001066575b62001055818362001a89565b81019062001f38565b943862000a2b565b503d62001049565b6040513d89823e3d90fd5b620010949150823d8411620010665762001055818362001a89565b38620009da565b6040513d88823e3d90fd5b6040513d86823e3d90fd5b634e487b7160e01b86526041600452602486fd5b60405162461bcd60e51b815260206004820152601960248201527f496e73756666696369656e7420616d6f756e742073656e742e000000000000006044820152606490fd5b813586811162001136576020916200112a83926004369189010162001c58565b815201910190620008f2565b8880fd5b50346200017b5760203660031901126200017b57602060043580600655604051908152f35b50346200017b5760203660031901126200017b576001600160a01b0390604090826200118a620019a8565b168152600b60205220906200054c8183541692826001820154169260028201541693620011ba6003830162001aac565b91620011c96004820162001aac565b60058201546006830154600784015491620011e76008860162001aac565b93600e620011f86009880162001aac565b960154976040519b8c9b60ff808c60081c169b16998d62001b9f565b50346200017b5760603660031901126200017b5762001232620019a8565b60243591906001600160a01b03831683036200046857620012666001916020946200125c620028c2565b6044359162002900565b91556040519015158152f35b50346200017b5760203660031901126200017b57600435600c5481101562000586576200129f90620019bf565b508054600182015460028301546001600160a01b0390811693918116926200054c929116620011ba6003830162001aac565b50346200017b576020806003193601126200058657620012f0620019a8565b6001546001600160a01b0391906200130c908316331462001e8f565b62001316620028c2565b8181169283151590620013298262001eeb565b8360035416936040519082826004816315ab88c960e31b998a82525afa918215620018a857620013989284918a91620018b3575b5060025460405163e6a4390560e01b81526001600160a01b03808a166004830152909216602483015290938491841690829081906044820190565b03915afa918215620018a857889262001884575b50863b1562001880576040516306da678f60e51b8152918116600483015260249188818481838c5af1801562000fdd5762001849575b509087939291878552600b835260408520966040826003541660648b8351998a93849263e79a408960e01b8452600484015283898401523060448401525af1948515620004cf578a968b966200181a575b506200143f9062001eeb565b888a52600b8452600e60408b20015460ff811690816200180a575b5015620017c65788908260085416604051908c878388816370a0823160e01b988982523060048301525afa918215620017b9578b91926200177f575b620014a2935062002900565b156200174b579082918b9493600854169060405163c45a015560e01b81528781600481865afa9182156200106e578891889362001727575b5060046040518095819382525afa9081156200109b57620015389a8893889362001703575b506040516364e329cb60e11b81526001600160a01b0391821660048201529216602483015290998a919082908890879083906044820190565b0393165af1978815620010a6578498620016df575b5060085460405191825230600483015282169047868286818f5afa9283156200109b578c9287946200169f575b509160c49160609493604051988995869463f305d71960e01b865260048601528985015280604485015260648401523060848401524260a48401525af1908115620004cf5784936044926200167b575b508a816008541691604051998a95869463095ea7b360e01b8652600486015260001990850152165af180156200106e577f540bcec33387745b2ced30977dcfe4a623a245511eb0a133989c27c8bb95b4a995604095600e9262001647575b5001805461ffff19166101001790558351928352820152a26001815580f35b6200166b90843d861162001673575b62001662818362001a89565b810190620028e6565b503862001628565b503d62001656565b620016979060603d606011620004c757620004b4818362001a89565b5050620015ca565b9350915094508582813d8311620016d7575b620016bd818362001a89565b81010312620004685790518b9490918b919060c46200157a565b503d620016b1565b620016fb919850853d8711620010665762001055818362001a89565b96386200154d565b6200171f919350843d8611620010665762001055818362001a89565b9138620014ff565b62001743919350823d8411620010665762001055818362001a89565b9138620014da565b60405162461bcd60e51b815260048101869052600d818601526c2737ba1030b8383937bb32b21760991b6044820152606490fd5b9150508682813d8311620017b1575b6200179a818362001a89565b81010312620004685789620014a292519162001496565b503d6200178e565b50604051903d90823e3d90fd5b60405162461bcd60e51b8152600481018590526017818501527f74726164696e6720697320616c7265616479206f70656e0000000000000000006044820152606490fd5b60ff915060081c1615386200145a565b6200143f97506200183e91965060403d60401162000fd55762000fc5818362001a89565b969096959062001433565b67ffffffffffffffff81999295949399116200186d576040529690919238620013e2565b634e487b7160e01b825260416004528882fd5b8780fd5b620018a0919250833d8511620010665762001055818362001a89565b9038620013ac565b6040513d8a823e3d90fd5b620018ce9150823d8411620010665762001055818362001a89565b386200135d565b50346200017b57806003193601126200017b5760015481908190819047906001600160a01b03165af16200190862001e5a565b50156200191a57602060405160018152f35b60405162461bcd60e51b81526020600482015260146024820152732a3930b739b332b91022aa24102330b4b632b21760611b6044820152606490fd5b50346200017b57806003193601126200017b576001546040516001600160a01b039091168152602090f35b90503462000586578160031936011262000586576004546001600160a01b03168152602090f35b600435906001600160a01b03821682036200046857565b600c54811015620019fb57600f90600c600052027fdf6966c971051c3d54ec59162606531493a51404a002842f56009d7e5cf4a8c70190600090565b634e487b7160e01b600052603260045260246000fd5b90600182811c9216801562001a43575b602083101462001a2d57565b634e487b7160e01b600052602260045260246000fd5b91607f169162001a21565b6101a0810190811067ffffffffffffffff8211176200057057604052565b6080810190811067ffffffffffffffff8211176200057057604052565b90601f8019910116810190811067ffffffffffffffff8211176200057057604052565b9060405191826000825462001ac18162001a11565b9081845260209460019160018116908160001462001b39575060011462001af6575b50505062001af49250038362001a89565b565b600090815285812095935091905b81831062001b2057505062001af4935082010138808062001ae3565b8554888401850152948501948794509183019162001b04565b9250505062001af494925060ff191682840152151560051b82010138808062001ae3565b919082519283825260005b84811062001b8a575050826000602080949584010152601f8019910116010190565b60208183018101518483018201520162001b68565b9a9c9b98939462001bed62001c1b979662001bfc938e6101609e9b9662001c2b9d986101809360018060a01b0392838092168552166020840152166040820152816060820152019062001b5d565b8c810360808e01529062001b5d565b9360a08b015260c08a015260e089015287820361010089015262001b5d565b9085820361012087015262001b5d565b9415156101408401521515910152565b67ffffffffffffffff81116200057057601f01601f191660200190565b81601f82011215620004685780359062001c728262001c3b565b9262001c82604051948562001a89565b828452602083830101116200046857816000926020809301838601378301015290565b60808201918060005b6004811062001cbe575050505090565b9091929362001cd68185600193038552865162001b5d565b946020908101949301910162001cae565b6020808201908083528351809252604092604081018260408560051b8401019601946000925b85841062001d1f575050505050505090565b909192939495968580600192603f198582030187528a519062001df362001dde62001dc962001d9662001d826101a08a8060a01b03808951168852808a8a0151168a8901528d890151168d88015260609080828a01519289015287019062001b5d565b608080880151908783039088015262001b5d565b60a0808701519086015260c0808701519086015260e0808701519086015261010080870151908683039087015262001b5d565b61012080860151908583039086015262001b5d565b61014080850151908483039085015262001ca5565b916101608082015115159083015261018080910151151591015299019401940192959493919062001d0d565b600a54811015620019fb57600a60005260021b7fc65a7bb8d6351c1cf70c95a316cc6a92839c986682d98bc35f958f4883f9d2a80190600090565b3d1562001e8a573d9062001e6e8262001c3b565b9162001e7e604051938462001a89565b82523d6000602084013e565b606090565b1562001e9757565b60405162461bcd60e51b815260206004820152602660248201527f4f6e6c7920746865206f776e65722063616e2063616c6c20746869732066756e60448201526531ba34b7b71760d11b6064820152608490fd5b1562001ef357565b60405162461bcd60e51b815260206004820152601f60248201527f5a65726f2061646472657373657320617265206e6f7420616c6c6f7765642e006044820152606490fd5b908160209103126200046857516001600160a01b0381168103620004685790565b919082604091031262000468576020825192015190565b9081602091031262000468575160ff81168103620004685790565b60ff16604d811162001f9d57600a0a90565b634e487b7160e01b600052601160045260246000fd5b8181029291811591840414171562001f9d57565b9190820391821162001f9d57565b9190820180921162001f9d57565b81811062001fef575050565b6000815560010162001fe3565b62002008815462001a11565b908162002013575050565b81601f6000931160011462002026575055565b90808391825262002047601f60208420940160051c84016001850162001fe3565b5555565b60018060a01b0380835116906001600160601b0360a01b918284541617835560019081840192602093828588015116828254161790556002850191604087015116908254161790556003918284019260608601519182519467ffffffffffffffff958681116200057057620020c1825462001a11565b94601f9586811162002629575b508390868311600114620025c35762002101929160009183620022fe575b50508160011b916000199060031b1c19161790565b90555b60048087016080890151805190888211620025ae5762002125835462001a11565b87811162002571575b5084908783116001146200250b5762002160929160009183620022fe5750508160011b916000199060031b1c19161790565b90555b60059360a08901518589015560c0890151600689015560e08901516007890155600888016101008a0151805190898211620023bc57620021a4835462001a11565b848111620024db575b5085908483116001146200247557620021df929160009183620022fe5750508160011b916000199060031b1c19161790565b90555b600988016101208a0151805190898211620023bc5762002203835462001a11565b8481116200243a575b508590848311600114620023d1576200223e929160009183620022fe5750508160011b916000199060031b1c19161790565b90559290925b61014089015193600a8901926000955b828710620022945750505050505050505050600e019061016081015115159060ff61ff006101808554930151151560081b1692169061ffff191617179055565b80519081518b8111620023bc578a918891620022b1895462001a11565b8881116200237f575b5082948882116001146200230a5790808596620022ee93600092620022fe5750508160011b916000199060031b1c19161790565b88555b0195019601959362002254565b015190503880620020ec565b94601f198216908a600052846000209160005b8181106200235c575090869784889594931062002343575b505050811b018855620022f1565b0151600019838a1b60f8161c1916905538808062002335565b9497939686929691938786015181550195019301928b94918f969397946200231d565b620023ab908a6000528d85600020908b808601821c830193888710620023b2575b01901c019062001fe3565b38620022ba565b93508293620023a0565b604185634e487b7160e01b6000525260246000fd5b899291601f1983169185600052886000209260005b8a8282106200242357505084116200240a575b505050811b01905592909262002244565b0151600019838a1b60f8161c19169055388080620023f9565b8385015186558e97909501949384019301620023e6565b62002464908460005287600020868086018c1c8201928a87106200246b575b018b1c019062001fe3565b386200220c565b9250819262002459565b899291601f1983169185600052886000209260005b8a828210620024c45750508411620024ab575b505050811b019055620021e2565b0151600019838a1b60f8161c191690553880806200249d565b8385015186558e979095019493840193016200248a565b62002504908460005287600020868086018c1c8201928a87106200246b57018b1c019062001fe3565b38620021ad565b889291601f1983169185600052876000209260005b898282106200255a575050841162002541575b505050811b01905562002163565b015160001983891b60f8161c1916905538808062002533565b8385015186558d9790950194938401930162002520565b6200259d9084600052866000208980860160051c820192898710620025a4575b0160051c019062001fe3565b386200212e565b9250819262002591565b604184634e487b7160e01b6000525260246000fd5b879291601f1983169185600052866000209260005b88828210620026125750508411620025f9575b505050811b01905562002104565b015160001983881b60f8161c19169055388080620025eb565b8385015186558c97909501949384019301620025d8565b620026549084600052856000208880860160051c820192888710620025a4570160051c019062001fe3565b38620020ce565b908154600160401b811015620005705760018101808455811015620019fb5762001af492600052600f60206000209102016200204b565b805490600160401b821015620005705760018201808255821015620019fb576000526020600020019060018060a01b03166001600160601b0360a01b825416179055565b15620026de57565b60405162461bcd60e51b815260206004820152601c60248201527f557365722050726f66696c6520646f7365206e6f742065786973742e000000006044820152606490fd5b90604051620027328162001a4e565b809260018060a01b0380825416835260018160018401541691602092602086015260028401541660408501526200276c6003840162001aac565b60608501526004620027816004850162001aac565b6080860152600584015460a0860152600684015460c0860152600784015460e0860152620027b26008850162001aac565b610100860152620027c66009850162001aac565b61012086015260405192620027db8462001a6c565b600090600a8601855b8484106200281957505050505050600e6101809260ff926101408601520154818116151561016085015260081c161515910152565b85838192620028288562001aac565b815201920193019290620027e4565b90815467ffffffffffffffff81116200057057602092604051936200286360208460051b018662001a89565b828552602085019160005260206000206000925b84841062002886575050505050565b600f83600192620028978562002723565b81520192019301929062002877565b9081606091031262000468578051916040602083015192015190565b600260005414620028d4576002600055565b604051633ee5aeb560e01b8152600490fd5b908160209103126200046857518015158103620004685790565b6200296a926020929091906001600160a01b039062002923828416151562001eeb565b16906200293282151562001eeb565b60405163095ea7b360e01b81526001600160a01b03909116600482015260248101929092529092839190829060009082906044820190565b03925af18015620029a55762002981575b50600190565b6200299d9060203d602011620016735762001662818362001a89565b50386200297b565b6040513d6000823e3d90fd5b6001600160a01b03908116620029c981151562001eeb565b600a549160005b838110620029e15750505050600090565b8282620029ee8362001e1f565b5054161462002a0057600101620029d0565b50505050600190565b60018060a01b0390818351166001600160601b0360a01b90818354161782556001936001830160209285848401511690825416179055600292600281019360408301519586519067ffffffffffffffff82116200057057600160401b97888311620005705786908854848a5580851062002c0f575b5001906000978852868820908a895b85811062002bfa5750505050505060606003809301930151918251968711620010b15783548785558593929181891062002afd575b50505091845282842091015b84841062002ade57505050505050565b600f838262002af0899451866200204b565b0192019301929062002ace565b9091929350600f9282600f0292600f84040362000f945788600f02600f81048a0362002be657868952878920889695948101939291015b83811062002b4457505062002ac2565b849596508981959293949555898c820155898382015562002b6784820162001ffc565b62002b756004820162001ffc565b89600582015589600682015589600782015562002b956008820162001ffc565b62002ba36009820162001ffc565b89600e82018d600a84015b82811062002bc757505055019087959493929162002b34565b809294955062002bd991935062001ffc565b018692918d8c9262002bae565b634e487b7160e01b89526011600452602489fd5b898386511695019481850155018b9062002a8d565b62002c28908a6000528584600020918201910162001fe3565b3862002a7e56fe604060808152346200042957620010ab803803806200001e816200042e565b928339810190608081830312620004295780516001600160401b039190828111620004295783620000519183016200046a565b90602093848201519084821162000429576200006f9183016200046a565b606086830151920151906000943360018060a01b031987541617865533867f8be0079c531659141344cd1fd0a4f28419497f9722a3daafe3b4186f6b6457e08180a384518181116200034357600254906001968783811c931680156200041e575b8a84101462000324578190601f93848111620003ca575b508a9084831160011462000363578a9262000357575b5050600019600383901b1c191690871b176002555b8251918211620003435760039283548781811c9116801562000338575b8a821014620003245790818385949311620002cf575b50899183116001146200026c57889262000260575b505060001982841b1c191690851b1790555b670de0b6b3a7640000918281029281840414901517156200024c5781835560058111620001fe57907fddf252ad1be2c89b69c2b068fc378daa952ba7f163c4a11628f55a4df523b3ef929160045533845260058552858420556007845284832060ff199082828254161790553084528186852091825416179055549284519384523393a351610bce9081620004dd8239f35b855162461bcd60e51b815260048101869052602160248201527f4d6178205472616e73616374696f6e2063616e6e6f74206578636565642035256044820152601760f91b6064820152608490fd5b634e487b7160e01b84526011600452602484fd5b0151905038806200015a565b8489528989208894509190601f1984168a5b8c828210620002b857505084116200029f575b505050811b0190556200016c565b015160001983861b60f8161c1916905538808062000291565b8385015186558b979095019493840193016200027e565b909192508489528989208380860160051c8201928c87106200031a575b9186958b929594930160051c01915b8281106200030b57505062000145565b8b81558695508a9101620002fb565b92508192620002ec565b634e487b7160e01b89526022600452602489fd5b90607f16906200012f565b634e487b7160e01b87526041600452602487fd5b015190503880620000fd565b60028b528b8b208a94509190601f1984168c8e5b828210620003b2575050841162000398575b505050811b0160025562000112565b015160001960f88460031b161c1916905538808062000389565b8385015186558d979095019493840193018e62000377565b90915060028a528a8a208480850160051c8201928d861062000414575b918b91869594930160051c01915b82811062000405575050620000e7565b8c81558594508b9101620003f5565b92508192620003e7565b92607f1692620000d0565b600080fd5b6040519190601f01601f191682016001600160401b038111838210176200045457604052565b634e487b7160e01b600052604160045260246000fd5b919080601f84011215620004295782516001600160401b0381116200045457602090620004a0601f8201601f191683016200042e565b92818452828287010111620004295760005b818110620004c857508260009394955001015290565b8581018301518482018401528201620004b256fe608060408181526004918236101561001657600080fd5b600092833560e01c91826306fdde03146105b557508163095ea7b31461058b57816318160ddd1461056c57816323b872dd14610497578163313ce5671461047b57816370a0823114610443578163715018a6146103e45781637437681e146103c65781638da5cb5b1461039e57816395d89b4114610299578163a9059cbb14610268578163c2d0ffca146101b9578163db4cf1e01461010a575063dd62ed3e146100bf57600080fd5b34610106578060031936011261010657806020926100db6106bd565b6100e36106d8565b6001600160a01b0391821683526006865283832091168252845220549051908152f35b5080fd5b9050346101b55760203660031901126101b5576101256106bd565b83546001600160a01b03919061013e9083163314610726565b1690811561015e5750825260076020528120805460ff1916600117905580f35b608490602084519162461bcd60e51b8352820152602b60248201527f45524332303a204578636c756465204d61782054782066726f6d20746865207a60448201526a65726f206164647265737360a81b6064820152fd5b8280fd5b919050346101b55760203660031901126101b5578135916101e460018060a01b038554163314610726565b6005831161021c5791602091817fff3dd5e80294197918c284bbfc3dadd97d0b40ce92106110946329088f80068a945551908152a180f35b6020608492519162461bcd60e51b8352820152602160248201527f4d6178205472616e73616374696f6e2063616e6e6f74206578636565642035256044820152601760f91b6064820152fd5b5050346101065780600319360112610106576020906102926102886106bd565b6024359033610873565b5160018152f35b919050346101b557826003193601126101b55780519183600354906001908260011c92600181168015610394575b6020958686108214610381575084885290811561035f5750600114610306575b61030286866102f8828b03836106ee565b5191829182610674565b0390f35b929550600383527fc2575a0e9e593c00f959f8c92f12db2869c3395a3b0502d05e2516446f71f85b5b82841061034c5750505082610302946102f89282010194386102e7565b805486850188015292860192810161032f565b60ff191687860152505050151560051b83010192506102f882610302386102e7565b634e487b7160e01b845260229052602483fd5b93607f16936102c7565b505034610106578160031936011261010657905490516001600160a01b039091168152602090f35b9050346101b557826003193601126101b55760209250549051908152f35b83346104405780600319360112610440578054816001600160a01b03821661040d338214610726565b7f8be0079c531659141344cd1fd0a4f28419497f9722a3daafe3b4186f6b6457e08280a36001600160a01b031916815580f35b80fd5b5050346101065760203660031901126101065760209181906001600160a01b0361046b6106bd565b1681526005845220549051908152f35b5050346101065781600319360112610106576020905160128152f35b828434610440576060366003190112610440576104b26106bd565b906104bb6106d8565b6104c9604435809285610873565b6001600160a01b038316825260066020908152848320338452905283822054845192606084019067ffffffffffffffff8211858310176105595760208761029288610551898989898752602883527f45524332303a207472616e7366657220616d6f756e742065786365656473206188840152676c6c6f77616e636560c01b87840152610b4d565b903390610771565b634e487b7160e01b815260418852602490fd5b5050346101065781600319360112610106576020906001549051908152f35b5050346101065780600319360112610106576020906102926105ab6106bd565b6024359033610771565b92915034610670578360031936011261067057600254600181811c9186908281168015610666575b6020958686108214610381575084885290811561035f575060011461060d5761030286866102f8828b03836106ee565b929550600283527f405787fa12a823e0f2b7631cc41b3ba8828b3321ca811111fa75cd3aa3bb5ace5b8284106106535750505082610302946102f89282010194386102e7565b8054868501880152928601928101610636565b93607f16936105dd565b8380fd5b6020808252825181830181905290939260005b8281106106a957505060409293506000838284010152601f8019910116010190565b818101860151848201604001528501610687565b600435906001600160a01b03821682036106d357565b600080fd5b602435906001600160a01b03821682036106d357565b90601f8019910116810190811067ffffffffffffffff82111761071057604052565b634e487b7160e01b600052604160045260246000fd5b1561072d57565b606460405162461bcd60e51b815260206004820152602060248201527f4f776e61626c653a2063616c6c6572206973206e6f7420746865206f776e65726044820152fd5b6001600160a01b0390811691821561082257169182156107d25760207f8c5be1e5ebec7d5bd14f71427d1e84f3dd0314c0f7b2291e5b200ac8c7c3b925918360005260068252604060002085600052825280604060002055604051908152a3565b60405162461bcd60e51b815260206004820152602260248201527f45524332303a20617070726f766520746f20746865207a65726f206164647265604482015261737360f01b6064820152608490fd5b60405162461bcd60e51b8152602060048201526024808201527f45524332303a20617070726f76652066726f6d20746865207a65726f206164646044820152637265737360e01b6064820152608490fd5b9192916001600160a01b03908116918215610afa5716908115610aa9578315610a5257600480549460015495868102968188041490151715610a3d576000958387526020926007845260409160ff838a205416156109ec575b50848852600584528188205482519083820182811067ffffffffffffffff8211176109d957610928929186918652601e83527f536166654d6174683a207375627472616374696f6e206f766572666c6f77000088840152610b4d565b85895260058552828920558588528188205490838201918281116109c657821061098357508188877fddf252ad1be2c89b69c2b068fc378daa952ba7f163c4a11628f55a4df523b3ef9798999a5260058652205551908152a3565b825162461bcd60e51b8152908101859052601b60248201527f536166654d6174683a206164646974696f6e206f766572666c6f7700000000006044820152606490fd5b634e487b7160e01b8a526011825260248afd5b634e487b7160e01b8b526041845260248bfd5b6064900483116109fc57386108cc565b83606492519162461bcd60e51b8352820152601860248201527f4578636565647320746865204d61785478416d6f756e742e00000000000000006044820152fd5b601182634e487b7160e01b6000525260246000fd5b60405162461bcd60e51b815260206004820152602960248201527f5472616e7366657220616d6f756e74206d7573742062652067726561746572206044820152687468616e207a65726f60b81b6064820152608490fd5b60405162461bcd60e51b815260206004820152602360248201527f45524332303a207472616e7366657220746f20746865207a65726f206164647260448201526265737360e81b6064820152608490fd5b60405162461bcd60e51b815260206004820152602560248201527f45524332303a207472616e736665722066726f6d20746865207a65726f206164604482015264647265737360d81b6064820152608490fd5b91828211610b7857508103908111610b625790565b634e487b7160e01b600052601160045260246000fd5b60405162461bcd60e51b8152908190610b949060048301610674565b0390fdfea2646970667358221220c49e554740cb71aa09a85b3746b1a934acbfb9371a9f5eefd27a7b626ea785f264736f6c63430008180033a26469706673582212205717d31739cd22f7deda4eb253f24a2a9c9f162558cf8d792692020cd9a9fa2864736f6c63430008180033",
  "linkReferences": {},
  "deployedLinkReferences": {}
}