{
  "_format": "hh-sol-artifact-1",
  "contractName": "PumpFun",
  "sourceName": "contracts/PumpFun.sol",
  "abi": [
    {
      "inputs": [
        {
          "internalType": "address",
          "name": "factory_",
          "type": "address"
        },
        {
          "internalType": "address",
          "name": "router_",
          "type": "address"
        },
        {
          "internalType": "address",
          "name": "fees_wallet",
          "type": "address"
        },
        {
          "internalType": "uint256",
          "name": "_fee",
          "type": "uint256"
        },
        {
          "internalType": "uint256",
          "name": "_refFee",
          "type": "uint256"
        },
        {
          "internalType": "uint256",
          "name": "_lpFee",
          "type": "uint256"
        }
      ],
      "stateMutability": "nonpayable",
      "type": "constructor"
    },
    {
      "anonymous": false,
      "inputs": [
        {
          "indexed": true,
          "internalType": "address",
          "name": "token",
          "type": "address"
        },
        {
          "indexed": true,
          "internalType": "address",
          "name": "pair",
          "type": "address"
        },
        {
          "indexed": false,
          "internalType": "uint256",
          "name": "",
          "type": "uint256"
        }
      ],
      "name": "Launched",
      "type": "event"
    },
    {
      "inputs": [
        {
          "internalType": "address",
          "name": "_user",
          "type": "address"
        },
        {
          "internalType": "address",
          "name": "_token",
          "type": "address"
        },
        {
          "internalType": "uint256",
          "name": "amount",
          "type": "uint256"
        }
      ],
      "name": "approval",
      "outputs": [
        {
          "internalType": "bool",
          "name": "",
          "type": "bool"
        }
      ],
      "stateMutability": "nonpayable",
      "type": "function"
    },
    {
      "inputs": [],
      "name": "deploy",
      "outputs": [
        {
          "internalType": "uint256",
          "name": "",
          "type": "uint256"
        }
      ],
      "stateMutability": "pure",
      "type": "function"
    },
    {
      "inputs": [],
      "name": "feeTo",
      "outputs": [
        {
          "internalType": "address",
          "name": "",
          "type": "address"
        }
      ],
      "stateMutability": "view",
      "type": "function"
    },
    {
      "inputs": [],
      "name": "feeToSetter",
      "outputs": [
        {
          "internalType": "address",
          "name": "",
          "type": "address"
        }
      ],
      "stateMutability": "view",
      "type": "function"
    },
    {
      "inputs": [
        {
          "internalType": "string",
          "name": "_name",
          "type": "string"
        },
        {
          "internalType": "string",
          "name": "_ticker",
          "type": "string"
        },
        {
          "internalType": "string",
          "name": "desc",
          "type": "string"
        },
        {
          "internalType": "string",
          "name": "img",
          "type": "string"
        },
        {
          "internalType": "string[4]",
          "name": "urls",
          "type": "string[4]"
        },
        {
          "internalType": "uint256",
          "name": "_supply",
          "type": "uint256"
        },
        {
          "internalType": "uint256",
          "name": "maxTx",
          "type": "uint256"
        },
        {
          "internalType": "address",
          "name": "ref",
          "type": "address"
        }
      ],
      "name": "launch",
      "outputs": [
        {
          "internalType": "address",
          "name": "",
          "type": "address"
        },
        {
          "internalType": "address",
          "name": "",
          "type": "address"
        },
        {
          "internalType": "uint256",
          "name": "",
          "type": "uint256"
        }
      ],
      "stateMutability": "payable",
      "type": "function"
    },
    {
      "inputs": [],
      "name": "launchFee",
      "outputs": [
        {
          "internalType": "uint256",
          "name": "",
          "type": "uint256"
        }
      ],
      "stateMutability": "view",
      "type": "function"
    },
    {
      "inputs": [],
      "name": "liquidityFee",
      "outputs": [
        {
          "internalType": "uint256",
          "name": "",
          "type": "uint256"
        }
      ],
      "stateMutability": "view",
      "type": "function"
    },
    {
      "inputs": [],
      "name": "marketCap",
      "outputs": [
        {
          "internalType": "uint256",
          "name": "",
          "type": "uint256"
        }
      ],
      "stateMutability": "pure",
      "type": "function"
    },
    {
      "inputs": [
        {
          "internalType": "address",
          "name": "",
          "type": "address"
        }
      ],
      "name": "profile",
      "outputs": [
        {
          "internalType": "address",
          "name": "user",
          "type": "address"
        },
        {
          "internalType": "address",
          "name": "referree",
          "type": "address"
        }
      ],
      "stateMutability": "view",
      "type": "function"
    },
    {
      "inputs": [
        {
          "internalType": "uint256",
          "name": "",
          "type": "uint256"
        }
      ],
      "name": "profiles",
      "outputs": [
        {
          "internalType": "address",
          "name": "user",
          "type": "address"
        },
        {
          "internalType": "address",
          "name": "referree",
          "type": "address"
        }
      ],
      "stateMutability": "view",
      "type": "function"
    },
    {
      "inputs": [],
      "name": "referralFee",
      "outputs": [
        {
          "internalType": "uint256",
          "name": "",
          "type": "uint256"
        }
      ],
      "stateMutability": "view",
      "type": "function"
    },
    {
      "inputs": [
        {
          "internalType": "address",
          "name": "",
          "type": "address"
        }
      ],
      "name": "token",
      "outputs": [
        {
          "internalType": "address",
          "name": "token",
          "type": "address"
        },
        {
          "internalType": "address",
          "name": "pair",
          "type": "address"
        },
        {
          "internalType": "string",
          "name": "name",
          "type": "string"
        },
        {
          "internalType": "string",
          "name": "ticker",
          "type": "string"
        },
        {
          "internalType": "uint256",
          "name": "supply",
          "type": "uint256"
        },
        {
          "internalType": "string",
          "name": "description",
          "type": "string"
        },
        {
          "internalType": "string",
          "name": "image",
          "type": "string"
        },
        {
          "internalType": "string",
          "name": "twitter",
          "type": "string"
        },
        {
          "internalType": "string",
          "name": "telegram",
          "type": "string"
        },
        {
          "internalType": "string",
          "name": "youtube",
          "type": "string"
        },
        {
          "internalType": "string",
          "name": "website",
          "type": "string"
        }
      ],
      "stateMutability": "view",
      "type": "function"
    },
    {
      "inputs": [
        {
          "internalType": "uint256",
          "name": "",
          "type": "uint256"
        }
      ],
      "name": "tokens",
      "outputs": [
        {
          "internalType": "address",
          "name": "token",
          "type": "address"
        },
        {
          "internalType": "address",
          "name": "pair",
          "type": "address"
        },
        {
          "internalType": "string",
          "name": "name",
          "type": "string"
        },
        {
          "internalType": "string",
          "name": "ticker",
          "type": "string"
        },
        {
          "internalType": "uint256",
          "name": "supply",
          "type": "uint256"
        },
        {
          "internalType": "string",
          "name": "description",
          "type": "string"
        },
        {
          "internalType": "string",
          "name": "image",
          "type": "string"
        },
        {
          "internalType": "string",
          "name": "twitter",
          "type": "string"
        },
        {
          "internalType": "string",
          "name": "telegram",
          "type": "string"
        },
        {
          "internalType": "string",
          "name": "youtube",
          "type": "string"
        },
        {
          "internalType": "string",
          "name": "website",
          "type": "string"
        }
      ],
      "stateMutability": "view",
      "type": "function"
    },
    {
      "inputs": [
        {
          "internalType": "uint256",
          "name": "_fee",
          "type": "uint256"
        }
      ],
      "name": "updateLaunchFee",
      "outputs": [
        {
          "internalType": "uint256",
          "name": "",
          "type": "uint256"
        }
      ],
      "stateMutability": "nonpayable",
      "type": "function"
    },
    {
      "inputs": [
        {
          "internalType": "uint256",
          "name": "_fee",
          "type": "uint256"
        }
      ],
      "name": "updateLiquidityFee",
      "outputs": [
        {
          "internalType": "uint256",
          "name": "",
          "type": "uint256"
        }
      ],
      "stateMutability": "nonpayable",
      "type": "function"
    },
    {
      "inputs": [
        {
          "internalType": "uint256",
          "name": "_fee",
          "type": "uint256"
        }
      ],
      "name": "updateReferralFee",
      "outputs": [
        {
          "internalType": "uint256",
          "name": "",
          "type": "uint256"
        }
      ],
      "stateMutability": "nonpayable",
      "type": "function"
    }
  ],
  "bytecode": "0x608034620001a357601f6200314838819003918201601f19168301916001600160401b03831184841017620001a85780849260c094604052833981010312620001a3576200004d81620001be565b906200005c60208201620001be565b6200006a60408301620001be565b9260608301519160a060808501519401519460018060a01b0319923384600054161760005560018060a01b0392838092168560015416176001551683600354161760035516906004541617600455670de0b6b3a7640000908181029181830414901517156200018d576103e89004600555600581116200014857600582116200010357600655600755604051612f749081620001d48239f35b60405162461bcd60e51b815260206004820152601f60248201527f4c6971756964697479204665652063616e6e6f74206578636565642035252e006044820152606490fd5b60405162461bcd60e51b815260206004820152601e60248201527f526566657272616c204665652063616e6e6f74206578636565642035252e00006044820152606490fd5b634e487b7160e01b600052601160045260246000fd5b600080fd5b634e487b7160e01b600052604160045260246000fd5b51906001600160a01b0382168203620001a35756fe60808060405260043610156200001457600080fd5b60003560e01c908163017e7e581462000f0a57508063094b74151462000edf5780632c135b931462000eb85780634f64b2be1462000caf5780635c52a5f21462000c625780636d46a1db1462000b965780637660f44a1462000b72578063775c300c1462000b5457806384ae2bc61462000b345780638e6756631462000b1057806398118cb41462000af05780639dd9d0fd1462000a94578063a153e6ff146200017f578063c36fe3d61462000129578063cf3cf57314620001095763f3f524b814620000e057600080fd5b34620001045760203660031901126200010457602060043580600655604051908152f35b600080fd5b346200010457600036600319011262000104576020600554604051908152f35b346200010457602036600319011262000104576004356009548110156200010457620001559062001246565b508054600190910154604080516001600160a01b03938416815292909116602083015290f35b0390f35b61010036600319011262000104576004356001600160401b0381116200010457620001af903690600401620011f9565b6024356001600160401b0381116200010457620001d1903690600401620011f9565b6044356001600160401b0381116200010457620001f3903690600401620011f9565b6064356001600160401b038111620001045762000215903690600401620011f9565b92608435926001600160401b038411620001045736602385011215620001045760405193620002448562000fd0565b84906084810190368211620001045780600401925b82841062000a6157505060e435929150506001600160a01b03821682036200010457600554341062000a1c57604051610ff581818101106001600160401b038284011117620007db5780829162001f4a8339608081830152620002d9620002c660808385010188620010bf565b82840181036020848601015285620010bf565b9060a43560408285010152606060c435918401015203906000f0948515620008f5576003546040516315ab88c960e31b81529590602090879060049082906001600160a01b03165afa958615620008f5576200037996602091600091620009fa575b506001546040516364e329cb60e11b81526001600160a01b038b81166004830152928316602482015298899290911690829060009082906044820190565b03925af1958615620008f557600096620009c2575b50603260a43581020460a43503620009ac5760405163313ce56760e01b81526020816004816001600160a01b038c165afa908115620008f557620003f6620003e76200041d9360209360009162000991575b5062001357565b606460a4356032020462001328565b60405163a9059cbb60e01b8152336004820152602481019190915291829081906044820190565b038160006001600160a01b038d165af1908115620008f5576000916200095b575b5015620001045760035460405163313ce56760e01b8152906001600160a01b0390811690602090839060049082908d165afa8015620008f557620003e76200049491620004a69460009162000937575062001357565b906001600160a01b038a16906200129b565b1562000104576064620004bc3460075462001328565b04976004620004cc8a3462001369565b60035460405163313ce56760e01b8152919b91926001600160a01b039182169291602091859182908f165afa918215620008f5578b62000520620003e76040956200054f9760009162000901575062001357565b8451630e505aa960e31b81526001600160a01b0390921660048301526024820152938492839182906044820190565b03925af18015620008f557620008c4575b5033600090815260086020526040902060018101549099906001600160a01b031680156200080757506004546000918291829182916001600160a01b03165af1620005aa62001377565b501562000104575b825190602084015192606060408601519501519560405198896101608101106001600160401b036101608c011117620007db576101608a0160405260018060a01b038c168a5260018060a01b038b1660208b015260408a0152606089015260a435608089015260a088015260c087015260e086015261010085015261012084015261014083015260018060a01b038416600052600a6020526200065a826040600020620013c5565b600b54600160401b9081811015620007db576001810180600b55811015620007f15783600b620006b19281600052027f0175b7a638427703f0dbe7bb9bbf987a2551717b34e79f33b5b1008d1fa01db901620013c5565b620006bc3362001c6f565b1562000737575050620006d59060036060950162001c38565b600b546040518181529091906001600160a01b0380831691908516907f714aa39317ad9a7a7a99db52b44490da5d068a0b2710fffb1a1282ad3cadae1f90602090a3604080516001600160a01b03948516815291909316602082015291820152f35b6040519291620007478462000fd0565b33845260018060a01b03166020840152606060408401526060808401523360005260086020526200077d83604060002062001d06565b60095490811015620007db578060016200079b920160095562001246565b929092620007c557606095620007b8600392620007bf9562001d06565b0162001c38565b620006d5565b634e487b7160e01b600052600060045260246000fd5b634e487b7160e01b600052604160045260246000fd5b634e487b7160e01b600052603260045260246000fd5b6000526002604060002001805491600160401b831015620007db5760018301808355831015620007f1576000808093928e95829483526020832001336bffffffffffffffffffffffff60a01b8254161790556200087660646200086d8360065462001328565b04809262001369565b6001909601546001600160a01b03165af16200089162001377565b501562000104576004546000918291829182916001600160a01b03165af1620008b962001377565b50620005b257600080fd5b604090813d8311620008ed575b620008dd818362000fec565b8101031262000104578962000560565b503d620008d1565b6040513d6000823e3d90fd5b62000928915060203d6020116200092f575b6200091f818362000fec565b8101906200133c565b38620003e0565b503d62000913565b62000954915060203d6020116200092f576200091f818362000fec565b8d620003e0565b62000982915060203d60201162000989575b62000979818362000fec565b81019062001281565b896200043e565b503d6200096d565b620009549150843d86116200092f576200091f818362000fec565b634e487b7160e01b600052601160045260246000fd5b620009ea91965060203d602011620009f2575b620009e1818362000fec565b81019062001307565b94886200038e565b503d620009d5565b62000a159150823d8411620009f257620009e1818362000fec565b8a6200033b565b60405162461bcd60e51b815260206004820152601960248201527f496e73756666696369656e7420616d6f756e742073656e742e000000000000006044820152606490fd5b83356001600160401b038111620001045760209162000a88839260043691870101620011f9565b81520193019262000259565b346200010457602036600319011262000104576001600160a01b038062000aba620011c6565b16600090815260086020908152604091829020805460019091015483516001600160a01b03928616831681529416169083015290f35b346200010457600036600319011262000104576020600754604051908152f35b34620001045760203660031901126200010457602060043580600755604051908152f35b346200010457600036600319011262000104576020600654604051908152f35b34620001045760003660031901126200010457602060405160008152f35b34620001045760203660031901126200010457602060043580600555604051908152f35b346200010457602036600319011262000104576001600160a01b038062000bbc620011c6565b16600052600a6020526040600020906200017b81835416916001840154169262000be9600282016200100e565b9062000bf8600382016200100e565b600482015462000c0b600584016200100e565b62000c19600685016200100e565b9062000c28600786016200100e565b9262000c37600887016200100e565b9462000c54600a62000c4c60098a016200100e565b98016200100e565b976040519b8c9b8c62001101565b3462000104576060366003190112620001045762000c7f620011c6565b6024356001600160a01b0381168103620001045760209162000ca591604435916200129b565b6040519015158152f35b34620001045760203660031901126200010457600435600b548110156200010457600b90816000520260018060a01b036200017b81837f0175b7a638427703f0dbe7bb9bbf987a2551717b34e79f33b5b1008d1fa01db9015416917f0175b7a638427703f0dbe7bb9bbf987a2551717b34e79f33b5b1008d1fa01dba840154169262000d5d7f0175b7a638427703f0dbe7bb9bbf987a2551717b34e79f33b5b1008d1fa01dbb82016200100e565b9062000d8b7f0175b7a638427703f0dbe7bb9bbf987a2551717b34e79f33b5b1008d1fa01dbc82016200100e565b7f0175b7a638427703f0dbe7bb9bbf987a2551717b34e79f33b5b1008d1fa01dbd82015462000ddc7f0175b7a638427703f0dbe7bb9bbf987a2551717b34e79f33b5b1008d1fa01dbe84016200100e565b62000e097f0175b7a638427703f0dbe7bb9bbf987a2551717b34e79f33b5b1008d1fa01dbf85016200100e565b9062000e377f0175b7a638427703f0dbe7bb9bbf987a2551717b34e79f33b5b1008d1fa01dc086016200100e565b9262000e657f0175b7a638427703f0dbe7bb9bbf987a2551717b34e79f33b5b1008d1fa01dc187016200100e565b9462000c547f0175b7a638427703f0dbe7bb9bbf987a2551717b34e79f33b5b1008d1fa01dc362000c4c7f0175b7a638427703f0dbe7bb9bbf987a2551717b34e79f33b5b1008d1fa01dc28a016200100e565b34620001045760003660031901126200010457602060405169152d02c7e14af68000008152f35b346200010457600036600319011262000104576000546040516001600160a01b039091168152602090f35b346200010457600036600319011262000104576000546001600160a01b0391908216330362000f425760208260045416604051908152f35b62461bcd60e51b815260206004820152602660248201527f4f6e6c7920746865206f776e65722063616e2063616c6c20746869732066756e60448201526531ba34b7b71760d11b6064820152608490fd5b90600182811c9216801562000fc5575b602083101462000faf57565b634e487b7160e01b600052602260045260246000fd5b91607f169162000fa3565b608081019081106001600160401b03821117620007db57604052565b90601f801991011681019081106001600160401b03821117620007db57604052565b90604051918260008254620010238162000f93565b908184526020946001916001811690816000146200109b575060011462001058575b505050620010569250038362000fec565b565b600090815285812095935091905b8183106200108257505062001056935082010138808062001045565b8554888401850152948501948794509183019162001066565b925050506200105694925060ff191682840152151560051b82010138808062001045565b919082519283825260005b848110620010ec575050826000602080949584010152601f8019910116010190565b602081830181015184830182015201620010ca565b9996908a620011a397620011c39d9b97608062001164620011939962001155620011b39f9a620011849a62001175996101609160018060a01b038092168b521660208a01528060408a0152880190620010bf565b908682036060880152620010bf565b9301528c820360a08e0152620010bf565b908a820360c08c0152620010bf565b9088820360e08a0152620010bf565b90868203610100880152620010bf565b90848203610120860152620010bf565b91610140818403910152620010bf565b90565b600435906001600160a01b03821682036200010457565b6001600160401b038111620007db57601f01601f191660200190565b81601f8201121562000104578035906200121382620011dd565b9262001223604051948562000fec565b828452602083830101116200010457816000926020809301838601378301015290565b600954811015620007f157600960005260021b7f6e1540171b6c0c960b71a7020d9f60077f6af931a8bbf590da0223dacf75c7af0190600090565b908160209103126200010457518015158103620001045790565b60405163095ea7b360e01b81526001600160a01b039182166004820152602481019390935260209183916044918391600091165af18015620008f557620012e3575b50600190565b620012ff9060203d602011620009895762000979818362000fec565b5038620012dd565b908160209103126200010457516001600160a01b0381168103620001045790565b81810292918115918404141715620009ac57565b9081602091031262000104575160ff81168103620001045790565b60ff16604d8111620009ac57600a0a90565b91908203918211620009ac57565b3d15620013a7573d906200138b82620011dd565b916200139b604051938462000fec565b82523d6000602084013e565b606090565b818110620013b8575050565b60008155600101620013ac565b815181546001600160a01b03199081166001600160a01b039283161783556020808501516001858101805490941691909416179091556040840151805190936001600160401b0393909290916002840190858111620007db576200142a825462000f93565b96601f9788811162001c06575b50839088831160011462001b9f576200146a92916000918362001718575b50508160011b916000199060031b1c19161790565b90555b60038084016060880151805190878211620007db576200148e835462000f93565b89811162001b62575b50849089831160011462001afc57620014c9929160009183620017185750508160011b916000199060031b1c19161790565b90555b60049360808801518582015560059081810160a08a01518051908982116200188f57620014fa835462000f93565b8b811162001acc575b5086908b831160011462001a665762001535929160009183620017185750508160011b916000199060031b1c19161790565b90555b6006810160c08a01518051908982116200188f5762001558835462000f93565b8b811162001a36575b5086908b8311600114620019d05762001593929160009183620017185750508160011b916000199060031b1c19161790565b90555b6007810160e08a01518051908982116200188f57620015b6835462000f93565b8b8111620019a0575b5086908b83116001146200193a57620015f1929160009183620017185750508160011b916000199060031b1c19161790565b90555b600881016101008a01518051908982116200188f5762001615835462000f93565b8b81116200190a575b5086908b8311600114620018a45762001650929160009183620017185750508160011b916000199060031b1c19161790565b90555b600981016101208a01518051908982116200188f5762001674835462000f93565b8b811162001854575b5086908b8311600114620017e157826101409593600a9593620016b793600092620017185750508160011b916000199060031b1c19161790565b90555b01980151948551968711620017cc5750620016d6885462000f93565b8781116200178f575b505081958511600114620017245750505062001714928291600092620017185750508160011b916000199060031b1c19161790565b9055565b01519050388062001455565b9194909284601f1981168860005285600020956000905b8983831062001774575050501062001759575b50505050811b019055565b01519060f884600019921b161c19169055388080806200174e565b8587015189559097019694850194889350908101906200173b565b620017ba9189600052846000209089808a01821c830193878b10620017c2575b01901c0190620013ac565b3880620016df565b93508293620017af565b604190634e487b7160e01b6000525260246000fd5b889291601f1983169185600052896000209260005b8b8282106200183d575050916101409795939185600a9896941062001824575b505050811b019055620016ba565b0151600019838b1b60f8161c1916905538808062001816565b8385015186558d97909501949384019301620017f6565b6200187e9084600052886000208d808601891c8201928b871062001885575b01881c0190620013ac565b386200167d565b9250819262001873565b604189634e487b7160e01b6000525260246000fd5b889291601f1983169185600052896000209260005b8b828210620018f35750508411620018da575b505050811b01905562001653565b015160001983891b60f8161c19169055388080620018cc565b8385015186558d97909501949384019301620018b9565b620019339084600052886000208d808601891c8201928b8710620018855701881c0190620013ac565b386200161e565b889291601f1983169185600052896000209260005b8b82821062001989575050841162001970575b505050811b019055620015f4565b015160001983891b60f8161c1916905538808062001962565b8385015186558d979095019493840193016200194f565b620019c99084600052886000208d808601891c8201928b8710620018855701881c0190620013ac565b38620015bf565b889291601f1983169185600052896000209260005b8b82821062001a1f575050841162001a06575b505050811b01905562001596565b015160001983891b60f8161c19169055388080620019f8565b8385015186558d97909501949384019301620019e5565b62001a5f9084600052886000208d808601891c8201928b8710620018855701881c0190620013ac565b3862001561565b889291601f1983169185600052896000209260005b8b82821062001ab5575050841162001a9c575b505050811b01905562001538565b015160001983891b60f8161c1916905538808062001a8e565b8385015186558d9790950194938401930162001a7b565b62001af59084600052886000208d808601891c8201928b8710620018855701881c0190620013ac565b3862001503565b869291601f1983169185600052876000209260005b8982821062001b4b575050841162001b32575b505050811b019055620014cc565b015160001983871b60f8161c1916905538808062001b24565b8385015186558b9790950194938401930162001b11565b62001b8e9084600052866000208b80860160051c82019289871062001b95575b0160051c0190620013ac565b3862001497565b9250819262001b82565b859291601f1983169185600052866000209260005b8882821062001bef575050841162001bd5575b505050811b0190556200146d565b015160001960f88460031b161c1916905538808062001bc7565b8385015186558a9790950194938401930162001bb4565b62001c319084600052856000208a80860160051c82019288871062001b95570160051c0190620013ac565b3862001437565b908154600160401b811015620007db5760018101808455811015620007f1576200105692600052600b6020600020910201620013c5565b6009549060005b82811062001c8657505050600090565b62001c918162001246565b50546001600160a01b0383811691161462001caf5760010162001c76565b505050600190565b62001cc3815462000f93565b908162001cce575050565b81601f6000931160011462001ce1575055565b90808391825262001d02601f60208420940160051c840160018501620013ac565b5555565b60018060a01b0390818351166bffffffffffffffffffffffff60a01b9081835416178255600193600183016020928584840151169082541617905560029260028101936040830151958651906001600160401b038211620007db57600160401b97888311620007db5786908854848a5580851062001f29575b5001906000978852868820908a895b85811062001f14575050505050506060600380930193015191825196871162001f005783548785558593929181891062001dfe575b50505091845282842091015b84841062001ddf57505050505050565b600b838262001df189945186620013c5565b0192019301929062001dcf565b9091929350600b9282600b0292600b84040362001eec5788600b02600b81048a0362001ed857868952878920889695948101939291015b83811062001e4557505062001dc3565b849596508981959293949555898c82015562001e6383820162001cb7565b62001e7084820162001cb7565b89600482015562001e846005820162001cb7565b62001e926006820162001cb7565b62001ea06007820162001cb7565b62001eae6008820162001cb7565b62001ebc6009820162001cb7565b62001eca600a820162001cb7565b019087959493929162001e35565b634e487b7160e01b89526011600452602489fd5b634e487b7160e01b88526011600452602488fd5b634e487b7160e01b86526041600452602486fd5b898386511695019481850155018b9062001d8e565b62001f42908a60005285846000209182019101620013ac565b3862001d7f56fe60406080815234620004295762000ff5803803806200001e816200042e565b928339810190608081830312620004295780516001600160401b039190828111620004295783620000519183016200046a565b90602093848201519084821162000429576200006f9183016200046a565b606086830151920151906000943360018060a01b031987541617865533867f8be0079c531659141344cd1fd0a4f28419497f9722a3daafe3b4186f6b6457e08180a384518181116200034357600254906001968783811c931680156200041e575b8a84101462000324578190601f93848111620003ca575b508a9084831160011462000363578a9262000357575b5050600019600383901b1c191690871b176002555b8251918211620003435760039283548781811c9116801562000338575b8a821014620003245790818385949311620002cf575b50899183116001146200026c57889262000260575b505060001982841b1c191690851b1790555b670de0b6b3a7640000918281029281840414901517156200024c5781835560058111620001fe57907fddf252ad1be2c89b69c2b068fc378daa952ba7f163c4a11628f55a4df523b3ef929160045533845260058552858420556007845284832060ff199082828254161790553084528186852091825416179055549284519384523393a351610b189081620004dd8239f35b855162461bcd60e51b815260048101869052602160248201527f4d6178205472616e73616374696f6e2063616e6e6f74206578636565642035256044820152601760f91b6064820152608490fd5b634e487b7160e01b84526011600452602484fd5b0151905038806200015a565b8489528989208894509190601f1984168a5b8c828210620002b857505084116200029f575b505050811b0190556200016c565b015160001983861b60f8161c1916905538808062000291565b8385015186558b979095019493840193016200027e565b909192508489528989208380860160051c8201928c87106200031a575b9186958b929594930160051c01915b8281106200030b57505062000145565b8b81558695508a9101620002fb565b92508192620002ec565b634e487b7160e01b89526022600452602489fd5b90607f16906200012f565b634e487b7160e01b87526041600452602487fd5b015190503880620000fd565b60028b528b8b208a94509190601f1984168c8e5b828210620003b2575050841162000398575b505050811b0160025562000112565b015160001960f88460031b161c1916905538808062000389565b8385015186558d979095019493840193018e62000377565b90915060028a528a8a208480850160051c8201928d861062000414575b918b91869594930160051c01915b82811062000405575050620000e7565b8c81558594508b9101620003f5565b92508192620003e7565b92607f1692620000d0565b600080fd5b6040519190601f01601f191682016001600160401b038111838210176200045457604052565b634e487b7160e01b600052604160045260246000fd5b919080601f84011215620004295782516001600160401b0381116200045457602090620004a0601f8201601f191683016200042e565b92818452828287010111620004295760005b818110620004c857508260009394955001015290565b8581018301518482018401528201620004b256fe608060408181526004918236101561001657600080fd5b600092833560e01c91826306fdde03146104ff57508163095ea7b3146104d557816318160ddd146104b657816323b872dd146103e1578163313ce567146103c557816370a082311461038d578163715018a61461032e5781637437681e146103105781638da5cb5b146102e857816395d89b41146101e3578163a9059cbb146101b2578163c2d0ffca146100ff575063dd62ed3e146100b457600080fd5b346100fb57806003193601126100fb57806020926100d0610607565b6100d8610622565b6001600160a01b0391821683526006865283832091168252845220549051908152f35b5080fd5b919050346101ae5760203660031901126101ae5781359161012a60018060a01b038554163314610670565b600583116101625791602091817fff3dd5e80294197918c284bbfc3dadd97d0b40ce92106110946329088f80068a945551908152a180f35b6020608492519162461bcd60e51b8352820152602160248201527f4d6178205472616e73616374696f6e2063616e6e6f74206578636565642035256044820152601760f91b6064820152fd5b8280fd5b5050346100fb57806003193601126100fb576020906101dc6101d2610607565b60243590336107bd565b5160018152f35b919050346101ae57826003193601126101ae5780519183600354906001908260011c926001811680156102de575b60209586861082146102cb57508488529081156102a95750600114610250575b61024c8686610242828b0383610638565b51918291826105be565b0390f35b929550600383527fc2575a0e9e593c00f959f8c92f12db2869c3395a3b0502d05e2516446f71f85b5b828410610296575050508261024c94610242928201019438610231565b8054868501880152928601928101610279565b60ff191687860152505050151560051b83010192506102428261024c38610231565b634e487b7160e01b845260229052602483fd5b93607f1693610211565b5050346100fb57816003193601126100fb57905490516001600160a01b039091168152602090f35b9050346101ae57826003193601126101ae5760209250549051908152f35b833461038a578060031936011261038a578054816001600160a01b038216610357338214610670565b7f8be0079c531659141344cd1fd0a4f28419497f9722a3daafe3b4186f6b6457e08280a36001600160a01b031916815580f35b80fd5b5050346100fb5760203660031901126100fb5760209181906001600160a01b036103b5610607565b1681526005845220549051908152f35b5050346100fb57816003193601126100fb576020905160128152f35b82843461038a57606036600319011261038a576103fc610607565b90610405610622565b6104136044358092856107bd565b6001600160a01b038316825260066020908152848320338452905283822054845192606084019067ffffffffffffffff8211858310176104a3576020876101dc8861049b898989898752602883527f45524332303a207472616e7366657220616d6f756e742065786365656473206188840152676c6c6f77616e636560c01b87840152610a97565b9033906106bb565b634e487b7160e01b815260418852602490fd5b5050346100fb57816003193601126100fb576020906001549051908152f35b5050346100fb57806003193601126100fb576020906101dc6104f5610607565b60243590336106bb565b929150346105ba57836003193601126105ba57600254600181811c91869082811680156105b0575b60209586861082146102cb57508488529081156102a957506001146105575761024c8686610242828b0383610638565b929550600283527f405787fa12a823e0f2b7631cc41b3ba8828b3321ca811111fa75cd3aa3bb5ace5b82841061059d575050508261024c94610242928201019438610231565b8054868501880152928601928101610580565b93607f1693610527565b8380fd5b6020808252825181830181905290939260005b8281106105f357505060409293506000838284010152601f8019910116010190565b8181018601518482016040015285016105d1565b600435906001600160a01b038216820361061d57565b600080fd5b602435906001600160a01b038216820361061d57565b90601f8019910116810190811067ffffffffffffffff82111761065a57604052565b634e487b7160e01b600052604160045260246000fd5b1561067757565b606460405162461bcd60e51b815260206004820152602060248201527f4f776e61626c653a2063616c6c6572206973206e6f7420746865206f776e65726044820152fd5b6001600160a01b0390811691821561076c571691821561071c5760207f8c5be1e5ebec7d5bd14f71427d1e84f3dd0314c0f7b2291e5b200ac8c7c3b925918360005260068252604060002085600052825280604060002055604051908152a3565b60405162461bcd60e51b815260206004820152602260248201527f45524332303a20617070726f766520746f20746865207a65726f206164647265604482015261737360f01b6064820152608490fd5b60405162461bcd60e51b8152602060048201526024808201527f45524332303a20617070726f76652066726f6d20746865207a65726f206164646044820152637265737360e01b6064820152608490fd5b9192916001600160a01b03908116918215610a4457169081156109f357831561099c57600480549460015495868102968188041490151715610987576000958387526020926007845260409160ff838a20541615610936575b50848852600584528188205482519083820182811067ffffffffffffffff82111761092357610872929186918652601e83527f536166654d6174683a207375627472616374696f6e206f766572666c6f77000088840152610a97565b85895260058552828920558588528188205490838201918281116109105782106108cd57508188877fddf252ad1be2c89b69c2b068fc378daa952ba7f163c4a11628f55a4df523b3ef9798999a5260058652205551908152a3565b825162461bcd60e51b8152908101859052601b60248201527f536166654d6174683a206164646974696f6e206f766572666c6f7700000000006044820152606490fd5b634e487b7160e01b8a526011825260248afd5b634e487b7160e01b8b526041845260248bfd5b6064900483116109465738610816565b83606492519162461bcd60e51b8352820152601860248201527f4578636565647320746865204d61785478416d6f756e742e00000000000000006044820152fd5b601182634e487b7160e01b6000525260246000fd5b60405162461bcd60e51b815260206004820152602960248201527f5472616e7366657220616d6f756e74206d7573742062652067726561746572206044820152687468616e207a65726f60b81b6064820152608490fd5b60405162461bcd60e51b815260206004820152602360248201527f45524332303a207472616e7366657220746f20746865207a65726f206164647260448201526265737360e81b6064820152608490fd5b60405162461bcd60e51b815260206004820152602560248201527f45524332303a207472616e736665722066726f6d20746865207a65726f206164604482015264647265737360d81b6064820152608490fd5b91828211610ac257508103908111610aac5790565b634e487b7160e01b600052601160045260246000fd5b60405162461bcd60e51b8152908190610ade90600483016105be565b0390fdfea2646970667358221220125325736e75a597f98b9c4b5c0bb93954d3bb1aef8717cc3f9f5f7b8cd6bc4a64736f6c63430008180033a26469706673582212209a122f9ec3bcff99cff46cc990e242105dc2db5069d33348f4baed3571a8748264736f6c63430008180033",
  "linkReferences": {},
  "deployedLinkReferences": {}
}