{
  "_format": "hh-sol-artifact-1",
  "contractName": "Router",
  "sourceName": "contracts/Router.sol",
  "abi": [
    {
      "inputs": [
        {
          "internalType": "address",
          "name": "factory_",
          "type": "address"
        },
        {
          "internalType": "address",
          "name": "weth",
          "type": "address"
        }
      ],
      "stateMutability": "nonpayable",
      "type": "constructor"
    },
    {
      "inputs": [],
      "name": "ReentrancyGuardReentrantCall",
      "type": "error"
    },
    {
      "inputs": [],
      "name": "WETH",
      "outputs": [
        {
          "internalType": "address",
          "name": "",
          "type": "address"
        }
      ],
      "stateMutability": "view",
      "type": "function"
    },
    {
      "inputs": [
        {
          "internalType": "address",
          "name": "token",
          "type": "address"
        },
        {
          "internalType": "uint256",
          "name": "amountToken",
          "type": "uint256"
        }
      ],
      "name": "addLiquidityETH",
      "outputs": [
        {
          "internalType": "uint256",
          "name": "",
          "type": "uint256"
        },
        {
          "internalType": "uint256",
          "name": "",
          "type": "uint256"
        }
      ],
      "stateMutability": "payable",
      "type": "function"
    },
    {
      "inputs": [],
      "name": "factory",
      "outputs": [
        {
          "internalType": "address",
          "name": "",
          "type": "address"
        }
      ],
      "stateMutability": "view",
      "type": "function"
    },
    {
      "inputs": [
        {
          "internalType": "address",
          "name": "token",
          "type": "address"
        },
        {
          "internalType": "address",
          "name": "weth",
          "type": "address"
        },
        {
          "internalType": "uint256",
          "name": "amountIn",
          "type": "uint256"
        }
      ],
      "name": "getAmountsOut",
      "outputs": [
        {
          "internalType": "uint256",
          "name": "_amountOut",
          "type": "uint256"
        }
      ],
      "stateMutability": "nonpayable",
      "type": "function"
    },
    {
      "inputs": [
        {
          "internalType": "address",
          "name": "token",
          "type": "address"
        },
        {
          "internalType": "uint256",
          "name": "liquidity",
          "type": "uint256"
        },
        {
          "internalType": "address",
          "name": "to",
          "type": "address"
        }
      ],
      "name": "removeLiquidityETH",
      "outputs": [
        {
          "internalType": "uint256",
          "name": "",
          "type": "uint256"
        },
        {
          "internalType": "uint256",
          "name": "",
          "type": "uint256"
        }
      ],
      "stateMutability": "nonpayable",
      "type": "function"
    },
    {
      "inputs": [
        {
          "internalType": "address",
          "name": "token",
          "type": "address"
        },
        {
          "internalType": "address",
          "name": "to",
          "type": "address"
        }
      ],
      "name": "swapETHForTokens",
      "outputs": [
        {
          "internalType": "uint256",
          "name": "",
          "type": "uint256"
        },
        {
          "internalType": "uint256",
          "name": "",
          "type": "uint256"
        }
      ],
      "stateMutability": "payable",
      "type": "function"
    },
    {
      "inputs": [
        {
          "internalType": "uint256",
          "name": "amountIn",
          "type": "uint256"
        },
        {
          "internalType": "address",
          "name": "token",
          "type": "address"
        },
        {
          "internalType": "address",
          "name": "to",
          "type": "address"
        }
      ],
      "name": "swapTokensForETH",
      "outputs": [
        {
          "internalType": "uint256",
          "name": "",
          "type": "uint256"
        },
        {
          "internalType": "uint256",
          "name": "",
          "type": "uint256"
        }
      ],
      "stateMutability": "nonpayable",
      "type": "function"
    }
  ],
  "bytecode": "0x608034620000b257601f6200158538819003918201601f19168301916001600160401b03831184841017620000b7578084926040948552833981010312620000b2576200005a60206200005283620000cd565b9201620000cd565b60016000556001600160a01b03918216919062000079831515620000e2565b169062000088821515620000e2565b60018060a01b03199081600154161760015560025416176002556040516114559081620001308239f35b600080fd5b634e487b7160e01b600052604160045260246000fd5b51906001600160a01b0382168203620000b257565b15620000ea57565b60405162461bcd60e51b815260206004820152601f60248201527f5a65726f2061646472657373657320617265206e6f7420616c6c6f7765642e006044820152606490fdfe60406080815260048036101561001457600080fd5b6000803560e01c806345608d0014610e355780636bf09f10146108e45780637282d5481461074b5780637f54a36914610480578063ad5c464814610457578063c45a01551461042a5763e79a40891461006c57600080fd5b3461042757606036600319011261042757610085610e7a565b9160243591610092610eab565b61009a611086565b6001600160a01b03928584166100b1811515610ec1565b6100be8584161515610ec1565b600154600254895163e6a4390560e01b81526001600160a01b038a8116868301908152928916166020808401919091529790959290918891879182900360400190829085165afa94851561041d5786956103ee575b508416938951630240bc6b60e21b81526060818681895afa9081156103505787916103bd575b508a516316d3df1560e31b8152888187818a5afa9081156103b357908a8a928a9261037b575b506101b7936064610174819461017b94610f98565b049c610f98565b8d51632e2952f960e11b8152308982019081526001600160a01b03909e1660208f015291900460408d018190529b909283918291606090910190565b03818a8a5af190811561035057879161035e575b501561035a578951637b1a490960e01b81526001600160a01b038316858201908152602081018a905288908290819060400103818a8a5af19081156103505792878b9361022561026297948c978491610333575b50610fee565b8d516323b872dd60e01b81526001600160a01b03918216898201908152919093166020820152604081019490945290948593849291839160600190565b03925af1908115610329579285926102866102b5938796879161030c575b5061103a565b8951631d24e23160e21b8152908101898152602081018990523360408201529094859384928391606090910190565b03925af180156103025790600192916102d5575b50558351928352820152f35b6102f490843d86116102fb575b6102ec8183610f3f565b810190610f80565b50386102c9565b503d6102e2565b86513d84823e3d90fd5b6103239150863d88116102fb576102ec8183610f3f565b38610280565b88513d86823e3d90fd5b61034a9150883d8a116102fb576102ec8183610f3f565b3861021f565b8b513d89823e3d90fd5b8580fd5b6103759150883d8a116102fb576102ec8183610f3f565b386101cb565b928092508391503d83116103ac575b6103948183610f3f565b810103126103a8575188908a6101b761015f565b8780fd5b503d61038a565b8c513d8a823e3d90fd5b6103df915060603d6060116103e7575b6103d78183610f3f565b8101906110a9565b505038610139565b503d6103cd565b61040f919550873d8911610416575b6104078183610f3f565b810190610f61565b9338610113565b503d6103fd565b8a513d88823e3d90fd5b80fd5b50823461045357816003193601126104535760015490516001600160a01b039091168152602090f35b5080fd5b50823461045357816003193601126104535760025490516001600160a01b039091168152602090f35b508260031936011261042757610494610e7a565b9061049d610e95565b906104a6611086565b6001600160a01b03838116949092906104c0861515610ec1565b6104cd8483161515610ec1565b83600154169584600254169288519563e6a4390560e01b8752602096878180610512898d8a840190602090939293604083019460018060a01b03809216845216910152565b03818d5afa9081156103505788908892610726575b5061053b829361057593169734908c61111e565b8c51632e2952f960e11b8152308882019081526001600160a01b03909c1660208d015260408c01829052909a909283918291606090910190565b03818a8a5af1908115610350578791610709575b50156106d657895163cf82046160e01b8152878186818d5afa9081156103505787916106a3575b506105be6064913490610f98565b0484886105cb8334610fe1565b9b8d5192838092622fcfcb60e31b82525afa9081156103b3578a9361022561060d61061798958f958e99968e96879261067c575b5061060d61061291876112a9565b610fee565b6112a9565b03925af19081156103295785926106388693608493859161030c575061103a565b828a519586948593635673b02d60e01b85528401528960248401528a60448401528160648401525af180156103025790600192916102d55750558351928352820152f35b61061291925061069b61060d918d803d10610416576104078183610f3f565b9291506105ff565b90508781813d83116106cf575b6106ba8183610f3f565b810103126106cb57516105be6105b0565b8680fd5b503d6106b0565b895162461bcd60e51b8152808501889052600d60248201526c2737ba1020b8383937bb32b21760991b6044820152606490fd5b6107209150883d8a116102fb576102ec8183610f3f565b38610589565b610575925061074461053b91833d8511610416576104078183610f3f565b9250610527565b50826003193601126104275761075f610e7a565b906024359261076c611086565b6001600160a01b039083821690610784821515610ec1565b600154600254885163e6a4390560e01b81526001600160a01b03978816848201908152918616909716602080830191909152969391879185918716908290819060400103915afa9283156108bb5785936108c5575b506107e761060d34856112a9565b87516323b872dd60e01b8152338382019081526001600160a01b0385166020820152604081018990529091879183919082908990829060600103925af19081156108bb579161084287949261087194889161030c575061103a565b885163e7d3fe6b60e01b8152908101888152346020820152336040820152909485938492889291849160600190565b0393165af180156108b1579060019291610894575b505582519182523490820152f35b6108aa90843d86116102fb576102ec8183610f3f565b5038610886565b85513d84823e3d90fd5b88513d87823e3d90fd5b6108dd919350863d8811610416576104078183610f3f565b91386107d9565b5082903461042757606036600319011261042757823590610903610e95565b9361090c610eab565b91610915611086565b6001600160a01b039161092b8784161515610ec1565b6109388385161515610ec1565b826001541693836002541687519863e6a4390560e01b8a52602095868b8061097c86868a840190602090939293604083019460018060a01b03809216845216910152565b03818b5afa92831561041d578a9b8798999a9b9794610e16575b506109e289828c868a878a169c6109b08984161515610ec1565b5163e6a4390560e01b81526001600160a01b039283169181019182529190931660208401529384928391829160400190565b03915afa908115610e0c579083918a91610def575b508d51630240bc6b60e21b81529291166060838981845afa928315610de557918b8f928c95938b958795610dbd575b5051637464fc3d60e01b815294859182905afa928315610db2578f9897948f97948d948f98948d948793610d63575b50918a8796959492610ae9948e995015600014610d4c5791610a7e610a9792610ab1959461135f565b90610a92610a8a6110c4565b8315156113b8565b610fc1565b90610aac610aa36110ef565b828411156113b8565b610fe1565b9a5b51988997889687946323b872dd60e01b8652850160409194939294606082019560018060a01b0380921683521660208201520152565b0393165af190811561041d578691610d2f575b5015610cec57885163cf82046160e01b8152868185818b5afa90811561041d578385939289928991610cb4575b50610b39610b4192606492610f98565b048095610fe1565b988b5193848092622fcfcb60e31b82525afa91821561041d578692610c95575b508951637b1a490960e01b8082526001600160a01b03909216858201908152602081018a905288908290819060400103818a8a5af19081156103505788939291610bb1918991610c785750610fee565b8a519081526001600160a01b0390911684820190815260208101939093529182908190604001038187875af1908115610329578592610bfa89936084938891610c5b5750610fee565b858a519586948593635673b02d60e01b85528401528160248401528160448401528960648401525af18015610302579060019291610c3e5750558351928352820152f35b610c5490843d86116102fb576102ec8183610f3f565b50866102c9565b610c729150863d88116102fb576102ec8183610f3f565b8c61021f565b610c8f9150853d87116102fb576102ec8183610f3f565b8d61021f565b610cad919250873d8911610416576104078183610f3f565b908a610b61565b939450505081813d8311610ce5575b610ccd8183610f3f565b8101031261035a575183919087908490610b39610b29565b503d610cc3565b885162461bcd60e51b8152808401879052601860248201527f5472616e73666572206f6620746f6b656e206661696c656400000000000000006044820152606490fd5b610d469150873d89116102fb576102ec8183610f3f565b8a610afc565b91610a7e610a9792610d5d9561135f565b9a610ab3565b959994509699509450509497985081813d8311610dab575b610d858183610f3f565b81010312610da757518e97968e968d96919590948d9492938c9390918a610a55565b8a80fd5b503d610d7b565b508e513d8c823e3d90fd5b909450610dda91965060603d6060116103e7576103d78183610f3f565b509590959338610a26565b8e513d8c823e3d90fd5b610e0691508b3d8d11610416576104078183610f3f565b8e6109f7565b8d513d8b823e3d90fd5b610e2e919450893d8b11610416576104078183610f3f565b928c610996565b50823461045357606036600319011261045357906020916001610e72610e59610e7a565b610e61610e95565b610e69611086565b6044359161111e565b925551908152f35b600435906001600160a01b0382168203610e9057565b600080fd5b602435906001600160a01b0382168203610e9057565b604435906001600160a01b0382168203610e9057565b15610ec857565b60405162461bcd60e51b815260206004820152601f60248201527f5a65726f2061646472657373657320617265206e6f7420616c6c6f7765642e006044820152606490fd5b6040810190811067ffffffffffffffff821117610f2957604052565b634e487b7160e01b600052604160045260246000fd5b90601f8019910116810190811067ffffffffffffffff821117610f2957604052565b90816020910312610e9057516001600160a01b0381168103610e905790565b90816020910312610e9057518015158103610e905790565b81810292918115918404141715610fab57565b634e487b7160e01b600052601160045260246000fd5b8115610fcb570490565b634e487b7160e01b600052601260045260246000fd5b91908203918211610fab57565b15610ff557565b60405162461bcd60e51b815260206004820152601760248201527f5472616e73666572206f6620455448206661696c65642e0000000000000000006044820152606490fd5b1561104157565b60405162461bcd60e51b815260206004820152601960248201527f5472616e73666572206f6620746f6b656e206661696c65642e000000000000006044820152606490fd5b600260005414611097576002600055565b604051633ee5aeb560e01b8152600490fd5b90816060910312610e90578051916040602083015192015190565b604051906110d182610f0d565b600f82526e111a5d9a5cda5bdb8819985a5b1959608a1b6020830152565b604051906110fc82610f0d565b601382527229bab13a3930b1ba34b7b7103330b4b632b21760691b6020830152565b6001600160a01b039290916111368484161515610ec1565b6001546002546040805163e6a4390560e01b81526001600160a01b039687166004820152918716958616602483015260209690959290919087908290604490829086165afa90811561129e57908291600091611281575b501692855196630240bc6b60e21b8852606088600481885afa94851561127657600098600096611248575b509080600492895193848092637464fc3d60e01b82525afa97881561123e575060009761120e575b505016036111fd5791610a7e610a97926111fa959461135f565b90565b91610a7e610a97926111fa9561135f565b9080929750813d8311611237575b6112268183610f3f565b81010312610e9057519438806111e0565b503d61121c565b513d6000823e3d90fd5b8299506004929196506112699060603d6060116103e7576103d78183610f3f565b50999099969192506111b8565b87513d6000823e3d90fd5b6112989150883d8a11610416576104078183610f3f565b3861118d565b86513d6000823e3d90fd5b6001600160a01b03166112bd811515610ec1565b60008080809481945af1903d15611359573d9067ffffffffffffffff821161134557604051916112f7601f8201601f191660200184610f3f565b825260203d92013e5b80156113095790565b60405162461bcd60e51b81526020600482015260146024820152732a3930b739b332b91022aa24102330b4b632b21760611b6044820152606490fd5b634e487b7160e01b81526041600452602490fd5b50611300565b90810190818111610fab5781106113735790565b60405162461bcd60e51b815260206004820152601b60248201527f536166654d6174683a206164646974696f6e206f766572666c6f7700000000006044820152606490fd5b156113c05750565b6040519062461bcd60e51b82528160208060048301528251908160248401526000935b828510611406575050604492506000838284010152601f80199101168101030190fd5b84810182015186860160440152938101938593506113e356fea26469706673582212208ba7049bd92538a7e5d5173d0d036e5bc34b3f45e00ebcad0c4003417f08caf264736f6c63430008180033",
  "linkReferences": {},
  "deployedLinkReferences": {}
}