{
  "_format": "hh-sol-artifact-1",
  "contractName": "PumpFun",
  "sourceName": "contracts/PumpFun.sol",
  "abi": [
    {
      "inputs": [
        {
          "internalType": "address",
          "name": "factory_",
          "type": "address"
        },
        {
          "internalType": "address",
          "name": "router_",
          "type": "address"
        },
        {
          "internalType": "address",
          "name": "fees_wallet",
          "type": "address"
        },
        {
          "internalType": "uint256",
          "name": "_fee",
          "type": "uint256"
        },
        {
          "internalType": "uint256",
          "name": "_refFee",
          "type": "uint256"
        }
      ],
      "stateMutability": "nonpayable",
      "type": "constructor"
    },
    {
      "anonymous": false,
      "inputs": [
        {
          "indexed": true,
          "internalType": "address",
          "name": "token",
          "type": "address"
        },
        {
          "indexed": false,
          "internalType": "uint256",
          "name": "amount0",
          "type": "uint256"
        },
        {
          "indexed": false,
          "internalType": "uint256",
          "name": "amount1",
          "type": "uint256"
        }
      ],
      "name": "Deployed",
      "type": "event"
    },
    {
      "anonymous": false,
      "inputs": [
        {
          "indexed": true,
          "internalType": "address",
          "name": "token",
          "type": "address"
        },
        {
          "indexed": true,
          "internalType": "address",
          "name": "pair",
          "type": "address"
        },
        {
          "indexed": false,
          "internalType": "uint256",
          "name": "",
          "type": "uint256"
        }
      ],
      "name": "Launched",
      "type": "event"
    },
    {
      "inputs": [
        {
          "internalType": "address",
          "name": "_user",
          "type": "address"
        },
        {
          "internalType": "address",
          "name": "_token",
          "type": "address"
        },
        {
          "internalType": "uint256",
          "name": "amount",
          "type": "uint256"
        }
      ],
      "name": "approval",
      "outputs": [
        {
          "internalType": "bool",
          "name": "",
          "type": "bool"
        }
      ],
      "stateMutability": "nonpayable",
      "type": "function"
    },
    {
      "inputs": [
        {
          "internalType": "address",
          "name": "token_",
          "type": "address"
        }
      ],
      "name": "deploy",
      "outputs": [],
      "stateMutability": "nonpayable",
      "type": "function"
    },
    {
      "inputs": [],
      "name": "feeTo",
      "outputs": [
        {
          "internalType": "address",
          "name": "",
          "type": "address"
        }
      ],
      "stateMutability": "view",
      "type": "function"
    },
    {
      "inputs": [],
      "name": "feeToSetter",
      "outputs": [
        {
          "internalType": "address",
          "name": "",
          "type": "address"
        }
      ],
      "stateMutability": "view",
      "type": "function"
    },
    {
      "inputs": [
        {
          "internalType": "string",
          "name": "_name",
          "type": "string"
        },
        {
          "internalType": "string",
          "name": "_ticker",
          "type": "string"
        },
        {
          "internalType": "string",
          "name": "desc",
          "type": "string"
        },
        {
          "internalType": "string",
          "name": "img",
          "type": "string"
        },
        {
          "internalType": "string[4]",
          "name": "urls",
          "type": "string[4]"
        },
        {
          "internalType": "uint256",
          "name": "_supply",
          "type": "uint256"
        },
        {
          "internalType": "uint256",
          "name": "maxTx",
          "type": "uint256"
        },
        {
          "internalType": "address",
          "name": "ref",
          "type": "address"
        }
      ],
      "name": "launch",
      "outputs": [
        {
          "internalType": "address",
          "name": "",
          "type": "address"
        },
        {
          "internalType": "address",
          "name": "",
          "type": "address"
        },
        {
          "internalType": "uint256",
          "name": "",
          "type": "uint256"
        }
      ],
      "stateMutability": "payable",
      "type": "function"
    },
    {
      "inputs": [],
      "name": "launchFee",
      "outputs": [
        {
          "internalType": "uint256",
          "name": "",
          "type": "uint256"
        }
      ],
      "stateMutability": "view",
      "type": "function"
    },
    {
      "inputs": [],
      "name": "liquidityFee",
      "outputs": [
        {
          "internalType": "uint256",
          "name": "",
          "type": "uint256"
        }
      ],
      "stateMutability": "pure",
      "type": "function"
    },
    {
      "inputs": [],
      "name": "marketCapLimit",
      "outputs": [
        {
          "internalType": "uint256",
          "name": "",
          "type": "uint256"
        }
      ],
      "stateMutability": "pure",
      "type": "function"
    },
    {
      "inputs": [
        {
          "internalType": "address",
          "name": "",
          "type": "address"
        }
      ],
      "name": "profile",
      "outputs": [
        {
          "internalType": "address",
          "name": "user",
          "type": "address"
        },
        {
          "internalType": "address",
          "name": "referree",
          "type": "address"
        }
      ],
      "stateMutability": "view",
      "type": "function"
    },
    {
      "inputs": [
        {
          "internalType": "uint256",
          "name": "",
          "type": "uint256"
        }
      ],
      "name": "profiles",
      "outputs": [
        {
          "internalType": "address",
          "name": "user",
          "type": "address"
        },
        {
          "internalType": "address",
          "name": "referree",
          "type": "address"
        }
      ],
      "stateMutability": "view",
      "type": "function"
    },
    {
      "inputs": [],
      "name": "referralFee",
      "outputs": [
        {
          "internalType": "uint256",
          "name": "",
          "type": "uint256"
        }
      ],
      "stateMutability": "view",
      "type": "function"
    },
    {
      "inputs": [
        {
          "internalType": "address",
          "name": "",
          "type": "address"
        }
      ],
      "name": "token",
      "outputs": [
        {
          "internalType": "address",
          "name": "token",
          "type": "address"
        },
        {
          "internalType": "address",
          "name": "pair",
          "type": "address"
        },
        {
          "internalType": "string",
          "name": "name",
          "type": "string"
        },
        {
          "internalType": "string",
          "name": "ticker",
          "type": "string"
        },
        {
          "internalType": "uint256",
          "name": "supply",
          "type": "uint256"
        },
        {
          "internalType": "string",
          "name": "description",
          "type": "string"
        },
        {
          "internalType": "string",
          "name": "image",
          "type": "string"
        },
        {
          "internalType": "string",
          "name": "twitter",
          "type": "string"
        },
        {
          "internalType": "string",
          "name": "telegram",
          "type": "string"
        },
        {
          "internalType": "string",
          "name": "youtube",
          "type": "string"
        },
        {
          "internalType": "string",
          "name": "website",
          "type": "string"
        },
        {
          "internalType": "bool",
          "name": "trading",
          "type": "bool"
        }
      ],
      "stateMutability": "view",
      "type": "function"
    },
    {
      "inputs": [
        {
          "internalType": "uint256",
          "name": "",
          "type": "uint256"
        }
      ],
      "name": "tokens",
      "outputs": [
        {
          "internalType": "address",
          "name": "token",
          "type": "address"
        },
        {
          "internalType": "address",
          "name": "pair",
          "type": "address"
        },
        {
          "internalType": "string",
          "name": "name",
          "type": "string"
        },
        {
          "internalType": "string",
          "name": "ticker",
          "type": "string"
        },
        {
          "internalType": "uint256",
          "name": "supply",
          "type": "uint256"
        },
        {
          "internalType": "string",
          "name": "description",
          "type": "string"
        },
        {
          "internalType": "string",
          "name": "image",
          "type": "string"
        },
        {
          "internalType": "string",
          "name": "twitter",
          "type": "string"
        },
        {
          "internalType": "string",
          "name": "telegram",
          "type": "string"
        },
        {
          "internalType": "string",
          "name": "youtube",
          "type": "string"
        },
        {
          "internalType": "string",
          "name": "website",
          "type": "string"
        },
        {
          "internalType": "bool",
          "name": "trading",
          "type": "bool"
        }
      ],
      "stateMutability": "view",
      "type": "function"
    },
    {
      "inputs": [
        {
          "internalType": "uint256",
          "name": "_fee",
          "type": "uint256"
        }
      ],
      "name": "updateLaunchFee",
      "outputs": [
        {
          "internalType": "uint256",
          "name": "",
          "type": "uint256"
        }
      ],
      "stateMutability": "nonpayable",
      "type": "function"
    },
    {
      "inputs": [
        {
          "internalType": "uint256",
          "name": "_fee",
          "type": "uint256"
        }
      ],
      "name": "updateReferralFee",
      "outputs": [
        {
          "internalType": "uint256",
          "name": "",
          "type": "uint256"
        }
      ],
      "stateMutability": "nonpayable",
      "type": "function"
    }
  ],
  "bytecode": "0x6080346200014d57601f6200335a38819003918201601f19168301916001600160401b03831184841017620001525780849260a0946040528339810103126200014d576200004d8162000168565b906200005c6020820162000168565b916200006b6040830162000168565b92608060608401519301519360018060a01b0319923384600054161760005560018060a01b0392838092168560015416176001551683600254161760025516906003541617600355670de0b6b3a76400009081810291818304149015171562000137576103e8900460045560058111620000f2576005556040516131dc90816200017e8239f35b60405162461bcd60e51b815260206004820152601e60248201527f526566657272616c204665652063616e6e6f74206578636565642035252e00006044820152606490fd5b634e487b7160e01b600052601160045260246000fd5b600080fd5b634e487b7160e01b600052604160045260246000fd5b51906001600160a01b03821682036200014d5756fe608060405260043610156200001357600080fd5b6000803560e01c8063017e7e581462001055578063094b7415146200102c5780634c96a3891462000f425780634f64b2be1462000d0e5780635c52a5f21462000cbf5780636d46a1db1462000beb5780637660f44a1462000bc657806380997e471462000b9f57806384ae2bc61462000b7f57806398118cb41462000b615780639dd9d0fd1462000af8578063a153e6ff1462000174578063c36fe3d61462000119578063cf3cf57314620000f95763f3f524b814620000d257600080fd5b34620000f6576020366003190112620000f657602060043580600555604051908152f35b80fd5b5034620000f65780600319360112620000f6576020600454604051908152f35b5034620000f6576020366003190112620000f6576004356007548110156200017057620001469062001354565b508054600190910154604080516001600160a01b03938416815292909116602083015290f35b0390f35b5080fd5b50610100366003190112620000f6576004356001600160401b0381116200017057620001a590369060040162001307565b6024356001600160401b03811162000ab957620001c790369060040162001307565b6044356001600160401b03811162000af457620001e990369060040162001307565b926064356001600160401b03811162000170576200020c90369060040162001307565b90608435926001600160401b0384116200017057366023850112156200017057604051936200023b85620010e9565b6084810185368211620009b05782600401905b82821062000abd57505060e435929150506001600160a01b038216820362000ab957600454341062000a74576040518061104b8101106001600160401b0361104b8301111762000a605761104b6200215c8239608061104b82015280620002d8620002c1608061104b8401018a620011d8565b61104b83018103602061104b8501015284620011d8565b60a435604061104b8401015260c435606061104b84010152039084f094851562000a55576002546040516315ab88c960e31b815298906020908a9060049082906001600160a01b03165afa98891562000a28576200037a979899602091879162000a33575b506001546040516364e329cb60e11b81526001600160a01b038c811660048301529283166024820152998a92909116908290899082906044820190565b03925af196871562000a28578597620009f0575b506001600160a01b0388163b15620009b0576040516306da678f60e51b81526001600160a01b03888116600483015286908290602490829084908e165af18015620009e557620009b4575b5060025460405163313ce56760e01b81526001600160a01b0391821691602090829060049082908e165afa90811562000950576200042a62000445939262000433928a916200095b575b50620014d4565b60a435620014fc565b906001600160a01b038b169062001402565b15620009b05760053481020434036200099c576200046a606434600502043462001510565b60025460405163313ce56760e01b81529197916001600160a01b0391821691602090829060049082908f165afa908115620009915791620004be6200042a604093620004f0958c916200095b5750620014d4565b8251630e505aa960e31b81526001600160a01b038e166004820152602481019190915292839190829081906044820190565b039160643460050204905af1801562000950576200091b575b5082519060208401519260606040860151950151956040519c8d6001600160401b03610180828181011092011117620009055760408e8e6101808201835260018060a01b031681528d60018060a01b03166020820152015260608d015260a43560808d015260a08c015260c08b015260e08a0152610100890152610120880152610140870152600161016087015260018060a01b03851682526008602052620005b6866040842062001537565b600954600160401b908181101562000905576001810180600955811015620008ef5787600c6200060e926009600052027f6e1540171b6c0c960b71a7020d9f60077f6af931a8bbf590da0223dacf75c7af0162001537565b620006193362001e7b565b156200076e5750503381526006602052604081206001810180549193918391906001600160a01b031680620006e15750508080809360018060a01b03600354165af16200066562001e46565b5015620000f6575060609360036200067f925b0162001dc6565b6009546040518181529091906001600160a01b0380831691908516907f714aa39317ad9a7a7a99db52b44490da5d068a0b2710fffb1a1282ad3cadae1f90602090a3604080516001600160a01b03948516815291909316602082015291820152f35b8280929481928252620006fb336002604085200162001dfd565b6200071860646200070f83600554620014fc565b04809262001510565b95546001600160a01b03165af16200072f62001e46565b5015620001705760035482918291829182916001600160a01b03165af16200075662001e46565b5015620000f6575060609360036200067f9262000678565b604051916200077d83620010e9565b33835260018060a01b03166020830152606060408301526060808301523383526006602052620007b1826040852062001f12565b60075490811015620008db57806001620007cf920160075562001354565b620008c75790620007e09162001f12565b3381526006602052604081206001810180549193918391906001600160a01b031680620008435750508080809360018060a01b03600354165af16200082462001e46565b5015620000f6575060609360036200083d920162001dc6565b6200067f565b82809294819282526200085d336002604085200162001dfd565b6200087160646200070f83600554620014fc565b95546001600160a01b03165af16200088862001e46565b5015620001705760035482918291829182916001600160a01b03165af1620008af62001e46565b5015620000f6575060609360036200083d9262000678565b634e487b7160e01b83526004839052602483fd5b634e487b7160e01b83526041600452602483fd5b634e487b7160e01b600052603260045260246000fd5b634e487b7160e01b600052604160045260246000fd5b620009419060403d60401162000948575b62000938818362001105565b810190620013eb565b5062000509565b503d6200092c565b6040513d89823e3d90fd5b62000982915060203d60201162000989575b62000979818362001105565b810190620014b9565b3862000423565b503d6200096d565b6040513d8a823e3d90fd5b634e487b7160e01b85526011600452602485fd5b8480fd5b6001600160401b038196929611620009d1576040529338620003d9565b634e487b7160e01b82526041600452602482fd5b6040513d88823e3d90fd5b62000a1891975060203d60201162000a20575b62000a0f818362001105565b81019062001498565b95386200038e565b503d62000a03565b6040513d87823e3d90fd5b62000a4e9150823d841162000a205762000a0f818362001105565b386200033d565b6040513d85823e3d90fd5b634e487b7160e01b84526041600452602484fd5b60405162461bcd60e51b815260206004820152601960248201527f496e73756666696369656e7420616d6f756e742073656e742e000000000000006044820152606490fd5b8280fd5b81356001600160401b03811162000af05760209162000ae483926004369189010162001307565b8152019101906200024e565b8680fd5b8380fd5b5034620000f6576020366003190112620000f6576001600160a01b03906040908262000b2362001090565b1681526006602052209060018183541692015416906200016c6040519283928390602090939293604083019460018060a01b03809216845216910152565b5034620000f65780600319360112620000f657602060405160058152f35b5034620000f65780600319360112620000f6576020600554604051908152f35b5034620000f65780600319360112620000f657602060405169152d02c7e14af68000008152f35b5034620000f6576020366003190112620000f657602060043580600455604051908152f35b5034620000f6576020366003190112620000f6576001600160a01b03906040908262000c1662001090565b168152600860205220906200016c81835416916001840154169262000c3e6002820162001127565b9062000c4d6003820162001127565b600482015462000c606005840162001127565b62000c6e6006850162001127565b62000c7c6007860162001127565b9162000c8b6008870162001127565b9362000c9a6009880162001127565b9560ff600b62000cad600a8b0162001127565b99015416986040519c8d9c8d6200121a565b5034620000f6576060366003190112620000f65762000cdd62001090565b90602435906001600160a01b0382168203620000f657602062000d04604435848662001402565b6040519015158152f35b5034620000f6576020366003190112620000f65760043560095481101562000170576009600c92520260018060a01b036200016c81837f6e1540171b6c0c960b71a7020d9f60077f6af931a8bbf590da0223dacf75c7af015416917f6e1540171b6c0c960b71a7020d9f60077f6af931a8bbf590da0223dacf75c7b0840154169262000dbc7f6e1540171b6c0c960b71a7020d9f60077f6af931a8bbf590da0223dacf75c7b1820162001127565b9062000dea7f6e1540171b6c0c960b71a7020d9f60077f6af931a8bbf590da0223dacf75c7b2820162001127565b7f6e1540171b6c0c960b71a7020d9f60077f6af931a8bbf590da0223dacf75c7b382015462000e3b7f6e1540171b6c0c960b71a7020d9f60077f6af931a8bbf590da0223dacf75c7b4840162001127565b62000e687f6e1540171b6c0c960b71a7020d9f60077f6af931a8bbf590da0223dacf75c7b5850162001127565b62000e957f6e1540171b6c0c960b71a7020d9f60077f6af931a8bbf590da0223dacf75c7b6860162001127565b9162000ec37f6e1540171b6c0c960b71a7020d9f60077f6af931a8bbf590da0223dacf75c7b7870162001127565b9362000ef17f6e1540171b6c0c960b71a7020d9f60077f6af931a8bbf590da0223dacf75c7b8880162001127565b9560ff7f6e1540171b6c0c960b71a7020d9f60077f6af931a8bbf590da0223dacf75c7ba62000cad7f6e1540171b6c0c960b71a7020d9f60077f6af931a8bbf590da0223dacf75c7b98b0162001127565b5034620000f6576020366003190112620000f65762000f6062001090565b81604060018060a01b03809362000f7c8285541633146200138f565b16928383526008602052600b8284200160ff19815416905560648160025416918454168351948593849263e79a408960e01b845288600485015284602485015260448401525af1801562000a55577f540bcec33387745b2ced30977dcfe4a623a245511eb0a133989c27c8bb95b4a9916040918591869162001008575b5082519182526020820152a280f35b9050620010259150823d8411620009485762000938818362001105565b3862000ff9565b5034620000f65780600319360112620000f657546040516001600160a01b039091168152602090f35b5034620000f65780600319360112620000f657546020906001600160a01b03906200108490821633146200138f565b60035416604051908152f35b600435906001600160a01b0382168203620010a757565b600080fd5b90600182811c92168015620010de575b6020831014620010c857565b634e487b7160e01b600052602260045260246000fd5b91607f1691620010bc565b608081019081106001600160401b038211176200090557604052565b90601f801991011681019081106001600160401b038211176200090557604052565b906040519182600082546200113c81620010ac565b90818452602094600191600181169081600014620011b4575060011462001171575b5050506200116f9250038362001105565b565b600090815285812095935091905b8183106200119b5750506200116f93508201013880806200115e565b855488840185015294850194879450918301916200117f565b925050506200116f94925060ff191682840152151560051b8201013880806200115e565b919082519283825260005b84811062001205575050826000602080949584010152601f8019910116010190565b602081830181015184830182015201620011e3565b9a97919662001295620012c3969d9e9d6101609c988e62001281620012e39e9962001272620012b39a620012d39f620012a49a6101809160018060a01b038092168852166020870152806040870152850190620011d8565b908382036060850152620011d8565b92608082015260a0818403910152620011d8565b8c810360c08e015290620011d8565b908a820360e08c0152620011d8565b908882036101008a0152620011d8565b90868203610120880152620011d8565b90848203610140860152620011d8565b931515910152565b6001600160401b0381116200090557601f01601f191660200190565b81601f82011215620010a7578035906200132182620012eb565b9262001331604051948562001105565b82845260208383010111620010a757816000926020809301838601378301015290565b600754811015620008ef57600760005260021b7fa66cc928b5edb82af9bd49922954155ab7b0942694bea4ce44661d9a8736c6880190600090565b156200139757565b60405162461bcd60e51b815260206004820152602660248201527f4f6e6c7920746865206f776e65722063616e2063616c6c20746869732066756e60448201526531ba34b7b71760d11b6064820152608490fd5b9190826040910312620010a7576020825192015190565b60405163095ea7b360e01b81526001600160a01b039182166004820152602481019390935260009291602091839160449183918791165af180156200148d576200144e575b5050600190565b6020813d60201162001484575b816200146a6020938362001105565b8101031262000170575180151503620000f6578062001447565b3d91506200145b565b6040513d84823e3d90fd5b90816020910312620010a757516001600160a01b0381168103620010a75790565b90816020910312620010a7575160ff81168103620010a75790565b60ff16604d8111620014e657600a0a90565b634e487b7160e01b600052601160045260246000fd5b81810292918115918404141715620014e657565b91908203918211620014e657565b8181106200152a575050565b600081556001016200151e565b815181546001600160a01b03199081166001600160a01b03928316178355602080850151600185810180549094169190941617909155604084015180516001600160401b03929060028601908481116200090557620015978254620010ac565b93601f9485811162001d94575b50839085831160011462001d2d57620015d7929160009183620018a0575b50508160011b916000199060031b1c19161790565b90555b60039384860160608801518051908682116200090557620015fc8354620010ac565b86811162001cf0575b50849086831160011462001c8a5762001637929160009183620018a05750508160011b916000199060031b1c19161790565b90555b60049160808801518388015560059586880160a08a015180519088821162001a1957620016688354620010ac565b88811162001c59575b50849088831160011462001bf357620016a3929160009183620018a05750508160011b916000199060031b1c19161790565b90555b6006880160c08a015180519088821162001a1957620016c68354620010ac565b88811162001bc2575b50849088831160011462001b5c5762001701929160009183620018a05750508160011b916000199060031b1c19161790565b90555b6007880160e08a015180519088821162001a1957620017248354620010ac565b88811162001b2b575b50849088831160011462001ac5576200175f929160009183620018a05750508160011b916000199060031b1c19161790565b90555b600888016101008a015180519088821162001a1957620017838354620010ac565b88811162001a94575b50849088831160011462001a2e57620017be929160009183620018a05750508160011b916000199060031b1c19161790565b90555b600988016101208a015180519088821162001a1957620017e28354620010ac565b888111620019dd575b50849088831160011462001977576200181d929160009183620018a05750508160011b916000199060031b1c19161790565b90555b600a8801966101408a0151948551978811620019625750620018438854620010ac565b86811162001925575b505081948611600114620018ac57505050826101609593600b95936200188993600092620018a05750508160011b916000199060031b1c19161790565b90555b01910151151560ff80198354169116179055565b015190503880620015c2565b9194939092601f1985168760005284600020946000905b8282106200190d57505091859391600b98966101609a98969410620018f2575b50505050811b0190556200188c565b01519060f884600019921b161c1916905538808080620018e3565b808986988294978701518155019701940190620018c3565b620019509189600052846000209088808b01821c830193878c1062001958575b01901c01906200151e565b38806200184c565b9350829362001945565b604190634e487b7160e01b6000525260246000fd5b869291601f1983169185600052876000209260005b89828210620019c65750508411620019ad575b505050811b01905562001820565b015160001983871b60f8161c191690553880806200199f565b8385015186558b979095019493840193016200198c565b62001a089084600052866000208a8d818701901c82019289871062001a0f575b018d1c01906200151e565b38620017eb565b92508192620019fd565b604187634e487b7160e01b6000525260246000fd5b869291601f1983169185600052876000209260005b8982821062001a7d575050841162001a64575b505050811b019055620017c1565b015160001983871b60f8161c1916905538808062001a56565b8385015186558b9790950194938401930162001a43565b62001abe9084600052866000208a8d818701901c82019289871062001a0f57018d1c01906200151e565b386200178c565b869291601f1983169185600052876000209260005b8982821062001b14575050841162001afb575b505050811b01905562001762565b015160001983871b60f8161c1916905538808062001aed565b8385015186558b9790950194938401930162001ada565b62001b559084600052866000208a8d818701901c82019289871062001a0f57018d1c01906200151e565b386200172d565b869291601f1983169185600052876000209260005b8982821062001bab575050841162001b92575b505050811b01905562001704565b015160001983871b60f8161c1916905538808062001b84565b8385015186558b9790950194938401930162001b71565b62001bec9084600052866000208a8d818701901c82019289871062001a0f57018d1c01906200151e565b38620016cf565b869291601f1983169185600052876000209260005b8982821062001c42575050841162001c29575b505050811b019055620016a6565b015160001983871b60f8161c1916905538808062001c1b565b8385015186558b9790950194938401930162001c08565b62001c839084600052866000208a8d818701901c82019289871062001a0f57018d1c01906200151e565b3862001671565b849291601f1983169185600052876000209260005b8982821062001cd9575050841162001cc0575b505050811b0190556200163a565b0151600019838b1b60f8161c1916905538808062001cb2565b838501518655899790950194938401930162001c9f565b62001d1c9084600052866000208880860160051c82019289871062001d23575b0160051c01906200151e565b3862001605565b9250819262001d10565b879291601f1983169185600052866000209260005b8882821062001d7d575050841162001d63575b505050811b019055620015da565b015160001960f88460031b161c1916905538808062001d55565b8385015186558c9790950194938401930162001d42565b62001dbf9084600052856000208780860160051c82019288871062001d23570160051c01906200151e565b38620015a4565b908154600160401b811015620009055760018101808455811015620008ef576200116f92600052600c602060002091020162001537565b805490600160401b821015620009055760018201808255821015620008ef576000526020600020019060018060a01b03166bffffffffffffffffffffffff60a01b825416179055565b3d1562001e76573d9062001e5a82620012eb565b9162001e6a604051938462001105565b82523d6000602084013e565b606090565b6007549060005b82811062001e9257505050600090565b62001e9d8162001354565b50546001600160a01b0383811691161462001ebb5760010162001e82565b505050600190565b62001ecf8154620010ac565b908162001eda575050565b81601f6000931160011462001eed575055565b90808391825262001f0e601f60208420940160051c8401600185016200151e565b5555565b60018060a01b0390818351166bffffffffffffffffffffffff60a01b9081835416178255600193600183016020928584840151169082541617905560029260028101936040830151958651906001600160401b0382116200090557600160401b97888311620009055786908854848a558085106200213b575b5001906000978852868820908a895b85811062002126575050505050506060600380930193015191825196871162002112578354878555859392918189106200200a575b50505091845282842091015b84841062001feb57505050505050565b600c838262001ffd8994518662001537565b0192019301929062001fdb565b9091929350600c9282600c0292600c840403620020fe5788600c02600c81048a03620020ea57868952878920889695948101939291015b8381106200205157505062001fcf565b849596508981959293949555898c8201556200206f83820162001ec3565b6200207c84820162001ec3565b896004820155620020906005820162001ec3565b6200209e6006820162001ec3565b620020ac6007820162001ec3565b620020ba6008820162001ec3565b620020c86009820162001ec3565b620020d6600a820162001ec3565b89600b820155019087959493929162002041565b634e487b7160e01b89526011600452602489fd5b634e487b7160e01b88526011600452602488fd5b634e487b7160e01b86526041600452602486fd5b898386511695019481850155018b9062001f9a565b62002154908a600052858460002091820191016200151e565b3862001f8b56fe6040608081523462000429576200104b803803806200001e816200042e565b928339810190608081830312620004295780516001600160401b039190828111620004295783620000519183016200046a565b90602093848201519084821162000429576200006f9183016200046a565b606086830151920151906000943360018060a01b031987541617865533867f8be0079c531659141344cd1fd0a4f28419497f9722a3daafe3b4186f6b6457e08180a384518181116200034357600254906001968783811c931680156200041e575b8a84101462000324578190601f93848111620003ca575b508a9084831160011462000363578a9262000357575b5050600019600383901b1c191690871b176002555b8251918211620003435760039283548781811c9116801562000338575b8a821014620003245790818385949311620002cf575b50899183116001146200026c57889262000260575b505060001982841b1c191690851b1790555b670de0b6b3a7640000918281029281840414901517156200024c5781835560058111620001fe57907fddf252ad1be2c89b69c2b068fc378daa952ba7f163c4a11628f55a4df523b3ef929160045533845260058552858420556007845284832060ff199082828254161790553084528186852091825416179055549284519384523393a351610b6e9081620004dd8239f35b855162461bcd60e51b815260048101869052602160248201527f4d6178205472616e73616374696f6e2063616e6e6f74206578636565642035256044820152601760f91b6064820152608490fd5b634e487b7160e01b84526011600452602484fd5b0151905038806200015a565b8489528989208894509190601f1984168a5b8c828210620002b857505084116200029f575b505050811b0190556200016c565b015160001983861b60f8161c1916905538808062000291565b8385015186558b979095019493840193016200027e565b909192508489528989208380860160051c8201928c87106200031a575b9186958b929594930160051c01915b8281106200030b57505062000145565b8b81558695508a9101620002fb565b92508192620002ec565b634e487b7160e01b89526022600452602489fd5b90607f16906200012f565b634e487b7160e01b87526041600452602487fd5b015190503880620000fd565b60028b528b8b208a94509190601f1984168c8e5b828210620003b2575050841162000398575b505050811b0160025562000112565b015160001960f88460031b161c1916905538808062000389565b8385015186558d979095019493840193018e62000377565b90915060028a528a8a208480850160051c8201928d861062000414575b918b91869594930160051c01915b82811062000405575050620000e7565b8c81558594508b9101620003f5565b92508192620003e7565b92607f1692620000d0565b600080fd5b6040519190601f01601f191682016001600160401b038111838210176200045457604052565b634e487b7160e01b600052604160045260246000fd5b919080601f84011215620004295782516001600160401b0381116200045457602090620004a0601f8201601f191683016200042e565b92818452828287010111620004295760005b818110620004c857508260009394955001015290565b8581018301518482018401528201620004b256fe608060408181526004918236101561001657600080fd5b600092833560e01c91826306fdde031461055557508163095ea7b31461052b57816318160ddd1461050c57816323b872dd14610437578163313ce5671461041b57816370a08231146103e3578163715018a6146103845781637437681e146103665781638da5cb5b1461033e57816395d89b4114610239578163a9059cbb14610208578163c2d0ffca1461015557508063db4cf1e01461010a5763dd62ed3e146100bf57600080fd5b34610106578060031936011261010657806020926100db61065d565b6100e3610678565b6001600160a01b0391821683526006865283832091168252845220549051908152f35b5080fd5b50346101065760203660031901126101065761012461065d565b82546001600160a01b03919061013d90831633146106c6565b16825260076020528120805460ff1916600117905580f35b919050346102045760203660031901126102045781359161018060018060a01b0385541633146106c6565b600583116101b85791602091817fff3dd5e80294197918c284bbfc3dadd97d0b40ce92106110946329088f80068a945551908152a180f35b6020608492519162461bcd60e51b8352820152602160248201527f4d6178205472616e73616374696f6e2063616e6e6f74206578636565642035256044820152601760f91b6064820152fd5b8280fd5b50503461010657806003193601126101065760209061023261022861065d565b6024359033610813565b5160018152f35b9190503461020457826003193601126102045780519183600354906001908260011c92600181168015610334575b602095868610821461032157508488529081156102ff57506001146102a6575b6102a28686610298828b038361068e565b5191829182610614565b0390f35b929550600383527fc2575a0e9e593c00f959f8c92f12db2869c3395a3b0502d05e2516446f71f85b5b8284106102ec57505050826102a294610298928201019438610287565b80548685018801529286019281016102cf565b60ff191687860152505050151560051b8301019250610298826102a238610287565b634e487b7160e01b845260229052602483fd5b93607f1693610267565b505034610106578160031936011261010657905490516001600160a01b039091168152602090f35b90503461020457826003193601126102045760209250549051908152f35b83346103e057806003193601126103e0578054816001600160a01b0382166103ad3382146106c6565b7f8be0079c531659141344cd1fd0a4f28419497f9722a3daafe3b4186f6b6457e08280a36001600160a01b031916815580f35b80fd5b5050346101065760203660031901126101065760209181906001600160a01b0361040b61065d565b1681526005845220549051908152f35b5050346101065781600319360112610106576020905160128152f35b8284346103e05760603660031901126103e05761045261065d565b9061045b610678565b610469604435809285610813565b6001600160a01b038316825260066020908152848320338452905283822054845192606084019067ffffffffffffffff8211858310176104f957602087610232886104f1898989898752602883527f45524332303a207472616e7366657220616d6f756e742065786365656473206188840152676c6c6f77616e636560c01b87840152610aed565b903390610711565b634e487b7160e01b815260418852602490fd5b5050346101065781600319360112610106576020906001549051908152f35b50503461010657806003193601126101065760209061023261054b61065d565b6024359033610711565b92915034610610578360031936011261061057600254600181811c9186908281168015610606575b602095868610821461032157508488529081156102ff57506001146105ad576102a28686610298828b038361068e565b929550600283527f405787fa12a823e0f2b7631cc41b3ba8828b3321ca811111fa75cd3aa3bb5ace5b8284106105f357505050826102a294610298928201019438610287565b80548685018801529286019281016105d6565b93607f169361057d565b8380fd5b6020808252825181830181905290939260005b82811061064957505060409293506000838284010152601f8019910116010190565b818101860151848201604001528501610627565b600435906001600160a01b038216820361067357565b600080fd5b602435906001600160a01b038216820361067357565b90601f8019910116810190811067ffffffffffffffff8211176106b057604052565b634e487b7160e01b600052604160045260246000fd5b156106cd57565b606460405162461bcd60e51b815260206004820152602060248201527f4f776e61626c653a2063616c6c6572206973206e6f7420746865206f776e65726044820152fd5b6001600160a01b039081169182156107c257169182156107725760207f8c5be1e5ebec7d5bd14f71427d1e84f3dd0314c0f7b2291e5b200ac8c7c3b925918360005260068252604060002085600052825280604060002055604051908152a3565b60405162461bcd60e51b815260206004820152602260248201527f45524332303a20617070726f766520746f20746865207a65726f206164647265604482015261737360f01b6064820152608490fd5b60405162461bcd60e51b8152602060048201526024808201527f45524332303a20617070726f76652066726f6d20746865207a65726f206164646044820152637265737360e01b6064820152608490fd5b9192916001600160a01b03908116918215610a9a5716908115610a495783156109f2576004805494600154958681029681880414901517156109dd576000958387526020926007845260409160ff838a2054161561098c575b50848852600584528188205482519083820182811067ffffffffffffffff821117610979576108c8929186918652601e83527f536166654d6174683a207375627472616374696f6e206f766572666c6f77000088840152610aed565b858952600585528289205585885281882054908382019182811161096657821061092357508188877fddf252ad1be2c89b69c2b068fc378daa952ba7f163c4a11628f55a4df523b3ef9798999a5260058652205551908152a3565b825162461bcd60e51b8152908101859052601b60248201527f536166654d6174683a206164646974696f6e206f766572666c6f7700000000006044820152606490fd5b634e487b7160e01b8a526011825260248afd5b634e487b7160e01b8b526041845260248bfd5b60649004831161099c573861086c565b83606492519162461bcd60e51b8352820152601860248201527f4578636565647320746865204d61785478416d6f756e742e00000000000000006044820152fd5b601182634e487b7160e01b6000525260246000fd5b60405162461bcd60e51b815260206004820152602960248201527f5472616e7366657220616d6f756e74206d7573742062652067726561746572206044820152687468616e207a65726f60b81b6064820152608490fd5b60405162461bcd60e51b815260206004820152602360248201527f45524332303a207472616e7366657220746f20746865207a65726f206164647260448201526265737360e81b6064820152608490fd5b60405162461bcd60e51b815260206004820152602560248201527f45524332303a207472616e736665722066726f6d20746865207a65726f206164604482015264647265737360d81b6064820152608490fd5b91828211610b1857508103908111610b025790565b634e487b7160e01b600052601160045260246000fd5b60405162461bcd60e51b8152908190610b349060048301610614565b0390fdfea2646970667358221220047c9ea28db18d399065ad86429b5dec4f653ad6a65c727bb656ab23fc5eac9964736f6c63430008180033a26469706673582212200e450a4914c97abfc8b491644337310f618ca84e45108a63ae2de3cfff403be864736f6c63430008180033",
  "linkReferences": {},
  "deployedLinkReferences": {}
}