{
  "_format": "hh-sol-artifact-1",
  "contractName": "Factory",
  "sourceName": "contracts/Factory.sol",
  "abi": [
    {
      "inputs": [
        {
          "internalType": "address",
          "name": "fee_to",
          "type": "address"
        }
      ],
      "stateMutability": "nonpayable",
      "type": "constructor"
    },
    {
      "inputs": [],
      "name": "ReentrancyGuardReentrantCall",
      "type": "error"
    },
    {
      "anonymous": false,
      "inputs": [
        {
          "indexed": true,
          "internalType": "address",
          "name": "tokenA",
          "type": "address"
        },
        {
          "indexed": true,
          "internalType": "address",
          "name": "tokenB",
          "type": "address"
        },
        {
          "indexed": false,
          "internalType": "address",
          "name": "pair",
          "type": "address"
        },
        {
          "indexed": false,
          "internalType": "uint256",
          "name": "",
          "type": "uint256"
        }
      ],
      "name": "PairCreated",
      "type": "event"
    },
    {
      "inputs": [
        {
          "internalType": "uint256",
          "name": "n",
          "type": "uint256"
        }
      ],
      "name": "allPairs",
      "outputs": [
        {
          "internalType": "address",
          "name": "",
          "type": "address"
        }
      ],
      "stateMutability": "view",
      "type": "function"
    },
    {
      "inputs": [],
      "name": "allPairsLength",
      "outputs": [
        {
          "internalType": "uint256",
          "name": "",
          "type": "uint256"
        }
      ],
      "stateMutability": "view",
      "type": "function"
    },
    {
      "inputs": [
        {
          "internalType": "address",
          "name": "tokenA",
          "type": "address"
        },
        {
          "internalType": "address",
          "name": "tokenB",
          "type": "address"
        }
      ],
      "name": "createPair",
      "outputs": [
        {
          "internalType": "address",
          "name": "",
          "type": "address"
        }
      ],
      "stateMutability": "nonpayable",
      "type": "function"
    },
    {
      "inputs": [],
      "name": "feeTo",
      "outputs": [
        {
          "internalType": "address",
          "name": "",
          "type": "address"
        }
      ],
      "stateMutability": "view",
      "type": "function"
    },
    {
      "inputs": [],
      "name": "feeToSetter",
      "outputs": [
        {
          "internalType": "address",
          "name": "",
          "type": "address"
        }
      ],
      "stateMutability": "view",
      "type": "function"
    },
    {
      "inputs": [
        {
          "internalType": "address",
          "name": "tokenA",
          "type": "address"
        },
        {
          "internalType": "address",
          "name": "tokenB",
          "type": "address"
        }
      ],
      "name": "getPair",
      "outputs": [
        {
          "internalType": "address",
          "name": "",
          "type": "address"
        }
      ],
      "stateMutability": "view",
      "type": "function"
    },
    {
      "inputs": [
        {
          "internalType": "address",
          "name": "fee_to",
          "type": "address"
        }
      ],
      "name": "setFeeTo",
      "outputs": [],
      "stateMutability": "nonpayable",
      "type": "function"
    },
    {
      "inputs": [],
      "name": "txFee",
      "outputs": [
        {
          "internalType": "uint256",
          "name": "",
          "type": "uint256"
        }
      ],
      "stateMutability": "pure",
      "type": "function"
    }
  ],
  "bytecode": "0x6080346100cd57601f610f4638819003918201601f19168301916001600160401b038311848410176100d2578084926020946040528339810103126100cd57516001600160a01b038116908190036100cd576001600081905580546001600160a01b031990811633179091558115610088576002541617600255604051610e5d90816100e98239f35b60405162461bcd60e51b815260206004820152601f60248201527f5a65726f2061646472657373657320617265206e6f7420616c6c6f7765642e006044820152606490fd5b600080fd5b634e487b7160e01b600052604160045260246000fdfe6080604081815260048036101561001557600080fd5b600092833560e01c908163017e7e581461039057508063094b7415146103675780631e3dd18b1461032e578063574f2ba314610311578063c9c6539614610197578063cf8204611461017b578063e6a439051461012b5763f46901ed1461007b57600080fd5b34610127576020366003190112610127576100946103b5565b6001546001600160a01b039391929190841633036100d5575050166100ba811515610433565b6bffffffffffffffffffffffff60a01b600254161760025580f35b906020608492519162461bcd60e51b8352820152602660248201527f4f6e6c7920746865206f776e65722063616e2063616c6c20746869732066756e60448201526531ba34b7b71760d11b6064820152fd5b8280fd5b505034610177578060031936011261017757602091816101496103b5565b916101526103d0565b6001600160a01b03938416825260038652828220908416825285522054915191168152f35b5080fd5b5050346101775781600319360112610177576020905160058152f35b509190346101775780600319360112610177576101b26103b5565b906101bb6103d0565b92600281541461030157600281556001600160a01b039283169383906101e2861515610433565b166101ee811515610433565b8251946109a8958681019681881067ffffffffffffffff8911176102e4576104808239308752606081602098848a820152858882015203019084f080156102f7578516948184526003875284842083855287528484206bffffffffffffffffffffffff60a01b90878282541617905560038852858520838652885286868620918254161790558754680100000000000000008110156102e45794809697987f0d3648bd0f6ba80134a33ba9275ac585d9d315f0ad8355cddefde31afa28d0e9926102be886001809a0184556103e6565b819291549060031b918c831b921b1916179055548151908982528a820152a35551908152f35b634e487b7160e01b855260418952602485fd5b84513d85823e3d90fd5b8151633ee5aeb560e01b81528590fd5b503461012757826003193601126101275760209250549051908152f35b509134610364576020366003190112610364575061034e602092356103e6565b905491519160018060a01b039160031b1c168152f35b80fd5b50503461017757816003193601126101775760015490516001600160a01b039091168152602090f35b8490346101775781600319360112610177576002546001600160a01b03168152602090f35b600435906001600160a01b03821682036103cb57565b600080fd5b602435906001600160a01b03821682036103cb57565b60045481101561041d5760046000527f8a35acfbc15ff81a39ae7d344fd709f28e8600b4aa8c65c6b64bfe7fe36bd19b0190600090565b634e487b7160e01b600052603260045260246000fd5b1561043a57565b60405162461bcd60e51b815260206004820152601f60248201527f5a65726f2061646472657373657320617265206e6f7420616c6c6f7765642e006044820152606490fdfe6080346100cb57601f6109a838819003918201601f19168301916001600160401b038311848410176100d0578084926060946040528339810103126100cb57610047816100e6565b906100606040610059602084016100e6565b92016100e6565b6001600055916001600160a01b0390811691819061007f8415156100fa565b169261008c8415156100fa565b16916100998315156100fa565b60018060a01b031991826001541617600155816002541617600255600354161760035560405161086190816101478239f35b600080fd5b634e487b7160e01b600052604160045260246000fd5b51906001600160a01b03821682036100cb57565b1561010157565b60405162461bcd60e51b815260206004820152601f60248201527f5a65726f2061646472657373657320617265206e6f7420616c6c6f7765642e006044820152606490fdfe6080604081815260049182361015610022575b505050361561002057600080fd5b005b600090813560e01c9081630902f1ac146106c8575080630e06dfc9146106a45780630fc63d101461067b5780635673b02d146105b45780635b8bec551461058c5780635c52a5f21461049a5780635c9d69381461046f5780635f64b55b146104465780637464fc3d14610427578063749388c4146102f85780637b1a490914610226578063b69ef8a81461020b578063ba9a7a56146101e8578063c45a0155146101bb5763e7d3fe6b0361001257346101b8576100de36610711565b85546001600160a01b0319166001600160a01b0382161786559092670de0b6b3a7640000838102918415858404831417156101a5576020877f8334f87aeaf76e52b061d93ee968e51fdd3ad53ca04e80271249227997aab3a0888861019b898989875161014a8161078b565b858152868a82015281898201528260608201526080429101528460055585600655600755600855426009558551938493849192604091949360608401958452602084015260018060a01b0316910152565b0390a15160018152f35b634e487b7160e01b815260118852602490fd5b80fd5b5090346101e457816003193601126101e45760015490516001600160a01b039091168152602090f35b5080fd5b5090346101e457816003193601126101e45760209051670de0b6b3a76400008152f35b5090346101e457816003193601126101e45751478152602090f35b508290346101b857826003193601126101b857808080806001600160a01b0361024d6106f6565b166102598115156107df565b602435905af1903d156102f2573d9067ffffffffffffffff82116102df5784519161028e601f8201601f1916602001846107bd565b825260203d92013e5b156102a6576020825160018152f35b6020606492519162461bcd60e51b835282015260146024820152732a3930b739b332b91022aa24102330b4b632b21760611b6044820152fd5b634e487b7160e01b815260418452602490fd5b50610297565b508290346101b8575061030a36610711565b90926001600160a01b03808316906103238215156107df565b825416036103d4576020857f254cba6bcaacd15ef1bba85e06c1d71c8cf7a3e036ad089903ba04bad25aaccc868661019b876103618360055461077e565b61036d8560065461077e565b6103798660075461077e565b916008548951906103898261078b565b828252838c830152848b8301526060820152608042910152600555600655600755426009558551938493849192604091949360608401958452602084015260018060a01b0316910152565b608490602086519162461bcd60e51b8352820152602760248201527f4f6e6c79204c7020686f6c646572732063616e2063616c6c20746869732066756044820152663731ba34b7b71760c91b6064820152fd5b5090346101e457816003193601126101e4576020906008549051908152f35b5090346101e457816003193601126101e45760035490516001600160a01b039091168152602090f35b5090346101e457816003193601126101e4576020906104936006546005549061073b565b9051908152f35b509134610560576060366003190112610560576104b56106f6565b6001600160a01b0360243581811693929084900361058857600286541461057857602092916044916002885516916104ee8315156107df565b6104f98515156107df565b868651958694859363095ea7b360e01b8552840152833560248401525af1801561056c57610530575b506001602092555160018152f35b6020813d602011610564575b81610549602093836107bd565b810103126105605751801515036101e45738610522565b8280fd5b3d915061053c565b505051903d90823e3d90fd5b8451633ee5aeb560e01b81528390fd5b8580fd5b5091346105605782600319360112610560575490516001600160a01b03909116815260209150f35b50346101b85760803660031901126101b857507f298c349c742327269dc8de6ad66687767310c948ea309df826f5bd103e19d2076080602093356024356044356064359161060d816106088660055461075b565b61077e565b61061d846106088560065461075b565b61062d856106088660075461075b565b916008548a519061063d8261078b565b828252838d830152848c8301526060820152884291015260055560065560075542600955865193845287840152858301526060820152a15160018152f35b5090346101e457816003193601126101e45760025490516001600160a01b039091168152602090f35b5090346101e457816003193601126101e4576020906104936005546006549061073b565b9050823461056057826003193601126105605760609250600554906006546007549284526020840152820152f35b600435906001600160a01b038216820361070c57565b600080fd5b606090600319011261070c5760043590602435906044356001600160a01b038116810361070c5790565b8115610745570490565b634e487b7160e01b600052601260045260246000fd5b9190820180921161076857565b634e487b7160e01b600052601160045260246000fd5b9190820391821161076857565b60a0810190811067ffffffffffffffff8211176107a757604052565b634e487b7160e01b600052604160045260246000fd5b90601f8019910116810190811067ffffffffffffffff8211176107a757604052565b156107e657565b60405162461bcd60e51b815260206004820152601f60248201527f5a65726f2061646472657373657320617265206e6f7420616c6c6f7765642e006044820152606490fdfea26469706673582212201b4fc9dd19e72c3d48f24cfbd511aa4d0c3e4d28a93eb49eddbc72b1da58cfd764736f6c63430008180033a26469706673582212206659fc3c5ce59ed536176460a9913bd37fcf16f92851a003ba9d62d1d29c2f2464736f6c63430008180033",
  "linkReferences": {},
  "deployedLinkReferences": {}
}