{
  "_format": "hh-sol-artifact-1",
  "contractName": "Router",
  "sourceName": "contracts/Router.sol",
  "abi": [
    {
      "inputs": [
        {
          "internalType": "address",
          "name": "factory_",
          "type": "address"
        },
        {
          "internalType": "address",
          "name": "weth",
          "type": "address"
        }
      ],
      "stateMutability": "nonpayable",
      "type": "constructor"
    },
    {
      "inputs": [],
      "name": "WETH",
      "outputs": [
        {
          "internalType": "address",
          "name": "",
          "type": "address"
        }
      ],
      "stateMutability": "view",
      "type": "function"
    },
    {
      "inputs": [
        {
          "internalType": "address",
          "name": "token",
          "type": "address"
        },
        {
          "internalType": "uint256",
          "name": "amountToken",
          "type": "uint256"
        }
      ],
      "name": "addLiquidityETH",
      "outputs": [
        {
          "internalType": "uint256",
          "name": "",
          "type": "uint256"
        },
        {
          "internalType": "uint256",
          "name": "",
          "type": "uint256"
        }
      ],
      "stateMutability": "payable",
      "type": "function"
    },
    {
      "inputs": [],
      "name": "factory",
      "outputs": [
        {
          "internalType": "address",
          "name": "",
          "type": "address"
        }
      ],
      "stateMutability": "view",
      "type": "function"
    },
    {
      "inputs": [
        {
          "internalType": "address",
          "name": "token",
          "type": "address"
        },
        {
          "internalType": "uint256",
          "name": "amountIn",
          "type": "uint256"
        }
      ],
      "name": "getAmountsOut",
      "outputs": [
        {
          "internalType": "uint256",
          "name": "_amountOut",
          "type": "uint256"
        }
      ],
      "stateMutability": "view",
      "type": "function"
    },
    {
      "inputs": [
        {
          "internalType": "address",
          "name": "token",
          "type": "address"
        },
        {
          "internalType": "uint256",
          "name": "liquidity",
          "type": "uint256"
        },
        {
          "internalType": "address",
          "name": "to",
          "type": "address"
        }
      ],
      "name": "removeLiquidityETH",
      "outputs": [
        {
          "internalType": "uint256",
          "name": "",
          "type": "uint256"
        },
        {
          "internalType": "uint256",
          "name": "",
          "type": "uint256"
        }
      ],
      "stateMutability": "payable",
      "type": "function"
    },
    {
      "inputs": [
        {
          "internalType": "address",
          "name": "token",
          "type": "address"
        },
        {
          "internalType": "address",
          "name": "to",
          "type": "address"
        }
      ],
      "name": "swapETHForTokens",
      "outputs": [
        {
          "internalType": "uint256",
          "name": "",
          "type": "uint256"
        },
        {
          "internalType": "uint256",
          "name": "",
          "type": "uint256"
        }
      ],
      "stateMutability": "payable",
      "type": "function"
    },
    {
      "inputs": [
        {
          "internalType": "uint256",
          "name": "amountIn",
          "type": "uint256"
        },
        {
          "internalType": "address",
          "name": "token",
          "type": "address"
        },
        {
          "internalType": "address",
          "name": "to",
          "type": "address"
        }
      ],
      "name": "swapTokensForETH",
      "outputs": [
        {
          "internalType": "uint256",
          "name": "",
          "type": "uint256"
        },
        {
          "internalType": "uint256",
          "name": "",
          "type": "uint256"
        }
      ],
      "stateMutability": "nonpayable",
      "type": "function"
    }
  ],
  "bytecode": "0x60803461008d57601f610f7338819003918201601f19168301916001600160401b0383118484101761009257808492604094855283398101031261008d57610052602061004b836100a8565b92016100a8565b600080546001600160a01b039384166001600160a01b03199182161790915560018054929093169116179055604051610eb690816100bd8239f35b600080fd5b634e487b7160e01b600052604160045260246000fd5b51906001600160a01b038216820361008d5756fe60806040908082526004908136101561001757600080fd5b600090813560e01c9081636bf09f101461086d575080637282d548146106f45780637f54a369146103e2578063ad5c4648146103b9578063b682894b14610389578063c45a01551461035d5763e79a40891461007257600080fd5b606036600319011261035a576100e2610089610b65565b9160243592610096610b4f565b8254600154885163e6a4390560e01b81526001600160a01b03858116828b0190815292811660208481019190915291999197909591949193919288928b92908816918391829160400190565b03915afa978815610350578598610321575b508851630240bc6b60e21b815288851694906060818681895afa8015610317576064916101379189918a916102dc575b5061013084918d610bea565b049a610bea565b8b51632e2952f960e11b8152308782019081526001600160a01b038716602082015292909104604083018190529a9189908290819060600103818b8b5af19081156102d25788916102b5575b50156102b1579282878b936101e2968e6101a66101a18f8f9a610e12565b610c40565b516323b872dd60e01b81526001600160a01b039182168a8201908152919094166020820152604081019590955291958694859391849160600190565b0393165af19081156102a757928592610207610236938796879161028a575b50610c8c565b8951631d24e23160e21b8152908101898152602081018990523360408201529095869384928391606090910190565b03925af190811561027f5750610252575b508351928352820152f35b61027190823d8411610278575b6102698183610b7b565b810190610bd2565b5038610247565b503d61025f565b8651903d90823e3d90fd5b6102a19150863d8811610278576102698183610b7b565b38610201565b88513d86823e3d90fd5b8680fd5b6102cc9150893d8b11610278576102698183610b7b565b38610183565b8c513d8a823e3d90fd5b61013092508491506103059060603d606011610310575b6102fd8183610b7b565b810190610cd8565b509290929150610124565b503d6102f3565b8b513d89823e3d90fd5b610342919850863d8811610349575b61033a8183610b7b565b810190610bb3565b96386100f4565b503d610330565b89513d87823e3d90fd5b80fd5b508234610385578160031936011261038557905490516001600160a01b039091168152602090f35b5080fd5b5082346103855780600319360112610385576020906103b26103a9610b65565b60243590610d00565b9051908152f35b50823461038557816003193601126103855760015490516001600160a01b039091168152602090f35b508260031936011261035a576103f6610b65565b906103ff610b34565b8154600154865163e6a4390560e01b81526001600160a01b0386811682890190815292811660208481018290529894821697909695909390929089908290819060400103818b5afa9081156106ea5786916106cd575b50610464828216973490610d00565b8a51632e2952f960e11b8152308782019081526001600160a01b0387166020820152604081018390529199918b908290819060600103818b8d5af19081156102d25788916106b0575b501561067d578a5163cf82046160e01b81528a818881855afa9081156102d2578b88928e928b91610642575b506104e76064913490610bea565b04936104f38534610c33565b9251622fcfcb60e31b815293849182905afa918215610638579361053c6101a18e98958c958f99956105799c998c899361060f575b50506101a16105379187610e12565b610e12565b8d516323b872dd60e01b81526001600160a01b039182168a8201908152919094166020820152604081019590955291958694859391849160600190565b0393165af190811561060557869261059b8593608493859161028a5750610c8c565b8289519687948593635673b02d60e01b85528401528860248401523460448401528160648401525af19081156105fa57506105dd575b50825191348352820152f35b6105f390833d8511610278576102698183610b7b565b50386105d1565b8551903d90823e3d90fd5b87513d85823e3d90fd5b6105379293506101a1918161062f92903d106103495761033a8183610b7b565b9291508c610528565b8d513d8b823e3d90fd5b935050905081813d8311610676575b61065b8183610b7b565b81010312610672575186908c908c906104e76104d9565b8780fd5b503d610651565b8a5162461bcd60e51b81528087018b9052600d60248201526c2737ba1020b8383937bb32b21760991b6044820152606490fd5b6106c791508b3d8d11610278576102698183610b7b565b386104ad565b6106e49150893d8b116103495761033a8183610b7b565b38610455565b8a513d88823e3d90fd5b5090826003193601126103855761075a9061070d610b65565b8354600154865163e6a4390560e01b81526001600160a01b038085168287019081529281166020848101919091526024359890979196909592949093889286928916918391829160400190565b03915afa9283156102a75785918791869561084a575b506107bc906107826101a13488610e12565b8a516323b872dd60e01b8152338682019081526001600160a01b0388166020820152604081018c90529094859384928a9291849160600190565b0393165af19081156102a757916107df87949261080e94879161028a5750610c8c565b885163e7d3fe6b60e01b8152908101888152346020820152336040820152909586938492879291849160600190565b0393165af19081156105fa575061082d575b5082519182523490820152f35b61084390823d8411610278576102698183610b7b565b5038610820565b6107bc91955061086690833d85116103495761033a8183610b7b565b9490610770565b8491508334610b30576060366003190112610b305780359161088d610b34565b94610896610b4f565b815460015463e6a4390560e01b85526001600160a01b03898116868801908152918116602083810191909152969390929091908316908790879081906040010381845afa95861561035057888a9b8992889c9b9c99610b0b575b5090818989888a610903868b9998610d00565b9f516323b872dd60e01b81526001600160a01b0398891691810191825297909316602084015260408301949094528593849283906060010393165af1908115610aa1578691610aee575b5015610aab57895163cf82046160e01b815287818681855afa908115610aa1578592918a918891610a67575b5060649161098691610bea565b049288610993858c610c33565b928d5194858092622fcfcb60e31b82525afa928315610a5d576101a16084958b98958a958f99956109d5958c8994610a32575b5050610537916101a191610e12565b8b519788958694635673b02d60e01b86528501528260248501528260448501528a6064850152165af190811561027f5750610a1557508351928352820152f35b610a2b90823d8411610278576102698183610b7b565b5084610247565b6101a1929450610537939181610a5392903d106103495761033a8183610b7b565b939150918c6109c6565b8c513d89823e3d90fd5b92935050508781813d8311610a9a575b610a818183610b7b565b81010312610a96575184919089906064610979565b8580fd5b503d610a77565b8b513d88823e3d90fd5b895162461bcd60e51b8152808501889052601860248201527f5472616e73666572206f6620746f6b656e206661696c656400000000000000006044820152606490fd5b610b059150883d8a11610278576102698183610b7b565b8b61094d565b8392919950610b279086943d85116103495761033a8183610b7b565b989091926108f0565b8380fd5b602435906001600160a01b0382168203610b4a57565b600080fd5b604435906001600160a01b0382168203610b4a57565b600435906001600160a01b0382168203610b4a57565b90601f8019910116810190811067ffffffffffffffff821117610b9d57604052565b634e487b7160e01b600052604160045260246000fd5b90816020910312610b4a57516001600160a01b0381168103610b4a5790565b90816020910312610b4a57518015158103610b4a5790565b81810292918115918404141715610bfd57565b634e487b7160e01b600052601160045260246000fd5b8115610c1d570490565b634e487b7160e01b600052601260045260246000fd5b91908203918211610bfd57565b15610c4757565b60405162461bcd60e51b815260206004820152601760248201527f5472616e73666572206f6620455448206661696c65642e0000000000000000006044820152606490fd5b15610c9357565b60405162461bcd60e51b815260206004820152601960248201527f5472616e73666572206f6620746f6b656e206661696c65642e000000000000006044820152606490fd5b90816060910312610b4a578051916040602083015192015190565b91908201809211610bfd57565b6000805460015460405163e6a4390560e01b81526001600160a01b038581166004830152918216602482018190529195939492602090829060449082908a165afa908115610de85786916060918791610df3575b50600460405180998193630240bc6b60e21b8352165afa928315610de85785968694610dc0575b50610d868488610bea565b95501603610daf5791610da0610da692610dac9594610cf3565b90610c13565b90610c33565b90565b91610da0610da692610dac95610cf3565b909350610ddd91965060603d606011610310576102fd8183610b7b565b509590959238610d7b565b6040513d87823e3d90fd5b610e0c915060203d6020116103495761033a8183610b7b565b38610d54565b600080808094819460018060a01b03165af1903d15610e7b573d67ffffffffffffffff8111610e675760405190610e53601f8201601f191660200183610b7b565b81528160203d92013e5b811561035a575090565b634e487b7160e01b82526041600452602482fd5b610e5d56fea26469706673582212209e490b47745265f89611aaa8b8c91a278f113bd0236b8272c355bb77f82446a364736f6c63430008180033",
  "linkReferences": {},
  "deployedLinkReferences": {}
}