{
  "_format": "hh-sol-artifact-1",
  "contractName": "Factory",
  "sourceName": "contracts/Factory.sol",
  "abi": [
    {
      "inputs": [
        {
          "internalType": "address",
          "name": "fee_to",
          "type": "address"
        }
      ],
      "stateMutability": "nonpayable",
      "type": "constructor"
    },
    {
      "inputs": [],
      "name": "ReentrancyGuardReentrantCall",
      "type": "error"
    },
    {
      "anonymous": false,
      "inputs": [
        {
          "indexed": true,
          "internalType": "address",
          "name": "tokenA",
          "type": "address"
        },
        {
          "indexed": true,
          "internalType": "address",
          "name": "tokenB",
          "type": "address"
        },
        {
          "indexed": false,
          "internalType": "address",
          "name": "pair",
          "type": "address"
        },
        {
          "indexed": false,
          "internalType": "uint256",
          "name": "",
          "type": "uint256"
        }
      ],
      "name": "PairCreated",
      "type": "event"
    },
    {
      "inputs": [
        {
          "internalType": "uint256",
          "name": "n",
          "type": "uint256"
        }
      ],
      "name": "allPairs",
      "outputs": [
        {
          "internalType": "address",
          "name": "",
          "type": "address"
        }
      ],
      "stateMutability": "view",
      "type": "function"
    },
    {
      "inputs": [],
      "name": "allPairsLength",
      "outputs": [
        {
          "internalType": "uint256",
          "name": "",
          "type": "uint256"
        }
      ],
      "stateMutability": "view",
      "type": "function"
    },
    {
      "inputs": [
        {
          "internalType": "address",
          "name": "tokenA",
          "type": "address"
        },
        {
          "internalType": "address",
          "name": "tokenB",
          "type": "address"
        }
      ],
      "name": "createPair",
      "outputs": [
        {
          "internalType": "address",
          "name": "",
          "type": "address"
        }
      ],
      "stateMutability": "nonpayable",
      "type": "function"
    },
    {
      "inputs": [],
      "name": "feeTo",
      "outputs": [
        {
          "internalType": "address",
          "name": "",
          "type": "address"
        }
      ],
      "stateMutability": "view",
      "type": "function"
    },
    {
      "inputs": [],
      "name": "feeToSetter",
      "outputs": [
        {
          "internalType": "address",
          "name": "",
          "type": "address"
        }
      ],
      "stateMutability": "view",
      "type": "function"
    },
    {
      "inputs": [
        {
          "internalType": "address",
          "name": "tokenA",
          "type": "address"
        },
        {
          "internalType": "address",
          "name": "tokenB",
          "type": "address"
        }
      ],
      "name": "getPair",
      "outputs": [
        {
          "internalType": "address",
          "name": "",
          "type": "address"
        }
      ],
      "stateMutability": "view",
      "type": "function"
    },
    {
      "inputs": [
        {
          "internalType": "address",
          "name": "fee_to",
          "type": "address"
        }
      ],
      "name": "setFeeTo",
      "outputs": [],
      "stateMutability": "nonpayable",
      "type": "function"
    },
    {
      "inputs": [],
      "name": "txFee",
      "outputs": [
        {
          "internalType": "uint256",
          "name": "",
          "type": "uint256"
        }
      ],
      "stateMutability": "pure",
      "type": "function"
    }
  ],
  "bytecode": "0x6080346100cd57601f610e0638819003918201601f19168301916001600160401b038311848410176100d2578084926020946040528339810103126100cd57516001600160a01b038116908190036100cd576001600081905580546001600160a01b031990811633179091558115610088576002541617600255604051610d1d90816100e98239f35b60405162461bcd60e51b815260206004820152601f60248201527f5a65726f2061646472657373657320617265206e6f7420616c6c6f7765642e006044820152606490fd5b600080fd5b634e487b7160e01b600052604160045260246000fdfe6080604081815260048036101561001557600080fd5b600092833560e01c908163017e7e581461039057508063094b7415146103675780631e3dd18b1461032e578063574f2ba314610311578063c9c6539614610197578063cf8204611461017b578063e6a439051461012b5763f46901ed1461007b57600080fd5b34610127576020366003190112610127576100946103b5565b6001546001600160a01b039391929190841633036100d5575050166100ba811515610433565b6bffffffffffffffffffffffff60a01b600254161760025580f35b906020608492519162461bcd60e51b8352820152602660248201527f4f6e6c7920746865206f776e65722063616e2063616c6c20746869732066756e60448201526531ba34b7b71760d11b6064820152fd5b8280fd5b505034610177578060031936011261017757602091816101496103b5565b916101526103d0565b6001600160a01b03938416825260038652828220908416825285522054915191168152f35b5080fd5b5050346101775781600319360112610177576020905160058152f35b509190346101775780600319360112610177576101b26103b5565b906101bb6103d0565b92600281541461030157600281556001600160a01b039283169383906101e2861515610433565b166101ee811515610433565b825194610868958681019681881067ffffffffffffffff8911176102e4576104808239308752606081602098848a820152858882015203019084f080156102f7578516948184526003875284842083855287528484206bffffffffffffffffffffffff60a01b90878282541617905560038852858520838652885286868620918254161790558754680100000000000000008110156102e45794809697987f0d3648bd0f6ba80134a33ba9275ac585d9d315f0ad8355cddefde31afa28d0e9926102be886001809a0184556103e6565b819291549060031b918c831b921b1916179055548151908982528a820152a35551908152f35b634e487b7160e01b855260418952602485fd5b84513d85823e3d90fd5b8151633ee5aeb560e01b81528590fd5b503461012757826003193601126101275760209250549051908152f35b509134610364576020366003190112610364575061034e602092356103e6565b905491519160018060a01b039160031b1c168152f35b80fd5b50503461017757816003193601126101775760015490516001600160a01b039091168152602090f35b8490346101775781600319360112610177576002546001600160a01b03168152602090f35b600435906001600160a01b03821682036103cb57565b600080fd5b602435906001600160a01b03821682036103cb57565b60045481101561041d5760046000527f8a35acfbc15ff81a39ae7d344fd709f28e8600b4aa8c65c6b64bfe7fe36bd19b0190600090565b634e487b7160e01b600052603260045260246000fd5b1561043a57565b60405162461bcd60e51b815260206004820152601f60248201527f5a65726f2061646472657373657320617265206e6f7420616c6c6f7765642e006044820152606490fdfe6080346100cb57601f61086838819003918201601f19168301916001600160401b038311848410176100d0578084926060946040528339810103126100cb57610047816100e6565b906100606040610059602084016100e6565b92016100e6565b6001600055916001600160a01b0390811691819061007f8415156100fa565b169261008c8415156100fa565b16916100998315156100fa565b60018060a01b031991826001541617600155816002541617600255600354161760035560405161072190816101478239f35b600080fd5b634e487b7160e01b600052604160045260246000fd5b51906001600160a01b03821682036100cb57565b1561010157565b60405162461bcd60e51b815260206004820152601f60248201527f5a65726f2061646472657373657320617265206e6f7420616c6c6f7765642e006044820152606490fdfe6080604081815260049182361015610022575b505050361561002057600080fd5b005b600090813560e01c9081630902f1ac14610583575080630e06dfc9146103485780630fc63d101461055a5780635673b02d146104b45780635b8bec551461048c5780635c52a5f21461039a5780635c9d6938146103765780635f64b55b1461034d5780637464fc3d14610348578063749388c41461028d5780637b1a4909146101bb578063ba9a7a561461019e578063c45a0155146101715763e7d3fe6b03610012573461016e57507f8334f87aeaf76e52b061d93ee968e51fdd3ad53ca04e80271249227997aab3a06101646020936100fb366105f1565b83546001600160a01b0319166001600160a01b03821617909355855190939192906101258161064b565b838152848882015286429101528260055583600655426007558551938493849192604091949360608401958452602084015260018060a01b0316910152565b0390a15160018152f35b80fd5b50903461019a578160031936011261019a5760015490516001600160a01b039091168152602090f35b5080fd5b50903461019a578160031936011261019a57602090516103e88152f35b5082903461016e578260031936011261016e57808080806001600160a01b036101e26105db565b166101ee81151561069f565b602435905af1903d15610287573d9067ffffffffffffffff821161027457845191610223601f8201601f19166020018461067d565b825260203d92013e5b1561023b576020825160018152f35b6020606492519162461bcd60e51b835282015260146024820152732a3930b739b332b91022aa24102330b4b632b21760611b6044820152fd5b634e487b7160e01b815260418452602490fd5b5061022c565b5082903461016e575061029f366105f1565b90926001600160a01b03808316906102b882151561069f565b825416036102f5576020857f254cba6bcaacd15ef1bba85e06c1d71c8cf7a3e036ad089903ba04bad25aaccc86866101648785516101258161064b565b608490602086519162461bcd60e51b8352820152602760248201527f4f6e6c79204c7020686f6c646572732063616e2063616c6c20746869732066756044820152663731ba34b7b71760c91b6064820152fd5b6105b1565b50903461019a578160031936011261019a5760035490516001600160a01b039091168152602090f35b503461016e578060031936011261016e575060065460055482519182526020820152f35b509134610460576060366003190112610460576103b56105db565b6001600160a01b0360243581811693929084900361048857600286541461047857602092916044916002885516916103ee83151561069f565b6103f985151561069f565b868651958694859363095ea7b360e01b8552840152833560248401525af1801561046c57610430575b506001602092555160018152f35b6020813d602011610464575b816104496020938361067d565b8101031261046057518015150361019a5738610422565b8280fd5b3d915061043c565b505051903d90823e3d90fd5b8451633ee5aeb560e01b81528390fd5b8580fd5b5091346104605782600319360112610460575490516001600160a01b03909116815260209150f35b503461016e57608036600319011261016e57507f298c349c742327269dc8de6ad66687767310c948ea309df826f5bd103e19d2076080602093356024356044356064359161050d816105088660055461061b565b61063e565b61051d846105088560065461061b565b9088516105298161064b565b818152828b820152894291015260055560065542600755865193845287840152858301526060820152a15160018152f35b50903461019a578160031936011261019a5760025490516001600160a01b039091168152602090f35b9050823461046057826003193601126104605760609250600554906006546007549284526020840152820152f35b346105d65760003660031901126105d657604060055460065482519182526020820152f35b600080fd5b600435906001600160a01b03821682036105d657565b60609060031901126105d65760043590602435906044356001600160a01b03811681036105d65790565b9190820180921161062857565b634e487b7160e01b600052601160045260246000fd5b9190820391821161062857565b6060810190811067ffffffffffffffff82111761066757604052565b634e487b7160e01b600052604160045260246000fd5b90601f8019910116810190811067ffffffffffffffff82111761066757604052565b156106a657565b60405162461bcd60e51b815260206004820152601f60248201527f5a65726f2061646472657373657320617265206e6f7420616c6c6f7765642e006044820152606490fdfea26469706673582212208084665290ba33bf4cd65648c7ce563a7dd44aeb9169af63827d7dce6bda6f2764736f6c63430008180033a2646970667358221220ea704063501bbcbbb1d35616a06e301422da1d9b69583762e60afeac828a1a8864736f6c63430008180033",
  "linkReferences": {},
  "deployedLinkReferences": {}
}