{
  "_format": "hh-sol-artifact-1",
  "contractName": "PumpFun",
  "sourceName": "contracts/PumpFun.sol",
  "abi": [
    {
      "inputs": [
        {
          "internalType": "address",
          "name": "factory_",
          "type": "address"
        },
        {
          "internalType": "address",
          "name": "router_",
          "type": "address"
        },
        {
          "internalType": "address",
          "name": "fees_wallet",
          "type": "address"
        },
        {
          "internalType": "uint256",
          "name": "_fee",
          "type": "uint256"
        },
        {
          "internalType": "uint256",
          "name": "_refFee",
          "type": "uint256"
        },
        {
          "internalType": "uint256",
          "name": "_lpFee",
          "type": "uint256"
        }
      ],
      "stateMutability": "nonpayable",
      "type": "constructor"
    },
    {
      "anonymous": false,
      "inputs": [
        {
          "indexed": true,
          "internalType": "address",
          "name": "token",
          "type": "address"
        },
        {
          "indexed": false,
          "internalType": "uint256",
          "name": "amount0",
          "type": "uint256"
        },
        {
          "indexed": false,
          "internalType": "uint256",
          "name": "amount1",
          "type": "uint256"
        }
      ],
      "name": "Deployed",
      "type": "event"
    },
    {
      "anonymous": false,
      "inputs": [
        {
          "indexed": true,
          "internalType": "address",
          "name": "token",
          "type": "address"
        },
        {
          "indexed": true,
          "internalType": "address",
          "name": "pair",
          "type": "address"
        },
        {
          "indexed": false,
          "internalType": "uint256",
          "name": "",
          "type": "uint256"
        }
      ],
      "name": "Launched",
      "type": "event"
    },
    {
      "inputs": [
        {
          "internalType": "address",
          "name": "_user",
          "type": "address"
        },
        {
          "internalType": "address",
          "name": "_token",
          "type": "address"
        },
        {
          "internalType": "uint256",
          "name": "amount",
          "type": "uint256"
        }
      ],
      "name": "approval",
      "outputs": [
        {
          "internalType": "bool",
          "name": "",
          "type": "bool"
        }
      ],
      "stateMutability": "nonpayable",
      "type": "function"
    },
    {
      "inputs": [
        {
          "internalType": "address",
          "name": "token_",
          "type": "address"
        }
      ],
      "name": "deploy",
      "outputs": [],
      "stateMutability": "nonpayable",
      "type": "function"
    },
    {
      "inputs": [],
      "name": "feeTo",
      "outputs": [
        {
          "internalType": "address",
          "name": "",
          "type": "address"
        }
      ],
      "stateMutability": "view",
      "type": "function"
    },
    {
      "inputs": [],
      "name": "feeToSetter",
      "outputs": [
        {
          "internalType": "address",
          "name": "",
          "type": "address"
        }
      ],
      "stateMutability": "view",
      "type": "function"
    },
    {
      "inputs": [
        {
          "internalType": "string",
          "name": "_name",
          "type": "string"
        },
        {
          "internalType": "string",
          "name": "_ticker",
          "type": "string"
        },
        {
          "internalType": "string",
          "name": "desc",
          "type": "string"
        },
        {
          "internalType": "string",
          "name": "img",
          "type": "string"
        },
        {
          "internalType": "string[4]",
          "name": "urls",
          "type": "string[4]"
        },
        {
          "internalType": "uint256",
          "name": "_supply",
          "type": "uint256"
        },
        {
          "internalType": "uint256",
          "name": "maxTx",
          "type": "uint256"
        },
        {
          "internalType": "address",
          "name": "ref",
          "type": "address"
        }
      ],
      "name": "launch",
      "outputs": [
        {
          "internalType": "address",
          "name": "",
          "type": "address"
        },
        {
          "internalType": "address",
          "name": "",
          "type": "address"
        },
        {
          "internalType": "uint256",
          "name": "",
          "type": "uint256"
        }
      ],
      "stateMutability": "payable",
      "type": "function"
    },
    {
      "inputs": [],
      "name": "launchFee",
      "outputs": [
        {
          "internalType": "uint256",
          "name": "",
          "type": "uint256"
        }
      ],
      "stateMutability": "view",
      "type": "function"
    },
    {
      "inputs": [],
      "name": "liquidityFee",
      "outputs": [
        {
          "internalType": "uint256",
          "name": "",
          "type": "uint256"
        }
      ],
      "stateMutability": "view",
      "type": "function"
    },
    {
      "inputs": [],
      "name": "marketCap",
      "outputs": [
        {
          "internalType": "uint256",
          "name": "",
          "type": "uint256"
        }
      ],
      "stateMutability": "pure",
      "type": "function"
    },
    {
      "inputs": [
        {
          "internalType": "address",
          "name": "",
          "type": "address"
        }
      ],
      "name": "profile",
      "outputs": [
        {
          "internalType": "address",
          "name": "user",
          "type": "address"
        },
        {
          "internalType": "address",
          "name": "referree",
          "type": "address"
        }
      ],
      "stateMutability": "view",
      "type": "function"
    },
    {
      "inputs": [
        {
          "internalType": "uint256",
          "name": "",
          "type": "uint256"
        }
      ],
      "name": "profiles",
      "outputs": [
        {
          "internalType": "address",
          "name": "user",
          "type": "address"
        },
        {
          "internalType": "address",
          "name": "referree",
          "type": "address"
        }
      ],
      "stateMutability": "view",
      "type": "function"
    },
    {
      "inputs": [],
      "name": "referralFee",
      "outputs": [
        {
          "internalType": "uint256",
          "name": "",
          "type": "uint256"
        }
      ],
      "stateMutability": "view",
      "type": "function"
    },
    {
      "inputs": [
        {
          "internalType": "address",
          "name": "",
          "type": "address"
        }
      ],
      "name": "token",
      "outputs": [
        {
          "internalType": "address",
          "name": "token",
          "type": "address"
        },
        {
          "internalType": "address",
          "name": "pair",
          "type": "address"
        },
        {
          "internalType": "string",
          "name": "name",
          "type": "string"
        },
        {
          "internalType": "string",
          "name": "ticker",
          "type": "string"
        },
        {
          "internalType": "uint256",
          "name": "supply",
          "type": "uint256"
        },
        {
          "internalType": "string",
          "name": "description",
          "type": "string"
        },
        {
          "internalType": "string",
          "name": "image",
          "type": "string"
        },
        {
          "internalType": "string",
          "name": "twitter",
          "type": "string"
        },
        {
          "internalType": "string",
          "name": "telegram",
          "type": "string"
        },
        {
          "internalType": "string",
          "name": "youtube",
          "type": "string"
        },
        {
          "internalType": "string",
          "name": "website",
          "type": "string"
        },
        {
          "internalType": "bool",
          "name": "trading",
          "type": "bool"
        }
      ],
      "stateMutability": "view",
      "type": "function"
    },
    {
      "inputs": [
        {
          "internalType": "uint256",
          "name": "",
          "type": "uint256"
        }
      ],
      "name": "tokens",
      "outputs": [
        {
          "internalType": "address",
          "name": "token",
          "type": "address"
        },
        {
          "internalType": "address",
          "name": "pair",
          "type": "address"
        },
        {
          "internalType": "string",
          "name": "name",
          "type": "string"
        },
        {
          "internalType": "string",
          "name": "ticker",
          "type": "string"
        },
        {
          "internalType": "uint256",
          "name": "supply",
          "type": "uint256"
        },
        {
          "internalType": "string",
          "name": "description",
          "type": "string"
        },
        {
          "internalType": "string",
          "name": "image",
          "type": "string"
        },
        {
          "internalType": "string",
          "name": "twitter",
          "type": "string"
        },
        {
          "internalType": "string",
          "name": "telegram",
          "type": "string"
        },
        {
          "internalType": "string",
          "name": "youtube",
          "type": "string"
        },
        {
          "internalType": "string",
          "name": "website",
          "type": "string"
        },
        {
          "internalType": "bool",
          "name": "trading",
          "type": "bool"
        }
      ],
      "stateMutability": "view",
      "type": "function"
    },
    {
      "inputs": [
        {
          "internalType": "uint256",
          "name": "_fee",
          "type": "uint256"
        }
      ],
      "name": "updateLaunchFee",
      "outputs": [
        {
          "internalType": "uint256",
          "name": "",
          "type": "uint256"
        }
      ],
      "stateMutability": "nonpayable",
      "type": "function"
    },
    {
      "inputs": [
        {
          "internalType": "uint256",
          "name": "_fee",
          "type": "uint256"
        }
      ],
      "name": "updateLiquidityFee",
      "outputs": [
        {
          "internalType": "uint256",
          "name": "",
          "type": "uint256"
        }
      ],
      "stateMutability": "nonpayable",
      "type": "function"
    },
    {
      "inputs": [
        {
          "internalType": "uint256",
          "name": "_fee",
          "type": "uint256"
        }
      ],
      "name": "updateReferralFee",
      "outputs": [
        {
          "internalType": "uint256",
          "name": "",
          "type": "uint256"
        }
      ],
      "stateMutability": "nonpayable",
      "type": "function"
    }
  ],
  "bytecode": "0x608034620001a357601f620032a438819003918201601f19168301916001600160401b03831184841017620001a85780849260c094604052833981010312620001a3576200004d81620001be565b906200005c60208201620001be565b6200006a60408301620001be565b9260608301519160a060808501519401519460018060a01b0319923384600054161760005560018060a01b0392838092168560015416176001551683600254161760025516906003541617600355670de0b6b3a7640000908181029181830414901517156200018d576103e890046004556005811162000148576005821162000103576005556006556040516130d09081620001d48239f35b60405162461bcd60e51b815260206004820152601f60248201527f4c6971756964697479204665652063616e6e6f74206578636565642035252e006044820152606490fd5b60405162461bcd60e51b815260206004820152601e60248201527f526566657272616c204665652063616e6e6f74206578636565642035252e00006044820152606490fd5b634e487b7160e01b600052601160045260246000fd5b600080fd5b634e487b7160e01b600052604160045260246000fd5b51906001600160a01b0382168203620001a35756fe608060405260043610156200001357600080fd5b60003560e01c8063017e7e581462001015578063094b74151462000fea5780632c135b931462000fc35780634c96a3891462000ed85780634f64b2be1462000ca35780635c52a5f21462000c565780636d46a1db1462000b825780637660f44a1462000b5e57806384ae2bc61462000b3e5780638e6756631462000b1a57806398118cb41462000afa5780639dd9d0fd1462000a9e578063a153e6ff146200017c578063c36fe3d61462000126578063cf3cf57314620001065763f3f524b814620000dd57600080fd5b34620001015760203660031901126200010157602060043580600555604051908152f35b600080fd5b346200010157600036600319011262000101576020600454604051908152f35b34620001015760203660031901126200010157600435600854811015620001015762000152906200130d565b508054600190910154604080516001600160a01b03938416815292909116602083015290f35b0390f35b61010036600319011262000101576004356001600160401b0381116200010157620001ac903690600401620012c0565b6024356001600160401b0381116200010157620001ce903690600401620012c0565b6044356001600160401b0381116200010157620001f0903690600401620012c0565b6064356001600160401b038111620001015762000212903690600401620012c0565b92608435926001600160401b0384116200010157366023850112156200010157604051936200024185620010a2565b84906084810190368211620001015780600401925b82841062000a6b57505060e435929150506001600160a01b03821682036200010157600454341062000a2657604051610ff581818101106001600160401b038284011117620007e157808291620020a68339608081830152620002d6620002c36080838501018862001191565b8284018103602084860101528562001191565b9060a43560408285010152606060c435918401015203906000f0948515620008ff576002546040516315ab88c960e31b81529590602090879060049082906001600160a01b03165afa958615620008ff57620003769660209160009162000a04575b506001546040516364e329cb60e11b81526001600160a01b038b81166004830152928316602482015298899290911690829060009082906044820190565b03925af1958615620008ff57600096620009cc575b50603260a43581020460a43503620009b65760405163313ce56760e01b81526020816004816001600160a01b038c165afa908115620008ff57620003f3620003e46200041a936020936000916200099b575b5062001491565b606460a4356032020462001462565b60405163a9059cbb60e01b8152336004820152602481019190915291829081906044820190565b038160006001600160a01b038d165af1908115620008ff5760009162000965575b5015620001015760025460405163313ce56760e01b8152906001600160a01b0390811690602090839060049082908d165afa8015620008ff57620003e46200049191620004a39460009162000941575062001491565b906001600160a01b038a1690620013d5565b1562000101576064620004b93460065462001462565b04976004620004c98a34620014a3565b60025460405163313ce56760e01b8152919b91926001600160a01b039182169291602091859182908f165afa918215620008ff578b6200051d620003e46040956200054c976000916200090b575062001491565b8451630e505aa960e31b81526001600160a01b0390921660048301526024820152938492839182906044820190565b03925af18015620008ff57620008ca575b5033600090815260076020526040902060018101549099906001600160a01b031680156200080d57506003546000918291829182916001600160a01b03165af1620005a7620014b1565b501562000101575b825190602084015192606060408601519501519560405198896101808101106001600160401b036101808c011117620007e1576101808a0160405260018060a01b038c168a5260018060a01b038b1660208b015260408a0152606089015260a435608089015260a088015260c087015260e0860152610100850152610120840152610140830152600161016083015260018060a01b03841660005260096020526200065f826040600020620014ff565b600a54600160401b9081811015620007e1576001810180600a55811015620007f75783600c620006b792600a600052027fc65a7bb8d6351c1cf70c95a316cc6a92839c986682d98bc35f958f4883f9d2a801620014ff565b620006c23362001dc5565b156200073d575050620006db9060036060950162001d8e565b600a546040518181529091906001600160a01b0380831691908516907f714aa39317ad9a7a7a99db52b44490da5d068a0b2710fffb1a1282ad3cadae1f90602090a3604080516001600160a01b03948516815291909316602082015291820152f35b60405192916200074d84620010a2565b33845260018060a01b03166020840152606060408401526060808401523360005260076020526200078383604060002062001e5c565b60085490811015620007e157806001620007a192016008556200130d565b929092620007cb57606095620007be600392620007c59562001e5c565b0162001d8e565b620006db565b634e487b7160e01b600052600060045260246000fd5b634e487b7160e01b600052604160045260246000fd5b634e487b7160e01b600052603260045260246000fd5b6000526002604060002001805491600160401b831015620007e15760018301808355831015620007f7576000808093928e95829483526020832001336bffffffffffffffffffffffff60a01b8254161790556200087c6064620008738360055462001462565b048092620014a3565b6001909601546001600160a01b03165af162000897620014b1565b501562000101576003546000918291829182916001600160a01b03165af1620008bf620014b1565b50620005af57600080fd5b620008f09060403d604011620008f7575b620008e78183620010be565b810190620013a4565b506200055d565b503d620008db565b6040513d6000823e3d90fd5b62000932915060203d60201162000939575b620009298183620010be565b81019062001476565b38620003dd565b503d6200091d565b6200095e915060203d6020116200093957620009298183620010be565b8d620003dd565b6200098c915060203d60201162000993575b620009838183620010be565b810190620013bb565b896200043b565b503d62000977565b6200095e9150843d86116200093957620009298183620010be565b634e487b7160e01b600052601160045260246000fd5b620009f491965060203d602011620009fc575b620009eb8183620010be565b81019062001441565b94886200038b565b503d620009df565b62000a1f9150823d8411620009fc57620009eb8183620010be565b8a62000338565b60405162461bcd60e51b815260206004820152601960248201527f496e73756666696369656e7420616d6f756e742073656e742e000000000000006044820152606490fd5b83356001600160401b038111620001015760209162000a92839260043691870101620012c0565b81520193019262000256565b346200010157602036600319011262000101576001600160a01b038062000ac46200104e565b16600090815260076020908152604091829020805460019091015483516001600160a01b03928616831681529416169083015290f35b346200010157600036600319011262000101576020600654604051908152f35b34620001015760203660031901126200010157602060043580600655604051908152f35b346200010157600036600319011262000101576020600554604051908152f35b34620001015760203660031901126200010157602060043580600455604051908152f35b346200010157602036600319011262000101576001600160a01b038062000ba86200104e565b1660005260096020526040600020906200017881835416916001840154169262000bd560028201620010e0565b9062000be460038201620010e0565b600482015462000bf760058401620010e0565b62000c0560068501620010e0565b62000c1360078601620010e0565b9162000c2260088701620010e0565b9362000c3160098801620010e0565b9560ff600b62000c44600a8b01620010e0565b99015416986040519c8d9c8d620011d3565b3462000101576060366003190112620001015762000c736200104e565b6024356001600160a01b0381168103620001015760209162000c999160443591620013d5565b6040519015158152f35b34620001015760203660031901126200010157600435600a548110156200010157600c90600a6000520260018060a01b036200017881837fc65a7bb8d6351c1cf70c95a316cc6a92839c986682d98bc35f958f4883f9d2a8015416917fc65a7bb8d6351c1cf70c95a316cc6a92839c986682d98bc35f958f4883f9d2a9840154169262000d527fc65a7bb8d6351c1cf70c95a316cc6a92839c986682d98bc35f958f4883f9d2aa8201620010e0565b9062000d807fc65a7bb8d6351c1cf70c95a316cc6a92839c986682d98bc35f958f4883f9d2ab8201620010e0565b7fc65a7bb8d6351c1cf70c95a316cc6a92839c986682d98bc35f958f4883f9d2ac82015462000dd17fc65a7bb8d6351c1cf70c95a316cc6a92839c986682d98bc35f958f4883f9d2ad8401620010e0565b62000dfe7fc65a7bb8d6351c1cf70c95a316cc6a92839c986682d98bc35f958f4883f9d2ae8501620010e0565b62000e2b7fc65a7bb8d6351c1cf70c95a316cc6a92839c986682d98bc35f958f4883f9d2af8601620010e0565b9162000e597fc65a7bb8d6351c1cf70c95a316cc6a92839c986682d98bc35f958f4883f9d2b08701620010e0565b9362000e877fc65a7bb8d6351c1cf70c95a316cc6a92839c986682d98bc35f958f4883f9d2b18801620010e0565b9560ff7fc65a7bb8d6351c1cf70c95a316cc6a92839c986682d98bc35f958f4883f9d2b362000c447fc65a7bb8d6351c1cf70c95a316cc6a92839c986682d98bc35f958f4883f9d2b28b01620010e0565b3462000101576020366003190112620001015762000ef56200104e565b6000604060018060a01b03809362000f1282855416331462001348565b16928383526009602052600b8284200160ff19815416905560648160025416918454168351948593849263e79a408960e01b845288600485015284602485015260448401525af18015620008ff577f540bcec33387745b2ced30977dcfe4a623a245511eb0a133989c27c8bb95b4a99160409160009160009162000f9f575b5082519182526020820152a2005b905062000fbc9150823d8411620008f757620008e78183620010be565b8562000f91565b34620001015760003660031901126200010157602060405169152d02c7e14af68000008152f35b346200010157600036600319011262000101576000546040516001600160a01b039091168152602090f35b34620001015760003660031901126200010157602060018060a01b03620010428160005416331462001348565b60035416604051908152f35b600435906001600160a01b03821682036200010157565b90600182811c9216801562001097575b60208310146200108157565b634e487b7160e01b600052602260045260246000fd5b91607f169162001075565b608081019081106001600160401b03821117620007e157604052565b90601f801991011681019081106001600160401b03821117620007e157604052565b90604051918260008254620010f58162001065565b908184526020946001916001811690816000146200116d57506001146200112a575b5050506200112892500383620010be565b565b600090815285812095935091905b8183106200115457505062001128935082010138808062001117565b8554888401850152948501948794509183019162001138565b925050506200112894925060ff191682840152151560051b82010138808062001117565b919082519283825260005b848110620011be575050826000602080949584010152601f8019910116010190565b6020818301810151848301820152016200119c565b9a9791966200124e6200127c969d9e9d6101609c988e6200123a6200129c9e996200122b6200126c9a6200128c9f6200125d9a6101809160018060a01b03809216885216602087015280604087015285019062001191565b90838203606085015262001191565b92608082015260a081840391015262001191565b8c810360c08e01529062001191565b908a820360e08c015262001191565b908882036101008a015262001191565b9086820361012088015262001191565b9084820361014086015262001191565b931515910152565b6001600160401b038111620007e157601f01601f191660200190565b81601f820112156200010157803590620012da82620012a4565b92620012ea6040519485620010be565b828452602083830101116200010157816000926020809301838601378301015290565b600854811015620007f757600860005260021b7ff3f7a9fe364faab93b216da50a3214154f22a0a2b415b23a84c8169e8b636ee30190600090565b156200135057565b60405162461bcd60e51b815260206004820152602660248201527f4f6e6c7920746865206f776e65722063616e2063616c6c20746869732066756e60448201526531ba34b7b71760d11b6064820152608490fd5b919082604091031262000101576020825192015190565b908160209103126200010157518015158103620001015790565b60405163095ea7b360e01b81526001600160a01b039182166004820152602481019390935260209183916044918391600091165af18015620008ff576200141d575b50600190565b620014399060203d6020116200099357620009838183620010be565b503862001417565b908160209103126200010157516001600160a01b0381168103620001015790565b81810292918115918404141715620009b657565b9081602091031262000101575160ff81168103620001015790565b60ff16604d8111620009b657600a0a90565b91908203918211620009b657565b3d15620014e1573d90620014c582620012a4565b91620014d56040519384620010be565b82523d6000602084013e565b606090565b818110620014f2575050565b60008155600101620014e6565b815181546001600160a01b03199081166001600160a01b03928316178355602080850151600185810180549094169190941617909155604084015180516001600160401b0392906002860190848111620007e1576200155f825462001065565b93601f9485811162001d5c575b50839085831160011462001cf5576200159f92916000918362001868575b50508160011b916000199060031b1c19161790565b90555b6003938486016060880151805190868211620007e157620015c4835462001065565b86811162001cb8575b50849086831160011462001c5257620015ff929160009183620018685750508160011b916000199060031b1c19161790565b90555b60049160808801518388015560059586880160a08a0151805190888211620019e15762001630835462001065565b88811162001c21575b50849088831160011462001bbb576200166b929160009183620018685750508160011b916000199060031b1c19161790565b90555b6006880160c08a0151805190888211620019e1576200168e835462001065565b88811162001b8a575b50849088831160011462001b2457620016c9929160009183620018685750508160011b916000199060031b1c19161790565b90555b6007880160e08a0151805190888211620019e157620016ec835462001065565b88811162001af3575b50849088831160011462001a8d5762001727929160009183620018685750508160011b916000199060031b1c19161790565b90555b600888016101008a0151805190888211620019e1576200174b835462001065565b88811162001a5c575b508490888311600114620019f65762001786929160009183620018685750508160011b916000199060031b1c19161790565b90555b600988016101208a0151805190888211620019e157620017aa835462001065565b888111620019a5575b5084908883116001146200193f57620017e5929160009183620018685750508160011b916000199060031b1c19161790565b90555b600a8801966101408a01519485519788116200192a57506200180b885462001065565b868111620018ed575b5050819486116001146200187457505050826101609593600b95936200185193600092620018685750508160011b916000199060031b1c19161790565b90555b01910151151560ff80198354169116179055565b0151905038806200158a565b9194939092601f1985168760005284600020946000905b828210620018d557505091859391600b98966101609a98969410620018ba575b50505050811b01905562001854565b01519060f884600019921b161c1916905538808080620018ab565b8089869882949787015181550197019401906200188b565b620019189189600052846000209088808b01821c830193878c1062001920575b01901c0190620014e6565b388062001814565b935082936200190d565b604190634e487b7160e01b6000525260246000fd5b869291601f1983169185600052876000209260005b898282106200198e575050841162001975575b505050811b019055620017e8565b015160001983871b60f8161c1916905538808062001967565b8385015186558b9790950194938401930162001954565b620019d09084600052866000208a8d818701901c820192898710620019d7575b018d1c0190620014e6565b38620017b3565b92508192620019c5565b604187634e487b7160e01b6000525260246000fd5b869291601f1983169185600052876000209260005b8982821062001a45575050841162001a2c575b505050811b01905562001789565b015160001983871b60f8161c1916905538808062001a1e565b8385015186558b9790950194938401930162001a0b565b62001a869084600052866000208a8d818701901c820192898710620019d757018d1c0190620014e6565b3862001754565b869291601f1983169185600052876000209260005b8982821062001adc575050841162001ac3575b505050811b0190556200172a565b015160001983871b60f8161c1916905538808062001ab5565b8385015186558b9790950194938401930162001aa2565b62001b1d9084600052866000208a8d818701901c820192898710620019d757018d1c0190620014e6565b38620016f5565b869291601f1983169185600052876000209260005b8982821062001b73575050841162001b5a575b505050811b019055620016cc565b015160001983871b60f8161c1916905538808062001b4c565b8385015186558b9790950194938401930162001b39565b62001bb49084600052866000208a8d818701901c820192898710620019d757018d1c0190620014e6565b3862001697565b869291601f1983169185600052876000209260005b8982821062001c0a575050841162001bf1575b505050811b0190556200166e565b015160001983871b60f8161c1916905538808062001be3565b8385015186558b9790950194938401930162001bd0565b62001c4b9084600052866000208a8d818701901c820192898710620019d757018d1c0190620014e6565b3862001639565b849291601f1983169185600052876000209260005b8982821062001ca1575050841162001c88575b505050811b01905562001602565b0151600019838b1b60f8161c1916905538808062001c7a565b838501518655899790950194938401930162001c67565b62001ce49084600052866000208880860160051c82019289871062001ceb575b0160051c0190620014e6565b38620015cd565b9250819262001cd8565b879291601f1983169185600052866000209260005b8882821062001d45575050841162001d2b575b505050811b019055620015a2565b015160001960f88460031b161c1916905538808062001d1d565b8385015186558c9790950194938401930162001d0a565b62001d879084600052856000208780860160051c82019288871062001ceb570160051c0190620014e6565b386200156c565b908154600160401b811015620007e15760018101808455811015620007f7576200112892600052600c6020600020910201620014ff565b6008549060005b82811062001ddc57505050600090565b62001de7816200130d565b50546001600160a01b0383811691161462001e055760010162001dcc565b505050600190565b62001e19815462001065565b908162001e24575050565b81601f6000931160011462001e37575055565b90808391825262001e58601f60208420940160051c840160018501620014e6565b5555565b60018060a01b0390818351166bffffffffffffffffffffffff60a01b9081835416178255600193600183016020928584840151169082541617905560029260028101936040830151958651906001600160401b038211620007e157600160401b97888311620007e15786908854848a5580851062002085575b5001906000978852868820908a895b8581106200207057505050505050606060038093019301519182519687116200205c5783548785558593929181891062001f54575b50505091845282842091015b84841062001f3557505050505050565b600c838262001f4789945186620014ff565b0192019301929062001f25565b9091929350600c9282600c0292600c840403620020485788600c02600c81048a036200203457868952878920889695948101939291015b83811062001f9b57505062001f19565b849596508981959293949555898c82015562001fb983820162001e0d565b62001fc684820162001e0d565b89600482015562001fda6005820162001e0d565b62001fe86006820162001e0d565b62001ff66007820162001e0d565b620020046008820162001e0d565b620020126009820162001e0d565b62002020600a820162001e0d565b89600b820155019087959493929162001f8b565b634e487b7160e01b89526011600452602489fd5b634e487b7160e01b88526011600452602488fd5b634e487b7160e01b86526041600452602486fd5b898386511695019481850155018b9062001ee4565b6200209e908a60005285846000209182019101620014e6565b3862001ed556fe60406080815234620004295762000ff5803803806200001e816200042e565b928339810190608081830312620004295780516001600160401b039190828111620004295783620000519183016200046a565b90602093848201519084821162000429576200006f9183016200046a565b606086830151920151906000943360018060a01b031987541617865533867f8be0079c531659141344cd1fd0a4f28419497f9722a3daafe3b4186f6b6457e08180a384518181116200034357600254906001968783811c931680156200041e575b8a84101462000324578190601f93848111620003ca575b508a9084831160011462000363578a9262000357575b5050600019600383901b1c191690871b176002555b8251918211620003435760039283548781811c9116801562000338575b8a821014620003245790818385949311620002cf575b50899183116001146200026c57889262000260575b505060001982841b1c191690851b1790555b670de0b6b3a7640000918281029281840414901517156200024c5781835560058111620001fe57907fddf252ad1be2c89b69c2b068fc378daa952ba7f163c4a11628f55a4df523b3ef929160045533845260058552858420556007845284832060ff199082828254161790553084528186852091825416179055549284519384523393a351610b189081620004dd8239f35b855162461bcd60e51b815260048101869052602160248201527f4d6178205472616e73616374696f6e2063616e6e6f74206578636565642035256044820152601760f91b6064820152608490fd5b634e487b7160e01b84526011600452602484fd5b0151905038806200015a565b8489528989208894509190601f1984168a5b8c828210620002b857505084116200029f575b505050811b0190556200016c565b015160001983861b60f8161c1916905538808062000291565b8385015186558b979095019493840193016200027e565b909192508489528989208380860160051c8201928c87106200031a575b9186958b929594930160051c01915b8281106200030b57505062000145565b8b81558695508a9101620002fb565b92508192620002ec565b634e487b7160e01b89526022600452602489fd5b90607f16906200012f565b634e487b7160e01b87526041600452602487fd5b015190503880620000fd565b60028b528b8b208a94509190601f1984168c8e5b828210620003b2575050841162000398575b505050811b0160025562000112565b015160001960f88460031b161c1916905538808062000389565b8385015186558d979095019493840193018e62000377565b90915060028a528a8a208480850160051c8201928d861062000414575b918b91869594930160051c01915b82811062000405575050620000e7565b8c81558594508b9101620003f5565b92508192620003e7565b92607f1692620000d0565b600080fd5b6040519190601f01601f191682016001600160401b038111838210176200045457604052565b634e487b7160e01b600052604160045260246000fd5b919080601f84011215620004295782516001600160401b0381116200045457602090620004a0601f8201601f191683016200042e565b92818452828287010111620004295760005b818110620004c857508260009394955001015290565b8581018301518482018401528201620004b256fe608060408181526004918236101561001657600080fd5b600092833560e01c91826306fdde03146104ff57508163095ea7b3146104d557816318160ddd146104b657816323b872dd146103e1578163313ce567146103c557816370a082311461038d578163715018a61461032e5781637437681e146103105781638da5cb5b146102e857816395d89b41146101e3578163a9059cbb146101b2578163c2d0ffca146100ff575063dd62ed3e146100b457600080fd5b346100fb57806003193601126100fb57806020926100d0610607565b6100d8610622565b6001600160a01b0391821683526006865283832091168252845220549051908152f35b5080fd5b919050346101ae5760203660031901126101ae5781359161012a60018060a01b038554163314610670565b600583116101625791602091817fff3dd5e80294197918c284bbfc3dadd97d0b40ce92106110946329088f80068a945551908152a180f35b6020608492519162461bcd60e51b8352820152602160248201527f4d6178205472616e73616374696f6e2063616e6e6f74206578636565642035256044820152601760f91b6064820152fd5b8280fd5b5050346100fb57806003193601126100fb576020906101dc6101d2610607565b60243590336107bd565b5160018152f35b919050346101ae57826003193601126101ae5780519183600354906001908260011c926001811680156102de575b60209586861082146102cb57508488529081156102a95750600114610250575b61024c8686610242828b0383610638565b51918291826105be565b0390f35b929550600383527fc2575a0e9e593c00f959f8c92f12db2869c3395a3b0502d05e2516446f71f85b5b828410610296575050508261024c94610242928201019438610231565b8054868501880152928601928101610279565b60ff191687860152505050151560051b83010192506102428261024c38610231565b634e487b7160e01b845260229052602483fd5b93607f1693610211565b5050346100fb57816003193601126100fb57905490516001600160a01b039091168152602090f35b9050346101ae57826003193601126101ae5760209250549051908152f35b833461038a578060031936011261038a578054816001600160a01b038216610357338214610670565b7f8be0079c531659141344cd1fd0a4f28419497f9722a3daafe3b4186f6b6457e08280a36001600160a01b031916815580f35b80fd5b5050346100fb5760203660031901126100fb5760209181906001600160a01b036103b5610607565b1681526005845220549051908152f35b5050346100fb57816003193601126100fb576020905160128152f35b82843461038a57606036600319011261038a576103fc610607565b90610405610622565b6104136044358092856107bd565b6001600160a01b038316825260066020908152848320338452905283822054845192606084019067ffffffffffffffff8211858310176104a3576020876101dc8861049b898989898752602883527f45524332303a207472616e7366657220616d6f756e742065786365656473206188840152676c6c6f77616e636560c01b87840152610a97565b9033906106bb565b634e487b7160e01b815260418852602490fd5b5050346100fb57816003193601126100fb576020906001549051908152f35b5050346100fb57806003193601126100fb576020906101dc6104f5610607565b60243590336106bb565b929150346105ba57836003193601126105ba57600254600181811c91869082811680156105b0575b60209586861082146102cb57508488529081156102a957506001146105575761024c8686610242828b0383610638565b929550600283527f405787fa12a823e0f2b7631cc41b3ba8828b3321ca811111fa75cd3aa3bb5ace5b82841061059d575050508261024c94610242928201019438610231565b8054868501880152928601928101610580565b93607f1693610527565b8380fd5b6020808252825181830181905290939260005b8281106105f357505060409293506000838284010152601f8019910116010190565b8181018601518482016040015285016105d1565b600435906001600160a01b038216820361061d57565b600080fd5b602435906001600160a01b038216820361061d57565b90601f8019910116810190811067ffffffffffffffff82111761065a57604052565b634e487b7160e01b600052604160045260246000fd5b1561067757565b606460405162461bcd60e51b815260206004820152602060248201527f4f776e61626c653a2063616c6c6572206973206e6f7420746865206f776e65726044820152fd5b6001600160a01b0390811691821561076c571691821561071c5760207f8c5be1e5ebec7d5bd14f71427d1e84f3dd0314c0f7b2291e5b200ac8c7c3b925918360005260068252604060002085600052825280604060002055604051908152a3565b60405162461bcd60e51b815260206004820152602260248201527f45524332303a20617070726f766520746f20746865207a65726f206164647265604482015261737360f01b6064820152608490fd5b60405162461bcd60e51b8152602060048201526024808201527f45524332303a20617070726f76652066726f6d20746865207a65726f206164646044820152637265737360e01b6064820152608490fd5b9192916001600160a01b03908116918215610a4457169081156109f357831561099c57600480549460015495868102968188041490151715610987576000958387526020926007845260409160ff838a20541615610936575b50848852600584528188205482519083820182811067ffffffffffffffff82111761092357610872929186918652601e83527f536166654d6174683a207375627472616374696f6e206f766572666c6f77000088840152610a97565b85895260058552828920558588528188205490838201918281116109105782106108cd57508188877fddf252ad1be2c89b69c2b068fc378daa952ba7f163c4a11628f55a4df523b3ef9798999a5260058652205551908152a3565b825162461bcd60e51b8152908101859052601b60248201527f536166654d6174683a206164646974696f6e206f766572666c6f7700000000006044820152606490fd5b634e487b7160e01b8a526011825260248afd5b634e487b7160e01b8b526041845260248bfd5b6064900483116109465738610816565b83606492519162461bcd60e51b8352820152601860248201527f4578636565647320746865204d61785478416d6f756e742e00000000000000006044820152fd5b601182634e487b7160e01b6000525260246000fd5b60405162461bcd60e51b815260206004820152602960248201527f5472616e7366657220616d6f756e74206d7573742062652067726561746572206044820152687468616e207a65726f60b81b6064820152608490fd5b60405162461bcd60e51b815260206004820152602360248201527f45524332303a207472616e7366657220746f20746865207a65726f206164647260448201526265737360e81b6064820152608490fd5b60405162461bcd60e51b815260206004820152602560248201527f45524332303a207472616e736665722066726f6d20746865207a65726f206164604482015264647265737360d81b6064820152608490fd5b91828211610ac257508103908111610aac5790565b634e487b7160e01b600052601160045260246000fd5b60405162461bcd60e51b8152908190610ade90600483016105be565b0390fdfea2646970667358221220125325736e75a597f98b9c4b5c0bb93954d3bb1aef8717cc3f9f5f7b8cd6bc4a64736f6c63430008180033a2646970667358221220016be3908750b29b97e309e6cd84d94807e3f6249612d34fa24b735509060bd364736f6c63430008180033",
  "linkReferences": {},
  "deployedLinkReferences": {}
}