{
  "_format": "hh-sol-artifact-1",
  "contractName": "PumpFun",
  "sourceName": "contracts/PumpFun.sol",
  "abi": [
    {
      "inputs": [
        {
          "internalType": "address",
          "name": "factory_",
          "type": "address"
        },
        {
          "internalType": "address",
          "name": "router_",
          "type": "address"
        },
        {
          "internalType": "address",
          "name": "fee_to",
          "type": "address"
        },
        {
          "internalType": "uint256",
          "name": "_fee",
          "type": "uint256"
        },
        {
          "internalType": "uint256",
          "name": "_refFee",
          "type": "uint256"
        }
      ],
      "stateMutability": "nonpayable",
      "type": "constructor"
    },
    {
      "inputs": [],
      "name": "ReentrancyGuardReentrantCall",
      "type": "error"
    },
    {
      "anonymous": false,
      "inputs": [
        {
          "indexed": true,
          "internalType": "address",
          "name": "token",
          "type": "address"
        },
        {
          "indexed": false,
          "internalType": "uint256",
          "name": "amount0",
          "type": "uint256"
        },
        {
          "indexed": false,
          "internalType": "uint256",
          "name": "amount1",
          "type": "uint256"
        }
      ],
      "name": "Deployed",
      "type": "event"
    },
    {
      "anonymous": false,
      "inputs": [
        {
          "indexed": true,
          "internalType": "address",
          "name": "token",
          "type": "address"
        },
        {
          "indexed": true,
          "internalType": "address",
          "name": "pair",
          "type": "address"
        },
        {
          "indexed": false,
          "internalType": "uint256",
          "name": "",
          "type": "uint256"
        }
      ],
      "name": "Launched",
      "type": "event"
    },
    {
      "inputs": [
        {
          "internalType": "address",
          "name": "_user",
          "type": "address"
        },
        {
          "internalType": "address",
          "name": "_token",
          "type": "address"
        },
        {
          "internalType": "uint256",
          "name": "amount",
          "type": "uint256"
        }
      ],
      "name": "approval",
      "outputs": [
        {
          "internalType": "bool",
          "name": "",
          "type": "bool"
        }
      ],
      "stateMutability": "nonpayable",
      "type": "function"
    },
    {
      "inputs": [
        {
          "internalType": "address",
          "name": "tk",
          "type": "address"
        }
      ],
      "name": "deploy",
      "outputs": [],
      "stateMutability": "nonpayable",
      "type": "function"
    },
    {
      "inputs": [],
      "name": "feeTo",
      "outputs": [
        {
          "internalType": "address",
          "name": "",
          "type": "address"
        }
      ],
      "stateMutability": "view",
      "type": "function"
    },
    {
      "inputs": [],
      "name": "feeToSetter",
      "outputs": [
        {
          "internalType": "address",
          "name": "",
          "type": "address"
        }
      ],
      "stateMutability": "view",
      "type": "function"
    },
    {
      "inputs": [],
      "name": "getTokens",
      "outputs": [
        {
          "components": [
            {
              "internalType": "address",
              "name": "creator",
              "type": "address"
            },
            {
              "internalType": "address",
              "name": "token",
              "type": "address"
            },
            {
              "internalType": "address",
              "name": "pair",
              "type": "address"
            },
            {
              "internalType": "string",
              "name": "name",
              "type": "string"
            },
            {
              "internalType": "string",
              "name": "ticker",
              "type": "string"
            },
            {
              "internalType": "uint256",
              "name": "supply",
              "type": "uint256"
            },
            {
              "internalType": "string",
              "name": "description",
              "type": "string"
            },
            {
              "internalType": "string",
              "name": "image",
              "type": "string"
            },
            {
              "internalType": "string",
              "name": "twitter",
              "type": "string"
            },
            {
              "internalType": "string",
              "name": "telegram",
              "type": "string"
            },
            {
              "internalType": "string",
              "name": "youtube",
              "type": "string"
            },
            {
              "internalType": "string",
              "name": "website",
              "type": "string"
            },
            {
              "internalType": "bool",
              "name": "trading",
              "type": "bool"
            },
            {
              "internalType": "bool",
              "name": "tradingOnUniswap",
              "type": "bool"
            }
          ],
          "internalType": "struct PumpFun.Token[]",
          "name": "",
          "type": "tuple[]"
        }
      ],
      "stateMutability": "view",
      "type": "function"
    },
    {
      "inputs": [],
      "name": "getUserReferrals",
      "outputs": [
        {
          "internalType": "address[]",
          "name": "",
          "type": "address[]"
        }
      ],
      "stateMutability": "view",
      "type": "function"
    },
    {
      "inputs": [],
      "name": "getUserTokens",
      "outputs": [
        {
          "components": [
            {
              "internalType": "address",
              "name": "creator",
              "type": "address"
            },
            {
              "internalType": "address",
              "name": "token",
              "type": "address"
            },
            {
              "internalType": "address",
              "name": "pair",
              "type": "address"
            },
            {
              "internalType": "string",
              "name": "name",
              "type": "string"
            },
            {
              "internalType": "string",
              "name": "ticker",
              "type": "string"
            },
            {
              "internalType": "uint256",
              "name": "supply",
              "type": "uint256"
            },
            {
              "internalType": "string",
              "name": "description",
              "type": "string"
            },
            {
              "internalType": "string",
              "name": "image",
              "type": "string"
            },
            {
              "internalType": "string",
              "name": "twitter",
              "type": "string"
            },
            {
              "internalType": "string",
              "name": "telegram",
              "type": "string"
            },
            {
              "internalType": "string",
              "name": "youtube",
              "type": "string"
            },
            {
              "internalType": "string",
              "name": "website",
              "type": "string"
            },
            {
              "internalType": "bool",
              "name": "trading",
              "type": "bool"
            },
            {
              "internalType": "bool",
              "name": "tradingOnUniswap",
              "type": "bool"
            }
          ],
          "internalType": "struct PumpFun.Token[]",
          "name": "",
          "type": "tuple[]"
        }
      ],
      "stateMutability": "view",
      "type": "function"
    },
    {
      "inputs": [
        {
          "internalType": "string",
          "name": "_name",
          "type": "string"
        },
        {
          "internalType": "string",
          "name": "_ticker",
          "type": "string"
        },
        {
          "internalType": "string",
          "name": "desc",
          "type": "string"
        },
        {
          "internalType": "string",
          "name": "img",
          "type": "string"
        },
        {
          "internalType": "string[4]",
          "name": "urls",
          "type": "string[4]"
        },
        {
          "internalType": "uint256",
          "name": "_supply",
          "type": "uint256"
        },
        {
          "internalType": "uint256",
          "name": "maxTx",
          "type": "uint256"
        },
        {
          "internalType": "address",
          "name": "ref",
          "type": "address"
        }
      ],
      "name": "launch",
      "outputs": [
        {
          "internalType": "address",
          "name": "",
          "type": "address"
        },
        {
          "internalType": "address",
          "name": "",
          "type": "address"
        },
        {
          "internalType": "uint256",
          "name": "",
          "type": "uint256"
        }
      ],
      "stateMutability": "payable",
      "type": "function"
    },
    {
      "inputs": [],
      "name": "launchFee",
      "outputs": [
        {
          "internalType": "uint256",
          "name": "",
          "type": "uint256"
        }
      ],
      "stateMutability": "view",
      "type": "function"
    },
    {
      "inputs": [],
      "name": "liquidityFee",
      "outputs": [
        {
          "internalType": "uint256",
          "name": "",
          "type": "uint256"
        }
      ],
      "stateMutability": "pure",
      "type": "function"
    },
    {
      "inputs": [],
      "name": "marketCapLimit",
      "outputs": [
        {
          "internalType": "uint256",
          "name": "",
          "type": "uint256"
        }
      ],
      "stateMutability": "pure",
      "type": "function"
    },
    {
      "inputs": [
        {
          "internalType": "address",
          "name": "",
          "type": "address"
        }
      ],
      "name": "profile",
      "outputs": [
        {
          "internalType": "address",
          "name": "user",
          "type": "address"
        },
        {
          "internalType": "address",
          "name": "referree",
          "type": "address"
        }
      ],
      "stateMutability": "view",
      "type": "function"
    },
    {
      "inputs": [
        {
          "internalType": "uint256",
          "name": "",
          "type": "uint256"
        }
      ],
      "name": "profiles",
      "outputs": [
        {
          "internalType": "address",
          "name": "user",
          "type": "address"
        },
        {
          "internalType": "address",
          "name": "referree",
          "type": "address"
        }
      ],
      "stateMutability": "view",
      "type": "function"
    },
    {
      "inputs": [],
      "name": "referralFee",
      "outputs": [
        {
          "internalType": "uint256",
          "name": "",
          "type": "uint256"
        }
      ],
      "stateMutability": "view",
      "type": "function"
    },
    {
      "inputs": [
        {
          "internalType": "address",
          "name": "fee_to",
          "type": "address"
        }
      ],
      "name": "setFeeTo",
      "outputs": [],
      "stateMutability": "nonpayable",
      "type": "function"
    },
    {
      "inputs": [
        {
          "internalType": "address",
          "name": "",
          "type": "address"
        }
      ],
      "name": "token",
      "outputs": [
        {
          "internalType": "address",
          "name": "creator",
          "type": "address"
        },
        {
          "internalType": "address",
          "name": "token",
          "type": "address"
        },
        {
          "internalType": "address",
          "name": "pair",
          "type": "address"
        },
        {
          "internalType": "string",
          "name": "name",
          "type": "string"
        },
        {
          "internalType": "string",
          "name": "ticker",
          "type": "string"
        },
        {
          "internalType": "uint256",
          "name": "supply",
          "type": "uint256"
        },
        {
          "internalType": "string",
          "name": "description",
          "type": "string"
        },
        {
          "internalType": "string",
          "name": "image",
          "type": "string"
        },
        {
          "internalType": "string",
          "name": "twitter",
          "type": "string"
        },
        {
          "internalType": "string",
          "name": "telegram",
          "type": "string"
        },
        {
          "internalType": "string",
          "name": "youtube",
          "type": "string"
        },
        {
          "internalType": "string",
          "name": "website",
          "type": "string"
        },
        {
          "internalType": "bool",
          "name": "trading",
          "type": "bool"
        },
        {
          "internalType": "bool",
          "name": "tradingOnUniswap",
          "type": "bool"
        }
      ],
      "stateMutability": "view",
      "type": "function"
    },
    {
      "inputs": [
        {
          "internalType": "uint256",
          "name": "",
          "type": "uint256"
        }
      ],
      "name": "tokens",
      "outputs": [
        {
          "internalType": "address",
          "name": "creator",
          "type": "address"
        },
        {
          "internalType": "address",
          "name": "token",
          "type": "address"
        },
        {
          "internalType": "address",
          "name": "pair",
          "type": "address"
        },
        {
          "internalType": "string",
          "name": "name",
          "type": "string"
        },
        {
          "internalType": "string",
          "name": "ticker",
          "type": "string"
        },
        {
          "internalType": "uint256",
          "name": "supply",
          "type": "uint256"
        },
        {
          "internalType": "string",
          "name": "description",
          "type": "string"
        },
        {
          "internalType": "string",
          "name": "image",
          "type": "string"
        },
        {
          "internalType": "string",
          "name": "twitter",
          "type": "string"
        },
        {
          "internalType": "string",
          "name": "telegram",
          "type": "string"
        },
        {
          "internalType": "string",
          "name": "youtube",
          "type": "string"
        },
        {
          "internalType": "string",
          "name": "website",
          "type": "string"
        },
        {
          "internalType": "bool",
          "name": "trading",
          "type": "bool"
        },
        {
          "internalType": "bool",
          "name": "tradingOnUniswap",
          "type": "bool"
        }
      ],
      "stateMutability": "view",
      "type": "function"
    },
    {
      "inputs": [
        {
          "internalType": "uint256",
          "name": "_fee",
          "type": "uint256"
        }
      ],
      "name": "updateLaunchFee",
      "outputs": [
        {
          "internalType": "uint256",
          "name": "",
          "type": "uint256"
        }
      ],
      "stateMutability": "nonpayable",
      "type": "function"
    },
    {
      "inputs": [
        {
          "internalType": "uint256",
          "name": "_fee",
          "type": "uint256"
        }
      ],
      "name": "updateReferralFee",
      "outputs": [
        {
          "internalType": "uint256",
          "name": "",
          "type": "uint256"
        }
      ],
      "stateMutability": "nonpayable",
      "type": "function"
    }
  ],
  "bytecode": "0x6080346200019857601f62003dbf38819003918201601f19168301916001600160401b038311848410176200019d5780849260a09460405283398101031262000198576200004d81620001b3565b6200005b60208301620001b3565b916200006a60408201620001b3565b926080606083015192015193600160005560018060a01b0319933385600154161760015560018060a01b038080921693620000a7851515620001c8565b1691620000b6831515620001c8565b1691620000c5831515620001c8565b846002541617600255836003541617600355826004541617600455670de0b6b3a76400009081810291818304149015171562000182576103e89004600555600582116200013d57731689e7b1f10000ae47ebfe339a4f69decd19f602916006556007541617600755604051613ba99081620002168239f35b60405162461bcd60e51b815260206004820152601e60248201527f526566657272616c204665652063616e6e6f74206578636565642035252e00006044820152606490fd5b634e487b7160e01b600052601160045260246000fd5b600080fd5b634e487b7160e01b600052604160045260246000fd5b51906001600160a01b03821682036200019857565b15620001d057565b60405162461bcd60e51b815260206004820152601f60248201527f5a65726f2061646472657373657320617265206e6f7420616c6c6f7765642e006044820152606490fdfe60808060405260043610156200001457600080fd5b60009060e0823560e01c918263017e7e5814620015af57508163094b741514620015845781634c96a38914620013395781634f64b2be14620010b85781635c52a5f2146200105a5781636d46a1db1462000f715781637660f44a1462000f4c57816380997e471462000f2557816384ae2bc61462000f055781638a664ebc1462000e3057816398118cb41462000e125781639dd9d0fd1462000da9578163a153e6ff14620004b9578163aa6ca808146200031057508063c36fe3d614620002b5578063cf3cf5731462000295578063e1ea9d73146200018e578063f3f524b814620001695763f46901ed146200010957600080fd5b3462000166576020366003190112620001665762000126620015d6565b6001546001600160a01b03919062000142908316331462001a7c565b166200015081151562001ad8565b6001600160601b0360a01b600454161760045580f35b80fd5b5034620001665760203660031901126200016657602060043580600655604051908152f35b50346200016657806003193601126200016657620001b6620001b033620027ea565b62001b5d565b338152602060088152604082209160405190620001d3826200162a565b60018060a01b0393848154168352600192856001830154168582015260028201916040519283878254918281520191865287862090865b8181106200027f5750505060036060926200022c866200023a94038762001665565b604085019586520162001baa565b9101525193604051938085019181865286518093528160408701970193905b838210620002675786880387f35b84518116885296820196938201939085019062000259565b82548b168452928901929188019188016200020a565b503462000166578060031936011262000166576020600554604051908152f35b50346200016657602036600319011262000166576004356009548110156200030c57620002e29062001a41565b508054600190910154604080516001600160a01b03938416815292909116602083015290f35b0390f35b5080fd5b8234620001665780600319360112620001665750600b805467ffffffffffffffff8111620004a3576020600590604051936200035360208560051b018662001665565b8385526020850192600b6000527f0175b7a638427703f0dbe7bb9bbf987a2551717b34e79f33b5b1008d1fa01db9916000945b8686106200039e5760405180620003088a826200185f565b600d85600192604051620003b28162001647565b848060a01b0380895416825280868a015416848301526002890154166040820152620003e16003890162001688565b6060820152620003f46004890162001688565b60808201528688015460a0820152620004106006890162001688565b60c0820152620004236007890162001688565b8d820152600862000436818a0162001688565b6101008301526200044a60098a0162001688565b6101208301526200045e600a8a0162001688565b61014083015262000471878a0162001688565b610160830152600c89015460ff9182821615156101808501521c1615156101a082015281520194019501949262000386565b634e487b7160e01b600052604160045260246000fd5b82610100366003190112620001665767ffffffffffffffff60043581811162000da557620004ec903690600401620019f4565b602435828111620009bf5762000507903690600401620019f4565b926044358381116200030c5762000523903690600401620019f4565b9260643581811162000da5576200053f903690600401620019f4565b9360843593828511620009bf5736602386011215620009bf576040519462000567866200162a565b608481018636821162000c885782600401905b82821062000d7557505060e435949150506001600160a01b038416840362000d7057620005a6620026fe565b600554341062000d2b57604051906110ab90828281011090828401111762000bc95780829162002ac98339608081830152620005ff620005ec6080838501018662001739565b8284018103602084860101528b62001739565b9060a43560408285010152606060c4359184010152039085f094851562000d20576003546040516315ab88c960e31b815298906020908a9060049082906001600160a01b03165afa98891562000d1557869798996020916200069f989162000cf3575b506002546040516364e329cb60e11b81526001600160a01b038c8116600483015292831660248201529889929091169082908b9082906044820190565b03925af195861562000ce857879662000cb0575b5060035460405163313ce56760e01b81526001600160a01b0391821691602090829060049082908e165afa90811562000c2857620007046200071f93926200070d928c9162000c8c575b5062001d22565b60a43562001d4a565b906001600160a01b038b169062002722565b1562000c8857600534810204340362000c745762000744606434600502043462001d5e565b60035460405163313ce56760e01b81526001600160a01b039182169b92969291602090829060049082908f165afa90811562000c69578b9c6200079a62000704604094620007d3948f9162000c33575062001d22565b83519e8f9384928392630e505aa960e31b845260018060a01b03166004840160209093929193604081019460018060a01b031681520152565b039160643460050204905af19a8b1562000c28578a9b62000bf3575b50835191602085015193606060408701519601519660606040519e8f90620008178262001647565b33825260018060a01b0316602082015260018060a01b038d166040820152015260808d015260a43560a08d015260c08c015260e08b01526101008a015261012089015261014088015261016087015260019182610180880152846101a088015260018060a01b0386168552600a60205262000896876040872062001d85565b600b54600160401b9081811015620004a35784810180600b5581101562000bdd5788600d620008ed92600b600052027f0175b7a638427703f0dbe7bb9bbf987a2551717b34e79f33b5b1008d1fa01db90162001d85565b620008f833620027ea565b1562000a5357505033845260086020526040842082810180549192918691906001600160a01b031680620009c35750508080809360018060a01b03600454165af162000943620026c9565b5015620009bf5760609560036200095c925b016200264e565b600b546040518181529093906001600160a01b0384811691908716907f714aa39317ad9a7a7a99db52b44490da5d068a0b2710fffb1a1282ad3cadae1f90602090a355604080516001600160a01b03948516815291909316602082015291820152f35b8380fd5b8280929481928252620009dd336002604085200162002685565b620009fa6064620009f18360065462001d4a565b04809262001d5e565b95546001600160a01b03165af162000a11620026c9565b501562000a4f5760045485918291829182916001600160a01b03165af162000a38620026c9565b5015620009bf5760609560036200095c9262000955565b8480fd5b62000a6033151562001ad8565b6040519162000a6f836200162a565b33835260018060a01b0316602083015260606040830152606080830152338652600860205262000aa3826040882062002891565b6009549081101562000bc957808462000ac0920160095562001a41565b62000bb5579062000ad19162002891565b33845260086020526040842082810180549192918691906001600160a01b03168062000b325750508080809360018060a01b03600454165af162000b14620026c9565b5015620009bf57606095600362000b2c92016200264e565b6200095c565b828092948192825262000b4c336002604085200162002685565b62000b606064620009f18360065462001d4a565b95546001600160a01b03165af162000b77620026c9565b501562000a4f5760045485918291829182916001600160a01b03165af162000b9e620026c9565b5015620009bf57606095600362000b2c9262000955565b634e487b7160e01b86526004869052602486fd5b634e487b7160e01b86526041600452602486fd5b634e487b7160e01b600052603260045260246000fd5b62000c199060403d60401162000c20575b62000c10818362001665565b81019062001b46565b50620007ef565b503d62000c04565b6040513d8b823e3d90fd5b62000c5a915060203d60201162000c61575b62000c51818362001665565b81019062001d07565b38620006fd565b503d62000c45565b6040513d8c823e3d90fd5b634e487b7160e01b87526011600452602487fd5b8680fd5b62000ca9915060203d60201162000c615762000c51818362001665565b8e620006fd565b62000cd891965060203d60201162000ce0575b62000ccf818362001665565b81019062001b25565b9489620006b3565b503d62000cc3565b6040513d89823e3d90fd5b62000d0e9150823d841162000ce05762000ccf818362001665565b8b62000662565b6040513d88823e3d90fd5b6040513d86823e3d90fd5b60405162461bcd60e51b815260206004820152601960248201527f496e73756666696369656e7420616d6f756e742073656e742e000000000000006044820152606490fd5b600080fd5b813587811162000da15760209162000d95839260043691890101620019f4565b8152019101906200057a565b8880fd5b8280fd5b82346200016657602036600319011262000166576001600160a01b03906040908262000dd4620015d6565b168152600860205220906001818354169201541690620003086040519283928390602090939293604083019460018060a01b03809216845216910152565b82346200016657806003193601126200016657602060405160058152f35b8234620001665780600319360112620001665762000e52620001b033620027ea565b3381526020600860205260408220906040519262000e70846200162a565b60018060a01b0390818454168552600182600186015416602087015260028501926040519081956020865493848152019585526020852094915b83831062000eed576200030860608b62000edb60038d8d62000ecf818f038262001665565b60408501520162001baa565b9182910152604051918291826200185f565b85548116875295810195948401949184019162000eaa565b823462000166578060031936011262000166576020600654604051908152f35b82346200016657806003193601126200016657602060405169152d02c7e14af68000008152f35b8234620001665760203660031901126200016657602060043580600555604051908152f35b82346200016657602036600319011262000166576001600160a01b03908162000f99620015d6565b168152600a6020526040902081815416918060018301541690600283015416916003810162000fc89062001688565b9362000fd76004830162001688565b9160058101546006820162000fec9062001688565b62000ffa6007840162001688565b620010086008850162001688565b90620010176009860162001688565b9262001026600a870162001688565b9462001035600b880162001688565b96600c0154986040519c8d9c8d9c8c60081c60ff169c60ff169b620003089e6200177b565b823462000166576060366003190112620001665762001078620015d6565b60243591906001600160a01b038316830362000d7057620010ac600191602094620010a2620026fe565b6044359162002722565b91556040519015158152f35b823462000166576020366003190112620001665760043590600b54821015620001665750600b600052600d02600160a01b600190039081817f0175b7a638427703f0dbe7bb9bbf987a2551717b34e79f33b5b1008d1fa01db901541691807f0175b7a638427703f0dbe7bb9bbf987a2551717b34e79f33b5b1008d1fa01dba83015416907f0175b7a638427703f0dbe7bb9bbf987a2551717b34e79f33b5b1008d1fa01dbb83015416917f0175b7a638427703f0dbe7bb9bbf987a2551717b34e79f33b5b1008d1fa01dbc8101620011909062001688565b93620011be7f0175b7a638427703f0dbe7bb9bbf987a2551717b34e79f33b5b1008d1fa01dbd830162001688565b917f0175b7a638427703f0dbe7bb9bbf987a2551717b34e79f33b5b1008d1fa01dbe8101547f0175b7a638427703f0dbe7bb9bbf987a2551717b34e79f33b5b1008d1fa01dbf8201620012119062001688565b6200123e7f0175b7a638427703f0dbe7bb9bbf987a2551717b34e79f33b5b1008d1fa01dc0840162001688565b6200126b7f0175b7a638427703f0dbe7bb9bbf987a2551717b34e79f33b5b1008d1fa01dc1850162001688565b90620012997f0175b7a638427703f0dbe7bb9bbf987a2551717b34e79f33b5b1008d1fa01dc2860162001688565b92620012c77f0175b7a638427703f0dbe7bb9bbf987a2551717b34e79f33b5b1008d1fa01dc3870162001688565b94620012f57f0175b7a638427703f0dbe7bb9bbf987a2551717b34e79f33b5b1008d1fa01dc4880162001688565b967f0175b7a638427703f0dbe7bb9bbf987a2551717b34e79f33b5b1008d1fa01dc50154986040519c8d9c8d9c8c60081c60ff169c60ff169b620003089e6200177b565b823462000166576020806003193601126200030c5762001358620015d6565b9060018060a01b03620013718160015416331462001a7c565b6200137b620026fe565b808316926200138c84151562001ad8565b6004838360035416604051928380926315ab88c960e31b82525afa801562000d1557620013f8928592889262001560575b5060025460405163e6a4390560e01b81526001600160a01b039283166004820152919092166024820152928391851690829081906044820190565b03915afa908115620015015785916200153e575b50833b1562000a4f576040516306da678f60e51b81529082166004820152848160248183885af1801562001501576200150c575b50828452600a8252836040808220926064816003541691600154168351948593849263e79a408960e01b84528a600485015284602485015260448401525af1801562001501577f540bcec33387745b2ced30977dcfe4a623a245511eb0a133989c27c8bb95b4a99360409387938893620014d6575b50600c01805461ffff19166101001790558351928352820152a26001815580f35b600c9450620014f6919350853d871162000c205762000c10818362001665565b9390939290620014b5565b6040513d87823e3d90fd5b67ffffffffffffffff81959295116200152a57604052928462001440565b634e487b7160e01b82526041600452602482fd5b620015599150833d851162000ce05762000ccf818362001665565b856200140c565b6200157c919250833d851162000ce05762000ccf818362001665565b9088620013bd565b823462000166578060031936011262000166576001546040516001600160a01b039091168152602090f35b8390346200030c57816003193601126200030c576004546001600160a01b03168152602090f35b600435906001600160a01b038216820362000d7057565b90600182811c921680156200161f575b60208310146200160957565b634e487b7160e01b600052602260045260246000fd5b91607f1691620015fd565b6080810190811067ffffffffffffffff821117620004a357604052565b6101c0810190811067ffffffffffffffff821117620004a357604052565b90601f8019910116810190811067ffffffffffffffff821117620004a357604052565b906040519182600082546200169d81620015ed565b90818452602094600191600181169081600014620017155750600114620016d2575b505050620016d09250038362001665565b565b600090815285812095935091905b818310620016fc575050620016d09350820101388080620016bf565b85548884018501529485019487945091830191620016e0565b92505050620016d094925060ff191682840152151560051b820101388080620016bf565b919082519283825260005b84811062001766575050826000602080949584010152601f8019910116010190565b60208183018101518483018201520162001744565b9c9e9d9a966200182f9662001800918f6101a09f9c966200184f9e99620017dd6200181f9a6200183f9f986200180f9a620017ec956101c09260018060a01b0392838092168a5216602089015216604087015280606087015285019062001739565b90838203608085015262001739565b9260a082015260c081840391015262001739565b8d810360e08f01529062001739565b908b82036101008d015262001739565b908982036101208b015262001739565b9087820361014089015262001739565b9085820361016087015262001739565b9415156101808401521515910152565b6020808201908083528351809252604092604081018260408560051b8401019601946000925b85841062001897575050505050505090565b90919293949596858084600193620019ab62001996620019816200196c8f6200194362001925620019118f9362001957948f603f19908c0301905251996101c0908b8f8c8f82819360a01b03938492838251169052015116908d0152818d015116908b015260609080828d0151928c01528a019062001739565b6080808b0151908a8303908b015262001739565b60a0808a01519089015260c0808a015190898303908a015262001739565b60e080890151908883039089015262001739565b61010080880151908783039088015262001739565b61012080870151908683039087015262001739565b61014080860151908583039086015262001739565b61016080850151908483039085015262001739565b91610180808201511515908301526101a080910151151591015299019401940192959493919062001885565b67ffffffffffffffff8111620004a357601f01601f191660200190565b81601f8201121562000d705780359062001a0e82620019d7565b9262001a1e604051948562001665565b8284526020838301011162000d7057816000926020809301838601378301015290565b60095481101562000bdd57600960005260021b7f6e1540171b6c0c960b71a7020d9f60077f6af931a8bbf590da0223dacf75c7af0190600090565b1562001a8457565b60405162461bcd60e51b815260206004820152602660248201527f4f6e6c7920746865206f776e65722063616e2063616c6c20746869732066756e60448201526531ba34b7b71760d11b6064820152608490fd5b1562001ae057565b60405162461bcd60e51b815260206004820152601f60248201527f5a65726f2061646472657373657320617265206e6f7420616c6c6f7765642e006044820152606490fd5b9081602091031262000d7057516001600160a01b038116810362000d705790565b919082604091031262000d70576020825192015190565b1562001b6557565b60405162461bcd60e51b815260206004820152601c60248201527f557365722050726f66696c6520646f7365206e6f742065786973742e000000006044820152606490fd5b90815467ffffffffffffffff8111620004a3576020926005936040946040519562001bdc60208660051b018862001665565b84875260208701936000526020600020916000945b86861062001c025750505050505050565b600d85600192855162001c158162001647565b848060a01b0380895416825280868a015416848301526002890154168782015262001c436003890162001688565b606082015262001c566004890162001688565b60808201528588015460a082015262001c726006890162001688565b60c082015262001c856007890162001688565b60e0820152600862001c99818a0162001688565b61010083015262001cad60098a0162001688565b61012083015262001cc1600a8a0162001688565b61014083015262001cd5600b8a0162001688565b610160830152600c89015460ff9182821615156101808501521c1615156101a082015281520194019501949262001bf1565b9081602091031262000d70575160ff8116810362000d705790565b60ff16604d811162001d3457600a0a90565b634e487b7160e01b600052601160045260246000fd5b8181029291811591840414171562001d3457565b9190820391821162001d3457565b81811062001d78575050565b6000815560010162001d6c565b919060018060a01b039283825116936001600160601b0360a01b948583541617825560019081830195602096828887015116828254161790556002840191604086015116908254161790556003908183019060608501519081519267ffffffffffffffff93848111620004a35762001dfe8254620015ed565b93601f948b8682116200261b575b50508a90858311600114620025b15762001e409291600091836200211d575b50508160011b916000199060031b1c19161790565b90555b60049788860160808801518051908682116200259c5762001e658354620015ed565b8681116200255f575b508390868311600114620024f95762001ea09291600091836200211d5750508160011b916000199060031b1c19161790565b90555b60059460a0880151868801556006870160c08901518051908782116200228c5762001ecf8354620015ed565b878111620024c9575b508490878311600114620024635762001f0a9291600091836200211d5750508160011b916000199060031b1c19161790565b90555b6007870160e08901518051908782116200228c5762001f2d8354620015ed565b87811162002433575b508490878311600114620023cd5762001f689291600091836200211d5750508160011b916000199060031b1c19161790565b90555b600887016101008901518051908782116200228c5762001f8c8354620015ed565b8781116200239d575b508490878311600114620023375762001fc79291600091836200211d5750508160011b916000199060031b1c19161790565b90555b600987016101208901518051908782116200228c5762001feb8354620015ed565b87811162002307575b508490878311600114620022a157620020269291600091836200211d5750508160011b916000199060031b1c19161790565b90555b600a87016101408901518051908782116200228c576200204a8354620015ed565b87811162002251575b508490878311600114620021eb57620020859291600091836200211d5750508160011b916000199060031b1c19161790565b90555b600b8701956101608901519a8b51968711620021d65750620020ab8754620015ed565b85811162002199575b50508193851160011462002129575050509080620020ee92600c9697986000926200211d5750508160011b916000199060031b1c19161790565b90555b019061018081015115159060ff61ff006101a08554930151151560081b1692169061ffff191617179055565b01519050388062001e2b565b90919392601f198416998660005283600020936000905b8c82106200218157505084600c999a9b1062002166575b50505050811b019055620020f1565b01519060f884600019921b161c191690553880808062002157565b80888597829496860151815501960193019062002140565b620021c49188600052846000209087808a01821c830193878b10620021cc575b01901c019062001d6c565b3880620020b4565b93508293620021b9565b604190634e487b7160e01b6000525260246000fd5b869291601f1983169185600052876000209260005b898282106200223a575050841162002221575b505050811b01905562002088565b015160001983871b60f8161c1916905538808062002213565b8385015186558b9790950194938401930162002200565b6200227b908460005286600020898086018d1c82019289871062002282575b018c1c019062001d6c565b3862002053565b9250819262002270565b60418d634e487b7160e01b6000525260246000fd5b869291601f1983169185600052876000209260005b89828210620022f05750508411620022d7575b505050811b01905562002029565b015160001983871b60f8161c19169055388080620022c9565b8385015186558b97909501949384019301620022b6565b62002330908460005286600020898086018d1c8201928987106200228257018c1c019062001d6c565b3862001ff4565b869291601f1983169185600052876000209260005b898282106200238657505084116200236d575b505050811b01905562001fca565b015160001983871b60f8161c191690553880806200235f565b8385015186558b979095019493840193016200234c565b620023c6908460005286600020898086018d1c8201928987106200228257018c1c019062001d6c565b3862001f95565b869291601f1983169185600052876000209260005b898282106200241c575050841162002403575b505050811b01905562001f6b565b015160001983871b60f8161c19169055388080620023f5565b8385015186558b97909501949384019301620023e2565b6200245c908460005286600020898086018d1c8201928987106200228257018c1c019062001d6c565b3862001f36565b869291601f1983169185600052876000209260005b89828210620024b2575050841162002499575b505050811b01905562001f0d565b015160001983871b60f8161c191690553880806200248b565b8385015186558b9790950194938401930162002478565b620024f2908460005286600020898086018d1c8201928987106200228257018c1c019062001d6c565b3862001ed8565b859291601f1983169185600052866000209260005b888282106200254857505084116200252f575b505050811b01905562001ea3565b0151600019838b1b60f8161c1916905538808062002521565b8385015186558a979095019493840193016200250e565b6200258b9084600052856000208880860160051c82019288871062002592575b0160051c019062001d6c565b3862001e6e565b925081926200257f565b60418c634e487b7160e01b6000525260246000fd5b8492918c91601f1984168660005283600020936000905b828210620026015750508411620025e8575b505050811b01905562001e43565b0151600019838a1b60f8161c19169055388080620025da565b8484015186558997909501949384019390810190620025c8565b62002646918560005287826000209181870160051c830193871062002592570160051c019062001d6c565b388b62001e0c565b908154600160401b811015620004a3576001810180845581101562000bdd57620016d092600052600d602060002091020162001d85565b805490600160401b821015620004a3576001820180825582101562000bdd576000526020600020019060018060a01b03166001600160601b0360a01b825416179055565b3d15620026f9573d90620026dd82620019d7565b91620026ed604051938462001665565b82523d6000602084013e565b606090565b60026000541462002710576002600055565b604051633ee5aeb560e01b8152600490fd5b916200278491602091906001600160a01b039062002744828716151562001ad8565b16936200275385151562001ad8565b60405163095ea7b360e01b81526001600160a01b039091166004820152602481019190915291829081906044820190565b0381600080965af18015620027df57620027a0575b5050600190565b6020813d602011620027d6575b81620027bc6020938362001665565b810103126200030c57518015150362000166578062002799565b3d9150620027ad565b6040513d84823e3d90fd5b6001600160a01b039081166200280281151562001ad8565b6009549160005b8381106200281a5750505050600090565b8282620028278362001a41565b50541614620028395760010162002809565b50505050600190565b6200284e8154620015ed565b908162002859575050565b81601f600093116001146200286c575055565b9080839182526200288d601f60208420940160051c84016001850162001d6c565b5555565b60018060a01b0390818351166001600160601b0360a01b90818354161782556001936001830160209285848401511690825416179055600292600281019360408301519586519067ffffffffffffffff8211620004a357600160401b97888311620004a35786908854848a5580851062002aa8575b5001906000978852868820908a895b85811062002a93575050505050506060600380930193015191825196871162000bc95783548785558593929181891062002985575b50505091845282842091015b8484106200296657505050505050565b600d8382620029788994518662001d85565b0192019301929062002956565b9091929350600d9282600d0292600d84040362002a7f5788600d02600d81048a0362002a6b57868952878920889695948101939291015b838110620029cc5750506200294a565b849596508981959293949555898c8201558983820155620029ef84820162002842565b620029fd6004820162002842565b89600582015562002a116006820162002842565b62002a1f6007820162002842565b62002a2d6008820162002842565b62002a3b6009820162002842565b62002a49600a820162002842565b62002a57600b820162002842565b89600c8201550190879594939291620029bc565b634e487b7160e01b89526011600452602489fd5b634e487b7160e01b88526011600452602488fd5b898386511695019481850155018b9062002915565b62002ac1908a6000528584600020918201910162001d6c565b386200290656fe604060808152346200042957620010ab803803806200001e816200042e565b928339810190608081830312620004295780516001600160401b039190828111620004295783620000519183016200046a565b90602093848201519084821162000429576200006f9183016200046a565b606086830151920151906000943360018060a01b031987541617865533867f8be0079c531659141344cd1fd0a4f28419497f9722a3daafe3b4186f6b6457e08180a384518181116200034357600254906001968783811c931680156200041e575b8a84101462000324578190601f93848111620003ca575b508a9084831160011462000363578a9262000357575b5050600019600383901b1c191690871b176002555b8251918211620003435760039283548781811c9116801562000338575b8a821014620003245790818385949311620002cf575b50899183116001146200026c57889262000260575b505060001982841b1c191690851b1790555b670de0b6b3a7640000918281029281840414901517156200024c5781835560058111620001fe57907fddf252ad1be2c89b69c2b068fc378daa952ba7f163c4a11628f55a4df523b3ef929160045533845260058552858420556007845284832060ff199082828254161790553084528186852091825416179055549284519384523393a351610bce9081620004dd8239f35b855162461bcd60e51b815260048101869052602160248201527f4d6178205472616e73616374696f6e2063616e6e6f74206578636565642035256044820152601760f91b6064820152608490fd5b634e487b7160e01b84526011600452602484fd5b0151905038806200015a565b8489528989208894509190601f1984168a5b8c828210620002b857505084116200029f575b505050811b0190556200016c565b015160001983861b60f8161c1916905538808062000291565b8385015186558b979095019493840193016200027e565b909192508489528989208380860160051c8201928c87106200031a575b9186958b929594930160051c01915b8281106200030b57505062000145565b8b81558695508a9101620002fb565b92508192620002ec565b634e487b7160e01b89526022600452602489fd5b90607f16906200012f565b634e487b7160e01b87526041600452602487fd5b015190503880620000fd565b60028b528b8b208a94509190601f1984168c8e5b828210620003b2575050841162000398575b505050811b0160025562000112565b015160001960f88460031b161c1916905538808062000389565b8385015186558d979095019493840193018e62000377565b90915060028a528a8a208480850160051c8201928d861062000414575b918b91869594930160051c01915b82811062000405575050620000e7565b8c81558594508b9101620003f5565b92508192620003e7565b92607f1692620000d0565b600080fd5b6040519190601f01601f191682016001600160401b038111838210176200045457604052565b634e487b7160e01b600052604160045260246000fd5b919080601f84011215620004295782516001600160401b0381116200045457602090620004a0601f8201601f191683016200042e565b92818452828287010111620004295760005b818110620004c857508260009394955001015290565b8581018301518482018401528201620004b256fe608060408181526004918236101561001657600080fd5b600092833560e01c91826306fdde03146105b557508163095ea7b31461058b57816318160ddd1461056c57816323b872dd14610497578163313ce5671461047b57816370a0823114610443578163715018a6146103e45781637437681e146103c65781638da5cb5b1461039e57816395d89b4114610299578163a9059cbb14610268578163c2d0ffca146101b9578163db4cf1e01461010a575063dd62ed3e146100bf57600080fd5b34610106578060031936011261010657806020926100db6106bd565b6100e36106d8565b6001600160a01b0391821683526006865283832091168252845220549051908152f35b5080fd5b9050346101b55760203660031901126101b5576101256106bd565b83546001600160a01b03919061013e9083163314610726565b1690811561015e5750825260076020528120805460ff1916600117905580f35b608490602084519162461bcd60e51b8352820152602b60248201527f45524332303a204578636c756465204d61782054782066726f6d20746865207a60448201526a65726f206164647265737360a81b6064820152fd5b8280fd5b919050346101b55760203660031901126101b5578135916101e460018060a01b038554163314610726565b6005831161021c5791602091817fff3dd5e80294197918c284bbfc3dadd97d0b40ce92106110946329088f80068a945551908152a180f35b6020608492519162461bcd60e51b8352820152602160248201527f4d6178205472616e73616374696f6e2063616e6e6f74206578636565642035256044820152601760f91b6064820152fd5b5050346101065780600319360112610106576020906102926102886106bd565b6024359033610873565b5160018152f35b919050346101b557826003193601126101b55780519183600354906001908260011c92600181168015610394575b6020958686108214610381575084885290811561035f5750600114610306575b61030286866102f8828b03836106ee565b5191829182610674565b0390f35b929550600383527fc2575a0e9e593c00f959f8c92f12db2869c3395a3b0502d05e2516446f71f85b5b82841061034c5750505082610302946102f89282010194386102e7565b805486850188015292860192810161032f565b60ff191687860152505050151560051b83010192506102f882610302386102e7565b634e487b7160e01b845260229052602483fd5b93607f16936102c7565b505034610106578160031936011261010657905490516001600160a01b039091168152602090f35b9050346101b557826003193601126101b55760209250549051908152f35b83346104405780600319360112610440578054816001600160a01b03821661040d338214610726565b7f8be0079c531659141344cd1fd0a4f28419497f9722a3daafe3b4186f6b6457e08280a36001600160a01b031916815580f35b80fd5b5050346101065760203660031901126101065760209181906001600160a01b0361046b6106bd565b1681526005845220549051908152f35b5050346101065781600319360112610106576020905160128152f35b828434610440576060366003190112610440576104b26106bd565b906104bb6106d8565b6104c9604435809285610873565b6001600160a01b038316825260066020908152848320338452905283822054845192606084019067ffffffffffffffff8211858310176105595760208761029288610551898989898752602883527f45524332303a207472616e7366657220616d6f756e742065786365656473206188840152676c6c6f77616e636560c01b87840152610b4d565b903390610771565b634e487b7160e01b815260418852602490fd5b5050346101065781600319360112610106576020906001549051908152f35b5050346101065780600319360112610106576020906102926105ab6106bd565b6024359033610771565b92915034610670578360031936011261067057600254600181811c9186908281168015610666575b6020958686108214610381575084885290811561035f575060011461060d5761030286866102f8828b03836106ee565b929550600283527f405787fa12a823e0f2b7631cc41b3ba8828b3321ca811111fa75cd3aa3bb5ace5b8284106106535750505082610302946102f89282010194386102e7565b8054868501880152928601928101610636565b93607f16936105dd565b8380fd5b6020808252825181830181905290939260005b8281106106a957505060409293506000838284010152601f8019910116010190565b818101860151848201604001528501610687565b600435906001600160a01b03821682036106d357565b600080fd5b602435906001600160a01b03821682036106d357565b90601f8019910116810190811067ffffffffffffffff82111761071057604052565b634e487b7160e01b600052604160045260246000fd5b1561072d57565b606460405162461bcd60e51b815260206004820152602060248201527f4f776e61626c653a2063616c6c6572206973206e6f7420746865206f776e65726044820152fd5b6001600160a01b0390811691821561082257169182156107d25760207f8c5be1e5ebec7d5bd14f71427d1e84f3dd0314c0f7b2291e5b200ac8c7c3b925918360005260068252604060002085600052825280604060002055604051908152a3565b60405162461bcd60e51b815260206004820152602260248201527f45524332303a20617070726f766520746f20746865207a65726f206164647265604482015261737360f01b6064820152608490fd5b60405162461bcd60e51b8152602060048201526024808201527f45524332303a20617070726f76652066726f6d20746865207a65726f206164646044820152637265737360e01b6064820152608490fd5b9192916001600160a01b03908116918215610afa5716908115610aa9578315610a5257600480549460015495868102968188041490151715610a3d576000958387526020926007845260409160ff838a205416156109ec575b50848852600584528188205482519083820182811067ffffffffffffffff8211176109d957610928929186918652601e83527f536166654d6174683a207375627472616374696f6e206f766572666c6f77000088840152610b4d565b85895260058552828920558588528188205490838201918281116109c657821061098357508188877fddf252ad1be2c89b69c2b068fc378daa952ba7f163c4a11628f55a4df523b3ef9798999a5260058652205551908152a3565b825162461bcd60e51b8152908101859052601b60248201527f536166654d6174683a206164646974696f6e206f766572666c6f7700000000006044820152606490fd5b634e487b7160e01b8a526011825260248afd5b634e487b7160e01b8b526041845260248bfd5b6064900483116109fc57386108cc565b83606492519162461bcd60e51b8352820152601860248201527f4578636565647320746865204d61785478416d6f756e742e00000000000000006044820152fd5b601182634e487b7160e01b6000525260246000fd5b60405162461bcd60e51b815260206004820152602960248201527f5472616e7366657220616d6f756e74206d7573742062652067726561746572206044820152687468616e207a65726f60b81b6064820152608490fd5b60405162461bcd60e51b815260206004820152602360248201527f45524332303a207472616e7366657220746f20746865207a65726f206164647260448201526265737360e81b6064820152608490fd5b60405162461bcd60e51b815260206004820152602560248201527f45524332303a207472616e736665722066726f6d20746865207a65726f206164604482015264647265737360d81b6064820152608490fd5b91828211610b7857508103908111610b625790565b634e487b7160e01b600052601160045260246000fd5b60405162461bcd60e51b8152908190610b949060048301610674565b0390fdfea2646970667358221220c49e554740cb71aa09a85b3746b1a934acbfb9371a9f5eefd27a7b626ea785f264736f6c63430008180033a2646970667358221220f5bc108c894dfce14c82846adfc07dbfa2249961627447ac44eb42a604ea318664736f6c63430008180033",
  "linkReferences": {},
  "deployedLinkReferences": {}
}