{
  "_format": "hh-sol-artifact-1",
  "contractName": "PumpFun",
  "sourceName": "contracts/PumpFun.sol",
  "abi": [
    {
      "inputs": [
        {
          "internalType": "address",
          "name": "factory_",
          "type": "address"
        },
        {
          "internalType": "address",
          "name": "router_",
          "type": "address"
        },
        {
          "internalType": "address",
          "name": "fee_to",
          "type": "address"
        },
        {
          "internalType": "uint256",
          "name": "_fee",
          "type": "uint256"
        },
        {
          "internalType": "uint256",
          "name": "_refFee",
          "type": "uint256"
        }
      ],
      "stateMutability": "nonpayable",
      "type": "constructor"
    },
    {
      "inputs": [],
      "name": "ReentrancyGuardReentrantCall",
      "type": "error"
    },
    {
      "anonymous": false,
      "inputs": [
        {
          "indexed": true,
          "internalType": "address",
          "name": "token",
          "type": "address"
        },
        {
          "indexed": false,
          "internalType": "uint256",
          "name": "amount0",
          "type": "uint256"
        },
        {
          "indexed": false,
          "internalType": "uint256",
          "name": "amount1",
          "type": "uint256"
        }
      ],
      "name": "Deployed",
      "type": "event"
    },
    {
      "anonymous": false,
      "inputs": [
        {
          "indexed": true,
          "internalType": "address",
          "name": "token",
          "type": "address"
        },
        {
          "indexed": true,
          "internalType": "address",
          "name": "pair",
          "type": "address"
        },
        {
          "indexed": false,
          "internalType": "uint256",
          "name": "",
          "type": "uint256"
        }
      ],
      "name": "Launched",
      "type": "event"
    },
    {
      "inputs": [
        {
          "internalType": "address",
          "name": "_user",
          "type": "address"
        },
        {
          "internalType": "address",
          "name": "_token",
          "type": "address"
        },
        {
          "internalType": "uint256",
          "name": "amount",
          "type": "uint256"
        }
      ],
      "name": "approval",
      "outputs": [
        {
          "internalType": "bool",
          "name": "",
          "type": "bool"
        }
      ],
      "stateMutability": "nonpayable",
      "type": "function"
    },
    {
      "inputs": [
        {
          "internalType": "address",
          "name": "tk",
          "type": "address"
        }
      ],
      "name": "deploy",
      "outputs": [],
      "stateMutability": "nonpayable",
      "type": "function"
    },
    {
      "inputs": [],
      "name": "feeTo",
      "outputs": [
        {
          "internalType": "address",
          "name": "",
          "type": "address"
        }
      ],
      "stateMutability": "view",
      "type": "function"
    },
    {
      "inputs": [],
      "name": "feeToSetter",
      "outputs": [
        {
          "internalType": "address",
          "name": "",
          "type": "address"
        }
      ],
      "stateMutability": "view",
      "type": "function"
    },
    {
      "inputs": [
        {
          "internalType": "string",
          "name": "_name",
          "type": "string"
        },
        {
          "internalType": "string",
          "name": "_ticker",
          "type": "string"
        },
        {
          "internalType": "string",
          "name": "desc",
          "type": "string"
        },
        {
          "internalType": "string",
          "name": "img",
          "type": "string"
        },
        {
          "internalType": "string[4]",
          "name": "urls",
          "type": "string[4]"
        },
        {
          "internalType": "uint256",
          "name": "_supply",
          "type": "uint256"
        },
        {
          "internalType": "uint256",
          "name": "maxTx",
          "type": "uint256"
        },
        {
          "internalType": "address",
          "name": "ref",
          "type": "address"
        }
      ],
      "name": "launch",
      "outputs": [
        {
          "internalType": "address",
          "name": "",
          "type": "address"
        },
        {
          "internalType": "address",
          "name": "",
          "type": "address"
        },
        {
          "internalType": "uint256",
          "name": "",
          "type": "uint256"
        }
      ],
      "stateMutability": "payable",
      "type": "function"
    },
    {
      "inputs": [],
      "name": "launchFee",
      "outputs": [
        {
          "internalType": "uint256",
          "name": "",
          "type": "uint256"
        }
      ],
      "stateMutability": "view",
      "type": "function"
    },
    {
      "inputs": [],
      "name": "liquidityFee",
      "outputs": [
        {
          "internalType": "uint256",
          "name": "",
          "type": "uint256"
        }
      ],
      "stateMutability": "pure",
      "type": "function"
    },
    {
      "inputs": [],
      "name": "marketCapLimit",
      "outputs": [
        {
          "internalType": "uint256",
          "name": "",
          "type": "uint256"
        }
      ],
      "stateMutability": "pure",
      "type": "function"
    },
    {
      "inputs": [
        {
          "internalType": "address",
          "name": "",
          "type": "address"
        }
      ],
      "name": "profile",
      "outputs": [
        {
          "internalType": "address",
          "name": "user",
          "type": "address"
        },
        {
          "internalType": "address",
          "name": "referree",
          "type": "address"
        }
      ],
      "stateMutability": "view",
      "type": "function"
    },
    {
      "inputs": [
        {
          "internalType": "uint256",
          "name": "",
          "type": "uint256"
        }
      ],
      "name": "profiles",
      "outputs": [
        {
          "internalType": "address",
          "name": "user",
          "type": "address"
        },
        {
          "internalType": "address",
          "name": "referree",
          "type": "address"
        }
      ],
      "stateMutability": "view",
      "type": "function"
    },
    {
      "inputs": [],
      "name": "referralFee",
      "outputs": [
        {
          "internalType": "uint256",
          "name": "",
          "type": "uint256"
        }
      ],
      "stateMutability": "view",
      "type": "function"
    },
    {
      "inputs": [
        {
          "internalType": "address",
          "name": "fee_to",
          "type": "address"
        }
      ],
      "name": "setFeeTo",
      "outputs": [],
      "stateMutability": "nonpayable",
      "type": "function"
    },
    {
      "inputs": [
        {
          "internalType": "address",
          "name": "",
          "type": "address"
        }
      ],
      "name": "token",
      "outputs": [
        {
          "internalType": "address",
          "name": "token",
          "type": "address"
        },
        {
          "internalType": "address",
          "name": "pair",
          "type": "address"
        },
        {
          "internalType": "string",
          "name": "name",
          "type": "string"
        },
        {
          "internalType": "string",
          "name": "ticker",
          "type": "string"
        },
        {
          "internalType": "uint256",
          "name": "supply",
          "type": "uint256"
        },
        {
          "internalType": "string",
          "name": "description",
          "type": "string"
        },
        {
          "internalType": "string",
          "name": "image",
          "type": "string"
        },
        {
          "internalType": "string",
          "name": "twitter",
          "type": "string"
        },
        {
          "internalType": "string",
          "name": "telegram",
          "type": "string"
        },
        {
          "internalType": "string",
          "name": "youtube",
          "type": "string"
        },
        {
          "internalType": "string",
          "name": "website",
          "type": "string"
        },
        {
          "internalType": "bool",
          "name": "trading",
          "type": "bool"
        },
        {
          "internalType": "bool",
          "name": "tradingOnUniswap",
          "type": "bool"
        }
      ],
      "stateMutability": "view",
      "type": "function"
    },
    {
      "inputs": [
        {
          "internalType": "uint256",
          "name": "",
          "type": "uint256"
        }
      ],
      "name": "tokens",
      "outputs": [
        {
          "internalType": "address",
          "name": "token",
          "type": "address"
        },
        {
          "internalType": "address",
          "name": "pair",
          "type": "address"
        },
        {
          "internalType": "string",
          "name": "name",
          "type": "string"
        },
        {
          "internalType": "string",
          "name": "ticker",
          "type": "string"
        },
        {
          "internalType": "uint256",
          "name": "supply",
          "type": "uint256"
        },
        {
          "internalType": "string",
          "name": "description",
          "type": "string"
        },
        {
          "internalType": "string",
          "name": "image",
          "type": "string"
        },
        {
          "internalType": "string",
          "name": "twitter",
          "type": "string"
        },
        {
          "internalType": "string",
          "name": "telegram",
          "type": "string"
        },
        {
          "internalType": "string",
          "name": "youtube",
          "type": "string"
        },
        {
          "internalType": "string",
          "name": "website",
          "type": "string"
        },
        {
          "internalType": "bool",
          "name": "trading",
          "type": "bool"
        },
        {
          "internalType": "bool",
          "name": "tradingOnUniswap",
          "type": "bool"
        }
      ],
      "stateMutability": "view",
      "type": "function"
    },
    {
      "inputs": [
        {
          "internalType": "uint256",
          "name": "_fee",
          "type": "uint256"
        }
      ],
      "name": "updateLaunchFee",
      "outputs": [
        {
          "internalType": "uint256",
          "name": "",
          "type": "uint256"
        }
      ],
      "stateMutability": "nonpayable",
      "type": "function"
    },
    {
      "inputs": [
        {
          "internalType": "uint256",
          "name": "_fee",
          "type": "uint256"
        }
      ],
      "name": "updateReferralFee",
      "outputs": [
        {
          "internalType": "uint256",
          "name": "",
          "type": "uint256"
        }
      ],
      "stateMutability": "nonpayable",
      "type": "function"
    }
  ],
  "bytecode": "0x6080346200017957601f6200366a38819003918201601f19168301916001600160401b038311848410176200017e5780849260a09460405283398101031262000179576200004d8162000194565b906200005c6020820162000194565b6200006a6040830162000194565b926080606084015193015193600160005560018060a01b0319913383600154161760015560018060a01b038080921694620000a7861515620001a9565b1691620000b6831515620001a9565b1692620000c5841515620001a9565b8260025416176002558160035416176003556004541617600455670de0b6b3a76400009081810291818304149015171562000163576103e89004600555600581116200011e576006556040516134739081620001f78239f35b60405162461bcd60e51b815260206004820152601e60248201527f526566657272616c204665652063616e6e6f74206578636565642035252e00006044820152606490fd5b634e487b7160e01b600052601160045260246000fd5b600080fd5b634e487b7160e01b600052604160045260246000fd5b51906001600160a01b03821682036200017957565b15620001b157565b60405162461bcd60e51b815260206004820152601f60248201527f5a65726f2061646472657373657320617265206e6f7420616c6c6f7765642e006044820152606490fdfe60808060405260043610156200001457600080fd5b600090813560e01c908163017e7e5814620011f457508063094b741514620011c95780634c96a3891462000f9a5780634f64b2be1462000d425780635c52a5f21462000ce45780636d46a1db1462000c045780637660f44a1462000bdf57806380997e471462000bb857806384ae2bc61462000b9857806398118cb41462000b7a5780639dd9d0fd1462000b11578063a153e6ff14620001e2578063c36fe3d61462000187578063cf3cf5731462000167578063f3f524b814620001425763f46901ed14620000e257600080fd5b346200013f5760203660031901126200013f57620000ff6200121b565b6001546001600160a01b0391906200011b90831633146200151e565b16620001298115156200157a565b6001600160601b0360a01b600454161760045580f35b80fd5b50346200013f5760203660031901126200013f57602060043580600655604051908152f35b50346200013f57806003193601126200013f576020600554604051908152f35b50346200013f5760203660031901126200013f57600435600854811015620001de57620001b490620014e3565b508054600190910154604080516001600160a01b03938416815292909116602083015290f35b0390f35b5080fd5b506101003660031901126200013f576004356001600160401b038111620001de576200021390369060040162001496565b6024356001600160401b03811162000b0d576200023590369060040162001496565b6044356001600160401b03811162000716576200025790369060040162001496565b926064356001600160401b038111620001de576200027a90369060040162001496565b91608435926001600160401b03841162000b0d573660238501121562000b0d5760405193620002a9856200126f565b608481018536821162000b095782600401905b82821062000ad257505060e435939150506001600160a01b038316830362000acd57620002e862001fcf565b600554341062000a8857604051806110ab8101106001600160401b036110ab8301111762000a74576110ab62002393823960806110ab82015280620003506200033960806110ab8401018a6200135e565b6110ab8301810360206110ab85010152846200135e565b60a43560406110ab8401015260c43560606110ab84010152039085f094851562000a69576003546040516315ab88c960e31b815298906020908a9060049082906001600160a01b03165afa98891562000a5e5786979899602091620003f3989162000a3c575b506002546040516364e329cb60e11b81526001600160a01b038c8116600483015292831660248201529889929091169082908b9082906044820190565b03925af195861562000a31578796620009f9575b5060035460405163313ce56760e01b81526001600160a01b0391821691602090829060049082908e165afa90811562000995576200045862000473939262000461928c91620009a0575b506200161a565b60a43562001642565b906001600160a01b038b169062001ff3565b15620009f5576005348102043403620009e15762000498606434600502043462001656565b60035460405163313ce56760e01b81529195916001600160a01b0391821691602090829060049082908f165afa908115620009d65791620004ec620004586040936200051e958e91620009a057506200161a565b8251630e505aa960e31b81526001600160a01b038e166004820152602481019190915292839190829081906044820190565b039160643460050204905af18015620009955762000960575b5082519060208401519260606040860151950151956040519c8d6001600160401b036101a08281810110920111176200094a5760408e8e6101a08201835260018060a01b0316815260018060a01b038d166020820152015260608d015260a43560808d015260a08c015260c08b015260e08a0152610100890152610120880152610140870152600191826101608801528461018088015260018060a01b03861685526009602052620005ed87604087206200167d565b600a54600160401b90818110156200094a5784810180600a55811015620009345788600c6200064492600a600052027fc65a7bb8d6351c1cf70c95a316cc6a92839c986682d98bc35f958f4883f9d2a8016200167d565b6200064f33620020bb565b15620007aa57505033845260076020526040842082810180549192918691906001600160a01b0316806200071a5750508080809360018060a01b03600454165af16200069a62001f9a565b501562000716576060956003620006b3925b0162001f1f565b600a546040518181529093906001600160a01b0384811691908716907f714aa39317ad9a7a7a99db52b44490da5d068a0b2710fffb1a1282ad3cadae1f90602090a355604080516001600160a01b03948516815291909316602082015291820152f35b8380fd5b828092948192825262000734336002604085200162001f56565b620007516064620007488360065462001642565b04809262001656565b95546001600160a01b03165af16200076862001f9a565b5015620007a65760045485918291829182916001600160a01b03165af16200078f62001f9a565b501562000716576060956003620006b392620006ac565b8480fd5b620007b73315156200157a565b60405191620007c6836200126f565b33835260018060a01b03166020830152606060408301526060808301523386526007602052620007fa826040882062002162565b6008549081101562000920578084620008179201600855620014e3565b6200090c5790620008289162002162565b33845260076020526040842082810180549192918691906001600160a01b031680620008895750508080809360018060a01b03600454165af16200086b62001f9a565b50156200071657606095600362000883920162001f1f565b620006b3565b8280929481928252620008a3336002604085200162001f56565b620008b76064620007488360065462001642565b95546001600160a01b03165af1620008ce62001f9a565b5015620007a65760045485918291829182916001600160a01b03165af1620008f562001f9a565b5015620007165760609560036200088392620006ac565b634e487b7160e01b86526004869052602486fd5b634e487b7160e01b86526041600452602486fd5b634e487b7160e01b600052603260045260246000fd5b634e487b7160e01b600052604160045260246000fd5b620009869060403d6040116200098d575b6200097d81836200128b565b810190620015e8565b5062000537565b503d62000971565b6040513d8b823e3d90fd5b620009c7915060203d602011620009ce575b620009be81836200128b565b810190620015ff565b3862000451565b503d620009b2565b6040513d8c823e3d90fd5b634e487b7160e01b87526011600452602487fd5b8680fd5b62000a2191965060203d60201162000a29575b62000a1881836200128b565b810190620015c7565b943862000407565b503d62000a0c565b6040513d89823e3d90fd5b62000a579150823d841162000a295762000a1881836200128b565b38620003b6565b6040513d88823e3d90fd5b6040513d86823e3d90fd5b634e487b7160e01b85526041600452602485fd5b60405162461bcd60e51b815260206004820152601960248201527f496e73756666696369656e7420616d6f756e742073656e742e000000000000006044820152606490fd5b600080fd5b81356001600160401b03811162000b055760209162000af983926004369189010162001496565b815201910190620002bc565b8780fd5b8580fd5b8280fd5b50346200013f5760203660031901126200013f576001600160a01b03906040908262000b3c6200121b565b168152600760205220906001818354169201541690620001da6040519283928390602090939293604083019460018060a01b03809216845216910152565b50346200013f57806003193601126200013f57602060405160058152f35b50346200013f57806003193601126200013f576020600654604051908152f35b50346200013f57806003193601126200013f57602060405169152d02c7e14af68000008152f35b50346200013f5760203660031901126200013f57602060043580600555604051908152f35b50346200013f5760203660031901126200013f576001600160a01b03908162000c2c6200121b565b16815260096020526040902081815416916001820154166002820162000c5290620012ad565b9162000c6160038201620012ad565b936004820154916005810162000c7790620012ad565b62000c8560068301620012ad565b62000c9360078401620012ad565b62000ca160088501620012ad565b9162000cb060098601620012ad565b9362000cbf600a8701620012ad565b95600b0154976040519b8c9b8c9b8b60081c60ff169b60ff169a620001da9d620013a0565b50346200013f5760603660031901126200013f5762000d026200121b565b60243591906001600160a01b038316830362000acd5762000d3660019160209462000d2c62001fcf565b6044359162001ff3565b91556040519015158152f35b50346200013f5760203660031901126200013f5760043590600a548210156200013f5750600a600052600c027fc65a7bb8d6351c1cf70c95a316cc6a92839c986682d98bc35f958f4883f9d2a88101547fc65a7bb8d6351c1cf70c95a316cc6a92839c986682d98bc35f958f4883f9d2a98201546001600160a01b0391821692911662000df17fc65a7bb8d6351c1cf70c95a316cc6a92839c986682d98bc35f958f4883f9d2aa8301620012ad565b9162000e1f7fc65a7bb8d6351c1cf70c95a316cc6a92839c986682d98bc35f958f4883f9d2ab8201620012ad565b937fc65a7bb8d6351c1cf70c95a316cc6a92839c986682d98bc35f958f4883f9d2ac820154917fc65a7bb8d6351c1cf70c95a316cc6a92839c986682d98bc35f958f4883f9d2ad810162000e7390620012ad565b62000ea07fc65a7bb8d6351c1cf70c95a316cc6a92839c986682d98bc35f958f4883f9d2ae8301620012ad565b62000ecd7fc65a7bb8d6351c1cf70c95a316cc6a92839c986682d98bc35f958f4883f9d2af8401620012ad565b62000efa7fc65a7bb8d6351c1cf70c95a316cc6a92839c986682d98bc35f958f4883f9d2b08501620012ad565b9162000f287fc65a7bb8d6351c1cf70c95a316cc6a92839c986682d98bc35f958f4883f9d2b18601620012ad565b9362000f567fc65a7bb8d6351c1cf70c95a316cc6a92839c986682d98bc35f958f4883f9d2b28701620012ad565b957fc65a7bb8d6351c1cf70c95a316cc6a92839c986682d98bc35f958f4883f9d2b30154976040519b8c9b8c9b8b60081c60ff169b60ff169a620001da9d620013a0565b50346200013f57602080600319360112620001de578162000fba6200121b565b9160018060a01b0362000fd3816001541633146200151e565b62000fdd62001fcf565b8084169362000fee8515156200157a565b6004838360035416604051928380926315ab88c960e31b82525afa8015620011be576200105a92859287926200119a575b5060025460405163e6a4390560e01b81526001600160a01b039283166004820152919092166024820152928391851690829081906044820190565b03915afa90811562000a6957849162001178575b50843b1562000716576040516306da678f60e51b81529082166004820152838160248183895af1801562000a69576200115a575b5060409084845260098352600b8285200160ff1981541690556064816003541691600154168351958693849263e79a408960e01b845289600485015284602485015260448401525af191821562000a69577f540bcec33387745b2ced30977dcfe4a623a245511eb0a133989c27c8bb95b4a9926040928692879262001133575b508351928352820152a26001815580f35b909250620011519150833d85116200098d576200097d81836200128b565b90913862001122565b9092506001600160401b03811162000a7457604052839138620010a2565b620011939150833d851162000a295762000a1881836200128b565b386200106e565b620011b6919250833d851162000a295762000a1881836200128b565b90386200101f565b6040513d87823e3d90fd5b50346200013f57806003193601126200013f576001546040516001600160a01b039091168152602090f35b905034620001de5781600319360112620001de576004546001600160a01b03168152602090f35b600435906001600160a01b038216820362000acd57565b90600182811c9216801562001264575b60208310146200124e57565b634e487b7160e01b600052602260045260246000fd5b91607f169162001242565b608081019081106001600160401b038211176200094a57604052565b90601f801991011681019081106001600160401b038211176200094a57604052565b90604051918260008254620012c28162001232565b908184526020946001916001811690816000146200133a5750600114620012f7575b505050620012f5925003836200128b565b565b600090815285812095935091905b81831062001321575050620012f59350820101388080620012e4565b8554888401850152948501948794509183019162001305565b92505050620012f594925060ff191682840152151560051b820101388080620012e4565b919082519283825260005b8481106200138b575050826000602080949584010152601f8019910116010190565b60208183018101518483018201520162001369565b9b9d9c9995966200141c6200144a966200145a998f6101809f9c966200146a9e99620013f96200143a9a62001408936200142b9a6101a09160018060a01b0380921688521660208701528060408701528501906200135e565b9083820360608501526200135e565b92608082015260a08184039101526200135e565b8d810360c08f0152906200135e565b908b820360e08d01526200135e565b908982036101008b01526200135e565b908782036101208901526200135e565b908582036101408701526200135e565b9415156101608401521515910152565b6001600160401b0381116200094a57601f01601f191660200190565b81601f8201121562000acd57803590620014b0826200147a565b92620014c060405194856200128b565b8284526020838301011162000acd57816000926020809301838601378301015290565b6008548110156200093457600860005260021b7ff3f7a9fe364faab93b216da50a3214154f22a0a2b415b23a84c8169e8b636ee30190600090565b156200152657565b60405162461bcd60e51b815260206004820152602660248201527f4f6e6c7920746865206f776e65722063616e2063616c6c20746869732066756e60448201526531ba34b7b71760d11b6064820152608490fd5b156200158257565b60405162461bcd60e51b815260206004820152601f60248201527f5a65726f2061646472657373657320617265206e6f7420616c6c6f7765642e006044820152606490fd5b9081602091031262000acd57516001600160a01b038116810362000acd5790565b919082604091031262000acd576020825192015190565b9081602091031262000acd575160ff8116810362000acd5790565b60ff16604d81116200162c57600a0a90565b634e487b7160e01b600052601160045260246000fd5b818102929181159184041417156200162c57565b919082039182116200162c57565b81811062001670575050565b6000815560010162001664565b919060018060a01b0392838251166001600160601b0360a01b9081835416178255600190818301906020968786015116908254161790556002820160408401518051916001600160401b03928381116200094a57620016dd825462001232565b92601f938a85821162001eec575b5050899084831160011462001e83576200171f929160009183620019ff575b50508160011b916000199060031b1c19161790565b90555b60039283850160608701518051908582116200094a5762001744835462001232565b8b86821162001e45575b50508a9085831160011462001ddb5762001781929160009183620019ff5750508160011b916000199060031b1c19161790565b90555b60049760808701518987015560059485870160a089015180519087821162001b6e57620017b2835462001232565b87811162001dab575b50849087831160011462001d4557620017ed929160009183620019ff5750508160011b916000199060031b1c19161790565b90555b6006870160c089015180519087821162001b6e5762001810835462001232565b87811162001d15575b50849087831160011462001caf576200184b929160009183620019ff5750508160011b916000199060031b1c19161790565b90555b6007870160e089015180519087821162001b6e576200186e835462001232565b87811162001c7f575b50849087831160011462001c1957620018a9929160009183620019ff5750508160011b916000199060031b1c19161790565b90555b6008870161010089015180519087821162001b6e57620018cd835462001232565b87811162001be9575b50849087831160011462001b835762001908929160009183620019ff5750508160011b916000199060031b1c19161790565b90555b6009870161012089015180519087821162001b6e576200192c835462001232565b87811162001b33575b50849087831160011462001acd5762001967929160009183620019ff5750508160011b916000199060031b1c19161790565b90555b600a8701956101408901519a8b5196871162001ab857506200198d875462001232565b85811162001a7b575b50508193851160011462001a0b575050509080620019d092600b969798600092620019ff5750508160011b916000199060031b1c19161790565b90555b019061016081015115159060ff61ff006101808554930151151560081b1692169061ffff191617179055565b0151905038806200170a565b90919392601f198416998660005283600020936000905b8c821062001a6357505084600b999a9b1062001a48575b50505050811b019055620019d3565b01519060f884600019921b161c191690553880808062001a39565b80888597829496860151815501960193019062001a22565b62001aa69188600052846000209087808a01821c830193878b1062001aae575b01901c019062001664565b388062001996565b9350829362001a9b565b604190634e487b7160e01b6000525260246000fd5b869291601f1983169185600052876000209260005b8982821062001b1c575050841162001b03575b505050811b0190556200196a565b015160001983871b60f8161c1916905538808062001af5565b8385015186558b9790950194938401930162001ae2565b62001b5d908460005286600020898086018d1c82019289871062001b64575b018c1c019062001664565b3862001935565b9250819262001b52565b60418d634e487b7160e01b6000525260246000fd5b869291601f1983169185600052876000209260005b8982821062001bd2575050841162001bb9575b505050811b0190556200190b565b015160001983871b60f8161c1916905538808062001bab565b8385015186558b9790950194938401930162001b98565b62001c12908460005286600020898086018d1c82019289871062001b6457018c1c019062001664565b38620018d6565b869291601f1983169185600052876000209260005b8982821062001c68575050841162001c4f575b505050811b019055620018ac565b015160001983871b60f8161c1916905538808062001c41565b8385015186558b9790950194938401930162001c2e565b62001ca8908460005286600020898086018d1c82019289871062001b6457018c1c019062001664565b3862001877565b869291601f1983169185600052876000209260005b8982821062001cfe575050841162001ce5575b505050811b0190556200184e565b015160001983871b60f8161c1916905538808062001cd7565b8385015186558b9790950194938401930162001cc4565b62001d3e908460005286600020898086018d1c82019289871062001b6457018c1c019062001664565b3862001819565b869291601f1983169185600052876000209260005b8982821062001d94575050841162001d7b575b505050811b019055620017f0565b015160001983871b60f8161c1916905538808062001d6d565b8385015186558b9790950194938401930162001d5a565b62001dd4908460005286600020898086018d1c82019289871062001b6457018c1c019062001664565b38620017bb565b8492918c91601f1984168660005283600020936000905b82821062001e2b575050841162001e12575b505050811b01905562001784565b0151600019838a1b60f8161c1916905538808062001e04565b848401518655899790950194938401939081019062001df2565b62001e71918560005287826000209181870160051c830193871062001e79575b0160051c019062001664565b388b6200174e565b9250819262001e65565b869291601f19831691856000528c600020928d6000905b82821062001ed4575050841162001eba575b505050811b01905562001722565b015160001960f88460031b161c1916905538808062001eac565b8385015186558b979095019493840193018e62001e9a565b62001f17918560005286826000209181870160051c830193871062001e79570160051c019062001664565b388a620016eb565b908154600160401b8110156200094a57600181018084558110156200093457620012f592600052600c60206000209102016200167d565b805490600160401b8210156200094a576001820180825582101562000934576000526020600020019060018060a01b03166001600160601b0360a01b825416179055565b3d1562001fca573d9062001fae826200147a565b9162001fbe60405193846200128b565b82523d6000602084013e565b606090565b60026000541462001fe1576002600055565b604051633ee5aeb560e01b8152600490fd5b916200205591602091906001600160a01b03906200201582871615156200157a565b1693620020248515156200157a565b60405163095ea7b360e01b81526001600160a01b039091166004820152602481019190915291829081906044820190565b0381600080965af18015620020b05762002071575b5050600190565b6020813d602011620020a7575b816200208d602093836200128b565b81010312620001de5751801515036200013f57806200206a565b3d91506200207e565b6040513d84823e3d90fd5b6001600160a01b03908116620020d38115156200157a565b6008549160005b838110620020eb5750505050600090565b8282620020f883620014e3565b505416146200210a57600101620020da565b50505050600190565b6200211f815462001232565b90816200212a575050565b81601f600093116001146200213d575055565b9080839182526200215e601f60208420940160051c84016001850162001664565b5555565b60018060a01b0390818351166001600160601b0360a01b9081835416178255600193600183016020928584840151169082541617905560029260028101936040830151958651906001600160401b0382116200094a57600160401b978883116200094a5786908854848a5580851062002372575b5001906000978852868820908a895b8581106200235d5750505050505060606003809301930151918251968711620009205783548785558593929181891062002255575b50505091845282842091015b8484106200223657505050505050565b600c838262002248899451866200167d565b0192019301929062002226565b9091929350600c9282600c0292600c840403620023495788600c02600c81048a036200233557868952878920889695948101939291015b8381106200229c5750506200221a565b849596508981959293949555898c820155620022ba83820162002113565b620022c784820162002113565b896004820155620022db6005820162002113565b620022e96006820162002113565b620022f76007820162002113565b620023056008820162002113565b620023136009820162002113565b62002321600a820162002113565b89600b82015501908795949392916200228c565b634e487b7160e01b89526011600452602489fd5b634e487b7160e01b88526011600452602488fd5b898386511695019481850155018b90620021e5565b6200238b908a6000528584600020918201910162001664565b38620021d656fe604060808152346200042957620010ab803803806200001e816200042e565b928339810190608081830312620004295780516001600160401b039190828111620004295783620000519183016200046a565b90602093848201519084821162000429576200006f9183016200046a565b606086830151920151906000943360018060a01b031987541617865533867f8be0079c531659141344cd1fd0a4f28419497f9722a3daafe3b4186f6b6457e08180a384518181116200034357600254906001968783811c931680156200041e575b8a84101462000324578190601f93848111620003ca575b508a9084831160011462000363578a9262000357575b5050600019600383901b1c191690871b176002555b8251918211620003435760039283548781811c9116801562000338575b8a821014620003245790818385949311620002cf575b50899183116001146200026c57889262000260575b505060001982841b1c191690851b1790555b670de0b6b3a7640000918281029281840414901517156200024c5781835560058111620001fe57907fddf252ad1be2c89b69c2b068fc378daa952ba7f163c4a11628f55a4df523b3ef929160045533845260058552858420556007845284832060ff199082828254161790553084528186852091825416179055549284519384523393a351610bce9081620004dd8239f35b855162461bcd60e51b815260048101869052602160248201527f4d6178205472616e73616374696f6e2063616e6e6f74206578636565642035256044820152601760f91b6064820152608490fd5b634e487b7160e01b84526011600452602484fd5b0151905038806200015a565b8489528989208894509190601f1984168a5b8c828210620002b857505084116200029f575b505050811b0190556200016c565b015160001983861b60f8161c1916905538808062000291565b8385015186558b979095019493840193016200027e565b909192508489528989208380860160051c8201928c87106200031a575b9186958b929594930160051c01915b8281106200030b57505062000145565b8b81558695508a9101620002fb565b92508192620002ec565b634e487b7160e01b89526022600452602489fd5b90607f16906200012f565b634e487b7160e01b87526041600452602487fd5b015190503880620000fd565b60028b528b8b208a94509190601f1984168c8e5b828210620003b2575050841162000398575b505050811b0160025562000112565b015160001960f88460031b161c1916905538808062000389565b8385015186558d979095019493840193018e62000377565b90915060028a528a8a208480850160051c8201928d861062000414575b918b91869594930160051c01915b82811062000405575050620000e7565b8c81558594508b9101620003f5565b92508192620003e7565b92607f1692620000d0565b600080fd5b6040519190601f01601f191682016001600160401b038111838210176200045457604052565b634e487b7160e01b600052604160045260246000fd5b919080601f84011215620004295782516001600160401b0381116200045457602090620004a0601f8201601f191683016200042e565b92818452828287010111620004295760005b818110620004c857508260009394955001015290565b8581018301518482018401528201620004b256fe608060408181526004918236101561001657600080fd5b600092833560e01c91826306fdde03146105b557508163095ea7b31461058b57816318160ddd1461056c57816323b872dd14610497578163313ce5671461047b57816370a0823114610443578163715018a6146103e45781637437681e146103c65781638da5cb5b1461039e57816395d89b4114610299578163a9059cbb14610268578163c2d0ffca146101b9578163db4cf1e01461010a575063dd62ed3e146100bf57600080fd5b34610106578060031936011261010657806020926100db6106bd565b6100e36106d8565b6001600160a01b0391821683526006865283832091168252845220549051908152f35b5080fd5b9050346101b55760203660031901126101b5576101256106bd565b83546001600160a01b03919061013e9083163314610726565b1690811561015e5750825260076020528120805460ff1916600117905580f35b608490602084519162461bcd60e51b8352820152602b60248201527f45524332303a204578636c756465204d61782054782066726f6d20746865207a60448201526a65726f206164647265737360a81b6064820152fd5b8280fd5b919050346101b55760203660031901126101b5578135916101e460018060a01b038554163314610726565b6005831161021c5791602091817fff3dd5e80294197918c284bbfc3dadd97d0b40ce92106110946329088f80068a945551908152a180f35b6020608492519162461bcd60e51b8352820152602160248201527f4d6178205472616e73616374696f6e2063616e6e6f74206578636565642035256044820152601760f91b6064820152fd5b5050346101065780600319360112610106576020906102926102886106bd565b6024359033610873565b5160018152f35b919050346101b557826003193601126101b55780519183600354906001908260011c92600181168015610394575b6020958686108214610381575084885290811561035f5750600114610306575b61030286866102f8828b03836106ee565b5191829182610674565b0390f35b929550600383527fc2575a0e9e593c00f959f8c92f12db2869c3395a3b0502d05e2516446f71f85b5b82841061034c5750505082610302946102f89282010194386102e7565b805486850188015292860192810161032f565b60ff191687860152505050151560051b83010192506102f882610302386102e7565b634e487b7160e01b845260229052602483fd5b93607f16936102c7565b505034610106578160031936011261010657905490516001600160a01b039091168152602090f35b9050346101b557826003193601126101b55760209250549051908152f35b83346104405780600319360112610440578054816001600160a01b03821661040d338214610726565b7f8be0079c531659141344cd1fd0a4f28419497f9722a3daafe3b4186f6b6457e08280a36001600160a01b031916815580f35b80fd5b5050346101065760203660031901126101065760209181906001600160a01b0361046b6106bd565b1681526005845220549051908152f35b5050346101065781600319360112610106576020905160128152f35b828434610440576060366003190112610440576104b26106bd565b906104bb6106d8565b6104c9604435809285610873565b6001600160a01b038316825260066020908152848320338452905283822054845192606084019067ffffffffffffffff8211858310176105595760208761029288610551898989898752602883527f45524332303a207472616e7366657220616d6f756e742065786365656473206188840152676c6c6f77616e636560c01b87840152610b4d565b903390610771565b634e487b7160e01b815260418852602490fd5b5050346101065781600319360112610106576020906001549051908152f35b5050346101065780600319360112610106576020906102926105ab6106bd565b6024359033610771565b92915034610670578360031936011261067057600254600181811c9186908281168015610666575b6020958686108214610381575084885290811561035f575060011461060d5761030286866102f8828b03836106ee565b929550600283527f405787fa12a823e0f2b7631cc41b3ba8828b3321ca811111fa75cd3aa3bb5ace5b8284106106535750505082610302946102f89282010194386102e7565b8054868501880152928601928101610636565b93607f16936105dd565b8380fd5b6020808252825181830181905290939260005b8281106106a957505060409293506000838284010152601f8019910116010190565b818101860151848201604001528501610687565b600435906001600160a01b03821682036106d357565b600080fd5b602435906001600160a01b03821682036106d357565b90601f8019910116810190811067ffffffffffffffff82111761071057604052565b634e487b7160e01b600052604160045260246000fd5b1561072d57565b606460405162461bcd60e51b815260206004820152602060248201527f4f776e61626c653a2063616c6c6572206973206e6f7420746865206f776e65726044820152fd5b6001600160a01b0390811691821561082257169182156107d25760207f8c5be1e5ebec7d5bd14f71427d1e84f3dd0314c0f7b2291e5b200ac8c7c3b925918360005260068252604060002085600052825280604060002055604051908152a3565b60405162461bcd60e51b815260206004820152602260248201527f45524332303a20617070726f766520746f20746865207a65726f206164647265604482015261737360f01b6064820152608490fd5b60405162461bcd60e51b8152602060048201526024808201527f45524332303a20617070726f76652066726f6d20746865207a65726f206164646044820152637265737360e01b6064820152608490fd5b9192916001600160a01b03908116918215610afa5716908115610aa9578315610a5257600480549460015495868102968188041490151715610a3d576000958387526020926007845260409160ff838a205416156109ec575b50848852600584528188205482519083820182811067ffffffffffffffff8211176109d957610928929186918652601e83527f536166654d6174683a207375627472616374696f6e206f766572666c6f77000088840152610b4d565b85895260058552828920558588528188205490838201918281116109c657821061098357508188877fddf252ad1be2c89b69c2b068fc378daa952ba7f163c4a11628f55a4df523b3ef9798999a5260058652205551908152a3565b825162461bcd60e51b8152908101859052601b60248201527f536166654d6174683a206164646974696f6e206f766572666c6f7700000000006044820152606490fd5b634e487b7160e01b8a526011825260248afd5b634e487b7160e01b8b526041845260248bfd5b6064900483116109fc57386108cc565b83606492519162461bcd60e51b8352820152601860248201527f4578636565647320746865204d61785478416d6f756e742e00000000000000006044820152fd5b601182634e487b7160e01b6000525260246000fd5b60405162461bcd60e51b815260206004820152602960248201527f5472616e7366657220616d6f756e74206d7573742062652067726561746572206044820152687468616e207a65726f60b81b6064820152608490fd5b60405162461bcd60e51b815260206004820152602360248201527f45524332303a207472616e7366657220746f20746865207a65726f206164647260448201526265737360e81b6064820152608490fd5b60405162461bcd60e51b815260206004820152602560248201527f45524332303a207472616e736665722066726f6d20746865207a65726f206164604482015264647265737360d81b6064820152608490fd5b91828211610b7857508103908111610b625790565b634e487b7160e01b600052601160045260246000fd5b60405162461bcd60e51b8152908190610b949060048301610674565b0390fdfea2646970667358221220c49e554740cb71aa09a85b3746b1a934acbfb9371a9f5eefd27a7b626ea785f264736f6c63430008180033a2646970667358221220093e8d96ed3d11675c139b0b02702bf837ab9f6d799fbc398d17c7ae98299b7f64736f6c63430008180033",
  "linkReferences": {},
  "deployedLinkReferences": {}
}