{
  "_format": "hh-sol-artifact-1",
  "contractName": "Router",
  "sourceName": "contracts/Router.sol",
  "abi": [
    {
      "inputs": [
        {
          "internalType": "address",
          "name": "factory_",
          "type": "address"
        },
        {
          "internalType": "address",
          "name": "weth",
          "type": "address"
        }
      ],
      "stateMutability": "nonpayable",
      "type": "constructor"
    },
    {
      "inputs": [],
      "name": "ReentrancyGuardReentrantCall",
      "type": "error"
    },
    {
      "inputs": [],
      "name": "WETH",
      "outputs": [
        {
          "internalType": "address",
          "name": "",
          "type": "address"
        }
      ],
      "stateMutability": "view",
      "type": "function"
    },
    {
      "inputs": [
        {
          "internalType": "address",
          "name": "token",
          "type": "address"
        },
        {
          "internalType": "uint256",
          "name": "amountToken",
          "type": "uint256"
        }
      ],
      "name": "addLiquidityETH",
      "outputs": [
        {
          "internalType": "uint256",
          "name": "",
          "type": "uint256"
        },
        {
          "internalType": "uint256",
          "name": "",
          "type": "uint256"
        }
      ],
      "stateMutability": "payable",
      "type": "function"
    },
    {
      "inputs": [],
      "name": "factory",
      "outputs": [
        {
          "internalType": "address",
          "name": "",
          "type": "address"
        }
      ],
      "stateMutability": "view",
      "type": "function"
    },
    {
      "inputs": [
        {
          "internalType": "address",
          "name": "token",
          "type": "address"
        },
        {
          "internalType": "address",
          "name": "weth",
          "type": "address"
        },
        {
          "internalType": "uint256",
          "name": "amountIn",
          "type": "uint256"
        }
      ],
      "name": "getAmountsOut",
      "outputs": [
        {
          "internalType": "uint256",
          "name": "_amountOut",
          "type": "uint256"
        }
      ],
      "stateMutability": "nonpayable",
      "type": "function"
    },
    {
      "inputs": [
        {
          "internalType": "address",
          "name": "token",
          "type": "address"
        },
        {
          "internalType": "uint256",
          "name": "liquidity",
          "type": "uint256"
        },
        {
          "internalType": "address",
          "name": "to",
          "type": "address"
        }
      ],
      "name": "removeLiquidityETH",
      "outputs": [
        {
          "internalType": "uint256",
          "name": "",
          "type": "uint256"
        },
        {
          "internalType": "uint256",
          "name": "",
          "type": "uint256"
        }
      ],
      "stateMutability": "nonpayable",
      "type": "function"
    },
    {
      "inputs": [
        {
          "internalType": "address",
          "name": "token",
          "type": "address"
        },
        {
          "internalType": "address",
          "name": "to",
          "type": "address"
        }
      ],
      "name": "swapETHForTokens",
      "outputs": [
        {
          "internalType": "uint256",
          "name": "",
          "type": "uint256"
        },
        {
          "internalType": "uint256",
          "name": "",
          "type": "uint256"
        }
      ],
      "stateMutability": "payable",
      "type": "function"
    },
    {
      "inputs": [
        {
          "internalType": "uint256",
          "name": "amountIn",
          "type": "uint256"
        },
        {
          "internalType": "address",
          "name": "token",
          "type": "address"
        },
        {
          "internalType": "address",
          "name": "to",
          "type": "address"
        }
      ],
      "name": "swapTokensForETH",
      "outputs": [
        {
          "internalType": "uint256",
          "name": "",
          "type": "uint256"
        },
        {
          "internalType": "uint256",
          "name": "",
          "type": "uint256"
        }
      ],
      "stateMutability": "nonpayable",
      "type": "function"
    }
  ],
  "bytecode": "0x608034620000b257601f620014ad38819003918201601f19168301916001600160401b03831184841017620000b7578084926040948552833981010312620000b2576200005a60206200005283620000cd565b9201620000cd565b60016000556001600160a01b03918216919062000079831515620000e2565b169062000088821515620000e2565b60018060a01b031990816001541617600155600254161760025560405161137d9081620001308239f35b600080fd5b634e487b7160e01b600052604160045260246000fd5b51906001600160a01b0382168203620000b257565b15620000ea57565b60405162461bcd60e51b815260206004820152601f60248201527f5a65726f2061646472657373657320617265206e6f7420616c6c6f7765642e006044820152606490fdfe60406080815260048036101561001457600080fd5b6000803560e01c806345608d0014610d405780636bf09f10146108965780637282d548146106fd5780637f54a36914610428578063ad5c4648146103ff578063c45a0155146103d25763e79a40891461006c57600080fd5b346103cf5760603660031901126103cf57610085610d79565b9160243591610092610daa565b61009a611135565b6001600160a01b03928584166100b1811515610efb565b6100be8584161515610efb565b600154600254895163e6a4390560e01b81526001600160a01b038a8116868301908152928916166020808401919091529790959290918891879182900360400190829085165afa9485156103c5578695610396575b508416938951630240bc6b60e21b81526060818681895afa801561032e576064610159610195938b938d8c928d92610359575b50849161015291611047565b049c611047565b8d51632e2952f960e11b8152308982019081526001600160a01b03909e1660208f015291900460408d018190529b909283918291606090910190565b03818a8a5af190811561032e57879161033c575b5015610338578951637b1a490960e01b81526001600160a01b038316858201908152602081018a905288908290819060400103818a8a5af190811561032e5792878b9361020361024097948c978491610311575b5061109d565b8d516323b872dd60e01b81526001600160a01b03918216898201908152919093166020820152604081019490945290948593849291839160600190565b03925af19081156103075792859261026461029393879687916102ea575b506110e9565b8951631d24e23160e21b8152908101898152602081018990523360408201529094859384928391606090910190565b03925af180156102e05790600192916102b3575b50558351928352820152f35b6102d290843d86116102d9575b6102ca8183610f79565b81019061102f565b50386102a7565b503d6102c0565b86513d84823e3d90fd5b6103019150863d88116102d9576102ca8183610f79565b3861025e565b88513d86823e3d90fd5b6103289150883d8a116102d9576102ca8183610f79565b386101fd565b8b513d89823e3d90fd5b8580fd5b6103539150883d8a116102d9576102ca8183610f79565b386101a9565b6101529193508592506103839060603d60601161038f575b61037b8183610f79565b810190610fba565b50939093925090610146565b503d610371565b6103b7919550873d89116103be575b6103af8183610f79565b810190610f9b565b9338610113565b503d6103a5565b8a513d88823e3d90fd5b80fd5b5082346103fb57816003193601126103fb5760015490516001600160a01b039091168152602090f35b5080fd5b5082346103fb57816003193601126103fb5760025490516001600160a01b039091168152602090f35b50826003193601126103cf5761043c610d79565b90610445610d94565b9061044e611135565b6001600160a01b0383811694909290610468861515610efb565b6104758483161515610efb565b83600154169584600254169288519563e6a4390560e01b87526020968781806104ba898d8a840190602090939293604083019460018060a01b03809216845216910152565b03818d5afa90811561032e57889088926106d8575b506104e3829361051d93169734908c610dc0565b8c51632e2952f960e11b8152308882019081526001600160a01b03909c1660208d015260408c01829052909a909283918291606090910190565b03818a8a5af190811561032e5787916106bb575b501561068857895163cf82046160e01b8152878186818d5afa90811561032e578791610655575b506105666064913490611047565b0484886105738334611090565b9b8d5192838092622fcfcb60e31b82525afa90811561064b578a936102036105b56105bf98958f958e99968e968792610624575b506105b56105ba9187611291565b61109d565b611291565b03925af19081156103075785926105e0869360849385916102ea57506110e9565b828a519586948593635673b02d60e01b85528401528960248401528a60448401528160648401525af180156102e05790600192916102b35750558351928352820152f35b6105ba9192506106436105b5918d803d106103be576103af8183610f79565b9291506105a7565b8c513d8a823e3d90fd5b90508781813d8311610681575b61066c8183610f79565b8101031261067d5751610566610558565b8680fd5b503d610662565b895162461bcd60e51b8152808501889052600d60248201526c2737ba1020b8383937bb32b21760991b6044820152606490fd5b6106d29150883d8a116102d9576102ca8183610f79565b38610531565b61051d92506106f66104e391833d85116103be576103af8183610f79565b92506104cf565b50826003193601126103cf57610711610d79565b906024359261071e611135565b6001600160a01b039083821690610736821515610efb565b600154600254885163e6a4390560e01b81526001600160a01b03978816848201908152918616909716602080830191909152969391879185918716908290819060400103915afa92831561086d578593610877575b506107996105b53485611291565b87516323b872dd60e01b8152338382019081526001600160a01b0385166020820152604081018990529091879183919082908990829060600103925af190811561086d57916107f48794926108239488916102ea57506110e9565b885163e7d3fe6b60e01b8152908101888152346020820152336040820152909485938492889291849160600190565b0393165af18015610863579060019291610846575b505582519182523490820152f35b61085c90843d86116102d9576102ca8183610f79565b5038610838565b85513d84823e3d90fd5b88513d87823e3d90fd5b61088f919350863d88116103be576103af8183610f79565b913861078b565b5090346103fb5760603660031901126103fb578035916108b4610d94565b906108bd610daa565b6108c5611135565b6001600160a01b039383851680151592906108df84610efb565b6108ec8288161515610efb565b6001546002548a5163e6a4390560e01b8082526001600160a01b038a8116888401908152938c1616602080850191909152938b169a9399909391928a908490819003604001818e5afa928315610d13578d918b918b95610d1d575b5084956109628561099e9697169b61095d611135565b610efb565b60015460025494519182526001600160a01b03928316828c01908152948716928316602086015291949093849287169183918291604090910190565b03915afa908115610d135790878e6060938c93610cf4575b5051630240bc6b60e21b81529485928391165afa801561064b5793610a7e93898b948f9897948f809684938591610cce575b506109f38185611158565b92610cb75791610a0a610a2392610a3d95946111d1565b90610a1e610a16610fd5565b83151561122a565b611070565b90610a38610a2f611000565b8284111561122a565b611090565b975b60018255516323b872dd60e01b81526001600160a01b038089168b83019081529316602084015260408301949094529294859384929091839160600190565b03925af19081156103c5578691610c9a575b5015610c5757885163cf82046160e01b8152868185818b5afa9081156103c5578385939289928991610c1f575b50610acd610ad592606492611047565b048095611090565b988b5193848092622fcfcb60e31b82525afa9182156103c5578692610c00575b508951637b1a490960e01b8082526001600160a01b03909216858201908152602081018a905288908290819060400103818a8a5af190811561032e5788939291610b45918991610be9575061109d565b8a519081526001600160a01b0390911684820190815260208101939093529182908190604001038187875af1908115610307578592610b8e89936084938891610bd2575061109d565b858a519586948593635673b02d60e01b85528401528160248401528160448401528960648401525af180156102e05790600192916102b35750558351928352820152f35b6103289150863d88116102d9576102ca8183610f79565b6103289150853d87116102d9576102ca8183610f79565b610c18919250873d89116103be576103af8183610f79565b9038610af5565b939450505081813d8311610c50575b610c388183610f79565b81010312610338575183919087908490610acd610abd565b503d610c2e565b885162461bcd60e51b8152808401879052601860248201527f5472616e73666572206f6620746f6b656e206661696c656400000000000000006044820152606490fd5b610cb19150873d89116102d9576102ca8183610f79565b38610a90565b91610a0a610a2392610cc8956111d1565b97610a3f565b9050610cea91935060603d60601161038f5761037b8183610f79565b50929092386109e8565b610d0c9193508d803d106103be576103af8183610f79565b91386109b6565b8d513d8b823e3d90fd5b61099e949550610d3990833d85116103be576103af8183610f79565b9493610947565b5082346103fb5760603660031901126103fb57602090610d72610d61610d79565b610d69610d94565b60443591610dc0565b9051908152f35b600435906001600160a01b0382168203610d8f57565b600080fd5b602435906001600160a01b0382168203610d8f57565b604435906001600160a01b0382168203610d8f57565b91610dc9611135565b6001600160a01b0392610e2690610de38186161515610efb565b60015460025460405163e6a4390560e01b81526001600160a01b039384166004820152908716928316602482015292602091849190881690829081906044820190565b03915afa918215610ed0578592606091600091610edc575b50600460405180988193630240bc6b60e21b8352165afa918215610ed0576000958693610ea8575b50610e718387611158565b941603610e925791610a0a610a2392610e8a95946111d1565b906001600055565b91610a0a610a2392610ea3956111d1565b610e8a565b909250610ec591955060603d60601161038f5761037b8183610f79565b509490949138610e66565b6040513d6000823e3d90fd5b610ef5915060203d6020116103be576103af8183610f79565b38610e3e565b15610f0257565b60405162461bcd60e51b815260206004820152601f60248201527f5a65726f2061646472657373657320617265206e6f7420616c6c6f7765642e006044820152606490fd5b6040810190811067ffffffffffffffff821117610f6357604052565b634e487b7160e01b600052604160045260246000fd5b90601f8019910116810190811067ffffffffffffffff821117610f6357604052565b90816020910312610d8f57516001600160a01b0381168103610d8f5790565b90816060910312610d8f578051916040602083015192015190565b60405190610fe282610f47565b600f82526e111a5d9a5cda5bdb8819985a5b1959608a1b6020830152565b6040519061100d82610f47565b601382527229bab13a3930b1ba34b7b7103330b4b632b21760691b6020830152565b90816020910312610d8f57518015158103610d8f5790565b8181029291811591840414171561105a57565b634e487b7160e01b600052601160045260246000fd5b811561107a570490565b634e487b7160e01b600052601260045260246000fd5b9190820391821161105a57565b156110a457565b60405162461bcd60e51b815260206004820152601760248201527f5472616e73666572206f6620455448206661696c65642e0000000000000000006044820152606490fd5b156110f057565b60405162461bcd60e51b815260206004820152601960248201527f5472616e73666572206f6620746f6b656e206661696c65642e000000000000006044820152606490fd5b600260005414611146576002600055565b604051633ee5aeb560e01b8152600490fd5b9081156111ca5761117361116c8284611047565b9283611070565b0361117b5790565b60405162461bcd60e51b815260206004820152602160248201527f536166654d6174683a206d756c7469706c69636174696f6e206f766572666c6f6044820152607760f81b6064820152608490fd5b5050600090565b9081019081811161105a5781106111e55790565b60405162461bcd60e51b815260206004820152601b60248201527f536166654d6174683a206164646974696f6e206f766572666c6f7700000000006044820152606490fd5b156112325750565b6040519062461bcd60e51b82528160208060048301528251908160248401526000935b828510611278575050604492506000838284010152601f80199101168101030190fd5b8481018201518686016044015293810193859350611255565b6001600160a01b03166112a5811515610efb565b60008080809481945af1903d15611341573d9067ffffffffffffffff821161132d57604051916112df601f8201601f191660200184610f79565b825260203d92013e5b80156112f15790565b60405162461bcd60e51b81526020600482015260146024820152732a3930b739b332b91022aa24102330b4b632b21760611b6044820152606490fd5b634e487b7160e01b81526041600452602490fd5b506112e856fea26469706673582212207b80cba1b3e69efce9bb7d15ce96c48b83f5c0c01ae28bb80c3d9e42f3f3a1b964736f6c63430008180033",
  "linkReferences": {},
  "deployedLinkReferences": {}
}