{
  "contracts/PumpFun.sol": {
    "PumpFun": {
      "abi": [
        {
          "inputs": [
            {
              "internalType": "address",
              "name": "factory_",
              "type": "address"
            },
            {
              "internalType": "address",
              "name": "router_",
              "type": "address"
            },
            {
              "internalType": "address",
              "name": "fees_wallet",
              "type": "address"
            },
            {
              "internalType": "uint256",
              "name": "_fee",
              "type": "uint256"
            },
            {
              "internalType": "uint256",
              "name": "_refFee",
              "type": "uint256"
            },
            {
              "internalType": "uint256",
              "name": "_lpFee",
              "type": "uint256"
            }
          ],
          "stateMutability": "nonpayable",
          "type": "constructor"
        },
        {
          "anonymous": false,
          "inputs": [
            {
              "indexed": true,
              "internalType": "address",
              "name": "token",
              "type": "address"
            },
            {
              "indexed": true,
              "internalType": "address",
              "name": "pair",
              "type": "address"
            },
            {
              "indexed": false,
              "internalType": "uint256",
              "name": "",
              "type": "uint256"
            }
          ],
          "name": "Launched",
          "type": "event"
        },
        {
          "inputs": [
            {
              "internalType": "address",
              "name": "_user",
              "type": "address"
            },
            {
              "internalType": "address",
              "name": "_token",
              "type": "address"
            },
            {
              "internalType": "uint256",
              "name": "amount",
              "type": "uint256"
            }
          ],
          "name": "approval",
          "outputs": [
            {
              "internalType": "bool",
              "name": "",
              "type": "bool"
            }
          ],
          "stateMutability": "nonpayable",
          "type": "function"
        },
        {
          "inputs": [],
          "name": "deploy",
          "outputs": [
            {
              "internalType": "uint256",
              "name": "",
              "type": "uint256"
            }
          ],
          "stateMutability": "pure",
          "type": "function"
        },
        {
          "inputs": [],
          "name": "feeTo",
          "outputs": [
            {
              "internalType": "address",
              "name": "",
              "type": "address"
            }
          ],
          "stateMutability": "view",
          "type": "function"
        },
        {
          "inputs": [],
          "name": "feeToSetter",
          "outputs": [
            {
              "internalType": "address",
              "name": "",
              "type": "address"
            }
          ],
          "stateMutability": "view",
          "type": "function"
        },
        {
          "inputs": [
            {
              "internalType": "string",
              "name": "_name",
              "type": "string"
            },
            {
              "internalType": "string",
              "name": "_ticker",
              "type": "string"
            },
            {
              "internalType": "string",
              "name": "desc",
              "type": "string"
            },
            {
              "internalType": "string",
              "name": "img",
              "type": "string"
            },
            {
              "internalType": "string[4]",
              "name": "urls",
              "type": "string[4]"
            },
            {
              "internalType": "uint256",
              "name": "_supply",
              "type": "uint256"
            },
            {
              "internalType": "uint256",
              "name": "maxTx",
              "type": "uint256"
            },
            {
              "internalType": "address",
              "name": "ref",
              "type": "address"
            }
          ],
          "name": "launch",
          "outputs": [
            {
              "internalType": "address",
              "name": "",
              "type": "address"
            },
            {
              "internalType": "address",
              "name": "",
              "type": "address"
            },
            {
              "internalType": "uint256",
              "name": "",
              "type": "uint256"
            }
          ],
          "stateMutability": "payable",
          "type": "function"
        },
        {
          "inputs": [],
          "name": "launchFee",
          "outputs": [
            {
              "internalType": "uint256",
              "name": "",
              "type": "uint256"
            }
          ],
          "stateMutability": "view",
          "type": "function"
        },
        {
          "inputs": [],
          "name": "liquidityFee",
          "outputs": [
            {
              "internalType": "uint256",
              "name": "",
              "type": "uint256"
            }
          ],
          "stateMutability": "view",
          "type": "function"
        },
        {
          "inputs": [],
          "name": "marketCap",
          "outputs": [
            {
              "internalType": "uint256",
              "name": "",
              "type": "uint256"
            }
          ],
          "stateMutability": "pure",
          "type": "function"
        },
        {
          "inputs": [],
          "name": "referralFee",
          "outputs": [
            {
              "internalType": "uint256",
              "name": "",
              "type": "uint256"
            }
          ],
          "stateMutability": "view",
          "type": "function"
        },
        {
          "inputs": [
            {
              "internalType": "uint256",
              "name": "_fee",
              "type": "uint256"
            }
          ],
          "name": "updateLaunchFee",
          "outputs": [
            {
              "internalType": "uint256",
              "name": "",
              "type": "uint256"
            }
          ],
          "stateMutability": "nonpayable",
          "type": "function"
        },
        {
          "inputs": [
            {
              "internalType": "uint256",
              "name": "_fee",
              "type": "uint256"
            }
          ],
          "name": "updateLiquidityFee",
          "outputs": [
            {
              "internalType": "uint256",
              "name": "",
              "type": "uint256"
            }
          ],
          "stateMutability": "nonpayable",
          "type": "function"
        },
        {
          "inputs": [
            {
              "internalType": "uint256",
              "name": "_fee",
              "type": "uint256"
            }
          ],
          "name": "updateReferralFee",
          "outputs": [
            {
              "internalType": "uint256",
              "name": "",
              "type": "uint256"
            }
          ],
          "stateMutability": "nonpayable",
          "type": "function"
        }
      ],
      "evm": {
        "bytecode": {
          "linkReferences": {},
          "object": "608034620001a357601f62002b1438819003918201601f19168301916001600160401b03831184841017620001a85780849260c094604052833981010312620001a3576200004d81620001be565b906200005c60208201620001be565b6200006a60408301620001be565b9260608301519160a060808501519401519460018060a01b0319923384600054161760005560018060a01b0392838092168560015416176001551683600354161760035516906004541617600455670de0b6b3a7640000908181029181830414901517156200018d576103e890046005556005811162000148576005821162000103576006556007556040516129409081620001d48239f35b60405162461bcd60e51b815260206004820152601f60248201527f4c6971756964697479204665652063616e6e6f74206578636565642035252e006044820152606490fd5b60405162461bcd60e51b815260206004820152601e60248201527f526566657272616c204665652063616e6e6f74206578636565642035252e00006044820152606490fd5b634e487b7160e01b600052601160045260246000fd5b600080fd5b634e487b7160e01b600052604160045260246000fd5b51906001600160a01b0382168203620001a35756fe60808060405260043610156200001457600080fd5b60003560e01c908163017e7e581462000a3457508063094b74151462000a095780632c135b9314620009e25780635c52a5f214620009915780637660f44a146200096d578063775c300c146200094f57806384ae2bc6146200092f5780638e675663146200090b57806398118cb414620008eb578063a153e6ff14620000f9578063cf3cf57314620000d95763f3f524b814620000b057600080fd5b34620000d4576020366003190112620000d457602060043580600655604051908152f35b600080fd5b34620000d4576000366003190112620000d4576020600554604051908152f35b610100366003190112620000d4576004356001600160401b038111620000d4576200012990369060040162000b17565b6024356001600160401b038111620000d4576200014b90369060040162000b17565b6044356001600160401b038111620000d4576200016d90369060040162000b17565b6064356001600160401b038111620000d4576200018f90369060040162000b17565b92608435926001600160401b038411620000d45736602385011215620000d45760405193620001be8562000abd565b84906084810190368211620000d45780600401925b828410620008b857505060e435929150506001600160a01b0382168203620000d45760055434106200087357604051610ff581818101106001600160401b038284011117620006995780829162001916833960808183015262000253620002406080838501018862000c01565b8284018103602084860101528562000c01565b9060a43560408285010152606060c435918401015203906000f0948515620007b3576003546040516315ab88c960e31b81529590602090879060049082906001600160a01b03165afa958615620007b357600096602091889162000851575b506001546040516364e329cb60e11b81526001600160a01b038b811660048301529283166024820152988992604492849291165af1958615620007b35760009662000819575b5060035460405163313ce56760e01b8152906001600160a01b0390811690602090839060049082908d165afa8015620007b3576200034962000352916200036494600091620007f5575b5062000c7f565b60a43562000ca7565b906001600160a01b038a169062000b64565b15620000d45760646200037a3460075462000ca7565b049760046200038a8a3462000cbb565b60035460405163313ce56760e01b8152919b91926001600160a01b039182169291602091859182908f165afa918215620007b3578b620003de620003496040956200040d97600091620007bf575062000c7f565b8451630e505aa960e31b81526001600160a01b0390921660048301526024820152938492839182906044820190565b03925af18015620007b35762000782575b5033600090815260086020526040902060018101549099906001600160a01b03168015620006c557506004546000918291829182916001600160a01b03165af16200046862000cc9565b5015620000d4575b825190602084015192606060408601519501519560405198896101608101106001600160401b036101608c01111762000699576101608a0160405260018060a01b038c168a5260018060a01b038b1660208b015260408a0152606089015260a435608089015260a088015260c087015260e086015261010085015261012084015261014083015260018060a01b038416600052600a6020526200051882604060002062000d54565b600b54600160401b908181101562000699576001810180600b55811015620006af5783600b6200056f9281600052027f0175b7a638427703f0dbe7bb9bbf987a2551717b34e79f33b5b1008d1fa01db90162000d54565b6200057a336200163b565b15620005f55750506200059390600360609501620015c7565b600b546040518181529091906001600160a01b0380831691908516907f714aa39317ad9a7a7a99db52b44490da5d068a0b2710fffb1a1282ad3cadae1f90602090a3604080516001600160a01b03948516815291909316602082015291820152f35b6040519291620006058462000abd565b33845260018060a01b03166020840152606060408401526060808401523360005260086020526200063b836040600020620016d2565b60095490811015620006995780600162000659920160095562001600565b9290926200068357606095620006766003926200067d95620016d2565b01620015c7565b62000593565b634e487b7160e01b600052600060045260246000fd5b634e487b7160e01b600052604160045260246000fd5b634e487b7160e01b600052603260045260246000fd5b6000526002604060002001805491600160401b831015620006995760018301808355831015620006af576000808093928e95829483526020832001336bffffffffffffffffffffffff60a01b8254161790556200073460646200072b8360065462000ca7565b04809262000cbb565b6001909601546001600160a01b03165af16200074f62000cc9565b5015620000d4576004546000918291829182916001600160a01b03165af16200077762000cc9565b506200047057600080fd5b604090813d8311620007ab575b6200079b818362000ad9565b81010312620000d457896200041e565b503d6200078f565b6040513d6000823e3d90fd5b620007e6915060203d602011620007ed575b620007dd818362000ad9565b81019062000c64565b3862000342565b503d620007d1565b62000812915060203d602011620007ed57620007dd818362000ad9565b8d62000342565b6200084191965060203d60201162000849575b62000838818362000ad9565b81019062000c43565b9488620002f8565b503d6200082c565b6200086c9150823d8411620008495762000838818362000ad9565b8a620002b2565b60405162461bcd60e51b815260206004820152601960248201527f496e73756666696369656e7420616d6f756e742073656e742e000000000000006044820152606490fd5b83356001600160401b038111620000d457602091620008df83926004369187010162000b17565b815201930192620001d3565b34620000d4576000366003190112620000d4576020600754604051908152f35b34620000d4576020366003190112620000d457602060043580600755604051908152f35b34620000d4576000366003190112620000d4576020600654604051908152f35b34620000d4576000366003190112620000d457602060405160008152f35b34620000d4576020366003190112620000d457602060043580600555604051908152f35b34620000d4576060366003190112620000d4576004356001600160a01b038082168203620000d4576024359081168103620000d457602091620009d8916044359162000b64565b6040519015158152f35b34620000d4576000366003190112620000d457602060405169152d02c7e14af68000008152f35b34620000d4576000366003190112620000d4576000546040516001600160a01b039091168152602090f35b34620000d4576000366003190112620000d4576000546001600160a01b0391908216330362000a6c5760208260045416604051908152f35b62461bcd60e51b815260206004820152602660248201527f4f6e6c7920746865206f776e65722063616e2063616c6c20746869732066756e60448201526531ba34b7b71760d11b6064820152608490fd5b608081019081106001600160401b038211176200069957604052565b90601f801991011681019081106001600160401b038211176200069957604052565b6001600160401b0381116200069957601f01601f191660200190565b81601f82011215620000d45780359062000b318262000afb565b9262000b41604051948562000ad9565b82845260208383010111620000d457816000926020809301838601378301015290565b60405163095ea7b360e01b81526001600160a01b039182166004820152602481019390935260009291602091839160449183918791165af1801562000bf65762000bb0575b5050600190565b6020813d60201162000bed575b8162000bcc6020938362000ad9565b8101031262000be957518015150362000be6578062000ba9565b80fd5b5080fd5b3d915062000bbd565b6040513d84823e3d90fd5b919082519283825260005b84811062000c2e575050826000602080949584010152601f8019910116010190565b60208183018101518483018201520162000c0c565b90816020910312620000d457516001600160a01b0381168103620000d45790565b90816020910312620000d4575160ff81168103620000d45790565b60ff16604d811162000c9157600a0a90565b634e487b7160e01b600052601160045260246000fd5b8181029291811591840414171562000c9157565b9190820391821162000c9157565b3d1562000cf9573d9062000cdd8262000afb565b9162000ced604051938462000ad9565b82523d6000602084013e565b606090565b90600182811c9216801562000d30575b602083101462000d1a57565b634e487b7160e01b600052602260045260246000fd5b91607f169162000d0e565b81811062000d47575050565b6000815560010162000d3b565b815181546001600160a01b03199081166001600160a01b039283161783556020808501516001858101805490941691909416179091556040840151805190936001600160401b0393909290916002840190858111620006995762000db9825462000cfe565b96601f9788811162001595575b5083908883116001146200152e5762000df9929160009183620010a7575b50508160011b916000199060031b1c19161790565b90555b60038084016060880151805190878211620006995762000e1d835462000cfe565b898111620014f1575b5084908983116001146200148b5762000e58929160009183620010a75750508160011b916000199060031b1c19161790565b90555b60049360808801518582015560059081810160a08a01518051908982116200121e5762000e89835462000cfe565b8b81116200145b575b5086908b8311600114620013f55762000ec4929160009183620010a75750508160011b916000199060031b1c19161790565b90555b6006810160c08a01518051908982116200121e5762000ee7835462000cfe565b8b8111620013c5575b5086908b83116001146200135f5762000f22929160009183620010a75750508160011b916000199060031b1c19161790565b90555b6007810160e08a01518051908982116200121e5762000f45835462000cfe565b8b81116200132f575b5086908b8311600114620012c95762000f80929160009183620010a75750508160011b916000199060031b1c19161790565b90555b600881016101008a01518051908982116200121e5762000fa4835462000cfe565b8b811162001299575b5086908b8311600114620012335762000fdf929160009183620010a75750508160011b916000199060031b1c19161790565b90555b600981016101208a01518051908982116200121e5762001003835462000cfe565b8b8111620011e3575b5086908b83116001146200117057826101409593600a95936200104693600092620010a75750508160011b916000199060031b1c19161790565b90555b019801519485519687116200115b575062001065885462000cfe565b8781116200111e575b505081958511600114620010b357505050620010a3928291600092620010a75750508160011b916000199060031b1c19161790565b9055565b01519050388062000de4565b9194909284601f1981168860005285600020956000905b89838310620011035750505010620010e8575b50505050811b019055565b01519060f884600019921b161c1916905538808080620010dd565b858701518955909701969485019488935090810190620010ca565b620011499189600052846000209089808a01821c830193878b1062001151575b01901c019062000d3b565b38806200106e565b935082936200113e565b604190634e487b7160e01b6000525260246000fd5b889291601f1983169185600052896000209260005b8b828210620011cc575050916101409795939185600a98969410620011b3575b505050811b01905562001049565b0151600019838b1b60f8161c19169055388080620011a5565b8385015186558d9790950194938401930162001185565b6200120d9084600052886000208d808601891c8201928b871062001214575b01881c019062000d3b565b386200100c565b9250819262001202565b604189634e487b7160e01b6000525260246000fd5b889291601f1983169185600052896000209260005b8b82821062001282575050841162001269575b505050811b01905562000fe2565b015160001983891b60f8161c191690553880806200125b565b8385015186558d9790950194938401930162001248565b620012c29084600052886000208d808601891c8201928b8710620012145701881c019062000d3b565b3862000fad565b889291601f1983169185600052896000209260005b8b828210620013185750508411620012ff575b505050811b01905562000f83565b015160001983891b60f8161c19169055388080620012f1565b8385015186558d97909501949384019301620012de565b620013589084600052886000208d808601891c8201928b8710620012145701881c019062000d3b565b3862000f4e565b889291601f1983169185600052896000209260005b8b828210620013ae575050841162001395575b505050811b01905562000f25565b015160001983891b60f8161c1916905538808062001387565b8385015186558d9790950194938401930162001374565b620013ee9084600052886000208d808601891c8201928b8710620012145701881c019062000d3b565b3862000ef0565b889291601f1983169185600052896000209260005b8b8282106200144457505084116200142b575b505050811b01905562000ec7565b015160001983891b60f8161c191690553880806200141d565b8385015186558d979095019493840193016200140a565b620014849084600052886000208d808601891c8201928b8710620012145701881c019062000d3b565b3862000e92565b869291601f1983169185600052876000209260005b89828210620014da5750508411620014c1575b505050811b01905562000e5b565b015160001983871b60f8161c19169055388080620014b3565b8385015186558b97909501949384019301620014a0565b6200151d9084600052866000208b80860160051c82019289871062001524575b0160051c019062000d3b565b3862000e26565b9250819262001511565b859291601f1983169185600052866000209260005b888282106200157e575050841162001564575b505050811b01905562000dfc565b015160001960f88460031b161c1916905538808062001556565b8385015186558a9790950194938401930162001543565b620015c09084600052856000208a80860160051c82019288871062001524570160051c019062000d3b565b3862000dc6565b908154600160401b811015620006995760018101808455811015620006af57620015fe92600052600b602060002091020162000d54565b565b600954811015620006af57600960005260021b7f6e1540171b6c0c960b71a7020d9f60077f6af931a8bbf590da0223dacf75c7af0190600090565b6009549060005b8281106200165257505050600090565b6200165d8162001600565b50546001600160a01b038381169116146200167b5760010162001642565b505050600190565b6200168f815462000cfe565b90816200169a575050565b81601f60009311600114620016ad575055565b908083918252620016ce601f60208420940160051c84016001850162000d3b565b5555565b60018060a01b0390818351166bffffffffffffffffffffffff60a01b9081835416178255600193600183016020928584840151169082541617905560029260028101936040830151958651906001600160401b0382116200069957600160401b97888311620006995786908854848a55808510620018f5575b5001906000978852868820908a895b858110620018e05750505050505060606003809301930151918251968711620018cc57835487855585939291818910620017ca575b50505091845282842091015b848410620017ab57505050505050565b600b8382620017bd8994518662000d54565b019201930192906200179b565b9091929350600b9282600b0292600b840403620018b85788600b02600b81048a03620018a457868952878920889695948101939291015b838110620018115750506200178f565b849596508981959293949555898c8201556200182f83820162001683565b6200183c84820162001683565b896004820155620018506005820162001683565b6200185e6006820162001683565b6200186c6007820162001683565b6200187a6008820162001683565b620018886009820162001683565b62001896600a820162001683565b019087959493929162001801565b634e487b7160e01b89526011600452602489fd5b634e487b7160e01b88526011600452602488fd5b634e487b7160e01b86526041600452602486fd5b898386511695019481850155018b906200175a565b6200190e908a6000528584600020918201910162000d3b565b386200174b56fe60406080815234620004295762000ff5803803806200001e816200042e565b928339810190608081830312620004295780516001600160401b039190828111620004295783620000519183016200046a565b90602093848201519084821162000429576200006f9183016200046a565b606086830151920151906000943360018060a01b031987541617865533867f8be0079c531659141344cd1fd0a4f28419497f9722a3daafe3b4186f6b6457e08180a384518181116200034357600254906001968783811c931680156200041e575b8a84101462000324578190601f93848111620003ca575b508a9084831160011462000363578a9262000357575b5050600019600383901b1c191690871b176002555b8251918211620003435760039283548781811c9116801562000338575b8a821014620003245790818385949311620002cf575b50899183116001146200026c57889262000260575b505060001982841b1c191690851b1790555b670de0b6b3a7640000918281029281840414901517156200024c5781835560058111620001fe57907fddf252ad1be2c89b69c2b068fc378daa952ba7f163c4a11628f55a4df523b3ef929160045533845260058552858420556007845284832060ff199082828254161790553084528186852091825416179055549284519384523393a351610b189081620004dd8239f35b855162461bcd60e51b815260048101869052602160248201527f4d6178205472616e73616374696f6e2063616e6e6f74206578636565642035256044820152601760f91b6064820152608490fd5b634e487b7160e01b84526011600452602484fd5b0151905038806200015a565b8489528989208894509190601f1984168a5b8c828210620002b857505084116200029f575b505050811b0190556200016c565b015160001983861b60f8161c1916905538808062000291565b8385015186558b979095019493840193016200027e565b909192508489528989208380860160051c8201928c87106200031a575b9186958b929594930160051c01915b8281106200030b57505062000145565b8b81558695508a9101620002fb565b92508192620002ec565b634e487b7160e01b89526022600452602489fd5b90607f16906200012f565b634e487b7160e01b87526041600452602487fd5b015190503880620000fd565b60028b528b8b208a94509190601f1984168c8e5b828210620003b2575050841162000398575b505050811b0160025562000112565b015160001960f88460031b161c1916905538808062000389565b8385015186558d979095019493840193018e62000377565b90915060028a528a8a208480850160051c8201928d861062000414575b918b91869594930160051c01915b82811062000405575050620000e7565b8c81558594508b9101620003f5565b92508192620003e7565b92607f1692620000d0565b600080fd5b6040519190601f01601f191682016001600160401b038111838210176200045457604052565b634e487b7160e01b600052604160045260246000fd5b919080601f84011215620004295782516001600160401b0381116200045457602090620004a0601f8201601f191683016200042e565b92818452828287010111620004295760005b818110620004c857508260009394955001015290565b8581018301518482018401528201620004b256fe608060408181526004918236101561001657600080fd5b600092833560e01c91826306fdde03146104ff57508163095ea7b3146104d557816318160ddd146104b657816323b872dd146103e1578163313ce567146103c557816370a082311461038d578163715018a61461032e5781637437681e146103105781638da5cb5b146102e857816395d89b41146101e3578163a9059cbb146101b2578163c2d0ffca146100ff575063dd62ed3e146100b457600080fd5b346100fb57806003193601126100fb57806020926100d0610607565b6100d8610622565b6001600160a01b0391821683526006865283832091168252845220549051908152f35b5080fd5b919050346101ae5760203660031901126101ae5781359161012a60018060a01b038554163314610670565b600583116101625791602091817fff3dd5e80294197918c284bbfc3dadd97d0b40ce92106110946329088f80068a945551908152a180f35b6020608492519162461bcd60e51b8352820152602160248201527f4d6178205472616e73616374696f6e2063616e6e6f74206578636565642035256044820152601760f91b6064820152fd5b8280fd5b5050346100fb57806003193601126100fb576020906101dc6101d2610607565b60243590336107bd565b5160018152f35b919050346101ae57826003193601126101ae5780519183600354906001908260011c926001811680156102de575b60209586861082146102cb57508488529081156102a95750600114610250575b61024c8686610242828b0383610638565b51918291826105be565b0390f35b929550600383527fc2575a0e9e593c00f959f8c92f12db2869c3395a3b0502d05e2516446f71f85b5b828410610296575050508261024c94610242928201019438610231565b8054868501880152928601928101610279565b60ff191687860152505050151560051b83010192506102428261024c38610231565b634e487b7160e01b845260229052602483fd5b93607f1693610211565b5050346100fb57816003193601126100fb57905490516001600160a01b039091168152602090f35b9050346101ae57826003193601126101ae5760209250549051908152f35b833461038a578060031936011261038a578054816001600160a01b038216610357338214610670565b7f8be0079c531659141344cd1fd0a4f28419497f9722a3daafe3b4186f6b6457e08280a36001600160a01b031916815580f35b80fd5b5050346100fb5760203660031901126100fb5760209181906001600160a01b036103b5610607565b1681526005845220549051908152f35b5050346100fb57816003193601126100fb576020905160128152f35b82843461038a57606036600319011261038a576103fc610607565b90610405610622565b6104136044358092856107bd565b6001600160a01b038316825260066020908152848320338452905283822054845192606084019067ffffffffffffffff8211858310176104a3576020876101dc8861049b898989898752602883527f45524332303a207472616e7366657220616d6f756e742065786365656473206188840152676c6c6f77616e636560c01b87840152610a97565b9033906106bb565b634e487b7160e01b815260418852602490fd5b5050346100fb57816003193601126100fb576020906001549051908152f35b5050346100fb57806003193601126100fb576020906101dc6104f5610607565b60243590336106bb565b929150346105ba57836003193601126105ba57600254600181811c91869082811680156105b0575b60209586861082146102cb57508488529081156102a957506001146105575761024c8686610242828b0383610638565b929550600283527f405787fa12a823e0f2b7631cc41b3ba8828b3321ca811111fa75cd3aa3bb5ace5b82841061059d575050508261024c94610242928201019438610231565b8054868501880152928601928101610580565b93607f1693610527565b8380fd5b6020808252825181830181905290939260005b8281106105f357505060409293506000838284010152601f8019910116010190565b8181018601518482016040015285016105d1565b600435906001600160a01b038216820361061d57565b600080fd5b602435906001600160a01b038216820361061d57565b90601f8019910116810190811067ffffffffffffffff82111761065a57604052565b634e487b7160e01b600052604160045260246000fd5b1561067757565b606460405162461bcd60e51b815260206004820152602060248201527f4f776e61626c653a2063616c6c6572206973206e6f7420746865206f776e65726044820152fd5b6001600160a01b0390811691821561076c571691821561071c5760207f8c5be1e5ebec7d5bd14f71427d1e84f3dd0314c0f7b2291e5b200ac8c7c3b925918360005260068252604060002085600052825280604060002055604051908152a3565b60405162461bcd60e51b815260206004820152602260248201527f45524332303a20617070726f766520746f20746865207a65726f206164647265604482015261737360f01b6064820152608490fd5b60405162461bcd60e51b8152602060048201526024808201527f45524332303a20617070726f76652066726f6d20746865207a65726f206164646044820152637265737360e01b6064820152608490fd5b9192916001600160a01b03908116918215610a4457169081156109f357831561099c57600480549460015495868102968188041490151715610987576000958487526020926007845260409160ff838a20541615610936575b50848852600584528188205482519083820182811067ffffffffffffffff82111761092357610872929186918652601e83527f536166654d6174683a207375627472616374696f6e206f766572666c6f77000088840152610a97565b85895260058552828920558588528188205490838201918281116109105782106108cd57508188877fddf252ad1be2c89b69c2b068fc378daa952ba7f163c4a11628f55a4df523b3ef9798999a5260058652205551908152a3565b825162461bcd60e51b8152908101859052601b60248201527f536166654d6174683a206164646974696f6e206f766572666c6f7700000000006044820152606490fd5b634e487b7160e01b8a526011825260248afd5b634e487b7160e01b8b526041845260248bfd5b6064900483116109465738610816565b83606492519162461bcd60e51b8352820152601860248201527f4578636565647320746865204d61785478416d6f756e742e00000000000000006044820152fd5b601182634e487b7160e01b6000525260246000fd5b60405162461bcd60e51b815260206004820152602960248201527f5472616e7366657220616d6f756e74206d7573742062652067726561746572206044820152687468616e207a65726f60b81b6064820152608490fd5b60405162461bcd60e51b815260206004820152602360248201527f45524332303a207472616e7366657220746f20746865207a65726f206164647260448201526265737360e81b6064820152608490fd5b60405162461bcd60e51b815260206004820152602560248201527f45524332303a207472616e736665722066726f6d20746865207a65726f206164604482015264647265737360d81b6064820152608490fd5b91828211610ac257508103908111610aac5790565b634e487b7160e01b600052601160045260246000fd5b60405162461bcd60e51b8152908190610ade90600483016105be565b0390fdfea264697066735822122018cb842bcc782404625d7abb8a3d6651d9d0757bca0e073f26cc7b0367af8d1564736f6c63430008180033a2646970667358221220358da7e8ecb5a7fd7a7abe579fcf86c595ec329db5544daae6e87d41421e95ea64736f6c63430008180033",
          "opcodes": "PUSH1 0x80 CALLVALUE PUSH3 0x1A3 JUMPI PUSH1 0x1F PUSH3 0x2B14 CODESIZE DUP2 SWAP1 SUB SWAP2 DUP3 ADD PUSH1 0x1F NOT AND DUP4 ADD SWAP2 PUSH1 0x1 PUSH1 0x1 PUSH1 0x40 SHL SUB DUP4 GT DUP5 DUP5 LT OR PUSH3 0x1A8 JUMPI DUP1 DUP5 SWAP3 PUSH1 0xC0 SWAP5 PUSH1 0x40 MSTORE DUP4 CODECOPY DUP2 ADD SUB SLT PUSH3 0x1A3 JUMPI PUSH3 0x4D DUP2 PUSH3 0x1BE JUMP JUMPDEST SWAP1 PUSH3 0x5C PUSH1 0x20 DUP3 ADD PUSH3 0x1BE JUMP JUMPDEST PUSH3 0x6A PUSH1 0x40 DUP4 ADD PUSH3 0x1BE JUMP JUMPDEST SWAP3 PUSH1 0x60 DUP4 ADD MLOAD SWAP2 PUSH1 0xA0 PUSH1 0x80 DUP6 ADD MLOAD SWAP5 ADD MLOAD SWAP5 PUSH1 0x1 DUP1 PUSH1 0xA0 SHL SUB NOT SWAP3 CALLER DUP5 PUSH1 0x0 SLOAD AND OR PUSH1 0x0 SSTORE PUSH1 0x1 DUP1 PUSH1 0xA0 SHL SUB SWAP3 DUP4 DUP1 SWAP3 AND DUP6 PUSH1 0x1 SLOAD AND OR PUSH1 0x1 SSTORE AND DUP4 PUSH1 0x3 SLOAD AND OR PUSH1 0x3 SSTORE AND SWAP1 PUSH1 0x4 SLOAD AND OR PUSH1 0x4 SSTORE PUSH8 0xDE0B6B3A7640000 SWAP1 DUP2 DUP2 MUL SWAP2 DUP2 DUP4 DIV EQ SWAP1 ISZERO OR ISZERO PUSH3 0x18D JUMPI PUSH2 0x3E8 SWAP1 DIV PUSH1 0x5 SSTORE PUSH1 0x5 DUP2 GT PUSH3 0x148 JUMPI PUSH1 0x5 DUP3 GT PUSH3 0x103 JUMPI PUSH1 0x6 SSTORE PUSH1 0x7 SSTORE PUSH1 0x40 MLOAD PUSH2 0x2940 SWAP1 DUP2 PUSH3 0x1D4 DUP3 CODECOPY RETURN JUMPDEST PUSH1 0x40 MLOAD PUSH3 0x461BCD PUSH1 0xE5 SHL DUP2 MSTORE PUSH1 0x20 PUSH1 0x4 DUP3 ADD MSTORE PUSH1 0x1F PUSH1 0x24 DUP3 ADD MSTORE PUSH32 0x4C6971756964697479204665652063616E6E6F74206578636565642035252E00 PUSH1 0x44 DUP3 ADD MSTORE PUSH1 0x64 SWAP1 REVERT JUMPDEST PUSH1 0x40 MLOAD PUSH3 0x461BCD PUSH1 0xE5 SHL DUP2 MSTORE PUSH1 0x20 PUSH1 0x4 DUP3 ADD MSTORE PUSH1 0x1E PUSH1 0x24 DUP3 ADD MSTORE PUSH32 0x526566657272616C204665652063616E6E6F74206578636565642035252E0000 PUSH1 0x44 DUP3 ADD MSTORE PUSH1 0x64 SWAP1 REVERT JUMPDEST PUSH4 0x4E487B71 PUSH1 0xE0 SHL PUSH1 0x0 MSTORE PUSH1 0x11 PUSH1 0x4 MSTORE PUSH1 0x24 PUSH1 0x0 REVERT JUMPDEST PUSH1 0x0 DUP1 REVERT JUMPDEST PUSH4 0x4E487B71 PUSH1 0xE0 SHL PUSH1 0x0 MSTORE PUSH1 0x41 PUSH1 0x4 MSTORE PUSH1 0x24 PUSH1 0x0 REVERT JUMPDEST MLOAD SWAP1 PUSH1 0x1 PUSH1 0x1 PUSH1 0xA0 SHL SUB DUP3 AND DUP3 SUB PUSH3 0x1A3 JUMPI JUMP INVALID PUSH1 0x80 DUP1 PUSH1 0x40 MSTORE PUSH1 0x4 CALLDATASIZE LT ISZERO PUSH3 0x14 JUMPI PUSH1 0x0 DUP1 REVERT JUMPDEST PUSH1 0x0 CALLDATALOAD PUSH1 0xE0 SHR SWAP1 DUP2 PUSH4 0x17E7E58 EQ PUSH3 0xA34 JUMPI POP DUP1 PUSH4 0x94B7415 EQ PUSH3 0xA09 JUMPI DUP1 PUSH4 0x2C135B93 EQ PUSH3 0x9E2 JUMPI DUP1 PUSH4 0x5C52A5F2 EQ PUSH3 0x991 JUMPI DUP1 PUSH4 0x7660F44A EQ PUSH3 0x96D JUMPI DUP1 PUSH4 0x775C300C EQ PUSH3 0x94F JUMPI DUP1 PUSH4 0x84AE2BC6 EQ PUSH3 0x92F JUMPI DUP1 PUSH4 0x8E675663 EQ PUSH3 0x90B JUMPI DUP1 PUSH4 0x98118CB4 EQ PUSH3 0x8EB JUMPI DUP1 PUSH4 0xA153E6FF EQ PUSH3 0xF9 JUMPI DUP1 PUSH4 0xCF3CF573 EQ PUSH3 0xD9 JUMPI PUSH4 0xF3F524B8 EQ PUSH3 0xB0 JUMPI PUSH1 0x0 DUP1 REVERT JUMPDEST CALLVALUE PUSH3 0xD4 JUMPI PUSH1 0x20 CALLDATASIZE PUSH1 0x3 NOT ADD SLT PUSH3 0xD4 JUMPI PUSH1 0x20 PUSH1 0x4 CALLDATALOAD DUP1 PUSH1 0x6 SSTORE PUSH1 0x40 MLOAD SWAP1 DUP2 MSTORE RETURN JUMPDEST PUSH1 0x0 DUP1 REVERT JUMPDEST CALLVALUE PUSH3 0xD4 JUMPI PUSH1 0x0 CALLDATASIZE PUSH1 0x3 NOT ADD SLT PUSH3 0xD4 JUMPI PUSH1 0x20 PUSH1 0x5 SLOAD PUSH1 0x40 MLOAD SWAP1 DUP2 MSTORE RETURN JUMPDEST PUSH2 0x100 CALLDATASIZE PUSH1 0x3 NOT ADD SLT PUSH3 0xD4 JUMPI PUSH1 0x4 CALLDATALOAD PUSH1 0x1 PUSH1 0x1 PUSH1 0x40 SHL SUB DUP2 GT PUSH3 0xD4 JUMPI PUSH3 0x129 SWAP1 CALLDATASIZE SWAP1 PUSH1 0x4 ADD PUSH3 0xB17 JUMP JUMPDEST PUSH1 0x24 CALLDATALOAD PUSH1 0x1 PUSH1 0x1 PUSH1 0x40 SHL SUB DUP2 GT PUSH3 0xD4 JUMPI PUSH3 0x14B SWAP1 CALLDATASIZE SWAP1 PUSH1 0x4 ADD PUSH3 0xB17 JUMP JUMPDEST PUSH1 0x44 CALLDATALOAD PUSH1 0x1 PUSH1 0x1 PUSH1 0x40 SHL SUB DUP2 GT PUSH3 0xD4 JUMPI PUSH3 0x16D SWAP1 CALLDATASIZE SWAP1 PUSH1 0x4 ADD PUSH3 0xB17 JUMP JUMPDEST PUSH1 0x64 CALLDATALOAD PUSH1 0x1 PUSH1 0x1 PUSH1 0x40 SHL SUB DUP2 GT PUSH3 0xD4 JUMPI PUSH3 0x18F SWAP1 CALLDATASIZE SWAP1 PUSH1 0x4 ADD PUSH3 0xB17 JUMP JUMPDEST SWAP3 PUSH1 0x84 CALLDATALOAD SWAP3 PUSH1 0x1 PUSH1 0x1 PUSH1 0x40 SHL SUB DUP5 GT PUSH3 0xD4 JUMPI CALLDATASIZE PUSH1 0x23 DUP6 ADD SLT ISZERO PUSH3 0xD4 JUMPI PUSH1 0x40 MLOAD SWAP4 PUSH3 0x1BE DUP6 PUSH3 0xABD JUMP JUMPDEST DUP5 SWAP1 PUSH1 0x84 DUP2 ADD SWAP1 CALLDATASIZE DUP3 GT PUSH3 0xD4 JUMPI DUP1 PUSH1 0x4 ADD SWAP3 JUMPDEST DUP3 DUP5 LT PUSH3 0x8B8 JUMPI POP POP PUSH1 0xE4 CALLDATALOAD SWAP3 SWAP2 POP POP PUSH1 0x1 PUSH1 0x1 PUSH1 0xA0 SHL SUB DUP3 AND DUP3 SUB PUSH3 0xD4 JUMPI PUSH1 0x5 SLOAD CALLVALUE LT PUSH3 0x873 JUMPI PUSH1 0x40 MLOAD PUSH2 0xFF5 DUP2 DUP2 DUP2 ADD LT PUSH1 0x1 PUSH1 0x1 PUSH1 0x40 SHL SUB DUP3 DUP5 ADD GT OR PUSH3 0x699 JUMPI DUP1 DUP3 SWAP2 PUSH3 0x1916 DUP4 CODECOPY PUSH1 0x80 DUP2 DUP4 ADD MSTORE PUSH3 0x253 PUSH3 0x240 PUSH1 0x80 DUP4 DUP6 ADD ADD DUP9 PUSH3 0xC01 JUMP JUMPDEST DUP3 DUP5 ADD DUP2 SUB PUSH1 0x20 DUP5 DUP7 ADD ADD MSTORE DUP6 PUSH3 0xC01 JUMP JUMPDEST SWAP1 PUSH1 0xA4 CALLDATALOAD PUSH1 0x40 DUP3 DUP6 ADD ADD MSTORE PUSH1 0x60 PUSH1 0xC4 CALLDATALOAD SWAP2 DUP5 ADD ADD MSTORE SUB SWAP1 PUSH1 0x0 CREATE SWAP5 DUP6 ISZERO PUSH3 0x7B3 JUMPI PUSH1 0x3 SLOAD PUSH1 0x40 MLOAD PUSH4 0x15AB88C9 PUSH1 0xE3 SHL DUP2 MSTORE SWAP6 SWAP1 PUSH1 0x20 SWAP1 DUP8 SWAP1 PUSH1 0x4 SWAP1 DUP3 SWAP1 PUSH1 0x1 PUSH1 0x1 PUSH1 0xA0 SHL SUB AND GAS STATICCALL SWAP6 DUP7 ISZERO PUSH3 0x7B3 JUMPI PUSH1 0x0 SWAP7 PUSH1 0x20 SWAP2 DUP9 SWAP2 PUSH3 0x851 JUMPI JUMPDEST POP PUSH1 0x1 SLOAD PUSH1 0x40 MLOAD PUSH4 0x64E329CB PUSH1 0xE1 SHL DUP2 MSTORE PUSH1 0x1 PUSH1 0x1 PUSH1 0xA0 SHL SUB DUP12 DUP2 AND PUSH1 0x4 DUP4 ADD MSTORE SWAP3 DUP4 AND PUSH1 0x24 DUP3 ADD MSTORE SWAP9 DUP10 SWAP3 PUSH1 0x44 SWAP3 DUP5 SWAP3 SWAP2 AND GAS CALL SWAP6 DUP7 ISZERO PUSH3 0x7B3 JUMPI PUSH1 0x0 SWAP7 PUSH3 0x819 JUMPI JUMPDEST POP PUSH1 0x3 SLOAD PUSH1 0x40 MLOAD PUSH4 0x313CE567 PUSH1 0xE0 SHL DUP2 MSTORE SWAP1 PUSH1 0x1 PUSH1 0x1 PUSH1 0xA0 SHL SUB SWAP1 DUP2 AND SWAP1 PUSH1 0x20 SWAP1 DUP4 SWAP1 PUSH1 0x4 SWAP1 DUP3 SWAP1 DUP14 AND GAS STATICCALL DUP1 ISZERO PUSH3 0x7B3 JUMPI PUSH3 0x349 PUSH3 0x352 SWAP2 PUSH3 0x364 SWAP5 PUSH1 0x0 SWAP2 PUSH3 0x7F5 JUMPI JUMPDEST POP PUSH3 0xC7F JUMP JUMPDEST PUSH1 0xA4 CALLDATALOAD PUSH3 0xCA7 JUMP JUMPDEST SWAP1 PUSH1 0x1 PUSH1 0x1 PUSH1 0xA0 SHL SUB DUP11 AND SWAP1 PUSH3 0xB64 JUMP JUMPDEST ISZERO PUSH3 0xD4 JUMPI PUSH1 0x64 PUSH3 0x37A CALLVALUE PUSH1 0x7 SLOAD PUSH3 0xCA7 JUMP JUMPDEST DIV SWAP8 PUSH1 0x4 PUSH3 0x38A DUP11 CALLVALUE PUSH3 0xCBB JUMP JUMPDEST PUSH1 0x3 SLOAD PUSH1 0x40 MLOAD PUSH4 0x313CE567 PUSH1 0xE0 SHL DUP2 MSTORE SWAP2 SWAP12 SWAP2 SWAP3 PUSH1 0x1 PUSH1 0x1 PUSH1 0xA0 SHL SUB SWAP2 DUP3 AND SWAP3 SWAP2 PUSH1 0x20 SWAP2 DUP6 SWAP2 DUP3 SWAP1 DUP16 AND GAS STATICCALL SWAP2 DUP3 ISZERO PUSH3 0x7B3 JUMPI DUP12 PUSH3 0x3DE PUSH3 0x349 PUSH1 0x40 SWAP6 PUSH3 0x40D SWAP8 PUSH1 0x0 SWAP2 PUSH3 0x7BF JUMPI POP PUSH3 0xC7F JUMP JUMPDEST DUP5 MLOAD PUSH4 0xE505AA9 PUSH1 0xE3 SHL DUP2 MSTORE PUSH1 0x1 PUSH1 0x1 PUSH1 0xA0 SHL SUB SWAP1 SWAP3 AND PUSH1 0x4 DUP4 ADD MSTORE PUSH1 0x24 DUP3 ADD MSTORE SWAP4 DUP5 SWAP3 DUP4 SWAP2 DUP3 SWAP1 PUSH1 0x44 DUP3 ADD SWAP1 JUMP JUMPDEST SUB SWAP3 GAS CALL DUP1 ISZERO PUSH3 0x7B3 JUMPI PUSH3 0x782 JUMPI JUMPDEST POP CALLER PUSH1 0x0 SWAP1 DUP2 MSTORE PUSH1 0x8 PUSH1 0x20 MSTORE PUSH1 0x40 SWAP1 KECCAK256 PUSH1 0x1 DUP2 ADD SLOAD SWAP1 SWAP10 SWAP1 PUSH1 0x1 PUSH1 0x1 PUSH1 0xA0 SHL SUB AND DUP1 ISZERO PUSH3 0x6C5 JUMPI POP PUSH1 0x4 SLOAD PUSH1 0x0 SWAP2 DUP3 SWAP2 DUP3 SWAP2 DUP3 SWAP2 PUSH1 0x1 PUSH1 0x1 PUSH1 0xA0 SHL SUB AND GAS CALL PUSH3 0x468 PUSH3 0xCC9 JUMP JUMPDEST POP ISZERO PUSH3 0xD4 JUMPI JUMPDEST DUP3 MLOAD SWAP1 PUSH1 0x20 DUP5 ADD MLOAD SWAP3 PUSH1 0x60 PUSH1 0x40 DUP7 ADD MLOAD SWAP6 ADD MLOAD SWAP6 PUSH1 0x40 MLOAD SWAP9 DUP10 PUSH2 0x160 DUP2 ADD LT PUSH1 0x1 PUSH1 0x1 PUSH1 0x40 SHL SUB PUSH2 0x160 DUP13 ADD GT OR PUSH3 0x699 JUMPI PUSH2 0x160 DUP11 ADD PUSH1 0x40 MSTORE PUSH1 0x1 DUP1 PUSH1 0xA0 SHL SUB DUP13 AND DUP11 MSTORE PUSH1 0x1 DUP1 PUSH1 0xA0 SHL SUB DUP12 AND PUSH1 0x20 DUP12 ADD MSTORE PUSH1 0x40 DUP11 ADD MSTORE PUSH1 0x60 DUP10 ADD MSTORE PUSH1 0xA4 CALLDATALOAD PUSH1 0x80 DUP10 ADD MSTORE PUSH1 0xA0 DUP9 ADD MSTORE PUSH1 0xC0 DUP8 ADD MSTORE PUSH1 0xE0 DUP7 ADD MSTORE PUSH2 0x100 DUP6 ADD MSTORE PUSH2 0x120 DUP5 ADD MSTORE PUSH2 0x140 DUP4 ADD MSTORE PUSH1 0x1 DUP1 PUSH1 0xA0 SHL SUB DUP5 AND PUSH1 0x0 MSTORE PUSH1 0xA PUSH1 0x20 MSTORE PUSH3 0x518 DUP3 PUSH1 0x40 PUSH1 0x0 KECCAK256 PUSH3 0xD54 JUMP JUMPDEST PUSH1 0xB SLOAD PUSH1 0x1 PUSH1 0x40 SHL SWAP1 DUP2 DUP2 LT ISZERO PUSH3 0x699 JUMPI PUSH1 0x1 DUP2 ADD DUP1 PUSH1 0xB SSTORE DUP2 LT ISZERO PUSH3 0x6AF JUMPI DUP4 PUSH1 0xB PUSH3 0x56F SWAP3 DUP2 PUSH1 0x0 MSTORE MUL PUSH32 0x175B7A638427703F0DBE7BB9BBF987A2551717B34E79F33B5B1008D1FA01DB9 ADD PUSH3 0xD54 JUMP JUMPDEST PUSH3 0x57A CALLER PUSH3 0x163B JUMP JUMPDEST ISZERO PUSH3 0x5F5 JUMPI POP POP PUSH3 0x593 SWAP1 PUSH1 0x3 PUSH1 0x60 SWAP6 ADD PUSH3 0x15C7 JUMP JUMPDEST PUSH1 0xB SLOAD PUSH1 0x40 MLOAD DUP2 DUP2 MSTORE SWAP1 SWAP2 SWAP1 PUSH1 0x1 PUSH1 0x1 PUSH1 0xA0 SHL SUB DUP1 DUP4 AND SWAP2 SWAP1 DUP6 AND SWAP1 PUSH32 0x714AA39317AD9A7A7A99DB52B44490DA5D068A0B2710FFFB1A1282AD3CADAE1F SWAP1 PUSH1 0x20 SWAP1 LOG3 PUSH1 0x40 DUP1 MLOAD PUSH1 0x1 PUSH1 0x1 PUSH1 0xA0 SHL SUB SWAP5 DUP6 AND DUP2 MSTORE SWAP2 SWAP1 SWAP4 AND PUSH1 0x20 DUP3 ADD MSTORE SWAP2 DUP3 ADD MSTORE RETURN JUMPDEST PUSH1 0x40 MLOAD SWAP3 SWAP2 PUSH3 0x605 DUP5 PUSH3 0xABD JUMP JUMPDEST CALLER DUP5 MSTORE PUSH1 0x1 DUP1 PUSH1 0xA0 SHL SUB AND PUSH1 0x20 DUP5 ADD MSTORE PUSH1 0x60 PUSH1 0x40 DUP5 ADD MSTORE PUSH1 0x60 DUP1 DUP5 ADD MSTORE CALLER PUSH1 0x0 MSTORE PUSH1 0x8 PUSH1 0x20 MSTORE PUSH3 0x63B DUP4 PUSH1 0x40 PUSH1 0x0 KECCAK256 PUSH3 0x16D2 JUMP JUMPDEST PUSH1 0x9 SLOAD SWAP1 DUP2 LT ISZERO PUSH3 0x699 JUMPI DUP1 PUSH1 0x1 PUSH3 0x659 SWAP3 ADD PUSH1 0x9 SSTORE PUSH3 0x1600 JUMP JUMPDEST SWAP3 SWAP1 SWAP3 PUSH3 0x683 JUMPI PUSH1 0x60 SWAP6 PUSH3 0x676 PUSH1 0x3 SWAP3 PUSH3 0x67D SWAP6 PUSH3 0x16D2 JUMP JUMPDEST ADD PUSH3 0x15C7 JUMP JUMPDEST PUSH3 0x593 JUMP JUMPDEST PUSH4 0x4E487B71 PUSH1 0xE0 SHL PUSH1 0x0 MSTORE PUSH1 0x0 PUSH1 0x4 MSTORE PUSH1 0x24 PUSH1 0x0 REVERT JUMPDEST PUSH4 0x4E487B71 PUSH1 0xE0 SHL PUSH1 0x0 MSTORE PUSH1 0x41 PUSH1 0x4 MSTORE PUSH1 0x24 PUSH1 0x0 REVERT JUMPDEST PUSH4 0x4E487B71 PUSH1 0xE0 SHL PUSH1 0x0 MSTORE PUSH1 0x32 PUSH1 0x4 MSTORE PUSH1 0x24 PUSH1 0x0 REVERT JUMPDEST PUSH1 0x0 MSTORE PUSH1 0x2 PUSH1 0x40 PUSH1 0x0 KECCAK256 ADD DUP1 SLOAD SWAP2 PUSH1 0x1 PUSH1 0x40 SHL DUP4 LT ISZERO PUSH3 0x699 JUMPI PUSH1 0x1 DUP4 ADD DUP1 DUP4 SSTORE DUP4 LT ISZERO PUSH3 0x6AF JUMPI PUSH1 0x0 DUP1 DUP1 SWAP4 SWAP3 DUP15 SWAP6 DUP3 SWAP5 DUP4 MSTORE PUSH1 0x20 DUP4 KECCAK256 ADD CALLER PUSH12 0xFFFFFFFFFFFFFFFFFFFFFFFF PUSH1 0xA0 SHL DUP3 SLOAD AND OR SWAP1 SSTORE PUSH3 0x734 PUSH1 0x64 PUSH3 0x72B DUP4 PUSH1 0x6 SLOAD PUSH3 0xCA7 JUMP JUMPDEST DIV DUP1 SWAP3 PUSH3 0xCBB JUMP JUMPDEST PUSH1 0x1 SWAP1 SWAP7 ADD SLOAD PUSH1 0x1 PUSH1 0x1 PUSH1 0xA0 SHL SUB AND GAS CALL PUSH3 0x74F PUSH3 0xCC9 JUMP JUMPDEST POP ISZERO PUSH3 0xD4 JUMPI PUSH1 0x4 SLOAD PUSH1 0x0 SWAP2 DUP3 SWAP2 DUP3 SWAP2 DUP3 SWAP2 PUSH1 0x1 PUSH1 0x1 PUSH1 0xA0 SHL SUB AND GAS CALL PUSH3 0x777 PUSH3 0xCC9 JUMP JUMPDEST POP PUSH3 0x470 JUMPI PUSH1 0x0 DUP1 REVERT JUMPDEST PUSH1 0x40 SWAP1 DUP2 RETURNDATASIZE DUP4 GT PUSH3 0x7AB JUMPI JUMPDEST PUSH3 0x79B DUP2 DUP4 PUSH3 0xAD9 JUMP JUMPDEST DUP2 ADD SUB SLT PUSH3 0xD4 JUMPI DUP10 PUSH3 0x41E JUMP JUMPDEST POP RETURNDATASIZE PUSH3 0x78F JUMP JUMPDEST PUSH1 0x40 MLOAD RETURNDATASIZE PUSH1 0x0 DUP3 RETURNDATACOPY RETURNDATASIZE SWAP1 REVERT JUMPDEST PUSH3 0x7E6 SWAP2 POP PUSH1 0x20 RETURNDATASIZE PUSH1 0x20 GT PUSH3 0x7ED JUMPI JUMPDEST PUSH3 0x7DD DUP2 DUP4 PUSH3 0xAD9 JUMP JUMPDEST DUP2 ADD SWAP1 PUSH3 0xC64 JUMP JUMPDEST CODESIZE PUSH3 0x342 JUMP JUMPDEST POP RETURNDATASIZE PUSH3 0x7D1 JUMP JUMPDEST PUSH3 0x812 SWAP2 POP PUSH1 0x20 RETURNDATASIZE PUSH1 0x20 GT PUSH3 0x7ED JUMPI PUSH3 0x7DD DUP2 DUP4 PUSH3 0xAD9 JUMP JUMPDEST DUP14 PUSH3 0x342 JUMP JUMPDEST PUSH3 0x841 SWAP2 SWAP7 POP PUSH1 0x20 RETURNDATASIZE PUSH1 0x20 GT PUSH3 0x849 JUMPI JUMPDEST PUSH3 0x838 DUP2 DUP4 PUSH3 0xAD9 JUMP JUMPDEST DUP2 ADD SWAP1 PUSH3 0xC43 JUMP JUMPDEST SWAP5 DUP9 PUSH3 0x2F8 JUMP JUMPDEST POP RETURNDATASIZE PUSH3 0x82C JUMP JUMPDEST PUSH3 0x86C SWAP2 POP DUP3 RETURNDATASIZE DUP5 GT PUSH3 0x849 JUMPI PUSH3 0x838 DUP2 DUP4 PUSH3 0xAD9 JUMP JUMPDEST DUP11 PUSH3 0x2B2 JUMP JUMPDEST PUSH1 0x40 MLOAD PUSH3 0x461BCD PUSH1 0xE5 SHL DUP2 MSTORE PUSH1 0x20 PUSH1 0x4 DUP3 ADD MSTORE PUSH1 0x19 PUSH1 0x24 DUP3 ADD MSTORE PUSH32 0x496E73756666696369656E7420616D6F756E742073656E742E00000000000000 PUSH1 0x44 DUP3 ADD MSTORE PUSH1 0x64 SWAP1 REVERT JUMPDEST DUP4 CALLDATALOAD PUSH1 0x1 PUSH1 0x1 PUSH1 0x40 SHL SUB DUP2 GT PUSH3 0xD4 JUMPI PUSH1 0x20 SWAP2 PUSH3 0x8DF DUP4 SWAP3 PUSH1 0x4 CALLDATASIZE SWAP2 DUP8 ADD ADD PUSH3 0xB17 JUMP JUMPDEST DUP2 MSTORE ADD SWAP4 ADD SWAP3 PUSH3 0x1D3 JUMP JUMPDEST CALLVALUE PUSH3 0xD4 JUMPI PUSH1 0x0 CALLDATASIZE PUSH1 0x3 NOT ADD SLT PUSH3 0xD4 JUMPI PUSH1 0x20 PUSH1 0x7 SLOAD PUSH1 0x40 MLOAD SWAP1 DUP2 MSTORE RETURN JUMPDEST CALLVALUE PUSH3 0xD4 JUMPI PUSH1 0x20 CALLDATASIZE PUSH1 0x3 NOT ADD SLT PUSH3 0xD4 JUMPI PUSH1 0x20 PUSH1 0x4 CALLDATALOAD DUP1 PUSH1 0x7 SSTORE PUSH1 0x40 MLOAD SWAP1 DUP2 MSTORE RETURN JUMPDEST CALLVALUE PUSH3 0xD4 JUMPI PUSH1 0x0 CALLDATASIZE PUSH1 0x3 NOT ADD SLT PUSH3 0xD4 JUMPI PUSH1 0x20 PUSH1 0x6 SLOAD PUSH1 0x40 MLOAD SWAP1 DUP2 MSTORE RETURN JUMPDEST CALLVALUE PUSH3 0xD4 JUMPI PUSH1 0x0 CALLDATASIZE PUSH1 0x3 NOT ADD SLT PUSH3 0xD4 JUMPI PUSH1 0x20 PUSH1 0x40 MLOAD PUSH1 0x0 DUP2 MSTORE RETURN JUMPDEST CALLVALUE PUSH3 0xD4 JUMPI PUSH1 0x20 CALLDATASIZE PUSH1 0x3 NOT ADD SLT PUSH3 0xD4 JUMPI PUSH1 0x20 PUSH1 0x4 CALLDATALOAD DUP1 PUSH1 0x5 SSTORE PUSH1 0x40 MLOAD SWAP1 DUP2 MSTORE RETURN JUMPDEST CALLVALUE PUSH3 0xD4 JUMPI PUSH1 0x60 CALLDATASIZE PUSH1 0x3 NOT ADD SLT PUSH3 0xD4 JUMPI PUSH1 0x4 CALLDATALOAD PUSH1 0x1 PUSH1 0x1 PUSH1 0xA0 SHL SUB DUP1 DUP3 AND DUP3 SUB PUSH3 0xD4 JUMPI PUSH1 0x24 CALLDATALOAD SWAP1 DUP2 AND DUP2 SUB PUSH3 0xD4 JUMPI PUSH1 0x20 SWAP2 PUSH3 0x9D8 SWAP2 PUSH1 0x44 CALLDATALOAD SWAP2 PUSH3 0xB64 JUMP JUMPDEST PUSH1 0x40 MLOAD SWAP1 ISZERO ISZERO DUP2 MSTORE RETURN JUMPDEST CALLVALUE PUSH3 0xD4 JUMPI PUSH1 0x0 CALLDATASIZE PUSH1 0x3 NOT ADD SLT PUSH3 0xD4 JUMPI PUSH1 0x20 PUSH1 0x40 MLOAD PUSH10 0x152D02C7E14AF6800000 DUP2 MSTORE RETURN JUMPDEST CALLVALUE PUSH3 0xD4 JUMPI PUSH1 0x0 CALLDATASIZE PUSH1 0x3 NOT ADD SLT PUSH3 0xD4 JUMPI PUSH1 0x0 SLOAD PUSH1 0x40 MLOAD PUSH1 0x1 PUSH1 0x1 PUSH1 0xA0 SHL SUB SWAP1 SWAP2 AND DUP2 MSTORE PUSH1 0x20 SWAP1 RETURN JUMPDEST CALLVALUE PUSH3 0xD4 JUMPI PUSH1 0x0 CALLDATASIZE PUSH1 0x3 NOT ADD SLT PUSH3 0xD4 JUMPI PUSH1 0x0 SLOAD PUSH1 0x1 PUSH1 0x1 PUSH1 0xA0 SHL SUB SWAP2 SWAP1 DUP3 AND CALLER SUB PUSH3 0xA6C JUMPI PUSH1 0x20 DUP3 PUSH1 0x4 SLOAD AND PUSH1 0x40 MLOAD SWAP1 DUP2 MSTORE RETURN JUMPDEST PUSH3 0x461BCD PUSH1 0xE5 SHL DUP2 MSTORE PUSH1 0x20 PUSH1 0x4 DUP3 ADD MSTORE PUSH1 0x26 PUSH1 0x24 DUP3 ADD MSTORE PUSH32 0x4F6E6C7920746865206F776E65722063616E2063616C6C20746869732066756E PUSH1 0x44 DUP3 ADD MSTORE PUSH6 0x31BA34B7B717 PUSH1 0xD1 SHL PUSH1 0x64 DUP3 ADD MSTORE PUSH1 0x84 SWAP1 REVERT JUMPDEST PUSH1 0x80 DUP2 ADD SWAP1 DUP2 LT PUSH1 0x1 PUSH1 0x1 PUSH1 0x40 SHL SUB DUP3 GT OR PUSH3 0x699 JUMPI PUSH1 0x40 MSTORE JUMP JUMPDEST SWAP1 PUSH1 0x1F DUP1 NOT SWAP2 ADD AND DUP2 ADD SWAP1 DUP2 LT PUSH1 0x1 PUSH1 0x1 PUSH1 0x40 SHL SUB DUP3 GT OR PUSH3 0x699 JUMPI PUSH1 0x40 MSTORE JUMP JUMPDEST PUSH1 0x1 PUSH1 0x1 PUSH1 0x40 SHL SUB DUP2 GT PUSH3 0x699 JUMPI PUSH1 0x1F ADD PUSH1 0x1F NOT AND PUSH1 0x20 ADD SWAP1 JUMP JUMPDEST DUP2 PUSH1 0x1F DUP3 ADD SLT ISZERO PUSH3 0xD4 JUMPI DUP1 CALLDATALOAD SWAP1 PUSH3 0xB31 DUP3 PUSH3 0xAFB JUMP JUMPDEST SWAP3 PUSH3 0xB41 PUSH1 0x40 MLOAD SWAP5 DUP6 PUSH3 0xAD9 JUMP JUMPDEST DUP3 DUP5 MSTORE PUSH1 0x20 DUP4 DUP4 ADD ADD GT PUSH3 0xD4 JUMPI DUP2 PUSH1 0x0 SWAP3 PUSH1 0x20 DUP1 SWAP4 ADD DUP4 DUP7 ADD CALLDATACOPY DUP4 ADD ADD MSTORE SWAP1 JUMP JUMPDEST PUSH1 0x40 MLOAD PUSH4 0x95EA7B3 PUSH1 0xE0 SHL DUP2 MSTORE PUSH1 0x1 PUSH1 0x1 PUSH1 0xA0 SHL SUB SWAP2 DUP3 AND PUSH1 0x4 DUP3 ADD MSTORE PUSH1 0x24 DUP2 ADD SWAP4 SWAP1 SWAP4 MSTORE PUSH1 0x0 SWAP3 SWAP2 PUSH1 0x20 SWAP2 DUP4 SWAP2 PUSH1 0x44 SWAP2 DUP4 SWAP2 DUP8 SWAP2 AND GAS CALL DUP1 ISZERO PUSH3 0xBF6 JUMPI PUSH3 0xBB0 JUMPI JUMPDEST POP POP PUSH1 0x1 SWAP1 JUMP JUMPDEST PUSH1 0x20 DUP2 RETURNDATASIZE PUSH1 0x20 GT PUSH3 0xBED JUMPI JUMPDEST DUP2 PUSH3 0xBCC PUSH1 0x20 SWAP4 DUP4 PUSH3 0xAD9 JUMP JUMPDEST DUP2 ADD SUB SLT PUSH3 0xBE9 JUMPI MLOAD DUP1 ISZERO ISZERO SUB PUSH3 0xBE6 JUMPI DUP1 PUSH3 0xBA9 JUMP JUMPDEST DUP1 REVERT JUMPDEST POP DUP1 REVERT JUMPDEST RETURNDATASIZE SWAP2 POP PUSH3 0xBBD JUMP JUMPDEST PUSH1 0x40 MLOAD RETURNDATASIZE DUP5 DUP3 RETURNDATACOPY RETURNDATASIZE SWAP1 REVERT JUMPDEST SWAP2 SWAP1 DUP3 MLOAD SWAP3 DUP4 DUP3 MSTORE PUSH1 0x0 JUMPDEST DUP5 DUP2 LT PUSH3 0xC2E JUMPI POP POP DUP3 PUSH1 0x0 PUSH1 0x20 DUP1 SWAP5 SWAP6 DUP5 ADD ADD MSTORE PUSH1 0x1F DUP1 NOT SWAP2 ADD AND ADD ADD SWAP1 JUMP JUMPDEST PUSH1 0x20 DUP2 DUP4 ADD DUP2 ADD MLOAD DUP5 DUP4 ADD DUP3 ADD MSTORE ADD PUSH3 0xC0C JUMP JUMPDEST SWAP1 DUP2 PUSH1 0x20 SWAP2 SUB SLT PUSH3 0xD4 JUMPI MLOAD PUSH1 0x1 PUSH1 0x1 PUSH1 0xA0 SHL SUB DUP2 AND DUP2 SUB PUSH3 0xD4 JUMPI SWAP1 JUMP JUMPDEST SWAP1 DUP2 PUSH1 0x20 SWAP2 SUB SLT PUSH3 0xD4 JUMPI MLOAD PUSH1 0xFF DUP2 AND DUP2 SUB PUSH3 0xD4 JUMPI SWAP1 JUMP JUMPDEST PUSH1 0xFF AND PUSH1 0x4D DUP2 GT PUSH3 0xC91 JUMPI PUSH1 0xA EXP SWAP1 JUMP JUMPDEST PUSH4 0x4E487B71 PUSH1 0xE0 SHL PUSH1 0x0 MSTORE PUSH1 0x11 PUSH1 0x4 MSTORE PUSH1 0x24 PUSH1 0x0 REVERT JUMPDEST DUP2 DUP2 MUL SWAP3 SWAP2 DUP2 ISZERO SWAP2 DUP5 DIV EQ OR ISZERO PUSH3 0xC91 JUMPI JUMP JUMPDEST SWAP2 SWAP1 DUP3 SUB SWAP2 DUP3 GT PUSH3 0xC91 JUMPI JUMP JUMPDEST RETURNDATASIZE ISZERO PUSH3 0xCF9 JUMPI RETURNDATASIZE SWAP1 PUSH3 0xCDD DUP3 PUSH3 0xAFB JUMP JUMPDEST SWAP2 PUSH3 0xCED PUSH1 0x40 MLOAD SWAP4 DUP5 PUSH3 0xAD9 JUMP JUMPDEST DUP3 MSTORE RETURNDATASIZE PUSH1 0x0 PUSH1 0x20 DUP5 ADD RETURNDATACOPY JUMP JUMPDEST PUSH1 0x60 SWAP1 JUMP JUMPDEST SWAP1 PUSH1 0x1 DUP3 DUP2 SHR SWAP3 AND DUP1 ISZERO PUSH3 0xD30 JUMPI JUMPDEST PUSH1 0x20 DUP4 LT EQ PUSH3 0xD1A JUMPI JUMP JUMPDEST PUSH4 0x4E487B71 PUSH1 0xE0 SHL PUSH1 0x0 MSTORE PUSH1 0x22 PUSH1 0x4 MSTORE PUSH1 0x24 PUSH1 0x0 REVERT JUMPDEST SWAP2 PUSH1 0x7F AND SWAP2 PUSH3 0xD0E JUMP JUMPDEST DUP2 DUP2 LT PUSH3 0xD47 JUMPI POP POP JUMP JUMPDEST PUSH1 0x0 DUP2 SSTORE PUSH1 0x1 ADD PUSH3 0xD3B JUMP JUMPDEST DUP2 MLOAD DUP2 SLOAD PUSH1 0x1 PUSH1 0x1 PUSH1 0xA0 SHL SUB NOT SWAP1 DUP2 AND PUSH1 0x1 PUSH1 0x1 PUSH1 0xA0 SHL SUB SWAP3 DUP4 AND OR DUP4 SSTORE PUSH1 0x20 DUP1 DUP6 ADD MLOAD PUSH1 0x1 DUP6 DUP2 ADD DUP1 SLOAD SWAP1 SWAP5 AND SWAP2 SWAP1 SWAP5 AND OR SWAP1 SWAP2 SSTORE PUSH1 0x40 DUP5 ADD MLOAD DUP1 MLOAD SWAP1 SWAP4 PUSH1 0x1 PUSH1 0x1 PUSH1 0x40 SHL SUB SWAP4 SWAP1 SWAP3 SWAP1 SWAP2 PUSH1 0x2 DUP5 ADD SWAP1 DUP6 DUP2 GT PUSH3 0x699 JUMPI PUSH3 0xDB9 DUP3 SLOAD PUSH3 0xCFE JUMP JUMPDEST SWAP7 PUSH1 0x1F SWAP8 DUP9 DUP2 GT PUSH3 0x1595 JUMPI JUMPDEST POP DUP4 SWAP1 DUP9 DUP4 GT PUSH1 0x1 EQ PUSH3 0x152E JUMPI PUSH3 0xDF9 SWAP3 SWAP2 PUSH1 0x0 SWAP2 DUP4 PUSH3 0x10A7 JUMPI JUMPDEST POP POP DUP2 PUSH1 0x1 SHL SWAP2 PUSH1 0x0 NOT SWAP1 PUSH1 0x3 SHL SHR NOT AND OR SWAP1 JUMP JUMPDEST SWAP1 SSTORE JUMPDEST PUSH1 0x3 DUP1 DUP5 ADD PUSH1 0x60 DUP9 ADD MLOAD DUP1 MLOAD SWAP1 DUP8 DUP3 GT PUSH3 0x699 JUMPI PUSH3 0xE1D DUP4 SLOAD PUSH3 0xCFE JUMP JUMPDEST DUP10 DUP2 GT PUSH3 0x14F1 JUMPI JUMPDEST POP DUP5 SWAP1 DUP10 DUP4 GT PUSH1 0x1 EQ PUSH3 0x148B JUMPI PUSH3 0xE58 SWAP3 SWAP2 PUSH1 0x0 SWAP2 DUP4 PUSH3 0x10A7 JUMPI POP POP DUP2 PUSH1 0x1 SHL SWAP2 PUSH1 0x0 NOT SWAP1 PUSH1 0x3 SHL SHR NOT AND OR SWAP1 JUMP JUMPDEST SWAP1 SSTORE JUMPDEST PUSH1 0x4 SWAP4 PUSH1 0x80 DUP9 ADD MLOAD DUP6 DUP3 ADD SSTORE PUSH1 0x5 SWAP1 DUP2 DUP2 ADD PUSH1 0xA0 DUP11 ADD MLOAD DUP1 MLOAD SWAP1 DUP10 DUP3 GT PUSH3 0x121E JUMPI PUSH3 0xE89 DUP4 SLOAD PUSH3 0xCFE JUMP JUMPDEST DUP12 DUP2 GT PUSH3 0x145B JUMPI JUMPDEST POP DUP7 SWAP1 DUP12 DUP4 GT PUSH1 0x1 EQ PUSH3 0x13F5 JUMPI PUSH3 0xEC4 SWAP3 SWAP2 PUSH1 0x0 SWAP2 DUP4 PUSH3 0x10A7 JUMPI POP POP DUP2 PUSH1 0x1 SHL SWAP2 PUSH1 0x0 NOT SWAP1 PUSH1 0x3 SHL SHR NOT AND OR SWAP1 JUMP JUMPDEST SWAP1 SSTORE JUMPDEST PUSH1 0x6 DUP2 ADD PUSH1 0xC0 DUP11 ADD MLOAD DUP1 MLOAD SWAP1 DUP10 DUP3 GT PUSH3 0x121E JUMPI PUSH3 0xEE7 DUP4 SLOAD PUSH3 0xCFE JUMP JUMPDEST DUP12 DUP2 GT PUSH3 0x13C5 JUMPI JUMPDEST POP DUP7 SWAP1 DUP12 DUP4 GT PUSH1 0x1 EQ PUSH3 0x135F JUMPI PUSH3 0xF22 SWAP3 SWAP2 PUSH1 0x0 SWAP2 DUP4 PUSH3 0x10A7 JUMPI POP POP DUP2 PUSH1 0x1 SHL SWAP2 PUSH1 0x0 NOT SWAP1 PUSH1 0x3 SHL SHR NOT AND OR SWAP1 JUMP JUMPDEST SWAP1 SSTORE JUMPDEST PUSH1 0x7 DUP2 ADD PUSH1 0xE0 DUP11 ADD MLOAD DUP1 MLOAD SWAP1 DUP10 DUP3 GT PUSH3 0x121E JUMPI PUSH3 0xF45 DUP4 SLOAD PUSH3 0xCFE JUMP JUMPDEST DUP12 DUP2 GT PUSH3 0x132F JUMPI JUMPDEST POP DUP7 SWAP1 DUP12 DUP4 GT PUSH1 0x1 EQ PUSH3 0x12C9 JUMPI PUSH3 0xF80 SWAP3 SWAP2 PUSH1 0x0 SWAP2 DUP4 PUSH3 0x10A7 JUMPI POP POP DUP2 PUSH1 0x1 SHL SWAP2 PUSH1 0x0 NOT SWAP1 PUSH1 0x3 SHL SHR NOT AND OR SWAP1 JUMP JUMPDEST SWAP1 SSTORE JUMPDEST PUSH1 0x8 DUP2 ADD PUSH2 0x100 DUP11 ADD MLOAD DUP1 MLOAD SWAP1 DUP10 DUP3 GT PUSH3 0x121E JUMPI PUSH3 0xFA4 DUP4 SLOAD PUSH3 0xCFE JUMP JUMPDEST DUP12 DUP2 GT PUSH3 0x1299 JUMPI JUMPDEST POP DUP7 SWAP1 DUP12 DUP4 GT PUSH1 0x1 EQ PUSH3 0x1233 JUMPI PUSH3 0xFDF SWAP3 SWAP2 PUSH1 0x0 SWAP2 DUP4 PUSH3 0x10A7 JUMPI POP POP DUP2 PUSH1 0x1 SHL SWAP2 PUSH1 0x0 NOT SWAP1 PUSH1 0x3 SHL SHR NOT AND OR SWAP1 JUMP JUMPDEST SWAP1 SSTORE JUMPDEST PUSH1 0x9 DUP2 ADD PUSH2 0x120 DUP11 ADD MLOAD DUP1 MLOAD SWAP1 DUP10 DUP3 GT PUSH3 0x121E JUMPI PUSH3 0x1003 DUP4 SLOAD PUSH3 0xCFE JUMP JUMPDEST DUP12 DUP2 GT PUSH3 0x11E3 JUMPI JUMPDEST POP DUP7 SWAP1 DUP12 DUP4 GT PUSH1 0x1 EQ PUSH3 0x1170 JUMPI DUP3 PUSH2 0x140 SWAP6 SWAP4 PUSH1 0xA SWAP6 SWAP4 PUSH3 0x1046 SWAP4 PUSH1 0x0 SWAP3 PUSH3 0x10A7 JUMPI POP POP DUP2 PUSH1 0x1 SHL SWAP2 PUSH1 0x0 NOT SWAP1 PUSH1 0x3 SHL SHR NOT AND OR SWAP1 JUMP JUMPDEST SWAP1 SSTORE JUMPDEST ADD SWAP9 ADD MLOAD SWAP5 DUP6 MLOAD SWAP7 DUP8 GT PUSH3 0x115B JUMPI POP PUSH3 0x1065 DUP9 SLOAD PUSH3 0xCFE JUMP JUMPDEST DUP8 DUP2 GT PUSH3 0x111E JUMPI JUMPDEST POP POP DUP2 SWAP6 DUP6 GT PUSH1 0x1 EQ PUSH3 0x10B3 JUMPI POP POP POP PUSH3 0x10A3 SWAP3 DUP3 SWAP2 PUSH1 0x0 SWAP3 PUSH3 0x10A7 JUMPI POP POP DUP2 PUSH1 0x1 SHL SWAP2 PUSH1 0x0 NOT SWAP1 PUSH1 0x3 SHL SHR NOT AND OR SWAP1 JUMP JUMPDEST SWAP1 SSTORE JUMP JUMPDEST ADD MLOAD SWAP1 POP CODESIZE DUP1 PUSH3 0xDE4 JUMP JUMPDEST SWAP2 SWAP5 SWAP1 SWAP3 DUP5 PUSH1 0x1F NOT DUP2 AND DUP9 PUSH1 0x0 MSTORE DUP6 PUSH1 0x0 KECCAK256 SWAP6 PUSH1 0x0 SWAP1 JUMPDEST DUP10 DUP4 DUP4 LT PUSH3 0x1103 JUMPI POP POP POP LT PUSH3 0x10E8 JUMPI JUMPDEST POP POP POP POP DUP2 SHL ADD SWAP1 SSTORE JUMP JUMPDEST ADD MLOAD SWAP1 PUSH1 0xF8 DUP5 PUSH1 0x0 NOT SWAP3 SHL AND SHR NOT AND SWAP1 SSTORE CODESIZE DUP1 DUP1 DUP1 PUSH3 0x10DD JUMP JUMPDEST DUP6 DUP8 ADD MLOAD DUP10 SSTORE SWAP1 SWAP8 ADD SWAP7 SWAP5 DUP6 ADD SWAP5 DUP9 SWAP4 POP SWAP1 DUP2 ADD SWAP1 PUSH3 0x10CA JUMP JUMPDEST PUSH3 0x1149 SWAP2 DUP10 PUSH1 0x0 MSTORE DUP5 PUSH1 0x0 KECCAK256 SWAP1 DUP10 DUP1 DUP11 ADD DUP3 SHR DUP4 ADD SWAP4 DUP8 DUP12 LT PUSH3 0x1151 JUMPI JUMPDEST ADD SWAP1 SHR ADD SWAP1 PUSH3 0xD3B JUMP JUMPDEST CODESIZE DUP1 PUSH3 0x106E JUMP JUMPDEST SWAP4 POP DUP3 SWAP4 PUSH3 0x113E JUMP JUMPDEST PUSH1 0x41 SWAP1 PUSH4 0x4E487B71 PUSH1 0xE0 SHL PUSH1 0x0 MSTORE MSTORE PUSH1 0x24 PUSH1 0x0 REVERT JUMPDEST DUP9 SWAP3 SWAP2 PUSH1 0x1F NOT DUP4 AND SWAP2 DUP6 PUSH1 0x0 MSTORE DUP10 PUSH1 0x0 KECCAK256 SWAP3 PUSH1 0x0 JUMPDEST DUP12 DUP3 DUP3 LT PUSH3 0x11CC JUMPI POP POP SWAP2 PUSH2 0x140 SWAP8 SWAP6 SWAP4 SWAP2 DUP6 PUSH1 0xA SWAP9 SWAP7 SWAP5 LT PUSH3 0x11B3 JUMPI JUMPDEST POP POP POP DUP2 SHL ADD SWAP1 SSTORE PUSH3 0x1049 JUMP JUMPDEST ADD MLOAD PUSH1 0x0 NOT DUP4 DUP12 SHL PUSH1 0xF8 AND SHR NOT AND SWAP1 SSTORE CODESIZE DUP1 DUP1 PUSH3 0x11A5 JUMP JUMPDEST DUP4 DUP6 ADD MLOAD DUP7 SSTORE DUP14 SWAP8 SWAP1 SWAP6 ADD SWAP5 SWAP4 DUP5 ADD SWAP4 ADD PUSH3 0x1185 JUMP JUMPDEST PUSH3 0x120D SWAP1 DUP5 PUSH1 0x0 MSTORE DUP9 PUSH1 0x0 KECCAK256 DUP14 DUP1 DUP7 ADD DUP10 SHR DUP3 ADD SWAP3 DUP12 DUP8 LT PUSH3 0x1214 JUMPI JUMPDEST ADD DUP9 SHR ADD SWAP1 PUSH3 0xD3B JUMP JUMPDEST CODESIZE PUSH3 0x100C JUMP JUMPDEST SWAP3 POP DUP2 SWAP3 PUSH3 0x1202 JUMP JUMPDEST PUSH1 0x41 DUP10 PUSH4 0x4E487B71 PUSH1 0xE0 SHL PUSH1 0x0 MSTORE MSTORE PUSH1 0x24 PUSH1 0x0 REVERT JUMPDEST DUP9 SWAP3 SWAP2 PUSH1 0x1F NOT DUP4 AND SWAP2 DUP6 PUSH1 0x0 MSTORE DUP10 PUSH1 0x0 KECCAK256 SWAP3 PUSH1 0x0 JUMPDEST DUP12 DUP3 DUP3 LT PUSH3 0x1282 JUMPI POP POP DUP5 GT PUSH3 0x1269 JUMPI JUMPDEST POP POP POP DUP2 SHL ADD SWAP1 SSTORE PUSH3 0xFE2 JUMP JUMPDEST ADD MLOAD PUSH1 0x0 NOT DUP4 DUP10 SHL PUSH1 0xF8 AND SHR NOT AND SWAP1 SSTORE CODESIZE DUP1 DUP1 PUSH3 0x125B JUMP JUMPDEST DUP4 DUP6 ADD MLOAD DUP7 SSTORE DUP14 SWAP8 SWAP1 SWAP6 ADD SWAP5 SWAP4 DUP5 ADD SWAP4 ADD PUSH3 0x1248 JUMP JUMPDEST PUSH3 0x12C2 SWAP1 DUP5 PUSH1 0x0 MSTORE DUP9 PUSH1 0x0 KECCAK256 DUP14 DUP1 DUP7 ADD DUP10 SHR DUP3 ADD SWAP3 DUP12 DUP8 LT PUSH3 0x1214 JUMPI ADD DUP9 SHR ADD SWAP1 PUSH3 0xD3B JUMP JUMPDEST CODESIZE PUSH3 0xFAD JUMP JUMPDEST DUP9 SWAP3 SWAP2 PUSH1 0x1F NOT DUP4 AND SWAP2 DUP6 PUSH1 0x0 MSTORE DUP10 PUSH1 0x0 KECCAK256 SWAP3 PUSH1 0x0 JUMPDEST DUP12 DUP3 DUP3 LT PUSH3 0x1318 JUMPI POP POP DUP5 GT PUSH3 0x12FF JUMPI JUMPDEST POP POP POP DUP2 SHL ADD SWAP1 SSTORE PUSH3 0xF83 JUMP JUMPDEST ADD MLOAD PUSH1 0x0 NOT DUP4 DUP10 SHL PUSH1 0xF8 AND SHR NOT AND SWAP1 SSTORE CODESIZE DUP1 DUP1 PUSH3 0x12F1 JUMP JUMPDEST DUP4 DUP6 ADD MLOAD DUP7 SSTORE DUP14 SWAP8 SWAP1 SWAP6 ADD SWAP5 SWAP4 DUP5 ADD SWAP4 ADD PUSH3 0x12DE JUMP JUMPDEST PUSH3 0x1358 SWAP1 DUP5 PUSH1 0x0 MSTORE DUP9 PUSH1 0x0 KECCAK256 DUP14 DUP1 DUP7 ADD DUP10 SHR DUP3 ADD SWAP3 DUP12 DUP8 LT PUSH3 0x1214 JUMPI ADD DUP9 SHR ADD SWAP1 PUSH3 0xD3B JUMP JUMPDEST CODESIZE PUSH3 0xF4E JUMP JUMPDEST DUP9 SWAP3 SWAP2 PUSH1 0x1F NOT DUP4 AND SWAP2 DUP6 PUSH1 0x0 MSTORE DUP10 PUSH1 0x0 KECCAK256 SWAP3 PUSH1 0x0 JUMPDEST DUP12 DUP3 DUP3 LT PUSH3 0x13AE JUMPI POP POP DUP5 GT PUSH3 0x1395 JUMPI JUMPDEST POP POP POP DUP2 SHL ADD SWAP1 SSTORE PUSH3 0xF25 JUMP JUMPDEST ADD MLOAD PUSH1 0x0 NOT DUP4 DUP10 SHL PUSH1 0xF8 AND SHR NOT AND SWAP1 SSTORE CODESIZE DUP1 DUP1 PUSH3 0x1387 JUMP JUMPDEST DUP4 DUP6 ADD MLOAD DUP7 SSTORE DUP14 SWAP8 SWAP1 SWAP6 ADD SWAP5 SWAP4 DUP5 ADD SWAP4 ADD PUSH3 0x1374 JUMP JUMPDEST PUSH3 0x13EE SWAP1 DUP5 PUSH1 0x0 MSTORE DUP9 PUSH1 0x0 KECCAK256 DUP14 DUP1 DUP7 ADD DUP10 SHR DUP3 ADD SWAP3 DUP12 DUP8 LT PUSH3 0x1214 JUMPI ADD DUP9 SHR ADD SWAP1 PUSH3 0xD3B JUMP JUMPDEST CODESIZE PUSH3 0xEF0 JUMP JUMPDEST DUP9 SWAP3 SWAP2 PUSH1 0x1F NOT DUP4 AND SWAP2 DUP6 PUSH1 0x0 MSTORE DUP10 PUSH1 0x0 KECCAK256 SWAP3 PUSH1 0x0 JUMPDEST DUP12 DUP3 DUP3 LT PUSH3 0x1444 JUMPI POP POP DUP5 GT PUSH3 0x142B JUMPI JUMPDEST POP POP POP DUP2 SHL ADD SWAP1 SSTORE PUSH3 0xEC7 JUMP JUMPDEST ADD MLOAD PUSH1 0x0 NOT DUP4 DUP10 SHL PUSH1 0xF8 AND SHR NOT AND SWAP1 SSTORE CODESIZE DUP1 DUP1 PUSH3 0x141D JUMP JUMPDEST DUP4 DUP6 ADD MLOAD DUP7 SSTORE DUP14 SWAP8 SWAP1 SWAP6 ADD SWAP5 SWAP4 DUP5 ADD SWAP4 ADD PUSH3 0x140A JUMP JUMPDEST PUSH3 0x1484 SWAP1 DUP5 PUSH1 0x0 MSTORE DUP9 PUSH1 0x0 KECCAK256 DUP14 DUP1 DUP7 ADD DUP10 SHR DUP3 ADD SWAP3 DUP12 DUP8 LT PUSH3 0x1214 JUMPI ADD DUP9 SHR ADD SWAP1 PUSH3 0xD3B JUMP JUMPDEST CODESIZE PUSH3 0xE92 JUMP JUMPDEST DUP7 SWAP3 SWAP2 PUSH1 0x1F NOT DUP4 AND SWAP2 DUP6 PUSH1 0x0 MSTORE DUP8 PUSH1 0x0 KECCAK256 SWAP3 PUSH1 0x0 JUMPDEST DUP10 DUP3 DUP3 LT PUSH3 0x14DA JUMPI POP POP DUP5 GT PUSH3 0x14C1 JUMPI JUMPDEST POP POP POP DUP2 SHL ADD SWAP1 SSTORE PUSH3 0xE5B JUMP JUMPDEST ADD MLOAD PUSH1 0x0 NOT DUP4 DUP8 SHL PUSH1 0xF8 AND SHR NOT AND SWAP1 SSTORE CODESIZE DUP1 DUP1 PUSH3 0x14B3 JUMP JUMPDEST DUP4 DUP6 ADD MLOAD DUP7 SSTORE DUP12 SWAP8 SWAP1 SWAP6 ADD SWAP5 SWAP4 DUP5 ADD SWAP4 ADD PUSH3 0x14A0 JUMP JUMPDEST PUSH3 0x151D SWAP1 DUP5 PUSH1 0x0 MSTORE DUP7 PUSH1 0x0 KECCAK256 DUP12 DUP1 DUP7 ADD PUSH1 0x5 SHR DUP3 ADD SWAP3 DUP10 DUP8 LT PUSH3 0x1524 JUMPI JUMPDEST ADD PUSH1 0x5 SHR ADD SWAP1 PUSH3 0xD3B JUMP JUMPDEST CODESIZE PUSH3 0xE26 JUMP JUMPDEST SWAP3 POP DUP2 SWAP3 PUSH3 0x1511 JUMP JUMPDEST DUP6 SWAP3 SWAP2 PUSH1 0x1F NOT DUP4 AND SWAP2 DUP6 PUSH1 0x0 MSTORE DUP7 PUSH1 0x0 KECCAK256 SWAP3 PUSH1 0x0 JUMPDEST DUP9 DUP3 DUP3 LT PUSH3 0x157E JUMPI POP POP DUP5 GT PUSH3 0x1564 JUMPI JUMPDEST POP POP POP DUP2 SHL ADD SWAP1 SSTORE PUSH3 0xDFC JUMP JUMPDEST ADD MLOAD PUSH1 0x0 NOT PUSH1 0xF8 DUP5 PUSH1 0x3 SHL AND SHR NOT AND SWAP1 SSTORE CODESIZE DUP1 DUP1 PUSH3 0x1556 JUMP JUMPDEST DUP4 DUP6 ADD MLOAD DUP7 SSTORE DUP11 SWAP8 SWAP1 SWAP6 ADD SWAP5 SWAP4 DUP5 ADD SWAP4 ADD PUSH3 0x1543 JUMP JUMPDEST PUSH3 0x15C0 SWAP1 DUP5 PUSH1 0x0 MSTORE DUP6 PUSH1 0x0 KECCAK256 DUP11 DUP1 DUP7 ADD PUSH1 0x5 SHR DUP3 ADD SWAP3 DUP9 DUP8 LT PUSH3 0x1524 JUMPI ADD PUSH1 0x5 SHR ADD SWAP1 PUSH3 0xD3B JUMP JUMPDEST CODESIZE PUSH3 0xDC6 JUMP JUMPDEST SWAP1 DUP2 SLOAD PUSH1 0x1 PUSH1 0x40 SHL DUP2 LT ISZERO PUSH3 0x699 JUMPI PUSH1 0x1 DUP2 ADD DUP1 DUP5 SSTORE DUP2 LT ISZERO PUSH3 0x6AF JUMPI PUSH3 0x15FE SWAP3 PUSH1 0x0 MSTORE PUSH1 0xB PUSH1 0x20 PUSH1 0x0 KECCAK256 SWAP2 MUL ADD PUSH3 0xD54 JUMP JUMPDEST JUMP JUMPDEST PUSH1 0x9 SLOAD DUP2 LT ISZERO PUSH3 0x6AF JUMPI PUSH1 0x9 PUSH1 0x0 MSTORE PUSH1 0x2 SHL PUSH32 0x6E1540171B6C0C960B71A7020D9F60077F6AF931A8BBF590DA0223DACF75C7AF ADD SWAP1 PUSH1 0x0 SWAP1 JUMP JUMPDEST PUSH1 0x9 SLOAD SWAP1 PUSH1 0x0 JUMPDEST DUP3 DUP2 LT PUSH3 0x1652 JUMPI POP POP POP PUSH1 0x0 SWAP1 JUMP JUMPDEST PUSH3 0x165D DUP2 PUSH3 0x1600 JUMP JUMPDEST POP SLOAD PUSH1 0x1 PUSH1 0x1 PUSH1 0xA0 SHL SUB DUP4 DUP2 AND SWAP2 AND EQ PUSH3 0x167B JUMPI PUSH1 0x1 ADD PUSH3 0x1642 JUMP JUMPDEST POP POP POP PUSH1 0x1 SWAP1 JUMP JUMPDEST PUSH3 0x168F DUP2 SLOAD PUSH3 0xCFE JUMP JUMPDEST SWAP1 DUP2 PUSH3 0x169A JUMPI POP POP JUMP JUMPDEST DUP2 PUSH1 0x1F PUSH1 0x0 SWAP4 GT PUSH1 0x1 EQ PUSH3 0x16AD JUMPI POP SSTORE JUMP JUMPDEST SWAP1 DUP1 DUP4 SWAP2 DUP3 MSTORE PUSH3 0x16CE PUSH1 0x1F PUSH1 0x20 DUP5 KECCAK256 SWAP5 ADD PUSH1 0x5 SHR DUP5 ADD PUSH1 0x1 DUP6 ADD PUSH3 0xD3B JUMP JUMPDEST SSTORE SSTORE JUMP JUMPDEST PUSH1 0x1 DUP1 PUSH1 0xA0 SHL SUB SWAP1 DUP2 DUP4 MLOAD AND PUSH12 0xFFFFFFFFFFFFFFFFFFFFFFFF PUSH1 0xA0 SHL SWAP1 DUP2 DUP4 SLOAD AND OR DUP3 SSTORE PUSH1 0x1 SWAP4 PUSH1 0x1 DUP4 ADD PUSH1 0x20 SWAP3 DUP6 DUP5 DUP5 ADD MLOAD AND SWAP1 DUP3 SLOAD AND OR SWAP1 SSTORE PUSH1 0x2 SWAP3 PUSH1 0x2 DUP2 ADD SWAP4 PUSH1 0x40 DUP4 ADD MLOAD SWAP6 DUP7 MLOAD SWAP1 PUSH1 0x1 PUSH1 0x1 PUSH1 0x40 SHL SUB DUP3 GT PUSH3 0x699 JUMPI PUSH1 0x1 PUSH1 0x40 SHL SWAP8 DUP9 DUP4 GT PUSH3 0x699 JUMPI DUP7 SWAP1 DUP9 SLOAD DUP5 DUP11 SSTORE DUP1 DUP6 LT PUSH3 0x18F5 JUMPI JUMPDEST POP ADD SWAP1 PUSH1 0x0 SWAP8 DUP9 MSTORE DUP7 DUP9 KECCAK256 SWAP1 DUP11 DUP10 JUMPDEST DUP6 DUP2 LT PUSH3 0x18E0 JUMPI POP POP POP POP POP POP PUSH1 0x60 PUSH1 0x3 DUP1 SWAP4 ADD SWAP4 ADD MLOAD SWAP2 DUP3 MLOAD SWAP7 DUP8 GT PUSH3 0x18CC JUMPI DUP4 SLOAD DUP8 DUP6 SSTORE DUP6 SWAP4 SWAP3 SWAP2 DUP2 DUP10 LT PUSH3 0x17CA JUMPI JUMPDEST POP POP POP SWAP2 DUP5 MSTORE DUP3 DUP5 KECCAK256 SWAP2 ADD JUMPDEST DUP5 DUP5 LT PUSH3 0x17AB JUMPI POP POP POP POP POP POP JUMP JUMPDEST PUSH1 0xB DUP4 DUP3 PUSH3 0x17BD DUP10 SWAP5 MLOAD DUP7 PUSH3 0xD54 JUMP JUMPDEST ADD SWAP3 ADD SWAP4 ADD SWAP3 SWAP1 PUSH3 0x179B JUMP JUMPDEST SWAP1 SWAP2 SWAP3 SWAP4 POP PUSH1 0xB SWAP3 DUP3 PUSH1 0xB MUL SWAP3 PUSH1 0xB DUP5 DIV SUB PUSH3 0x18B8 JUMPI DUP9 PUSH1 0xB MUL PUSH1 0xB DUP2 DIV DUP11 SUB PUSH3 0x18A4 JUMPI DUP7 DUP10 MSTORE DUP8 DUP10 KECCAK256 DUP9 SWAP7 SWAP6 SWAP5 DUP2 ADD SWAP4 SWAP3 SWAP2 ADD JUMPDEST DUP4 DUP2 LT PUSH3 0x1811 JUMPI POP POP PUSH3 0x178F JUMP JUMPDEST DUP5 SWAP6 SWAP7 POP DUP10 DUP2 SWAP6 SWAP3 SWAP4 SWAP5 SWAP6 SSTORE DUP10 DUP13 DUP3 ADD SSTORE PUSH3 0x182F DUP4 DUP3 ADD PUSH3 0x1683 JUMP JUMPDEST PUSH3 0x183C DUP5 DUP3 ADD PUSH3 0x1683 JUMP JUMPDEST DUP10 PUSH1 0x4 DUP3 ADD SSTORE PUSH3 0x1850 PUSH1 0x5 DUP3 ADD PUSH3 0x1683 JUMP JUMPDEST PUSH3 0x185E PUSH1 0x6 DUP3 ADD PUSH3 0x1683 JUMP JUMPDEST PUSH3 0x186C PUSH1 0x7 DUP3 ADD PUSH3 0x1683 JUMP JUMPDEST PUSH3 0x187A PUSH1 0x8 DUP3 ADD PUSH3 0x1683 JUMP JUMPDEST PUSH3 0x1888 PUSH1 0x9 DUP3 ADD PUSH3 0x1683 JUMP JUMPDEST PUSH3 0x1896 PUSH1 0xA DUP3 ADD PUSH3 0x1683 JUMP JUMPDEST ADD SWAP1 DUP8 SWAP6 SWAP5 SWAP4 SWAP3 SWAP2 PUSH3 0x1801 JUMP JUMPDEST PUSH4 0x4E487B71 PUSH1 0xE0 SHL DUP10 MSTORE PUSH1 0x11 PUSH1 0x4 MSTORE PUSH1 0x24 DUP10 REVERT JUMPDEST PUSH4 0x4E487B71 PUSH1 0xE0 SHL DUP9 MSTORE PUSH1 0x11 PUSH1 0x4 MSTORE PUSH1 0x24 DUP9 REVERT JUMPDEST PUSH4 0x4E487B71 PUSH1 0xE0 SHL DUP7 MSTORE PUSH1 0x41 PUSH1 0x4 MSTORE PUSH1 0x24 DUP7 REVERT JUMPDEST DUP10 DUP4 DUP7 MLOAD AND SWAP6 ADD SWAP5 DUP2 DUP6 ADD SSTORE ADD DUP12 SWAP1 PUSH3 0x175A JUMP JUMPDEST PUSH3 0x190E SWAP1 DUP11 PUSH1 0x0 MSTORE DUP6 DUP5 PUSH1 0x0 KECCAK256 SWAP2 DUP3 ADD SWAP2 ADD PUSH3 0xD3B JUMP JUMPDEST CODESIZE PUSH3 0x174B JUMP INVALID PUSH1 0x40 PUSH1 0x80 DUP2 MSTORE CALLVALUE PUSH3 0x429 JUMPI PUSH3 0xFF5 DUP1 CODESIZE SUB DUP1 PUSH3 0x1E DUP2 PUSH3 0x42E JUMP JUMPDEST SWAP3 DUP4 CODECOPY DUP2 ADD SWAP1 PUSH1 0x80 DUP2 DUP4 SUB SLT PUSH3 0x429 JUMPI DUP1 MLOAD PUSH1 0x1 PUSH1 0x1 PUSH1 0x40 SHL SUB SWAP2 SWAP1 DUP3 DUP2 GT PUSH3 0x429 JUMPI DUP4 PUSH3 0x51 SWAP2 DUP4 ADD PUSH3 0x46A JUMP JUMPDEST SWAP1 PUSH1 0x20 SWAP4 DUP5 DUP3 ADD MLOAD SWAP1 DUP5 DUP3 GT PUSH3 0x429 JUMPI PUSH3 0x6F SWAP2 DUP4 ADD PUSH3 0x46A JUMP JUMPDEST PUSH1 0x60 DUP7 DUP4 ADD MLOAD SWAP3 ADD MLOAD SWAP1 PUSH1 0x0 SWAP5 CALLER PUSH1 0x1 DUP1 PUSH1 0xA0 SHL SUB NOT DUP8 SLOAD AND OR DUP7 SSTORE CALLER DUP7 PUSH32 0x8BE0079C531659141344CD1FD0A4F28419497F9722A3DAAFE3B4186F6B6457E0 DUP2 DUP1 LOG3 DUP5 MLOAD DUP2 DUP2 GT PUSH3 0x343 JUMPI PUSH1 0x2 SLOAD SWAP1 PUSH1 0x1 SWAP7 DUP8 DUP4 DUP2 SHR SWAP4 AND DUP1 ISZERO PUSH3 0x41E JUMPI JUMPDEST DUP11 DUP5 LT EQ PUSH3 0x324 JUMPI DUP2 SWAP1 PUSH1 0x1F SWAP4 DUP5 DUP2 GT PUSH3 0x3CA JUMPI JUMPDEST POP DUP11 SWAP1 DUP5 DUP4 GT PUSH1 0x1 EQ PUSH3 0x363 JUMPI DUP11 SWAP3 PUSH3 0x357 JUMPI JUMPDEST POP POP PUSH1 0x0 NOT PUSH1 0x3 DUP4 SWAP1 SHL SHR NOT AND SWAP1 DUP8 SHL OR PUSH1 0x2 SSTORE JUMPDEST DUP3 MLOAD SWAP2 DUP3 GT PUSH3 0x343 JUMPI PUSH1 0x3 SWAP3 DUP4 SLOAD DUP8 DUP2 DUP2 SHR SWAP2 AND DUP1 ISZERO PUSH3 0x338 JUMPI JUMPDEST DUP11 DUP3 LT EQ PUSH3 0x324 JUMPI SWAP1 DUP2 DUP4 DUP6 SWAP5 SWAP4 GT PUSH3 0x2CF JUMPI JUMPDEST POP DUP10 SWAP2 DUP4 GT PUSH1 0x1 EQ PUSH3 0x26C JUMPI DUP9 SWAP3 PUSH3 0x260 JUMPI JUMPDEST POP POP PUSH1 0x0 NOT DUP3 DUP5 SHL SHR NOT AND SWAP1 DUP6 SHL OR SWAP1 SSTORE JUMPDEST PUSH8 0xDE0B6B3A7640000 SWAP2 DUP3 DUP2 MUL SWAP3 DUP2 DUP5 DIV EQ SWAP1 ISZERO OR ISZERO PUSH3 0x24C JUMPI DUP2 DUP4 SSTORE PUSH1 0x5 DUP2 GT PUSH3 0x1FE JUMPI SWAP1 PUSH32 0xDDF252AD1BE2C89B69C2B068FC378DAA952BA7F163C4A11628F55A4DF523B3EF SWAP3 SWAP2 PUSH1 0x4 SSTORE CALLER DUP5 MSTORE PUSH1 0x5 DUP6 MSTORE DUP6 DUP5 KECCAK256 SSTORE PUSH1 0x7 DUP5 MSTORE DUP5 DUP4 KECCAK256 PUSH1 0xFF NOT SWAP1 DUP3 DUP3 DUP3 SLOAD AND OR SWAP1 SSTORE ADDRESS DUP5 MSTORE DUP2 DUP7 DUP6 KECCAK256 SWAP2 DUP3 SLOAD AND OR SWAP1 SSTORE SLOAD SWAP3 DUP5 MLOAD SWAP4 DUP5 MSTORE CALLER SWAP4 LOG3 MLOAD PUSH2 0xB18 SWAP1 DUP2 PUSH3 0x4DD DUP3 CODECOPY RETURN JUMPDEST DUP6 MLOAD PUSH3 0x461BCD PUSH1 0xE5 SHL DUP2 MSTORE PUSH1 0x4 DUP2 ADD DUP7 SWAP1 MSTORE PUSH1 0x21 PUSH1 0x24 DUP3 ADD MSTORE PUSH32 0x4D6178205472616E73616374696F6E2063616E6E6F7420657863656564203525 PUSH1 0x44 DUP3 ADD MSTORE PUSH1 0x17 PUSH1 0xF9 SHL PUSH1 0x64 DUP3 ADD MSTORE PUSH1 0x84 SWAP1 REVERT JUMPDEST PUSH4 0x4E487B71 PUSH1 0xE0 SHL DUP5 MSTORE PUSH1 0x11 PUSH1 0x4 MSTORE PUSH1 0x24 DUP5 REVERT JUMPDEST ADD MLOAD SWAP1 POP CODESIZE DUP1 PUSH3 0x15A JUMP JUMPDEST DUP5 DUP10 MSTORE DUP10 DUP10 KECCAK256 DUP9 SWAP5 POP SWAP2 SWAP1 PUSH1 0x1F NOT DUP5 AND DUP11 JUMPDEST DUP13 DUP3 DUP3 LT PUSH3 0x2B8 JUMPI POP POP DUP5 GT PUSH3 0x29F JUMPI JUMPDEST POP POP POP DUP2 SHL ADD SWAP1 SSTORE PUSH3 0x16C JUMP JUMPDEST ADD MLOAD PUSH1 0x0 NOT DUP4 DUP7 SHL PUSH1 0xF8 AND SHR NOT AND SWAP1 SSTORE CODESIZE DUP1 DUP1 PUSH3 0x291 JUMP JUMPDEST DUP4 DUP6 ADD MLOAD DUP7 SSTORE DUP12 SWAP8 SWAP1 SWAP6 ADD SWAP5 SWAP4 DUP5 ADD SWAP4 ADD PUSH3 0x27E JUMP JUMPDEST SWAP1 SWAP2 SWAP3 POP DUP5 DUP10 MSTORE DUP10 DUP10 KECCAK256 DUP4 DUP1 DUP7 ADD PUSH1 0x5 SHR DUP3 ADD SWAP3 DUP13 DUP8 LT PUSH3 0x31A JUMPI JUMPDEST SWAP2 DUP7 SWAP6 DUP12 SWAP3 SWAP6 SWAP5 SWAP4 ADD PUSH1 0x5 SHR ADD SWAP2 JUMPDEST DUP3 DUP2 LT PUSH3 0x30B JUMPI POP POP PUSH3 0x145 JUMP JUMPDEST DUP12 DUP2 SSTORE DUP7 SWAP6 POP DUP11 SWAP2 ADD PUSH3 0x2FB JUMP JUMPDEST SWAP3 POP DUP2 SWAP3 PUSH3 0x2EC JUMP JUMPDEST PUSH4 0x4E487B71 PUSH1 0xE0 SHL DUP10 MSTORE PUSH1 0x22 PUSH1 0x4 MSTORE PUSH1 0x24 DUP10 REVERT JUMPDEST SWAP1 PUSH1 0x7F AND SWAP1 PUSH3 0x12F JUMP JUMPDEST PUSH4 0x4E487B71 PUSH1 0xE0 SHL DUP8 MSTORE PUSH1 0x41 PUSH1 0x4 MSTORE PUSH1 0x24 DUP8 REVERT JUMPDEST ADD MLOAD SWAP1 POP CODESIZE DUP1 PUSH3 0xFD JUMP JUMPDEST PUSH1 0x2 DUP12 MSTORE DUP12 DUP12 KECCAK256 DUP11 SWAP5 POP SWAP2 SWAP1 PUSH1 0x1F NOT DUP5 AND DUP13 DUP15 JUMPDEST DUP3 DUP3 LT PUSH3 0x3B2 JUMPI POP POP DUP5 GT PUSH3 0x398 JUMPI JUMPDEST POP POP POP DUP2 SHL ADD PUSH1 0x2 SSTORE PUSH3 0x112 JUMP JUMPDEST ADD MLOAD PUSH1 0x0 NOT PUSH1 0xF8 DUP5 PUSH1 0x3 SHL AND SHR NOT AND SWAP1 SSTORE CODESIZE DUP1 DUP1 PUSH3 0x389 JUMP JUMPDEST DUP4 DUP6 ADD MLOAD DUP7 SSTORE DUP14 SWAP8 SWAP1 SWAP6 ADD SWAP5 SWAP4 DUP5 ADD SWAP4 ADD DUP15 PUSH3 0x377 JUMP JUMPDEST SWAP1 SWAP2 POP PUSH1 0x2 DUP11 MSTORE DUP11 DUP11 KECCAK256 DUP5 DUP1 DUP6 ADD PUSH1 0x5 SHR DUP3 ADD SWAP3 DUP14 DUP7 LT PUSH3 0x414 JUMPI JUMPDEST SWAP2 DUP12 SWAP2 DUP7 SWAP6 SWAP5 SWAP4 ADD PUSH1 0x5 SHR ADD SWAP2 JUMPDEST DUP3 DUP2 LT PUSH3 0x405 JUMPI POP POP PUSH3 0xE7 JUMP JUMPDEST DUP13 DUP2 SSTORE DUP6 SWAP5 POP DUP12 SWAP2 ADD PUSH3 0x3F5 JUMP JUMPDEST SWAP3 POP DUP2 SWAP3 PUSH3 0x3E7 JUMP JUMPDEST SWAP3 PUSH1 0x7F AND SWAP3 PUSH3 0xD0 JUMP JUMPDEST PUSH1 0x0 DUP1 REVERT JUMPDEST PUSH1 0x40 MLOAD SWAP2 SWAP1 PUSH1 0x1F ADD PUSH1 0x1F NOT AND DUP3 ADD PUSH1 0x1 PUSH1 0x1 PUSH1 0x40 SHL SUB DUP2 GT DUP4 DUP3 LT OR PUSH3 0x454 JUMPI PUSH1 0x40 MSTORE JUMP JUMPDEST PUSH4 0x4E487B71 PUSH1 0xE0 SHL PUSH1 0x0 MSTORE PUSH1 0x41 PUSH1 0x4 MSTORE PUSH1 0x24 PUSH1 0x0 REVERT JUMPDEST SWAP2 SWAP1 DUP1 PUSH1 0x1F DUP5 ADD SLT ISZERO PUSH3 0x429 JUMPI DUP3 MLOAD PUSH1 0x1 PUSH1 0x1 PUSH1 0x40 SHL SUB DUP2 GT PUSH3 0x454 JUMPI PUSH1 0x20 SWAP1 PUSH3 0x4A0 PUSH1 0x1F DUP3 ADD PUSH1 0x1F NOT AND DUP4 ADD PUSH3 0x42E JUMP JUMPDEST SWAP3 DUP2 DUP5 MSTORE DUP3 DUP3 DUP8 ADD ADD GT PUSH3 0x429 JUMPI PUSH1 0x0 JUMPDEST DUP2 DUP2 LT PUSH3 0x4C8 JUMPI POP DUP3 PUSH1 0x0 SWAP4 SWAP5 SWAP6 POP ADD ADD MSTORE SWAP1 JUMP JUMPDEST DUP6 DUP2 ADD DUP4 ADD MLOAD DUP5 DUP3 ADD DUP5 ADD MSTORE DUP3 ADD PUSH3 0x4B2 JUMP INVALID PUSH1 0x80 PUSH1 0x40 DUP2 DUP2 MSTORE PUSH1 0x4 SWAP2 DUP3 CALLDATASIZE LT ISZERO PUSH2 0x16 JUMPI PUSH1 0x0 DUP1 REVERT JUMPDEST PUSH1 0x0 SWAP3 DUP4 CALLDATALOAD PUSH1 0xE0 SHR SWAP2 DUP3 PUSH4 0x6FDDE03 EQ PUSH2 0x4FF JUMPI POP DUP2 PUSH4 0x95EA7B3 EQ PUSH2 0x4D5 JUMPI DUP2 PUSH4 0x18160DDD EQ PUSH2 0x4B6 JUMPI DUP2 PUSH4 0x23B872DD EQ PUSH2 0x3E1 JUMPI DUP2 PUSH4 0x313CE567 EQ PUSH2 0x3C5 JUMPI DUP2 PUSH4 0x70A08231 EQ PUSH2 0x38D JUMPI DUP2 PUSH4 0x715018A6 EQ PUSH2 0x32E JUMPI DUP2 PUSH4 0x7437681E EQ PUSH2 0x310 JUMPI DUP2 PUSH4 0x8DA5CB5B EQ PUSH2 0x2E8 JUMPI DUP2 PUSH4 0x95D89B41 EQ PUSH2 0x1E3 JUMPI DUP2 PUSH4 0xA9059CBB EQ PUSH2 0x1B2 JUMPI DUP2 PUSH4 0xC2D0FFCA EQ PUSH2 0xFF JUMPI POP PUSH4 0xDD62ED3E EQ PUSH2 0xB4 JUMPI PUSH1 0x0 DUP1 REVERT JUMPDEST CALLVALUE PUSH2 0xFB JUMPI DUP1 PUSH1 0x3 NOT CALLDATASIZE ADD SLT PUSH2 0xFB JUMPI DUP1 PUSH1 0x20 SWAP3 PUSH2 0xD0 PUSH2 0x607 JUMP JUMPDEST PUSH2 0xD8 PUSH2 0x622 JUMP JUMPDEST PUSH1 0x1 PUSH1 0x1 PUSH1 0xA0 SHL SUB SWAP2 DUP3 AND DUP4 MSTORE PUSH1 0x6 DUP7 MSTORE DUP4 DUP4 KECCAK256 SWAP2 AND DUP3 MSTORE DUP5 MSTORE KECCAK256 SLOAD SWAP1 MLOAD SWAP1 DUP2 MSTORE RETURN JUMPDEST POP DUP1 REVERT JUMPDEST SWAP2 SWAP1 POP CALLVALUE PUSH2 0x1AE JUMPI PUSH1 0x20 CALLDATASIZE PUSH1 0x3 NOT ADD SLT PUSH2 0x1AE JUMPI DUP2 CALLDATALOAD SWAP2 PUSH2 0x12A PUSH1 0x1 DUP1 PUSH1 0xA0 SHL SUB DUP6 SLOAD AND CALLER EQ PUSH2 0x670 JUMP JUMPDEST PUSH1 0x5 DUP4 GT PUSH2 0x162 JUMPI SWAP2 PUSH1 0x20 SWAP2 DUP2 PUSH32 0xFF3DD5E80294197918C284BBFC3DADD97D0B40CE92106110946329088F80068A SWAP5 SSTORE MLOAD SWAP1 DUP2 MSTORE LOG1 DUP1 RETURN JUMPDEST PUSH1 0x20 PUSH1 0x84 SWAP3 MLOAD SWAP2 PUSH3 0x461BCD PUSH1 0xE5 SHL DUP4 MSTORE DUP3 ADD MSTORE PUSH1 0x21 PUSH1 0x24 DUP3 ADD MSTORE PUSH32 0x4D6178205472616E73616374696F6E2063616E6E6F7420657863656564203525 PUSH1 0x44 DUP3 ADD MSTORE PUSH1 0x17 PUSH1 0xF9 SHL PUSH1 0x64 DUP3 ADD MSTORE REVERT JUMPDEST DUP3 DUP1 REVERT JUMPDEST POP POP CALLVALUE PUSH2 0xFB JUMPI DUP1 PUSH1 0x3 NOT CALLDATASIZE ADD SLT PUSH2 0xFB JUMPI PUSH1 0x20 SWAP1 PUSH2 0x1DC PUSH2 0x1D2 PUSH2 0x607 JUMP JUMPDEST PUSH1 0x24 CALLDATALOAD SWAP1 CALLER PUSH2 0x7BD JUMP JUMPDEST MLOAD PUSH1 0x1 DUP2 MSTORE RETURN JUMPDEST SWAP2 SWAP1 POP CALLVALUE PUSH2 0x1AE JUMPI DUP3 PUSH1 0x3 NOT CALLDATASIZE ADD SLT PUSH2 0x1AE JUMPI DUP1 MLOAD SWAP2 DUP4 PUSH1 0x3 SLOAD SWAP1 PUSH1 0x1 SWAP1 DUP3 PUSH1 0x1 SHR SWAP3 PUSH1 0x1 DUP2 AND DUP1 ISZERO PUSH2 0x2DE JUMPI JUMPDEST PUSH1 0x20 SWAP6 DUP7 DUP7 LT DUP3 EQ PUSH2 0x2CB JUMPI POP DUP5 DUP9 MSTORE SWAP1 DUP2 ISZERO PUSH2 0x2A9 JUMPI POP PUSH1 0x1 EQ PUSH2 0x250 JUMPI JUMPDEST PUSH2 0x24C DUP7 DUP7 PUSH2 0x242 DUP3 DUP12 SUB DUP4 PUSH2 0x638 JUMP JUMPDEST MLOAD SWAP2 DUP3 SWAP2 DUP3 PUSH2 0x5BE JUMP JUMPDEST SUB SWAP1 RETURN JUMPDEST SWAP3 SWAP6 POP PUSH1 0x3 DUP4 MSTORE PUSH32 0xC2575A0E9E593C00F959F8C92F12DB2869C3395A3B0502D05E2516446F71F85B JUMPDEST DUP3 DUP5 LT PUSH2 0x296 JUMPI POP POP POP DUP3 PUSH2 0x24C SWAP5 PUSH2 0x242 SWAP3 DUP3 ADD ADD SWAP5 CODESIZE PUSH2 0x231 JUMP JUMPDEST DUP1 SLOAD DUP7 DUP6 ADD DUP9 ADD MSTORE SWAP3 DUP7 ADD SWAP3 DUP2 ADD PUSH2 0x279 JUMP JUMPDEST PUSH1 0xFF NOT AND DUP8 DUP7 ADD MSTORE POP POP POP ISZERO ISZERO PUSH1 0x5 SHL DUP4 ADD ADD SWAP3 POP PUSH2 0x242 DUP3 PUSH2 0x24C CODESIZE PUSH2 0x231 JUMP JUMPDEST PUSH4 0x4E487B71 PUSH1 0xE0 SHL DUP5 MSTORE PUSH1 0x22 SWAP1 MSTORE PUSH1 0x24 DUP4 REVERT JUMPDEST SWAP4 PUSH1 0x7F AND SWAP4 PUSH2 0x211 JUMP JUMPDEST POP POP CALLVALUE PUSH2 0xFB JUMPI DUP2 PUSH1 0x3 NOT CALLDATASIZE ADD SLT PUSH2 0xFB JUMPI SWAP1 SLOAD SWAP1 MLOAD PUSH1 0x1 PUSH1 0x1 PUSH1 0xA0 SHL SUB SWAP1 SWAP2 AND DUP2 MSTORE PUSH1 0x20 SWAP1 RETURN JUMPDEST SWAP1 POP CALLVALUE PUSH2 0x1AE JUMPI DUP3 PUSH1 0x3 NOT CALLDATASIZE ADD SLT PUSH2 0x1AE JUMPI PUSH1 0x20 SWAP3 POP SLOAD SWAP1 MLOAD SWAP1 DUP2 MSTORE RETURN JUMPDEST DUP4 CALLVALUE PUSH2 0x38A JUMPI DUP1 PUSH1 0x3 NOT CALLDATASIZE ADD SLT PUSH2 0x38A JUMPI DUP1 SLOAD DUP2 PUSH1 0x1 PUSH1 0x1 PUSH1 0xA0 SHL SUB DUP3 AND PUSH2 0x357 CALLER DUP3 EQ PUSH2 0x670 JUMP JUMPDEST PUSH32 0x8BE0079C531659141344CD1FD0A4F28419497F9722A3DAAFE3B4186F6B6457E0 DUP3 DUP1 LOG3 PUSH1 0x1 PUSH1 0x1 PUSH1 0xA0 SHL SUB NOT AND DUP2 SSTORE DUP1 RETURN JUMPDEST DUP1 REVERT JUMPDEST POP POP CALLVALUE PUSH2 0xFB JUMPI PUSH1 0x20 CALLDATASIZE PUSH1 0x3 NOT ADD SLT PUSH2 0xFB JUMPI PUSH1 0x20 SWAP2 DUP2 SWAP1 PUSH1 0x1 PUSH1 0x1 PUSH1 0xA0 SHL SUB PUSH2 0x3B5 PUSH2 0x607 JUMP JUMPDEST AND DUP2 MSTORE PUSH1 0x5 DUP5 MSTORE KECCAK256 SLOAD SWAP1 MLOAD SWAP1 DUP2 MSTORE RETURN JUMPDEST POP POP CALLVALUE PUSH2 0xFB JUMPI DUP2 PUSH1 0x3 NOT CALLDATASIZE ADD SLT PUSH2 0xFB JUMPI PUSH1 0x20 SWAP1 MLOAD PUSH1 0x12 DUP2 MSTORE RETURN JUMPDEST DUP3 DUP5 CALLVALUE PUSH2 0x38A JUMPI PUSH1 0x60 CALLDATASIZE PUSH1 0x3 NOT ADD SLT PUSH2 0x38A JUMPI PUSH2 0x3FC PUSH2 0x607 JUMP JUMPDEST SWAP1 PUSH2 0x405 PUSH2 0x622 JUMP JUMPDEST PUSH2 0x413 PUSH1 0x44 CALLDATALOAD DUP1 SWAP3 DUP6 PUSH2 0x7BD JUMP JUMPDEST PUSH1 0x1 PUSH1 0x1 PUSH1 0xA0 SHL SUB DUP4 AND DUP3 MSTORE PUSH1 0x6 PUSH1 0x20 SWAP1 DUP2 MSTORE DUP5 DUP4 KECCAK256 CALLER DUP5 MSTORE SWAP1 MSTORE DUP4 DUP3 KECCAK256 SLOAD DUP5 MLOAD SWAP3 PUSH1 0x60 DUP5 ADD SWAP1 PUSH8 0xFFFFFFFFFFFFFFFF DUP3 GT DUP6 DUP4 LT OR PUSH2 0x4A3 JUMPI PUSH1 0x20 DUP8 PUSH2 0x1DC DUP9 PUSH2 0x49B DUP10 DUP10 DUP10 DUP10 DUP8 MSTORE PUSH1 0x28 DUP4 MSTORE PUSH32 0x45524332303A207472616E7366657220616D6F756E7420657863656564732061 DUP9 DUP5 ADD MSTORE PUSH8 0x6C6C6F77616E6365 PUSH1 0xC0 SHL DUP8 DUP5 ADD MSTORE PUSH2 0xA97 JUMP JUMPDEST SWAP1 CALLER SWAP1 PUSH2 0x6BB JUMP JUMPDEST PUSH4 0x4E487B71 PUSH1 0xE0 SHL DUP2 MSTORE PUSH1 0x41 DUP9 MSTORE PUSH1 0x24 SWAP1 REVERT JUMPDEST POP POP CALLVALUE PUSH2 0xFB JUMPI DUP2 PUSH1 0x3 NOT CALLDATASIZE ADD SLT PUSH2 0xFB JUMPI PUSH1 0x20 SWAP1 PUSH1 0x1 SLOAD SWAP1 MLOAD SWAP1 DUP2 MSTORE RETURN JUMPDEST POP POP CALLVALUE PUSH2 0xFB JUMPI DUP1 PUSH1 0x3 NOT CALLDATASIZE ADD SLT PUSH2 0xFB JUMPI PUSH1 0x20 SWAP1 PUSH2 0x1DC PUSH2 0x4F5 PUSH2 0x607 JUMP JUMPDEST PUSH1 0x24 CALLDATALOAD SWAP1 CALLER PUSH2 0x6BB JUMP JUMPDEST SWAP3 SWAP2 POP CALLVALUE PUSH2 0x5BA JUMPI DUP4 PUSH1 0x3 NOT CALLDATASIZE ADD SLT PUSH2 0x5BA JUMPI PUSH1 0x2 SLOAD PUSH1 0x1 DUP2 DUP2 SHR SWAP2 DUP7 SWAP1 DUP3 DUP2 AND DUP1 ISZERO PUSH2 0x5B0 JUMPI JUMPDEST PUSH1 0x20 SWAP6 DUP7 DUP7 LT DUP3 EQ PUSH2 0x2CB JUMPI POP DUP5 DUP9 MSTORE SWAP1 DUP2 ISZERO PUSH2 0x2A9 JUMPI POP PUSH1 0x1 EQ PUSH2 0x557 JUMPI PUSH2 0x24C DUP7 DUP7 PUSH2 0x242 DUP3 DUP12 SUB DUP4 PUSH2 0x638 JUMP JUMPDEST SWAP3 SWAP6 POP PUSH1 0x2 DUP4 MSTORE PUSH32 0x405787FA12A823E0F2B7631CC41B3BA8828B3321CA811111FA75CD3AA3BB5ACE JUMPDEST DUP3 DUP5 LT PUSH2 0x59D JUMPI POP POP POP DUP3 PUSH2 0x24C SWAP5 PUSH2 0x242 SWAP3 DUP3 ADD ADD SWAP5 CODESIZE PUSH2 0x231 JUMP JUMPDEST DUP1 SLOAD DUP7 DUP6 ADD DUP9 ADD MSTORE SWAP3 DUP7 ADD SWAP3 DUP2 ADD PUSH2 0x580 JUMP JUMPDEST SWAP4 PUSH1 0x7F AND SWAP4 PUSH2 0x527 JUMP JUMPDEST DUP4 DUP1 REVERT JUMPDEST PUSH1 0x20 DUP1 DUP3 MSTORE DUP3 MLOAD DUP2 DUP4 ADD DUP2 SWAP1 MSTORE SWAP1 SWAP4 SWAP3 PUSH1 0x0 JUMPDEST DUP3 DUP2 LT PUSH2 0x5F3 JUMPI POP POP PUSH1 0x40 SWAP3 SWAP4 POP PUSH1 0x0 DUP4 DUP3 DUP5 ADD ADD MSTORE PUSH1 0x1F DUP1 NOT SWAP2 ADD AND ADD ADD SWAP1 JUMP JUMPDEST DUP2 DUP2 ADD DUP7 ADD MLOAD DUP5 DUP3 ADD PUSH1 0x40 ADD MSTORE DUP6 ADD PUSH2 0x5D1 JUMP JUMPDEST PUSH1 0x4 CALLDATALOAD SWAP1 PUSH1 0x1 PUSH1 0x1 PUSH1 0xA0 SHL SUB DUP3 AND DUP3 SUB PUSH2 0x61D JUMPI JUMP JUMPDEST PUSH1 0x0 DUP1 REVERT JUMPDEST PUSH1 0x24 CALLDATALOAD SWAP1 PUSH1 0x1 PUSH1 0x1 PUSH1 0xA0 SHL SUB DUP3 AND DUP3 SUB PUSH2 0x61D JUMPI JUMP JUMPDEST SWAP1 PUSH1 0x1F DUP1 NOT SWAP2 ADD AND DUP2 ADD SWAP1 DUP2 LT PUSH8 0xFFFFFFFFFFFFFFFF DUP3 GT OR PUSH2 0x65A JUMPI PUSH1 0x40 MSTORE JUMP JUMPDEST PUSH4 0x4E487B71 PUSH1 0xE0 SHL PUSH1 0x0 MSTORE PUSH1 0x41 PUSH1 0x4 MSTORE PUSH1 0x24 PUSH1 0x0 REVERT JUMPDEST ISZERO PUSH2 0x677 JUMPI JUMP JUMPDEST PUSH1 0x64 PUSH1 0x40 MLOAD PUSH3 0x461BCD PUSH1 0xE5 SHL DUP2 MSTORE PUSH1 0x20 PUSH1 0x4 DUP3 ADD MSTORE PUSH1 0x20 PUSH1 0x24 DUP3 ADD MSTORE PUSH32 0x4F776E61626C653A2063616C6C6572206973206E6F7420746865206F776E6572 PUSH1 0x44 DUP3 ADD MSTORE REVERT JUMPDEST PUSH1 0x1 PUSH1 0x1 PUSH1 0xA0 SHL SUB SWAP1 DUP2 AND SWAP2 DUP3 ISZERO PUSH2 0x76C JUMPI AND SWAP2 DUP3 ISZERO PUSH2 0x71C JUMPI PUSH1 0x20 PUSH32 0x8C5BE1E5EBEC7D5BD14F71427D1E84F3DD0314C0F7B2291E5B200AC8C7C3B925 SWAP2 DUP4 PUSH1 0x0 MSTORE PUSH1 0x6 DUP3 MSTORE PUSH1 0x40 PUSH1 0x0 KECCAK256 DUP6 PUSH1 0x0 MSTORE DUP3 MSTORE DUP1 PUSH1 0x40 PUSH1 0x0 KECCAK256 SSTORE PUSH1 0x40 MLOAD SWAP1 DUP2 MSTORE LOG3 JUMP JUMPDEST PUSH1 0x40 MLOAD PUSH3 0x461BCD PUSH1 0xE5 SHL DUP2 MSTORE PUSH1 0x20 PUSH1 0x4 DUP3 ADD MSTORE PUSH1 0x22 PUSH1 0x24 DUP3 ADD MSTORE PUSH32 0x45524332303A20617070726F766520746F20746865207A65726F206164647265 PUSH1 0x44 DUP3 ADD MSTORE PUSH2 0x7373 PUSH1 0xF0 SHL PUSH1 0x64 DUP3 ADD MSTORE PUSH1 0x84 SWAP1 REVERT JUMPDEST PUSH1 0x40 MLOAD PUSH3 0x461BCD PUSH1 0xE5 SHL DUP2 MSTORE PUSH1 0x20 PUSH1 0x4 DUP3 ADD MSTORE PUSH1 0x24 DUP1 DUP3 ADD MSTORE PUSH32 0x45524332303A20617070726F76652066726F6D20746865207A65726F20616464 PUSH1 0x44 DUP3 ADD MSTORE PUSH4 0x72657373 PUSH1 0xE0 SHL PUSH1 0x64 DUP3 ADD MSTORE PUSH1 0x84 SWAP1 REVERT JUMPDEST SWAP2 SWAP3 SWAP2 PUSH1 0x1 PUSH1 0x1 PUSH1 0xA0 SHL SUB SWAP1 DUP2 AND SWAP2 DUP3 ISZERO PUSH2 0xA44 JUMPI AND SWAP1 DUP2 ISZERO PUSH2 0x9F3 JUMPI DUP4 ISZERO PUSH2 0x99C JUMPI PUSH1 0x4 DUP1 SLOAD SWAP5 PUSH1 0x1 SLOAD SWAP6 DUP7 DUP2 MUL SWAP7 DUP2 DUP9 DIV EQ SWAP1 ISZERO OR ISZERO PUSH2 0x987 JUMPI PUSH1 0x0 SWAP6 DUP5 DUP8 MSTORE PUSH1 0x20 SWAP3 PUSH1 0x7 DUP5 MSTORE PUSH1 0x40 SWAP2 PUSH1 0xFF DUP4 DUP11 KECCAK256 SLOAD AND ISZERO PUSH2 0x936 JUMPI JUMPDEST POP DUP5 DUP9 MSTORE PUSH1 0x5 DUP5 MSTORE DUP2 DUP9 KECCAK256 SLOAD DUP3 MLOAD SWAP1 DUP4 DUP3 ADD DUP3 DUP2 LT PUSH8 0xFFFFFFFFFFFFFFFF DUP3 GT OR PUSH2 0x923 JUMPI PUSH2 0x872 SWAP3 SWAP2 DUP7 SWAP2 DUP7 MSTORE PUSH1 0x1E DUP4 MSTORE PUSH32 0x536166654D6174683A207375627472616374696F6E206F766572666C6F770000 DUP9 DUP5 ADD MSTORE PUSH2 0xA97 JUMP JUMPDEST DUP6 DUP10 MSTORE PUSH1 0x5 DUP6 MSTORE DUP3 DUP10 KECCAK256 SSTORE DUP6 DUP9 MSTORE DUP2 DUP9 KECCAK256 SLOAD SWAP1 DUP4 DUP3 ADD SWAP2 DUP3 DUP2 GT PUSH2 0x910 JUMPI DUP3 LT PUSH2 0x8CD JUMPI POP DUP2 DUP9 DUP8 PUSH32 0xDDF252AD1BE2C89B69C2B068FC378DAA952BA7F163C4A11628F55A4DF523B3EF SWAP8 SWAP9 SWAP10 SWAP11 MSTORE PUSH1 0x5 DUP7 MSTORE KECCAK256 SSTORE MLOAD SWAP1 DUP2 MSTORE LOG3 JUMP JUMPDEST DUP3 MLOAD PUSH3 0x461BCD PUSH1 0xE5 SHL DUP2 MSTORE SWAP1 DUP2 ADD DUP6 SWAP1 MSTORE PUSH1 0x1B PUSH1 0x24 DUP3 ADD MSTORE PUSH32 0x536166654D6174683A206164646974696F6E206F766572666C6F770000000000 PUSH1 0x44 DUP3 ADD MSTORE PUSH1 0x64 SWAP1 REVERT JUMPDEST PUSH4 0x4E487B71 PUSH1 0xE0 SHL DUP11 MSTORE PUSH1 0x11 DUP3 MSTORE PUSH1 0x24 DUP11 REVERT JUMPDEST PUSH4 0x4E487B71 PUSH1 0xE0 SHL DUP12 MSTORE PUSH1 0x41 DUP5 MSTORE PUSH1 0x24 DUP12 REVERT JUMPDEST PUSH1 0x64 SWAP1 DIV DUP4 GT PUSH2 0x946 JUMPI CODESIZE PUSH2 0x816 JUMP JUMPDEST DUP4 PUSH1 0x64 SWAP3 MLOAD SWAP2 PUSH3 0x461BCD PUSH1 0xE5 SHL DUP4 MSTORE DUP3 ADD MSTORE PUSH1 0x18 PUSH1 0x24 DUP3 ADD MSTORE PUSH32 0x4578636565647320746865204D61785478416D6F756E742E0000000000000000 PUSH1 0x44 DUP3 ADD MSTORE REVERT JUMPDEST PUSH1 0x11 DUP3 PUSH4 0x4E487B71 PUSH1 0xE0 SHL PUSH1 0x0 MSTORE MSTORE PUSH1 0x24 PUSH1 0x0 REVERT JUMPDEST PUSH1 0x40 MLOAD PUSH3 0x461BCD PUSH1 0xE5 SHL DUP2 MSTORE PUSH1 0x20 PUSH1 0x4 DUP3 ADD MSTORE PUSH1 0x29 PUSH1 0x24 DUP3 ADD MSTORE PUSH32 0x5472616E7366657220616D6F756E74206D757374206265206772656174657220 PUSH1 0x44 DUP3 ADD MSTORE PUSH9 0x7468616E207A65726F PUSH1 0xB8 SHL PUSH1 0x64 DUP3 ADD MSTORE PUSH1 0x84 SWAP1 REVERT JUMPDEST PUSH1 0x40 MLOAD PUSH3 0x461BCD PUSH1 0xE5 SHL DUP2 MSTORE PUSH1 0x20 PUSH1 0x4 DUP3 ADD MSTORE PUSH1 0x23 PUSH1 0x24 DUP3 ADD MSTORE PUSH32 0x45524332303A207472616E7366657220746F20746865207A65726F2061646472 PUSH1 0x44 DUP3 ADD MSTORE PUSH3 0x657373 PUSH1 0xE8 SHL PUSH1 0x64 DUP3 ADD MSTORE PUSH1 0x84 SWAP1 REVERT JUMPDEST PUSH1 0x40 MLOAD PUSH3 0x461BCD PUSH1 0xE5 SHL DUP2 MSTORE PUSH1 0x20 PUSH1 0x4 DUP3 ADD MSTORE PUSH1 0x25 PUSH1 0x24 DUP3 ADD MSTORE PUSH32 0x45524332303A207472616E736665722066726F6D20746865207A65726F206164 PUSH1 0x44 DUP3 ADD MSTORE PUSH5 0x6472657373 PUSH1 0xD8 SHL PUSH1 0x64 DUP3 ADD MSTORE PUSH1 0x84 SWAP1 REVERT JUMPDEST SWAP2 DUP3 DUP3 GT PUSH2 0xAC2 JUMPI POP DUP2 SUB SWAP1 DUP2 GT PUSH2 0xAAC JUMPI SWAP1 JUMP JUMPDEST PUSH4 0x4E487B71 PUSH1 0xE0 SHL PUSH1 0x0 MSTORE PUSH1 0x11 PUSH1 0x4 MSTORE PUSH1 0x24 PUSH1 0x0 REVERT JUMPDEST PUSH1 0x40 MLOAD PUSH3 0x461BCD PUSH1 0xE5 SHL DUP2 MSTORE SWAP1 DUP2 SWAP1 PUSH2 0xADE SWAP1 PUSH1 0x4 DUP4 ADD PUSH2 0x5BE JUMP JUMPDEST SUB SWAP1 REVERT INVALID LOG2 PUSH5 0x6970667358 0x22 SLT KECCAK256 XOR 0xCB DUP5 0x2B 0xCC PUSH25 0x2404625D7ABB8A3D6651D9D0757BCA0E073F26CC7B0367AF8D ISZERO PUSH5 0x736F6C6343 STOP ADDMOD XOR STOP CALLER LOG2 PUSH5 0x6970667358 0x22 SLT KECCAK256 CALLDATALOAD DUP14 0xA7 0xE8 0xEC 0xB5 0xA7 REVERT PUSH27 0x7ABE579FCF86C595EC329DB5544DAAE6E87D41421E95EA64736F6C PUSH4 0x43000818 STOP CALLER "
        },
        "methodIdentifiers": {
          "approval(address,address,uint256)": "5c52a5f2",
          "deploy()": "775c300c",
          "feeTo()": "017e7e58",
          "feeToSetter()": "094b7415",
          "launch(string,string,string,string,string[4],uint256,uint256,address)": "a153e6ff",
          "launchFee()": "cf3cf573",
          "liquidityFee()": "98118cb4",
          "marketCap()": "2c135b93",
          "referralFee()": "84ae2bc6",
          "updateLaunchFee(uint256)": "7660f44a",
          "updateLiquidityFee(uint256)": "8e675663",
          "updateReferralFee(uint256)": "f3f524b8"
        }
      }
    }
  }
}