{
  "contracts/Router.sol": {
    "Router": {
      "abi": [
        {
          "inputs": [
            {
              "internalType": "address",
              "name": "factory_",
              "type": "address"
            },
            {
              "internalType": "address",
              "name": "weth",
              "type": "address"
            }
          ],
          "stateMutability": "nonpayable",
          "type": "constructor"
        },
        {
          "inputs": [],
          "name": "WETH",
          "outputs": [
            {
              "internalType": "address",
              "name": "",
              "type": "address"
            }
          ],
          "stateMutability": "view",
          "type": "function"
        },
        {
          "inputs": [
            {
              "internalType": "address",
              "name": "token",
              "type": "address"
            },
            {
              "internalType": "uint256",
              "name": "amountToken",
              "type": "uint256"
            }
          ],
          "name": "addLiquidityETH",
          "outputs": [
            {
              "internalType": "uint256",
              "name": "",
              "type": "uint256"
            },
            {
              "internalType": "uint256",
              "name": "",
              "type": "uint256"
            }
          ],
          "stateMutability": "payable",
          "type": "function"
        },
        {
          "inputs": [],
          "name": "factory",
          "outputs": [
            {
              "internalType": "address",
              "name": "",
              "type": "address"
            }
          ],
          "stateMutability": "view",
          "type": "function"
        },
        {
          "inputs": [
            {
              "internalType": "address",
              "name": "token",
              "type": "address"
            },
            {
              "internalType": "uint256",
              "name": "amountIn",
              "type": "uint256"
            }
          ],
          "name": "getAmountsOut",
          "outputs": [
            {
              "internalType": "uint256",
              "name": "_amountOut",
              "type": "uint256"
            }
          ],
          "stateMutability": "view",
          "type": "function"
        },
        {
          "inputs": [
            {
              "internalType": "address",
              "name": "token",
              "type": "address"
            },
            {
              "internalType": "uint256",
              "name": "liquidity",
              "type": "uint256"
            },
            {
              "internalType": "address",
              "name": "to",
              "type": "address"
            }
          ],
          "name": "removeLiquidityETH",
          "outputs": [
            {
              "internalType": "uint256",
              "name": "",
              "type": "uint256"
            },
            {
              "internalType": "uint256",
              "name": "",
              "type": "uint256"
            }
          ],
          "stateMutability": "payable",
          "type": "function"
        },
        {
          "inputs": [
            {
              "internalType": "address",
              "name": "token",
              "type": "address"
            },
            {
              "internalType": "address",
              "name": "to",
              "type": "address"
            }
          ],
          "name": "swapETHForTokens",
          "outputs": [
            {
              "internalType": "uint256",
              "name": "",
              "type": "uint256"
            },
            {
              "internalType": "uint256",
              "name": "",
              "type": "uint256"
            }
          ],
          "stateMutability": "payable",
          "type": "function"
        },
        {
          "inputs": [
            {
              "internalType": "uint256",
              "name": "amountIn",
              "type": "uint256"
            },
            {
              "internalType": "address",
              "name": "token",
              "type": "address"
            },
            {
              "internalType": "address",
              "name": "to",
              "type": "address"
            }
          ],
          "name": "swapTokensForETH",
          "outputs": [
            {
              "internalType": "uint256",
              "name": "",
              "type": "uint256"
            },
            {
              "internalType": "uint256",
              "name": "",
              "type": "uint256"
            }
          ],
          "stateMutability": "nonpayable",
          "type": "function"
        }
      ],
      "evm": {
        "bytecode": {
          "linkReferences": {},
          "object": "60803461008d57601f610fc838819003918201601f19168301916001600160401b0383118484101761009257808492604094855283398101031261008d57610052602061004b836100a8565b92016100a8565b600080546001600160a01b039384166001600160a01b03199182161790915560018054929093169116179055604051610f0b90816100bd8239f35b600080fd5b634e487b7160e01b600052604160045260246000fd5b51906001600160a01b038216820361008d5756fe60806040908082526004908136101561001757600080fd5b600090813560e01c9081636bf09f10146107cf575080637282d5481461064b5780637f54a36914610356578063ad5c46481461032d578063b682894b146102fd578063c45a0155146102d15763e79a40891461007257600080fd5b60603660031901126102ce576100e2610089610a74565b9160243592610096610a5e565b8254600154885163e6a4390560e01b81526001600160a01b03858116828b0190815292811660208481019190915291999197909591949193919288928b92908816918391829160400190565b03915afa9788156102c4578598610295575b508851630240bc6b60e21b815288851694906060818681895afa801561028b576064916101379189918a91610250575b5061013084918d610b15565b049a610b15565b04986101438984610c97565b1561024c578a516323b872dd60e01b81526001600160a01b03918216868201908152939091166020840152604083018a90529287928492839189919083906060010393165af1908115610242578491610225575b5015610221578651631d24e23160e21b815290810186815260208101869052336040820152909291849184919082908590829060600103925af190811561021657506101e9575b508351928352820152f35b61020890823d841161020f575b6102008183610abc565b810190610afd565b50386101de565b503d6101f6565b8651903d90823e3d90fd5b8280fd5b61023c9150853d871161020f576102008183610abc565b38610197565b88513d86823e3d90fd5b8680fd5b61013092508491506102799060603d606011610284575b6102718183610abc565b810190610b6b565b509290929150610124565b503d610267565b8b513d89823e3d90fd5b6102b6919850863d88116102bd575b6102ae8183610abc565b810190610ade565b96386100f4565b503d6102a4565b89513d87823e3d90fd5b80fd5b5082346102f957816003193601126102f957905490516001600160a01b039091168152602090f35b5080fd5b5082346102f957806003193601126102f95760209061032661031d610a74565b60243590610b86565b9051908152f35b5082346102f957816003193601126102f95760015490516001600160a01b039091168152602090f35b50826003193601126102ce5761036a610a74565b90610373610a43565b8154600154865163e6a4390560e01b81526001600160a01b0386811682890190815292811660208481018290529894821697909695909390929089908290819060400103818b5afa908115610641578691610624575b506103d8828216973490610b86565b8a51632e2952f960e11b8152308782019081526001600160a01b0387166020820152604081018390529199918b908290819060600103818b8d5af19081156105fd578891610607575b501561024c578a5163cf82046160e01b81528a818881855afa9081156105fd578b88928e928b916105c6575b5061045b6064913490610b15565b04936104678534610b5e565b9251622fcfcb60e31b815293849182905afa9182156105bc578992610599575b506104929084610c97565b1561059557906104a191610c97565b156105915789516323b872dd60e01b81526001600160a01b03918216868201908152939091166020840152604083018890529288928492839188919083906060010393165af190811561058757839161056a575b50156102f95781608486928289519687948593635673b02d60e01b85528401528860248401523460448401528160648401525af190811561055f5750610542575b50825191348352820152f35b61055890833d851161020f576102008183610abc565b5038610536565b8551903d90823e3d90fd5b6105819150863d881161020f576102008183610abc565b386104f5565b87513d85823e3d90fd5b8580fd5b8780fd5b6104929192506105b5908d803d106102bd576102ae8183610abc565b9190610487565b8d513d8b823e3d90fd5b935050905081813d83116105f6575b6105df8183610abc565b81010312610595575186908c908c9061045b61044d565b503d6105d5565b8c513d8a823e3d90fd5b61061e91508b3d8d1161020f576102008183610abc565b38610421565b61063b9150893d8b116102bd576102ae8183610abc565b386103c9565b8a513d88823e3d90fd5b5090826003193601126102f9576106b190610664610a74565b8354600154865163e6a4390560e01b81526001600160a01b038085168287019081529281166020848101919091526024359890979196909592949093889286928916918391829160400190565b03915afa9283156102425784936107b0575b506106ce3484610c97565b156107ac5787516323b872dd60e01b8152338382019081526001600160a01b0385166020820152604081018990529091879183919082900360600190829088908a165af190811561024257849161078f575b501561022157865163e7d3fe6b60e01b81529081018681523460208201523360408201529093859285928390036060019183918691165af190811561055f5750610772575b5082519182523490820152f35b61078890823d841161020f576102008183610abc565b5038610765565b6107a69150863d881161020f576102008183610abc565b38610720565b8380fd5b6107c8919350863d88116102bd576102ae8183610abc565b91386106c3565b84915083346107ac5760603660031901126107ac578035916107ef610a43565b946107f8610a5e565b815460015463e6a4390560e01b85526001600160a01b03898116868801908152918116602083810191909152969390928316918790879081906040010381855afa9586156102c457888a9b8992889c9b9c99610a1e575b5090818989888a610862868a9998610b86565b9f516323b872dd60e01b81526001600160a01b0398891691810191825297909316602084015260408301949094528593849283906060010393165af19081156109f7578691610a01575b501561099457895163cf82046160e01b815287818681865afa9081156109f75785918a9188916109c3575b506064916108e491610b15565b0492886108f1858c610b5e565b918d5193848092622fcfcb60e31b82525afa9182156109b9578792610998575b5061091c9192610c97565b15610994579061092b91610c97565b1561022157608485928489938b519788958694635673b02d60e01b86528501528260248501528260448501528a6064850152165af1908115610216575061097757508351928352820152f35b61098d90823d841161020f576102008183610abc565b50846101de565b8480fd5b61091c92506109b3908a3d8c116102bd576102ae8183610abc565b91610911565b8c513d89823e3d90fd5b925050508781813d83116109f0575b6109dc8183610abc565b8101031261059157518490899060646108d7565b503d6109d2565b8b513d88823e3d90fd5b610a189150883d8a1161020f576102008183610abc565b8b6108ac565b8392919950610a3a9085943d85116102bd576102ae8183610abc565b9890919261084f565b602435906001600160a01b0382168203610a5957565b600080fd5b604435906001600160a01b0382168203610a5957565b600435906001600160a01b0382168203610a5957565b6040810190811067ffffffffffffffff821117610aa657604052565b634e487b7160e01b600052604160045260246000fd5b90601f8019910116810190811067ffffffffffffffff821117610aa657604052565b90816020910312610a5957516001600160a01b0381168103610a595790565b90816020910312610a5957518015158103610a595790565b81810292918115918404141715610b2857565b634e487b7160e01b600052601160045260246000fd5b8115610b48570490565b634e487b7160e01b600052601260045260246000fd5b91908203918211610b2857565b90816060910312610a59578051916040602083015192015190565b6000805460015460405163e6a4390560e01b81526001600160a01b038581166004830152918216602482018190529195939492602090829060449082908a165afa908115610c6d5786916060918791610c78575b50600460405180998193630240bc6b60e21b8352165afa928315610c6d5785968694610c45575b50610c0c8488610d05565b95501603610c345791610c26610c2c92610c319594610d7e565b90610dd7565b610e22565b90565b91610c26610c2c92610c3195610d7e565b909350610c6291965060603d606011610284576102718183610abc565b509590959238610c01565b6040513d87823e3d90fd5b610c91915060203d6020116102bd576102ae8183610abc565b38610bda565b600080808094819460018060a01b03165af1903d15610d00573d67ffffffffffffffff8111610cec5760405190610cd8601f8201601f191660200183610abc565b81528160203d92013e5b81156102ce575090565b634e487b7160e01b82526041600452602482fd5b610ce2565b908115610d7757610d20610d198284610b15565b9283610b3e565b03610d285790565b60405162461bcd60e51b815260206004820152602160248201527f536166654d6174683a206d756c7469706c69636174696f6e206f766572666c6f6044820152607760f81b6064820152608490fd5b5050600090565b90810190818111610b28578110610d925790565b60405162461bcd60e51b815260206004820152601b60248201527f536166654d6174683a206164646974696f6e206f766572666c6f7700000000006044820152606490fd5b90610c3191610e1d604051610deb81610a8a565b601a81527f536166654d6174683a206469766973696f6e206279207a65726f0000000000006020820152831515610e6e565b610b3e565b90610c3191610e69604051610e3681610a8a565b601e81527f536166654d6174683a207375627472616374696f6e206f766572666c6f770000602082015282841115610e6e565b610b5e565b15610e765750565b6040519062461bcd60e51b82528160208060048301528251908160248401526000935b828510610ebc575050604492506000838284010152601f80199101168101030190fd5b8481018201518686016044015293810193859350610e9956fea264697066735822122005e13a5b9f5238da804eb477d0fa566aa062d266ff0699c7582ebe94a815b2e564736f6c63430008180033",
          "opcodes": "PUSH1 0x80 CALLVALUE PUSH2 0x8D JUMPI PUSH1 0x1F PUSH2 0xFC8 CODESIZE DUP2 SWAP1 SUB SWAP2 DUP3 ADD PUSH1 0x1F NOT AND DUP4 ADD SWAP2 PUSH1 0x1 PUSH1 0x1 PUSH1 0x40 SHL SUB DUP4 GT DUP5 DUP5 LT OR PUSH2 0x92 JUMPI DUP1 DUP5 SWAP3 PUSH1 0x40 SWAP5 DUP6 MSTORE DUP4 CODECOPY DUP2 ADD SUB SLT PUSH2 0x8D JUMPI PUSH2 0x52 PUSH1 0x20 PUSH2 0x4B DUP4 PUSH2 0xA8 JUMP JUMPDEST SWAP3 ADD PUSH2 0xA8 JUMP JUMPDEST PUSH1 0x0 DUP1 SLOAD PUSH1 0x1 PUSH1 0x1 PUSH1 0xA0 SHL SUB SWAP4 DUP5 AND PUSH1 0x1 PUSH1 0x1 PUSH1 0xA0 SHL SUB NOT SWAP2 DUP3 AND OR SWAP1 SWAP2 SSTORE PUSH1 0x1 DUP1 SLOAD SWAP3 SWAP1 SWAP4 AND SWAP2 AND OR SWAP1 SSTORE PUSH1 0x40 MLOAD PUSH2 0xF0B SWAP1 DUP2 PUSH2 0xBD DUP3 CODECOPY RETURN JUMPDEST PUSH1 0x0 DUP1 REVERT JUMPDEST PUSH4 0x4E487B71 PUSH1 0xE0 SHL PUSH1 0x0 MSTORE PUSH1 0x41 PUSH1 0x4 MSTORE PUSH1 0x24 PUSH1 0x0 REVERT JUMPDEST MLOAD SWAP1 PUSH1 0x1 PUSH1 0x1 PUSH1 0xA0 SHL SUB DUP3 AND DUP3 SUB PUSH2 0x8D JUMPI JUMP INVALID PUSH1 0x80 PUSH1 0x40 SWAP1 DUP1 DUP3 MSTORE PUSH1 0x4 SWAP1 DUP2 CALLDATASIZE LT ISZERO PUSH2 0x17 JUMPI PUSH1 0x0 DUP1 REVERT JUMPDEST PUSH1 0x0 SWAP1 DUP2 CALLDATALOAD PUSH1 0xE0 SHR SWAP1 DUP2 PUSH4 0x6BF09F10 EQ PUSH2 0x7CF JUMPI POP DUP1 PUSH4 0x7282D548 EQ PUSH2 0x64B JUMPI DUP1 PUSH4 0x7F54A369 EQ PUSH2 0x356 JUMPI DUP1 PUSH4 0xAD5C4648 EQ PUSH2 0x32D JUMPI DUP1 PUSH4 0xB682894B EQ PUSH2 0x2FD JUMPI DUP1 PUSH4 0xC45A0155 EQ PUSH2 0x2D1 JUMPI PUSH4 0xE79A4089 EQ PUSH2 0x72 JUMPI PUSH1 0x0 DUP1 REVERT JUMPDEST PUSH1 0x60 CALLDATASIZE PUSH1 0x3 NOT ADD SLT PUSH2 0x2CE JUMPI PUSH2 0xE2 PUSH2 0x89 PUSH2 0xA74 JUMP JUMPDEST SWAP2 PUSH1 0x24 CALLDATALOAD SWAP3 PUSH2 0x96 PUSH2 0xA5E JUMP JUMPDEST DUP3 SLOAD PUSH1 0x1 SLOAD DUP9 MLOAD PUSH4 0xE6A43905 PUSH1 0xE0 SHL DUP2 MSTORE PUSH1 0x1 PUSH1 0x1 PUSH1 0xA0 SHL SUB DUP6 DUP2 AND DUP3 DUP12 ADD SWAP1 DUP2 MSTORE SWAP3 DUP2 AND PUSH1 0x20 DUP5 DUP2 ADD SWAP2 SWAP1 SWAP2 MSTORE SWAP2 SWAP10 SWAP2 SWAP8 SWAP1 SWAP6 SWAP2 SWAP5 SWAP2 SWAP4 SWAP2 SWAP3 DUP9 SWAP3 DUP12 SWAP3 SWAP1 DUP9 AND SWAP2 DUP4 SWAP2 DUP3 SWAP2 PUSH1 0x40 ADD SWAP1 JUMP JUMPDEST SUB SWAP2 GAS STATICCALL SWAP8 DUP9 ISZERO PUSH2 0x2C4 JUMPI DUP6 SWAP9 PUSH2 0x295 JUMPI JUMPDEST POP DUP9 MLOAD PUSH4 0x240BC6B PUSH1 0xE2 SHL DUP2 MSTORE DUP9 DUP6 AND SWAP5 SWAP1 PUSH1 0x60 DUP2 DUP7 DUP2 DUP10 GAS STATICCALL DUP1 ISZERO PUSH2 0x28B JUMPI PUSH1 0x64 SWAP2 PUSH2 0x137 SWAP2 DUP10 SWAP2 DUP11 SWAP2 PUSH2 0x250 JUMPI JUMPDEST POP PUSH2 0x130 DUP5 SWAP2 DUP14 PUSH2 0xB15 JUMP JUMPDEST DIV SWAP11 PUSH2 0xB15 JUMP JUMPDEST DIV SWAP9 PUSH2 0x143 DUP10 DUP5 PUSH2 0xC97 JUMP JUMPDEST ISZERO PUSH2 0x24C JUMPI DUP11 MLOAD PUSH4 0x23B872DD PUSH1 0xE0 SHL DUP2 MSTORE PUSH1 0x1 PUSH1 0x1 PUSH1 0xA0 SHL SUB SWAP2 DUP3 AND DUP7 DUP3 ADD SWAP1 DUP2 MSTORE SWAP4 SWAP1 SWAP2 AND PUSH1 0x20 DUP5 ADD MSTORE PUSH1 0x40 DUP4 ADD DUP11 SWAP1 MSTORE SWAP3 DUP8 SWAP3 DUP5 SWAP3 DUP4 SWAP2 DUP10 SWAP2 SWAP1 DUP4 SWAP1 PUSH1 0x60 ADD SUB SWAP4 AND GAS CALL SWAP1 DUP2 ISZERO PUSH2 0x242 JUMPI DUP5 SWAP2 PUSH2 0x225 JUMPI JUMPDEST POP ISZERO PUSH2 0x221 JUMPI DUP7 MLOAD PUSH4 0x1D24E231 PUSH1 0xE2 SHL DUP2 MSTORE SWAP1 DUP2 ADD DUP7 DUP2 MSTORE PUSH1 0x20 DUP2 ADD DUP7 SWAP1 MSTORE CALLER PUSH1 0x40 DUP3 ADD MSTORE SWAP1 SWAP3 SWAP2 DUP5 SWAP2 DUP5 SWAP2 SWAP1 DUP3 SWAP1 DUP6 SWAP1 DUP3 SWAP1 PUSH1 0x60 ADD SUB SWAP3 GAS CALL SWAP1 DUP2 ISZERO PUSH2 0x216 JUMPI POP PUSH2 0x1E9 JUMPI JUMPDEST POP DUP4 MLOAD SWAP3 DUP4 MSTORE DUP3 ADD MSTORE RETURN JUMPDEST PUSH2 0x208 SWAP1 DUP3 RETURNDATASIZE DUP5 GT PUSH2 0x20F JUMPI JUMPDEST PUSH2 0x200 DUP2 DUP4 PUSH2 0xABC JUMP JUMPDEST DUP2 ADD SWAP1 PUSH2 0xAFD JUMP JUMPDEST POP CODESIZE PUSH2 0x1DE JUMP JUMPDEST POP RETURNDATASIZE PUSH2 0x1F6 JUMP JUMPDEST DUP7 MLOAD SWAP1 RETURNDATASIZE SWAP1 DUP3 RETURNDATACOPY RETURNDATASIZE SWAP1 REVERT JUMPDEST DUP3 DUP1 REVERT JUMPDEST PUSH2 0x23C SWAP2 POP DUP6 RETURNDATASIZE DUP8 GT PUSH2 0x20F JUMPI PUSH2 0x200 DUP2 DUP4 PUSH2 0xABC JUMP JUMPDEST CODESIZE PUSH2 0x197 JUMP JUMPDEST DUP9 MLOAD RETURNDATASIZE DUP7 DUP3 RETURNDATACOPY RETURNDATASIZE SWAP1 REVERT JUMPDEST DUP7 DUP1 REVERT JUMPDEST PUSH2 0x130 SWAP3 POP DUP5 SWAP2 POP PUSH2 0x279 SWAP1 PUSH1 0x60 RETURNDATASIZE PUSH1 0x60 GT PUSH2 0x284 JUMPI JUMPDEST PUSH2 0x271 DUP2 DUP4 PUSH2 0xABC JUMP JUMPDEST DUP2 ADD SWAP1 PUSH2 0xB6B JUMP JUMPDEST POP SWAP3 SWAP1 SWAP3 SWAP2 POP PUSH2 0x124 JUMP JUMPDEST POP RETURNDATASIZE PUSH2 0x267 JUMP JUMPDEST DUP12 MLOAD RETURNDATASIZE DUP10 DUP3 RETURNDATACOPY RETURNDATASIZE SWAP1 REVERT JUMPDEST PUSH2 0x2B6 SWAP2 SWAP9 POP DUP7 RETURNDATASIZE DUP9 GT PUSH2 0x2BD JUMPI JUMPDEST PUSH2 0x2AE DUP2 DUP4 PUSH2 0xABC JUMP JUMPDEST DUP2 ADD SWAP1 PUSH2 0xADE JUMP JUMPDEST SWAP7 CODESIZE PUSH2 0xF4 JUMP JUMPDEST POP RETURNDATASIZE PUSH2 0x2A4 JUMP JUMPDEST DUP10 MLOAD RETURNDATASIZE DUP8 DUP3 RETURNDATACOPY RETURNDATASIZE SWAP1 REVERT JUMPDEST DUP1 REVERT JUMPDEST POP DUP3 CALLVALUE PUSH2 0x2F9 JUMPI DUP2 PUSH1 0x3 NOT CALLDATASIZE ADD SLT PUSH2 0x2F9 JUMPI SWAP1 SLOAD SWAP1 MLOAD PUSH1 0x1 PUSH1 0x1 PUSH1 0xA0 SHL SUB SWAP1 SWAP2 AND DUP2 MSTORE PUSH1 0x20 SWAP1 RETURN JUMPDEST POP DUP1 REVERT JUMPDEST POP DUP3 CALLVALUE PUSH2 0x2F9 JUMPI DUP1 PUSH1 0x3 NOT CALLDATASIZE ADD SLT PUSH2 0x2F9 JUMPI PUSH1 0x20 SWAP1 PUSH2 0x326 PUSH2 0x31D PUSH2 0xA74 JUMP JUMPDEST PUSH1 0x24 CALLDATALOAD SWAP1 PUSH2 0xB86 JUMP JUMPDEST SWAP1 MLOAD SWAP1 DUP2 MSTORE RETURN JUMPDEST POP DUP3 CALLVALUE PUSH2 0x2F9 JUMPI DUP2 PUSH1 0x3 NOT CALLDATASIZE ADD SLT PUSH2 0x2F9 JUMPI PUSH1 0x1 SLOAD SWAP1 MLOAD PUSH1 0x1 PUSH1 0x1 PUSH1 0xA0 SHL SUB SWAP1 SWAP2 AND DUP2 MSTORE PUSH1 0x20 SWAP1 RETURN JUMPDEST POP DUP3 PUSH1 0x3 NOT CALLDATASIZE ADD SLT PUSH2 0x2CE JUMPI PUSH2 0x36A PUSH2 0xA74 JUMP JUMPDEST SWAP1 PUSH2 0x373 PUSH2 0xA43 JUMP JUMPDEST DUP2 SLOAD PUSH1 0x1 SLOAD DUP7 MLOAD PUSH4 0xE6A43905 PUSH1 0xE0 SHL DUP2 MSTORE PUSH1 0x1 PUSH1 0x1 PUSH1 0xA0 SHL SUB DUP7 DUP2 AND DUP3 DUP10 ADD SWAP1 DUP2 MSTORE SWAP3 DUP2 AND PUSH1 0x20 DUP5 DUP2 ADD DUP3 SWAP1 MSTORE SWAP9 SWAP5 DUP3 AND SWAP8 SWAP1 SWAP7 SWAP6 SWAP1 SWAP4 SWAP1 SWAP3 SWAP1 DUP10 SWAP1 DUP3 SWAP1 DUP2 SWAP1 PUSH1 0x40 ADD SUB DUP2 DUP12 GAS STATICCALL SWAP1 DUP2 ISZERO PUSH2 0x641 JUMPI DUP7 SWAP2 PUSH2 0x624 JUMPI JUMPDEST POP PUSH2 0x3D8 DUP3 DUP3 AND SWAP8 CALLVALUE SWAP1 PUSH2 0xB86 JUMP JUMPDEST DUP11 MLOAD PUSH4 0x2E2952F9 PUSH1 0xE1 SHL DUP2 MSTORE ADDRESS DUP8 DUP3 ADD SWAP1 DUP2 MSTORE PUSH1 0x1 PUSH1 0x1 PUSH1 0xA0 SHL SUB DUP8 AND PUSH1 0x20 DUP3 ADD MSTORE PUSH1 0x40 DUP2 ADD DUP4 SWAP1 MSTORE SWAP2 SWAP10 SWAP2 DUP12 SWAP1 DUP3 SWAP1 DUP2 SWAP1 PUSH1 0x60 ADD SUB DUP2 DUP12 DUP14 GAS CALL SWAP1 DUP2 ISZERO PUSH2 0x5FD JUMPI DUP9 SWAP2 PUSH2 0x607 JUMPI JUMPDEST POP ISZERO PUSH2 0x24C JUMPI DUP11 MLOAD PUSH4 0xCF820461 PUSH1 0xE0 SHL DUP2 MSTORE DUP11 DUP2 DUP9 DUP2 DUP6 GAS STATICCALL SWAP1 DUP2 ISZERO PUSH2 0x5FD JUMPI DUP12 DUP9 SWAP3 DUP15 SWAP3 DUP12 SWAP2 PUSH2 0x5C6 JUMPI JUMPDEST POP PUSH2 0x45B PUSH1 0x64 SWAP2 CALLVALUE SWAP1 PUSH2 0xB15 JUMP JUMPDEST DIV SWAP4 PUSH2 0x467 DUP6 CALLVALUE PUSH2 0xB5E JUMP JUMPDEST SWAP3 MLOAD PUSH3 0x2FCFCB PUSH1 0xE3 SHL DUP2 MSTORE SWAP4 DUP5 SWAP2 DUP3 SWAP1 GAS STATICCALL SWAP2 DUP3 ISZERO PUSH2 0x5BC JUMPI DUP10 SWAP3 PUSH2 0x599 JUMPI JUMPDEST POP PUSH2 0x492 SWAP1 DUP5 PUSH2 0xC97 JUMP JUMPDEST ISZERO PUSH2 0x595 JUMPI SWAP1 PUSH2 0x4A1 SWAP2 PUSH2 0xC97 JUMP JUMPDEST ISZERO PUSH2 0x591 JUMPI DUP10 MLOAD PUSH4 0x23B872DD PUSH1 0xE0 SHL DUP2 MSTORE PUSH1 0x1 PUSH1 0x1 PUSH1 0xA0 SHL SUB SWAP2 DUP3 AND DUP7 DUP3 ADD SWAP1 DUP2 MSTORE SWAP4 SWAP1 SWAP2 AND PUSH1 0x20 DUP5 ADD MSTORE PUSH1 0x40 DUP4 ADD DUP9 SWAP1 MSTORE SWAP3 DUP9 SWAP3 DUP5 SWAP3 DUP4 SWAP2 DUP9 SWAP2 SWAP1 DUP4 SWAP1 PUSH1 0x60 ADD SUB SWAP4 AND GAS CALL SWAP1 DUP2 ISZERO PUSH2 0x587 JUMPI DUP4 SWAP2 PUSH2 0x56A JUMPI JUMPDEST POP ISZERO PUSH2 0x2F9 JUMPI DUP2 PUSH1 0x84 DUP7 SWAP3 DUP3 DUP10 MLOAD SWAP7 DUP8 SWAP5 DUP6 SWAP4 PUSH4 0x5673B02D PUSH1 0xE0 SHL DUP6 MSTORE DUP5 ADD MSTORE DUP9 PUSH1 0x24 DUP5 ADD MSTORE CALLVALUE PUSH1 0x44 DUP5 ADD MSTORE DUP2 PUSH1 0x64 DUP5 ADD MSTORE GAS CALL SWAP1 DUP2 ISZERO PUSH2 0x55F JUMPI POP PUSH2 0x542 JUMPI JUMPDEST POP DUP3 MLOAD SWAP2 CALLVALUE DUP4 MSTORE DUP3 ADD MSTORE RETURN JUMPDEST PUSH2 0x558 SWAP1 DUP4 RETURNDATASIZE DUP6 GT PUSH2 0x20F JUMPI PUSH2 0x200 DUP2 DUP4 PUSH2 0xABC JUMP JUMPDEST POP CODESIZE PUSH2 0x536 JUMP JUMPDEST DUP6 MLOAD SWAP1 RETURNDATASIZE SWAP1 DUP3 RETURNDATACOPY RETURNDATASIZE SWAP1 REVERT JUMPDEST PUSH2 0x581 SWAP2 POP DUP7 RETURNDATASIZE DUP9 GT PUSH2 0x20F JUMPI PUSH2 0x200 DUP2 DUP4 PUSH2 0xABC JUMP JUMPDEST CODESIZE PUSH2 0x4F5 JUMP JUMPDEST DUP8 MLOAD RETURNDATASIZE DUP6 DUP3 RETURNDATACOPY RETURNDATASIZE SWAP1 REVERT JUMPDEST DUP6 DUP1 REVERT JUMPDEST DUP8 DUP1 REVERT JUMPDEST PUSH2 0x492 SWAP2 SWAP3 POP PUSH2 0x5B5 SWAP1 DUP14 DUP1 RETURNDATASIZE LT PUSH2 0x2BD JUMPI PUSH2 0x2AE DUP2 DUP4 PUSH2 0xABC JUMP JUMPDEST SWAP2 SWAP1 PUSH2 0x487 JUMP JUMPDEST DUP14 MLOAD RETURNDATASIZE DUP12 DUP3 RETURNDATACOPY RETURNDATASIZE SWAP1 REVERT JUMPDEST SWAP4 POP POP SWAP1 POP DUP2 DUP2 RETURNDATASIZE DUP4 GT PUSH2 0x5F6 JUMPI JUMPDEST PUSH2 0x5DF DUP2 DUP4 PUSH2 0xABC JUMP JUMPDEST DUP2 ADD SUB SLT PUSH2 0x595 JUMPI MLOAD DUP7 SWAP1 DUP13 SWAP1 DUP13 SWAP1 PUSH2 0x45B PUSH2 0x44D JUMP JUMPDEST POP RETURNDATASIZE PUSH2 0x5D5 JUMP JUMPDEST DUP13 MLOAD RETURNDATASIZE DUP11 DUP3 RETURNDATACOPY RETURNDATASIZE SWAP1 REVERT JUMPDEST PUSH2 0x61E SWAP2 POP DUP12 RETURNDATASIZE DUP14 GT PUSH2 0x20F JUMPI PUSH2 0x200 DUP2 DUP4 PUSH2 0xABC JUMP JUMPDEST CODESIZE PUSH2 0x421 JUMP JUMPDEST PUSH2 0x63B SWAP2 POP DUP10 RETURNDATASIZE DUP12 GT PUSH2 0x2BD JUMPI PUSH2 0x2AE DUP2 DUP4 PUSH2 0xABC JUMP JUMPDEST CODESIZE PUSH2 0x3C9 JUMP JUMPDEST DUP11 MLOAD RETURNDATASIZE DUP9 DUP3 RETURNDATACOPY RETURNDATASIZE SWAP1 REVERT JUMPDEST POP SWAP1 DUP3 PUSH1 0x3 NOT CALLDATASIZE ADD SLT PUSH2 0x2F9 JUMPI PUSH2 0x6B1 SWAP1 PUSH2 0x664 PUSH2 0xA74 JUMP JUMPDEST DUP4 SLOAD PUSH1 0x1 SLOAD DUP7 MLOAD PUSH4 0xE6A43905 PUSH1 0xE0 SHL DUP2 MSTORE PUSH1 0x1 PUSH1 0x1 PUSH1 0xA0 SHL SUB DUP1 DUP6 AND DUP3 DUP8 ADD SWAP1 DUP2 MSTORE SWAP3 DUP2 AND PUSH1 0x20 DUP5 DUP2 ADD SWAP2 SWAP1 SWAP2 MSTORE PUSH1 0x24 CALLDATALOAD SWAP9 SWAP1 SWAP8 SWAP2 SWAP7 SWAP1 SWAP6 SWAP3 SWAP5 SWAP1 SWAP4 DUP9 SWAP3 DUP7 SWAP3 DUP10 AND SWAP2 DUP4 SWAP2 DUP3 SWAP2 PUSH1 0x40 ADD SWAP1 JUMP JUMPDEST SUB SWAP2 GAS STATICCALL SWAP3 DUP4 ISZERO PUSH2 0x242 JUMPI DUP5 SWAP4 PUSH2 0x7B0 JUMPI JUMPDEST POP PUSH2 0x6CE CALLVALUE DUP5 PUSH2 0xC97 JUMP JUMPDEST ISZERO PUSH2 0x7AC JUMPI DUP8 MLOAD PUSH4 0x23B872DD PUSH1 0xE0 SHL DUP2 MSTORE CALLER DUP4 DUP3 ADD SWAP1 DUP2 MSTORE PUSH1 0x1 PUSH1 0x1 PUSH1 0xA0 SHL SUB DUP6 AND PUSH1 0x20 DUP3 ADD MSTORE PUSH1 0x40 DUP2 ADD DUP10 SWAP1 MSTORE SWAP1 SWAP2 DUP8 SWAP2 DUP4 SWAP2 SWAP1 DUP3 SWAP1 SUB PUSH1 0x60 ADD SWAP1 DUP3 SWAP1 DUP9 SWAP1 DUP11 AND GAS CALL SWAP1 DUP2 ISZERO PUSH2 0x242 JUMPI DUP5 SWAP2 PUSH2 0x78F JUMPI JUMPDEST POP ISZERO PUSH2 0x221 JUMPI DUP7 MLOAD PUSH4 0xE7D3FE6B PUSH1 0xE0 SHL DUP2 MSTORE SWAP1 DUP2 ADD DUP7 DUP2 MSTORE CALLVALUE PUSH1 0x20 DUP3 ADD MSTORE CALLER PUSH1 0x40 DUP3 ADD MSTORE SWAP1 SWAP4 DUP6 SWAP3 DUP6 SWAP3 DUP4 SWAP1 SUB PUSH1 0x60 ADD SWAP2 DUP4 SWAP2 DUP7 SWAP2 AND GAS CALL SWAP1 DUP2 ISZERO PUSH2 0x55F JUMPI POP PUSH2 0x772 JUMPI JUMPDEST POP DUP3 MLOAD SWAP2 DUP3 MSTORE CALLVALUE SWAP1 DUP3 ADD MSTORE RETURN JUMPDEST PUSH2 0x788 SWAP1 DUP3 RETURNDATASIZE DUP5 GT PUSH2 0x20F JUMPI PUSH2 0x200 DUP2 DUP4 PUSH2 0xABC JUMP JUMPDEST POP CODESIZE PUSH2 0x765 JUMP JUMPDEST PUSH2 0x7A6 SWAP2 POP DUP7 RETURNDATASIZE DUP9 GT PUSH2 0x20F JUMPI PUSH2 0x200 DUP2 DUP4 PUSH2 0xABC JUMP JUMPDEST CODESIZE PUSH2 0x720 JUMP JUMPDEST DUP4 DUP1 REVERT JUMPDEST PUSH2 0x7C8 SWAP2 SWAP4 POP DUP7 RETURNDATASIZE DUP9 GT PUSH2 0x2BD JUMPI PUSH2 0x2AE DUP2 DUP4 PUSH2 0xABC JUMP JUMPDEST SWAP2 CODESIZE PUSH2 0x6C3 JUMP JUMPDEST DUP5 SWAP2 POP DUP4 CALLVALUE PUSH2 0x7AC JUMPI PUSH1 0x60 CALLDATASIZE PUSH1 0x3 NOT ADD SLT PUSH2 0x7AC JUMPI DUP1 CALLDATALOAD SWAP2 PUSH2 0x7EF PUSH2 0xA43 JUMP JUMPDEST SWAP5 PUSH2 0x7F8 PUSH2 0xA5E JUMP JUMPDEST DUP2 SLOAD PUSH1 0x1 SLOAD PUSH4 0xE6A43905 PUSH1 0xE0 SHL DUP6 MSTORE PUSH1 0x1 PUSH1 0x1 PUSH1 0xA0 SHL SUB DUP10 DUP2 AND DUP7 DUP9 ADD SWAP1 DUP2 MSTORE SWAP2 DUP2 AND PUSH1 0x20 DUP4 DUP2 ADD SWAP2 SWAP1 SWAP2 MSTORE SWAP7 SWAP4 SWAP1 SWAP3 DUP4 AND SWAP2 DUP8 SWAP1 DUP8 SWAP1 DUP2 SWAP1 PUSH1 0x40 ADD SUB DUP2 DUP6 GAS STATICCALL SWAP6 DUP7 ISZERO PUSH2 0x2C4 JUMPI DUP9 DUP11 SWAP12 DUP10 SWAP3 DUP9 SWAP13 SWAP12 SWAP13 SWAP10 PUSH2 0xA1E JUMPI JUMPDEST POP SWAP1 DUP2 DUP10 DUP10 DUP9 DUP11 PUSH2 0x862 DUP7 DUP11 SWAP10 SWAP9 PUSH2 0xB86 JUMP JUMPDEST SWAP16 MLOAD PUSH4 0x23B872DD PUSH1 0xE0 SHL DUP2 MSTORE PUSH1 0x1 PUSH1 0x1 PUSH1 0xA0 SHL SUB SWAP9 DUP10 AND SWAP2 DUP2 ADD SWAP2 DUP3 MSTORE SWAP8 SWAP1 SWAP4 AND PUSH1 0x20 DUP5 ADD MSTORE PUSH1 0x40 DUP4 ADD SWAP5 SWAP1 SWAP5 MSTORE DUP6 SWAP4 DUP5 SWAP3 DUP4 SWAP1 PUSH1 0x60 ADD SUB SWAP4 AND GAS CALL SWAP1 DUP2 ISZERO PUSH2 0x9F7 JUMPI DUP7 SWAP2 PUSH2 0xA01 JUMPI JUMPDEST POP ISZERO PUSH2 0x994 JUMPI DUP10 MLOAD PUSH4 0xCF820461 PUSH1 0xE0 SHL DUP2 MSTORE DUP8 DUP2 DUP7 DUP2 DUP7 GAS STATICCALL SWAP1 DUP2 ISZERO PUSH2 0x9F7 JUMPI DUP6 SWAP2 DUP11 SWAP2 DUP9 SWAP2 PUSH2 0x9C3 JUMPI JUMPDEST POP PUSH1 0x64 SWAP2 PUSH2 0x8E4 SWAP2 PUSH2 0xB15 JUMP JUMPDEST DIV SWAP3 DUP9 PUSH2 0x8F1 DUP6 DUP13 PUSH2 0xB5E JUMP JUMPDEST SWAP2 DUP14 MLOAD SWAP4 DUP5 DUP1 SWAP3 PUSH3 0x2FCFCB PUSH1 0xE3 SHL DUP3 MSTORE GAS STATICCALL SWAP2 DUP3 ISZERO PUSH2 0x9B9 JUMPI DUP8 SWAP3 PUSH2 0x998 JUMPI JUMPDEST POP PUSH2 0x91C SWAP2 SWAP3 PUSH2 0xC97 JUMP JUMPDEST ISZERO PUSH2 0x994 JUMPI SWAP1 PUSH2 0x92B SWAP2 PUSH2 0xC97 JUMP JUMPDEST ISZERO PUSH2 0x221 JUMPI PUSH1 0x84 DUP6 SWAP3 DUP5 DUP10 SWAP4 DUP12 MLOAD SWAP8 DUP9 SWAP6 DUP7 SWAP5 PUSH4 0x5673B02D PUSH1 0xE0 SHL DUP7 MSTORE DUP6 ADD MSTORE DUP3 PUSH1 0x24 DUP6 ADD MSTORE DUP3 PUSH1 0x44 DUP6 ADD MSTORE DUP11 PUSH1 0x64 DUP6 ADD MSTORE AND GAS CALL SWAP1 DUP2 ISZERO PUSH2 0x216 JUMPI POP PUSH2 0x977 JUMPI POP DUP4 MLOAD SWAP3 DUP4 MSTORE DUP3 ADD MSTORE RETURN JUMPDEST PUSH2 0x98D SWAP1 DUP3 RETURNDATASIZE DUP5 GT PUSH2 0x20F JUMPI PUSH2 0x200 DUP2 DUP4 PUSH2 0xABC JUMP JUMPDEST POP DUP5 PUSH2 0x1DE JUMP JUMPDEST DUP5 DUP1 REVERT JUMPDEST PUSH2 0x91C SWAP3 POP PUSH2 0x9B3 SWAP1 DUP11 RETURNDATASIZE DUP13 GT PUSH2 0x2BD JUMPI PUSH2 0x2AE DUP2 DUP4 PUSH2 0xABC JUMP JUMPDEST SWAP2 PUSH2 0x911 JUMP JUMPDEST DUP13 MLOAD RETURNDATASIZE DUP10 DUP3 RETURNDATACOPY RETURNDATASIZE SWAP1 REVERT JUMPDEST SWAP3 POP POP POP DUP8 DUP2 DUP2 RETURNDATASIZE DUP4 GT PUSH2 0x9F0 JUMPI JUMPDEST PUSH2 0x9DC DUP2 DUP4 PUSH2 0xABC JUMP JUMPDEST DUP2 ADD SUB SLT PUSH2 0x591 JUMPI MLOAD DUP5 SWAP1 DUP10 SWAP1 PUSH1 0x64 PUSH2 0x8D7 JUMP JUMPDEST POP RETURNDATASIZE PUSH2 0x9D2 JUMP JUMPDEST DUP12 MLOAD RETURNDATASIZE DUP9 DUP3 RETURNDATACOPY RETURNDATASIZE SWAP1 REVERT JUMPDEST PUSH2 0xA18 SWAP2 POP DUP9 RETURNDATASIZE DUP11 GT PUSH2 0x20F JUMPI PUSH2 0x200 DUP2 DUP4 PUSH2 0xABC JUMP JUMPDEST DUP12 PUSH2 0x8AC JUMP JUMPDEST DUP4 SWAP3 SWAP2 SWAP10 POP PUSH2 0xA3A SWAP1 DUP6 SWAP5 RETURNDATASIZE DUP6 GT PUSH2 0x2BD JUMPI PUSH2 0x2AE DUP2 DUP4 PUSH2 0xABC JUMP JUMPDEST SWAP9 SWAP1 SWAP2 SWAP3 PUSH2 0x84F JUMP JUMPDEST PUSH1 0x24 CALLDATALOAD SWAP1 PUSH1 0x1 PUSH1 0x1 PUSH1 0xA0 SHL SUB DUP3 AND DUP3 SUB PUSH2 0xA59 JUMPI JUMP JUMPDEST PUSH1 0x0 DUP1 REVERT JUMPDEST PUSH1 0x44 CALLDATALOAD SWAP1 PUSH1 0x1 PUSH1 0x1 PUSH1 0xA0 SHL SUB DUP3 AND DUP3 SUB PUSH2 0xA59 JUMPI JUMP JUMPDEST PUSH1 0x4 CALLDATALOAD SWAP1 PUSH1 0x1 PUSH1 0x1 PUSH1 0xA0 SHL SUB DUP3 AND DUP3 SUB PUSH2 0xA59 JUMPI JUMP JUMPDEST PUSH1 0x40 DUP2 ADD SWAP1 DUP2 LT PUSH8 0xFFFFFFFFFFFFFFFF DUP3 GT OR PUSH2 0xAA6 JUMPI PUSH1 0x40 MSTORE JUMP JUMPDEST PUSH4 0x4E487B71 PUSH1 0xE0 SHL PUSH1 0x0 MSTORE PUSH1 0x41 PUSH1 0x4 MSTORE PUSH1 0x24 PUSH1 0x0 REVERT JUMPDEST SWAP1 PUSH1 0x1F DUP1 NOT SWAP2 ADD AND DUP2 ADD SWAP1 DUP2 LT PUSH8 0xFFFFFFFFFFFFFFFF DUP3 GT OR PUSH2 0xAA6 JUMPI PUSH1 0x40 MSTORE JUMP JUMPDEST SWAP1 DUP2 PUSH1 0x20 SWAP2 SUB SLT PUSH2 0xA59 JUMPI MLOAD PUSH1 0x1 PUSH1 0x1 PUSH1 0xA0 SHL SUB DUP2 AND DUP2 SUB PUSH2 0xA59 JUMPI SWAP1 JUMP JUMPDEST SWAP1 DUP2 PUSH1 0x20 SWAP2 SUB SLT PUSH2 0xA59 JUMPI MLOAD DUP1 ISZERO ISZERO DUP2 SUB PUSH2 0xA59 JUMPI SWAP1 JUMP JUMPDEST DUP2 DUP2 MUL SWAP3 SWAP2 DUP2 ISZERO SWAP2 DUP5 DIV EQ OR ISZERO PUSH2 0xB28 JUMPI JUMP JUMPDEST PUSH4 0x4E487B71 PUSH1 0xE0 SHL PUSH1 0x0 MSTORE PUSH1 0x11 PUSH1 0x4 MSTORE PUSH1 0x24 PUSH1 0x0 REVERT JUMPDEST DUP2 ISZERO PUSH2 0xB48 JUMPI DIV SWAP1 JUMP JUMPDEST PUSH4 0x4E487B71 PUSH1 0xE0 SHL PUSH1 0x0 MSTORE PUSH1 0x12 PUSH1 0x4 MSTORE PUSH1 0x24 PUSH1 0x0 REVERT JUMPDEST SWAP2 SWAP1 DUP3 SUB SWAP2 DUP3 GT PUSH2 0xB28 JUMPI JUMP JUMPDEST SWAP1 DUP2 PUSH1 0x60 SWAP2 SUB SLT PUSH2 0xA59 JUMPI DUP1 MLOAD SWAP2 PUSH1 0x40 PUSH1 0x20 DUP4 ADD MLOAD SWAP3 ADD MLOAD SWAP1 JUMP JUMPDEST PUSH1 0x0 DUP1 SLOAD PUSH1 0x1 SLOAD PUSH1 0x40 MLOAD PUSH4 0xE6A43905 PUSH1 0xE0 SHL DUP2 MSTORE PUSH1 0x1 PUSH1 0x1 PUSH1 0xA0 SHL SUB DUP6 DUP2 AND PUSH1 0x4 DUP4 ADD MSTORE SWAP2 DUP3 AND PUSH1 0x24 DUP3 ADD DUP2 SWAP1 MSTORE SWAP2 SWAP6 SWAP4 SWAP5 SWAP3 PUSH1 0x20 SWAP1 DUP3 SWAP1 PUSH1 0x44 SWAP1 DUP3 SWAP1 DUP11 AND GAS STATICCALL SWAP1 DUP2 ISZERO PUSH2 0xC6D JUMPI DUP7 SWAP2 PUSH1 0x60 SWAP2 DUP8 SWAP2 PUSH2 0xC78 JUMPI JUMPDEST POP PUSH1 0x4 PUSH1 0x40 MLOAD DUP1 SWAP10 DUP2 SWAP4 PUSH4 0x240BC6B PUSH1 0xE2 SHL DUP4 MSTORE AND GAS STATICCALL SWAP3 DUP4 ISZERO PUSH2 0xC6D JUMPI DUP6 SWAP7 DUP7 SWAP5 PUSH2 0xC45 JUMPI JUMPDEST POP PUSH2 0xC0C DUP5 DUP9 PUSH2 0xD05 JUMP JUMPDEST SWAP6 POP AND SUB PUSH2 0xC34 JUMPI SWAP2 PUSH2 0xC26 PUSH2 0xC2C SWAP3 PUSH2 0xC31 SWAP6 SWAP5 PUSH2 0xD7E JUMP JUMPDEST SWAP1 PUSH2 0xDD7 JUMP JUMPDEST PUSH2 0xE22 JUMP JUMPDEST SWAP1 JUMP JUMPDEST SWAP2 PUSH2 0xC26 PUSH2 0xC2C SWAP3 PUSH2 0xC31 SWAP6 PUSH2 0xD7E JUMP JUMPDEST SWAP1 SWAP4 POP PUSH2 0xC62 SWAP2 SWAP7 POP PUSH1 0x60 RETURNDATASIZE PUSH1 0x60 GT PUSH2 0x284 JUMPI PUSH2 0x271 DUP2 DUP4 PUSH2 0xABC JUMP JUMPDEST POP SWAP6 SWAP1 SWAP6 SWAP3 CODESIZE PUSH2 0xC01 JUMP JUMPDEST PUSH1 0x40 MLOAD RETURNDATASIZE DUP8 DUP3 RETURNDATACOPY RETURNDATASIZE SWAP1 REVERT JUMPDEST PUSH2 0xC91 SWAP2 POP PUSH1 0x20 RETURNDATASIZE PUSH1 0x20 GT PUSH2 0x2BD JUMPI PUSH2 0x2AE DUP2 DUP4 PUSH2 0xABC JUMP JUMPDEST CODESIZE PUSH2 0xBDA JUMP JUMPDEST PUSH1 0x0 DUP1 DUP1 DUP1 SWAP5 DUP2 SWAP5 PUSH1 0x1 DUP1 PUSH1 0xA0 SHL SUB AND GAS CALL SWAP1 RETURNDATASIZE ISZERO PUSH2 0xD00 JUMPI RETURNDATASIZE PUSH8 0xFFFFFFFFFFFFFFFF DUP2 GT PUSH2 0xCEC JUMPI PUSH1 0x40 MLOAD SWAP1 PUSH2 0xCD8 PUSH1 0x1F DUP3 ADD PUSH1 0x1F NOT AND PUSH1 0x20 ADD DUP4 PUSH2 0xABC JUMP JUMPDEST DUP2 MSTORE DUP2 PUSH1 0x20 RETURNDATASIZE SWAP3 ADD RETURNDATACOPY JUMPDEST DUP2 ISZERO PUSH2 0x2CE JUMPI POP SWAP1 JUMP JUMPDEST PUSH4 0x4E487B71 PUSH1 0xE0 SHL DUP3 MSTORE PUSH1 0x41 PUSH1 0x4 MSTORE PUSH1 0x24 DUP3 REVERT JUMPDEST PUSH2 0xCE2 JUMP JUMPDEST SWAP1 DUP2 ISZERO PUSH2 0xD77 JUMPI PUSH2 0xD20 PUSH2 0xD19 DUP3 DUP5 PUSH2 0xB15 JUMP JUMPDEST SWAP3 DUP4 PUSH2 0xB3E JUMP JUMPDEST SUB PUSH2 0xD28 JUMPI SWAP1 JUMP JUMPDEST PUSH1 0x40 MLOAD PUSH3 0x461BCD PUSH1 0xE5 SHL DUP2 MSTORE PUSH1 0x20 PUSH1 0x4 DUP3 ADD MSTORE PUSH1 0x21 PUSH1 0x24 DUP3 ADD MSTORE PUSH32 0x536166654D6174683A206D756C7469706C69636174696F6E206F766572666C6F PUSH1 0x44 DUP3 ADD MSTORE PUSH1 0x77 PUSH1 0xF8 SHL PUSH1 0x64 DUP3 ADD MSTORE PUSH1 0x84 SWAP1 REVERT JUMPDEST POP POP PUSH1 0x0 SWAP1 JUMP JUMPDEST SWAP1 DUP2 ADD SWAP1 DUP2 DUP2 GT PUSH2 0xB28 JUMPI DUP2 LT PUSH2 0xD92 JUMPI SWAP1 JUMP JUMPDEST PUSH1 0x40 MLOAD PUSH3 0x461BCD PUSH1 0xE5 SHL DUP2 MSTORE PUSH1 0x20 PUSH1 0x4 DUP3 ADD MSTORE PUSH1 0x1B PUSH1 0x24 DUP3 ADD MSTORE PUSH32 0x536166654D6174683A206164646974696F6E206F766572666C6F770000000000 PUSH1 0x44 DUP3 ADD MSTORE PUSH1 0x64 SWAP1 REVERT JUMPDEST SWAP1 PUSH2 0xC31 SWAP2 PUSH2 0xE1D PUSH1 0x40 MLOAD PUSH2 0xDEB DUP2 PUSH2 0xA8A JUMP JUMPDEST PUSH1 0x1A DUP2 MSTORE PUSH32 0x536166654D6174683A206469766973696F6E206279207A65726F000000000000 PUSH1 0x20 DUP3 ADD MSTORE DUP4 ISZERO ISZERO PUSH2 0xE6E JUMP JUMPDEST PUSH2 0xB3E JUMP JUMPDEST SWAP1 PUSH2 0xC31 SWAP2 PUSH2 0xE69 PUSH1 0x40 MLOAD PUSH2 0xE36 DUP2 PUSH2 0xA8A JUMP JUMPDEST PUSH1 0x1E DUP2 MSTORE PUSH32 0x536166654D6174683A207375627472616374696F6E206F766572666C6F770000 PUSH1 0x20 DUP3 ADD MSTORE DUP3 DUP5 GT ISZERO PUSH2 0xE6E JUMP JUMPDEST PUSH2 0xB5E JUMP JUMPDEST ISZERO PUSH2 0xE76 JUMPI POP JUMP JUMPDEST PUSH1 0x40 MLOAD SWAP1 PUSH3 0x461BCD PUSH1 0xE5 SHL DUP3 MSTORE DUP2 PUSH1 0x20 DUP1 PUSH1 0x4 DUP4 ADD MSTORE DUP3 MLOAD SWAP1 DUP2 PUSH1 0x24 DUP5 ADD MSTORE PUSH1 0x0 SWAP4 JUMPDEST DUP3 DUP6 LT PUSH2 0xEBC JUMPI POP POP PUSH1 0x44 SWAP3 POP PUSH1 0x0 DUP4 DUP3 DUP5 ADD ADD MSTORE PUSH1 0x1F DUP1 NOT SWAP2 ADD AND DUP2 ADD SUB ADD SWAP1 REVERT JUMPDEST DUP5 DUP2 ADD DUP3 ADD MLOAD DUP7 DUP7 ADD PUSH1 0x44 ADD MSTORE SWAP4 DUP2 ADD SWAP4 DUP6 SWAP4 POP PUSH2 0xE99 JUMP INVALID LOG2 PUSH5 0x6970667358 0x22 SLT KECCAK256 SDIV 0xE1 GASPRICE JUMPDEST SWAP16 MSTORE CODESIZE 0xDA DUP1 0x4E 0xB4 PUSH24 0xD0FA566AA062D266FF0699C7582EBE94A815B2E564736F6C PUSH4 0x43000818 STOP CALLER "
        },
        "methodIdentifiers": {
          "WETH()": "ad5c4648",
          "addLiquidityETH(address,uint256)": "7282d548",
          "factory()": "c45a0155",
          "getAmountsOut(address,uint256)": "b682894b",
          "removeLiquidityETH(address,uint256,address)": "e79a4089",
          "swapETHForTokens(address,address)": "7f54a369",
          "swapTokensForETH(uint256,address,address)": "6bf09f10"
        }
      }
    }
  }
}