{
  "contracts/PumpFun.sol": {
    "PumpFun": {
      "abi": [
        {
          "inputs": [
            {
              "internalType": "address",
              "name": "factory_",
              "type": "address"
            },
            {
              "internalType": "address",
              "name": "router_",
              "type": "address"
            },
            {
              "internalType": "address",
              "name": "fee_to",
              "type": "address"
            },
            {
              "internalType": "uint256",
              "name": "_fee",
              "type": "uint256"
            },
            {
              "internalType": "uint256",
              "name": "_refFee",
              "type": "uint256"
            },
            {
              "internalType": "uint256",
              "name": "min",
              "type": "uint256"
            }
          ],
          "stateMutability": "nonpayable",
          "type": "constructor"
        },
        {
          "inputs": [],
          "name": "ReentrancyGuardReentrantCall",
          "type": "error"
        },
        {
          "anonymous": false,
          "inputs": [
            {
              "indexed": true,
              "internalType": "address",
              "name": "token",
              "type": "address"
            },
            {
              "indexed": false,
              "internalType": "uint256",
              "name": "amount0",
              "type": "uint256"
            },
            {
              "indexed": false,
              "internalType": "uint256",
              "name": "amount1",
              "type": "uint256"
            }
          ],
          "name": "Deployed",
          "type": "event"
        },
        {
          "anonymous": false,
          "inputs": [
            {
              "indexed": true,
              "internalType": "address",
              "name": "token",
              "type": "address"
            },
            {
              "indexed": true,
              "internalType": "address",
              "name": "pair",
              "type": "address"
            },
            {
              "indexed": false,
              "internalType": "uint256",
              "name": "",
              "type": "uint256"
            }
          ],
          "name": "Launched",
          "type": "event"
        },
        {
          "inputs": [
            {
              "internalType": "address",
              "name": "_user",
              "type": "address"
            },
            {
              "internalType": "address",
              "name": "_token",
              "type": "address"
            },
            {
              "internalType": "uint256",
              "name": "amount",
              "type": "uint256"
            }
          ],
          "name": "approval",
          "outputs": [
            {
              "internalType": "bool",
              "name": "",
              "type": "bool"
            }
          ],
          "stateMutability": "nonpayable",
          "type": "function"
        },
        {
          "inputs": [
            {
              "internalType": "address",
              "name": "tk",
              "type": "address"
            }
          ],
          "name": "deploy",
          "outputs": [],
          "stateMutability": "nonpayable",
          "type": "function"
        },
        {
          "inputs": [],
          "name": "feeTo",
          "outputs": [
            {
              "internalType": "address",
              "name": "",
              "type": "address"
            }
          ],
          "stateMutability": "view",
          "type": "function"
        },
        {
          "inputs": [],
          "name": "feeToSetter",
          "outputs": [
            {
              "internalType": "address",
              "name": "",
              "type": "address"
            }
          ],
          "stateMutability": "view",
          "type": "function"
        },
        {
          "inputs": [],
          "name": "getTokens",
          "outputs": [
            {
              "components": [
                {
                  "internalType": "address",
                  "name": "creator",
                  "type": "address"
                },
                {
                  "internalType": "address",
                  "name": "token",
                  "type": "address"
                },
                {
                  "internalType": "address",
                  "name": "pair",
                  "type": "address"
                },
                {
                  "internalType": "string",
                  "name": "name",
                  "type": "string"
                },
                {
                  "internalType": "string",
                  "name": "ticker",
                  "type": "string"
                },
                {
                  "internalType": "uint256",
                  "name": "supply",
                  "type": "uint256"
                },
                {
                  "internalType": "string",
                  "name": "description",
                  "type": "string"
                },
                {
                  "internalType": "string",
                  "name": "image",
                  "type": "string"
                },
                {
                  "internalType": "string",
                  "name": "twitter",
                  "type": "string"
                },
                {
                  "internalType": "string",
                  "name": "telegram",
                  "type": "string"
                },
                {
                  "internalType": "string",
                  "name": "youtube",
                  "type": "string"
                },
                {
                  "internalType": "string",
                  "name": "website",
                  "type": "string"
                },
                {
                  "internalType": "bool",
                  "name": "trading",
                  "type": "bool"
                },
                {
                  "internalType": "bool",
                  "name": "tradingOnUniswap",
                  "type": "bool"
                }
              ],
              "internalType": "struct PumpFun.Token[]",
              "name": "",
              "type": "tuple[]"
            }
          ],
          "stateMutability": "view",
          "type": "function"
        },
        {
          "inputs": [],
          "name": "getUserReferrals",
          "outputs": [
            {
              "internalType": "address[]",
              "name": "",
              "type": "address[]"
            }
          ],
          "stateMutability": "view",
          "type": "function"
        },
        {
          "inputs": [],
          "name": "getUserTokens",
          "outputs": [
            {
              "components": [
                {
                  "internalType": "address",
                  "name": "creator",
                  "type": "address"
                },
                {
                  "internalType": "address",
                  "name": "token",
                  "type": "address"
                },
                {
                  "internalType": "address",
                  "name": "pair",
                  "type": "address"
                },
                {
                  "internalType": "string",
                  "name": "name",
                  "type": "string"
                },
                {
                  "internalType": "string",
                  "name": "ticker",
                  "type": "string"
                },
                {
                  "internalType": "uint256",
                  "name": "supply",
                  "type": "uint256"
                },
                {
                  "internalType": "string",
                  "name": "description",
                  "type": "string"
                },
                {
                  "internalType": "string",
                  "name": "image",
                  "type": "string"
                },
                {
                  "internalType": "string",
                  "name": "twitter",
                  "type": "string"
                },
                {
                  "internalType": "string",
                  "name": "telegram",
                  "type": "string"
                },
                {
                  "internalType": "string",
                  "name": "youtube",
                  "type": "string"
                },
                {
                  "internalType": "string",
                  "name": "website",
                  "type": "string"
                },
                {
                  "internalType": "bool",
                  "name": "trading",
                  "type": "bool"
                },
                {
                  "internalType": "bool",
                  "name": "tradingOnUniswap",
                  "type": "bool"
                }
              ],
              "internalType": "struct PumpFun.Token[]",
              "name": "",
              "type": "tuple[]"
            }
          ],
          "stateMutability": "view",
          "type": "function"
        },
        {
          "inputs": [
            {
              "internalType": "string",
              "name": "_name",
              "type": "string"
            },
            {
              "internalType": "string",
              "name": "_ticker",
              "type": "string"
            },
            {
              "internalType": "string",
              "name": "desc",
              "type": "string"
            },
            {
              "internalType": "string",
              "name": "img",
              "type": "string"
            },
            {
              "internalType": "string[4]",
              "name": "urls",
              "type": "string[4]"
            },
            {
              "internalType": "uint256",
              "name": "_supply",
              "type": "uint256"
            },
            {
              "internalType": "uint256",
              "name": "maxTx",
              "type": "uint256"
            },
            {
              "internalType": "address",
              "name": "ref",
              "type": "address"
            }
          ],
          "name": "launch",
          "outputs": [
            {
              "internalType": "address",
              "name": "",
              "type": "address"
            },
            {
              "internalType": "address",
              "name": "",
              "type": "address"
            },
            {
              "internalType": "uint256",
              "name": "",
              "type": "uint256"
            }
          ],
          "stateMutability": "payable",
          "type": "function"
        },
        {
          "inputs": [],
          "name": "launchFee",
          "outputs": [
            {
              "internalType": "uint256",
              "name": "",
              "type": "uint256"
            }
          ],
          "stateMutability": "view",
          "type": "function"
        },
        {
          "inputs": [],
          "name": "liquidityFee",
          "outputs": [
            {
              "internalType": "uint256",
              "name": "",
              "type": "uint256"
            }
          ],
          "stateMutability": "pure",
          "type": "function"
        },
        {
          "inputs": [],
          "name": "marketCapLimit",
          "outputs": [
            {
              "internalType": "uint256",
              "name": "",
              "type": "uint256"
            }
          ],
          "stateMutability": "pure",
          "type": "function"
        },
        {
          "inputs": [
            {
              "internalType": "address",
              "name": "",
              "type": "address"
            }
          ],
          "name": "profile",
          "outputs": [
            {
              "internalType": "address",
              "name": "user",
              "type": "address"
            },
            {
              "internalType": "address",
              "name": "referree",
              "type": "address"
            }
          ],
          "stateMutability": "view",
          "type": "function"
        },
        {
          "inputs": [
            {
              "internalType": "uint256",
              "name": "",
              "type": "uint256"
            }
          ],
          "name": "profiles",
          "outputs": [
            {
              "internalType": "address",
              "name": "user",
              "type": "address"
            },
            {
              "internalType": "address",
              "name": "referree",
              "type": "address"
            }
          ],
          "stateMutability": "view",
          "type": "function"
        },
        {
          "inputs": [],
          "name": "referralFee",
          "outputs": [
            {
              "internalType": "uint256",
              "name": "",
              "type": "uint256"
            }
          ],
          "stateMutability": "view",
          "type": "function"
        },
        {
          "inputs": [
            {
              "internalType": "address",
              "name": "fee_to",
              "type": "address"
            }
          ],
          "name": "setFeeTo",
          "outputs": [],
          "stateMutability": "nonpayable",
          "type": "function"
        },
        {
          "inputs": [
            {
              "internalType": "address",
              "name": "",
              "type": "address"
            }
          ],
          "name": "token",
          "outputs": [
            {
              "internalType": "address",
              "name": "creator",
              "type": "address"
            },
            {
              "internalType": "address",
              "name": "token",
              "type": "address"
            },
            {
              "internalType": "address",
              "name": "pair",
              "type": "address"
            },
            {
              "internalType": "string",
              "name": "name",
              "type": "string"
            },
            {
              "internalType": "string",
              "name": "ticker",
              "type": "string"
            },
            {
              "internalType": "uint256",
              "name": "supply",
              "type": "uint256"
            },
            {
              "internalType": "string",
              "name": "description",
              "type": "string"
            },
            {
              "internalType": "string",
              "name": "image",
              "type": "string"
            },
            {
              "internalType": "string",
              "name": "twitter",
              "type": "string"
            },
            {
              "internalType": "string",
              "name": "telegram",
              "type": "string"
            },
            {
              "internalType": "string",
              "name": "youtube",
              "type": "string"
            },
            {
              "internalType": "string",
              "name": "website",
              "type": "string"
            },
            {
              "internalType": "bool",
              "name": "trading",
              "type": "bool"
            },
            {
              "internalType": "bool",
              "name": "tradingOnUniswap",
              "type": "bool"
            }
          ],
          "stateMutability": "view",
          "type": "function"
        },
        {
          "inputs": [
            {
              "internalType": "uint256",
              "name": "",
              "type": "uint256"
            }
          ],
          "name": "tokens",
          "outputs": [
            {
              "internalType": "address",
              "name": "creator",
              "type": "address"
            },
            {
              "internalType": "address",
              "name": "token",
              "type": "address"
            },
            {
              "internalType": "address",
              "name": "pair",
              "type": "address"
            },
            {
              "internalType": "string",
              "name": "name",
              "type": "string"
            },
            {
              "internalType": "string",
              "name": "ticker",
              "type": "string"
            },
            {
              "internalType": "uint256",
              "name": "supply",
              "type": "uint256"
            },
            {
              "internalType": "string",
              "name": "description",
              "type": "string"
            },
            {
              "internalType": "string",
              "name": "image",
              "type": "string"
            },
            {
              "internalType": "string",
              "name": "twitter",
              "type": "string"
            },
            {
              "internalType": "string",
              "name": "telegram",
              "type": "string"
            },
            {
              "internalType": "string",
              "name": "youtube",
              "type": "string"
            },
            {
              "internalType": "string",
              "name": "website",
              "type": "string"
            },
            {
              "internalType": "bool",
              "name": "trading",
              "type": "bool"
            },
            {
              "internalType": "bool",
              "name": "tradingOnUniswap",
              "type": "bool"
            }
          ],
          "stateMutability": "view",
          "type": "function"
        },
        {
          "inputs": [
            {
              "internalType": "uint256",
              "name": "_fee",
              "type": "uint256"
            }
          ],
          "name": "updateLaunchFee",
          "outputs": [
            {
              "internalType": "uint256",
              "name": "",
              "type": "uint256"
            }
          ],
          "stateMutability": "nonpayable",
          "type": "function"
        },
        {
          "inputs": [
            {
              "internalType": "uint256",
              "name": "_fee",
              "type": "uint256"
            }
          ],
          "name": "updateReferralFee",
          "outputs": [
            {
              "internalType": "uint256",
              "name": "",
              "type": "uint256"
            }
          ],
          "stateMutability": "nonpayable",
          "type": "function"
        },
        {
          "inputs": [],
          "name": "withdraw",
          "outputs": [
            {
              "internalType": "bool",
              "name": "",
              "type": "bool"
            }
          ],
          "stateMutability": "nonpayable",
          "type": "function"
        },
        {
          "stateMutability": "payable",
          "type": "receive"
        }
      ],
      "evm": {
        "bytecode": {
          "linkReferences": {},
          "object": "608034620001a057601f6200422738819003918201601f19168301916001600160401b03831184841017620001a55780849260c094604052833981010312620001a0576200004d81620001bb565b6200005b60208301620001bb565b6200006960408401620001bb565b9060608401519060a0608086015195015192600160005560018060a01b0319943386600154161760015560018060a01b038080921693620000ac851515620001d0565b1691620000bb831515620001d0565b1691620000ca831515620001d0565b856002541617600255846003541617600355836004541617600455670de0b6b3a7640000908181029181830414901517156200018a576103e89004600655600583116200014557734752ba5dbc23f44d87826276bf6fd6b1c372ad2492600755600555600854161760085560405161400990816200021e8239f35b60405162461bcd60e51b815260206004820152601e60248201527f526566657272616c204665652063616e6e6f74206578636565642035252e00006044820152606490fd5b634e487b7160e01b600052601160045260246000fd5b600080fd5b634e487b7160e01b600052604160045260246000fd5b51906001600160a01b0382168203620001a057565b15620001d857565b60405162461bcd60e51b815260206004820152601f60248201527f5a65726f2061646472657373657320617265206e6f7420616c6c6f7765642e006044820152606490fdfe60808060405260043610156200001f575b5036156200001d57600080fd5b005b60009060e0823560e01c918263017e7e581462001a0c57508163094b741514620019e15781633ccfd60b14620019605781634c96a389146200134b5781634f64b2be14620010ca5781635c52a5f2146200106c5781636d46a1db1462000f835781637660f44a1462000f5e57816380997e471462000f3757816384ae2bc61462000f175781638a664ebc1462000e4257816398118cb41462000e245781639dd9d0fd1462000dbb578163a153e6ff14620004cb578163aa6ca808146200032257508063c36fe3d614620002c7578063cf3cf57314620002a7578063e1ea9d7314620001a0578063f3f524b8146200017b5763f46901ed036200001057346200017857602036600319011262000178576200013862001a33565b6001546001600160a01b03919062000154908316331462001f0e565b166200016281151562001f6a565b6001600160601b0360a01b600454161760045580f35b80fd5b5034620001785760203660031901126200017857602060043580600755604051908152f35b50346200017857806003193601126200017857620001c8620001c23362002c4a565b62001fef565b338152602060098152604082209160405190620001e58262001a87565b60018060a01b0393848154168352600192856001830154168582015260028201916040519283878254918281520191865287862090865b818110620002915750505060036060926200023e866200024c94038762001ac2565b60408501958652016200203c565b9101525193604051938085019181865286518093528160408701970193905b838210620002795786880387f35b8451811688529682019693820193908501906200026b565b82548b168452928901929188019188016200021c565b503462000178578060031936011262000178576020600654604051908152f35b5034620001785760203660031901126200017857600435600a548110156200031e57620002f49062001e9e565b508054600190910154604080516001600160a01b03938416815292909116602083015290f35b0390f35b5080fd5b8234620001785780600319360112620001785750600c805467ffffffffffffffff8111620004b5576020600590604051936200036560208560051b018662001ac2565b8385526020850192600c6000527fdf6966c971051c3d54ec59162606531493a51404a002842f56009d7e5cf4a8c7916000945b868610620003b057604051806200031a8a8262001cbc565b600d85600192604051620003c48162001aa4565b848060a01b0380895416825280868a015416848301526002890154166040820152620003f36003890162001ae5565b6060820152620004066004890162001ae5565b60808201528688015460a0820152620004226006890162001ae5565b60c0820152620004356007890162001ae5565b8d820152600862000448818a0162001ae5565b6101008301526200045c60098a0162001ae5565b61012083015262000470600a8a0162001ae5565b61014083015262000484600b8a0162001ae5565b6101608301528689015460ff9182821615156101808501521c1615156101a082015281520194019501949262000398565b634e487b7160e01b600052604160045260246000fd5b82610100366003190112620001785767ffffffffffffffff60043581811162000db757620004fe90369060040162001e51565b602435828111620009d1576200051990369060040162001e51565b926044358381116200031e576200053590369060040162001e51565b9260643581811162000db7576200055190369060040162001e51565b9360843593828511620009d15736602386011215620009d15760405194620005798662001a87565b608481018636821162000c9a5782600401905b82821062000d8757505060e435949150506001600160a01b038416840362000d8257620005b862002b5b565b600654341062000d3d57604051906110ab90828281011090828401111762000bdb5780829162002f29833960808183015262000611620005fe6080838501018662001b96565b8284018103602084860101528b62001b96565b9060a43560408285010152606060c4359184010152039085f094851562000d32576003546040516315ab88c960e31b815298906020908a9060049082906001600160a01b03165afa98891562000d275786979899602091620006b1989162000d05575b506002546040516364e329cb60e11b81526001600160a01b038c8116600483015292831660248201529889929091169082908b9082906044820190565b03925af195861562000cfa57879662000cc2575b5060035460405163313ce56760e01b81526001600160a01b0391821691602090829060049082908e165afa90811562000c3a57620007166200073193926200071f928c9162000c9e575b50620021b4565b60a435620021dc565b906001600160a01b038b169062002b99565b1562000c9a57600534810204340362000c8657620007566064346005020434620021f0565b60035460405163313ce56760e01b81526001600160a01b039182169b92969291602090829060049082908f165afa90811562000c7b578b9c620007ac62000716604094620007e5948f9162000c455750620021b4565b83519e8f9384928392630e505aa960e31b845260018060a01b03166004840160209093929193604081019460018060a01b031681520152565b039160643460050204905af19a8b1562000c3a578a9b62000c05575b50835191602085015193606060408701519601519660606040519e8f90620008298262001aa4565b33825260018060a01b0316602082015260018060a01b038d166040820152015260808d015260a43560a08d015260c08c015260e08b01526101008a015261012089015261014088015261016087015260019182610180880152846101a088015260018060a01b0386168552600b602052620008a8876040872062002217565b600c54600160401b9081811015620004b55784810180600c5581101562000bef5788600d620008ff92600c600052027fdf6966c971051c3d54ec59162606531493a51404a002842f56009d7e5cf4a8c70162002217565b6200090a3362002c4a565b1562000a6557505033845260096020526040842082810180549192918691906001600160a01b031680620009d55750508080809360018060a01b03600454165af16200095562001ed9565b5015620009d15760609560036200096e925b0162002ae0565b600c546040518181529093906001600160a01b0384811691908716907f714aa39317ad9a7a7a99db52b44490da5d068a0b2710fffb1a1282ad3cadae1f90602090a355604080516001600160a01b03948516815291909316602082015291820152f35b8380fd5b8280929481928252620009ef336002604085200162002b17565b62000a0c606462000a0383600754620021dc565b048092620021f0565b95546001600160a01b03165af162000a2362001ed9565b501562000a615760045485918291829182916001600160a01b03165af162000a4a62001ed9565b5015620009d15760609560036200096e9262000967565b8480fd5b62000a7233151562001f6a565b6040519162000a818362001a87565b33835260018060a01b0316602083015260606040830152606080830152338652600960205262000ab5826040882062002cf1565b600a549081101562000bdb57808462000ad29201600a5562001e9e565b62000bc7579062000ae39162002cf1565b33845260096020526040842082810180549192918691906001600160a01b03168062000b445750508080809360018060a01b03600454165af162000b2662001ed9565b5015620009d157606095600362000b3e920162002ae0565b6200096e565b828092948192825262000b5e336002604085200162002b17565b62000b72606462000a0383600754620021dc565b95546001600160a01b03165af162000b8962001ed9565b501562000a615760045485918291829182916001600160a01b03165af162000bb062001ed9565b5015620009d157606095600362000b3e9262000967565b634e487b7160e01b86526004869052602486fd5b634e487b7160e01b86526041600452602486fd5b634e487b7160e01b600052603260045260246000fd5b62000c2b9060403d60401162000c32575b62000c22818362001ac2565b81019062001fd8565b5062000801565b503d62000c16565b6040513d8b823e3d90fd5b62000c6c915060203d60201162000c73575b62000c63818362001ac2565b81019062002199565b386200070f565b503d62000c57565b6040513d8c823e3d90fd5b634e487b7160e01b87526011600452602487fd5b8680fd5b62000cbb915060203d60201162000c735762000c63818362001ac2565b8e6200070f565b62000cea91965060203d60201162000cf2575b62000ce1818362001ac2565b81019062001fb7565b9489620006c5565b503d62000cd5565b6040513d89823e3d90fd5b62000d209150823d841162000cf25762000ce1818362001ac2565b8b62000674565b6040513d88823e3d90fd5b6040513d86823e3d90fd5b60405162461bcd60e51b815260206004820152601960248201527f496e73756666696369656e7420616d6f756e742073656e742e000000000000006044820152606490fd5b600080fd5b813587811162000db35760209162000da783926004369189010162001e51565b8152019101906200058c565b8880fd5b8280fd5b82346200017857602036600319011262000178576001600160a01b03906040908262000de662001a33565b1681526009602052209060018183541692015416906200031a6040519283928390602090939293604083019460018060a01b03809216845216910152565b82346200017857806003193601126200017857602060405160058152f35b8234620001785780600319360112620001785762000e64620001c23362002c4a565b3381526020600960205260408220906040519262000e828462001a87565b60018060a01b0390818454168552600182600186015416602087015260028501926040519081956020865493848152019585526020852094915b83831062000eff576200031a60608b62000eed60038d8d62000ee1818f038262001ac2565b6040850152016200203c565b91829101526040519182918262001cbc565b85548116875295810195948401949184019162000ebc565b823462000178578060031936011262000178576020600754604051908152f35b82346200017857806003193601126200017857602060405169152d02c7e14af68000008152f35b8234620001785760203660031901126200017857602060043580600655604051908152f35b82346200017857602036600319011262000178576001600160a01b03908162000fab62001a33565b168152600b6020526040902081815416918060018301541690600283015416916003810162000fda9062001ae5565b9362000fe96004830162001ae5565b9160058101546006820162000ffe9062001ae5565b6200100c6007840162001ae5565b6200101a6008850162001ae5565b90620010296009860162001ae5565b9262001038600a870162001ae5565b9462001047600b880162001ae5565b96600c0154986040519c8d9c8d9c8c60081c60ff169c60ff169b6200031a9e62001bd8565b82346200017857606036600319011262000178576200108a62001a33565b60243591906001600160a01b038316830362000d8257620010be600191602094620010b462002b5b565b6044359162002b99565b91556040519015158152f35b823462000178576020366003190112620001785760043590600c54821015620001785750600c600052600d02600160a01b600190039081817fdf6966c971051c3d54ec59162606531493a51404a002842f56009d7e5cf4a8c701541691807fdf6966c971051c3d54ec59162606531493a51404a002842f56009d7e5cf4a8c883015416907fdf6966c971051c3d54ec59162606531493a51404a002842f56009d7e5cf4a8c983015416917fdf6966c971051c3d54ec59162606531493a51404a002842f56009d7e5cf4a8ca8101620011a29062001ae5565b93620011d07fdf6966c971051c3d54ec59162606531493a51404a002842f56009d7e5cf4a8cb830162001ae5565b917fdf6966c971051c3d54ec59162606531493a51404a002842f56009d7e5cf4a8cc8101547fdf6966c971051c3d54ec59162606531493a51404a002842f56009d7e5cf4a8cd8201620012239062001ae5565b620012507fdf6966c971051c3d54ec59162606531493a51404a002842f56009d7e5cf4a8ce840162001ae5565b6200127d7fdf6966c971051c3d54ec59162606531493a51404a002842f56009d7e5cf4a8cf850162001ae5565b90620012ab7fdf6966c971051c3d54ec59162606531493a51404a002842f56009d7e5cf4a8d0860162001ae5565b92620012d97fdf6966c971051c3d54ec59162606531493a51404a002842f56009d7e5cf4a8d1870162001ae5565b94620013077fdf6966c971051c3d54ec59162606531493a51404a002842f56009d7e5cf4a8d2880162001ae5565b967fdf6966c971051c3d54ec59162606531493a51404a002842f56009d7e5cf4a8d30154986040519c8d9c8d9c8c60081c60ff169c60ff169b6200031a9e62001bd8565b823462000178576020806003193601126200031e576200136a62001a33565b6001546001600160a01b03919062001386908316331462001f0e565b6200139062002b5b565b8181169283151590620013a38262001f6a565b8360035416936040519082826004816315ab88c960e31b998a82525afa9182156200193357620014129284918a916200193e575b5060025460405163e6a4390560e01b81526001600160a01b03808a166004830152909216602483015290938491841690829081906044820190565b03915afa918215620019335788926200190f575b50863b156200190b576040516306da678f60e51b8152918116600483015260249188818481838c5af1801562000c3a57620018d4575b509087939291878552600b835260408520966040826003541660648b8351998a93849263e79a408960e01b8452600484015283898401523060448401525af194851562000c7b578a968b96620018a5575b50620014b99062001f6a565b888a52600b8452600c60408b20015460ff8116908162001895575b5015620018515788908260085416604051908c878388816370a0823160e01b988982523060048301525afa91821562001844578b91926200180a575b6200151c935062002b99565b15620017d6579082918b9493600854169060405163c45a015560e01b81528781600481865afa91821562000cfa5788918893620017b2575b5060046040518095819382525afa90811562000d2757620015b29a889388936200178e575b506040516364e329cb60e11b81526001600160a01b0391821660048201529216602483015290998a919082908890879083906044820190565b0393165af197881562000d325784986200176a575b5060085460405191825230600483015282169047868286818f5afa92831562000d27578c9287946200172a575b509160c49160609493604051988995869463f305d71960e01b865260048601528985015280604485015260648401523060848401524260a48401525af192831562000c7b578493620016f5575b50808a6044926008541691604051998a95869463095ea7b360e01b8652600486015260001990850152165af1801562000cfa577f540bcec33387745b2ced30977dcfe4a623a245511eb0a133989c27c8bb95b4a995604095600c92620016c1575b5001805461ffff19166101001790558351928352820152a26001815580f35b620016e590843d8611620016ed575b620016dc818362001ac2565b81019062002b7f565b5089620016a2565b503d620016d0565b6060809294503d831162001722575b62001710818362001ac2565b8101031262000db35782918a62001641565b503d62001704565b9350915094508582813d831162001762575b62001748818362001ac2565b8101031262000d825790518b9490918b919060c4620015f4565b503d6200173c565b62001786919850853d871162000cf25762000ce1818362001ac2565b968b620015c7565b620017aa919350843d861162000cf25762000ce1818362001ac2565b918f62001579565b620017ce919350823d841162000cf25762000ce1818362001ac2565b918f62001554565b60405162461bcd60e51b815260048101869052600d818601526c2737ba1030b8383937bb32b21760991b6044820152606490fd5b9150508682813d83116200183c575b62001825818362001ac2565b8101031262000d8257896200151c92519162001510565b503d62001819565b50604051903d90823e3d90fd5b60405162461bcd60e51b8152600481018590526017818501527f74726164696e6720697320616c7265616479206f70656e0000000000000000006044820152606490fd5b60ff915060081c16158b620014d4565b620014b99750620018c991965060403d60401162000c325762000c22818362001ac2565b9690969590620014ad565b67ffffffffffffffff8199929594939911620018f85760405296909192886200145c565b634e487b7160e01b825260416004528882fd5b8780fd5b6200192b919250833d851162000cf25762000ce1818362001ac2565b908862001426565b6040513d8a823e3d90fd5b620019599150823d841162000cf25762000ce1818362001ac2565b8a620013d7565b8234620001785780600319360112620001785760015481908190819047906001600160a01b03165af16200199362001ed9565b5015620019a557602060405160018152f35b60405162461bcd60e51b81526020600482015260146024820152732a3930b739b332b91022aa24102330b4b632b21760611b6044820152606490fd5b823462000178578060031936011262000178576001546040516001600160a01b039091168152602090f35b8390346200031e57816003193601126200031e576004546001600160a01b03168152602090f35b600435906001600160a01b038216820362000d8257565b90600182811c9216801562001a7c575b602083101462001a6657565b634e487b7160e01b600052602260045260246000fd5b91607f169162001a5a565b6080810190811067ffffffffffffffff821117620004b557604052565b6101c0810190811067ffffffffffffffff821117620004b557604052565b90601f8019910116810190811067ffffffffffffffff821117620004b557604052565b9060405191826000825462001afa8162001a4a565b9081845260209460019160018116908160001462001b72575060011462001b2f575b50505062001b2d9250038362001ac2565b565b600090815285812095935091905b81831062001b5957505062001b2d935082010138808062001b1c565b8554888401850152948501948794509183019162001b3d565b9250505062001b2d94925060ff191682840152151560051b82010138808062001b1c565b919082519283825260005b84811062001bc3575050826000602080949584010152601f8019910116010190565b60208183018101518483018201520162001ba1565b9c9e9d9a9662001c8c9662001c5d918f6101a09f9c9662001cac9e9962001c3a62001c7c9a62001c9c9f9862001c6c9a62001c49956101c09260018060a01b0392838092168a5216602089015216604087015280606087015285019062001b96565b90838203608085015262001b96565b9260a082015260c081840391015262001b96565b8d810360e08f01529062001b96565b908b82036101008d015262001b96565b908982036101208b015262001b96565b9087820361014089015262001b96565b9085820361016087015262001b96565b9415156101808401521515910152565b6020808201908083528351809252604092604081018260408560051b8401019601946000925b85841062001cf4575050505050505090565b9091929394959685808460019362001e0862001df362001dde62001dc98f62001da062001d8262001d6e8f9362001db4948f603f19908c0301905251996101c0908b8f8c8f82819360a01b03938492838251169052015116908d0152818d015116908b015260609080828d0151928c01528a019062001b96565b6080808b0151908a8303908b015262001b96565b60a0808a01519089015260c0808a015190898303908a015262001b96565b60e080890151908883039089015262001b96565b61010080880151908783039088015262001b96565b61012080870151908683039087015262001b96565b61014080860151908583039086015262001b96565b61016080850151908483039085015262001b96565b91610180808201511515908301526101a080910151151591015299019401940192959493919062001ce2565b67ffffffffffffffff8111620004b557601f01601f191660200190565b81601f8201121562000d825780359062001e6b8262001e34565b9262001e7b604051948562001ac2565b8284526020838301011162000d8257816000926020809301838601378301015290565b600a5481101562000bef57600a60005260021b7fc65a7bb8d6351c1cf70c95a316cc6a92839c986682d98bc35f958f4883f9d2a80190600090565b3d1562001f09573d9062001eed8262001e34565b9162001efd604051938462001ac2565b82523d6000602084013e565b606090565b1562001f1657565b60405162461bcd60e51b815260206004820152602660248201527f4f6e6c7920746865206f776e65722063616e2063616c6c20746869732066756e60448201526531ba34b7b71760d11b6064820152608490fd5b1562001f7257565b60405162461bcd60e51b815260206004820152601f60248201527f5a65726f2061646472657373657320617265206e6f7420616c6c6f7765642e006044820152606490fd5b9081602091031262000d8257516001600160a01b038116810362000d825790565b919082604091031262000d82576020825192015190565b1562001ff757565b60405162461bcd60e51b815260206004820152601c60248201527f557365722050726f66696c6520646f7365206e6f742065786973742e000000006044820152606490fd5b90815467ffffffffffffffff8111620004b557602092600593604094604051956200206e60208660051b018862001ac2565b84875260208701936000526020600020916000945b868610620020945750505050505050565b600d856001928551620020a78162001aa4565b848060a01b0380895416825280868a0154168483015260028901541687820152620020d56003890162001ae5565b6060820152620020e86004890162001ae5565b60808201528588015460a0820152620021046006890162001ae5565b60c0820152620021176007890162001ae5565b60e082015260086200212b818a0162001ae5565b6101008301526200213f60098a0162001ae5565b61012083015262002153600a8a0162001ae5565b61014083015262002167600b8a0162001ae5565b610160830152600c89015460ff9182821615156101808501521c1615156101a082015281520194019501949262002083565b9081602091031262000d82575160ff8116810362000d825790565b60ff16604d8111620021c657600a0a90565b634e487b7160e01b600052601160045260246000fd5b81810292918115918404141715620021c657565b91908203918211620021c657565b8181106200220a575050565b60008155600101620021fe565b919060018060a01b039283825116936001600160601b0360a01b948583541617825560019081830195602096828887015116828254161790556002840191604086015116908254161790556003908183019060608501519081519267ffffffffffffffff93848111620004b55762002290825462001a4a565b93601f948b86821162002aad575b50508a9085831160011462002a4357620022d2929160009183620025af575b50508160011b916000199060031b1c19161790565b90555b600497888601608088015180519086821162002a2e57620022f7835462001a4a565b868111620029f1575b5083908683116001146200298b5762002332929160009183620025af5750508160011b916000199060031b1c19161790565b90555b60059460a0880151868801556006870160c08901518051908782116200271e5762002361835462001a4a565b8781116200295b575b508490878311600114620028f5576200239c929160009183620025af5750508160011b916000199060031b1c19161790565b90555b6007870160e08901518051908782116200271e57620023bf835462001a4a565b878111620028c5575b5084908783116001146200285f57620023fa929160009183620025af5750508160011b916000199060031b1c19161790565b90555b600887016101008901518051908782116200271e576200241e835462001a4a565b8781116200282f575b508490878311600114620027c95762002459929160009183620025af5750508160011b916000199060031b1c19161790565b90555b600987016101208901518051908782116200271e576200247d835462001a4a565b87811162002799575b5084908783116001146200273357620024b8929160009183620025af5750508160011b916000199060031b1c19161790565b90555b600a87016101408901518051908782116200271e57620024dc835462001a4a565b878111620026e3575b5084908783116001146200267d5762002517929160009183620025af5750508160011b916000199060031b1c19161790565b90555b600b8701956101608901519a8b519687116200266857506200253d875462001a4a565b8581116200262b575b505081938511600114620025bb5750505090806200258092600c969798600092620025af5750508160011b916000199060031b1c19161790565b90555b019061018081015115159060ff61ff006101a08554930151151560081b1692169061ffff191617179055565b015190503880620022bd565b90919392601f198416998660005283600020936000905b8c82106200261357505084600c999a9b10620025f8575b50505050811b01905562002583565b01519060f884600019921b161c1916905538808080620025e9565b808885978294968601518155019601930190620025d2565b620026569188600052846000209087808a01821c830193878b106200265e575b01901c0190620021fe565b388062002546565b935082936200264b565b604190634e487b7160e01b6000525260246000fd5b869291601f1983169185600052876000209260005b89828210620026cc5750508411620026b3575b505050811b0190556200251a565b015160001983871b60f8161c19169055388080620026a5565b8385015186558b9790950194938401930162002692565b6200270d908460005286600020898086018d1c82019289871062002714575b018c1c0190620021fe565b38620024e5565b9250819262002702565b60418d634e487b7160e01b6000525260246000fd5b869291601f1983169185600052876000209260005b8982821062002782575050841162002769575b505050811b019055620024bb565b015160001983871b60f8161c191690553880806200275b565b8385015186558b9790950194938401930162002748565b620027c2908460005286600020898086018d1c8201928987106200271457018c1c0190620021fe565b3862002486565b869291601f1983169185600052876000209260005b89828210620028185750508411620027ff575b505050811b0190556200245c565b015160001983871b60f8161c19169055388080620027f1565b8385015186558b97909501949384019301620027de565b62002858908460005286600020898086018d1c8201928987106200271457018c1c0190620021fe565b3862002427565b869291601f1983169185600052876000209260005b89828210620028ae575050841162002895575b505050811b019055620023fd565b015160001983871b60f8161c1916905538808062002887565b8385015186558b9790950194938401930162002874565b620028ee908460005286600020898086018d1c8201928987106200271457018c1c0190620021fe565b38620023c8565b869291601f1983169185600052876000209260005b898282106200294457505084116200292b575b505050811b0190556200239f565b015160001983871b60f8161c191690553880806200291d565b8385015186558b979095019493840193016200290a565b62002984908460005286600020898086018d1c8201928987106200271457018c1c0190620021fe565b386200236a565b859291601f1983169185600052866000209260005b88828210620029da5750508411620029c1575b505050811b01905562002335565b0151600019838b1b60f8161c19169055388080620029b3565b8385015186558a97909501949384019301620029a0565b62002a1d9084600052856000208880860160051c82019288871062002a24575b0160051c0190620021fe565b3862002300565b9250819262002a11565b60418c634e487b7160e01b6000525260246000fd5b8492918c91601f1984168660005283600020936000905b82821062002a93575050841162002a7a575b505050811b019055620022d5565b0151600019838a1b60f8161c1916905538808062002a6c565b848401518655899790950194938401939081019062002a5a565b62002ad8918560005287826000209181870160051c830193871062002a24570160051c0190620021fe565b388b6200229e565b908154600160401b811015620004b5576001810180845581101562000bef5762001b2d92600052600d602060002091020162002217565b805490600160401b821015620004b5576001820180825582101562000bef576000526020600020019060018060a01b03166001600160601b0360a01b825416179055565b60026000541462002b6d576002600055565b604051633ee5aeb560e01b8152600490fd5b9081602091031262000d825751801515810362000d825790565b62002c03926020929091906001600160a01b039062002bbc828416151562001f6a565b169062002bcb82151562001f6a565b60405163095ea7b360e01b81526001600160a01b03909116600482015260248101929092529092839190829060009082906044820190565b03925af1801562002c3e5762002c1a575b50600190565b62002c369060203d602011620016ed57620016dc818362001ac2565b503862002c14565b6040513d6000823e3d90fd5b6001600160a01b0390811662002c6281151562001f6a565b600a549160005b83811062002c7a5750505050600090565b828262002c878362001e9e565b5054161462002c995760010162002c69565b50505050600190565b62002cae815462001a4a565b908162002cb9575050565b81601f6000931160011462002ccc575055565b90808391825262002ced601f60208420940160051c840160018501620021fe565b5555565b60018060a01b0390818351166001600160601b0360a01b90818354161782556001936001830160209285848401511690825416179055600292600281019360408301519586519067ffffffffffffffff8211620004b557600160401b97888311620004b55786908854848a5580851062002f08575b5001906000978852868820908a895b85811062002ef3575050505050506060600380930193015191825196871162000bdb5783548785558593929181891062002de5575b50505091845282842091015b84841062002dc657505050505050565b600d838262002dd88994518662002217565b0192019301929062002db6565b9091929350600d9282600d0292600d84040362002edf5788600d02600d81048a0362002ecb57868952878920889695948101939291015b83811062002e2c57505062002daa565b849596508981959293949555898c820155898382015562002e4f84820162002ca2565b62002e5d6004820162002ca2565b89600582015562002e716006820162002ca2565b62002e7f6007820162002ca2565b62002e8d6008820162002ca2565b62002e9b6009820162002ca2565b62002ea9600a820162002ca2565b62002eb7600b820162002ca2565b89600c820155019087959493929162002e1c565b634e487b7160e01b89526011600452602489fd5b634e487b7160e01b88526011600452602488fd5b898386511695019481850155018b9062002d75565b62002f21908a60005285846000209182019101620021fe565b3862002d6656fe604060808152346200042957620010ab803803806200001e816200042e565b928339810190608081830312620004295780516001600160401b039190828111620004295783620000519183016200046a565b90602093848201519084821162000429576200006f9183016200046a565b606086830151920151906000943360018060a01b031987541617865533867f8be0079c531659141344cd1fd0a4f28419497f9722a3daafe3b4186f6b6457e08180a384518181116200034357600254906001968783811c931680156200041e575b8a84101462000324578190601f93848111620003ca575b508a9084831160011462000363578a9262000357575b5050600019600383901b1c191690871b176002555b8251918211620003435760039283548781811c9116801562000338575b8a821014620003245790818385949311620002cf575b50899183116001146200026c57889262000260575b505060001982841b1c191690851b1790555b670de0b6b3a7640000918281029281840414901517156200024c5781835560058111620001fe57907fddf252ad1be2c89b69c2b068fc378daa952ba7f163c4a11628f55a4df523b3ef929160045533845260058552858420556007845284832060ff199082828254161790553084528186852091825416179055549284519384523393a351610bce9081620004dd8239f35b855162461bcd60e51b815260048101869052602160248201527f4d6178205472616e73616374696f6e2063616e6e6f74206578636565642035256044820152601760f91b6064820152608490fd5b634e487b7160e01b84526011600452602484fd5b0151905038806200015a565b8489528989208894509190601f1984168a5b8c828210620002b857505084116200029f575b505050811b0190556200016c565b015160001983861b60f8161c1916905538808062000291565b8385015186558b979095019493840193016200027e565b909192508489528989208380860160051c8201928c87106200031a575b9186958b929594930160051c01915b8281106200030b57505062000145565b8b81558695508a9101620002fb565b92508192620002ec565b634e487b7160e01b89526022600452602489fd5b90607f16906200012f565b634e487b7160e01b87526041600452602487fd5b015190503880620000fd565b60028b528b8b208a94509190601f1984168c8e5b828210620003b2575050841162000398575b505050811b0160025562000112565b015160001960f88460031b161c1916905538808062000389565b8385015186558d979095019493840193018e62000377565b90915060028a528a8a208480850160051c8201928d861062000414575b918b91869594930160051c01915b82811062000405575050620000e7565b8c81558594508b9101620003f5565b92508192620003e7565b92607f1692620000d0565b600080fd5b6040519190601f01601f191682016001600160401b038111838210176200045457604052565b634e487b7160e01b600052604160045260246000fd5b919080601f84011215620004295782516001600160401b0381116200045457602090620004a0601f8201601f191683016200042e565b92818452828287010111620004295760005b818110620004c857508260009394955001015290565b8581018301518482018401528201620004b256fe608060408181526004918236101561001657600080fd5b600092833560e01c91826306fdde03146105b557508163095ea7b31461058b57816318160ddd1461056c57816323b872dd14610497578163313ce5671461047b57816370a0823114610443578163715018a6146103e45781637437681e146103c65781638da5cb5b1461039e57816395d89b4114610299578163a9059cbb14610268578163c2d0ffca146101b9578163db4cf1e01461010a575063dd62ed3e146100bf57600080fd5b34610106578060031936011261010657806020926100db6106bd565b6100e36106d8565b6001600160a01b0391821683526006865283832091168252845220549051908152f35b5080fd5b9050346101b55760203660031901126101b5576101256106bd565b83546001600160a01b03919061013e9083163314610726565b1690811561015e5750825260076020528120805460ff1916600117905580f35b608490602084519162461bcd60e51b8352820152602b60248201527f45524332303a204578636c756465204d61782054782066726f6d20746865207a60448201526a65726f206164647265737360a81b6064820152fd5b8280fd5b919050346101b55760203660031901126101b5578135916101e460018060a01b038554163314610726565b6005831161021c5791602091817fff3dd5e80294197918c284bbfc3dadd97d0b40ce92106110946329088f80068a945551908152a180f35b6020608492519162461bcd60e51b8352820152602160248201527f4d6178205472616e73616374696f6e2063616e6e6f74206578636565642035256044820152601760f91b6064820152fd5b5050346101065780600319360112610106576020906102926102886106bd565b6024359033610873565b5160018152f35b919050346101b557826003193601126101b55780519183600354906001908260011c92600181168015610394575b6020958686108214610381575084885290811561035f5750600114610306575b61030286866102f8828b03836106ee565b5191829182610674565b0390f35b929550600383527fc2575a0e9e593c00f959f8c92f12db2869c3395a3b0502d05e2516446f71f85b5b82841061034c5750505082610302946102f89282010194386102e7565b805486850188015292860192810161032f565b60ff191687860152505050151560051b83010192506102f882610302386102e7565b634e487b7160e01b845260229052602483fd5b93607f16936102c7565b505034610106578160031936011261010657905490516001600160a01b039091168152602090f35b9050346101b557826003193601126101b55760209250549051908152f35b83346104405780600319360112610440578054816001600160a01b03821661040d338214610726565b7f8be0079c531659141344cd1fd0a4f28419497f9722a3daafe3b4186f6b6457e08280a36001600160a01b031916815580f35b80fd5b5050346101065760203660031901126101065760209181906001600160a01b0361046b6106bd565b1681526005845220549051908152f35b5050346101065781600319360112610106576020905160128152f35b828434610440576060366003190112610440576104b26106bd565b906104bb6106d8565b6104c9604435809285610873565b6001600160a01b038316825260066020908152848320338452905283822054845192606084019067ffffffffffffffff8211858310176105595760208761029288610551898989898752602883527f45524332303a207472616e7366657220616d6f756e742065786365656473206188840152676c6c6f77616e636560c01b87840152610b4d565b903390610771565b634e487b7160e01b815260418852602490fd5b5050346101065781600319360112610106576020906001549051908152f35b5050346101065780600319360112610106576020906102926105ab6106bd565b6024359033610771565b92915034610670578360031936011261067057600254600181811c9186908281168015610666575b6020958686108214610381575084885290811561035f575060011461060d5761030286866102f8828b03836106ee565b929550600283527f405787fa12a823e0f2b7631cc41b3ba8828b3321ca811111fa75cd3aa3bb5ace5b8284106106535750505082610302946102f89282010194386102e7565b8054868501880152928601928101610636565b93607f16936105dd565b8380fd5b6020808252825181830181905290939260005b8281106106a957505060409293506000838284010152601f8019910116010190565b818101860151848201604001528501610687565b600435906001600160a01b03821682036106d357565b600080fd5b602435906001600160a01b03821682036106d357565b90601f8019910116810190811067ffffffffffffffff82111761071057604052565b634e487b7160e01b600052604160045260246000fd5b1561072d57565b606460405162461bcd60e51b815260206004820152602060248201527f4f776e61626c653a2063616c6c6572206973206e6f7420746865206f776e65726044820152fd5b6001600160a01b0390811691821561082257169182156107d25760207f8c5be1e5ebec7d5bd14f71427d1e84f3dd0314c0f7b2291e5b200ac8c7c3b925918360005260068252604060002085600052825280604060002055604051908152a3565b60405162461bcd60e51b815260206004820152602260248201527f45524332303a20617070726f766520746f20746865207a65726f206164647265604482015261737360f01b6064820152608490fd5b60405162461bcd60e51b8152602060048201526024808201527f45524332303a20617070726f76652066726f6d20746865207a65726f206164646044820152637265737360e01b6064820152608490fd5b9192916001600160a01b03908116918215610afa5716908115610aa9578315610a5257600480549460015495868102968188041490151715610a3d576000958387526020926007845260409160ff838a205416156109ec575b50848852600584528188205482519083820182811067ffffffffffffffff8211176109d957610928929186918652601e83527f536166654d6174683a207375627472616374696f6e206f766572666c6f77000088840152610b4d565b85895260058552828920558588528188205490838201918281116109c657821061098357508188877fddf252ad1be2c89b69c2b068fc378daa952ba7f163c4a11628f55a4df523b3ef9798999a5260058652205551908152a3565b825162461bcd60e51b8152908101859052601b60248201527f536166654d6174683a206164646974696f6e206f766572666c6f7700000000006044820152606490fd5b634e487b7160e01b8a526011825260248afd5b634e487b7160e01b8b526041845260248bfd5b6064900483116109fc57386108cc565b83606492519162461bcd60e51b8352820152601860248201527f4578636565647320746865204d61785478416d6f756e742e00000000000000006044820152fd5b601182634e487b7160e01b6000525260246000fd5b60405162461bcd60e51b815260206004820152602960248201527f5472616e7366657220616d6f756e74206d7573742062652067726561746572206044820152687468616e207a65726f60b81b6064820152608490fd5b60405162461bcd60e51b815260206004820152602360248201527f45524332303a207472616e7366657220746f20746865207a65726f206164647260448201526265737360e81b6064820152608490fd5b60405162461bcd60e51b815260206004820152602560248201527f45524332303a207472616e736665722066726f6d20746865207a65726f206164604482015264647265737360d81b6064820152608490fd5b91828211610b7857508103908111610b625790565b634e487b7160e01b600052601160045260246000fd5b60405162461bcd60e51b8152908190610b949060048301610674565b0390fdfea2646970667358221220c49e554740cb71aa09a85b3746b1a934acbfb9371a9f5eefd27a7b626ea785f264736f6c63430008180033a2646970667358221220d9fcce3240af081439e16fa5295d5e3ab46932d3c47ea07025067c1c773e75c264736f6c63430008180033",
          "opcodes": "PUSH1 0x80 CALLVALUE PUSH3 0x1A0 JUMPI PUSH1 0x1F PUSH3 0x4227 CODESIZE DUP2 SWAP1 SUB SWAP2 DUP3 ADD PUSH1 0x1F NOT AND DUP4 ADD SWAP2 PUSH1 0x1 PUSH1 0x1 PUSH1 0x40 SHL SUB DUP4 GT DUP5 DUP5 LT OR PUSH3 0x1A5 JUMPI DUP1 DUP5 SWAP3 PUSH1 0xC0 SWAP5 PUSH1 0x40 MSTORE DUP4 CODECOPY DUP2 ADD SUB SLT PUSH3 0x1A0 JUMPI PUSH3 0x4D DUP2 PUSH3 0x1BB JUMP JUMPDEST PUSH3 0x5B PUSH1 0x20 DUP4 ADD PUSH3 0x1BB JUMP JUMPDEST PUSH3 0x69 PUSH1 0x40 DUP5 ADD PUSH3 0x1BB JUMP JUMPDEST SWAP1 PUSH1 0x60 DUP5 ADD MLOAD SWAP1 PUSH1 0xA0 PUSH1 0x80 DUP7 ADD MLOAD SWAP6 ADD MLOAD SWAP3 PUSH1 0x1 PUSH1 0x0 SSTORE PUSH1 0x1 DUP1 PUSH1 0xA0 SHL SUB NOT SWAP5 CALLER DUP7 PUSH1 0x1 SLOAD AND OR PUSH1 0x1 SSTORE PUSH1 0x1 DUP1 PUSH1 0xA0 SHL SUB DUP1 DUP1 SWAP3 AND SWAP4 PUSH3 0xAC DUP6 ISZERO ISZERO PUSH3 0x1D0 JUMP JUMPDEST AND SWAP2 PUSH3 0xBB DUP4 ISZERO ISZERO PUSH3 0x1D0 JUMP JUMPDEST AND SWAP2 PUSH3 0xCA DUP4 ISZERO ISZERO PUSH3 0x1D0 JUMP JUMPDEST DUP6 PUSH1 0x2 SLOAD AND OR PUSH1 0x2 SSTORE DUP5 PUSH1 0x3 SLOAD AND OR PUSH1 0x3 SSTORE DUP4 PUSH1 0x4 SLOAD AND OR PUSH1 0x4 SSTORE PUSH8 0xDE0B6B3A7640000 SWAP1 DUP2 DUP2 MUL SWAP2 DUP2 DUP4 DIV EQ SWAP1 ISZERO OR ISZERO PUSH3 0x18A JUMPI PUSH2 0x3E8 SWAP1 DIV PUSH1 0x6 SSTORE PUSH1 0x5 DUP4 GT PUSH3 0x145 JUMPI PUSH20 0x4752BA5DBC23F44D87826276BF6FD6B1C372AD24 SWAP3 PUSH1 0x7 SSTORE PUSH1 0x5 SSTORE PUSH1 0x8 SLOAD AND OR PUSH1 0x8 SSTORE PUSH1 0x40 MLOAD PUSH2 0x4009 SWAP1 DUP2 PUSH3 0x21E DUP3 CODECOPY RETURN JUMPDEST PUSH1 0x40 MLOAD PUSH3 0x461BCD PUSH1 0xE5 SHL DUP2 MSTORE PUSH1 0x20 PUSH1 0x4 DUP3 ADD MSTORE PUSH1 0x1E PUSH1 0x24 DUP3 ADD MSTORE PUSH32 0x526566657272616C204665652063616E6E6F74206578636565642035252E0000 PUSH1 0x44 DUP3 ADD MSTORE PUSH1 0x64 SWAP1 REVERT JUMPDEST PUSH4 0x4E487B71 PUSH1 0xE0 SHL PUSH1 0x0 MSTORE PUSH1 0x11 PUSH1 0x4 MSTORE PUSH1 0x24 PUSH1 0x0 REVERT JUMPDEST PUSH1 0x0 DUP1 REVERT JUMPDEST PUSH4 0x4E487B71 PUSH1 0xE0 SHL PUSH1 0x0 MSTORE PUSH1 0x41 PUSH1 0x4 MSTORE PUSH1 0x24 PUSH1 0x0 REVERT JUMPDEST MLOAD SWAP1 PUSH1 0x1 PUSH1 0x1 PUSH1 0xA0 SHL SUB DUP3 AND DUP3 SUB PUSH3 0x1A0 JUMPI JUMP JUMPDEST ISZERO PUSH3 0x1D8 JUMPI JUMP JUMPDEST PUSH1 0x40 MLOAD PUSH3 0x461BCD PUSH1 0xE5 SHL DUP2 MSTORE PUSH1 0x20 PUSH1 0x4 DUP3 ADD MSTORE PUSH1 0x1F PUSH1 0x24 DUP3 ADD MSTORE PUSH32 0x5A65726F2061646472657373657320617265206E6F7420616C6C6F7765642E00 PUSH1 0x44 DUP3 ADD MSTORE PUSH1 0x64 SWAP1 REVERT INVALID PUSH1 0x80 DUP1 PUSH1 0x40 MSTORE PUSH1 0x4 CALLDATASIZE LT ISZERO PUSH3 0x1F JUMPI JUMPDEST POP CALLDATASIZE ISZERO PUSH3 0x1D JUMPI PUSH1 0x0 DUP1 REVERT JUMPDEST STOP JUMPDEST PUSH1 0x0 SWAP1 PUSH1 0xE0 DUP3 CALLDATALOAD PUSH1 0xE0 SHR SWAP2 DUP3 PUSH4 0x17E7E58 EQ PUSH3 0x1A0C JUMPI POP DUP2 PUSH4 0x94B7415 EQ PUSH3 0x19E1 JUMPI DUP2 PUSH4 0x3CCFD60B EQ PUSH3 0x1960 JUMPI DUP2 PUSH4 0x4C96A389 EQ PUSH3 0x134B JUMPI DUP2 PUSH4 0x4F64B2BE EQ PUSH3 0x10CA JUMPI DUP2 PUSH4 0x5C52A5F2 EQ PUSH3 0x106C JUMPI DUP2 PUSH4 0x6D46A1DB EQ PUSH3 0xF83 JUMPI DUP2 PUSH4 0x7660F44A EQ PUSH3 0xF5E JUMPI DUP2 PUSH4 0x80997E47 EQ PUSH3 0xF37 JUMPI DUP2 PUSH4 0x84AE2BC6 EQ PUSH3 0xF17 JUMPI DUP2 PUSH4 0x8A664EBC EQ PUSH3 0xE42 JUMPI DUP2 PUSH4 0x98118CB4 EQ PUSH3 0xE24 JUMPI DUP2 PUSH4 0x9DD9D0FD EQ PUSH3 0xDBB JUMPI DUP2 PUSH4 0xA153E6FF EQ PUSH3 0x4CB JUMPI DUP2 PUSH4 0xAA6CA808 EQ PUSH3 0x322 JUMPI POP DUP1 PUSH4 0xC36FE3D6 EQ PUSH3 0x2C7 JUMPI DUP1 PUSH4 0xCF3CF573 EQ PUSH3 0x2A7 JUMPI DUP1 PUSH4 0xE1EA9D73 EQ PUSH3 0x1A0 JUMPI DUP1 PUSH4 0xF3F524B8 EQ PUSH3 0x17B JUMPI PUSH4 0xF46901ED SUB PUSH3 0x10 JUMPI CALLVALUE PUSH3 0x178 JUMPI PUSH1 0x20 CALLDATASIZE PUSH1 0x3 NOT ADD SLT PUSH3 0x178 JUMPI PUSH3 0x138 PUSH3 0x1A33 JUMP JUMPDEST PUSH1 0x1 SLOAD PUSH1 0x1 PUSH1 0x1 PUSH1 0xA0 SHL SUB SWAP2 SWAP1 PUSH3 0x154 SWAP1 DUP4 AND CALLER EQ PUSH3 0x1F0E JUMP JUMPDEST AND PUSH3 0x162 DUP2 ISZERO ISZERO PUSH3 0x1F6A JUMP JUMPDEST PUSH1 0x1 PUSH1 0x1 PUSH1 0x60 SHL SUB PUSH1 0xA0 SHL PUSH1 0x4 SLOAD AND OR PUSH1 0x4 SSTORE DUP1 RETURN JUMPDEST DUP1 REVERT JUMPDEST POP CALLVALUE PUSH3 0x178 JUMPI PUSH1 0x20 CALLDATASIZE PUSH1 0x3 NOT ADD SLT PUSH3 0x178 JUMPI PUSH1 0x20 PUSH1 0x4 CALLDATALOAD DUP1 PUSH1 0x7 SSTORE PUSH1 0x40 MLOAD SWAP1 DUP2 MSTORE RETURN JUMPDEST POP CALLVALUE PUSH3 0x178 JUMPI DUP1 PUSH1 0x3 NOT CALLDATASIZE ADD SLT PUSH3 0x178 JUMPI PUSH3 0x1C8 PUSH3 0x1C2 CALLER PUSH3 0x2C4A JUMP JUMPDEST PUSH3 0x1FEF JUMP JUMPDEST CALLER DUP2 MSTORE PUSH1 0x20 PUSH1 0x9 DUP2 MSTORE PUSH1 0x40 DUP3 KECCAK256 SWAP2 PUSH1 0x40 MLOAD SWAP1 PUSH3 0x1E5 DUP3 PUSH3 0x1A87 JUMP JUMPDEST PUSH1 0x1 DUP1 PUSH1 0xA0 SHL SUB SWAP4 DUP5 DUP2 SLOAD AND DUP4 MSTORE PUSH1 0x1 SWAP3 DUP6 PUSH1 0x1 DUP4 ADD SLOAD AND DUP6 DUP3 ADD MSTORE PUSH1 0x2 DUP3 ADD SWAP2 PUSH1 0x40 MLOAD SWAP3 DUP4 DUP8 DUP3 SLOAD SWAP2 DUP3 DUP2 MSTORE ADD SWAP2 DUP7 MSTORE DUP8 DUP7 KECCAK256 SWAP1 DUP7 JUMPDEST DUP2 DUP2 LT PUSH3 0x291 JUMPI POP POP POP PUSH1 0x3 PUSH1 0x60 SWAP3 PUSH3 0x23E DUP7 PUSH3 0x24C SWAP5 SUB DUP8 PUSH3 0x1AC2 JUMP JUMPDEST PUSH1 0x40 DUP6 ADD SWAP6 DUP7 MSTORE ADD PUSH3 0x203C JUMP JUMPDEST SWAP2 ADD MSTORE MLOAD SWAP4 PUSH1 0x40 MLOAD SWAP4 DUP1 DUP6 ADD SWAP2 DUP2 DUP7 MSTORE DUP7 MLOAD DUP1 SWAP4 MSTORE DUP2 PUSH1 0x40 DUP8 ADD SWAP8 ADD SWAP4 SWAP1 JUMPDEST DUP4 DUP3 LT PUSH3 0x279 JUMPI DUP7 DUP9 SUB DUP8 RETURN JUMPDEST DUP5 MLOAD DUP2 AND DUP9 MSTORE SWAP7 DUP3 ADD SWAP7 SWAP4 DUP3 ADD SWAP4 SWAP1 DUP6 ADD SWAP1 PUSH3 0x26B JUMP JUMPDEST DUP3 SLOAD DUP12 AND DUP5 MSTORE SWAP3 DUP10 ADD SWAP3 SWAP2 DUP9 ADD SWAP2 DUP9 ADD PUSH3 0x21C JUMP JUMPDEST POP CALLVALUE PUSH3 0x178 JUMPI DUP1 PUSH1 0x3 NOT CALLDATASIZE ADD SLT PUSH3 0x178 JUMPI PUSH1 0x20 PUSH1 0x6 SLOAD PUSH1 0x40 MLOAD SWAP1 DUP2 MSTORE RETURN JUMPDEST POP CALLVALUE PUSH3 0x178 JUMPI PUSH1 0x20 CALLDATASIZE PUSH1 0x3 NOT ADD SLT PUSH3 0x178 JUMPI PUSH1 0x4 CALLDATALOAD PUSH1 0xA SLOAD DUP2 LT ISZERO PUSH3 0x31E JUMPI PUSH3 0x2F4 SWAP1 PUSH3 0x1E9E JUMP JUMPDEST POP DUP1 SLOAD PUSH1 0x1 SWAP1 SWAP2 ADD SLOAD PUSH1 0x40 DUP1 MLOAD PUSH1 0x1 PUSH1 0x1 PUSH1 0xA0 SHL SUB SWAP4 DUP5 AND DUP2 MSTORE SWAP3 SWAP1 SWAP2 AND PUSH1 0x20 DUP4 ADD MSTORE SWAP1 RETURN JUMPDEST SUB SWAP1 RETURN JUMPDEST POP DUP1 REVERT JUMPDEST DUP3 CALLVALUE PUSH3 0x178 JUMPI DUP1 PUSH1 0x3 NOT CALLDATASIZE ADD SLT PUSH3 0x178 JUMPI POP PUSH1 0xC DUP1 SLOAD PUSH8 0xFFFFFFFFFFFFFFFF DUP2 GT PUSH3 0x4B5 JUMPI PUSH1 0x20 PUSH1 0x5 SWAP1 PUSH1 0x40 MLOAD SWAP4 PUSH3 0x365 PUSH1 0x20 DUP6 PUSH1 0x5 SHL ADD DUP7 PUSH3 0x1AC2 JUMP JUMPDEST DUP4 DUP6 MSTORE PUSH1 0x20 DUP6 ADD SWAP3 PUSH1 0xC PUSH1 0x0 MSTORE PUSH32 0xDF6966C971051C3D54EC59162606531493A51404A002842F56009D7E5CF4A8C7 SWAP2 PUSH1 0x0 SWAP5 JUMPDEST DUP7 DUP7 LT PUSH3 0x3B0 JUMPI PUSH1 0x40 MLOAD DUP1 PUSH3 0x31A DUP11 DUP3 PUSH3 0x1CBC JUMP JUMPDEST PUSH1 0xD DUP6 PUSH1 0x1 SWAP3 PUSH1 0x40 MLOAD PUSH3 0x3C4 DUP2 PUSH3 0x1AA4 JUMP JUMPDEST DUP5 DUP1 PUSH1 0xA0 SHL SUB DUP1 DUP10 SLOAD AND DUP3 MSTORE DUP1 DUP7 DUP11 ADD SLOAD AND DUP5 DUP4 ADD MSTORE PUSH1 0x2 DUP10 ADD SLOAD AND PUSH1 0x40 DUP3 ADD MSTORE PUSH3 0x3F3 PUSH1 0x3 DUP10 ADD PUSH3 0x1AE5 JUMP JUMPDEST PUSH1 0x60 DUP3 ADD MSTORE PUSH3 0x406 PUSH1 0x4 DUP10 ADD PUSH3 0x1AE5 JUMP JUMPDEST PUSH1 0x80 DUP3 ADD MSTORE DUP7 DUP9 ADD SLOAD PUSH1 0xA0 DUP3 ADD MSTORE PUSH3 0x422 PUSH1 0x6 DUP10 ADD PUSH3 0x1AE5 JUMP JUMPDEST PUSH1 0xC0 DUP3 ADD MSTORE PUSH3 0x435 PUSH1 0x7 DUP10 ADD PUSH3 0x1AE5 JUMP JUMPDEST DUP14 DUP3 ADD MSTORE PUSH1 0x8 PUSH3 0x448 DUP2 DUP11 ADD PUSH3 0x1AE5 JUMP JUMPDEST PUSH2 0x100 DUP4 ADD MSTORE PUSH3 0x45C PUSH1 0x9 DUP11 ADD PUSH3 0x1AE5 JUMP JUMPDEST PUSH2 0x120 DUP4 ADD MSTORE PUSH3 0x470 PUSH1 0xA DUP11 ADD PUSH3 0x1AE5 JUMP JUMPDEST PUSH2 0x140 DUP4 ADD MSTORE PUSH3 0x484 PUSH1 0xB DUP11 ADD PUSH3 0x1AE5 JUMP JUMPDEST PUSH2 0x160 DUP4 ADD MSTORE DUP7 DUP10 ADD SLOAD PUSH1 0xFF SWAP2 DUP3 DUP3 AND ISZERO ISZERO PUSH2 0x180 DUP6 ADD MSTORE SHR AND ISZERO ISZERO PUSH2 0x1A0 DUP3 ADD MSTORE DUP2 MSTORE ADD SWAP5 ADD SWAP6 ADD SWAP5 SWAP3 PUSH3 0x398 JUMP JUMPDEST PUSH4 0x4E487B71 PUSH1 0xE0 SHL PUSH1 0x0 MSTORE PUSH1 0x41 PUSH1 0x4 MSTORE PUSH1 0x24 PUSH1 0x0 REVERT JUMPDEST DUP3 PUSH2 0x100 CALLDATASIZE PUSH1 0x3 NOT ADD SLT PUSH3 0x178 JUMPI PUSH8 0xFFFFFFFFFFFFFFFF PUSH1 0x4 CALLDATALOAD DUP2 DUP2 GT PUSH3 0xDB7 JUMPI PUSH3 0x4FE SWAP1 CALLDATASIZE SWAP1 PUSH1 0x4 ADD PUSH3 0x1E51 JUMP JUMPDEST PUSH1 0x24 CALLDATALOAD DUP3 DUP2 GT PUSH3 0x9D1 JUMPI PUSH3 0x519 SWAP1 CALLDATASIZE SWAP1 PUSH1 0x4 ADD PUSH3 0x1E51 JUMP JUMPDEST SWAP3 PUSH1 0x44 CALLDATALOAD DUP4 DUP2 GT PUSH3 0x31E JUMPI PUSH3 0x535 SWAP1 CALLDATASIZE SWAP1 PUSH1 0x4 ADD PUSH3 0x1E51 JUMP JUMPDEST SWAP3 PUSH1 0x64 CALLDATALOAD DUP2 DUP2 GT PUSH3 0xDB7 JUMPI PUSH3 0x551 SWAP1 CALLDATASIZE SWAP1 PUSH1 0x4 ADD PUSH3 0x1E51 JUMP JUMPDEST SWAP4 PUSH1 0x84 CALLDATALOAD SWAP4 DUP3 DUP6 GT PUSH3 0x9D1 JUMPI CALLDATASIZE PUSH1 0x23 DUP7 ADD SLT ISZERO PUSH3 0x9D1 JUMPI PUSH1 0x40 MLOAD SWAP5 PUSH3 0x579 DUP7 PUSH3 0x1A87 JUMP JUMPDEST PUSH1 0x84 DUP2 ADD DUP7 CALLDATASIZE DUP3 GT PUSH3 0xC9A JUMPI DUP3 PUSH1 0x4 ADD SWAP1 JUMPDEST DUP3 DUP3 LT PUSH3 0xD87 JUMPI POP POP PUSH1 0xE4 CALLDATALOAD SWAP5 SWAP2 POP POP PUSH1 0x1 PUSH1 0x1 PUSH1 0xA0 SHL SUB DUP5 AND DUP5 SUB PUSH3 0xD82 JUMPI PUSH3 0x5B8 PUSH3 0x2B5B JUMP JUMPDEST PUSH1 0x6 SLOAD CALLVALUE LT PUSH3 0xD3D JUMPI PUSH1 0x40 MLOAD SWAP1 PUSH2 0x10AB SWAP1 DUP3 DUP3 DUP2 ADD LT SWAP1 DUP3 DUP5 ADD GT OR PUSH3 0xBDB JUMPI DUP1 DUP3 SWAP2 PUSH3 0x2F29 DUP4 CODECOPY PUSH1 0x80 DUP2 DUP4 ADD MSTORE PUSH3 0x611 PUSH3 0x5FE PUSH1 0x80 DUP4 DUP6 ADD ADD DUP7 PUSH3 0x1B96 JUMP JUMPDEST DUP3 DUP5 ADD DUP2 SUB PUSH1 0x20 DUP5 DUP7 ADD ADD MSTORE DUP12 PUSH3 0x1B96 JUMP JUMPDEST SWAP1 PUSH1 0xA4 CALLDATALOAD PUSH1 0x40 DUP3 DUP6 ADD ADD MSTORE PUSH1 0x60 PUSH1 0xC4 CALLDATALOAD SWAP2 DUP5 ADD ADD MSTORE SUB SWAP1 DUP6 CREATE SWAP5 DUP6 ISZERO PUSH3 0xD32 JUMPI PUSH1 0x3 SLOAD PUSH1 0x40 MLOAD PUSH4 0x15AB88C9 PUSH1 0xE3 SHL DUP2 MSTORE SWAP9 SWAP1 PUSH1 0x20 SWAP1 DUP11 SWAP1 PUSH1 0x4 SWAP1 DUP3 SWAP1 PUSH1 0x1 PUSH1 0x1 PUSH1 0xA0 SHL SUB AND GAS STATICCALL SWAP9 DUP10 ISZERO PUSH3 0xD27 JUMPI DUP7 SWAP8 SWAP9 SWAP10 PUSH1 0x20 SWAP2 PUSH3 0x6B1 SWAP9 SWAP2 PUSH3 0xD05 JUMPI JUMPDEST POP PUSH1 0x2 SLOAD PUSH1 0x40 MLOAD PUSH4 0x64E329CB PUSH1 0xE1 SHL DUP2 MSTORE PUSH1 0x1 PUSH1 0x1 PUSH1 0xA0 SHL SUB DUP13 DUP2 AND PUSH1 0x4 DUP4 ADD MSTORE SWAP3 DUP4 AND PUSH1 0x24 DUP3 ADD MSTORE SWAP9 DUP10 SWAP3 SWAP1 SWAP2 AND SWAP1 DUP3 SWAP1 DUP12 SWAP1 DUP3 SWAP1 PUSH1 0x44 DUP3 ADD SWAP1 JUMP JUMPDEST SUB SWAP3 GAS CALL SWAP6 DUP7 ISZERO PUSH3 0xCFA JUMPI DUP8 SWAP7 PUSH3 0xCC2 JUMPI JUMPDEST POP PUSH1 0x3 SLOAD PUSH1 0x40 MLOAD PUSH4 0x313CE567 PUSH1 0xE0 SHL DUP2 MSTORE PUSH1 0x1 PUSH1 0x1 PUSH1 0xA0 SHL SUB SWAP2 DUP3 AND SWAP2 PUSH1 0x20 SWAP1 DUP3 SWAP1 PUSH1 0x4 SWAP1 DUP3 SWAP1 DUP15 AND GAS STATICCALL SWAP1 DUP2 ISZERO PUSH3 0xC3A JUMPI PUSH3 0x716 PUSH3 0x731 SWAP4 SWAP3 PUSH3 0x71F SWAP3 DUP13 SWAP2 PUSH3 0xC9E JUMPI JUMPDEST POP PUSH3 0x21B4 JUMP JUMPDEST PUSH1 0xA4 CALLDATALOAD PUSH3 0x21DC JUMP JUMPDEST SWAP1 PUSH1 0x1 PUSH1 0x1 PUSH1 0xA0 SHL SUB DUP12 AND SWAP1 PUSH3 0x2B99 JUMP JUMPDEST ISZERO PUSH3 0xC9A JUMPI PUSH1 0x5 CALLVALUE DUP2 MUL DIV CALLVALUE SUB PUSH3 0xC86 JUMPI PUSH3 0x756 PUSH1 0x64 CALLVALUE PUSH1 0x5 MUL DIV CALLVALUE PUSH3 0x21F0 JUMP JUMPDEST PUSH1 0x3 SLOAD PUSH1 0x40 MLOAD PUSH4 0x313CE567 PUSH1 0xE0 SHL DUP2 MSTORE PUSH1 0x1 PUSH1 0x1 PUSH1 0xA0 SHL SUB SWAP2 DUP3 AND SWAP12 SWAP3 SWAP7 SWAP3 SWAP2 PUSH1 0x20 SWAP1 DUP3 SWAP1 PUSH1 0x4 SWAP1 DUP3 SWAP1 DUP16 AND GAS STATICCALL SWAP1 DUP2 ISZERO PUSH3 0xC7B JUMPI DUP12 SWAP13 PUSH3 0x7AC PUSH3 0x716 PUSH1 0x40 SWAP5 PUSH3 0x7E5 SWAP5 DUP16 SWAP2 PUSH3 0xC45 JUMPI POP PUSH3 0x21B4 JUMP JUMPDEST DUP4 MLOAD SWAP15 DUP16 SWAP4 DUP5 SWAP3 DUP4 SWAP3 PUSH4 0xE505AA9 PUSH1 0xE3 SHL DUP5 MSTORE PUSH1 0x1 DUP1 PUSH1 0xA0 SHL SUB AND PUSH1 0x4 DUP5 ADD PUSH1 0x20 SWAP1 SWAP4 SWAP3 SWAP2 SWAP4 PUSH1 0x40 DUP2 ADD SWAP5 PUSH1 0x1 DUP1 PUSH1 0xA0 SHL SUB AND DUP2 MSTORE ADD MSTORE JUMP JUMPDEST SUB SWAP2 PUSH1 0x64 CALLVALUE PUSH1 0x5 MUL DIV SWAP1 GAS CALL SWAP11 DUP12 ISZERO PUSH3 0xC3A JUMPI DUP11 SWAP12 PUSH3 0xC05 JUMPI JUMPDEST POP DUP4 MLOAD SWAP2 PUSH1 0x20 DUP6 ADD MLOAD SWAP4 PUSH1 0x60 PUSH1 0x40 DUP8 ADD MLOAD SWAP7 ADD MLOAD SWAP7 PUSH1 0x60 PUSH1 0x40 MLOAD SWAP15 DUP16 SWAP1 PUSH3 0x829 DUP3 PUSH3 0x1AA4 JUMP JUMPDEST CALLER DUP3 MSTORE PUSH1 0x1 DUP1 PUSH1 0xA0 SHL SUB AND PUSH1 0x20 DUP3 ADD MSTORE PUSH1 0x1 DUP1 PUSH1 0xA0 SHL SUB DUP14 AND PUSH1 0x40 DUP3 ADD MSTORE ADD MSTORE PUSH1 0x80 DUP14 ADD MSTORE PUSH1 0xA4 CALLDATALOAD PUSH1 0xA0 DUP14 ADD MSTORE PUSH1 0xC0 DUP13 ADD MSTORE PUSH1 0xE0 DUP12 ADD MSTORE PUSH2 0x100 DUP11 ADD MSTORE PUSH2 0x120 DUP10 ADD MSTORE PUSH2 0x140 DUP9 ADD MSTORE PUSH2 0x160 DUP8 ADD MSTORE PUSH1 0x1 SWAP2 DUP3 PUSH2 0x180 DUP9 ADD MSTORE DUP5 PUSH2 0x1A0 DUP9 ADD MSTORE PUSH1 0x1 DUP1 PUSH1 0xA0 SHL SUB DUP7 AND DUP6 MSTORE PUSH1 0xB PUSH1 0x20 MSTORE PUSH3 0x8A8 DUP8 PUSH1 0x40 DUP8 KECCAK256 PUSH3 0x2217 JUMP JUMPDEST PUSH1 0xC SLOAD PUSH1 0x1 PUSH1 0x40 SHL SWAP1 DUP2 DUP2 LT ISZERO PUSH3 0x4B5 JUMPI DUP5 DUP2 ADD DUP1 PUSH1 0xC SSTORE DUP2 LT ISZERO PUSH3 0xBEF JUMPI DUP9 PUSH1 0xD PUSH3 0x8FF SWAP3 PUSH1 0xC PUSH1 0x0 MSTORE MUL PUSH32 0xDF6966C971051C3D54EC59162606531493A51404A002842F56009D7E5CF4A8C7 ADD PUSH3 0x2217 JUMP JUMPDEST PUSH3 0x90A CALLER PUSH3 0x2C4A JUMP JUMPDEST ISZERO PUSH3 0xA65 JUMPI POP POP CALLER DUP5 MSTORE PUSH1 0x9 PUSH1 0x20 MSTORE PUSH1 0x40 DUP5 KECCAK256 DUP3 DUP2 ADD DUP1 SLOAD SWAP2 SWAP3 SWAP2 DUP7 SWAP2 SWAP1 PUSH1 0x1 PUSH1 0x1 PUSH1 0xA0 SHL SUB AND DUP1 PUSH3 0x9D5 JUMPI POP POP DUP1 DUP1 DUP1 SWAP4 PUSH1 0x1 DUP1 PUSH1 0xA0 SHL SUB PUSH1 0x4 SLOAD AND GAS CALL PUSH3 0x955 PUSH3 0x1ED9 JUMP JUMPDEST POP ISZERO PUSH3 0x9D1 JUMPI PUSH1 0x60 SWAP6 PUSH1 0x3 PUSH3 0x96E SWAP3 JUMPDEST ADD PUSH3 0x2AE0 JUMP JUMPDEST PUSH1 0xC SLOAD PUSH1 0x40 MLOAD DUP2 DUP2 MSTORE SWAP1 SWAP4 SWAP1 PUSH1 0x1 PUSH1 0x1 PUSH1 0xA0 SHL SUB DUP5 DUP2 AND SWAP2 SWAP1 DUP8 AND SWAP1 PUSH32 0x714AA39317AD9A7A7A99DB52B44490DA5D068A0B2710FFFB1A1282AD3CADAE1F SWAP1 PUSH1 0x20 SWAP1 LOG3 SSTORE PUSH1 0x40 DUP1 MLOAD PUSH1 0x1 PUSH1 0x1 PUSH1 0xA0 SHL SUB SWAP5 DUP6 AND DUP2 MSTORE SWAP2 SWAP1 SWAP4 AND PUSH1 0x20 DUP3 ADD MSTORE SWAP2 DUP3 ADD MSTORE RETURN JUMPDEST DUP4 DUP1 REVERT JUMPDEST DUP3 DUP1 SWAP3 SWAP5 DUP2 SWAP3 DUP3 MSTORE PUSH3 0x9EF CALLER PUSH1 0x2 PUSH1 0x40 DUP6 KECCAK256 ADD PUSH3 0x2B17 JUMP JUMPDEST PUSH3 0xA0C PUSH1 0x64 PUSH3 0xA03 DUP4 PUSH1 0x7 SLOAD PUSH3 0x21DC JUMP JUMPDEST DIV DUP1 SWAP3 PUSH3 0x21F0 JUMP JUMPDEST SWAP6 SLOAD PUSH1 0x1 PUSH1 0x1 PUSH1 0xA0 SHL SUB AND GAS CALL PUSH3 0xA23 PUSH3 0x1ED9 JUMP JUMPDEST POP ISZERO PUSH3 0xA61 JUMPI PUSH1 0x4 SLOAD DUP6 SWAP2 DUP3 SWAP2 DUP3 SWAP2 DUP3 SWAP2 PUSH1 0x1 PUSH1 0x1 PUSH1 0xA0 SHL SUB AND GAS CALL PUSH3 0xA4A PUSH3 0x1ED9 JUMP JUMPDEST POP ISZERO PUSH3 0x9D1 JUMPI PUSH1 0x60 SWAP6 PUSH1 0x3 PUSH3 0x96E SWAP3 PUSH3 0x967 JUMP JUMPDEST DUP5 DUP1 REVERT JUMPDEST PUSH3 0xA72 CALLER ISZERO ISZERO PUSH3 0x1F6A JUMP JUMPDEST PUSH1 0x40 MLOAD SWAP2 PUSH3 0xA81 DUP4 PUSH3 0x1A87 JUMP JUMPDEST CALLER DUP4 MSTORE PUSH1 0x1 DUP1 PUSH1 0xA0 SHL SUB AND PUSH1 0x20 DUP4 ADD MSTORE PUSH1 0x60 PUSH1 0x40 DUP4 ADD MSTORE PUSH1 0x60 DUP1 DUP4 ADD MSTORE CALLER DUP7 MSTORE PUSH1 0x9 PUSH1 0x20 MSTORE PUSH3 0xAB5 DUP3 PUSH1 0x40 DUP9 KECCAK256 PUSH3 0x2CF1 JUMP JUMPDEST PUSH1 0xA SLOAD SWAP1 DUP2 LT ISZERO PUSH3 0xBDB JUMPI DUP1 DUP5 PUSH3 0xAD2 SWAP3 ADD PUSH1 0xA SSTORE PUSH3 0x1E9E JUMP JUMPDEST PUSH3 0xBC7 JUMPI SWAP1 PUSH3 0xAE3 SWAP2 PUSH3 0x2CF1 JUMP JUMPDEST CALLER DUP5 MSTORE PUSH1 0x9 PUSH1 0x20 MSTORE PUSH1 0x40 DUP5 KECCAK256 DUP3 DUP2 ADD DUP1 SLOAD SWAP2 SWAP3 SWAP2 DUP7 SWAP2 SWAP1 PUSH1 0x1 PUSH1 0x1 PUSH1 0xA0 SHL SUB AND DUP1 PUSH3 0xB44 JUMPI POP POP DUP1 DUP1 DUP1 SWAP4 PUSH1 0x1 DUP1 PUSH1 0xA0 SHL SUB PUSH1 0x4 SLOAD AND GAS CALL PUSH3 0xB26 PUSH3 0x1ED9 JUMP JUMPDEST POP ISZERO PUSH3 0x9D1 JUMPI PUSH1 0x60 SWAP6 PUSH1 0x3 PUSH3 0xB3E SWAP3 ADD PUSH3 0x2AE0 JUMP JUMPDEST PUSH3 0x96E JUMP JUMPDEST DUP3 DUP1 SWAP3 SWAP5 DUP2 SWAP3 DUP3 MSTORE PUSH3 0xB5E CALLER PUSH1 0x2 PUSH1 0x40 DUP6 KECCAK256 ADD PUSH3 0x2B17 JUMP JUMPDEST PUSH3 0xB72 PUSH1 0x64 PUSH3 0xA03 DUP4 PUSH1 0x7 SLOAD PUSH3 0x21DC JUMP JUMPDEST SWAP6 SLOAD PUSH1 0x1 PUSH1 0x1 PUSH1 0xA0 SHL SUB AND GAS CALL PUSH3 0xB89 PUSH3 0x1ED9 JUMP JUMPDEST POP ISZERO PUSH3 0xA61 JUMPI PUSH1 0x4 SLOAD DUP6 SWAP2 DUP3 SWAP2 DUP3 SWAP2 DUP3 SWAP2 PUSH1 0x1 PUSH1 0x1 PUSH1 0xA0 SHL SUB AND GAS CALL PUSH3 0xBB0 PUSH3 0x1ED9 JUMP JUMPDEST POP ISZERO PUSH3 0x9D1 JUMPI PUSH1 0x60 SWAP6 PUSH1 0x3 PUSH3 0xB3E SWAP3 PUSH3 0x967 JUMP JUMPDEST PUSH4 0x4E487B71 PUSH1 0xE0 SHL DUP7 MSTORE PUSH1 0x4 DUP7 SWAP1 MSTORE PUSH1 0x24 DUP7 REVERT JUMPDEST PUSH4 0x4E487B71 PUSH1 0xE0 SHL DUP7 MSTORE PUSH1 0x41 PUSH1 0x4 MSTORE PUSH1 0x24 DUP7 REVERT JUMPDEST PUSH4 0x4E487B71 PUSH1 0xE0 SHL PUSH1 0x0 MSTORE PUSH1 0x32 PUSH1 0x4 MSTORE PUSH1 0x24 PUSH1 0x0 REVERT JUMPDEST PUSH3 0xC2B SWAP1 PUSH1 0x40 RETURNDATASIZE PUSH1 0x40 GT PUSH3 0xC32 JUMPI JUMPDEST PUSH3 0xC22 DUP2 DUP4 PUSH3 0x1AC2 JUMP JUMPDEST DUP2 ADD SWAP1 PUSH3 0x1FD8 JUMP JUMPDEST POP PUSH3 0x801 JUMP JUMPDEST POP RETURNDATASIZE PUSH3 0xC16 JUMP JUMPDEST PUSH1 0x40 MLOAD RETURNDATASIZE DUP12 DUP3 RETURNDATACOPY RETURNDATASIZE SWAP1 REVERT JUMPDEST PUSH3 0xC6C SWAP2 POP PUSH1 0x20 RETURNDATASIZE PUSH1 0x20 GT PUSH3 0xC73 JUMPI JUMPDEST PUSH3 0xC63 DUP2 DUP4 PUSH3 0x1AC2 JUMP JUMPDEST DUP2 ADD SWAP1 PUSH3 0x2199 JUMP JUMPDEST CODESIZE PUSH3 0x70F JUMP JUMPDEST POP RETURNDATASIZE PUSH3 0xC57 JUMP JUMPDEST PUSH1 0x40 MLOAD RETURNDATASIZE DUP13 DUP3 RETURNDATACOPY RETURNDATASIZE SWAP1 REVERT JUMPDEST PUSH4 0x4E487B71 PUSH1 0xE0 SHL DUP8 MSTORE PUSH1 0x11 PUSH1 0x4 MSTORE PUSH1 0x24 DUP8 REVERT JUMPDEST DUP7 DUP1 REVERT JUMPDEST PUSH3 0xCBB SWAP2 POP PUSH1 0x20 RETURNDATASIZE PUSH1 0x20 GT PUSH3 0xC73 JUMPI PUSH3 0xC63 DUP2 DUP4 PUSH3 0x1AC2 JUMP JUMPDEST DUP15 PUSH3 0x70F JUMP JUMPDEST PUSH3 0xCEA SWAP2 SWAP7 POP PUSH1 0x20 RETURNDATASIZE PUSH1 0x20 GT PUSH3 0xCF2 JUMPI JUMPDEST PUSH3 0xCE1 DUP2 DUP4 PUSH3 0x1AC2 JUMP JUMPDEST DUP2 ADD SWAP1 PUSH3 0x1FB7 JUMP JUMPDEST SWAP5 DUP10 PUSH3 0x6C5 JUMP JUMPDEST POP RETURNDATASIZE PUSH3 0xCD5 JUMP JUMPDEST PUSH1 0x40 MLOAD RETURNDATASIZE DUP10 DUP3 RETURNDATACOPY RETURNDATASIZE SWAP1 REVERT JUMPDEST PUSH3 0xD20 SWAP2 POP DUP3 RETURNDATASIZE DUP5 GT PUSH3 0xCF2 JUMPI PUSH3 0xCE1 DUP2 DUP4 PUSH3 0x1AC2 JUMP JUMPDEST DUP12 PUSH3 0x674 JUMP JUMPDEST PUSH1 0x40 MLOAD RETURNDATASIZE DUP9 DUP3 RETURNDATACOPY RETURNDATASIZE SWAP1 REVERT JUMPDEST PUSH1 0x40 MLOAD RETURNDATASIZE DUP7 DUP3 RETURNDATACOPY RETURNDATASIZE SWAP1 REVERT JUMPDEST PUSH1 0x40 MLOAD PUSH3 0x461BCD PUSH1 0xE5 SHL DUP2 MSTORE PUSH1 0x20 PUSH1 0x4 DUP3 ADD MSTORE PUSH1 0x19 PUSH1 0x24 DUP3 ADD MSTORE PUSH32 0x496E73756666696369656E7420616D6F756E742073656E742E00000000000000 PUSH1 0x44 DUP3 ADD MSTORE PUSH1 0x64 SWAP1 REVERT JUMPDEST PUSH1 0x0 DUP1 REVERT JUMPDEST DUP2 CALLDATALOAD DUP8 DUP2 GT PUSH3 0xDB3 JUMPI PUSH1 0x20 SWAP2 PUSH3 0xDA7 DUP4 SWAP3 PUSH1 0x4 CALLDATASIZE SWAP2 DUP10 ADD ADD PUSH3 0x1E51 JUMP JUMPDEST DUP2 MSTORE ADD SWAP2 ADD SWAP1 PUSH3 0x58C JUMP JUMPDEST DUP9 DUP1 REVERT JUMPDEST DUP3 DUP1 REVERT JUMPDEST DUP3 CALLVALUE PUSH3 0x178 JUMPI PUSH1 0x20 CALLDATASIZE PUSH1 0x3 NOT ADD SLT PUSH3 0x178 JUMPI PUSH1 0x1 PUSH1 0x1 PUSH1 0xA0 SHL SUB SWAP1 PUSH1 0x40 SWAP1 DUP3 PUSH3 0xDE6 PUSH3 0x1A33 JUMP JUMPDEST AND DUP2 MSTORE PUSH1 0x9 PUSH1 0x20 MSTORE KECCAK256 SWAP1 PUSH1 0x1 DUP2 DUP4 SLOAD AND SWAP3 ADD SLOAD AND SWAP1 PUSH3 0x31A PUSH1 0x40 MLOAD SWAP3 DUP4 SWAP3 DUP4 SWAP1 PUSH1 0x20 SWAP1 SWAP4 SWAP3 SWAP4 PUSH1 0x40 DUP4 ADD SWAP5 PUSH1 0x1 DUP1 PUSH1 0xA0 SHL SUB DUP1 SWAP3 AND DUP5 MSTORE AND SWAP2 ADD MSTORE JUMP JUMPDEST DUP3 CALLVALUE PUSH3 0x178 JUMPI DUP1 PUSH1 0x3 NOT CALLDATASIZE ADD SLT PUSH3 0x178 JUMPI PUSH1 0x20 PUSH1 0x40 MLOAD PUSH1 0x5 DUP2 MSTORE RETURN JUMPDEST DUP3 CALLVALUE PUSH3 0x178 JUMPI DUP1 PUSH1 0x3 NOT CALLDATASIZE ADD SLT PUSH3 0x178 JUMPI PUSH3 0xE64 PUSH3 0x1C2 CALLER PUSH3 0x2C4A JUMP JUMPDEST CALLER DUP2 MSTORE PUSH1 0x20 PUSH1 0x9 PUSH1 0x20 MSTORE PUSH1 0x40 DUP3 KECCAK256 SWAP1 PUSH1 0x40 MLOAD SWAP3 PUSH3 0xE82 DUP5 PUSH3 0x1A87 JUMP JUMPDEST PUSH1 0x1 DUP1 PUSH1 0xA0 SHL SUB SWAP1 DUP2 DUP5 SLOAD AND DUP6 MSTORE PUSH1 0x1 DUP3 PUSH1 0x1 DUP7 ADD SLOAD AND PUSH1 0x20 DUP8 ADD MSTORE PUSH1 0x2 DUP6 ADD SWAP3 PUSH1 0x40 MLOAD SWAP1 DUP2 SWAP6 PUSH1 0x20 DUP7 SLOAD SWAP4 DUP5 DUP2 MSTORE ADD SWAP6 DUP6 MSTORE PUSH1 0x20 DUP6 KECCAK256 SWAP5 SWAP2 JUMPDEST DUP4 DUP4 LT PUSH3 0xEFF JUMPI PUSH3 0x31A PUSH1 0x60 DUP12 PUSH3 0xEED PUSH1 0x3 DUP14 DUP14 PUSH3 0xEE1 DUP2 DUP16 SUB DUP3 PUSH3 0x1AC2 JUMP JUMPDEST PUSH1 0x40 DUP6 ADD MSTORE ADD PUSH3 0x203C JUMP JUMPDEST SWAP2 DUP3 SWAP2 ADD MSTORE PUSH1 0x40 MLOAD SWAP2 DUP3 SWAP2 DUP3 PUSH3 0x1CBC JUMP JUMPDEST DUP6 SLOAD DUP2 AND DUP8 MSTORE SWAP6 DUP2 ADD SWAP6 SWAP5 DUP5 ADD SWAP5 SWAP2 DUP5 ADD SWAP2 PUSH3 0xEBC JUMP JUMPDEST DUP3 CALLVALUE PUSH3 0x178 JUMPI DUP1 PUSH1 0x3 NOT CALLDATASIZE ADD SLT PUSH3 0x178 JUMPI PUSH1 0x20 PUSH1 0x7 SLOAD PUSH1 0x40 MLOAD SWAP1 DUP2 MSTORE RETURN JUMPDEST DUP3 CALLVALUE PUSH3 0x178 JUMPI DUP1 PUSH1 0x3 NOT CALLDATASIZE ADD SLT PUSH3 0x178 JUMPI PUSH1 0x20 PUSH1 0x40 MLOAD PUSH10 0x152D02C7E14AF6800000 DUP2 MSTORE RETURN JUMPDEST DUP3 CALLVALUE PUSH3 0x178 JUMPI PUSH1 0x20 CALLDATASIZE PUSH1 0x3 NOT ADD SLT PUSH3 0x178 JUMPI PUSH1 0x20 PUSH1 0x4 CALLDATALOAD DUP1 PUSH1 0x6 SSTORE PUSH1 0x40 MLOAD SWAP1 DUP2 MSTORE RETURN JUMPDEST DUP3 CALLVALUE PUSH3 0x178 JUMPI PUSH1 0x20 CALLDATASIZE PUSH1 0x3 NOT ADD SLT PUSH3 0x178 JUMPI PUSH1 0x1 PUSH1 0x1 PUSH1 0xA0 SHL SUB SWAP1 DUP2 PUSH3 0xFAB PUSH3 0x1A33 JUMP JUMPDEST AND DUP2 MSTORE PUSH1 0xB PUSH1 0x20 MSTORE PUSH1 0x40 SWAP1 KECCAK256 DUP2 DUP2 SLOAD AND SWAP2 DUP1 PUSH1 0x1 DUP4 ADD SLOAD AND SWAP1 PUSH1 0x2 DUP4 ADD SLOAD AND SWAP2 PUSH1 0x3 DUP2 ADD PUSH3 0xFDA SWAP1 PUSH3 0x1AE5 JUMP JUMPDEST SWAP4 PUSH3 0xFE9 PUSH1 0x4 DUP4 ADD PUSH3 0x1AE5 JUMP JUMPDEST SWAP2 PUSH1 0x5 DUP2 ADD SLOAD PUSH1 0x6 DUP3 ADD PUSH3 0xFFE SWAP1 PUSH3 0x1AE5 JUMP JUMPDEST PUSH3 0x100C PUSH1 0x7 DUP5 ADD PUSH3 0x1AE5 JUMP JUMPDEST PUSH3 0x101A PUSH1 0x8 DUP6 ADD PUSH3 0x1AE5 JUMP JUMPDEST SWAP1 PUSH3 0x1029 PUSH1 0x9 DUP7 ADD PUSH3 0x1AE5 JUMP JUMPDEST SWAP3 PUSH3 0x1038 PUSH1 0xA DUP8 ADD PUSH3 0x1AE5 JUMP JUMPDEST SWAP5 PUSH3 0x1047 PUSH1 0xB DUP9 ADD PUSH3 0x1AE5 JUMP JUMPDEST SWAP7 PUSH1 0xC ADD SLOAD SWAP9 PUSH1 0x40 MLOAD SWAP13 DUP14 SWAP13 DUP14 SWAP13 DUP13 PUSH1 0x8 SHR PUSH1 0xFF AND SWAP13 PUSH1 0xFF AND SWAP12 PUSH3 0x31A SWAP15 PUSH3 0x1BD8 JUMP JUMPDEST DUP3 CALLVALUE PUSH3 0x178 JUMPI PUSH1 0x60 CALLDATASIZE PUSH1 0x3 NOT ADD SLT PUSH3 0x178 JUMPI PUSH3 0x108A PUSH3 0x1A33 JUMP JUMPDEST PUSH1 0x24 CALLDATALOAD SWAP2 SWAP1 PUSH1 0x1 PUSH1 0x1 PUSH1 0xA0 SHL SUB DUP4 AND DUP4 SUB PUSH3 0xD82 JUMPI PUSH3 0x10BE PUSH1 0x1 SWAP2 PUSH1 0x20 SWAP5 PUSH3 0x10B4 PUSH3 0x2B5B JUMP JUMPDEST PUSH1 0x44 CALLDATALOAD SWAP2 PUSH3 0x2B99 JUMP JUMPDEST SWAP2 SSTORE PUSH1 0x40 MLOAD SWAP1 ISZERO ISZERO DUP2 MSTORE RETURN JUMPDEST DUP3 CALLVALUE PUSH3 0x178 JUMPI PUSH1 0x20 CALLDATASIZE PUSH1 0x3 NOT ADD SLT PUSH3 0x178 JUMPI PUSH1 0x4 CALLDATALOAD SWAP1 PUSH1 0xC SLOAD DUP3 LT ISZERO PUSH3 0x178 JUMPI POP PUSH1 0xC PUSH1 0x0 MSTORE PUSH1 0xD MUL PUSH1 0x1 PUSH1 0xA0 SHL PUSH1 0x1 SWAP1 SUB SWAP1 DUP2 DUP2 PUSH32 0xDF6966C971051C3D54EC59162606531493A51404A002842F56009D7E5CF4A8C7 ADD SLOAD AND SWAP2 DUP1 PUSH32 0xDF6966C971051C3D54EC59162606531493A51404A002842F56009D7E5CF4A8C8 DUP4 ADD SLOAD AND SWAP1 PUSH32 0xDF6966C971051C3D54EC59162606531493A51404A002842F56009D7E5CF4A8C9 DUP4 ADD SLOAD AND SWAP2 PUSH32 0xDF6966C971051C3D54EC59162606531493A51404A002842F56009D7E5CF4A8CA DUP2 ADD PUSH3 0x11A2 SWAP1 PUSH3 0x1AE5 JUMP JUMPDEST SWAP4 PUSH3 0x11D0 PUSH32 0xDF6966C971051C3D54EC59162606531493A51404A002842F56009D7E5CF4A8CB DUP4 ADD PUSH3 0x1AE5 JUMP JUMPDEST SWAP2 PUSH32 0xDF6966C971051C3D54EC59162606531493A51404A002842F56009D7E5CF4A8CC DUP2 ADD SLOAD PUSH32 0xDF6966C971051C3D54EC59162606531493A51404A002842F56009D7E5CF4A8CD DUP3 ADD PUSH3 0x1223 SWAP1 PUSH3 0x1AE5 JUMP JUMPDEST PUSH3 0x1250 PUSH32 0xDF6966C971051C3D54EC59162606531493A51404A002842F56009D7E5CF4A8CE DUP5 ADD PUSH3 0x1AE5 JUMP JUMPDEST PUSH3 0x127D PUSH32 0xDF6966C971051C3D54EC59162606531493A51404A002842F56009D7E5CF4A8CF DUP6 ADD PUSH3 0x1AE5 JUMP JUMPDEST SWAP1 PUSH3 0x12AB PUSH32 0xDF6966C971051C3D54EC59162606531493A51404A002842F56009D7E5CF4A8D0 DUP7 ADD PUSH3 0x1AE5 JUMP JUMPDEST SWAP3 PUSH3 0x12D9 PUSH32 0xDF6966C971051C3D54EC59162606531493A51404A002842F56009D7E5CF4A8D1 DUP8 ADD PUSH3 0x1AE5 JUMP JUMPDEST SWAP5 PUSH3 0x1307 PUSH32 0xDF6966C971051C3D54EC59162606531493A51404A002842F56009D7E5CF4A8D2 DUP9 ADD PUSH3 0x1AE5 JUMP JUMPDEST SWAP7 PUSH32 0xDF6966C971051C3D54EC59162606531493A51404A002842F56009D7E5CF4A8D3 ADD SLOAD SWAP9 PUSH1 0x40 MLOAD SWAP13 DUP14 SWAP13 DUP14 SWAP13 DUP13 PUSH1 0x8 SHR PUSH1 0xFF AND SWAP13 PUSH1 0xFF AND SWAP12 PUSH3 0x31A SWAP15 PUSH3 0x1BD8 JUMP JUMPDEST DUP3 CALLVALUE PUSH3 0x178 JUMPI PUSH1 0x20 DUP1 PUSH1 0x3 NOT CALLDATASIZE ADD SLT PUSH3 0x31E JUMPI PUSH3 0x136A PUSH3 0x1A33 JUMP JUMPDEST PUSH1 0x1 SLOAD PUSH1 0x1 PUSH1 0x1 PUSH1 0xA0 SHL SUB SWAP2 SWAP1 PUSH3 0x1386 SWAP1 DUP4 AND CALLER EQ PUSH3 0x1F0E JUMP JUMPDEST PUSH3 0x1390 PUSH3 0x2B5B JUMP JUMPDEST DUP2 DUP2 AND SWAP3 DUP4 ISZERO ISZERO SWAP1 PUSH3 0x13A3 DUP3 PUSH3 0x1F6A JUMP JUMPDEST DUP4 PUSH1 0x3 SLOAD AND SWAP4 PUSH1 0x40 MLOAD SWAP1 DUP3 DUP3 PUSH1 0x4 DUP2 PUSH4 0x15AB88C9 PUSH1 0xE3 SHL SWAP10 DUP11 DUP3 MSTORE GAS STATICCALL SWAP2 DUP3 ISZERO PUSH3 0x1933 JUMPI PUSH3 0x1412 SWAP3 DUP5 SWAP2 DUP11 SWAP2 PUSH3 0x193E JUMPI JUMPDEST POP PUSH1 0x2 SLOAD PUSH1 0x40 MLOAD PUSH4 0xE6A43905 PUSH1 0xE0 SHL DUP2 MSTORE PUSH1 0x1 PUSH1 0x1 PUSH1 0xA0 SHL SUB DUP1 DUP11 AND PUSH1 0x4 DUP4 ADD MSTORE SWAP1 SWAP3 AND PUSH1 0x24 DUP4 ADD MSTORE SWAP1 SWAP4 DUP5 SWAP2 DUP5 AND SWAP1 DUP3 SWAP1 DUP2 SWAP1 PUSH1 0x44 DUP3 ADD SWAP1 JUMP JUMPDEST SUB SWAP2 GAS STATICCALL SWAP2 DUP3 ISZERO PUSH3 0x1933 JUMPI DUP9 SWAP3 PUSH3 0x190F JUMPI JUMPDEST POP DUP7 EXTCODESIZE ISZERO PUSH3 0x190B JUMPI PUSH1 0x40 MLOAD PUSH4 0x6DA678F PUSH1 0xE5 SHL DUP2 MSTORE SWAP2 DUP2 AND PUSH1 0x4 DUP4 ADD MSTORE PUSH1 0x24 SWAP2 DUP9 DUP2 DUP5 DUP2 DUP4 DUP13 GAS CALL DUP1 ISZERO PUSH3 0xC3A JUMPI PUSH3 0x18D4 JUMPI JUMPDEST POP SWAP1 DUP8 SWAP4 SWAP3 SWAP2 DUP8 DUP6 MSTORE PUSH1 0xB DUP4 MSTORE PUSH1 0x40 DUP6 KECCAK256 SWAP7 PUSH1 0x40 DUP3 PUSH1 0x3 SLOAD AND PUSH1 0x64 DUP12 DUP4 MLOAD SWAP10 DUP11 SWAP4 DUP5 SWAP3 PUSH4 0xE79A4089 PUSH1 0xE0 SHL DUP5 MSTORE PUSH1 0x4 DUP5 ADD MSTORE DUP4 DUP10 DUP5 ADD MSTORE ADDRESS PUSH1 0x44 DUP5 ADD MSTORE GAS CALL SWAP5 DUP6 ISZERO PUSH3 0xC7B JUMPI DUP11 SWAP7 DUP12 SWAP7 PUSH3 0x18A5 JUMPI JUMPDEST POP PUSH3 0x14B9 SWAP1 PUSH3 0x1F6A JUMP JUMPDEST DUP9 DUP11 MSTORE PUSH1 0xB DUP5 MSTORE PUSH1 0xC PUSH1 0x40 DUP12 KECCAK256 ADD SLOAD PUSH1 0xFF DUP2 AND SWAP1 DUP2 PUSH3 0x1895 JUMPI JUMPDEST POP ISZERO PUSH3 0x1851 JUMPI DUP9 SWAP1 DUP3 PUSH1 0x8 SLOAD AND PUSH1 0x40 MLOAD SWAP1 DUP13 DUP8 DUP4 DUP9 DUP2 PUSH4 0x70A08231 PUSH1 0xE0 SHL SWAP9 DUP10 DUP3 MSTORE ADDRESS PUSH1 0x4 DUP4 ADD MSTORE GAS STATICCALL SWAP2 DUP3 ISZERO PUSH3 0x1844 JUMPI DUP12 SWAP2 SWAP3 PUSH3 0x180A JUMPI JUMPDEST PUSH3 0x151C SWAP4 POP PUSH3 0x2B99 JUMP JUMPDEST ISZERO PUSH3 0x17D6 JUMPI SWAP1 DUP3 SWAP2 DUP12 SWAP5 SWAP4 PUSH1 0x8 SLOAD AND SWAP1 PUSH1 0x40 MLOAD PUSH4 0xC45A0155 PUSH1 0xE0 SHL DUP2 MSTORE DUP8 DUP2 PUSH1 0x4 DUP2 DUP7 GAS STATICCALL SWAP2 DUP3 ISZERO PUSH3 0xCFA JUMPI DUP9 SWAP2 DUP9 SWAP4 PUSH3 0x17B2 JUMPI JUMPDEST POP PUSH1 0x4 PUSH1 0x40 MLOAD DUP1 SWAP6 DUP2 SWAP4 DUP3 MSTORE GAS STATICCALL SWAP1 DUP2 ISZERO PUSH3 0xD27 JUMPI PUSH3 0x15B2 SWAP11 DUP9 SWAP4 DUP9 SWAP4 PUSH3 0x178E JUMPI JUMPDEST POP PUSH1 0x40 MLOAD PUSH4 0x64E329CB PUSH1 0xE1 SHL DUP2 MSTORE PUSH1 0x1 PUSH1 0x1 PUSH1 0xA0 SHL SUB SWAP2 DUP3 AND PUSH1 0x4 DUP3 ADD MSTORE SWAP3 AND PUSH1 0x24 DUP4 ADD MSTORE SWAP1 SWAP10 DUP11 SWAP2 SWAP1 DUP3 SWAP1 DUP9 SWAP1 DUP8 SWAP1 DUP4 SWAP1 PUSH1 0x44 DUP3 ADD SWAP1 JUMP JUMPDEST SUB SWAP4 AND GAS CALL SWAP8 DUP9 ISZERO PUSH3 0xD32 JUMPI DUP5 SWAP9 PUSH3 0x176A JUMPI JUMPDEST POP PUSH1 0x8 SLOAD PUSH1 0x40 MLOAD SWAP2 DUP3 MSTORE ADDRESS PUSH1 0x4 DUP4 ADD MSTORE DUP3 AND SWAP1 SELFBALANCE DUP7 DUP3 DUP7 DUP2 DUP16 GAS STATICCALL SWAP3 DUP4 ISZERO PUSH3 0xD27 JUMPI DUP13 SWAP3 DUP8 SWAP5 PUSH3 0x172A JUMPI JUMPDEST POP SWAP2 PUSH1 0xC4 SWAP2 PUSH1 0x60 SWAP5 SWAP4 PUSH1 0x40 MLOAD SWAP9 DUP10 SWAP6 DUP7 SWAP5 PUSH4 0xF305D719 PUSH1 0xE0 SHL DUP7 MSTORE PUSH1 0x4 DUP7 ADD MSTORE DUP10 DUP6 ADD MSTORE DUP1 PUSH1 0x44 DUP6 ADD MSTORE PUSH1 0x64 DUP5 ADD MSTORE ADDRESS PUSH1 0x84 DUP5 ADD MSTORE TIMESTAMP PUSH1 0xA4 DUP5 ADD MSTORE GAS CALL SWAP3 DUP4 ISZERO PUSH3 0xC7B JUMPI DUP5 SWAP4 PUSH3 0x16F5 JUMPI JUMPDEST POP DUP1 DUP11 PUSH1 0x44 SWAP3 PUSH1 0x8 SLOAD AND SWAP2 PUSH1 0x40 MLOAD SWAP10 DUP11 SWAP6 DUP7 SWAP5 PUSH4 0x95EA7B3 PUSH1 0xE0 SHL DUP7 MSTORE PUSH1 0x4 DUP7 ADD MSTORE PUSH1 0x0 NOT SWAP1 DUP6 ADD MSTORE AND GAS CALL DUP1 ISZERO PUSH3 0xCFA JUMPI PUSH32 0x540BCEC33387745B2CED30977DCFE4A623A245511EB0A133989C27C8BB95B4A9 SWAP6 PUSH1 0x40 SWAP6 PUSH1 0xC SWAP3 PUSH3 0x16C1 JUMPI JUMPDEST POP ADD DUP1 SLOAD PUSH2 0xFFFF NOT AND PUSH2 0x100 OR SWAP1 SSTORE DUP4 MLOAD SWAP3 DUP4 MSTORE DUP3 ADD MSTORE LOG2 PUSH1 0x1 DUP2 SSTORE DUP1 RETURN JUMPDEST PUSH3 0x16E5 SWAP1 DUP5 RETURNDATASIZE DUP7 GT PUSH3 0x16ED JUMPI JUMPDEST PUSH3 0x16DC DUP2 DUP4 PUSH3 0x1AC2 JUMP JUMPDEST DUP2 ADD SWAP1 PUSH3 0x2B7F JUMP JUMPDEST POP DUP10 PUSH3 0x16A2 JUMP JUMPDEST POP RETURNDATASIZE PUSH3 0x16D0 JUMP JUMPDEST PUSH1 0x60 DUP1 SWAP3 SWAP5 POP RETURNDATASIZE DUP4 GT PUSH3 0x1722 JUMPI JUMPDEST PUSH3 0x1710 DUP2 DUP4 PUSH3 0x1AC2 JUMP JUMPDEST DUP2 ADD SUB SLT PUSH3 0xDB3 JUMPI DUP3 SWAP2 DUP11 PUSH3 0x1641 JUMP JUMPDEST POP RETURNDATASIZE PUSH3 0x1704 JUMP JUMPDEST SWAP4 POP SWAP2 POP SWAP5 POP DUP6 DUP3 DUP2 RETURNDATASIZE DUP4 GT PUSH3 0x1762 JUMPI JUMPDEST PUSH3 0x1748 DUP2 DUP4 PUSH3 0x1AC2 JUMP JUMPDEST DUP2 ADD SUB SLT PUSH3 0xD82 JUMPI SWAP1 MLOAD DUP12 SWAP5 SWAP1 SWAP2 DUP12 SWAP2 SWAP1 PUSH1 0xC4 PUSH3 0x15F4 JUMP JUMPDEST POP RETURNDATASIZE PUSH3 0x173C JUMP JUMPDEST PUSH3 0x1786 SWAP2 SWAP9 POP DUP6 RETURNDATASIZE DUP8 GT PUSH3 0xCF2 JUMPI PUSH3 0xCE1 DUP2 DUP4 PUSH3 0x1AC2 JUMP JUMPDEST SWAP7 DUP12 PUSH3 0x15C7 JUMP JUMPDEST PUSH3 0x17AA SWAP2 SWAP4 POP DUP5 RETURNDATASIZE DUP7 GT PUSH3 0xCF2 JUMPI PUSH3 0xCE1 DUP2 DUP4 PUSH3 0x1AC2 JUMP JUMPDEST SWAP2 DUP16 PUSH3 0x1579 JUMP JUMPDEST PUSH3 0x17CE SWAP2 SWAP4 POP DUP3 RETURNDATASIZE DUP5 GT PUSH3 0xCF2 JUMPI PUSH3 0xCE1 DUP2 DUP4 PUSH3 0x1AC2 JUMP JUMPDEST SWAP2 DUP16 PUSH3 0x1554 JUMP JUMPDEST PUSH1 0x40 MLOAD PUSH3 0x461BCD PUSH1 0xE5 SHL DUP2 MSTORE PUSH1 0x4 DUP2 ADD DUP7 SWAP1 MSTORE PUSH1 0xD DUP2 DUP7 ADD MSTORE PUSH13 0x2737BA1030B8383937BB32B217 PUSH1 0x99 SHL PUSH1 0x44 DUP3 ADD MSTORE PUSH1 0x64 SWAP1 REVERT JUMPDEST SWAP2 POP POP DUP7 DUP3 DUP2 RETURNDATASIZE DUP4 GT PUSH3 0x183C JUMPI JUMPDEST PUSH3 0x1825 DUP2 DUP4 PUSH3 0x1AC2 JUMP JUMPDEST DUP2 ADD SUB SLT PUSH3 0xD82 JUMPI DUP10 PUSH3 0x151C SWAP3 MLOAD SWAP2 PUSH3 0x1510 JUMP JUMPDEST POP RETURNDATASIZE PUSH3 0x1819 JUMP JUMPDEST POP PUSH1 0x40 MLOAD SWAP1 RETURNDATASIZE SWAP1 DUP3 RETURNDATACOPY RETURNDATASIZE SWAP1 REVERT JUMPDEST PUSH1 0x40 MLOAD PUSH3 0x461BCD PUSH1 0xE5 SHL DUP2 MSTORE PUSH1 0x4 DUP2 ADD DUP6 SWAP1 MSTORE PUSH1 0x17 DUP2 DUP6 ADD MSTORE PUSH32 0x74726164696E6720697320616C7265616479206F70656E000000000000000000 PUSH1 0x44 DUP3 ADD MSTORE PUSH1 0x64 SWAP1 REVERT JUMPDEST PUSH1 0xFF SWAP2 POP PUSH1 0x8 SHR AND ISZERO DUP12 PUSH3 0x14D4 JUMP JUMPDEST PUSH3 0x14B9 SWAP8 POP PUSH3 0x18C9 SWAP2 SWAP7 POP PUSH1 0x40 RETURNDATASIZE PUSH1 0x40 GT PUSH3 0xC32 JUMPI PUSH3 0xC22 DUP2 DUP4 PUSH3 0x1AC2 JUMP JUMPDEST SWAP7 SWAP1 SWAP7 SWAP6 SWAP1 PUSH3 0x14AD JUMP JUMPDEST PUSH8 0xFFFFFFFFFFFFFFFF DUP2 SWAP10 SWAP3 SWAP6 SWAP5 SWAP4 SWAP10 GT PUSH3 0x18F8 JUMPI PUSH1 0x40 MSTORE SWAP7 SWAP1 SWAP2 SWAP3 DUP9 PUSH3 0x145C JUMP JUMPDEST PUSH4 0x4E487B71 PUSH1 0xE0 SHL DUP3 MSTORE PUSH1 0x41 PUSH1 0x4 MSTORE DUP9 DUP3 REVERT JUMPDEST DUP8 DUP1 REVERT JUMPDEST PUSH3 0x192B SWAP2 SWAP3 POP DUP4 RETURNDATASIZE DUP6 GT PUSH3 0xCF2 JUMPI PUSH3 0xCE1 DUP2 DUP4 PUSH3 0x1AC2 JUMP JUMPDEST SWAP1 DUP9 PUSH3 0x1426 JUMP JUMPDEST PUSH1 0x40 MLOAD RETURNDATASIZE DUP11 DUP3 RETURNDATACOPY RETURNDATASIZE SWAP1 REVERT JUMPDEST PUSH3 0x1959 SWAP2 POP DUP3 RETURNDATASIZE DUP5 GT PUSH3 0xCF2 JUMPI PUSH3 0xCE1 DUP2 DUP4 PUSH3 0x1AC2 JUMP JUMPDEST DUP11 PUSH3 0x13D7 JUMP JUMPDEST DUP3 CALLVALUE PUSH3 0x178 JUMPI DUP1 PUSH1 0x3 NOT CALLDATASIZE ADD SLT PUSH3 0x178 JUMPI PUSH1 0x1 SLOAD DUP2 SWAP1 DUP2 SWAP1 DUP2 SWAP1 SELFBALANCE SWAP1 PUSH1 0x1 PUSH1 0x1 PUSH1 0xA0 SHL SUB AND GAS CALL PUSH3 0x1993 PUSH3 0x1ED9 JUMP JUMPDEST POP ISZERO PUSH3 0x19A5 JUMPI PUSH1 0x20 PUSH1 0x40 MLOAD PUSH1 0x1 DUP2 MSTORE RETURN JUMPDEST PUSH1 0x40 MLOAD PUSH3 0x461BCD PUSH1 0xE5 SHL DUP2 MSTORE PUSH1 0x20 PUSH1 0x4 DUP3 ADD MSTORE PUSH1 0x14 PUSH1 0x24 DUP3 ADD MSTORE PUSH20 0x2A3930B739B332B91022AA24102330B4B632B217 PUSH1 0x61 SHL PUSH1 0x44 DUP3 ADD MSTORE PUSH1 0x64 SWAP1 REVERT JUMPDEST DUP3 CALLVALUE PUSH3 0x178 JUMPI DUP1 PUSH1 0x3 NOT CALLDATASIZE ADD SLT PUSH3 0x178 JUMPI PUSH1 0x1 SLOAD PUSH1 0x40 MLOAD PUSH1 0x1 PUSH1 0x1 PUSH1 0xA0 SHL SUB SWAP1 SWAP2 AND DUP2 MSTORE PUSH1 0x20 SWAP1 RETURN JUMPDEST DUP4 SWAP1 CALLVALUE PUSH3 0x31E JUMPI DUP2 PUSH1 0x3 NOT CALLDATASIZE ADD SLT PUSH3 0x31E JUMPI PUSH1 0x4 SLOAD PUSH1 0x1 PUSH1 0x1 PUSH1 0xA0 SHL SUB AND DUP2 MSTORE PUSH1 0x20 SWAP1 RETURN JUMPDEST PUSH1 0x4 CALLDATALOAD SWAP1 PUSH1 0x1 PUSH1 0x1 PUSH1 0xA0 SHL SUB DUP3 AND DUP3 SUB PUSH3 0xD82 JUMPI JUMP JUMPDEST SWAP1 PUSH1 0x1 DUP3 DUP2 SHR SWAP3 AND DUP1 ISZERO PUSH3 0x1A7C JUMPI JUMPDEST PUSH1 0x20 DUP4 LT EQ PUSH3 0x1A66 JUMPI JUMP JUMPDEST PUSH4 0x4E487B71 PUSH1 0xE0 SHL PUSH1 0x0 MSTORE PUSH1 0x22 PUSH1 0x4 MSTORE PUSH1 0x24 PUSH1 0x0 REVERT JUMPDEST SWAP2 PUSH1 0x7F AND SWAP2 PUSH3 0x1A5A JUMP JUMPDEST PUSH1 0x80 DUP2 ADD SWAP1 DUP2 LT PUSH8 0xFFFFFFFFFFFFFFFF DUP3 GT OR PUSH3 0x4B5 JUMPI PUSH1 0x40 MSTORE JUMP JUMPDEST PUSH2 0x1C0 DUP2 ADD SWAP1 DUP2 LT PUSH8 0xFFFFFFFFFFFFFFFF DUP3 GT OR PUSH3 0x4B5 JUMPI PUSH1 0x40 MSTORE JUMP JUMPDEST SWAP1 PUSH1 0x1F DUP1 NOT SWAP2 ADD AND DUP2 ADD SWAP1 DUP2 LT PUSH8 0xFFFFFFFFFFFFFFFF DUP3 GT OR PUSH3 0x4B5 JUMPI PUSH1 0x40 MSTORE JUMP JUMPDEST SWAP1 PUSH1 0x40 MLOAD SWAP2 DUP3 PUSH1 0x0 DUP3 SLOAD PUSH3 0x1AFA DUP2 PUSH3 0x1A4A JUMP JUMPDEST SWAP1 DUP2 DUP5 MSTORE PUSH1 0x20 SWAP5 PUSH1 0x1 SWAP2 PUSH1 0x1 DUP2 AND SWAP1 DUP2 PUSH1 0x0 EQ PUSH3 0x1B72 JUMPI POP PUSH1 0x1 EQ PUSH3 0x1B2F JUMPI JUMPDEST POP POP POP PUSH3 0x1B2D SWAP3 POP SUB DUP4 PUSH3 0x1AC2 JUMP JUMPDEST JUMP JUMPDEST PUSH1 0x0 SWAP1 DUP2 MSTORE DUP6 DUP2 KECCAK256 SWAP6 SWAP4 POP SWAP2 SWAP1 JUMPDEST DUP2 DUP4 LT PUSH3 0x1B59 JUMPI POP POP PUSH3 0x1B2D SWAP4 POP DUP3 ADD ADD CODESIZE DUP1 DUP1 PUSH3 0x1B1C JUMP JUMPDEST DUP6 SLOAD DUP9 DUP5 ADD DUP6 ADD MSTORE SWAP5 DUP6 ADD SWAP5 DUP8 SWAP5 POP SWAP2 DUP4 ADD SWAP2 PUSH3 0x1B3D JUMP JUMPDEST SWAP3 POP POP POP PUSH3 0x1B2D SWAP5 SWAP3 POP PUSH1 0xFF NOT AND DUP3 DUP5 ADD MSTORE ISZERO ISZERO PUSH1 0x5 SHL DUP3 ADD ADD CODESIZE DUP1 DUP1 PUSH3 0x1B1C JUMP JUMPDEST SWAP2 SWAP1 DUP3 MLOAD SWAP3 DUP4 DUP3 MSTORE PUSH1 0x0 JUMPDEST DUP5 DUP2 LT PUSH3 0x1BC3 JUMPI POP POP DUP3 PUSH1 0x0 PUSH1 0x20 DUP1 SWAP5 SWAP6 DUP5 ADD ADD MSTORE PUSH1 0x1F DUP1 NOT SWAP2 ADD AND ADD ADD SWAP1 JUMP JUMPDEST PUSH1 0x20 DUP2 DUP4 ADD DUP2 ADD MLOAD DUP5 DUP4 ADD DUP3 ADD MSTORE ADD PUSH3 0x1BA1 JUMP JUMPDEST SWAP13 SWAP15 SWAP14 SWAP11 SWAP7 PUSH3 0x1C8C SWAP7 PUSH3 0x1C5D SWAP2 DUP16 PUSH2 0x1A0 SWAP16 SWAP13 SWAP7 PUSH3 0x1CAC SWAP15 SWAP10 PUSH3 0x1C3A PUSH3 0x1C7C SWAP11 PUSH3 0x1C9C SWAP16 SWAP9 PUSH3 0x1C6C SWAP11 PUSH3 0x1C49 SWAP6 PUSH2 0x1C0 SWAP3 PUSH1 0x1 DUP1 PUSH1 0xA0 SHL SUB SWAP3 DUP4 DUP1 SWAP3 AND DUP11 MSTORE AND PUSH1 0x20 DUP10 ADD MSTORE AND PUSH1 0x40 DUP8 ADD MSTORE DUP1 PUSH1 0x60 DUP8 ADD MSTORE DUP6 ADD SWAP1 PUSH3 0x1B96 JUMP JUMPDEST SWAP1 DUP4 DUP3 SUB PUSH1 0x80 DUP6 ADD MSTORE PUSH3 0x1B96 JUMP JUMPDEST SWAP3 PUSH1 0xA0 DUP3 ADD MSTORE PUSH1 0xC0 DUP2 DUP5 SUB SWAP2 ADD MSTORE PUSH3 0x1B96 JUMP JUMPDEST DUP14 DUP2 SUB PUSH1 0xE0 DUP16 ADD MSTORE SWAP1 PUSH3 0x1B96 JUMP JUMPDEST SWAP1 DUP12 DUP3 SUB PUSH2 0x100 DUP14 ADD MSTORE PUSH3 0x1B96 JUMP JUMPDEST SWAP1 DUP10 DUP3 SUB PUSH2 0x120 DUP12 ADD MSTORE PUSH3 0x1B96 JUMP JUMPDEST SWAP1 DUP8 DUP3 SUB PUSH2 0x140 DUP10 ADD MSTORE PUSH3 0x1B96 JUMP JUMPDEST SWAP1 DUP6 DUP3 SUB PUSH2 0x160 DUP8 ADD MSTORE PUSH3 0x1B96 JUMP JUMPDEST SWAP5 ISZERO ISZERO PUSH2 0x180 DUP5 ADD MSTORE ISZERO ISZERO SWAP2 ADD MSTORE JUMP JUMPDEST PUSH1 0x20 DUP1 DUP3 ADD SWAP1 DUP1 DUP4 MSTORE DUP4 MLOAD DUP1 SWAP3 MSTORE PUSH1 0x40 SWAP3 PUSH1 0x40 DUP2 ADD DUP3 PUSH1 0x40 DUP6 PUSH1 0x5 SHL DUP5 ADD ADD SWAP7 ADD SWAP5 PUSH1 0x0 SWAP3 JUMPDEST DUP6 DUP5 LT PUSH3 0x1CF4 JUMPI POP POP POP POP POP POP POP SWAP1 JUMP JUMPDEST SWAP1 SWAP2 SWAP3 SWAP4 SWAP5 SWAP6 SWAP7 DUP6 DUP1 DUP5 PUSH1 0x1 SWAP4 PUSH3 0x1E08 PUSH3 0x1DF3 PUSH3 0x1DDE PUSH3 0x1DC9 DUP16 PUSH3 0x1DA0 PUSH3 0x1D82 PUSH3 0x1D6E DUP16 SWAP4 PUSH3 0x1DB4 SWAP5 DUP16 PUSH1 0x3F NOT SWAP1 DUP13 SUB ADD SWAP1 MSTORE MLOAD SWAP10 PUSH2 0x1C0 SWAP1 DUP12 DUP16 DUP13 DUP16 DUP3 DUP2 SWAP4 PUSH1 0xA0 SHL SUB SWAP4 DUP5 SWAP3 DUP4 DUP3 MLOAD AND SWAP1 MSTORE ADD MLOAD AND SWAP1 DUP14 ADD MSTORE DUP2 DUP14 ADD MLOAD AND SWAP1 DUP12 ADD MSTORE PUSH1 0x60 SWAP1 DUP1 DUP3 DUP14 ADD MLOAD SWAP3 DUP13 ADD MSTORE DUP11 ADD SWAP1 PUSH3 0x1B96 JUMP JUMPDEST PUSH1 0x80 DUP1 DUP12 ADD MLOAD SWAP1 DUP11 DUP4 SUB SWAP1 DUP12 ADD MSTORE PUSH3 0x1B96 JUMP JUMPDEST PUSH1 0xA0 DUP1 DUP11 ADD MLOAD SWAP1 DUP10 ADD MSTORE PUSH1 0xC0 DUP1 DUP11 ADD MLOAD SWAP1 DUP10 DUP4 SUB SWAP1 DUP11 ADD MSTORE PUSH3 0x1B96 JUMP JUMPDEST PUSH1 0xE0 DUP1 DUP10 ADD MLOAD SWAP1 DUP9 DUP4 SUB SWAP1 DUP10 ADD MSTORE PUSH3 0x1B96 JUMP JUMPDEST PUSH2 0x100 DUP1 DUP9 ADD MLOAD SWAP1 DUP8 DUP4 SUB SWAP1 DUP9 ADD MSTORE PUSH3 0x1B96 JUMP JUMPDEST PUSH2 0x120 DUP1 DUP8 ADD MLOAD SWAP1 DUP7 DUP4 SUB SWAP1 DUP8 ADD MSTORE PUSH3 0x1B96 JUMP JUMPDEST PUSH2 0x140 DUP1 DUP7 ADD MLOAD SWAP1 DUP6 DUP4 SUB SWAP1 DUP7 ADD MSTORE PUSH3 0x1B96 JUMP JUMPDEST PUSH2 0x160 DUP1 DUP6 ADD MLOAD SWAP1 DUP5 DUP4 SUB SWAP1 DUP6 ADD MSTORE PUSH3 0x1B96 JUMP JUMPDEST SWAP2 PUSH2 0x180 DUP1 DUP3 ADD MLOAD ISZERO ISZERO SWAP1 DUP4 ADD MSTORE PUSH2 0x1A0 DUP1 SWAP2 ADD MLOAD ISZERO ISZERO SWAP2 ADD MSTORE SWAP10 ADD SWAP5 ADD SWAP5 ADD SWAP3 SWAP6 SWAP5 SWAP4 SWAP2 SWAP1 PUSH3 0x1CE2 JUMP JUMPDEST PUSH8 0xFFFFFFFFFFFFFFFF DUP2 GT PUSH3 0x4B5 JUMPI PUSH1 0x1F ADD PUSH1 0x1F NOT AND PUSH1 0x20 ADD SWAP1 JUMP JUMPDEST DUP2 PUSH1 0x1F DUP3 ADD SLT ISZERO PUSH3 0xD82 JUMPI DUP1 CALLDATALOAD SWAP1 PUSH3 0x1E6B DUP3 PUSH3 0x1E34 JUMP JUMPDEST SWAP3 PUSH3 0x1E7B PUSH1 0x40 MLOAD SWAP5 DUP6 PUSH3 0x1AC2 JUMP JUMPDEST DUP3 DUP5 MSTORE PUSH1 0x20 DUP4 DUP4 ADD ADD GT PUSH3 0xD82 JUMPI DUP2 PUSH1 0x0 SWAP3 PUSH1 0x20 DUP1 SWAP4 ADD DUP4 DUP7 ADD CALLDATACOPY DUP4 ADD ADD MSTORE SWAP1 JUMP JUMPDEST PUSH1 0xA SLOAD DUP2 LT ISZERO PUSH3 0xBEF JUMPI PUSH1 0xA PUSH1 0x0 MSTORE PUSH1 0x2 SHL PUSH32 0xC65A7BB8D6351C1CF70C95A316CC6A92839C986682D98BC35F958F4883F9D2A8 ADD SWAP1 PUSH1 0x0 SWAP1 JUMP JUMPDEST RETURNDATASIZE ISZERO PUSH3 0x1F09 JUMPI RETURNDATASIZE SWAP1 PUSH3 0x1EED DUP3 PUSH3 0x1E34 JUMP JUMPDEST SWAP2 PUSH3 0x1EFD PUSH1 0x40 MLOAD SWAP4 DUP5 PUSH3 0x1AC2 JUMP JUMPDEST DUP3 MSTORE RETURNDATASIZE PUSH1 0x0 PUSH1 0x20 DUP5 ADD RETURNDATACOPY JUMP JUMPDEST PUSH1 0x60 SWAP1 JUMP JUMPDEST ISZERO PUSH3 0x1F16 JUMPI JUMP JUMPDEST PUSH1 0x40 MLOAD PUSH3 0x461BCD PUSH1 0xE5 SHL DUP2 MSTORE PUSH1 0x20 PUSH1 0x4 DUP3 ADD MSTORE PUSH1 0x26 PUSH1 0x24 DUP3 ADD MSTORE PUSH32 0x4F6E6C7920746865206F776E65722063616E2063616C6C20746869732066756E PUSH1 0x44 DUP3 ADD MSTORE PUSH6 0x31BA34B7B717 PUSH1 0xD1 SHL PUSH1 0x64 DUP3 ADD MSTORE PUSH1 0x84 SWAP1 REVERT JUMPDEST ISZERO PUSH3 0x1F72 JUMPI JUMP JUMPDEST PUSH1 0x40 MLOAD PUSH3 0x461BCD PUSH1 0xE5 SHL DUP2 MSTORE PUSH1 0x20 PUSH1 0x4 DUP3 ADD MSTORE PUSH1 0x1F PUSH1 0x24 DUP3 ADD MSTORE PUSH32 0x5A65726F2061646472657373657320617265206E6F7420616C6C6F7765642E00 PUSH1 0x44 DUP3 ADD MSTORE PUSH1 0x64 SWAP1 REVERT JUMPDEST SWAP1 DUP2 PUSH1 0x20 SWAP2 SUB SLT PUSH3 0xD82 JUMPI MLOAD PUSH1 0x1 PUSH1 0x1 PUSH1 0xA0 SHL SUB DUP2 AND DUP2 SUB PUSH3 0xD82 JUMPI SWAP1 JUMP JUMPDEST SWAP2 SWAP1 DUP3 PUSH1 0x40 SWAP2 SUB SLT PUSH3 0xD82 JUMPI PUSH1 0x20 DUP3 MLOAD SWAP3 ADD MLOAD SWAP1 JUMP JUMPDEST ISZERO PUSH3 0x1FF7 JUMPI JUMP JUMPDEST PUSH1 0x40 MLOAD PUSH3 0x461BCD PUSH1 0xE5 SHL DUP2 MSTORE PUSH1 0x20 PUSH1 0x4 DUP3 ADD MSTORE PUSH1 0x1C PUSH1 0x24 DUP3 ADD MSTORE PUSH32 0x557365722050726F66696C6520646F7365206E6F742065786973742E00000000 PUSH1 0x44 DUP3 ADD MSTORE PUSH1 0x64 SWAP1 REVERT JUMPDEST SWAP1 DUP2 SLOAD PUSH8 0xFFFFFFFFFFFFFFFF DUP2 GT PUSH3 0x4B5 JUMPI PUSH1 0x20 SWAP3 PUSH1 0x5 SWAP4 PUSH1 0x40 SWAP5 PUSH1 0x40 MLOAD SWAP6 PUSH3 0x206E PUSH1 0x20 DUP7 PUSH1 0x5 SHL ADD DUP9 PUSH3 0x1AC2 JUMP JUMPDEST DUP5 DUP8 MSTORE PUSH1 0x20 DUP8 ADD SWAP4 PUSH1 0x0 MSTORE PUSH1 0x20 PUSH1 0x0 KECCAK256 SWAP2 PUSH1 0x0 SWAP5 JUMPDEST DUP7 DUP7 LT PUSH3 0x2094 JUMPI POP POP POP POP POP POP POP JUMP JUMPDEST PUSH1 0xD DUP6 PUSH1 0x1 SWAP3 DUP6 MLOAD PUSH3 0x20A7 DUP2 PUSH3 0x1AA4 JUMP JUMPDEST DUP5 DUP1 PUSH1 0xA0 SHL SUB DUP1 DUP10 SLOAD AND DUP3 MSTORE DUP1 DUP7 DUP11 ADD SLOAD AND DUP5 DUP4 ADD MSTORE PUSH1 0x2 DUP10 ADD SLOAD AND DUP8 DUP3 ADD MSTORE PUSH3 0x20D5 PUSH1 0x3 DUP10 ADD PUSH3 0x1AE5 JUMP JUMPDEST PUSH1 0x60 DUP3 ADD MSTORE PUSH3 0x20E8 PUSH1 0x4 DUP10 ADD PUSH3 0x1AE5 JUMP JUMPDEST PUSH1 0x80 DUP3 ADD MSTORE DUP6 DUP9 ADD SLOAD PUSH1 0xA0 DUP3 ADD MSTORE PUSH3 0x2104 PUSH1 0x6 DUP10 ADD PUSH3 0x1AE5 JUMP JUMPDEST PUSH1 0xC0 DUP3 ADD MSTORE PUSH3 0x2117 PUSH1 0x7 DUP10 ADD PUSH3 0x1AE5 JUMP JUMPDEST PUSH1 0xE0 DUP3 ADD MSTORE PUSH1 0x8 PUSH3 0x212B DUP2 DUP11 ADD PUSH3 0x1AE5 JUMP JUMPDEST PUSH2 0x100 DUP4 ADD MSTORE PUSH3 0x213F PUSH1 0x9 DUP11 ADD PUSH3 0x1AE5 JUMP JUMPDEST PUSH2 0x120 DUP4 ADD MSTORE PUSH3 0x2153 PUSH1 0xA DUP11 ADD PUSH3 0x1AE5 JUMP JUMPDEST PUSH2 0x140 DUP4 ADD MSTORE PUSH3 0x2167 PUSH1 0xB DUP11 ADD PUSH3 0x1AE5 JUMP JUMPDEST PUSH2 0x160 DUP4 ADD MSTORE PUSH1 0xC DUP10 ADD SLOAD PUSH1 0xFF SWAP2 DUP3 DUP3 AND ISZERO ISZERO PUSH2 0x180 DUP6 ADD MSTORE SHR AND ISZERO ISZERO PUSH2 0x1A0 DUP3 ADD MSTORE DUP2 MSTORE ADD SWAP5 ADD SWAP6 ADD SWAP5 SWAP3 PUSH3 0x2083 JUMP JUMPDEST SWAP1 DUP2 PUSH1 0x20 SWAP2 SUB SLT PUSH3 0xD82 JUMPI MLOAD PUSH1 0xFF DUP2 AND DUP2 SUB PUSH3 0xD82 JUMPI SWAP1 JUMP JUMPDEST PUSH1 0xFF AND PUSH1 0x4D DUP2 GT PUSH3 0x21C6 JUMPI PUSH1 0xA EXP SWAP1 JUMP JUMPDEST PUSH4 0x4E487B71 PUSH1 0xE0 SHL PUSH1 0x0 MSTORE PUSH1 0x11 PUSH1 0x4 MSTORE PUSH1 0x24 PUSH1 0x0 REVERT JUMPDEST DUP2 DUP2 MUL SWAP3 SWAP2 DUP2 ISZERO SWAP2 DUP5 DIV EQ OR ISZERO PUSH3 0x21C6 JUMPI JUMP JUMPDEST SWAP2 SWAP1 DUP3 SUB SWAP2 DUP3 GT PUSH3 0x21C6 JUMPI JUMP JUMPDEST DUP2 DUP2 LT PUSH3 0x220A JUMPI POP POP JUMP JUMPDEST PUSH1 0x0 DUP2 SSTORE PUSH1 0x1 ADD PUSH3 0x21FE JUMP JUMPDEST SWAP2 SWAP1 PUSH1 0x1 DUP1 PUSH1 0xA0 SHL SUB SWAP3 DUP4 DUP3 MLOAD AND SWAP4 PUSH1 0x1 PUSH1 0x1 PUSH1 0x60 SHL SUB PUSH1 0xA0 SHL SWAP5 DUP6 DUP4 SLOAD AND OR DUP3 SSTORE PUSH1 0x1 SWAP1 DUP2 DUP4 ADD SWAP6 PUSH1 0x20 SWAP7 DUP3 DUP9 DUP8 ADD MLOAD AND DUP3 DUP3 SLOAD AND OR SWAP1 SSTORE PUSH1 0x2 DUP5 ADD SWAP2 PUSH1 0x40 DUP7 ADD MLOAD AND SWAP1 DUP3 SLOAD AND OR SWAP1 SSTORE PUSH1 0x3 SWAP1 DUP2 DUP4 ADD SWAP1 PUSH1 0x60 DUP6 ADD MLOAD SWAP1 DUP2 MLOAD SWAP3 PUSH8 0xFFFFFFFFFFFFFFFF SWAP4 DUP5 DUP2 GT PUSH3 0x4B5 JUMPI PUSH3 0x2290 DUP3 SLOAD PUSH3 0x1A4A JUMP JUMPDEST SWAP4 PUSH1 0x1F SWAP5 DUP12 DUP7 DUP3 GT PUSH3 0x2AAD JUMPI JUMPDEST POP POP DUP11 SWAP1 DUP6 DUP4 GT PUSH1 0x1 EQ PUSH3 0x2A43 JUMPI PUSH3 0x22D2 SWAP3 SWAP2 PUSH1 0x0 SWAP2 DUP4 PUSH3 0x25AF JUMPI JUMPDEST POP POP DUP2 PUSH1 0x1 SHL SWAP2 PUSH1 0x0 NOT SWAP1 PUSH1 0x3 SHL SHR NOT AND OR SWAP1 JUMP JUMPDEST SWAP1 SSTORE JUMPDEST PUSH1 0x4 SWAP8 DUP9 DUP7 ADD PUSH1 0x80 DUP9 ADD MLOAD DUP1 MLOAD SWAP1 DUP7 DUP3 GT PUSH3 0x2A2E JUMPI PUSH3 0x22F7 DUP4 SLOAD PUSH3 0x1A4A JUMP JUMPDEST DUP7 DUP2 GT PUSH3 0x29F1 JUMPI JUMPDEST POP DUP4 SWAP1 DUP7 DUP4 GT PUSH1 0x1 EQ PUSH3 0x298B JUMPI PUSH3 0x2332 SWAP3 SWAP2 PUSH1 0x0 SWAP2 DUP4 PUSH3 0x25AF JUMPI POP POP DUP2 PUSH1 0x1 SHL SWAP2 PUSH1 0x0 NOT SWAP1 PUSH1 0x3 SHL SHR NOT AND OR SWAP1 JUMP JUMPDEST SWAP1 SSTORE JUMPDEST PUSH1 0x5 SWAP5 PUSH1 0xA0 DUP9 ADD MLOAD DUP7 DUP9 ADD SSTORE PUSH1 0x6 DUP8 ADD PUSH1 0xC0 DUP10 ADD MLOAD DUP1 MLOAD SWAP1 DUP8 DUP3 GT PUSH3 0x271E JUMPI PUSH3 0x2361 DUP4 SLOAD PUSH3 0x1A4A JUMP JUMPDEST DUP8 DUP2 GT PUSH3 0x295B JUMPI JUMPDEST POP DUP5 SWAP1 DUP8 DUP4 GT PUSH1 0x1 EQ PUSH3 0x28F5 JUMPI PUSH3 0x239C SWAP3 SWAP2 PUSH1 0x0 SWAP2 DUP4 PUSH3 0x25AF JUMPI POP POP DUP2 PUSH1 0x1 SHL SWAP2 PUSH1 0x0 NOT SWAP1 PUSH1 0x3 SHL SHR NOT AND OR SWAP1 JUMP JUMPDEST SWAP1 SSTORE JUMPDEST PUSH1 0x7 DUP8 ADD PUSH1 0xE0 DUP10 ADD MLOAD DUP1 MLOAD SWAP1 DUP8 DUP3 GT PUSH3 0x271E JUMPI PUSH3 0x23BF DUP4 SLOAD PUSH3 0x1A4A JUMP JUMPDEST DUP8 DUP2 GT PUSH3 0x28C5 JUMPI JUMPDEST POP DUP5 SWAP1 DUP8 DUP4 GT PUSH1 0x1 EQ PUSH3 0x285F JUMPI PUSH3 0x23FA SWAP3 SWAP2 PUSH1 0x0 SWAP2 DUP4 PUSH3 0x25AF JUMPI POP POP DUP2 PUSH1 0x1 SHL SWAP2 PUSH1 0x0 NOT SWAP1 PUSH1 0x3 SHL SHR NOT AND OR SWAP1 JUMP JUMPDEST SWAP1 SSTORE JUMPDEST PUSH1 0x8 DUP8 ADD PUSH2 0x100 DUP10 ADD MLOAD DUP1 MLOAD SWAP1 DUP8 DUP3 GT PUSH3 0x271E JUMPI PUSH3 0x241E DUP4 SLOAD PUSH3 0x1A4A JUMP JUMPDEST DUP8 DUP2 GT PUSH3 0x282F JUMPI JUMPDEST POP DUP5 SWAP1 DUP8 DUP4 GT PUSH1 0x1 EQ PUSH3 0x27C9 JUMPI PUSH3 0x2459 SWAP3 SWAP2 PUSH1 0x0 SWAP2 DUP4 PUSH3 0x25AF JUMPI POP POP DUP2 PUSH1 0x1 SHL SWAP2 PUSH1 0x0 NOT SWAP1 PUSH1 0x3 SHL SHR NOT AND OR SWAP1 JUMP JUMPDEST SWAP1 SSTORE JUMPDEST PUSH1 0x9 DUP8 ADD PUSH2 0x120 DUP10 ADD MLOAD DUP1 MLOAD SWAP1 DUP8 DUP3 GT PUSH3 0x271E JUMPI PUSH3 0x247D DUP4 SLOAD PUSH3 0x1A4A JUMP JUMPDEST DUP8 DUP2 GT PUSH3 0x2799 JUMPI JUMPDEST POP DUP5 SWAP1 DUP8 DUP4 GT PUSH1 0x1 EQ PUSH3 0x2733 JUMPI PUSH3 0x24B8 SWAP3 SWAP2 PUSH1 0x0 SWAP2 DUP4 PUSH3 0x25AF JUMPI POP POP DUP2 PUSH1 0x1 SHL SWAP2 PUSH1 0x0 NOT SWAP1 PUSH1 0x3 SHL SHR NOT AND OR SWAP1 JUMP JUMPDEST SWAP1 SSTORE JUMPDEST PUSH1 0xA DUP8 ADD PUSH2 0x140 DUP10 ADD MLOAD DUP1 MLOAD SWAP1 DUP8 DUP3 GT PUSH3 0x271E JUMPI PUSH3 0x24DC DUP4 SLOAD PUSH3 0x1A4A JUMP JUMPDEST DUP8 DUP2 GT PUSH3 0x26E3 JUMPI JUMPDEST POP DUP5 SWAP1 DUP8 DUP4 GT PUSH1 0x1 EQ PUSH3 0x267D JUMPI PUSH3 0x2517 SWAP3 SWAP2 PUSH1 0x0 SWAP2 DUP4 PUSH3 0x25AF JUMPI POP POP DUP2 PUSH1 0x1 SHL SWAP2 PUSH1 0x0 NOT SWAP1 PUSH1 0x3 SHL SHR NOT AND OR SWAP1 JUMP JUMPDEST SWAP1 SSTORE JUMPDEST PUSH1 0xB DUP8 ADD SWAP6 PUSH2 0x160 DUP10 ADD MLOAD SWAP11 DUP12 MLOAD SWAP7 DUP8 GT PUSH3 0x2668 JUMPI POP PUSH3 0x253D DUP8 SLOAD PUSH3 0x1A4A JUMP JUMPDEST DUP6 DUP2 GT PUSH3 0x262B JUMPI JUMPDEST POP POP DUP2 SWAP4 DUP6 GT PUSH1 0x1 EQ PUSH3 0x25BB JUMPI POP POP POP SWAP1 DUP1 PUSH3 0x2580 SWAP3 PUSH1 0xC SWAP7 SWAP8 SWAP9 PUSH1 0x0 SWAP3 PUSH3 0x25AF JUMPI POP POP DUP2 PUSH1 0x1 SHL SWAP2 PUSH1 0x0 NOT SWAP1 PUSH1 0x3 SHL SHR NOT AND OR SWAP1 JUMP JUMPDEST SWAP1 SSTORE JUMPDEST ADD SWAP1 PUSH2 0x180 DUP2 ADD MLOAD ISZERO ISZERO SWAP1 PUSH1 0xFF PUSH2 0xFF00 PUSH2 0x1A0 DUP6 SLOAD SWAP4 ADD MLOAD ISZERO ISZERO PUSH1 0x8 SHL AND SWAP3 AND SWAP1 PUSH2 0xFFFF NOT AND OR OR SWAP1 SSTORE JUMP JUMPDEST ADD MLOAD SWAP1 POP CODESIZE DUP1 PUSH3 0x22BD JUMP JUMPDEST SWAP1 SWAP2 SWAP4 SWAP3 PUSH1 0x1F NOT DUP5 AND SWAP10 DUP7 PUSH1 0x0 MSTORE DUP4 PUSH1 0x0 KECCAK256 SWAP4 PUSH1 0x0 SWAP1 JUMPDEST DUP13 DUP3 LT PUSH3 0x2613 JUMPI POP POP DUP5 PUSH1 0xC SWAP10 SWAP11 SWAP12 LT PUSH3 0x25F8 JUMPI JUMPDEST POP POP POP POP DUP2 SHL ADD SWAP1 SSTORE PUSH3 0x2583 JUMP JUMPDEST ADD MLOAD SWAP1 PUSH1 0xF8 DUP5 PUSH1 0x0 NOT SWAP3 SHL AND SHR NOT AND SWAP1 SSTORE CODESIZE DUP1 DUP1 DUP1 PUSH3 0x25E9 JUMP JUMPDEST DUP1 DUP9 DUP6 SWAP8 DUP3 SWAP5 SWAP7 DUP7 ADD MLOAD DUP2 SSTORE ADD SWAP7 ADD SWAP4 ADD SWAP1 PUSH3 0x25D2 JUMP JUMPDEST PUSH3 0x2656 SWAP2 DUP9 PUSH1 0x0 MSTORE DUP5 PUSH1 0x0 KECCAK256 SWAP1 DUP8 DUP1 DUP11 ADD DUP3 SHR DUP4 ADD SWAP4 DUP8 DUP12 LT PUSH3 0x265E JUMPI JUMPDEST ADD SWAP1 SHR ADD SWAP1 PUSH3 0x21FE JUMP JUMPDEST CODESIZE DUP1 PUSH3 0x2546 JUMP JUMPDEST SWAP4 POP DUP3 SWAP4 PUSH3 0x264B JUMP JUMPDEST PUSH1 0x41 SWAP1 PUSH4 0x4E487B71 PUSH1 0xE0 SHL PUSH1 0x0 MSTORE MSTORE PUSH1 0x24 PUSH1 0x0 REVERT JUMPDEST DUP7 SWAP3 SWAP2 PUSH1 0x1F NOT DUP4 AND SWAP2 DUP6 PUSH1 0x0 MSTORE DUP8 PUSH1 0x0 KECCAK256 SWAP3 PUSH1 0x0 JUMPDEST DUP10 DUP3 DUP3 LT PUSH3 0x26CC JUMPI POP POP DUP5 GT PUSH3 0x26B3 JUMPI JUMPDEST POP POP POP DUP2 SHL ADD SWAP1 SSTORE PUSH3 0x251A JUMP JUMPDEST ADD MLOAD PUSH1 0x0 NOT DUP4 DUP8 SHL PUSH1 0xF8 AND SHR NOT AND SWAP1 SSTORE CODESIZE DUP1 DUP1 PUSH3 0x26A5 JUMP JUMPDEST DUP4 DUP6 ADD MLOAD DUP7 SSTORE DUP12 SWAP8 SWAP1 SWAP6 ADD SWAP5 SWAP4 DUP5 ADD SWAP4 ADD PUSH3 0x2692 JUMP JUMPDEST PUSH3 0x270D SWAP1 DUP5 PUSH1 0x0 MSTORE DUP7 PUSH1 0x0 KECCAK256 DUP10 DUP1 DUP7 ADD DUP14 SHR DUP3 ADD SWAP3 DUP10 DUP8 LT PUSH3 0x2714 JUMPI JUMPDEST ADD DUP13 SHR ADD SWAP1 PUSH3 0x21FE JUMP JUMPDEST CODESIZE PUSH3 0x24E5 JUMP JUMPDEST SWAP3 POP DUP2 SWAP3 PUSH3 0x2702 JUMP JUMPDEST PUSH1 0x41 DUP14 PUSH4 0x4E487B71 PUSH1 0xE0 SHL PUSH1 0x0 MSTORE MSTORE PUSH1 0x24 PUSH1 0x0 REVERT JUMPDEST DUP7 SWAP3 SWAP2 PUSH1 0x1F NOT DUP4 AND SWAP2 DUP6 PUSH1 0x0 MSTORE DUP8 PUSH1 0x0 KECCAK256 SWAP3 PUSH1 0x0 JUMPDEST DUP10 DUP3 DUP3 LT PUSH3 0x2782 JUMPI POP POP DUP5 GT PUSH3 0x2769 JUMPI JUMPDEST POP POP POP DUP2 SHL ADD SWAP1 SSTORE PUSH3 0x24BB JUMP JUMPDEST ADD MLOAD PUSH1 0x0 NOT DUP4 DUP8 SHL PUSH1 0xF8 AND SHR NOT AND SWAP1 SSTORE CODESIZE DUP1 DUP1 PUSH3 0x275B JUMP JUMPDEST DUP4 DUP6 ADD MLOAD DUP7 SSTORE DUP12 SWAP8 SWAP1 SWAP6 ADD SWAP5 SWAP4 DUP5 ADD SWAP4 ADD PUSH3 0x2748 JUMP JUMPDEST PUSH3 0x27C2 SWAP1 DUP5 PUSH1 0x0 MSTORE DUP7 PUSH1 0x0 KECCAK256 DUP10 DUP1 DUP7 ADD DUP14 SHR DUP3 ADD SWAP3 DUP10 DUP8 LT PUSH3 0x2714 JUMPI ADD DUP13 SHR ADD SWAP1 PUSH3 0x21FE JUMP JUMPDEST CODESIZE PUSH3 0x2486 JUMP JUMPDEST DUP7 SWAP3 SWAP2 PUSH1 0x1F NOT DUP4 AND SWAP2 DUP6 PUSH1 0x0 MSTORE DUP8 PUSH1 0x0 KECCAK256 SWAP3 PUSH1 0x0 JUMPDEST DUP10 DUP3 DUP3 LT PUSH3 0x2818 JUMPI POP POP DUP5 GT PUSH3 0x27FF JUMPI JUMPDEST POP POP POP DUP2 SHL ADD SWAP1 SSTORE PUSH3 0x245C JUMP JUMPDEST ADD MLOAD PUSH1 0x0 NOT DUP4 DUP8 SHL PUSH1 0xF8 AND SHR NOT AND SWAP1 SSTORE CODESIZE DUP1 DUP1 PUSH3 0x27F1 JUMP JUMPDEST DUP4 DUP6 ADD MLOAD DUP7 SSTORE DUP12 SWAP8 SWAP1 SWAP6 ADD SWAP5 SWAP4 DUP5 ADD SWAP4 ADD PUSH3 0x27DE JUMP JUMPDEST PUSH3 0x2858 SWAP1 DUP5 PUSH1 0x0 MSTORE DUP7 PUSH1 0x0 KECCAK256 DUP10 DUP1 DUP7 ADD DUP14 SHR DUP3 ADD SWAP3 DUP10 DUP8 LT PUSH3 0x2714 JUMPI ADD DUP13 SHR ADD SWAP1 PUSH3 0x21FE JUMP JUMPDEST CODESIZE PUSH3 0x2427 JUMP JUMPDEST DUP7 SWAP3 SWAP2 PUSH1 0x1F NOT DUP4 AND SWAP2 DUP6 PUSH1 0x0 MSTORE DUP8 PUSH1 0x0 KECCAK256 SWAP3 PUSH1 0x0 JUMPDEST DUP10 DUP3 DUP3 LT PUSH3 0x28AE JUMPI POP POP DUP5 GT PUSH3 0x2895 JUMPI JUMPDEST POP POP POP DUP2 SHL ADD SWAP1 SSTORE PUSH3 0x23FD JUMP JUMPDEST ADD MLOAD PUSH1 0x0 NOT DUP4 DUP8 SHL PUSH1 0xF8 AND SHR NOT AND SWAP1 SSTORE CODESIZE DUP1 DUP1 PUSH3 0x2887 JUMP JUMPDEST DUP4 DUP6 ADD MLOAD DUP7 SSTORE DUP12 SWAP8 SWAP1 SWAP6 ADD SWAP5 SWAP4 DUP5 ADD SWAP4 ADD PUSH3 0x2874 JUMP JUMPDEST PUSH3 0x28EE SWAP1 DUP5 PUSH1 0x0 MSTORE DUP7 PUSH1 0x0 KECCAK256 DUP10 DUP1 DUP7 ADD DUP14 SHR DUP3 ADD SWAP3 DUP10 DUP8 LT PUSH3 0x2714 JUMPI ADD DUP13 SHR ADD SWAP1 PUSH3 0x21FE JUMP JUMPDEST CODESIZE PUSH3 0x23C8 JUMP JUMPDEST DUP7 SWAP3 SWAP2 PUSH1 0x1F NOT DUP4 AND SWAP2 DUP6 PUSH1 0x0 MSTORE DUP8 PUSH1 0x0 KECCAK256 SWAP3 PUSH1 0x0 JUMPDEST DUP10 DUP3 DUP3 LT PUSH3 0x2944 JUMPI POP POP DUP5 GT PUSH3 0x292B JUMPI JUMPDEST POP POP POP DUP2 SHL ADD SWAP1 SSTORE PUSH3 0x239F JUMP JUMPDEST ADD MLOAD PUSH1 0x0 NOT DUP4 DUP8 SHL PUSH1 0xF8 AND SHR NOT AND SWAP1 SSTORE CODESIZE DUP1 DUP1 PUSH3 0x291D JUMP JUMPDEST DUP4 DUP6 ADD MLOAD DUP7 SSTORE DUP12 SWAP8 SWAP1 SWAP6 ADD SWAP5 SWAP4 DUP5 ADD SWAP4 ADD PUSH3 0x290A JUMP JUMPDEST PUSH3 0x2984 SWAP1 DUP5 PUSH1 0x0 MSTORE DUP7 PUSH1 0x0 KECCAK256 DUP10 DUP1 DUP7 ADD DUP14 SHR DUP3 ADD SWAP3 DUP10 DUP8 LT PUSH3 0x2714 JUMPI ADD DUP13 SHR ADD SWAP1 PUSH3 0x21FE JUMP JUMPDEST CODESIZE PUSH3 0x236A JUMP JUMPDEST DUP6 SWAP3 SWAP2 PUSH1 0x1F NOT DUP4 AND SWAP2 DUP6 PUSH1 0x0 MSTORE DUP7 PUSH1 0x0 KECCAK256 SWAP3 PUSH1 0x0 JUMPDEST DUP9 DUP3 DUP3 LT PUSH3 0x29DA JUMPI POP POP DUP5 GT PUSH3 0x29C1 JUMPI JUMPDEST POP POP POP DUP2 SHL ADD SWAP1 SSTORE PUSH3 0x2335 JUMP JUMPDEST ADD MLOAD PUSH1 0x0 NOT DUP4 DUP12 SHL PUSH1 0xF8 AND SHR NOT AND SWAP1 SSTORE CODESIZE DUP1 DUP1 PUSH3 0x29B3 JUMP JUMPDEST DUP4 DUP6 ADD MLOAD DUP7 SSTORE DUP11 SWAP8 SWAP1 SWAP6 ADD SWAP5 SWAP4 DUP5 ADD SWAP4 ADD PUSH3 0x29A0 JUMP JUMPDEST PUSH3 0x2A1D SWAP1 DUP5 PUSH1 0x0 MSTORE DUP6 PUSH1 0x0 KECCAK256 DUP9 DUP1 DUP7 ADD PUSH1 0x5 SHR DUP3 ADD SWAP3 DUP9 DUP8 LT PUSH3 0x2A24 JUMPI JUMPDEST ADD PUSH1 0x5 SHR ADD SWAP1 PUSH3 0x21FE JUMP JUMPDEST CODESIZE PUSH3 0x2300 JUMP JUMPDEST SWAP3 POP DUP2 SWAP3 PUSH3 0x2A11 JUMP JUMPDEST PUSH1 0x41 DUP13 PUSH4 0x4E487B71 PUSH1 0xE0 SHL PUSH1 0x0 MSTORE MSTORE PUSH1 0x24 PUSH1 0x0 REVERT JUMPDEST DUP5 SWAP3 SWAP2 DUP13 SWAP2 PUSH1 0x1F NOT DUP5 AND DUP7 PUSH1 0x0 MSTORE DUP4 PUSH1 0x0 KECCAK256 SWAP4 PUSH1 0x0 SWAP1 JUMPDEST DUP3 DUP3 LT PUSH3 0x2A93 JUMPI POP POP DUP5 GT PUSH3 0x2A7A JUMPI JUMPDEST POP POP POP DUP2 SHL ADD SWAP1 SSTORE PUSH3 0x22D5 JUMP JUMPDEST ADD MLOAD PUSH1 0x0 NOT DUP4 DUP11 SHL PUSH1 0xF8 AND SHR NOT AND SWAP1 SSTORE CODESIZE DUP1 DUP1 PUSH3 0x2A6C JUMP JUMPDEST DUP5 DUP5 ADD MLOAD DUP7 SSTORE DUP10 SWAP8 SWAP1 SWAP6 ADD SWAP5 SWAP4 DUP5 ADD SWAP4 SWAP1 DUP2 ADD SWAP1 PUSH3 0x2A5A JUMP JUMPDEST PUSH3 0x2AD8 SWAP2 DUP6 PUSH1 0x0 MSTORE DUP8 DUP3 PUSH1 0x0 KECCAK256 SWAP2 DUP2 DUP8 ADD PUSH1 0x5 SHR DUP4 ADD SWAP4 DUP8 LT PUSH3 0x2A24 JUMPI ADD PUSH1 0x5 SHR ADD SWAP1 PUSH3 0x21FE JUMP JUMPDEST CODESIZE DUP12 PUSH3 0x229E JUMP JUMPDEST SWAP1 DUP2 SLOAD PUSH1 0x1 PUSH1 0x40 SHL DUP2 LT ISZERO PUSH3 0x4B5 JUMPI PUSH1 0x1 DUP2 ADD DUP1 DUP5 SSTORE DUP2 LT ISZERO PUSH3 0xBEF JUMPI PUSH3 0x1B2D SWAP3 PUSH1 0x0 MSTORE PUSH1 0xD PUSH1 0x20 PUSH1 0x0 KECCAK256 SWAP2 MUL ADD PUSH3 0x2217 JUMP JUMPDEST DUP1 SLOAD SWAP1 PUSH1 0x1 PUSH1 0x40 SHL DUP3 LT ISZERO PUSH3 0x4B5 JUMPI PUSH1 0x1 DUP3 ADD DUP1 DUP3 SSTORE DUP3 LT ISZERO PUSH3 0xBEF JUMPI PUSH1 0x0 MSTORE PUSH1 0x20 PUSH1 0x0 KECCAK256 ADD SWAP1 PUSH1 0x1 DUP1 PUSH1 0xA0 SHL SUB AND PUSH1 0x1 PUSH1 0x1 PUSH1 0x60 SHL SUB PUSH1 0xA0 SHL DUP3 SLOAD AND OR SWAP1 SSTORE JUMP JUMPDEST PUSH1 0x2 PUSH1 0x0 SLOAD EQ PUSH3 0x2B6D JUMPI PUSH1 0x2 PUSH1 0x0 SSTORE JUMP JUMPDEST PUSH1 0x40 MLOAD PUSH4 0x3EE5AEB5 PUSH1 0xE0 SHL DUP2 MSTORE PUSH1 0x4 SWAP1 REVERT JUMPDEST SWAP1 DUP2 PUSH1 0x20 SWAP2 SUB SLT PUSH3 0xD82 JUMPI MLOAD DUP1 ISZERO ISZERO DUP2 SUB PUSH3 0xD82 JUMPI SWAP1 JUMP JUMPDEST PUSH3 0x2C03 SWAP3 PUSH1 0x20 SWAP3 SWAP1 SWAP2 SWAP1 PUSH1 0x1 PUSH1 0x1 PUSH1 0xA0 SHL SUB SWAP1 PUSH3 0x2BBC DUP3 DUP5 AND ISZERO ISZERO PUSH3 0x1F6A JUMP JUMPDEST AND SWAP1 PUSH3 0x2BCB DUP3 ISZERO ISZERO PUSH3 0x1F6A JUMP JUMPDEST PUSH1 0x40 MLOAD PUSH4 0x95EA7B3 PUSH1 0xE0 SHL DUP2 MSTORE PUSH1 0x1 PUSH1 0x1 PUSH1 0xA0 SHL SUB SWAP1 SWAP2 AND PUSH1 0x4 DUP3 ADD MSTORE PUSH1 0x24 DUP2 ADD SWAP3 SWAP1 SWAP3 MSTORE SWAP1 SWAP3 DUP4 SWAP2 SWAP1 DUP3 SWAP1 PUSH1 0x0 SWAP1 DUP3 SWAP1 PUSH1 0x44 DUP3 ADD SWAP1 JUMP JUMPDEST SUB SWAP3 GAS CALL DUP1 ISZERO PUSH3 0x2C3E JUMPI PUSH3 0x2C1A JUMPI JUMPDEST POP PUSH1 0x1 SWAP1 JUMP JUMPDEST PUSH3 0x2C36 SWAP1 PUSH1 0x20 RETURNDATASIZE PUSH1 0x20 GT PUSH3 0x16ED JUMPI PUSH3 0x16DC DUP2 DUP4 PUSH3 0x1AC2 JUMP JUMPDEST POP CODESIZE PUSH3 0x2C14 JUMP JUMPDEST PUSH1 0x40 MLOAD RETURNDATASIZE PUSH1 0x0 DUP3 RETURNDATACOPY RETURNDATASIZE SWAP1 REVERT JUMPDEST PUSH1 0x1 PUSH1 0x1 PUSH1 0xA0 SHL SUB SWAP1 DUP2 AND PUSH3 0x2C62 DUP2 ISZERO ISZERO PUSH3 0x1F6A JUMP JUMPDEST PUSH1 0xA SLOAD SWAP2 PUSH1 0x0 JUMPDEST DUP4 DUP2 LT PUSH3 0x2C7A JUMPI POP POP POP POP PUSH1 0x0 SWAP1 JUMP JUMPDEST DUP3 DUP3 PUSH3 0x2C87 DUP4 PUSH3 0x1E9E JUMP JUMPDEST POP SLOAD AND EQ PUSH3 0x2C99 JUMPI PUSH1 0x1 ADD PUSH3 0x2C69 JUMP JUMPDEST POP POP POP POP PUSH1 0x1 SWAP1 JUMP JUMPDEST PUSH3 0x2CAE DUP2 SLOAD PUSH3 0x1A4A JUMP JUMPDEST SWAP1 DUP2 PUSH3 0x2CB9 JUMPI POP POP JUMP JUMPDEST DUP2 PUSH1 0x1F PUSH1 0x0 SWAP4 GT PUSH1 0x1 EQ PUSH3 0x2CCC JUMPI POP SSTORE JUMP JUMPDEST SWAP1 DUP1 DUP4 SWAP2 DUP3 MSTORE PUSH3 0x2CED PUSH1 0x1F PUSH1 0x20 DUP5 KECCAK256 SWAP5 ADD PUSH1 0x5 SHR DUP5 ADD PUSH1 0x1 DUP6 ADD PUSH3 0x21FE JUMP JUMPDEST SSTORE SSTORE JUMP JUMPDEST PUSH1 0x1 DUP1 PUSH1 0xA0 SHL SUB SWAP1 DUP2 DUP4 MLOAD AND PUSH1 0x1 PUSH1 0x1 PUSH1 0x60 SHL SUB PUSH1 0xA0 SHL SWAP1 DUP2 DUP4 SLOAD AND OR DUP3 SSTORE PUSH1 0x1 SWAP4 PUSH1 0x1 DUP4 ADD PUSH1 0x20 SWAP3 DUP6 DUP5 DUP5 ADD MLOAD AND SWAP1 DUP3 SLOAD AND OR SWAP1 SSTORE PUSH1 0x2 SWAP3 PUSH1 0x2 DUP2 ADD SWAP4 PUSH1 0x40 DUP4 ADD MLOAD SWAP6 DUP7 MLOAD SWAP1 PUSH8 0xFFFFFFFFFFFFFFFF DUP3 GT PUSH3 0x4B5 JUMPI PUSH1 0x1 PUSH1 0x40 SHL SWAP8 DUP9 DUP4 GT PUSH3 0x4B5 JUMPI DUP7 SWAP1 DUP9 SLOAD DUP5 DUP11 SSTORE DUP1 DUP6 LT PUSH3 0x2F08 JUMPI JUMPDEST POP ADD SWAP1 PUSH1 0x0 SWAP8 DUP9 MSTORE DUP7 DUP9 KECCAK256 SWAP1 DUP11 DUP10 JUMPDEST DUP6 DUP2 LT PUSH3 0x2EF3 JUMPI POP POP POP POP POP POP PUSH1 0x60 PUSH1 0x3 DUP1 SWAP4 ADD SWAP4 ADD MLOAD SWAP2 DUP3 MLOAD SWAP7 DUP8 GT PUSH3 0xBDB JUMPI DUP4 SLOAD DUP8 DUP6 SSTORE DUP6 SWAP4 SWAP3 SWAP2 DUP2 DUP10 LT PUSH3 0x2DE5 JUMPI JUMPDEST POP POP POP SWAP2 DUP5 MSTORE DUP3 DUP5 KECCAK256 SWAP2 ADD JUMPDEST DUP5 DUP5 LT PUSH3 0x2DC6 JUMPI POP POP POP POP POP POP JUMP JUMPDEST PUSH1 0xD DUP4 DUP3 PUSH3 0x2DD8 DUP10 SWAP5 MLOAD DUP7 PUSH3 0x2217 JUMP JUMPDEST ADD SWAP3 ADD SWAP4 ADD SWAP3 SWAP1 PUSH3 0x2DB6 JUMP JUMPDEST SWAP1 SWAP2 SWAP3 SWAP4 POP PUSH1 0xD SWAP3 DUP3 PUSH1 0xD MUL SWAP3 PUSH1 0xD DUP5 DIV SUB PUSH3 0x2EDF JUMPI DUP9 PUSH1 0xD MUL PUSH1 0xD DUP2 DIV DUP11 SUB PUSH3 0x2ECB JUMPI DUP7 DUP10 MSTORE DUP8 DUP10 KECCAK256 DUP9 SWAP7 SWAP6 SWAP5 DUP2 ADD SWAP4 SWAP3 SWAP2 ADD JUMPDEST DUP4 DUP2 LT PUSH3 0x2E2C JUMPI POP POP PUSH3 0x2DAA JUMP JUMPDEST DUP5 SWAP6 SWAP7 POP DUP10 DUP2 SWAP6 SWAP3 SWAP4 SWAP5 SWAP6 SSTORE DUP10 DUP13 DUP3 ADD SSTORE DUP10 DUP4 DUP3 ADD SSTORE PUSH3 0x2E4F DUP5 DUP3 ADD PUSH3 0x2CA2 JUMP JUMPDEST PUSH3 0x2E5D PUSH1 0x4 DUP3 ADD PUSH3 0x2CA2 JUMP JUMPDEST DUP10 PUSH1 0x5 DUP3 ADD SSTORE PUSH3 0x2E71 PUSH1 0x6 DUP3 ADD PUSH3 0x2CA2 JUMP JUMPDEST PUSH3 0x2E7F PUSH1 0x7 DUP3 ADD PUSH3 0x2CA2 JUMP JUMPDEST PUSH3 0x2E8D PUSH1 0x8 DUP3 ADD PUSH3 0x2CA2 JUMP JUMPDEST PUSH3 0x2E9B PUSH1 0x9 DUP3 ADD PUSH3 0x2CA2 JUMP JUMPDEST PUSH3 0x2EA9 PUSH1 0xA DUP3 ADD PUSH3 0x2CA2 JUMP JUMPDEST PUSH3 0x2EB7 PUSH1 0xB DUP3 ADD PUSH3 0x2CA2 JUMP JUMPDEST DUP10 PUSH1 0xC DUP3 ADD SSTORE ADD SWAP1 DUP8 SWAP6 SWAP5 SWAP4 SWAP3 SWAP2 PUSH3 0x2E1C JUMP JUMPDEST PUSH4 0x4E487B71 PUSH1 0xE0 SHL DUP10 MSTORE PUSH1 0x11 PUSH1 0x4 MSTORE PUSH1 0x24 DUP10 REVERT JUMPDEST PUSH4 0x4E487B71 PUSH1 0xE0 SHL DUP9 MSTORE PUSH1 0x11 PUSH1 0x4 MSTORE PUSH1 0x24 DUP9 REVERT JUMPDEST DUP10 DUP4 DUP7 MLOAD AND SWAP6 ADD SWAP5 DUP2 DUP6 ADD SSTORE ADD DUP12 SWAP1 PUSH3 0x2D75 JUMP JUMPDEST PUSH3 0x2F21 SWAP1 DUP11 PUSH1 0x0 MSTORE DUP6 DUP5 PUSH1 0x0 KECCAK256 SWAP2 DUP3 ADD SWAP2 ADD PUSH3 0x21FE JUMP JUMPDEST CODESIZE PUSH3 0x2D66 JUMP INVALID PUSH1 0x40 PUSH1 0x80 DUP2 MSTORE CALLVALUE PUSH3 0x429 JUMPI PUSH3 0x10AB DUP1 CODESIZE SUB DUP1 PUSH3 0x1E DUP2 PUSH3 0x42E JUMP JUMPDEST SWAP3 DUP4 CODECOPY DUP2 ADD SWAP1 PUSH1 0x80 DUP2 DUP4 SUB SLT PUSH3 0x429 JUMPI DUP1 MLOAD PUSH1 0x1 PUSH1 0x1 PUSH1 0x40 SHL SUB SWAP2 SWAP1 DUP3 DUP2 GT PUSH3 0x429 JUMPI DUP4 PUSH3 0x51 SWAP2 DUP4 ADD PUSH3 0x46A JUMP JUMPDEST SWAP1 PUSH1 0x20 SWAP4 DUP5 DUP3 ADD MLOAD SWAP1 DUP5 DUP3 GT PUSH3 0x429 JUMPI PUSH3 0x6F SWAP2 DUP4 ADD PUSH3 0x46A JUMP JUMPDEST PUSH1 0x60 DUP7 DUP4 ADD MLOAD SWAP3 ADD MLOAD SWAP1 PUSH1 0x0 SWAP5 CALLER PUSH1 0x1 DUP1 PUSH1 0xA0 SHL SUB NOT DUP8 SLOAD AND OR DUP7 SSTORE CALLER DUP7 PUSH32 0x8BE0079C531659141344CD1FD0A4F28419497F9722A3DAAFE3B4186F6B6457E0 DUP2 DUP1 LOG3 DUP5 MLOAD DUP2 DUP2 GT PUSH3 0x343 JUMPI PUSH1 0x2 SLOAD SWAP1 PUSH1 0x1 SWAP7 DUP8 DUP4 DUP2 SHR SWAP4 AND DUP1 ISZERO PUSH3 0x41E JUMPI JUMPDEST DUP11 DUP5 LT EQ PUSH3 0x324 JUMPI DUP2 SWAP1 PUSH1 0x1F SWAP4 DUP5 DUP2 GT PUSH3 0x3CA JUMPI JUMPDEST POP DUP11 SWAP1 DUP5 DUP4 GT PUSH1 0x1 EQ PUSH3 0x363 JUMPI DUP11 SWAP3 PUSH3 0x357 JUMPI JUMPDEST POP POP PUSH1 0x0 NOT PUSH1 0x3 DUP4 SWAP1 SHL SHR NOT AND SWAP1 DUP8 SHL OR PUSH1 0x2 SSTORE JUMPDEST DUP3 MLOAD SWAP2 DUP3 GT PUSH3 0x343 JUMPI PUSH1 0x3 SWAP3 DUP4 SLOAD DUP8 DUP2 DUP2 SHR SWAP2 AND DUP1 ISZERO PUSH3 0x338 JUMPI JUMPDEST DUP11 DUP3 LT EQ PUSH3 0x324 JUMPI SWAP1 DUP2 DUP4 DUP6 SWAP5 SWAP4 GT PUSH3 0x2CF JUMPI JUMPDEST POP DUP10 SWAP2 DUP4 GT PUSH1 0x1 EQ PUSH3 0x26C JUMPI DUP9 SWAP3 PUSH3 0x260 JUMPI JUMPDEST POP POP PUSH1 0x0 NOT DUP3 DUP5 SHL SHR NOT AND SWAP1 DUP6 SHL OR SWAP1 SSTORE JUMPDEST PUSH8 0xDE0B6B3A7640000 SWAP2 DUP3 DUP2 MUL SWAP3 DUP2 DUP5 DIV EQ SWAP1 ISZERO OR ISZERO PUSH3 0x24C JUMPI DUP2 DUP4 SSTORE PUSH1 0x5 DUP2 GT PUSH3 0x1FE JUMPI SWAP1 PUSH32 0xDDF252AD1BE2C89B69C2B068FC378DAA952BA7F163C4A11628F55A4DF523B3EF SWAP3 SWAP2 PUSH1 0x4 SSTORE CALLER DUP5 MSTORE PUSH1 0x5 DUP6 MSTORE DUP6 DUP5 KECCAK256 SSTORE PUSH1 0x7 DUP5 MSTORE DUP5 DUP4 KECCAK256 PUSH1 0xFF NOT SWAP1 DUP3 DUP3 DUP3 SLOAD AND OR SWAP1 SSTORE ADDRESS DUP5 MSTORE DUP2 DUP7 DUP6 KECCAK256 SWAP2 DUP3 SLOAD AND OR SWAP1 SSTORE SLOAD SWAP3 DUP5 MLOAD SWAP4 DUP5 MSTORE CALLER SWAP4 LOG3 MLOAD PUSH2 0xBCE SWAP1 DUP2 PUSH3 0x4DD DUP3 CODECOPY RETURN JUMPDEST DUP6 MLOAD PUSH3 0x461BCD PUSH1 0xE5 SHL DUP2 MSTORE PUSH1 0x4 DUP2 ADD DUP7 SWAP1 MSTORE PUSH1 0x21 PUSH1 0x24 DUP3 ADD MSTORE PUSH32 0x4D6178205472616E73616374696F6E2063616E6E6F7420657863656564203525 PUSH1 0x44 DUP3 ADD MSTORE PUSH1 0x17 PUSH1 0xF9 SHL PUSH1 0x64 DUP3 ADD MSTORE PUSH1 0x84 SWAP1 REVERT JUMPDEST PUSH4 0x4E487B71 PUSH1 0xE0 SHL DUP5 MSTORE PUSH1 0x11 PUSH1 0x4 MSTORE PUSH1 0x24 DUP5 REVERT JUMPDEST ADD MLOAD SWAP1 POP CODESIZE DUP1 PUSH3 0x15A JUMP JUMPDEST DUP5 DUP10 MSTORE DUP10 DUP10 KECCAK256 DUP9 SWAP5 POP SWAP2 SWAP1 PUSH1 0x1F NOT DUP5 AND DUP11 JUMPDEST DUP13 DUP3 DUP3 LT PUSH3 0x2B8 JUMPI POP POP DUP5 GT PUSH3 0x29F JUMPI JUMPDEST POP POP POP DUP2 SHL ADD SWAP1 SSTORE PUSH3 0x16C JUMP JUMPDEST ADD MLOAD PUSH1 0x0 NOT DUP4 DUP7 SHL PUSH1 0xF8 AND SHR NOT AND SWAP1 SSTORE CODESIZE DUP1 DUP1 PUSH3 0x291 JUMP JUMPDEST DUP4 DUP6 ADD MLOAD DUP7 SSTORE DUP12 SWAP8 SWAP1 SWAP6 ADD SWAP5 SWAP4 DUP5 ADD SWAP4 ADD PUSH3 0x27E JUMP JUMPDEST SWAP1 SWAP2 SWAP3 POP DUP5 DUP10 MSTORE DUP10 DUP10 KECCAK256 DUP4 DUP1 DUP7 ADD PUSH1 0x5 SHR DUP3 ADD SWAP3 DUP13 DUP8 LT PUSH3 0x31A JUMPI JUMPDEST SWAP2 DUP7 SWAP6 DUP12 SWAP3 SWAP6 SWAP5 SWAP4 ADD PUSH1 0x5 SHR ADD SWAP2 JUMPDEST DUP3 DUP2 LT PUSH3 0x30B JUMPI POP POP PUSH3 0x145 JUMP JUMPDEST DUP12 DUP2 SSTORE DUP7 SWAP6 POP DUP11 SWAP2 ADD PUSH3 0x2FB JUMP JUMPDEST SWAP3 POP DUP2 SWAP3 PUSH3 0x2EC JUMP JUMPDEST PUSH4 0x4E487B71 PUSH1 0xE0 SHL DUP10 MSTORE PUSH1 0x22 PUSH1 0x4 MSTORE PUSH1 0x24 DUP10 REVERT JUMPDEST SWAP1 PUSH1 0x7F AND SWAP1 PUSH3 0x12F JUMP JUMPDEST PUSH4 0x4E487B71 PUSH1 0xE0 SHL DUP8 MSTORE PUSH1 0x41 PUSH1 0x4 MSTORE PUSH1 0x24 DUP8 REVERT JUMPDEST ADD MLOAD SWAP1 POP CODESIZE DUP1 PUSH3 0xFD JUMP JUMPDEST PUSH1 0x2 DUP12 MSTORE DUP12 DUP12 KECCAK256 DUP11 SWAP5 POP SWAP2 SWAP1 PUSH1 0x1F NOT DUP5 AND DUP13 DUP15 JUMPDEST DUP3 DUP3 LT PUSH3 0x3B2 JUMPI POP POP DUP5 GT PUSH3 0x398 JUMPI JUMPDEST POP POP POP DUP2 SHL ADD PUSH1 0x2 SSTORE PUSH3 0x112 JUMP JUMPDEST ADD MLOAD PUSH1 0x0 NOT PUSH1 0xF8 DUP5 PUSH1 0x3 SHL AND SHR NOT AND SWAP1 SSTORE CODESIZE DUP1 DUP1 PUSH3 0x389 JUMP JUMPDEST DUP4 DUP6 ADD MLOAD DUP7 SSTORE DUP14 SWAP8 SWAP1 SWAP6 ADD SWAP5 SWAP4 DUP5 ADD SWAP4 ADD DUP15 PUSH3 0x377 JUMP JUMPDEST SWAP1 SWAP2 POP PUSH1 0x2 DUP11 MSTORE DUP11 DUP11 KECCAK256 DUP5 DUP1 DUP6 ADD PUSH1 0x5 SHR DUP3 ADD SWAP3 DUP14 DUP7 LT PUSH3 0x414 JUMPI JUMPDEST SWAP2 DUP12 SWAP2 DUP7 SWAP6 SWAP5 SWAP4 ADD PUSH1 0x5 SHR ADD SWAP2 JUMPDEST DUP3 DUP2 LT PUSH3 0x405 JUMPI POP POP PUSH3 0xE7 JUMP JUMPDEST DUP13 DUP2 SSTORE DUP6 SWAP5 POP DUP12 SWAP2 ADD PUSH3 0x3F5 JUMP JUMPDEST SWAP3 POP DUP2 SWAP3 PUSH3 0x3E7 JUMP JUMPDEST SWAP3 PUSH1 0x7F AND SWAP3 PUSH3 0xD0 JUMP JUMPDEST PUSH1 0x0 DUP1 REVERT JUMPDEST PUSH1 0x40 MLOAD SWAP2 SWAP1 PUSH1 0x1F ADD PUSH1 0x1F NOT AND DUP3 ADD PUSH1 0x1 PUSH1 0x1 PUSH1 0x40 SHL SUB DUP2 GT DUP4 DUP3 LT OR PUSH3 0x454 JUMPI PUSH1 0x40 MSTORE JUMP JUMPDEST PUSH4 0x4E487B71 PUSH1 0xE0 SHL PUSH1 0x0 MSTORE PUSH1 0x41 PUSH1 0x4 MSTORE PUSH1 0x24 PUSH1 0x0 REVERT JUMPDEST SWAP2 SWAP1 DUP1 PUSH1 0x1F DUP5 ADD SLT ISZERO PUSH3 0x429 JUMPI DUP3 MLOAD PUSH1 0x1 PUSH1 0x1 PUSH1 0x40 SHL SUB DUP2 GT PUSH3 0x454 JUMPI PUSH1 0x20 SWAP1 PUSH3 0x4A0 PUSH1 0x1F DUP3 ADD PUSH1 0x1F NOT AND DUP4 ADD PUSH3 0x42E JUMP JUMPDEST SWAP3 DUP2 DUP5 MSTORE DUP3 DUP3 DUP8 ADD ADD GT PUSH3 0x429 JUMPI PUSH1 0x0 JUMPDEST DUP2 DUP2 LT PUSH3 0x4C8 JUMPI POP DUP3 PUSH1 0x0 SWAP4 SWAP5 SWAP6 POP ADD ADD MSTORE SWAP1 JUMP JUMPDEST DUP6 DUP2 ADD DUP4 ADD MLOAD DUP5 DUP3 ADD DUP5 ADD MSTORE DUP3 ADD PUSH3 0x4B2 JUMP INVALID PUSH1 0x80 PUSH1 0x40 DUP2 DUP2 MSTORE PUSH1 0x4 SWAP2 DUP3 CALLDATASIZE LT ISZERO PUSH2 0x16 JUMPI PUSH1 0x0 DUP1 REVERT JUMPDEST PUSH1 0x0 SWAP3 DUP4 CALLDATALOAD PUSH1 0xE0 SHR SWAP2 DUP3 PUSH4 0x6FDDE03 EQ PUSH2 0x5B5 JUMPI POP DUP2 PUSH4 0x95EA7B3 EQ PUSH2 0x58B JUMPI DUP2 PUSH4 0x18160DDD EQ PUSH2 0x56C JUMPI DUP2 PUSH4 0x23B872DD EQ PUSH2 0x497 JUMPI DUP2 PUSH4 0x313CE567 EQ PUSH2 0x47B JUMPI DUP2 PUSH4 0x70A08231 EQ PUSH2 0x443 JUMPI DUP2 PUSH4 0x715018A6 EQ PUSH2 0x3E4 JUMPI DUP2 PUSH4 0x7437681E EQ PUSH2 0x3C6 JUMPI DUP2 PUSH4 0x8DA5CB5B EQ PUSH2 0x39E JUMPI DUP2 PUSH4 0x95D89B41 EQ PUSH2 0x299 JUMPI DUP2 PUSH4 0xA9059CBB EQ PUSH2 0x268 JUMPI DUP2 PUSH4 0xC2D0FFCA EQ PUSH2 0x1B9 JUMPI DUP2 PUSH4 0xDB4CF1E0 EQ PUSH2 0x10A JUMPI POP PUSH4 0xDD62ED3E EQ PUSH2 0xBF JUMPI PUSH1 0x0 DUP1 REVERT JUMPDEST CALLVALUE PUSH2 0x106 JUMPI DUP1 PUSH1 0x3 NOT CALLDATASIZE ADD SLT PUSH2 0x106 JUMPI DUP1 PUSH1 0x20 SWAP3 PUSH2 0xDB PUSH2 0x6BD JUMP JUMPDEST PUSH2 0xE3 PUSH2 0x6D8 JUMP JUMPDEST PUSH1 0x1 PUSH1 0x1 PUSH1 0xA0 SHL SUB SWAP2 DUP3 AND DUP4 MSTORE PUSH1 0x6 DUP7 MSTORE DUP4 DUP4 KECCAK256 SWAP2 AND DUP3 MSTORE DUP5 MSTORE KECCAK256 SLOAD SWAP1 MLOAD SWAP1 DUP2 MSTORE RETURN JUMPDEST POP DUP1 REVERT JUMPDEST SWAP1 POP CALLVALUE PUSH2 0x1B5 JUMPI PUSH1 0x20 CALLDATASIZE PUSH1 0x3 NOT ADD SLT PUSH2 0x1B5 JUMPI PUSH2 0x125 PUSH2 0x6BD JUMP JUMPDEST DUP4 SLOAD PUSH1 0x1 PUSH1 0x1 PUSH1 0xA0 SHL SUB SWAP2 SWAP1 PUSH2 0x13E SWAP1 DUP4 AND CALLER EQ PUSH2 0x726 JUMP JUMPDEST AND SWAP1 DUP2 ISZERO PUSH2 0x15E JUMPI POP DUP3 MSTORE PUSH1 0x7 PUSH1 0x20 MSTORE DUP2 KECCAK256 DUP1 SLOAD PUSH1 0xFF NOT AND PUSH1 0x1 OR SWAP1 SSTORE DUP1 RETURN JUMPDEST PUSH1 0x84 SWAP1 PUSH1 0x20 DUP5 MLOAD SWAP2 PUSH3 0x461BCD PUSH1 0xE5 SHL DUP4 MSTORE DUP3 ADD MSTORE PUSH1 0x2B PUSH1 0x24 DUP3 ADD MSTORE PUSH32 0x45524332303A204578636C756465204D61782054782066726F6D20746865207A PUSH1 0x44 DUP3 ADD MSTORE PUSH11 0x65726F2061646472657373 PUSH1 0xA8 SHL PUSH1 0x64 DUP3 ADD MSTORE REVERT JUMPDEST DUP3 DUP1 REVERT JUMPDEST SWAP2 SWAP1 POP CALLVALUE PUSH2 0x1B5 JUMPI PUSH1 0x20 CALLDATASIZE PUSH1 0x3 NOT ADD SLT PUSH2 0x1B5 JUMPI DUP2 CALLDATALOAD SWAP2 PUSH2 0x1E4 PUSH1 0x1 DUP1 PUSH1 0xA0 SHL SUB DUP6 SLOAD AND CALLER EQ PUSH2 0x726 JUMP JUMPDEST PUSH1 0x5 DUP4 GT PUSH2 0x21C JUMPI SWAP2 PUSH1 0x20 SWAP2 DUP2 PUSH32 0xFF3DD5E80294197918C284BBFC3DADD97D0B40CE92106110946329088F80068A SWAP5 SSTORE MLOAD SWAP1 DUP2 MSTORE LOG1 DUP1 RETURN JUMPDEST PUSH1 0x20 PUSH1 0x84 SWAP3 MLOAD SWAP2 PUSH3 0x461BCD PUSH1 0xE5 SHL DUP4 MSTORE DUP3 ADD MSTORE PUSH1 0x21 PUSH1 0x24 DUP3 ADD MSTORE PUSH32 0x4D6178205472616E73616374696F6E2063616E6E6F7420657863656564203525 PUSH1 0x44 DUP3 ADD MSTORE PUSH1 0x17 PUSH1 0xF9 SHL PUSH1 0x64 DUP3 ADD MSTORE REVERT JUMPDEST POP POP CALLVALUE PUSH2 0x106 JUMPI DUP1 PUSH1 0x3 NOT CALLDATASIZE ADD SLT PUSH2 0x106 JUMPI PUSH1 0x20 SWAP1 PUSH2 0x292 PUSH2 0x288 PUSH2 0x6BD JUMP JUMPDEST PUSH1 0x24 CALLDATALOAD SWAP1 CALLER PUSH2 0x873 JUMP JUMPDEST MLOAD PUSH1 0x1 DUP2 MSTORE RETURN JUMPDEST SWAP2 SWAP1 POP CALLVALUE PUSH2 0x1B5 JUMPI DUP3 PUSH1 0x3 NOT CALLDATASIZE ADD SLT PUSH2 0x1B5 JUMPI DUP1 MLOAD SWAP2 DUP4 PUSH1 0x3 SLOAD SWAP1 PUSH1 0x1 SWAP1 DUP3 PUSH1 0x1 SHR SWAP3 PUSH1 0x1 DUP2 AND DUP1 ISZERO PUSH2 0x394 JUMPI JUMPDEST PUSH1 0x20 SWAP6 DUP7 DUP7 LT DUP3 EQ PUSH2 0x381 JUMPI POP DUP5 DUP9 MSTORE SWAP1 DUP2 ISZERO PUSH2 0x35F JUMPI POP PUSH1 0x1 EQ PUSH2 0x306 JUMPI JUMPDEST PUSH2 0x302 DUP7 DUP7 PUSH2 0x2F8 DUP3 DUP12 SUB DUP4 PUSH2 0x6EE JUMP JUMPDEST MLOAD SWAP2 DUP3 SWAP2 DUP3 PUSH2 0x674 JUMP JUMPDEST SUB SWAP1 RETURN JUMPDEST SWAP3 SWAP6 POP PUSH1 0x3 DUP4 MSTORE PUSH32 0xC2575A0E9E593C00F959F8C92F12DB2869C3395A3B0502D05E2516446F71F85B JUMPDEST DUP3 DUP5 LT PUSH2 0x34C JUMPI POP POP POP DUP3 PUSH2 0x302 SWAP5 PUSH2 0x2F8 SWAP3 DUP3 ADD ADD SWAP5 CODESIZE PUSH2 0x2E7 JUMP JUMPDEST DUP1 SLOAD DUP7 DUP6 ADD DUP9 ADD MSTORE SWAP3 DUP7 ADD SWAP3 DUP2 ADD PUSH2 0x32F JUMP JUMPDEST PUSH1 0xFF NOT AND DUP8 DUP7 ADD MSTORE POP POP POP ISZERO ISZERO PUSH1 0x5 SHL DUP4 ADD ADD SWAP3 POP PUSH2 0x2F8 DUP3 PUSH2 0x302 CODESIZE PUSH2 0x2E7 JUMP JUMPDEST PUSH4 0x4E487B71 PUSH1 0xE0 SHL DUP5 MSTORE PUSH1 0x22 SWAP1 MSTORE PUSH1 0x24 DUP4 REVERT JUMPDEST SWAP4 PUSH1 0x7F AND SWAP4 PUSH2 0x2C7 JUMP JUMPDEST POP POP CALLVALUE PUSH2 0x106 JUMPI DUP2 PUSH1 0x3 NOT CALLDATASIZE ADD SLT PUSH2 0x106 JUMPI SWAP1 SLOAD SWAP1 MLOAD PUSH1 0x1 PUSH1 0x1 PUSH1 0xA0 SHL SUB SWAP1 SWAP2 AND DUP2 MSTORE PUSH1 0x20 SWAP1 RETURN JUMPDEST SWAP1 POP CALLVALUE PUSH2 0x1B5 JUMPI DUP3 PUSH1 0x3 NOT CALLDATASIZE ADD SLT PUSH2 0x1B5 JUMPI PUSH1 0x20 SWAP3 POP SLOAD SWAP1 MLOAD SWAP1 DUP2 MSTORE RETURN JUMPDEST DUP4 CALLVALUE PUSH2 0x440 JUMPI DUP1 PUSH1 0x3 NOT CALLDATASIZE ADD SLT PUSH2 0x440 JUMPI DUP1 SLOAD DUP2 PUSH1 0x1 PUSH1 0x1 PUSH1 0xA0 SHL SUB DUP3 AND PUSH2 0x40D CALLER DUP3 EQ PUSH2 0x726 JUMP JUMPDEST PUSH32 0x8BE0079C531659141344CD1FD0A4F28419497F9722A3DAAFE3B4186F6B6457E0 DUP3 DUP1 LOG3 PUSH1 0x1 PUSH1 0x1 PUSH1 0xA0 SHL SUB NOT AND DUP2 SSTORE DUP1 RETURN JUMPDEST DUP1 REVERT JUMPDEST POP POP CALLVALUE PUSH2 0x106 JUMPI PUSH1 0x20 CALLDATASIZE PUSH1 0x3 NOT ADD SLT PUSH2 0x106 JUMPI PUSH1 0x20 SWAP2 DUP2 SWAP1 PUSH1 0x1 PUSH1 0x1 PUSH1 0xA0 SHL SUB PUSH2 0x46B PUSH2 0x6BD JUMP JUMPDEST AND DUP2 MSTORE PUSH1 0x5 DUP5 MSTORE KECCAK256 SLOAD SWAP1 MLOAD SWAP1 DUP2 MSTORE RETURN JUMPDEST POP POP CALLVALUE PUSH2 0x106 JUMPI DUP2 PUSH1 0x3 NOT CALLDATASIZE ADD SLT PUSH2 0x106 JUMPI PUSH1 0x20 SWAP1 MLOAD PUSH1 0x12 DUP2 MSTORE RETURN JUMPDEST DUP3 DUP5 CALLVALUE PUSH2 0x440 JUMPI PUSH1 0x60 CALLDATASIZE PUSH1 0x3 NOT ADD SLT PUSH2 0x440 JUMPI PUSH2 0x4B2 PUSH2 0x6BD JUMP JUMPDEST SWAP1 PUSH2 0x4BB PUSH2 0x6D8 JUMP JUMPDEST PUSH2 0x4C9 PUSH1 0x44 CALLDATALOAD DUP1 SWAP3 DUP6 PUSH2 0x873 JUMP JUMPDEST PUSH1 0x1 PUSH1 0x1 PUSH1 0xA0 SHL SUB DUP4 AND DUP3 MSTORE PUSH1 0x6 PUSH1 0x20 SWAP1 DUP2 MSTORE DUP5 DUP4 KECCAK256 CALLER DUP5 MSTORE SWAP1 MSTORE DUP4 DUP3 KECCAK256 SLOAD DUP5 MLOAD SWAP3 PUSH1 0x60 DUP5 ADD SWAP1 PUSH8 0xFFFFFFFFFFFFFFFF DUP3 GT DUP6 DUP4 LT OR PUSH2 0x559 JUMPI PUSH1 0x20 DUP8 PUSH2 0x292 DUP9 PUSH2 0x551 DUP10 DUP10 DUP10 DUP10 DUP8 MSTORE PUSH1 0x28 DUP4 MSTORE PUSH32 0x45524332303A207472616E7366657220616D6F756E7420657863656564732061 DUP9 DUP5 ADD MSTORE PUSH8 0x6C6C6F77616E6365 PUSH1 0xC0 SHL DUP8 DUP5 ADD MSTORE PUSH2 0xB4D JUMP JUMPDEST SWAP1 CALLER SWAP1 PUSH2 0x771 JUMP JUMPDEST PUSH4 0x4E487B71 PUSH1 0xE0 SHL DUP2 MSTORE PUSH1 0x41 DUP9 MSTORE PUSH1 0x24 SWAP1 REVERT JUMPDEST POP POP CALLVALUE PUSH2 0x106 JUMPI DUP2 PUSH1 0x3 NOT CALLDATASIZE ADD SLT PUSH2 0x106 JUMPI PUSH1 0x20 SWAP1 PUSH1 0x1 SLOAD SWAP1 MLOAD SWAP1 DUP2 MSTORE RETURN JUMPDEST POP POP CALLVALUE PUSH2 0x106 JUMPI DUP1 PUSH1 0x3 NOT CALLDATASIZE ADD SLT PUSH2 0x106 JUMPI PUSH1 0x20 SWAP1 PUSH2 0x292 PUSH2 0x5AB PUSH2 0x6BD JUMP JUMPDEST PUSH1 0x24 CALLDATALOAD SWAP1 CALLER PUSH2 0x771 JUMP JUMPDEST SWAP3 SWAP2 POP CALLVALUE PUSH2 0x670 JUMPI DUP4 PUSH1 0x3 NOT CALLDATASIZE ADD SLT PUSH2 0x670 JUMPI PUSH1 0x2 SLOAD PUSH1 0x1 DUP2 DUP2 SHR SWAP2 DUP7 SWAP1 DUP3 DUP2 AND DUP1 ISZERO PUSH2 0x666 JUMPI JUMPDEST PUSH1 0x20 SWAP6 DUP7 DUP7 LT DUP3 EQ PUSH2 0x381 JUMPI POP DUP5 DUP9 MSTORE SWAP1 DUP2 ISZERO PUSH2 0x35F JUMPI POP PUSH1 0x1 EQ PUSH2 0x60D JUMPI PUSH2 0x302 DUP7 DUP7 PUSH2 0x2F8 DUP3 DUP12 SUB DUP4 PUSH2 0x6EE JUMP JUMPDEST SWAP3 SWAP6 POP PUSH1 0x2 DUP4 MSTORE PUSH32 0x405787FA12A823E0F2B7631CC41B3BA8828B3321CA811111FA75CD3AA3BB5ACE JUMPDEST DUP3 DUP5 LT PUSH2 0x653 JUMPI POP POP POP DUP3 PUSH2 0x302 SWAP5 PUSH2 0x2F8 SWAP3 DUP3 ADD ADD SWAP5 CODESIZE PUSH2 0x2E7 JUMP JUMPDEST DUP1 SLOAD DUP7 DUP6 ADD DUP9 ADD MSTORE SWAP3 DUP7 ADD SWAP3 DUP2 ADD PUSH2 0x636 JUMP JUMPDEST SWAP4 PUSH1 0x7F AND SWAP4 PUSH2 0x5DD JUMP JUMPDEST DUP4 DUP1 REVERT JUMPDEST PUSH1 0x20 DUP1 DUP3 MSTORE DUP3 MLOAD DUP2 DUP4 ADD DUP2 SWAP1 MSTORE SWAP1 SWAP4 SWAP3 PUSH1 0x0 JUMPDEST DUP3 DUP2 LT PUSH2 0x6A9 JUMPI POP POP PUSH1 0x40 SWAP3 SWAP4 POP PUSH1 0x0 DUP4 DUP3 DUP5 ADD ADD MSTORE PUSH1 0x1F DUP1 NOT SWAP2 ADD AND ADD ADD SWAP1 JUMP JUMPDEST DUP2 DUP2 ADD DUP7 ADD MLOAD DUP5 DUP3 ADD PUSH1 0x40 ADD MSTORE DUP6 ADD PUSH2 0x687 JUMP JUMPDEST PUSH1 0x4 CALLDATALOAD SWAP1 PUSH1 0x1 PUSH1 0x1 PUSH1 0xA0 SHL SUB DUP3 AND DUP3 SUB PUSH2 0x6D3 JUMPI JUMP JUMPDEST PUSH1 0x0 DUP1 REVERT JUMPDEST PUSH1 0x24 CALLDATALOAD SWAP1 PUSH1 0x1 PUSH1 0x1 PUSH1 0xA0 SHL SUB DUP3 AND DUP3 SUB PUSH2 0x6D3 JUMPI JUMP JUMPDEST SWAP1 PUSH1 0x1F DUP1 NOT SWAP2 ADD AND DUP2 ADD SWAP1 DUP2 LT PUSH8 0xFFFFFFFFFFFFFFFF DUP3 GT OR PUSH2 0x710 JUMPI PUSH1 0x40 MSTORE JUMP JUMPDEST PUSH4 0x4E487B71 PUSH1 0xE0 SHL PUSH1 0x0 MSTORE PUSH1 0x41 PUSH1 0x4 MSTORE PUSH1 0x24 PUSH1 0x0 REVERT JUMPDEST ISZERO PUSH2 0x72D JUMPI JUMP JUMPDEST PUSH1 0x64 PUSH1 0x40 MLOAD PUSH3 0x461BCD PUSH1 0xE5 SHL DUP2 MSTORE PUSH1 0x20 PUSH1 0x4 DUP3 ADD MSTORE PUSH1 0x20 PUSH1 0x24 DUP3 ADD MSTORE PUSH32 0x4F776E61626C653A2063616C6C6572206973206E6F7420746865206F776E6572 PUSH1 0x44 DUP3 ADD MSTORE REVERT JUMPDEST PUSH1 0x1 PUSH1 0x1 PUSH1 0xA0 SHL SUB SWAP1 DUP2 AND SWAP2 DUP3 ISZERO PUSH2 0x822 JUMPI AND SWAP2 DUP3 ISZERO PUSH2 0x7D2 JUMPI PUSH1 0x20 PUSH32 0x8C5BE1E5EBEC7D5BD14F71427D1E84F3DD0314C0F7B2291E5B200AC8C7C3B925 SWAP2 DUP4 PUSH1 0x0 MSTORE PUSH1 0x6 DUP3 MSTORE PUSH1 0x40 PUSH1 0x0 KECCAK256 DUP6 PUSH1 0x0 MSTORE DUP3 MSTORE DUP1 PUSH1 0x40 PUSH1 0x0 KECCAK256 SSTORE PUSH1 0x40 MLOAD SWAP1 DUP2 MSTORE LOG3 JUMP JUMPDEST PUSH1 0x40 MLOAD PUSH3 0x461BCD PUSH1 0xE5 SHL DUP2 MSTORE PUSH1 0x20 PUSH1 0x4 DUP3 ADD MSTORE PUSH1 0x22 PUSH1 0x24 DUP3 ADD MSTORE PUSH32 0x45524332303A20617070726F766520746F20746865207A65726F206164647265 PUSH1 0x44 DUP3 ADD MSTORE PUSH2 0x7373 PUSH1 0xF0 SHL PUSH1 0x64 DUP3 ADD MSTORE PUSH1 0x84 SWAP1 REVERT JUMPDEST PUSH1 0x40 MLOAD PUSH3 0x461BCD PUSH1 0xE5 SHL DUP2 MSTORE PUSH1 0x20 PUSH1 0x4 DUP3 ADD MSTORE PUSH1 0x24 DUP1 DUP3 ADD MSTORE PUSH32 0x45524332303A20617070726F76652066726F6D20746865207A65726F20616464 PUSH1 0x44 DUP3 ADD MSTORE PUSH4 0x72657373 PUSH1 0xE0 SHL PUSH1 0x64 DUP3 ADD MSTORE PUSH1 0x84 SWAP1 REVERT JUMPDEST SWAP2 SWAP3 SWAP2 PUSH1 0x1 PUSH1 0x1 PUSH1 0xA0 SHL SUB SWAP1 DUP2 AND SWAP2 DUP3 ISZERO PUSH2 0xAFA JUMPI AND SWAP1 DUP2 ISZERO PUSH2 0xAA9 JUMPI DUP4 ISZERO PUSH2 0xA52 JUMPI PUSH1 0x4 DUP1 SLOAD SWAP5 PUSH1 0x1 SLOAD SWAP6 DUP7 DUP2 MUL SWAP7 DUP2 DUP9 DIV EQ SWAP1 ISZERO OR ISZERO PUSH2 0xA3D JUMPI PUSH1 0x0 SWAP6 DUP4 DUP8 MSTORE PUSH1 0x20 SWAP3 PUSH1 0x7 DUP5 MSTORE PUSH1 0x40 SWAP2 PUSH1 0xFF DUP4 DUP11 KECCAK256 SLOAD AND ISZERO PUSH2 0x9EC JUMPI JUMPDEST POP DUP5 DUP9 MSTORE PUSH1 0x5 DUP5 MSTORE DUP2 DUP9 KECCAK256 SLOAD DUP3 MLOAD SWAP1 DUP4 DUP3 ADD DUP3 DUP2 LT PUSH8 0xFFFFFFFFFFFFFFFF DUP3 GT OR PUSH2 0x9D9 JUMPI PUSH2 0x928 SWAP3 SWAP2 DUP7 SWAP2 DUP7 MSTORE PUSH1 0x1E DUP4 MSTORE PUSH32 0x536166654D6174683A207375627472616374696F6E206F766572666C6F770000 DUP9 DUP5 ADD MSTORE PUSH2 0xB4D JUMP JUMPDEST DUP6 DUP10 MSTORE PUSH1 0x5 DUP6 MSTORE DUP3 DUP10 KECCAK256 SSTORE DUP6 DUP9 MSTORE DUP2 DUP9 KECCAK256 SLOAD SWAP1 DUP4 DUP3 ADD SWAP2 DUP3 DUP2 GT PUSH2 0x9C6 JUMPI DUP3 LT PUSH2 0x983 JUMPI POP DUP2 DUP9 DUP8 PUSH32 0xDDF252AD1BE2C89B69C2B068FC378DAA952BA7F163C4A11628F55A4DF523B3EF SWAP8 SWAP9 SWAP10 SWAP11 MSTORE PUSH1 0x5 DUP7 MSTORE KECCAK256 SSTORE MLOAD SWAP1 DUP2 MSTORE LOG3 JUMP JUMPDEST DUP3 MLOAD PUSH3 0x461BCD PUSH1 0xE5 SHL DUP2 MSTORE SWAP1 DUP2 ADD DUP6 SWAP1 MSTORE PUSH1 0x1B PUSH1 0x24 DUP3 ADD MSTORE PUSH32 0x536166654D6174683A206164646974696F6E206F766572666C6F770000000000 PUSH1 0x44 DUP3 ADD MSTORE PUSH1 0x64 SWAP1 REVERT JUMPDEST PUSH4 0x4E487B71 PUSH1 0xE0 SHL DUP11 MSTORE PUSH1 0x11 DUP3 MSTORE PUSH1 0x24 DUP11 REVERT JUMPDEST PUSH4 0x4E487B71 PUSH1 0xE0 SHL DUP12 MSTORE PUSH1 0x41 DUP5 MSTORE PUSH1 0x24 DUP12 REVERT JUMPDEST PUSH1 0x64 SWAP1 DIV DUP4 GT PUSH2 0x9FC JUMPI CODESIZE PUSH2 0x8CC JUMP JUMPDEST DUP4 PUSH1 0x64 SWAP3 MLOAD SWAP2 PUSH3 0x461BCD PUSH1 0xE5 SHL DUP4 MSTORE DUP3 ADD MSTORE PUSH1 0x18 PUSH1 0x24 DUP3 ADD MSTORE PUSH32 0x4578636565647320746865204D61785478416D6F756E742E0000000000000000 PUSH1 0x44 DUP3 ADD MSTORE REVERT JUMPDEST PUSH1 0x11 DUP3 PUSH4 0x4E487B71 PUSH1 0xE0 SHL PUSH1 0x0 MSTORE MSTORE PUSH1 0x24 PUSH1 0x0 REVERT JUMPDEST PUSH1 0x40 MLOAD PUSH3 0x461BCD PUSH1 0xE5 SHL DUP2 MSTORE PUSH1 0x20 PUSH1 0x4 DUP3 ADD MSTORE PUSH1 0x29 PUSH1 0x24 DUP3 ADD MSTORE PUSH32 0x5472616E7366657220616D6F756E74206D757374206265206772656174657220 PUSH1 0x44 DUP3 ADD MSTORE PUSH9 0x7468616E207A65726F PUSH1 0xB8 SHL PUSH1 0x64 DUP3 ADD MSTORE PUSH1 0x84 SWAP1 REVERT JUMPDEST PUSH1 0x40 MLOAD PUSH3 0x461BCD PUSH1 0xE5 SHL DUP2 MSTORE PUSH1 0x20 PUSH1 0x4 DUP3 ADD MSTORE PUSH1 0x23 PUSH1 0x24 DUP3 ADD MSTORE PUSH32 0x45524332303A207472616E7366657220746F20746865207A65726F2061646472 PUSH1 0x44 DUP3 ADD MSTORE PUSH3 0x657373 PUSH1 0xE8 SHL PUSH1 0x64 DUP3 ADD MSTORE PUSH1 0x84 SWAP1 REVERT JUMPDEST PUSH1 0x40 MLOAD PUSH3 0x461BCD PUSH1 0xE5 SHL DUP2 MSTORE PUSH1 0x20 PUSH1 0x4 DUP3 ADD MSTORE PUSH1 0x25 PUSH1 0x24 DUP3 ADD MSTORE PUSH32 0x45524332303A207472616E736665722066726F6D20746865207A65726F206164 PUSH1 0x44 DUP3 ADD MSTORE PUSH5 0x6472657373 PUSH1 0xD8 SHL PUSH1 0x64 DUP3 ADD MSTORE PUSH1 0x84 SWAP1 REVERT JUMPDEST SWAP2 DUP3 DUP3 GT PUSH2 0xB78 JUMPI POP DUP2 SUB SWAP1 DUP2 GT PUSH2 0xB62 JUMPI SWAP1 JUMP JUMPDEST PUSH4 0x4E487B71 PUSH1 0xE0 SHL PUSH1 0x0 MSTORE PUSH1 0x11 PUSH1 0x4 MSTORE PUSH1 0x24 PUSH1 0x0 REVERT JUMPDEST PUSH1 0x40 MLOAD PUSH3 0x461BCD PUSH1 0xE5 SHL DUP2 MSTORE SWAP1 DUP2 SWAP1 PUSH2 0xB94 SWAP1 PUSH1 0x4 DUP4 ADD PUSH2 0x674 JUMP JUMPDEST SUB SWAP1 REVERT INVALID LOG2 PUSH5 0x6970667358 0x22 SLT KECCAK256 0xC4 SWAP15 SSTORE SELFBALANCE BLOCKHASH 0xCB PUSH18 0xAA09A85B3746B1A934ACBFB9371A9F5EEFD2 PUSH27 0x7B626EA785F264736F6C63430008180033A2646970667358221220 0xD9 0xFC 0xCE ORIGIN BLOCKHASH 0xAF ADDMOD EQ CODECOPY 0xE1 PUSH16 0xA5295D5E3AB46932D3C47EA07025067C SHR PUSH24 0x3E75C264736F6C6343000818003300000000000000000000 "
        },
        "methodIdentifiers": {
          "approval(address,address,uint256)": "5c52a5f2",
          "deploy(address)": "4c96a389",
          "feeTo()": "017e7e58",
          "feeToSetter()": "094b7415",
          "getTokens()": "aa6ca808",
          "getUserReferrals()": "e1ea9d73",
          "getUserTokens()": "8a664ebc",
          "launch(string,string,string,string,string[4],uint256,uint256,address)": "a153e6ff",
          "launchFee()": "cf3cf573",
          "liquidityFee()": "98118cb4",
          "marketCapLimit()": "80997e47",
          "profile(address)": "9dd9d0fd",
          "profiles(uint256)": "c36fe3d6",
          "referralFee()": "84ae2bc6",
          "setFeeTo(address)": "f46901ed",
          "token(address)": "6d46a1db",
          "tokens(uint256)": "4f64b2be",
          "updateLaunchFee(uint256)": "7660f44a",
          "updateReferralFee(uint256)": "f3f524b8",
          "withdraw()": "3ccfd60b"
        }
      }
    }
  }
}