{
  "contracts/PumpFun.sol": {
    "PumpFun": {
      "abi": [
        {
          "inputs": [
            {
              "internalType": "address",
              "name": "factory_",
              "type": "address"
            },
            {
              "internalType": "address",
              "name": "router_",
              "type": "address"
            },
            {
              "internalType": "address",
              "name": "fee_to",
              "type": "address"
            },
            {
              "internalType": "uint256",
              "name": "_fee",
              "type": "uint256"
            }
          ],
          "stateMutability": "nonpayable",
          "type": "constructor"
        },
        {
          "inputs": [],
          "name": "ReentrancyGuardReentrantCall",
          "type": "error"
        },
        {
          "anonymous": false,
          "inputs": [
            {
              "indexed": true,
              "internalType": "address",
              "name": "token",
              "type": "address"
            },
            {
              "indexed": false,
              "internalType": "uint256",
              "name": "amount0",
              "type": "uint256"
            },
            {
              "indexed": false,
              "internalType": "uint256",
              "name": "amount1",
              "type": "uint256"
            }
          ],
          "name": "Deployed",
          "type": "event"
        },
        {
          "anonymous": false,
          "inputs": [
            {
              "indexed": true,
              "internalType": "address",
              "name": "token",
              "type": "address"
            },
            {
              "indexed": true,
              "internalType": "address",
              "name": "pair",
              "type": "address"
            },
            {
              "indexed": false,
              "internalType": "uint256",
              "name": "",
              "type": "uint256"
            }
          ],
          "name": "Launched",
          "type": "event"
        },
        {
          "inputs": [
            {
              "internalType": "address",
              "name": "_user",
              "type": "address"
            },
            {
              "internalType": "address",
              "name": "_token",
              "type": "address"
            },
            {
              "internalType": "uint256",
              "name": "amount",
              "type": "uint256"
            }
          ],
          "name": "approval",
          "outputs": [
            {
              "internalType": "bool",
              "name": "",
              "type": "bool"
            }
          ],
          "stateMutability": "nonpayable",
          "type": "function"
        },
        {
          "inputs": [
            {
              "internalType": "address",
              "name": "tk",
              "type": "address"
            }
          ],
          "name": "deploy",
          "outputs": [],
          "stateMutability": "nonpayable",
          "type": "function"
        },
        {
          "inputs": [],
          "name": "feeTo",
          "outputs": [
            {
              "internalType": "address",
              "name": "",
              "type": "address"
            }
          ],
          "stateMutability": "view",
          "type": "function"
        },
        {
          "inputs": [],
          "name": "feeToSetter",
          "outputs": [
            {
              "internalType": "address",
              "name": "",
              "type": "address"
            }
          ],
          "stateMutability": "view",
          "type": "function"
        },
        {
          "inputs": [],
          "name": "getTokens",
          "outputs": [
            {
              "components": [
                {
                  "internalType": "address",
                  "name": "creator",
                  "type": "address"
                },
                {
                  "internalType": "address",
                  "name": "token",
                  "type": "address"
                },
                {
                  "internalType": "address",
                  "name": "pair",
                  "type": "address"
                },
                {
                  "components": [
                    {
                      "internalType": "address",
                      "name": "token",
                      "type": "address"
                    },
                    {
                      "internalType": "string",
                      "name": "name",
                      "type": "string"
                    },
                    {
                      "internalType": "string",
                      "name": "ticker",
                      "type": "string"
                    },
                    {
                      "internalType": "uint256",
                      "name": "supply",
                      "type": "uint256"
                    },
                    {
                      "internalType": "uint256",
                      "name": "price",
                      "type": "uint256"
                    },
                    {
                      "internalType": "uint256",
                      "name": "marketCap",
                      "type": "uint256"
                    },
                    {
                      "internalType": "uint256",
                      "name": "liquidity",
                      "type": "uint256"
                    },
                    {
                      "internalType": "uint256",
                      "name": "_liquidity",
                      "type": "uint256"
                    },
                    {
                      "internalType": "uint256",
                      "name": "volume24H",
                      "type": "uint256"
                    },
                    {
                      "internalType": "int256",
                      "name": "priceChange24H",
                      "type": "int256"
                    }
                  ],
                  "internalType": "struct PumpFun.Data",
                  "name": "data",
                  "type": "tuple"
                },
                {
                  "internalType": "string",
                  "name": "description",
                  "type": "string"
                },
                {
                  "internalType": "string",
                  "name": "image",
                  "type": "string"
                },
                {
                  "internalType": "string",
                  "name": "twitter",
                  "type": "string"
                },
                {
                  "internalType": "string",
                  "name": "telegram",
                  "type": "string"
                },
                {
                  "internalType": "string",
                  "name": "youtube",
                  "type": "string"
                },
                {
                  "internalType": "string",
                  "name": "website",
                  "type": "string"
                },
                {
                  "internalType": "bool",
                  "name": "trading",
                  "type": "bool"
                },
                {
                  "internalType": "bool",
                  "name": "tradingOnUniswap",
                  "type": "bool"
                }
              ],
              "internalType": "struct PumpFun.Token[]",
              "name": "",
              "type": "tuple[]"
            }
          ],
          "stateMutability": "view",
          "type": "function"
        },
        {
          "inputs": [],
          "name": "getUserTokens",
          "outputs": [
            {
              "components": [
                {
                  "internalType": "address",
                  "name": "creator",
                  "type": "address"
                },
                {
                  "internalType": "address",
                  "name": "token",
                  "type": "address"
                },
                {
                  "internalType": "address",
                  "name": "pair",
                  "type": "address"
                },
                {
                  "components": [
                    {
                      "internalType": "address",
                      "name": "token",
                      "type": "address"
                    },
                    {
                      "internalType": "string",
                      "name": "name",
                      "type": "string"
                    },
                    {
                      "internalType": "string",
                      "name": "ticker",
                      "type": "string"
                    },
                    {
                      "internalType": "uint256",
                      "name": "supply",
                      "type": "uint256"
                    },
                    {
                      "internalType": "uint256",
                      "name": "price",
                      "type": "uint256"
                    },
                    {
                      "internalType": "uint256",
                      "name": "marketCap",
                      "type": "uint256"
                    },
                    {
                      "internalType": "uint256",
                      "name": "liquidity",
                      "type": "uint256"
                    },
                    {
                      "internalType": "uint256",
                      "name": "_liquidity",
                      "type": "uint256"
                    },
                    {
                      "internalType": "uint256",
                      "name": "volume24H",
                      "type": "uint256"
                    },
                    {
                      "internalType": "int256",
                      "name": "priceChange24H",
                      "type": "int256"
                    }
                  ],
                  "internalType": "struct PumpFun.Data",
                  "name": "data",
                  "type": "tuple"
                },
                {
                  "internalType": "string",
                  "name": "description",
                  "type": "string"
                },
                {
                  "internalType": "string",
                  "name": "image",
                  "type": "string"
                },
                {
                  "internalType": "string",
                  "name": "twitter",
                  "type": "string"
                },
                {
                  "internalType": "string",
                  "name": "telegram",
                  "type": "string"
                },
                {
                  "internalType": "string",
                  "name": "youtube",
                  "type": "string"
                },
                {
                  "internalType": "string",
                  "name": "website",
                  "type": "string"
                },
                {
                  "internalType": "bool",
                  "name": "trading",
                  "type": "bool"
                },
                {
                  "internalType": "bool",
                  "name": "tradingOnUniswap",
                  "type": "bool"
                }
              ],
              "internalType": "struct PumpFun.Token[]",
              "name": "",
              "type": "tuple[]"
            }
          ],
          "stateMutability": "view",
          "type": "function"
        },
        {
          "inputs": [
            {
              "internalType": "string",
              "name": "_name",
              "type": "string"
            },
            {
              "internalType": "string",
              "name": "_ticker",
              "type": "string"
            },
            {
              "internalType": "string",
              "name": "desc",
              "type": "string"
            },
            {
              "internalType": "string",
              "name": "img",
              "type": "string"
            },
            {
              "internalType": "string[4]",
              "name": "urls",
              "type": "string[4]"
            },
            {
              "internalType": "uint256",
              "name": "_supply",
              "type": "uint256"
            },
            {
              "internalType": "uint256",
              "name": "maxTx",
              "type": "uint256"
            }
          ],
          "name": "launch",
          "outputs": [
            {
              "internalType": "address",
              "name": "",
              "type": "address"
            },
            {
              "internalType": "address",
              "name": "",
              "type": "address"
            },
            {
              "internalType": "uint256",
              "name": "",
              "type": "uint256"
            }
          ],
          "stateMutability": "payable",
          "type": "function"
        },
        {
          "inputs": [],
          "name": "launchFee",
          "outputs": [
            {
              "internalType": "uint256",
              "name": "",
              "type": "uint256"
            }
          ],
          "stateMutability": "view",
          "type": "function"
        },
        {
          "inputs": [],
          "name": "liquidityFee",
          "outputs": [
            {
              "internalType": "uint256",
              "name": "",
              "type": "uint256"
            }
          ],
          "stateMutability": "pure",
          "type": "function"
        },
        {
          "inputs": [],
          "name": "marketCapLimit",
          "outputs": [
            {
              "internalType": "uint256",
              "name": "",
              "type": "uint256"
            }
          ],
          "stateMutability": "pure",
          "type": "function"
        },
        {
          "inputs": [
            {
              "internalType": "address",
              "name": "",
              "type": "address"
            }
          ],
          "name": "profile",
          "outputs": [
            {
              "internalType": "address",
              "name": "user",
              "type": "address"
            }
          ],
          "stateMutability": "view",
          "type": "function"
        },
        {
          "inputs": [
            {
              "internalType": "uint256",
              "name": "",
              "type": "uint256"
            }
          ],
          "name": "profiles",
          "outputs": [
            {
              "internalType": "address",
              "name": "user",
              "type": "address"
            }
          ],
          "stateMutability": "view",
          "type": "function"
        },
        {
          "inputs": [
            {
              "internalType": "address",
              "name": "fee_to",
              "type": "address"
            }
          ],
          "name": "setFeeTo",
          "outputs": [],
          "stateMutability": "nonpayable",
          "type": "function"
        },
        {
          "inputs": [
            {
              "internalType": "address",
              "name": "tk",
              "type": "address"
            },
            {
              "internalType": "address",
              "name": "to",
              "type": "address"
            },
            {
              "internalType": "address",
              "name": "referree",
              "type": "address"
            }
          ],
          "name": "swapETHForTokens",
          "outputs": [
            {
              "internalType": "bool",
              "name": "",
              "type": "bool"
            }
          ],
          "stateMutability": "payable",
          "type": "function"
        },
        {
          "inputs": [
            {
              "internalType": "uint256",
              "name": "amountIn",
              "type": "uint256"
            },
            {
              "internalType": "address",
              "name": "tk",
              "type": "address"
            },
            {
              "internalType": "address",
              "name": "to",
              "type": "address"
            },
            {
              "internalType": "address",
              "name": "referree",
              "type": "address"
            }
          ],
          "name": "swapTokensForETH",
          "outputs": [
            {
              "internalType": "bool",
              "name": "",
              "type": "bool"
            }
          ],
          "stateMutability": "nonpayable",
          "type": "function"
        },
        {
          "inputs": [
            {
              "internalType": "address",
              "name": "",
              "type": "address"
            }
          ],
          "name": "token",
          "outputs": [
            {
              "internalType": "address",
              "name": "creator",
              "type": "address"
            },
            {
              "internalType": "address",
              "name": "token",
              "type": "address"
            },
            {
              "internalType": "address",
              "name": "pair",
              "type": "address"
            },
            {
              "components": [
                {
                  "internalType": "address",
                  "name": "token",
                  "type": "address"
                },
                {
                  "internalType": "string",
                  "name": "name",
                  "type": "string"
                },
                {
                  "internalType": "string",
                  "name": "ticker",
                  "type": "string"
                },
                {
                  "internalType": "uint256",
                  "name": "supply",
                  "type": "uint256"
                },
                {
                  "internalType": "uint256",
                  "name": "price",
                  "type": "uint256"
                },
                {
                  "internalType": "uint256",
                  "name": "marketCap",
                  "type": "uint256"
                },
                {
                  "internalType": "uint256",
                  "name": "liquidity",
                  "type": "uint256"
                },
                {
                  "internalType": "uint256",
                  "name": "_liquidity",
                  "type": "uint256"
                },
                {
                  "internalType": "uint256",
                  "name": "volume24H",
                  "type": "uint256"
                },
                {
                  "internalType": "int256",
                  "name": "priceChange24H",
                  "type": "int256"
                }
              ],
              "internalType": "struct PumpFun.Data",
              "name": "data",
              "type": "tuple"
            },
            {
              "internalType": "string",
              "name": "description",
              "type": "string"
            },
            {
              "internalType": "string",
              "name": "image",
              "type": "string"
            },
            {
              "internalType": "string",
              "name": "twitter",
              "type": "string"
            },
            {
              "internalType": "string",
              "name": "telegram",
              "type": "string"
            },
            {
              "internalType": "string",
              "name": "youtube",
              "type": "string"
            },
            {
              "internalType": "string",
              "name": "website",
              "type": "string"
            },
            {
              "internalType": "bool",
              "name": "trading",
              "type": "bool"
            },
            {
              "internalType": "bool",
              "name": "tradingOnUniswap",
              "type": "bool"
            }
          ],
          "stateMutability": "view",
          "type": "function"
        },
        {
          "inputs": [
            {
              "internalType": "uint256",
              "name": "",
              "type": "uint256"
            }
          ],
          "name": "tokens",
          "outputs": [
            {
              "internalType": "address",
              "name": "creator",
              "type": "address"
            },
            {
              "internalType": "address",
              "name": "token",
              "type": "address"
            },
            {
              "internalType": "address",
              "name": "pair",
              "type": "address"
            },
            {
              "components": [
                {
                  "internalType": "address",
                  "name": "token",
                  "type": "address"
                },
                {
                  "internalType": "string",
                  "name": "name",
                  "type": "string"
                },
                {
                  "internalType": "string",
                  "name": "ticker",
                  "type": "string"
                },
                {
                  "internalType": "uint256",
                  "name": "supply",
                  "type": "uint256"
                },
                {
                  "internalType": "uint256",
                  "name": "price",
                  "type": "uint256"
                },
                {
                  "internalType": "uint256",
                  "name": "marketCap",
                  "type": "uint256"
                },
                {
                  "internalType": "uint256",
                  "name": "liquidity",
                  "type": "uint256"
                },
                {
                  "internalType": "uint256",
                  "name": "_liquidity",
                  "type": "uint256"
                },
                {
                  "internalType": "uint256",
                  "name": "volume24H",
                  "type": "uint256"
                },
                {
                  "internalType": "int256",
                  "name": "priceChange24H",
                  "type": "int256"
                }
              ],
              "internalType": "struct PumpFun.Data",
              "name": "data",
              "type": "tuple"
            },
            {
              "internalType": "string",
              "name": "description",
              "type": "string"
            },
            {
              "internalType": "string",
              "name": "image",
              "type": "string"
            },
            {
              "internalType": "string",
              "name": "twitter",
              "type": "string"
            },
            {
              "internalType": "string",
              "name": "telegram",
              "type": "string"
            },
            {
              "internalType": "string",
              "name": "youtube",
              "type": "string"
            },
            {
              "internalType": "string",
              "name": "website",
              "type": "string"
            },
            {
              "internalType": "bool",
              "name": "trading",
              "type": "bool"
            },
            {
              "internalType": "bool",
              "name": "tradingOnUniswap",
              "type": "bool"
            }
          ],
          "stateMutability": "view",
          "type": "function"
        },
        {
          "inputs": [
            {
              "internalType": "uint256",
              "name": "_fee",
              "type": "uint256"
            }
          ],
          "name": "updateLaunchFee",
          "outputs": [
            {
              "internalType": "uint256",
              "name": "",
              "type": "uint256"
            }
          ],
          "stateMutability": "nonpayable",
          "type": "function"
        },
        {
          "inputs": [],
          "name": "withdraw",
          "outputs": [
            {
              "internalType": "bool",
              "name": "",
              "type": "bool"
            }
          ],
          "stateMutability": "nonpayable",
          "type": "function"
        },
        {
          "stateMutability": "payable",
          "type": "receive"
        }
      ],
      "evm": {
        "bytecode": {
          "linkReferences": {},
          "object": "6080346200014657601f6200490438819003918201601f19168301916001600160401b038311848410176200014b5780849260809460405283398101031262000146576200004d8162000161565b6200005b6020830162000161565b60606200006b6040850162000161565b9301516001600081905580546001600160a01b03199081163317909155909390926001600160a01b03908116928190620000a785151562000176565b1691620000b683151562000176565b1691620000c583151562000176565b836002541617600255826003541617600355816004541617600455670de0b6b3a76400009182810292818404149015171562000130576103e8734752ba5dbc23f44d87826276bf6fd6b1c372ad24920460055560065416176006556040516147409081620001c48239f35b634e487b7160e01b600052601160045260246000fd5b600080fd5b634e487b7160e01b600052604160045260246000fd5b51906001600160a01b03821682036200014657565b156200017e57565b60405162461bcd60e51b815260206004820152601f60248201527f5a65726f2061646472657373657320617265206e6f7420616c6c6f7765642e006044820152606490fdfe60808060405260043610156200001f575b5036156200001d57600080fd5b005b600090813560e01c908163017e7e58146200221c57508063094b741514620021f15780633ccfd60b14620021705780634c96a38914620017a65780634f64b2be1462001599578063512b1e6e146200137d57806357f8d901146200101f5780635c52a5f21462000fce5780636d46a1db1462000efe5780637660f44a1462000ed957806380997e471462000eb25780638a664ebc1462000cdd57806398118cb41462000cbf5780639dd9d0fd1462000c7f578063aa6ca8081462000b08578063ad256f7d14620001d0578063c36fe3d6146200018c578063cf3cf573146200016c5763f46901ed036200001057346200016957602036600319011262000169576200012962002243565b6001546001600160a01b0391906200014590831633146200283d565b166200015381151562002899565b6001600160601b0360a01b600454161760045580f35b80fd5b503462000169578060031936011262000169576020600554604051908152f35b50346200016957602036600319011262000169576004359060085482101562000169576020620001bc83620027cd565b50546040516001600160a01b039091168152f35b5060e0366003190112620001695767ffffffffffffffff6004358181116200075f576200020290369060040162002780565b60243582811162000b04576200021d90369060040162002780565b60443583811162000b00576200023890369060040162002780565b60643584811162000afc576200025390369060040162002780565b936084359080821162000af8573660238301121562000af8576040519160808301838110838211176200083557604052608481018336821162000af45782600401905b82821062000ac45750505050620002ac62003343565b600554341062000a7f57604051906110ab8083019182118383101762000a6b5790829162003660833960808152620002fb620002ec608083018962002482565b82810360208401528762002482565b9060a4356040820152606060c435910152039087f094851562000a60576003546040516315ab88c960e31b81529590602090879060049082906001600160a01b03165afa95861562000a335762000394966020918a9162000a3e575b506002546040516364e329cb60e11b81526001600160a01b038b8116600483015292831660248201529889929091169082908c9082906044820190565b03925af195861562000a33578896620009fb575b5060405163313ce56760e01b81526020816004816001600160a01b038c165afa8015620009f0578990620009ac575b60ff915016604d81116200099857620003f690600a0a60a43562002985565b600354909590620004169087906001600160a01b038b8116911662003381565b156200099457346005029160058304340362000980576200043b606484043462002977565b60035460408051630e505aa960e31b81526001600160a01b038d81166004830152602482018c9052939a9390928391604491839160648b0491165af1801562000940576200094b575b50604051635d4d3d2b60e11b8152926020846004816001600160a01b038e165afa93841562000940578c9462000903575b50620004c46004948362002999565b604051635d4d3d2b60e11b8152949093906020908690816001600160a01b038f165afa948515620008f8578d95620008be575b50606486046064870460011b0460021460648704151715620008aa57908c9594939291600460208d60405192838092635d4d3d2b60e11b825260018060a01b03165afa9788156200089e57976200085f575b50868060011b04600214871517156200084b57918c99989796959391606495936040519b620005788d620022c5565b60018060a01b03168c5260208c015260408b015260608a0152608089015260a08801520460011b60c086015260011b60e085015287610100850152876101208501528151602083015191606060408501519401519460405196620005dc8862002300565b33885260018060a01b038b16602089015260018060a01b038a1660408901526060880152608087015260a086015260c085015260e084015261010083015261012082015260016101408201528461016082015260018060a01b038416855260096020526200064e8160408720620029ee565b600a5490600160401b8083101562000835576001830180600a558310156200081f57620006a78260148995600a600052027fc65a7bb8d6351c1cf70c95a316cc6a92839c986682d98bc35f958f4883f9d2a801620029ee565b620006b23362003432565b15620007635750818093620006d782933384526007602052600160408520016200330c565b6004546001600160a01b03165af1620006ef62002808565b50156200075f57600a546040518181526060949192916001916001600160a01b0380851691908716907f714aa39317ad9a7a7a99db52b44490da5d068a0b2710fffb1a1282ad3cadae1f90602090a355604080516001600160a01b03948516815291909316602082015291820152f35b8280fd5b9091506200077333151562002899565b604051906200078282620022e3565b338252606060208301523387526007602052620007a38260408920620034d9565b600854908110156200080b57806001620007c19201600855620027cd565b620007f7578693620007f18594620007dc86958695620034d9565b3384526007602052600160408520016200330c565b620006d7565b634e487b7160e01b87526004879052602487fd5b634e487b7160e01b87526041600452602487fd5b634e487b7160e01b600052603260045260246000fd5b634e487b7160e01b600052604160045260246000fd5b634e487b7160e01b8e52601160045260248efd5b9096506020813d60201162000895575b816200087e602093836200231e565b81010312620008905751953862000549565b600080fd5b3d91506200086f565b604051903d90823e3d90fd5b634e487b7160e01b8d52601160045260248dfd5b9094506020813d602011620008ef575b81620008dd602093836200231e565b810103126200089057519338620004f7565b3d9150620008ce565b6040513d8f823e3d90fd5b93506020843d60201162000937575b8162000921602093836200231e565b810103126200089057925192620004c4620004b5565b3d915062000912565b6040513d8e823e3d90fd5b620009719060403d60401162000978575b6200096881836200231e565b81019062002907565b5062000484565b503d6200095c565b634e487b7160e01b8a52601160045260248afd5b8880fd5b634e487b7160e01b89526011600452602489fd5b506020813d602011620009e7575b81620009c9602093836200231e565b8101031262000994575160ff81168103620009945760ff90620003d7565b3d9150620009ba565b6040513d8b823e3d90fd5b62000a2391965060203d60201162000a2b575b62000a1a81836200231e565b810190620028e6565b9438620003a8565b503d62000a0e565b6040513d8a823e3d90fd5b62000a599150823d841162000a2b5762000a1a81836200231e565b3862000357565b6040513d88823e3d90fd5b634e487b7160e01b89526041600452602489fd5b60405162461bcd60e51b815260206004820152601960248201527f496e73756666696369656e7420616d6f756e742073656e742e000000000000006044820152606490fd5b813585811162000af05760209162000ae483926004369189010162002780565b81520191019062000296565b8b80fd5b8980fd5b8680fd5b8580fd5b8480fd5b8380fd5b50346200016957806003193601126200016957600a5467ffffffffffffffff811162000835576020906040519062000b4760208260051b01836200231e565b80825260208201600a6000527fc65a7bb8d6351c1cf70c95a316cc6a92839c986682d98bc35f958f4883f9d2a8936000915b83831062000b95576040518062000b91878262002618565b0390f35b60148260019260405162000ba98162002300565b848060a01b03808b5416825280868c0154168483015260028b015416604082015262000bd860038b01620023f2565b606082015262000beb600d8b0162002341565b608082015262000bfe600e8b0162002341565b60a082015262000c11600f8b0162002341565b60c082015262000c2460108b0162002341565b60e082015262000c3760118b0162002341565b61010082015262000c4b60128b0162002341565b61012082015260138a015460ff90818116151561014084015260081c16151561016082015281520196019201919462000b79565b50346200016957602036600319011262000169576020906001600160a01b03906040908262000cad62002243565b16815260078452205416604051908152f35b50346200016957806003193601126200016957602060405160058152f35b5034620001695780600319360112620001695762000cfb3362003432565b1562000e6d573381526040602091600783522060405162000d1c81620022e3565b81546001600160a01b0390811682526001928301805490939167ffffffffffffffff82116200083557936040519462000d5b878460051b01876200231e565b8286526000918252868220908787015b84841062000d89578689018890526040518062000b918a8262002618565b601489879260405162000d9c8162002300565b8587541681528585880154168382015285600288015416604082015262000dc660038801620023f2565b606082015262000dd9600d880162002341565b608082015262000dec600e880162002341565b60a082015262000dff600f880162002341565b60c082015262000e126010880162002341565b60e082015262000e256011880162002341565b61010082015262000e396012880162002341565b610120820152601387015460ff90818116151561014084015260081c16151561016082015281520193019301929162000d6b565b60405162461bcd60e51b815260206004820152601c60248201527f557365722050726f66696c6520646f7365206e6f742065786973742e000000006044820152606490fd5b50346200016957806003193601126200016957602060405169152d02c7e14af68000008152f35b5034620001695760203660031901126200016957602060043580600555604051908152f35b50346200016957602036600319011262000169576001600160a01b03906040908262000f2962002243565b1681526009602052209062000b91818354169282600182015416926002820154169362000f5960038301620023f2565b9162000f68600d820162002341565b62000f76600e830162002341565b62000f84600f840162002341565b62000f926010850162002341565b9162000fa16011860162002341565b93601362000fb26012880162002341565b960154976040519b8c9b60ff808c60081c169b16998d6200254f565b503462000169576060366003190112620001695760209060016200101362000ff562002243565b62000fff6200225a565b6200100962003343565b6044359162003381565b91556040519015158152f35b50606036600319011262000169576200103762002243565b90620010426200225a565b906200104d62002271565b9060018060a01b038080808716956200106887151562002899565b16936200107785151562002899565b16906200108682151562002899565b806002541693816003541694604051906315ab88c960e31b825260209889836004818b5afa928315620013725791620010f993918b9389936200134e575b5060405163e6a4390560e01b81526001600160a01b039182166004820152921660248301529092839190829081906044820190565b03915afa908115620013435790606091869162001321575b50600460405180958193630240bc6b60e21b8352165afa928315620012ce57849185938695620012d9575b50906064604092835198899384926357f8d90160e01b84528c60048501526024840152604483015234905af1908115620012ce578495859262001297575b506200119886620011916200119f94829462002977565b9462002953565b9362002953565b908160011b938285046002148315171562001283578360011b938085046002149015171562001283579187939160408489600c9998965262001259620012538b8962001227620012136009998a8094526200120c8a620012068360068d8d20015462002985565b62002999565b9962002999565b9c838752828d52600b888820015462002953565b9a828652818152620012418d600789892001549062002977565b928652526007858520015490620029ba565b620029d7565b998152838b52209560078701556008860155840155600a830155600b820155015560405160018152f35b634e487b7160e01b81526011600452602490fd5b6200119196506200119f9250620012c3620011989160403d60401162000978576200096881836200231e565b90975092506200117a565b6040513d86823e3d90fd5b6200130a91955060409294506064935060603d60601162001319575b6200130181836200231e565b81019062002937565b9491939094959192506200113c565b503d620012f5565b6200133c9150893d8b1162000a2b5762000a1a81836200231e565b3862001111565b6040513d87823e3d90fd5b6200136a919350843d861162000a2b5762000a1a81836200231e565b9138620010c4565b6040513d89823e3d90fd5b50346200016957608036600319011262000169576200139b6200225a565b90620013a662002271565b906001600160a01b03906064358281169081900362000890578280861694620013d186151562002899565b1692620013e084151562002899565b620013ed82151562002899565b8060025416816003541690604051906315ab88c960e31b82526020988983600481875afa9283156200137257916200145e93918b9389936200134e575060405163e6a4390560e01b81526001600160a01b039182166004820152921660248301529092839190829081906044820190565b03915afa908115620013435790606091869162001577575b50600460405180958193630240bc6b60e21b8352165afa928315620012ce5784958593869562001541575b5090608460409287845195869485936328958f3760e11b855260043560048601528d6024860152604485015260648401525af1948515620012ce57849185966200150b575b506200150486620014fd6200119f94829462002953565b9462002977565b9362002977565b620014fd96506200119f925062001537620015049160403d60401162000978576200096881836200231e565b97509250620014e6565b6084975062001568919550604092945060603d60601162001319576200130181836200231e565b949197909495919250620014a1565b620015929150893d8b1162000a2b5762000a1a81836200231e565b3862001476565b5034620001695760203660031901126200016957600435600a54811015620017a257601490600a6000520260018060a01b0362000b9181837fc65a7bb8d6351c1cf70c95a316cc6a92839c986682d98bc35f958f4883f9d2a801541692827fc65a7bb8d6351c1cf70c95a316cc6a92839c986682d98bc35f958f4883f9d2a982015416927fc65a7bb8d6351c1cf70c95a316cc6a92839c986682d98bc35f958f4883f9d2aa8201541693620016707fc65a7bb8d6351c1cf70c95a316cc6a92839c986682d98bc35f958f4883f9d2ab8301620023f2565b916200169e7fc65a7bb8d6351c1cf70c95a316cc6a92839c986682d98bc35f958f4883f9d2b5820162002341565b620016cb7fc65a7bb8d6351c1cf70c95a316cc6a92839c986682d98bc35f958f4883f9d2b6830162002341565b620016f87fc65a7bb8d6351c1cf70c95a316cc6a92839c986682d98bc35f958f4883f9d2b7840162002341565b620017257fc65a7bb8d6351c1cf70c95a316cc6a92839c986682d98bc35f958f4883f9d2b8850162002341565b91620017537fc65a7bb8d6351c1cf70c95a316cc6a92839c986682d98bc35f958f4883f9d2b9860162002341565b937fc65a7bb8d6351c1cf70c95a316cc6a92839c986682d98bc35f958f4883f9d2bb62000fb27fc65a7bb8d6351c1cf70c95a316cc6a92839c986682d98bc35f958f4883f9d2ba880162002341565b5080fd5b5034620001695760203660031901126200016957620017c462002243565b90620017dc60018060a01b036001541633146200283d565b620017e662003343565b620017fc6001600160a01b038316151562002899565b6003546040516315ab88c960e31b815290602090829060049082906001600160a01b03165afa9081156200211f57620018759160209184916200214e575b5060025460405163e6a4390560e01b81526001600160a01b038781166004830152928316602482015293849290911690829081906044820190565b03915afa9081156200211f5782916200212a575b506001600160a01b0383163b15620017a2576040516306da678f60e51b81526001600160a01b03918216600482015290829082906024908290849088165af180156200211f57620020f1575b506001600160a01b0380831680835260096020526040808420600354825163e79a408960e01b8152600481019490945260646024850181905230604486015295969395919486929183918991165af1908115620012ce5784938592620020c8575b506001600160a01b03811685526009602052604080862060068101549151916200196083620022c5565b6001600160a01b03841683526200198f6005620019806004850162002341565b93602086019485520162002341565b604084015260608301528660808301528660a08301528660c08301528660e083015286610100830152866101208301526003850160018060a01b038351166001600160601b0360a01b8254161790555180519067ffffffffffffffff8211620020095762001a01600487015462002288565b601f811162002091575b50602090601f83116001146200201d5762001a3f929189918362001f44575b50508160011b916000199060031b1c19161790565b60048501555b604081015180519067ffffffffffffffff8211620020095762001a6c600587015462002288565b601f811162001fc6575b50602090601f831160011462001f5057918062001aae9261012095948b9262001f445750508160011b916000199060031b1c19161790565b60058601555b606081015160068601556080810151600786015560a0810151600886015560c0810151600986015560e0810151600a860155610100810151600b8601550151600c84015562001b0e6001600160a01b038216151562002899565b6001600160a01b03811685526009602052604085206013015460ff8116908162001f34575b501562001eef576006546040516370a0823160e01b80825230600483015293916001600160a01b03908116906020908390602490829088165afa90811562000a33578490899262001eb0575b62001b8b935062003381565b1562001e7b5760065460405163c45a015560e01b81528794916001600160a01b0316602082600481845afa91821562000a6057869262001e51575b506020600491604051928380926315ab88c960e31b82525afa90811562000a6057869260209262001c2e92859162001e2f575b506040516364e329cb60e11b81526001600160a01b03808a166004830152909116602482015293849283919082906044820190565b03926001600160a01b03165af19081156200134357859162001e0b575b5060065460405192835230600484015247926001600160a01b0391821691602090829060249082908a165afa9081156200137257879162001dcd575b509060c4606092604051958693849263f305d71960e01b845260018060a01b038b16600485015260248401528a60448401528a60648401523060848401524260a48401525af1918215620013435760209262001da9575b5060065460405163095ea7b360e01b81526001600160a01b0391821660048201526000196024820152958692604492849291165af1801562000a60577f540bcec33387745b2ced30977dcfe4a623a245511eb0a133989c27c8bb95b4a99460409460139262001d73575b5001805461ffff1916610100179055825194855260208501526001600160a01b031692a26001815580f35b62001d999060203d60201162001da1575b62001d9081836200231e565b81019062003367565b503862001d48565b503d62001d84565b62001dc59060603d60601162001319576200130181836200231e565b505062001cde565b919650506020813d60201162001e02575b8162001ded602093836200231e565b8101031262000890575188959060c462001c87565b3d915062001dde565b62001e28915060203d60201162000a2b5762000a1a81836200231e565b3862001c4b565b62001e4a9150843d861162000a2b5762000a1a81836200231e565b3862001bf9565b600491925062001e72602091823d841162000a2b5762000a1a81836200231e565b92915062001bc6565b60405162461bcd60e51b815260206004820152600d60248201526c2737ba1030b8383937bb32b21760991b6044820152606490fd5b9150506020823d60201162001ee6575b8162001ecf602093836200231e565b8101031262000890578362001b8b92519162001b7f565b3d915062001ec0565b60405162461bcd60e51b815260206004820152601760248201527f74726164696e6720697320616c7265616479206f70656e0000000000000000006044820152606490fd5b60ff915060081c16153862001b33565b01519050388062001a2a565b906005870189526020892091895b601f198516811062001fad57509183916001936101209695601f1981161062001f93575b505050811b01600586015562001ab4565b015160001960f88460031b161c1916905538808062001f82565b9192602060018192868501518155019401920162001f5e565b62001ff790600588018a5260208a20601f850160051c8101916020861062001ffe575b601f0160051c01906200291e565b3862001a76565b909150819062001fe9565b634e487b7160e01b88526041600452602488fd5b9190600487018952602089209089935b601f198416851062002075576001945083601f198116106200205b575b505050811b01600485015562001a45565b015160001960f88460031b161c191690553880806200204a565b818101518355602094850194600190930192909101906200202d565b620020c190600488018a5260208a20601f850160051c8101916020861062001ffe57601f0160051c01906200291e565b3862001a0b565b909350620020e8915060403d60401162000978576200096881836200231e565b90923862001936565b67ffffffffffffffff81116200210b5760405238620018d5565b634e487b7160e01b82526041600452602482fd5b6040513d84823e3d90fd5b62002147915060203d60201162000a2b5762000a1a81836200231e565b3862001889565b620021699150823d841162000a2b5762000a1a81836200231e565b386200183a565b5034620001695780600319360112620001695760015481908190819047906001600160a01b03165af1620021a362002808565b5015620021b557602060405160018152f35b60405162461bcd60e51b81526020600482015260146024820152732a3930b739b332b91022aa24102330b4b632b21760611b6044820152606490fd5b503462000169578060031936011262000169576001546040516001600160a01b039091168152602090f35b905034620017a25781600319360112620017a2576004546001600160a01b03168152602090f35b600435906001600160a01b03821682036200089057565b602435906001600160a01b03821682036200089057565b604435906001600160a01b03821682036200089057565b90600182811c92168015620022ba575b6020831014620022a457565b634e487b7160e01b600052602260045260246000fd5b91607f169162002298565b610140810190811067ffffffffffffffff8211176200083557604052565b6040810190811067ffffffffffffffff8211176200083557604052565b610180810190811067ffffffffffffffff8211176200083557604052565b90601f8019910116810190811067ffffffffffffffff8211176200083557604052565b90604051918260008254620023568162002288565b90818452602094600191600181169081600014620023ce57506001146200238b575b50505062002389925003836200231e565b565b600090815285812095935091905b818310620023b557505062002389935082010138808062002378565b8554888401850152948501948794509183019162002399565b925050506200238994925060ff191682840152151560051b82010138808062002378565b906040516200240181620022c5565b82546001600160a01b0316815291829061012090600990620024266001820162002341565b6020850152620024396002820162002341565b60408501526003810154606085015260048101546080850152600581015460a0850152600681015460c0850152600781015460e085015260088101546101008501520154910152565b919082519283825260005b848110620024af575050826000602080949584010152601f8019910116010190565b6020818301810151848301820152016200248d565b9062002504620024f161014060018060a01b03855116845260208501519080602086015284019062002482565b6040840151838203604085015262002482565b91606081015160608301526080810151608083015260a081015160a083015260c081015160c083015260e081015160e083015261010080820151908301526101208091015191015290565b9a9c9b9894620025f896620025bb8d620025ca93620025ac6101609f9c9699620025e89a620026089f9a99620025d99a6101809260018060a01b0392838092168952166020880152166040860152806060860152840190620024c4565b91608081840391015262002482565b8d810360a08f01529062002482565b908b820360c08d015262002482565b9089820360e08b015262002482565b9087820361010089015262002482565b9085820361012087015262002482565b9415156101408401521515910152565b6020808201908083528351809252604092604081018260408560051b8401019601946000925b85841062002650575050505050505090565b909192939495968580600192603f198582030187528a519062002737620027226200270d620026f9620026e5620026d1620026bd8d610180908d8060a01b03808c51168b52808d8d0151168d8c0152818c015116908a015260609080828c0151928b0152890190620024c4565b6080808a015190898303908a015262002482565b60a080890151908883039089015262002482565b60c080880151908783039088015262002482565b60e080870151908683039087015262002482565b61010080860151908583039086015262002482565b61012080850151908483039085015262002482565b91610140808201511515908301526101608091015115159101529901940194019295949391906200263e565b67ffffffffffffffff81116200083557601f01601f191660200190565b81601f8201121562000890578035906200279a8262002763565b92620027aa60405194856200231e565b828452602083830101116200089057816000926020809301838601378301015290565b6008548110156200081f57600860005260011b7ff3f7a9fe364faab93b216da50a3214154f22a0a2b415b23a84c8169e8b636ee30190600090565b3d1562002838573d906200281c8262002763565b916200282c60405193846200231e565b82523d6000602084013e565b606090565b156200284557565b60405162461bcd60e51b815260206004820152602660248201527f4f6e6c7920746865206f776e65722063616e2063616c6c20746869732066756e60448201526531ba34b7b71760d11b6064820152608490fd5b15620028a157565b60405162461bcd60e51b815260206004820152601f60248201527f5a65726f2061646472657373657320617265206e6f7420616c6c6f7765642e006044820152606490fd5b908160209103126200089057516001600160a01b0381168103620008905790565b919082604091031262000890576020825192015190565b8181106200292a575050565b600081556001016200291e565b9081606091031262000890578051916040602083015192015190565b919082018092116200296157565b634e487b7160e01b600052601160045260246000fd5b919082039182116200296157565b818102929181159184041417156200296157565b8115620029a4570490565b634e487b7160e01b600052601260045260246000fd5b8115620029a457600160ff1b811460001983141662002961570590565b906064820291808305606414901517156200296157565b919060018060a01b039283825116936001600160601b0360a01b94858354161782556001948583019060209183838701511682825416179055600284018360408701511682825416179055600390818501906060870151948551169082541617905560049687850192808501519283519467ffffffffffffffff95868111620032f75762002a7d825462002288565b95601f96878111620032ba575b508490878311600114620032545762002abc92916000918362001f445750508160011b916000199060031b1c19161790565b90555b6005808801604088015180519088821162002f315762002ae0835462002288565b88811162003224575b508590888311600114620031be5762002b1b92916000918362001f445750508160011b916000199060031b1c19161790565b90555b606087015160068901556080870151600789015560a0870151600889015560c0870151600989015560e0870151600a89015561010080880151600b8a015561012080980151600c8a0155600d890160808b015180519089821162002fe75762002b88835462002288565b8981116200318e575b508690898311600114620031285762002bc392916000918362001f445750508160011b916000199060031b1c19161790565b90555b600e890160a08b015180519089821162002fe75762002be6835462002288565b898111620030f8575b508690898311600114620030925762002c2192916000918362001f445750508160011b916000199060031b1c19161790565b90555b600f890160c08b015180519089821162002fe75762002c44835462002288565b89811162003062575b50869089831160011462002ffc5762002c7f92916000918362001f445750508160011b916000199060031b1c19161790565b90555b6010890160e08b015180519089821162002fe75762002ca2835462002288565b89811162002fac575b50869089831160011462002f465762002cdd92916000918362001f445750508160011b916000199060031b1c19161790565b90555b890151805160118a019188821162002f315762002cfe835462002288565b88811162002ef6575b50859088831160011462002e905762002d3992916000918362001f445750508160011b916000199060031b1c19161790565b90555b60128801968901519a8b5196871162002e7b575062002d5c875462002288565b85811162002e3e575b50508193851160011462002dce57505050908062002d9f92601396979860009262001f445750508160011b916000199060031b1c19161790565b90555b019061014081015115159060ff61ff006101608554930151151560081b1692169061ffff191617179055565b90919392601f198416998660005283600020936000905b8c821062002e26575050846013999a9b1062002e0b575b50505050811b01905562002da2565b01519060f884600019921b161c191690553880808062002dfc565b80888597829496860151815501960193019062002de5565b62002e699188600052846000209087808a01821c830193878b1062002e71575b01901c01906200291e565b388062002d65565b9350829362002e5e565b604190634e487b7160e01b6000525260246000fd5b879291601f1983169185600052886000209260005b8a82821062002edf575050841162002ec6575b505050811b01905562002d3c565b015160001983881b60f8161c1916905538808062002eb8565b8385015186558c9790950194938401930162002ea5565b62002f209084600052876000208a808601881c8201928a871062002f27575b01871c01906200291e565b3862002d07565b9250819262002f15565b60418e634e487b7160e01b6000525260246000fd5b889291601f1983169185600052896000209260005b8b82821062002f95575050841162002f7c575b505050811b01905562002ce0565b015160001983891b60f8161c1916905538808062002f6e565b8385015186558d9790950194938401930162002f5b565b62002fd69084600052886000208b808601891c8201928b871062002fdd575b01881c01906200291e565b3862002cab565b9250819262002fcb565b60418f634e487b7160e01b6000525260246000fd5b889291601f1983169185600052896000209260005b8b8282106200304b575050841162003032575b505050811b01905562002c82565b015160001983891b60f8161c1916905538808062003024565b8385015186558d9790950194938401930162003011565b6200308b9084600052886000208b808601891c8201928b871062002fdd5701881c01906200291e565b3862002c4d565b889291601f1983169185600052896000209260005b8b828210620030e15750508411620030c8575b505050811b01905562002c24565b015160001983891b60f8161c19169055388080620030ba565b8385015186558d97909501949384019301620030a7565b620031219084600052886000208b808601891c8201928b871062002fdd5701881c01906200291e565b3862002bef565b889291601f1983169185600052896000209260005b8b8282106200317757505084116200315e575b505050811b01905562002bc6565b015160001983891b60f8161c1916905538808062003150565b8385015186558d979095019493840193016200313d565b620031b79084600052886000208b808601891c8201928b871062002fdd5701881c01906200291e565b3862002b91565b879291601f1983169185600052886000209260005b8a8282106200320d5750508411620031f4575b505050811b01905562002b1e565b015160001983881b60f8161c19169055388080620031e6565b8385015186558c97909501949384019301620031d3565b6200324d9084600052876000208a808601881c8201928a871062002f275701871c01906200291e565b3862002ae9565b869291601f1983169185600052876000209260005b89828210620032a357505084116200328a575b505050811b01905562002abf565b015160001983871b60f8161c191690553880806200327c565b8385015186558b9790950194938401930162003269565b620032e69084600052866000208980860160051c820192898710620032ed575b0160051c01906200291e565b3862002a8a565b92508192620032da565b60418c634e487b7160e01b6000525260246000fd5b908154600160401b8110156200083557600181018084558110156200081f57620023899260005260146020600020910201620029ee565b60026000541462003355576002600055565b604051633ee5aeb560e01b8152600490fd5b908160209103126200089057518015158103620008905790565b620033eb926020929091906001600160a01b0390620033a4828416151562002899565b1690620033b382151562002899565b60405163095ea7b360e01b81526001600160a01b03909116600482015260248101929092529092839190829060009082906044820190565b03925af18015620034265762003402575b50600190565b6200341e9060203d60201162001da15762001d9081836200231e565b5038620033fc565b6040513d6000823e3d90fd5b6001600160a01b039081166200344a81151562002899565b6008549160005b838110620034625750505050600090565b82826200346f83620027cd565b50541614620034815760010162003451565b50505050600190565b62003496815462002288565b9081620034a1575050565b81601f60009311600114620034b4575055565b908083918252620034d5601f60208420940160051c8401600185016200291e565b5555565b815181546001600160a01b0319166001600160a01b039190911617815560209182015180516001939092840191600160401b84116200083557825484845580851062003560575b506020019160005260206000206000925b8484106200354157505050505050565b601483826200355389945186620029ee565b0192019301929062003531565b6014908060140290601482040362002961578560140260148104870362002961576000908682526020822092830192015b828110620035a25750505062003520565b8082859255828a820155826002820155826003820155620035c6600482016200348a565b620035d4600582016200348a565b82600682015582600782015582600882015582600982015582600a82015582600b82015582600c8201556200360c600d82016200348a565b6200361a600e82016200348a565b62003628600f82016200348a565b62003636601082016200348a565b62003644601182016200348a565b62003652601282016200348a565b826013820155016200359156fe604060808152346200042957620010ab803803806200001e816200042e565b928339810190608081830312620004295780516001600160401b039190828111620004295783620000519183016200046a565b90602093848201519084821162000429576200006f9183016200046a565b606086830151920151906000943360018060a01b031987541617865533867f8be0079c531659141344cd1fd0a4f28419497f9722a3daafe3b4186f6b6457e08180a384518181116200034357600254906001968783811c931680156200041e575b8a84101462000324578190601f93848111620003ca575b508a9084831160011462000363578a9262000357575b5050600019600383901b1c191690871b176002555b8251918211620003435760039283548781811c9116801562000338575b8a821014620003245790818385949311620002cf575b50899183116001146200026c57889262000260575b505060001982841b1c191690851b1790555b670de0b6b3a7640000918281029281840414901517156200024c5781835560058111620001fe57907fddf252ad1be2c89b69c2b068fc378daa952ba7f163c4a11628f55a4df523b3ef929160045533845260058552858420556007845284832060ff199082828254161790553084528186852091825416179055549284519384523393a351610bce9081620004dd8239f35b855162461bcd60e51b815260048101869052602160248201527f4d6178205472616e73616374696f6e2063616e6e6f74206578636565642035256044820152601760f91b6064820152608490fd5b634e487b7160e01b84526011600452602484fd5b0151905038806200015a565b8489528989208894509190601f1984168a5b8c828210620002b857505084116200029f575b505050811b0190556200016c565b015160001983861b60f8161c1916905538808062000291565b8385015186558b979095019493840193016200027e565b909192508489528989208380860160051c8201928c87106200031a575b9186958b929594930160051c01915b8281106200030b57505062000145565b8b81558695508a9101620002fb565b92508192620002ec565b634e487b7160e01b89526022600452602489fd5b90607f16906200012f565b634e487b7160e01b87526041600452602487fd5b015190503880620000fd565b60028b528b8b208a94509190601f1984168c8e5b828210620003b2575050841162000398575b505050811b0160025562000112565b015160001960f88460031b161c1916905538808062000389565b8385015186558d979095019493840193018e62000377565b90915060028a528a8a208480850160051c8201928d861062000414575b918b91869594930160051c01915b82811062000405575050620000e7565b8c81558594508b9101620003f5565b92508192620003e7565b92607f1692620000d0565b600080fd5b6040519190601f01601f191682016001600160401b038111838210176200045457604052565b634e487b7160e01b600052604160045260246000fd5b919080601f84011215620004295782516001600160401b0381116200045457602090620004a0601f8201601f191683016200042e565b92818452828287010111620004295760005b818110620004c857508260009394955001015290565b8581018301518482018401528201620004b256fe608060408181526004918236101561001657600080fd5b600092833560e01c91826306fdde03146105b557508163095ea7b31461058b57816318160ddd1461056c57816323b872dd14610497578163313ce5671461047b57816370a0823114610443578163715018a6146103e45781637437681e146103c65781638da5cb5b1461039e57816395d89b4114610299578163a9059cbb14610268578163c2d0ffca146101b9578163db4cf1e01461010a575063dd62ed3e146100bf57600080fd5b34610106578060031936011261010657806020926100db6106bd565b6100e36106d8565b6001600160a01b0391821683526006865283832091168252845220549051908152f35b5080fd5b9050346101b55760203660031901126101b5576101256106bd565b83546001600160a01b03919061013e9083163314610726565b1690811561015e5750825260076020528120805460ff1916600117905580f35b608490602084519162461bcd60e51b8352820152602b60248201527f45524332303a204578636c756465204d61782054782066726f6d20746865207a60448201526a65726f206164647265737360a81b6064820152fd5b8280fd5b919050346101b55760203660031901126101b5578135916101e460018060a01b038554163314610726565b6005831161021c5791602091817fff3dd5e80294197918c284bbfc3dadd97d0b40ce92106110946329088f80068a945551908152a180f35b6020608492519162461bcd60e51b8352820152602160248201527f4d6178205472616e73616374696f6e2063616e6e6f74206578636565642035256044820152601760f91b6064820152fd5b5050346101065780600319360112610106576020906102926102886106bd565b6024359033610873565b5160018152f35b919050346101b557826003193601126101b55780519183600354906001908260011c92600181168015610394575b6020958686108214610381575084885290811561035f5750600114610306575b61030286866102f8828b03836106ee565b5191829182610674565b0390f35b929550600383527fc2575a0e9e593c00f959f8c92f12db2869c3395a3b0502d05e2516446f71f85b5b82841061034c5750505082610302946102f89282010194386102e7565b805486850188015292860192810161032f565b60ff191687860152505050151560051b83010192506102f882610302386102e7565b634e487b7160e01b845260229052602483fd5b93607f16936102c7565b505034610106578160031936011261010657905490516001600160a01b039091168152602090f35b9050346101b557826003193601126101b55760209250549051908152f35b83346104405780600319360112610440578054816001600160a01b03821661040d338214610726565b7f8be0079c531659141344cd1fd0a4f28419497f9722a3daafe3b4186f6b6457e08280a36001600160a01b031916815580f35b80fd5b5050346101065760203660031901126101065760209181906001600160a01b0361046b6106bd565b1681526005845220549051908152f35b5050346101065781600319360112610106576020905160128152f35b828434610440576060366003190112610440576104b26106bd565b906104bb6106d8565b6104c9604435809285610873565b6001600160a01b038316825260066020908152848320338452905283822054845192606084019067ffffffffffffffff8211858310176105595760208761029288610551898989898752602883527f45524332303a207472616e7366657220616d6f756e742065786365656473206188840152676c6c6f77616e636560c01b87840152610b4d565b903390610771565b634e487b7160e01b815260418852602490fd5b5050346101065781600319360112610106576020906001549051908152f35b5050346101065780600319360112610106576020906102926105ab6106bd565b6024359033610771565b92915034610670578360031936011261067057600254600181811c9186908281168015610666575b6020958686108214610381575084885290811561035f575060011461060d5761030286866102f8828b03836106ee565b929550600283527f405787fa12a823e0f2b7631cc41b3ba8828b3321ca811111fa75cd3aa3bb5ace5b8284106106535750505082610302946102f89282010194386102e7565b8054868501880152928601928101610636565b93607f16936105dd565b8380fd5b6020808252825181830181905290939260005b8281106106a957505060409293506000838284010152601f8019910116010190565b818101860151848201604001528501610687565b600435906001600160a01b03821682036106d357565b600080fd5b602435906001600160a01b03821682036106d357565b90601f8019910116810190811067ffffffffffffffff82111761071057604052565b634e487b7160e01b600052604160045260246000fd5b1561072d57565b606460405162461bcd60e51b815260206004820152602060248201527f4f776e61626c653a2063616c6c6572206973206e6f7420746865206f776e65726044820152fd5b6001600160a01b0390811691821561082257169182156107d25760207f8c5be1e5ebec7d5bd14f71427d1e84f3dd0314c0f7b2291e5b200ac8c7c3b925918360005260068252604060002085600052825280604060002055604051908152a3565b60405162461bcd60e51b815260206004820152602260248201527f45524332303a20617070726f766520746f20746865207a65726f206164647265604482015261737360f01b6064820152608490fd5b60405162461bcd60e51b8152602060048201526024808201527f45524332303a20617070726f76652066726f6d20746865207a65726f206164646044820152637265737360e01b6064820152608490fd5b9192916001600160a01b03908116918215610afa5716908115610aa9578315610a5257600480549460015495868102968188041490151715610a3d576000958387526020926007845260409160ff838a205416156109ec575b50848852600584528188205482519083820182811067ffffffffffffffff8211176109d957610928929186918652601e83527f536166654d6174683a207375627472616374696f6e206f766572666c6f77000088840152610b4d565b85895260058552828920558588528188205490838201918281116109c657821061098357508188877fddf252ad1be2c89b69c2b068fc378daa952ba7f163c4a11628f55a4df523b3ef9798999a5260058652205551908152a3565b825162461bcd60e51b8152908101859052601b60248201527f536166654d6174683a206164646974696f6e206f766572666c6f7700000000006044820152606490fd5b634e487b7160e01b8a526011825260248afd5b634e487b7160e01b8b526041845260248bfd5b6064900483116109fc57386108cc565b83606492519162461bcd60e51b8352820152601860248201527f4578636565647320746865204d61785478416d6f756e742e00000000000000006044820152fd5b601182634e487b7160e01b6000525260246000fd5b60405162461bcd60e51b815260206004820152602960248201527f5472616e7366657220616d6f756e74206d7573742062652067726561746572206044820152687468616e207a65726f60b81b6064820152608490fd5b60405162461bcd60e51b815260206004820152602360248201527f45524332303a207472616e7366657220746f20746865207a65726f206164647260448201526265737360e81b6064820152608490fd5b60405162461bcd60e51b815260206004820152602560248201527f45524332303a207472616e736665722066726f6d20746865207a65726f206164604482015264647265737360d81b6064820152608490fd5b91828211610b7857508103908111610b625790565b634e487b7160e01b600052601160045260246000fd5b60405162461bcd60e51b8152908190610b949060048301610674565b0390fdfea2646970667358221220c49e554740cb71aa09a85b3746b1a934acbfb9371a9f5eefd27a7b626ea785f264736f6c63430008180033a2646970667358221220b352b7b0b7048b44185b419cc10f8e18b634b2b3ec451f5d08c248213ab26b8364736f6c63430008180033",
          "opcodes": "PUSH1 0x80 CALLVALUE PUSH3 0x146 JUMPI PUSH1 0x1F PUSH3 0x4904 CODESIZE DUP2 SWAP1 SUB SWAP2 DUP3 ADD PUSH1 0x1F NOT AND DUP4 ADD SWAP2 PUSH1 0x1 PUSH1 0x1 PUSH1 0x40 SHL SUB DUP4 GT DUP5 DUP5 LT OR PUSH3 0x14B JUMPI DUP1 DUP5 SWAP3 PUSH1 0x80 SWAP5 PUSH1 0x40 MSTORE DUP4 CODECOPY DUP2 ADD SUB SLT PUSH3 0x146 JUMPI PUSH3 0x4D DUP2 PUSH3 0x161 JUMP JUMPDEST PUSH3 0x5B PUSH1 0x20 DUP4 ADD PUSH3 0x161 JUMP JUMPDEST PUSH1 0x60 PUSH3 0x6B PUSH1 0x40 DUP6 ADD PUSH3 0x161 JUMP JUMPDEST SWAP4 ADD MLOAD PUSH1 0x1 PUSH1 0x0 DUP2 SWAP1 SSTORE DUP1 SLOAD PUSH1 0x1 PUSH1 0x1 PUSH1 0xA0 SHL SUB NOT SWAP1 DUP2 AND CALLER OR SWAP1 SWAP2 SSTORE SWAP1 SWAP4 SWAP1 SWAP3 PUSH1 0x1 PUSH1 0x1 PUSH1 0xA0 SHL SUB SWAP1 DUP2 AND SWAP3 DUP2 SWAP1 PUSH3 0xA7 DUP6 ISZERO ISZERO PUSH3 0x176 JUMP JUMPDEST AND SWAP2 PUSH3 0xB6 DUP4 ISZERO ISZERO PUSH3 0x176 JUMP JUMPDEST AND SWAP2 PUSH3 0xC5 DUP4 ISZERO ISZERO PUSH3 0x176 JUMP JUMPDEST DUP4 PUSH1 0x2 SLOAD AND OR PUSH1 0x2 SSTORE DUP3 PUSH1 0x3 SLOAD AND OR PUSH1 0x3 SSTORE DUP2 PUSH1 0x4 SLOAD AND OR PUSH1 0x4 SSTORE PUSH8 0xDE0B6B3A7640000 SWAP2 DUP3 DUP2 MUL SWAP3 DUP2 DUP5 DIV EQ SWAP1 ISZERO OR ISZERO PUSH3 0x130 JUMPI PUSH2 0x3E8 PUSH20 0x4752BA5DBC23F44D87826276BF6FD6B1C372AD24 SWAP3 DIV PUSH1 0x5 SSTORE PUSH1 0x6 SLOAD AND OR PUSH1 0x6 SSTORE PUSH1 0x40 MLOAD PUSH2 0x4740 SWAP1 DUP2 PUSH3 0x1C4 DUP3 CODECOPY RETURN JUMPDEST PUSH4 0x4E487B71 PUSH1 0xE0 SHL PUSH1 0x0 MSTORE PUSH1 0x11 PUSH1 0x4 MSTORE PUSH1 0x24 PUSH1 0x0 REVERT JUMPDEST PUSH1 0x0 DUP1 REVERT JUMPDEST PUSH4 0x4E487B71 PUSH1 0xE0 SHL PUSH1 0x0 MSTORE PUSH1 0x41 PUSH1 0x4 MSTORE PUSH1 0x24 PUSH1 0x0 REVERT JUMPDEST MLOAD SWAP1 PUSH1 0x1 PUSH1 0x1 PUSH1 0xA0 SHL SUB DUP3 AND DUP3 SUB PUSH3 0x146 JUMPI JUMP JUMPDEST ISZERO PUSH3 0x17E JUMPI JUMP JUMPDEST PUSH1 0x40 MLOAD PUSH3 0x461BCD PUSH1 0xE5 SHL DUP2 MSTORE PUSH1 0x20 PUSH1 0x4 DUP3 ADD MSTORE PUSH1 0x1F PUSH1 0x24 DUP3 ADD MSTORE PUSH32 0x5A65726F2061646472657373657320617265206E6F7420616C6C6F7765642E00 PUSH1 0x44 DUP3 ADD MSTORE PUSH1 0x64 SWAP1 REVERT INVALID PUSH1 0x80 DUP1 PUSH1 0x40 MSTORE PUSH1 0x4 CALLDATASIZE LT ISZERO PUSH3 0x1F JUMPI JUMPDEST POP CALLDATASIZE ISZERO PUSH3 0x1D JUMPI PUSH1 0x0 DUP1 REVERT JUMPDEST STOP JUMPDEST PUSH1 0x0 SWAP1 DUP2 CALLDATALOAD PUSH1 0xE0 SHR SWAP1 DUP2 PUSH4 0x17E7E58 EQ PUSH3 0x221C JUMPI POP DUP1 PUSH4 0x94B7415 EQ PUSH3 0x21F1 JUMPI DUP1 PUSH4 0x3CCFD60B EQ PUSH3 0x2170 JUMPI DUP1 PUSH4 0x4C96A389 EQ PUSH3 0x17A6 JUMPI DUP1 PUSH4 0x4F64B2BE EQ PUSH3 0x1599 JUMPI DUP1 PUSH4 0x512B1E6E EQ PUSH3 0x137D JUMPI DUP1 PUSH4 0x57F8D901 EQ PUSH3 0x101F JUMPI DUP1 PUSH4 0x5C52A5F2 EQ PUSH3 0xFCE JUMPI DUP1 PUSH4 0x6D46A1DB EQ PUSH3 0xEFE JUMPI DUP1 PUSH4 0x7660F44A EQ PUSH3 0xED9 JUMPI DUP1 PUSH4 0x80997E47 EQ PUSH3 0xEB2 JUMPI DUP1 PUSH4 0x8A664EBC EQ PUSH3 0xCDD JUMPI DUP1 PUSH4 0x98118CB4 EQ PUSH3 0xCBF JUMPI DUP1 PUSH4 0x9DD9D0FD EQ PUSH3 0xC7F JUMPI DUP1 PUSH4 0xAA6CA808 EQ PUSH3 0xB08 JUMPI DUP1 PUSH4 0xAD256F7D EQ PUSH3 0x1D0 JUMPI DUP1 PUSH4 0xC36FE3D6 EQ PUSH3 0x18C JUMPI DUP1 PUSH4 0xCF3CF573 EQ PUSH3 0x16C JUMPI PUSH4 0xF46901ED SUB PUSH3 0x10 JUMPI CALLVALUE PUSH3 0x169 JUMPI PUSH1 0x20 CALLDATASIZE PUSH1 0x3 NOT ADD SLT PUSH3 0x169 JUMPI PUSH3 0x129 PUSH3 0x2243 JUMP JUMPDEST PUSH1 0x1 SLOAD PUSH1 0x1 PUSH1 0x1 PUSH1 0xA0 SHL SUB SWAP2 SWAP1 PUSH3 0x145 SWAP1 DUP4 AND CALLER EQ PUSH3 0x283D JUMP JUMPDEST AND PUSH3 0x153 DUP2 ISZERO ISZERO PUSH3 0x2899 JUMP JUMPDEST PUSH1 0x1 PUSH1 0x1 PUSH1 0x60 SHL SUB PUSH1 0xA0 SHL PUSH1 0x4 SLOAD AND OR PUSH1 0x4 SSTORE DUP1 RETURN JUMPDEST DUP1 REVERT JUMPDEST POP CALLVALUE PUSH3 0x169 JUMPI DUP1 PUSH1 0x3 NOT CALLDATASIZE ADD SLT PUSH3 0x169 JUMPI PUSH1 0x20 PUSH1 0x5 SLOAD PUSH1 0x40 MLOAD SWAP1 DUP2 MSTORE RETURN JUMPDEST POP CALLVALUE PUSH3 0x169 JUMPI PUSH1 0x20 CALLDATASIZE PUSH1 0x3 NOT ADD SLT PUSH3 0x169 JUMPI PUSH1 0x4 CALLDATALOAD SWAP1 PUSH1 0x8 SLOAD DUP3 LT ISZERO PUSH3 0x169 JUMPI PUSH1 0x20 PUSH3 0x1BC DUP4 PUSH3 0x27CD JUMP JUMPDEST POP SLOAD PUSH1 0x40 MLOAD PUSH1 0x1 PUSH1 0x1 PUSH1 0xA0 SHL SUB SWAP1 SWAP2 AND DUP2 MSTORE RETURN JUMPDEST POP PUSH1 0xE0 CALLDATASIZE PUSH1 0x3 NOT ADD SLT PUSH3 0x169 JUMPI PUSH8 0xFFFFFFFFFFFFFFFF PUSH1 0x4 CALLDATALOAD DUP2 DUP2 GT PUSH3 0x75F JUMPI PUSH3 0x202 SWAP1 CALLDATASIZE SWAP1 PUSH1 0x4 ADD PUSH3 0x2780 JUMP JUMPDEST PUSH1 0x24 CALLDATALOAD DUP3 DUP2 GT PUSH3 0xB04 JUMPI PUSH3 0x21D SWAP1 CALLDATASIZE SWAP1 PUSH1 0x4 ADD PUSH3 0x2780 JUMP JUMPDEST PUSH1 0x44 CALLDATALOAD DUP4 DUP2 GT PUSH3 0xB00 JUMPI PUSH3 0x238 SWAP1 CALLDATASIZE SWAP1 PUSH1 0x4 ADD PUSH3 0x2780 JUMP JUMPDEST PUSH1 0x64 CALLDATALOAD DUP5 DUP2 GT PUSH3 0xAFC JUMPI PUSH3 0x253 SWAP1 CALLDATASIZE SWAP1 PUSH1 0x4 ADD PUSH3 0x2780 JUMP JUMPDEST SWAP4 PUSH1 0x84 CALLDATALOAD SWAP1 DUP1 DUP3 GT PUSH3 0xAF8 JUMPI CALLDATASIZE PUSH1 0x23 DUP4 ADD SLT ISZERO PUSH3 0xAF8 JUMPI PUSH1 0x40 MLOAD SWAP2 PUSH1 0x80 DUP4 ADD DUP4 DUP2 LT DUP4 DUP3 GT OR PUSH3 0x835 JUMPI PUSH1 0x40 MSTORE PUSH1 0x84 DUP2 ADD DUP4 CALLDATASIZE DUP3 GT PUSH3 0xAF4 JUMPI DUP3 PUSH1 0x4 ADD SWAP1 JUMPDEST DUP3 DUP3 LT PUSH3 0xAC4 JUMPI POP POP POP POP PUSH3 0x2AC PUSH3 0x3343 JUMP JUMPDEST PUSH1 0x5 SLOAD CALLVALUE LT PUSH3 0xA7F JUMPI PUSH1 0x40 MLOAD SWAP1 PUSH2 0x10AB DUP1 DUP4 ADD SWAP2 DUP3 GT DUP4 DUP4 LT OR PUSH3 0xA6B JUMPI SWAP1 DUP3 SWAP2 PUSH3 0x3660 DUP4 CODECOPY PUSH1 0x80 DUP2 MSTORE PUSH3 0x2FB PUSH3 0x2EC PUSH1 0x80 DUP4 ADD DUP10 PUSH3 0x2482 JUMP JUMPDEST DUP3 DUP2 SUB PUSH1 0x20 DUP5 ADD MSTORE DUP8 PUSH3 0x2482 JUMP JUMPDEST SWAP1 PUSH1 0xA4 CALLDATALOAD PUSH1 0x40 DUP3 ADD MSTORE PUSH1 0x60 PUSH1 0xC4 CALLDATALOAD SWAP2 ADD MSTORE SUB SWAP1 DUP8 CREATE SWAP5 DUP6 ISZERO PUSH3 0xA60 JUMPI PUSH1 0x3 SLOAD PUSH1 0x40 MLOAD PUSH4 0x15AB88C9 PUSH1 0xE3 SHL DUP2 MSTORE SWAP6 SWAP1 PUSH1 0x20 SWAP1 DUP8 SWAP1 PUSH1 0x4 SWAP1 DUP3 SWAP1 PUSH1 0x1 PUSH1 0x1 PUSH1 0xA0 SHL SUB AND GAS STATICCALL SWAP6 DUP7 ISZERO PUSH3 0xA33 JUMPI PUSH3 0x394 SWAP7 PUSH1 0x20 SWAP2 DUP11 SWAP2 PUSH3 0xA3E JUMPI JUMPDEST POP PUSH1 0x2 SLOAD PUSH1 0x40 MLOAD PUSH4 0x64E329CB PUSH1 0xE1 SHL DUP2 MSTORE PUSH1 0x1 PUSH1 0x1 PUSH1 0xA0 SHL SUB DUP12 DUP2 AND PUSH1 0x4 DUP4 ADD MSTORE SWAP3 DUP4 AND PUSH1 0x24 DUP3 ADD MSTORE SWAP9 DUP10 SWAP3 SWAP1 SWAP2 AND SWAP1 DUP3 SWAP1 DUP13 SWAP1 DUP3 SWAP1 PUSH1 0x44 DUP3 ADD SWAP1 JUMP JUMPDEST SUB SWAP3 GAS CALL SWAP6 DUP7 ISZERO PUSH3 0xA33 JUMPI DUP9 SWAP7 PUSH3 0x9FB JUMPI JUMPDEST POP PUSH1 0x40 MLOAD PUSH4 0x313CE567 PUSH1 0xE0 SHL DUP2 MSTORE PUSH1 0x20 DUP2 PUSH1 0x4 DUP2 PUSH1 0x1 PUSH1 0x1 PUSH1 0xA0 SHL SUB DUP13 AND GAS STATICCALL DUP1 ISZERO PUSH3 0x9F0 JUMPI DUP10 SWAP1 PUSH3 0x9AC JUMPI JUMPDEST PUSH1 0xFF SWAP2 POP AND PUSH1 0x4D DUP2 GT PUSH3 0x998 JUMPI PUSH3 0x3F6 SWAP1 PUSH1 0xA EXP PUSH1 0xA4 CALLDATALOAD PUSH3 0x2985 JUMP JUMPDEST PUSH1 0x3 SLOAD SWAP1 SWAP6 SWAP1 PUSH3 0x416 SWAP1 DUP8 SWAP1 PUSH1 0x1 PUSH1 0x1 PUSH1 0xA0 SHL SUB DUP12 DUP2 AND SWAP2 AND PUSH3 0x3381 JUMP JUMPDEST ISZERO PUSH3 0x994 JUMPI CALLVALUE PUSH1 0x5 MUL SWAP2 PUSH1 0x5 DUP4 DIV CALLVALUE SUB PUSH3 0x980 JUMPI PUSH3 0x43B PUSH1 0x64 DUP5 DIV CALLVALUE PUSH3 0x2977 JUMP JUMPDEST PUSH1 0x3 SLOAD PUSH1 0x40 DUP1 MLOAD PUSH4 0xE505AA9 PUSH1 0xE3 SHL DUP2 MSTORE PUSH1 0x1 PUSH1 0x1 PUSH1 0xA0 SHL SUB DUP14 DUP2 AND PUSH1 0x4 DUP4 ADD MSTORE PUSH1 0x24 DUP3 ADD DUP13 SWAP1 MSTORE SWAP4 SWAP11 SWAP4 SWAP1 SWAP3 DUP4 SWAP2 PUSH1 0x44 SWAP2 DUP4 SWAP2 PUSH1 0x64 DUP12 DIV SWAP2 AND GAS CALL DUP1 ISZERO PUSH3 0x940 JUMPI PUSH3 0x94B JUMPI JUMPDEST POP PUSH1 0x40 MLOAD PUSH4 0x5D4D3D2B PUSH1 0xE1 SHL DUP2 MSTORE SWAP3 PUSH1 0x20 DUP5 PUSH1 0x4 DUP2 PUSH1 0x1 PUSH1 0x1 PUSH1 0xA0 SHL SUB DUP15 AND GAS STATICCALL SWAP4 DUP5 ISZERO PUSH3 0x940 JUMPI DUP13 SWAP5 PUSH3 0x903 JUMPI JUMPDEST POP PUSH3 0x4C4 PUSH1 0x4 SWAP5 DUP4 PUSH3 0x2999 JUMP JUMPDEST PUSH1 0x40 MLOAD PUSH4 0x5D4D3D2B PUSH1 0xE1 SHL DUP2 MSTORE SWAP5 SWAP1 SWAP4 SWAP1 PUSH1 0x20 SWAP1 DUP7 SWAP1 DUP2 PUSH1 0x1 PUSH1 0x1 PUSH1 0xA0 SHL SUB DUP16 AND GAS STATICCALL SWAP5 DUP6 ISZERO PUSH3 0x8F8 JUMPI DUP14 SWAP6 PUSH3 0x8BE JUMPI JUMPDEST POP PUSH1 0x64 DUP7 DIV PUSH1 0x64 DUP8 DIV PUSH1 0x1 SHL DIV PUSH1 0x2 EQ PUSH1 0x64 DUP8 DIV ISZERO OR ISZERO PUSH3 0x8AA JUMPI SWAP1 DUP13 SWAP6 SWAP5 SWAP4 SWAP3 SWAP2 PUSH1 0x4 PUSH1 0x20 DUP14 PUSH1 0x40 MLOAD SWAP3 DUP4 DUP1 SWAP3 PUSH4 0x5D4D3D2B PUSH1 0xE1 SHL DUP3 MSTORE PUSH1 0x1 DUP1 PUSH1 0xA0 SHL SUB AND GAS STATICCALL SWAP8 DUP9 ISZERO PUSH3 0x89E JUMPI SWAP8 PUSH3 0x85F JUMPI JUMPDEST POP DUP7 DUP1 PUSH1 0x1 SHL DIV PUSH1 0x2 EQ DUP8 ISZERO OR ISZERO PUSH3 0x84B JUMPI SWAP2 DUP13 SWAP10 SWAP9 SWAP8 SWAP7 SWAP6 SWAP4 SWAP2 PUSH1 0x64 SWAP6 SWAP4 PUSH1 0x40 MLOAD SWAP12 PUSH3 0x578 DUP14 PUSH3 0x22C5 JUMP JUMPDEST PUSH1 0x1 DUP1 PUSH1 0xA0 SHL SUB AND DUP13 MSTORE PUSH1 0x20 DUP13 ADD MSTORE PUSH1 0x40 DUP12 ADD MSTORE PUSH1 0x60 DUP11 ADD MSTORE PUSH1 0x80 DUP10 ADD MSTORE PUSH1 0xA0 DUP9 ADD MSTORE DIV PUSH1 0x1 SHL PUSH1 0xC0 DUP7 ADD MSTORE PUSH1 0x1 SHL PUSH1 0xE0 DUP6 ADD MSTORE DUP8 PUSH2 0x100 DUP6 ADD MSTORE DUP8 PUSH2 0x120 DUP6 ADD MSTORE DUP2 MLOAD PUSH1 0x20 DUP4 ADD MLOAD SWAP2 PUSH1 0x60 PUSH1 0x40 DUP6 ADD MLOAD SWAP5 ADD MLOAD SWAP5 PUSH1 0x40 MLOAD SWAP7 PUSH3 0x5DC DUP9 PUSH3 0x2300 JUMP JUMPDEST CALLER DUP9 MSTORE PUSH1 0x1 DUP1 PUSH1 0xA0 SHL SUB DUP12 AND PUSH1 0x20 DUP10 ADD MSTORE PUSH1 0x1 DUP1 PUSH1 0xA0 SHL SUB DUP11 AND PUSH1 0x40 DUP10 ADD MSTORE PUSH1 0x60 DUP9 ADD MSTORE PUSH1 0x80 DUP8 ADD MSTORE PUSH1 0xA0 DUP7 ADD MSTORE PUSH1 0xC0 DUP6 ADD MSTORE PUSH1 0xE0 DUP5 ADD MSTORE PUSH2 0x100 DUP4 ADD MSTORE PUSH2 0x120 DUP3 ADD MSTORE PUSH1 0x1 PUSH2 0x140 DUP3 ADD MSTORE DUP5 PUSH2 0x160 DUP3 ADD MSTORE PUSH1 0x1 DUP1 PUSH1 0xA0 SHL SUB DUP5 AND DUP6 MSTORE PUSH1 0x9 PUSH1 0x20 MSTORE PUSH3 0x64E DUP2 PUSH1 0x40 DUP8 KECCAK256 PUSH3 0x29EE JUMP JUMPDEST PUSH1 0xA SLOAD SWAP1 PUSH1 0x1 PUSH1 0x40 SHL DUP1 DUP4 LT ISZERO PUSH3 0x835 JUMPI PUSH1 0x1 DUP4 ADD DUP1 PUSH1 0xA SSTORE DUP4 LT ISZERO PUSH3 0x81F JUMPI PUSH3 0x6A7 DUP3 PUSH1 0x14 DUP10 SWAP6 PUSH1 0xA PUSH1 0x0 MSTORE MUL PUSH32 0xC65A7BB8D6351C1CF70C95A316CC6A92839C986682D98BC35F958F4883F9D2A8 ADD PUSH3 0x29EE JUMP JUMPDEST PUSH3 0x6B2 CALLER PUSH3 0x3432 JUMP JUMPDEST ISZERO PUSH3 0x763 JUMPI POP DUP2 DUP1 SWAP4 PUSH3 0x6D7 DUP3 SWAP4 CALLER DUP5 MSTORE PUSH1 0x7 PUSH1 0x20 MSTORE PUSH1 0x1 PUSH1 0x40 DUP6 KECCAK256 ADD PUSH3 0x330C JUMP JUMPDEST PUSH1 0x4 SLOAD PUSH1 0x1 PUSH1 0x1 PUSH1 0xA0 SHL SUB AND GAS CALL PUSH3 0x6EF PUSH3 0x2808 JUMP JUMPDEST POP ISZERO PUSH3 0x75F JUMPI PUSH1 0xA SLOAD PUSH1 0x40 MLOAD DUP2 DUP2 MSTORE PUSH1 0x60 SWAP5 SWAP2 SWAP3 SWAP2 PUSH1 0x1 SWAP2 PUSH1 0x1 PUSH1 0x1 PUSH1 0xA0 SHL SUB DUP1 DUP6 AND SWAP2 SWAP1 DUP8 AND SWAP1 PUSH32 0x714AA39317AD9A7A7A99DB52B44490DA5D068A0B2710FFFB1A1282AD3CADAE1F SWAP1 PUSH1 0x20 SWAP1 LOG3 SSTORE PUSH1 0x40 DUP1 MLOAD PUSH1 0x1 PUSH1 0x1 PUSH1 0xA0 SHL SUB SWAP5 DUP6 AND DUP2 MSTORE SWAP2 SWAP1 SWAP4 AND PUSH1 0x20 DUP3 ADD MSTORE SWAP2 DUP3 ADD MSTORE RETURN JUMPDEST DUP3 DUP1 REVERT JUMPDEST SWAP1 SWAP2 POP PUSH3 0x773 CALLER ISZERO ISZERO PUSH3 0x2899 JUMP JUMPDEST PUSH1 0x40 MLOAD SWAP1 PUSH3 0x782 DUP3 PUSH3 0x22E3 JUMP JUMPDEST CALLER DUP3 MSTORE PUSH1 0x60 PUSH1 0x20 DUP4 ADD MSTORE CALLER DUP8 MSTORE PUSH1 0x7 PUSH1 0x20 MSTORE PUSH3 0x7A3 DUP3 PUSH1 0x40 DUP10 KECCAK256 PUSH3 0x34D9 JUMP JUMPDEST PUSH1 0x8 SLOAD SWAP1 DUP2 LT ISZERO PUSH3 0x80B JUMPI DUP1 PUSH1 0x1 PUSH3 0x7C1 SWAP3 ADD PUSH1 0x8 SSTORE PUSH3 0x27CD JUMP JUMPDEST PUSH3 0x7F7 JUMPI DUP7 SWAP4 PUSH3 0x7F1 DUP6 SWAP5 PUSH3 0x7DC DUP7 SWAP6 DUP7 SWAP6 PUSH3 0x34D9 JUMP JUMPDEST CALLER DUP5 MSTORE PUSH1 0x7 PUSH1 0x20 MSTORE PUSH1 0x1 PUSH1 0x40 DUP6 KECCAK256 ADD PUSH3 0x330C JUMP JUMPDEST PUSH3 0x6D7 JUMP JUMPDEST PUSH4 0x4E487B71 PUSH1 0xE0 SHL DUP8 MSTORE PUSH1 0x4 DUP8 SWAP1 MSTORE PUSH1 0x24 DUP8 REVERT JUMPDEST PUSH4 0x4E487B71 PUSH1 0xE0 SHL DUP8 MSTORE PUSH1 0x41 PUSH1 0x4 MSTORE PUSH1 0x24 DUP8 REVERT JUMPDEST PUSH4 0x4E487B71 PUSH1 0xE0 SHL PUSH1 0x0 MSTORE PUSH1 0x32 PUSH1 0x4 MSTORE PUSH1 0x24 PUSH1 0x0 REVERT JUMPDEST PUSH4 0x4E487B71 PUSH1 0xE0 SHL PUSH1 0x0 MSTORE PUSH1 0x41 PUSH1 0x4 MSTORE PUSH1 0x24 PUSH1 0x0 REVERT JUMPDEST PUSH4 0x4E487B71 PUSH1 0xE0 SHL DUP15 MSTORE PUSH1 0x11 PUSH1 0x4 MSTORE PUSH1 0x24 DUP15 REVERT JUMPDEST SWAP1 SWAP7 POP PUSH1 0x20 DUP2 RETURNDATASIZE PUSH1 0x20 GT PUSH3 0x895 JUMPI JUMPDEST DUP2 PUSH3 0x87E PUSH1 0x20 SWAP4 DUP4 PUSH3 0x231E JUMP JUMPDEST DUP2 ADD SUB SLT PUSH3 0x890 JUMPI MLOAD SWAP6 CODESIZE PUSH3 0x549 JUMP JUMPDEST PUSH1 0x0 DUP1 REVERT JUMPDEST RETURNDATASIZE SWAP2 POP PUSH3 0x86F JUMP JUMPDEST PUSH1 0x40 MLOAD SWAP1 RETURNDATASIZE SWAP1 DUP3 RETURNDATACOPY RETURNDATASIZE SWAP1 REVERT JUMPDEST PUSH4 0x4E487B71 PUSH1 0xE0 SHL DUP14 MSTORE PUSH1 0x11 PUSH1 0x4 MSTORE PUSH1 0x24 DUP14 REVERT JUMPDEST SWAP1 SWAP5 POP PUSH1 0x20 DUP2 RETURNDATASIZE PUSH1 0x20 GT PUSH3 0x8EF JUMPI JUMPDEST DUP2 PUSH3 0x8DD PUSH1 0x20 SWAP4 DUP4 PUSH3 0x231E JUMP JUMPDEST DUP2 ADD SUB SLT PUSH3 0x890 JUMPI MLOAD SWAP4 CODESIZE PUSH3 0x4F7 JUMP JUMPDEST RETURNDATASIZE SWAP2 POP PUSH3 0x8CE JUMP JUMPDEST PUSH1 0x40 MLOAD RETURNDATASIZE DUP16 DUP3 RETURNDATACOPY RETURNDATASIZE SWAP1 REVERT JUMPDEST SWAP4 POP PUSH1 0x20 DUP5 RETURNDATASIZE PUSH1 0x20 GT PUSH3 0x937 JUMPI JUMPDEST DUP2 PUSH3 0x921 PUSH1 0x20 SWAP4 DUP4 PUSH3 0x231E JUMP JUMPDEST DUP2 ADD SUB SLT PUSH3 0x890 JUMPI SWAP3 MLOAD SWAP3 PUSH3 0x4C4 PUSH3 0x4B5 JUMP JUMPDEST RETURNDATASIZE SWAP2 POP PUSH3 0x912 JUMP JUMPDEST PUSH1 0x40 MLOAD RETURNDATASIZE DUP15 DUP3 RETURNDATACOPY RETURNDATASIZE SWAP1 REVERT JUMPDEST PUSH3 0x971 SWAP1 PUSH1 0x40 RETURNDATASIZE PUSH1 0x40 GT PUSH3 0x978 JUMPI JUMPDEST PUSH3 0x968 DUP2 DUP4 PUSH3 0x231E JUMP JUMPDEST DUP2 ADD SWAP1 PUSH3 0x2907 JUMP JUMPDEST POP PUSH3 0x484 JUMP JUMPDEST POP RETURNDATASIZE PUSH3 0x95C JUMP JUMPDEST PUSH4 0x4E487B71 PUSH1 0xE0 SHL DUP11 MSTORE PUSH1 0x11 PUSH1 0x4 MSTORE PUSH1 0x24 DUP11 REVERT JUMPDEST DUP9 DUP1 REVERT JUMPDEST PUSH4 0x4E487B71 PUSH1 0xE0 SHL DUP10 MSTORE PUSH1 0x11 PUSH1 0x4 MSTORE PUSH1 0x24 DUP10 REVERT JUMPDEST POP PUSH1 0x20 DUP2 RETURNDATASIZE PUSH1 0x20 GT PUSH3 0x9E7 JUMPI JUMPDEST DUP2 PUSH3 0x9C9 PUSH1 0x20 SWAP4 DUP4 PUSH3 0x231E JUMP JUMPDEST DUP2 ADD SUB SLT PUSH3 0x994 JUMPI MLOAD PUSH1 0xFF DUP2 AND DUP2 SUB PUSH3 0x994 JUMPI PUSH1 0xFF SWAP1 PUSH3 0x3D7 JUMP JUMPDEST RETURNDATASIZE SWAP2 POP PUSH3 0x9BA JUMP JUMPDEST PUSH1 0x40 MLOAD RETURNDATASIZE DUP12 DUP3 RETURNDATACOPY RETURNDATASIZE SWAP1 REVERT JUMPDEST PUSH3 0xA23 SWAP2 SWAP7 POP PUSH1 0x20 RETURNDATASIZE PUSH1 0x20 GT PUSH3 0xA2B JUMPI JUMPDEST PUSH3 0xA1A DUP2 DUP4 PUSH3 0x231E JUMP JUMPDEST DUP2 ADD SWAP1 PUSH3 0x28E6 JUMP JUMPDEST SWAP5 CODESIZE PUSH3 0x3A8 JUMP JUMPDEST POP RETURNDATASIZE PUSH3 0xA0E JUMP JUMPDEST PUSH1 0x40 MLOAD RETURNDATASIZE DUP11 DUP3 RETURNDATACOPY RETURNDATASIZE SWAP1 REVERT JUMPDEST PUSH3 0xA59 SWAP2 POP DUP3 RETURNDATASIZE DUP5 GT PUSH3 0xA2B JUMPI PUSH3 0xA1A DUP2 DUP4 PUSH3 0x231E JUMP JUMPDEST CODESIZE PUSH3 0x357 JUMP JUMPDEST PUSH1 0x40 MLOAD RETURNDATASIZE DUP9 DUP3 RETURNDATACOPY RETURNDATASIZE SWAP1 REVERT JUMPDEST PUSH4 0x4E487B71 PUSH1 0xE0 SHL DUP10 MSTORE PUSH1 0x41 PUSH1 0x4 MSTORE PUSH1 0x24 DUP10 REVERT JUMPDEST PUSH1 0x40 MLOAD PUSH3 0x461BCD PUSH1 0xE5 SHL DUP2 MSTORE PUSH1 0x20 PUSH1 0x4 DUP3 ADD MSTORE PUSH1 0x19 PUSH1 0x24 DUP3 ADD MSTORE PUSH32 0x496E73756666696369656E7420616D6F756E742073656E742E00000000000000 PUSH1 0x44 DUP3 ADD MSTORE PUSH1 0x64 SWAP1 REVERT JUMPDEST DUP2 CALLDATALOAD DUP6 DUP2 GT PUSH3 0xAF0 JUMPI PUSH1 0x20 SWAP2 PUSH3 0xAE4 DUP4 SWAP3 PUSH1 0x4 CALLDATASIZE SWAP2 DUP10 ADD ADD PUSH3 0x2780 JUMP JUMPDEST DUP2 MSTORE ADD SWAP2 ADD SWAP1 PUSH3 0x296 JUMP JUMPDEST DUP12 DUP1 REVERT JUMPDEST DUP10 DUP1 REVERT JUMPDEST DUP7 DUP1 REVERT JUMPDEST DUP6 DUP1 REVERT JUMPDEST DUP5 DUP1 REVERT JUMPDEST DUP4 DUP1 REVERT JUMPDEST POP CALLVALUE PUSH3 0x169 JUMPI DUP1 PUSH1 0x3 NOT CALLDATASIZE ADD SLT PUSH3 0x169 JUMPI PUSH1 0xA SLOAD PUSH8 0xFFFFFFFFFFFFFFFF DUP2 GT PUSH3 0x835 JUMPI PUSH1 0x20 SWAP1 PUSH1 0x40 MLOAD SWAP1 PUSH3 0xB47 PUSH1 0x20 DUP3 PUSH1 0x5 SHL ADD DUP4 PUSH3 0x231E JUMP JUMPDEST DUP1 DUP3 MSTORE PUSH1 0x20 DUP3 ADD PUSH1 0xA PUSH1 0x0 MSTORE PUSH32 0xC65A7BB8D6351C1CF70C95A316CC6A92839C986682D98BC35F958F4883F9D2A8 SWAP4 PUSH1 0x0 SWAP2 JUMPDEST DUP4 DUP4 LT PUSH3 0xB95 JUMPI PUSH1 0x40 MLOAD DUP1 PUSH3 0xB91 DUP8 DUP3 PUSH3 0x2618 JUMP JUMPDEST SUB SWAP1 RETURN JUMPDEST PUSH1 0x14 DUP3 PUSH1 0x1 SWAP3 PUSH1 0x40 MLOAD PUSH3 0xBA9 DUP2 PUSH3 0x2300 JUMP JUMPDEST DUP5 DUP1 PUSH1 0xA0 SHL SUB DUP1 DUP12 SLOAD AND DUP3 MSTORE DUP1 DUP7 DUP13 ADD SLOAD AND DUP5 DUP4 ADD MSTORE PUSH1 0x2 DUP12 ADD SLOAD AND PUSH1 0x40 DUP3 ADD MSTORE PUSH3 0xBD8 PUSH1 0x3 DUP12 ADD PUSH3 0x23F2 JUMP JUMPDEST PUSH1 0x60 DUP3 ADD MSTORE PUSH3 0xBEB PUSH1 0xD DUP12 ADD PUSH3 0x2341 JUMP JUMPDEST PUSH1 0x80 DUP3 ADD MSTORE PUSH3 0xBFE PUSH1 0xE DUP12 ADD PUSH3 0x2341 JUMP JUMPDEST PUSH1 0xA0 DUP3 ADD MSTORE PUSH3 0xC11 PUSH1 0xF DUP12 ADD PUSH3 0x2341 JUMP JUMPDEST PUSH1 0xC0 DUP3 ADD MSTORE PUSH3 0xC24 PUSH1 0x10 DUP12 ADD PUSH3 0x2341 JUMP JUMPDEST PUSH1 0xE0 DUP3 ADD MSTORE PUSH3 0xC37 PUSH1 0x11 DUP12 ADD PUSH3 0x2341 JUMP JUMPDEST PUSH2 0x100 DUP3 ADD MSTORE PUSH3 0xC4B PUSH1 0x12 DUP12 ADD PUSH3 0x2341 JUMP JUMPDEST PUSH2 0x120 DUP3 ADD MSTORE PUSH1 0x13 DUP11 ADD SLOAD PUSH1 0xFF SWAP1 DUP2 DUP2 AND ISZERO ISZERO PUSH2 0x140 DUP5 ADD MSTORE PUSH1 0x8 SHR AND ISZERO ISZERO PUSH2 0x160 DUP3 ADD MSTORE DUP2 MSTORE ADD SWAP7 ADD SWAP3 ADD SWAP2 SWAP5 PUSH3 0xB79 JUMP JUMPDEST POP CALLVALUE PUSH3 0x169 JUMPI PUSH1 0x20 CALLDATASIZE PUSH1 0x3 NOT ADD SLT PUSH3 0x169 JUMPI PUSH1 0x20 SWAP1 PUSH1 0x1 PUSH1 0x1 PUSH1 0xA0 SHL SUB SWAP1 PUSH1 0x40 SWAP1 DUP3 PUSH3 0xCAD PUSH3 0x2243 JUMP JUMPDEST AND DUP2 MSTORE PUSH1 0x7 DUP5 MSTORE KECCAK256 SLOAD AND PUSH1 0x40 MLOAD SWAP1 DUP2 MSTORE RETURN JUMPDEST POP CALLVALUE PUSH3 0x169 JUMPI DUP1 PUSH1 0x3 NOT CALLDATASIZE ADD SLT PUSH3 0x169 JUMPI PUSH1 0x20 PUSH1 0x40 MLOAD PUSH1 0x5 DUP2 MSTORE RETURN JUMPDEST POP CALLVALUE PUSH3 0x169 JUMPI DUP1 PUSH1 0x3 NOT CALLDATASIZE ADD SLT PUSH3 0x169 JUMPI PUSH3 0xCFB CALLER PUSH3 0x3432 JUMP JUMPDEST ISZERO PUSH3 0xE6D JUMPI CALLER DUP2 MSTORE PUSH1 0x40 PUSH1 0x20 SWAP2 PUSH1 0x7 DUP4 MSTORE KECCAK256 PUSH1 0x40 MLOAD PUSH3 0xD1C DUP2 PUSH3 0x22E3 JUMP JUMPDEST DUP2 SLOAD PUSH1 0x1 PUSH1 0x1 PUSH1 0xA0 SHL SUB SWAP1 DUP2 AND DUP3 MSTORE PUSH1 0x1 SWAP3 DUP4 ADD DUP1 SLOAD SWAP1 SWAP4 SWAP2 PUSH8 0xFFFFFFFFFFFFFFFF DUP3 GT PUSH3 0x835 JUMPI SWAP4 PUSH1 0x40 MLOAD SWAP5 PUSH3 0xD5B DUP8 DUP5 PUSH1 0x5 SHL ADD DUP8 PUSH3 0x231E JUMP JUMPDEST DUP3 DUP7 MSTORE PUSH1 0x0 SWAP2 DUP3 MSTORE DUP7 DUP3 KECCAK256 SWAP1 DUP8 DUP8 ADD JUMPDEST DUP5 DUP5 LT PUSH3 0xD89 JUMPI DUP7 DUP10 ADD DUP9 SWAP1 MSTORE PUSH1 0x40 MLOAD DUP1 PUSH3 0xB91 DUP11 DUP3 PUSH3 0x2618 JUMP JUMPDEST PUSH1 0x14 DUP10 DUP8 SWAP3 PUSH1 0x40 MLOAD PUSH3 0xD9C DUP2 PUSH3 0x2300 JUMP JUMPDEST DUP6 DUP8 SLOAD AND DUP2 MSTORE DUP6 DUP6 DUP9 ADD SLOAD AND DUP4 DUP3 ADD MSTORE DUP6 PUSH1 0x2 DUP9 ADD SLOAD AND PUSH1 0x40 DUP3 ADD MSTORE PUSH3 0xDC6 PUSH1 0x3 DUP9 ADD PUSH3 0x23F2 JUMP JUMPDEST PUSH1 0x60 DUP3 ADD MSTORE PUSH3 0xDD9 PUSH1 0xD DUP9 ADD PUSH3 0x2341 JUMP JUMPDEST PUSH1 0x80 DUP3 ADD MSTORE PUSH3 0xDEC PUSH1 0xE DUP9 ADD PUSH3 0x2341 JUMP JUMPDEST PUSH1 0xA0 DUP3 ADD MSTORE PUSH3 0xDFF PUSH1 0xF DUP9 ADD PUSH3 0x2341 JUMP JUMPDEST PUSH1 0xC0 DUP3 ADD MSTORE PUSH3 0xE12 PUSH1 0x10 DUP9 ADD PUSH3 0x2341 JUMP JUMPDEST PUSH1 0xE0 DUP3 ADD MSTORE PUSH3 0xE25 PUSH1 0x11 DUP9 ADD PUSH3 0x2341 JUMP JUMPDEST PUSH2 0x100 DUP3 ADD MSTORE PUSH3 0xE39 PUSH1 0x12 DUP9 ADD PUSH3 0x2341 JUMP JUMPDEST PUSH2 0x120 DUP3 ADD MSTORE PUSH1 0x13 DUP8 ADD SLOAD PUSH1 0xFF SWAP1 DUP2 DUP2 AND ISZERO ISZERO PUSH2 0x140 DUP5 ADD MSTORE PUSH1 0x8 SHR AND ISZERO ISZERO PUSH2 0x160 DUP3 ADD MSTORE DUP2 MSTORE ADD SWAP4 ADD SWAP4 ADD SWAP3 SWAP2 PUSH3 0xD6B JUMP JUMPDEST PUSH1 0x40 MLOAD PUSH3 0x461BCD PUSH1 0xE5 SHL DUP2 MSTORE PUSH1 0x20 PUSH1 0x4 DUP3 ADD MSTORE PUSH1 0x1C PUSH1 0x24 DUP3 ADD MSTORE PUSH32 0x557365722050726F66696C6520646F7365206E6F742065786973742E00000000 PUSH1 0x44 DUP3 ADD MSTORE PUSH1 0x64 SWAP1 REVERT JUMPDEST POP CALLVALUE PUSH3 0x169 JUMPI DUP1 PUSH1 0x3 NOT CALLDATASIZE ADD SLT PUSH3 0x169 JUMPI PUSH1 0x20 PUSH1 0x40 MLOAD PUSH10 0x152D02C7E14AF6800000 DUP2 MSTORE RETURN JUMPDEST POP CALLVALUE PUSH3 0x169 JUMPI PUSH1 0x20 CALLDATASIZE PUSH1 0x3 NOT ADD SLT PUSH3 0x169 JUMPI PUSH1 0x20 PUSH1 0x4 CALLDATALOAD DUP1 PUSH1 0x5 SSTORE PUSH1 0x40 MLOAD SWAP1 DUP2 MSTORE RETURN JUMPDEST POP CALLVALUE PUSH3 0x169 JUMPI PUSH1 0x20 CALLDATASIZE PUSH1 0x3 NOT ADD SLT PUSH3 0x169 JUMPI PUSH1 0x1 PUSH1 0x1 PUSH1 0xA0 SHL SUB SWAP1 PUSH1 0x40 SWAP1 DUP3 PUSH3 0xF29 PUSH3 0x2243 JUMP JUMPDEST AND DUP2 MSTORE PUSH1 0x9 PUSH1 0x20 MSTORE KECCAK256 SWAP1 PUSH3 0xB91 DUP2 DUP4 SLOAD AND SWAP3 DUP3 PUSH1 0x1 DUP3 ADD SLOAD AND SWAP3 PUSH1 0x2 DUP3 ADD SLOAD AND SWAP4 PUSH3 0xF59 PUSH1 0x3 DUP4 ADD PUSH3 0x23F2 JUMP JUMPDEST SWAP2 PUSH3 0xF68 PUSH1 0xD DUP3 ADD PUSH3 0x2341 JUMP JUMPDEST PUSH3 0xF76 PUSH1 0xE DUP4 ADD PUSH3 0x2341 JUMP JUMPDEST PUSH3 0xF84 PUSH1 0xF DUP5 ADD PUSH3 0x2341 JUMP JUMPDEST PUSH3 0xF92 PUSH1 0x10 DUP6 ADD PUSH3 0x2341 JUMP JUMPDEST SWAP2 PUSH3 0xFA1 PUSH1 0x11 DUP7 ADD PUSH3 0x2341 JUMP JUMPDEST SWAP4 PUSH1 0x13 PUSH3 0xFB2 PUSH1 0x12 DUP9 ADD PUSH3 0x2341 JUMP JUMPDEST SWAP7 ADD SLOAD SWAP8 PUSH1 0x40 MLOAD SWAP12 DUP13 SWAP12 PUSH1 0xFF DUP1 DUP13 PUSH1 0x8 SHR AND SWAP12 AND SWAP10 DUP14 PUSH3 0x254F JUMP JUMPDEST POP CALLVALUE PUSH3 0x169 JUMPI PUSH1 0x60 CALLDATASIZE PUSH1 0x3 NOT ADD SLT PUSH3 0x169 JUMPI PUSH1 0x20 SWAP1 PUSH1 0x1 PUSH3 0x1013 PUSH3 0xFF5 PUSH3 0x2243 JUMP JUMPDEST PUSH3 0xFFF PUSH3 0x225A JUMP JUMPDEST PUSH3 0x1009 PUSH3 0x3343 JUMP JUMPDEST PUSH1 0x44 CALLDATALOAD SWAP2 PUSH3 0x3381 JUMP JUMPDEST SWAP2 SSTORE PUSH1 0x40 MLOAD SWAP1 ISZERO ISZERO DUP2 MSTORE RETURN JUMPDEST POP PUSH1 0x60 CALLDATASIZE PUSH1 0x3 NOT ADD SLT PUSH3 0x169 JUMPI PUSH3 0x1037 PUSH3 0x2243 JUMP JUMPDEST SWAP1 PUSH3 0x1042 PUSH3 0x225A JUMP JUMPDEST SWAP1 PUSH3 0x104D PUSH3 0x2271 JUMP JUMPDEST SWAP1 PUSH1 0x1 DUP1 PUSH1 0xA0 SHL SUB DUP1 DUP1 DUP1 DUP8 AND SWAP6 PUSH3 0x1068 DUP8 ISZERO ISZERO PUSH3 0x2899 JUMP JUMPDEST AND SWAP4 PUSH3 0x1077 DUP6 ISZERO ISZERO PUSH3 0x2899 JUMP JUMPDEST AND SWAP1 PUSH3 0x1086 DUP3 ISZERO ISZERO PUSH3 0x2899 JUMP JUMPDEST DUP1 PUSH1 0x2 SLOAD AND SWAP4 DUP2 PUSH1 0x3 SLOAD AND SWAP5 PUSH1 0x40 MLOAD SWAP1 PUSH4 0x15AB88C9 PUSH1 0xE3 SHL DUP3 MSTORE PUSH1 0x20 SWAP9 DUP10 DUP4 PUSH1 0x4 DUP2 DUP12 GAS STATICCALL SWAP3 DUP4 ISZERO PUSH3 0x1372 JUMPI SWAP2 PUSH3 0x10F9 SWAP4 SWAP2 DUP12 SWAP4 DUP10 SWAP4 PUSH3 0x134E JUMPI JUMPDEST POP PUSH1 0x40 MLOAD PUSH4 0xE6A43905 PUSH1 0xE0 SHL DUP2 MSTORE PUSH1 0x1 PUSH1 0x1 PUSH1 0xA0 SHL SUB SWAP2 DUP3 AND PUSH1 0x4 DUP3 ADD MSTORE SWAP3 AND PUSH1 0x24 DUP4 ADD MSTORE SWAP1 SWAP3 DUP4 SWAP2 SWAP1 DUP3 SWAP1 DUP2 SWAP1 PUSH1 0x44 DUP3 ADD SWAP1 JUMP JUMPDEST SUB SWAP2 GAS STATICCALL SWAP1 DUP2 ISZERO PUSH3 0x1343 JUMPI SWAP1 PUSH1 0x60 SWAP2 DUP7 SWAP2 PUSH3 0x1321 JUMPI JUMPDEST POP PUSH1 0x4 PUSH1 0x40 MLOAD DUP1 SWAP6 DUP2 SWAP4 PUSH4 0x240BC6B PUSH1 0xE2 SHL DUP4 MSTORE AND GAS STATICCALL SWAP3 DUP4 ISZERO PUSH3 0x12CE JUMPI DUP5 SWAP2 DUP6 SWAP4 DUP7 SWAP6 PUSH3 0x12D9 JUMPI JUMPDEST POP SWAP1 PUSH1 0x64 PUSH1 0x40 SWAP3 DUP4 MLOAD SWAP9 DUP10 SWAP4 DUP5 SWAP3 PUSH4 0x57F8D901 PUSH1 0xE0 SHL DUP5 MSTORE DUP13 PUSH1 0x4 DUP6 ADD MSTORE PUSH1 0x24 DUP5 ADD MSTORE PUSH1 0x44 DUP4 ADD MSTORE CALLVALUE SWAP1 GAS CALL SWAP1 DUP2 ISZERO PUSH3 0x12CE JUMPI DUP5 SWAP6 DUP6 SWAP3 PUSH3 0x1297 JUMPI JUMPDEST POP PUSH3 0x1198 DUP7 PUSH3 0x1191 PUSH3 0x119F SWAP5 DUP3 SWAP5 PUSH3 0x2977 JUMP JUMPDEST SWAP5 PUSH3 0x2953 JUMP JUMPDEST SWAP4 PUSH3 0x2953 JUMP JUMPDEST SWAP1 DUP2 PUSH1 0x1 SHL SWAP4 DUP3 DUP6 DIV PUSH1 0x2 EQ DUP4 ISZERO OR ISZERO PUSH3 0x1283 JUMPI DUP4 PUSH1 0x1 SHL SWAP4 DUP1 DUP6 DIV PUSH1 0x2 EQ SWAP1 ISZERO OR ISZERO PUSH3 0x1283 JUMPI SWAP2 DUP8 SWAP4 SWAP2 PUSH1 0x40 DUP5 DUP10 PUSH1 0xC SWAP10 SWAP9 SWAP7 MSTORE PUSH3 0x1259 PUSH3 0x1253 DUP12 DUP10 PUSH3 0x1227 PUSH3 0x1213 PUSH1 0x9 SWAP10 DUP11 DUP1 SWAP5 MSTORE PUSH3 0x120C DUP11 PUSH3 0x1206 DUP4 PUSH1 0x6 DUP14 DUP14 KECCAK256 ADD SLOAD PUSH3 0x2985 JUMP JUMPDEST PUSH3 0x2999 JUMP JUMPDEST SWAP10 PUSH3 0x2999 JUMP JUMPDEST SWAP13 DUP4 DUP8 MSTORE DUP3 DUP14 MSTORE PUSH1 0xB DUP9 DUP9 KECCAK256 ADD SLOAD PUSH3 0x2953 JUMP JUMPDEST SWAP11 DUP3 DUP7 MSTORE DUP2 DUP2 MSTORE PUSH3 0x1241 DUP14 PUSH1 0x7 DUP10 DUP10 KECCAK256 ADD SLOAD SWAP1 PUSH3 0x2977 JUMP JUMPDEST SWAP3 DUP7 MSTORE MSTORE PUSH1 0x7 DUP6 DUP6 KECCAK256 ADD SLOAD SWAP1 PUSH3 0x29BA JUMP JUMPDEST PUSH3 0x29D7 JUMP JUMPDEST SWAP10 DUP2 MSTORE DUP4 DUP12 MSTORE KECCAK256 SWAP6 PUSH1 0x7 DUP8 ADD SSTORE PUSH1 0x8 DUP7 ADD SSTORE DUP5 ADD SSTORE PUSH1 0xA DUP4 ADD SSTORE PUSH1 0xB DUP3 ADD SSTORE ADD SSTORE PUSH1 0x40 MLOAD PUSH1 0x1 DUP2 MSTORE RETURN JUMPDEST PUSH4 0x4E487B71 PUSH1 0xE0 SHL DUP2 MSTORE PUSH1 0x11 PUSH1 0x4 MSTORE PUSH1 0x24 SWAP1 REVERT JUMPDEST PUSH3 0x1191 SWAP7 POP PUSH3 0x119F SWAP3 POP PUSH3 0x12C3 PUSH3 0x1198 SWAP2 PUSH1 0x40 RETURNDATASIZE PUSH1 0x40 GT PUSH3 0x978 JUMPI PUSH3 0x968 DUP2 DUP4 PUSH3 0x231E JUMP JUMPDEST SWAP1 SWAP8 POP SWAP3 POP PUSH3 0x117A JUMP JUMPDEST PUSH1 0x40 MLOAD RETURNDATASIZE DUP7 DUP3 RETURNDATACOPY RETURNDATASIZE SWAP1 REVERT JUMPDEST PUSH3 0x130A SWAP2 SWAP6 POP PUSH1 0x40 SWAP3 SWAP5 POP PUSH1 0x64 SWAP4 POP PUSH1 0x60 RETURNDATASIZE PUSH1 0x60 GT PUSH3 0x1319 JUMPI JUMPDEST PUSH3 0x1301 DUP2 DUP4 PUSH3 0x231E JUMP JUMPDEST DUP2 ADD SWAP1 PUSH3 0x2937 JUMP JUMPDEST SWAP5 SWAP2 SWAP4 SWAP1 SWAP5 SWAP6 SWAP2 SWAP3 POP PUSH3 0x113C JUMP JUMPDEST POP RETURNDATASIZE PUSH3 0x12F5 JUMP JUMPDEST PUSH3 0x133C SWAP2 POP DUP10 RETURNDATASIZE DUP12 GT PUSH3 0xA2B JUMPI PUSH3 0xA1A DUP2 DUP4 PUSH3 0x231E JUMP JUMPDEST CODESIZE PUSH3 0x1111 JUMP JUMPDEST PUSH1 0x40 MLOAD RETURNDATASIZE DUP8 DUP3 RETURNDATACOPY RETURNDATASIZE SWAP1 REVERT JUMPDEST PUSH3 0x136A SWAP2 SWAP4 POP DUP5 RETURNDATASIZE DUP7 GT PUSH3 0xA2B JUMPI PUSH3 0xA1A DUP2 DUP4 PUSH3 0x231E JUMP JUMPDEST SWAP2 CODESIZE PUSH3 0x10C4 JUMP JUMPDEST PUSH1 0x40 MLOAD RETURNDATASIZE DUP10 DUP3 RETURNDATACOPY RETURNDATASIZE SWAP1 REVERT JUMPDEST POP CALLVALUE PUSH3 0x169 JUMPI PUSH1 0x80 CALLDATASIZE PUSH1 0x3 NOT ADD SLT PUSH3 0x169 JUMPI PUSH3 0x139B PUSH3 0x225A JUMP JUMPDEST SWAP1 PUSH3 0x13A6 PUSH3 0x2271 JUMP JUMPDEST SWAP1 PUSH1 0x1 PUSH1 0x1 PUSH1 0xA0 SHL SUB SWAP1 PUSH1 0x64 CALLDATALOAD DUP3 DUP2 AND SWAP1 DUP2 SWAP1 SUB PUSH3 0x890 JUMPI DUP3 DUP1 DUP7 AND SWAP5 PUSH3 0x13D1 DUP7 ISZERO ISZERO PUSH3 0x2899 JUMP JUMPDEST AND SWAP3 PUSH3 0x13E0 DUP5 ISZERO ISZERO PUSH3 0x2899 JUMP JUMPDEST PUSH3 0x13ED DUP3 ISZERO ISZERO PUSH3 0x2899 JUMP JUMPDEST DUP1 PUSH1 0x2 SLOAD AND DUP2 PUSH1 0x3 SLOAD AND SWAP1 PUSH1 0x40 MLOAD SWAP1 PUSH4 0x15AB88C9 PUSH1 0xE3 SHL DUP3 MSTORE PUSH1 0x20 SWAP9 DUP10 DUP4 PUSH1 0x4 DUP2 DUP8 GAS STATICCALL SWAP3 DUP4 ISZERO PUSH3 0x1372 JUMPI SWAP2 PUSH3 0x145E SWAP4 SWAP2 DUP12 SWAP4 DUP10 SWAP4 PUSH3 0x134E JUMPI POP PUSH1 0x40 MLOAD PUSH4 0xE6A43905 PUSH1 0xE0 SHL DUP2 MSTORE PUSH1 0x1 PUSH1 0x1 PUSH1 0xA0 SHL SUB SWAP2 DUP3 AND PUSH1 0x4 DUP3 ADD MSTORE SWAP3 AND PUSH1 0x24 DUP4 ADD MSTORE SWAP1 SWAP3 DUP4 SWAP2 SWAP1 DUP3 SWAP1 DUP2 SWAP1 PUSH1 0x44 DUP3 ADD SWAP1 JUMP JUMPDEST SUB SWAP2 GAS STATICCALL SWAP1 DUP2 ISZERO PUSH3 0x1343 JUMPI SWAP1 PUSH1 0x60 SWAP2 DUP7 SWAP2 PUSH3 0x1577 JUMPI JUMPDEST POP PUSH1 0x4 PUSH1 0x40 MLOAD DUP1 SWAP6 DUP2 SWAP4 PUSH4 0x240BC6B PUSH1 0xE2 SHL DUP4 MSTORE AND GAS STATICCALL SWAP3 DUP4 ISZERO PUSH3 0x12CE JUMPI DUP5 SWAP6 DUP6 SWAP4 DUP7 SWAP6 PUSH3 0x1541 JUMPI JUMPDEST POP SWAP1 PUSH1 0x84 PUSH1 0x40 SWAP3 DUP8 DUP5 MLOAD SWAP6 DUP7 SWAP5 DUP6 SWAP4 PUSH4 0x28958F37 PUSH1 0xE1 SHL DUP6 MSTORE PUSH1 0x4 CALLDATALOAD PUSH1 0x4 DUP7 ADD MSTORE DUP14 PUSH1 0x24 DUP7 ADD MSTORE PUSH1 0x44 DUP6 ADD MSTORE PUSH1 0x64 DUP5 ADD MSTORE GAS CALL SWAP5 DUP6 ISZERO PUSH3 0x12CE JUMPI DUP5 SWAP2 DUP6 SWAP7 PUSH3 0x150B JUMPI JUMPDEST POP PUSH3 0x1504 DUP7 PUSH3 0x14FD PUSH3 0x119F SWAP5 DUP3 SWAP5 PUSH3 0x2953 JUMP JUMPDEST SWAP5 PUSH3 0x2977 JUMP JUMPDEST SWAP4 PUSH3 0x2977 JUMP JUMPDEST PUSH3 0x14FD SWAP7 POP PUSH3 0x119F SWAP3 POP PUSH3 0x1537 PUSH3 0x1504 SWAP2 PUSH1 0x40 RETURNDATASIZE PUSH1 0x40 GT PUSH3 0x978 JUMPI PUSH3 0x968 DUP2 DUP4 PUSH3 0x231E JUMP JUMPDEST SWAP8 POP SWAP3 POP PUSH3 0x14E6 JUMP JUMPDEST PUSH1 0x84 SWAP8 POP PUSH3 0x1568 SWAP2 SWAP6 POP PUSH1 0x40 SWAP3 SWAP5 POP PUSH1 0x60 RETURNDATASIZE PUSH1 0x60 GT PUSH3 0x1319 JUMPI PUSH3 0x1301 DUP2 DUP4 PUSH3 0x231E JUMP JUMPDEST SWAP5 SWAP2 SWAP8 SWAP1 SWAP5 SWAP6 SWAP2 SWAP3 POP PUSH3 0x14A1 JUMP JUMPDEST PUSH3 0x1592 SWAP2 POP DUP10 RETURNDATASIZE DUP12 GT PUSH3 0xA2B JUMPI PUSH3 0xA1A DUP2 DUP4 PUSH3 0x231E JUMP JUMPDEST CODESIZE PUSH3 0x1476 JUMP JUMPDEST POP CALLVALUE PUSH3 0x169 JUMPI PUSH1 0x20 CALLDATASIZE PUSH1 0x3 NOT ADD SLT PUSH3 0x169 JUMPI PUSH1 0x4 CALLDATALOAD PUSH1 0xA SLOAD DUP2 LT ISZERO PUSH3 0x17A2 JUMPI PUSH1 0x14 SWAP1 PUSH1 0xA PUSH1 0x0 MSTORE MUL PUSH1 0x1 DUP1 PUSH1 0xA0 SHL SUB PUSH3 0xB91 DUP2 DUP4 PUSH32 0xC65A7BB8D6351C1CF70C95A316CC6A92839C986682D98BC35F958F4883F9D2A8 ADD SLOAD AND SWAP3 DUP3 PUSH32 0xC65A7BB8D6351C1CF70C95A316CC6A92839C986682D98BC35F958F4883F9D2A9 DUP3 ADD SLOAD AND SWAP3 PUSH32 0xC65A7BB8D6351C1CF70C95A316CC6A92839C986682D98BC35F958F4883F9D2AA DUP3 ADD SLOAD AND SWAP4 PUSH3 0x1670 PUSH32 0xC65A7BB8D6351C1CF70C95A316CC6A92839C986682D98BC35F958F4883F9D2AB DUP4 ADD PUSH3 0x23F2 JUMP JUMPDEST SWAP2 PUSH3 0x169E PUSH32 0xC65A7BB8D6351C1CF70C95A316CC6A92839C986682D98BC35F958F4883F9D2B5 DUP3 ADD PUSH3 0x2341 JUMP JUMPDEST PUSH3 0x16CB PUSH32 0xC65A7BB8D6351C1CF70C95A316CC6A92839C986682D98BC35F958F4883F9D2B6 DUP4 ADD PUSH3 0x2341 JUMP JUMPDEST PUSH3 0x16F8 PUSH32 0xC65A7BB8D6351C1CF70C95A316CC6A92839C986682D98BC35F958F4883F9D2B7 DUP5 ADD PUSH3 0x2341 JUMP JUMPDEST PUSH3 0x1725 PUSH32 0xC65A7BB8D6351C1CF70C95A316CC6A92839C986682D98BC35F958F4883F9D2B8 DUP6 ADD PUSH3 0x2341 JUMP JUMPDEST SWAP2 PUSH3 0x1753 PUSH32 0xC65A7BB8D6351C1CF70C95A316CC6A92839C986682D98BC35F958F4883F9D2B9 DUP7 ADD PUSH3 0x2341 JUMP JUMPDEST SWAP4 PUSH32 0xC65A7BB8D6351C1CF70C95A316CC6A92839C986682D98BC35F958F4883F9D2BB PUSH3 0xFB2 PUSH32 0xC65A7BB8D6351C1CF70C95A316CC6A92839C986682D98BC35F958F4883F9D2BA DUP9 ADD PUSH3 0x2341 JUMP JUMPDEST POP DUP1 REVERT JUMPDEST POP CALLVALUE PUSH3 0x169 JUMPI PUSH1 0x20 CALLDATASIZE PUSH1 0x3 NOT ADD SLT PUSH3 0x169 JUMPI PUSH3 0x17C4 PUSH3 0x2243 JUMP JUMPDEST SWAP1 PUSH3 0x17DC PUSH1 0x1 DUP1 PUSH1 0xA0 SHL SUB PUSH1 0x1 SLOAD AND CALLER EQ PUSH3 0x283D JUMP JUMPDEST PUSH3 0x17E6 PUSH3 0x3343 JUMP JUMPDEST PUSH3 0x17FC PUSH1 0x1 PUSH1 0x1 PUSH1 0xA0 SHL SUB DUP4 AND ISZERO ISZERO PUSH3 0x2899 JUMP JUMPDEST PUSH1 0x3 SLOAD PUSH1 0x40 MLOAD PUSH4 0x15AB88C9 PUSH1 0xE3 SHL DUP2 MSTORE SWAP1 PUSH1 0x20 SWAP1 DUP3 SWAP1 PUSH1 0x4 SWAP1 DUP3 SWAP1 PUSH1 0x1 PUSH1 0x1 PUSH1 0xA0 SHL SUB AND GAS STATICCALL SWAP1 DUP2 ISZERO PUSH3 0x211F JUMPI PUSH3 0x1875 SWAP2 PUSH1 0x20 SWAP2 DUP5 SWAP2 PUSH3 0x214E JUMPI JUMPDEST POP PUSH1 0x2 SLOAD PUSH1 0x40 MLOAD PUSH4 0xE6A43905 PUSH1 0xE0 SHL DUP2 MSTORE PUSH1 0x1 PUSH1 0x1 PUSH1 0xA0 SHL SUB DUP8 DUP2 AND PUSH1 0x4 DUP4 ADD MSTORE SWAP3 DUP4 AND PUSH1 0x24 DUP3 ADD MSTORE SWAP4 DUP5 SWAP3 SWAP1 SWAP2 AND SWAP1 DUP3 SWAP1 DUP2 SWAP1 PUSH1 0x44 DUP3 ADD SWAP1 JUMP JUMPDEST SUB SWAP2 GAS STATICCALL SWAP1 DUP2 ISZERO PUSH3 0x211F JUMPI DUP3 SWAP2 PUSH3 0x212A JUMPI JUMPDEST POP PUSH1 0x1 PUSH1 0x1 PUSH1 0xA0 SHL SUB DUP4 AND EXTCODESIZE ISZERO PUSH3 0x17A2 JUMPI PUSH1 0x40 MLOAD PUSH4 0x6DA678F PUSH1 0xE5 SHL DUP2 MSTORE PUSH1 0x1 PUSH1 0x1 PUSH1 0xA0 SHL SUB SWAP2 DUP3 AND PUSH1 0x4 DUP3 ADD MSTORE SWAP1 DUP3 SWAP1 DUP3 SWAP1 PUSH1 0x24 SWAP1 DUP3 SWAP1 DUP5 SWAP1 DUP9 AND GAS CALL DUP1 ISZERO PUSH3 0x211F JUMPI PUSH3 0x20F1 JUMPI JUMPDEST POP PUSH1 0x1 PUSH1 0x1 PUSH1 0xA0 SHL SUB DUP1 DUP4 AND DUP1 DUP4 MSTORE PUSH1 0x9 PUSH1 0x20 MSTORE PUSH1 0x40 DUP1 DUP5 KECCAK256 PUSH1 0x3 SLOAD DUP3 MLOAD PUSH4 0xE79A4089 PUSH1 0xE0 SHL DUP2 MSTORE PUSH1 0x4 DUP2 ADD SWAP5 SWAP1 SWAP5 MSTORE PUSH1 0x64 PUSH1 0x24 DUP6 ADD DUP2 SWAP1 MSTORE ADDRESS PUSH1 0x44 DUP7 ADD MSTORE SWAP6 SWAP7 SWAP4 SWAP6 SWAP2 SWAP5 DUP7 SWAP3 SWAP2 DUP4 SWAP2 DUP10 SWAP2 AND GAS CALL SWAP1 DUP2 ISZERO PUSH3 0x12CE JUMPI DUP5 SWAP4 DUP6 SWAP3 PUSH3 0x20C8 JUMPI JUMPDEST POP PUSH1 0x1 PUSH1 0x1 PUSH1 0xA0 SHL SUB DUP2 AND DUP6 MSTORE PUSH1 0x9 PUSH1 0x20 MSTORE PUSH1 0x40 DUP1 DUP7 KECCAK256 PUSH1 0x6 DUP2 ADD SLOAD SWAP2 MLOAD SWAP2 PUSH3 0x1960 DUP4 PUSH3 0x22C5 JUMP JUMPDEST PUSH1 0x1 PUSH1 0x1 PUSH1 0xA0 SHL SUB DUP5 AND DUP4 MSTORE PUSH3 0x198F PUSH1 0x5 PUSH3 0x1980 PUSH1 0x4 DUP6 ADD PUSH3 0x2341 JUMP JUMPDEST SWAP4 PUSH1 0x20 DUP7 ADD SWAP5 DUP6 MSTORE ADD PUSH3 0x2341 JUMP JUMPDEST PUSH1 0x40 DUP5 ADD MSTORE PUSH1 0x60 DUP4 ADD MSTORE DUP7 PUSH1 0x80 DUP4 ADD MSTORE DUP7 PUSH1 0xA0 DUP4 ADD MSTORE DUP7 PUSH1 0xC0 DUP4 ADD MSTORE DUP7 PUSH1 0xE0 DUP4 ADD MSTORE DUP7 PUSH2 0x100 DUP4 ADD MSTORE DUP7 PUSH2 0x120 DUP4 ADD MSTORE PUSH1 0x3 DUP6 ADD PUSH1 0x1 DUP1 PUSH1 0xA0 SHL SUB DUP4 MLOAD AND PUSH1 0x1 PUSH1 0x1 PUSH1 0x60 SHL SUB PUSH1 0xA0 SHL DUP3 SLOAD AND OR SWAP1 SSTORE MLOAD DUP1 MLOAD SWAP1 PUSH8 0xFFFFFFFFFFFFFFFF DUP3 GT PUSH3 0x2009 JUMPI PUSH3 0x1A01 PUSH1 0x4 DUP8 ADD SLOAD PUSH3 0x2288 JUMP JUMPDEST PUSH1 0x1F DUP2 GT PUSH3 0x2091 JUMPI JUMPDEST POP PUSH1 0x20 SWAP1 PUSH1 0x1F DUP4 GT PUSH1 0x1 EQ PUSH3 0x201D JUMPI PUSH3 0x1A3F SWAP3 SWAP2 DUP10 SWAP2 DUP4 PUSH3 0x1F44 JUMPI JUMPDEST POP POP DUP2 PUSH1 0x1 SHL SWAP2 PUSH1 0x0 NOT SWAP1 PUSH1 0x3 SHL SHR NOT AND OR SWAP1 JUMP JUMPDEST PUSH1 0x4 DUP6 ADD SSTORE JUMPDEST PUSH1 0x40 DUP2 ADD MLOAD DUP1 MLOAD SWAP1 PUSH8 0xFFFFFFFFFFFFFFFF DUP3 GT PUSH3 0x2009 JUMPI PUSH3 0x1A6C PUSH1 0x5 DUP8 ADD SLOAD PUSH3 0x2288 JUMP JUMPDEST PUSH1 0x1F DUP2 GT PUSH3 0x1FC6 JUMPI JUMPDEST POP PUSH1 0x20 SWAP1 PUSH1 0x1F DUP4 GT PUSH1 0x1 EQ PUSH3 0x1F50 JUMPI SWAP2 DUP1 PUSH3 0x1AAE SWAP3 PUSH2 0x120 SWAP6 SWAP5 DUP12 SWAP3 PUSH3 0x1F44 JUMPI POP POP DUP2 PUSH1 0x1 SHL SWAP2 PUSH1 0x0 NOT SWAP1 PUSH1 0x3 SHL SHR NOT AND OR SWAP1 JUMP JUMPDEST PUSH1 0x5 DUP7 ADD SSTORE JUMPDEST PUSH1 0x60 DUP2 ADD MLOAD PUSH1 0x6 DUP7 ADD SSTORE PUSH1 0x80 DUP2 ADD MLOAD PUSH1 0x7 DUP7 ADD SSTORE PUSH1 0xA0 DUP2 ADD MLOAD PUSH1 0x8 DUP7 ADD SSTORE PUSH1 0xC0 DUP2 ADD MLOAD PUSH1 0x9 DUP7 ADD SSTORE PUSH1 0xE0 DUP2 ADD MLOAD PUSH1 0xA DUP7 ADD SSTORE PUSH2 0x100 DUP2 ADD MLOAD PUSH1 0xB DUP7 ADD SSTORE ADD MLOAD PUSH1 0xC DUP5 ADD SSTORE PUSH3 0x1B0E PUSH1 0x1 PUSH1 0x1 PUSH1 0xA0 SHL SUB DUP3 AND ISZERO ISZERO PUSH3 0x2899 JUMP JUMPDEST PUSH1 0x1 PUSH1 0x1 PUSH1 0xA0 SHL SUB DUP2 AND DUP6 MSTORE PUSH1 0x9 PUSH1 0x20 MSTORE PUSH1 0x40 DUP6 KECCAK256 PUSH1 0x13 ADD SLOAD PUSH1 0xFF DUP2 AND SWAP1 DUP2 PUSH3 0x1F34 JUMPI JUMPDEST POP ISZERO PUSH3 0x1EEF JUMPI PUSH1 0x6 SLOAD PUSH1 0x40 MLOAD PUSH4 0x70A08231 PUSH1 0xE0 SHL DUP1 DUP3 MSTORE ADDRESS PUSH1 0x4 DUP4 ADD MSTORE SWAP4 SWAP2 PUSH1 0x1 PUSH1 0x1 PUSH1 0xA0 SHL SUB SWAP1 DUP2 AND SWAP1 PUSH1 0x20 SWAP1 DUP4 SWAP1 PUSH1 0x24 SWAP1 DUP3 SWAP1 DUP9 AND GAS STATICCALL SWAP1 DUP2 ISZERO PUSH3 0xA33 JUMPI DUP5 SWAP1 DUP10 SWAP3 PUSH3 0x1EB0 JUMPI JUMPDEST PUSH3 0x1B8B SWAP4 POP PUSH3 0x3381 JUMP JUMPDEST ISZERO PUSH3 0x1E7B JUMPI PUSH1 0x6 SLOAD PUSH1 0x40 MLOAD PUSH4 0xC45A0155 PUSH1 0xE0 SHL DUP2 MSTORE DUP8 SWAP5 SWAP2 PUSH1 0x1 PUSH1 0x1 PUSH1 0xA0 SHL SUB AND PUSH1 0x20 DUP3 PUSH1 0x4 DUP2 DUP5 GAS STATICCALL SWAP2 DUP3 ISZERO PUSH3 0xA60 JUMPI DUP7 SWAP3 PUSH3 0x1E51 JUMPI JUMPDEST POP PUSH1 0x20 PUSH1 0x4 SWAP2 PUSH1 0x40 MLOAD SWAP3 DUP4 DUP1 SWAP3 PUSH4 0x15AB88C9 PUSH1 0xE3 SHL DUP3 MSTORE GAS STATICCALL SWAP1 DUP2 ISZERO PUSH3 0xA60 JUMPI DUP7 SWAP3 PUSH1 0x20 SWAP3 PUSH3 0x1C2E SWAP3 DUP6 SWAP2 PUSH3 0x1E2F JUMPI JUMPDEST POP PUSH1 0x40 MLOAD PUSH4 0x64E329CB PUSH1 0xE1 SHL DUP2 MSTORE PUSH1 0x1 PUSH1 0x1 PUSH1 0xA0 SHL SUB DUP1 DUP11 AND PUSH1 0x4 DUP4 ADD MSTORE SWAP1 SWAP2 AND PUSH1 0x24 DUP3 ADD MSTORE SWAP4 DUP5 SWAP3 DUP4 SWAP2 SWAP1 DUP3 SWAP1 PUSH1 0x44 DUP3 ADD SWAP1 JUMP JUMPDEST SUB SWAP3 PUSH1 0x1 PUSH1 0x1 PUSH1 0xA0 SHL SUB AND GAS CALL SWAP1 DUP2 ISZERO PUSH3 0x1343 JUMPI DUP6 SWAP2 PUSH3 0x1E0B JUMPI JUMPDEST POP PUSH1 0x6 SLOAD PUSH1 0x40 MLOAD SWAP3 DUP4 MSTORE ADDRESS PUSH1 0x4 DUP5 ADD MSTORE SELFBALANCE SWAP3 PUSH1 0x1 PUSH1 0x1 PUSH1 0xA0 SHL SUB SWAP2 DUP3 AND SWAP2 PUSH1 0x20 SWAP1 DUP3 SWAP1 PUSH1 0x24 SWAP1 DUP3 SWAP1 DUP11 AND GAS STATICCALL SWAP1 DUP2 ISZERO PUSH3 0x1372 JUMPI DUP8 SWAP2 PUSH3 0x1DCD JUMPI JUMPDEST POP SWAP1 PUSH1 0xC4 PUSH1 0x60 SWAP3 PUSH1 0x40 MLOAD SWAP6 DUP7 SWAP4 DUP5 SWAP3 PUSH4 0xF305D719 PUSH1 0xE0 SHL DUP5 MSTORE PUSH1 0x1 DUP1 PUSH1 0xA0 SHL SUB DUP12 AND PUSH1 0x4 DUP6 ADD MSTORE PUSH1 0x24 DUP5 ADD MSTORE DUP11 PUSH1 0x44 DUP5 ADD MSTORE DUP11 PUSH1 0x64 DUP5 ADD MSTORE ADDRESS PUSH1 0x84 DUP5 ADD MSTORE TIMESTAMP PUSH1 0xA4 DUP5 ADD MSTORE GAS CALL SWAP2 DUP3 ISZERO PUSH3 0x1343 JUMPI PUSH1 0x20 SWAP3 PUSH3 0x1DA9 JUMPI JUMPDEST POP PUSH1 0x6 SLOAD PUSH1 0x40 MLOAD PUSH4 0x95EA7B3 PUSH1 0xE0 SHL DUP2 MSTORE PUSH1 0x1 PUSH1 0x1 PUSH1 0xA0 SHL SUB SWAP2 DUP3 AND PUSH1 0x4 DUP3 ADD MSTORE PUSH1 0x0 NOT PUSH1 0x24 DUP3 ADD MSTORE SWAP6 DUP7 SWAP3 PUSH1 0x44 SWAP3 DUP5 SWAP3 SWAP2 AND GAS CALL DUP1 ISZERO PUSH3 0xA60 JUMPI PUSH32 0x540BCEC33387745B2CED30977DCFE4A623A245511EB0A133989C27C8BB95B4A9 SWAP5 PUSH1 0x40 SWAP5 PUSH1 0x13 SWAP3 PUSH3 0x1D73 JUMPI JUMPDEST POP ADD DUP1 SLOAD PUSH2 0xFFFF NOT AND PUSH2 0x100 OR SWAP1 SSTORE DUP3 MLOAD SWAP5 DUP6 MSTORE PUSH1 0x20 DUP6 ADD MSTORE PUSH1 0x1 PUSH1 0x1 PUSH1 0xA0 SHL SUB AND SWAP3 LOG2 PUSH1 0x1 DUP2 SSTORE DUP1 RETURN JUMPDEST PUSH3 0x1D99 SWAP1 PUSH1 0x20 RETURNDATASIZE PUSH1 0x20 GT PUSH3 0x1DA1 JUMPI JUMPDEST PUSH3 0x1D90 DUP2 DUP4 PUSH3 0x231E JUMP JUMPDEST DUP2 ADD SWAP1 PUSH3 0x3367 JUMP JUMPDEST POP CODESIZE PUSH3 0x1D48 JUMP JUMPDEST POP RETURNDATASIZE PUSH3 0x1D84 JUMP JUMPDEST PUSH3 0x1DC5 SWAP1 PUSH1 0x60 RETURNDATASIZE PUSH1 0x60 GT PUSH3 0x1319 JUMPI PUSH3 0x1301 DUP2 DUP4 PUSH3 0x231E JUMP JUMPDEST POP POP PUSH3 0x1CDE JUMP JUMPDEST SWAP2 SWAP7 POP POP PUSH1 0x20 DUP2 RETURNDATASIZE PUSH1 0x20 GT PUSH3 0x1E02 JUMPI JUMPDEST DUP2 PUSH3 0x1DED PUSH1 0x20 SWAP4 DUP4 PUSH3 0x231E JUMP JUMPDEST DUP2 ADD SUB SLT PUSH3 0x890 JUMPI MLOAD DUP9 SWAP6 SWAP1 PUSH1 0xC4 PUSH3 0x1C87 JUMP JUMPDEST RETURNDATASIZE SWAP2 POP PUSH3 0x1DDE JUMP JUMPDEST PUSH3 0x1E28 SWAP2 POP PUSH1 0x20 RETURNDATASIZE PUSH1 0x20 GT PUSH3 0xA2B JUMPI PUSH3 0xA1A DUP2 DUP4 PUSH3 0x231E JUMP JUMPDEST CODESIZE PUSH3 0x1C4B JUMP JUMPDEST PUSH3 0x1E4A SWAP2 POP DUP5 RETURNDATASIZE DUP7 GT PUSH3 0xA2B JUMPI PUSH3 0xA1A DUP2 DUP4 PUSH3 0x231E JUMP JUMPDEST CODESIZE PUSH3 0x1BF9 JUMP JUMPDEST PUSH1 0x4 SWAP2 SWAP3 POP PUSH3 0x1E72 PUSH1 0x20 SWAP2 DUP3 RETURNDATASIZE DUP5 GT PUSH3 0xA2B JUMPI PUSH3 0xA1A DUP2 DUP4 PUSH3 0x231E JUMP JUMPDEST SWAP3 SWAP2 POP PUSH3 0x1BC6 JUMP JUMPDEST PUSH1 0x40 MLOAD PUSH3 0x461BCD PUSH1 0xE5 SHL DUP2 MSTORE PUSH1 0x20 PUSH1 0x4 DUP3 ADD MSTORE PUSH1 0xD PUSH1 0x24 DUP3 ADD MSTORE PUSH13 0x2737BA1030B8383937BB32B217 PUSH1 0x99 SHL PUSH1 0x44 DUP3 ADD MSTORE PUSH1 0x64 SWAP1 REVERT JUMPDEST SWAP2 POP POP PUSH1 0x20 DUP3 RETURNDATASIZE PUSH1 0x20 GT PUSH3 0x1EE6 JUMPI JUMPDEST DUP2 PUSH3 0x1ECF PUSH1 0x20 SWAP4 DUP4 PUSH3 0x231E JUMP JUMPDEST DUP2 ADD SUB SLT PUSH3 0x890 JUMPI DUP4 PUSH3 0x1B8B SWAP3 MLOAD SWAP2 PUSH3 0x1B7F JUMP JUMPDEST RETURNDATASIZE SWAP2 POP PUSH3 0x1EC0 JUMP JUMPDEST PUSH1 0x40 MLOAD PUSH3 0x461BCD PUSH1 0xE5 SHL DUP2 MSTORE PUSH1 0x20 PUSH1 0x4 DUP3 ADD MSTORE PUSH1 0x17 PUSH1 0x24 DUP3 ADD MSTORE PUSH32 0x74726164696E6720697320616C7265616479206F70656E000000000000000000 PUSH1 0x44 DUP3 ADD MSTORE PUSH1 0x64 SWAP1 REVERT JUMPDEST PUSH1 0xFF SWAP2 POP PUSH1 0x8 SHR AND ISZERO CODESIZE PUSH3 0x1B33 JUMP JUMPDEST ADD MLOAD SWAP1 POP CODESIZE DUP1 PUSH3 0x1A2A JUMP JUMPDEST SWAP1 PUSH1 0x5 DUP8 ADD DUP10 MSTORE PUSH1 0x20 DUP10 KECCAK256 SWAP2 DUP10 JUMPDEST PUSH1 0x1F NOT DUP6 AND DUP2 LT PUSH3 0x1FAD JUMPI POP SWAP2 DUP4 SWAP2 PUSH1 0x1 SWAP4 PUSH2 0x120 SWAP7 SWAP6 PUSH1 0x1F NOT DUP2 AND LT PUSH3 0x1F93 JUMPI JUMPDEST POP POP POP DUP2 SHL ADD PUSH1 0x5 DUP7 ADD SSTORE PUSH3 0x1AB4 JUMP JUMPDEST ADD MLOAD PUSH1 0x0 NOT PUSH1 0xF8 DUP5 PUSH1 0x3 SHL AND SHR NOT AND SWAP1 SSTORE CODESIZE DUP1 DUP1 PUSH3 0x1F82 JUMP JUMPDEST SWAP2 SWAP3 PUSH1 0x20 PUSH1 0x1 DUP2 SWAP3 DUP7 DUP6 ADD MLOAD DUP2 SSTORE ADD SWAP5 ADD SWAP3 ADD PUSH3 0x1F5E JUMP JUMPDEST PUSH3 0x1FF7 SWAP1 PUSH1 0x5 DUP9 ADD DUP11 MSTORE PUSH1 0x20 DUP11 KECCAK256 PUSH1 0x1F DUP6 ADD PUSH1 0x5 SHR DUP2 ADD SWAP2 PUSH1 0x20 DUP7 LT PUSH3 0x1FFE JUMPI JUMPDEST PUSH1 0x1F ADD PUSH1 0x5 SHR ADD SWAP1 PUSH3 0x291E JUMP JUMPDEST CODESIZE PUSH3 0x1A76 JUMP JUMPDEST SWAP1 SWAP2 POP DUP2 SWAP1 PUSH3 0x1FE9 JUMP JUMPDEST PUSH4 0x4E487B71 PUSH1 0xE0 SHL DUP9 MSTORE PUSH1 0x41 PUSH1 0x4 MSTORE PUSH1 0x24 DUP9 REVERT JUMPDEST SWAP2 SWAP1 PUSH1 0x4 DUP8 ADD DUP10 MSTORE PUSH1 0x20 DUP10 KECCAK256 SWAP1 DUP10 SWAP4 JUMPDEST PUSH1 0x1F NOT DUP5 AND DUP6 LT PUSH3 0x2075 JUMPI PUSH1 0x1 SWAP5 POP DUP4 PUSH1 0x1F NOT DUP2 AND LT PUSH3 0x205B JUMPI JUMPDEST POP POP POP DUP2 SHL ADD PUSH1 0x4 DUP6 ADD SSTORE PUSH3 0x1A45 JUMP JUMPDEST ADD MLOAD PUSH1 0x0 NOT PUSH1 0xF8 DUP5 PUSH1 0x3 SHL AND SHR NOT AND SWAP1 SSTORE CODESIZE DUP1 DUP1 PUSH3 0x204A JUMP JUMPDEST DUP2 DUP2 ADD MLOAD DUP4 SSTORE PUSH1 0x20 SWAP5 DUP6 ADD SWAP5 PUSH1 0x1 SWAP1 SWAP4 ADD SWAP3 SWAP1 SWAP2 ADD SWAP1 PUSH3 0x202D JUMP JUMPDEST PUSH3 0x20C1 SWAP1 PUSH1 0x4 DUP9 ADD DUP11 MSTORE PUSH1 0x20 DUP11 KECCAK256 PUSH1 0x1F DUP6 ADD PUSH1 0x5 SHR DUP2 ADD SWAP2 PUSH1 0x20 DUP7 LT PUSH3 0x1FFE JUMPI PUSH1 0x1F ADD PUSH1 0x5 SHR ADD SWAP1 PUSH3 0x291E JUMP JUMPDEST CODESIZE PUSH3 0x1A0B JUMP JUMPDEST SWAP1 SWAP4 POP PUSH3 0x20E8 SWAP2 POP PUSH1 0x40 RETURNDATASIZE PUSH1 0x40 GT PUSH3 0x978 JUMPI PUSH3 0x968 DUP2 DUP4 PUSH3 0x231E JUMP JUMPDEST SWAP1 SWAP3 CODESIZE PUSH3 0x1936 JUMP JUMPDEST PUSH8 0xFFFFFFFFFFFFFFFF DUP2 GT PUSH3 0x210B JUMPI PUSH1 0x40 MSTORE CODESIZE PUSH3 0x18D5 JUMP JUMPDEST PUSH4 0x4E487B71 PUSH1 0xE0 SHL DUP3 MSTORE PUSH1 0x41 PUSH1 0x4 MSTORE PUSH1 0x24 DUP3 REVERT JUMPDEST PUSH1 0x40 MLOAD RETURNDATASIZE DUP5 DUP3 RETURNDATACOPY RETURNDATASIZE SWAP1 REVERT JUMPDEST PUSH3 0x2147 SWAP2 POP PUSH1 0x20 RETURNDATASIZE PUSH1 0x20 GT PUSH3 0xA2B JUMPI PUSH3 0xA1A DUP2 DUP4 PUSH3 0x231E JUMP JUMPDEST CODESIZE PUSH3 0x1889 JUMP JUMPDEST PUSH3 0x2169 SWAP2 POP DUP3 RETURNDATASIZE DUP5 GT PUSH3 0xA2B JUMPI PUSH3 0xA1A DUP2 DUP4 PUSH3 0x231E JUMP JUMPDEST CODESIZE PUSH3 0x183A JUMP JUMPDEST POP CALLVALUE PUSH3 0x169 JUMPI DUP1 PUSH1 0x3 NOT CALLDATASIZE ADD SLT PUSH3 0x169 JUMPI PUSH1 0x1 SLOAD DUP2 SWAP1 DUP2 SWAP1 DUP2 SWAP1 SELFBALANCE SWAP1 PUSH1 0x1 PUSH1 0x1 PUSH1 0xA0 SHL SUB AND GAS CALL PUSH3 0x21A3 PUSH3 0x2808 JUMP JUMPDEST POP ISZERO PUSH3 0x21B5 JUMPI PUSH1 0x20 PUSH1 0x40 MLOAD PUSH1 0x1 DUP2 MSTORE RETURN JUMPDEST PUSH1 0x40 MLOAD PUSH3 0x461BCD PUSH1 0xE5 SHL DUP2 MSTORE PUSH1 0x20 PUSH1 0x4 DUP3 ADD MSTORE PUSH1 0x14 PUSH1 0x24 DUP3 ADD MSTORE PUSH20 0x2A3930B739B332B91022AA24102330B4B632B217 PUSH1 0x61 SHL PUSH1 0x44 DUP3 ADD MSTORE PUSH1 0x64 SWAP1 REVERT JUMPDEST POP CALLVALUE PUSH3 0x169 JUMPI DUP1 PUSH1 0x3 NOT CALLDATASIZE ADD SLT PUSH3 0x169 JUMPI PUSH1 0x1 SLOAD PUSH1 0x40 MLOAD PUSH1 0x1 PUSH1 0x1 PUSH1 0xA0 SHL SUB SWAP1 SWAP2 AND DUP2 MSTORE PUSH1 0x20 SWAP1 RETURN JUMPDEST SWAP1 POP CALLVALUE PUSH3 0x17A2 JUMPI DUP2 PUSH1 0x3 NOT CALLDATASIZE ADD SLT PUSH3 0x17A2 JUMPI PUSH1 0x4 SLOAD PUSH1 0x1 PUSH1 0x1 PUSH1 0xA0 SHL SUB AND DUP2 MSTORE PUSH1 0x20 SWAP1 RETURN JUMPDEST PUSH1 0x4 CALLDATALOAD SWAP1 PUSH1 0x1 PUSH1 0x1 PUSH1 0xA0 SHL SUB DUP3 AND DUP3 SUB PUSH3 0x890 JUMPI JUMP JUMPDEST PUSH1 0x24 CALLDATALOAD SWAP1 PUSH1 0x1 PUSH1 0x1 PUSH1 0xA0 SHL SUB DUP3 AND DUP3 SUB PUSH3 0x890 JUMPI JUMP JUMPDEST PUSH1 0x44 CALLDATALOAD SWAP1 PUSH1 0x1 PUSH1 0x1 PUSH1 0xA0 SHL SUB DUP3 AND DUP3 SUB PUSH3 0x890 JUMPI JUMP JUMPDEST SWAP1 PUSH1 0x1 DUP3 DUP2 SHR SWAP3 AND DUP1 ISZERO PUSH3 0x22BA JUMPI JUMPDEST PUSH1 0x20 DUP4 LT EQ PUSH3 0x22A4 JUMPI JUMP JUMPDEST PUSH4 0x4E487B71 PUSH1 0xE0 SHL PUSH1 0x0 MSTORE PUSH1 0x22 PUSH1 0x4 MSTORE PUSH1 0x24 PUSH1 0x0 REVERT JUMPDEST SWAP2 PUSH1 0x7F AND SWAP2 PUSH3 0x2298 JUMP JUMPDEST PUSH2 0x140 DUP2 ADD SWAP1 DUP2 LT PUSH8 0xFFFFFFFFFFFFFFFF DUP3 GT OR PUSH3 0x835 JUMPI PUSH1 0x40 MSTORE JUMP JUMPDEST PUSH1 0x40 DUP2 ADD SWAP1 DUP2 LT PUSH8 0xFFFFFFFFFFFFFFFF DUP3 GT OR PUSH3 0x835 JUMPI PUSH1 0x40 MSTORE JUMP JUMPDEST PUSH2 0x180 DUP2 ADD SWAP1 DUP2 LT PUSH8 0xFFFFFFFFFFFFFFFF DUP3 GT OR PUSH3 0x835 JUMPI PUSH1 0x40 MSTORE JUMP JUMPDEST SWAP1 PUSH1 0x1F DUP1 NOT SWAP2 ADD AND DUP2 ADD SWAP1 DUP2 LT PUSH8 0xFFFFFFFFFFFFFFFF DUP3 GT OR PUSH3 0x835 JUMPI PUSH1 0x40 MSTORE JUMP JUMPDEST SWAP1 PUSH1 0x40 MLOAD SWAP2 DUP3 PUSH1 0x0 DUP3 SLOAD PUSH3 0x2356 DUP2 PUSH3 0x2288 JUMP JUMPDEST SWAP1 DUP2 DUP5 MSTORE PUSH1 0x20 SWAP5 PUSH1 0x1 SWAP2 PUSH1 0x1 DUP2 AND SWAP1 DUP2 PUSH1 0x0 EQ PUSH3 0x23CE JUMPI POP PUSH1 0x1 EQ PUSH3 0x238B JUMPI JUMPDEST POP POP POP PUSH3 0x2389 SWAP3 POP SUB DUP4 PUSH3 0x231E JUMP JUMPDEST JUMP JUMPDEST PUSH1 0x0 SWAP1 DUP2 MSTORE DUP6 DUP2 KECCAK256 SWAP6 SWAP4 POP SWAP2 SWAP1 JUMPDEST DUP2 DUP4 LT PUSH3 0x23B5 JUMPI POP POP PUSH3 0x2389 SWAP4 POP DUP3 ADD ADD CODESIZE DUP1 DUP1 PUSH3 0x2378 JUMP JUMPDEST DUP6 SLOAD DUP9 DUP5 ADD DUP6 ADD MSTORE SWAP5 DUP6 ADD SWAP5 DUP8 SWAP5 POP SWAP2 DUP4 ADD SWAP2 PUSH3 0x2399 JUMP JUMPDEST SWAP3 POP POP POP PUSH3 0x2389 SWAP5 SWAP3 POP PUSH1 0xFF NOT AND DUP3 DUP5 ADD MSTORE ISZERO ISZERO PUSH1 0x5 SHL DUP3 ADD ADD CODESIZE DUP1 DUP1 PUSH3 0x2378 JUMP JUMPDEST SWAP1 PUSH1 0x40 MLOAD PUSH3 0x2401 DUP2 PUSH3 0x22C5 JUMP JUMPDEST DUP3 SLOAD PUSH1 0x1 PUSH1 0x1 PUSH1 0xA0 SHL SUB AND DUP2 MSTORE SWAP2 DUP3 SWAP1 PUSH2 0x120 SWAP1 PUSH1 0x9 SWAP1 PUSH3 0x2426 PUSH1 0x1 DUP3 ADD PUSH3 0x2341 JUMP JUMPDEST PUSH1 0x20 DUP6 ADD MSTORE PUSH3 0x2439 PUSH1 0x2 DUP3 ADD PUSH3 0x2341 JUMP JUMPDEST PUSH1 0x40 DUP6 ADD MSTORE PUSH1 0x3 DUP2 ADD SLOAD PUSH1 0x60 DUP6 ADD MSTORE PUSH1 0x4 DUP2 ADD SLOAD PUSH1 0x80 DUP6 ADD MSTORE PUSH1 0x5 DUP2 ADD SLOAD PUSH1 0xA0 DUP6 ADD MSTORE PUSH1 0x6 DUP2 ADD SLOAD PUSH1 0xC0 DUP6 ADD MSTORE PUSH1 0x7 DUP2 ADD SLOAD PUSH1 0xE0 DUP6 ADD MSTORE PUSH1 0x8 DUP2 ADD SLOAD PUSH2 0x100 DUP6 ADD MSTORE ADD SLOAD SWAP2 ADD MSTORE JUMP JUMPDEST SWAP2 SWAP1 DUP3 MLOAD SWAP3 DUP4 DUP3 MSTORE PUSH1 0x0 JUMPDEST DUP5 DUP2 LT PUSH3 0x24AF JUMPI POP POP DUP3 PUSH1 0x0 PUSH1 0x20 DUP1 SWAP5 SWAP6 DUP5 ADD ADD MSTORE PUSH1 0x1F DUP1 NOT SWAP2 ADD AND ADD ADD SWAP1 JUMP JUMPDEST PUSH1 0x20 DUP2 DUP4 ADD DUP2 ADD MLOAD DUP5 DUP4 ADD DUP3 ADD MSTORE ADD PUSH3 0x248D JUMP JUMPDEST SWAP1 PUSH3 0x2504 PUSH3 0x24F1 PUSH2 0x140 PUSH1 0x1 DUP1 PUSH1 0xA0 SHL SUB DUP6 MLOAD AND DUP5 MSTORE PUSH1 0x20 DUP6 ADD MLOAD SWAP1 DUP1 PUSH1 0x20 DUP7 ADD MSTORE DUP5 ADD SWAP1 PUSH3 0x2482 JUMP JUMPDEST PUSH1 0x40 DUP5 ADD MLOAD DUP4 DUP3 SUB PUSH1 0x40 DUP6 ADD MSTORE PUSH3 0x2482 JUMP JUMPDEST SWAP2 PUSH1 0x60 DUP2 ADD MLOAD PUSH1 0x60 DUP4 ADD MSTORE PUSH1 0x80 DUP2 ADD MLOAD PUSH1 0x80 DUP4 ADD MSTORE PUSH1 0xA0 DUP2 ADD MLOAD PUSH1 0xA0 DUP4 ADD MSTORE PUSH1 0xC0 DUP2 ADD MLOAD PUSH1 0xC0 DUP4 ADD MSTORE PUSH1 0xE0 DUP2 ADD MLOAD PUSH1 0xE0 DUP4 ADD MSTORE PUSH2 0x100 DUP1 DUP3 ADD MLOAD SWAP1 DUP4 ADD MSTORE PUSH2 0x120 DUP1 SWAP2 ADD MLOAD SWAP2 ADD MSTORE SWAP1 JUMP JUMPDEST SWAP11 SWAP13 SWAP12 SWAP9 SWAP5 PUSH3 0x25F8 SWAP7 PUSH3 0x25BB DUP14 PUSH3 0x25CA SWAP4 PUSH3 0x25AC PUSH2 0x160 SWAP16 SWAP13 SWAP7 SWAP10 PUSH3 0x25E8 SWAP11 PUSH3 0x2608 SWAP16 SWAP11 SWAP10 PUSH3 0x25D9 SWAP11 PUSH2 0x180 SWAP3 PUSH1 0x1 DUP1 PUSH1 0xA0 SHL SUB SWAP3 DUP4 DUP1 SWAP3 AND DUP10 MSTORE AND PUSH1 0x20 DUP9 ADD MSTORE AND PUSH1 0x40 DUP7 ADD MSTORE DUP1 PUSH1 0x60 DUP7 ADD MSTORE DUP5 ADD SWAP1 PUSH3 0x24C4 JUMP JUMPDEST SWAP2 PUSH1 0x80 DUP2 DUP5 SUB SWAP2 ADD MSTORE PUSH3 0x2482 JUMP JUMPDEST DUP14 DUP2 SUB PUSH1 0xA0 DUP16 ADD MSTORE SWAP1 PUSH3 0x2482 JUMP JUMPDEST SWAP1 DUP12 DUP3 SUB PUSH1 0xC0 DUP14 ADD MSTORE PUSH3 0x2482 JUMP JUMPDEST SWAP1 DUP10 DUP3 SUB PUSH1 0xE0 DUP12 ADD MSTORE PUSH3 0x2482 JUMP JUMPDEST SWAP1 DUP8 DUP3 SUB PUSH2 0x100 DUP10 ADD MSTORE PUSH3 0x2482 JUMP JUMPDEST SWAP1 DUP6 DUP3 SUB PUSH2 0x120 DUP8 ADD MSTORE PUSH3 0x2482 JUMP JUMPDEST SWAP5 ISZERO ISZERO PUSH2 0x140 DUP5 ADD MSTORE ISZERO ISZERO SWAP2 ADD MSTORE JUMP JUMPDEST PUSH1 0x20 DUP1 DUP3 ADD SWAP1 DUP1 DUP4 MSTORE DUP4 MLOAD DUP1 SWAP3 MSTORE PUSH1 0x40 SWAP3 PUSH1 0x40 DUP2 ADD DUP3 PUSH1 0x40 DUP6 PUSH1 0x5 SHL DUP5 ADD ADD SWAP7 ADD SWAP5 PUSH1 0x0 SWAP3 JUMPDEST DUP6 DUP5 LT PUSH3 0x2650 JUMPI POP POP POP POP POP POP POP SWAP1 JUMP JUMPDEST SWAP1 SWAP2 SWAP3 SWAP4 SWAP5 SWAP6 SWAP7 DUP6 DUP1 PUSH1 0x1 SWAP3 PUSH1 0x3F NOT DUP6 DUP3 SUB ADD DUP8 MSTORE DUP11 MLOAD SWAP1 PUSH3 0x2737 PUSH3 0x2722 PUSH3 0x270D PUSH3 0x26F9 PUSH3 0x26E5 PUSH3 0x26D1 PUSH3 0x26BD DUP14 PUSH2 0x180 SWAP1 DUP14 DUP1 PUSH1 0xA0 SHL SUB DUP1 DUP13 MLOAD AND DUP12 MSTORE DUP1 DUP14 DUP14 ADD MLOAD AND DUP14 DUP13 ADD MSTORE DUP2 DUP13 ADD MLOAD AND SWAP1 DUP11 ADD MSTORE PUSH1 0x60 SWAP1 DUP1 DUP3 DUP13 ADD MLOAD SWAP3 DUP12 ADD MSTORE DUP10 ADD SWAP1 PUSH3 0x24C4 JUMP JUMPDEST PUSH1 0x80 DUP1 DUP11 ADD MLOAD SWAP1 DUP10 DUP4 SUB SWAP1 DUP11 ADD MSTORE PUSH3 0x2482 JUMP JUMPDEST PUSH1 0xA0 DUP1 DUP10 ADD MLOAD SWAP1 DUP9 DUP4 SUB SWAP1 DUP10 ADD MSTORE PUSH3 0x2482 JUMP JUMPDEST PUSH1 0xC0 DUP1 DUP9 ADD MLOAD SWAP1 DUP8 DUP4 SUB SWAP1 DUP9 ADD MSTORE PUSH3 0x2482 JUMP JUMPDEST PUSH1 0xE0 DUP1 DUP8 ADD MLOAD SWAP1 DUP7 DUP4 SUB SWAP1 DUP8 ADD MSTORE PUSH3 0x2482 JUMP JUMPDEST PUSH2 0x100 DUP1 DUP7 ADD MLOAD SWAP1 DUP6 DUP4 SUB SWAP1 DUP7 ADD MSTORE PUSH3 0x2482 JUMP JUMPDEST PUSH2 0x120 DUP1 DUP6 ADD MLOAD SWAP1 DUP5 DUP4 SUB SWAP1 DUP6 ADD MSTORE PUSH3 0x2482 JUMP JUMPDEST SWAP2 PUSH2 0x140 DUP1 DUP3 ADD MLOAD ISZERO ISZERO SWAP1 DUP4 ADD MSTORE PUSH2 0x160 DUP1 SWAP2 ADD MLOAD ISZERO ISZERO SWAP2 ADD MSTORE SWAP10 ADD SWAP5 ADD SWAP5 ADD SWAP3 SWAP6 SWAP5 SWAP4 SWAP2 SWAP1 PUSH3 0x263E JUMP JUMPDEST PUSH8 0xFFFFFFFFFFFFFFFF DUP2 GT PUSH3 0x835 JUMPI PUSH1 0x1F ADD PUSH1 0x1F NOT AND PUSH1 0x20 ADD SWAP1 JUMP JUMPDEST DUP2 PUSH1 0x1F DUP3 ADD SLT ISZERO PUSH3 0x890 JUMPI DUP1 CALLDATALOAD SWAP1 PUSH3 0x279A DUP3 PUSH3 0x2763 JUMP JUMPDEST SWAP3 PUSH3 0x27AA PUSH1 0x40 MLOAD SWAP5 DUP6 PUSH3 0x231E JUMP JUMPDEST DUP3 DUP5 MSTORE PUSH1 0x20 DUP4 DUP4 ADD ADD GT PUSH3 0x890 JUMPI DUP2 PUSH1 0x0 SWAP3 PUSH1 0x20 DUP1 SWAP4 ADD DUP4 DUP7 ADD CALLDATACOPY DUP4 ADD ADD MSTORE SWAP1 JUMP JUMPDEST PUSH1 0x8 SLOAD DUP2 LT ISZERO PUSH3 0x81F JUMPI PUSH1 0x8 PUSH1 0x0 MSTORE PUSH1 0x1 SHL PUSH32 0xF3F7A9FE364FAAB93B216DA50A3214154F22A0A2B415B23A84C8169E8B636EE3 ADD SWAP1 PUSH1 0x0 SWAP1 JUMP JUMPDEST RETURNDATASIZE ISZERO PUSH3 0x2838 JUMPI RETURNDATASIZE SWAP1 PUSH3 0x281C DUP3 PUSH3 0x2763 JUMP JUMPDEST SWAP2 PUSH3 0x282C PUSH1 0x40 MLOAD SWAP4 DUP5 PUSH3 0x231E JUMP JUMPDEST DUP3 MSTORE RETURNDATASIZE PUSH1 0x0 PUSH1 0x20 DUP5 ADD RETURNDATACOPY JUMP JUMPDEST PUSH1 0x60 SWAP1 JUMP JUMPDEST ISZERO PUSH3 0x2845 JUMPI JUMP JUMPDEST PUSH1 0x40 MLOAD PUSH3 0x461BCD PUSH1 0xE5 SHL DUP2 MSTORE PUSH1 0x20 PUSH1 0x4 DUP3 ADD MSTORE PUSH1 0x26 PUSH1 0x24 DUP3 ADD MSTORE PUSH32 0x4F6E6C7920746865206F776E65722063616E2063616C6C20746869732066756E PUSH1 0x44 DUP3 ADD MSTORE PUSH6 0x31BA34B7B717 PUSH1 0xD1 SHL PUSH1 0x64 DUP3 ADD MSTORE PUSH1 0x84 SWAP1 REVERT JUMPDEST ISZERO PUSH3 0x28A1 JUMPI JUMP JUMPDEST PUSH1 0x40 MLOAD PUSH3 0x461BCD PUSH1 0xE5 SHL DUP2 MSTORE PUSH1 0x20 PUSH1 0x4 DUP3 ADD MSTORE PUSH1 0x1F PUSH1 0x24 DUP3 ADD MSTORE PUSH32 0x5A65726F2061646472657373657320617265206E6F7420616C6C6F7765642E00 PUSH1 0x44 DUP3 ADD MSTORE PUSH1 0x64 SWAP1 REVERT JUMPDEST SWAP1 DUP2 PUSH1 0x20 SWAP2 SUB SLT PUSH3 0x890 JUMPI MLOAD PUSH1 0x1 PUSH1 0x1 PUSH1 0xA0 SHL SUB DUP2 AND DUP2 SUB PUSH3 0x890 JUMPI SWAP1 JUMP JUMPDEST SWAP2 SWAP1 DUP3 PUSH1 0x40 SWAP2 SUB SLT PUSH3 0x890 JUMPI PUSH1 0x20 DUP3 MLOAD SWAP3 ADD MLOAD SWAP1 JUMP JUMPDEST DUP2 DUP2 LT PUSH3 0x292A JUMPI POP POP JUMP JUMPDEST PUSH1 0x0 DUP2 SSTORE PUSH1 0x1 ADD PUSH3 0x291E JUMP JUMPDEST SWAP1 DUP2 PUSH1 0x60 SWAP2 SUB SLT PUSH3 0x890 JUMPI DUP1 MLOAD SWAP2 PUSH1 0x40 PUSH1 0x20 DUP4 ADD MLOAD SWAP3 ADD MLOAD SWAP1 JUMP JUMPDEST SWAP2 SWAP1 DUP3 ADD DUP1 SWAP3 GT PUSH3 0x2961 JUMPI JUMP JUMPDEST PUSH4 0x4E487B71 PUSH1 0xE0 SHL PUSH1 0x0 MSTORE PUSH1 0x11 PUSH1 0x4 MSTORE PUSH1 0x24 PUSH1 0x0 REVERT JUMPDEST SWAP2 SWAP1 DUP3 SUB SWAP2 DUP3 GT PUSH3 0x2961 JUMPI JUMP JUMPDEST DUP2 DUP2 MUL SWAP3 SWAP2 DUP2 ISZERO SWAP2 DUP5 DIV EQ OR ISZERO PUSH3 0x2961 JUMPI JUMP JUMPDEST DUP2 ISZERO PUSH3 0x29A4 JUMPI DIV SWAP1 JUMP JUMPDEST PUSH4 0x4E487B71 PUSH1 0xE0 SHL PUSH1 0x0 MSTORE PUSH1 0x12 PUSH1 0x4 MSTORE PUSH1 0x24 PUSH1 0x0 REVERT JUMPDEST DUP2 ISZERO PUSH3 0x29A4 JUMPI PUSH1 0x1 PUSH1 0xFF SHL DUP2 EQ PUSH1 0x0 NOT DUP4 EQ AND PUSH3 0x2961 JUMPI SDIV SWAP1 JUMP JUMPDEST SWAP1 PUSH1 0x64 DUP3 MUL SWAP2 DUP1 DUP4 SDIV PUSH1 0x64 EQ SWAP1 ISZERO OR ISZERO PUSH3 0x2961 JUMPI JUMP JUMPDEST SWAP2 SWAP1 PUSH1 0x1 DUP1 PUSH1 0xA0 SHL SUB SWAP3 DUP4 DUP3 MLOAD AND SWAP4 PUSH1 0x1 PUSH1 0x1 PUSH1 0x60 SHL SUB PUSH1 0xA0 SHL SWAP5 DUP6 DUP4 SLOAD AND OR DUP3 SSTORE PUSH1 0x1 SWAP5 DUP6 DUP4 ADD SWAP1 PUSH1 0x20 SWAP2 DUP4 DUP4 DUP8 ADD MLOAD AND DUP3 DUP3 SLOAD AND OR SWAP1 SSTORE PUSH1 0x2 DUP5 ADD DUP4 PUSH1 0x40 DUP8 ADD MLOAD AND DUP3 DUP3 SLOAD AND OR SWAP1 SSTORE PUSH1 0x3 SWAP1 DUP2 DUP6 ADD SWAP1 PUSH1 0x60 DUP8 ADD MLOAD SWAP5 DUP6 MLOAD AND SWAP1 DUP3 SLOAD AND OR SWAP1 SSTORE PUSH1 0x4 SWAP7 DUP8 DUP6 ADD SWAP3 DUP1 DUP6 ADD MLOAD SWAP3 DUP4 MLOAD SWAP5 PUSH8 0xFFFFFFFFFFFFFFFF SWAP6 DUP7 DUP2 GT PUSH3 0x32F7 JUMPI PUSH3 0x2A7D DUP3 SLOAD PUSH3 0x2288 JUMP JUMPDEST SWAP6 PUSH1 0x1F SWAP7 DUP8 DUP2 GT PUSH3 0x32BA JUMPI JUMPDEST POP DUP5 SWAP1 DUP8 DUP4 GT PUSH1 0x1 EQ PUSH3 0x3254 JUMPI PUSH3 0x2ABC SWAP3 SWAP2 PUSH1 0x0 SWAP2 DUP4 PUSH3 0x1F44 JUMPI POP POP DUP2 PUSH1 0x1 SHL SWAP2 PUSH1 0x0 NOT SWAP1 PUSH1 0x3 SHL SHR NOT AND OR SWAP1 JUMP JUMPDEST SWAP1 SSTORE JUMPDEST PUSH1 0x5 DUP1 DUP9 ADD PUSH1 0x40 DUP9 ADD MLOAD DUP1 MLOAD SWAP1 DUP9 DUP3 GT PUSH3 0x2F31 JUMPI PUSH3 0x2AE0 DUP4 SLOAD PUSH3 0x2288 JUMP JUMPDEST DUP9 DUP2 GT PUSH3 0x3224 JUMPI JUMPDEST POP DUP6 SWAP1 DUP9 DUP4 GT PUSH1 0x1 EQ PUSH3 0x31BE JUMPI PUSH3 0x2B1B SWAP3 SWAP2 PUSH1 0x0 SWAP2 DUP4 PUSH3 0x1F44 JUMPI POP POP DUP2 PUSH1 0x1 SHL SWAP2 PUSH1 0x0 NOT SWAP1 PUSH1 0x3 SHL SHR NOT AND OR SWAP1 JUMP JUMPDEST SWAP1 SSTORE JUMPDEST PUSH1 0x60 DUP8 ADD MLOAD PUSH1 0x6 DUP10 ADD SSTORE PUSH1 0x80 DUP8 ADD MLOAD PUSH1 0x7 DUP10 ADD SSTORE PUSH1 0xA0 DUP8 ADD MLOAD PUSH1 0x8 DUP10 ADD SSTORE PUSH1 0xC0 DUP8 ADD MLOAD PUSH1 0x9 DUP10 ADD SSTORE PUSH1 0xE0 DUP8 ADD MLOAD PUSH1 0xA DUP10 ADD SSTORE PUSH2 0x100 DUP1 DUP9 ADD MLOAD PUSH1 0xB DUP11 ADD SSTORE PUSH2 0x120 DUP1 SWAP9 ADD MLOAD PUSH1 0xC DUP11 ADD SSTORE PUSH1 0xD DUP10 ADD PUSH1 0x80 DUP12 ADD MLOAD DUP1 MLOAD SWAP1 DUP10 DUP3 GT PUSH3 0x2FE7 JUMPI PUSH3 0x2B88 DUP4 SLOAD PUSH3 0x2288 JUMP JUMPDEST DUP10 DUP2 GT PUSH3 0x318E JUMPI JUMPDEST POP DUP7 SWAP1 DUP10 DUP4 GT PUSH1 0x1 EQ PUSH3 0x3128 JUMPI PUSH3 0x2BC3 SWAP3 SWAP2 PUSH1 0x0 SWAP2 DUP4 PUSH3 0x1F44 JUMPI POP POP DUP2 PUSH1 0x1 SHL SWAP2 PUSH1 0x0 NOT SWAP1 PUSH1 0x3 SHL SHR NOT AND OR SWAP1 JUMP JUMPDEST SWAP1 SSTORE JUMPDEST PUSH1 0xE DUP10 ADD PUSH1 0xA0 DUP12 ADD MLOAD DUP1 MLOAD SWAP1 DUP10 DUP3 GT PUSH3 0x2FE7 JUMPI PUSH3 0x2BE6 DUP4 SLOAD PUSH3 0x2288 JUMP JUMPDEST DUP10 DUP2 GT PUSH3 0x30F8 JUMPI JUMPDEST POP DUP7 SWAP1 DUP10 DUP4 GT PUSH1 0x1 EQ PUSH3 0x3092 JUMPI PUSH3 0x2C21 SWAP3 SWAP2 PUSH1 0x0 SWAP2 DUP4 PUSH3 0x1F44 JUMPI POP POP DUP2 PUSH1 0x1 SHL SWAP2 PUSH1 0x0 NOT SWAP1 PUSH1 0x3 SHL SHR NOT AND OR SWAP1 JUMP JUMPDEST SWAP1 SSTORE JUMPDEST PUSH1 0xF DUP10 ADD PUSH1 0xC0 DUP12 ADD MLOAD DUP1 MLOAD SWAP1 DUP10 DUP3 GT PUSH3 0x2FE7 JUMPI PUSH3 0x2C44 DUP4 SLOAD PUSH3 0x2288 JUMP JUMPDEST DUP10 DUP2 GT PUSH3 0x3062 JUMPI JUMPDEST POP DUP7 SWAP1 DUP10 DUP4 GT PUSH1 0x1 EQ PUSH3 0x2FFC JUMPI PUSH3 0x2C7F SWAP3 SWAP2 PUSH1 0x0 SWAP2 DUP4 PUSH3 0x1F44 JUMPI POP POP DUP2 PUSH1 0x1 SHL SWAP2 PUSH1 0x0 NOT SWAP1 PUSH1 0x3 SHL SHR NOT AND OR SWAP1 JUMP JUMPDEST SWAP1 SSTORE JUMPDEST PUSH1 0x10 DUP10 ADD PUSH1 0xE0 DUP12 ADD MLOAD DUP1 MLOAD SWAP1 DUP10 DUP3 GT PUSH3 0x2FE7 JUMPI PUSH3 0x2CA2 DUP4 SLOAD PUSH3 0x2288 JUMP JUMPDEST DUP10 DUP2 GT PUSH3 0x2FAC JUMPI JUMPDEST POP DUP7 SWAP1 DUP10 DUP4 GT PUSH1 0x1 EQ PUSH3 0x2F46 JUMPI PUSH3 0x2CDD SWAP3 SWAP2 PUSH1 0x0 SWAP2 DUP4 PUSH3 0x1F44 JUMPI POP POP DUP2 PUSH1 0x1 SHL SWAP2 PUSH1 0x0 NOT SWAP1 PUSH1 0x3 SHL SHR NOT AND OR SWAP1 JUMP JUMPDEST SWAP1 SSTORE JUMPDEST DUP10 ADD MLOAD DUP1 MLOAD PUSH1 0x11 DUP11 ADD SWAP2 DUP9 DUP3 GT PUSH3 0x2F31 JUMPI PUSH3 0x2CFE DUP4 SLOAD PUSH3 0x2288 JUMP JUMPDEST DUP9 DUP2 GT PUSH3 0x2EF6 JUMPI JUMPDEST POP DUP6 SWAP1 DUP9 DUP4 GT PUSH1 0x1 EQ PUSH3 0x2E90 JUMPI PUSH3 0x2D39 SWAP3 SWAP2 PUSH1 0x0 SWAP2 DUP4 PUSH3 0x1F44 JUMPI POP POP DUP2 PUSH1 0x1 SHL SWAP2 PUSH1 0x0 NOT SWAP1 PUSH1 0x3 SHL SHR NOT AND OR SWAP1 JUMP JUMPDEST SWAP1 SSTORE JUMPDEST PUSH1 0x12 DUP9 ADD SWAP7 DUP10 ADD MLOAD SWAP11 DUP12 MLOAD SWAP7 DUP8 GT PUSH3 0x2E7B JUMPI POP PUSH3 0x2D5C DUP8 SLOAD PUSH3 0x2288 JUMP JUMPDEST DUP6 DUP2 GT PUSH3 0x2E3E JUMPI JUMPDEST POP POP DUP2 SWAP4 DUP6 GT PUSH1 0x1 EQ PUSH3 0x2DCE JUMPI POP POP POP SWAP1 DUP1 PUSH3 0x2D9F SWAP3 PUSH1 0x13 SWAP7 SWAP8 SWAP9 PUSH1 0x0 SWAP3 PUSH3 0x1F44 JUMPI POP POP DUP2 PUSH1 0x1 SHL SWAP2 PUSH1 0x0 NOT SWAP1 PUSH1 0x3 SHL SHR NOT AND OR SWAP1 JUMP JUMPDEST SWAP1 SSTORE JUMPDEST ADD SWAP1 PUSH2 0x140 DUP2 ADD MLOAD ISZERO ISZERO SWAP1 PUSH1 0xFF PUSH2 0xFF00 PUSH2 0x160 DUP6 SLOAD SWAP4 ADD MLOAD ISZERO ISZERO PUSH1 0x8 SHL AND SWAP3 AND SWAP1 PUSH2 0xFFFF NOT AND OR OR SWAP1 SSTORE JUMP JUMPDEST SWAP1 SWAP2 SWAP4 SWAP3 PUSH1 0x1F NOT DUP5 AND SWAP10 DUP7 PUSH1 0x0 MSTORE DUP4 PUSH1 0x0 KECCAK256 SWAP4 PUSH1 0x0 SWAP1 JUMPDEST DUP13 DUP3 LT PUSH3 0x2E26 JUMPI POP POP DUP5 PUSH1 0x13 SWAP10 SWAP11 SWAP12 LT PUSH3 0x2E0B JUMPI JUMPDEST POP POP POP POP DUP2 SHL ADD SWAP1 SSTORE PUSH3 0x2DA2 JUMP JUMPDEST ADD MLOAD SWAP1 PUSH1 0xF8 DUP5 PUSH1 0x0 NOT SWAP3 SHL AND SHR NOT AND SWAP1 SSTORE CODESIZE DUP1 DUP1 DUP1 PUSH3 0x2DFC JUMP JUMPDEST DUP1 DUP9 DUP6 SWAP8 DUP3 SWAP5 SWAP7 DUP7 ADD MLOAD DUP2 SSTORE ADD SWAP7 ADD SWAP4 ADD SWAP1 PUSH3 0x2DE5 JUMP JUMPDEST PUSH3 0x2E69 SWAP2 DUP9 PUSH1 0x0 MSTORE DUP5 PUSH1 0x0 KECCAK256 SWAP1 DUP8 DUP1 DUP11 ADD DUP3 SHR DUP4 ADD SWAP4 DUP8 DUP12 LT PUSH3 0x2E71 JUMPI JUMPDEST ADD SWAP1 SHR ADD SWAP1 PUSH3 0x291E JUMP JUMPDEST CODESIZE DUP1 PUSH3 0x2D65 JUMP JUMPDEST SWAP4 POP DUP3 SWAP4 PUSH3 0x2E5E JUMP JUMPDEST PUSH1 0x41 SWAP1 PUSH4 0x4E487B71 PUSH1 0xE0 SHL PUSH1 0x0 MSTORE MSTORE PUSH1 0x24 PUSH1 0x0 REVERT JUMPDEST DUP8 SWAP3 SWAP2 PUSH1 0x1F NOT DUP4 AND SWAP2 DUP6 PUSH1 0x0 MSTORE DUP9 PUSH1 0x0 KECCAK256 SWAP3 PUSH1 0x0 JUMPDEST DUP11 DUP3 DUP3 LT PUSH3 0x2EDF JUMPI POP POP DUP5 GT PUSH3 0x2EC6 JUMPI JUMPDEST POP POP POP DUP2 SHL ADD SWAP1 SSTORE PUSH3 0x2D3C JUMP JUMPDEST ADD MLOAD PUSH1 0x0 NOT DUP4 DUP9 SHL PUSH1 0xF8 AND SHR NOT AND SWAP1 SSTORE CODESIZE DUP1 DUP1 PUSH3 0x2EB8 JUMP JUMPDEST DUP4 DUP6 ADD MLOAD DUP7 SSTORE DUP13 SWAP8 SWAP1 SWAP6 ADD SWAP5 SWAP4 DUP5 ADD SWAP4 ADD PUSH3 0x2EA5 JUMP JUMPDEST PUSH3 0x2F20 SWAP1 DUP5 PUSH1 0x0 MSTORE DUP8 PUSH1 0x0 KECCAK256 DUP11 DUP1 DUP7 ADD DUP9 SHR DUP3 ADD SWAP3 DUP11 DUP8 LT PUSH3 0x2F27 JUMPI JUMPDEST ADD DUP8 SHR ADD SWAP1 PUSH3 0x291E JUMP JUMPDEST CODESIZE PUSH3 0x2D07 JUMP JUMPDEST SWAP3 POP DUP2 SWAP3 PUSH3 0x2F15 JUMP JUMPDEST PUSH1 0x41 DUP15 PUSH4 0x4E487B71 PUSH1 0xE0 SHL PUSH1 0x0 MSTORE MSTORE PUSH1 0x24 PUSH1 0x0 REVERT JUMPDEST DUP9 SWAP3 SWAP2 PUSH1 0x1F NOT DUP4 AND SWAP2 DUP6 PUSH1 0x0 MSTORE DUP10 PUSH1 0x0 KECCAK256 SWAP3 PUSH1 0x0 JUMPDEST DUP12 DUP3 DUP3 LT PUSH3 0x2F95 JUMPI POP POP DUP5 GT PUSH3 0x2F7C JUMPI JUMPDEST POP POP POP DUP2 SHL ADD SWAP1 SSTORE PUSH3 0x2CE0 JUMP JUMPDEST ADD MLOAD PUSH1 0x0 NOT DUP4 DUP10 SHL PUSH1 0xF8 AND SHR NOT AND SWAP1 SSTORE CODESIZE DUP1 DUP1 PUSH3 0x2F6E JUMP JUMPDEST DUP4 DUP6 ADD MLOAD DUP7 SSTORE DUP14 SWAP8 SWAP1 SWAP6 ADD SWAP5 SWAP4 DUP5 ADD SWAP4 ADD PUSH3 0x2F5B JUMP JUMPDEST PUSH3 0x2FD6 SWAP1 DUP5 PUSH1 0x0 MSTORE DUP9 PUSH1 0x0 KECCAK256 DUP12 DUP1 DUP7 ADD DUP10 SHR DUP3 ADD SWAP3 DUP12 DUP8 LT PUSH3 0x2FDD JUMPI JUMPDEST ADD DUP9 SHR ADD SWAP1 PUSH3 0x291E JUMP JUMPDEST CODESIZE PUSH3 0x2CAB JUMP JUMPDEST SWAP3 POP DUP2 SWAP3 PUSH3 0x2FCB JUMP JUMPDEST PUSH1 0x41 DUP16 PUSH4 0x4E487B71 PUSH1 0xE0 SHL PUSH1 0x0 MSTORE MSTORE PUSH1 0x24 PUSH1 0x0 REVERT JUMPDEST DUP9 SWAP3 SWAP2 PUSH1 0x1F NOT DUP4 AND SWAP2 DUP6 PUSH1 0x0 MSTORE DUP10 PUSH1 0x0 KECCAK256 SWAP3 PUSH1 0x0 JUMPDEST DUP12 DUP3 DUP3 LT PUSH3 0x304B JUMPI POP POP DUP5 GT PUSH3 0x3032 JUMPI JUMPDEST POP POP POP DUP2 SHL ADD SWAP1 SSTORE PUSH3 0x2C82 JUMP JUMPDEST ADD MLOAD PUSH1 0x0 NOT DUP4 DUP10 SHL PUSH1 0xF8 AND SHR NOT AND SWAP1 SSTORE CODESIZE DUP1 DUP1 PUSH3 0x3024 JUMP JUMPDEST DUP4 DUP6 ADD MLOAD DUP7 SSTORE DUP14 SWAP8 SWAP1 SWAP6 ADD SWAP5 SWAP4 DUP5 ADD SWAP4 ADD PUSH3 0x3011 JUMP JUMPDEST PUSH3 0x308B SWAP1 DUP5 PUSH1 0x0 MSTORE DUP9 PUSH1 0x0 KECCAK256 DUP12 DUP1 DUP7 ADD DUP10 SHR DUP3 ADD SWAP3 DUP12 DUP8 LT PUSH3 0x2FDD JUMPI ADD DUP9 SHR ADD SWAP1 PUSH3 0x291E JUMP JUMPDEST CODESIZE PUSH3 0x2C4D JUMP JUMPDEST DUP9 SWAP3 SWAP2 PUSH1 0x1F NOT DUP4 AND SWAP2 DUP6 PUSH1 0x0 MSTORE DUP10 PUSH1 0x0 KECCAK256 SWAP3 PUSH1 0x0 JUMPDEST DUP12 DUP3 DUP3 LT PUSH3 0x30E1 JUMPI POP POP DUP5 GT PUSH3 0x30C8 JUMPI JUMPDEST POP POP POP DUP2 SHL ADD SWAP1 SSTORE PUSH3 0x2C24 JUMP JUMPDEST ADD MLOAD PUSH1 0x0 NOT DUP4 DUP10 SHL PUSH1 0xF8 AND SHR NOT AND SWAP1 SSTORE CODESIZE DUP1 DUP1 PUSH3 0x30BA JUMP JUMPDEST DUP4 DUP6 ADD MLOAD DUP7 SSTORE DUP14 SWAP8 SWAP1 SWAP6 ADD SWAP5 SWAP4 DUP5 ADD SWAP4 ADD PUSH3 0x30A7 JUMP JUMPDEST PUSH3 0x3121 SWAP1 DUP5 PUSH1 0x0 MSTORE DUP9 PUSH1 0x0 KECCAK256 DUP12 DUP1 DUP7 ADD DUP10 SHR DUP3 ADD SWAP3 DUP12 DUP8 LT PUSH3 0x2FDD JUMPI ADD DUP9 SHR ADD SWAP1 PUSH3 0x291E JUMP JUMPDEST CODESIZE PUSH3 0x2BEF JUMP JUMPDEST DUP9 SWAP3 SWAP2 PUSH1 0x1F NOT DUP4 AND SWAP2 DUP6 PUSH1 0x0 MSTORE DUP10 PUSH1 0x0 KECCAK256 SWAP3 PUSH1 0x0 JUMPDEST DUP12 DUP3 DUP3 LT PUSH3 0x3177 JUMPI POP POP DUP5 GT PUSH3 0x315E JUMPI JUMPDEST POP POP POP DUP2 SHL ADD SWAP1 SSTORE PUSH3 0x2BC6 JUMP JUMPDEST ADD MLOAD PUSH1 0x0 NOT DUP4 DUP10 SHL PUSH1 0xF8 AND SHR NOT AND SWAP1 SSTORE CODESIZE DUP1 DUP1 PUSH3 0x3150 JUMP JUMPDEST DUP4 DUP6 ADD MLOAD DUP7 SSTORE DUP14 SWAP8 SWAP1 SWAP6 ADD SWAP5 SWAP4 DUP5 ADD SWAP4 ADD PUSH3 0x313D JUMP JUMPDEST PUSH3 0x31B7 SWAP1 DUP5 PUSH1 0x0 MSTORE DUP9 PUSH1 0x0 KECCAK256 DUP12 DUP1 DUP7 ADD DUP10 SHR DUP3 ADD SWAP3 DUP12 DUP8 LT PUSH3 0x2FDD JUMPI ADD DUP9 SHR ADD SWAP1 PUSH3 0x291E JUMP JUMPDEST CODESIZE PUSH3 0x2B91 JUMP JUMPDEST DUP8 SWAP3 SWAP2 PUSH1 0x1F NOT DUP4 AND SWAP2 DUP6 PUSH1 0x0 MSTORE DUP9 PUSH1 0x0 KECCAK256 SWAP3 PUSH1 0x0 JUMPDEST DUP11 DUP3 DUP3 LT PUSH3 0x320D JUMPI POP POP DUP5 GT PUSH3 0x31F4 JUMPI JUMPDEST POP POP POP DUP2 SHL ADD SWAP1 SSTORE PUSH3 0x2B1E JUMP JUMPDEST ADD MLOAD PUSH1 0x0 NOT DUP4 DUP9 SHL PUSH1 0xF8 AND SHR NOT AND SWAP1 SSTORE CODESIZE DUP1 DUP1 PUSH3 0x31E6 JUMP JUMPDEST DUP4 DUP6 ADD MLOAD DUP7 SSTORE DUP13 SWAP8 SWAP1 SWAP6 ADD SWAP5 SWAP4 DUP5 ADD SWAP4 ADD PUSH3 0x31D3 JUMP JUMPDEST PUSH3 0x324D SWAP1 DUP5 PUSH1 0x0 MSTORE DUP8 PUSH1 0x0 KECCAK256 DUP11 DUP1 DUP7 ADD DUP9 SHR DUP3 ADD SWAP3 DUP11 DUP8 LT PUSH3 0x2F27 JUMPI ADD DUP8 SHR ADD SWAP1 PUSH3 0x291E JUMP JUMPDEST CODESIZE PUSH3 0x2AE9 JUMP JUMPDEST DUP7 SWAP3 SWAP2 PUSH1 0x1F NOT DUP4 AND SWAP2 DUP6 PUSH1 0x0 MSTORE DUP8 PUSH1 0x0 KECCAK256 SWAP3 PUSH1 0x0 JUMPDEST DUP10 DUP3 DUP3 LT PUSH3 0x32A3 JUMPI POP POP DUP5 GT PUSH3 0x328A JUMPI JUMPDEST POP POP POP DUP2 SHL ADD SWAP1 SSTORE PUSH3 0x2ABF JUMP JUMPDEST ADD MLOAD PUSH1 0x0 NOT DUP4 DUP8 SHL PUSH1 0xF8 AND SHR NOT AND SWAP1 SSTORE CODESIZE DUP1 DUP1 PUSH3 0x327C JUMP JUMPDEST DUP4 DUP6 ADD MLOAD DUP7 SSTORE DUP12 SWAP8 SWAP1 SWAP6 ADD SWAP5 SWAP4 DUP5 ADD SWAP4 ADD PUSH3 0x3269 JUMP JUMPDEST PUSH3 0x32E6 SWAP1 DUP5 PUSH1 0x0 MSTORE DUP7 PUSH1 0x0 KECCAK256 DUP10 DUP1 DUP7 ADD PUSH1 0x5 SHR DUP3 ADD SWAP3 DUP10 DUP8 LT PUSH3 0x32ED JUMPI JUMPDEST ADD PUSH1 0x5 SHR ADD SWAP1 PUSH3 0x291E JUMP JUMPDEST CODESIZE PUSH3 0x2A8A JUMP JUMPDEST SWAP3 POP DUP2 SWAP3 PUSH3 0x32DA JUMP JUMPDEST PUSH1 0x41 DUP13 PUSH4 0x4E487B71 PUSH1 0xE0 SHL PUSH1 0x0 MSTORE MSTORE PUSH1 0x24 PUSH1 0x0 REVERT JUMPDEST SWAP1 DUP2 SLOAD PUSH1 0x1 PUSH1 0x40 SHL DUP2 LT ISZERO PUSH3 0x835 JUMPI PUSH1 0x1 DUP2 ADD DUP1 DUP5 SSTORE DUP2 LT ISZERO PUSH3 0x81F JUMPI PUSH3 0x2389 SWAP3 PUSH1 0x0 MSTORE PUSH1 0x14 PUSH1 0x20 PUSH1 0x0 KECCAK256 SWAP2 MUL ADD PUSH3 0x29EE JUMP JUMPDEST PUSH1 0x2 PUSH1 0x0 SLOAD EQ PUSH3 0x3355 JUMPI PUSH1 0x2 PUSH1 0x0 SSTORE JUMP JUMPDEST PUSH1 0x40 MLOAD PUSH4 0x3EE5AEB5 PUSH1 0xE0 SHL DUP2 MSTORE PUSH1 0x4 SWAP1 REVERT JUMPDEST SWAP1 DUP2 PUSH1 0x20 SWAP2 SUB SLT PUSH3 0x890 JUMPI MLOAD DUP1 ISZERO ISZERO DUP2 SUB PUSH3 0x890 JUMPI SWAP1 JUMP JUMPDEST PUSH3 0x33EB SWAP3 PUSH1 0x20 SWAP3 SWAP1 SWAP2 SWAP1 PUSH1 0x1 PUSH1 0x1 PUSH1 0xA0 SHL SUB SWAP1 PUSH3 0x33A4 DUP3 DUP5 AND ISZERO ISZERO PUSH3 0x2899 JUMP JUMPDEST AND SWAP1 PUSH3 0x33B3 DUP3 ISZERO ISZERO PUSH3 0x2899 JUMP JUMPDEST PUSH1 0x40 MLOAD PUSH4 0x95EA7B3 PUSH1 0xE0 SHL DUP2 MSTORE PUSH1 0x1 PUSH1 0x1 PUSH1 0xA0 SHL SUB SWAP1 SWAP2 AND PUSH1 0x4 DUP3 ADD MSTORE PUSH1 0x24 DUP2 ADD SWAP3 SWAP1 SWAP3 MSTORE SWAP1 SWAP3 DUP4 SWAP2 SWAP1 DUP3 SWAP1 PUSH1 0x0 SWAP1 DUP3 SWAP1 PUSH1 0x44 DUP3 ADD SWAP1 JUMP JUMPDEST SUB SWAP3 GAS CALL DUP1 ISZERO PUSH3 0x3426 JUMPI PUSH3 0x3402 JUMPI JUMPDEST POP PUSH1 0x1 SWAP1 JUMP JUMPDEST PUSH3 0x341E SWAP1 PUSH1 0x20 RETURNDATASIZE PUSH1 0x20 GT PUSH3 0x1DA1 JUMPI PUSH3 0x1D90 DUP2 DUP4 PUSH3 0x231E JUMP JUMPDEST POP CODESIZE PUSH3 0x33FC JUMP JUMPDEST PUSH1 0x40 MLOAD RETURNDATASIZE PUSH1 0x0 DUP3 RETURNDATACOPY RETURNDATASIZE SWAP1 REVERT JUMPDEST PUSH1 0x1 PUSH1 0x1 PUSH1 0xA0 SHL SUB SWAP1 DUP2 AND PUSH3 0x344A DUP2 ISZERO ISZERO PUSH3 0x2899 JUMP JUMPDEST PUSH1 0x8 SLOAD SWAP2 PUSH1 0x0 JUMPDEST DUP4 DUP2 LT PUSH3 0x3462 JUMPI POP POP POP POP PUSH1 0x0 SWAP1 JUMP JUMPDEST DUP3 DUP3 PUSH3 0x346F DUP4 PUSH3 0x27CD JUMP JUMPDEST POP SLOAD AND EQ PUSH3 0x3481 JUMPI PUSH1 0x1 ADD PUSH3 0x3451 JUMP JUMPDEST POP POP POP POP PUSH1 0x1 SWAP1 JUMP JUMPDEST PUSH3 0x3496 DUP2 SLOAD PUSH3 0x2288 JUMP JUMPDEST SWAP1 DUP2 PUSH3 0x34A1 JUMPI POP POP JUMP JUMPDEST DUP2 PUSH1 0x1F PUSH1 0x0 SWAP4 GT PUSH1 0x1 EQ PUSH3 0x34B4 JUMPI POP SSTORE JUMP JUMPDEST SWAP1 DUP1 DUP4 SWAP2 DUP3 MSTORE PUSH3 0x34D5 PUSH1 0x1F PUSH1 0x20 DUP5 KECCAK256 SWAP5 ADD PUSH1 0x5 SHR DUP5 ADD PUSH1 0x1 DUP6 ADD PUSH3 0x291E JUMP JUMPDEST SSTORE SSTORE JUMP JUMPDEST DUP2 MLOAD DUP2 SLOAD PUSH1 0x1 PUSH1 0x1 PUSH1 0xA0 SHL SUB NOT AND PUSH1 0x1 PUSH1 0x1 PUSH1 0xA0 SHL SUB SWAP2 SWAP1 SWAP2 AND OR DUP2 SSTORE PUSH1 0x20 SWAP2 DUP3 ADD MLOAD DUP1 MLOAD PUSH1 0x1 SWAP4 SWAP1 SWAP3 DUP5 ADD SWAP2 PUSH1 0x1 PUSH1 0x40 SHL DUP5 GT PUSH3 0x835 JUMPI DUP3 SLOAD DUP5 DUP5 SSTORE DUP1 DUP6 LT PUSH3 0x3560 JUMPI JUMPDEST POP PUSH1 0x20 ADD SWAP2 PUSH1 0x0 MSTORE PUSH1 0x20 PUSH1 0x0 KECCAK256 PUSH1 0x0 SWAP3 JUMPDEST DUP5 DUP5 LT PUSH3 0x3541 JUMPI POP POP POP POP POP POP JUMP JUMPDEST PUSH1 0x14 DUP4 DUP3 PUSH3 0x3553 DUP10 SWAP5 MLOAD DUP7 PUSH3 0x29EE JUMP JUMPDEST ADD SWAP3 ADD SWAP4 ADD SWAP3 SWAP1 PUSH3 0x3531 JUMP JUMPDEST PUSH1 0x14 SWAP1 DUP1 PUSH1 0x14 MUL SWAP1 PUSH1 0x14 DUP3 DIV SUB PUSH3 0x2961 JUMPI DUP6 PUSH1 0x14 MUL PUSH1 0x14 DUP2 DIV DUP8 SUB PUSH3 0x2961 JUMPI PUSH1 0x0 SWAP1 DUP7 DUP3 MSTORE PUSH1 0x20 DUP3 KECCAK256 SWAP3 DUP4 ADD SWAP3 ADD JUMPDEST DUP3 DUP2 LT PUSH3 0x35A2 JUMPI POP POP POP PUSH3 0x3520 JUMP JUMPDEST DUP1 DUP3 DUP6 SWAP3 SSTORE DUP3 DUP11 DUP3 ADD SSTORE DUP3 PUSH1 0x2 DUP3 ADD SSTORE DUP3 PUSH1 0x3 DUP3 ADD SSTORE PUSH3 0x35C6 PUSH1 0x4 DUP3 ADD PUSH3 0x348A JUMP JUMPDEST PUSH3 0x35D4 PUSH1 0x5 DUP3 ADD PUSH3 0x348A JUMP JUMPDEST DUP3 PUSH1 0x6 DUP3 ADD SSTORE DUP3 PUSH1 0x7 DUP3 ADD SSTORE DUP3 PUSH1 0x8 DUP3 ADD SSTORE DUP3 PUSH1 0x9 DUP3 ADD SSTORE DUP3 PUSH1 0xA DUP3 ADD SSTORE DUP3 PUSH1 0xB DUP3 ADD SSTORE DUP3 PUSH1 0xC DUP3 ADD SSTORE PUSH3 0x360C PUSH1 0xD DUP3 ADD PUSH3 0x348A JUMP JUMPDEST PUSH3 0x361A PUSH1 0xE DUP3 ADD PUSH3 0x348A JUMP JUMPDEST PUSH3 0x3628 PUSH1 0xF DUP3 ADD PUSH3 0x348A JUMP JUMPDEST PUSH3 0x3636 PUSH1 0x10 DUP3 ADD PUSH3 0x348A JUMP JUMPDEST PUSH3 0x3644 PUSH1 0x11 DUP3 ADD PUSH3 0x348A JUMP JUMPDEST PUSH3 0x3652 PUSH1 0x12 DUP3 ADD PUSH3 0x348A JUMP JUMPDEST DUP3 PUSH1 0x13 DUP3 ADD SSTORE ADD PUSH3 0x3591 JUMP INVALID PUSH1 0x40 PUSH1 0x80 DUP2 MSTORE CALLVALUE PUSH3 0x429 JUMPI PUSH3 0x10AB DUP1 CODESIZE SUB DUP1 PUSH3 0x1E DUP2 PUSH3 0x42E JUMP JUMPDEST SWAP3 DUP4 CODECOPY DUP2 ADD SWAP1 PUSH1 0x80 DUP2 DUP4 SUB SLT PUSH3 0x429 JUMPI DUP1 MLOAD PUSH1 0x1 PUSH1 0x1 PUSH1 0x40 SHL SUB SWAP2 SWAP1 DUP3 DUP2 GT PUSH3 0x429 JUMPI DUP4 PUSH3 0x51 SWAP2 DUP4 ADD PUSH3 0x46A JUMP JUMPDEST SWAP1 PUSH1 0x20 SWAP4 DUP5 DUP3 ADD MLOAD SWAP1 DUP5 DUP3 GT PUSH3 0x429 JUMPI PUSH3 0x6F SWAP2 DUP4 ADD PUSH3 0x46A JUMP JUMPDEST PUSH1 0x60 DUP7 DUP4 ADD MLOAD SWAP3 ADD MLOAD SWAP1 PUSH1 0x0 SWAP5 CALLER PUSH1 0x1 DUP1 PUSH1 0xA0 SHL SUB NOT DUP8 SLOAD AND OR DUP7 SSTORE CALLER DUP7 PUSH32 0x8BE0079C531659141344CD1FD0A4F28419497F9722A3DAAFE3B4186F6B6457E0 DUP2 DUP1 LOG3 DUP5 MLOAD DUP2 DUP2 GT PUSH3 0x343 JUMPI PUSH1 0x2 SLOAD SWAP1 PUSH1 0x1 SWAP7 DUP8 DUP4 DUP2 SHR SWAP4 AND DUP1 ISZERO PUSH3 0x41E JUMPI JUMPDEST DUP11 DUP5 LT EQ PUSH3 0x324 JUMPI DUP2 SWAP1 PUSH1 0x1F SWAP4 DUP5 DUP2 GT PUSH3 0x3CA JUMPI JUMPDEST POP DUP11 SWAP1 DUP5 DUP4 GT PUSH1 0x1 EQ PUSH3 0x363 JUMPI DUP11 SWAP3 PUSH3 0x357 JUMPI JUMPDEST POP POP PUSH1 0x0 NOT PUSH1 0x3 DUP4 SWAP1 SHL SHR NOT AND SWAP1 DUP8 SHL OR PUSH1 0x2 SSTORE JUMPDEST DUP3 MLOAD SWAP2 DUP3 GT PUSH3 0x343 JUMPI PUSH1 0x3 SWAP3 DUP4 SLOAD DUP8 DUP2 DUP2 SHR SWAP2 AND DUP1 ISZERO PUSH3 0x338 JUMPI JUMPDEST DUP11 DUP3 LT EQ PUSH3 0x324 JUMPI SWAP1 DUP2 DUP4 DUP6 SWAP5 SWAP4 GT PUSH3 0x2CF JUMPI JUMPDEST POP DUP10 SWAP2 DUP4 GT PUSH1 0x1 EQ PUSH3 0x26C JUMPI DUP9 SWAP3 PUSH3 0x260 JUMPI JUMPDEST POP POP PUSH1 0x0 NOT DUP3 DUP5 SHL SHR NOT AND SWAP1 DUP6 SHL OR SWAP1 SSTORE JUMPDEST PUSH8 0xDE0B6B3A7640000 SWAP2 DUP3 DUP2 MUL SWAP3 DUP2 DUP5 DIV EQ SWAP1 ISZERO OR ISZERO PUSH3 0x24C JUMPI DUP2 DUP4 SSTORE PUSH1 0x5 DUP2 GT PUSH3 0x1FE JUMPI SWAP1 PUSH32 0xDDF252AD1BE2C89B69C2B068FC378DAA952BA7F163C4A11628F55A4DF523B3EF SWAP3 SWAP2 PUSH1 0x4 SSTORE CALLER DUP5 MSTORE PUSH1 0x5 DUP6 MSTORE DUP6 DUP5 KECCAK256 SSTORE PUSH1 0x7 DUP5 MSTORE DUP5 DUP4 KECCAK256 PUSH1 0xFF NOT SWAP1 DUP3 DUP3 DUP3 SLOAD AND OR SWAP1 SSTORE ADDRESS DUP5 MSTORE DUP2 DUP7 DUP6 KECCAK256 SWAP2 DUP3 SLOAD AND OR SWAP1 SSTORE SLOAD SWAP3 DUP5 MLOAD SWAP4 DUP5 MSTORE CALLER SWAP4 LOG3 MLOAD PUSH2 0xBCE SWAP1 DUP2 PUSH3 0x4DD DUP3 CODECOPY RETURN JUMPDEST DUP6 MLOAD PUSH3 0x461BCD PUSH1 0xE5 SHL DUP2 MSTORE PUSH1 0x4 DUP2 ADD DUP7 SWAP1 MSTORE PUSH1 0x21 PUSH1 0x24 DUP3 ADD MSTORE PUSH32 0x4D6178205472616E73616374696F6E2063616E6E6F7420657863656564203525 PUSH1 0x44 DUP3 ADD MSTORE PUSH1 0x17 PUSH1 0xF9 SHL PUSH1 0x64 DUP3 ADD MSTORE PUSH1 0x84 SWAP1 REVERT JUMPDEST PUSH4 0x4E487B71 PUSH1 0xE0 SHL DUP5 MSTORE PUSH1 0x11 PUSH1 0x4 MSTORE PUSH1 0x24 DUP5 REVERT JUMPDEST ADD MLOAD SWAP1 POP CODESIZE DUP1 PUSH3 0x15A JUMP JUMPDEST DUP5 DUP10 MSTORE DUP10 DUP10 KECCAK256 DUP9 SWAP5 POP SWAP2 SWAP1 PUSH1 0x1F NOT DUP5 AND DUP11 JUMPDEST DUP13 DUP3 DUP3 LT PUSH3 0x2B8 JUMPI POP POP DUP5 GT PUSH3 0x29F JUMPI JUMPDEST POP POP POP DUP2 SHL ADD SWAP1 SSTORE PUSH3 0x16C JUMP JUMPDEST ADD MLOAD PUSH1 0x0 NOT DUP4 DUP7 SHL PUSH1 0xF8 AND SHR NOT AND SWAP1 SSTORE CODESIZE DUP1 DUP1 PUSH3 0x291 JUMP JUMPDEST DUP4 DUP6 ADD MLOAD DUP7 SSTORE DUP12 SWAP8 SWAP1 SWAP6 ADD SWAP5 SWAP4 DUP5 ADD SWAP4 ADD PUSH3 0x27E JUMP JUMPDEST SWAP1 SWAP2 SWAP3 POP DUP5 DUP10 MSTORE DUP10 DUP10 KECCAK256 DUP4 DUP1 DUP7 ADD PUSH1 0x5 SHR DUP3 ADD SWAP3 DUP13 DUP8 LT PUSH3 0x31A JUMPI JUMPDEST SWAP2 DUP7 SWAP6 DUP12 SWAP3 SWAP6 SWAP5 SWAP4 ADD PUSH1 0x5 SHR ADD SWAP2 JUMPDEST DUP3 DUP2 LT PUSH3 0x30B JUMPI POP POP PUSH3 0x145 JUMP JUMPDEST DUP12 DUP2 SSTORE DUP7 SWAP6 POP DUP11 SWAP2 ADD PUSH3 0x2FB JUMP JUMPDEST SWAP3 POP DUP2 SWAP3 PUSH3 0x2EC JUMP JUMPDEST PUSH4 0x4E487B71 PUSH1 0xE0 SHL DUP10 MSTORE PUSH1 0x22 PUSH1 0x4 MSTORE PUSH1 0x24 DUP10 REVERT JUMPDEST SWAP1 PUSH1 0x7F AND SWAP1 PUSH3 0x12F JUMP JUMPDEST PUSH4 0x4E487B71 PUSH1 0xE0 SHL DUP8 MSTORE PUSH1 0x41 PUSH1 0x4 MSTORE PUSH1 0x24 DUP8 REVERT JUMPDEST ADD MLOAD SWAP1 POP CODESIZE DUP1 PUSH3 0xFD JUMP JUMPDEST PUSH1 0x2 DUP12 MSTORE DUP12 DUP12 KECCAK256 DUP11 SWAP5 POP SWAP2 SWAP1 PUSH1 0x1F NOT DUP5 AND DUP13 DUP15 JUMPDEST DUP3 DUP3 LT PUSH3 0x3B2 JUMPI POP POP DUP5 GT PUSH3 0x398 JUMPI JUMPDEST POP POP POP DUP2 SHL ADD PUSH1 0x2 SSTORE PUSH3 0x112 JUMP JUMPDEST ADD MLOAD PUSH1 0x0 NOT PUSH1 0xF8 DUP5 PUSH1 0x3 SHL AND SHR NOT AND SWAP1 SSTORE CODESIZE DUP1 DUP1 PUSH3 0x389 JUMP JUMPDEST DUP4 DUP6 ADD MLOAD DUP7 SSTORE DUP14 SWAP8 SWAP1 SWAP6 ADD SWAP5 SWAP4 DUP5 ADD SWAP4 ADD DUP15 PUSH3 0x377 JUMP JUMPDEST SWAP1 SWAP2 POP PUSH1 0x2 DUP11 MSTORE DUP11 DUP11 KECCAK256 DUP5 DUP1 DUP6 ADD PUSH1 0x5 SHR DUP3 ADD SWAP3 DUP14 DUP7 LT PUSH3 0x414 JUMPI JUMPDEST SWAP2 DUP12 SWAP2 DUP7 SWAP6 SWAP5 SWAP4 ADD PUSH1 0x5 SHR ADD SWAP2 JUMPDEST DUP3 DUP2 LT PUSH3 0x405 JUMPI POP POP PUSH3 0xE7 JUMP JUMPDEST DUP13 DUP2 SSTORE DUP6 SWAP5 POP DUP12 SWAP2 ADD PUSH3 0x3F5 JUMP JUMPDEST SWAP3 POP DUP2 SWAP3 PUSH3 0x3E7 JUMP JUMPDEST SWAP3 PUSH1 0x7F AND SWAP3 PUSH3 0xD0 JUMP JUMPDEST PUSH1 0x0 DUP1 REVERT JUMPDEST PUSH1 0x40 MLOAD SWAP2 SWAP1 PUSH1 0x1F ADD PUSH1 0x1F NOT AND DUP3 ADD PUSH1 0x1 PUSH1 0x1 PUSH1 0x40 SHL SUB DUP2 GT DUP4 DUP3 LT OR PUSH3 0x454 JUMPI PUSH1 0x40 MSTORE JUMP JUMPDEST PUSH4 0x4E487B71 PUSH1 0xE0 SHL PUSH1 0x0 MSTORE PUSH1 0x41 PUSH1 0x4 MSTORE PUSH1 0x24 PUSH1 0x0 REVERT JUMPDEST SWAP2 SWAP1 DUP1 PUSH1 0x1F DUP5 ADD SLT ISZERO PUSH3 0x429 JUMPI DUP3 MLOAD PUSH1 0x1 PUSH1 0x1 PUSH1 0x40 SHL SUB DUP2 GT PUSH3 0x454 JUMPI PUSH1 0x20 SWAP1 PUSH3 0x4A0 PUSH1 0x1F DUP3 ADD PUSH1 0x1F NOT AND DUP4 ADD PUSH3 0x42E JUMP JUMPDEST SWAP3 DUP2 DUP5 MSTORE DUP3 DUP3 DUP8 ADD ADD GT PUSH3 0x429 JUMPI PUSH1 0x0 JUMPDEST DUP2 DUP2 LT PUSH3 0x4C8 JUMPI POP DUP3 PUSH1 0x0 SWAP4 SWAP5 SWAP6 POP ADD ADD MSTORE SWAP1 JUMP JUMPDEST DUP6 DUP2 ADD DUP4 ADD MLOAD DUP5 DUP3 ADD DUP5 ADD MSTORE DUP3 ADD PUSH3 0x4B2 JUMP INVALID PUSH1 0x80 PUSH1 0x40 DUP2 DUP2 MSTORE PUSH1 0x4 SWAP2 DUP3 CALLDATASIZE LT ISZERO PUSH2 0x16 JUMPI PUSH1 0x0 DUP1 REVERT JUMPDEST PUSH1 0x0 SWAP3 DUP4 CALLDATALOAD PUSH1 0xE0 SHR SWAP2 DUP3 PUSH4 0x6FDDE03 EQ PUSH2 0x5B5 JUMPI POP DUP2 PUSH4 0x95EA7B3 EQ PUSH2 0x58B JUMPI DUP2 PUSH4 0x18160DDD EQ PUSH2 0x56C JUMPI DUP2 PUSH4 0x23B872DD EQ PUSH2 0x497 JUMPI DUP2 PUSH4 0x313CE567 EQ PUSH2 0x47B JUMPI DUP2 PUSH4 0x70A08231 EQ PUSH2 0x443 JUMPI DUP2 PUSH4 0x715018A6 EQ PUSH2 0x3E4 JUMPI DUP2 PUSH4 0x7437681E EQ PUSH2 0x3C6 JUMPI DUP2 PUSH4 0x8DA5CB5B EQ PUSH2 0x39E JUMPI DUP2 PUSH4 0x95D89B41 EQ PUSH2 0x299 JUMPI DUP2 PUSH4 0xA9059CBB EQ PUSH2 0x268 JUMPI DUP2 PUSH4 0xC2D0FFCA EQ PUSH2 0x1B9 JUMPI DUP2 PUSH4 0xDB4CF1E0 EQ PUSH2 0x10A JUMPI POP PUSH4 0xDD62ED3E EQ PUSH2 0xBF JUMPI PUSH1 0x0 DUP1 REVERT JUMPDEST CALLVALUE PUSH2 0x106 JUMPI DUP1 PUSH1 0x3 NOT CALLDATASIZE ADD SLT PUSH2 0x106 JUMPI DUP1 PUSH1 0x20 SWAP3 PUSH2 0xDB PUSH2 0x6BD JUMP JUMPDEST PUSH2 0xE3 PUSH2 0x6D8 JUMP JUMPDEST PUSH1 0x1 PUSH1 0x1 PUSH1 0xA0 SHL SUB SWAP2 DUP3 AND DUP4 MSTORE PUSH1 0x6 DUP7 MSTORE DUP4 DUP4 KECCAK256 SWAP2 AND DUP3 MSTORE DUP5 MSTORE KECCAK256 SLOAD SWAP1 MLOAD SWAP1 DUP2 MSTORE RETURN JUMPDEST POP DUP1 REVERT JUMPDEST SWAP1 POP CALLVALUE PUSH2 0x1B5 JUMPI PUSH1 0x20 CALLDATASIZE PUSH1 0x3 NOT ADD SLT PUSH2 0x1B5 JUMPI PUSH2 0x125 PUSH2 0x6BD JUMP JUMPDEST DUP4 SLOAD PUSH1 0x1 PUSH1 0x1 PUSH1 0xA0 SHL SUB SWAP2 SWAP1 PUSH2 0x13E SWAP1 DUP4 AND CALLER EQ PUSH2 0x726 JUMP JUMPDEST AND SWAP1 DUP2 ISZERO PUSH2 0x15E JUMPI POP DUP3 MSTORE PUSH1 0x7 PUSH1 0x20 MSTORE DUP2 KECCAK256 DUP1 SLOAD PUSH1 0xFF NOT AND PUSH1 0x1 OR SWAP1 SSTORE DUP1 RETURN JUMPDEST PUSH1 0x84 SWAP1 PUSH1 0x20 DUP5 MLOAD SWAP2 PUSH3 0x461BCD PUSH1 0xE5 SHL DUP4 MSTORE DUP3 ADD MSTORE PUSH1 0x2B PUSH1 0x24 DUP3 ADD MSTORE PUSH32 0x45524332303A204578636C756465204D61782054782066726F6D20746865207A PUSH1 0x44 DUP3 ADD MSTORE PUSH11 0x65726F2061646472657373 PUSH1 0xA8 SHL PUSH1 0x64 DUP3 ADD MSTORE REVERT JUMPDEST DUP3 DUP1 REVERT JUMPDEST SWAP2 SWAP1 POP CALLVALUE PUSH2 0x1B5 JUMPI PUSH1 0x20 CALLDATASIZE PUSH1 0x3 NOT ADD SLT PUSH2 0x1B5 JUMPI DUP2 CALLDATALOAD SWAP2 PUSH2 0x1E4 PUSH1 0x1 DUP1 PUSH1 0xA0 SHL SUB DUP6 SLOAD AND CALLER EQ PUSH2 0x726 JUMP JUMPDEST PUSH1 0x5 DUP4 GT PUSH2 0x21C JUMPI SWAP2 PUSH1 0x20 SWAP2 DUP2 PUSH32 0xFF3DD5E80294197918C284BBFC3DADD97D0B40CE92106110946329088F80068A SWAP5 SSTORE MLOAD SWAP1 DUP2 MSTORE LOG1 DUP1 RETURN JUMPDEST PUSH1 0x20 PUSH1 0x84 SWAP3 MLOAD SWAP2 PUSH3 0x461BCD PUSH1 0xE5 SHL DUP4 MSTORE DUP3 ADD MSTORE PUSH1 0x21 PUSH1 0x24 DUP3 ADD MSTORE PUSH32 0x4D6178205472616E73616374696F6E2063616E6E6F7420657863656564203525 PUSH1 0x44 DUP3 ADD MSTORE PUSH1 0x17 PUSH1 0xF9 SHL PUSH1 0x64 DUP3 ADD MSTORE REVERT JUMPDEST POP POP CALLVALUE PUSH2 0x106 JUMPI DUP1 PUSH1 0x3 NOT CALLDATASIZE ADD SLT PUSH2 0x106 JUMPI PUSH1 0x20 SWAP1 PUSH2 0x292 PUSH2 0x288 PUSH2 0x6BD JUMP JUMPDEST PUSH1 0x24 CALLDATALOAD SWAP1 CALLER PUSH2 0x873 JUMP JUMPDEST MLOAD PUSH1 0x1 DUP2 MSTORE RETURN JUMPDEST SWAP2 SWAP1 POP CALLVALUE PUSH2 0x1B5 JUMPI DUP3 PUSH1 0x3 NOT CALLDATASIZE ADD SLT PUSH2 0x1B5 JUMPI DUP1 MLOAD SWAP2 DUP4 PUSH1 0x3 SLOAD SWAP1 PUSH1 0x1 SWAP1 DUP3 PUSH1 0x1 SHR SWAP3 PUSH1 0x1 DUP2 AND DUP1 ISZERO PUSH2 0x394 JUMPI JUMPDEST PUSH1 0x20 SWAP6 DUP7 DUP7 LT DUP3 EQ PUSH2 0x381 JUMPI POP DUP5 DUP9 MSTORE SWAP1 DUP2 ISZERO PUSH2 0x35F JUMPI POP PUSH1 0x1 EQ PUSH2 0x306 JUMPI JUMPDEST PUSH2 0x302 DUP7 DUP7 PUSH2 0x2F8 DUP3 DUP12 SUB DUP4 PUSH2 0x6EE JUMP JUMPDEST MLOAD SWAP2 DUP3 SWAP2 DUP3 PUSH2 0x674 JUMP JUMPDEST SUB SWAP1 RETURN JUMPDEST SWAP3 SWAP6 POP PUSH1 0x3 DUP4 MSTORE PUSH32 0xC2575A0E9E593C00F959F8C92F12DB2869C3395A3B0502D05E2516446F71F85B JUMPDEST DUP3 DUP5 LT PUSH2 0x34C JUMPI POP POP POP DUP3 PUSH2 0x302 SWAP5 PUSH2 0x2F8 SWAP3 DUP3 ADD ADD SWAP5 CODESIZE PUSH2 0x2E7 JUMP JUMPDEST DUP1 SLOAD DUP7 DUP6 ADD DUP9 ADD MSTORE SWAP3 DUP7 ADD SWAP3 DUP2 ADD PUSH2 0x32F JUMP JUMPDEST PUSH1 0xFF NOT AND DUP8 DUP7 ADD MSTORE POP POP POP ISZERO ISZERO PUSH1 0x5 SHL DUP4 ADD ADD SWAP3 POP PUSH2 0x2F8 DUP3 PUSH2 0x302 CODESIZE PUSH2 0x2E7 JUMP JUMPDEST PUSH4 0x4E487B71 PUSH1 0xE0 SHL DUP5 MSTORE PUSH1 0x22 SWAP1 MSTORE PUSH1 0x24 DUP4 REVERT JUMPDEST SWAP4 PUSH1 0x7F AND SWAP4 PUSH2 0x2C7 JUMP JUMPDEST POP POP CALLVALUE PUSH2 0x106 JUMPI DUP2 PUSH1 0x3 NOT CALLDATASIZE ADD SLT PUSH2 0x106 JUMPI SWAP1 SLOAD SWAP1 MLOAD PUSH1 0x1 PUSH1 0x1 PUSH1 0xA0 SHL SUB SWAP1 SWAP2 AND DUP2 MSTORE PUSH1 0x20 SWAP1 RETURN JUMPDEST SWAP1 POP CALLVALUE PUSH2 0x1B5 JUMPI DUP3 PUSH1 0x3 NOT CALLDATASIZE ADD SLT PUSH2 0x1B5 JUMPI PUSH1 0x20 SWAP3 POP SLOAD SWAP1 MLOAD SWAP1 DUP2 MSTORE RETURN JUMPDEST DUP4 CALLVALUE PUSH2 0x440 JUMPI DUP1 PUSH1 0x3 NOT CALLDATASIZE ADD SLT PUSH2 0x440 JUMPI DUP1 SLOAD DUP2 PUSH1 0x1 PUSH1 0x1 PUSH1 0xA0 SHL SUB DUP3 AND PUSH2 0x40D CALLER DUP3 EQ PUSH2 0x726 JUMP JUMPDEST PUSH32 0x8BE0079C531659141344CD1FD0A4F28419497F9722A3DAAFE3B4186F6B6457E0 DUP3 DUP1 LOG3 PUSH1 0x1 PUSH1 0x1 PUSH1 0xA0 SHL SUB NOT AND DUP2 SSTORE DUP1 RETURN JUMPDEST DUP1 REVERT JUMPDEST POP POP CALLVALUE PUSH2 0x106 JUMPI PUSH1 0x20 CALLDATASIZE PUSH1 0x3 NOT ADD SLT PUSH2 0x106 JUMPI PUSH1 0x20 SWAP2 DUP2 SWAP1 PUSH1 0x1 PUSH1 0x1 PUSH1 0xA0 SHL SUB PUSH2 0x46B PUSH2 0x6BD JUMP JUMPDEST AND DUP2 MSTORE PUSH1 0x5 DUP5 MSTORE KECCAK256 SLOAD SWAP1 MLOAD SWAP1 DUP2 MSTORE RETURN JUMPDEST POP POP CALLVALUE PUSH2 0x106 JUMPI DUP2 PUSH1 0x3 NOT CALLDATASIZE ADD SLT PUSH2 0x106 JUMPI PUSH1 0x20 SWAP1 MLOAD PUSH1 0x12 DUP2 MSTORE RETURN JUMPDEST DUP3 DUP5 CALLVALUE PUSH2 0x440 JUMPI PUSH1 0x60 CALLDATASIZE PUSH1 0x3 NOT ADD SLT PUSH2 0x440 JUMPI PUSH2 0x4B2 PUSH2 0x6BD JUMP JUMPDEST SWAP1 PUSH2 0x4BB PUSH2 0x6D8 JUMP JUMPDEST PUSH2 0x4C9 PUSH1 0x44 CALLDATALOAD DUP1 SWAP3 DUP6 PUSH2 0x873 JUMP JUMPDEST PUSH1 0x1 PUSH1 0x1 PUSH1 0xA0 SHL SUB DUP4 AND DUP3 MSTORE PUSH1 0x6 PUSH1 0x20 SWAP1 DUP2 MSTORE DUP5 DUP4 KECCAK256 CALLER DUP5 MSTORE SWAP1 MSTORE DUP4 DUP3 KECCAK256 SLOAD DUP5 MLOAD SWAP3 PUSH1 0x60 DUP5 ADD SWAP1 PUSH8 0xFFFFFFFFFFFFFFFF DUP3 GT DUP6 DUP4 LT OR PUSH2 0x559 JUMPI PUSH1 0x20 DUP8 PUSH2 0x292 DUP9 PUSH2 0x551 DUP10 DUP10 DUP10 DUP10 DUP8 MSTORE PUSH1 0x28 DUP4 MSTORE PUSH32 0x45524332303A207472616E7366657220616D6F756E7420657863656564732061 DUP9 DUP5 ADD MSTORE PUSH8 0x6C6C6F77616E6365 PUSH1 0xC0 SHL DUP8 DUP5 ADD MSTORE PUSH2 0xB4D JUMP JUMPDEST SWAP1 CALLER SWAP1 PUSH2 0x771 JUMP JUMPDEST PUSH4 0x4E487B71 PUSH1 0xE0 SHL DUP2 MSTORE PUSH1 0x41 DUP9 MSTORE PUSH1 0x24 SWAP1 REVERT JUMPDEST POP POP CALLVALUE PUSH2 0x106 JUMPI DUP2 PUSH1 0x3 NOT CALLDATASIZE ADD SLT PUSH2 0x106 JUMPI PUSH1 0x20 SWAP1 PUSH1 0x1 SLOAD SWAP1 MLOAD SWAP1 DUP2 MSTORE RETURN JUMPDEST POP POP CALLVALUE PUSH2 0x106 JUMPI DUP1 PUSH1 0x3 NOT CALLDATASIZE ADD SLT PUSH2 0x106 JUMPI PUSH1 0x20 SWAP1 PUSH2 0x292 PUSH2 0x5AB PUSH2 0x6BD JUMP JUMPDEST PUSH1 0x24 CALLDATALOAD SWAP1 CALLER PUSH2 0x771 JUMP JUMPDEST SWAP3 SWAP2 POP CALLVALUE PUSH2 0x670 JUMPI DUP4 PUSH1 0x3 NOT CALLDATASIZE ADD SLT PUSH2 0x670 JUMPI PUSH1 0x2 SLOAD PUSH1 0x1 DUP2 DUP2 SHR SWAP2 DUP7 SWAP1 DUP3 DUP2 AND DUP1 ISZERO PUSH2 0x666 JUMPI JUMPDEST PUSH1 0x20 SWAP6 DUP7 DUP7 LT DUP3 EQ PUSH2 0x381 JUMPI POP DUP5 DUP9 MSTORE SWAP1 DUP2 ISZERO PUSH2 0x35F JUMPI POP PUSH1 0x1 EQ PUSH2 0x60D JUMPI PUSH2 0x302 DUP7 DUP7 PUSH2 0x2F8 DUP3 DUP12 SUB DUP4 PUSH2 0x6EE JUMP JUMPDEST SWAP3 SWAP6 POP PUSH1 0x2 DUP4 MSTORE PUSH32 0x405787FA12A823E0F2B7631CC41B3BA8828B3321CA811111FA75CD3AA3BB5ACE JUMPDEST DUP3 DUP5 LT PUSH2 0x653 JUMPI POP POP POP DUP3 PUSH2 0x302 SWAP5 PUSH2 0x2F8 SWAP3 DUP3 ADD ADD SWAP5 CODESIZE PUSH2 0x2E7 JUMP JUMPDEST DUP1 SLOAD DUP7 DUP6 ADD DUP9 ADD MSTORE SWAP3 DUP7 ADD SWAP3 DUP2 ADD PUSH2 0x636 JUMP JUMPDEST SWAP4 PUSH1 0x7F AND SWAP4 PUSH2 0x5DD JUMP JUMPDEST DUP4 DUP1 REVERT JUMPDEST PUSH1 0x20 DUP1 DUP3 MSTORE DUP3 MLOAD DUP2 DUP4 ADD DUP2 SWAP1 MSTORE SWAP1 SWAP4 SWAP3 PUSH1 0x0 JUMPDEST DUP3 DUP2 LT PUSH2 0x6A9 JUMPI POP POP PUSH1 0x40 SWAP3 SWAP4 POP PUSH1 0x0 DUP4 DUP3 DUP5 ADD ADD MSTORE PUSH1 0x1F DUP1 NOT SWAP2 ADD AND ADD ADD SWAP1 JUMP JUMPDEST DUP2 DUP2 ADD DUP7 ADD MLOAD DUP5 DUP3 ADD PUSH1 0x40 ADD MSTORE DUP6 ADD PUSH2 0x687 JUMP JUMPDEST PUSH1 0x4 CALLDATALOAD SWAP1 PUSH1 0x1 PUSH1 0x1 PUSH1 0xA0 SHL SUB DUP3 AND DUP3 SUB PUSH2 0x6D3 JUMPI JUMP JUMPDEST PUSH1 0x0 DUP1 REVERT JUMPDEST PUSH1 0x24 CALLDATALOAD SWAP1 PUSH1 0x1 PUSH1 0x1 PUSH1 0xA0 SHL SUB DUP3 AND DUP3 SUB PUSH2 0x6D3 JUMPI JUMP JUMPDEST SWAP1 PUSH1 0x1F DUP1 NOT SWAP2 ADD AND DUP2 ADD SWAP1 DUP2 LT PUSH8 0xFFFFFFFFFFFFFFFF DUP3 GT OR PUSH2 0x710 JUMPI PUSH1 0x40 MSTORE JUMP JUMPDEST PUSH4 0x4E487B71 PUSH1 0xE0 SHL PUSH1 0x0 MSTORE PUSH1 0x41 PUSH1 0x4 MSTORE PUSH1 0x24 PUSH1 0x0 REVERT JUMPDEST ISZERO PUSH2 0x72D JUMPI JUMP JUMPDEST PUSH1 0x64 PUSH1 0x40 MLOAD PUSH3 0x461BCD PUSH1 0xE5 SHL DUP2 MSTORE PUSH1 0x20 PUSH1 0x4 DUP3 ADD MSTORE PUSH1 0x20 PUSH1 0x24 DUP3 ADD MSTORE PUSH32 0x4F776E61626C653A2063616C6C6572206973206E6F7420746865206F776E6572 PUSH1 0x44 DUP3 ADD MSTORE REVERT JUMPDEST PUSH1 0x1 PUSH1 0x1 PUSH1 0xA0 SHL SUB SWAP1 DUP2 AND SWAP2 DUP3 ISZERO PUSH2 0x822 JUMPI AND SWAP2 DUP3 ISZERO PUSH2 0x7D2 JUMPI PUSH1 0x20 PUSH32 0x8C5BE1E5EBEC7D5BD14F71427D1E84F3DD0314C0F7B2291E5B200AC8C7C3B925 SWAP2 DUP4 PUSH1 0x0 MSTORE PUSH1 0x6 DUP3 MSTORE PUSH1 0x40 PUSH1 0x0 KECCAK256 DUP6 PUSH1 0x0 MSTORE DUP3 MSTORE DUP1 PUSH1 0x40 PUSH1 0x0 KECCAK256 SSTORE PUSH1 0x40 MLOAD SWAP1 DUP2 MSTORE LOG3 JUMP JUMPDEST PUSH1 0x40 MLOAD PUSH3 0x461BCD PUSH1 0xE5 SHL DUP2 MSTORE PUSH1 0x20 PUSH1 0x4 DUP3 ADD MSTORE PUSH1 0x22 PUSH1 0x24 DUP3 ADD MSTORE PUSH32 0x45524332303A20617070726F766520746F20746865207A65726F206164647265 PUSH1 0x44 DUP3 ADD MSTORE PUSH2 0x7373 PUSH1 0xF0 SHL PUSH1 0x64 DUP3 ADD MSTORE PUSH1 0x84 SWAP1 REVERT JUMPDEST PUSH1 0x40 MLOAD PUSH3 0x461BCD PUSH1 0xE5 SHL DUP2 MSTORE PUSH1 0x20 PUSH1 0x4 DUP3 ADD MSTORE PUSH1 0x24 DUP1 DUP3 ADD MSTORE PUSH32 0x45524332303A20617070726F76652066726F6D20746865207A65726F20616464 PUSH1 0x44 DUP3 ADD MSTORE PUSH4 0x72657373 PUSH1 0xE0 SHL PUSH1 0x64 DUP3 ADD MSTORE PUSH1 0x84 SWAP1 REVERT JUMPDEST SWAP2 SWAP3 SWAP2 PUSH1 0x1 PUSH1 0x1 PUSH1 0xA0 SHL SUB SWAP1 DUP2 AND SWAP2 DUP3 ISZERO PUSH2 0xAFA JUMPI AND SWAP1 DUP2 ISZERO PUSH2 0xAA9 JUMPI DUP4 ISZERO PUSH2 0xA52 JUMPI PUSH1 0x4 DUP1 SLOAD SWAP5 PUSH1 0x1 SLOAD SWAP6 DUP7 DUP2 MUL SWAP7 DUP2 DUP9 DIV EQ SWAP1 ISZERO OR ISZERO PUSH2 0xA3D JUMPI PUSH1 0x0 SWAP6 DUP4 DUP8 MSTORE PUSH1 0x20 SWAP3 PUSH1 0x7 DUP5 MSTORE PUSH1 0x40 SWAP2 PUSH1 0xFF DUP4 DUP11 KECCAK256 SLOAD AND ISZERO PUSH2 0x9EC JUMPI JUMPDEST POP DUP5 DUP9 MSTORE PUSH1 0x5 DUP5 MSTORE DUP2 DUP9 KECCAK256 SLOAD DUP3 MLOAD SWAP1 DUP4 DUP3 ADD DUP3 DUP2 LT PUSH8 0xFFFFFFFFFFFFFFFF DUP3 GT OR PUSH2 0x9D9 JUMPI PUSH2 0x928 SWAP3 SWAP2 DUP7 SWAP2 DUP7 MSTORE PUSH1 0x1E DUP4 MSTORE PUSH32 0x536166654D6174683A207375627472616374696F6E206F766572666C6F770000 DUP9 DUP5 ADD MSTORE PUSH2 0xB4D JUMP JUMPDEST DUP6 DUP10 MSTORE PUSH1 0x5 DUP6 MSTORE DUP3 DUP10 KECCAK256 SSTORE DUP6 DUP9 MSTORE DUP2 DUP9 KECCAK256 SLOAD SWAP1 DUP4 DUP3 ADD SWAP2 DUP3 DUP2 GT PUSH2 0x9C6 JUMPI DUP3 LT PUSH2 0x983 JUMPI POP DUP2 DUP9 DUP8 PUSH32 0xDDF252AD1BE2C89B69C2B068FC378DAA952BA7F163C4A11628F55A4DF523B3EF SWAP8 SWAP9 SWAP10 SWAP11 MSTORE PUSH1 0x5 DUP7 MSTORE KECCAK256 SSTORE MLOAD SWAP1 DUP2 MSTORE LOG3 JUMP JUMPDEST DUP3 MLOAD PUSH3 0x461BCD PUSH1 0xE5 SHL DUP2 MSTORE SWAP1 DUP2 ADD DUP6 SWAP1 MSTORE PUSH1 0x1B PUSH1 0x24 DUP3 ADD MSTORE PUSH32 0x536166654D6174683A206164646974696F6E206F766572666C6F770000000000 PUSH1 0x44 DUP3 ADD MSTORE PUSH1 0x64 SWAP1 REVERT JUMPDEST PUSH4 0x4E487B71 PUSH1 0xE0 SHL DUP11 MSTORE PUSH1 0x11 DUP3 MSTORE PUSH1 0x24 DUP11 REVERT JUMPDEST PUSH4 0x4E487B71 PUSH1 0xE0 SHL DUP12 MSTORE PUSH1 0x41 DUP5 MSTORE PUSH1 0x24 DUP12 REVERT JUMPDEST PUSH1 0x64 SWAP1 DIV DUP4 GT PUSH2 0x9FC JUMPI CODESIZE PUSH2 0x8CC JUMP JUMPDEST DUP4 PUSH1 0x64 SWAP3 MLOAD SWAP2 PUSH3 0x461BCD PUSH1 0xE5 SHL DUP4 MSTORE DUP3 ADD MSTORE PUSH1 0x18 PUSH1 0x24 DUP3 ADD MSTORE PUSH32 0x4578636565647320746865204D61785478416D6F756E742E0000000000000000 PUSH1 0x44 DUP3 ADD MSTORE REVERT JUMPDEST PUSH1 0x11 DUP3 PUSH4 0x4E487B71 PUSH1 0xE0 SHL PUSH1 0x0 MSTORE MSTORE PUSH1 0x24 PUSH1 0x0 REVERT JUMPDEST PUSH1 0x40 MLOAD PUSH3 0x461BCD PUSH1 0xE5 SHL DUP2 MSTORE PUSH1 0x20 PUSH1 0x4 DUP3 ADD MSTORE PUSH1 0x29 PUSH1 0x24 DUP3 ADD MSTORE PUSH32 0x5472616E7366657220616D6F756E74206D757374206265206772656174657220 PUSH1 0x44 DUP3 ADD MSTORE PUSH9 0x7468616E207A65726F PUSH1 0xB8 SHL PUSH1 0x64 DUP3 ADD MSTORE PUSH1 0x84 SWAP1 REVERT JUMPDEST PUSH1 0x40 MLOAD PUSH3 0x461BCD PUSH1 0xE5 SHL DUP2 MSTORE PUSH1 0x20 PUSH1 0x4 DUP3 ADD MSTORE PUSH1 0x23 PUSH1 0x24 DUP3 ADD MSTORE PUSH32 0x45524332303A207472616E7366657220746F20746865207A65726F2061646472 PUSH1 0x44 DUP3 ADD MSTORE PUSH3 0x657373 PUSH1 0xE8 SHL PUSH1 0x64 DUP3 ADD MSTORE PUSH1 0x84 SWAP1 REVERT JUMPDEST PUSH1 0x40 MLOAD PUSH3 0x461BCD PUSH1 0xE5 SHL DUP2 MSTORE PUSH1 0x20 PUSH1 0x4 DUP3 ADD MSTORE PUSH1 0x25 PUSH1 0x24 DUP3 ADD MSTORE PUSH32 0x45524332303A207472616E736665722066726F6D20746865207A65726F206164 PUSH1 0x44 DUP3 ADD MSTORE PUSH5 0x6472657373 PUSH1 0xD8 SHL PUSH1 0x64 DUP3 ADD MSTORE PUSH1 0x84 SWAP1 REVERT JUMPDEST SWAP2 DUP3 DUP3 GT PUSH2 0xB78 JUMPI POP DUP2 SUB SWAP1 DUP2 GT PUSH2 0xB62 JUMPI SWAP1 JUMP JUMPDEST PUSH4 0x4E487B71 PUSH1 0xE0 SHL PUSH1 0x0 MSTORE PUSH1 0x11 PUSH1 0x4 MSTORE PUSH1 0x24 PUSH1 0x0 REVERT JUMPDEST PUSH1 0x40 MLOAD PUSH3 0x461BCD PUSH1 0xE5 SHL DUP2 MSTORE SWAP1 DUP2 SWAP1 PUSH2 0xB94 SWAP1 PUSH1 0x4 DUP4 ADD PUSH2 0x674 JUMP JUMPDEST SUB SWAP1 REVERT INVALID LOG2 PUSH5 0x6970667358 0x22 SLT KECCAK256 0xC4 SWAP15 SSTORE SELFBALANCE BLOCKHASH 0xCB PUSH18 0xAA09A85B3746B1A934ACBFB9371A9F5EEFD2 PUSH27 0x7B626EA785F264736F6C63430008180033A2646970667358221220 0xB3 MSTORE 0xB7 0xB0 0xB7 DIV DUP12 PREVRANDAO XOR JUMPDEST COINBASE SWAP13 0xC1 0xF DUP15 XOR 0xB6 CALLVALUE 0xB2 0xB3 0xEC GASLIMIT 0x1F TSTORE ADDMOD 0xC2 BASEFEE 0x21 GASPRICE 0xB2 PUSH12 0x8364736F6C63430008180033 "
        },
        "methodIdentifiers": {
          "approval(address,address,uint256)": "5c52a5f2",
          "deploy(address)": "4c96a389",
          "feeTo()": "017e7e58",
          "feeToSetter()": "094b7415",
          "getTokens()": "aa6ca808",
          "getUserTokens()": "8a664ebc",
          "launch(string,string,string,string,string[4],uint256,uint256)": "ad256f7d",
          "launchFee()": "cf3cf573",
          "liquidityFee()": "98118cb4",
          "marketCapLimit()": "80997e47",
          "profile(address)": "9dd9d0fd",
          "profiles(uint256)": "c36fe3d6",
          "setFeeTo(address)": "f46901ed",
          "swapETHForTokens(address,address,address)": "57f8d901",
          "swapTokensForETH(uint256,address,address,address)": "512b1e6e",
          "token(address)": "6d46a1db",
          "tokens(uint256)": "4f64b2be",
          "updateLaunchFee(uint256)": "7660f44a",
          "withdraw()": "3ccfd60b"
        }
      }
    }
  }
}