{
  "contracts/Factory.sol": {
    "Factory": {
      "abi": [
        {
          "inputs": [
            {
              "internalType": "address",
              "name": "fee_to",
              "type": "address"
            }
          ],
          "stateMutability": "nonpayable",
          "type": "constructor"
        },
        {
          "inputs": [],
          "name": "ReentrancyGuardReentrantCall",
          "type": "error"
        },
        {
          "anonymous": false,
          "inputs": [
            {
              "indexed": true,
              "internalType": "address",
              "name": "tokenA",
              "type": "address"
            },
            {
              "indexed": true,
              "internalType": "address",
              "name": "tokenB",
              "type": "address"
            },
            {
              "indexed": false,
              "internalType": "address",
              "name": "pair",
              "type": "address"
            },
            {
              "indexed": false,
              "internalType": "uint256",
              "name": "",
              "type": "uint256"
            }
          ],
          "name": "PairCreated",
          "type": "event"
        },
        {
          "inputs": [
            {
              "internalType": "uint256",
              "name": "n",
              "type": "uint256"
            }
          ],
          "name": "allPairs",
          "outputs": [
            {
              "internalType": "address",
              "name": "",
              "type": "address"
            }
          ],
          "stateMutability": "view",
          "type": "function"
        },
        {
          "inputs": [],
          "name": "allPairsLength",
          "outputs": [
            {
              "internalType": "uint256",
              "name": "",
              "type": "uint256"
            }
          ],
          "stateMutability": "view",
          "type": "function"
        },
        {
          "inputs": [
            {
              "internalType": "address",
              "name": "tokenA",
              "type": "address"
            },
            {
              "internalType": "address",
              "name": "tokenB",
              "type": "address"
            }
          ],
          "name": "createPair",
          "outputs": [
            {
              "internalType": "address",
              "name": "",
              "type": "address"
            }
          ],
          "stateMutability": "nonpayable",
          "type": "function"
        },
        {
          "inputs": [],
          "name": "feeTo",
          "outputs": [
            {
              "internalType": "address",
              "name": "",
              "type": "address"
            }
          ],
          "stateMutability": "view",
          "type": "function"
        },
        {
          "inputs": [],
          "name": "feeToSetter",
          "outputs": [
            {
              "internalType": "address",
              "name": "",
              "type": "address"
            }
          ],
          "stateMutability": "view",
          "type": "function"
        },
        {
          "inputs": [
            {
              "internalType": "address",
              "name": "tokenA",
              "type": "address"
            },
            {
              "internalType": "address",
              "name": "tokenB",
              "type": "address"
            }
          ],
          "name": "getPair",
          "outputs": [
            {
              "internalType": "address",
              "name": "",
              "type": "address"
            }
          ],
          "stateMutability": "view",
          "type": "function"
        },
        {
          "inputs": [
            {
              "internalType": "address",
              "name": "fee_to",
              "type": "address"
            }
          ],
          "name": "setFeeTo",
          "outputs": [],
          "stateMutability": "nonpayable",
          "type": "function"
        },
        {
          "inputs": [],
          "name": "txFee",
          "outputs": [
            {
              "internalType": "uint256",
              "name": "",
              "type": "uint256"
            }
          ],
          "stateMutability": "pure",
          "type": "function"
        }
      ],
      "evm": {
        "bytecode": {
          "linkReferences": {},
          "object": "6080346100cd57601f610f4638819003918201601f19168301916001600160401b038311848410176100d2578084926020946040528339810103126100cd57516001600160a01b038116908190036100cd576001600081905580546001600160a01b031990811633179091558115610088576002541617600255604051610e5d90816100e98239f35b60405162461bcd60e51b815260206004820152601f60248201527f5a65726f2061646472657373657320617265206e6f7420616c6c6f7765642e006044820152606490fd5b600080fd5b634e487b7160e01b600052604160045260246000fdfe6080604081815260048036101561001557600080fd5b600092833560e01c908163017e7e581461039057508063094b7415146103675780631e3dd18b1461032e578063574f2ba314610311578063c9c6539614610197578063cf8204611461017b578063e6a439051461012b5763f46901ed1461007b57600080fd5b34610127576020366003190112610127576100946103b5565b6001546001600160a01b039391929190841633036100d5575050166100ba811515610433565b6bffffffffffffffffffffffff60a01b600254161760025580f35b906020608492519162461bcd60e51b8352820152602660248201527f4f6e6c7920746865206f776e65722063616e2063616c6c20746869732066756e60448201526531ba34b7b71760d11b6064820152fd5b8280fd5b505034610177578060031936011261017757602091816101496103b5565b916101526103d0565b6001600160a01b03938416825260038652828220908416825285522054915191168152f35b5080fd5b5050346101775781600319360112610177576020905160058152f35b509190346101775780600319360112610177576101b26103b5565b906101bb6103d0565b92600281541461030157600281556001600160a01b039283169383906101e2861515610433565b166101ee811515610433565b8251946109a8958681019681881067ffffffffffffffff8911176102e4576104808239308752606081602098848a820152858882015203019084f080156102f7578516948184526003875284842083855287528484206bffffffffffffffffffffffff60a01b90878282541617905560038852858520838652885286868620918254161790558754680100000000000000008110156102e45794809697987f0d3648bd0f6ba80134a33ba9275ac585d9d315f0ad8355cddefde31afa28d0e9926102be886001809a0184556103e6565b819291549060031b918c831b921b1916179055548151908982528a820152a35551908152f35b634e487b7160e01b855260418952602485fd5b84513d85823e3d90fd5b8151633ee5aeb560e01b81528590fd5b503461012757826003193601126101275760209250549051908152f35b509134610364576020366003190112610364575061034e602092356103e6565b905491519160018060a01b039160031b1c168152f35b80fd5b50503461017757816003193601126101775760015490516001600160a01b039091168152602090f35b8490346101775781600319360112610177576002546001600160a01b03168152602090f35b600435906001600160a01b03821682036103cb57565b600080fd5b602435906001600160a01b03821682036103cb57565b60045481101561041d5760046000527f8a35acfbc15ff81a39ae7d344fd709f28e8600b4aa8c65c6b64bfe7fe36bd19b0190600090565b634e487b7160e01b600052603260045260246000fd5b1561043a57565b60405162461bcd60e51b815260206004820152601f60248201527f5a65726f2061646472657373657320617265206e6f7420616c6c6f7765642e006044820152606490fdfe6080346100cb57601f6109a838819003918201601f19168301916001600160401b038311848410176100d0578084926060946040528339810103126100cb57610047816100e6565b906100606040610059602084016100e6565b92016100e6565b6001600055916001600160a01b0390811691819061007f8415156100fa565b169261008c8415156100fa565b16916100998315156100fa565b60018060a01b031991826001541617600155816002541617600255600354161760035560405161086190816101478239f35b600080fd5b634e487b7160e01b600052604160045260246000fd5b51906001600160a01b03821682036100cb57565b1561010157565b60405162461bcd60e51b815260206004820152601f60248201527f5a65726f2061646472657373657320617265206e6f7420616c6c6f7765642e006044820152606490fdfe6080604081815260049182361015610022575b505050361561002057600080fd5b005b600090813560e01c9081630902f1ac146106c8575080630e06dfc9146106a45780630fc63d101461067b5780635673b02d146105b45780635b8bec551461058c5780635c52a5f21461049a5780635c9d69381461046f5780635f64b55b146104465780637464fc3d14610427578063749388c4146102f85780637b1a490914610226578063b69ef8a81461020b578063ba9a7a56146101e8578063c45a0155146101bb5763e7d3fe6b0361001257346101b8576100de36610711565b85546001600160a01b0319166001600160a01b0382161786559092670de0b6b3a7640000838102918415858404831417156101a5576020877f8334f87aeaf76e52b061d93ee968e51fdd3ad53ca04e80271249227997aab3a0888861019b898989875161014a8161078b565b858152868a82015281898201528260608201526080429101528460055585600655600755600855426009558551938493849192604091949360608401958452602084015260018060a01b0316910152565b0390a15160018152f35b634e487b7160e01b815260118852602490fd5b80fd5b5090346101e457816003193601126101e45760015490516001600160a01b039091168152602090f35b5080fd5b5090346101e457816003193601126101e45760209051670de0b6b3a76400008152f35b5090346101e457816003193601126101e45751478152602090f35b508290346101b857826003193601126101b857808080806001600160a01b0361024d6106f6565b166102598115156107df565b602435905af1903d156102f2573d9067ffffffffffffffff82116102df5784519161028e601f8201601f1916602001846107bd565b825260203d92013e5b156102a6576020825160018152f35b6020606492519162461bcd60e51b835282015260146024820152732a3930b739b332b91022aa24102330b4b632b21760611b6044820152fd5b634e487b7160e01b815260418452602490fd5b50610297565b508290346101b8575061030a36610711565b90926001600160a01b03808316906103238215156107df565b825416036103d4576020857f254cba6bcaacd15ef1bba85e06c1d71c8cf7a3e036ad089903ba04bad25aaccc868661019b876103618360055461077e565b61036d8560065461077e565b6103798660075461077e565b916008548951906103898261078b565b828252838c830152848b8301526060820152608042910152600555600655600755426009558551938493849192604091949360608401958452602084015260018060a01b0316910152565b608490602086519162461bcd60e51b8352820152602760248201527f4f6e6c79204c7020686f6c646572732063616e2063616c6c20746869732066756044820152663731ba34b7b71760c91b6064820152fd5b5090346101e457816003193601126101e4576020906008549051908152f35b5090346101e457816003193601126101e45760035490516001600160a01b039091168152602090f35b5090346101e457816003193601126101e4576020906104936006546005549061073b565b9051908152f35b509134610560576060366003190112610560576104b56106f6565b6001600160a01b0360243581811693929084900361058857600286541461057857602092916044916002885516916104ee8315156107df565b6104f98515156107df565b868651958694859363095ea7b360e01b8552840152833560248401525af1801561056c57610530575b506001602092555160018152f35b6020813d602011610564575b81610549602093836107bd565b810103126105605751801515036101e45738610522565b8280fd5b3d915061053c565b505051903d90823e3d90fd5b8451633ee5aeb560e01b81528390fd5b8580fd5b5091346105605782600319360112610560575490516001600160a01b03909116815260209150f35b50346101b85760803660031901126101b857507f298c349c742327269dc8de6ad66687767310c948ea309df826f5bd103e19d2076080602093356024356044356064359161060d816106088660055461075b565b61077e565b61061d846106088560065461075b565b61062d856106088660075461075b565b916008548a519061063d8261078b565b828252838d830152848c8301526060820152884291015260055560065560075542600955865193845287840152858301526060820152a15160018152f35b5090346101e457816003193601126101e45760025490516001600160a01b039091168152602090f35b5090346101e457816003193601126101e4576020906104936005546006549061073b565b9050823461056057826003193601126105605760609250600554906006546007549284526020840152820152f35b600435906001600160a01b038216820361070c57565b600080fd5b606090600319011261070c5760043590602435906044356001600160a01b038116810361070c5790565b8115610745570490565b634e487b7160e01b600052601260045260246000fd5b9190820180921161076857565b634e487b7160e01b600052601160045260246000fd5b9190820391821161076857565b60a0810190811067ffffffffffffffff8211176107a757604052565b634e487b7160e01b600052604160045260246000fd5b90601f8019910116810190811067ffffffffffffffff8211176107a757604052565b156107e657565b60405162461bcd60e51b815260206004820152601f60248201527f5a65726f2061646472657373657320617265206e6f7420616c6c6f7765642e006044820152606490fdfea26469706673582212201b4fc9dd19e72c3d48f24cfbd511aa4d0c3e4d28a93eb49eddbc72b1da58cfd764736f6c63430008180033a26469706673582212206659fc3c5ce59ed536176460a9913bd37fcf16f92851a003ba9d62d1d29c2f2464736f6c63430008180033",
          "opcodes": "PUSH1 0x80 CALLVALUE PUSH2 0xCD JUMPI PUSH1 0x1F PUSH2 0xF46 CODESIZE DUP2 SWAP1 SUB SWAP2 DUP3 ADD PUSH1 0x1F NOT AND DUP4 ADD SWAP2 PUSH1 0x1 PUSH1 0x1 PUSH1 0x40 SHL SUB DUP4 GT DUP5 DUP5 LT OR PUSH2 0xD2 JUMPI DUP1 DUP5 SWAP3 PUSH1 0x20 SWAP5 PUSH1 0x40 MSTORE DUP4 CODECOPY DUP2 ADD SUB SLT PUSH2 0xCD JUMPI MLOAD PUSH1 0x1 PUSH1 0x1 PUSH1 0xA0 SHL SUB DUP2 AND SWAP1 DUP2 SWAP1 SUB PUSH2 0xCD JUMPI PUSH1 0x1 PUSH1 0x0 DUP2 SWAP1 SSTORE DUP1 SLOAD PUSH1 0x1 PUSH1 0x1 PUSH1 0xA0 SHL SUB NOT SWAP1 DUP2 AND CALLER OR SWAP1 SWAP2 SSTORE DUP2 ISZERO PUSH2 0x88 JUMPI PUSH1 0x2 SLOAD AND OR PUSH1 0x2 SSTORE PUSH1 0x40 MLOAD PUSH2 0xE5D SWAP1 DUP2 PUSH2 0xE9 DUP3 CODECOPY RETURN JUMPDEST PUSH1 0x40 MLOAD PUSH3 0x461BCD PUSH1 0xE5 SHL DUP2 MSTORE PUSH1 0x20 PUSH1 0x4 DUP3 ADD MSTORE PUSH1 0x1F PUSH1 0x24 DUP3 ADD MSTORE PUSH32 0x5A65726F2061646472657373657320617265206E6F7420616C6C6F7765642E00 PUSH1 0x44 DUP3 ADD MSTORE PUSH1 0x64 SWAP1 REVERT JUMPDEST PUSH1 0x0 DUP1 REVERT JUMPDEST PUSH4 0x4E487B71 PUSH1 0xE0 SHL PUSH1 0x0 MSTORE PUSH1 0x41 PUSH1 0x4 MSTORE PUSH1 0x24 PUSH1 0x0 REVERT INVALID PUSH1 0x80 PUSH1 0x40 DUP2 DUP2 MSTORE PUSH1 0x4 DUP1 CALLDATASIZE LT ISZERO PUSH2 0x15 JUMPI PUSH1 0x0 DUP1 REVERT JUMPDEST PUSH1 0x0 SWAP3 DUP4 CALLDATALOAD PUSH1 0xE0 SHR SWAP1 DUP2 PUSH4 0x17E7E58 EQ PUSH2 0x390 JUMPI POP DUP1 PUSH4 0x94B7415 EQ PUSH2 0x367 JUMPI DUP1 PUSH4 0x1E3DD18B EQ PUSH2 0x32E JUMPI DUP1 PUSH4 0x574F2BA3 EQ PUSH2 0x311 JUMPI DUP1 PUSH4 0xC9C65396 EQ PUSH2 0x197 JUMPI DUP1 PUSH4 0xCF820461 EQ PUSH2 0x17B JUMPI DUP1 PUSH4 0xE6A43905 EQ PUSH2 0x12B JUMPI PUSH4 0xF46901ED EQ PUSH2 0x7B JUMPI PUSH1 0x0 DUP1 REVERT JUMPDEST CALLVALUE PUSH2 0x127 JUMPI PUSH1 0x20 CALLDATASIZE PUSH1 0x3 NOT ADD SLT PUSH2 0x127 JUMPI PUSH2 0x94 PUSH2 0x3B5 JUMP JUMPDEST PUSH1 0x1 SLOAD PUSH1 0x1 PUSH1 0x1 PUSH1 0xA0 SHL SUB SWAP4 SWAP2 SWAP3 SWAP2 SWAP1 DUP5 AND CALLER SUB PUSH2 0xD5 JUMPI POP POP AND PUSH2 0xBA DUP2 ISZERO ISZERO PUSH2 0x433 JUMP JUMPDEST PUSH12 0xFFFFFFFFFFFFFFFFFFFFFFFF PUSH1 0xA0 SHL PUSH1 0x2 SLOAD AND OR PUSH1 0x2 SSTORE DUP1 RETURN JUMPDEST SWAP1 PUSH1 0x20 PUSH1 0x84 SWAP3 MLOAD SWAP2 PUSH3 0x461BCD PUSH1 0xE5 SHL DUP4 MSTORE DUP3 ADD MSTORE PUSH1 0x26 PUSH1 0x24 DUP3 ADD MSTORE PUSH32 0x4F6E6C7920746865206F776E65722063616E2063616C6C20746869732066756E PUSH1 0x44 DUP3 ADD MSTORE PUSH6 0x31BA34B7B717 PUSH1 0xD1 SHL PUSH1 0x64 DUP3 ADD MSTORE REVERT JUMPDEST DUP3 DUP1 REVERT JUMPDEST POP POP CALLVALUE PUSH2 0x177 JUMPI DUP1 PUSH1 0x3 NOT CALLDATASIZE ADD SLT PUSH2 0x177 JUMPI PUSH1 0x20 SWAP2 DUP2 PUSH2 0x149 PUSH2 0x3B5 JUMP JUMPDEST SWAP2 PUSH2 0x152 PUSH2 0x3D0 JUMP JUMPDEST PUSH1 0x1 PUSH1 0x1 PUSH1 0xA0 SHL SUB SWAP4 DUP5 AND DUP3 MSTORE PUSH1 0x3 DUP7 MSTORE DUP3 DUP3 KECCAK256 SWAP1 DUP5 AND DUP3 MSTORE DUP6 MSTORE KECCAK256 SLOAD SWAP2 MLOAD SWAP2 AND DUP2 MSTORE RETURN JUMPDEST POP DUP1 REVERT JUMPDEST POP POP CALLVALUE PUSH2 0x177 JUMPI DUP2 PUSH1 0x3 NOT CALLDATASIZE ADD SLT PUSH2 0x177 JUMPI PUSH1 0x20 SWAP1 MLOAD PUSH1 0x5 DUP2 MSTORE RETURN JUMPDEST POP SWAP2 SWAP1 CALLVALUE PUSH2 0x177 JUMPI DUP1 PUSH1 0x3 NOT CALLDATASIZE ADD SLT PUSH2 0x177 JUMPI PUSH2 0x1B2 PUSH2 0x3B5 JUMP JUMPDEST SWAP1 PUSH2 0x1BB PUSH2 0x3D0 JUMP JUMPDEST SWAP3 PUSH1 0x2 DUP2 SLOAD EQ PUSH2 0x301 JUMPI PUSH1 0x2 DUP2 SSTORE PUSH1 0x1 PUSH1 0x1 PUSH1 0xA0 SHL SUB SWAP3 DUP4 AND SWAP4 DUP4 SWAP1 PUSH2 0x1E2 DUP7 ISZERO ISZERO PUSH2 0x433 JUMP JUMPDEST AND PUSH2 0x1EE DUP2 ISZERO ISZERO PUSH2 0x433 JUMP JUMPDEST DUP3 MLOAD SWAP5 PUSH2 0x9A8 SWAP6 DUP7 DUP2 ADD SWAP7 DUP2 DUP9 LT PUSH8 0xFFFFFFFFFFFFFFFF DUP10 GT OR PUSH2 0x2E4 JUMPI PUSH2 0x480 DUP3 CODECOPY ADDRESS DUP8 MSTORE PUSH1 0x60 DUP2 PUSH1 0x20 SWAP9 DUP5 DUP11 DUP3 ADD MSTORE DUP6 DUP9 DUP3 ADD MSTORE SUB ADD SWAP1 DUP5 CREATE DUP1 ISZERO PUSH2 0x2F7 JUMPI DUP6 AND SWAP5 DUP2 DUP5 MSTORE PUSH1 0x3 DUP8 MSTORE DUP5 DUP5 KECCAK256 DUP4 DUP6 MSTORE DUP8 MSTORE DUP5 DUP5 KECCAK256 PUSH12 0xFFFFFFFFFFFFFFFFFFFFFFFF PUSH1 0xA0 SHL SWAP1 DUP8 DUP3 DUP3 SLOAD AND OR SWAP1 SSTORE PUSH1 0x3 DUP9 MSTORE DUP6 DUP6 KECCAK256 DUP4 DUP7 MSTORE DUP9 MSTORE DUP7 DUP7 DUP7 KECCAK256 SWAP2 DUP3 SLOAD AND OR SWAP1 SSTORE DUP8 SLOAD PUSH9 0x10000000000000000 DUP2 LT ISZERO PUSH2 0x2E4 JUMPI SWAP5 DUP1 SWAP7 SWAP8 SWAP9 PUSH32 0xD3648BD0F6BA80134A33BA9275AC585D9D315F0AD8355CDDEFDE31AFA28D0E9 SWAP3 PUSH2 0x2BE DUP9 PUSH1 0x1 DUP1 SWAP11 ADD DUP5 SSTORE PUSH2 0x3E6 JUMP JUMPDEST DUP2 SWAP3 SWAP2 SLOAD SWAP1 PUSH1 0x3 SHL SWAP2 DUP13 DUP4 SHL SWAP3 SHL NOT AND OR SWAP1 SSTORE SLOAD DUP2 MLOAD SWAP1 DUP10 DUP3 MSTORE DUP11 DUP3 ADD MSTORE LOG3 SSTORE MLOAD SWAP1 DUP2 MSTORE RETURN JUMPDEST PUSH4 0x4E487B71 PUSH1 0xE0 SHL DUP6 MSTORE PUSH1 0x41 DUP10 MSTORE PUSH1 0x24 DUP6 REVERT JUMPDEST DUP5 MLOAD RETURNDATASIZE DUP6 DUP3 RETURNDATACOPY RETURNDATASIZE SWAP1 REVERT JUMPDEST DUP2 MLOAD PUSH4 0x3EE5AEB5 PUSH1 0xE0 SHL DUP2 MSTORE DUP6 SWAP1 REVERT JUMPDEST POP CALLVALUE PUSH2 0x127 JUMPI DUP3 PUSH1 0x3 NOT CALLDATASIZE ADD SLT PUSH2 0x127 JUMPI PUSH1 0x20 SWAP3 POP SLOAD SWAP1 MLOAD SWAP1 DUP2 MSTORE RETURN JUMPDEST POP SWAP2 CALLVALUE PUSH2 0x364 JUMPI PUSH1 0x20 CALLDATASIZE PUSH1 0x3 NOT ADD SLT PUSH2 0x364 JUMPI POP PUSH2 0x34E PUSH1 0x20 SWAP3 CALLDATALOAD PUSH2 0x3E6 JUMP JUMPDEST SWAP1 SLOAD SWAP2 MLOAD SWAP2 PUSH1 0x1 DUP1 PUSH1 0xA0 SHL SUB SWAP2 PUSH1 0x3 SHL SHR AND DUP2 MSTORE RETURN JUMPDEST DUP1 REVERT JUMPDEST POP POP CALLVALUE PUSH2 0x177 JUMPI DUP2 PUSH1 0x3 NOT CALLDATASIZE ADD SLT PUSH2 0x177 JUMPI PUSH1 0x1 SLOAD SWAP1 MLOAD PUSH1 0x1 PUSH1 0x1 PUSH1 0xA0 SHL SUB SWAP1 SWAP2 AND DUP2 MSTORE PUSH1 0x20 SWAP1 RETURN JUMPDEST DUP5 SWAP1 CALLVALUE PUSH2 0x177 JUMPI DUP2 PUSH1 0x3 NOT CALLDATASIZE ADD SLT PUSH2 0x177 JUMPI PUSH1 0x2 SLOAD PUSH1 0x1 PUSH1 0x1 PUSH1 0xA0 SHL SUB AND DUP2 MSTORE PUSH1 0x20 SWAP1 RETURN JUMPDEST PUSH1 0x4 CALLDATALOAD SWAP1 PUSH1 0x1 PUSH1 0x1 PUSH1 0xA0 SHL SUB DUP3 AND DUP3 SUB PUSH2 0x3CB JUMPI JUMP JUMPDEST PUSH1 0x0 DUP1 REVERT JUMPDEST PUSH1 0x24 CALLDATALOAD SWAP1 PUSH1 0x1 PUSH1 0x1 PUSH1 0xA0 SHL SUB DUP3 AND DUP3 SUB PUSH2 0x3CB JUMPI JUMP JUMPDEST PUSH1 0x4 SLOAD DUP2 LT ISZERO PUSH2 0x41D JUMPI PUSH1 0x4 PUSH1 0x0 MSTORE PUSH32 0x8A35ACFBC15FF81A39AE7D344FD709F28E8600B4AA8C65C6B64BFE7FE36BD19B ADD SWAP1 PUSH1 0x0 SWAP1 JUMP JUMPDEST PUSH4 0x4E487B71 PUSH1 0xE0 SHL PUSH1 0x0 MSTORE PUSH1 0x32 PUSH1 0x4 MSTORE PUSH1 0x24 PUSH1 0x0 REVERT JUMPDEST ISZERO PUSH2 0x43A JUMPI JUMP JUMPDEST PUSH1 0x40 MLOAD PUSH3 0x461BCD PUSH1 0xE5 SHL DUP2 MSTORE PUSH1 0x20 PUSH1 0x4 DUP3 ADD MSTORE PUSH1 0x1F PUSH1 0x24 DUP3 ADD MSTORE PUSH32 0x5A65726F2061646472657373657320617265206E6F7420616C6C6F7765642E00 PUSH1 0x44 DUP3 ADD MSTORE PUSH1 0x64 SWAP1 REVERT INVALID PUSH1 0x80 CALLVALUE PUSH2 0xCB JUMPI PUSH1 0x1F PUSH2 0x9A8 CODESIZE DUP2 SWAP1 SUB SWAP2 DUP3 ADD PUSH1 0x1F NOT AND DUP4 ADD SWAP2 PUSH1 0x1 PUSH1 0x1 PUSH1 0x40 SHL SUB DUP4 GT DUP5 DUP5 LT OR PUSH2 0xD0 JUMPI DUP1 DUP5 SWAP3 PUSH1 0x60 SWAP5 PUSH1 0x40 MSTORE DUP4 CODECOPY DUP2 ADD SUB SLT PUSH2 0xCB JUMPI PUSH2 0x47 DUP2 PUSH2 0xE6 JUMP JUMPDEST SWAP1 PUSH2 0x60 PUSH1 0x40 PUSH2 0x59 PUSH1 0x20 DUP5 ADD PUSH2 0xE6 JUMP JUMPDEST SWAP3 ADD PUSH2 0xE6 JUMP JUMPDEST PUSH1 0x1 PUSH1 0x0 SSTORE SWAP2 PUSH1 0x1 PUSH1 0x1 PUSH1 0xA0 SHL SUB SWAP1 DUP2 AND SWAP2 DUP2 SWAP1 PUSH2 0x7F DUP5 ISZERO ISZERO PUSH2 0xFA JUMP JUMPDEST AND SWAP3 PUSH2 0x8C DUP5 ISZERO ISZERO PUSH2 0xFA JUMP JUMPDEST AND SWAP2 PUSH2 0x99 DUP4 ISZERO ISZERO PUSH2 0xFA JUMP JUMPDEST PUSH1 0x1 DUP1 PUSH1 0xA0 SHL SUB NOT SWAP2 DUP3 PUSH1 0x1 SLOAD AND OR PUSH1 0x1 SSTORE DUP2 PUSH1 0x2 SLOAD AND OR PUSH1 0x2 SSTORE PUSH1 0x3 SLOAD AND OR PUSH1 0x3 SSTORE PUSH1 0x40 MLOAD PUSH2 0x861 SWAP1 DUP2 PUSH2 0x147 DUP3 CODECOPY RETURN JUMPDEST PUSH1 0x0 DUP1 REVERT JUMPDEST PUSH4 0x4E487B71 PUSH1 0xE0 SHL PUSH1 0x0 MSTORE PUSH1 0x41 PUSH1 0x4 MSTORE PUSH1 0x24 PUSH1 0x0 REVERT JUMPDEST MLOAD SWAP1 PUSH1 0x1 PUSH1 0x1 PUSH1 0xA0 SHL SUB DUP3 AND DUP3 SUB PUSH2 0xCB JUMPI JUMP JUMPDEST ISZERO PUSH2 0x101 JUMPI JUMP JUMPDEST PUSH1 0x40 MLOAD PUSH3 0x461BCD PUSH1 0xE5 SHL DUP2 MSTORE PUSH1 0x20 PUSH1 0x4 DUP3 ADD MSTORE PUSH1 0x1F PUSH1 0x24 DUP3 ADD MSTORE PUSH32 0x5A65726F2061646472657373657320617265206E6F7420616C6C6F7765642E00 PUSH1 0x44 DUP3 ADD MSTORE PUSH1 0x64 SWAP1 REVERT INVALID PUSH1 0x80 PUSH1 0x40 DUP2 DUP2 MSTORE PUSH1 0x4 SWAP2 DUP3 CALLDATASIZE LT ISZERO PUSH2 0x22 JUMPI JUMPDEST POP POP POP CALLDATASIZE ISZERO PUSH2 0x20 JUMPI PUSH1 0x0 DUP1 REVERT JUMPDEST STOP JUMPDEST PUSH1 0x0 SWAP1 DUP2 CALLDATALOAD PUSH1 0xE0 SHR SWAP1 DUP2 PUSH4 0x902F1AC EQ PUSH2 0x6C8 JUMPI POP DUP1 PUSH4 0xE06DFC9 EQ PUSH2 0x6A4 JUMPI DUP1 PUSH4 0xFC63D10 EQ PUSH2 0x67B JUMPI DUP1 PUSH4 0x5673B02D EQ PUSH2 0x5B4 JUMPI DUP1 PUSH4 0x5B8BEC55 EQ PUSH2 0x58C JUMPI DUP1 PUSH4 0x5C52A5F2 EQ PUSH2 0x49A JUMPI DUP1 PUSH4 0x5C9D6938 EQ PUSH2 0x46F JUMPI DUP1 PUSH4 0x5F64B55B EQ PUSH2 0x446 JUMPI DUP1 PUSH4 0x7464FC3D EQ PUSH2 0x427 JUMPI DUP1 PUSH4 0x749388C4 EQ PUSH2 0x2F8 JUMPI DUP1 PUSH4 0x7B1A4909 EQ PUSH2 0x226 JUMPI DUP1 PUSH4 0xB69EF8A8 EQ PUSH2 0x20B JUMPI DUP1 PUSH4 0xBA9A7A56 EQ PUSH2 0x1E8 JUMPI DUP1 PUSH4 0xC45A0155 EQ PUSH2 0x1BB JUMPI PUSH4 0xE7D3FE6B SUB PUSH2 0x12 JUMPI CALLVALUE PUSH2 0x1B8 JUMPI PUSH2 0xDE CALLDATASIZE PUSH2 0x711 JUMP JUMPDEST DUP6 SLOAD PUSH1 0x1 PUSH1 0x1 PUSH1 0xA0 SHL SUB NOT AND PUSH1 0x1 PUSH1 0x1 PUSH1 0xA0 SHL SUB DUP3 AND OR DUP7 SSTORE SWAP1 SWAP3 PUSH8 0xDE0B6B3A7640000 DUP4 DUP2 MUL SWAP2 DUP5 ISZERO DUP6 DUP5 DIV DUP4 EQ OR ISZERO PUSH2 0x1A5 JUMPI PUSH1 0x20 DUP8 PUSH32 0x8334F87AEAF76E52B061D93EE968E51FDD3AD53CA04E80271249227997AAB3A0 DUP9 DUP9 PUSH2 0x19B DUP10 DUP10 DUP10 DUP8 MLOAD PUSH2 0x14A DUP2 PUSH2 0x78B JUMP JUMPDEST DUP6 DUP2 MSTORE DUP7 DUP11 DUP3 ADD MSTORE DUP2 DUP10 DUP3 ADD MSTORE DUP3 PUSH1 0x60 DUP3 ADD MSTORE PUSH1 0x80 TIMESTAMP SWAP2 ADD MSTORE DUP5 PUSH1 0x5 SSTORE DUP6 PUSH1 0x6 SSTORE PUSH1 0x7 SSTORE PUSH1 0x8 SSTORE TIMESTAMP PUSH1 0x9 SSTORE DUP6 MLOAD SWAP4 DUP5 SWAP4 DUP5 SWAP2 SWAP3 PUSH1 0x40 SWAP2 SWAP5 SWAP4 PUSH1 0x60 DUP5 ADD SWAP6 DUP5 MSTORE PUSH1 0x20 DUP5 ADD MSTORE PUSH1 0x1 DUP1 PUSH1 0xA0 SHL SUB AND SWAP2 ADD MSTORE JUMP JUMPDEST SUB SWAP1 LOG1 MLOAD PUSH1 0x1 DUP2 MSTORE RETURN JUMPDEST PUSH4 0x4E487B71 PUSH1 0xE0 SHL DUP2 MSTORE PUSH1 0x11 DUP9 MSTORE PUSH1 0x24 SWAP1 REVERT JUMPDEST DUP1 REVERT JUMPDEST POP SWAP1 CALLVALUE PUSH2 0x1E4 JUMPI DUP2 PUSH1 0x3 NOT CALLDATASIZE ADD SLT PUSH2 0x1E4 JUMPI PUSH1 0x1 SLOAD SWAP1 MLOAD PUSH1 0x1 PUSH1 0x1 PUSH1 0xA0 SHL SUB SWAP1 SWAP2 AND DUP2 MSTORE PUSH1 0x20 SWAP1 RETURN JUMPDEST POP DUP1 REVERT JUMPDEST POP SWAP1 CALLVALUE PUSH2 0x1E4 JUMPI DUP2 PUSH1 0x3 NOT CALLDATASIZE ADD SLT PUSH2 0x1E4 JUMPI PUSH1 0x20 SWAP1 MLOAD PUSH8 0xDE0B6B3A7640000 DUP2 MSTORE RETURN JUMPDEST POP SWAP1 CALLVALUE PUSH2 0x1E4 JUMPI DUP2 PUSH1 0x3 NOT CALLDATASIZE ADD SLT PUSH2 0x1E4 JUMPI MLOAD SELFBALANCE DUP2 MSTORE PUSH1 0x20 SWAP1 RETURN JUMPDEST POP DUP3 SWAP1 CALLVALUE PUSH2 0x1B8 JUMPI DUP3 PUSH1 0x3 NOT CALLDATASIZE ADD SLT PUSH2 0x1B8 JUMPI DUP1 DUP1 DUP1 DUP1 PUSH1 0x1 PUSH1 0x1 PUSH1 0xA0 SHL SUB PUSH2 0x24D PUSH2 0x6F6 JUMP JUMPDEST AND PUSH2 0x259 DUP2 ISZERO ISZERO PUSH2 0x7DF JUMP JUMPDEST PUSH1 0x24 CALLDATALOAD SWAP1 GAS CALL SWAP1 RETURNDATASIZE ISZERO PUSH2 0x2F2 JUMPI RETURNDATASIZE SWAP1 PUSH8 0xFFFFFFFFFFFFFFFF DUP3 GT PUSH2 0x2DF JUMPI DUP5 MLOAD SWAP2 PUSH2 0x28E PUSH1 0x1F DUP3 ADD PUSH1 0x1F NOT AND PUSH1 0x20 ADD DUP5 PUSH2 0x7BD JUMP JUMPDEST DUP3 MSTORE PUSH1 0x20 RETURNDATASIZE SWAP3 ADD RETURNDATACOPY JUMPDEST ISZERO PUSH2 0x2A6 JUMPI PUSH1 0x20 DUP3 MLOAD PUSH1 0x1 DUP2 MSTORE RETURN JUMPDEST PUSH1 0x20 PUSH1 0x64 SWAP3 MLOAD SWAP2 PUSH3 0x461BCD PUSH1 0xE5 SHL DUP4 MSTORE DUP3 ADD MSTORE PUSH1 0x14 PUSH1 0x24 DUP3 ADD MSTORE PUSH20 0x2A3930B739B332B91022AA24102330B4B632B217 PUSH1 0x61 SHL PUSH1 0x44 DUP3 ADD MSTORE REVERT JUMPDEST PUSH4 0x4E487B71 PUSH1 0xE0 SHL DUP2 MSTORE PUSH1 0x41 DUP5 MSTORE PUSH1 0x24 SWAP1 REVERT JUMPDEST POP PUSH2 0x297 JUMP JUMPDEST POP DUP3 SWAP1 CALLVALUE PUSH2 0x1B8 JUMPI POP PUSH2 0x30A CALLDATASIZE PUSH2 0x711 JUMP JUMPDEST SWAP1 SWAP3 PUSH1 0x1 PUSH1 0x1 PUSH1 0xA0 SHL SUB DUP1 DUP4 AND SWAP1 PUSH2 0x323 DUP3 ISZERO ISZERO PUSH2 0x7DF JUMP JUMPDEST DUP3 SLOAD AND SUB PUSH2 0x3D4 JUMPI PUSH1 0x20 DUP6 PUSH32 0x254CBA6BCAACD15EF1BBA85E06C1D71C8CF7A3E036AD089903BA04BAD25AACCC DUP7 DUP7 PUSH2 0x19B DUP8 PUSH2 0x361 DUP4 PUSH1 0x5 SLOAD PUSH2 0x77E JUMP JUMPDEST PUSH2 0x36D DUP6 PUSH1 0x6 SLOAD PUSH2 0x77E JUMP JUMPDEST PUSH2 0x379 DUP7 PUSH1 0x7 SLOAD PUSH2 0x77E JUMP JUMPDEST SWAP2 PUSH1 0x8 SLOAD DUP10 MLOAD SWAP1 PUSH2 0x389 DUP3 PUSH2 0x78B JUMP JUMPDEST DUP3 DUP3 MSTORE DUP4 DUP13 DUP4 ADD MSTORE DUP5 DUP12 DUP4 ADD MSTORE PUSH1 0x60 DUP3 ADD MSTORE PUSH1 0x80 TIMESTAMP SWAP2 ADD MSTORE PUSH1 0x5 SSTORE PUSH1 0x6 SSTORE PUSH1 0x7 SSTORE TIMESTAMP PUSH1 0x9 SSTORE DUP6 MLOAD SWAP4 DUP5 SWAP4 DUP5 SWAP2 SWAP3 PUSH1 0x40 SWAP2 SWAP5 SWAP4 PUSH1 0x60 DUP5 ADD SWAP6 DUP5 MSTORE PUSH1 0x20 DUP5 ADD MSTORE PUSH1 0x1 DUP1 PUSH1 0xA0 SHL SUB AND SWAP2 ADD MSTORE JUMP JUMPDEST PUSH1 0x84 SWAP1 PUSH1 0x20 DUP7 MLOAD SWAP2 PUSH3 0x461BCD PUSH1 0xE5 SHL DUP4 MSTORE DUP3 ADD MSTORE PUSH1 0x27 PUSH1 0x24 DUP3 ADD MSTORE PUSH32 0x4F6E6C79204C7020686F6C646572732063616E2063616C6C2074686973206675 PUSH1 0x44 DUP3 ADD MSTORE PUSH7 0x3731BA34B7B717 PUSH1 0xC9 SHL PUSH1 0x64 DUP3 ADD MSTORE REVERT JUMPDEST POP SWAP1 CALLVALUE PUSH2 0x1E4 JUMPI DUP2 PUSH1 0x3 NOT CALLDATASIZE ADD SLT PUSH2 0x1E4 JUMPI PUSH1 0x20 SWAP1 PUSH1 0x8 SLOAD SWAP1 MLOAD SWAP1 DUP2 MSTORE RETURN JUMPDEST POP SWAP1 CALLVALUE PUSH2 0x1E4 JUMPI DUP2 PUSH1 0x3 NOT CALLDATASIZE ADD SLT PUSH2 0x1E4 JUMPI PUSH1 0x3 SLOAD SWAP1 MLOAD PUSH1 0x1 PUSH1 0x1 PUSH1 0xA0 SHL SUB SWAP1 SWAP2 AND DUP2 MSTORE PUSH1 0x20 SWAP1 RETURN JUMPDEST POP SWAP1 CALLVALUE PUSH2 0x1E4 JUMPI DUP2 PUSH1 0x3 NOT CALLDATASIZE ADD SLT PUSH2 0x1E4 JUMPI PUSH1 0x20 SWAP1 PUSH2 0x493 PUSH1 0x6 SLOAD PUSH1 0x5 SLOAD SWAP1 PUSH2 0x73B JUMP JUMPDEST SWAP1 MLOAD SWAP1 DUP2 MSTORE RETURN JUMPDEST POP SWAP2 CALLVALUE PUSH2 0x560 JUMPI PUSH1 0x60 CALLDATASIZE PUSH1 0x3 NOT ADD SLT PUSH2 0x560 JUMPI PUSH2 0x4B5 PUSH2 0x6F6 JUMP JUMPDEST PUSH1 0x1 PUSH1 0x1 PUSH1 0xA0 SHL SUB PUSH1 0x24 CALLDATALOAD DUP2 DUP2 AND SWAP4 SWAP3 SWAP1 DUP5 SWAP1 SUB PUSH2 0x588 JUMPI PUSH1 0x2 DUP7 SLOAD EQ PUSH2 0x578 JUMPI PUSH1 0x20 SWAP3 SWAP2 PUSH1 0x44 SWAP2 PUSH1 0x2 DUP9 SSTORE AND SWAP2 PUSH2 0x4EE DUP4 ISZERO ISZERO PUSH2 0x7DF JUMP JUMPDEST PUSH2 0x4F9 DUP6 ISZERO ISZERO PUSH2 0x7DF JUMP JUMPDEST DUP7 DUP7 MLOAD SWAP6 DUP7 SWAP5 DUP6 SWAP4 PUSH4 0x95EA7B3 PUSH1 0xE0 SHL DUP6 MSTORE DUP5 ADD MSTORE DUP4 CALLDATALOAD PUSH1 0x24 DUP5 ADD MSTORE GAS CALL DUP1 ISZERO PUSH2 0x56C JUMPI PUSH2 0x530 JUMPI JUMPDEST POP PUSH1 0x1 PUSH1 0x20 SWAP3 SSTORE MLOAD PUSH1 0x1 DUP2 MSTORE RETURN JUMPDEST PUSH1 0x20 DUP2 RETURNDATASIZE PUSH1 0x20 GT PUSH2 0x564 JUMPI JUMPDEST DUP2 PUSH2 0x549 PUSH1 0x20 SWAP4 DUP4 PUSH2 0x7BD JUMP JUMPDEST DUP2 ADD SUB SLT PUSH2 0x560 JUMPI MLOAD DUP1 ISZERO ISZERO SUB PUSH2 0x1E4 JUMPI CODESIZE PUSH2 0x522 JUMP JUMPDEST DUP3 DUP1 REVERT JUMPDEST RETURNDATASIZE SWAP2 POP PUSH2 0x53C JUMP JUMPDEST POP POP MLOAD SWAP1 RETURNDATASIZE SWAP1 DUP3 RETURNDATACOPY RETURNDATASIZE SWAP1 REVERT JUMPDEST DUP5 MLOAD PUSH4 0x3EE5AEB5 PUSH1 0xE0 SHL DUP2 MSTORE DUP4 SWAP1 REVERT JUMPDEST DUP6 DUP1 REVERT JUMPDEST POP SWAP2 CALLVALUE PUSH2 0x560 JUMPI DUP3 PUSH1 0x3 NOT CALLDATASIZE ADD SLT PUSH2 0x560 JUMPI SLOAD SWAP1 MLOAD PUSH1 0x1 PUSH1 0x1 PUSH1 0xA0 SHL SUB SWAP1 SWAP2 AND DUP2 MSTORE PUSH1 0x20 SWAP2 POP RETURN JUMPDEST POP CALLVALUE PUSH2 0x1B8 JUMPI PUSH1 0x80 CALLDATASIZE PUSH1 0x3 NOT ADD SLT PUSH2 0x1B8 JUMPI POP PUSH32 0x298C349C742327269DC8DE6AD66687767310C948EA309DF826F5BD103E19D207 PUSH1 0x80 PUSH1 0x20 SWAP4 CALLDATALOAD PUSH1 0x24 CALLDATALOAD PUSH1 0x44 CALLDATALOAD PUSH1 0x64 CALLDATALOAD SWAP2 PUSH2 0x60D DUP2 PUSH2 0x608 DUP7 PUSH1 0x5 SLOAD PUSH2 0x75B JUMP JUMPDEST PUSH2 0x77E JUMP JUMPDEST PUSH2 0x61D DUP5 PUSH2 0x608 DUP6 PUSH1 0x6 SLOAD PUSH2 0x75B JUMP JUMPDEST PUSH2 0x62D DUP6 PUSH2 0x608 DUP7 PUSH1 0x7 SLOAD PUSH2 0x75B JUMP JUMPDEST SWAP2 PUSH1 0x8 SLOAD DUP11 MLOAD SWAP1 PUSH2 0x63D DUP3 PUSH2 0x78B JUMP JUMPDEST DUP3 DUP3 MSTORE DUP4 DUP14 DUP4 ADD MSTORE DUP5 DUP13 DUP4 ADD MSTORE PUSH1 0x60 DUP3 ADD MSTORE DUP9 TIMESTAMP SWAP2 ADD MSTORE PUSH1 0x5 SSTORE PUSH1 0x6 SSTORE PUSH1 0x7 SSTORE TIMESTAMP PUSH1 0x9 SSTORE DUP7 MLOAD SWAP4 DUP5 MSTORE DUP8 DUP5 ADD MSTORE DUP6 DUP4 ADD MSTORE PUSH1 0x60 DUP3 ADD MSTORE LOG1 MLOAD PUSH1 0x1 DUP2 MSTORE RETURN JUMPDEST POP SWAP1 CALLVALUE PUSH2 0x1E4 JUMPI DUP2 PUSH1 0x3 NOT CALLDATASIZE ADD SLT PUSH2 0x1E4 JUMPI PUSH1 0x2 SLOAD SWAP1 MLOAD PUSH1 0x1 PUSH1 0x1 PUSH1 0xA0 SHL SUB SWAP1 SWAP2 AND DUP2 MSTORE PUSH1 0x20 SWAP1 RETURN JUMPDEST POP SWAP1 CALLVALUE PUSH2 0x1E4 JUMPI DUP2 PUSH1 0x3 NOT CALLDATASIZE ADD SLT PUSH2 0x1E4 JUMPI PUSH1 0x20 SWAP1 PUSH2 0x493 PUSH1 0x5 SLOAD PUSH1 0x6 SLOAD SWAP1 PUSH2 0x73B JUMP JUMPDEST SWAP1 POP DUP3 CALLVALUE PUSH2 0x560 JUMPI DUP3 PUSH1 0x3 NOT CALLDATASIZE ADD SLT PUSH2 0x560 JUMPI PUSH1 0x60 SWAP3 POP PUSH1 0x5 SLOAD SWAP1 PUSH1 0x6 SLOAD PUSH1 0x7 SLOAD SWAP3 DUP5 MSTORE PUSH1 0x20 DUP5 ADD MSTORE DUP3 ADD MSTORE RETURN JUMPDEST PUSH1 0x4 CALLDATALOAD SWAP1 PUSH1 0x1 PUSH1 0x1 PUSH1 0xA0 SHL SUB DUP3 AND DUP3 SUB PUSH2 0x70C JUMPI JUMP JUMPDEST PUSH1 0x0 DUP1 REVERT JUMPDEST PUSH1 0x60 SWAP1 PUSH1 0x3 NOT ADD SLT PUSH2 0x70C JUMPI PUSH1 0x4 CALLDATALOAD SWAP1 PUSH1 0x24 CALLDATALOAD SWAP1 PUSH1 0x44 CALLDATALOAD PUSH1 0x1 PUSH1 0x1 PUSH1 0xA0 SHL SUB DUP2 AND DUP2 SUB PUSH2 0x70C JUMPI SWAP1 JUMP JUMPDEST DUP2 ISZERO PUSH2 0x745 JUMPI DIV SWAP1 JUMP JUMPDEST PUSH4 0x4E487B71 PUSH1 0xE0 SHL PUSH1 0x0 MSTORE PUSH1 0x12 PUSH1 0x4 MSTORE PUSH1 0x24 PUSH1 0x0 REVERT JUMPDEST SWAP2 SWAP1 DUP3 ADD DUP1 SWAP3 GT PUSH2 0x768 JUMPI JUMP JUMPDEST PUSH4 0x4E487B71 PUSH1 0xE0 SHL PUSH1 0x0 MSTORE PUSH1 0x11 PUSH1 0x4 MSTORE PUSH1 0x24 PUSH1 0x0 REVERT JUMPDEST SWAP2 SWAP1 DUP3 SUB SWAP2 DUP3 GT PUSH2 0x768 JUMPI JUMP JUMPDEST PUSH1 0xA0 DUP2 ADD SWAP1 DUP2 LT PUSH8 0xFFFFFFFFFFFFFFFF DUP3 GT OR PUSH2 0x7A7 JUMPI PUSH1 0x40 MSTORE JUMP JUMPDEST PUSH4 0x4E487B71 PUSH1 0xE0 SHL PUSH1 0x0 MSTORE PUSH1 0x41 PUSH1 0x4 MSTORE PUSH1 0x24 PUSH1 0x0 REVERT JUMPDEST SWAP1 PUSH1 0x1F DUP1 NOT SWAP2 ADD AND DUP2 ADD SWAP1 DUP2 LT PUSH8 0xFFFFFFFFFFFFFFFF DUP3 GT OR PUSH2 0x7A7 JUMPI PUSH1 0x40 MSTORE JUMP JUMPDEST ISZERO PUSH2 0x7E6 JUMPI JUMP JUMPDEST PUSH1 0x40 MLOAD PUSH3 0x461BCD PUSH1 0xE5 SHL DUP2 MSTORE PUSH1 0x20 PUSH1 0x4 DUP3 ADD MSTORE PUSH1 0x1F PUSH1 0x24 DUP3 ADD MSTORE PUSH32 0x5A65726F2061646472657373657320617265206E6F7420616C6C6F7765642E00 PUSH1 0x44 DUP3 ADD MSTORE PUSH1 0x64 SWAP1 REVERT INVALID LOG2 PUSH5 0x6970667358 0x22 SLT KECCAK256 SHL 0x4F 0xC9 0xDD NOT 0xE7 0x2C RETURNDATASIZE BASEFEE CALLCODE 0x4C 0xFB 0xD5 GT 0xAA 0x4D 0xC RETURNDATACOPY 0x4D 0x28 0xA9 RETURNDATACOPY 0xB4 SWAP15 0xDD 0xBC PUSH19 0xB1DA58CFD764736F6C63430008180033A26469 PUSH17 0x6673582212206659FC3C5CE59ED5361764 PUSH1 0xA9 SWAP2 EXTCODESIZE 0xD3 PUSH32 0xCF16F92851A003BA9D62D1D29C2F2464736F6C63430008180033000000000000 "
        },
        "methodIdentifiers": {
          "allPairs(uint256)": "1e3dd18b",
          "allPairsLength()": "574f2ba3",
          "createPair(address,address)": "c9c65396",
          "feeTo()": "017e7e58",
          "feeToSetter()": "094b7415",
          "getPair(address,address)": "e6a43905",
          "setFeeTo(address)": "f46901ed",
          "txFee()": "cf820461"
        }
      }
    }
  }
}