{
  "contracts/PumpFun.sol": {
    "PumpFun": {
      "abi": [
        {
          "inputs": [
            {
              "internalType": "address",
              "name": "factory_",
              "type": "address"
            },
            {
              "internalType": "address",
              "name": "router_",
              "type": "address"
            },
            {
              "internalType": "address",
              "name": "fee_to",
              "type": "address"
            },
            {
              "internalType": "uint256",
              "name": "_fee",
              "type": "uint256"
            },
            {
              "internalType": "uint256",
              "name": "_refFee",
              "type": "uint256"
            },
            {
              "internalType": "uint256",
              "name": "min",
              "type": "uint256"
            }
          ],
          "stateMutability": "nonpayable",
          "type": "constructor"
        },
        {
          "inputs": [],
          "name": "ReentrancyGuardReentrantCall",
          "type": "error"
        },
        {
          "anonymous": false,
          "inputs": [
            {
              "indexed": true,
              "internalType": "address",
              "name": "token",
              "type": "address"
            },
            {
              "indexed": false,
              "internalType": "uint256",
              "name": "amount0",
              "type": "uint256"
            },
            {
              "indexed": false,
              "internalType": "uint256",
              "name": "amount1",
              "type": "uint256"
            }
          ],
          "name": "Deployed",
          "type": "event"
        },
        {
          "anonymous": false,
          "inputs": [
            {
              "indexed": true,
              "internalType": "address",
              "name": "token",
              "type": "address"
            },
            {
              "indexed": true,
              "internalType": "address",
              "name": "pair",
              "type": "address"
            },
            {
              "indexed": false,
              "internalType": "uint256",
              "name": "",
              "type": "uint256"
            }
          ],
          "name": "Launched",
          "type": "event"
        },
        {
          "inputs": [
            {
              "internalType": "address",
              "name": "_user",
              "type": "address"
            },
            {
              "internalType": "address",
              "name": "_token",
              "type": "address"
            },
            {
              "internalType": "uint256",
              "name": "amount",
              "type": "uint256"
            }
          ],
          "name": "approval",
          "outputs": [
            {
              "internalType": "bool",
              "name": "",
              "type": "bool"
            }
          ],
          "stateMutability": "nonpayable",
          "type": "function"
        },
        {
          "inputs": [
            {
              "internalType": "address",
              "name": "tk",
              "type": "address"
            }
          ],
          "name": "deploy",
          "outputs": [],
          "stateMutability": "nonpayable",
          "type": "function"
        },
        {
          "inputs": [],
          "name": "feeTo",
          "outputs": [
            {
              "internalType": "address",
              "name": "",
              "type": "address"
            }
          ],
          "stateMutability": "view",
          "type": "function"
        },
        {
          "inputs": [],
          "name": "feeToSetter",
          "outputs": [
            {
              "internalType": "address",
              "name": "",
              "type": "address"
            }
          ],
          "stateMutability": "view",
          "type": "function"
        },
        {
          "inputs": [
            {
              "internalType": "address",
              "name": "tk",
              "type": "address"
            }
          ],
          "name": "getTokenUrls",
          "outputs": [
            {
              "internalType": "string[4]",
              "name": "",
              "type": "string[4]"
            }
          ],
          "stateMutability": "view",
          "type": "function"
        },
        {
          "inputs": [
            {
              "internalType": "uint256",
              "name": "ethInUSD",
              "type": "uint256"
            }
          ],
          "name": "getTokens",
          "outputs": [
            {
              "components": [
                {
                  "internalType": "address",
                  "name": "creator",
                  "type": "address"
                },
                {
                  "internalType": "address",
                  "name": "token",
                  "type": "address"
                },
                {
                  "internalType": "address",
                  "name": "pair",
                  "type": "address"
                },
                {
                  "internalType": "string",
                  "name": "name",
                  "type": "string"
                },
                {
                  "internalType": "string",
                  "name": "ticker",
                  "type": "string"
                },
                {
                  "internalType": "uint256",
                  "name": "supply",
                  "type": "uint256"
                },
                {
                  "internalType": "uint256",
                  "name": "mCap",
                  "type": "uint256"
                },
                {
                  "internalType": "uint256",
                  "name": "liquidity",
                  "type": "uint256"
                },
                {
                  "internalType": "string",
                  "name": "description",
                  "type": "string"
                },
                {
                  "internalType": "string",
                  "name": "image",
                  "type": "string"
                },
                {
                  "internalType": "string[4]",
                  "name": "urls",
                  "type": "string[4]"
                },
                {
                  "internalType": "bool",
                  "name": "trading",
                  "type": "bool"
                },
                {
                  "internalType": "bool",
                  "name": "tradingOnUniswap",
                  "type": "bool"
                }
              ],
              "internalType": "struct PumpFun.Token[]",
              "name": "",
              "type": "tuple[]"
            }
          ],
          "stateMutability": "nonpayable",
          "type": "function"
        },
        {
          "inputs": [],
          "name": "getUserReferrals",
          "outputs": [
            {
              "internalType": "address[]",
              "name": "",
              "type": "address[]"
            }
          ],
          "stateMutability": "view",
          "type": "function"
        },
        {
          "inputs": [],
          "name": "getUserTokens",
          "outputs": [
            {
              "components": [
                {
                  "internalType": "address",
                  "name": "creator",
                  "type": "address"
                },
                {
                  "internalType": "address",
                  "name": "token",
                  "type": "address"
                },
                {
                  "internalType": "address",
                  "name": "pair",
                  "type": "address"
                },
                {
                  "internalType": "string",
                  "name": "name",
                  "type": "string"
                },
                {
                  "internalType": "string",
                  "name": "ticker",
                  "type": "string"
                },
                {
                  "internalType": "uint256",
                  "name": "supply",
                  "type": "uint256"
                },
                {
                  "internalType": "uint256",
                  "name": "mCap",
                  "type": "uint256"
                },
                {
                  "internalType": "uint256",
                  "name": "liquidity",
                  "type": "uint256"
                },
                {
                  "internalType": "string",
                  "name": "description",
                  "type": "string"
                },
                {
                  "internalType": "string",
                  "name": "image",
                  "type": "string"
                },
                {
                  "internalType": "string[4]",
                  "name": "urls",
                  "type": "string[4]"
                },
                {
                  "internalType": "bool",
                  "name": "trading",
                  "type": "bool"
                },
                {
                  "internalType": "bool",
                  "name": "tradingOnUniswap",
                  "type": "bool"
                }
              ],
              "internalType": "struct PumpFun.Token[]",
              "name": "",
              "type": "tuple[]"
            }
          ],
          "stateMutability": "view",
          "type": "function"
        },
        {
          "inputs": [
            {
              "internalType": "string",
              "name": "_name",
              "type": "string"
            },
            {
              "internalType": "string",
              "name": "_ticker",
              "type": "string"
            },
            {
              "internalType": "string",
              "name": "desc",
              "type": "string"
            },
            {
              "internalType": "string",
              "name": "img",
              "type": "string"
            },
            {
              "internalType": "string[4]",
              "name": "urls",
              "type": "string[4]"
            },
            {
              "internalType": "uint256",
              "name": "_supply",
              "type": "uint256"
            },
            {
              "internalType": "uint256",
              "name": "maxTx",
              "type": "uint256"
            },
            {
              "internalType": "address",
              "name": "ref",
              "type": "address"
            },
            {
              "internalType": "uint256",
              "name": "ethInUSD",
              "type": "uint256"
            }
          ],
          "name": "launch",
          "outputs": [
            {
              "internalType": "address",
              "name": "",
              "type": "address"
            },
            {
              "internalType": "address",
              "name": "",
              "type": "address"
            },
            {
              "internalType": "uint256",
              "name": "",
              "type": "uint256"
            }
          ],
          "stateMutability": "payable",
          "type": "function"
        },
        {
          "inputs": [],
          "name": "launchFee",
          "outputs": [
            {
              "internalType": "uint256",
              "name": "",
              "type": "uint256"
            }
          ],
          "stateMutability": "view",
          "type": "function"
        },
        {
          "inputs": [],
          "name": "liquidityFee",
          "outputs": [
            {
              "internalType": "uint256",
              "name": "",
              "type": "uint256"
            }
          ],
          "stateMutability": "pure",
          "type": "function"
        },
        {
          "inputs": [],
          "name": "marketCapLimit",
          "outputs": [
            {
              "internalType": "uint256",
              "name": "",
              "type": "uint256"
            }
          ],
          "stateMutability": "pure",
          "type": "function"
        },
        {
          "inputs": [
            {
              "internalType": "address",
              "name": "",
              "type": "address"
            }
          ],
          "name": "profile",
          "outputs": [
            {
              "internalType": "address",
              "name": "user",
              "type": "address"
            },
            {
              "internalType": "address",
              "name": "referree",
              "type": "address"
            }
          ],
          "stateMutability": "view",
          "type": "function"
        },
        {
          "inputs": [
            {
              "internalType": "uint256",
              "name": "",
              "type": "uint256"
            }
          ],
          "name": "profiles",
          "outputs": [
            {
              "internalType": "address",
              "name": "user",
              "type": "address"
            },
            {
              "internalType": "address",
              "name": "referree",
              "type": "address"
            }
          ],
          "stateMutability": "view",
          "type": "function"
        },
        {
          "inputs": [],
          "name": "referralFee",
          "outputs": [
            {
              "internalType": "uint256",
              "name": "",
              "type": "uint256"
            }
          ],
          "stateMutability": "view",
          "type": "function"
        },
        {
          "inputs": [
            {
              "internalType": "address",
              "name": "fee_to",
              "type": "address"
            }
          ],
          "name": "setFeeTo",
          "outputs": [],
          "stateMutability": "nonpayable",
          "type": "function"
        },
        {
          "inputs": [
            {
              "internalType": "address",
              "name": "",
              "type": "address"
            }
          ],
          "name": "token",
          "outputs": [
            {
              "internalType": "address",
              "name": "creator",
              "type": "address"
            },
            {
              "internalType": "address",
              "name": "token",
              "type": "address"
            },
            {
              "internalType": "address",
              "name": "pair",
              "type": "address"
            },
            {
              "internalType": "string",
              "name": "name",
              "type": "string"
            },
            {
              "internalType": "string",
              "name": "ticker",
              "type": "string"
            },
            {
              "internalType": "uint256",
              "name": "supply",
              "type": "uint256"
            },
            {
              "internalType": "uint256",
              "name": "mCap",
              "type": "uint256"
            },
            {
              "internalType": "uint256",
              "name": "liquidity",
              "type": "uint256"
            },
            {
              "internalType": "string",
              "name": "description",
              "type": "string"
            },
            {
              "internalType": "string",
              "name": "image",
              "type": "string"
            },
            {
              "internalType": "bool",
              "name": "trading",
              "type": "bool"
            },
            {
              "internalType": "bool",
              "name": "tradingOnUniswap",
              "type": "bool"
            }
          ],
          "stateMutability": "view",
          "type": "function"
        },
        {
          "inputs": [
            {
              "internalType": "uint256",
              "name": "",
              "type": "uint256"
            }
          ],
          "name": "tokens",
          "outputs": [
            {
              "internalType": "address",
              "name": "creator",
              "type": "address"
            },
            {
              "internalType": "address",
              "name": "token",
              "type": "address"
            },
            {
              "internalType": "address",
              "name": "pair",
              "type": "address"
            },
            {
              "internalType": "string",
              "name": "name",
              "type": "string"
            },
            {
              "internalType": "string",
              "name": "ticker",
              "type": "string"
            },
            {
              "internalType": "uint256",
              "name": "supply",
              "type": "uint256"
            },
            {
              "internalType": "uint256",
              "name": "mCap",
              "type": "uint256"
            },
            {
              "internalType": "uint256",
              "name": "liquidity",
              "type": "uint256"
            },
            {
              "internalType": "string",
              "name": "description",
              "type": "string"
            },
            {
              "internalType": "string",
              "name": "image",
              "type": "string"
            },
            {
              "internalType": "bool",
              "name": "trading",
              "type": "bool"
            },
            {
              "internalType": "bool",
              "name": "tradingOnUniswap",
              "type": "bool"
            }
          ],
          "stateMutability": "view",
          "type": "function"
        },
        {
          "inputs": [
            {
              "internalType": "uint256",
              "name": "_fee",
              "type": "uint256"
            }
          ],
          "name": "updateLaunchFee",
          "outputs": [
            {
              "internalType": "uint256",
              "name": "",
              "type": "uint256"
            }
          ],
          "stateMutability": "nonpayable",
          "type": "function"
        },
        {
          "inputs": [
            {
              "internalType": "uint256",
              "name": "_fee",
              "type": "uint256"
            }
          ],
          "name": "updateReferralFee",
          "outputs": [
            {
              "internalType": "uint256",
              "name": "",
              "type": "uint256"
            }
          ],
          "stateMutability": "nonpayable",
          "type": "function"
        },
        {
          "inputs": [],
          "name": "withdraw",
          "outputs": [
            {
              "internalType": "bool",
              "name": "",
              "type": "bool"
            }
          ],
          "stateMutability": "nonpayable",
          "type": "function"
        }
      ],
      "evm": {
        "bytecode": {
          "linkReferences": {},
          "object": "608034620001a057601f62003f2e38819003918201601f19168301916001600160401b03831184841017620001a55780849260c094604052833981010312620001a0576200004d81620001bb565b6200005b60208301620001bb565b6200006960408401620001bb565b9060608401519060a0608086015195015192600160005560018060a01b0319943386600154161760015560018060a01b038080921693620000ac851515620001d0565b1691620000bb831515620001d0565b1691620000ca831515620001d0565b856002541617600255846003541617600355836004541617600455670de0b6b3a7640000908181029181830414901517156200018a576103e89004600655600583116200014557734752ba5dbc23f44d87826276bf6fd6b1c372ad24926007556005556008541617600855604051613d1090816200021e8239f35b60405162461bcd60e51b815260206004820152601e60248201527f526566657272616c204665652063616e6e6f74206578636565642035252e00006044820152606490fd5b634e487b7160e01b600052601160045260246000fd5b600080fd5b634e487b7160e01b600052604160045260246000fd5b51906001600160a01b0382168203620001a057565b15620001d857565b60405162461bcd60e51b815260206004820152601f60248201527f5a65726f2061646472657373657320617265206e6f7420616c6c6f7765642e006044820152606490fdfe60808060405260043610156200001457600080fd5b600090813560e01c908163017e7e58146200198157508063094b741514620019565780633ccfd60b14620018d55780634c96a38914620012d15780634f64b2be14620012725780635c52a5f214620012145780636d46a1db146200115f5780637660f44a146200113a5780637c8f0323146200083157806380997e47146200080a57806384ae2bc614620007ea5780638a664ebc146200071557806398118cb414620006f75780639dd9d0fd146200068e578063c0f45e7014620005fd578063c36fe3d614620005aa578063cf3cf573146200058a578063d3c9cc2614620002aa578063e1ea9d7314620001a3578063f3f524b8146200017e5763f46901ed146200011e57600080fd5b346200017b5760203660031901126200017b576200013b620019a8565b6001546001600160a01b03919062000157908316331462001e8f565b166200016581151562001eeb565b6001600160601b0360a01b600454161760045580f35b80fd5b50346200017b5760203660031901126200017b57602060043580600755604051908152f35b50346200017b57806003193601126200017b57620001cb620001c533620029b1565b620026d6565b338152602060098152604082209160405190620001e88262001a6c565b60018060a01b0393848154168352600192856001830154168582015260028201916040519283878254918281520191865287862090865b8181106200029457505050600360609262000241866200024f94038762001a89565b604085019586520162002837565b9101525193604051938085019181865286518093528160408701970193905b8382106200027c5786880387f35b8451811688529682019693820193908501906200026e565b82548b168452928901929188019188016200021f565b50346200017b576020806003193601126200058657600435825b600c54811015620004da57620002da81620019bf565b506002908101546001600160a01b03929190831690620002fa83620019bf565b50846001809201541692604051958691630240bc6b60e21b835282600460609485935afa968715620004cf578a928b9862000494575b5050826200033e87620019bf565b500154168952600b88526040892092811590811562000369575b5050505050506001915001620002c4565b670de0b6b3a76400009384890480911b91818304149015171562000480579089620003998a600496959462001fb3565b96604051958680926318160ddd60e01b82525afa93841562000475578b946200043b575b506200042557620003df620003ef93620003e5938a9360019a04910462001fb3565b62001fb3565b6005549062001fd5565b60068181840155836007809401556200040885620019bf565b5001556200041683620019bf565b50015538808080808062000358565b634e487b7160e01b600052601260045260246000fd5b9093508981813d83116200046d575b62000456818362001a89565b810103126200046857519238620003bd565b600080fd5b503d6200044a565b6040513d8d823e3d90fd5b634e487b7160e01b8b52601160045260248bfd5b8091929850620004bd9350903d10620004c7575b620004b4818362001a89565b810190620028a6565b5095388062000330565b503d620004a8565b6040513d8c823e3d90fd5b82600c5467ffffffffffffffff811162000570576040519062000503838260051b018362001a89565b808252828201600c6000527fdf6966c971051c3d54ec59162606531493a51404a002842f56009d7e5cf4a8c7936000915b8383106200055057604051806200054c878262001ce7565b0390f35b600f82600192620005618962002723565b81520196019201919462000534565b634e487b7160e01b600052604160045260246000fd5b5080fd5b50346200017b57806003193601126200017b576020600654604051908152f35b50346200017b5760203660031901126200017b57600435600a548110156200058657620005d79062001e1f565b508054600190910154604080516001600160a01b03938416815292909116602083015290f35b50346200017b5760208060031936011262000586576200061c620019a8565b906040516200062b8162001a6c565b835b6080811062000680576200054c610140620006696040886001600160a01b0389166200065b81151562001eeb565b8152600b6020522062002723565b015160405191829160208352602083019062001ca5565b60608282015282016200062d565b50346200017b5760203660031901126200017b576001600160a01b039060409082620006b9620019a8565b1681526009602052209060018183541692015416906200054c6040519283928390602090939293604083019460018060a01b03809216845216910152565b50346200017b57806003193601126200017b57602060405160058152f35b50346200017b57806003193601126200017b5762000737620001c533620029b1565b33815260206009602052604082209060405192620007558462001a6c565b60018060a01b0390818454168552600182600186015416602087015260028501926040519081956020865493848152019585526020852094915b838310620007d2576200054c60608b620007c060038d8d620007b4818f038262001a89565b60408501520162002837565b91829101526040519182918262001ce7565b8554811687529581019594840194918401916200078f565b50346200017b57806003193601126200017b576020600754604051908152f35b50346200017b57806003193601126200017b57602060405169152d02c7e14af68000008152f35b506101203660031901126200017b5767ffffffffffffffff60043581811162000d5e576200086490369060040162001c58565b9060243581811162000dee576200088090369060040162001c58565b9260443582811162000586576200089c90369060040162001c58565b9360643583811162000d5e57620008b890369060040162001c58565b9260843581811162000dee573660238201121562000dee5760405190620008df8262001a6c565b6084810182368211620010325782600401905b8282106200110a57505060e435939150506001600160a01b038316830362000468576200091e620028c2565b6006543410620010c557604051906110ab908282810110908284011117620010b15780829162002c30833960808183015262000977620009646080838501018b62001b5d565b8284018103602084860101528762001b5d565b9060a43560408285010152606060c4359184010152039085f0948515620010a6576003546040516315ab88c960e31b815298906020908a9060049082906001600160a01b03165afa9889156200109b578697989960209162000a17989162001079575b506002546040516364e329cb60e11b81526001600160a01b038c8116600483015292831660248201529889929091169082908b9082906044820190565b03925af19586156200106e57879662001036575b5060035460405163313ce56760e01b81526001600160a01b0391821691602090829060049082908e165afa90811562000fdd5762000a7c62000a97939262000a85928c9162000fe8575b5062001f8b565b60a43562001fb3565b906001600160a01b038b169062002900565b15620010325760053481020434036200101e5762000abc606434600502043462001fc7565b60035460405163313ce56760e01b81529196916001600160a01b0391821691602090829060049082908f165afa908115620004cf579162000b1062000a7c60409362000b42958e9162000fe8575062001f8b565b8251630e505aa960e31b81526001600160a01b038e166004820152602481019190915292839190829081906044820190565b039160643460050204905af1801562000fdd5762000fa8575b50670de0b6b3a76400006064346005020404600181901b8190046002149015171562000f945762000ba361010435670de0b6b3a7640000606434600502040460011b62001fb3565b9062000bc7620003e561010435670de0b6b3a7640000606434600502040462001fb3565b906040519b62000bd78d62001a4e565b338d528c60208d60018060a01b03169101528c604060018060a01b038c1691015260608d015260808c015260a43560a08c015260c08b015260e08a015261010089015261012088015261014087015260016101608701528361018087015260018060a01b0385168452600b60205262000c5486604086206200204b565b600c54600160401b9081811015620005705780600162000c789201600c55620019bf565b62000f7e578762000c89916200204b565b62000c9433620029b1565b1562000df25750503383526009602052604083206001810180549192918591906001600160a01b03168062000d625750508080809360018060a01b03600454165af162000ce062001e5a565b501562000d5e57606094600362000cf9925b016200265b565b600c5460405181815290926001916001600160a01b0384811691908716907f714aa39317ad9a7a7a99db52b44490da5d068a0b2710fffb1a1282ad3cadae1f90602090a355604080516001600160a01b03948516815291909316602082015291820152f35b8280fd5b828092948192825262000d7c336002604085200162002692565b62000d99606462000d908360075462001fb3565b04809262001fc7565b95546001600160a01b03165af162000db062001e5a565b501562000dee5760045484918291829182916001600160a01b03165af162000dd762001e5a565b501562000d5e57606094600362000cf99262000cf2565b8380fd5b62000dff33151562001eeb565b6040519162000e0e8362001a6c565b33835260018060a01b0316602083015260606040830152606080830152338552600960205262000e42826040872062002a09565b600a549081101562000f6a5780600162000e609201600a5562001e1f565b62000f56579062000e719162002a09565b3383526009602052604083206001810180549192918591906001600160a01b03168062000ed35750508080809360018060a01b03600454165af162000eb562001e5a565b501562000d5e57606094600362000ecd92016200265b565b62000cf9565b828092948192825262000eed336002604085200162002692565b62000f01606462000d908360075462001fb3565b95546001600160a01b03165af162000f1862001e5a565b501562000dee5760045484918291829182916001600160a01b03165af162000f3f62001e5a565b501562000d5e57606094600362000ecd9262000cf2565b634e487b7160e01b85526004859052602485fd5b634e487b7160e01b85526041600452602485fd5b634e487b7160e01b600052600060045260246000fd5b634e487b7160e01b88526011600452602488fd5b62000fce9060403d60401162000fd5575b62000fc5818362001a89565b81019062001f59565b5062000b5b565b503d62000fb9565b6040513d8b823e3d90fd5b6200100f915060203d60201162001016575b62001006818362001a89565b81019062001f70565b3862000a75565b503d62000ffa565b634e487b7160e01b87526011600452602487fd5b8680fd5b6200105e91965060203d60201162001066575b62001055818362001a89565b81019062001f38565b943862000a2b565b503d62001049565b6040513d89823e3d90fd5b620010949150823d8411620010665762001055818362001a89565b38620009da565b6040513d88823e3d90fd5b6040513d86823e3d90fd5b634e487b7160e01b86526041600452602486fd5b60405162461bcd60e51b815260206004820152601960248201527f496e73756666696369656e7420616d6f756e742073656e742e000000000000006044820152606490fd5b813586811162001136576020916200112a83926004369189010162001c58565b815201910190620008f2565b8880fd5b50346200017b5760203660031901126200017b57602060043580600655604051908152f35b50346200017b5760203660031901126200017b576001600160a01b0390604090826200118a620019a8565b168152600b60205220906200054c8183541692826001820154169260028201541693620011ba6003830162001aac565b91620011c96004820162001aac565b60058201546006830154600784015491620011e76008860162001aac565b93600e620011f86009880162001aac565b960154976040519b8c9b60ff808c60081c169b16998d62001b9f565b50346200017b5760603660031901126200017b5762001232620019a8565b60243591906001600160a01b03831683036200046857620012666001916020946200125c620028c2565b6044359162002900565b91556040519015158152f35b50346200017b5760203660031901126200017b57600435600c5481101562000586576200129f90620019bf565b508054600182015460028301546001600160a01b0390811693918116926200054c929116620011ba6003830162001aac565b50346200017b576020806003193601126200058657620012f0620019a8565b6001546001600160a01b0391906200130c908316331462001e8f565b62001316620028c2565b8181169283151590620013298262001eeb565b8360035416936040519082826004816315ab88c960e31b998a82525afa918215620018a857620013989284918a91620018b3575b5060025460405163e6a4390560e01b81526001600160a01b03808a166004830152909216602483015290938491841690829081906044820190565b03915afa918215620018a857889262001884575b50863b1562001880576040516306da678f60e51b8152918116600483015260249188818481838c5af1801562000fdd5762001849575b509087939291878552600b835260408520966040826003541660648b8351998a93849263e79a408960e01b8452600484015283898401523060448401525af1948515620004cf578a968b966200181a575b506200143f9062001eeb565b888a52600b8452600e60408b20015460ff811690816200180a575b5015620017c65788908260085416604051908c878388816370a0823160e01b988982523060048301525afa918215620017b9578b91926200177f575b620014a2935062002900565b156200174b579082918b9493600854169060405163c45a015560e01b81528781600481865afa9182156200106e578891889362001727575b5060046040518095819382525afa9081156200109b57620015389a8893889362001703575b506040516364e329cb60e11b81526001600160a01b0391821660048201529216602483015290998a919082908890879083906044820190565b0393165af1978815620010a6578498620016df575b5060085460405191825230600483015282169047868286818f5afa9283156200109b578c9287946200169f575b509160c49160609493604051988995869463f305d71960e01b865260048601528985015280604485015260648401523060848401524260a48401525af1908115620004cf5784936044926200167b575b508a816008541691604051998a95869463095ea7b360e01b8652600486015260001990850152165af180156200106e577f540bcec33387745b2ced30977dcfe4a623a245511eb0a133989c27c8bb95b4a995604095600e9262001647575b5001805461ffff19166101001790558351928352820152a26001815580f35b6200166b90843d861162001673575b62001662818362001a89565b810190620028e6565b503862001628565b503d62001656565b620016979060603d606011620004c757620004b4818362001a89565b5050620015ca565b9350915094508582813d8311620016d7575b620016bd818362001a89565b81010312620004685790518b9490918b919060c46200157a565b503d620016b1565b620016fb919850853d8711620010665762001055818362001a89565b96386200154d565b6200171f919350843d8611620010665762001055818362001a89565b9138620014ff565b62001743919350823d8411620010665762001055818362001a89565b9138620014da565b60405162461bcd60e51b815260048101869052600d818601526c2737ba1030b8383937bb32b21760991b6044820152606490fd5b9150508682813d8311620017b1575b6200179a818362001a89565b81010312620004685789620014a292519162001496565b503d6200178e565b50604051903d90823e3d90fd5b60405162461bcd60e51b8152600481018590526017818501527f74726164696e6720697320616c7265616479206f70656e0000000000000000006044820152606490fd5b60ff915060081c1615386200145a565b6200143f97506200183e91965060403d60401162000fd55762000fc5818362001a89565b969096959062001433565b67ffffffffffffffff81999295949399116200186d576040529690919238620013e2565b634e487b7160e01b825260416004528882fd5b8780fd5b620018a0919250833d8511620010665762001055818362001a89565b9038620013ac565b6040513d8a823e3d90fd5b620018ce9150823d8411620010665762001055818362001a89565b386200135d565b50346200017b57806003193601126200017b5760015481908190819047906001600160a01b03165af16200190862001e5a565b50156200191a57602060405160018152f35b60405162461bcd60e51b81526020600482015260146024820152732a3930b739b332b91022aa24102330b4b632b21760611b6044820152606490fd5b50346200017b57806003193601126200017b576001546040516001600160a01b039091168152602090f35b90503462000586578160031936011262000586576004546001600160a01b03168152602090f35b600435906001600160a01b03821682036200046857565b600c54811015620019fb57600f90600c600052027fdf6966c971051c3d54ec59162606531493a51404a002842f56009d7e5cf4a8c70190600090565b634e487b7160e01b600052603260045260246000fd5b90600182811c9216801562001a43575b602083101462001a2d57565b634e487b7160e01b600052602260045260246000fd5b91607f169162001a21565b6101a0810190811067ffffffffffffffff8211176200057057604052565b6080810190811067ffffffffffffffff8211176200057057604052565b90601f8019910116810190811067ffffffffffffffff8211176200057057604052565b9060405191826000825462001ac18162001a11565b9081845260209460019160018116908160001462001b39575060011462001af6575b50505062001af49250038362001a89565b565b600090815285812095935091905b81831062001b2057505062001af4935082010138808062001ae3565b8554888401850152948501948794509183019162001b04565b9250505062001af494925060ff191682840152151560051b82010138808062001ae3565b919082519283825260005b84811062001b8a575050826000602080949584010152601f8019910116010190565b60208183018101518483018201520162001b68565b9a9c9b98939462001bed62001c1b979662001bfc938e6101609e9b9662001c2b9d986101809360018060a01b0392838092168552166020840152166040820152816060820152019062001b5d565b8c810360808e01529062001b5d565b9360a08b015260c08a015260e089015287820361010089015262001b5d565b9085820361012087015262001b5d565b9415156101408401521515910152565b67ffffffffffffffff81116200057057601f01601f191660200190565b81601f82011215620004685780359062001c728262001c3b565b9262001c82604051948562001a89565b828452602083830101116200046857816000926020809301838601378301015290565b60808201918060005b6004811062001cbe575050505090565b9091929362001cd68185600193038552865162001b5d565b946020908101949301910162001cae565b6020808201908083528351809252604092604081018260408560051b8401019601946000925b85841062001d1f575050505050505090565b909192939495968580600192603f198582030187528a519062001df362001dde62001dc962001d9662001d826101a08a8060a01b03808951168852808a8a0151168a8901528d890151168d88015260609080828a01519289015287019062001b5d565b608080880151908783039088015262001b5d565b60a0808701519086015260c0808701519086015260e0808701519086015261010080870151908683039087015262001b5d565b61012080860151908583039086015262001b5d565b61014080850151908483039085015262001ca5565b916101608082015115159083015261018080910151151591015299019401940192959493919062001d0d565b600a54811015620019fb57600a60005260021b7fc65a7bb8d6351c1cf70c95a316cc6a92839c986682d98bc35f958f4883f9d2a80190600090565b3d1562001e8a573d9062001e6e8262001c3b565b9162001e7e604051938462001a89565b82523d6000602084013e565b606090565b1562001e9757565b60405162461bcd60e51b815260206004820152602660248201527f4f6e6c7920746865206f776e65722063616e2063616c6c20746869732066756e60448201526531ba34b7b71760d11b6064820152608490fd5b1562001ef357565b60405162461bcd60e51b815260206004820152601f60248201527f5a65726f2061646472657373657320617265206e6f7420616c6c6f7765642e006044820152606490fd5b908160209103126200046857516001600160a01b0381168103620004685790565b919082604091031262000468576020825192015190565b9081602091031262000468575160ff81168103620004685790565b60ff16604d811162001f9d57600a0a90565b634e487b7160e01b600052601160045260246000fd5b8181029291811591840414171562001f9d57565b9190820391821162001f9d57565b9190820180921162001f9d57565b81811062001fef575050565b6000815560010162001fe3565b62002008815462001a11565b908162002013575050565b81601f6000931160011462002026575055565b90808391825262002047601f60208420940160051c84016001850162001fe3565b5555565b60018060a01b0380835116906001600160601b0360a01b918284541617835560019081840192602093828588015116828254161790556002850191604087015116908254161790556003918284019260608601519182519467ffffffffffffffff958681116200057057620020c1825462001a11565b94601f9586811162002629575b508390868311600114620025c35762002101929160009183620022fe575b50508160011b916000199060031b1c19161790565b90555b60048087016080890151805190888211620025ae5762002125835462001a11565b87811162002571575b5084908783116001146200250b5762002160929160009183620022fe5750508160011b916000199060031b1c19161790565b90555b60059360a08901518589015560c0890151600689015560e08901516007890155600888016101008a0151805190898211620023bc57620021a4835462001a11565b848111620024db575b5085908483116001146200247557620021df929160009183620022fe5750508160011b916000199060031b1c19161790565b90555b600988016101208a0151805190898211620023bc5762002203835462001a11565b8481116200243a575b508590848311600114620023d1576200223e929160009183620022fe5750508160011b916000199060031b1c19161790565b90559290925b61014089015193600a8901926000955b828710620022945750505050505050505050600e019061016081015115159060ff61ff006101808554930151151560081b1692169061ffff191617179055565b80519081518b8111620023bc578a918891620022b1895462001a11565b8881116200237f575b5082948882116001146200230a5790808596620022ee93600092620022fe5750508160011b916000199060031b1c19161790565b88555b0195019601959362002254565b015190503880620020ec565b94601f198216908a600052846000209160005b8181106200235c575090869784889594931062002343575b505050811b018855620022f1565b0151600019838a1b60f8161c1916905538808062002335565b9497939686929691938786015181550195019301928b94918f969397946200231d565b620023ab908a6000528d85600020908b808601821c830193888710620023b2575b01901c019062001fe3565b38620022ba565b93508293620023a0565b604185634e487b7160e01b6000525260246000fd5b899291601f1983169185600052886000209260005b8a8282106200242357505084116200240a575b505050811b01905592909262002244565b0151600019838a1b60f8161c19169055388080620023f9565b8385015186558e97909501949384019301620023e6565b62002464908460005287600020868086018c1c8201928a87106200246b575b018b1c019062001fe3565b386200220c565b9250819262002459565b899291601f1983169185600052886000209260005b8a828210620024c45750508411620024ab575b505050811b019055620021e2565b0151600019838a1b60f8161c191690553880806200249d565b8385015186558e979095019493840193016200248a565b62002504908460005287600020868086018c1c8201928a87106200246b57018b1c019062001fe3565b38620021ad565b889291601f1983169185600052876000209260005b898282106200255a575050841162002541575b505050811b01905562002163565b015160001983891b60f8161c1916905538808062002533565b8385015186558d9790950194938401930162002520565b6200259d9084600052866000208980860160051c820192898710620025a4575b0160051c019062001fe3565b386200212e565b9250819262002591565b604184634e487b7160e01b6000525260246000fd5b879291601f1983169185600052866000209260005b88828210620026125750508411620025f9575b505050811b01905562002104565b015160001983881b60f8161c19169055388080620025eb565b8385015186558c97909501949384019301620025d8565b620026549084600052856000208880860160051c820192888710620025a4570160051c019062001fe3565b38620020ce565b908154600160401b811015620005705760018101808455811015620019fb5762001af492600052600f60206000209102016200204b565b805490600160401b821015620005705760018201808255821015620019fb576000526020600020019060018060a01b03166001600160601b0360a01b825416179055565b15620026de57565b60405162461bcd60e51b815260206004820152601c60248201527f557365722050726f66696c6520646f7365206e6f742065786973742e000000006044820152606490fd5b90604051620027328162001a4e565b809260018060a01b0380825416835260018160018401541691602092602086015260028401541660408501526200276c6003840162001aac565b60608501526004620027816004850162001aac565b6080860152600584015460a0860152600684015460c0860152600784015460e0860152620027b26008850162001aac565b610100860152620027c66009850162001aac565b61012086015260405192620027db8462001a6c565b600090600a8601855b8484106200281957505050505050600e6101809260ff926101408601520154818116151561016085015260081c161515910152565b85838192620028288562001aac565b815201920193019290620027e4565b90815467ffffffffffffffff81116200057057602092604051936200286360208460051b018662001a89565b828552602085019160005260206000206000925b84841062002886575050505050565b600f83600192620028978562002723565b81520192019301929062002877565b9081606091031262000468578051916040602083015192015190565b600260005414620028d4576002600055565b604051633ee5aeb560e01b8152600490fd5b908160209103126200046857518015158103620004685790565b6200296a926020929091906001600160a01b039062002923828416151562001eeb565b16906200293282151562001eeb565b60405163095ea7b360e01b81526001600160a01b03909116600482015260248101929092529092839190829060009082906044820190565b03925af18015620029a55762002981575b50600190565b6200299d9060203d602011620016735762001662818362001a89565b50386200297b565b6040513d6000823e3d90fd5b6001600160a01b03908116620029c981151562001eeb565b600a549160005b838110620029e15750505050600090565b8282620029ee8362001e1f565b5054161462002a0057600101620029d0565b50505050600190565b60018060a01b0390818351166001600160601b0360a01b90818354161782556001936001830160209285848401511690825416179055600292600281019360408301519586519067ffffffffffffffff82116200057057600160401b97888311620005705786908854848a5580851062002c0f575b5001906000978852868820908a895b85811062002bfa5750505050505060606003809301930151918251968711620010b15783548785558593929181891062002afd575b50505091845282842091015b84841062002ade57505050505050565b600f838262002af0899451866200204b565b0192019301929062002ace565b9091929350600f9282600f0292600f84040362000f945788600f02600f81048a0362002be657868952878920889695948101939291015b83811062002b4457505062002ac2565b849596508981959293949555898c820155898382015562002b6784820162001ffc565b62002b756004820162001ffc565b89600582015589600682015589600782015562002b956008820162001ffc565b62002ba36009820162001ffc565b89600e82018d600a84015b82811062002bc757505055019087959493929162002b34565b809294955062002bd991935062001ffc565b018692918d8c9262002bae565b634e487b7160e01b89526011600452602489fd5b898386511695019481850155018b9062002a8d565b62002c28908a6000528584600020918201910162001fe3565b3862002a7e56fe604060808152346200042957620010ab803803806200001e816200042e565b928339810190608081830312620004295780516001600160401b039190828111620004295783620000519183016200046a565b90602093848201519084821162000429576200006f9183016200046a565b606086830151920151906000943360018060a01b031987541617865533867f8be0079c531659141344cd1fd0a4f28419497f9722a3daafe3b4186f6b6457e08180a384518181116200034357600254906001968783811c931680156200041e575b8a84101462000324578190601f93848111620003ca575b508a9084831160011462000363578a9262000357575b5050600019600383901b1c191690871b176002555b8251918211620003435760039283548781811c9116801562000338575b8a821014620003245790818385949311620002cf575b50899183116001146200026c57889262000260575b505060001982841b1c191690851b1790555b670de0b6b3a7640000918281029281840414901517156200024c5781835560058111620001fe57907fddf252ad1be2c89b69c2b068fc378daa952ba7f163c4a11628f55a4df523b3ef929160045533845260058552858420556007845284832060ff199082828254161790553084528186852091825416179055549284519384523393a351610bce9081620004dd8239f35b855162461bcd60e51b815260048101869052602160248201527f4d6178205472616e73616374696f6e2063616e6e6f74206578636565642035256044820152601760f91b6064820152608490fd5b634e487b7160e01b84526011600452602484fd5b0151905038806200015a565b8489528989208894509190601f1984168a5b8c828210620002b857505084116200029f575b505050811b0190556200016c565b015160001983861b60f8161c1916905538808062000291565b8385015186558b979095019493840193016200027e565b909192508489528989208380860160051c8201928c87106200031a575b9186958b929594930160051c01915b8281106200030b57505062000145565b8b81558695508a9101620002fb565b92508192620002ec565b634e487b7160e01b89526022600452602489fd5b90607f16906200012f565b634e487b7160e01b87526041600452602487fd5b015190503880620000fd565b60028b528b8b208a94509190601f1984168c8e5b828210620003b2575050841162000398575b505050811b0160025562000112565b015160001960f88460031b161c1916905538808062000389565b8385015186558d979095019493840193018e62000377565b90915060028a528a8a208480850160051c8201928d861062000414575b918b91869594930160051c01915b82811062000405575050620000e7565b8c81558594508b9101620003f5565b92508192620003e7565b92607f1692620000d0565b600080fd5b6040519190601f01601f191682016001600160401b038111838210176200045457604052565b634e487b7160e01b600052604160045260246000fd5b919080601f84011215620004295782516001600160401b0381116200045457602090620004a0601f8201601f191683016200042e565b92818452828287010111620004295760005b818110620004c857508260009394955001015290565b8581018301518482018401528201620004b256fe608060408181526004918236101561001657600080fd5b600092833560e01c91826306fdde03146105b557508163095ea7b31461058b57816318160ddd1461056c57816323b872dd14610497578163313ce5671461047b57816370a0823114610443578163715018a6146103e45781637437681e146103c65781638da5cb5b1461039e57816395d89b4114610299578163a9059cbb14610268578163c2d0ffca146101b9578163db4cf1e01461010a575063dd62ed3e146100bf57600080fd5b34610106578060031936011261010657806020926100db6106bd565b6100e36106d8565b6001600160a01b0391821683526006865283832091168252845220549051908152f35b5080fd5b9050346101b55760203660031901126101b5576101256106bd565b83546001600160a01b03919061013e9083163314610726565b1690811561015e5750825260076020528120805460ff1916600117905580f35b608490602084519162461bcd60e51b8352820152602b60248201527f45524332303a204578636c756465204d61782054782066726f6d20746865207a60448201526a65726f206164647265737360a81b6064820152fd5b8280fd5b919050346101b55760203660031901126101b5578135916101e460018060a01b038554163314610726565b6005831161021c5791602091817fff3dd5e80294197918c284bbfc3dadd97d0b40ce92106110946329088f80068a945551908152a180f35b6020608492519162461bcd60e51b8352820152602160248201527f4d6178205472616e73616374696f6e2063616e6e6f74206578636565642035256044820152601760f91b6064820152fd5b5050346101065780600319360112610106576020906102926102886106bd565b6024359033610873565b5160018152f35b919050346101b557826003193601126101b55780519183600354906001908260011c92600181168015610394575b6020958686108214610381575084885290811561035f5750600114610306575b61030286866102f8828b03836106ee565b5191829182610674565b0390f35b929550600383527fc2575a0e9e593c00f959f8c92f12db2869c3395a3b0502d05e2516446f71f85b5b82841061034c5750505082610302946102f89282010194386102e7565b805486850188015292860192810161032f565b60ff191687860152505050151560051b83010192506102f882610302386102e7565b634e487b7160e01b845260229052602483fd5b93607f16936102c7565b505034610106578160031936011261010657905490516001600160a01b039091168152602090f35b9050346101b557826003193601126101b55760209250549051908152f35b83346104405780600319360112610440578054816001600160a01b03821661040d338214610726565b7f8be0079c531659141344cd1fd0a4f28419497f9722a3daafe3b4186f6b6457e08280a36001600160a01b031916815580f35b80fd5b5050346101065760203660031901126101065760209181906001600160a01b0361046b6106bd565b1681526005845220549051908152f35b5050346101065781600319360112610106576020905160128152f35b828434610440576060366003190112610440576104b26106bd565b906104bb6106d8565b6104c9604435809285610873565b6001600160a01b038316825260066020908152848320338452905283822054845192606084019067ffffffffffffffff8211858310176105595760208761029288610551898989898752602883527f45524332303a207472616e7366657220616d6f756e742065786365656473206188840152676c6c6f77616e636560c01b87840152610b4d565b903390610771565b634e487b7160e01b815260418852602490fd5b5050346101065781600319360112610106576020906001549051908152f35b5050346101065780600319360112610106576020906102926105ab6106bd565b6024359033610771565b92915034610670578360031936011261067057600254600181811c9186908281168015610666575b6020958686108214610381575084885290811561035f575060011461060d5761030286866102f8828b03836106ee565b929550600283527f405787fa12a823e0f2b7631cc41b3ba8828b3321ca811111fa75cd3aa3bb5ace5b8284106106535750505082610302946102f89282010194386102e7565b8054868501880152928601928101610636565b93607f16936105dd565b8380fd5b6020808252825181830181905290939260005b8281106106a957505060409293506000838284010152601f8019910116010190565b818101860151848201604001528501610687565b600435906001600160a01b03821682036106d357565b600080fd5b602435906001600160a01b03821682036106d357565b90601f8019910116810190811067ffffffffffffffff82111761071057604052565b634e487b7160e01b600052604160045260246000fd5b1561072d57565b606460405162461bcd60e51b815260206004820152602060248201527f4f776e61626c653a2063616c6c6572206973206e6f7420746865206f776e65726044820152fd5b6001600160a01b0390811691821561082257169182156107d25760207f8c5be1e5ebec7d5bd14f71427d1e84f3dd0314c0f7b2291e5b200ac8c7c3b925918360005260068252604060002085600052825280604060002055604051908152a3565b60405162461bcd60e51b815260206004820152602260248201527f45524332303a20617070726f766520746f20746865207a65726f206164647265604482015261737360f01b6064820152608490fd5b60405162461bcd60e51b8152602060048201526024808201527f45524332303a20617070726f76652066726f6d20746865207a65726f206164646044820152637265737360e01b6064820152608490fd5b9192916001600160a01b03908116918215610afa5716908115610aa9578315610a5257600480549460015495868102968188041490151715610a3d576000958387526020926007845260409160ff838a205416156109ec575b50848852600584528188205482519083820182811067ffffffffffffffff8211176109d957610928929186918652601e83527f536166654d6174683a207375627472616374696f6e206f766572666c6f77000088840152610b4d565b85895260058552828920558588528188205490838201918281116109c657821061098357508188877fddf252ad1be2c89b69c2b068fc378daa952ba7f163c4a11628f55a4df523b3ef9798999a5260058652205551908152a3565b825162461bcd60e51b8152908101859052601b60248201527f536166654d6174683a206164646974696f6e206f766572666c6f7700000000006044820152606490fd5b634e487b7160e01b8a526011825260248afd5b634e487b7160e01b8b526041845260248bfd5b6064900483116109fc57386108cc565b83606492519162461bcd60e51b8352820152601860248201527f4578636565647320746865204d61785478416d6f756e742e00000000000000006044820152fd5b601182634e487b7160e01b6000525260246000fd5b60405162461bcd60e51b815260206004820152602960248201527f5472616e7366657220616d6f756e74206d7573742062652067726561746572206044820152687468616e207a65726f60b81b6064820152608490fd5b60405162461bcd60e51b815260206004820152602360248201527f45524332303a207472616e7366657220746f20746865207a65726f206164647260448201526265737360e81b6064820152608490fd5b60405162461bcd60e51b815260206004820152602560248201527f45524332303a207472616e736665722066726f6d20746865207a65726f206164604482015264647265737360d81b6064820152608490fd5b91828211610b7857508103908111610b625790565b634e487b7160e01b600052601160045260246000fd5b60405162461bcd60e51b8152908190610b949060048301610674565b0390fdfea2646970667358221220c49e554740cb71aa09a85b3746b1a934acbfb9371a9f5eefd27a7b626ea785f264736f6c63430008180033a26469706673582212205717d31739cd22f7deda4eb253f24a2a9c9f162558cf8d792692020cd9a9fa2864736f6c63430008180033",
          "opcodes": "PUSH1 0x80 CALLVALUE PUSH3 0x1A0 JUMPI PUSH1 0x1F PUSH3 0x3F2E CODESIZE DUP2 SWAP1 SUB SWAP2 DUP3 ADD PUSH1 0x1F NOT AND DUP4 ADD SWAP2 PUSH1 0x1 PUSH1 0x1 PUSH1 0x40 SHL SUB DUP4 GT DUP5 DUP5 LT OR PUSH3 0x1A5 JUMPI DUP1 DUP5 SWAP3 PUSH1 0xC0 SWAP5 PUSH1 0x40 MSTORE DUP4 CODECOPY DUP2 ADD SUB SLT PUSH3 0x1A0 JUMPI PUSH3 0x4D DUP2 PUSH3 0x1BB JUMP JUMPDEST PUSH3 0x5B PUSH1 0x20 DUP4 ADD PUSH3 0x1BB JUMP JUMPDEST PUSH3 0x69 PUSH1 0x40 DUP5 ADD PUSH3 0x1BB JUMP JUMPDEST SWAP1 PUSH1 0x60 DUP5 ADD MLOAD SWAP1 PUSH1 0xA0 PUSH1 0x80 DUP7 ADD MLOAD SWAP6 ADD MLOAD SWAP3 PUSH1 0x1 PUSH1 0x0 SSTORE PUSH1 0x1 DUP1 PUSH1 0xA0 SHL SUB NOT SWAP5 CALLER DUP7 PUSH1 0x1 SLOAD AND OR PUSH1 0x1 SSTORE PUSH1 0x1 DUP1 PUSH1 0xA0 SHL SUB DUP1 DUP1 SWAP3 AND SWAP4 PUSH3 0xAC DUP6 ISZERO ISZERO PUSH3 0x1D0 JUMP JUMPDEST AND SWAP2 PUSH3 0xBB DUP4 ISZERO ISZERO PUSH3 0x1D0 JUMP JUMPDEST AND SWAP2 PUSH3 0xCA DUP4 ISZERO ISZERO PUSH3 0x1D0 JUMP JUMPDEST DUP6 PUSH1 0x2 SLOAD AND OR PUSH1 0x2 SSTORE DUP5 PUSH1 0x3 SLOAD AND OR PUSH1 0x3 SSTORE DUP4 PUSH1 0x4 SLOAD AND OR PUSH1 0x4 SSTORE PUSH8 0xDE0B6B3A7640000 SWAP1 DUP2 DUP2 MUL SWAP2 DUP2 DUP4 DIV EQ SWAP1 ISZERO OR ISZERO PUSH3 0x18A JUMPI PUSH2 0x3E8 SWAP1 DIV PUSH1 0x6 SSTORE PUSH1 0x5 DUP4 GT PUSH3 0x145 JUMPI PUSH20 0x4752BA5DBC23F44D87826276BF6FD6B1C372AD24 SWAP3 PUSH1 0x7 SSTORE PUSH1 0x5 SSTORE PUSH1 0x8 SLOAD AND OR PUSH1 0x8 SSTORE PUSH1 0x40 MLOAD PUSH2 0x3D10 SWAP1 DUP2 PUSH3 0x21E DUP3 CODECOPY RETURN JUMPDEST PUSH1 0x40 MLOAD PUSH3 0x461BCD PUSH1 0xE5 SHL DUP2 MSTORE PUSH1 0x20 PUSH1 0x4 DUP3 ADD MSTORE PUSH1 0x1E PUSH1 0x24 DUP3 ADD MSTORE PUSH32 0x526566657272616C204665652063616E6E6F74206578636565642035252E0000 PUSH1 0x44 DUP3 ADD MSTORE PUSH1 0x64 SWAP1 REVERT JUMPDEST PUSH4 0x4E487B71 PUSH1 0xE0 SHL PUSH1 0x0 MSTORE PUSH1 0x11 PUSH1 0x4 MSTORE PUSH1 0x24 PUSH1 0x0 REVERT JUMPDEST PUSH1 0x0 DUP1 REVERT JUMPDEST PUSH4 0x4E487B71 PUSH1 0xE0 SHL PUSH1 0x0 MSTORE PUSH1 0x41 PUSH1 0x4 MSTORE PUSH1 0x24 PUSH1 0x0 REVERT JUMPDEST MLOAD SWAP1 PUSH1 0x1 PUSH1 0x1 PUSH1 0xA0 SHL SUB DUP3 AND DUP3 SUB PUSH3 0x1A0 JUMPI JUMP JUMPDEST ISZERO PUSH3 0x1D8 JUMPI JUMP JUMPDEST PUSH1 0x40 MLOAD PUSH3 0x461BCD PUSH1 0xE5 SHL DUP2 MSTORE PUSH1 0x20 PUSH1 0x4 DUP3 ADD MSTORE PUSH1 0x1F PUSH1 0x24 DUP3 ADD MSTORE PUSH32 0x5A65726F2061646472657373657320617265206E6F7420616C6C6F7765642E00 PUSH1 0x44 DUP3 ADD MSTORE PUSH1 0x64 SWAP1 REVERT INVALID PUSH1 0x80 DUP1 PUSH1 0x40 MSTORE PUSH1 0x4 CALLDATASIZE LT ISZERO PUSH3 0x14 JUMPI PUSH1 0x0 DUP1 REVERT JUMPDEST PUSH1 0x0 SWAP1 DUP2 CALLDATALOAD PUSH1 0xE0 SHR SWAP1 DUP2 PUSH4 0x17E7E58 EQ PUSH3 0x1981 JUMPI POP DUP1 PUSH4 0x94B7415 EQ PUSH3 0x1956 JUMPI DUP1 PUSH4 0x3CCFD60B EQ PUSH3 0x18D5 JUMPI DUP1 PUSH4 0x4C96A389 EQ PUSH3 0x12D1 JUMPI DUP1 PUSH4 0x4F64B2BE EQ PUSH3 0x1272 JUMPI DUP1 PUSH4 0x5C52A5F2 EQ PUSH3 0x1214 JUMPI DUP1 PUSH4 0x6D46A1DB EQ PUSH3 0x115F JUMPI DUP1 PUSH4 0x7660F44A EQ PUSH3 0x113A JUMPI DUP1 PUSH4 0x7C8F0323 EQ PUSH3 0x831 JUMPI DUP1 PUSH4 0x80997E47 EQ PUSH3 0x80A JUMPI DUP1 PUSH4 0x84AE2BC6 EQ PUSH3 0x7EA JUMPI DUP1 PUSH4 0x8A664EBC EQ PUSH3 0x715 JUMPI DUP1 PUSH4 0x98118CB4 EQ PUSH3 0x6F7 JUMPI DUP1 PUSH4 0x9DD9D0FD EQ PUSH3 0x68E JUMPI DUP1 PUSH4 0xC0F45E70 EQ PUSH3 0x5FD JUMPI DUP1 PUSH4 0xC36FE3D6 EQ PUSH3 0x5AA JUMPI DUP1 PUSH4 0xCF3CF573 EQ PUSH3 0x58A JUMPI DUP1 PUSH4 0xD3C9CC26 EQ PUSH3 0x2AA JUMPI DUP1 PUSH4 0xE1EA9D73 EQ PUSH3 0x1A3 JUMPI DUP1 PUSH4 0xF3F524B8 EQ PUSH3 0x17E JUMPI PUSH4 0xF46901ED EQ PUSH3 0x11E JUMPI PUSH1 0x0 DUP1 REVERT JUMPDEST CALLVALUE PUSH3 0x17B JUMPI PUSH1 0x20 CALLDATASIZE PUSH1 0x3 NOT ADD SLT PUSH3 0x17B JUMPI PUSH3 0x13B PUSH3 0x19A8 JUMP JUMPDEST PUSH1 0x1 SLOAD PUSH1 0x1 PUSH1 0x1 PUSH1 0xA0 SHL SUB SWAP2 SWAP1 PUSH3 0x157 SWAP1 DUP4 AND CALLER EQ PUSH3 0x1E8F JUMP JUMPDEST AND PUSH3 0x165 DUP2 ISZERO ISZERO PUSH3 0x1EEB JUMP JUMPDEST PUSH1 0x1 PUSH1 0x1 PUSH1 0x60 SHL SUB PUSH1 0xA0 SHL PUSH1 0x4 SLOAD AND OR PUSH1 0x4 SSTORE DUP1 RETURN JUMPDEST DUP1 REVERT JUMPDEST POP CALLVALUE PUSH3 0x17B JUMPI PUSH1 0x20 CALLDATASIZE PUSH1 0x3 NOT ADD SLT PUSH3 0x17B JUMPI PUSH1 0x20 PUSH1 0x4 CALLDATALOAD DUP1 PUSH1 0x7 SSTORE PUSH1 0x40 MLOAD SWAP1 DUP2 MSTORE RETURN JUMPDEST POP CALLVALUE PUSH3 0x17B JUMPI DUP1 PUSH1 0x3 NOT CALLDATASIZE ADD SLT PUSH3 0x17B JUMPI PUSH3 0x1CB PUSH3 0x1C5 CALLER PUSH3 0x29B1 JUMP JUMPDEST PUSH3 0x26D6 JUMP JUMPDEST CALLER DUP2 MSTORE PUSH1 0x20 PUSH1 0x9 DUP2 MSTORE PUSH1 0x40 DUP3 KECCAK256 SWAP2 PUSH1 0x40 MLOAD SWAP1 PUSH3 0x1E8 DUP3 PUSH3 0x1A6C JUMP JUMPDEST PUSH1 0x1 DUP1 PUSH1 0xA0 SHL SUB SWAP4 DUP5 DUP2 SLOAD AND DUP4 MSTORE PUSH1 0x1 SWAP3 DUP6 PUSH1 0x1 DUP4 ADD SLOAD AND DUP6 DUP3 ADD MSTORE PUSH1 0x2 DUP3 ADD SWAP2 PUSH1 0x40 MLOAD SWAP3 DUP4 DUP8 DUP3 SLOAD SWAP2 DUP3 DUP2 MSTORE ADD SWAP2 DUP7 MSTORE DUP8 DUP7 KECCAK256 SWAP1 DUP7 JUMPDEST DUP2 DUP2 LT PUSH3 0x294 JUMPI POP POP POP PUSH1 0x3 PUSH1 0x60 SWAP3 PUSH3 0x241 DUP7 PUSH3 0x24F SWAP5 SUB DUP8 PUSH3 0x1A89 JUMP JUMPDEST PUSH1 0x40 DUP6 ADD SWAP6 DUP7 MSTORE ADD PUSH3 0x2837 JUMP JUMPDEST SWAP2 ADD MSTORE MLOAD SWAP4 PUSH1 0x40 MLOAD SWAP4 DUP1 DUP6 ADD SWAP2 DUP2 DUP7 MSTORE DUP7 MLOAD DUP1 SWAP4 MSTORE DUP2 PUSH1 0x40 DUP8 ADD SWAP8 ADD SWAP4 SWAP1 JUMPDEST DUP4 DUP3 LT PUSH3 0x27C JUMPI DUP7 DUP9 SUB DUP8 RETURN JUMPDEST DUP5 MLOAD DUP2 AND DUP9 MSTORE SWAP7 DUP3 ADD SWAP7 SWAP4 DUP3 ADD SWAP4 SWAP1 DUP6 ADD SWAP1 PUSH3 0x26E JUMP JUMPDEST DUP3 SLOAD DUP12 AND DUP5 MSTORE SWAP3 DUP10 ADD SWAP3 SWAP2 DUP9 ADD SWAP2 DUP9 ADD PUSH3 0x21F JUMP JUMPDEST POP CALLVALUE PUSH3 0x17B JUMPI PUSH1 0x20 DUP1 PUSH1 0x3 NOT CALLDATASIZE ADD SLT PUSH3 0x586 JUMPI PUSH1 0x4 CALLDATALOAD DUP3 JUMPDEST PUSH1 0xC SLOAD DUP2 LT ISZERO PUSH3 0x4DA JUMPI PUSH3 0x2DA DUP2 PUSH3 0x19BF JUMP JUMPDEST POP PUSH1 0x2 SWAP1 DUP2 ADD SLOAD PUSH1 0x1 PUSH1 0x1 PUSH1 0xA0 SHL SUB SWAP3 SWAP2 SWAP1 DUP4 AND SWAP1 PUSH3 0x2FA DUP4 PUSH3 0x19BF JUMP JUMPDEST POP DUP5 PUSH1 0x1 DUP1 SWAP3 ADD SLOAD AND SWAP3 PUSH1 0x40 MLOAD SWAP6 DUP7 SWAP2 PUSH4 0x240BC6B PUSH1 0xE2 SHL DUP4 MSTORE DUP3 PUSH1 0x4 PUSH1 0x60 SWAP5 DUP6 SWAP4 GAS STATICCALL SWAP7 DUP8 ISZERO PUSH3 0x4CF JUMPI DUP11 SWAP3 DUP12 SWAP9 PUSH3 0x494 JUMPI JUMPDEST POP POP DUP3 PUSH3 0x33E DUP8 PUSH3 0x19BF JUMP JUMPDEST POP ADD SLOAD AND DUP10 MSTORE PUSH1 0xB DUP9 MSTORE PUSH1 0x40 DUP10 KECCAK256 SWAP3 DUP2 ISZERO SWAP1 DUP2 ISZERO PUSH3 0x369 JUMPI JUMPDEST POP POP POP POP POP POP PUSH1 0x1 SWAP2 POP ADD PUSH3 0x2C4 JUMP JUMPDEST PUSH8 0xDE0B6B3A7640000 SWAP4 DUP5 DUP10 DIV DUP1 SWAP2 SHL SWAP2 DUP2 DUP4 DIV EQ SWAP1 ISZERO OR ISZERO PUSH3 0x480 JUMPI SWAP1 DUP10 PUSH3 0x399 DUP11 PUSH1 0x4 SWAP7 SWAP6 SWAP5 PUSH3 0x1FB3 JUMP JUMPDEST SWAP7 PUSH1 0x40 MLOAD SWAP6 DUP7 DUP1 SWAP3 PUSH4 0x18160DDD PUSH1 0xE0 SHL DUP3 MSTORE GAS STATICCALL SWAP4 DUP5 ISZERO PUSH3 0x475 JUMPI DUP12 SWAP5 PUSH3 0x43B JUMPI JUMPDEST POP PUSH3 0x425 JUMPI PUSH3 0x3DF PUSH3 0x3EF SWAP4 PUSH3 0x3E5 SWAP4 DUP11 SWAP4 PUSH1 0x1 SWAP11 DIV SWAP2 DIV PUSH3 0x1FB3 JUMP JUMPDEST PUSH3 0x1FB3 JUMP JUMPDEST PUSH1 0x5 SLOAD SWAP1 PUSH3 0x1FD5 JUMP JUMPDEST PUSH1 0x6 DUP2 DUP2 DUP5 ADD SSTORE DUP4 PUSH1 0x7 DUP1 SWAP5 ADD SSTORE PUSH3 0x408 DUP6 PUSH3 0x19BF JUMP JUMPDEST POP ADD SSTORE PUSH3 0x416 DUP4 PUSH3 0x19BF JUMP JUMPDEST POP ADD SSTORE CODESIZE DUP1 DUP1 DUP1 DUP1 DUP1 PUSH3 0x358 JUMP JUMPDEST PUSH4 0x4E487B71 PUSH1 0xE0 SHL PUSH1 0x0 MSTORE PUSH1 0x12 PUSH1 0x4 MSTORE PUSH1 0x24 PUSH1 0x0 REVERT JUMPDEST SWAP1 SWAP4 POP DUP10 DUP2 DUP2 RETURNDATASIZE DUP4 GT PUSH3 0x46D JUMPI JUMPDEST PUSH3 0x456 DUP2 DUP4 PUSH3 0x1A89 JUMP JUMPDEST DUP2 ADD SUB SLT PUSH3 0x468 JUMPI MLOAD SWAP3 CODESIZE PUSH3 0x3BD JUMP JUMPDEST PUSH1 0x0 DUP1 REVERT JUMPDEST POP RETURNDATASIZE PUSH3 0x44A JUMP JUMPDEST PUSH1 0x40 MLOAD RETURNDATASIZE DUP14 DUP3 RETURNDATACOPY RETURNDATASIZE SWAP1 REVERT JUMPDEST PUSH4 0x4E487B71 PUSH1 0xE0 SHL DUP12 MSTORE PUSH1 0x11 PUSH1 0x4 MSTORE PUSH1 0x24 DUP12 REVERT JUMPDEST DUP1 SWAP2 SWAP3 SWAP9 POP PUSH3 0x4BD SWAP4 POP SWAP1 RETURNDATASIZE LT PUSH3 0x4C7 JUMPI JUMPDEST PUSH3 0x4B4 DUP2 DUP4 PUSH3 0x1A89 JUMP JUMPDEST DUP2 ADD SWAP1 PUSH3 0x28A6 JUMP JUMPDEST POP SWAP6 CODESIZE DUP1 PUSH3 0x330 JUMP JUMPDEST POP RETURNDATASIZE PUSH3 0x4A8 JUMP JUMPDEST PUSH1 0x40 MLOAD RETURNDATASIZE DUP13 DUP3 RETURNDATACOPY RETURNDATASIZE SWAP1 REVERT JUMPDEST DUP3 PUSH1 0xC SLOAD PUSH8 0xFFFFFFFFFFFFFFFF DUP2 GT PUSH3 0x570 JUMPI PUSH1 0x40 MLOAD SWAP1 PUSH3 0x503 DUP4 DUP3 PUSH1 0x5 SHL ADD DUP4 PUSH3 0x1A89 JUMP JUMPDEST DUP1 DUP3 MSTORE DUP3 DUP3 ADD PUSH1 0xC PUSH1 0x0 MSTORE PUSH32 0xDF6966C971051C3D54EC59162606531493A51404A002842F56009D7E5CF4A8C7 SWAP4 PUSH1 0x0 SWAP2 JUMPDEST DUP4 DUP4 LT PUSH3 0x550 JUMPI PUSH1 0x40 MLOAD DUP1 PUSH3 0x54C DUP8 DUP3 PUSH3 0x1CE7 JUMP JUMPDEST SUB SWAP1 RETURN JUMPDEST PUSH1 0xF DUP3 PUSH1 0x1 SWAP3 PUSH3 0x561 DUP10 PUSH3 0x2723 JUMP JUMPDEST DUP2 MSTORE ADD SWAP7 ADD SWAP3 ADD SWAP2 SWAP5 PUSH3 0x534 JUMP JUMPDEST PUSH4 0x4E487B71 PUSH1 0xE0 SHL PUSH1 0x0 MSTORE PUSH1 0x41 PUSH1 0x4 MSTORE PUSH1 0x24 PUSH1 0x0 REVERT JUMPDEST POP DUP1 REVERT JUMPDEST POP CALLVALUE PUSH3 0x17B JUMPI DUP1 PUSH1 0x3 NOT CALLDATASIZE ADD SLT PUSH3 0x17B JUMPI PUSH1 0x20 PUSH1 0x6 SLOAD PUSH1 0x40 MLOAD SWAP1 DUP2 MSTORE RETURN JUMPDEST POP CALLVALUE PUSH3 0x17B JUMPI PUSH1 0x20 CALLDATASIZE PUSH1 0x3 NOT ADD SLT PUSH3 0x17B JUMPI PUSH1 0x4 CALLDATALOAD PUSH1 0xA SLOAD DUP2 LT ISZERO PUSH3 0x586 JUMPI PUSH3 0x5D7 SWAP1 PUSH3 0x1E1F JUMP JUMPDEST POP DUP1 SLOAD PUSH1 0x1 SWAP1 SWAP2 ADD SLOAD PUSH1 0x40 DUP1 MLOAD PUSH1 0x1 PUSH1 0x1 PUSH1 0xA0 SHL SUB SWAP4 DUP5 AND DUP2 MSTORE SWAP3 SWAP1 SWAP2 AND PUSH1 0x20 DUP4 ADD MSTORE SWAP1 RETURN JUMPDEST POP CALLVALUE PUSH3 0x17B JUMPI PUSH1 0x20 DUP1 PUSH1 0x3 NOT CALLDATASIZE ADD SLT PUSH3 0x586 JUMPI PUSH3 0x61C PUSH3 0x19A8 JUMP JUMPDEST SWAP1 PUSH1 0x40 MLOAD PUSH3 0x62B DUP2 PUSH3 0x1A6C JUMP JUMPDEST DUP4 JUMPDEST PUSH1 0x80 DUP2 LT PUSH3 0x680 JUMPI PUSH3 0x54C PUSH2 0x140 PUSH3 0x669 PUSH1 0x40 DUP9 PUSH1 0x1 PUSH1 0x1 PUSH1 0xA0 SHL SUB DUP10 AND PUSH3 0x65B DUP2 ISZERO ISZERO PUSH3 0x1EEB JUMP JUMPDEST DUP2 MSTORE PUSH1 0xB PUSH1 0x20 MSTORE KECCAK256 PUSH3 0x2723 JUMP JUMPDEST ADD MLOAD PUSH1 0x40 MLOAD SWAP2 DUP3 SWAP2 PUSH1 0x20 DUP4 MSTORE PUSH1 0x20 DUP4 ADD SWAP1 PUSH3 0x1CA5 JUMP JUMPDEST PUSH1 0x60 DUP3 DUP3 ADD MSTORE DUP3 ADD PUSH3 0x62D JUMP JUMPDEST POP CALLVALUE PUSH3 0x17B JUMPI PUSH1 0x20 CALLDATASIZE PUSH1 0x3 NOT ADD SLT PUSH3 0x17B JUMPI PUSH1 0x1 PUSH1 0x1 PUSH1 0xA0 SHL SUB SWAP1 PUSH1 0x40 SWAP1 DUP3 PUSH3 0x6B9 PUSH3 0x19A8 JUMP JUMPDEST AND DUP2 MSTORE PUSH1 0x9 PUSH1 0x20 MSTORE KECCAK256 SWAP1 PUSH1 0x1 DUP2 DUP4 SLOAD AND SWAP3 ADD SLOAD AND SWAP1 PUSH3 0x54C PUSH1 0x40 MLOAD SWAP3 DUP4 SWAP3 DUP4 SWAP1 PUSH1 0x20 SWAP1 SWAP4 SWAP3 SWAP4 PUSH1 0x40 DUP4 ADD SWAP5 PUSH1 0x1 DUP1 PUSH1 0xA0 SHL SUB DUP1 SWAP3 AND DUP5 MSTORE AND SWAP2 ADD MSTORE JUMP JUMPDEST POP CALLVALUE PUSH3 0x17B JUMPI DUP1 PUSH1 0x3 NOT CALLDATASIZE ADD SLT PUSH3 0x17B JUMPI PUSH1 0x20 PUSH1 0x40 MLOAD PUSH1 0x5 DUP2 MSTORE RETURN JUMPDEST POP CALLVALUE PUSH3 0x17B JUMPI DUP1 PUSH1 0x3 NOT CALLDATASIZE ADD SLT PUSH3 0x17B JUMPI PUSH3 0x737 PUSH3 0x1C5 CALLER PUSH3 0x29B1 JUMP JUMPDEST CALLER DUP2 MSTORE PUSH1 0x20 PUSH1 0x9 PUSH1 0x20 MSTORE PUSH1 0x40 DUP3 KECCAK256 SWAP1 PUSH1 0x40 MLOAD SWAP3 PUSH3 0x755 DUP5 PUSH3 0x1A6C JUMP JUMPDEST PUSH1 0x1 DUP1 PUSH1 0xA0 SHL SUB SWAP1 DUP2 DUP5 SLOAD AND DUP6 MSTORE PUSH1 0x1 DUP3 PUSH1 0x1 DUP7 ADD SLOAD AND PUSH1 0x20 DUP8 ADD MSTORE PUSH1 0x2 DUP6 ADD SWAP3 PUSH1 0x40 MLOAD SWAP1 DUP2 SWAP6 PUSH1 0x20 DUP7 SLOAD SWAP4 DUP5 DUP2 MSTORE ADD SWAP6 DUP6 MSTORE PUSH1 0x20 DUP6 KECCAK256 SWAP5 SWAP2 JUMPDEST DUP4 DUP4 LT PUSH3 0x7D2 JUMPI PUSH3 0x54C PUSH1 0x60 DUP12 PUSH3 0x7C0 PUSH1 0x3 DUP14 DUP14 PUSH3 0x7B4 DUP2 DUP16 SUB DUP3 PUSH3 0x1A89 JUMP JUMPDEST PUSH1 0x40 DUP6 ADD MSTORE ADD PUSH3 0x2837 JUMP JUMPDEST SWAP2 DUP3 SWAP2 ADD MSTORE PUSH1 0x40 MLOAD SWAP2 DUP3 SWAP2 DUP3 PUSH3 0x1CE7 JUMP JUMPDEST DUP6 SLOAD DUP2 AND DUP8 MSTORE SWAP6 DUP2 ADD SWAP6 SWAP5 DUP5 ADD SWAP5 SWAP2 DUP5 ADD SWAP2 PUSH3 0x78F JUMP JUMPDEST POP CALLVALUE PUSH3 0x17B JUMPI DUP1 PUSH1 0x3 NOT CALLDATASIZE ADD SLT PUSH3 0x17B JUMPI PUSH1 0x20 PUSH1 0x7 SLOAD PUSH1 0x40 MLOAD SWAP1 DUP2 MSTORE RETURN JUMPDEST POP CALLVALUE PUSH3 0x17B JUMPI DUP1 PUSH1 0x3 NOT CALLDATASIZE ADD SLT PUSH3 0x17B JUMPI PUSH1 0x20 PUSH1 0x40 MLOAD PUSH10 0x152D02C7E14AF6800000 DUP2 MSTORE RETURN JUMPDEST POP PUSH2 0x120 CALLDATASIZE PUSH1 0x3 NOT ADD SLT PUSH3 0x17B JUMPI PUSH8 0xFFFFFFFFFFFFFFFF PUSH1 0x4 CALLDATALOAD DUP2 DUP2 GT PUSH3 0xD5E JUMPI PUSH3 0x864 SWAP1 CALLDATASIZE SWAP1 PUSH1 0x4 ADD PUSH3 0x1C58 JUMP JUMPDEST SWAP1 PUSH1 0x24 CALLDATALOAD DUP2 DUP2 GT PUSH3 0xDEE JUMPI PUSH3 0x880 SWAP1 CALLDATASIZE SWAP1 PUSH1 0x4 ADD PUSH3 0x1C58 JUMP JUMPDEST SWAP3 PUSH1 0x44 CALLDATALOAD DUP3 DUP2 GT PUSH3 0x586 JUMPI PUSH3 0x89C SWAP1 CALLDATASIZE SWAP1 PUSH1 0x4 ADD PUSH3 0x1C58 JUMP JUMPDEST SWAP4 PUSH1 0x64 CALLDATALOAD DUP4 DUP2 GT PUSH3 0xD5E JUMPI PUSH3 0x8B8 SWAP1 CALLDATASIZE SWAP1 PUSH1 0x4 ADD PUSH3 0x1C58 JUMP JUMPDEST SWAP3 PUSH1 0x84 CALLDATALOAD DUP2 DUP2 GT PUSH3 0xDEE JUMPI CALLDATASIZE PUSH1 0x23 DUP3 ADD SLT ISZERO PUSH3 0xDEE JUMPI PUSH1 0x40 MLOAD SWAP1 PUSH3 0x8DF DUP3 PUSH3 0x1A6C JUMP JUMPDEST PUSH1 0x84 DUP2 ADD DUP3 CALLDATASIZE DUP3 GT PUSH3 0x1032 JUMPI DUP3 PUSH1 0x4 ADD SWAP1 JUMPDEST DUP3 DUP3 LT PUSH3 0x110A JUMPI POP POP PUSH1 0xE4 CALLDATALOAD SWAP4 SWAP2 POP POP PUSH1 0x1 PUSH1 0x1 PUSH1 0xA0 SHL SUB DUP4 AND DUP4 SUB PUSH3 0x468 JUMPI PUSH3 0x91E PUSH3 0x28C2 JUMP JUMPDEST PUSH1 0x6 SLOAD CALLVALUE LT PUSH3 0x10C5 JUMPI PUSH1 0x40 MLOAD SWAP1 PUSH2 0x10AB SWAP1 DUP3 DUP3 DUP2 ADD LT SWAP1 DUP3 DUP5 ADD GT OR PUSH3 0x10B1 JUMPI DUP1 DUP3 SWAP2 PUSH3 0x2C30 DUP4 CODECOPY PUSH1 0x80 DUP2 DUP4 ADD MSTORE PUSH3 0x977 PUSH3 0x964 PUSH1 0x80 DUP4 DUP6 ADD ADD DUP12 PUSH3 0x1B5D JUMP JUMPDEST DUP3 DUP5 ADD DUP2 SUB PUSH1 0x20 DUP5 DUP7 ADD ADD MSTORE DUP8 PUSH3 0x1B5D JUMP JUMPDEST SWAP1 PUSH1 0xA4 CALLDATALOAD PUSH1 0x40 DUP3 DUP6 ADD ADD MSTORE PUSH1 0x60 PUSH1 0xC4 CALLDATALOAD SWAP2 DUP5 ADD ADD MSTORE SUB SWAP1 DUP6 CREATE SWAP5 DUP6 ISZERO PUSH3 0x10A6 JUMPI PUSH1 0x3 SLOAD PUSH1 0x40 MLOAD PUSH4 0x15AB88C9 PUSH1 0xE3 SHL DUP2 MSTORE SWAP9 SWAP1 PUSH1 0x20 SWAP1 DUP11 SWAP1 PUSH1 0x4 SWAP1 DUP3 SWAP1 PUSH1 0x1 PUSH1 0x1 PUSH1 0xA0 SHL SUB AND GAS STATICCALL SWAP9 DUP10 ISZERO PUSH3 0x109B JUMPI DUP7 SWAP8 SWAP9 SWAP10 PUSH1 0x20 SWAP2 PUSH3 0xA17 SWAP9 SWAP2 PUSH3 0x1079 JUMPI JUMPDEST POP PUSH1 0x2 SLOAD PUSH1 0x40 MLOAD PUSH4 0x64E329CB PUSH1 0xE1 SHL DUP2 MSTORE PUSH1 0x1 PUSH1 0x1 PUSH1 0xA0 SHL SUB DUP13 DUP2 AND PUSH1 0x4 DUP4 ADD MSTORE SWAP3 DUP4 AND PUSH1 0x24 DUP3 ADD MSTORE SWAP9 DUP10 SWAP3 SWAP1 SWAP2 AND SWAP1 DUP3 SWAP1 DUP12 SWAP1 DUP3 SWAP1 PUSH1 0x44 DUP3 ADD SWAP1 JUMP JUMPDEST SUB SWAP3 GAS CALL SWAP6 DUP7 ISZERO PUSH3 0x106E JUMPI DUP8 SWAP7 PUSH3 0x1036 JUMPI JUMPDEST POP PUSH1 0x3 SLOAD PUSH1 0x40 MLOAD PUSH4 0x313CE567 PUSH1 0xE0 SHL DUP2 MSTORE PUSH1 0x1 PUSH1 0x1 PUSH1 0xA0 SHL SUB SWAP2 DUP3 AND SWAP2 PUSH1 0x20 SWAP1 DUP3 SWAP1 PUSH1 0x4 SWAP1 DUP3 SWAP1 DUP15 AND GAS STATICCALL SWAP1 DUP2 ISZERO PUSH3 0xFDD JUMPI PUSH3 0xA7C PUSH3 0xA97 SWAP4 SWAP3 PUSH3 0xA85 SWAP3 DUP13 SWAP2 PUSH3 0xFE8 JUMPI JUMPDEST POP PUSH3 0x1F8B JUMP JUMPDEST PUSH1 0xA4 CALLDATALOAD PUSH3 0x1FB3 JUMP JUMPDEST SWAP1 PUSH1 0x1 PUSH1 0x1 PUSH1 0xA0 SHL SUB DUP12 AND SWAP1 PUSH3 0x2900 JUMP JUMPDEST ISZERO PUSH3 0x1032 JUMPI PUSH1 0x5 CALLVALUE DUP2 MUL DIV CALLVALUE SUB PUSH3 0x101E JUMPI PUSH3 0xABC PUSH1 0x64 CALLVALUE PUSH1 0x5 MUL DIV CALLVALUE PUSH3 0x1FC7 JUMP JUMPDEST PUSH1 0x3 SLOAD PUSH1 0x40 MLOAD PUSH4 0x313CE567 PUSH1 0xE0 SHL DUP2 MSTORE SWAP2 SWAP7 SWAP2 PUSH1 0x1 PUSH1 0x1 PUSH1 0xA0 SHL SUB SWAP2 DUP3 AND SWAP2 PUSH1 0x20 SWAP1 DUP3 SWAP1 PUSH1 0x4 SWAP1 DUP3 SWAP1 DUP16 AND GAS STATICCALL SWAP1 DUP2 ISZERO PUSH3 0x4CF JUMPI SWAP2 PUSH3 0xB10 PUSH3 0xA7C PUSH1 0x40 SWAP4 PUSH3 0xB42 SWAP6 DUP15 SWAP2 PUSH3 0xFE8 JUMPI POP PUSH3 0x1F8B JUMP JUMPDEST DUP3 MLOAD PUSH4 0xE505AA9 PUSH1 0xE3 SHL DUP2 MSTORE PUSH1 0x1 PUSH1 0x1 PUSH1 0xA0 SHL SUB DUP15 AND PUSH1 0x4 DUP3 ADD MSTORE PUSH1 0x24 DUP2 ADD SWAP2 SWAP1 SWAP2 MSTORE SWAP3 DUP4 SWAP2 SWAP1 DUP3 SWAP1 DUP2 SWAP1 PUSH1 0x44 DUP3 ADD SWAP1 JUMP JUMPDEST SUB SWAP2 PUSH1 0x64 CALLVALUE PUSH1 0x5 MUL DIV SWAP1 GAS CALL DUP1 ISZERO PUSH3 0xFDD JUMPI PUSH3 0xFA8 JUMPI JUMPDEST POP PUSH8 0xDE0B6B3A7640000 PUSH1 0x64 CALLVALUE PUSH1 0x5 MUL DIV DIV PUSH1 0x1 DUP2 SWAP1 SHL DUP2 SWAP1 DIV PUSH1 0x2 EQ SWAP1 ISZERO OR ISZERO PUSH3 0xF94 JUMPI PUSH3 0xBA3 PUSH2 0x104 CALLDATALOAD PUSH8 0xDE0B6B3A7640000 PUSH1 0x64 CALLVALUE PUSH1 0x5 MUL DIV DIV PUSH1 0x1 SHL PUSH3 0x1FB3 JUMP JUMPDEST SWAP1 PUSH3 0xBC7 PUSH3 0x3E5 PUSH2 0x104 CALLDATALOAD PUSH8 0xDE0B6B3A7640000 PUSH1 0x64 CALLVALUE PUSH1 0x5 MUL DIV DIV PUSH3 0x1FB3 JUMP JUMPDEST SWAP1 PUSH1 0x40 MLOAD SWAP12 PUSH3 0xBD7 DUP14 PUSH3 0x1A4E JUMP JUMPDEST CALLER DUP14 MSTORE DUP13 PUSH1 0x20 DUP14 PUSH1 0x1 DUP1 PUSH1 0xA0 SHL SUB AND SWAP2 ADD MSTORE DUP13 PUSH1 0x40 PUSH1 0x1 DUP1 PUSH1 0xA0 SHL SUB DUP13 AND SWAP2 ADD MSTORE PUSH1 0x60 DUP14 ADD MSTORE PUSH1 0x80 DUP13 ADD MSTORE PUSH1 0xA4 CALLDATALOAD PUSH1 0xA0 DUP13 ADD MSTORE PUSH1 0xC0 DUP12 ADD MSTORE PUSH1 0xE0 DUP11 ADD MSTORE PUSH2 0x100 DUP10 ADD MSTORE PUSH2 0x120 DUP9 ADD MSTORE PUSH2 0x140 DUP8 ADD MSTORE PUSH1 0x1 PUSH2 0x160 DUP8 ADD MSTORE DUP4 PUSH2 0x180 DUP8 ADD MSTORE PUSH1 0x1 DUP1 PUSH1 0xA0 SHL SUB DUP6 AND DUP5 MSTORE PUSH1 0xB PUSH1 0x20 MSTORE PUSH3 0xC54 DUP7 PUSH1 0x40 DUP7 KECCAK256 PUSH3 0x204B JUMP JUMPDEST PUSH1 0xC SLOAD PUSH1 0x1 PUSH1 0x40 SHL SWAP1 DUP2 DUP2 LT ISZERO PUSH3 0x570 JUMPI DUP1 PUSH1 0x1 PUSH3 0xC78 SWAP3 ADD PUSH1 0xC SSTORE PUSH3 0x19BF JUMP JUMPDEST PUSH3 0xF7E JUMPI DUP8 PUSH3 0xC89 SWAP2 PUSH3 0x204B JUMP JUMPDEST PUSH3 0xC94 CALLER PUSH3 0x29B1 JUMP JUMPDEST ISZERO PUSH3 0xDF2 JUMPI POP POP CALLER DUP4 MSTORE PUSH1 0x9 PUSH1 0x20 MSTORE PUSH1 0x40 DUP4 KECCAK256 PUSH1 0x1 DUP2 ADD DUP1 SLOAD SWAP2 SWAP3 SWAP2 DUP6 SWAP2 SWAP1 PUSH1 0x1 PUSH1 0x1 PUSH1 0xA0 SHL SUB AND DUP1 PUSH3 0xD62 JUMPI POP POP DUP1 DUP1 DUP1 SWAP4 PUSH1 0x1 DUP1 PUSH1 0xA0 SHL SUB PUSH1 0x4 SLOAD AND GAS CALL PUSH3 0xCE0 PUSH3 0x1E5A JUMP JUMPDEST POP ISZERO PUSH3 0xD5E JUMPI PUSH1 0x60 SWAP5 PUSH1 0x3 PUSH3 0xCF9 SWAP3 JUMPDEST ADD PUSH3 0x265B JUMP JUMPDEST PUSH1 0xC SLOAD PUSH1 0x40 MLOAD DUP2 DUP2 MSTORE SWAP1 SWAP3 PUSH1 0x1 SWAP2 PUSH1 0x1 PUSH1 0x1 PUSH1 0xA0 SHL SUB DUP5 DUP2 AND SWAP2 SWAP1 DUP8 AND SWAP1 PUSH32 0x714AA39317AD9A7A7A99DB52B44490DA5D068A0B2710FFFB1A1282AD3CADAE1F SWAP1 PUSH1 0x20 SWAP1 LOG3 SSTORE PUSH1 0x40 DUP1 MLOAD PUSH1 0x1 PUSH1 0x1 PUSH1 0xA0 SHL SUB SWAP5 DUP6 AND DUP2 MSTORE SWAP2 SWAP1 SWAP4 AND PUSH1 0x20 DUP3 ADD MSTORE SWAP2 DUP3 ADD MSTORE RETURN JUMPDEST DUP3 DUP1 REVERT JUMPDEST DUP3 DUP1 SWAP3 SWAP5 DUP2 SWAP3 DUP3 MSTORE PUSH3 0xD7C CALLER PUSH1 0x2 PUSH1 0x40 DUP6 KECCAK256 ADD PUSH3 0x2692 JUMP JUMPDEST PUSH3 0xD99 PUSH1 0x64 PUSH3 0xD90 DUP4 PUSH1 0x7 SLOAD PUSH3 0x1FB3 JUMP JUMPDEST DIV DUP1 SWAP3 PUSH3 0x1FC7 JUMP JUMPDEST SWAP6 SLOAD PUSH1 0x1 PUSH1 0x1 PUSH1 0xA0 SHL SUB AND GAS CALL PUSH3 0xDB0 PUSH3 0x1E5A JUMP JUMPDEST POP ISZERO PUSH3 0xDEE JUMPI PUSH1 0x4 SLOAD DUP5 SWAP2 DUP3 SWAP2 DUP3 SWAP2 DUP3 SWAP2 PUSH1 0x1 PUSH1 0x1 PUSH1 0xA0 SHL SUB AND GAS CALL PUSH3 0xDD7 PUSH3 0x1E5A JUMP JUMPDEST POP ISZERO PUSH3 0xD5E JUMPI PUSH1 0x60 SWAP5 PUSH1 0x3 PUSH3 0xCF9 SWAP3 PUSH3 0xCF2 JUMP JUMPDEST DUP4 DUP1 REVERT JUMPDEST PUSH3 0xDFF CALLER ISZERO ISZERO PUSH3 0x1EEB JUMP JUMPDEST PUSH1 0x40 MLOAD SWAP2 PUSH3 0xE0E DUP4 PUSH3 0x1A6C JUMP JUMPDEST CALLER DUP4 MSTORE PUSH1 0x1 DUP1 PUSH1 0xA0 SHL SUB AND PUSH1 0x20 DUP4 ADD MSTORE PUSH1 0x60 PUSH1 0x40 DUP4 ADD MSTORE PUSH1 0x60 DUP1 DUP4 ADD MSTORE CALLER DUP6 MSTORE PUSH1 0x9 PUSH1 0x20 MSTORE PUSH3 0xE42 DUP3 PUSH1 0x40 DUP8 KECCAK256 PUSH3 0x2A09 JUMP JUMPDEST PUSH1 0xA SLOAD SWAP1 DUP2 LT ISZERO PUSH3 0xF6A JUMPI DUP1 PUSH1 0x1 PUSH3 0xE60 SWAP3 ADD PUSH1 0xA SSTORE PUSH3 0x1E1F JUMP JUMPDEST PUSH3 0xF56 JUMPI SWAP1 PUSH3 0xE71 SWAP2 PUSH3 0x2A09 JUMP JUMPDEST CALLER DUP4 MSTORE PUSH1 0x9 PUSH1 0x20 MSTORE PUSH1 0x40 DUP4 KECCAK256 PUSH1 0x1 DUP2 ADD DUP1 SLOAD SWAP2 SWAP3 SWAP2 DUP6 SWAP2 SWAP1 PUSH1 0x1 PUSH1 0x1 PUSH1 0xA0 SHL SUB AND DUP1 PUSH3 0xED3 JUMPI POP POP DUP1 DUP1 DUP1 SWAP4 PUSH1 0x1 DUP1 PUSH1 0xA0 SHL SUB PUSH1 0x4 SLOAD AND GAS CALL PUSH3 0xEB5 PUSH3 0x1E5A JUMP JUMPDEST POP ISZERO PUSH3 0xD5E JUMPI PUSH1 0x60 SWAP5 PUSH1 0x3 PUSH3 0xECD SWAP3 ADD PUSH3 0x265B JUMP JUMPDEST PUSH3 0xCF9 JUMP JUMPDEST DUP3 DUP1 SWAP3 SWAP5 DUP2 SWAP3 DUP3 MSTORE PUSH3 0xEED CALLER PUSH1 0x2 PUSH1 0x40 DUP6 KECCAK256 ADD PUSH3 0x2692 JUMP JUMPDEST PUSH3 0xF01 PUSH1 0x64 PUSH3 0xD90 DUP4 PUSH1 0x7 SLOAD PUSH3 0x1FB3 JUMP JUMPDEST SWAP6 SLOAD PUSH1 0x1 PUSH1 0x1 PUSH1 0xA0 SHL SUB AND GAS CALL PUSH3 0xF18 PUSH3 0x1E5A JUMP JUMPDEST POP ISZERO PUSH3 0xDEE JUMPI PUSH1 0x4 SLOAD DUP5 SWAP2 DUP3 SWAP2 DUP3 SWAP2 DUP3 SWAP2 PUSH1 0x1 PUSH1 0x1 PUSH1 0xA0 SHL SUB AND GAS CALL PUSH3 0xF3F PUSH3 0x1E5A JUMP JUMPDEST POP ISZERO PUSH3 0xD5E JUMPI PUSH1 0x60 SWAP5 PUSH1 0x3 PUSH3 0xECD SWAP3 PUSH3 0xCF2 JUMP JUMPDEST PUSH4 0x4E487B71 PUSH1 0xE0 SHL DUP6 MSTORE PUSH1 0x4 DUP6 SWAP1 MSTORE PUSH1 0x24 DUP6 REVERT JUMPDEST PUSH4 0x4E487B71 PUSH1 0xE0 SHL DUP6 MSTORE PUSH1 0x41 PUSH1 0x4 MSTORE PUSH1 0x24 DUP6 REVERT JUMPDEST PUSH4 0x4E487B71 PUSH1 0xE0 SHL PUSH1 0x0 MSTORE PUSH1 0x0 PUSH1 0x4 MSTORE PUSH1 0x24 PUSH1 0x0 REVERT JUMPDEST PUSH4 0x4E487B71 PUSH1 0xE0 SHL DUP9 MSTORE PUSH1 0x11 PUSH1 0x4 MSTORE PUSH1 0x24 DUP9 REVERT JUMPDEST PUSH3 0xFCE SWAP1 PUSH1 0x40 RETURNDATASIZE PUSH1 0x40 GT PUSH3 0xFD5 JUMPI JUMPDEST PUSH3 0xFC5 DUP2 DUP4 PUSH3 0x1A89 JUMP JUMPDEST DUP2 ADD SWAP1 PUSH3 0x1F59 JUMP JUMPDEST POP PUSH3 0xB5B JUMP JUMPDEST POP RETURNDATASIZE PUSH3 0xFB9 JUMP JUMPDEST PUSH1 0x40 MLOAD RETURNDATASIZE DUP12 DUP3 RETURNDATACOPY RETURNDATASIZE SWAP1 REVERT JUMPDEST PUSH3 0x100F SWAP2 POP PUSH1 0x20 RETURNDATASIZE PUSH1 0x20 GT PUSH3 0x1016 JUMPI JUMPDEST PUSH3 0x1006 DUP2 DUP4 PUSH3 0x1A89 JUMP JUMPDEST DUP2 ADD SWAP1 PUSH3 0x1F70 JUMP JUMPDEST CODESIZE PUSH3 0xA75 JUMP JUMPDEST POP RETURNDATASIZE PUSH3 0xFFA JUMP JUMPDEST PUSH4 0x4E487B71 PUSH1 0xE0 SHL DUP8 MSTORE PUSH1 0x11 PUSH1 0x4 MSTORE PUSH1 0x24 DUP8 REVERT JUMPDEST DUP7 DUP1 REVERT JUMPDEST PUSH3 0x105E SWAP2 SWAP7 POP PUSH1 0x20 RETURNDATASIZE PUSH1 0x20 GT PUSH3 0x1066 JUMPI JUMPDEST PUSH3 0x1055 DUP2 DUP4 PUSH3 0x1A89 JUMP JUMPDEST DUP2 ADD SWAP1 PUSH3 0x1F38 JUMP JUMPDEST SWAP5 CODESIZE PUSH3 0xA2B JUMP JUMPDEST POP RETURNDATASIZE PUSH3 0x1049 JUMP JUMPDEST PUSH1 0x40 MLOAD RETURNDATASIZE DUP10 DUP3 RETURNDATACOPY RETURNDATASIZE SWAP1 REVERT JUMPDEST PUSH3 0x1094 SWAP2 POP DUP3 RETURNDATASIZE DUP5 GT PUSH3 0x1066 JUMPI PUSH3 0x1055 DUP2 DUP4 PUSH3 0x1A89 JUMP JUMPDEST CODESIZE PUSH3 0x9DA JUMP JUMPDEST PUSH1 0x40 MLOAD RETURNDATASIZE DUP9 DUP3 RETURNDATACOPY RETURNDATASIZE SWAP1 REVERT JUMPDEST PUSH1 0x40 MLOAD RETURNDATASIZE DUP7 DUP3 RETURNDATACOPY RETURNDATASIZE SWAP1 REVERT JUMPDEST PUSH4 0x4E487B71 PUSH1 0xE0 SHL DUP7 MSTORE PUSH1 0x41 PUSH1 0x4 MSTORE PUSH1 0x24 DUP7 REVERT JUMPDEST PUSH1 0x40 MLOAD PUSH3 0x461BCD PUSH1 0xE5 SHL DUP2 MSTORE PUSH1 0x20 PUSH1 0x4 DUP3 ADD MSTORE PUSH1 0x19 PUSH1 0x24 DUP3 ADD MSTORE PUSH32 0x496E73756666696369656E7420616D6F756E742073656E742E00000000000000 PUSH1 0x44 DUP3 ADD MSTORE PUSH1 0x64 SWAP1 REVERT JUMPDEST DUP2 CALLDATALOAD DUP7 DUP2 GT PUSH3 0x1136 JUMPI PUSH1 0x20 SWAP2 PUSH3 0x112A DUP4 SWAP3 PUSH1 0x4 CALLDATASIZE SWAP2 DUP10 ADD ADD PUSH3 0x1C58 JUMP JUMPDEST DUP2 MSTORE ADD SWAP2 ADD SWAP1 PUSH3 0x8F2 JUMP JUMPDEST DUP9 DUP1 REVERT JUMPDEST POP CALLVALUE PUSH3 0x17B JUMPI PUSH1 0x20 CALLDATASIZE PUSH1 0x3 NOT ADD SLT PUSH3 0x17B JUMPI PUSH1 0x20 PUSH1 0x4 CALLDATALOAD DUP1 PUSH1 0x6 SSTORE PUSH1 0x40 MLOAD SWAP1 DUP2 MSTORE RETURN JUMPDEST POP CALLVALUE PUSH3 0x17B JUMPI PUSH1 0x20 CALLDATASIZE PUSH1 0x3 NOT ADD SLT PUSH3 0x17B JUMPI PUSH1 0x1 PUSH1 0x1 PUSH1 0xA0 SHL SUB SWAP1 PUSH1 0x40 SWAP1 DUP3 PUSH3 0x118A PUSH3 0x19A8 JUMP JUMPDEST AND DUP2 MSTORE PUSH1 0xB PUSH1 0x20 MSTORE KECCAK256 SWAP1 PUSH3 0x54C DUP2 DUP4 SLOAD AND SWAP3 DUP3 PUSH1 0x1 DUP3 ADD SLOAD AND SWAP3 PUSH1 0x2 DUP3 ADD SLOAD AND SWAP4 PUSH3 0x11BA PUSH1 0x3 DUP4 ADD PUSH3 0x1AAC JUMP JUMPDEST SWAP2 PUSH3 0x11C9 PUSH1 0x4 DUP3 ADD PUSH3 0x1AAC JUMP JUMPDEST PUSH1 0x5 DUP3 ADD SLOAD PUSH1 0x6 DUP4 ADD SLOAD PUSH1 0x7 DUP5 ADD SLOAD SWAP2 PUSH3 0x11E7 PUSH1 0x8 DUP7 ADD PUSH3 0x1AAC JUMP JUMPDEST SWAP4 PUSH1 0xE PUSH3 0x11F8 PUSH1 0x9 DUP9 ADD PUSH3 0x1AAC JUMP JUMPDEST SWAP7 ADD SLOAD SWAP8 PUSH1 0x40 MLOAD SWAP12 DUP13 SWAP12 PUSH1 0xFF DUP1 DUP13 PUSH1 0x8 SHR AND SWAP12 AND SWAP10 DUP14 PUSH3 0x1B9F JUMP JUMPDEST POP CALLVALUE PUSH3 0x17B JUMPI PUSH1 0x60 CALLDATASIZE PUSH1 0x3 NOT ADD SLT PUSH3 0x17B JUMPI PUSH3 0x1232 PUSH3 0x19A8 JUMP JUMPDEST PUSH1 0x24 CALLDATALOAD SWAP2 SWAP1 PUSH1 0x1 PUSH1 0x1 PUSH1 0xA0 SHL SUB DUP4 AND DUP4 SUB PUSH3 0x468 JUMPI PUSH3 0x1266 PUSH1 0x1 SWAP2 PUSH1 0x20 SWAP5 PUSH3 0x125C PUSH3 0x28C2 JUMP JUMPDEST PUSH1 0x44 CALLDATALOAD SWAP2 PUSH3 0x2900 JUMP JUMPDEST SWAP2 SSTORE PUSH1 0x40 MLOAD SWAP1 ISZERO ISZERO DUP2 MSTORE RETURN JUMPDEST POP CALLVALUE PUSH3 0x17B JUMPI PUSH1 0x20 CALLDATASIZE PUSH1 0x3 NOT ADD SLT PUSH3 0x17B JUMPI PUSH1 0x4 CALLDATALOAD PUSH1 0xC SLOAD DUP2 LT ISZERO PUSH3 0x586 JUMPI PUSH3 0x129F SWAP1 PUSH3 0x19BF JUMP JUMPDEST POP DUP1 SLOAD PUSH1 0x1 DUP3 ADD SLOAD PUSH1 0x2 DUP4 ADD SLOAD PUSH1 0x1 PUSH1 0x1 PUSH1 0xA0 SHL SUB SWAP1 DUP2 AND SWAP4 SWAP2 DUP2 AND SWAP3 PUSH3 0x54C SWAP3 SWAP2 AND PUSH3 0x11BA PUSH1 0x3 DUP4 ADD PUSH3 0x1AAC JUMP JUMPDEST POP CALLVALUE PUSH3 0x17B JUMPI PUSH1 0x20 DUP1 PUSH1 0x3 NOT CALLDATASIZE ADD SLT PUSH3 0x586 JUMPI PUSH3 0x12F0 PUSH3 0x19A8 JUMP JUMPDEST PUSH1 0x1 SLOAD PUSH1 0x1 PUSH1 0x1 PUSH1 0xA0 SHL SUB SWAP2 SWAP1 PUSH3 0x130C SWAP1 DUP4 AND CALLER EQ PUSH3 0x1E8F JUMP JUMPDEST PUSH3 0x1316 PUSH3 0x28C2 JUMP JUMPDEST DUP2 DUP2 AND SWAP3 DUP4 ISZERO ISZERO SWAP1 PUSH3 0x1329 DUP3 PUSH3 0x1EEB JUMP JUMPDEST DUP4 PUSH1 0x3 SLOAD AND SWAP4 PUSH1 0x40 MLOAD SWAP1 DUP3 DUP3 PUSH1 0x4 DUP2 PUSH4 0x15AB88C9 PUSH1 0xE3 SHL SWAP10 DUP11 DUP3 MSTORE GAS STATICCALL SWAP2 DUP3 ISZERO PUSH3 0x18A8 JUMPI PUSH3 0x1398 SWAP3 DUP5 SWAP2 DUP11 SWAP2 PUSH3 0x18B3 JUMPI JUMPDEST POP PUSH1 0x2 SLOAD PUSH1 0x40 MLOAD PUSH4 0xE6A43905 PUSH1 0xE0 SHL DUP2 MSTORE PUSH1 0x1 PUSH1 0x1 PUSH1 0xA0 SHL SUB DUP1 DUP11 AND PUSH1 0x4 DUP4 ADD MSTORE SWAP1 SWAP3 AND PUSH1 0x24 DUP4 ADD MSTORE SWAP1 SWAP4 DUP5 SWAP2 DUP5 AND SWAP1 DUP3 SWAP1 DUP2 SWAP1 PUSH1 0x44 DUP3 ADD SWAP1 JUMP JUMPDEST SUB SWAP2 GAS STATICCALL SWAP2 DUP3 ISZERO PUSH3 0x18A8 JUMPI DUP9 SWAP3 PUSH3 0x1884 JUMPI JUMPDEST POP DUP7 EXTCODESIZE ISZERO PUSH3 0x1880 JUMPI PUSH1 0x40 MLOAD PUSH4 0x6DA678F PUSH1 0xE5 SHL DUP2 MSTORE SWAP2 DUP2 AND PUSH1 0x4 DUP4 ADD MSTORE PUSH1 0x24 SWAP2 DUP9 DUP2 DUP5 DUP2 DUP4 DUP13 GAS CALL DUP1 ISZERO PUSH3 0xFDD JUMPI PUSH3 0x1849 JUMPI JUMPDEST POP SWAP1 DUP8 SWAP4 SWAP3 SWAP2 DUP8 DUP6 MSTORE PUSH1 0xB DUP4 MSTORE PUSH1 0x40 DUP6 KECCAK256 SWAP7 PUSH1 0x40 DUP3 PUSH1 0x3 SLOAD AND PUSH1 0x64 DUP12 DUP4 MLOAD SWAP10 DUP11 SWAP4 DUP5 SWAP3 PUSH4 0xE79A4089 PUSH1 0xE0 SHL DUP5 MSTORE PUSH1 0x4 DUP5 ADD MSTORE DUP4 DUP10 DUP5 ADD MSTORE ADDRESS PUSH1 0x44 DUP5 ADD MSTORE GAS CALL SWAP5 DUP6 ISZERO PUSH3 0x4CF JUMPI DUP11 SWAP7 DUP12 SWAP7 PUSH3 0x181A JUMPI JUMPDEST POP PUSH3 0x143F SWAP1 PUSH3 0x1EEB JUMP JUMPDEST DUP9 DUP11 MSTORE PUSH1 0xB DUP5 MSTORE PUSH1 0xE PUSH1 0x40 DUP12 KECCAK256 ADD SLOAD PUSH1 0xFF DUP2 AND SWAP1 DUP2 PUSH3 0x180A JUMPI JUMPDEST POP ISZERO PUSH3 0x17C6 JUMPI DUP9 SWAP1 DUP3 PUSH1 0x8 SLOAD AND PUSH1 0x40 MLOAD SWAP1 DUP13 DUP8 DUP4 DUP9 DUP2 PUSH4 0x70A08231 PUSH1 0xE0 SHL SWAP9 DUP10 DUP3 MSTORE ADDRESS PUSH1 0x4 DUP4 ADD MSTORE GAS STATICCALL SWAP2 DUP3 ISZERO PUSH3 0x17B9 JUMPI DUP12 SWAP2 SWAP3 PUSH3 0x177F JUMPI JUMPDEST PUSH3 0x14A2 SWAP4 POP PUSH3 0x2900 JUMP JUMPDEST ISZERO PUSH3 0x174B JUMPI SWAP1 DUP3 SWAP2 DUP12 SWAP5 SWAP4 PUSH1 0x8 SLOAD AND SWAP1 PUSH1 0x40 MLOAD PUSH4 0xC45A0155 PUSH1 0xE0 SHL DUP2 MSTORE DUP8 DUP2 PUSH1 0x4 DUP2 DUP7 GAS STATICCALL SWAP2 DUP3 ISZERO PUSH3 0x106E JUMPI DUP9 SWAP2 DUP9 SWAP4 PUSH3 0x1727 JUMPI JUMPDEST POP PUSH1 0x4 PUSH1 0x40 MLOAD DUP1 SWAP6 DUP2 SWAP4 DUP3 MSTORE GAS STATICCALL SWAP1 DUP2 ISZERO PUSH3 0x109B JUMPI PUSH3 0x1538 SWAP11 DUP9 SWAP4 DUP9 SWAP4 PUSH3 0x1703 JUMPI JUMPDEST POP PUSH1 0x40 MLOAD PUSH4 0x64E329CB PUSH1 0xE1 SHL DUP2 MSTORE PUSH1 0x1 PUSH1 0x1 PUSH1 0xA0 SHL SUB SWAP2 DUP3 AND PUSH1 0x4 DUP3 ADD MSTORE SWAP3 AND PUSH1 0x24 DUP4 ADD MSTORE SWAP1 SWAP10 DUP11 SWAP2 SWAP1 DUP3 SWAP1 DUP9 SWAP1 DUP8 SWAP1 DUP4 SWAP1 PUSH1 0x44 DUP3 ADD SWAP1 JUMP JUMPDEST SUB SWAP4 AND GAS CALL SWAP8 DUP9 ISZERO PUSH3 0x10A6 JUMPI DUP5 SWAP9 PUSH3 0x16DF JUMPI JUMPDEST POP PUSH1 0x8 SLOAD PUSH1 0x40 MLOAD SWAP2 DUP3 MSTORE ADDRESS PUSH1 0x4 DUP4 ADD MSTORE DUP3 AND SWAP1 SELFBALANCE DUP7 DUP3 DUP7 DUP2 DUP16 GAS STATICCALL SWAP3 DUP4 ISZERO PUSH3 0x109B JUMPI DUP13 SWAP3 DUP8 SWAP5 PUSH3 0x169F JUMPI JUMPDEST POP SWAP2 PUSH1 0xC4 SWAP2 PUSH1 0x60 SWAP5 SWAP4 PUSH1 0x40 MLOAD SWAP9 DUP10 SWAP6 DUP7 SWAP5 PUSH4 0xF305D719 PUSH1 0xE0 SHL DUP7 MSTORE PUSH1 0x4 DUP7 ADD MSTORE DUP10 DUP6 ADD MSTORE DUP1 PUSH1 0x44 DUP6 ADD MSTORE PUSH1 0x64 DUP5 ADD MSTORE ADDRESS PUSH1 0x84 DUP5 ADD MSTORE TIMESTAMP PUSH1 0xA4 DUP5 ADD MSTORE GAS CALL SWAP1 DUP2 ISZERO PUSH3 0x4CF JUMPI DUP5 SWAP4 PUSH1 0x44 SWAP3 PUSH3 0x167B JUMPI JUMPDEST POP DUP11 DUP2 PUSH1 0x8 SLOAD AND SWAP2 PUSH1 0x40 MLOAD SWAP10 DUP11 SWAP6 DUP7 SWAP5 PUSH4 0x95EA7B3 PUSH1 0xE0 SHL DUP7 MSTORE PUSH1 0x4 DUP7 ADD MSTORE PUSH1 0x0 NOT SWAP1 DUP6 ADD MSTORE AND GAS CALL DUP1 ISZERO PUSH3 0x106E JUMPI PUSH32 0x540BCEC33387745B2CED30977DCFE4A623A245511EB0A133989C27C8BB95B4A9 SWAP6 PUSH1 0x40 SWAP6 PUSH1 0xE SWAP3 PUSH3 0x1647 JUMPI JUMPDEST POP ADD DUP1 SLOAD PUSH2 0xFFFF NOT AND PUSH2 0x100 OR SWAP1 SSTORE DUP4 MLOAD SWAP3 DUP4 MSTORE DUP3 ADD MSTORE LOG2 PUSH1 0x1 DUP2 SSTORE DUP1 RETURN JUMPDEST PUSH3 0x166B SWAP1 DUP5 RETURNDATASIZE DUP7 GT PUSH3 0x1673 JUMPI JUMPDEST PUSH3 0x1662 DUP2 DUP4 PUSH3 0x1A89 JUMP JUMPDEST DUP2 ADD SWAP1 PUSH3 0x28E6 JUMP JUMPDEST POP CODESIZE PUSH3 0x1628 JUMP JUMPDEST POP RETURNDATASIZE PUSH3 0x1656 JUMP JUMPDEST PUSH3 0x1697 SWAP1 PUSH1 0x60 RETURNDATASIZE PUSH1 0x60 GT PUSH3 0x4C7 JUMPI PUSH3 0x4B4 DUP2 DUP4 PUSH3 0x1A89 JUMP JUMPDEST POP POP PUSH3 0x15CA JUMP JUMPDEST SWAP4 POP SWAP2 POP SWAP5 POP DUP6 DUP3 DUP2 RETURNDATASIZE DUP4 GT PUSH3 0x16D7 JUMPI JUMPDEST PUSH3 0x16BD DUP2 DUP4 PUSH3 0x1A89 JUMP JUMPDEST DUP2 ADD SUB SLT PUSH3 0x468 JUMPI SWAP1 MLOAD DUP12 SWAP5 SWAP1 SWAP2 DUP12 SWAP2 SWAP1 PUSH1 0xC4 PUSH3 0x157A JUMP JUMPDEST POP RETURNDATASIZE PUSH3 0x16B1 JUMP JUMPDEST PUSH3 0x16FB SWAP2 SWAP9 POP DUP6 RETURNDATASIZE DUP8 GT PUSH3 0x1066 JUMPI PUSH3 0x1055 DUP2 DUP4 PUSH3 0x1A89 JUMP JUMPDEST SWAP7 CODESIZE PUSH3 0x154D JUMP JUMPDEST PUSH3 0x171F SWAP2 SWAP4 POP DUP5 RETURNDATASIZE DUP7 GT PUSH3 0x1066 JUMPI PUSH3 0x1055 DUP2 DUP4 PUSH3 0x1A89 JUMP JUMPDEST SWAP2 CODESIZE PUSH3 0x14FF JUMP JUMPDEST PUSH3 0x1743 SWAP2 SWAP4 POP DUP3 RETURNDATASIZE DUP5 GT PUSH3 0x1066 JUMPI PUSH3 0x1055 DUP2 DUP4 PUSH3 0x1A89 JUMP JUMPDEST SWAP2 CODESIZE PUSH3 0x14DA JUMP JUMPDEST PUSH1 0x40 MLOAD PUSH3 0x461BCD PUSH1 0xE5 SHL DUP2 MSTORE PUSH1 0x4 DUP2 ADD DUP7 SWAP1 MSTORE PUSH1 0xD DUP2 DUP7 ADD MSTORE PUSH13 0x2737BA1030B8383937BB32B217 PUSH1 0x99 SHL PUSH1 0x44 DUP3 ADD MSTORE PUSH1 0x64 SWAP1 REVERT JUMPDEST SWAP2 POP POP DUP7 DUP3 DUP2 RETURNDATASIZE DUP4 GT PUSH3 0x17B1 JUMPI JUMPDEST PUSH3 0x179A DUP2 DUP4 PUSH3 0x1A89 JUMP JUMPDEST DUP2 ADD SUB SLT PUSH3 0x468 JUMPI DUP10 PUSH3 0x14A2 SWAP3 MLOAD SWAP2 PUSH3 0x1496 JUMP JUMPDEST POP RETURNDATASIZE PUSH3 0x178E JUMP JUMPDEST POP PUSH1 0x40 MLOAD SWAP1 RETURNDATASIZE SWAP1 DUP3 RETURNDATACOPY RETURNDATASIZE SWAP1 REVERT JUMPDEST PUSH1 0x40 MLOAD PUSH3 0x461BCD PUSH1 0xE5 SHL DUP2 MSTORE PUSH1 0x4 DUP2 ADD DUP6 SWAP1 MSTORE PUSH1 0x17 DUP2 DUP6 ADD MSTORE PUSH32 0x74726164696E6720697320616C7265616479206F70656E000000000000000000 PUSH1 0x44 DUP3 ADD MSTORE PUSH1 0x64 SWAP1 REVERT JUMPDEST PUSH1 0xFF SWAP2 POP PUSH1 0x8 SHR AND ISZERO CODESIZE PUSH3 0x145A JUMP JUMPDEST PUSH3 0x143F SWAP8 POP PUSH3 0x183E SWAP2 SWAP7 POP PUSH1 0x40 RETURNDATASIZE PUSH1 0x40 GT PUSH3 0xFD5 JUMPI PUSH3 0xFC5 DUP2 DUP4 PUSH3 0x1A89 JUMP JUMPDEST SWAP7 SWAP1 SWAP7 SWAP6 SWAP1 PUSH3 0x1433 JUMP JUMPDEST PUSH8 0xFFFFFFFFFFFFFFFF DUP2 SWAP10 SWAP3 SWAP6 SWAP5 SWAP4 SWAP10 GT PUSH3 0x186D JUMPI PUSH1 0x40 MSTORE SWAP7 SWAP1 SWAP2 SWAP3 CODESIZE PUSH3 0x13E2 JUMP JUMPDEST PUSH4 0x4E487B71 PUSH1 0xE0 SHL DUP3 MSTORE PUSH1 0x41 PUSH1 0x4 MSTORE DUP9 DUP3 REVERT JUMPDEST DUP8 DUP1 REVERT JUMPDEST PUSH3 0x18A0 SWAP2 SWAP3 POP DUP4 RETURNDATASIZE DUP6 GT PUSH3 0x1066 JUMPI PUSH3 0x1055 DUP2 DUP4 PUSH3 0x1A89 JUMP JUMPDEST SWAP1 CODESIZE PUSH3 0x13AC JUMP JUMPDEST PUSH1 0x40 MLOAD RETURNDATASIZE DUP11 DUP3 RETURNDATACOPY RETURNDATASIZE SWAP1 REVERT JUMPDEST PUSH3 0x18CE SWAP2 POP DUP3 RETURNDATASIZE DUP5 GT PUSH3 0x1066 JUMPI PUSH3 0x1055 DUP2 DUP4 PUSH3 0x1A89 JUMP JUMPDEST CODESIZE PUSH3 0x135D JUMP JUMPDEST POP CALLVALUE PUSH3 0x17B JUMPI DUP1 PUSH1 0x3 NOT CALLDATASIZE ADD SLT PUSH3 0x17B JUMPI PUSH1 0x1 SLOAD DUP2 SWAP1 DUP2 SWAP1 DUP2 SWAP1 SELFBALANCE SWAP1 PUSH1 0x1 PUSH1 0x1 PUSH1 0xA0 SHL SUB AND GAS CALL PUSH3 0x1908 PUSH3 0x1E5A JUMP JUMPDEST POP ISZERO PUSH3 0x191A JUMPI PUSH1 0x20 PUSH1 0x40 MLOAD PUSH1 0x1 DUP2 MSTORE RETURN JUMPDEST PUSH1 0x40 MLOAD PUSH3 0x461BCD PUSH1 0xE5 SHL DUP2 MSTORE PUSH1 0x20 PUSH1 0x4 DUP3 ADD MSTORE PUSH1 0x14 PUSH1 0x24 DUP3 ADD MSTORE PUSH20 0x2A3930B739B332B91022AA24102330B4B632B217 PUSH1 0x61 SHL PUSH1 0x44 DUP3 ADD MSTORE PUSH1 0x64 SWAP1 REVERT JUMPDEST POP CALLVALUE PUSH3 0x17B JUMPI DUP1 PUSH1 0x3 NOT CALLDATASIZE ADD SLT PUSH3 0x17B JUMPI PUSH1 0x1 SLOAD PUSH1 0x40 MLOAD PUSH1 0x1 PUSH1 0x1 PUSH1 0xA0 SHL SUB SWAP1 SWAP2 AND DUP2 MSTORE PUSH1 0x20 SWAP1 RETURN JUMPDEST SWAP1 POP CALLVALUE PUSH3 0x586 JUMPI DUP2 PUSH1 0x3 NOT CALLDATASIZE ADD SLT PUSH3 0x586 JUMPI PUSH1 0x4 SLOAD PUSH1 0x1 PUSH1 0x1 PUSH1 0xA0 SHL SUB AND DUP2 MSTORE PUSH1 0x20 SWAP1 RETURN JUMPDEST PUSH1 0x4 CALLDATALOAD SWAP1 PUSH1 0x1 PUSH1 0x1 PUSH1 0xA0 SHL SUB DUP3 AND DUP3 SUB PUSH3 0x468 JUMPI JUMP JUMPDEST PUSH1 0xC SLOAD DUP2 LT ISZERO PUSH3 0x19FB JUMPI PUSH1 0xF SWAP1 PUSH1 0xC PUSH1 0x0 MSTORE MUL PUSH32 0xDF6966C971051C3D54EC59162606531493A51404A002842F56009D7E5CF4A8C7 ADD SWAP1 PUSH1 0x0 SWAP1 JUMP JUMPDEST PUSH4 0x4E487B71 PUSH1 0xE0 SHL PUSH1 0x0 MSTORE PUSH1 0x32 PUSH1 0x4 MSTORE PUSH1 0x24 PUSH1 0x0 REVERT JUMPDEST SWAP1 PUSH1 0x1 DUP3 DUP2 SHR SWAP3 AND DUP1 ISZERO PUSH3 0x1A43 JUMPI JUMPDEST PUSH1 0x20 DUP4 LT EQ PUSH3 0x1A2D JUMPI JUMP JUMPDEST PUSH4 0x4E487B71 PUSH1 0xE0 SHL PUSH1 0x0 MSTORE PUSH1 0x22 PUSH1 0x4 MSTORE PUSH1 0x24 PUSH1 0x0 REVERT JUMPDEST SWAP2 PUSH1 0x7F AND SWAP2 PUSH3 0x1A21 JUMP JUMPDEST PUSH2 0x1A0 DUP2 ADD SWAP1 DUP2 LT PUSH8 0xFFFFFFFFFFFFFFFF DUP3 GT OR PUSH3 0x570 JUMPI PUSH1 0x40 MSTORE JUMP JUMPDEST PUSH1 0x80 DUP2 ADD SWAP1 DUP2 LT PUSH8 0xFFFFFFFFFFFFFFFF DUP3 GT OR PUSH3 0x570 JUMPI PUSH1 0x40 MSTORE JUMP JUMPDEST SWAP1 PUSH1 0x1F DUP1 NOT SWAP2 ADD AND DUP2 ADD SWAP1 DUP2 LT PUSH8 0xFFFFFFFFFFFFFFFF DUP3 GT OR PUSH3 0x570 JUMPI PUSH1 0x40 MSTORE JUMP JUMPDEST SWAP1 PUSH1 0x40 MLOAD SWAP2 DUP3 PUSH1 0x0 DUP3 SLOAD PUSH3 0x1AC1 DUP2 PUSH3 0x1A11 JUMP JUMPDEST SWAP1 DUP2 DUP5 MSTORE PUSH1 0x20 SWAP5 PUSH1 0x1 SWAP2 PUSH1 0x1 DUP2 AND SWAP1 DUP2 PUSH1 0x0 EQ PUSH3 0x1B39 JUMPI POP PUSH1 0x1 EQ PUSH3 0x1AF6 JUMPI JUMPDEST POP POP POP PUSH3 0x1AF4 SWAP3 POP SUB DUP4 PUSH3 0x1A89 JUMP JUMPDEST JUMP JUMPDEST PUSH1 0x0 SWAP1 DUP2 MSTORE DUP6 DUP2 KECCAK256 SWAP6 SWAP4 POP SWAP2 SWAP1 JUMPDEST DUP2 DUP4 LT PUSH3 0x1B20 JUMPI POP POP PUSH3 0x1AF4 SWAP4 POP DUP3 ADD ADD CODESIZE DUP1 DUP1 PUSH3 0x1AE3 JUMP JUMPDEST DUP6 SLOAD DUP9 DUP5 ADD DUP6 ADD MSTORE SWAP5 DUP6 ADD SWAP5 DUP8 SWAP5 POP SWAP2 DUP4 ADD SWAP2 PUSH3 0x1B04 JUMP JUMPDEST SWAP3 POP POP POP PUSH3 0x1AF4 SWAP5 SWAP3 POP PUSH1 0xFF NOT AND DUP3 DUP5 ADD MSTORE ISZERO ISZERO PUSH1 0x5 SHL DUP3 ADD ADD CODESIZE DUP1 DUP1 PUSH3 0x1AE3 JUMP JUMPDEST SWAP2 SWAP1 DUP3 MLOAD SWAP3 DUP4 DUP3 MSTORE PUSH1 0x0 JUMPDEST DUP5 DUP2 LT PUSH3 0x1B8A JUMPI POP POP DUP3 PUSH1 0x0 PUSH1 0x20 DUP1 SWAP5 SWAP6 DUP5 ADD ADD MSTORE PUSH1 0x1F DUP1 NOT SWAP2 ADD AND ADD ADD SWAP1 JUMP JUMPDEST PUSH1 0x20 DUP2 DUP4 ADD DUP2 ADD MLOAD DUP5 DUP4 ADD DUP3 ADD MSTORE ADD PUSH3 0x1B68 JUMP JUMPDEST SWAP11 SWAP13 SWAP12 SWAP9 SWAP4 SWAP5 PUSH3 0x1BED PUSH3 0x1C1B SWAP8 SWAP7 PUSH3 0x1BFC SWAP4 DUP15 PUSH2 0x160 SWAP15 SWAP12 SWAP7 PUSH3 0x1C2B SWAP14 SWAP9 PUSH2 0x180 SWAP4 PUSH1 0x1 DUP1 PUSH1 0xA0 SHL SUB SWAP3 DUP4 DUP1 SWAP3 AND DUP6 MSTORE AND PUSH1 0x20 DUP5 ADD MSTORE AND PUSH1 0x40 DUP3 ADD MSTORE DUP2 PUSH1 0x60 DUP3 ADD MSTORE ADD SWAP1 PUSH3 0x1B5D JUMP JUMPDEST DUP13 DUP2 SUB PUSH1 0x80 DUP15 ADD MSTORE SWAP1 PUSH3 0x1B5D JUMP JUMPDEST SWAP4 PUSH1 0xA0 DUP12 ADD MSTORE PUSH1 0xC0 DUP11 ADD MSTORE PUSH1 0xE0 DUP10 ADD MSTORE DUP8 DUP3 SUB PUSH2 0x100 DUP10 ADD MSTORE PUSH3 0x1B5D JUMP JUMPDEST SWAP1 DUP6 DUP3 SUB PUSH2 0x120 DUP8 ADD MSTORE PUSH3 0x1B5D JUMP JUMPDEST SWAP5 ISZERO ISZERO PUSH2 0x140 DUP5 ADD MSTORE ISZERO ISZERO SWAP2 ADD MSTORE JUMP JUMPDEST PUSH8 0xFFFFFFFFFFFFFFFF DUP2 GT PUSH3 0x570 JUMPI PUSH1 0x1F ADD PUSH1 0x1F NOT AND PUSH1 0x20 ADD SWAP1 JUMP JUMPDEST DUP2 PUSH1 0x1F DUP3 ADD SLT ISZERO PUSH3 0x468 JUMPI DUP1 CALLDATALOAD SWAP1 PUSH3 0x1C72 DUP3 PUSH3 0x1C3B JUMP JUMPDEST SWAP3 PUSH3 0x1C82 PUSH1 0x40 MLOAD SWAP5 DUP6 PUSH3 0x1A89 JUMP JUMPDEST DUP3 DUP5 MSTORE PUSH1 0x20 DUP4 DUP4 ADD ADD GT PUSH3 0x468 JUMPI DUP2 PUSH1 0x0 SWAP3 PUSH1 0x20 DUP1 SWAP4 ADD DUP4 DUP7 ADD CALLDATACOPY DUP4 ADD ADD MSTORE SWAP1 JUMP JUMPDEST PUSH1 0x80 DUP3 ADD SWAP2 DUP1 PUSH1 0x0 JUMPDEST PUSH1 0x4 DUP2 LT PUSH3 0x1CBE JUMPI POP POP POP POP SWAP1 JUMP JUMPDEST SWAP1 SWAP2 SWAP3 SWAP4 PUSH3 0x1CD6 DUP2 DUP6 PUSH1 0x1 SWAP4 SUB DUP6 MSTORE DUP7 MLOAD PUSH3 0x1B5D JUMP JUMPDEST SWAP5 PUSH1 0x20 SWAP1 DUP2 ADD SWAP5 SWAP4 ADD SWAP2 ADD PUSH3 0x1CAE JUMP JUMPDEST PUSH1 0x20 DUP1 DUP3 ADD SWAP1 DUP1 DUP4 MSTORE DUP4 MLOAD DUP1 SWAP3 MSTORE PUSH1 0x40 SWAP3 PUSH1 0x40 DUP2 ADD DUP3 PUSH1 0x40 DUP6 PUSH1 0x5 SHL DUP5 ADD ADD SWAP7 ADD SWAP5 PUSH1 0x0 SWAP3 JUMPDEST DUP6 DUP5 LT PUSH3 0x1D1F JUMPI POP POP POP POP POP POP POP SWAP1 JUMP JUMPDEST SWAP1 SWAP2 SWAP3 SWAP4 SWAP5 SWAP6 SWAP7 DUP6 DUP1 PUSH1 0x1 SWAP3 PUSH1 0x3F NOT DUP6 DUP3 SUB ADD DUP8 MSTORE DUP11 MLOAD SWAP1 PUSH3 0x1DF3 PUSH3 0x1DDE PUSH3 0x1DC9 PUSH3 0x1D96 PUSH3 0x1D82 PUSH2 0x1A0 DUP11 DUP1 PUSH1 0xA0 SHL SUB DUP1 DUP10 MLOAD AND DUP9 MSTORE DUP1 DUP11 DUP11 ADD MLOAD AND DUP11 DUP10 ADD MSTORE DUP14 DUP10 ADD MLOAD AND DUP14 DUP9 ADD MSTORE PUSH1 0x60 SWAP1 DUP1 DUP3 DUP11 ADD MLOAD SWAP3 DUP10 ADD MSTORE DUP8 ADD SWAP1 PUSH3 0x1B5D JUMP JUMPDEST PUSH1 0x80 DUP1 DUP9 ADD MLOAD SWAP1 DUP8 DUP4 SUB SWAP1 DUP9 ADD MSTORE PUSH3 0x1B5D JUMP JUMPDEST PUSH1 0xA0 DUP1 DUP8 ADD MLOAD SWAP1 DUP7 ADD MSTORE PUSH1 0xC0 DUP1 DUP8 ADD MLOAD SWAP1 DUP7 ADD MSTORE PUSH1 0xE0 DUP1 DUP8 ADD MLOAD SWAP1 DUP7 ADD MSTORE PUSH2 0x100 DUP1 DUP8 ADD MLOAD SWAP1 DUP7 DUP4 SUB SWAP1 DUP8 ADD MSTORE PUSH3 0x1B5D JUMP JUMPDEST PUSH2 0x120 DUP1 DUP7 ADD MLOAD SWAP1 DUP6 DUP4 SUB SWAP1 DUP7 ADD MSTORE PUSH3 0x1B5D JUMP JUMPDEST PUSH2 0x140 DUP1 DUP6 ADD MLOAD SWAP1 DUP5 DUP4 SUB SWAP1 DUP6 ADD MSTORE PUSH3 0x1CA5 JUMP JUMPDEST SWAP2 PUSH2 0x160 DUP1 DUP3 ADD MLOAD ISZERO ISZERO SWAP1 DUP4 ADD MSTORE PUSH2 0x180 DUP1 SWAP2 ADD MLOAD ISZERO ISZERO SWAP2 ADD MSTORE SWAP10 ADD SWAP5 ADD SWAP5 ADD SWAP3 SWAP6 SWAP5 SWAP4 SWAP2 SWAP1 PUSH3 0x1D0D JUMP JUMPDEST PUSH1 0xA SLOAD DUP2 LT ISZERO PUSH3 0x19FB JUMPI PUSH1 0xA PUSH1 0x0 MSTORE PUSH1 0x2 SHL PUSH32 0xC65A7BB8D6351C1CF70C95A316CC6A92839C986682D98BC35F958F4883F9D2A8 ADD SWAP1 PUSH1 0x0 SWAP1 JUMP JUMPDEST RETURNDATASIZE ISZERO PUSH3 0x1E8A JUMPI RETURNDATASIZE SWAP1 PUSH3 0x1E6E DUP3 PUSH3 0x1C3B JUMP JUMPDEST SWAP2 PUSH3 0x1E7E PUSH1 0x40 MLOAD SWAP4 DUP5 PUSH3 0x1A89 JUMP JUMPDEST DUP3 MSTORE RETURNDATASIZE PUSH1 0x0 PUSH1 0x20 DUP5 ADD RETURNDATACOPY JUMP JUMPDEST PUSH1 0x60 SWAP1 JUMP JUMPDEST ISZERO PUSH3 0x1E97 JUMPI JUMP JUMPDEST PUSH1 0x40 MLOAD PUSH3 0x461BCD PUSH1 0xE5 SHL DUP2 MSTORE PUSH1 0x20 PUSH1 0x4 DUP3 ADD MSTORE PUSH1 0x26 PUSH1 0x24 DUP3 ADD MSTORE PUSH32 0x4F6E6C7920746865206F776E65722063616E2063616C6C20746869732066756E PUSH1 0x44 DUP3 ADD MSTORE PUSH6 0x31BA34B7B717 PUSH1 0xD1 SHL PUSH1 0x64 DUP3 ADD MSTORE PUSH1 0x84 SWAP1 REVERT JUMPDEST ISZERO PUSH3 0x1EF3 JUMPI JUMP JUMPDEST PUSH1 0x40 MLOAD PUSH3 0x461BCD PUSH1 0xE5 SHL DUP2 MSTORE PUSH1 0x20 PUSH1 0x4 DUP3 ADD MSTORE PUSH1 0x1F PUSH1 0x24 DUP3 ADD MSTORE PUSH32 0x5A65726F2061646472657373657320617265206E6F7420616C6C6F7765642E00 PUSH1 0x44 DUP3 ADD MSTORE PUSH1 0x64 SWAP1 REVERT JUMPDEST SWAP1 DUP2 PUSH1 0x20 SWAP2 SUB SLT PUSH3 0x468 JUMPI MLOAD PUSH1 0x1 PUSH1 0x1 PUSH1 0xA0 SHL SUB DUP2 AND DUP2 SUB PUSH3 0x468 JUMPI SWAP1 JUMP JUMPDEST SWAP2 SWAP1 DUP3 PUSH1 0x40 SWAP2 SUB SLT PUSH3 0x468 JUMPI PUSH1 0x20 DUP3 MLOAD SWAP3 ADD MLOAD SWAP1 JUMP JUMPDEST SWAP1 DUP2 PUSH1 0x20 SWAP2 SUB SLT PUSH3 0x468 JUMPI MLOAD PUSH1 0xFF DUP2 AND DUP2 SUB PUSH3 0x468 JUMPI SWAP1 JUMP JUMPDEST PUSH1 0xFF AND PUSH1 0x4D DUP2 GT PUSH3 0x1F9D JUMPI PUSH1 0xA EXP SWAP1 JUMP JUMPDEST PUSH4 0x4E487B71 PUSH1 0xE0 SHL PUSH1 0x0 MSTORE PUSH1 0x11 PUSH1 0x4 MSTORE PUSH1 0x24 PUSH1 0x0 REVERT JUMPDEST DUP2 DUP2 MUL SWAP3 SWAP2 DUP2 ISZERO SWAP2 DUP5 DIV EQ OR ISZERO PUSH3 0x1F9D JUMPI JUMP JUMPDEST SWAP2 SWAP1 DUP3 SUB SWAP2 DUP3 GT PUSH3 0x1F9D JUMPI JUMP JUMPDEST SWAP2 SWAP1 DUP3 ADD DUP1 SWAP3 GT PUSH3 0x1F9D JUMPI JUMP JUMPDEST DUP2 DUP2 LT PUSH3 0x1FEF JUMPI POP POP JUMP JUMPDEST PUSH1 0x0 DUP2 SSTORE PUSH1 0x1 ADD PUSH3 0x1FE3 JUMP JUMPDEST PUSH3 0x2008 DUP2 SLOAD PUSH3 0x1A11 JUMP JUMPDEST SWAP1 DUP2 PUSH3 0x2013 JUMPI POP POP JUMP JUMPDEST DUP2 PUSH1 0x1F PUSH1 0x0 SWAP4 GT PUSH1 0x1 EQ PUSH3 0x2026 JUMPI POP SSTORE JUMP JUMPDEST SWAP1 DUP1 DUP4 SWAP2 DUP3 MSTORE PUSH3 0x2047 PUSH1 0x1F PUSH1 0x20 DUP5 KECCAK256 SWAP5 ADD PUSH1 0x5 SHR DUP5 ADD PUSH1 0x1 DUP6 ADD PUSH3 0x1FE3 JUMP JUMPDEST SSTORE SSTORE JUMP JUMPDEST PUSH1 0x1 DUP1 PUSH1 0xA0 SHL SUB DUP1 DUP4 MLOAD AND SWAP1 PUSH1 0x1 PUSH1 0x1 PUSH1 0x60 SHL SUB PUSH1 0xA0 SHL SWAP2 DUP3 DUP5 SLOAD AND OR DUP4 SSTORE PUSH1 0x1 SWAP1 DUP2 DUP5 ADD SWAP3 PUSH1 0x20 SWAP4 DUP3 DUP6 DUP9 ADD MLOAD AND DUP3 DUP3 SLOAD AND OR SWAP1 SSTORE PUSH1 0x2 DUP6 ADD SWAP2 PUSH1 0x40 DUP8 ADD MLOAD AND SWAP1 DUP3 SLOAD AND OR SWAP1 SSTORE PUSH1 0x3 SWAP2 DUP3 DUP5 ADD SWAP3 PUSH1 0x60 DUP7 ADD MLOAD SWAP2 DUP3 MLOAD SWAP5 PUSH8 0xFFFFFFFFFFFFFFFF SWAP6 DUP7 DUP2 GT PUSH3 0x570 JUMPI PUSH3 0x20C1 DUP3 SLOAD PUSH3 0x1A11 JUMP JUMPDEST SWAP5 PUSH1 0x1F SWAP6 DUP7 DUP2 GT PUSH3 0x2629 JUMPI JUMPDEST POP DUP4 SWAP1 DUP7 DUP4 GT PUSH1 0x1 EQ PUSH3 0x25C3 JUMPI PUSH3 0x2101 SWAP3 SWAP2 PUSH1 0x0 SWAP2 DUP4 PUSH3 0x22FE JUMPI JUMPDEST POP POP DUP2 PUSH1 0x1 SHL SWAP2 PUSH1 0x0 NOT SWAP1 PUSH1 0x3 SHL SHR NOT AND OR SWAP1 JUMP JUMPDEST SWAP1 SSTORE JUMPDEST PUSH1 0x4 DUP1 DUP8 ADD PUSH1 0x80 DUP10 ADD MLOAD DUP1 MLOAD SWAP1 DUP9 DUP3 GT PUSH3 0x25AE JUMPI PUSH3 0x2125 DUP4 SLOAD PUSH3 0x1A11 JUMP JUMPDEST DUP8 DUP2 GT PUSH3 0x2571 JUMPI JUMPDEST POP DUP5 SWAP1 DUP8 DUP4 GT PUSH1 0x1 EQ PUSH3 0x250B JUMPI PUSH3 0x2160 SWAP3 SWAP2 PUSH1 0x0 SWAP2 DUP4 PUSH3 0x22FE JUMPI POP POP DUP2 PUSH1 0x1 SHL SWAP2 PUSH1 0x0 NOT SWAP1 PUSH1 0x3 SHL SHR NOT AND OR SWAP1 JUMP JUMPDEST SWAP1 SSTORE JUMPDEST PUSH1 0x5 SWAP4 PUSH1 0xA0 DUP10 ADD MLOAD DUP6 DUP10 ADD SSTORE PUSH1 0xC0 DUP10 ADD MLOAD PUSH1 0x6 DUP10 ADD SSTORE PUSH1 0xE0 DUP10 ADD MLOAD PUSH1 0x7 DUP10 ADD SSTORE PUSH1 0x8 DUP9 ADD PUSH2 0x100 DUP11 ADD MLOAD DUP1 MLOAD SWAP1 DUP10 DUP3 GT PUSH3 0x23BC JUMPI PUSH3 0x21A4 DUP4 SLOAD PUSH3 0x1A11 JUMP JUMPDEST DUP5 DUP2 GT PUSH3 0x24DB JUMPI JUMPDEST POP DUP6 SWAP1 DUP5 DUP4 GT PUSH1 0x1 EQ PUSH3 0x2475 JUMPI PUSH3 0x21DF SWAP3 SWAP2 PUSH1 0x0 SWAP2 DUP4 PUSH3 0x22FE JUMPI POP POP DUP2 PUSH1 0x1 SHL SWAP2 PUSH1 0x0 NOT SWAP1 PUSH1 0x3 SHL SHR NOT AND OR SWAP1 JUMP JUMPDEST SWAP1 SSTORE JUMPDEST PUSH1 0x9 DUP9 ADD PUSH2 0x120 DUP11 ADD MLOAD DUP1 MLOAD SWAP1 DUP10 DUP3 GT PUSH3 0x23BC JUMPI PUSH3 0x2203 DUP4 SLOAD PUSH3 0x1A11 JUMP JUMPDEST DUP5 DUP2 GT PUSH3 0x243A JUMPI JUMPDEST POP DUP6 SWAP1 DUP5 DUP4 GT PUSH1 0x1 EQ PUSH3 0x23D1 JUMPI PUSH3 0x223E SWAP3 SWAP2 PUSH1 0x0 SWAP2 DUP4 PUSH3 0x22FE JUMPI POP POP DUP2 PUSH1 0x1 SHL SWAP2 PUSH1 0x0 NOT SWAP1 PUSH1 0x3 SHL SHR NOT AND OR SWAP1 JUMP JUMPDEST SWAP1 SSTORE SWAP3 SWAP1 SWAP3 JUMPDEST PUSH2 0x140 DUP10 ADD MLOAD SWAP4 PUSH1 0xA DUP10 ADD SWAP3 PUSH1 0x0 SWAP6 JUMPDEST DUP3 DUP8 LT PUSH3 0x2294 JUMPI POP POP POP POP POP POP POP POP POP POP PUSH1 0xE ADD SWAP1 PUSH2 0x160 DUP2 ADD MLOAD ISZERO ISZERO SWAP1 PUSH1 0xFF PUSH2 0xFF00 PUSH2 0x180 DUP6 SLOAD SWAP4 ADD MLOAD ISZERO ISZERO PUSH1 0x8 SHL AND SWAP3 AND SWAP1 PUSH2 0xFFFF NOT AND OR OR SWAP1 SSTORE JUMP JUMPDEST DUP1 MLOAD SWAP1 DUP2 MLOAD DUP12 DUP2 GT PUSH3 0x23BC JUMPI DUP11 SWAP2 DUP9 SWAP2 PUSH3 0x22B1 DUP10 SLOAD PUSH3 0x1A11 JUMP JUMPDEST DUP9 DUP2 GT PUSH3 0x237F JUMPI JUMPDEST POP DUP3 SWAP5 DUP9 DUP3 GT PUSH1 0x1 EQ PUSH3 0x230A JUMPI SWAP1 DUP1 DUP6 SWAP7 PUSH3 0x22EE SWAP4 PUSH1 0x0 SWAP3 PUSH3 0x22FE JUMPI POP POP DUP2 PUSH1 0x1 SHL SWAP2 PUSH1 0x0 NOT SWAP1 PUSH1 0x3 SHL SHR NOT AND OR SWAP1 JUMP JUMPDEST DUP9 SSTORE JUMPDEST ADD SWAP6 ADD SWAP7 ADD SWAP6 SWAP4 PUSH3 0x2254 JUMP JUMPDEST ADD MLOAD SWAP1 POP CODESIZE DUP1 PUSH3 0x20EC JUMP JUMPDEST SWAP5 PUSH1 0x1F NOT DUP3 AND SWAP1 DUP11 PUSH1 0x0 MSTORE DUP5 PUSH1 0x0 KECCAK256 SWAP2 PUSH1 0x0 JUMPDEST DUP2 DUP2 LT PUSH3 0x235C JUMPI POP SWAP1 DUP7 SWAP8 DUP5 DUP9 SWAP6 SWAP5 SWAP4 LT PUSH3 0x2343 JUMPI JUMPDEST POP POP POP DUP2 SHL ADD DUP9 SSTORE PUSH3 0x22F1 JUMP JUMPDEST ADD MLOAD PUSH1 0x0 NOT DUP4 DUP11 SHL PUSH1 0xF8 AND SHR NOT AND SWAP1 SSTORE CODESIZE DUP1 DUP1 PUSH3 0x2335 JUMP JUMPDEST SWAP5 SWAP8 SWAP4 SWAP7 DUP7 SWAP3 SWAP7 SWAP2 SWAP4 DUP8 DUP7 ADD MLOAD DUP2 SSTORE ADD SWAP6 ADD SWAP4 ADD SWAP3 DUP12 SWAP5 SWAP2 DUP16 SWAP7 SWAP4 SWAP8 SWAP5 PUSH3 0x231D JUMP JUMPDEST PUSH3 0x23AB SWAP1 DUP11 PUSH1 0x0 MSTORE DUP14 DUP6 PUSH1 0x0 KECCAK256 SWAP1 DUP12 DUP1 DUP7 ADD DUP3 SHR DUP4 ADD SWAP4 DUP9 DUP8 LT PUSH3 0x23B2 JUMPI JUMPDEST ADD SWAP1 SHR ADD SWAP1 PUSH3 0x1FE3 JUMP JUMPDEST CODESIZE PUSH3 0x22BA JUMP JUMPDEST SWAP4 POP DUP3 SWAP4 PUSH3 0x23A0 JUMP JUMPDEST PUSH1 0x41 DUP6 PUSH4 0x4E487B71 PUSH1 0xE0 SHL PUSH1 0x0 MSTORE MSTORE PUSH1 0x24 PUSH1 0x0 REVERT JUMPDEST DUP10 SWAP3 SWAP2 PUSH1 0x1F NOT DUP4 AND SWAP2 DUP6 PUSH1 0x0 MSTORE DUP9 PUSH1 0x0 KECCAK256 SWAP3 PUSH1 0x0 JUMPDEST DUP11 DUP3 DUP3 LT PUSH3 0x2423 JUMPI POP POP DUP5 GT PUSH3 0x240A JUMPI JUMPDEST POP POP POP DUP2 SHL ADD SWAP1 SSTORE SWAP3 SWAP1 SWAP3 PUSH3 0x2244 JUMP JUMPDEST ADD MLOAD PUSH1 0x0 NOT DUP4 DUP11 SHL PUSH1 0xF8 AND SHR NOT AND SWAP1 SSTORE CODESIZE DUP1 DUP1 PUSH3 0x23F9 JUMP JUMPDEST DUP4 DUP6 ADD MLOAD DUP7 SSTORE DUP15 SWAP8 SWAP1 SWAP6 ADD SWAP5 SWAP4 DUP5 ADD SWAP4 ADD PUSH3 0x23E6 JUMP JUMPDEST PUSH3 0x2464 SWAP1 DUP5 PUSH1 0x0 MSTORE DUP8 PUSH1 0x0 KECCAK256 DUP7 DUP1 DUP7 ADD DUP13 SHR DUP3 ADD SWAP3 DUP11 DUP8 LT PUSH3 0x246B JUMPI JUMPDEST ADD DUP12 SHR ADD SWAP1 PUSH3 0x1FE3 JUMP JUMPDEST CODESIZE PUSH3 0x220C JUMP JUMPDEST SWAP3 POP DUP2 SWAP3 PUSH3 0x2459 JUMP JUMPDEST DUP10 SWAP3 SWAP2 PUSH1 0x1F NOT DUP4 AND SWAP2 DUP6 PUSH1 0x0 MSTORE DUP9 PUSH1 0x0 KECCAK256 SWAP3 PUSH1 0x0 JUMPDEST DUP11 DUP3 DUP3 LT PUSH3 0x24C4 JUMPI POP POP DUP5 GT PUSH3 0x24AB JUMPI JUMPDEST POP POP POP DUP2 SHL ADD SWAP1 SSTORE PUSH3 0x21E2 JUMP JUMPDEST ADD MLOAD PUSH1 0x0 NOT DUP4 DUP11 SHL PUSH1 0xF8 AND SHR NOT AND SWAP1 SSTORE CODESIZE DUP1 DUP1 PUSH3 0x249D JUMP JUMPDEST DUP4 DUP6 ADD MLOAD DUP7 SSTORE DUP15 SWAP8 SWAP1 SWAP6 ADD SWAP5 SWAP4 DUP5 ADD SWAP4 ADD PUSH3 0x248A JUMP JUMPDEST PUSH3 0x2504 SWAP1 DUP5 PUSH1 0x0 MSTORE DUP8 PUSH1 0x0 KECCAK256 DUP7 DUP1 DUP7 ADD DUP13 SHR DUP3 ADD SWAP3 DUP11 DUP8 LT PUSH3 0x246B JUMPI ADD DUP12 SHR ADD SWAP1 PUSH3 0x1FE3 JUMP JUMPDEST CODESIZE PUSH3 0x21AD JUMP JUMPDEST DUP9 SWAP3 SWAP2 PUSH1 0x1F NOT DUP4 AND SWAP2 DUP6 PUSH1 0x0 MSTORE DUP8 PUSH1 0x0 KECCAK256 SWAP3 PUSH1 0x0 JUMPDEST DUP10 DUP3 DUP3 LT PUSH3 0x255A JUMPI POP POP DUP5 GT PUSH3 0x2541 JUMPI JUMPDEST POP POP POP DUP2 SHL ADD SWAP1 SSTORE PUSH3 0x2163 JUMP JUMPDEST ADD MLOAD PUSH1 0x0 NOT DUP4 DUP10 SHL PUSH1 0xF8 AND SHR NOT AND SWAP1 SSTORE CODESIZE DUP1 DUP1 PUSH3 0x2533 JUMP JUMPDEST DUP4 DUP6 ADD MLOAD DUP7 SSTORE DUP14 SWAP8 SWAP1 SWAP6 ADD SWAP5 SWAP4 DUP5 ADD SWAP4 ADD PUSH3 0x2520 JUMP JUMPDEST PUSH3 0x259D SWAP1 DUP5 PUSH1 0x0 MSTORE DUP7 PUSH1 0x0 KECCAK256 DUP10 DUP1 DUP7 ADD PUSH1 0x5 SHR DUP3 ADD SWAP3 DUP10 DUP8 LT PUSH3 0x25A4 JUMPI JUMPDEST ADD PUSH1 0x5 SHR ADD SWAP1 PUSH3 0x1FE3 JUMP JUMPDEST CODESIZE PUSH3 0x212E JUMP JUMPDEST SWAP3 POP DUP2 SWAP3 PUSH3 0x2591 JUMP JUMPDEST PUSH1 0x41 DUP5 PUSH4 0x4E487B71 PUSH1 0xE0 SHL PUSH1 0x0 MSTORE MSTORE PUSH1 0x24 PUSH1 0x0 REVERT JUMPDEST DUP8 SWAP3 SWAP2 PUSH1 0x1F NOT DUP4 AND SWAP2 DUP6 PUSH1 0x0 MSTORE DUP7 PUSH1 0x0 KECCAK256 SWAP3 PUSH1 0x0 JUMPDEST DUP9 DUP3 DUP3 LT PUSH3 0x2612 JUMPI POP POP DUP5 GT PUSH3 0x25F9 JUMPI JUMPDEST POP POP POP DUP2 SHL ADD SWAP1 SSTORE PUSH3 0x2104 JUMP JUMPDEST ADD MLOAD PUSH1 0x0 NOT DUP4 DUP9 SHL PUSH1 0xF8 AND SHR NOT AND SWAP1 SSTORE CODESIZE DUP1 DUP1 PUSH3 0x25EB JUMP JUMPDEST DUP4 DUP6 ADD MLOAD DUP7 SSTORE DUP13 SWAP8 SWAP1 SWAP6 ADD SWAP5 SWAP4 DUP5 ADD SWAP4 ADD PUSH3 0x25D8 JUMP JUMPDEST PUSH3 0x2654 SWAP1 DUP5 PUSH1 0x0 MSTORE DUP6 PUSH1 0x0 KECCAK256 DUP9 DUP1 DUP7 ADD PUSH1 0x5 SHR DUP3 ADD SWAP3 DUP9 DUP8 LT PUSH3 0x25A4 JUMPI ADD PUSH1 0x5 SHR ADD SWAP1 PUSH3 0x1FE3 JUMP JUMPDEST CODESIZE PUSH3 0x20CE JUMP JUMPDEST SWAP1 DUP2 SLOAD PUSH1 0x1 PUSH1 0x40 SHL DUP2 LT ISZERO PUSH3 0x570 JUMPI PUSH1 0x1 DUP2 ADD DUP1 DUP5 SSTORE DUP2 LT ISZERO PUSH3 0x19FB JUMPI PUSH3 0x1AF4 SWAP3 PUSH1 0x0 MSTORE PUSH1 0xF PUSH1 0x20 PUSH1 0x0 KECCAK256 SWAP2 MUL ADD PUSH3 0x204B JUMP JUMPDEST DUP1 SLOAD SWAP1 PUSH1 0x1 PUSH1 0x40 SHL DUP3 LT ISZERO PUSH3 0x570 JUMPI PUSH1 0x1 DUP3 ADD DUP1 DUP3 SSTORE DUP3 LT ISZERO PUSH3 0x19FB JUMPI PUSH1 0x0 MSTORE PUSH1 0x20 PUSH1 0x0 KECCAK256 ADD SWAP1 PUSH1 0x1 DUP1 PUSH1 0xA0 SHL SUB AND PUSH1 0x1 PUSH1 0x1 PUSH1 0x60 SHL SUB PUSH1 0xA0 SHL DUP3 SLOAD AND OR SWAP1 SSTORE JUMP JUMPDEST ISZERO PUSH3 0x26DE JUMPI JUMP JUMPDEST PUSH1 0x40 MLOAD PUSH3 0x461BCD PUSH1 0xE5 SHL DUP2 MSTORE PUSH1 0x20 PUSH1 0x4 DUP3 ADD MSTORE PUSH1 0x1C PUSH1 0x24 DUP3 ADD MSTORE PUSH32 0x557365722050726F66696C6520646F7365206E6F742065786973742E00000000 PUSH1 0x44 DUP3 ADD MSTORE PUSH1 0x64 SWAP1 REVERT JUMPDEST SWAP1 PUSH1 0x40 MLOAD PUSH3 0x2732 DUP2 PUSH3 0x1A4E JUMP JUMPDEST DUP1 SWAP3 PUSH1 0x1 DUP1 PUSH1 0xA0 SHL SUB DUP1 DUP3 SLOAD AND DUP4 MSTORE PUSH1 0x1 DUP2 PUSH1 0x1 DUP5 ADD SLOAD AND SWAP2 PUSH1 0x20 SWAP3 PUSH1 0x20 DUP7 ADD MSTORE PUSH1 0x2 DUP5 ADD SLOAD AND PUSH1 0x40 DUP6 ADD MSTORE PUSH3 0x276C PUSH1 0x3 DUP5 ADD PUSH3 0x1AAC JUMP JUMPDEST PUSH1 0x60 DUP6 ADD MSTORE PUSH1 0x4 PUSH3 0x2781 PUSH1 0x4 DUP6 ADD PUSH3 0x1AAC JUMP JUMPDEST PUSH1 0x80 DUP7 ADD MSTORE PUSH1 0x5 DUP5 ADD SLOAD PUSH1 0xA0 DUP7 ADD MSTORE PUSH1 0x6 DUP5 ADD SLOAD PUSH1 0xC0 DUP7 ADD MSTORE PUSH1 0x7 DUP5 ADD SLOAD PUSH1 0xE0 DUP7 ADD MSTORE PUSH3 0x27B2 PUSH1 0x8 DUP6 ADD PUSH3 0x1AAC JUMP JUMPDEST PUSH2 0x100 DUP7 ADD MSTORE PUSH3 0x27C6 PUSH1 0x9 DUP6 ADD PUSH3 0x1AAC JUMP JUMPDEST PUSH2 0x120 DUP7 ADD MSTORE PUSH1 0x40 MLOAD SWAP3 PUSH3 0x27DB DUP5 PUSH3 0x1A6C JUMP JUMPDEST PUSH1 0x0 SWAP1 PUSH1 0xA DUP7 ADD DUP6 JUMPDEST DUP5 DUP5 LT PUSH3 0x2819 JUMPI POP POP POP POP POP POP PUSH1 0xE PUSH2 0x180 SWAP3 PUSH1 0xFF SWAP3 PUSH2 0x140 DUP7 ADD MSTORE ADD SLOAD DUP2 DUP2 AND ISZERO ISZERO PUSH2 0x160 DUP6 ADD MSTORE PUSH1 0x8 SHR AND ISZERO ISZERO SWAP2 ADD MSTORE JUMP JUMPDEST DUP6 DUP4 DUP2 SWAP3 PUSH3 0x2828 DUP6 PUSH3 0x1AAC JUMP JUMPDEST DUP2 MSTORE ADD SWAP3 ADD SWAP4 ADD SWAP3 SWAP1 PUSH3 0x27E4 JUMP JUMPDEST SWAP1 DUP2 SLOAD PUSH8 0xFFFFFFFFFFFFFFFF DUP2 GT PUSH3 0x570 JUMPI PUSH1 0x20 SWAP3 PUSH1 0x40 MLOAD SWAP4 PUSH3 0x2863 PUSH1 0x20 DUP5 PUSH1 0x5 SHL ADD DUP7 PUSH3 0x1A89 JUMP JUMPDEST DUP3 DUP6 MSTORE PUSH1 0x20 DUP6 ADD SWAP2 PUSH1 0x0 MSTORE PUSH1 0x20 PUSH1 0x0 KECCAK256 PUSH1 0x0 SWAP3 JUMPDEST DUP5 DUP5 LT PUSH3 0x2886 JUMPI POP POP POP POP POP JUMP JUMPDEST PUSH1 0xF DUP4 PUSH1 0x1 SWAP3 PUSH3 0x2897 DUP6 PUSH3 0x2723 JUMP JUMPDEST DUP2 MSTORE ADD SWAP3 ADD SWAP4 ADD SWAP3 SWAP1 PUSH3 0x2877 JUMP JUMPDEST SWAP1 DUP2 PUSH1 0x60 SWAP2 SUB SLT PUSH3 0x468 JUMPI DUP1 MLOAD SWAP2 PUSH1 0x40 PUSH1 0x20 DUP4 ADD MLOAD SWAP3 ADD MLOAD SWAP1 JUMP JUMPDEST PUSH1 0x2 PUSH1 0x0 SLOAD EQ PUSH3 0x28D4 JUMPI PUSH1 0x2 PUSH1 0x0 SSTORE JUMP JUMPDEST PUSH1 0x40 MLOAD PUSH4 0x3EE5AEB5 PUSH1 0xE0 SHL DUP2 MSTORE PUSH1 0x4 SWAP1 REVERT JUMPDEST SWAP1 DUP2 PUSH1 0x20 SWAP2 SUB SLT PUSH3 0x468 JUMPI MLOAD DUP1 ISZERO ISZERO DUP2 SUB PUSH3 0x468 JUMPI SWAP1 JUMP JUMPDEST PUSH3 0x296A SWAP3 PUSH1 0x20 SWAP3 SWAP1 SWAP2 SWAP1 PUSH1 0x1 PUSH1 0x1 PUSH1 0xA0 SHL SUB SWAP1 PUSH3 0x2923 DUP3 DUP5 AND ISZERO ISZERO PUSH3 0x1EEB JUMP JUMPDEST AND SWAP1 PUSH3 0x2932 DUP3 ISZERO ISZERO PUSH3 0x1EEB JUMP JUMPDEST PUSH1 0x40 MLOAD PUSH4 0x95EA7B3 PUSH1 0xE0 SHL DUP2 MSTORE PUSH1 0x1 PUSH1 0x1 PUSH1 0xA0 SHL SUB SWAP1 SWAP2 AND PUSH1 0x4 DUP3 ADD MSTORE PUSH1 0x24 DUP2 ADD SWAP3 SWAP1 SWAP3 MSTORE SWAP1 SWAP3 DUP4 SWAP2 SWAP1 DUP3 SWAP1 PUSH1 0x0 SWAP1 DUP3 SWAP1 PUSH1 0x44 DUP3 ADD SWAP1 JUMP JUMPDEST SUB SWAP3 GAS CALL DUP1 ISZERO PUSH3 0x29A5 JUMPI PUSH3 0x2981 JUMPI JUMPDEST POP PUSH1 0x1 SWAP1 JUMP JUMPDEST PUSH3 0x299D SWAP1 PUSH1 0x20 RETURNDATASIZE PUSH1 0x20 GT PUSH3 0x1673 JUMPI PUSH3 0x1662 DUP2 DUP4 PUSH3 0x1A89 JUMP JUMPDEST POP CODESIZE PUSH3 0x297B JUMP JUMPDEST PUSH1 0x40 MLOAD RETURNDATASIZE PUSH1 0x0 DUP3 RETURNDATACOPY RETURNDATASIZE SWAP1 REVERT JUMPDEST PUSH1 0x1 PUSH1 0x1 PUSH1 0xA0 SHL SUB SWAP1 DUP2 AND PUSH3 0x29C9 DUP2 ISZERO ISZERO PUSH3 0x1EEB JUMP JUMPDEST PUSH1 0xA SLOAD SWAP2 PUSH1 0x0 JUMPDEST DUP4 DUP2 LT PUSH3 0x29E1 JUMPI POP POP POP POP PUSH1 0x0 SWAP1 JUMP JUMPDEST DUP3 DUP3 PUSH3 0x29EE DUP4 PUSH3 0x1E1F JUMP JUMPDEST POP SLOAD AND EQ PUSH3 0x2A00 JUMPI PUSH1 0x1 ADD PUSH3 0x29D0 JUMP JUMPDEST POP POP POP POP PUSH1 0x1 SWAP1 JUMP JUMPDEST PUSH1 0x1 DUP1 PUSH1 0xA0 SHL SUB SWAP1 DUP2 DUP4 MLOAD AND PUSH1 0x1 PUSH1 0x1 PUSH1 0x60 SHL SUB PUSH1 0xA0 SHL SWAP1 DUP2 DUP4 SLOAD AND OR DUP3 SSTORE PUSH1 0x1 SWAP4 PUSH1 0x1 DUP4 ADD PUSH1 0x20 SWAP3 DUP6 DUP5 DUP5 ADD MLOAD AND SWAP1 DUP3 SLOAD AND OR SWAP1 SSTORE PUSH1 0x2 SWAP3 PUSH1 0x2 DUP2 ADD SWAP4 PUSH1 0x40 DUP4 ADD MLOAD SWAP6 DUP7 MLOAD SWAP1 PUSH8 0xFFFFFFFFFFFFFFFF DUP3 GT PUSH3 0x570 JUMPI PUSH1 0x1 PUSH1 0x40 SHL SWAP8 DUP9 DUP4 GT PUSH3 0x570 JUMPI DUP7 SWAP1 DUP9 SLOAD DUP5 DUP11 SSTORE DUP1 DUP6 LT PUSH3 0x2C0F JUMPI JUMPDEST POP ADD SWAP1 PUSH1 0x0 SWAP8 DUP9 MSTORE DUP7 DUP9 KECCAK256 SWAP1 DUP11 DUP10 JUMPDEST DUP6 DUP2 LT PUSH3 0x2BFA JUMPI POP POP POP POP POP POP PUSH1 0x60 PUSH1 0x3 DUP1 SWAP4 ADD SWAP4 ADD MLOAD SWAP2 DUP3 MLOAD SWAP7 DUP8 GT PUSH3 0x10B1 JUMPI DUP4 SLOAD DUP8 DUP6 SSTORE DUP6 SWAP4 SWAP3 SWAP2 DUP2 DUP10 LT PUSH3 0x2AFD JUMPI JUMPDEST POP POP POP SWAP2 DUP5 MSTORE DUP3 DUP5 KECCAK256 SWAP2 ADD JUMPDEST DUP5 DUP5 LT PUSH3 0x2ADE JUMPI POP POP POP POP POP POP JUMP JUMPDEST PUSH1 0xF DUP4 DUP3 PUSH3 0x2AF0 DUP10 SWAP5 MLOAD DUP7 PUSH3 0x204B JUMP JUMPDEST ADD SWAP3 ADD SWAP4 ADD SWAP3 SWAP1 PUSH3 0x2ACE JUMP JUMPDEST SWAP1 SWAP2 SWAP3 SWAP4 POP PUSH1 0xF SWAP3 DUP3 PUSH1 0xF MUL SWAP3 PUSH1 0xF DUP5 DIV SUB PUSH3 0xF94 JUMPI DUP9 PUSH1 0xF MUL PUSH1 0xF DUP2 DIV DUP11 SUB PUSH3 0x2BE6 JUMPI DUP7 DUP10 MSTORE DUP8 DUP10 KECCAK256 DUP9 SWAP7 SWAP6 SWAP5 DUP2 ADD SWAP4 SWAP3 SWAP2 ADD JUMPDEST DUP4 DUP2 LT PUSH3 0x2B44 JUMPI POP POP PUSH3 0x2AC2 JUMP JUMPDEST DUP5 SWAP6 SWAP7 POP DUP10 DUP2 SWAP6 SWAP3 SWAP4 SWAP5 SWAP6 SSTORE DUP10 DUP13 DUP3 ADD SSTORE DUP10 DUP4 DUP3 ADD SSTORE PUSH3 0x2B67 DUP5 DUP3 ADD PUSH3 0x1FFC JUMP JUMPDEST PUSH3 0x2B75 PUSH1 0x4 DUP3 ADD PUSH3 0x1FFC JUMP JUMPDEST DUP10 PUSH1 0x5 DUP3 ADD SSTORE DUP10 PUSH1 0x6 DUP3 ADD SSTORE DUP10 PUSH1 0x7 DUP3 ADD SSTORE PUSH3 0x2B95 PUSH1 0x8 DUP3 ADD PUSH3 0x1FFC JUMP JUMPDEST PUSH3 0x2BA3 PUSH1 0x9 DUP3 ADD PUSH3 0x1FFC JUMP JUMPDEST DUP10 PUSH1 0xE DUP3 ADD DUP14 PUSH1 0xA DUP5 ADD JUMPDEST DUP3 DUP2 LT PUSH3 0x2BC7 JUMPI POP POP SSTORE ADD SWAP1 DUP8 SWAP6 SWAP5 SWAP4 SWAP3 SWAP2 PUSH3 0x2B34 JUMP JUMPDEST DUP1 SWAP3 SWAP5 SWAP6 POP PUSH3 0x2BD9 SWAP2 SWAP4 POP PUSH3 0x1FFC JUMP JUMPDEST ADD DUP7 SWAP3 SWAP2 DUP14 DUP13 SWAP3 PUSH3 0x2BAE JUMP JUMPDEST PUSH4 0x4E487B71 PUSH1 0xE0 SHL DUP10 MSTORE PUSH1 0x11 PUSH1 0x4 MSTORE PUSH1 0x24 DUP10 REVERT JUMPDEST DUP10 DUP4 DUP7 MLOAD AND SWAP6 ADD SWAP5 DUP2 DUP6 ADD SSTORE ADD DUP12 SWAP1 PUSH3 0x2A8D JUMP JUMPDEST PUSH3 0x2C28 SWAP1 DUP11 PUSH1 0x0 MSTORE DUP6 DUP5 PUSH1 0x0 KECCAK256 SWAP2 DUP3 ADD SWAP2 ADD PUSH3 0x1FE3 JUMP JUMPDEST CODESIZE PUSH3 0x2A7E JUMP INVALID PUSH1 0x40 PUSH1 0x80 DUP2 MSTORE CALLVALUE PUSH3 0x429 JUMPI PUSH3 0x10AB DUP1 CODESIZE SUB DUP1 PUSH3 0x1E DUP2 PUSH3 0x42E JUMP JUMPDEST SWAP3 DUP4 CODECOPY DUP2 ADD SWAP1 PUSH1 0x80 DUP2 DUP4 SUB SLT PUSH3 0x429 JUMPI DUP1 MLOAD PUSH1 0x1 PUSH1 0x1 PUSH1 0x40 SHL SUB SWAP2 SWAP1 DUP3 DUP2 GT PUSH3 0x429 JUMPI DUP4 PUSH3 0x51 SWAP2 DUP4 ADD PUSH3 0x46A JUMP JUMPDEST SWAP1 PUSH1 0x20 SWAP4 DUP5 DUP3 ADD MLOAD SWAP1 DUP5 DUP3 GT PUSH3 0x429 JUMPI PUSH3 0x6F SWAP2 DUP4 ADD PUSH3 0x46A JUMP JUMPDEST PUSH1 0x60 DUP7 DUP4 ADD MLOAD SWAP3 ADD MLOAD SWAP1 PUSH1 0x0 SWAP5 CALLER PUSH1 0x1 DUP1 PUSH1 0xA0 SHL SUB NOT DUP8 SLOAD AND OR DUP7 SSTORE CALLER DUP7 PUSH32 0x8BE0079C531659141344CD1FD0A4F28419497F9722A3DAAFE3B4186F6B6457E0 DUP2 DUP1 LOG3 DUP5 MLOAD DUP2 DUP2 GT PUSH3 0x343 JUMPI PUSH1 0x2 SLOAD SWAP1 PUSH1 0x1 SWAP7 DUP8 DUP4 DUP2 SHR SWAP4 AND DUP1 ISZERO PUSH3 0x41E JUMPI JUMPDEST DUP11 DUP5 LT EQ PUSH3 0x324 JUMPI DUP2 SWAP1 PUSH1 0x1F SWAP4 DUP5 DUP2 GT PUSH3 0x3CA JUMPI JUMPDEST POP DUP11 SWAP1 DUP5 DUP4 GT PUSH1 0x1 EQ PUSH3 0x363 JUMPI DUP11 SWAP3 PUSH3 0x357 JUMPI JUMPDEST POP POP PUSH1 0x0 NOT PUSH1 0x3 DUP4 SWAP1 SHL SHR NOT AND SWAP1 DUP8 SHL OR PUSH1 0x2 SSTORE JUMPDEST DUP3 MLOAD SWAP2 DUP3 GT PUSH3 0x343 JUMPI PUSH1 0x3 SWAP3 DUP4 SLOAD DUP8 DUP2 DUP2 SHR SWAP2 AND DUP1 ISZERO PUSH3 0x338 JUMPI JUMPDEST DUP11 DUP3 LT EQ PUSH3 0x324 JUMPI SWAP1 DUP2 DUP4 DUP6 SWAP5 SWAP4 GT PUSH3 0x2CF JUMPI JUMPDEST POP DUP10 SWAP2 DUP4 GT PUSH1 0x1 EQ PUSH3 0x26C JUMPI DUP9 SWAP3 PUSH3 0x260 JUMPI JUMPDEST POP POP PUSH1 0x0 NOT DUP3 DUP5 SHL SHR NOT AND SWAP1 DUP6 SHL OR SWAP1 SSTORE JUMPDEST PUSH8 0xDE0B6B3A7640000 SWAP2 DUP3 DUP2 MUL SWAP3 DUP2 DUP5 DIV EQ SWAP1 ISZERO OR ISZERO PUSH3 0x24C JUMPI DUP2 DUP4 SSTORE PUSH1 0x5 DUP2 GT PUSH3 0x1FE JUMPI SWAP1 PUSH32 0xDDF252AD1BE2C89B69C2B068FC378DAA952BA7F163C4A11628F55A4DF523B3EF SWAP3 SWAP2 PUSH1 0x4 SSTORE CALLER DUP5 MSTORE PUSH1 0x5 DUP6 MSTORE DUP6 DUP5 KECCAK256 SSTORE PUSH1 0x7 DUP5 MSTORE DUP5 DUP4 KECCAK256 PUSH1 0xFF NOT SWAP1 DUP3 DUP3 DUP3 SLOAD AND OR SWAP1 SSTORE ADDRESS DUP5 MSTORE DUP2 DUP7 DUP6 KECCAK256 SWAP2 DUP3 SLOAD AND OR SWAP1 SSTORE SLOAD SWAP3 DUP5 MLOAD SWAP4 DUP5 MSTORE CALLER SWAP4 LOG3 MLOAD PUSH2 0xBCE SWAP1 DUP2 PUSH3 0x4DD DUP3 CODECOPY RETURN JUMPDEST DUP6 MLOAD PUSH3 0x461BCD PUSH1 0xE5 SHL DUP2 MSTORE PUSH1 0x4 DUP2 ADD DUP7 SWAP1 MSTORE PUSH1 0x21 PUSH1 0x24 DUP3 ADD MSTORE PUSH32 0x4D6178205472616E73616374696F6E2063616E6E6F7420657863656564203525 PUSH1 0x44 DUP3 ADD MSTORE PUSH1 0x17 PUSH1 0xF9 SHL PUSH1 0x64 DUP3 ADD MSTORE PUSH1 0x84 SWAP1 REVERT JUMPDEST PUSH4 0x4E487B71 PUSH1 0xE0 SHL DUP5 MSTORE PUSH1 0x11 PUSH1 0x4 MSTORE PUSH1 0x24 DUP5 REVERT JUMPDEST ADD MLOAD SWAP1 POP CODESIZE DUP1 PUSH3 0x15A JUMP JUMPDEST DUP5 DUP10 MSTORE DUP10 DUP10 KECCAK256 DUP9 SWAP5 POP SWAP2 SWAP1 PUSH1 0x1F NOT DUP5 AND DUP11 JUMPDEST DUP13 DUP3 DUP3 LT PUSH3 0x2B8 JUMPI POP POP DUP5 GT PUSH3 0x29F JUMPI JUMPDEST POP POP POP DUP2 SHL ADD SWAP1 SSTORE PUSH3 0x16C JUMP JUMPDEST ADD MLOAD PUSH1 0x0 NOT DUP4 DUP7 SHL PUSH1 0xF8 AND SHR NOT AND SWAP1 SSTORE CODESIZE DUP1 DUP1 PUSH3 0x291 JUMP JUMPDEST DUP4 DUP6 ADD MLOAD DUP7 SSTORE DUP12 SWAP8 SWAP1 SWAP6 ADD SWAP5 SWAP4 DUP5 ADD SWAP4 ADD PUSH3 0x27E JUMP JUMPDEST SWAP1 SWAP2 SWAP3 POP DUP5 DUP10 MSTORE DUP10 DUP10 KECCAK256 DUP4 DUP1 DUP7 ADD PUSH1 0x5 SHR DUP3 ADD SWAP3 DUP13 DUP8 LT PUSH3 0x31A JUMPI JUMPDEST SWAP2 DUP7 SWAP6 DUP12 SWAP3 SWAP6 SWAP5 SWAP4 ADD PUSH1 0x5 SHR ADD SWAP2 JUMPDEST DUP3 DUP2 LT PUSH3 0x30B JUMPI POP POP PUSH3 0x145 JUMP JUMPDEST DUP12 DUP2 SSTORE DUP7 SWAP6 POP DUP11 SWAP2 ADD PUSH3 0x2FB JUMP JUMPDEST SWAP3 POP DUP2 SWAP3 PUSH3 0x2EC JUMP JUMPDEST PUSH4 0x4E487B71 PUSH1 0xE0 SHL DUP10 MSTORE PUSH1 0x22 PUSH1 0x4 MSTORE PUSH1 0x24 DUP10 REVERT JUMPDEST SWAP1 PUSH1 0x7F AND SWAP1 PUSH3 0x12F JUMP JUMPDEST PUSH4 0x4E487B71 PUSH1 0xE0 SHL DUP8 MSTORE PUSH1 0x41 PUSH1 0x4 MSTORE PUSH1 0x24 DUP8 REVERT JUMPDEST ADD MLOAD SWAP1 POP CODESIZE DUP1 PUSH3 0xFD JUMP JUMPDEST PUSH1 0x2 DUP12 MSTORE DUP12 DUP12 KECCAK256 DUP11 SWAP5 POP SWAP2 SWAP1 PUSH1 0x1F NOT DUP5 AND DUP13 DUP15 JUMPDEST DUP3 DUP3 LT PUSH3 0x3B2 JUMPI POP POP DUP5 GT PUSH3 0x398 JUMPI JUMPDEST POP POP POP DUP2 SHL ADD PUSH1 0x2 SSTORE PUSH3 0x112 JUMP JUMPDEST ADD MLOAD PUSH1 0x0 NOT PUSH1 0xF8 DUP5 PUSH1 0x3 SHL AND SHR NOT AND SWAP1 SSTORE CODESIZE DUP1 DUP1 PUSH3 0x389 JUMP JUMPDEST DUP4 DUP6 ADD MLOAD DUP7 SSTORE DUP14 SWAP8 SWAP1 SWAP6 ADD SWAP5 SWAP4 DUP5 ADD SWAP4 ADD DUP15 PUSH3 0x377 JUMP JUMPDEST SWAP1 SWAP2 POP PUSH1 0x2 DUP11 MSTORE DUP11 DUP11 KECCAK256 DUP5 DUP1 DUP6 ADD PUSH1 0x5 SHR DUP3 ADD SWAP3 DUP14 DUP7 LT PUSH3 0x414 JUMPI JUMPDEST SWAP2 DUP12 SWAP2 DUP7 SWAP6 SWAP5 SWAP4 ADD PUSH1 0x5 SHR ADD SWAP2 JUMPDEST DUP3 DUP2 LT PUSH3 0x405 JUMPI POP POP PUSH3 0xE7 JUMP JUMPDEST DUP13 DUP2 SSTORE DUP6 SWAP5 POP DUP12 SWAP2 ADD PUSH3 0x3F5 JUMP JUMPDEST SWAP3 POP DUP2 SWAP3 PUSH3 0x3E7 JUMP JUMPDEST SWAP3 PUSH1 0x7F AND SWAP3 PUSH3 0xD0 JUMP JUMPDEST PUSH1 0x0 DUP1 REVERT JUMPDEST PUSH1 0x40 MLOAD SWAP2 SWAP1 PUSH1 0x1F ADD PUSH1 0x1F NOT AND DUP3 ADD PUSH1 0x1 PUSH1 0x1 PUSH1 0x40 SHL SUB DUP2 GT DUP4 DUP3 LT OR PUSH3 0x454 JUMPI PUSH1 0x40 MSTORE JUMP JUMPDEST PUSH4 0x4E487B71 PUSH1 0xE0 SHL PUSH1 0x0 MSTORE PUSH1 0x41 PUSH1 0x4 MSTORE PUSH1 0x24 PUSH1 0x0 REVERT JUMPDEST SWAP2 SWAP1 DUP1 PUSH1 0x1F DUP5 ADD SLT ISZERO PUSH3 0x429 JUMPI DUP3 MLOAD PUSH1 0x1 PUSH1 0x1 PUSH1 0x40 SHL SUB DUP2 GT PUSH3 0x454 JUMPI PUSH1 0x20 SWAP1 PUSH3 0x4A0 PUSH1 0x1F DUP3 ADD PUSH1 0x1F NOT AND DUP4 ADD PUSH3 0x42E JUMP JUMPDEST SWAP3 DUP2 DUP5 MSTORE DUP3 DUP3 DUP8 ADD ADD GT PUSH3 0x429 JUMPI PUSH1 0x0 JUMPDEST DUP2 DUP2 LT PUSH3 0x4C8 JUMPI POP DUP3 PUSH1 0x0 SWAP4 SWAP5 SWAP6 POP ADD ADD MSTORE SWAP1 JUMP JUMPDEST DUP6 DUP2 ADD DUP4 ADD MLOAD DUP5 DUP3 ADD DUP5 ADD MSTORE DUP3 ADD PUSH3 0x4B2 JUMP INVALID PUSH1 0x80 PUSH1 0x40 DUP2 DUP2 MSTORE PUSH1 0x4 SWAP2 DUP3 CALLDATASIZE LT ISZERO PUSH2 0x16 JUMPI PUSH1 0x0 DUP1 REVERT JUMPDEST PUSH1 0x0 SWAP3 DUP4 CALLDATALOAD PUSH1 0xE0 SHR SWAP2 DUP3 PUSH4 0x6FDDE03 EQ PUSH2 0x5B5 JUMPI POP DUP2 PUSH4 0x95EA7B3 EQ PUSH2 0x58B JUMPI DUP2 PUSH4 0x18160DDD EQ PUSH2 0x56C JUMPI DUP2 PUSH4 0x23B872DD EQ PUSH2 0x497 JUMPI DUP2 PUSH4 0x313CE567 EQ PUSH2 0x47B JUMPI DUP2 PUSH4 0x70A08231 EQ PUSH2 0x443 JUMPI DUP2 PUSH4 0x715018A6 EQ PUSH2 0x3E4 JUMPI DUP2 PUSH4 0x7437681E EQ PUSH2 0x3C6 JUMPI DUP2 PUSH4 0x8DA5CB5B EQ PUSH2 0x39E JUMPI DUP2 PUSH4 0x95D89B41 EQ PUSH2 0x299 JUMPI DUP2 PUSH4 0xA9059CBB EQ PUSH2 0x268 JUMPI DUP2 PUSH4 0xC2D0FFCA EQ PUSH2 0x1B9 JUMPI DUP2 PUSH4 0xDB4CF1E0 EQ PUSH2 0x10A JUMPI POP PUSH4 0xDD62ED3E EQ PUSH2 0xBF JUMPI PUSH1 0x0 DUP1 REVERT JUMPDEST CALLVALUE PUSH2 0x106 JUMPI DUP1 PUSH1 0x3 NOT CALLDATASIZE ADD SLT PUSH2 0x106 JUMPI DUP1 PUSH1 0x20 SWAP3 PUSH2 0xDB PUSH2 0x6BD JUMP JUMPDEST PUSH2 0xE3 PUSH2 0x6D8 JUMP JUMPDEST PUSH1 0x1 PUSH1 0x1 PUSH1 0xA0 SHL SUB SWAP2 DUP3 AND DUP4 MSTORE PUSH1 0x6 DUP7 MSTORE DUP4 DUP4 KECCAK256 SWAP2 AND DUP3 MSTORE DUP5 MSTORE KECCAK256 SLOAD SWAP1 MLOAD SWAP1 DUP2 MSTORE RETURN JUMPDEST POP DUP1 REVERT JUMPDEST SWAP1 POP CALLVALUE PUSH2 0x1B5 JUMPI PUSH1 0x20 CALLDATASIZE PUSH1 0x3 NOT ADD SLT PUSH2 0x1B5 JUMPI PUSH2 0x125 PUSH2 0x6BD JUMP JUMPDEST DUP4 SLOAD PUSH1 0x1 PUSH1 0x1 PUSH1 0xA0 SHL SUB SWAP2 SWAP1 PUSH2 0x13E SWAP1 DUP4 AND CALLER EQ PUSH2 0x726 JUMP JUMPDEST AND SWAP1 DUP2 ISZERO PUSH2 0x15E JUMPI POP DUP3 MSTORE PUSH1 0x7 PUSH1 0x20 MSTORE DUP2 KECCAK256 DUP1 SLOAD PUSH1 0xFF NOT AND PUSH1 0x1 OR SWAP1 SSTORE DUP1 RETURN JUMPDEST PUSH1 0x84 SWAP1 PUSH1 0x20 DUP5 MLOAD SWAP2 PUSH3 0x461BCD PUSH1 0xE5 SHL DUP4 MSTORE DUP3 ADD MSTORE PUSH1 0x2B PUSH1 0x24 DUP3 ADD MSTORE PUSH32 0x45524332303A204578636C756465204D61782054782066726F6D20746865207A PUSH1 0x44 DUP3 ADD MSTORE PUSH11 0x65726F2061646472657373 PUSH1 0xA8 SHL PUSH1 0x64 DUP3 ADD MSTORE REVERT JUMPDEST DUP3 DUP1 REVERT JUMPDEST SWAP2 SWAP1 POP CALLVALUE PUSH2 0x1B5 JUMPI PUSH1 0x20 CALLDATASIZE PUSH1 0x3 NOT ADD SLT PUSH2 0x1B5 JUMPI DUP2 CALLDATALOAD SWAP2 PUSH2 0x1E4 PUSH1 0x1 DUP1 PUSH1 0xA0 SHL SUB DUP6 SLOAD AND CALLER EQ PUSH2 0x726 JUMP JUMPDEST PUSH1 0x5 DUP4 GT PUSH2 0x21C JUMPI SWAP2 PUSH1 0x20 SWAP2 DUP2 PUSH32 0xFF3DD5E80294197918C284BBFC3DADD97D0B40CE92106110946329088F80068A SWAP5 SSTORE MLOAD SWAP1 DUP2 MSTORE LOG1 DUP1 RETURN JUMPDEST PUSH1 0x20 PUSH1 0x84 SWAP3 MLOAD SWAP2 PUSH3 0x461BCD PUSH1 0xE5 SHL DUP4 MSTORE DUP3 ADD MSTORE PUSH1 0x21 PUSH1 0x24 DUP3 ADD MSTORE PUSH32 0x4D6178205472616E73616374696F6E2063616E6E6F7420657863656564203525 PUSH1 0x44 DUP3 ADD MSTORE PUSH1 0x17 PUSH1 0xF9 SHL PUSH1 0x64 DUP3 ADD MSTORE REVERT JUMPDEST POP POP CALLVALUE PUSH2 0x106 JUMPI DUP1 PUSH1 0x3 NOT CALLDATASIZE ADD SLT PUSH2 0x106 JUMPI PUSH1 0x20 SWAP1 PUSH2 0x292 PUSH2 0x288 PUSH2 0x6BD JUMP JUMPDEST PUSH1 0x24 CALLDATALOAD SWAP1 CALLER PUSH2 0x873 JUMP JUMPDEST MLOAD PUSH1 0x1 DUP2 MSTORE RETURN JUMPDEST SWAP2 SWAP1 POP CALLVALUE PUSH2 0x1B5 JUMPI DUP3 PUSH1 0x3 NOT CALLDATASIZE ADD SLT PUSH2 0x1B5 JUMPI DUP1 MLOAD SWAP2 DUP4 PUSH1 0x3 SLOAD SWAP1 PUSH1 0x1 SWAP1 DUP3 PUSH1 0x1 SHR SWAP3 PUSH1 0x1 DUP2 AND DUP1 ISZERO PUSH2 0x394 JUMPI JUMPDEST PUSH1 0x20 SWAP6 DUP7 DUP7 LT DUP3 EQ PUSH2 0x381 JUMPI POP DUP5 DUP9 MSTORE SWAP1 DUP2 ISZERO PUSH2 0x35F JUMPI POP PUSH1 0x1 EQ PUSH2 0x306 JUMPI JUMPDEST PUSH2 0x302 DUP7 DUP7 PUSH2 0x2F8 DUP3 DUP12 SUB DUP4 PUSH2 0x6EE JUMP JUMPDEST MLOAD SWAP2 DUP3 SWAP2 DUP3 PUSH2 0x674 JUMP JUMPDEST SUB SWAP1 RETURN JUMPDEST SWAP3 SWAP6 POP PUSH1 0x3 DUP4 MSTORE PUSH32 0xC2575A0E9E593C00F959F8C92F12DB2869C3395A3B0502D05E2516446F71F85B JUMPDEST DUP3 DUP5 LT PUSH2 0x34C JUMPI POP POP POP DUP3 PUSH2 0x302 SWAP5 PUSH2 0x2F8 SWAP3 DUP3 ADD ADD SWAP5 CODESIZE PUSH2 0x2E7 JUMP JUMPDEST DUP1 SLOAD DUP7 DUP6 ADD DUP9 ADD MSTORE SWAP3 DUP7 ADD SWAP3 DUP2 ADD PUSH2 0x32F JUMP JUMPDEST PUSH1 0xFF NOT AND DUP8 DUP7 ADD MSTORE POP POP POP ISZERO ISZERO PUSH1 0x5 SHL DUP4 ADD ADD SWAP3 POP PUSH2 0x2F8 DUP3 PUSH2 0x302 CODESIZE PUSH2 0x2E7 JUMP JUMPDEST PUSH4 0x4E487B71 PUSH1 0xE0 SHL DUP5 MSTORE PUSH1 0x22 SWAP1 MSTORE PUSH1 0x24 DUP4 REVERT JUMPDEST SWAP4 PUSH1 0x7F AND SWAP4 PUSH2 0x2C7 JUMP JUMPDEST POP POP CALLVALUE PUSH2 0x106 JUMPI DUP2 PUSH1 0x3 NOT CALLDATASIZE ADD SLT PUSH2 0x106 JUMPI SWAP1 SLOAD SWAP1 MLOAD PUSH1 0x1 PUSH1 0x1 PUSH1 0xA0 SHL SUB SWAP1 SWAP2 AND DUP2 MSTORE PUSH1 0x20 SWAP1 RETURN JUMPDEST SWAP1 POP CALLVALUE PUSH2 0x1B5 JUMPI DUP3 PUSH1 0x3 NOT CALLDATASIZE ADD SLT PUSH2 0x1B5 JUMPI PUSH1 0x20 SWAP3 POP SLOAD SWAP1 MLOAD SWAP1 DUP2 MSTORE RETURN JUMPDEST DUP4 CALLVALUE PUSH2 0x440 JUMPI DUP1 PUSH1 0x3 NOT CALLDATASIZE ADD SLT PUSH2 0x440 JUMPI DUP1 SLOAD DUP2 PUSH1 0x1 PUSH1 0x1 PUSH1 0xA0 SHL SUB DUP3 AND PUSH2 0x40D CALLER DUP3 EQ PUSH2 0x726 JUMP JUMPDEST PUSH32 0x8BE0079C531659141344CD1FD0A4F28419497F9722A3DAAFE3B4186F6B6457E0 DUP3 DUP1 LOG3 PUSH1 0x1 PUSH1 0x1 PUSH1 0xA0 SHL SUB NOT AND DUP2 SSTORE DUP1 RETURN JUMPDEST DUP1 REVERT JUMPDEST POP POP CALLVALUE PUSH2 0x106 JUMPI PUSH1 0x20 CALLDATASIZE PUSH1 0x3 NOT ADD SLT PUSH2 0x106 JUMPI PUSH1 0x20 SWAP2 DUP2 SWAP1 PUSH1 0x1 PUSH1 0x1 PUSH1 0xA0 SHL SUB PUSH2 0x46B PUSH2 0x6BD JUMP JUMPDEST AND DUP2 MSTORE PUSH1 0x5 DUP5 MSTORE KECCAK256 SLOAD SWAP1 MLOAD SWAP1 DUP2 MSTORE RETURN JUMPDEST POP POP CALLVALUE PUSH2 0x106 JUMPI DUP2 PUSH1 0x3 NOT CALLDATASIZE ADD SLT PUSH2 0x106 JUMPI PUSH1 0x20 SWAP1 MLOAD PUSH1 0x12 DUP2 MSTORE RETURN JUMPDEST DUP3 DUP5 CALLVALUE PUSH2 0x440 JUMPI PUSH1 0x60 CALLDATASIZE PUSH1 0x3 NOT ADD SLT PUSH2 0x440 JUMPI PUSH2 0x4B2 PUSH2 0x6BD JUMP JUMPDEST SWAP1 PUSH2 0x4BB PUSH2 0x6D8 JUMP JUMPDEST PUSH2 0x4C9 PUSH1 0x44 CALLDATALOAD DUP1 SWAP3 DUP6 PUSH2 0x873 JUMP JUMPDEST PUSH1 0x1 PUSH1 0x1 PUSH1 0xA0 SHL SUB DUP4 AND DUP3 MSTORE PUSH1 0x6 PUSH1 0x20 SWAP1 DUP2 MSTORE DUP5 DUP4 KECCAK256 CALLER DUP5 MSTORE SWAP1 MSTORE DUP4 DUP3 KECCAK256 SLOAD DUP5 MLOAD SWAP3 PUSH1 0x60 DUP5 ADD SWAP1 PUSH8 0xFFFFFFFFFFFFFFFF DUP3 GT DUP6 DUP4 LT OR PUSH2 0x559 JUMPI PUSH1 0x20 DUP8 PUSH2 0x292 DUP9 PUSH2 0x551 DUP10 DUP10 DUP10 DUP10 DUP8 MSTORE PUSH1 0x28 DUP4 MSTORE PUSH32 0x45524332303A207472616E7366657220616D6F756E7420657863656564732061 DUP9 DUP5 ADD MSTORE PUSH8 0x6C6C6F77616E6365 PUSH1 0xC0 SHL DUP8 DUP5 ADD MSTORE PUSH2 0xB4D JUMP JUMPDEST SWAP1 CALLER SWAP1 PUSH2 0x771 JUMP JUMPDEST PUSH4 0x4E487B71 PUSH1 0xE0 SHL DUP2 MSTORE PUSH1 0x41 DUP9 MSTORE PUSH1 0x24 SWAP1 REVERT JUMPDEST POP POP CALLVALUE PUSH2 0x106 JUMPI DUP2 PUSH1 0x3 NOT CALLDATASIZE ADD SLT PUSH2 0x106 JUMPI PUSH1 0x20 SWAP1 PUSH1 0x1 SLOAD SWAP1 MLOAD SWAP1 DUP2 MSTORE RETURN JUMPDEST POP POP CALLVALUE PUSH2 0x106 JUMPI DUP1 PUSH1 0x3 NOT CALLDATASIZE ADD SLT PUSH2 0x106 JUMPI PUSH1 0x20 SWAP1 PUSH2 0x292 PUSH2 0x5AB PUSH2 0x6BD JUMP JUMPDEST PUSH1 0x24 CALLDATALOAD SWAP1 CALLER PUSH2 0x771 JUMP JUMPDEST SWAP3 SWAP2 POP CALLVALUE PUSH2 0x670 JUMPI DUP4 PUSH1 0x3 NOT CALLDATASIZE ADD SLT PUSH2 0x670 JUMPI PUSH1 0x2 SLOAD PUSH1 0x1 DUP2 DUP2 SHR SWAP2 DUP7 SWAP1 DUP3 DUP2 AND DUP1 ISZERO PUSH2 0x666 JUMPI JUMPDEST PUSH1 0x20 SWAP6 DUP7 DUP7 LT DUP3 EQ PUSH2 0x381 JUMPI POP DUP5 DUP9 MSTORE SWAP1 DUP2 ISZERO PUSH2 0x35F JUMPI POP PUSH1 0x1 EQ PUSH2 0x60D JUMPI PUSH2 0x302 DUP7 DUP7 PUSH2 0x2F8 DUP3 DUP12 SUB DUP4 PUSH2 0x6EE JUMP JUMPDEST SWAP3 SWAP6 POP PUSH1 0x2 DUP4 MSTORE PUSH32 0x405787FA12A823E0F2B7631CC41B3BA8828B3321CA811111FA75CD3AA3BB5ACE JUMPDEST DUP3 DUP5 LT PUSH2 0x653 JUMPI POP POP POP DUP3 PUSH2 0x302 SWAP5 PUSH2 0x2F8 SWAP3 DUP3 ADD ADD SWAP5 CODESIZE PUSH2 0x2E7 JUMP JUMPDEST DUP1 SLOAD DUP7 DUP6 ADD DUP9 ADD MSTORE SWAP3 DUP7 ADD SWAP3 DUP2 ADD PUSH2 0x636 JUMP JUMPDEST SWAP4 PUSH1 0x7F AND SWAP4 PUSH2 0x5DD JUMP JUMPDEST DUP4 DUP1 REVERT JUMPDEST PUSH1 0x20 DUP1 DUP3 MSTORE DUP3 MLOAD DUP2 DUP4 ADD DUP2 SWAP1 MSTORE SWAP1 SWAP4 SWAP3 PUSH1 0x0 JUMPDEST DUP3 DUP2 LT PUSH2 0x6A9 JUMPI POP POP PUSH1 0x40 SWAP3 SWAP4 POP PUSH1 0x0 DUP4 DUP3 DUP5 ADD ADD MSTORE PUSH1 0x1F DUP1 NOT SWAP2 ADD AND ADD ADD SWAP1 JUMP JUMPDEST DUP2 DUP2 ADD DUP7 ADD MLOAD DUP5 DUP3 ADD PUSH1 0x40 ADD MSTORE DUP6 ADD PUSH2 0x687 JUMP JUMPDEST PUSH1 0x4 CALLDATALOAD SWAP1 PUSH1 0x1 PUSH1 0x1 PUSH1 0xA0 SHL SUB DUP3 AND DUP3 SUB PUSH2 0x6D3 JUMPI JUMP JUMPDEST PUSH1 0x0 DUP1 REVERT JUMPDEST PUSH1 0x24 CALLDATALOAD SWAP1 PUSH1 0x1 PUSH1 0x1 PUSH1 0xA0 SHL SUB DUP3 AND DUP3 SUB PUSH2 0x6D3 JUMPI JUMP JUMPDEST SWAP1 PUSH1 0x1F DUP1 NOT SWAP2 ADD AND DUP2 ADD SWAP1 DUP2 LT PUSH8 0xFFFFFFFFFFFFFFFF DUP3 GT OR PUSH2 0x710 JUMPI PUSH1 0x40 MSTORE JUMP JUMPDEST PUSH4 0x4E487B71 PUSH1 0xE0 SHL PUSH1 0x0 MSTORE PUSH1 0x41 PUSH1 0x4 MSTORE PUSH1 0x24 PUSH1 0x0 REVERT JUMPDEST ISZERO PUSH2 0x72D JUMPI JUMP JUMPDEST PUSH1 0x64 PUSH1 0x40 MLOAD PUSH3 0x461BCD PUSH1 0xE5 SHL DUP2 MSTORE PUSH1 0x20 PUSH1 0x4 DUP3 ADD MSTORE PUSH1 0x20 PUSH1 0x24 DUP3 ADD MSTORE PUSH32 0x4F776E61626C653A2063616C6C6572206973206E6F7420746865206F776E6572 PUSH1 0x44 DUP3 ADD MSTORE REVERT JUMPDEST PUSH1 0x1 PUSH1 0x1 PUSH1 0xA0 SHL SUB SWAP1 DUP2 AND SWAP2 DUP3 ISZERO PUSH2 0x822 JUMPI AND SWAP2 DUP3 ISZERO PUSH2 0x7D2 JUMPI PUSH1 0x20 PUSH32 0x8C5BE1E5EBEC7D5BD14F71427D1E84F3DD0314C0F7B2291E5B200AC8C7C3B925 SWAP2 DUP4 PUSH1 0x0 MSTORE PUSH1 0x6 DUP3 MSTORE PUSH1 0x40 PUSH1 0x0 KECCAK256 DUP6 PUSH1 0x0 MSTORE DUP3 MSTORE DUP1 PUSH1 0x40 PUSH1 0x0 KECCAK256 SSTORE PUSH1 0x40 MLOAD SWAP1 DUP2 MSTORE LOG3 JUMP JUMPDEST PUSH1 0x40 MLOAD PUSH3 0x461BCD PUSH1 0xE5 SHL DUP2 MSTORE PUSH1 0x20 PUSH1 0x4 DUP3 ADD MSTORE PUSH1 0x22 PUSH1 0x24 DUP3 ADD MSTORE PUSH32 0x45524332303A20617070726F766520746F20746865207A65726F206164647265 PUSH1 0x44 DUP3 ADD MSTORE PUSH2 0x7373 PUSH1 0xF0 SHL PUSH1 0x64 DUP3 ADD MSTORE PUSH1 0x84 SWAP1 REVERT JUMPDEST PUSH1 0x40 MLOAD PUSH3 0x461BCD PUSH1 0xE5 SHL DUP2 MSTORE PUSH1 0x20 PUSH1 0x4 DUP3 ADD MSTORE PUSH1 0x24 DUP1 DUP3 ADD MSTORE PUSH32 0x45524332303A20617070726F76652066726F6D20746865207A65726F20616464 PUSH1 0x44 DUP3 ADD MSTORE PUSH4 0x72657373 PUSH1 0xE0 SHL PUSH1 0x64 DUP3 ADD MSTORE PUSH1 0x84 SWAP1 REVERT JUMPDEST SWAP2 SWAP3 SWAP2 PUSH1 0x1 PUSH1 0x1 PUSH1 0xA0 SHL SUB SWAP1 DUP2 AND SWAP2 DUP3 ISZERO PUSH2 0xAFA JUMPI AND SWAP1 DUP2 ISZERO PUSH2 0xAA9 JUMPI DUP4 ISZERO PUSH2 0xA52 JUMPI PUSH1 0x4 DUP1 SLOAD SWAP5 PUSH1 0x1 SLOAD SWAP6 DUP7 DUP2 MUL SWAP7 DUP2 DUP9 DIV EQ SWAP1 ISZERO OR ISZERO PUSH2 0xA3D JUMPI PUSH1 0x0 SWAP6 DUP4 DUP8 MSTORE PUSH1 0x20 SWAP3 PUSH1 0x7 DUP5 MSTORE PUSH1 0x40 SWAP2 PUSH1 0xFF DUP4 DUP11 KECCAK256 SLOAD AND ISZERO PUSH2 0x9EC JUMPI JUMPDEST POP DUP5 DUP9 MSTORE PUSH1 0x5 DUP5 MSTORE DUP2 DUP9 KECCAK256 SLOAD DUP3 MLOAD SWAP1 DUP4 DUP3 ADD DUP3 DUP2 LT PUSH8 0xFFFFFFFFFFFFFFFF DUP3 GT OR PUSH2 0x9D9 JUMPI PUSH2 0x928 SWAP3 SWAP2 DUP7 SWAP2 DUP7 MSTORE PUSH1 0x1E DUP4 MSTORE PUSH32 0x536166654D6174683A207375627472616374696F6E206F766572666C6F770000 DUP9 DUP5 ADD MSTORE PUSH2 0xB4D JUMP JUMPDEST DUP6 DUP10 MSTORE PUSH1 0x5 DUP6 MSTORE DUP3 DUP10 KECCAK256 SSTORE DUP6 DUP9 MSTORE DUP2 DUP9 KECCAK256 SLOAD SWAP1 DUP4 DUP3 ADD SWAP2 DUP3 DUP2 GT PUSH2 0x9C6 JUMPI DUP3 LT PUSH2 0x983 JUMPI POP DUP2 DUP9 DUP8 PUSH32 0xDDF252AD1BE2C89B69C2B068FC378DAA952BA7F163C4A11628F55A4DF523B3EF SWAP8 SWAP9 SWAP10 SWAP11 MSTORE PUSH1 0x5 DUP7 MSTORE KECCAK256 SSTORE MLOAD SWAP1 DUP2 MSTORE LOG3 JUMP JUMPDEST DUP3 MLOAD PUSH3 0x461BCD PUSH1 0xE5 SHL DUP2 MSTORE SWAP1 DUP2 ADD DUP6 SWAP1 MSTORE PUSH1 0x1B PUSH1 0x24 DUP3 ADD MSTORE PUSH32 0x536166654D6174683A206164646974696F6E206F766572666C6F770000000000 PUSH1 0x44 DUP3 ADD MSTORE PUSH1 0x64 SWAP1 REVERT JUMPDEST PUSH4 0x4E487B71 PUSH1 0xE0 SHL DUP11 MSTORE PUSH1 0x11 DUP3 MSTORE PUSH1 0x24 DUP11 REVERT JUMPDEST PUSH4 0x4E487B71 PUSH1 0xE0 SHL DUP12 MSTORE PUSH1 0x41 DUP5 MSTORE PUSH1 0x24 DUP12 REVERT JUMPDEST PUSH1 0x64 SWAP1 DIV DUP4 GT PUSH2 0x9FC JUMPI CODESIZE PUSH2 0x8CC JUMP JUMPDEST DUP4 PUSH1 0x64 SWAP3 MLOAD SWAP2 PUSH3 0x461BCD PUSH1 0xE5 SHL DUP4 MSTORE DUP3 ADD MSTORE PUSH1 0x18 PUSH1 0x24 DUP3 ADD MSTORE PUSH32 0x4578636565647320746865204D61785478416D6F756E742E0000000000000000 PUSH1 0x44 DUP3 ADD MSTORE REVERT JUMPDEST PUSH1 0x11 DUP3 PUSH4 0x4E487B71 PUSH1 0xE0 SHL PUSH1 0x0 MSTORE MSTORE PUSH1 0x24 PUSH1 0x0 REVERT JUMPDEST PUSH1 0x40 MLOAD PUSH3 0x461BCD PUSH1 0xE5 SHL DUP2 MSTORE PUSH1 0x20 PUSH1 0x4 DUP3 ADD MSTORE PUSH1 0x29 PUSH1 0x24 DUP3 ADD MSTORE PUSH32 0x5472616E7366657220616D6F756E74206D757374206265206772656174657220 PUSH1 0x44 DUP3 ADD MSTORE PUSH9 0x7468616E207A65726F PUSH1 0xB8 SHL PUSH1 0x64 DUP3 ADD MSTORE PUSH1 0x84 SWAP1 REVERT JUMPDEST PUSH1 0x40 MLOAD PUSH3 0x461BCD PUSH1 0xE5 SHL DUP2 MSTORE PUSH1 0x20 PUSH1 0x4 DUP3 ADD MSTORE PUSH1 0x23 PUSH1 0x24 DUP3 ADD MSTORE PUSH32 0x45524332303A207472616E7366657220746F20746865207A65726F2061646472 PUSH1 0x44 DUP3 ADD MSTORE PUSH3 0x657373 PUSH1 0xE8 SHL PUSH1 0x64 DUP3 ADD MSTORE PUSH1 0x84 SWAP1 REVERT JUMPDEST PUSH1 0x40 MLOAD PUSH3 0x461BCD PUSH1 0xE5 SHL DUP2 MSTORE PUSH1 0x20 PUSH1 0x4 DUP3 ADD MSTORE PUSH1 0x25 PUSH1 0x24 DUP3 ADD MSTORE PUSH32 0x45524332303A207472616E736665722066726F6D20746865207A65726F206164 PUSH1 0x44 DUP3 ADD MSTORE PUSH5 0x6472657373 PUSH1 0xD8 SHL PUSH1 0x64 DUP3 ADD MSTORE PUSH1 0x84 SWAP1 REVERT JUMPDEST SWAP2 DUP3 DUP3 GT PUSH2 0xB78 JUMPI POP DUP2 SUB SWAP1 DUP2 GT PUSH2 0xB62 JUMPI SWAP1 JUMP JUMPDEST PUSH4 0x4E487B71 PUSH1 0xE0 SHL PUSH1 0x0 MSTORE PUSH1 0x11 PUSH1 0x4 MSTORE PUSH1 0x24 PUSH1 0x0 REVERT JUMPDEST PUSH1 0x40 MLOAD PUSH3 0x461BCD PUSH1 0xE5 SHL DUP2 MSTORE SWAP1 DUP2 SWAP1 PUSH2 0xB94 SWAP1 PUSH1 0x4 DUP4 ADD PUSH2 0x674 JUMP JUMPDEST SUB SWAP1 REVERT INVALID LOG2 PUSH5 0x6970667358 0x22 SLT KECCAK256 0xC4 SWAP15 SSTORE SELFBALANCE BLOCKHASH 0xCB PUSH18 0xAA09A85B3746B1A934ACBFB9371A9F5EEFD2 PUSH27 0x7B626EA785F264736F6C63430008180033A2646970667358221220 JUMPI OR 0xD3 OR CODECOPY 0xCD 0x22 0xF7 0xDE 0xDA 0x4E 0xB2 MSTORE8 CALLCODE BLOBBASEFEE 0x2A SWAP13 SWAP16 AND 0x25 PC 0xCF DUP14 PUSH26 0x2692020CD9A9FA2864736F6C6343000818003300000000000000 "
        },
        "methodIdentifiers": {
          "approval(address,address,uint256)": "5c52a5f2",
          "deploy(address)": "4c96a389",
          "feeTo()": "017e7e58",
          "feeToSetter()": "094b7415",
          "getTokenUrls(address)": "c0f45e70",
          "getTokens(uint256)": "d3c9cc26",
          "getUserReferrals()": "e1ea9d73",
          "getUserTokens()": "8a664ebc",
          "launch(string,string,string,string,string[4],uint256,uint256,address,uint256)": "7c8f0323",
          "launchFee()": "cf3cf573",
          "liquidityFee()": "98118cb4",
          "marketCapLimit()": "80997e47",
          "profile(address)": "9dd9d0fd",
          "profiles(uint256)": "c36fe3d6",
          "referralFee()": "84ae2bc6",
          "setFeeTo(address)": "f46901ed",
          "token(address)": "6d46a1db",
          "tokens(uint256)": "4f64b2be",
          "updateLaunchFee(uint256)": "7660f44a",
          "updateReferralFee(uint256)": "f3f524b8",
          "withdraw()": "3ccfd60b"
        }
      }
    }
  }
}