{
  "contracts/Router.sol": {
    "Router": {
      "abi": [
        {
          "inputs": [
            {
              "internalType": "address",
              "name": "factory_",
              "type": "address"
            },
            {
              "internalType": "address",
              "name": "weth",
              "type": "address"
            }
          ],
          "stateMutability": "nonpayable",
          "type": "constructor"
        },
        {
          "inputs": [],
          "name": "ReentrancyGuardReentrantCall",
          "type": "error"
        },
        {
          "inputs": [],
          "name": "WETH",
          "outputs": [
            {
              "internalType": "address",
              "name": "",
              "type": "address"
            }
          ],
          "stateMutability": "view",
          "type": "function"
        },
        {
          "inputs": [
            {
              "internalType": "address",
              "name": "token",
              "type": "address"
            },
            {
              "internalType": "uint256",
              "name": "amountToken",
              "type": "uint256"
            }
          ],
          "name": "addLiquidityETH",
          "outputs": [
            {
              "internalType": "uint256",
              "name": "",
              "type": "uint256"
            },
            {
              "internalType": "uint256",
              "name": "",
              "type": "uint256"
            }
          ],
          "stateMutability": "payable",
          "type": "function"
        },
        {
          "inputs": [],
          "name": "factory",
          "outputs": [
            {
              "internalType": "address",
              "name": "",
              "type": "address"
            }
          ],
          "stateMutability": "view",
          "type": "function"
        },
        {
          "inputs": [
            {
              "internalType": "address",
              "name": "token",
              "type": "address"
            },
            {
              "internalType": "address",
              "name": "weth",
              "type": "address"
            },
            {
              "internalType": "uint256",
              "name": "amountIn",
              "type": "uint256"
            }
          ],
          "name": "getAmountsOut",
          "outputs": [
            {
              "internalType": "uint256",
              "name": "_amountOut",
              "type": "uint256"
            }
          ],
          "stateMutability": "nonpayable",
          "type": "function"
        },
        {
          "inputs": [
            {
              "internalType": "address",
              "name": "token",
              "type": "address"
            },
            {
              "internalType": "uint256",
              "name": "liquidity",
              "type": "uint256"
            },
            {
              "internalType": "address",
              "name": "to",
              "type": "address"
            }
          ],
          "name": "removeLiquidityETH",
          "outputs": [
            {
              "internalType": "uint256",
              "name": "",
              "type": "uint256"
            },
            {
              "internalType": "uint256",
              "name": "",
              "type": "uint256"
            }
          ],
          "stateMutability": "nonpayable",
          "type": "function"
        },
        {
          "inputs": [
            {
              "internalType": "address",
              "name": "token",
              "type": "address"
            },
            {
              "internalType": "address",
              "name": "to",
              "type": "address"
            }
          ],
          "name": "swapETHForTokens",
          "outputs": [
            {
              "internalType": "uint256",
              "name": "",
              "type": "uint256"
            },
            {
              "internalType": "uint256",
              "name": "",
              "type": "uint256"
            }
          ],
          "stateMutability": "payable",
          "type": "function"
        },
        {
          "inputs": [
            {
              "internalType": "uint256",
              "name": "amountIn",
              "type": "uint256"
            },
            {
              "internalType": "address",
              "name": "token",
              "type": "address"
            },
            {
              "internalType": "address",
              "name": "to",
              "type": "address"
            }
          ],
          "name": "swapTokensForETH",
          "outputs": [
            {
              "internalType": "uint256",
              "name": "",
              "type": "uint256"
            },
            {
              "internalType": "uint256",
              "name": "",
              "type": "uint256"
            }
          ],
          "stateMutability": "nonpayable",
          "type": "function"
        }
      ],
      "evm": {
        "bytecode": {
          "linkReferences": {},
          "object": "608034620000b257601f6200158538819003918201601f19168301916001600160401b03831184841017620000b7578084926040948552833981010312620000b2576200005a60206200005283620000cd565b9201620000cd565b60016000556001600160a01b03918216919062000079831515620000e2565b169062000088821515620000e2565b60018060a01b03199081600154161760015560025416176002556040516114559081620001308239f35b600080fd5b634e487b7160e01b600052604160045260246000fd5b51906001600160a01b0382168203620000b257565b15620000ea57565b60405162461bcd60e51b815260206004820152601f60248201527f5a65726f2061646472657373657320617265206e6f7420616c6c6f7765642e006044820152606490fdfe60406080815260048036101561001457600080fd5b6000803560e01c806345608d0014610e355780636bf09f10146108e45780637282d5481461074b5780637f54a36914610480578063ad5c464814610457578063c45a01551461042a5763e79a40891461006c57600080fd5b3461042757606036600319011261042757610085610e7a565b9160243591610092610eab565b61009a611086565b6001600160a01b03928584166100b1811515610ec1565b6100be8584161515610ec1565b600154600254895163e6a4390560e01b81526001600160a01b038a8116868301908152928916166020808401919091529790959290918891879182900360400190829085165afa94851561041d5786956103ee575b508416938951630240bc6b60e21b81526060818681895afa9081156103505787916103bd575b508a516316d3df1560e31b8152888187818a5afa9081156103b357908a8a928a9261037b575b506101b7936064610174819461017b94610f98565b049c610f98565b8d51632e2952f960e11b8152308982019081526001600160a01b03909e1660208f015291900460408d018190529b909283918291606090910190565b03818a8a5af190811561035057879161035e575b501561035a578951637b1a490960e01b81526001600160a01b038316858201908152602081018a905288908290819060400103818a8a5af19081156103505792878b9361022561026297948c978491610333575b50610fee565b8d516323b872dd60e01b81526001600160a01b03918216898201908152919093166020820152604081019490945290948593849291839160600190565b03925af1908115610329579285926102866102b5938796879161030c575b5061103a565b8951631d24e23160e21b8152908101898152602081018990523360408201529094859384928391606090910190565b03925af180156103025790600192916102d5575b50558351928352820152f35b6102f490843d86116102fb575b6102ec8183610f3f565b810190610f80565b50386102c9565b503d6102e2565b86513d84823e3d90fd5b6103239150863d88116102fb576102ec8183610f3f565b38610280565b88513d86823e3d90fd5b61034a9150883d8a116102fb576102ec8183610f3f565b3861021f565b8b513d89823e3d90fd5b8580fd5b6103759150883d8a116102fb576102ec8183610f3f565b386101cb565b928092508391503d83116103ac575b6103948183610f3f565b810103126103a8575188908a6101b761015f565b8780fd5b503d61038a565b8c513d8a823e3d90fd5b6103df915060603d6060116103e7575b6103d78183610f3f565b8101906110a9565b505038610139565b503d6103cd565b61040f919550873d8911610416575b6104078183610f3f565b810190610f61565b9338610113565b503d6103fd565b8a513d88823e3d90fd5b80fd5b50823461045357816003193601126104535760015490516001600160a01b039091168152602090f35b5080fd5b50823461045357816003193601126104535760025490516001600160a01b039091168152602090f35b508260031936011261042757610494610e7a565b9061049d610e95565b906104a6611086565b6001600160a01b03838116949092906104c0861515610ec1565b6104cd8483161515610ec1565b83600154169584600254169288519563e6a4390560e01b8752602096878180610512898d8a840190602090939293604083019460018060a01b03809216845216910152565b03818d5afa9081156103505788908892610726575b5061053b829361057593169734908c61111e565b8c51632e2952f960e11b8152308882019081526001600160a01b03909c1660208d015260408c01829052909a909283918291606090910190565b03818a8a5af1908115610350578791610709575b50156106d657895163cf82046160e01b8152878186818d5afa9081156103505787916106a3575b506105be6064913490610f98565b0484886105cb8334610fe1565b9b8d5192838092622fcfcb60e31b82525afa9081156103b3578a9361022561060d61061798958f958e99968e96879261067c575b5061060d61061291876112a9565b610fee565b6112a9565b03925af19081156103295785926106388693608493859161030c575061103a565b828a519586948593635673b02d60e01b85528401528960248401528a60448401528160648401525af180156103025790600192916102d55750558351928352820152f35b61061291925061069b61060d918d803d10610416576104078183610f3f565b9291506105ff565b90508781813d83116106cf575b6106ba8183610f3f565b810103126106cb57516105be6105b0565b8680fd5b503d6106b0565b895162461bcd60e51b8152808501889052600d60248201526c2737ba1020b8383937bb32b21760991b6044820152606490fd5b6107209150883d8a116102fb576102ec8183610f3f565b38610589565b610575925061074461053b91833d8511610416576104078183610f3f565b9250610527565b50826003193601126104275761075f610e7a565b906024359261076c611086565b6001600160a01b039083821690610784821515610ec1565b600154600254885163e6a4390560e01b81526001600160a01b03978816848201908152918616909716602080830191909152969391879185918716908290819060400103915afa9283156108bb5785936108c5575b506107e761060d34856112a9565b87516323b872dd60e01b8152338382019081526001600160a01b0385166020820152604081018990529091879183919082908990829060600103925af19081156108bb579161084287949261087194889161030c575061103a565b885163e7d3fe6b60e01b8152908101888152346020820152336040820152909485938492889291849160600190565b0393165af180156108b1579060019291610894575b505582519182523490820152f35b6108aa90843d86116102fb576102ec8183610f3f565b5038610886565b85513d84823e3d90fd5b88513d87823e3d90fd5b6108dd919350863d8811610416576104078183610f3f565b91386107d9565b5082903461042757606036600319011261042757823590610903610e95565b9361090c610eab565b91610915611086565b6001600160a01b039161092b8784161515610ec1565b6109388385161515610ec1565b826001541693836002541687519863e6a4390560e01b8a52602095868b8061097c86868a840190602090939293604083019460018060a01b03809216845216910152565b03818b5afa92831561041d578a9b8798999a9b9794610e16575b506109e289828c868a878a169c6109b08984161515610ec1565b5163e6a4390560e01b81526001600160a01b039283169181019182529190931660208401529384928391829160400190565b03915afa908115610e0c579083918a91610def575b508d51630240bc6b60e21b81529291166060838981845afa928315610de557918b8f928c95938b958795610dbd575b5051637464fc3d60e01b815294859182905afa928315610db2578f9897948f97948d948f98948d948793610d63575b50918a8796959492610ae9948e995015600014610d4c5791610a7e610a9792610ab1959461135f565b90610a92610a8a6110c4565b8315156113b8565b610fc1565b90610aac610aa36110ef565b828411156113b8565b610fe1565b9a5b51988997889687946323b872dd60e01b8652850160409194939294606082019560018060a01b0380921683521660208201520152565b0393165af190811561041d578691610d2f575b5015610cec57885163cf82046160e01b8152868185818b5afa90811561041d578385939289928991610cb4575b50610b39610b4192606492610f98565b048095610fe1565b988b5193848092622fcfcb60e31b82525afa91821561041d578692610c95575b508951637b1a490960e01b8082526001600160a01b03909216858201908152602081018a905288908290819060400103818a8a5af19081156103505788939291610bb1918991610c785750610fee565b8a519081526001600160a01b0390911684820190815260208101939093529182908190604001038187875af1908115610329578592610bfa89936084938891610c5b5750610fee565b858a519586948593635673b02d60e01b85528401528160248401528160448401528960648401525af18015610302579060019291610c3e5750558351928352820152f35b610c5490843d86116102fb576102ec8183610f3f565b50866102c9565b610c729150863d88116102fb576102ec8183610f3f565b8c61021f565b610c8f9150853d87116102fb576102ec8183610f3f565b8d61021f565b610cad919250873d8911610416576104078183610f3f565b908a610b61565b939450505081813d8311610ce5575b610ccd8183610f3f565b8101031261035a575183919087908490610b39610b29565b503d610cc3565b885162461bcd60e51b8152808401879052601860248201527f5472616e73666572206f6620746f6b656e206661696c656400000000000000006044820152606490fd5b610d469150873d89116102fb576102ec8183610f3f565b8a610afc565b91610a7e610a9792610d5d9561135f565b9a610ab3565b959994509699509450509497985081813d8311610dab575b610d858183610f3f565b81010312610da757518e97968e968d96919590948d9492938c9390918a610a55565b8a80fd5b503d610d7b565b508e513d8c823e3d90fd5b909450610dda91965060603d6060116103e7576103d78183610f3f565b509590959338610a26565b8e513d8c823e3d90fd5b610e0691508b3d8d11610416576104078183610f3f565b8e6109f7565b8d513d8b823e3d90fd5b610e2e919450893d8b11610416576104078183610f3f565b928c610996565b50823461045357606036600319011261045357906020916001610e72610e59610e7a565b610e61610e95565b610e69611086565b6044359161111e565b925551908152f35b600435906001600160a01b0382168203610e9057565b600080fd5b602435906001600160a01b0382168203610e9057565b604435906001600160a01b0382168203610e9057565b15610ec857565b60405162461bcd60e51b815260206004820152601f60248201527f5a65726f2061646472657373657320617265206e6f7420616c6c6f7765642e006044820152606490fd5b6040810190811067ffffffffffffffff821117610f2957604052565b634e487b7160e01b600052604160045260246000fd5b90601f8019910116810190811067ffffffffffffffff821117610f2957604052565b90816020910312610e9057516001600160a01b0381168103610e905790565b90816020910312610e9057518015158103610e905790565b81810292918115918404141715610fab57565b634e487b7160e01b600052601160045260246000fd5b8115610fcb570490565b634e487b7160e01b600052601260045260246000fd5b91908203918211610fab57565b15610ff557565b60405162461bcd60e51b815260206004820152601760248201527f5472616e73666572206f6620455448206661696c65642e0000000000000000006044820152606490fd5b1561104157565b60405162461bcd60e51b815260206004820152601960248201527f5472616e73666572206f6620746f6b656e206661696c65642e000000000000006044820152606490fd5b600260005414611097576002600055565b604051633ee5aeb560e01b8152600490fd5b90816060910312610e90578051916040602083015192015190565b604051906110d182610f0d565b600f82526e111a5d9a5cda5bdb8819985a5b1959608a1b6020830152565b604051906110fc82610f0d565b601382527229bab13a3930b1ba34b7b7103330b4b632b21760691b6020830152565b6001600160a01b039290916111368484161515610ec1565b6001546002546040805163e6a4390560e01b81526001600160a01b039687166004820152918716958616602483015260209690959290919087908290604490829086165afa90811561129e57908291600091611281575b501692855196630240bc6b60e21b8852606088600481885afa94851561127657600098600096611248575b509080600492895193848092637464fc3d60e01b82525afa97881561123e575060009761120e575b505016036111fd5791610a7e610a97926111fa959461135f565b90565b91610a7e610a97926111fa9561135f565b9080929750813d8311611237575b6112268183610f3f565b81010312610e9057519438806111e0565b503d61121c565b513d6000823e3d90fd5b8299506004929196506112699060603d6060116103e7576103d78183610f3f565b50999099969192506111b8565b87513d6000823e3d90fd5b6112989150883d8a11610416576104078183610f3f565b3861118d565b86513d6000823e3d90fd5b6001600160a01b03166112bd811515610ec1565b60008080809481945af1903d15611359573d9067ffffffffffffffff821161134557604051916112f7601f8201601f191660200184610f3f565b825260203d92013e5b80156113095790565b60405162461bcd60e51b81526020600482015260146024820152732a3930b739b332b91022aa24102330b4b632b21760611b6044820152606490fd5b634e487b7160e01b81526041600452602490fd5b50611300565b90810190818111610fab5781106113735790565b60405162461bcd60e51b815260206004820152601b60248201527f536166654d6174683a206164646974696f6e206f766572666c6f7700000000006044820152606490fd5b156113c05750565b6040519062461bcd60e51b82528160208060048301528251908160248401526000935b828510611406575050604492506000838284010152601f80199101168101030190fd5b84810182015186860160440152938101938593506113e356fea2646970667358221220dfd833316e3b9746386d3254a4ce22e2f30150de0b5a366815838e7f833e67ab64736f6c63430008180033",
          "opcodes": "PUSH1 0x80 CALLVALUE PUSH3 0xB2 JUMPI PUSH1 0x1F PUSH3 0x1585 CODESIZE DUP2 SWAP1 SUB SWAP2 DUP3 ADD PUSH1 0x1F NOT AND DUP4 ADD SWAP2 PUSH1 0x1 PUSH1 0x1 PUSH1 0x40 SHL SUB DUP4 GT DUP5 DUP5 LT OR PUSH3 0xB7 JUMPI DUP1 DUP5 SWAP3 PUSH1 0x40 SWAP5 DUP6 MSTORE DUP4 CODECOPY DUP2 ADD SUB SLT PUSH3 0xB2 JUMPI PUSH3 0x5A PUSH1 0x20 PUSH3 0x52 DUP4 PUSH3 0xCD JUMP JUMPDEST SWAP3 ADD PUSH3 0xCD JUMP JUMPDEST PUSH1 0x1 PUSH1 0x0 SSTORE PUSH1 0x1 PUSH1 0x1 PUSH1 0xA0 SHL SUB SWAP2 DUP3 AND SWAP2 SWAP1 PUSH3 0x79 DUP4 ISZERO ISZERO PUSH3 0xE2 JUMP JUMPDEST AND SWAP1 PUSH3 0x88 DUP3 ISZERO ISZERO PUSH3 0xE2 JUMP JUMPDEST PUSH1 0x1 DUP1 PUSH1 0xA0 SHL SUB NOT SWAP1 DUP2 PUSH1 0x1 SLOAD AND OR PUSH1 0x1 SSTORE PUSH1 0x2 SLOAD AND OR PUSH1 0x2 SSTORE PUSH1 0x40 MLOAD PUSH2 0x1455 SWAP1 DUP2 PUSH3 0x130 DUP3 CODECOPY RETURN JUMPDEST PUSH1 0x0 DUP1 REVERT JUMPDEST PUSH4 0x4E487B71 PUSH1 0xE0 SHL PUSH1 0x0 MSTORE PUSH1 0x41 PUSH1 0x4 MSTORE PUSH1 0x24 PUSH1 0x0 REVERT JUMPDEST MLOAD SWAP1 PUSH1 0x1 PUSH1 0x1 PUSH1 0xA0 SHL SUB DUP3 AND DUP3 SUB PUSH3 0xB2 JUMPI JUMP JUMPDEST ISZERO PUSH3 0xEA JUMPI JUMP JUMPDEST PUSH1 0x40 MLOAD PUSH3 0x461BCD PUSH1 0xE5 SHL DUP2 MSTORE PUSH1 0x20 PUSH1 0x4 DUP3 ADD MSTORE PUSH1 0x1F PUSH1 0x24 DUP3 ADD MSTORE PUSH32 0x5A65726F2061646472657373657320617265206E6F7420616C6C6F7765642E00 PUSH1 0x44 DUP3 ADD MSTORE PUSH1 0x64 SWAP1 REVERT INVALID PUSH1 0x40 PUSH1 0x80 DUP2 MSTORE PUSH1 0x4 DUP1 CALLDATASIZE LT ISZERO PUSH2 0x14 JUMPI PUSH1 0x0 DUP1 REVERT JUMPDEST PUSH1 0x0 DUP1 CALLDATALOAD PUSH1 0xE0 SHR DUP1 PUSH4 0x45608D00 EQ PUSH2 0xE35 JUMPI DUP1 PUSH4 0x6BF09F10 EQ PUSH2 0x8E4 JUMPI DUP1 PUSH4 0x7282D548 EQ PUSH2 0x74B JUMPI DUP1 PUSH4 0x7F54A369 EQ PUSH2 0x480 JUMPI DUP1 PUSH4 0xAD5C4648 EQ PUSH2 0x457 JUMPI DUP1 PUSH4 0xC45A0155 EQ PUSH2 0x42A JUMPI PUSH4 0xE79A4089 EQ PUSH2 0x6C JUMPI PUSH1 0x0 DUP1 REVERT JUMPDEST CALLVALUE PUSH2 0x427 JUMPI PUSH1 0x60 CALLDATASIZE PUSH1 0x3 NOT ADD SLT PUSH2 0x427 JUMPI PUSH2 0x85 PUSH2 0xE7A JUMP JUMPDEST SWAP2 PUSH1 0x24 CALLDATALOAD SWAP2 PUSH2 0x92 PUSH2 0xEAB JUMP JUMPDEST PUSH2 0x9A PUSH2 0x1086 JUMP JUMPDEST PUSH1 0x1 PUSH1 0x1 PUSH1 0xA0 SHL SUB SWAP3 DUP6 DUP5 AND PUSH2 0xB1 DUP2 ISZERO ISZERO PUSH2 0xEC1 JUMP JUMPDEST PUSH2 0xBE DUP6 DUP5 AND ISZERO ISZERO PUSH2 0xEC1 JUMP JUMPDEST PUSH1 0x1 SLOAD PUSH1 0x2 SLOAD DUP10 MLOAD PUSH4 0xE6A43905 PUSH1 0xE0 SHL DUP2 MSTORE PUSH1 0x1 PUSH1 0x1 PUSH1 0xA0 SHL SUB DUP11 DUP2 AND DUP7 DUP4 ADD SWAP1 DUP2 MSTORE SWAP3 DUP10 AND AND PUSH1 0x20 DUP1 DUP5 ADD SWAP2 SWAP1 SWAP2 MSTORE SWAP8 SWAP1 SWAP6 SWAP3 SWAP1 SWAP2 DUP9 SWAP2 DUP8 SWAP2 DUP3 SWAP1 SUB PUSH1 0x40 ADD SWAP1 DUP3 SWAP1 DUP6 AND GAS STATICCALL SWAP5 DUP6 ISZERO PUSH2 0x41D JUMPI DUP7 SWAP6 PUSH2 0x3EE JUMPI JUMPDEST POP DUP5 AND SWAP4 DUP10 MLOAD PUSH4 0x240BC6B PUSH1 0xE2 SHL DUP2 MSTORE PUSH1 0x60 DUP2 DUP7 DUP2 DUP10 GAS STATICCALL SWAP1 DUP2 ISZERO PUSH2 0x350 JUMPI DUP8 SWAP2 PUSH2 0x3BD JUMPI JUMPDEST POP DUP11 MLOAD PUSH4 0x16D3DF15 PUSH1 0xE3 SHL DUP2 MSTORE DUP9 DUP2 DUP8 DUP2 DUP11 GAS STATICCALL SWAP1 DUP2 ISZERO PUSH2 0x3B3 JUMPI SWAP1 DUP11 DUP11 SWAP3 DUP11 SWAP3 PUSH2 0x37B JUMPI JUMPDEST POP PUSH2 0x1B7 SWAP4 PUSH1 0x64 PUSH2 0x174 DUP2 SWAP5 PUSH2 0x17B SWAP5 PUSH2 0xF98 JUMP JUMPDEST DIV SWAP13 PUSH2 0xF98 JUMP JUMPDEST DUP14 MLOAD PUSH4 0x2E2952F9 PUSH1 0xE1 SHL DUP2 MSTORE ADDRESS DUP10 DUP3 ADD SWAP1 DUP2 MSTORE PUSH1 0x1 PUSH1 0x1 PUSH1 0xA0 SHL SUB SWAP1 SWAP15 AND PUSH1 0x20 DUP16 ADD MSTORE SWAP2 SWAP1 DIV PUSH1 0x40 DUP14 ADD DUP2 SWAP1 MSTORE SWAP12 SWAP1 SWAP3 DUP4 SWAP2 DUP3 SWAP2 PUSH1 0x60 SWAP1 SWAP2 ADD SWAP1 JUMP JUMPDEST SUB DUP2 DUP11 DUP11 GAS CALL SWAP1 DUP2 ISZERO PUSH2 0x350 JUMPI DUP8 SWAP2 PUSH2 0x35E JUMPI JUMPDEST POP ISZERO PUSH2 0x35A JUMPI DUP10 MLOAD PUSH4 0x7B1A4909 PUSH1 0xE0 SHL DUP2 MSTORE PUSH1 0x1 PUSH1 0x1 PUSH1 0xA0 SHL SUB DUP4 AND DUP6 DUP3 ADD SWAP1 DUP2 MSTORE PUSH1 0x20 DUP2 ADD DUP11 SWAP1 MSTORE DUP9 SWAP1 DUP3 SWAP1 DUP2 SWAP1 PUSH1 0x40 ADD SUB DUP2 DUP11 DUP11 GAS CALL SWAP1 DUP2 ISZERO PUSH2 0x350 JUMPI SWAP3 DUP8 DUP12 SWAP4 PUSH2 0x225 PUSH2 0x262 SWAP8 SWAP5 DUP13 SWAP8 DUP5 SWAP2 PUSH2 0x333 JUMPI JUMPDEST POP PUSH2 0xFEE JUMP JUMPDEST DUP14 MLOAD PUSH4 0x23B872DD PUSH1 0xE0 SHL DUP2 MSTORE PUSH1 0x1 PUSH1 0x1 PUSH1 0xA0 SHL SUB SWAP2 DUP3 AND DUP10 DUP3 ADD SWAP1 DUP2 MSTORE SWAP2 SWAP1 SWAP4 AND PUSH1 0x20 DUP3 ADD MSTORE PUSH1 0x40 DUP2 ADD SWAP5 SWAP1 SWAP5 MSTORE SWAP1 SWAP5 DUP6 SWAP4 DUP5 SWAP3 SWAP2 DUP4 SWAP2 PUSH1 0x60 ADD SWAP1 JUMP JUMPDEST SUB SWAP3 GAS CALL SWAP1 DUP2 ISZERO PUSH2 0x329 JUMPI SWAP3 DUP6 SWAP3 PUSH2 0x286 PUSH2 0x2B5 SWAP4 DUP8 SWAP7 DUP8 SWAP2 PUSH2 0x30C JUMPI JUMPDEST POP PUSH2 0x103A JUMP JUMPDEST DUP10 MLOAD PUSH4 0x1D24E231 PUSH1 0xE2 SHL DUP2 MSTORE SWAP1 DUP2 ADD DUP10 DUP2 MSTORE PUSH1 0x20 DUP2 ADD DUP10 SWAP1 MSTORE CALLER PUSH1 0x40 DUP3 ADD MSTORE SWAP1 SWAP5 DUP6 SWAP4 DUP5 SWAP3 DUP4 SWAP2 PUSH1 0x60 SWAP1 SWAP2 ADD SWAP1 JUMP JUMPDEST SUB SWAP3 GAS CALL DUP1 ISZERO PUSH2 0x302 JUMPI SWAP1 PUSH1 0x1 SWAP3 SWAP2 PUSH2 0x2D5 JUMPI JUMPDEST POP SSTORE DUP4 MLOAD SWAP3 DUP4 MSTORE DUP3 ADD MSTORE RETURN JUMPDEST PUSH2 0x2F4 SWAP1 DUP5 RETURNDATASIZE DUP7 GT PUSH2 0x2FB JUMPI JUMPDEST PUSH2 0x2EC DUP2 DUP4 PUSH2 0xF3F JUMP JUMPDEST DUP2 ADD SWAP1 PUSH2 0xF80 JUMP JUMPDEST POP CODESIZE PUSH2 0x2C9 JUMP JUMPDEST POP RETURNDATASIZE PUSH2 0x2E2 JUMP JUMPDEST DUP7 MLOAD RETURNDATASIZE DUP5 DUP3 RETURNDATACOPY RETURNDATASIZE SWAP1 REVERT JUMPDEST PUSH2 0x323 SWAP2 POP DUP7 RETURNDATASIZE DUP9 GT PUSH2 0x2FB JUMPI PUSH2 0x2EC DUP2 DUP4 PUSH2 0xF3F JUMP JUMPDEST CODESIZE PUSH2 0x280 JUMP JUMPDEST DUP9 MLOAD RETURNDATASIZE DUP7 DUP3 RETURNDATACOPY RETURNDATASIZE SWAP1 REVERT JUMPDEST PUSH2 0x34A SWAP2 POP DUP9 RETURNDATASIZE DUP11 GT PUSH2 0x2FB JUMPI PUSH2 0x2EC DUP2 DUP4 PUSH2 0xF3F JUMP JUMPDEST CODESIZE PUSH2 0x21F JUMP JUMPDEST DUP12 MLOAD RETURNDATASIZE DUP10 DUP3 RETURNDATACOPY RETURNDATASIZE SWAP1 REVERT JUMPDEST DUP6 DUP1 REVERT JUMPDEST PUSH2 0x375 SWAP2 POP DUP9 RETURNDATASIZE DUP11 GT PUSH2 0x2FB JUMPI PUSH2 0x2EC DUP2 DUP4 PUSH2 0xF3F JUMP JUMPDEST CODESIZE PUSH2 0x1CB JUMP JUMPDEST SWAP3 DUP1 SWAP3 POP DUP4 SWAP2 POP RETURNDATASIZE DUP4 GT PUSH2 0x3AC JUMPI JUMPDEST PUSH2 0x394 DUP2 DUP4 PUSH2 0xF3F JUMP JUMPDEST DUP2 ADD SUB SLT PUSH2 0x3A8 JUMPI MLOAD DUP9 SWAP1 DUP11 PUSH2 0x1B7 PUSH2 0x15F JUMP JUMPDEST DUP8 DUP1 REVERT JUMPDEST POP RETURNDATASIZE PUSH2 0x38A JUMP JUMPDEST DUP13 MLOAD RETURNDATASIZE DUP11 DUP3 RETURNDATACOPY RETURNDATASIZE SWAP1 REVERT JUMPDEST PUSH2 0x3DF SWAP2 POP PUSH1 0x60 RETURNDATASIZE PUSH1 0x60 GT PUSH2 0x3E7 JUMPI JUMPDEST PUSH2 0x3D7 DUP2 DUP4 PUSH2 0xF3F JUMP JUMPDEST DUP2 ADD SWAP1 PUSH2 0x10A9 JUMP JUMPDEST POP POP CODESIZE PUSH2 0x139 JUMP JUMPDEST POP RETURNDATASIZE PUSH2 0x3CD JUMP JUMPDEST PUSH2 0x40F SWAP2 SWAP6 POP DUP8 RETURNDATASIZE DUP10 GT PUSH2 0x416 JUMPI JUMPDEST PUSH2 0x407 DUP2 DUP4 PUSH2 0xF3F JUMP JUMPDEST DUP2 ADD SWAP1 PUSH2 0xF61 JUMP JUMPDEST SWAP4 CODESIZE PUSH2 0x113 JUMP JUMPDEST POP RETURNDATASIZE PUSH2 0x3FD JUMP JUMPDEST DUP11 MLOAD RETURNDATASIZE DUP9 DUP3 RETURNDATACOPY RETURNDATASIZE SWAP1 REVERT JUMPDEST DUP1 REVERT JUMPDEST POP DUP3 CALLVALUE PUSH2 0x453 JUMPI DUP2 PUSH1 0x3 NOT CALLDATASIZE ADD SLT PUSH2 0x453 JUMPI PUSH1 0x1 SLOAD SWAP1 MLOAD PUSH1 0x1 PUSH1 0x1 PUSH1 0xA0 SHL SUB SWAP1 SWAP2 AND DUP2 MSTORE PUSH1 0x20 SWAP1 RETURN JUMPDEST POP DUP1 REVERT JUMPDEST POP DUP3 CALLVALUE PUSH2 0x453 JUMPI DUP2 PUSH1 0x3 NOT CALLDATASIZE ADD SLT PUSH2 0x453 JUMPI PUSH1 0x2 SLOAD SWAP1 MLOAD PUSH1 0x1 PUSH1 0x1 PUSH1 0xA0 SHL SUB SWAP1 SWAP2 AND DUP2 MSTORE PUSH1 0x20 SWAP1 RETURN JUMPDEST POP DUP3 PUSH1 0x3 NOT CALLDATASIZE ADD SLT PUSH2 0x427 JUMPI PUSH2 0x494 PUSH2 0xE7A JUMP JUMPDEST SWAP1 PUSH2 0x49D PUSH2 0xE95 JUMP JUMPDEST SWAP1 PUSH2 0x4A6 PUSH2 0x1086 JUMP JUMPDEST PUSH1 0x1 PUSH1 0x1 PUSH1 0xA0 SHL SUB DUP4 DUP2 AND SWAP5 SWAP1 SWAP3 SWAP1 PUSH2 0x4C0 DUP7 ISZERO ISZERO PUSH2 0xEC1 JUMP JUMPDEST PUSH2 0x4CD DUP5 DUP4 AND ISZERO ISZERO PUSH2 0xEC1 JUMP JUMPDEST DUP4 PUSH1 0x1 SLOAD AND SWAP6 DUP5 PUSH1 0x2 SLOAD AND SWAP3 DUP9 MLOAD SWAP6 PUSH4 0xE6A43905 PUSH1 0xE0 SHL DUP8 MSTORE PUSH1 0x20 SWAP7 DUP8 DUP2 DUP1 PUSH2 0x512 DUP10 DUP14 DUP11 DUP5 ADD SWAP1 PUSH1 0x20 SWAP1 SWAP4 SWAP3 SWAP4 PUSH1 0x40 DUP4 ADD SWAP5 PUSH1 0x1 DUP1 PUSH1 0xA0 SHL SUB DUP1 SWAP3 AND DUP5 MSTORE AND SWAP2 ADD MSTORE JUMP JUMPDEST SUB DUP2 DUP14 GAS STATICCALL SWAP1 DUP2 ISZERO PUSH2 0x350 JUMPI DUP9 SWAP1 DUP9 SWAP3 PUSH2 0x726 JUMPI JUMPDEST POP PUSH2 0x53B DUP3 SWAP4 PUSH2 0x575 SWAP4 AND SWAP8 CALLVALUE SWAP1 DUP13 PUSH2 0x111E JUMP JUMPDEST DUP13 MLOAD PUSH4 0x2E2952F9 PUSH1 0xE1 SHL DUP2 MSTORE ADDRESS DUP9 DUP3 ADD SWAP1 DUP2 MSTORE PUSH1 0x1 PUSH1 0x1 PUSH1 0xA0 SHL SUB SWAP1 SWAP13 AND PUSH1 0x20 DUP14 ADD MSTORE PUSH1 0x40 DUP13 ADD DUP3 SWAP1 MSTORE SWAP1 SWAP11 SWAP1 SWAP3 DUP4 SWAP2 DUP3 SWAP2 PUSH1 0x60 SWAP1 SWAP2 ADD SWAP1 JUMP JUMPDEST SUB DUP2 DUP11 DUP11 GAS CALL SWAP1 DUP2 ISZERO PUSH2 0x350 JUMPI DUP8 SWAP2 PUSH2 0x709 JUMPI JUMPDEST POP ISZERO PUSH2 0x6D6 JUMPI DUP10 MLOAD PUSH4 0xCF820461 PUSH1 0xE0 SHL DUP2 MSTORE DUP8 DUP2 DUP7 DUP2 DUP14 GAS STATICCALL SWAP1 DUP2 ISZERO PUSH2 0x350 JUMPI DUP8 SWAP2 PUSH2 0x6A3 JUMPI JUMPDEST POP PUSH2 0x5BE PUSH1 0x64 SWAP2 CALLVALUE SWAP1 PUSH2 0xF98 JUMP JUMPDEST DIV DUP5 DUP9 PUSH2 0x5CB DUP4 CALLVALUE PUSH2 0xFE1 JUMP JUMPDEST SWAP12 DUP14 MLOAD SWAP3 DUP4 DUP1 SWAP3 PUSH3 0x2FCFCB PUSH1 0xE3 SHL DUP3 MSTORE GAS STATICCALL SWAP1 DUP2 ISZERO PUSH2 0x3B3 JUMPI DUP11 SWAP4 PUSH2 0x225 PUSH2 0x60D PUSH2 0x617 SWAP9 SWAP6 DUP16 SWAP6 DUP15 SWAP10 SWAP7 DUP15 SWAP7 DUP8 SWAP3 PUSH2 0x67C JUMPI JUMPDEST POP PUSH2 0x60D PUSH2 0x612 SWAP2 DUP8 PUSH2 0x12A9 JUMP JUMPDEST PUSH2 0xFEE JUMP JUMPDEST PUSH2 0x12A9 JUMP JUMPDEST SUB SWAP3 GAS CALL SWAP1 DUP2 ISZERO PUSH2 0x329 JUMPI DUP6 SWAP3 PUSH2 0x638 DUP7 SWAP4 PUSH1 0x84 SWAP4 DUP6 SWAP2 PUSH2 0x30C JUMPI POP PUSH2 0x103A JUMP JUMPDEST DUP3 DUP11 MLOAD SWAP6 DUP7 SWAP5 DUP6 SWAP4 PUSH4 0x5673B02D PUSH1 0xE0 SHL DUP6 MSTORE DUP5 ADD MSTORE DUP10 PUSH1 0x24 DUP5 ADD MSTORE DUP11 PUSH1 0x44 DUP5 ADD MSTORE DUP2 PUSH1 0x64 DUP5 ADD MSTORE GAS CALL DUP1 ISZERO PUSH2 0x302 JUMPI SWAP1 PUSH1 0x1 SWAP3 SWAP2 PUSH2 0x2D5 JUMPI POP SSTORE DUP4 MLOAD SWAP3 DUP4 MSTORE DUP3 ADD MSTORE RETURN JUMPDEST PUSH2 0x612 SWAP2 SWAP3 POP PUSH2 0x69B PUSH2 0x60D SWAP2 DUP14 DUP1 RETURNDATASIZE LT PUSH2 0x416 JUMPI PUSH2 0x407 DUP2 DUP4 PUSH2 0xF3F JUMP JUMPDEST SWAP3 SWAP2 POP PUSH2 0x5FF JUMP JUMPDEST SWAP1 POP DUP8 DUP2 DUP2 RETURNDATASIZE DUP4 GT PUSH2 0x6CF JUMPI JUMPDEST PUSH2 0x6BA DUP2 DUP4 PUSH2 0xF3F JUMP JUMPDEST DUP2 ADD SUB SLT PUSH2 0x6CB JUMPI MLOAD PUSH2 0x5BE PUSH2 0x5B0 JUMP JUMPDEST DUP7 DUP1 REVERT JUMPDEST POP RETURNDATASIZE PUSH2 0x6B0 JUMP JUMPDEST DUP10 MLOAD PUSH3 0x461BCD PUSH1 0xE5 SHL DUP2 MSTORE DUP1 DUP6 ADD DUP9 SWAP1 MSTORE PUSH1 0xD PUSH1 0x24 DUP3 ADD MSTORE PUSH13 0x2737BA1020B8383937BB32B217 PUSH1 0x99 SHL PUSH1 0x44 DUP3 ADD MSTORE PUSH1 0x64 SWAP1 REVERT JUMPDEST PUSH2 0x720 SWAP2 POP DUP9 RETURNDATASIZE DUP11 GT PUSH2 0x2FB JUMPI PUSH2 0x2EC DUP2 DUP4 PUSH2 0xF3F JUMP JUMPDEST CODESIZE PUSH2 0x589 JUMP JUMPDEST PUSH2 0x575 SWAP3 POP PUSH2 0x744 PUSH2 0x53B SWAP2 DUP4 RETURNDATASIZE DUP6 GT PUSH2 0x416 JUMPI PUSH2 0x407 DUP2 DUP4 PUSH2 0xF3F JUMP JUMPDEST SWAP3 POP PUSH2 0x527 JUMP JUMPDEST POP DUP3 PUSH1 0x3 NOT CALLDATASIZE ADD SLT PUSH2 0x427 JUMPI PUSH2 0x75F PUSH2 0xE7A JUMP JUMPDEST SWAP1 PUSH1 0x24 CALLDATALOAD SWAP3 PUSH2 0x76C PUSH2 0x1086 JUMP JUMPDEST PUSH1 0x1 PUSH1 0x1 PUSH1 0xA0 SHL SUB SWAP1 DUP4 DUP3 AND SWAP1 PUSH2 0x784 DUP3 ISZERO ISZERO PUSH2 0xEC1 JUMP JUMPDEST PUSH1 0x1 SLOAD PUSH1 0x2 SLOAD DUP9 MLOAD PUSH4 0xE6A43905 PUSH1 0xE0 SHL DUP2 MSTORE PUSH1 0x1 PUSH1 0x1 PUSH1 0xA0 SHL SUB SWAP8 DUP9 AND DUP5 DUP3 ADD SWAP1 DUP2 MSTORE SWAP2 DUP7 AND SWAP1 SWAP8 AND PUSH1 0x20 DUP1 DUP4 ADD SWAP2 SWAP1 SWAP2 MSTORE SWAP7 SWAP4 SWAP2 DUP8 SWAP2 DUP6 SWAP2 DUP8 AND SWAP1 DUP3 SWAP1 DUP2 SWAP1 PUSH1 0x40 ADD SUB SWAP2 GAS STATICCALL SWAP3 DUP4 ISZERO PUSH2 0x8BB JUMPI DUP6 SWAP4 PUSH2 0x8C5 JUMPI JUMPDEST POP PUSH2 0x7E7 PUSH2 0x60D CALLVALUE DUP6 PUSH2 0x12A9 JUMP JUMPDEST DUP8 MLOAD PUSH4 0x23B872DD PUSH1 0xE0 SHL DUP2 MSTORE CALLER DUP4 DUP3 ADD SWAP1 DUP2 MSTORE PUSH1 0x1 PUSH1 0x1 PUSH1 0xA0 SHL SUB DUP6 AND PUSH1 0x20 DUP3 ADD MSTORE PUSH1 0x40 DUP2 ADD DUP10 SWAP1 MSTORE SWAP1 SWAP2 DUP8 SWAP2 DUP4 SWAP2 SWAP1 DUP3 SWAP1 DUP10 SWAP1 DUP3 SWAP1 PUSH1 0x60 ADD SUB SWAP3 GAS CALL SWAP1 DUP2 ISZERO PUSH2 0x8BB JUMPI SWAP2 PUSH2 0x842 DUP8 SWAP5 SWAP3 PUSH2 0x871 SWAP5 DUP9 SWAP2 PUSH2 0x30C JUMPI POP PUSH2 0x103A JUMP JUMPDEST DUP9 MLOAD PUSH4 0xE7D3FE6B PUSH1 0xE0 SHL DUP2 MSTORE SWAP1 DUP2 ADD DUP9 DUP2 MSTORE CALLVALUE PUSH1 0x20 DUP3 ADD MSTORE CALLER PUSH1 0x40 DUP3 ADD MSTORE SWAP1 SWAP5 DUP6 SWAP4 DUP5 SWAP3 DUP9 SWAP3 SWAP2 DUP5 SWAP2 PUSH1 0x60 ADD SWAP1 JUMP JUMPDEST SUB SWAP4 AND GAS CALL DUP1 ISZERO PUSH2 0x8B1 JUMPI SWAP1 PUSH1 0x1 SWAP3 SWAP2 PUSH2 0x894 JUMPI JUMPDEST POP SSTORE DUP3 MLOAD SWAP2 DUP3 MSTORE CALLVALUE SWAP1 DUP3 ADD MSTORE RETURN JUMPDEST PUSH2 0x8AA SWAP1 DUP5 RETURNDATASIZE DUP7 GT PUSH2 0x2FB JUMPI PUSH2 0x2EC DUP2 DUP4 PUSH2 0xF3F JUMP JUMPDEST POP CODESIZE PUSH2 0x886 JUMP JUMPDEST DUP6 MLOAD RETURNDATASIZE DUP5 DUP3 RETURNDATACOPY RETURNDATASIZE SWAP1 REVERT JUMPDEST DUP9 MLOAD RETURNDATASIZE DUP8 DUP3 RETURNDATACOPY RETURNDATASIZE SWAP1 REVERT JUMPDEST PUSH2 0x8DD SWAP2 SWAP4 POP DUP7 RETURNDATASIZE DUP9 GT PUSH2 0x416 JUMPI PUSH2 0x407 DUP2 DUP4 PUSH2 0xF3F JUMP JUMPDEST SWAP2 CODESIZE PUSH2 0x7D9 JUMP JUMPDEST POP DUP3 SWAP1 CALLVALUE PUSH2 0x427 JUMPI PUSH1 0x60 CALLDATASIZE PUSH1 0x3 NOT ADD SLT PUSH2 0x427 JUMPI DUP3 CALLDATALOAD SWAP1 PUSH2 0x903 PUSH2 0xE95 JUMP JUMPDEST SWAP4 PUSH2 0x90C PUSH2 0xEAB JUMP JUMPDEST SWAP2 PUSH2 0x915 PUSH2 0x1086 JUMP JUMPDEST PUSH1 0x1 PUSH1 0x1 PUSH1 0xA0 SHL SUB SWAP2 PUSH2 0x92B DUP8 DUP5 AND ISZERO ISZERO PUSH2 0xEC1 JUMP JUMPDEST PUSH2 0x938 DUP4 DUP6 AND ISZERO ISZERO PUSH2 0xEC1 JUMP JUMPDEST DUP3 PUSH1 0x1 SLOAD AND SWAP4 DUP4 PUSH1 0x2 SLOAD AND DUP8 MLOAD SWAP9 PUSH4 0xE6A43905 PUSH1 0xE0 SHL DUP11 MSTORE PUSH1 0x20 SWAP6 DUP7 DUP12 DUP1 PUSH2 0x97C DUP7 DUP7 DUP11 DUP5 ADD SWAP1 PUSH1 0x20 SWAP1 SWAP4 SWAP3 SWAP4 PUSH1 0x40 DUP4 ADD SWAP5 PUSH1 0x1 DUP1 PUSH1 0xA0 SHL SUB DUP1 SWAP3 AND DUP5 MSTORE AND SWAP2 ADD MSTORE JUMP JUMPDEST SUB DUP2 DUP12 GAS STATICCALL SWAP3 DUP4 ISZERO PUSH2 0x41D JUMPI DUP11 SWAP12 DUP8 SWAP9 SWAP10 SWAP11 SWAP12 SWAP8 SWAP5 PUSH2 0xE16 JUMPI JUMPDEST POP PUSH2 0x9E2 DUP10 DUP3 DUP13 DUP7 DUP11 DUP8 DUP11 AND SWAP13 PUSH2 0x9B0 DUP10 DUP5 AND ISZERO ISZERO PUSH2 0xEC1 JUMP JUMPDEST MLOAD PUSH4 0xE6A43905 PUSH1 0xE0 SHL DUP2 MSTORE PUSH1 0x1 PUSH1 0x1 PUSH1 0xA0 SHL SUB SWAP3 DUP4 AND SWAP2 DUP2 ADD SWAP2 DUP3 MSTORE SWAP2 SWAP1 SWAP4 AND PUSH1 0x20 DUP5 ADD MSTORE SWAP4 DUP5 SWAP3 DUP4 SWAP2 DUP3 SWAP2 PUSH1 0x40 ADD SWAP1 JUMP JUMPDEST SUB SWAP2 GAS STATICCALL SWAP1 DUP2 ISZERO PUSH2 0xE0C JUMPI SWAP1 DUP4 SWAP2 DUP11 SWAP2 PUSH2 0xDEF JUMPI JUMPDEST POP DUP14 MLOAD PUSH4 0x240BC6B PUSH1 0xE2 SHL DUP2 MSTORE SWAP3 SWAP2 AND PUSH1 0x60 DUP4 DUP10 DUP2 DUP5 GAS STATICCALL SWAP3 DUP4 ISZERO PUSH2 0xDE5 JUMPI SWAP2 DUP12 DUP16 SWAP3 DUP13 SWAP6 SWAP4 DUP12 SWAP6 DUP8 SWAP6 PUSH2 0xDBD JUMPI JUMPDEST POP MLOAD PUSH4 0x7464FC3D PUSH1 0xE0 SHL DUP2 MSTORE SWAP5 DUP6 SWAP2 DUP3 SWAP1 GAS STATICCALL SWAP3 DUP4 ISZERO PUSH2 0xDB2 JUMPI DUP16 SWAP9 SWAP8 SWAP5 DUP16 SWAP8 SWAP5 DUP14 SWAP5 DUP16 SWAP9 SWAP5 DUP14 SWAP5 DUP8 SWAP4 PUSH2 0xD63 JUMPI JUMPDEST POP SWAP2 DUP11 DUP8 SWAP7 SWAP6 SWAP5 SWAP3 PUSH2 0xAE9 SWAP5 DUP15 SWAP10 POP ISZERO PUSH1 0x0 EQ PUSH2 0xD4C JUMPI SWAP2 PUSH2 0xA7E PUSH2 0xA97 SWAP3 PUSH2 0xAB1 SWAP6 SWAP5 PUSH2 0x135F JUMP JUMPDEST SWAP1 PUSH2 0xA92 PUSH2 0xA8A PUSH2 0x10C4 JUMP JUMPDEST DUP4 ISZERO ISZERO PUSH2 0x13B8 JUMP JUMPDEST PUSH2 0xFC1 JUMP JUMPDEST SWAP1 PUSH2 0xAAC PUSH2 0xAA3 PUSH2 0x10EF JUMP JUMPDEST DUP3 DUP5 GT ISZERO PUSH2 0x13B8 JUMP JUMPDEST PUSH2 0xFE1 JUMP JUMPDEST SWAP11 JUMPDEST MLOAD SWAP9 DUP10 SWAP8 DUP9 SWAP7 DUP8 SWAP5 PUSH4 0x23B872DD PUSH1 0xE0 SHL DUP7 MSTORE DUP6 ADD PUSH1 0x40 SWAP2 SWAP5 SWAP4 SWAP3 SWAP5 PUSH1 0x60 DUP3 ADD SWAP6 PUSH1 0x1 DUP1 PUSH1 0xA0 SHL SUB DUP1 SWAP3 AND DUP4 MSTORE AND PUSH1 0x20 DUP3 ADD MSTORE ADD MSTORE JUMP JUMPDEST SUB SWAP4 AND GAS CALL SWAP1 DUP2 ISZERO PUSH2 0x41D JUMPI DUP7 SWAP2 PUSH2 0xD2F JUMPI JUMPDEST POP ISZERO PUSH2 0xCEC JUMPI DUP9 MLOAD PUSH4 0xCF820461 PUSH1 0xE0 SHL DUP2 MSTORE DUP7 DUP2 DUP6 DUP2 DUP12 GAS STATICCALL SWAP1 DUP2 ISZERO PUSH2 0x41D JUMPI DUP4 DUP6 SWAP4 SWAP3 DUP10 SWAP3 DUP10 SWAP2 PUSH2 0xCB4 JUMPI JUMPDEST POP PUSH2 0xB39 PUSH2 0xB41 SWAP3 PUSH1 0x64 SWAP3 PUSH2 0xF98 JUMP JUMPDEST DIV DUP1 SWAP6 PUSH2 0xFE1 JUMP JUMPDEST SWAP9 DUP12 MLOAD SWAP4 DUP5 DUP1 SWAP3 PUSH3 0x2FCFCB PUSH1 0xE3 SHL DUP3 MSTORE GAS STATICCALL SWAP2 DUP3 ISZERO PUSH2 0x41D JUMPI DUP7 SWAP3 PUSH2 0xC95 JUMPI JUMPDEST POP DUP10 MLOAD PUSH4 0x7B1A4909 PUSH1 0xE0 SHL DUP1 DUP3 MSTORE PUSH1 0x1 PUSH1 0x1 PUSH1 0xA0 SHL SUB SWAP1 SWAP3 AND DUP6 DUP3 ADD SWAP1 DUP2 MSTORE PUSH1 0x20 DUP2 ADD DUP11 SWAP1 MSTORE DUP9 SWAP1 DUP3 SWAP1 DUP2 SWAP1 PUSH1 0x40 ADD SUB DUP2 DUP11 DUP11 GAS CALL SWAP1 DUP2 ISZERO PUSH2 0x350 JUMPI DUP9 SWAP4 SWAP3 SWAP2 PUSH2 0xBB1 SWAP2 DUP10 SWAP2 PUSH2 0xC78 JUMPI POP PUSH2 0xFEE JUMP JUMPDEST DUP11 MLOAD SWAP1 DUP2 MSTORE PUSH1 0x1 PUSH1 0x1 PUSH1 0xA0 SHL SUB SWAP1 SWAP2 AND DUP5 DUP3 ADD SWAP1 DUP2 MSTORE PUSH1 0x20 DUP2 ADD SWAP4 SWAP1 SWAP4 MSTORE SWAP2 DUP3 SWAP1 DUP2 SWAP1 PUSH1 0x40 ADD SUB DUP2 DUP8 DUP8 GAS CALL SWAP1 DUP2 ISZERO PUSH2 0x329 JUMPI DUP6 SWAP3 PUSH2 0xBFA DUP10 SWAP4 PUSH1 0x84 SWAP4 DUP9 SWAP2 PUSH2 0xC5B JUMPI POP PUSH2 0xFEE JUMP JUMPDEST DUP6 DUP11 MLOAD SWAP6 DUP7 SWAP5 DUP6 SWAP4 PUSH4 0x5673B02D PUSH1 0xE0 SHL DUP6 MSTORE DUP5 ADD MSTORE DUP2 PUSH1 0x24 DUP5 ADD MSTORE DUP2 PUSH1 0x44 DUP5 ADD MSTORE DUP10 PUSH1 0x64 DUP5 ADD MSTORE GAS CALL DUP1 ISZERO PUSH2 0x302 JUMPI SWAP1 PUSH1 0x1 SWAP3 SWAP2 PUSH2 0xC3E JUMPI POP SSTORE DUP4 MLOAD SWAP3 DUP4 MSTORE DUP3 ADD MSTORE RETURN JUMPDEST PUSH2 0xC54 SWAP1 DUP5 RETURNDATASIZE DUP7 GT PUSH2 0x2FB JUMPI PUSH2 0x2EC DUP2 DUP4 PUSH2 0xF3F JUMP JUMPDEST POP DUP7 PUSH2 0x2C9 JUMP JUMPDEST PUSH2 0xC72 SWAP2 POP DUP7 RETURNDATASIZE DUP9 GT PUSH2 0x2FB JUMPI PUSH2 0x2EC DUP2 DUP4 PUSH2 0xF3F JUMP JUMPDEST DUP13 PUSH2 0x21F JUMP JUMPDEST PUSH2 0xC8F SWAP2 POP DUP6 RETURNDATASIZE DUP8 GT PUSH2 0x2FB JUMPI PUSH2 0x2EC DUP2 DUP4 PUSH2 0xF3F JUMP JUMPDEST DUP14 PUSH2 0x21F JUMP JUMPDEST PUSH2 0xCAD SWAP2 SWAP3 POP DUP8 RETURNDATASIZE DUP10 GT PUSH2 0x416 JUMPI PUSH2 0x407 DUP2 DUP4 PUSH2 0xF3F JUMP JUMPDEST SWAP1 DUP11 PUSH2 0xB61 JUMP JUMPDEST SWAP4 SWAP5 POP POP POP DUP2 DUP2 RETURNDATASIZE DUP4 GT PUSH2 0xCE5 JUMPI JUMPDEST PUSH2 0xCCD DUP2 DUP4 PUSH2 0xF3F JUMP JUMPDEST DUP2 ADD SUB SLT PUSH2 0x35A JUMPI MLOAD DUP4 SWAP2 SWAP1 DUP8 SWAP1 DUP5 SWAP1 PUSH2 0xB39 PUSH2 0xB29 JUMP JUMPDEST POP RETURNDATASIZE PUSH2 0xCC3 JUMP JUMPDEST DUP9 MLOAD PUSH3 0x461BCD PUSH1 0xE5 SHL DUP2 MSTORE DUP1 DUP5 ADD DUP8 SWAP1 MSTORE PUSH1 0x18 PUSH1 0x24 DUP3 ADD MSTORE PUSH32 0x5472616E73666572206F6620746F6B656E206661696C65640000000000000000 PUSH1 0x44 DUP3 ADD MSTORE PUSH1 0x64 SWAP1 REVERT JUMPDEST PUSH2 0xD46 SWAP2 POP DUP8 RETURNDATASIZE DUP10 GT PUSH2 0x2FB JUMPI PUSH2 0x2EC DUP2 DUP4 PUSH2 0xF3F JUMP JUMPDEST DUP11 PUSH2 0xAFC JUMP JUMPDEST SWAP2 PUSH2 0xA7E PUSH2 0xA97 SWAP3 PUSH2 0xD5D SWAP6 PUSH2 0x135F JUMP JUMPDEST SWAP11 PUSH2 0xAB3 JUMP JUMPDEST SWAP6 SWAP10 SWAP5 POP SWAP7 SWAP10 POP SWAP5 POP POP SWAP5 SWAP8 SWAP9 POP DUP2 DUP2 RETURNDATASIZE DUP4 GT PUSH2 0xDAB JUMPI JUMPDEST PUSH2 0xD85 DUP2 DUP4 PUSH2 0xF3F JUMP JUMPDEST DUP2 ADD SUB SLT PUSH2 0xDA7 JUMPI MLOAD DUP15 SWAP8 SWAP7 DUP15 SWAP7 DUP14 SWAP7 SWAP2 SWAP6 SWAP1 SWAP5 DUP14 SWAP5 SWAP3 SWAP4 DUP13 SWAP4 SWAP1 SWAP2 DUP11 PUSH2 0xA55 JUMP JUMPDEST DUP11 DUP1 REVERT JUMPDEST POP RETURNDATASIZE PUSH2 0xD7B JUMP JUMPDEST POP DUP15 MLOAD RETURNDATASIZE DUP13 DUP3 RETURNDATACOPY RETURNDATASIZE SWAP1 REVERT JUMPDEST SWAP1 SWAP5 POP PUSH2 0xDDA SWAP2 SWAP7 POP PUSH1 0x60 RETURNDATASIZE PUSH1 0x60 GT PUSH2 0x3E7 JUMPI PUSH2 0x3D7 DUP2 DUP4 PUSH2 0xF3F JUMP JUMPDEST POP SWAP6 SWAP1 SWAP6 SWAP4 CODESIZE PUSH2 0xA26 JUMP JUMPDEST DUP15 MLOAD RETURNDATASIZE DUP13 DUP3 RETURNDATACOPY RETURNDATASIZE SWAP1 REVERT JUMPDEST PUSH2 0xE06 SWAP2 POP DUP12 RETURNDATASIZE DUP14 GT PUSH2 0x416 JUMPI PUSH2 0x407 DUP2 DUP4 PUSH2 0xF3F JUMP JUMPDEST DUP15 PUSH2 0x9F7 JUMP JUMPDEST DUP14 MLOAD RETURNDATASIZE DUP12 DUP3 RETURNDATACOPY RETURNDATASIZE SWAP1 REVERT JUMPDEST PUSH2 0xE2E SWAP2 SWAP5 POP DUP10 RETURNDATASIZE DUP12 GT PUSH2 0x416 JUMPI PUSH2 0x407 DUP2 DUP4 PUSH2 0xF3F JUMP JUMPDEST SWAP3 DUP13 PUSH2 0x996 JUMP JUMPDEST POP DUP3 CALLVALUE PUSH2 0x453 JUMPI PUSH1 0x60 CALLDATASIZE PUSH1 0x3 NOT ADD SLT PUSH2 0x453 JUMPI SWAP1 PUSH1 0x20 SWAP2 PUSH1 0x1 PUSH2 0xE72 PUSH2 0xE59 PUSH2 0xE7A JUMP JUMPDEST PUSH2 0xE61 PUSH2 0xE95 JUMP JUMPDEST PUSH2 0xE69 PUSH2 0x1086 JUMP JUMPDEST PUSH1 0x44 CALLDATALOAD SWAP2 PUSH2 0x111E JUMP JUMPDEST SWAP3 SSTORE MLOAD SWAP1 DUP2 MSTORE RETURN JUMPDEST PUSH1 0x4 CALLDATALOAD SWAP1 PUSH1 0x1 PUSH1 0x1 PUSH1 0xA0 SHL SUB DUP3 AND DUP3 SUB PUSH2 0xE90 JUMPI JUMP JUMPDEST PUSH1 0x0 DUP1 REVERT JUMPDEST PUSH1 0x24 CALLDATALOAD SWAP1 PUSH1 0x1 PUSH1 0x1 PUSH1 0xA0 SHL SUB DUP3 AND DUP3 SUB PUSH2 0xE90 JUMPI JUMP JUMPDEST PUSH1 0x44 CALLDATALOAD SWAP1 PUSH1 0x1 PUSH1 0x1 PUSH1 0xA0 SHL SUB DUP3 AND DUP3 SUB PUSH2 0xE90 JUMPI JUMP JUMPDEST ISZERO PUSH2 0xEC8 JUMPI JUMP JUMPDEST PUSH1 0x40 MLOAD PUSH3 0x461BCD PUSH1 0xE5 SHL DUP2 MSTORE PUSH1 0x20 PUSH1 0x4 DUP3 ADD MSTORE PUSH1 0x1F PUSH1 0x24 DUP3 ADD MSTORE PUSH32 0x5A65726F2061646472657373657320617265206E6F7420616C6C6F7765642E00 PUSH1 0x44 DUP3 ADD MSTORE PUSH1 0x64 SWAP1 REVERT JUMPDEST PUSH1 0x40 DUP2 ADD SWAP1 DUP2 LT PUSH8 0xFFFFFFFFFFFFFFFF DUP3 GT OR PUSH2 0xF29 JUMPI PUSH1 0x40 MSTORE JUMP JUMPDEST PUSH4 0x4E487B71 PUSH1 0xE0 SHL PUSH1 0x0 MSTORE PUSH1 0x41 PUSH1 0x4 MSTORE PUSH1 0x24 PUSH1 0x0 REVERT JUMPDEST SWAP1 PUSH1 0x1F DUP1 NOT SWAP2 ADD AND DUP2 ADD SWAP1 DUP2 LT PUSH8 0xFFFFFFFFFFFFFFFF DUP3 GT OR PUSH2 0xF29 JUMPI PUSH1 0x40 MSTORE JUMP JUMPDEST SWAP1 DUP2 PUSH1 0x20 SWAP2 SUB SLT PUSH2 0xE90 JUMPI MLOAD PUSH1 0x1 PUSH1 0x1 PUSH1 0xA0 SHL SUB DUP2 AND DUP2 SUB PUSH2 0xE90 JUMPI SWAP1 JUMP JUMPDEST SWAP1 DUP2 PUSH1 0x20 SWAP2 SUB SLT PUSH2 0xE90 JUMPI MLOAD DUP1 ISZERO ISZERO DUP2 SUB PUSH2 0xE90 JUMPI SWAP1 JUMP JUMPDEST DUP2 DUP2 MUL SWAP3 SWAP2 DUP2 ISZERO SWAP2 DUP5 DIV EQ OR ISZERO PUSH2 0xFAB JUMPI JUMP JUMPDEST PUSH4 0x4E487B71 PUSH1 0xE0 SHL PUSH1 0x0 MSTORE PUSH1 0x11 PUSH1 0x4 MSTORE PUSH1 0x24 PUSH1 0x0 REVERT JUMPDEST DUP2 ISZERO PUSH2 0xFCB JUMPI DIV SWAP1 JUMP JUMPDEST PUSH4 0x4E487B71 PUSH1 0xE0 SHL PUSH1 0x0 MSTORE PUSH1 0x12 PUSH1 0x4 MSTORE PUSH1 0x24 PUSH1 0x0 REVERT JUMPDEST SWAP2 SWAP1 DUP3 SUB SWAP2 DUP3 GT PUSH2 0xFAB JUMPI JUMP JUMPDEST ISZERO PUSH2 0xFF5 JUMPI JUMP JUMPDEST PUSH1 0x40 MLOAD PUSH3 0x461BCD PUSH1 0xE5 SHL DUP2 MSTORE PUSH1 0x20 PUSH1 0x4 DUP3 ADD MSTORE PUSH1 0x17 PUSH1 0x24 DUP3 ADD MSTORE PUSH32 0x5472616E73666572206F6620455448206661696C65642E000000000000000000 PUSH1 0x44 DUP3 ADD MSTORE PUSH1 0x64 SWAP1 REVERT JUMPDEST ISZERO PUSH2 0x1041 JUMPI JUMP JUMPDEST PUSH1 0x40 MLOAD PUSH3 0x461BCD PUSH1 0xE5 SHL DUP2 MSTORE PUSH1 0x20 PUSH1 0x4 DUP3 ADD MSTORE PUSH1 0x19 PUSH1 0x24 DUP3 ADD MSTORE PUSH32 0x5472616E73666572206F6620746F6B656E206661696C65642E00000000000000 PUSH1 0x44 DUP3 ADD MSTORE PUSH1 0x64 SWAP1 REVERT JUMPDEST PUSH1 0x2 PUSH1 0x0 SLOAD EQ PUSH2 0x1097 JUMPI PUSH1 0x2 PUSH1 0x0 SSTORE JUMP JUMPDEST PUSH1 0x40 MLOAD PUSH4 0x3EE5AEB5 PUSH1 0xE0 SHL DUP2 MSTORE PUSH1 0x4 SWAP1 REVERT JUMPDEST SWAP1 DUP2 PUSH1 0x60 SWAP2 SUB SLT PUSH2 0xE90 JUMPI DUP1 MLOAD SWAP2 PUSH1 0x40 PUSH1 0x20 DUP4 ADD MLOAD SWAP3 ADD MLOAD SWAP1 JUMP JUMPDEST PUSH1 0x40 MLOAD SWAP1 PUSH2 0x10D1 DUP3 PUSH2 0xF0D JUMP JUMPDEST PUSH1 0xF DUP3 MSTORE PUSH15 0x111A5D9A5CDA5BDB8819985A5B1959 PUSH1 0x8A SHL PUSH1 0x20 DUP4 ADD MSTORE JUMP JUMPDEST PUSH1 0x40 MLOAD SWAP1 PUSH2 0x10FC DUP3 PUSH2 0xF0D JUMP JUMPDEST PUSH1 0x13 DUP3 MSTORE PUSH19 0x29BAB13A3930B1BA34B7B7103330B4B632B217 PUSH1 0x69 SHL PUSH1 0x20 DUP4 ADD MSTORE JUMP JUMPDEST PUSH1 0x1 PUSH1 0x1 PUSH1 0xA0 SHL SUB SWAP3 SWAP1 SWAP2 PUSH2 0x1136 DUP5 DUP5 AND ISZERO ISZERO PUSH2 0xEC1 JUMP JUMPDEST PUSH1 0x1 SLOAD PUSH1 0x2 SLOAD PUSH1 0x40 DUP1 MLOAD PUSH4 0xE6A43905 PUSH1 0xE0 SHL DUP2 MSTORE PUSH1 0x1 PUSH1 0x1 PUSH1 0xA0 SHL SUB SWAP7 DUP8 AND PUSH1 0x4 DUP3 ADD MSTORE SWAP2 DUP8 AND SWAP6 DUP7 AND PUSH1 0x24 DUP4 ADD MSTORE PUSH1 0x20 SWAP7 SWAP1 SWAP6 SWAP3 SWAP1 SWAP2 SWAP1 DUP8 SWAP1 DUP3 SWAP1 PUSH1 0x44 SWAP1 DUP3 SWAP1 DUP7 AND GAS STATICCALL SWAP1 DUP2 ISZERO PUSH2 0x129E JUMPI SWAP1 DUP3 SWAP2 PUSH1 0x0 SWAP2 PUSH2 0x1281 JUMPI JUMPDEST POP AND SWAP3 DUP6 MLOAD SWAP7 PUSH4 0x240BC6B PUSH1 0xE2 SHL DUP9 MSTORE PUSH1 0x60 DUP9 PUSH1 0x4 DUP2 DUP9 GAS STATICCALL SWAP5 DUP6 ISZERO PUSH2 0x1276 JUMPI PUSH1 0x0 SWAP9 PUSH1 0x0 SWAP7 PUSH2 0x1248 JUMPI JUMPDEST POP SWAP1 DUP1 PUSH1 0x4 SWAP3 DUP10 MLOAD SWAP4 DUP5 DUP1 SWAP3 PUSH4 0x7464FC3D PUSH1 0xE0 SHL DUP3 MSTORE GAS STATICCALL SWAP8 DUP9 ISZERO PUSH2 0x123E JUMPI POP PUSH1 0x0 SWAP8 PUSH2 0x120E JUMPI JUMPDEST POP POP AND SUB PUSH2 0x11FD JUMPI SWAP2 PUSH2 0xA7E PUSH2 0xA97 SWAP3 PUSH2 0x11FA SWAP6 SWAP5 PUSH2 0x135F JUMP JUMPDEST SWAP1 JUMP JUMPDEST SWAP2 PUSH2 0xA7E PUSH2 0xA97 SWAP3 PUSH2 0x11FA SWAP6 PUSH2 0x135F JUMP JUMPDEST SWAP1 DUP1 SWAP3 SWAP8 POP DUP2 RETURNDATASIZE DUP4 GT PUSH2 0x1237 JUMPI JUMPDEST PUSH2 0x1226 DUP2 DUP4 PUSH2 0xF3F JUMP JUMPDEST DUP2 ADD SUB SLT PUSH2 0xE90 JUMPI MLOAD SWAP5 CODESIZE DUP1 PUSH2 0x11E0 JUMP JUMPDEST POP RETURNDATASIZE PUSH2 0x121C JUMP JUMPDEST MLOAD RETURNDATASIZE PUSH1 0x0 DUP3 RETURNDATACOPY RETURNDATASIZE SWAP1 REVERT JUMPDEST DUP3 SWAP10 POP PUSH1 0x4 SWAP3 SWAP2 SWAP7 POP PUSH2 0x1269 SWAP1 PUSH1 0x60 RETURNDATASIZE PUSH1 0x60 GT PUSH2 0x3E7 JUMPI PUSH2 0x3D7 DUP2 DUP4 PUSH2 0xF3F JUMP JUMPDEST POP SWAP10 SWAP1 SWAP10 SWAP7 SWAP2 SWAP3 POP PUSH2 0x11B8 JUMP JUMPDEST DUP8 MLOAD RETURNDATASIZE PUSH1 0x0 DUP3 RETURNDATACOPY RETURNDATASIZE SWAP1 REVERT JUMPDEST PUSH2 0x1298 SWAP2 POP DUP9 RETURNDATASIZE DUP11 GT PUSH2 0x416 JUMPI PUSH2 0x407 DUP2 DUP4 PUSH2 0xF3F JUMP JUMPDEST CODESIZE PUSH2 0x118D JUMP JUMPDEST DUP7 MLOAD RETURNDATASIZE PUSH1 0x0 DUP3 RETURNDATACOPY RETURNDATASIZE SWAP1 REVERT JUMPDEST PUSH1 0x1 PUSH1 0x1 PUSH1 0xA0 SHL SUB AND PUSH2 0x12BD DUP2 ISZERO ISZERO PUSH2 0xEC1 JUMP JUMPDEST PUSH1 0x0 DUP1 DUP1 DUP1 SWAP5 DUP2 SWAP5 GAS CALL SWAP1 RETURNDATASIZE ISZERO PUSH2 0x1359 JUMPI RETURNDATASIZE SWAP1 PUSH8 0xFFFFFFFFFFFFFFFF DUP3 GT PUSH2 0x1345 JUMPI PUSH1 0x40 MLOAD SWAP2 PUSH2 0x12F7 PUSH1 0x1F DUP3 ADD PUSH1 0x1F NOT AND PUSH1 0x20 ADD DUP5 PUSH2 0xF3F JUMP JUMPDEST DUP3 MSTORE PUSH1 0x20 RETURNDATASIZE SWAP3 ADD RETURNDATACOPY JUMPDEST DUP1 ISZERO PUSH2 0x1309 JUMPI SWAP1 JUMP JUMPDEST PUSH1 0x40 MLOAD PUSH3 0x461BCD PUSH1 0xE5 SHL DUP2 MSTORE PUSH1 0x20 PUSH1 0x4 DUP3 ADD MSTORE PUSH1 0x14 PUSH1 0x24 DUP3 ADD MSTORE PUSH20 0x2A3930B739B332B91022AA24102330B4B632B217 PUSH1 0x61 SHL PUSH1 0x44 DUP3 ADD MSTORE PUSH1 0x64 SWAP1 REVERT JUMPDEST PUSH4 0x4E487B71 PUSH1 0xE0 SHL DUP2 MSTORE PUSH1 0x41 PUSH1 0x4 MSTORE PUSH1 0x24 SWAP1 REVERT JUMPDEST POP PUSH2 0x1300 JUMP JUMPDEST SWAP1 DUP2 ADD SWAP1 DUP2 DUP2 GT PUSH2 0xFAB JUMPI DUP2 LT PUSH2 0x1373 JUMPI SWAP1 JUMP JUMPDEST PUSH1 0x40 MLOAD PUSH3 0x461BCD PUSH1 0xE5 SHL DUP2 MSTORE PUSH1 0x20 PUSH1 0x4 DUP3 ADD MSTORE PUSH1 0x1B PUSH1 0x24 DUP3 ADD MSTORE PUSH32 0x536166654D6174683A206164646974696F6E206F766572666C6F770000000000 PUSH1 0x44 DUP3 ADD MSTORE PUSH1 0x64 SWAP1 REVERT JUMPDEST ISZERO PUSH2 0x13C0 JUMPI POP JUMP JUMPDEST PUSH1 0x40 MLOAD SWAP1 PUSH3 0x461BCD PUSH1 0xE5 SHL DUP3 MSTORE DUP2 PUSH1 0x20 DUP1 PUSH1 0x4 DUP4 ADD MSTORE DUP3 MLOAD SWAP1 DUP2 PUSH1 0x24 DUP5 ADD MSTORE PUSH1 0x0 SWAP4 JUMPDEST DUP3 DUP6 LT PUSH2 0x1406 JUMPI POP POP PUSH1 0x44 SWAP3 POP PUSH1 0x0 DUP4 DUP3 DUP5 ADD ADD MSTORE PUSH1 0x1F DUP1 NOT SWAP2 ADD AND DUP2 ADD SUB ADD SWAP1 REVERT JUMPDEST DUP5 DUP2 ADD DUP3 ADD MLOAD DUP7 DUP7 ADD PUSH1 0x44 ADD MSTORE SWAP4 DUP2 ADD SWAP4 DUP6 SWAP4 POP PUSH2 0x13E3 JUMP INVALID LOG2 PUSH5 0x6970667358 0x22 SLT KECCAK256 0xDF 0xD8 CALLER BALANCE PUSH15 0x3B9746386D3254A4CE22E2F30150DE SIGNEXTEND GAS CALLDATASIZE PUSH9 0x15838E7F833E67AB64 PUSH20 0x6F6C634300081800330000000000000000000000 "
        },
        "methodIdentifiers": {
          "WETH()": "ad5c4648",
          "addLiquidityETH(address,uint256)": "7282d548",
          "factory()": "c45a0155",
          "getAmountsOut(address,address,uint256)": "45608d00",
          "removeLiquidityETH(address,uint256,address)": "e79a4089",
          "swapETHForTokens(address,address)": "7f54a369",
          "swapTokensForETH(uint256,address,address)": "6bf09f10"
        }
      }
    }
  }
}