{
  "contracts/PumpFun.sol": {
    "PumpFun": {
      "abi": [
        {
          "inputs": [
            {
              "internalType": "address",
              "name": "factory_",
              "type": "address"
            },
            {
              "internalType": "address",
              "name": "router_",
              "type": "address"
            },
            {
              "internalType": "address",
              "name": "fee_to",
              "type": "address"
            },
            {
              "internalType": "uint256",
              "name": "_fee",
              "type": "uint256"
            }
          ],
          "stateMutability": "nonpayable",
          "type": "constructor"
        },
        {
          "inputs": [],
          "name": "ReentrancyGuardReentrantCall",
          "type": "error"
        },
        {
          "anonymous": false,
          "inputs": [
            {
              "indexed": true,
              "internalType": "address",
              "name": "token",
              "type": "address"
            },
            {
              "indexed": false,
              "internalType": "uint256",
              "name": "amount0",
              "type": "uint256"
            },
            {
              "indexed": false,
              "internalType": "uint256",
              "name": "amount1",
              "type": "uint256"
            }
          ],
          "name": "Deployed",
          "type": "event"
        },
        {
          "anonymous": false,
          "inputs": [
            {
              "indexed": true,
              "internalType": "address",
              "name": "token",
              "type": "address"
            },
            {
              "indexed": true,
              "internalType": "address",
              "name": "pair",
              "type": "address"
            },
            {
              "indexed": false,
              "internalType": "uint256",
              "name": "",
              "type": "uint256"
            }
          ],
          "name": "Launched",
          "type": "event"
        },
        {
          "inputs": [
            {
              "internalType": "address",
              "name": "_user",
              "type": "address"
            },
            {
              "internalType": "address",
              "name": "_token",
              "type": "address"
            },
            {
              "internalType": "uint256",
              "name": "amount",
              "type": "uint256"
            }
          ],
          "name": "approval",
          "outputs": [
            {
              "internalType": "bool",
              "name": "",
              "type": "bool"
            }
          ],
          "stateMutability": "nonpayable",
          "type": "function"
        },
        {
          "inputs": [
            {
              "internalType": "address",
              "name": "tk",
              "type": "address"
            }
          ],
          "name": "deploy",
          "outputs": [],
          "stateMutability": "nonpayable",
          "type": "function"
        },
        {
          "inputs": [],
          "name": "feeTo",
          "outputs": [
            {
              "internalType": "address",
              "name": "",
              "type": "address"
            }
          ],
          "stateMutability": "view",
          "type": "function"
        },
        {
          "inputs": [],
          "name": "feeToSetter",
          "outputs": [
            {
              "internalType": "address",
              "name": "",
              "type": "address"
            }
          ],
          "stateMutability": "view",
          "type": "function"
        },
        {
          "inputs": [
            {
              "internalType": "address",
              "name": "tk",
              "type": "address"
            }
          ],
          "name": "getTokenData",
          "outputs": [
            {
              "components": [
                {
                  "internalType": "address",
                  "name": "token",
                  "type": "address"
                },
                {
                  "internalType": "string",
                  "name": "name",
                  "type": "string"
                },
                {
                  "internalType": "string",
                  "name": "ticker",
                  "type": "string"
                },
                {
                  "internalType": "uint256",
                  "name": "supply",
                  "type": "uint256"
                },
                {
                  "internalType": "uint256",
                  "name": "price",
                  "type": "uint256"
                },
                {
                  "internalType": "uint256",
                  "name": "marketCap",
                  "type": "uint256"
                },
                {
                  "internalType": "uint256",
                  "name": "liquidity",
                  "type": "uint256"
                },
                {
                  "internalType": "uint256",
                  "name": "_liquidity",
                  "type": "uint256"
                },
                {
                  "internalType": "uint256",
                  "name": "volume24H",
                  "type": "uint256"
                },
                {
                  "internalType": "int256",
                  "name": "priceChange24H",
                  "type": "int256"
                }
              ],
              "internalType": "struct PumpFun.Data",
              "name": "",
              "type": "tuple"
            }
          ],
          "stateMutability": "view",
          "type": "function"
        },
        {
          "inputs": [],
          "name": "getTokens",
          "outputs": [
            {
              "components": [
                {
                  "internalType": "address",
                  "name": "creator",
                  "type": "address"
                },
                {
                  "internalType": "address",
                  "name": "token",
                  "type": "address"
                },
                {
                  "internalType": "address",
                  "name": "pair",
                  "type": "address"
                },
                {
                  "components": [
                    {
                      "internalType": "address",
                      "name": "token",
                      "type": "address"
                    },
                    {
                      "internalType": "string",
                      "name": "name",
                      "type": "string"
                    },
                    {
                      "internalType": "string",
                      "name": "ticker",
                      "type": "string"
                    },
                    {
                      "internalType": "uint256",
                      "name": "supply",
                      "type": "uint256"
                    },
                    {
                      "internalType": "uint256",
                      "name": "price",
                      "type": "uint256"
                    },
                    {
                      "internalType": "uint256",
                      "name": "marketCap",
                      "type": "uint256"
                    },
                    {
                      "internalType": "uint256",
                      "name": "liquidity",
                      "type": "uint256"
                    },
                    {
                      "internalType": "uint256",
                      "name": "_liquidity",
                      "type": "uint256"
                    },
                    {
                      "internalType": "uint256",
                      "name": "volume24H",
                      "type": "uint256"
                    },
                    {
                      "internalType": "int256",
                      "name": "priceChange24H",
                      "type": "int256"
                    }
                  ],
                  "internalType": "struct PumpFun.Data",
                  "name": "data",
                  "type": "tuple"
                },
                {
                  "internalType": "string",
                  "name": "description",
                  "type": "string"
                },
                {
                  "internalType": "string",
                  "name": "image",
                  "type": "string"
                },
                {
                  "internalType": "string",
                  "name": "twitter",
                  "type": "string"
                },
                {
                  "internalType": "string",
                  "name": "telegram",
                  "type": "string"
                },
                {
                  "internalType": "string",
                  "name": "youtube",
                  "type": "string"
                },
                {
                  "internalType": "string",
                  "name": "website",
                  "type": "string"
                },
                {
                  "internalType": "bool",
                  "name": "trading",
                  "type": "bool"
                },
                {
                  "internalType": "bool",
                  "name": "tradingOnUniswap",
                  "type": "bool"
                }
              ],
              "internalType": "struct PumpFun.Token[]",
              "name": "",
              "type": "tuple[]"
            }
          ],
          "stateMutability": "view",
          "type": "function"
        },
        {
          "inputs": [],
          "name": "getTokensData",
          "outputs": [
            {
              "components": [
                {
                  "internalType": "address",
                  "name": "token",
                  "type": "address"
                },
                {
                  "internalType": "string",
                  "name": "name",
                  "type": "string"
                },
                {
                  "internalType": "string",
                  "name": "ticker",
                  "type": "string"
                },
                {
                  "internalType": "uint256",
                  "name": "supply",
                  "type": "uint256"
                },
                {
                  "internalType": "uint256",
                  "name": "price",
                  "type": "uint256"
                },
                {
                  "internalType": "uint256",
                  "name": "marketCap",
                  "type": "uint256"
                },
                {
                  "internalType": "uint256",
                  "name": "liquidity",
                  "type": "uint256"
                },
                {
                  "internalType": "uint256",
                  "name": "_liquidity",
                  "type": "uint256"
                },
                {
                  "internalType": "uint256",
                  "name": "volume24H",
                  "type": "uint256"
                },
                {
                  "internalType": "int256",
                  "name": "priceChange24H",
                  "type": "int256"
                }
              ],
              "internalType": "struct PumpFun.Data[]",
              "name": "",
              "type": "tuple[]"
            }
          ],
          "stateMutability": "view",
          "type": "function"
        },
        {
          "inputs": [],
          "name": "getUserTokens",
          "outputs": [
            {
              "components": [
                {
                  "internalType": "address",
                  "name": "creator",
                  "type": "address"
                },
                {
                  "internalType": "address",
                  "name": "token",
                  "type": "address"
                },
                {
                  "internalType": "address",
                  "name": "pair",
                  "type": "address"
                },
                {
                  "components": [
                    {
                      "internalType": "address",
                      "name": "token",
                      "type": "address"
                    },
                    {
                      "internalType": "string",
                      "name": "name",
                      "type": "string"
                    },
                    {
                      "internalType": "string",
                      "name": "ticker",
                      "type": "string"
                    },
                    {
                      "internalType": "uint256",
                      "name": "supply",
                      "type": "uint256"
                    },
                    {
                      "internalType": "uint256",
                      "name": "price",
                      "type": "uint256"
                    },
                    {
                      "internalType": "uint256",
                      "name": "marketCap",
                      "type": "uint256"
                    },
                    {
                      "internalType": "uint256",
                      "name": "liquidity",
                      "type": "uint256"
                    },
                    {
                      "internalType": "uint256",
                      "name": "_liquidity",
                      "type": "uint256"
                    },
                    {
                      "internalType": "uint256",
                      "name": "volume24H",
                      "type": "uint256"
                    },
                    {
                      "internalType": "int256",
                      "name": "priceChange24H",
                      "type": "int256"
                    }
                  ],
                  "internalType": "struct PumpFun.Data",
                  "name": "data",
                  "type": "tuple"
                },
                {
                  "internalType": "string",
                  "name": "description",
                  "type": "string"
                },
                {
                  "internalType": "string",
                  "name": "image",
                  "type": "string"
                },
                {
                  "internalType": "string",
                  "name": "twitter",
                  "type": "string"
                },
                {
                  "internalType": "string",
                  "name": "telegram",
                  "type": "string"
                },
                {
                  "internalType": "string",
                  "name": "youtube",
                  "type": "string"
                },
                {
                  "internalType": "string",
                  "name": "website",
                  "type": "string"
                },
                {
                  "internalType": "bool",
                  "name": "trading",
                  "type": "bool"
                },
                {
                  "internalType": "bool",
                  "name": "tradingOnUniswap",
                  "type": "bool"
                }
              ],
              "internalType": "struct PumpFun.Token[]",
              "name": "",
              "type": "tuple[]"
            }
          ],
          "stateMutability": "view",
          "type": "function"
        },
        {
          "inputs": [
            {
              "internalType": "string",
              "name": "_name",
              "type": "string"
            },
            {
              "internalType": "string",
              "name": "_ticker",
              "type": "string"
            },
            {
              "internalType": "string",
              "name": "desc",
              "type": "string"
            },
            {
              "internalType": "string",
              "name": "img",
              "type": "string"
            },
            {
              "internalType": "string[4]",
              "name": "urls",
              "type": "string[4]"
            },
            {
              "internalType": "uint256",
              "name": "_supply",
              "type": "uint256"
            },
            {
              "internalType": "uint256",
              "name": "maxTx",
              "type": "uint256"
            }
          ],
          "name": "launch",
          "outputs": [
            {
              "internalType": "address",
              "name": "",
              "type": "address"
            },
            {
              "internalType": "address",
              "name": "",
              "type": "address"
            },
            {
              "internalType": "uint256",
              "name": "",
              "type": "uint256"
            }
          ],
          "stateMutability": "payable",
          "type": "function"
        },
        {
          "inputs": [],
          "name": "launchFee",
          "outputs": [
            {
              "internalType": "uint256",
              "name": "",
              "type": "uint256"
            }
          ],
          "stateMutability": "view",
          "type": "function"
        },
        {
          "inputs": [],
          "name": "liquidityFee",
          "outputs": [
            {
              "internalType": "uint256",
              "name": "",
              "type": "uint256"
            }
          ],
          "stateMutability": "pure",
          "type": "function"
        },
        {
          "inputs": [],
          "name": "marketCapLimit",
          "outputs": [
            {
              "internalType": "uint256",
              "name": "",
              "type": "uint256"
            }
          ],
          "stateMutability": "pure",
          "type": "function"
        },
        {
          "inputs": [
            {
              "internalType": "address",
              "name": "",
              "type": "address"
            }
          ],
          "name": "profile",
          "outputs": [
            {
              "internalType": "address",
              "name": "user",
              "type": "address"
            }
          ],
          "stateMutability": "view",
          "type": "function"
        },
        {
          "inputs": [
            {
              "internalType": "uint256",
              "name": "",
              "type": "uint256"
            }
          ],
          "name": "profiles",
          "outputs": [
            {
              "internalType": "address",
              "name": "user",
              "type": "address"
            }
          ],
          "stateMutability": "view",
          "type": "function"
        },
        {
          "inputs": [
            {
              "internalType": "address",
              "name": "fee_to",
              "type": "address"
            }
          ],
          "name": "setFeeTo",
          "outputs": [],
          "stateMutability": "nonpayable",
          "type": "function"
        },
        {
          "inputs": [
            {
              "internalType": "address",
              "name": "tk",
              "type": "address"
            },
            {
              "internalType": "address",
              "name": "to",
              "type": "address"
            },
            {
              "internalType": "address",
              "name": "referree",
              "type": "address"
            }
          ],
          "name": "swapETHForTokens",
          "outputs": [
            {
              "internalType": "bool",
              "name": "",
              "type": "bool"
            }
          ],
          "stateMutability": "payable",
          "type": "function"
        },
        {
          "inputs": [
            {
              "internalType": "uint256",
              "name": "amountIn",
              "type": "uint256"
            },
            {
              "internalType": "address",
              "name": "tk",
              "type": "address"
            },
            {
              "internalType": "address",
              "name": "to",
              "type": "address"
            },
            {
              "internalType": "address",
              "name": "referree",
              "type": "address"
            }
          ],
          "name": "swapTokensForETH",
          "outputs": [
            {
              "internalType": "bool",
              "name": "",
              "type": "bool"
            }
          ],
          "stateMutability": "nonpayable",
          "type": "function"
        },
        {
          "inputs": [
            {
              "internalType": "address",
              "name": "",
              "type": "address"
            }
          ],
          "name": "token",
          "outputs": [
            {
              "internalType": "address",
              "name": "creator",
              "type": "address"
            },
            {
              "internalType": "address",
              "name": "token",
              "type": "address"
            },
            {
              "internalType": "address",
              "name": "pair",
              "type": "address"
            },
            {
              "components": [
                {
                  "internalType": "address",
                  "name": "token",
                  "type": "address"
                },
                {
                  "internalType": "string",
                  "name": "name",
                  "type": "string"
                },
                {
                  "internalType": "string",
                  "name": "ticker",
                  "type": "string"
                },
                {
                  "internalType": "uint256",
                  "name": "supply",
                  "type": "uint256"
                },
                {
                  "internalType": "uint256",
                  "name": "price",
                  "type": "uint256"
                },
                {
                  "internalType": "uint256",
                  "name": "marketCap",
                  "type": "uint256"
                },
                {
                  "internalType": "uint256",
                  "name": "liquidity",
                  "type": "uint256"
                },
                {
                  "internalType": "uint256",
                  "name": "_liquidity",
                  "type": "uint256"
                },
                {
                  "internalType": "uint256",
                  "name": "volume24H",
                  "type": "uint256"
                },
                {
                  "internalType": "int256",
                  "name": "priceChange24H",
                  "type": "int256"
                }
              ],
              "internalType": "struct PumpFun.Data",
              "name": "data",
              "type": "tuple"
            },
            {
              "internalType": "string",
              "name": "description",
              "type": "string"
            },
            {
              "internalType": "string",
              "name": "image",
              "type": "string"
            },
            {
              "internalType": "string",
              "name": "twitter",
              "type": "string"
            },
            {
              "internalType": "string",
              "name": "telegram",
              "type": "string"
            },
            {
              "internalType": "string",
              "name": "youtube",
              "type": "string"
            },
            {
              "internalType": "string",
              "name": "website",
              "type": "string"
            },
            {
              "internalType": "bool",
              "name": "trading",
              "type": "bool"
            },
            {
              "internalType": "bool",
              "name": "tradingOnUniswap",
              "type": "bool"
            }
          ],
          "stateMutability": "view",
          "type": "function"
        },
        {
          "inputs": [
            {
              "internalType": "uint256",
              "name": "",
              "type": "uint256"
            }
          ],
          "name": "tokens",
          "outputs": [
            {
              "internalType": "address",
              "name": "creator",
              "type": "address"
            },
            {
              "internalType": "address",
              "name": "token",
              "type": "address"
            },
            {
              "internalType": "address",
              "name": "pair",
              "type": "address"
            },
            {
              "components": [
                {
                  "internalType": "address",
                  "name": "token",
                  "type": "address"
                },
                {
                  "internalType": "string",
                  "name": "name",
                  "type": "string"
                },
                {
                  "internalType": "string",
                  "name": "ticker",
                  "type": "string"
                },
                {
                  "internalType": "uint256",
                  "name": "supply",
                  "type": "uint256"
                },
                {
                  "internalType": "uint256",
                  "name": "price",
                  "type": "uint256"
                },
                {
                  "internalType": "uint256",
                  "name": "marketCap",
                  "type": "uint256"
                },
                {
                  "internalType": "uint256",
                  "name": "liquidity",
                  "type": "uint256"
                },
                {
                  "internalType": "uint256",
                  "name": "_liquidity",
                  "type": "uint256"
                },
                {
                  "internalType": "uint256",
                  "name": "volume24H",
                  "type": "uint256"
                },
                {
                  "internalType": "int256",
                  "name": "priceChange24H",
                  "type": "int256"
                }
              ],
              "internalType": "struct PumpFun.Data",
              "name": "data",
              "type": "tuple"
            },
            {
              "internalType": "string",
              "name": "description",
              "type": "string"
            },
            {
              "internalType": "string",
              "name": "image",
              "type": "string"
            },
            {
              "internalType": "string",
              "name": "twitter",
              "type": "string"
            },
            {
              "internalType": "string",
              "name": "telegram",
              "type": "string"
            },
            {
              "internalType": "string",
              "name": "youtube",
              "type": "string"
            },
            {
              "internalType": "string",
              "name": "website",
              "type": "string"
            },
            {
              "internalType": "bool",
              "name": "trading",
              "type": "bool"
            },
            {
              "internalType": "bool",
              "name": "tradingOnUniswap",
              "type": "bool"
            }
          ],
          "stateMutability": "view",
          "type": "function"
        },
        {
          "inputs": [
            {
              "internalType": "uint256",
              "name": "_fee",
              "type": "uint256"
            }
          ],
          "name": "updateLaunchFee",
          "outputs": [
            {
              "internalType": "uint256",
              "name": "",
              "type": "uint256"
            }
          ],
          "stateMutability": "nonpayable",
          "type": "function"
        },
        {
          "inputs": [],
          "name": "withdraw",
          "outputs": [
            {
              "internalType": "bool",
              "name": "",
              "type": "bool"
            }
          ],
          "stateMutability": "nonpayable",
          "type": "function"
        },
        {
          "stateMutability": "payable",
          "type": "receive"
        }
      ],
      "evm": {
        "bytecode": {
          "linkReferences": {},
          "object": "6080346200014657601f62004b4938819003918201601f19168301916001600160401b038311848410176200014b5780849260809460405283398101031262000146576200004d8162000161565b6200005b6020830162000161565b60606200006b6040850162000161565b9301516001600081905580546001600160a01b03199081163317909155909390926001600160a01b03908116928190620000a785151562000176565b1691620000b683151562000176565b1691620000c583151562000176565b836002541617600255826003541617600355816004541617600455670de0b6b3a76400009182810292818404149015171562000130576103e8734752ba5dbc23f44d87826276bf6fd6b1c372ad24920460055560065416176006556040516149859081620001c48239f35b634e487b7160e01b600052601160045260246000fd5b600080fd5b634e487b7160e01b600052604160045260246000fd5b51906001600160a01b03821682036200014657565b156200017e57565b60405162461bcd60e51b815260206004820152601f60248201527f5a65726f2061646472657373657320617265206e6f7420616c6c6f7765642e006044820152606490fdfe60808060405260043610156200001f575b5036156200001d57600080fd5b005b600090813560e01c908163017e7e5814620024285750806309402ebd1462002333578063094b7415146200230857806313ff7e9f146200225c5780633ccfd60b14620021db5780634c96a3891462001a415780634f64b2be1462001834578063512b1e6e146200148757806357f8d90114620010215780635c52a5f21462000fd05780636d46a1db1462000f005780637660f44a1462000edb57806380997e471462000eb45780638a664ebc1462000ce957806398118cb41462000ccb5780639dd9d0fd1462000c8b578063aa6ca8081462000b20578063ad256f7d14620001e8578063c36fe3d614620001a4578063cf3cf57314620001845763f46901ed03620000105734620001815760203660031901126200018157620001416200251c565b6001546001600160a01b0391906200015d908316331462002aaf565b166200016b81151562002a2d565b6001600160601b0360a01b600454161760045580f35b80fd5b503462000181578060031936011262000181576020600554604051908152f35b50346200018157602036600319011262000181576004359060085482101562000181576020620001d483620029d9565b50546040516001600160a01b039091168152f35b5060e0366003190112620001815767ffffffffffffffff60043581811162000777576200021a9036906004016200298c565b60243582811162000b1c57620002359036906004016200298c565b60443583811162000b1857620002509036906004016200298c565b60643584811162000b14576200026b9036906004016200298c565b936084359080821162000b10573660238301121562000b10576040519160808301838110838211176200084d57604052608481018336821162000b0c5782600401905b82821062000adc5750505050620002c462003588565b600554341062000a9757604051906110ab8083019182118383101762000a8357908291620038a5833960808152620003136200030460808301896200244f565b8281036020840152876200244f565b9060a4356040820152606060c435910152039087f094851562000a78576003546040516315ab88c960e31b81529590602090879060049082906001600160a01b03165afa95861562000a4b57620003ac966020918a9162000a56575b506002546040516364e329cb60e11b81526001600160a01b038b8116600483015292831660248201529889929091169082908c9082906044820190565b03925af195861562000a4b57889662000a13575b5060405163313ce56760e01b81526020816004816001600160a01b038c165afa801562000a08578990620009c4575b60ff915016604d8111620009b0576200040e90600a0a60a43562002e76565b6003549095906200042e9087906001600160a01b038b81169116620035c6565b15620009ac573460050291600583043403620009985762000453606484043462002e68565b60035460408051630e505aa960e31b81526001600160a01b038d81166004830152602482018c9052939a9390928391604491839160648b0491165af18015620009585762000963575b50604051635d4d3d2b60e11b8152926020846004816001600160a01b038e165afa93841562000958578c946200091b575b50620004dc6004948362002e8a565b604051635d4d3d2b60e11b8152949093906020908690816001600160a01b038f165afa94851562000910578d95620008d6575b50606486046064870460011b0460021460648704151715620008c257908c9594939291600460208d60405192838092635d4d3d2b60e11b825260018060a01b03165afa978815620008b6579762000877575b50868060011b04600214871517156200086357918c99989796959391606495936040519b620005908d6200259e565b60018060a01b03168c5260208c015260408b015260608a0152608089015260a08801520460011b60c086015260011b60e085015287610100850152876101208501528151602083015191606060408501519401519460405196620005f488620025d9565b33885260018060a01b038b16602089015260018060a01b038a1660408901526060880152608087015260a086015260c085015260e084015261010083015261012082015260016101408201528461016082015260018060a01b0384168552600960205262000666816040872062002edf565b600a5490600160401b808310156200084d576001830180600a558310156200083757620006bf8260148995600a600052027fc65a7bb8d6351c1cf70c95a316cc6a92839c986682d98bc35f958f4883f9d2a80162002edf565b620006ca3362003677565b156200077b5750818093620006ef829333845260076020526001604085200162003551565b6004546001600160a01b03165af16200070762002a7a565b50156200077757600a546040518181526060949192916001916001600160a01b0380851691908716907f714aa39317ad9a7a7a99db52b44490da5d068a0b2710fffb1a1282ad3cadae1f90602090a355604080516001600160a01b03948516815291909316602082015291820152f35b8280fd5b9091506200078b33151562002a2d565b604051906200079a82620025bc565b338252606060208301523387526007602052620007bb82604089206200371e565b600854908110156200082357806001620007d99201600855620029d9565b6200080f578693620008098594620007f4869586956200371e565b33845260076020526001604085200162003551565b620006ef565b634e487b7160e01b87526004879052602487fd5b634e487b7160e01b87526041600452602487fd5b634e487b7160e01b600052603260045260246000fd5b634e487b7160e01b600052604160045260246000fd5b634e487b7160e01b8e52601160045260248efd5b9096506020813d602011620008ad575b816200089660209383620025f7565b81010312620008a85751953862000561565b600080fd5b3d915062000887565b604051903d90823e3d90fd5b634e487b7160e01b8d52601160045260248dfd5b9094506020813d60201162000907575b81620008f560209383620025f7565b81010312620008a8575193386200050f565b3d9150620008e6565b6040513d8f823e3d90fd5b93506020843d6020116200094f575b816200093960209383620025f7565b81010312620008a857925192620004dc620004cd565b3d91506200092a565b6040513d8e823e3d90fd5b620009899060403d60401162000990575b620009808183620025f7565b81019062002b2c565b506200049c565b503d62000974565b634e487b7160e01b8a52601160045260248afd5b8880fd5b634e487b7160e01b89526011600452602489fd5b506020813d602011620009ff575b81620009e160209383620025f7565b81010312620009ac575160ff81168103620009ac5760ff90620003ef565b3d9150620009d2565b6040513d8b823e3d90fd5b62000a3b91965060203d60201162000a43575b62000a328183620025f7565b81019062002b0b565b9438620003c0565b503d62000a26565b6040513d8a823e3d90fd5b62000a719150823d841162000a435762000a328183620025f7565b386200036f565b6040513d88823e3d90fd5b634e487b7160e01b89526041600452602489fd5b60405162461bcd60e51b815260206004820152601960248201527f496e73756666696369656e7420616d6f756e742073656e742e000000000000006044820152606490fd5b813585811162000b085760209162000afc8392600436918901016200298c565b815201910190620002ae565b8b80fd5b8980fd5b8680fd5b8580fd5b8480fd5b8380fd5b50346200018157806003193601126200018157600a5462000b418162002a14565b62000b506040519182620025f7565b81815260209160208201600a6000527fc65a7bb8d6351c1cf70c95a316cc6a92839c986682d98bc35f958f4883f9d2a8936000915b83831062000ba1576040518062000b9d878262002824565b0390f35b60148260019260405162000bb581620025d9565b848060a01b03808b5416825280868c0154168483015260028b015416604082015262000be460038b01620026cb565b606082015262000bf7600d8b016200261a565b608082015262000c0a600e8b016200261a565b60a082015262000c1d600f8b016200261a565b60c082015262000c3060108b016200261a565b60e082015262000c4360118b016200261a565b61010082015262000c5760128b016200261a565b61012082015260138a015460ff90818116151561014084015260081c16151561016082015281520196019201919462000b85565b50346200018157602036600319011262000181576020906001600160a01b03906040908262000cb96200251c565b16815260078452205416604051908152f35b50346200018157806003193601126200018157602060405160058152f35b5034620001815780600319360112620001815762000d073362003677565b1562000e6f573381526040602091600783522060405162000d2881620025bc565b81546001600160a01b039081168252600192830180549193919062000d4d8262002a14565b9462000d5d6040519687620025f7565b8286526000918252868220908787015b84841062000d8b578689018890526040518062000b9d8a8262002824565b601489879260405162000d9e81620025d9565b8587541681528585880154168382015285600288015416604082015262000dc860038801620026cb565b606082015262000ddb600d88016200261a565b608082015262000dee600e88016200261a565b60a082015262000e01600f88016200261a565b60c082015262000e14601088016200261a565b60e082015262000e27601188016200261a565b61010082015262000e3b601288016200261a565b610120820152601387015460ff90818116151561014084015260081c16151561016082015281520193019301929162000d6d565b60405162461bcd60e51b815260206004820152601c60248201527f557365722050726f66696c6520646f7365206e6f742065786973742e000000006044820152606490fd5b50346200018157806003193601126200018157602060405169152d02c7e14af68000008152f35b5034620001815760203660031901126200018157602060043580600555604051908152f35b50346200018157602036600319011262000181576001600160a01b03906040908262000f2b6200251c565b1681526009602052209062000b9d818354169282600182015416926002820154169362000f5b60038301620026cb565b9162000f6a600d82016200261a565b62000f78600e83016200261a565b62000f86600f84016200261a565b62000f94601085016200261a565b9162000fa3601186016200261a565b93601362000fb4601288016200261a565b960154976040519b8c9b60ff808c60081c169b16998d6200275b565b503462000181576060366003190112620001815760209060016200101562000ff76200251c565b6200100162002533565b6200100b62003588565b60443591620035c6565b91556040519015158152f35b5060603660031901126200018157620010396200251c565b906200104462002533565b906200104f6200254a565b91620010666001600160a01b038516151562002a2d565b6001600160a01b0316916200107d83151562002a2d565b6001600160a01b03166200109381151562002a2d565b6002546003546040516315ab88c960e31b81526001600160a01b039182169592909116602082600481895afa9182156200147c57916020916200110e93879262001458575b5060405163e6a4390560e01b81526001600160a01b03808b16600483015290921660248301529092839190829081906044820190565b03915afa908115620013e1576004939291606091869162001434575b50604051630240bc6b60e21b815294859182906001600160a01b03165afa918215620013e157849185948694620013ec575b50604080516357f8d90160e01b81526001600160a01b038a16600482015260248101929092526044820192909252958690606490829034905af1908115620013e15784958592620013aa575b50620011c686620011bf620011cd94829462002e68565b9562002e44565b9262002e44565b90818060011b04600214821517156200139657808060011b0460021481151715620013965760018060a01b0386168452600960205262001252620012308362001229866200122383600660408c20015462002e76565b62002e8a565b9562002e8a565b6001600160a01b0388168652600960205260408620600b015490969062002e44565b9260018060a01b03871685526009602052620012a46200129e6200127e60076040892001548962002e68565b6001600160a01b038a168852600960205260408820600701549062002eab565b62002ec8565b9460018060a01b0388168152600960205285600c604083208960078201558460088201558560011b60098201558660011b600a82015587600b82015501555b600b548110156200138b5780620012fc60019262002dec565b505460a083901b8390038a811691161462001319575b01620012e3565b876004620013278362002dec565b500155826005620013388362002dec565b500155620013468162002dec565b50600685841b9101556200135a8162002dec565b50600786841b910155856008620013718362002dec565b500155866009620013828362002dec565b50015562001312565b602060405160018152f35b634e487b7160e01b84526011600452602484fd5b620011bf9650620011cd9250620013d6620011c69160403d6040116200099057620009808183620025f7565b9097509250620011a8565b6040513d86823e3d90fd5b60409295506200141d9194506064935060603d6060116200142c575b620014148183620025f7565b81019062002e28565b9591939095949192506200115c565b503d62001408565b62001451915060203d60201162000a435762000a328183620025f7565b386200112a565b62001474919250833d851162000a435762000a328183620025f7565b9038620010d8565b6040513d87823e3d90fd5b5034620001815760803660031901126200018157620014a562002533565b90620014b06200254a565b6064356001600160a01b038116929190839003620008a857620014de6001600160a01b038516151562002a2d565b6001600160a01b031691620014f583151562002a2d565b6200150281151562002a2d565b6002546003546040516315ab88c960e31b81526001600160a01b0391821692909116602082600481865afa9182156200147c57916020916200157b93879262001458575060405163e6a4390560e01b81526001600160a01b03808b16600483015290921660248301529092839190829081906044820190565b03915afa908115620013e1576004939291606091869162001810575b50604051630240bc6b60e21b815294859182906001600160a01b03165afa918215620013e157849585948694620017da575b5090608460409287845195869485936328958f3760e11b855260043560048601528d60018060a01b03166024860152604485015260648401525af1948515620013e15784918596620017a4575b5062001634866200162d6200163b94829462002e44565b9562002e68565b9262002e68565b90818060011b04600214821517156200139657808060011b0460021481151715620013965760018060a01b0386168452600960205262001691620012308362001229866200122383600660408c20015462002e76565b9260018060a01b03871685526009602052620016bd6200129e6200127e60076040892001548962002e68565b9460018060a01b0388168152600960205285600c604083208960078201558460088201558560011b60098201558660011b600a82015587600b82015501555b600b548110156200138b57806200171560019262002dec565b505460a083901b8390038a811691161462001732575b01620016fc565b876004620017408362002dec565b500155826005620017518362002dec565b5001556200175f8162002dec565b50600685841b910155620017738162002dec565b50600786841b9101558560086200178a8362002dec565b5001558660096200179b8362002dec565b5001556200172b565b6200162d96506200163b9250620017d0620016349160403d6040116200099057620009808183620025f7565b9750925062001616565b6084975060409295506200180191945060603d6060116200142c57620014148183620025f7565b959197909594919250620015c9565b6200182d915060203d60201162000a435762000a328183620025f7565b3862001597565b5034620001815760203660031901126200018157600435600a5481101562001a3d57601490600a6000520260018060a01b0362000b9d81837fc65a7bb8d6351c1cf70c95a316cc6a92839c986682d98bc35f958f4883f9d2a801541692827fc65a7bb8d6351c1cf70c95a316cc6a92839c986682d98bc35f958f4883f9d2a982015416927fc65a7bb8d6351c1cf70c95a316cc6a92839c986682d98bc35f958f4883f9d2aa82015416936200190b7fc65a7bb8d6351c1cf70c95a316cc6a92839c986682d98bc35f958f4883f9d2ab8301620026cb565b91620019397fc65a7bb8d6351c1cf70c95a316cc6a92839c986682d98bc35f958f4883f9d2b582016200261a565b620019667fc65a7bb8d6351c1cf70c95a316cc6a92839c986682d98bc35f958f4883f9d2b683016200261a565b620019937fc65a7bb8d6351c1cf70c95a316cc6a92839c986682d98bc35f958f4883f9d2b784016200261a565b620019c07fc65a7bb8d6351c1cf70c95a316cc6a92839c986682d98bc35f958f4883f9d2b885016200261a565b91620019ee7fc65a7bb8d6351c1cf70c95a316cc6a92839c986682d98bc35f958f4883f9d2b986016200261a565b937fc65a7bb8d6351c1cf70c95a316cc6a92839c986682d98bc35f958f4883f9d2bb62000fb47fc65a7bb8d6351c1cf70c95a316cc6a92839c986682d98bc35f958f4883f9d2ba88016200261a565b5080fd5b503462000181576020366003190112620001815762001a5f6200251c565b9062001a7760018060a01b0360015416331462002aaf565b62001a8162003588565b62001a976001600160a01b038316151562002a2d565b6003546040516315ab88c960e31b815290602090829060049082906001600160a01b03165afa9081156200215c5762001b10916020918491620021b9575b5060025460405163e6a4390560e01b81526001600160a01b038781166004830152928316602482015293849290911690829081906044820190565b03915afa9081156200215c57829162002195575b506001600160a01b0383163b1562001a3d576040516306da678f60e51b81526001600160a01b03918216600482015290829082906024908290849088165af180156200215c5762002167575b506001600160a01b0382811680835260096020526040808420600354825163e79a408960e01b81526004810194909452606460248501819052306044860152919693959486929183918791165af19283156200215c578290839462002133575b5060018060a01b038216835260096020526040832094600686015462001c2660056040519862001c008a6200259e565b6001600160a01b0387168a5262001c1a600482016200261a565b60208b0152016200261a565b604088015260608701528360808701528360a08701528360c08701528360e0870152836101008701528361012087015262001c65866003830162002b5c565b835b600b5481101562001cd75762001c7d8162002dec565b50546001600160a01b0385811691161462001c9c575b60010162001c67565b62001ca78162002dec565b62001cc3579062001cbb8860019362002b5c565b905062001c93565b634e487b7160e01b86526004869052602486fd5b508392859062001cf26001600160a01b038216151562002a2d565b6001600160a01b03811685526009602052604085206013015460ff8116908162002123575b5015620020de576006546040516370a0823160e01b80825230600483015293916001600160a01b03908116906020908390602490829088165afa90811562000a4b57849089926200209f575b62001d6f9350620035c6565b156200206a5760065460405163c45a015560e01b81528794916001600160a01b0316602082600481845afa91821562000a7857869262002040575b506020600491604051928380926315ab88c960e31b82525afa90811562000a7857869260209262001e129285916200201e575b506040516364e329cb60e11b81526001600160a01b03808a166004830152909116602482015293849283919082906044820190565b03926001600160a01b03165af19081156200147c57859162001ffa575b5060065460405192835230600484015247926001600160a01b0391821691602090829060249082908a165afa90811562001fef57879162001fb1575b509060c4606092604051958693849263f305d71960e01b845260018060a01b038b16600485015260248401528a60448401528a60648401523060848401524260a48401525af19182156200147c5760209262001f8d575b5060065460405163095ea7b360e01b81526001600160a01b0391821660048201526000196024820152958692604492849291165af1801562000a78577f540bcec33387745b2ced30977dcfe4a623a245511eb0a133989c27c8bb95b4a99460409460139262001f57575b5001805461ffff1916610100179055825194855260208501526001600160a01b031692a26001815580f35b62001f7d9060203d60201162001f85575b62001f748183620025f7565b810190620035ac565b508862001f2c565b503d62001f68565b62001fa99060603d6060116200142c57620014148183620025f7565b505062001ec2565b919650506020813d60201162001fe6575b8162001fd160209383620025f7565b81010312620008a8575188959060c462001e6b565b3d915062001fc2565b6040513d89823e3d90fd5b62002017915060203d60201162000a435762000a328183620025f7565b8862001e2f565b620020399150843d861162000a435762000a328183620025f7565b8c62001ddd565b600491925062002061602091823d841162000a435762000a328183620025f7565b92915062001daa565b60405162461bcd60e51b815260206004820152600d60248201526c2737ba1030b8383937bb32b21760991b6044820152606490fd5b9150506020823d602011620020d5575b81620020be60209383620025f7565b81010312620008a8578362001d6f92519162001d63565b3d9150620020af565b60405162461bcd60e51b815260206004820152601760248201527f74726164696e6720697320616c7265616479206f70656e0000000000000000006044820152606490fd5b60ff915060081c16158662001d17565b90506200215391935060403d6040116200099057620009808183620025f7565b92903862001bd0565b6040513d84823e3d90fd5b67ffffffffffffffff811162002181576040523862001b70565b634e487b7160e01b82526041600452602482fd5b620021b2915060203d60201162000a435762000a328183620025f7565b3862001b24565b620021d49150823d841162000a435762000a328183620025f7565b3862001ad5565b5034620001815780600319360112620001815760015481908190819047906001600160a01b03165af16200220e62002a7a565b50156200222057602060405160018152f35b60405162461bcd60e51b81526020600482015260146024820152732a3930b739b332b91022aa24102330b4b632b21760611b6044820152606490fd5b5034620001815760203660031901126200018157620022f36003604062000b9d93620022876200251c565b81610120845162002298816200259e565b828152606060208201526060868201528260608201528260808201528260a08201528260c08201528260e082015282610100820152015260018060a01b0316620022e481151562002a2d565b815260096020522001620026cb565b60405191829160208352602083019062002491565b503462000181578060031936011262000181576001546040516001600160a01b039091168152602090f35b50346200018157806003193601126200018157600b54620023548162002a14565b90620023646040519283620025f7565b808252600b835260209283830191817f0175b7a638427703f0dbe7bb9bbf987a2551717b34e79f33b5b1008d1fa01db9845b838310620024005750505050604051928484019085855251809152604084019460408260051b8601019392955b828710620023d15785850386f35b909192938280620023ef600193603f198a8203018652885162002491565b9601920196019592919092620023c3565b600a8860019262002415859b9a989b620026cb565b8152019201920191909693959662002396565b90503462001a3d578160031936011262001a3d576004546001600160a01b03168152602090f35b919082519283825260005b8481106200247c575050826000602080949584010152601f8019910116010190565b6020818301810151848301820152016200245a565b90620024d1620024be61014060018060a01b0385511684526020850151908060208601528401906200244f565b604084015183820360408501526200244f565b91606081015160608301526080810151608083015260a081015160a083015260c081015160c083015260e081015160e083015261010080820151908301526101208091015191015290565b600435906001600160a01b0382168203620008a857565b602435906001600160a01b0382168203620008a857565b604435906001600160a01b0382168203620008a857565b90600182811c9216801562002593575b60208310146200257d57565b634e487b7160e01b600052602260045260246000fd5b91607f169162002571565b610140810190811067ffffffffffffffff8211176200084d57604052565b6040810190811067ffffffffffffffff8211176200084d57604052565b610180810190811067ffffffffffffffff8211176200084d57604052565b90601f8019910116810190811067ffffffffffffffff8211176200084d57604052565b906040519182600082546200262f8162002561565b90818452602094600191600181169081600014620026a7575060011462002664575b5050506200266292500383620025f7565b565b600090815285812095935091905b8183106200268e57505062002662935082010138808062002651565b8554888401850152948501948794509183019162002672565b925050506200266294925060ff191682840152151560051b82010138808062002651565b90604051620026da816200259e565b82546001600160a01b0316815291829061012090600990620026ff600182016200261a565b602085015262002712600282016200261a565b60408501526003810154606085015260048101546080850152600581015460a0850152600681015460c0850152600781015460e085015260088101546101008501520154910152565b9a9c9b98946200280496620027c78d620027d693620027b86101609f9c9699620027f49a620028149f9a99620027e59a6101809260018060a01b039283809216895216602088015216604086015280606086015284019062002491565b9160808184039101526200244f565b8d810360a08f0152906200244f565b908b820360c08d01526200244f565b9089820360e08b01526200244f565b908782036101008901526200244f565b908582036101208701526200244f565b9415156101408401521515910152565b6020808201908083528351809252604092604081018260408560051b8401019601946000925b8584106200285c575050505050505090565b909192939495968580600192603f198582030187528a5190620029436200292e6200291962002905620028f1620028dd620028c98d610180908d8060a01b03808c51168b52808d8d0151168d8c0152818c015116908a015260609080828c0151928b015289019062002491565b6080808a015190898303908a01526200244f565b60a08089015190888303908901526200244f565b60c08088015190878303908801526200244f565b60e08087015190868303908701526200244f565b6101008086015190858303908601526200244f565b6101208085015190848303908501526200244f565b91610140808201511515908301526101608091015115159101529901940194019295949391906200284a565b67ffffffffffffffff81116200084d57601f01601f191660200190565b81601f82011215620008a857803590620029a6826200296f565b92620029b66040519485620025f7565b82845260208383010111620008a857816000926020809301838601378301015290565b6008548110156200083757600860005260011b7ff3f7a9fe364faab93b216da50a3214154f22a0a2b415b23a84c8169e8b636ee30190600090565b67ffffffffffffffff81116200084d5760051b60200190565b1562002a3557565b60405162461bcd60e51b815260206004820152601f60248201527f5a65726f2061646472657373657320617265206e6f7420616c6c6f7765642e006044820152606490fd5b3d1562002aaa573d9062002a8e826200296f565b9162002a9e6040519384620025f7565b82523d6000602084013e565b606090565b1562002ab757565b60405162461bcd60e51b815260206004820152602660248201527f4f6e6c7920746865206f776e65722063616e2063616c6c20746869732066756e60448201526531ba34b7b71760d11b6064820152608490fd5b90816020910312620008a857516001600160a01b0381168103620008a85790565b9190826040910312620008a8576020825192015190565b81811062002b4f575050565b6000815560010162002b43565b9060018060a01b038151166001600160601b0360a01b83541617825560018083016020808401519081519267ffffffffffffffff938481116200084d5762002ba5825462002561565b93601f9485811162002dba575b50839085831160011462002d535762002be592916000918362002c94575b50508160011b916000199060031b1c19161790565b90555b600286019360408601519182519485116200084d5762002c09865462002561565b84811162002d16575b508093851160011462002ca05750508260099593610120959362002c4d9360009262002c945750508160011b916000199060031b1c19161790565b90555b606081015160038501556080810151600485015560a0810151600585015560c0810151600685015560e0810151600785015561010081015160088501550151910155565b01519050388062002bd0565b91601f949391941984168660005283600020936000905b82821062002cfe57505091600997959391856101209896941062002ce4575b505050811b01905562002c50565b015160001960f88460031b161c1916905538808062002cd6565b80888697829497870151815501960194019062002cb7565b62002d429087600052826000208680890160051c820192858a1062002d49575b0160051c019062002b43565b3862002c12565b9250819262002d36565b879291601f1983169185600052866000209260005b8882821062002da3575050841162002d89575b505050811b01905562002be8565b015160001960f88460031b161c1916905538808062002d7b565b8385015186558c9790950194938401930162002d68565b62002de59084600052856000208780860160051c82019288871062002d49570160051c019062002b43565b3862002bb2565b600b548110156200083757600a90600b600052027f0175b7a638427703f0dbe7bb9bbf987a2551717b34e79f33b5b1008d1fa01db90190600090565b90816060910312620008a8578051916040602083015192015190565b9190820180921162002e5257565b634e487b7160e01b600052601160045260246000fd5b9190820391821162002e5257565b8181029291811591840414171562002e5257565b811562002e95570490565b634e487b7160e01b600052601260045260246000fd5b811562002e9557600160ff1b811460001983141662002e52570590565b9060648202918083056064149015171562002e5257565b919060018060a01b0392838251166001600160601b0360a01b9081835416178255600194858301916020928284870151168282541617905560028401916040860151169082541617905560039462002f3e606085015187850162002b5c565b6080840151805167ffffffffffffffff9290600d8601908481116200084d5762002f69825462002561565b93601f948581116200351f575b508690858311600114620034b95762002fa892916000918362002c945750508160011b916000199060031b1c19161790565b90555b600e850160a08701518051908582116200084d5762002fcb835462002561565b85811162003487575b50869085831160011462003421576200300692916000918362002c945750508160011b916000199060031b1c19161790565b90555b600f850160c08701518051908582116200084d5762003029835462002561565b858111620033ef575b50869085831160011462003389576200306492916000918362002c945750508160011b916000199060031b1c19161790565b90555b6010850160e08701518051908582116200084d5762003087835462002561565b85811162003357575b508690858311600114620032f157620030c292916000918362002c945750508160011b916000199060031b1c19161790565b90555b601185016101008701518051908582116200084d57620030e6835462002561565b858111620032bf575b50869085831160011462003259576200312192916000918362002c945750508160011b916000199060031b1c19161790565b90555b60128501936101208701519889519485116200084d5762003146865462002561565b84811162003227575b5081938511600114620031b75750505090806200318892601396979860009262002c945750508160011b916000199060031b1c19161790565b90555b019061014081015115159060ff61ff006101608554930151151560081b1692169061ffff191617179055565b90919392601f198416998660005283600020936000905b8c82106200320f575050846013999a9b10620031f4575b50505050811b0190556200318b565b01519060f884600019921b161c1916905538808080620031e5565b808885978294968601518155019601930190620031ce565b620032529087600052836000208680890160051c820192868a1062002d49570160051c019062002b43565b386200314f565b849291601f1983169185600052896000209260005b8b828210620032a857505084116200328f575b505050811b01905562003124565b0151600019838e1b60f8161c1916905538808062003281565b83850151865589979095019493840193016200326e565b620032ea9084600052886000208780860160051c8201928b871062002d49570160051c019062002b43565b38620030ef565b849291601f1983169185600052896000209260005b8b82821062003340575050841162003327575b505050811b019055620030c5565b0151600019838e1b60f8161c1916905538808062003319565b838501518655899790950194938401930162003306565b620033829084600052886000208780860160051c8201928b871062002d49570160051c019062002b43565b3862003090565b849291601f1983169185600052896000209260005b8b828210620033d85750508411620033bf575b505050811b01905562003067565b0151600019838e1b60f8161c19169055388080620033b1565b83850151865589979095019493840193016200339e565b6200341a9084600052886000208780860160051c8201928b871062002d49570160051c019062002b43565b3862003032565b849291601f1983169185600052896000209260005b8b82821062003470575050841162003457575b505050811b01905562003009565b0151600019838e1b60f8161c1916905538808062003449565b838501518655899790950194938401930162003436565b620034b29084600052886000208780860160051c8201928b871062002d49570160051c019062002b43565b3862002fd4565b849291601f1983169185600052896000209260005b8b828210620035085750508411620034ef575b505050811b01905562002fab565b0151600019838e1b60f8161c19169055388080620034e1565b8385015186558997909501949384019301620034ce565b6200354a9084600052886000208780860160051c8201928b871062002d49570160051c019062002b43565b3862002f76565b908154600160401b8110156200084d5760018101808455811015620008375762002662926000526014602060002091020162002edf565b6002600054146200359a576002600055565b604051633ee5aeb560e01b8152600490fd5b90816020910312620008a857518015158103620008a85790565b62003630926020929091906001600160a01b0390620035e9828416151562002a2d565b1690620035f882151562002a2d565b60405163095ea7b360e01b81526001600160a01b03909116600482015260248101929092529092839190829060009082906044820190565b03925af180156200366b5762003647575b50600190565b620036639060203d60201162001f855762001f748183620025f7565b503862003641565b6040513d6000823e3d90fd5b6001600160a01b039081166200368f81151562002a2d565b6008549160005b838110620036a75750505050600090565b8282620036b483620029d9565b50541614620036c65760010162003696565b50505050600190565b620036db815462002561565b9081620036e6575050565b81601f60009311600114620036f9575055565b9080839182526200371a601f60208420940160051c84016001850162002b43565b5555565b815181546001600160a01b0319166001600160a01b039190911617815560209182015180516001939092840191600160401b84116200084d578254848455808510620037a5575b506020019160005260206000206000925b8484106200378657505050505050565b60148382620037988994518662002edf565b0192019301929062003776565b6014908060140290601482040362002e52578560140260148104870362002e52576000908682526020822092830192015b828110620037e75750505062003765565b8082859255828a8201558260028201558260038201556200380b60048201620036cf565b6200381960058201620036cf565b82600682015582600782015582600882015582600982015582600a82015582600b82015582600c82015562003851600d8201620036cf565b6200385f600e8201620036cf565b6200386d600f8201620036cf565b6200387b60108201620036cf565b6200388960118201620036cf565b6200389760128201620036cf565b82601382015501620037d656fe604060808152346200042957620010ab803803806200001e816200042e565b928339810190608081830312620004295780516001600160401b039190828111620004295783620000519183016200046a565b90602093848201519084821162000429576200006f9183016200046a565b606086830151920151906000943360018060a01b031987541617865533867f8be0079c531659141344cd1fd0a4f28419497f9722a3daafe3b4186f6b6457e08180a384518181116200034357600254906001968783811c931680156200041e575b8a84101462000324578190601f93848111620003ca575b508a9084831160011462000363578a9262000357575b5050600019600383901b1c191690871b176002555b8251918211620003435760039283548781811c9116801562000338575b8a821014620003245790818385949311620002cf575b50899183116001146200026c57889262000260575b505060001982841b1c191690851b1790555b670de0b6b3a7640000918281029281840414901517156200024c5781835560058111620001fe57907fddf252ad1be2c89b69c2b068fc378daa952ba7f163c4a11628f55a4df523b3ef929160045533845260058552858420556007845284832060ff199082828254161790553084528186852091825416179055549284519384523393a351610bce9081620004dd8239f35b855162461bcd60e51b815260048101869052602160248201527f4d6178205472616e73616374696f6e2063616e6e6f74206578636565642035256044820152601760f91b6064820152608490fd5b634e487b7160e01b84526011600452602484fd5b0151905038806200015a565b8489528989208894509190601f1984168a5b8c828210620002b857505084116200029f575b505050811b0190556200016c565b015160001983861b60f8161c1916905538808062000291565b8385015186558b979095019493840193016200027e565b909192508489528989208380860160051c8201928c87106200031a575b9186958b929594930160051c01915b8281106200030b57505062000145565b8b81558695508a9101620002fb565b92508192620002ec565b634e487b7160e01b89526022600452602489fd5b90607f16906200012f565b634e487b7160e01b87526041600452602487fd5b015190503880620000fd565b60028b528b8b208a94509190601f1984168c8e5b828210620003b2575050841162000398575b505050811b0160025562000112565b015160001960f88460031b161c1916905538808062000389565b8385015186558d979095019493840193018e62000377565b90915060028a528a8a208480850160051c8201928d861062000414575b918b91869594930160051c01915b82811062000405575050620000e7565b8c81558594508b9101620003f5565b92508192620003e7565b92607f1692620000d0565b600080fd5b6040519190601f01601f191682016001600160401b038111838210176200045457604052565b634e487b7160e01b600052604160045260246000fd5b919080601f84011215620004295782516001600160401b0381116200045457602090620004a0601f8201601f191683016200042e565b92818452828287010111620004295760005b818110620004c857508260009394955001015290565b8581018301518482018401528201620004b256fe608060408181526004918236101561001657600080fd5b600092833560e01c91826306fdde03146105b557508163095ea7b31461058b57816318160ddd1461056c57816323b872dd14610497578163313ce5671461047b57816370a0823114610443578163715018a6146103e45781637437681e146103c65781638da5cb5b1461039e57816395d89b4114610299578163a9059cbb14610268578163c2d0ffca146101b9578163db4cf1e01461010a575063dd62ed3e146100bf57600080fd5b34610106578060031936011261010657806020926100db6106bd565b6100e36106d8565b6001600160a01b0391821683526006865283832091168252845220549051908152f35b5080fd5b9050346101b55760203660031901126101b5576101256106bd565b83546001600160a01b03919061013e9083163314610726565b1690811561015e5750825260076020528120805460ff1916600117905580f35b608490602084519162461bcd60e51b8352820152602b60248201527f45524332303a204578636c756465204d61782054782066726f6d20746865207a60448201526a65726f206164647265737360a81b6064820152fd5b8280fd5b919050346101b55760203660031901126101b5578135916101e460018060a01b038554163314610726565b6005831161021c5791602091817fff3dd5e80294197918c284bbfc3dadd97d0b40ce92106110946329088f80068a945551908152a180f35b6020608492519162461bcd60e51b8352820152602160248201527f4d6178205472616e73616374696f6e2063616e6e6f74206578636565642035256044820152601760f91b6064820152fd5b5050346101065780600319360112610106576020906102926102886106bd565b6024359033610873565b5160018152f35b919050346101b557826003193601126101b55780519183600354906001908260011c92600181168015610394575b6020958686108214610381575084885290811561035f5750600114610306575b61030286866102f8828b03836106ee565b5191829182610674565b0390f35b929550600383527fc2575a0e9e593c00f959f8c92f12db2869c3395a3b0502d05e2516446f71f85b5b82841061034c5750505082610302946102f89282010194386102e7565b805486850188015292860192810161032f565b60ff191687860152505050151560051b83010192506102f882610302386102e7565b634e487b7160e01b845260229052602483fd5b93607f16936102c7565b505034610106578160031936011261010657905490516001600160a01b039091168152602090f35b9050346101b557826003193601126101b55760209250549051908152f35b83346104405780600319360112610440578054816001600160a01b03821661040d338214610726565b7f8be0079c531659141344cd1fd0a4f28419497f9722a3daafe3b4186f6b6457e08280a36001600160a01b031916815580f35b80fd5b5050346101065760203660031901126101065760209181906001600160a01b0361046b6106bd565b1681526005845220549051908152f35b5050346101065781600319360112610106576020905160128152f35b828434610440576060366003190112610440576104b26106bd565b906104bb6106d8565b6104c9604435809285610873565b6001600160a01b038316825260066020908152848320338452905283822054845192606084019067ffffffffffffffff8211858310176105595760208761029288610551898989898752602883527f45524332303a207472616e7366657220616d6f756e742065786365656473206188840152676c6c6f77616e636560c01b87840152610b4d565b903390610771565b634e487b7160e01b815260418852602490fd5b5050346101065781600319360112610106576020906001549051908152f35b5050346101065780600319360112610106576020906102926105ab6106bd565b6024359033610771565b92915034610670578360031936011261067057600254600181811c9186908281168015610666575b6020958686108214610381575084885290811561035f575060011461060d5761030286866102f8828b03836106ee565b929550600283527f405787fa12a823e0f2b7631cc41b3ba8828b3321ca811111fa75cd3aa3bb5ace5b8284106106535750505082610302946102f89282010194386102e7565b8054868501880152928601928101610636565b93607f16936105dd565b8380fd5b6020808252825181830181905290939260005b8281106106a957505060409293506000838284010152601f8019910116010190565b818101860151848201604001528501610687565b600435906001600160a01b03821682036106d357565b600080fd5b602435906001600160a01b03821682036106d357565b90601f8019910116810190811067ffffffffffffffff82111761071057604052565b634e487b7160e01b600052604160045260246000fd5b1561072d57565b606460405162461bcd60e51b815260206004820152602060248201527f4f776e61626c653a2063616c6c6572206973206e6f7420746865206f776e65726044820152fd5b6001600160a01b0390811691821561082257169182156107d25760207f8c5be1e5ebec7d5bd14f71427d1e84f3dd0314c0f7b2291e5b200ac8c7c3b925918360005260068252604060002085600052825280604060002055604051908152a3565b60405162461bcd60e51b815260206004820152602260248201527f45524332303a20617070726f766520746f20746865207a65726f206164647265604482015261737360f01b6064820152608490fd5b60405162461bcd60e51b8152602060048201526024808201527f45524332303a20617070726f76652066726f6d20746865207a65726f206164646044820152637265737360e01b6064820152608490fd5b9192916001600160a01b03908116918215610afa5716908115610aa9578315610a5257600480549460015495868102968188041490151715610a3d576000958387526020926007845260409160ff838a205416156109ec575b50848852600584528188205482519083820182811067ffffffffffffffff8211176109d957610928929186918652601e83527f536166654d6174683a207375627472616374696f6e206f766572666c6f77000088840152610b4d565b85895260058552828920558588528188205490838201918281116109c657821061098357508188877fddf252ad1be2c89b69c2b068fc378daa952ba7f163c4a11628f55a4df523b3ef9798999a5260058652205551908152a3565b825162461bcd60e51b8152908101859052601b60248201527f536166654d6174683a206164646974696f6e206f766572666c6f7700000000006044820152606490fd5b634e487b7160e01b8a526011825260248afd5b634e487b7160e01b8b526041845260248bfd5b6064900483116109fc57386108cc565b83606492519162461bcd60e51b8352820152601860248201527f4578636565647320746865204d61785478416d6f756e742e00000000000000006044820152fd5b601182634e487b7160e01b6000525260246000fd5b60405162461bcd60e51b815260206004820152602960248201527f5472616e7366657220616d6f756e74206d7573742062652067726561746572206044820152687468616e207a65726f60b81b6064820152608490fd5b60405162461bcd60e51b815260206004820152602360248201527f45524332303a207472616e7366657220746f20746865207a65726f206164647260448201526265737360e81b6064820152608490fd5b60405162461bcd60e51b815260206004820152602560248201527f45524332303a207472616e736665722066726f6d20746865207a65726f206164604482015264647265737360d81b6064820152608490fd5b91828211610b7857508103908111610b625790565b634e487b7160e01b600052601160045260246000fd5b60405162461bcd60e51b8152908190610b949060048301610674565b0390fdfea2646970667358221220c49e554740cb71aa09a85b3746b1a934acbfb9371a9f5eefd27a7b626ea785f264736f6c63430008180033a2646970667358221220f68bbc35ee181e9b088b348491494b13f382e7f286cbae4a216a2a960926938064736f6c63430008180033",
          "opcodes": "PUSH1 0x80 CALLVALUE PUSH3 0x146 JUMPI PUSH1 0x1F PUSH3 0x4B49 CODESIZE DUP2 SWAP1 SUB SWAP2 DUP3 ADD PUSH1 0x1F NOT AND DUP4 ADD SWAP2 PUSH1 0x1 PUSH1 0x1 PUSH1 0x40 SHL SUB DUP4 GT DUP5 DUP5 LT OR PUSH3 0x14B JUMPI DUP1 DUP5 SWAP3 PUSH1 0x80 SWAP5 PUSH1 0x40 MSTORE DUP4 CODECOPY DUP2 ADD SUB SLT PUSH3 0x146 JUMPI PUSH3 0x4D DUP2 PUSH3 0x161 JUMP JUMPDEST PUSH3 0x5B PUSH1 0x20 DUP4 ADD PUSH3 0x161 JUMP JUMPDEST PUSH1 0x60 PUSH3 0x6B PUSH1 0x40 DUP6 ADD PUSH3 0x161 JUMP JUMPDEST SWAP4 ADD MLOAD PUSH1 0x1 PUSH1 0x0 DUP2 SWAP1 SSTORE DUP1 SLOAD PUSH1 0x1 PUSH1 0x1 PUSH1 0xA0 SHL SUB NOT SWAP1 DUP2 AND CALLER OR SWAP1 SWAP2 SSTORE SWAP1 SWAP4 SWAP1 SWAP3 PUSH1 0x1 PUSH1 0x1 PUSH1 0xA0 SHL SUB SWAP1 DUP2 AND SWAP3 DUP2 SWAP1 PUSH3 0xA7 DUP6 ISZERO ISZERO PUSH3 0x176 JUMP JUMPDEST AND SWAP2 PUSH3 0xB6 DUP4 ISZERO ISZERO PUSH3 0x176 JUMP JUMPDEST AND SWAP2 PUSH3 0xC5 DUP4 ISZERO ISZERO PUSH3 0x176 JUMP JUMPDEST DUP4 PUSH1 0x2 SLOAD AND OR PUSH1 0x2 SSTORE DUP3 PUSH1 0x3 SLOAD AND OR PUSH1 0x3 SSTORE DUP2 PUSH1 0x4 SLOAD AND OR PUSH1 0x4 SSTORE PUSH8 0xDE0B6B3A7640000 SWAP2 DUP3 DUP2 MUL SWAP3 DUP2 DUP5 DIV EQ SWAP1 ISZERO OR ISZERO PUSH3 0x130 JUMPI PUSH2 0x3E8 PUSH20 0x4752BA5DBC23F44D87826276BF6FD6B1C372AD24 SWAP3 DIV PUSH1 0x5 SSTORE PUSH1 0x6 SLOAD AND OR PUSH1 0x6 SSTORE PUSH1 0x40 MLOAD PUSH2 0x4985 SWAP1 DUP2 PUSH3 0x1C4 DUP3 CODECOPY RETURN JUMPDEST PUSH4 0x4E487B71 PUSH1 0xE0 SHL PUSH1 0x0 MSTORE PUSH1 0x11 PUSH1 0x4 MSTORE PUSH1 0x24 PUSH1 0x0 REVERT JUMPDEST PUSH1 0x0 DUP1 REVERT JUMPDEST PUSH4 0x4E487B71 PUSH1 0xE0 SHL PUSH1 0x0 MSTORE PUSH1 0x41 PUSH1 0x4 MSTORE PUSH1 0x24 PUSH1 0x0 REVERT JUMPDEST MLOAD SWAP1 PUSH1 0x1 PUSH1 0x1 PUSH1 0xA0 SHL SUB DUP3 AND DUP3 SUB PUSH3 0x146 JUMPI JUMP JUMPDEST ISZERO PUSH3 0x17E JUMPI JUMP JUMPDEST PUSH1 0x40 MLOAD PUSH3 0x461BCD PUSH1 0xE5 SHL DUP2 MSTORE PUSH1 0x20 PUSH1 0x4 DUP3 ADD MSTORE PUSH1 0x1F PUSH1 0x24 DUP3 ADD MSTORE PUSH32 0x5A65726F2061646472657373657320617265206E6F7420616C6C6F7765642E00 PUSH1 0x44 DUP3 ADD MSTORE PUSH1 0x64 SWAP1 REVERT INVALID PUSH1 0x80 DUP1 PUSH1 0x40 MSTORE PUSH1 0x4 CALLDATASIZE LT ISZERO PUSH3 0x1F JUMPI JUMPDEST POP CALLDATASIZE ISZERO PUSH3 0x1D JUMPI PUSH1 0x0 DUP1 REVERT JUMPDEST STOP JUMPDEST PUSH1 0x0 SWAP1 DUP2 CALLDATALOAD PUSH1 0xE0 SHR SWAP1 DUP2 PUSH4 0x17E7E58 EQ PUSH3 0x2428 JUMPI POP DUP1 PUSH4 0x9402EBD EQ PUSH3 0x2333 JUMPI DUP1 PUSH4 0x94B7415 EQ PUSH3 0x2308 JUMPI DUP1 PUSH4 0x13FF7E9F EQ PUSH3 0x225C JUMPI DUP1 PUSH4 0x3CCFD60B EQ PUSH3 0x21DB JUMPI DUP1 PUSH4 0x4C96A389 EQ PUSH3 0x1A41 JUMPI DUP1 PUSH4 0x4F64B2BE EQ PUSH3 0x1834 JUMPI DUP1 PUSH4 0x512B1E6E EQ PUSH3 0x1487 JUMPI DUP1 PUSH4 0x57F8D901 EQ PUSH3 0x1021 JUMPI DUP1 PUSH4 0x5C52A5F2 EQ PUSH3 0xFD0 JUMPI DUP1 PUSH4 0x6D46A1DB EQ PUSH3 0xF00 JUMPI DUP1 PUSH4 0x7660F44A EQ PUSH3 0xEDB JUMPI DUP1 PUSH4 0x80997E47 EQ PUSH3 0xEB4 JUMPI DUP1 PUSH4 0x8A664EBC EQ PUSH3 0xCE9 JUMPI DUP1 PUSH4 0x98118CB4 EQ PUSH3 0xCCB JUMPI DUP1 PUSH4 0x9DD9D0FD EQ PUSH3 0xC8B JUMPI DUP1 PUSH4 0xAA6CA808 EQ PUSH3 0xB20 JUMPI DUP1 PUSH4 0xAD256F7D EQ PUSH3 0x1E8 JUMPI DUP1 PUSH4 0xC36FE3D6 EQ PUSH3 0x1A4 JUMPI DUP1 PUSH4 0xCF3CF573 EQ PUSH3 0x184 JUMPI PUSH4 0xF46901ED SUB PUSH3 0x10 JUMPI CALLVALUE PUSH3 0x181 JUMPI PUSH1 0x20 CALLDATASIZE PUSH1 0x3 NOT ADD SLT PUSH3 0x181 JUMPI PUSH3 0x141 PUSH3 0x251C JUMP JUMPDEST PUSH1 0x1 SLOAD PUSH1 0x1 PUSH1 0x1 PUSH1 0xA0 SHL SUB SWAP2 SWAP1 PUSH3 0x15D SWAP1 DUP4 AND CALLER EQ PUSH3 0x2AAF JUMP JUMPDEST AND PUSH3 0x16B DUP2 ISZERO ISZERO PUSH3 0x2A2D JUMP JUMPDEST PUSH1 0x1 PUSH1 0x1 PUSH1 0x60 SHL SUB PUSH1 0xA0 SHL PUSH1 0x4 SLOAD AND OR PUSH1 0x4 SSTORE DUP1 RETURN JUMPDEST DUP1 REVERT JUMPDEST POP CALLVALUE PUSH3 0x181 JUMPI DUP1 PUSH1 0x3 NOT CALLDATASIZE ADD SLT PUSH3 0x181 JUMPI PUSH1 0x20 PUSH1 0x5 SLOAD PUSH1 0x40 MLOAD SWAP1 DUP2 MSTORE RETURN JUMPDEST POP CALLVALUE PUSH3 0x181 JUMPI PUSH1 0x20 CALLDATASIZE PUSH1 0x3 NOT ADD SLT PUSH3 0x181 JUMPI PUSH1 0x4 CALLDATALOAD SWAP1 PUSH1 0x8 SLOAD DUP3 LT ISZERO PUSH3 0x181 JUMPI PUSH1 0x20 PUSH3 0x1D4 DUP4 PUSH3 0x29D9 JUMP JUMPDEST POP SLOAD PUSH1 0x40 MLOAD PUSH1 0x1 PUSH1 0x1 PUSH1 0xA0 SHL SUB SWAP1 SWAP2 AND DUP2 MSTORE RETURN JUMPDEST POP PUSH1 0xE0 CALLDATASIZE PUSH1 0x3 NOT ADD SLT PUSH3 0x181 JUMPI PUSH8 0xFFFFFFFFFFFFFFFF PUSH1 0x4 CALLDATALOAD DUP2 DUP2 GT PUSH3 0x777 JUMPI PUSH3 0x21A SWAP1 CALLDATASIZE SWAP1 PUSH1 0x4 ADD PUSH3 0x298C JUMP JUMPDEST PUSH1 0x24 CALLDATALOAD DUP3 DUP2 GT PUSH3 0xB1C JUMPI PUSH3 0x235 SWAP1 CALLDATASIZE SWAP1 PUSH1 0x4 ADD PUSH3 0x298C JUMP JUMPDEST PUSH1 0x44 CALLDATALOAD DUP4 DUP2 GT PUSH3 0xB18 JUMPI PUSH3 0x250 SWAP1 CALLDATASIZE SWAP1 PUSH1 0x4 ADD PUSH3 0x298C JUMP JUMPDEST PUSH1 0x64 CALLDATALOAD DUP5 DUP2 GT PUSH3 0xB14 JUMPI PUSH3 0x26B SWAP1 CALLDATASIZE SWAP1 PUSH1 0x4 ADD PUSH3 0x298C JUMP JUMPDEST SWAP4 PUSH1 0x84 CALLDATALOAD SWAP1 DUP1 DUP3 GT PUSH3 0xB10 JUMPI CALLDATASIZE PUSH1 0x23 DUP4 ADD SLT ISZERO PUSH3 0xB10 JUMPI PUSH1 0x40 MLOAD SWAP2 PUSH1 0x80 DUP4 ADD DUP4 DUP2 LT DUP4 DUP3 GT OR PUSH3 0x84D JUMPI PUSH1 0x40 MSTORE PUSH1 0x84 DUP2 ADD DUP4 CALLDATASIZE DUP3 GT PUSH3 0xB0C JUMPI DUP3 PUSH1 0x4 ADD SWAP1 JUMPDEST DUP3 DUP3 LT PUSH3 0xADC JUMPI POP POP POP POP PUSH3 0x2C4 PUSH3 0x3588 JUMP JUMPDEST PUSH1 0x5 SLOAD CALLVALUE LT PUSH3 0xA97 JUMPI PUSH1 0x40 MLOAD SWAP1 PUSH2 0x10AB DUP1 DUP4 ADD SWAP2 DUP3 GT DUP4 DUP4 LT OR PUSH3 0xA83 JUMPI SWAP1 DUP3 SWAP2 PUSH3 0x38A5 DUP4 CODECOPY PUSH1 0x80 DUP2 MSTORE PUSH3 0x313 PUSH3 0x304 PUSH1 0x80 DUP4 ADD DUP10 PUSH3 0x244F JUMP JUMPDEST DUP3 DUP2 SUB PUSH1 0x20 DUP5 ADD MSTORE DUP8 PUSH3 0x244F JUMP JUMPDEST SWAP1 PUSH1 0xA4 CALLDATALOAD PUSH1 0x40 DUP3 ADD MSTORE PUSH1 0x60 PUSH1 0xC4 CALLDATALOAD SWAP2 ADD MSTORE SUB SWAP1 DUP8 CREATE SWAP5 DUP6 ISZERO PUSH3 0xA78 JUMPI PUSH1 0x3 SLOAD PUSH1 0x40 MLOAD PUSH4 0x15AB88C9 PUSH1 0xE3 SHL DUP2 MSTORE SWAP6 SWAP1 PUSH1 0x20 SWAP1 DUP8 SWAP1 PUSH1 0x4 SWAP1 DUP3 SWAP1 PUSH1 0x1 PUSH1 0x1 PUSH1 0xA0 SHL SUB AND GAS STATICCALL SWAP6 DUP7 ISZERO PUSH3 0xA4B JUMPI PUSH3 0x3AC SWAP7 PUSH1 0x20 SWAP2 DUP11 SWAP2 PUSH3 0xA56 JUMPI JUMPDEST POP PUSH1 0x2 SLOAD PUSH1 0x40 MLOAD PUSH4 0x64E329CB PUSH1 0xE1 SHL DUP2 MSTORE PUSH1 0x1 PUSH1 0x1 PUSH1 0xA0 SHL SUB DUP12 DUP2 AND PUSH1 0x4 DUP4 ADD MSTORE SWAP3 DUP4 AND PUSH1 0x24 DUP3 ADD MSTORE SWAP9 DUP10 SWAP3 SWAP1 SWAP2 AND SWAP1 DUP3 SWAP1 DUP13 SWAP1 DUP3 SWAP1 PUSH1 0x44 DUP3 ADD SWAP1 JUMP JUMPDEST SUB SWAP3 GAS CALL SWAP6 DUP7 ISZERO PUSH3 0xA4B JUMPI DUP9 SWAP7 PUSH3 0xA13 JUMPI JUMPDEST POP PUSH1 0x40 MLOAD PUSH4 0x313CE567 PUSH1 0xE0 SHL DUP2 MSTORE PUSH1 0x20 DUP2 PUSH1 0x4 DUP2 PUSH1 0x1 PUSH1 0x1 PUSH1 0xA0 SHL SUB DUP13 AND GAS STATICCALL DUP1 ISZERO PUSH3 0xA08 JUMPI DUP10 SWAP1 PUSH3 0x9C4 JUMPI JUMPDEST PUSH1 0xFF SWAP2 POP AND PUSH1 0x4D DUP2 GT PUSH3 0x9B0 JUMPI PUSH3 0x40E SWAP1 PUSH1 0xA EXP PUSH1 0xA4 CALLDATALOAD PUSH3 0x2E76 JUMP JUMPDEST PUSH1 0x3 SLOAD SWAP1 SWAP6 SWAP1 PUSH3 0x42E SWAP1 DUP8 SWAP1 PUSH1 0x1 PUSH1 0x1 PUSH1 0xA0 SHL SUB DUP12 DUP2 AND SWAP2 AND PUSH3 0x35C6 JUMP JUMPDEST ISZERO PUSH3 0x9AC JUMPI CALLVALUE PUSH1 0x5 MUL SWAP2 PUSH1 0x5 DUP4 DIV CALLVALUE SUB PUSH3 0x998 JUMPI PUSH3 0x453 PUSH1 0x64 DUP5 DIV CALLVALUE PUSH3 0x2E68 JUMP JUMPDEST PUSH1 0x3 SLOAD PUSH1 0x40 DUP1 MLOAD PUSH4 0xE505AA9 PUSH1 0xE3 SHL DUP2 MSTORE PUSH1 0x1 PUSH1 0x1 PUSH1 0xA0 SHL SUB DUP14 DUP2 AND PUSH1 0x4 DUP4 ADD MSTORE PUSH1 0x24 DUP3 ADD DUP13 SWAP1 MSTORE SWAP4 SWAP11 SWAP4 SWAP1 SWAP3 DUP4 SWAP2 PUSH1 0x44 SWAP2 DUP4 SWAP2 PUSH1 0x64 DUP12 DIV SWAP2 AND GAS CALL DUP1 ISZERO PUSH3 0x958 JUMPI PUSH3 0x963 JUMPI JUMPDEST POP PUSH1 0x40 MLOAD PUSH4 0x5D4D3D2B PUSH1 0xE1 SHL DUP2 MSTORE SWAP3 PUSH1 0x20 DUP5 PUSH1 0x4 DUP2 PUSH1 0x1 PUSH1 0x1 PUSH1 0xA0 SHL SUB DUP15 AND GAS STATICCALL SWAP4 DUP5 ISZERO PUSH3 0x958 JUMPI DUP13 SWAP5 PUSH3 0x91B JUMPI JUMPDEST POP PUSH3 0x4DC PUSH1 0x4 SWAP5 DUP4 PUSH3 0x2E8A JUMP JUMPDEST PUSH1 0x40 MLOAD PUSH4 0x5D4D3D2B PUSH1 0xE1 SHL DUP2 MSTORE SWAP5 SWAP1 SWAP4 SWAP1 PUSH1 0x20 SWAP1 DUP7 SWAP1 DUP2 PUSH1 0x1 PUSH1 0x1 PUSH1 0xA0 SHL SUB DUP16 AND GAS STATICCALL SWAP5 DUP6 ISZERO PUSH3 0x910 JUMPI DUP14 SWAP6 PUSH3 0x8D6 JUMPI JUMPDEST POP PUSH1 0x64 DUP7 DIV PUSH1 0x64 DUP8 DIV PUSH1 0x1 SHL DIV PUSH1 0x2 EQ PUSH1 0x64 DUP8 DIV ISZERO OR ISZERO PUSH3 0x8C2 JUMPI SWAP1 DUP13 SWAP6 SWAP5 SWAP4 SWAP3 SWAP2 PUSH1 0x4 PUSH1 0x20 DUP14 PUSH1 0x40 MLOAD SWAP3 DUP4 DUP1 SWAP3 PUSH4 0x5D4D3D2B PUSH1 0xE1 SHL DUP3 MSTORE PUSH1 0x1 DUP1 PUSH1 0xA0 SHL SUB AND GAS STATICCALL SWAP8 DUP9 ISZERO PUSH3 0x8B6 JUMPI SWAP8 PUSH3 0x877 JUMPI JUMPDEST POP DUP7 DUP1 PUSH1 0x1 SHL DIV PUSH1 0x2 EQ DUP8 ISZERO OR ISZERO PUSH3 0x863 JUMPI SWAP2 DUP13 SWAP10 SWAP9 SWAP8 SWAP7 SWAP6 SWAP4 SWAP2 PUSH1 0x64 SWAP6 SWAP4 PUSH1 0x40 MLOAD SWAP12 PUSH3 0x590 DUP14 PUSH3 0x259E JUMP JUMPDEST PUSH1 0x1 DUP1 PUSH1 0xA0 SHL SUB AND DUP13 MSTORE PUSH1 0x20 DUP13 ADD MSTORE PUSH1 0x40 DUP12 ADD MSTORE PUSH1 0x60 DUP11 ADD MSTORE PUSH1 0x80 DUP10 ADD MSTORE PUSH1 0xA0 DUP9 ADD MSTORE DIV PUSH1 0x1 SHL PUSH1 0xC0 DUP7 ADD MSTORE PUSH1 0x1 SHL PUSH1 0xE0 DUP6 ADD MSTORE DUP8 PUSH2 0x100 DUP6 ADD MSTORE DUP8 PUSH2 0x120 DUP6 ADD MSTORE DUP2 MLOAD PUSH1 0x20 DUP4 ADD MLOAD SWAP2 PUSH1 0x60 PUSH1 0x40 DUP6 ADD MLOAD SWAP5 ADD MLOAD SWAP5 PUSH1 0x40 MLOAD SWAP7 PUSH3 0x5F4 DUP9 PUSH3 0x25D9 JUMP JUMPDEST CALLER DUP9 MSTORE PUSH1 0x1 DUP1 PUSH1 0xA0 SHL SUB DUP12 AND PUSH1 0x20 DUP10 ADD MSTORE PUSH1 0x1 DUP1 PUSH1 0xA0 SHL SUB DUP11 AND PUSH1 0x40 DUP10 ADD MSTORE PUSH1 0x60 DUP9 ADD MSTORE PUSH1 0x80 DUP8 ADD MSTORE PUSH1 0xA0 DUP7 ADD MSTORE PUSH1 0xC0 DUP6 ADD MSTORE PUSH1 0xE0 DUP5 ADD MSTORE PUSH2 0x100 DUP4 ADD MSTORE PUSH2 0x120 DUP3 ADD MSTORE PUSH1 0x1 PUSH2 0x140 DUP3 ADD MSTORE DUP5 PUSH2 0x160 DUP3 ADD MSTORE PUSH1 0x1 DUP1 PUSH1 0xA0 SHL SUB DUP5 AND DUP6 MSTORE PUSH1 0x9 PUSH1 0x20 MSTORE PUSH3 0x666 DUP2 PUSH1 0x40 DUP8 KECCAK256 PUSH3 0x2EDF JUMP JUMPDEST PUSH1 0xA SLOAD SWAP1 PUSH1 0x1 PUSH1 0x40 SHL DUP1 DUP4 LT ISZERO PUSH3 0x84D JUMPI PUSH1 0x1 DUP4 ADD DUP1 PUSH1 0xA SSTORE DUP4 LT ISZERO PUSH3 0x837 JUMPI PUSH3 0x6BF DUP3 PUSH1 0x14 DUP10 SWAP6 PUSH1 0xA PUSH1 0x0 MSTORE MUL PUSH32 0xC65A7BB8D6351C1CF70C95A316CC6A92839C986682D98BC35F958F4883F9D2A8 ADD PUSH3 0x2EDF JUMP JUMPDEST PUSH3 0x6CA CALLER PUSH3 0x3677 JUMP JUMPDEST ISZERO PUSH3 0x77B JUMPI POP DUP2 DUP1 SWAP4 PUSH3 0x6EF DUP3 SWAP4 CALLER DUP5 MSTORE PUSH1 0x7 PUSH1 0x20 MSTORE PUSH1 0x1 PUSH1 0x40 DUP6 KECCAK256 ADD PUSH3 0x3551 JUMP JUMPDEST PUSH1 0x4 SLOAD PUSH1 0x1 PUSH1 0x1 PUSH1 0xA0 SHL SUB AND GAS CALL PUSH3 0x707 PUSH3 0x2A7A JUMP JUMPDEST POP ISZERO PUSH3 0x777 JUMPI PUSH1 0xA SLOAD PUSH1 0x40 MLOAD DUP2 DUP2 MSTORE PUSH1 0x60 SWAP5 SWAP2 SWAP3 SWAP2 PUSH1 0x1 SWAP2 PUSH1 0x1 PUSH1 0x1 PUSH1 0xA0 SHL SUB DUP1 DUP6 AND SWAP2 SWAP1 DUP8 AND SWAP1 PUSH32 0x714AA39317AD9A7A7A99DB52B44490DA5D068A0B2710FFFB1A1282AD3CADAE1F SWAP1 PUSH1 0x20 SWAP1 LOG3 SSTORE PUSH1 0x40 DUP1 MLOAD PUSH1 0x1 PUSH1 0x1 PUSH1 0xA0 SHL SUB SWAP5 DUP6 AND DUP2 MSTORE SWAP2 SWAP1 SWAP4 AND PUSH1 0x20 DUP3 ADD MSTORE SWAP2 DUP3 ADD MSTORE RETURN JUMPDEST DUP3 DUP1 REVERT JUMPDEST SWAP1 SWAP2 POP PUSH3 0x78B CALLER ISZERO ISZERO PUSH3 0x2A2D JUMP JUMPDEST PUSH1 0x40 MLOAD SWAP1 PUSH3 0x79A DUP3 PUSH3 0x25BC JUMP JUMPDEST CALLER DUP3 MSTORE PUSH1 0x60 PUSH1 0x20 DUP4 ADD MSTORE CALLER DUP8 MSTORE PUSH1 0x7 PUSH1 0x20 MSTORE PUSH3 0x7BB DUP3 PUSH1 0x40 DUP10 KECCAK256 PUSH3 0x371E JUMP JUMPDEST PUSH1 0x8 SLOAD SWAP1 DUP2 LT ISZERO PUSH3 0x823 JUMPI DUP1 PUSH1 0x1 PUSH3 0x7D9 SWAP3 ADD PUSH1 0x8 SSTORE PUSH3 0x29D9 JUMP JUMPDEST PUSH3 0x80F JUMPI DUP7 SWAP4 PUSH3 0x809 DUP6 SWAP5 PUSH3 0x7F4 DUP7 SWAP6 DUP7 SWAP6 PUSH3 0x371E JUMP JUMPDEST CALLER DUP5 MSTORE PUSH1 0x7 PUSH1 0x20 MSTORE PUSH1 0x1 PUSH1 0x40 DUP6 KECCAK256 ADD PUSH3 0x3551 JUMP JUMPDEST PUSH3 0x6EF JUMP JUMPDEST PUSH4 0x4E487B71 PUSH1 0xE0 SHL DUP8 MSTORE PUSH1 0x4 DUP8 SWAP1 MSTORE PUSH1 0x24 DUP8 REVERT JUMPDEST PUSH4 0x4E487B71 PUSH1 0xE0 SHL DUP8 MSTORE PUSH1 0x41 PUSH1 0x4 MSTORE PUSH1 0x24 DUP8 REVERT JUMPDEST PUSH4 0x4E487B71 PUSH1 0xE0 SHL PUSH1 0x0 MSTORE PUSH1 0x32 PUSH1 0x4 MSTORE PUSH1 0x24 PUSH1 0x0 REVERT JUMPDEST PUSH4 0x4E487B71 PUSH1 0xE0 SHL PUSH1 0x0 MSTORE PUSH1 0x41 PUSH1 0x4 MSTORE PUSH1 0x24 PUSH1 0x0 REVERT JUMPDEST PUSH4 0x4E487B71 PUSH1 0xE0 SHL DUP15 MSTORE PUSH1 0x11 PUSH1 0x4 MSTORE PUSH1 0x24 DUP15 REVERT JUMPDEST SWAP1 SWAP7 POP PUSH1 0x20 DUP2 RETURNDATASIZE PUSH1 0x20 GT PUSH3 0x8AD JUMPI JUMPDEST DUP2 PUSH3 0x896 PUSH1 0x20 SWAP4 DUP4 PUSH3 0x25F7 JUMP JUMPDEST DUP2 ADD SUB SLT PUSH3 0x8A8 JUMPI MLOAD SWAP6 CODESIZE PUSH3 0x561 JUMP JUMPDEST PUSH1 0x0 DUP1 REVERT JUMPDEST RETURNDATASIZE SWAP2 POP PUSH3 0x887 JUMP JUMPDEST PUSH1 0x40 MLOAD SWAP1 RETURNDATASIZE SWAP1 DUP3 RETURNDATACOPY RETURNDATASIZE SWAP1 REVERT JUMPDEST PUSH4 0x4E487B71 PUSH1 0xE0 SHL DUP14 MSTORE PUSH1 0x11 PUSH1 0x4 MSTORE PUSH1 0x24 DUP14 REVERT JUMPDEST SWAP1 SWAP5 POP PUSH1 0x20 DUP2 RETURNDATASIZE PUSH1 0x20 GT PUSH3 0x907 JUMPI JUMPDEST DUP2 PUSH3 0x8F5 PUSH1 0x20 SWAP4 DUP4 PUSH3 0x25F7 JUMP JUMPDEST DUP2 ADD SUB SLT PUSH3 0x8A8 JUMPI MLOAD SWAP4 CODESIZE PUSH3 0x50F JUMP JUMPDEST RETURNDATASIZE SWAP2 POP PUSH3 0x8E6 JUMP JUMPDEST PUSH1 0x40 MLOAD RETURNDATASIZE DUP16 DUP3 RETURNDATACOPY RETURNDATASIZE SWAP1 REVERT JUMPDEST SWAP4 POP PUSH1 0x20 DUP5 RETURNDATASIZE PUSH1 0x20 GT PUSH3 0x94F JUMPI JUMPDEST DUP2 PUSH3 0x939 PUSH1 0x20 SWAP4 DUP4 PUSH3 0x25F7 JUMP JUMPDEST DUP2 ADD SUB SLT PUSH3 0x8A8 JUMPI SWAP3 MLOAD SWAP3 PUSH3 0x4DC PUSH3 0x4CD JUMP JUMPDEST RETURNDATASIZE SWAP2 POP PUSH3 0x92A JUMP JUMPDEST PUSH1 0x40 MLOAD RETURNDATASIZE DUP15 DUP3 RETURNDATACOPY RETURNDATASIZE SWAP1 REVERT JUMPDEST PUSH3 0x989 SWAP1 PUSH1 0x40 RETURNDATASIZE PUSH1 0x40 GT PUSH3 0x990 JUMPI JUMPDEST PUSH3 0x980 DUP2 DUP4 PUSH3 0x25F7 JUMP JUMPDEST DUP2 ADD SWAP1 PUSH3 0x2B2C JUMP JUMPDEST POP PUSH3 0x49C JUMP JUMPDEST POP RETURNDATASIZE PUSH3 0x974 JUMP JUMPDEST PUSH4 0x4E487B71 PUSH1 0xE0 SHL DUP11 MSTORE PUSH1 0x11 PUSH1 0x4 MSTORE PUSH1 0x24 DUP11 REVERT JUMPDEST DUP9 DUP1 REVERT JUMPDEST PUSH4 0x4E487B71 PUSH1 0xE0 SHL DUP10 MSTORE PUSH1 0x11 PUSH1 0x4 MSTORE PUSH1 0x24 DUP10 REVERT JUMPDEST POP PUSH1 0x20 DUP2 RETURNDATASIZE PUSH1 0x20 GT PUSH3 0x9FF JUMPI JUMPDEST DUP2 PUSH3 0x9E1 PUSH1 0x20 SWAP4 DUP4 PUSH3 0x25F7 JUMP JUMPDEST DUP2 ADD SUB SLT PUSH3 0x9AC JUMPI MLOAD PUSH1 0xFF DUP2 AND DUP2 SUB PUSH3 0x9AC JUMPI PUSH1 0xFF SWAP1 PUSH3 0x3EF JUMP JUMPDEST RETURNDATASIZE SWAP2 POP PUSH3 0x9D2 JUMP JUMPDEST PUSH1 0x40 MLOAD RETURNDATASIZE DUP12 DUP3 RETURNDATACOPY RETURNDATASIZE SWAP1 REVERT JUMPDEST PUSH3 0xA3B SWAP2 SWAP7 POP PUSH1 0x20 RETURNDATASIZE PUSH1 0x20 GT PUSH3 0xA43 JUMPI JUMPDEST PUSH3 0xA32 DUP2 DUP4 PUSH3 0x25F7 JUMP JUMPDEST DUP2 ADD SWAP1 PUSH3 0x2B0B JUMP JUMPDEST SWAP5 CODESIZE PUSH3 0x3C0 JUMP JUMPDEST POP RETURNDATASIZE PUSH3 0xA26 JUMP JUMPDEST PUSH1 0x40 MLOAD RETURNDATASIZE DUP11 DUP3 RETURNDATACOPY RETURNDATASIZE SWAP1 REVERT JUMPDEST PUSH3 0xA71 SWAP2 POP DUP3 RETURNDATASIZE DUP5 GT PUSH3 0xA43 JUMPI PUSH3 0xA32 DUP2 DUP4 PUSH3 0x25F7 JUMP JUMPDEST CODESIZE PUSH3 0x36F JUMP JUMPDEST PUSH1 0x40 MLOAD RETURNDATASIZE DUP9 DUP3 RETURNDATACOPY RETURNDATASIZE SWAP1 REVERT JUMPDEST PUSH4 0x4E487B71 PUSH1 0xE0 SHL DUP10 MSTORE PUSH1 0x41 PUSH1 0x4 MSTORE PUSH1 0x24 DUP10 REVERT JUMPDEST PUSH1 0x40 MLOAD PUSH3 0x461BCD PUSH1 0xE5 SHL DUP2 MSTORE PUSH1 0x20 PUSH1 0x4 DUP3 ADD MSTORE PUSH1 0x19 PUSH1 0x24 DUP3 ADD MSTORE PUSH32 0x496E73756666696369656E7420616D6F756E742073656E742E00000000000000 PUSH1 0x44 DUP3 ADD MSTORE PUSH1 0x64 SWAP1 REVERT JUMPDEST DUP2 CALLDATALOAD DUP6 DUP2 GT PUSH3 0xB08 JUMPI PUSH1 0x20 SWAP2 PUSH3 0xAFC DUP4 SWAP3 PUSH1 0x4 CALLDATASIZE SWAP2 DUP10 ADD ADD PUSH3 0x298C JUMP JUMPDEST DUP2 MSTORE ADD SWAP2 ADD SWAP1 PUSH3 0x2AE JUMP JUMPDEST DUP12 DUP1 REVERT JUMPDEST DUP10 DUP1 REVERT JUMPDEST DUP7 DUP1 REVERT JUMPDEST DUP6 DUP1 REVERT JUMPDEST DUP5 DUP1 REVERT JUMPDEST DUP4 DUP1 REVERT JUMPDEST POP CALLVALUE PUSH3 0x181 JUMPI DUP1 PUSH1 0x3 NOT CALLDATASIZE ADD SLT PUSH3 0x181 JUMPI PUSH1 0xA SLOAD PUSH3 0xB41 DUP2 PUSH3 0x2A14 JUMP JUMPDEST PUSH3 0xB50 PUSH1 0x40 MLOAD SWAP2 DUP3 PUSH3 0x25F7 JUMP JUMPDEST DUP2 DUP2 MSTORE PUSH1 0x20 SWAP2 PUSH1 0x20 DUP3 ADD PUSH1 0xA PUSH1 0x0 MSTORE PUSH32 0xC65A7BB8D6351C1CF70C95A316CC6A92839C986682D98BC35F958F4883F9D2A8 SWAP4 PUSH1 0x0 SWAP2 JUMPDEST DUP4 DUP4 LT PUSH3 0xBA1 JUMPI PUSH1 0x40 MLOAD DUP1 PUSH3 0xB9D DUP8 DUP3 PUSH3 0x2824 JUMP JUMPDEST SUB SWAP1 RETURN JUMPDEST PUSH1 0x14 DUP3 PUSH1 0x1 SWAP3 PUSH1 0x40 MLOAD PUSH3 0xBB5 DUP2 PUSH3 0x25D9 JUMP JUMPDEST DUP5 DUP1 PUSH1 0xA0 SHL SUB DUP1 DUP12 SLOAD AND DUP3 MSTORE DUP1 DUP7 DUP13 ADD SLOAD AND DUP5 DUP4 ADD MSTORE PUSH1 0x2 DUP12 ADD SLOAD AND PUSH1 0x40 DUP3 ADD MSTORE PUSH3 0xBE4 PUSH1 0x3 DUP12 ADD PUSH3 0x26CB JUMP JUMPDEST PUSH1 0x60 DUP3 ADD MSTORE PUSH3 0xBF7 PUSH1 0xD DUP12 ADD PUSH3 0x261A JUMP JUMPDEST PUSH1 0x80 DUP3 ADD MSTORE PUSH3 0xC0A PUSH1 0xE DUP12 ADD PUSH3 0x261A JUMP JUMPDEST PUSH1 0xA0 DUP3 ADD MSTORE PUSH3 0xC1D PUSH1 0xF DUP12 ADD PUSH3 0x261A JUMP JUMPDEST PUSH1 0xC0 DUP3 ADD MSTORE PUSH3 0xC30 PUSH1 0x10 DUP12 ADD PUSH3 0x261A JUMP JUMPDEST PUSH1 0xE0 DUP3 ADD MSTORE PUSH3 0xC43 PUSH1 0x11 DUP12 ADD PUSH3 0x261A JUMP JUMPDEST PUSH2 0x100 DUP3 ADD MSTORE PUSH3 0xC57 PUSH1 0x12 DUP12 ADD PUSH3 0x261A JUMP JUMPDEST PUSH2 0x120 DUP3 ADD MSTORE PUSH1 0x13 DUP11 ADD SLOAD PUSH1 0xFF SWAP1 DUP2 DUP2 AND ISZERO ISZERO PUSH2 0x140 DUP5 ADD MSTORE PUSH1 0x8 SHR AND ISZERO ISZERO PUSH2 0x160 DUP3 ADD MSTORE DUP2 MSTORE ADD SWAP7 ADD SWAP3 ADD SWAP2 SWAP5 PUSH3 0xB85 JUMP JUMPDEST POP CALLVALUE PUSH3 0x181 JUMPI PUSH1 0x20 CALLDATASIZE PUSH1 0x3 NOT ADD SLT PUSH3 0x181 JUMPI PUSH1 0x20 SWAP1 PUSH1 0x1 PUSH1 0x1 PUSH1 0xA0 SHL SUB SWAP1 PUSH1 0x40 SWAP1 DUP3 PUSH3 0xCB9 PUSH3 0x251C JUMP JUMPDEST AND DUP2 MSTORE PUSH1 0x7 DUP5 MSTORE KECCAK256 SLOAD AND PUSH1 0x40 MLOAD SWAP1 DUP2 MSTORE RETURN JUMPDEST POP CALLVALUE PUSH3 0x181 JUMPI DUP1 PUSH1 0x3 NOT CALLDATASIZE ADD SLT PUSH3 0x181 JUMPI PUSH1 0x20 PUSH1 0x40 MLOAD PUSH1 0x5 DUP2 MSTORE RETURN JUMPDEST POP CALLVALUE PUSH3 0x181 JUMPI DUP1 PUSH1 0x3 NOT CALLDATASIZE ADD SLT PUSH3 0x181 JUMPI PUSH3 0xD07 CALLER PUSH3 0x3677 JUMP JUMPDEST ISZERO PUSH3 0xE6F JUMPI CALLER DUP2 MSTORE PUSH1 0x40 PUSH1 0x20 SWAP2 PUSH1 0x7 DUP4 MSTORE KECCAK256 PUSH1 0x40 MLOAD PUSH3 0xD28 DUP2 PUSH3 0x25BC JUMP JUMPDEST DUP2 SLOAD PUSH1 0x1 PUSH1 0x1 PUSH1 0xA0 SHL SUB SWAP1 DUP2 AND DUP3 MSTORE PUSH1 0x1 SWAP3 DUP4 ADD DUP1 SLOAD SWAP2 SWAP4 SWAP2 SWAP1 PUSH3 0xD4D DUP3 PUSH3 0x2A14 JUMP JUMPDEST SWAP5 PUSH3 0xD5D PUSH1 0x40 MLOAD SWAP7 DUP8 PUSH3 0x25F7 JUMP JUMPDEST DUP3 DUP7 MSTORE PUSH1 0x0 SWAP2 DUP3 MSTORE DUP7 DUP3 KECCAK256 SWAP1 DUP8 DUP8 ADD JUMPDEST DUP5 DUP5 LT PUSH3 0xD8B JUMPI DUP7 DUP10 ADD DUP9 SWAP1 MSTORE PUSH1 0x40 MLOAD DUP1 PUSH3 0xB9D DUP11 DUP3 PUSH3 0x2824 JUMP JUMPDEST PUSH1 0x14 DUP10 DUP8 SWAP3 PUSH1 0x40 MLOAD PUSH3 0xD9E DUP2 PUSH3 0x25D9 JUMP JUMPDEST DUP6 DUP8 SLOAD AND DUP2 MSTORE DUP6 DUP6 DUP9 ADD SLOAD AND DUP4 DUP3 ADD MSTORE DUP6 PUSH1 0x2 DUP9 ADD SLOAD AND PUSH1 0x40 DUP3 ADD MSTORE PUSH3 0xDC8 PUSH1 0x3 DUP9 ADD PUSH3 0x26CB JUMP JUMPDEST PUSH1 0x60 DUP3 ADD MSTORE PUSH3 0xDDB PUSH1 0xD DUP9 ADD PUSH3 0x261A JUMP JUMPDEST PUSH1 0x80 DUP3 ADD MSTORE PUSH3 0xDEE PUSH1 0xE DUP9 ADD PUSH3 0x261A JUMP JUMPDEST PUSH1 0xA0 DUP3 ADD MSTORE PUSH3 0xE01 PUSH1 0xF DUP9 ADD PUSH3 0x261A JUMP JUMPDEST PUSH1 0xC0 DUP3 ADD MSTORE PUSH3 0xE14 PUSH1 0x10 DUP9 ADD PUSH3 0x261A JUMP JUMPDEST PUSH1 0xE0 DUP3 ADD MSTORE PUSH3 0xE27 PUSH1 0x11 DUP9 ADD PUSH3 0x261A JUMP JUMPDEST PUSH2 0x100 DUP3 ADD MSTORE PUSH3 0xE3B PUSH1 0x12 DUP9 ADD PUSH3 0x261A JUMP JUMPDEST PUSH2 0x120 DUP3 ADD MSTORE PUSH1 0x13 DUP8 ADD SLOAD PUSH1 0xFF SWAP1 DUP2 DUP2 AND ISZERO ISZERO PUSH2 0x140 DUP5 ADD MSTORE PUSH1 0x8 SHR AND ISZERO ISZERO PUSH2 0x160 DUP3 ADD MSTORE DUP2 MSTORE ADD SWAP4 ADD SWAP4 ADD SWAP3 SWAP2 PUSH3 0xD6D JUMP JUMPDEST PUSH1 0x40 MLOAD PUSH3 0x461BCD PUSH1 0xE5 SHL DUP2 MSTORE PUSH1 0x20 PUSH1 0x4 DUP3 ADD MSTORE PUSH1 0x1C PUSH1 0x24 DUP3 ADD MSTORE PUSH32 0x557365722050726F66696C6520646F7365206E6F742065786973742E00000000 PUSH1 0x44 DUP3 ADD MSTORE PUSH1 0x64 SWAP1 REVERT JUMPDEST POP CALLVALUE PUSH3 0x181 JUMPI DUP1 PUSH1 0x3 NOT CALLDATASIZE ADD SLT PUSH3 0x181 JUMPI PUSH1 0x20 PUSH1 0x40 MLOAD PUSH10 0x152D02C7E14AF6800000 DUP2 MSTORE RETURN JUMPDEST POP CALLVALUE PUSH3 0x181 JUMPI PUSH1 0x20 CALLDATASIZE PUSH1 0x3 NOT ADD SLT PUSH3 0x181 JUMPI PUSH1 0x20 PUSH1 0x4 CALLDATALOAD DUP1 PUSH1 0x5 SSTORE PUSH1 0x40 MLOAD SWAP1 DUP2 MSTORE RETURN JUMPDEST POP CALLVALUE PUSH3 0x181 JUMPI PUSH1 0x20 CALLDATASIZE PUSH1 0x3 NOT ADD SLT PUSH3 0x181 JUMPI PUSH1 0x1 PUSH1 0x1 PUSH1 0xA0 SHL SUB SWAP1 PUSH1 0x40 SWAP1 DUP3 PUSH3 0xF2B PUSH3 0x251C JUMP JUMPDEST AND DUP2 MSTORE PUSH1 0x9 PUSH1 0x20 MSTORE KECCAK256 SWAP1 PUSH3 0xB9D DUP2 DUP4 SLOAD AND SWAP3 DUP3 PUSH1 0x1 DUP3 ADD SLOAD AND SWAP3 PUSH1 0x2 DUP3 ADD SLOAD AND SWAP4 PUSH3 0xF5B PUSH1 0x3 DUP4 ADD PUSH3 0x26CB JUMP JUMPDEST SWAP2 PUSH3 0xF6A PUSH1 0xD DUP3 ADD PUSH3 0x261A JUMP JUMPDEST PUSH3 0xF78 PUSH1 0xE DUP4 ADD PUSH3 0x261A JUMP JUMPDEST PUSH3 0xF86 PUSH1 0xF DUP5 ADD PUSH3 0x261A JUMP JUMPDEST PUSH3 0xF94 PUSH1 0x10 DUP6 ADD PUSH3 0x261A JUMP JUMPDEST SWAP2 PUSH3 0xFA3 PUSH1 0x11 DUP7 ADD PUSH3 0x261A JUMP JUMPDEST SWAP4 PUSH1 0x13 PUSH3 0xFB4 PUSH1 0x12 DUP9 ADD PUSH3 0x261A JUMP JUMPDEST SWAP7 ADD SLOAD SWAP8 PUSH1 0x40 MLOAD SWAP12 DUP13 SWAP12 PUSH1 0xFF DUP1 DUP13 PUSH1 0x8 SHR AND SWAP12 AND SWAP10 DUP14 PUSH3 0x275B JUMP JUMPDEST POP CALLVALUE PUSH3 0x181 JUMPI PUSH1 0x60 CALLDATASIZE PUSH1 0x3 NOT ADD SLT PUSH3 0x181 JUMPI PUSH1 0x20 SWAP1 PUSH1 0x1 PUSH3 0x1015 PUSH3 0xFF7 PUSH3 0x251C JUMP JUMPDEST PUSH3 0x1001 PUSH3 0x2533 JUMP JUMPDEST PUSH3 0x100B PUSH3 0x3588 JUMP JUMPDEST PUSH1 0x44 CALLDATALOAD SWAP2 PUSH3 0x35C6 JUMP JUMPDEST SWAP2 SSTORE PUSH1 0x40 MLOAD SWAP1 ISZERO ISZERO DUP2 MSTORE RETURN JUMPDEST POP PUSH1 0x60 CALLDATASIZE PUSH1 0x3 NOT ADD SLT PUSH3 0x181 JUMPI PUSH3 0x1039 PUSH3 0x251C JUMP JUMPDEST SWAP1 PUSH3 0x1044 PUSH3 0x2533 JUMP JUMPDEST SWAP1 PUSH3 0x104F PUSH3 0x254A JUMP JUMPDEST SWAP2 PUSH3 0x1066 PUSH1 0x1 PUSH1 0x1 PUSH1 0xA0 SHL SUB DUP6 AND ISZERO ISZERO PUSH3 0x2A2D JUMP JUMPDEST PUSH1 0x1 PUSH1 0x1 PUSH1 0xA0 SHL SUB AND SWAP2 PUSH3 0x107D DUP4 ISZERO ISZERO PUSH3 0x2A2D JUMP JUMPDEST PUSH1 0x1 PUSH1 0x1 PUSH1 0xA0 SHL SUB AND PUSH3 0x1093 DUP2 ISZERO ISZERO PUSH3 0x2A2D JUMP JUMPDEST PUSH1 0x2 SLOAD PUSH1 0x3 SLOAD PUSH1 0x40 MLOAD PUSH4 0x15AB88C9 PUSH1 0xE3 SHL DUP2 MSTORE PUSH1 0x1 PUSH1 0x1 PUSH1 0xA0 SHL SUB SWAP2 DUP3 AND SWAP6 SWAP3 SWAP1 SWAP2 AND PUSH1 0x20 DUP3 PUSH1 0x4 DUP2 DUP10 GAS STATICCALL SWAP2 DUP3 ISZERO PUSH3 0x147C JUMPI SWAP2 PUSH1 0x20 SWAP2 PUSH3 0x110E SWAP4 DUP8 SWAP3 PUSH3 0x1458 JUMPI JUMPDEST POP PUSH1 0x40 MLOAD PUSH4 0xE6A43905 PUSH1 0xE0 SHL DUP2 MSTORE PUSH1 0x1 PUSH1 0x1 PUSH1 0xA0 SHL SUB DUP1 DUP12 AND PUSH1 0x4 DUP4 ADD MSTORE SWAP1 SWAP3 AND PUSH1 0x24 DUP4 ADD MSTORE SWAP1 SWAP3 DUP4 SWAP2 SWAP1 DUP3 SWAP1 DUP2 SWAP1 PUSH1 0x44 DUP3 ADD SWAP1 JUMP JUMPDEST SUB SWAP2 GAS STATICCALL SWAP1 DUP2 ISZERO PUSH3 0x13E1 JUMPI PUSH1 0x4 SWAP4 SWAP3 SWAP2 PUSH1 0x60 SWAP2 DUP7 SWAP2 PUSH3 0x1434 JUMPI JUMPDEST POP PUSH1 0x40 MLOAD PUSH4 0x240BC6B PUSH1 0xE2 SHL DUP2 MSTORE SWAP5 DUP6 SWAP2 DUP3 SWAP1 PUSH1 0x1 PUSH1 0x1 PUSH1 0xA0 SHL SUB AND GAS STATICCALL SWAP2 DUP3 ISZERO PUSH3 0x13E1 JUMPI DUP5 SWAP2 DUP6 SWAP5 DUP7 SWAP5 PUSH3 0x13EC JUMPI JUMPDEST POP PUSH1 0x40 DUP1 MLOAD PUSH4 0x57F8D901 PUSH1 0xE0 SHL DUP2 MSTORE PUSH1 0x1 PUSH1 0x1 PUSH1 0xA0 SHL SUB DUP11 AND PUSH1 0x4 DUP3 ADD MSTORE PUSH1 0x24 DUP2 ADD SWAP3 SWAP1 SWAP3 MSTORE PUSH1 0x44 DUP3 ADD SWAP3 SWAP1 SWAP3 MSTORE SWAP6 DUP7 SWAP1 PUSH1 0x64 SWAP1 DUP3 SWAP1 CALLVALUE SWAP1 GAS CALL SWAP1 DUP2 ISZERO PUSH3 0x13E1 JUMPI DUP5 SWAP6 DUP6 SWAP3 PUSH3 0x13AA JUMPI JUMPDEST POP PUSH3 0x11C6 DUP7 PUSH3 0x11BF PUSH3 0x11CD SWAP5 DUP3 SWAP5 PUSH3 0x2E68 JUMP JUMPDEST SWAP6 PUSH3 0x2E44 JUMP JUMPDEST SWAP3 PUSH3 0x2E44 JUMP JUMPDEST SWAP1 DUP2 DUP1 PUSH1 0x1 SHL DIV PUSH1 0x2 EQ DUP3 ISZERO OR ISZERO PUSH3 0x1396 JUMPI DUP1 DUP1 PUSH1 0x1 SHL DIV PUSH1 0x2 EQ DUP2 ISZERO OR ISZERO PUSH3 0x1396 JUMPI PUSH1 0x1 DUP1 PUSH1 0xA0 SHL SUB DUP7 AND DUP5 MSTORE PUSH1 0x9 PUSH1 0x20 MSTORE PUSH3 0x1252 PUSH3 0x1230 DUP4 PUSH3 0x1229 DUP7 PUSH3 0x1223 DUP4 PUSH1 0x6 PUSH1 0x40 DUP13 KECCAK256 ADD SLOAD PUSH3 0x2E76 JUMP JUMPDEST PUSH3 0x2E8A JUMP JUMPDEST SWAP6 PUSH3 0x2E8A JUMP JUMPDEST PUSH1 0x1 PUSH1 0x1 PUSH1 0xA0 SHL SUB DUP9 AND DUP7 MSTORE PUSH1 0x9 PUSH1 0x20 MSTORE PUSH1 0x40 DUP7 KECCAK256 PUSH1 0xB ADD SLOAD SWAP1 SWAP7 SWAP1 PUSH3 0x2E44 JUMP JUMPDEST SWAP3 PUSH1 0x1 DUP1 PUSH1 0xA0 SHL SUB DUP8 AND DUP6 MSTORE PUSH1 0x9 PUSH1 0x20 MSTORE PUSH3 0x12A4 PUSH3 0x129E PUSH3 0x127E PUSH1 0x7 PUSH1 0x40 DUP10 KECCAK256 ADD SLOAD DUP10 PUSH3 0x2E68 JUMP JUMPDEST PUSH1 0x1 PUSH1 0x1 PUSH1 0xA0 SHL SUB DUP11 AND DUP9 MSTORE PUSH1 0x9 PUSH1 0x20 MSTORE PUSH1 0x40 DUP9 KECCAK256 PUSH1 0x7 ADD SLOAD SWAP1 PUSH3 0x2EAB JUMP JUMPDEST PUSH3 0x2EC8 JUMP JUMPDEST SWAP5 PUSH1 0x1 DUP1 PUSH1 0xA0 SHL SUB DUP9 AND DUP2 MSTORE PUSH1 0x9 PUSH1 0x20 MSTORE DUP6 PUSH1 0xC PUSH1 0x40 DUP4 KECCAK256 DUP10 PUSH1 0x7 DUP3 ADD SSTORE DUP5 PUSH1 0x8 DUP3 ADD SSTORE DUP6 PUSH1 0x1 SHL PUSH1 0x9 DUP3 ADD SSTORE DUP7 PUSH1 0x1 SHL PUSH1 0xA DUP3 ADD SSTORE DUP8 PUSH1 0xB DUP3 ADD SSTORE ADD SSTORE JUMPDEST PUSH1 0xB SLOAD DUP2 LT ISZERO PUSH3 0x138B JUMPI DUP1 PUSH3 0x12FC PUSH1 0x1 SWAP3 PUSH3 0x2DEC JUMP JUMPDEST POP SLOAD PUSH1 0xA0 DUP4 SWAP1 SHL DUP4 SWAP1 SUB DUP11 DUP2 AND SWAP2 AND EQ PUSH3 0x1319 JUMPI JUMPDEST ADD PUSH3 0x12E3 JUMP JUMPDEST DUP8 PUSH1 0x4 PUSH3 0x1327 DUP4 PUSH3 0x2DEC JUMP JUMPDEST POP ADD SSTORE DUP3 PUSH1 0x5 PUSH3 0x1338 DUP4 PUSH3 0x2DEC JUMP JUMPDEST POP ADD SSTORE PUSH3 0x1346 DUP2 PUSH3 0x2DEC JUMP JUMPDEST POP PUSH1 0x6 DUP6 DUP5 SHL SWAP2 ADD SSTORE PUSH3 0x135A DUP2 PUSH3 0x2DEC JUMP JUMPDEST POP PUSH1 0x7 DUP7 DUP5 SHL SWAP2 ADD SSTORE DUP6 PUSH1 0x8 PUSH3 0x1371 DUP4 PUSH3 0x2DEC JUMP JUMPDEST POP ADD SSTORE DUP7 PUSH1 0x9 PUSH3 0x1382 DUP4 PUSH3 0x2DEC JUMP JUMPDEST POP ADD SSTORE PUSH3 0x1312 JUMP JUMPDEST PUSH1 0x20 PUSH1 0x40 MLOAD PUSH1 0x1 DUP2 MSTORE RETURN JUMPDEST PUSH4 0x4E487B71 PUSH1 0xE0 SHL DUP5 MSTORE PUSH1 0x11 PUSH1 0x4 MSTORE PUSH1 0x24 DUP5 REVERT JUMPDEST PUSH3 0x11BF SWAP7 POP PUSH3 0x11CD SWAP3 POP PUSH3 0x13D6 PUSH3 0x11C6 SWAP2 PUSH1 0x40 RETURNDATASIZE PUSH1 0x40 GT PUSH3 0x990 JUMPI PUSH3 0x980 DUP2 DUP4 PUSH3 0x25F7 JUMP JUMPDEST SWAP1 SWAP8 POP SWAP3 POP PUSH3 0x11A8 JUMP JUMPDEST PUSH1 0x40 MLOAD RETURNDATASIZE DUP7 DUP3 RETURNDATACOPY RETURNDATASIZE SWAP1 REVERT JUMPDEST PUSH1 0x40 SWAP3 SWAP6 POP PUSH3 0x141D SWAP2 SWAP5 POP PUSH1 0x64 SWAP4 POP PUSH1 0x60 RETURNDATASIZE PUSH1 0x60 GT PUSH3 0x142C JUMPI JUMPDEST PUSH3 0x1414 DUP2 DUP4 PUSH3 0x25F7 JUMP JUMPDEST DUP2 ADD SWAP1 PUSH3 0x2E28 JUMP JUMPDEST SWAP6 SWAP2 SWAP4 SWAP1 SWAP6 SWAP5 SWAP2 SWAP3 POP PUSH3 0x115C JUMP JUMPDEST POP RETURNDATASIZE PUSH3 0x1408 JUMP JUMPDEST PUSH3 0x1451 SWAP2 POP PUSH1 0x20 RETURNDATASIZE PUSH1 0x20 GT PUSH3 0xA43 JUMPI PUSH3 0xA32 DUP2 DUP4 PUSH3 0x25F7 JUMP JUMPDEST CODESIZE PUSH3 0x112A JUMP JUMPDEST PUSH3 0x1474 SWAP2 SWAP3 POP DUP4 RETURNDATASIZE DUP6 GT PUSH3 0xA43 JUMPI PUSH3 0xA32 DUP2 DUP4 PUSH3 0x25F7 JUMP JUMPDEST SWAP1 CODESIZE PUSH3 0x10D8 JUMP JUMPDEST PUSH1 0x40 MLOAD RETURNDATASIZE DUP8 DUP3 RETURNDATACOPY RETURNDATASIZE SWAP1 REVERT JUMPDEST POP CALLVALUE PUSH3 0x181 JUMPI PUSH1 0x80 CALLDATASIZE PUSH1 0x3 NOT ADD SLT PUSH3 0x181 JUMPI PUSH3 0x14A5 PUSH3 0x2533 JUMP JUMPDEST SWAP1 PUSH3 0x14B0 PUSH3 0x254A JUMP JUMPDEST PUSH1 0x64 CALLDATALOAD PUSH1 0x1 PUSH1 0x1 PUSH1 0xA0 SHL SUB DUP2 AND SWAP3 SWAP2 SWAP1 DUP4 SWAP1 SUB PUSH3 0x8A8 JUMPI PUSH3 0x14DE PUSH1 0x1 PUSH1 0x1 PUSH1 0xA0 SHL SUB DUP6 AND ISZERO ISZERO PUSH3 0x2A2D JUMP JUMPDEST PUSH1 0x1 PUSH1 0x1 PUSH1 0xA0 SHL SUB AND SWAP2 PUSH3 0x14F5 DUP4 ISZERO ISZERO PUSH3 0x2A2D JUMP JUMPDEST PUSH3 0x1502 DUP2 ISZERO ISZERO PUSH3 0x2A2D JUMP JUMPDEST PUSH1 0x2 SLOAD PUSH1 0x3 SLOAD PUSH1 0x40 MLOAD PUSH4 0x15AB88C9 PUSH1 0xE3 SHL DUP2 MSTORE PUSH1 0x1 PUSH1 0x1 PUSH1 0xA0 SHL SUB SWAP2 DUP3 AND SWAP3 SWAP1 SWAP2 AND PUSH1 0x20 DUP3 PUSH1 0x4 DUP2 DUP7 GAS STATICCALL SWAP2 DUP3 ISZERO PUSH3 0x147C JUMPI SWAP2 PUSH1 0x20 SWAP2 PUSH3 0x157B SWAP4 DUP8 SWAP3 PUSH3 0x1458 JUMPI POP PUSH1 0x40 MLOAD PUSH4 0xE6A43905 PUSH1 0xE0 SHL DUP2 MSTORE PUSH1 0x1 PUSH1 0x1 PUSH1 0xA0 SHL SUB DUP1 DUP12 AND PUSH1 0x4 DUP4 ADD MSTORE SWAP1 SWAP3 AND PUSH1 0x24 DUP4 ADD MSTORE SWAP1 SWAP3 DUP4 SWAP2 SWAP1 DUP3 SWAP1 DUP2 SWAP1 PUSH1 0x44 DUP3 ADD SWAP1 JUMP JUMPDEST SUB SWAP2 GAS STATICCALL SWAP1 DUP2 ISZERO PUSH3 0x13E1 JUMPI PUSH1 0x4 SWAP4 SWAP3 SWAP2 PUSH1 0x60 SWAP2 DUP7 SWAP2 PUSH3 0x1810 JUMPI JUMPDEST POP PUSH1 0x40 MLOAD PUSH4 0x240BC6B PUSH1 0xE2 SHL DUP2 MSTORE SWAP5 DUP6 SWAP2 DUP3 SWAP1 PUSH1 0x1 PUSH1 0x1 PUSH1 0xA0 SHL SUB AND GAS STATICCALL SWAP2 DUP3 ISZERO PUSH3 0x13E1 JUMPI DUP5 SWAP6 DUP6 SWAP5 DUP7 SWAP5 PUSH3 0x17DA JUMPI JUMPDEST POP SWAP1 PUSH1 0x84 PUSH1 0x40 SWAP3 DUP8 DUP5 MLOAD SWAP6 DUP7 SWAP5 DUP6 SWAP4 PUSH4 0x28958F37 PUSH1 0xE1 SHL DUP6 MSTORE PUSH1 0x4 CALLDATALOAD PUSH1 0x4 DUP7 ADD MSTORE DUP14 PUSH1 0x1 DUP1 PUSH1 0xA0 SHL SUB AND PUSH1 0x24 DUP7 ADD MSTORE PUSH1 0x44 DUP6 ADD MSTORE PUSH1 0x64 DUP5 ADD MSTORE GAS CALL SWAP5 DUP6 ISZERO PUSH3 0x13E1 JUMPI DUP5 SWAP2 DUP6 SWAP7 PUSH3 0x17A4 JUMPI JUMPDEST POP PUSH3 0x1634 DUP7 PUSH3 0x162D PUSH3 0x163B SWAP5 DUP3 SWAP5 PUSH3 0x2E44 JUMP JUMPDEST SWAP6 PUSH3 0x2E68 JUMP JUMPDEST SWAP3 PUSH3 0x2E68 JUMP JUMPDEST SWAP1 DUP2 DUP1 PUSH1 0x1 SHL DIV PUSH1 0x2 EQ DUP3 ISZERO OR ISZERO PUSH3 0x1396 JUMPI DUP1 DUP1 PUSH1 0x1 SHL DIV PUSH1 0x2 EQ DUP2 ISZERO OR ISZERO PUSH3 0x1396 JUMPI PUSH1 0x1 DUP1 PUSH1 0xA0 SHL SUB DUP7 AND DUP5 MSTORE PUSH1 0x9 PUSH1 0x20 MSTORE PUSH3 0x1691 PUSH3 0x1230 DUP4 PUSH3 0x1229 DUP7 PUSH3 0x1223 DUP4 PUSH1 0x6 PUSH1 0x40 DUP13 KECCAK256 ADD SLOAD PUSH3 0x2E76 JUMP JUMPDEST SWAP3 PUSH1 0x1 DUP1 PUSH1 0xA0 SHL SUB DUP8 AND DUP6 MSTORE PUSH1 0x9 PUSH1 0x20 MSTORE PUSH3 0x16BD PUSH3 0x129E PUSH3 0x127E PUSH1 0x7 PUSH1 0x40 DUP10 KECCAK256 ADD SLOAD DUP10 PUSH3 0x2E68 JUMP JUMPDEST SWAP5 PUSH1 0x1 DUP1 PUSH1 0xA0 SHL SUB DUP9 AND DUP2 MSTORE PUSH1 0x9 PUSH1 0x20 MSTORE DUP6 PUSH1 0xC PUSH1 0x40 DUP4 KECCAK256 DUP10 PUSH1 0x7 DUP3 ADD SSTORE DUP5 PUSH1 0x8 DUP3 ADD SSTORE DUP6 PUSH1 0x1 SHL PUSH1 0x9 DUP3 ADD SSTORE DUP7 PUSH1 0x1 SHL PUSH1 0xA DUP3 ADD SSTORE DUP8 PUSH1 0xB DUP3 ADD SSTORE ADD SSTORE JUMPDEST PUSH1 0xB SLOAD DUP2 LT ISZERO PUSH3 0x138B JUMPI DUP1 PUSH3 0x1715 PUSH1 0x1 SWAP3 PUSH3 0x2DEC JUMP JUMPDEST POP SLOAD PUSH1 0xA0 DUP4 SWAP1 SHL DUP4 SWAP1 SUB DUP11 DUP2 AND SWAP2 AND EQ PUSH3 0x1732 JUMPI JUMPDEST ADD PUSH3 0x16FC JUMP JUMPDEST DUP8 PUSH1 0x4 PUSH3 0x1740 DUP4 PUSH3 0x2DEC JUMP JUMPDEST POP ADD SSTORE DUP3 PUSH1 0x5 PUSH3 0x1751 DUP4 PUSH3 0x2DEC JUMP JUMPDEST POP ADD SSTORE PUSH3 0x175F DUP2 PUSH3 0x2DEC JUMP JUMPDEST POP PUSH1 0x6 DUP6 DUP5 SHL SWAP2 ADD SSTORE PUSH3 0x1773 DUP2 PUSH3 0x2DEC JUMP JUMPDEST POP PUSH1 0x7 DUP7 DUP5 SHL SWAP2 ADD SSTORE DUP6 PUSH1 0x8 PUSH3 0x178A DUP4 PUSH3 0x2DEC JUMP JUMPDEST POP ADD SSTORE DUP7 PUSH1 0x9 PUSH3 0x179B DUP4 PUSH3 0x2DEC JUMP JUMPDEST POP ADD SSTORE PUSH3 0x172B JUMP JUMPDEST PUSH3 0x162D SWAP7 POP PUSH3 0x163B SWAP3 POP PUSH3 0x17D0 PUSH3 0x1634 SWAP2 PUSH1 0x40 RETURNDATASIZE PUSH1 0x40 GT PUSH3 0x990 JUMPI PUSH3 0x980 DUP2 DUP4 PUSH3 0x25F7 JUMP JUMPDEST SWAP8 POP SWAP3 POP PUSH3 0x1616 JUMP JUMPDEST PUSH1 0x84 SWAP8 POP PUSH1 0x40 SWAP3 SWAP6 POP PUSH3 0x1801 SWAP2 SWAP5 POP PUSH1 0x60 RETURNDATASIZE PUSH1 0x60 GT PUSH3 0x142C JUMPI PUSH3 0x1414 DUP2 DUP4 PUSH3 0x25F7 JUMP JUMPDEST SWAP6 SWAP2 SWAP8 SWAP1 SWAP6 SWAP5 SWAP2 SWAP3 POP PUSH3 0x15C9 JUMP JUMPDEST PUSH3 0x182D SWAP2 POP PUSH1 0x20 RETURNDATASIZE PUSH1 0x20 GT PUSH3 0xA43 JUMPI PUSH3 0xA32 DUP2 DUP4 PUSH3 0x25F7 JUMP JUMPDEST CODESIZE PUSH3 0x1597 JUMP JUMPDEST POP CALLVALUE PUSH3 0x181 JUMPI PUSH1 0x20 CALLDATASIZE PUSH1 0x3 NOT ADD SLT PUSH3 0x181 JUMPI PUSH1 0x4 CALLDATALOAD PUSH1 0xA SLOAD DUP2 LT ISZERO PUSH3 0x1A3D JUMPI PUSH1 0x14 SWAP1 PUSH1 0xA PUSH1 0x0 MSTORE MUL PUSH1 0x1 DUP1 PUSH1 0xA0 SHL SUB PUSH3 0xB9D DUP2 DUP4 PUSH32 0xC65A7BB8D6351C1CF70C95A316CC6A92839C986682D98BC35F958F4883F9D2A8 ADD SLOAD AND SWAP3 DUP3 PUSH32 0xC65A7BB8D6351C1CF70C95A316CC6A92839C986682D98BC35F958F4883F9D2A9 DUP3 ADD SLOAD AND SWAP3 PUSH32 0xC65A7BB8D6351C1CF70C95A316CC6A92839C986682D98BC35F958F4883F9D2AA DUP3 ADD SLOAD AND SWAP4 PUSH3 0x190B PUSH32 0xC65A7BB8D6351C1CF70C95A316CC6A92839C986682D98BC35F958F4883F9D2AB DUP4 ADD PUSH3 0x26CB JUMP JUMPDEST SWAP2 PUSH3 0x1939 PUSH32 0xC65A7BB8D6351C1CF70C95A316CC6A92839C986682D98BC35F958F4883F9D2B5 DUP3 ADD PUSH3 0x261A JUMP JUMPDEST PUSH3 0x1966 PUSH32 0xC65A7BB8D6351C1CF70C95A316CC6A92839C986682D98BC35F958F4883F9D2B6 DUP4 ADD PUSH3 0x261A JUMP JUMPDEST PUSH3 0x1993 PUSH32 0xC65A7BB8D6351C1CF70C95A316CC6A92839C986682D98BC35F958F4883F9D2B7 DUP5 ADD PUSH3 0x261A JUMP JUMPDEST PUSH3 0x19C0 PUSH32 0xC65A7BB8D6351C1CF70C95A316CC6A92839C986682D98BC35F958F4883F9D2B8 DUP6 ADD PUSH3 0x261A JUMP JUMPDEST SWAP2 PUSH3 0x19EE PUSH32 0xC65A7BB8D6351C1CF70C95A316CC6A92839C986682D98BC35F958F4883F9D2B9 DUP7 ADD PUSH3 0x261A JUMP JUMPDEST SWAP4 PUSH32 0xC65A7BB8D6351C1CF70C95A316CC6A92839C986682D98BC35F958F4883F9D2BB PUSH3 0xFB4 PUSH32 0xC65A7BB8D6351C1CF70C95A316CC6A92839C986682D98BC35F958F4883F9D2BA DUP9 ADD PUSH3 0x261A JUMP JUMPDEST POP DUP1 REVERT JUMPDEST POP CALLVALUE PUSH3 0x181 JUMPI PUSH1 0x20 CALLDATASIZE PUSH1 0x3 NOT ADD SLT PUSH3 0x181 JUMPI PUSH3 0x1A5F PUSH3 0x251C JUMP JUMPDEST SWAP1 PUSH3 0x1A77 PUSH1 0x1 DUP1 PUSH1 0xA0 SHL SUB PUSH1 0x1 SLOAD AND CALLER EQ PUSH3 0x2AAF JUMP JUMPDEST PUSH3 0x1A81 PUSH3 0x3588 JUMP JUMPDEST PUSH3 0x1A97 PUSH1 0x1 PUSH1 0x1 PUSH1 0xA0 SHL SUB DUP4 AND ISZERO ISZERO PUSH3 0x2A2D JUMP JUMPDEST PUSH1 0x3 SLOAD PUSH1 0x40 MLOAD PUSH4 0x15AB88C9 PUSH1 0xE3 SHL DUP2 MSTORE SWAP1 PUSH1 0x20 SWAP1 DUP3 SWAP1 PUSH1 0x4 SWAP1 DUP3 SWAP1 PUSH1 0x1 PUSH1 0x1 PUSH1 0xA0 SHL SUB AND GAS STATICCALL SWAP1 DUP2 ISZERO PUSH3 0x215C JUMPI PUSH3 0x1B10 SWAP2 PUSH1 0x20 SWAP2 DUP5 SWAP2 PUSH3 0x21B9 JUMPI JUMPDEST POP PUSH1 0x2 SLOAD PUSH1 0x40 MLOAD PUSH4 0xE6A43905 PUSH1 0xE0 SHL DUP2 MSTORE PUSH1 0x1 PUSH1 0x1 PUSH1 0xA0 SHL SUB DUP8 DUP2 AND PUSH1 0x4 DUP4 ADD MSTORE SWAP3 DUP4 AND PUSH1 0x24 DUP3 ADD MSTORE SWAP4 DUP5 SWAP3 SWAP1 SWAP2 AND SWAP1 DUP3 SWAP1 DUP2 SWAP1 PUSH1 0x44 DUP3 ADD SWAP1 JUMP JUMPDEST SUB SWAP2 GAS STATICCALL SWAP1 DUP2 ISZERO PUSH3 0x215C JUMPI DUP3 SWAP2 PUSH3 0x2195 JUMPI JUMPDEST POP PUSH1 0x1 PUSH1 0x1 PUSH1 0xA0 SHL SUB DUP4 AND EXTCODESIZE ISZERO PUSH3 0x1A3D JUMPI PUSH1 0x40 MLOAD PUSH4 0x6DA678F PUSH1 0xE5 SHL DUP2 MSTORE PUSH1 0x1 PUSH1 0x1 PUSH1 0xA0 SHL SUB SWAP2 DUP3 AND PUSH1 0x4 DUP3 ADD MSTORE SWAP1 DUP3 SWAP1 DUP3 SWAP1 PUSH1 0x24 SWAP1 DUP3 SWAP1 DUP5 SWAP1 DUP9 AND GAS CALL DUP1 ISZERO PUSH3 0x215C JUMPI PUSH3 0x2167 JUMPI JUMPDEST POP PUSH1 0x1 PUSH1 0x1 PUSH1 0xA0 SHL SUB DUP3 DUP2 AND DUP1 DUP4 MSTORE PUSH1 0x9 PUSH1 0x20 MSTORE PUSH1 0x40 DUP1 DUP5 KECCAK256 PUSH1 0x3 SLOAD DUP3 MLOAD PUSH4 0xE79A4089 PUSH1 0xE0 SHL DUP2 MSTORE PUSH1 0x4 DUP2 ADD SWAP5 SWAP1 SWAP5 MSTORE PUSH1 0x64 PUSH1 0x24 DUP6 ADD DUP2 SWAP1 MSTORE ADDRESS PUSH1 0x44 DUP7 ADD MSTORE SWAP2 SWAP7 SWAP4 SWAP6 SWAP5 DUP7 SWAP3 SWAP2 DUP4 SWAP2 DUP8 SWAP2 AND GAS CALL SWAP3 DUP4 ISZERO PUSH3 0x215C JUMPI DUP3 SWAP1 DUP4 SWAP5 PUSH3 0x2133 JUMPI JUMPDEST POP PUSH1 0x1 DUP1 PUSH1 0xA0 SHL SUB DUP3 AND DUP4 MSTORE PUSH1 0x9 PUSH1 0x20 MSTORE PUSH1 0x40 DUP4 KECCAK256 SWAP5 PUSH1 0x6 DUP7 ADD SLOAD PUSH3 0x1C26 PUSH1 0x5 PUSH1 0x40 MLOAD SWAP9 PUSH3 0x1C00 DUP11 PUSH3 0x259E JUMP JUMPDEST PUSH1 0x1 PUSH1 0x1 PUSH1 0xA0 SHL SUB DUP8 AND DUP11 MSTORE PUSH3 0x1C1A PUSH1 0x4 DUP3 ADD PUSH3 0x261A JUMP JUMPDEST PUSH1 0x20 DUP12 ADD MSTORE ADD PUSH3 0x261A JUMP JUMPDEST PUSH1 0x40 DUP9 ADD MSTORE PUSH1 0x60 DUP8 ADD MSTORE DUP4 PUSH1 0x80 DUP8 ADD MSTORE DUP4 PUSH1 0xA0 DUP8 ADD MSTORE DUP4 PUSH1 0xC0 DUP8 ADD MSTORE DUP4 PUSH1 0xE0 DUP8 ADD MSTORE DUP4 PUSH2 0x100 DUP8 ADD MSTORE DUP4 PUSH2 0x120 DUP8 ADD MSTORE PUSH3 0x1C65 DUP7 PUSH1 0x3 DUP4 ADD PUSH3 0x2B5C JUMP JUMPDEST DUP4 JUMPDEST PUSH1 0xB SLOAD DUP2 LT ISZERO PUSH3 0x1CD7 JUMPI PUSH3 0x1C7D DUP2 PUSH3 0x2DEC JUMP JUMPDEST POP SLOAD PUSH1 0x1 PUSH1 0x1 PUSH1 0xA0 SHL SUB DUP6 DUP2 AND SWAP2 AND EQ PUSH3 0x1C9C JUMPI JUMPDEST PUSH1 0x1 ADD PUSH3 0x1C67 JUMP JUMPDEST PUSH3 0x1CA7 DUP2 PUSH3 0x2DEC JUMP JUMPDEST PUSH3 0x1CC3 JUMPI SWAP1 PUSH3 0x1CBB DUP9 PUSH1 0x1 SWAP4 PUSH3 0x2B5C JUMP JUMPDEST SWAP1 POP PUSH3 0x1C93 JUMP JUMPDEST PUSH4 0x4E487B71 PUSH1 0xE0 SHL DUP7 MSTORE PUSH1 0x4 DUP7 SWAP1 MSTORE PUSH1 0x24 DUP7 REVERT JUMPDEST POP DUP4 SWAP3 DUP6 SWAP1 PUSH3 0x1CF2 PUSH1 0x1 PUSH1 0x1 PUSH1 0xA0 SHL SUB DUP3 AND ISZERO ISZERO PUSH3 0x2A2D JUMP JUMPDEST PUSH1 0x1 PUSH1 0x1 PUSH1 0xA0 SHL SUB DUP2 AND DUP6 MSTORE PUSH1 0x9 PUSH1 0x20 MSTORE PUSH1 0x40 DUP6 KECCAK256 PUSH1 0x13 ADD SLOAD PUSH1 0xFF DUP2 AND SWAP1 DUP2 PUSH3 0x2123 JUMPI JUMPDEST POP ISZERO PUSH3 0x20DE JUMPI PUSH1 0x6 SLOAD PUSH1 0x40 MLOAD PUSH4 0x70A08231 PUSH1 0xE0 SHL DUP1 DUP3 MSTORE ADDRESS PUSH1 0x4 DUP4 ADD MSTORE SWAP4 SWAP2 PUSH1 0x1 PUSH1 0x1 PUSH1 0xA0 SHL SUB SWAP1 DUP2 AND SWAP1 PUSH1 0x20 SWAP1 DUP4 SWAP1 PUSH1 0x24 SWAP1 DUP3 SWAP1 DUP9 AND GAS STATICCALL SWAP1 DUP2 ISZERO PUSH3 0xA4B JUMPI DUP5 SWAP1 DUP10 SWAP3 PUSH3 0x209F JUMPI JUMPDEST PUSH3 0x1D6F SWAP4 POP PUSH3 0x35C6 JUMP JUMPDEST ISZERO PUSH3 0x206A JUMPI PUSH1 0x6 SLOAD PUSH1 0x40 MLOAD PUSH4 0xC45A0155 PUSH1 0xE0 SHL DUP2 MSTORE DUP8 SWAP5 SWAP2 PUSH1 0x1 PUSH1 0x1 PUSH1 0xA0 SHL SUB AND PUSH1 0x20 DUP3 PUSH1 0x4 DUP2 DUP5 GAS STATICCALL SWAP2 DUP3 ISZERO PUSH3 0xA78 JUMPI DUP7 SWAP3 PUSH3 0x2040 JUMPI JUMPDEST POP PUSH1 0x20 PUSH1 0x4 SWAP2 PUSH1 0x40 MLOAD SWAP3 DUP4 DUP1 SWAP3 PUSH4 0x15AB88C9 PUSH1 0xE3 SHL DUP3 MSTORE GAS STATICCALL SWAP1 DUP2 ISZERO PUSH3 0xA78 JUMPI DUP7 SWAP3 PUSH1 0x20 SWAP3 PUSH3 0x1E12 SWAP3 DUP6 SWAP2 PUSH3 0x201E JUMPI JUMPDEST POP PUSH1 0x40 MLOAD PUSH4 0x64E329CB PUSH1 0xE1 SHL DUP2 MSTORE PUSH1 0x1 PUSH1 0x1 PUSH1 0xA0 SHL SUB DUP1 DUP11 AND PUSH1 0x4 DUP4 ADD MSTORE SWAP1 SWAP2 AND PUSH1 0x24 DUP3 ADD MSTORE SWAP4 DUP5 SWAP3 DUP4 SWAP2 SWAP1 DUP3 SWAP1 PUSH1 0x44 DUP3 ADD SWAP1 JUMP JUMPDEST SUB SWAP3 PUSH1 0x1 PUSH1 0x1 PUSH1 0xA0 SHL SUB AND GAS CALL SWAP1 DUP2 ISZERO PUSH3 0x147C JUMPI DUP6 SWAP2 PUSH3 0x1FFA JUMPI JUMPDEST POP PUSH1 0x6 SLOAD PUSH1 0x40 MLOAD SWAP3 DUP4 MSTORE ADDRESS PUSH1 0x4 DUP5 ADD MSTORE SELFBALANCE SWAP3 PUSH1 0x1 PUSH1 0x1 PUSH1 0xA0 SHL SUB SWAP2 DUP3 AND SWAP2 PUSH1 0x20 SWAP1 DUP3 SWAP1 PUSH1 0x24 SWAP1 DUP3 SWAP1 DUP11 AND GAS STATICCALL SWAP1 DUP2 ISZERO PUSH3 0x1FEF JUMPI DUP8 SWAP2 PUSH3 0x1FB1 JUMPI JUMPDEST POP SWAP1 PUSH1 0xC4 PUSH1 0x60 SWAP3 PUSH1 0x40 MLOAD SWAP6 DUP7 SWAP4 DUP5 SWAP3 PUSH4 0xF305D719 PUSH1 0xE0 SHL DUP5 MSTORE PUSH1 0x1 DUP1 PUSH1 0xA0 SHL SUB DUP12 AND PUSH1 0x4 DUP6 ADD MSTORE PUSH1 0x24 DUP5 ADD MSTORE DUP11 PUSH1 0x44 DUP5 ADD MSTORE DUP11 PUSH1 0x64 DUP5 ADD MSTORE ADDRESS PUSH1 0x84 DUP5 ADD MSTORE TIMESTAMP PUSH1 0xA4 DUP5 ADD MSTORE GAS CALL SWAP2 DUP3 ISZERO PUSH3 0x147C JUMPI PUSH1 0x20 SWAP3 PUSH3 0x1F8D JUMPI JUMPDEST POP PUSH1 0x6 SLOAD PUSH1 0x40 MLOAD PUSH4 0x95EA7B3 PUSH1 0xE0 SHL DUP2 MSTORE PUSH1 0x1 PUSH1 0x1 PUSH1 0xA0 SHL SUB SWAP2 DUP3 AND PUSH1 0x4 DUP3 ADD MSTORE PUSH1 0x0 NOT PUSH1 0x24 DUP3 ADD MSTORE SWAP6 DUP7 SWAP3 PUSH1 0x44 SWAP3 DUP5 SWAP3 SWAP2 AND GAS CALL DUP1 ISZERO PUSH3 0xA78 JUMPI PUSH32 0x540BCEC33387745B2CED30977DCFE4A623A245511EB0A133989C27C8BB95B4A9 SWAP5 PUSH1 0x40 SWAP5 PUSH1 0x13 SWAP3 PUSH3 0x1F57 JUMPI JUMPDEST POP ADD DUP1 SLOAD PUSH2 0xFFFF NOT AND PUSH2 0x100 OR SWAP1 SSTORE DUP3 MLOAD SWAP5 DUP6 MSTORE PUSH1 0x20 DUP6 ADD MSTORE PUSH1 0x1 PUSH1 0x1 PUSH1 0xA0 SHL SUB AND SWAP3 LOG2 PUSH1 0x1 DUP2 SSTORE DUP1 RETURN JUMPDEST PUSH3 0x1F7D SWAP1 PUSH1 0x20 RETURNDATASIZE PUSH1 0x20 GT PUSH3 0x1F85 JUMPI JUMPDEST PUSH3 0x1F74 DUP2 DUP4 PUSH3 0x25F7 JUMP JUMPDEST DUP2 ADD SWAP1 PUSH3 0x35AC JUMP JUMPDEST POP DUP9 PUSH3 0x1F2C JUMP JUMPDEST POP RETURNDATASIZE PUSH3 0x1F68 JUMP JUMPDEST PUSH3 0x1FA9 SWAP1 PUSH1 0x60 RETURNDATASIZE PUSH1 0x60 GT PUSH3 0x142C JUMPI PUSH3 0x1414 DUP2 DUP4 PUSH3 0x25F7 JUMP JUMPDEST POP POP PUSH3 0x1EC2 JUMP JUMPDEST SWAP2 SWAP7 POP POP PUSH1 0x20 DUP2 RETURNDATASIZE PUSH1 0x20 GT PUSH3 0x1FE6 JUMPI JUMPDEST DUP2 PUSH3 0x1FD1 PUSH1 0x20 SWAP4 DUP4 PUSH3 0x25F7 JUMP JUMPDEST DUP2 ADD SUB SLT PUSH3 0x8A8 JUMPI MLOAD DUP9 SWAP6 SWAP1 PUSH1 0xC4 PUSH3 0x1E6B JUMP JUMPDEST RETURNDATASIZE SWAP2 POP PUSH3 0x1FC2 JUMP JUMPDEST PUSH1 0x40 MLOAD RETURNDATASIZE DUP10 DUP3 RETURNDATACOPY RETURNDATASIZE SWAP1 REVERT JUMPDEST PUSH3 0x2017 SWAP2 POP PUSH1 0x20 RETURNDATASIZE PUSH1 0x20 GT PUSH3 0xA43 JUMPI PUSH3 0xA32 DUP2 DUP4 PUSH3 0x25F7 JUMP JUMPDEST DUP9 PUSH3 0x1E2F JUMP JUMPDEST PUSH3 0x2039 SWAP2 POP DUP5 RETURNDATASIZE DUP7 GT PUSH3 0xA43 JUMPI PUSH3 0xA32 DUP2 DUP4 PUSH3 0x25F7 JUMP JUMPDEST DUP13 PUSH3 0x1DDD JUMP JUMPDEST PUSH1 0x4 SWAP2 SWAP3 POP PUSH3 0x2061 PUSH1 0x20 SWAP2 DUP3 RETURNDATASIZE DUP5 GT PUSH3 0xA43 JUMPI PUSH3 0xA32 DUP2 DUP4 PUSH3 0x25F7 JUMP JUMPDEST SWAP3 SWAP2 POP PUSH3 0x1DAA JUMP JUMPDEST PUSH1 0x40 MLOAD PUSH3 0x461BCD PUSH1 0xE5 SHL DUP2 MSTORE PUSH1 0x20 PUSH1 0x4 DUP3 ADD MSTORE PUSH1 0xD PUSH1 0x24 DUP3 ADD MSTORE PUSH13 0x2737BA1030B8383937BB32B217 PUSH1 0x99 SHL PUSH1 0x44 DUP3 ADD MSTORE PUSH1 0x64 SWAP1 REVERT JUMPDEST SWAP2 POP POP PUSH1 0x20 DUP3 RETURNDATASIZE PUSH1 0x20 GT PUSH3 0x20D5 JUMPI JUMPDEST DUP2 PUSH3 0x20BE PUSH1 0x20 SWAP4 DUP4 PUSH3 0x25F7 JUMP JUMPDEST DUP2 ADD SUB SLT PUSH3 0x8A8 JUMPI DUP4 PUSH3 0x1D6F SWAP3 MLOAD SWAP2 PUSH3 0x1D63 JUMP JUMPDEST RETURNDATASIZE SWAP2 POP PUSH3 0x20AF JUMP JUMPDEST PUSH1 0x40 MLOAD PUSH3 0x461BCD PUSH1 0xE5 SHL DUP2 MSTORE PUSH1 0x20 PUSH1 0x4 DUP3 ADD MSTORE PUSH1 0x17 PUSH1 0x24 DUP3 ADD MSTORE PUSH32 0x74726164696E6720697320616C7265616479206F70656E000000000000000000 PUSH1 0x44 DUP3 ADD MSTORE PUSH1 0x64 SWAP1 REVERT JUMPDEST PUSH1 0xFF SWAP2 POP PUSH1 0x8 SHR AND ISZERO DUP7 PUSH3 0x1D17 JUMP JUMPDEST SWAP1 POP PUSH3 0x2153 SWAP2 SWAP4 POP PUSH1 0x40 RETURNDATASIZE PUSH1 0x40 GT PUSH3 0x990 JUMPI PUSH3 0x980 DUP2 DUP4 PUSH3 0x25F7 JUMP JUMPDEST SWAP3 SWAP1 CODESIZE PUSH3 0x1BD0 JUMP JUMPDEST PUSH1 0x40 MLOAD RETURNDATASIZE DUP5 DUP3 RETURNDATACOPY RETURNDATASIZE SWAP1 REVERT JUMPDEST PUSH8 0xFFFFFFFFFFFFFFFF DUP2 GT PUSH3 0x2181 JUMPI PUSH1 0x40 MSTORE CODESIZE PUSH3 0x1B70 JUMP JUMPDEST PUSH4 0x4E487B71 PUSH1 0xE0 SHL DUP3 MSTORE PUSH1 0x41 PUSH1 0x4 MSTORE PUSH1 0x24 DUP3 REVERT JUMPDEST PUSH3 0x21B2 SWAP2 POP PUSH1 0x20 RETURNDATASIZE PUSH1 0x20 GT PUSH3 0xA43 JUMPI PUSH3 0xA32 DUP2 DUP4 PUSH3 0x25F7 JUMP JUMPDEST CODESIZE PUSH3 0x1B24 JUMP JUMPDEST PUSH3 0x21D4 SWAP2 POP DUP3 RETURNDATASIZE DUP5 GT PUSH3 0xA43 JUMPI PUSH3 0xA32 DUP2 DUP4 PUSH3 0x25F7 JUMP JUMPDEST CODESIZE PUSH3 0x1AD5 JUMP JUMPDEST POP CALLVALUE PUSH3 0x181 JUMPI DUP1 PUSH1 0x3 NOT CALLDATASIZE ADD SLT PUSH3 0x181 JUMPI PUSH1 0x1 SLOAD DUP2 SWAP1 DUP2 SWAP1 DUP2 SWAP1 SELFBALANCE SWAP1 PUSH1 0x1 PUSH1 0x1 PUSH1 0xA0 SHL SUB AND GAS CALL PUSH3 0x220E PUSH3 0x2A7A JUMP JUMPDEST POP ISZERO PUSH3 0x2220 JUMPI PUSH1 0x20 PUSH1 0x40 MLOAD PUSH1 0x1 DUP2 MSTORE RETURN JUMPDEST PUSH1 0x40 MLOAD PUSH3 0x461BCD PUSH1 0xE5 SHL DUP2 MSTORE PUSH1 0x20 PUSH1 0x4 DUP3 ADD MSTORE PUSH1 0x14 PUSH1 0x24 DUP3 ADD MSTORE PUSH20 0x2A3930B739B332B91022AA24102330B4B632B217 PUSH1 0x61 SHL PUSH1 0x44 DUP3 ADD MSTORE PUSH1 0x64 SWAP1 REVERT JUMPDEST POP CALLVALUE PUSH3 0x181 JUMPI PUSH1 0x20 CALLDATASIZE PUSH1 0x3 NOT ADD SLT PUSH3 0x181 JUMPI PUSH3 0x22F3 PUSH1 0x3 PUSH1 0x40 PUSH3 0xB9D SWAP4 PUSH3 0x2287 PUSH3 0x251C JUMP JUMPDEST DUP2 PUSH2 0x120 DUP5 MLOAD PUSH3 0x2298 DUP2 PUSH3 0x259E JUMP JUMPDEST DUP3 DUP2 MSTORE PUSH1 0x60 PUSH1 0x20 DUP3 ADD MSTORE PUSH1 0x60 DUP7 DUP3 ADD MSTORE DUP3 PUSH1 0x60 DUP3 ADD MSTORE DUP3 PUSH1 0x80 DUP3 ADD MSTORE DUP3 PUSH1 0xA0 DUP3 ADD MSTORE DUP3 PUSH1 0xC0 DUP3 ADD MSTORE DUP3 PUSH1 0xE0 DUP3 ADD MSTORE DUP3 PUSH2 0x100 DUP3 ADD MSTORE ADD MSTORE PUSH1 0x1 DUP1 PUSH1 0xA0 SHL SUB AND PUSH3 0x22E4 DUP2 ISZERO ISZERO PUSH3 0x2A2D JUMP JUMPDEST DUP2 MSTORE PUSH1 0x9 PUSH1 0x20 MSTORE KECCAK256 ADD PUSH3 0x26CB JUMP JUMPDEST PUSH1 0x40 MLOAD SWAP2 DUP3 SWAP2 PUSH1 0x20 DUP4 MSTORE PUSH1 0x20 DUP4 ADD SWAP1 PUSH3 0x2491 JUMP JUMPDEST POP CALLVALUE PUSH3 0x181 JUMPI DUP1 PUSH1 0x3 NOT CALLDATASIZE ADD SLT PUSH3 0x181 JUMPI PUSH1 0x1 SLOAD PUSH1 0x40 MLOAD PUSH1 0x1 PUSH1 0x1 PUSH1 0xA0 SHL SUB SWAP1 SWAP2 AND DUP2 MSTORE PUSH1 0x20 SWAP1 RETURN JUMPDEST POP CALLVALUE PUSH3 0x181 JUMPI DUP1 PUSH1 0x3 NOT CALLDATASIZE ADD SLT PUSH3 0x181 JUMPI PUSH1 0xB SLOAD PUSH3 0x2354 DUP2 PUSH3 0x2A14 JUMP JUMPDEST SWAP1 PUSH3 0x2364 PUSH1 0x40 MLOAD SWAP3 DUP4 PUSH3 0x25F7 JUMP JUMPDEST DUP1 DUP3 MSTORE PUSH1 0xB DUP4 MSTORE PUSH1 0x20 SWAP3 DUP4 DUP4 ADD SWAP2 DUP2 PUSH32 0x175B7A638427703F0DBE7BB9BBF987A2551717B34E79F33B5B1008D1FA01DB9 DUP5 JUMPDEST DUP4 DUP4 LT PUSH3 0x2400 JUMPI POP POP POP POP PUSH1 0x40 MLOAD SWAP3 DUP5 DUP5 ADD SWAP1 DUP6 DUP6 MSTORE MLOAD DUP1 SWAP2 MSTORE PUSH1 0x40 DUP5 ADD SWAP5 PUSH1 0x40 DUP3 PUSH1 0x5 SHL DUP7 ADD ADD SWAP4 SWAP3 SWAP6 JUMPDEST DUP3 DUP8 LT PUSH3 0x23D1 JUMPI DUP6 DUP6 SUB DUP7 RETURN JUMPDEST SWAP1 SWAP2 SWAP3 SWAP4 DUP3 DUP1 PUSH3 0x23EF PUSH1 0x1 SWAP4 PUSH1 0x3F NOT DUP11 DUP3 SUB ADD DUP7 MSTORE DUP9 MLOAD PUSH3 0x2491 JUMP JUMPDEST SWAP7 ADD SWAP3 ADD SWAP7 ADD SWAP6 SWAP3 SWAP2 SWAP1 SWAP3 PUSH3 0x23C3 JUMP JUMPDEST PUSH1 0xA DUP9 PUSH1 0x1 SWAP3 PUSH3 0x2415 DUP6 SWAP12 SWAP11 SWAP9 SWAP12 PUSH3 0x26CB JUMP JUMPDEST DUP2 MSTORE ADD SWAP3 ADD SWAP3 ADD SWAP2 SWAP1 SWAP7 SWAP4 SWAP6 SWAP7 PUSH3 0x2396 JUMP JUMPDEST SWAP1 POP CALLVALUE PUSH3 0x1A3D JUMPI DUP2 PUSH1 0x3 NOT CALLDATASIZE ADD SLT PUSH3 0x1A3D JUMPI PUSH1 0x4 SLOAD PUSH1 0x1 PUSH1 0x1 PUSH1 0xA0 SHL SUB AND DUP2 MSTORE PUSH1 0x20 SWAP1 RETURN JUMPDEST SWAP2 SWAP1 DUP3 MLOAD SWAP3 DUP4 DUP3 MSTORE PUSH1 0x0 JUMPDEST DUP5 DUP2 LT PUSH3 0x247C JUMPI POP POP DUP3 PUSH1 0x0 PUSH1 0x20 DUP1 SWAP5 SWAP6 DUP5 ADD ADD MSTORE PUSH1 0x1F DUP1 NOT SWAP2 ADD AND ADD ADD SWAP1 JUMP JUMPDEST PUSH1 0x20 DUP2 DUP4 ADD DUP2 ADD MLOAD DUP5 DUP4 ADD DUP3 ADD MSTORE ADD PUSH3 0x245A JUMP JUMPDEST SWAP1 PUSH3 0x24D1 PUSH3 0x24BE PUSH2 0x140 PUSH1 0x1 DUP1 PUSH1 0xA0 SHL SUB DUP6 MLOAD AND DUP5 MSTORE PUSH1 0x20 DUP6 ADD MLOAD SWAP1 DUP1 PUSH1 0x20 DUP7 ADD MSTORE DUP5 ADD SWAP1 PUSH3 0x244F JUMP JUMPDEST PUSH1 0x40 DUP5 ADD MLOAD DUP4 DUP3 SUB PUSH1 0x40 DUP6 ADD MSTORE PUSH3 0x244F JUMP JUMPDEST SWAP2 PUSH1 0x60 DUP2 ADD MLOAD PUSH1 0x60 DUP4 ADD MSTORE PUSH1 0x80 DUP2 ADD MLOAD PUSH1 0x80 DUP4 ADD MSTORE PUSH1 0xA0 DUP2 ADD MLOAD PUSH1 0xA0 DUP4 ADD MSTORE PUSH1 0xC0 DUP2 ADD MLOAD PUSH1 0xC0 DUP4 ADD MSTORE PUSH1 0xE0 DUP2 ADD MLOAD PUSH1 0xE0 DUP4 ADD MSTORE PUSH2 0x100 DUP1 DUP3 ADD MLOAD SWAP1 DUP4 ADD MSTORE PUSH2 0x120 DUP1 SWAP2 ADD MLOAD SWAP2 ADD MSTORE SWAP1 JUMP JUMPDEST PUSH1 0x4 CALLDATALOAD SWAP1 PUSH1 0x1 PUSH1 0x1 PUSH1 0xA0 SHL SUB DUP3 AND DUP3 SUB PUSH3 0x8A8 JUMPI JUMP JUMPDEST PUSH1 0x24 CALLDATALOAD SWAP1 PUSH1 0x1 PUSH1 0x1 PUSH1 0xA0 SHL SUB DUP3 AND DUP3 SUB PUSH3 0x8A8 JUMPI JUMP JUMPDEST PUSH1 0x44 CALLDATALOAD SWAP1 PUSH1 0x1 PUSH1 0x1 PUSH1 0xA0 SHL SUB DUP3 AND DUP3 SUB PUSH3 0x8A8 JUMPI JUMP JUMPDEST SWAP1 PUSH1 0x1 DUP3 DUP2 SHR SWAP3 AND DUP1 ISZERO PUSH3 0x2593 JUMPI JUMPDEST PUSH1 0x20 DUP4 LT EQ PUSH3 0x257D JUMPI JUMP JUMPDEST PUSH4 0x4E487B71 PUSH1 0xE0 SHL PUSH1 0x0 MSTORE PUSH1 0x22 PUSH1 0x4 MSTORE PUSH1 0x24 PUSH1 0x0 REVERT JUMPDEST SWAP2 PUSH1 0x7F AND SWAP2 PUSH3 0x2571 JUMP JUMPDEST PUSH2 0x140 DUP2 ADD SWAP1 DUP2 LT PUSH8 0xFFFFFFFFFFFFFFFF DUP3 GT OR PUSH3 0x84D JUMPI PUSH1 0x40 MSTORE JUMP JUMPDEST PUSH1 0x40 DUP2 ADD SWAP1 DUP2 LT PUSH8 0xFFFFFFFFFFFFFFFF DUP3 GT OR PUSH3 0x84D JUMPI PUSH1 0x40 MSTORE JUMP JUMPDEST PUSH2 0x180 DUP2 ADD SWAP1 DUP2 LT PUSH8 0xFFFFFFFFFFFFFFFF DUP3 GT OR PUSH3 0x84D JUMPI PUSH1 0x40 MSTORE JUMP JUMPDEST SWAP1 PUSH1 0x1F DUP1 NOT SWAP2 ADD AND DUP2 ADD SWAP1 DUP2 LT PUSH8 0xFFFFFFFFFFFFFFFF DUP3 GT OR PUSH3 0x84D JUMPI PUSH1 0x40 MSTORE JUMP JUMPDEST SWAP1 PUSH1 0x40 MLOAD SWAP2 DUP3 PUSH1 0x0 DUP3 SLOAD PUSH3 0x262F DUP2 PUSH3 0x2561 JUMP JUMPDEST SWAP1 DUP2 DUP5 MSTORE PUSH1 0x20 SWAP5 PUSH1 0x1 SWAP2 PUSH1 0x1 DUP2 AND SWAP1 DUP2 PUSH1 0x0 EQ PUSH3 0x26A7 JUMPI POP PUSH1 0x1 EQ PUSH3 0x2664 JUMPI JUMPDEST POP POP POP PUSH3 0x2662 SWAP3 POP SUB DUP4 PUSH3 0x25F7 JUMP JUMPDEST JUMP JUMPDEST PUSH1 0x0 SWAP1 DUP2 MSTORE DUP6 DUP2 KECCAK256 SWAP6 SWAP4 POP SWAP2 SWAP1 JUMPDEST DUP2 DUP4 LT PUSH3 0x268E JUMPI POP POP PUSH3 0x2662 SWAP4 POP DUP3 ADD ADD CODESIZE DUP1 DUP1 PUSH3 0x2651 JUMP JUMPDEST DUP6 SLOAD DUP9 DUP5 ADD DUP6 ADD MSTORE SWAP5 DUP6 ADD SWAP5 DUP8 SWAP5 POP SWAP2 DUP4 ADD SWAP2 PUSH3 0x2672 JUMP JUMPDEST SWAP3 POP POP POP PUSH3 0x2662 SWAP5 SWAP3 POP PUSH1 0xFF NOT AND DUP3 DUP5 ADD MSTORE ISZERO ISZERO PUSH1 0x5 SHL DUP3 ADD ADD CODESIZE DUP1 DUP1 PUSH3 0x2651 JUMP JUMPDEST SWAP1 PUSH1 0x40 MLOAD PUSH3 0x26DA DUP2 PUSH3 0x259E JUMP JUMPDEST DUP3 SLOAD PUSH1 0x1 PUSH1 0x1 PUSH1 0xA0 SHL SUB AND DUP2 MSTORE SWAP2 DUP3 SWAP1 PUSH2 0x120 SWAP1 PUSH1 0x9 SWAP1 PUSH3 0x26FF PUSH1 0x1 DUP3 ADD PUSH3 0x261A JUMP JUMPDEST PUSH1 0x20 DUP6 ADD MSTORE PUSH3 0x2712 PUSH1 0x2 DUP3 ADD PUSH3 0x261A JUMP JUMPDEST PUSH1 0x40 DUP6 ADD MSTORE PUSH1 0x3 DUP2 ADD SLOAD PUSH1 0x60 DUP6 ADD MSTORE PUSH1 0x4 DUP2 ADD SLOAD PUSH1 0x80 DUP6 ADD MSTORE PUSH1 0x5 DUP2 ADD SLOAD PUSH1 0xA0 DUP6 ADD MSTORE PUSH1 0x6 DUP2 ADD SLOAD PUSH1 0xC0 DUP6 ADD MSTORE PUSH1 0x7 DUP2 ADD SLOAD PUSH1 0xE0 DUP6 ADD MSTORE PUSH1 0x8 DUP2 ADD SLOAD PUSH2 0x100 DUP6 ADD MSTORE ADD SLOAD SWAP2 ADD MSTORE JUMP JUMPDEST SWAP11 SWAP13 SWAP12 SWAP9 SWAP5 PUSH3 0x2804 SWAP7 PUSH3 0x27C7 DUP14 PUSH3 0x27D6 SWAP4 PUSH3 0x27B8 PUSH2 0x160 SWAP16 SWAP13 SWAP7 SWAP10 PUSH3 0x27F4 SWAP11 PUSH3 0x2814 SWAP16 SWAP11 SWAP10 PUSH3 0x27E5 SWAP11 PUSH2 0x180 SWAP3 PUSH1 0x1 DUP1 PUSH1 0xA0 SHL SUB SWAP3 DUP4 DUP1 SWAP3 AND DUP10 MSTORE AND PUSH1 0x20 DUP9 ADD MSTORE AND PUSH1 0x40 DUP7 ADD MSTORE DUP1 PUSH1 0x60 DUP7 ADD MSTORE DUP5 ADD SWAP1 PUSH3 0x2491 JUMP JUMPDEST SWAP2 PUSH1 0x80 DUP2 DUP5 SUB SWAP2 ADD MSTORE PUSH3 0x244F JUMP JUMPDEST DUP14 DUP2 SUB PUSH1 0xA0 DUP16 ADD MSTORE SWAP1 PUSH3 0x244F JUMP JUMPDEST SWAP1 DUP12 DUP3 SUB PUSH1 0xC0 DUP14 ADD MSTORE PUSH3 0x244F JUMP JUMPDEST SWAP1 DUP10 DUP3 SUB PUSH1 0xE0 DUP12 ADD MSTORE PUSH3 0x244F JUMP JUMPDEST SWAP1 DUP8 DUP3 SUB PUSH2 0x100 DUP10 ADD MSTORE PUSH3 0x244F JUMP JUMPDEST SWAP1 DUP6 DUP3 SUB PUSH2 0x120 DUP8 ADD MSTORE PUSH3 0x244F JUMP JUMPDEST SWAP5 ISZERO ISZERO PUSH2 0x140 DUP5 ADD MSTORE ISZERO ISZERO SWAP2 ADD MSTORE JUMP JUMPDEST PUSH1 0x20 DUP1 DUP3 ADD SWAP1 DUP1 DUP4 MSTORE DUP4 MLOAD DUP1 SWAP3 MSTORE PUSH1 0x40 SWAP3 PUSH1 0x40 DUP2 ADD DUP3 PUSH1 0x40 DUP6 PUSH1 0x5 SHL DUP5 ADD ADD SWAP7 ADD SWAP5 PUSH1 0x0 SWAP3 JUMPDEST DUP6 DUP5 LT PUSH3 0x285C JUMPI POP POP POP POP POP POP POP SWAP1 JUMP JUMPDEST SWAP1 SWAP2 SWAP3 SWAP4 SWAP5 SWAP6 SWAP7 DUP6 DUP1 PUSH1 0x1 SWAP3 PUSH1 0x3F NOT DUP6 DUP3 SUB ADD DUP8 MSTORE DUP11 MLOAD SWAP1 PUSH3 0x2943 PUSH3 0x292E PUSH3 0x2919 PUSH3 0x2905 PUSH3 0x28F1 PUSH3 0x28DD PUSH3 0x28C9 DUP14 PUSH2 0x180 SWAP1 DUP14 DUP1 PUSH1 0xA0 SHL SUB DUP1 DUP13 MLOAD AND DUP12 MSTORE DUP1 DUP14 DUP14 ADD MLOAD AND DUP14 DUP13 ADD MSTORE DUP2 DUP13 ADD MLOAD AND SWAP1 DUP11 ADD MSTORE PUSH1 0x60 SWAP1 DUP1 DUP3 DUP13 ADD MLOAD SWAP3 DUP12 ADD MSTORE DUP10 ADD SWAP1 PUSH3 0x2491 JUMP JUMPDEST PUSH1 0x80 DUP1 DUP11 ADD MLOAD SWAP1 DUP10 DUP4 SUB SWAP1 DUP11 ADD MSTORE PUSH3 0x244F JUMP JUMPDEST PUSH1 0xA0 DUP1 DUP10 ADD MLOAD SWAP1 DUP9 DUP4 SUB SWAP1 DUP10 ADD MSTORE PUSH3 0x244F JUMP JUMPDEST PUSH1 0xC0 DUP1 DUP9 ADD MLOAD SWAP1 DUP8 DUP4 SUB SWAP1 DUP9 ADD MSTORE PUSH3 0x244F JUMP JUMPDEST PUSH1 0xE0 DUP1 DUP8 ADD MLOAD SWAP1 DUP7 DUP4 SUB SWAP1 DUP8 ADD MSTORE PUSH3 0x244F JUMP JUMPDEST PUSH2 0x100 DUP1 DUP7 ADD MLOAD SWAP1 DUP6 DUP4 SUB SWAP1 DUP7 ADD MSTORE PUSH3 0x244F JUMP JUMPDEST PUSH2 0x120 DUP1 DUP6 ADD MLOAD SWAP1 DUP5 DUP4 SUB SWAP1 DUP6 ADD MSTORE PUSH3 0x244F JUMP JUMPDEST SWAP2 PUSH2 0x140 DUP1 DUP3 ADD MLOAD ISZERO ISZERO SWAP1 DUP4 ADD MSTORE PUSH2 0x160 DUP1 SWAP2 ADD MLOAD ISZERO ISZERO SWAP2 ADD MSTORE SWAP10 ADD SWAP5 ADD SWAP5 ADD SWAP3 SWAP6 SWAP5 SWAP4 SWAP2 SWAP1 PUSH3 0x284A JUMP JUMPDEST PUSH8 0xFFFFFFFFFFFFFFFF DUP2 GT PUSH3 0x84D JUMPI PUSH1 0x1F ADD PUSH1 0x1F NOT AND PUSH1 0x20 ADD SWAP1 JUMP JUMPDEST DUP2 PUSH1 0x1F DUP3 ADD SLT ISZERO PUSH3 0x8A8 JUMPI DUP1 CALLDATALOAD SWAP1 PUSH3 0x29A6 DUP3 PUSH3 0x296F JUMP JUMPDEST SWAP3 PUSH3 0x29B6 PUSH1 0x40 MLOAD SWAP5 DUP6 PUSH3 0x25F7 JUMP JUMPDEST DUP3 DUP5 MSTORE PUSH1 0x20 DUP4 DUP4 ADD ADD GT PUSH3 0x8A8 JUMPI DUP2 PUSH1 0x0 SWAP3 PUSH1 0x20 DUP1 SWAP4 ADD DUP4 DUP7 ADD CALLDATACOPY DUP4 ADD ADD MSTORE SWAP1 JUMP JUMPDEST PUSH1 0x8 SLOAD DUP2 LT ISZERO PUSH3 0x837 JUMPI PUSH1 0x8 PUSH1 0x0 MSTORE PUSH1 0x1 SHL PUSH32 0xF3F7A9FE364FAAB93B216DA50A3214154F22A0A2B415B23A84C8169E8B636EE3 ADD SWAP1 PUSH1 0x0 SWAP1 JUMP JUMPDEST PUSH8 0xFFFFFFFFFFFFFFFF DUP2 GT PUSH3 0x84D JUMPI PUSH1 0x5 SHL PUSH1 0x20 ADD SWAP1 JUMP JUMPDEST ISZERO PUSH3 0x2A35 JUMPI JUMP JUMPDEST PUSH1 0x40 MLOAD PUSH3 0x461BCD PUSH1 0xE5 SHL DUP2 MSTORE PUSH1 0x20 PUSH1 0x4 DUP3 ADD MSTORE PUSH1 0x1F PUSH1 0x24 DUP3 ADD MSTORE PUSH32 0x5A65726F2061646472657373657320617265206E6F7420616C6C6F7765642E00 PUSH1 0x44 DUP3 ADD MSTORE PUSH1 0x64 SWAP1 REVERT JUMPDEST RETURNDATASIZE ISZERO PUSH3 0x2AAA JUMPI RETURNDATASIZE SWAP1 PUSH3 0x2A8E DUP3 PUSH3 0x296F JUMP JUMPDEST SWAP2 PUSH3 0x2A9E PUSH1 0x40 MLOAD SWAP4 DUP5 PUSH3 0x25F7 JUMP JUMPDEST DUP3 MSTORE RETURNDATASIZE PUSH1 0x0 PUSH1 0x20 DUP5 ADD RETURNDATACOPY JUMP JUMPDEST PUSH1 0x60 SWAP1 JUMP JUMPDEST ISZERO PUSH3 0x2AB7 JUMPI JUMP JUMPDEST PUSH1 0x40 MLOAD PUSH3 0x461BCD PUSH1 0xE5 SHL DUP2 MSTORE PUSH1 0x20 PUSH1 0x4 DUP3 ADD MSTORE PUSH1 0x26 PUSH1 0x24 DUP3 ADD MSTORE PUSH32 0x4F6E6C7920746865206F776E65722063616E2063616C6C20746869732066756E PUSH1 0x44 DUP3 ADD MSTORE PUSH6 0x31BA34B7B717 PUSH1 0xD1 SHL PUSH1 0x64 DUP3 ADD MSTORE PUSH1 0x84 SWAP1 REVERT JUMPDEST SWAP1 DUP2 PUSH1 0x20 SWAP2 SUB SLT PUSH3 0x8A8 JUMPI MLOAD PUSH1 0x1 PUSH1 0x1 PUSH1 0xA0 SHL SUB DUP2 AND DUP2 SUB PUSH3 0x8A8 JUMPI SWAP1 JUMP JUMPDEST SWAP2 SWAP1 DUP3 PUSH1 0x40 SWAP2 SUB SLT PUSH3 0x8A8 JUMPI PUSH1 0x20 DUP3 MLOAD SWAP3 ADD MLOAD SWAP1 JUMP JUMPDEST DUP2 DUP2 LT PUSH3 0x2B4F JUMPI POP POP JUMP JUMPDEST PUSH1 0x0 DUP2 SSTORE PUSH1 0x1 ADD PUSH3 0x2B43 JUMP JUMPDEST SWAP1 PUSH1 0x1 DUP1 PUSH1 0xA0 SHL SUB DUP2 MLOAD AND PUSH1 0x1 PUSH1 0x1 PUSH1 0x60 SHL SUB PUSH1 0xA0 SHL DUP4 SLOAD AND OR DUP3 SSTORE PUSH1 0x1 DUP1 DUP4 ADD PUSH1 0x20 DUP1 DUP5 ADD MLOAD SWAP1 DUP2 MLOAD SWAP3 PUSH8 0xFFFFFFFFFFFFFFFF SWAP4 DUP5 DUP2 GT PUSH3 0x84D JUMPI PUSH3 0x2BA5 DUP3 SLOAD PUSH3 0x2561 JUMP JUMPDEST SWAP4 PUSH1 0x1F SWAP5 DUP6 DUP2 GT PUSH3 0x2DBA JUMPI JUMPDEST POP DUP4 SWAP1 DUP6 DUP4 GT PUSH1 0x1 EQ PUSH3 0x2D53 JUMPI PUSH3 0x2BE5 SWAP3 SWAP2 PUSH1 0x0 SWAP2 DUP4 PUSH3 0x2C94 JUMPI JUMPDEST POP POP DUP2 PUSH1 0x1 SHL SWAP2 PUSH1 0x0 NOT SWAP1 PUSH1 0x3 SHL SHR NOT AND OR SWAP1 JUMP JUMPDEST SWAP1 SSTORE JUMPDEST PUSH1 0x2 DUP7 ADD SWAP4 PUSH1 0x40 DUP7 ADD MLOAD SWAP2 DUP3 MLOAD SWAP5 DUP6 GT PUSH3 0x84D JUMPI PUSH3 0x2C09 DUP7 SLOAD PUSH3 0x2561 JUMP JUMPDEST DUP5 DUP2 GT PUSH3 0x2D16 JUMPI JUMPDEST POP DUP1 SWAP4 DUP6 GT PUSH1 0x1 EQ PUSH3 0x2CA0 JUMPI POP POP DUP3 PUSH1 0x9 SWAP6 SWAP4 PUSH2 0x120 SWAP6 SWAP4 PUSH3 0x2C4D SWAP4 PUSH1 0x0 SWAP3 PUSH3 0x2C94 JUMPI POP POP DUP2 PUSH1 0x1 SHL SWAP2 PUSH1 0x0 NOT SWAP1 PUSH1 0x3 SHL SHR NOT AND OR SWAP1 JUMP JUMPDEST SWAP1 SSTORE JUMPDEST PUSH1 0x60 DUP2 ADD MLOAD PUSH1 0x3 DUP6 ADD SSTORE PUSH1 0x80 DUP2 ADD MLOAD PUSH1 0x4 DUP6 ADD SSTORE PUSH1 0xA0 DUP2 ADD MLOAD PUSH1 0x5 DUP6 ADD SSTORE PUSH1 0xC0 DUP2 ADD MLOAD PUSH1 0x6 DUP6 ADD SSTORE PUSH1 0xE0 DUP2 ADD MLOAD PUSH1 0x7 DUP6 ADD SSTORE PUSH2 0x100 DUP2 ADD MLOAD PUSH1 0x8 DUP6 ADD SSTORE ADD MLOAD SWAP2 ADD SSTORE JUMP JUMPDEST ADD MLOAD SWAP1 POP CODESIZE DUP1 PUSH3 0x2BD0 JUMP JUMPDEST SWAP2 PUSH1 0x1F SWAP5 SWAP4 SWAP2 SWAP5 NOT DUP5 AND DUP7 PUSH1 0x0 MSTORE DUP4 PUSH1 0x0 KECCAK256 SWAP4 PUSH1 0x0 SWAP1 JUMPDEST DUP3 DUP3 LT PUSH3 0x2CFE JUMPI POP POP SWAP2 PUSH1 0x9 SWAP8 SWAP6 SWAP4 SWAP2 DUP6 PUSH2 0x120 SWAP9 SWAP7 SWAP5 LT PUSH3 0x2CE4 JUMPI JUMPDEST POP POP POP DUP2 SHL ADD SWAP1 SSTORE PUSH3 0x2C50 JUMP JUMPDEST ADD MLOAD PUSH1 0x0 NOT PUSH1 0xF8 DUP5 PUSH1 0x3 SHL AND SHR NOT AND SWAP1 SSTORE CODESIZE DUP1 DUP1 PUSH3 0x2CD6 JUMP JUMPDEST DUP1 DUP9 DUP7 SWAP8 DUP3 SWAP5 SWAP8 DUP8 ADD MLOAD DUP2 SSTORE ADD SWAP7 ADD SWAP5 ADD SWAP1 PUSH3 0x2CB7 JUMP JUMPDEST PUSH3 0x2D42 SWAP1 DUP8 PUSH1 0x0 MSTORE DUP3 PUSH1 0x0 KECCAK256 DUP7 DUP1 DUP10 ADD PUSH1 0x5 SHR DUP3 ADD SWAP3 DUP6 DUP11 LT PUSH3 0x2D49 JUMPI JUMPDEST ADD PUSH1 0x5 SHR ADD SWAP1 PUSH3 0x2B43 JUMP JUMPDEST CODESIZE PUSH3 0x2C12 JUMP JUMPDEST SWAP3 POP DUP2 SWAP3 PUSH3 0x2D36 JUMP JUMPDEST DUP8 SWAP3 SWAP2 PUSH1 0x1F NOT DUP4 AND SWAP2 DUP6 PUSH1 0x0 MSTORE DUP7 PUSH1 0x0 KECCAK256 SWAP3 PUSH1 0x0 JUMPDEST DUP9 DUP3 DUP3 LT PUSH3 0x2DA3 JUMPI POP POP DUP5 GT PUSH3 0x2D89 JUMPI JUMPDEST POP POP POP DUP2 SHL ADD SWAP1 SSTORE PUSH3 0x2BE8 JUMP JUMPDEST ADD MLOAD PUSH1 0x0 NOT PUSH1 0xF8 DUP5 PUSH1 0x3 SHL AND SHR NOT AND SWAP1 SSTORE CODESIZE DUP1 DUP1 PUSH3 0x2D7B JUMP JUMPDEST DUP4 DUP6 ADD MLOAD DUP7 SSTORE DUP13 SWAP8 SWAP1 SWAP6 ADD SWAP5 SWAP4 DUP5 ADD SWAP4 ADD PUSH3 0x2D68 JUMP JUMPDEST PUSH3 0x2DE5 SWAP1 DUP5 PUSH1 0x0 MSTORE DUP6 PUSH1 0x0 KECCAK256 DUP8 DUP1 DUP7 ADD PUSH1 0x5 SHR DUP3 ADD SWAP3 DUP9 DUP8 LT PUSH3 0x2D49 JUMPI ADD PUSH1 0x5 SHR ADD SWAP1 PUSH3 0x2B43 JUMP JUMPDEST CODESIZE PUSH3 0x2BB2 JUMP JUMPDEST PUSH1 0xB SLOAD DUP2 LT ISZERO PUSH3 0x837 JUMPI PUSH1 0xA SWAP1 PUSH1 0xB PUSH1 0x0 MSTORE MUL PUSH32 0x175B7A638427703F0DBE7BB9BBF987A2551717B34E79F33B5B1008D1FA01DB9 ADD SWAP1 PUSH1 0x0 SWAP1 JUMP JUMPDEST SWAP1 DUP2 PUSH1 0x60 SWAP2 SUB SLT PUSH3 0x8A8 JUMPI DUP1 MLOAD SWAP2 PUSH1 0x40 PUSH1 0x20 DUP4 ADD MLOAD SWAP3 ADD MLOAD SWAP1 JUMP JUMPDEST SWAP2 SWAP1 DUP3 ADD DUP1 SWAP3 GT PUSH3 0x2E52 JUMPI JUMP JUMPDEST PUSH4 0x4E487B71 PUSH1 0xE0 SHL PUSH1 0x0 MSTORE PUSH1 0x11 PUSH1 0x4 MSTORE PUSH1 0x24 PUSH1 0x0 REVERT JUMPDEST SWAP2 SWAP1 DUP3 SUB SWAP2 DUP3 GT PUSH3 0x2E52 JUMPI JUMP JUMPDEST DUP2 DUP2 MUL SWAP3 SWAP2 DUP2 ISZERO SWAP2 DUP5 DIV EQ OR ISZERO PUSH3 0x2E52 JUMPI JUMP JUMPDEST DUP2 ISZERO PUSH3 0x2E95 JUMPI DIV SWAP1 JUMP JUMPDEST PUSH4 0x4E487B71 PUSH1 0xE0 SHL PUSH1 0x0 MSTORE PUSH1 0x12 PUSH1 0x4 MSTORE PUSH1 0x24 PUSH1 0x0 REVERT JUMPDEST DUP2 ISZERO PUSH3 0x2E95 JUMPI PUSH1 0x1 PUSH1 0xFF SHL DUP2 EQ PUSH1 0x0 NOT DUP4 EQ AND PUSH3 0x2E52 JUMPI SDIV SWAP1 JUMP JUMPDEST SWAP1 PUSH1 0x64 DUP3 MUL SWAP2 DUP1 DUP4 SDIV PUSH1 0x64 EQ SWAP1 ISZERO OR ISZERO PUSH3 0x2E52 JUMPI JUMP JUMPDEST SWAP2 SWAP1 PUSH1 0x1 DUP1 PUSH1 0xA0 SHL SUB SWAP3 DUP4 DUP3 MLOAD AND PUSH1 0x1 PUSH1 0x1 PUSH1 0x60 SHL SUB PUSH1 0xA0 SHL SWAP1 DUP2 DUP4 SLOAD AND OR DUP3 SSTORE PUSH1 0x1 SWAP5 DUP6 DUP4 ADD SWAP2 PUSH1 0x20 SWAP3 DUP3 DUP5 DUP8 ADD MLOAD AND DUP3 DUP3 SLOAD AND OR SWAP1 SSTORE PUSH1 0x2 DUP5 ADD SWAP2 PUSH1 0x40 DUP7 ADD MLOAD AND SWAP1 DUP3 SLOAD AND OR SWAP1 SSTORE PUSH1 0x3 SWAP5 PUSH3 0x2F3E PUSH1 0x60 DUP6 ADD MLOAD DUP8 DUP6 ADD PUSH3 0x2B5C JUMP JUMPDEST PUSH1 0x80 DUP5 ADD MLOAD DUP1 MLOAD PUSH8 0xFFFFFFFFFFFFFFFF SWAP3 SWAP1 PUSH1 0xD DUP7 ADD SWAP1 DUP5 DUP2 GT PUSH3 0x84D JUMPI PUSH3 0x2F69 DUP3 SLOAD PUSH3 0x2561 JUMP JUMPDEST SWAP4 PUSH1 0x1F SWAP5 DUP6 DUP2 GT PUSH3 0x351F JUMPI JUMPDEST POP DUP7 SWAP1 DUP6 DUP4 GT PUSH1 0x1 EQ PUSH3 0x34B9 JUMPI PUSH3 0x2FA8 SWAP3 SWAP2 PUSH1 0x0 SWAP2 DUP4 PUSH3 0x2C94 JUMPI POP POP DUP2 PUSH1 0x1 SHL SWAP2 PUSH1 0x0 NOT SWAP1 PUSH1 0x3 SHL SHR NOT AND OR SWAP1 JUMP JUMPDEST SWAP1 SSTORE JUMPDEST PUSH1 0xE DUP6 ADD PUSH1 0xA0 DUP8 ADD MLOAD DUP1 MLOAD SWAP1 DUP6 DUP3 GT PUSH3 0x84D JUMPI PUSH3 0x2FCB DUP4 SLOAD PUSH3 0x2561 JUMP JUMPDEST DUP6 DUP2 GT PUSH3 0x3487 JUMPI JUMPDEST POP DUP7 SWAP1 DUP6 DUP4 GT PUSH1 0x1 EQ PUSH3 0x3421 JUMPI PUSH3 0x3006 SWAP3 SWAP2 PUSH1 0x0 SWAP2 DUP4 PUSH3 0x2C94 JUMPI POP POP DUP2 PUSH1 0x1 SHL SWAP2 PUSH1 0x0 NOT SWAP1 PUSH1 0x3 SHL SHR NOT AND OR SWAP1 JUMP JUMPDEST SWAP1 SSTORE JUMPDEST PUSH1 0xF DUP6 ADD PUSH1 0xC0 DUP8 ADD MLOAD DUP1 MLOAD SWAP1 DUP6 DUP3 GT PUSH3 0x84D JUMPI PUSH3 0x3029 DUP4 SLOAD PUSH3 0x2561 JUMP JUMPDEST DUP6 DUP2 GT PUSH3 0x33EF JUMPI JUMPDEST POP DUP7 SWAP1 DUP6 DUP4 GT PUSH1 0x1 EQ PUSH3 0x3389 JUMPI PUSH3 0x3064 SWAP3 SWAP2 PUSH1 0x0 SWAP2 DUP4 PUSH3 0x2C94 JUMPI POP POP DUP2 PUSH1 0x1 SHL SWAP2 PUSH1 0x0 NOT SWAP1 PUSH1 0x3 SHL SHR NOT AND OR SWAP1 JUMP JUMPDEST SWAP1 SSTORE JUMPDEST PUSH1 0x10 DUP6 ADD PUSH1 0xE0 DUP8 ADD MLOAD DUP1 MLOAD SWAP1 DUP6 DUP3 GT PUSH3 0x84D JUMPI PUSH3 0x3087 DUP4 SLOAD PUSH3 0x2561 JUMP JUMPDEST DUP6 DUP2 GT PUSH3 0x3357 JUMPI JUMPDEST POP DUP7 SWAP1 DUP6 DUP4 GT PUSH1 0x1 EQ PUSH3 0x32F1 JUMPI PUSH3 0x30C2 SWAP3 SWAP2 PUSH1 0x0 SWAP2 DUP4 PUSH3 0x2C94 JUMPI POP POP DUP2 PUSH1 0x1 SHL SWAP2 PUSH1 0x0 NOT SWAP1 PUSH1 0x3 SHL SHR NOT AND OR SWAP1 JUMP JUMPDEST SWAP1 SSTORE JUMPDEST PUSH1 0x11 DUP6 ADD PUSH2 0x100 DUP8 ADD MLOAD DUP1 MLOAD SWAP1 DUP6 DUP3 GT PUSH3 0x84D JUMPI PUSH3 0x30E6 DUP4 SLOAD PUSH3 0x2561 JUMP JUMPDEST DUP6 DUP2 GT PUSH3 0x32BF JUMPI JUMPDEST POP DUP7 SWAP1 DUP6 DUP4 GT PUSH1 0x1 EQ PUSH3 0x3259 JUMPI PUSH3 0x3121 SWAP3 SWAP2 PUSH1 0x0 SWAP2 DUP4 PUSH3 0x2C94 JUMPI POP POP DUP2 PUSH1 0x1 SHL SWAP2 PUSH1 0x0 NOT SWAP1 PUSH1 0x3 SHL SHR NOT AND OR SWAP1 JUMP JUMPDEST SWAP1 SSTORE JUMPDEST PUSH1 0x12 DUP6 ADD SWAP4 PUSH2 0x120 DUP8 ADD MLOAD SWAP9 DUP10 MLOAD SWAP5 DUP6 GT PUSH3 0x84D JUMPI PUSH3 0x3146 DUP7 SLOAD PUSH3 0x2561 JUMP JUMPDEST DUP5 DUP2 GT PUSH3 0x3227 JUMPI JUMPDEST POP DUP2 SWAP4 DUP6 GT PUSH1 0x1 EQ PUSH3 0x31B7 JUMPI POP POP POP SWAP1 DUP1 PUSH3 0x3188 SWAP3 PUSH1 0x13 SWAP7 SWAP8 SWAP9 PUSH1 0x0 SWAP3 PUSH3 0x2C94 JUMPI POP POP DUP2 PUSH1 0x1 SHL SWAP2 PUSH1 0x0 NOT SWAP1 PUSH1 0x3 SHL SHR NOT AND OR SWAP1 JUMP JUMPDEST SWAP1 SSTORE JUMPDEST ADD SWAP1 PUSH2 0x140 DUP2 ADD MLOAD ISZERO ISZERO SWAP1 PUSH1 0xFF PUSH2 0xFF00 PUSH2 0x160 DUP6 SLOAD SWAP4 ADD MLOAD ISZERO ISZERO PUSH1 0x8 SHL AND SWAP3 AND SWAP1 PUSH2 0xFFFF NOT AND OR OR SWAP1 SSTORE JUMP JUMPDEST SWAP1 SWAP2 SWAP4 SWAP3 PUSH1 0x1F NOT DUP5 AND SWAP10 DUP7 PUSH1 0x0 MSTORE DUP4 PUSH1 0x0 KECCAK256 SWAP4 PUSH1 0x0 SWAP1 JUMPDEST DUP13 DUP3 LT PUSH3 0x320F JUMPI POP POP DUP5 PUSH1 0x13 SWAP10 SWAP11 SWAP12 LT PUSH3 0x31F4 JUMPI JUMPDEST POP POP POP POP DUP2 SHL ADD SWAP1 SSTORE PUSH3 0x318B JUMP JUMPDEST ADD MLOAD SWAP1 PUSH1 0xF8 DUP5 PUSH1 0x0 NOT SWAP3 SHL AND SHR NOT AND SWAP1 SSTORE CODESIZE DUP1 DUP1 DUP1 PUSH3 0x31E5 JUMP JUMPDEST DUP1 DUP9 DUP6 SWAP8 DUP3 SWAP5 SWAP7 DUP7 ADD MLOAD DUP2 SSTORE ADD SWAP7 ADD SWAP4 ADD SWAP1 PUSH3 0x31CE JUMP JUMPDEST PUSH3 0x3252 SWAP1 DUP8 PUSH1 0x0 MSTORE DUP4 PUSH1 0x0 KECCAK256 DUP7 DUP1 DUP10 ADD PUSH1 0x5 SHR DUP3 ADD SWAP3 DUP7 DUP11 LT PUSH3 0x2D49 JUMPI ADD PUSH1 0x5 SHR ADD SWAP1 PUSH3 0x2B43 JUMP JUMPDEST CODESIZE PUSH3 0x314F JUMP JUMPDEST DUP5 SWAP3 SWAP2 PUSH1 0x1F NOT DUP4 AND SWAP2 DUP6 PUSH1 0x0 MSTORE DUP10 PUSH1 0x0 KECCAK256 SWAP3 PUSH1 0x0 JUMPDEST DUP12 DUP3 DUP3 LT PUSH3 0x32A8 JUMPI POP POP DUP5 GT PUSH3 0x328F JUMPI JUMPDEST POP POP POP DUP2 SHL ADD SWAP1 SSTORE PUSH3 0x3124 JUMP JUMPDEST ADD MLOAD PUSH1 0x0 NOT DUP4 DUP15 SHL PUSH1 0xF8 AND SHR NOT AND SWAP1 SSTORE CODESIZE DUP1 DUP1 PUSH3 0x3281 JUMP JUMPDEST DUP4 DUP6 ADD MLOAD DUP7 SSTORE DUP10 SWAP8 SWAP1 SWAP6 ADD SWAP5 SWAP4 DUP5 ADD SWAP4 ADD PUSH3 0x326E JUMP JUMPDEST PUSH3 0x32EA SWAP1 DUP5 PUSH1 0x0 MSTORE DUP9 PUSH1 0x0 KECCAK256 DUP8 DUP1 DUP7 ADD PUSH1 0x5 SHR DUP3 ADD SWAP3 DUP12 DUP8 LT PUSH3 0x2D49 JUMPI ADD PUSH1 0x5 SHR ADD SWAP1 PUSH3 0x2B43 JUMP JUMPDEST CODESIZE PUSH3 0x30EF JUMP JUMPDEST DUP5 SWAP3 SWAP2 PUSH1 0x1F NOT DUP4 AND SWAP2 DUP6 PUSH1 0x0 MSTORE DUP10 PUSH1 0x0 KECCAK256 SWAP3 PUSH1 0x0 JUMPDEST DUP12 DUP3 DUP3 LT PUSH3 0x3340 JUMPI POP POP DUP5 GT PUSH3 0x3327 JUMPI JUMPDEST POP POP POP DUP2 SHL ADD SWAP1 SSTORE PUSH3 0x30C5 JUMP JUMPDEST ADD MLOAD PUSH1 0x0 NOT DUP4 DUP15 SHL PUSH1 0xF8 AND SHR NOT AND SWAP1 SSTORE CODESIZE DUP1 DUP1 PUSH3 0x3319 JUMP JUMPDEST DUP4 DUP6 ADD MLOAD DUP7 SSTORE DUP10 SWAP8 SWAP1 SWAP6 ADD SWAP5 SWAP4 DUP5 ADD SWAP4 ADD PUSH3 0x3306 JUMP JUMPDEST PUSH3 0x3382 SWAP1 DUP5 PUSH1 0x0 MSTORE DUP9 PUSH1 0x0 KECCAK256 DUP8 DUP1 DUP7 ADD PUSH1 0x5 SHR DUP3 ADD SWAP3 DUP12 DUP8 LT PUSH3 0x2D49 JUMPI ADD PUSH1 0x5 SHR ADD SWAP1 PUSH3 0x2B43 JUMP JUMPDEST CODESIZE PUSH3 0x3090 JUMP JUMPDEST DUP5 SWAP3 SWAP2 PUSH1 0x1F NOT DUP4 AND SWAP2 DUP6 PUSH1 0x0 MSTORE DUP10 PUSH1 0x0 KECCAK256 SWAP3 PUSH1 0x0 JUMPDEST DUP12 DUP3 DUP3 LT PUSH3 0x33D8 JUMPI POP POP DUP5 GT PUSH3 0x33BF JUMPI JUMPDEST POP POP POP DUP2 SHL ADD SWAP1 SSTORE PUSH3 0x3067 JUMP JUMPDEST ADD MLOAD PUSH1 0x0 NOT DUP4 DUP15 SHL PUSH1 0xF8 AND SHR NOT AND SWAP1 SSTORE CODESIZE DUP1 DUP1 PUSH3 0x33B1 JUMP JUMPDEST DUP4 DUP6 ADD MLOAD DUP7 SSTORE DUP10 SWAP8 SWAP1 SWAP6 ADD SWAP5 SWAP4 DUP5 ADD SWAP4 ADD PUSH3 0x339E JUMP JUMPDEST PUSH3 0x341A SWAP1 DUP5 PUSH1 0x0 MSTORE DUP9 PUSH1 0x0 KECCAK256 DUP8 DUP1 DUP7 ADD PUSH1 0x5 SHR DUP3 ADD SWAP3 DUP12 DUP8 LT PUSH3 0x2D49 JUMPI ADD PUSH1 0x5 SHR ADD SWAP1 PUSH3 0x2B43 JUMP JUMPDEST CODESIZE PUSH3 0x3032 JUMP JUMPDEST DUP5 SWAP3 SWAP2 PUSH1 0x1F NOT DUP4 AND SWAP2 DUP6 PUSH1 0x0 MSTORE DUP10 PUSH1 0x0 KECCAK256 SWAP3 PUSH1 0x0 JUMPDEST DUP12 DUP3 DUP3 LT PUSH3 0x3470 JUMPI POP POP DUP5 GT PUSH3 0x3457 JUMPI JUMPDEST POP POP POP DUP2 SHL ADD SWAP1 SSTORE PUSH3 0x3009 JUMP JUMPDEST ADD MLOAD PUSH1 0x0 NOT DUP4 DUP15 SHL PUSH1 0xF8 AND SHR NOT AND SWAP1 SSTORE CODESIZE DUP1 DUP1 PUSH3 0x3449 JUMP JUMPDEST DUP4 DUP6 ADD MLOAD DUP7 SSTORE DUP10 SWAP8 SWAP1 SWAP6 ADD SWAP5 SWAP4 DUP5 ADD SWAP4 ADD PUSH3 0x3436 JUMP JUMPDEST PUSH3 0x34B2 SWAP1 DUP5 PUSH1 0x0 MSTORE DUP9 PUSH1 0x0 KECCAK256 DUP8 DUP1 DUP7 ADD PUSH1 0x5 SHR DUP3 ADD SWAP3 DUP12 DUP8 LT PUSH3 0x2D49 JUMPI ADD PUSH1 0x5 SHR ADD SWAP1 PUSH3 0x2B43 JUMP JUMPDEST CODESIZE PUSH3 0x2FD4 JUMP JUMPDEST DUP5 SWAP3 SWAP2 PUSH1 0x1F NOT DUP4 AND SWAP2 DUP6 PUSH1 0x0 MSTORE DUP10 PUSH1 0x0 KECCAK256 SWAP3 PUSH1 0x0 JUMPDEST DUP12 DUP3 DUP3 LT PUSH3 0x3508 JUMPI POP POP DUP5 GT PUSH3 0x34EF JUMPI JUMPDEST POP POP POP DUP2 SHL ADD SWAP1 SSTORE PUSH3 0x2FAB JUMP JUMPDEST ADD MLOAD PUSH1 0x0 NOT DUP4 DUP15 SHL PUSH1 0xF8 AND SHR NOT AND SWAP1 SSTORE CODESIZE DUP1 DUP1 PUSH3 0x34E1 JUMP JUMPDEST DUP4 DUP6 ADD MLOAD DUP7 SSTORE DUP10 SWAP8 SWAP1 SWAP6 ADD SWAP5 SWAP4 DUP5 ADD SWAP4 ADD PUSH3 0x34CE JUMP JUMPDEST PUSH3 0x354A SWAP1 DUP5 PUSH1 0x0 MSTORE DUP9 PUSH1 0x0 KECCAK256 DUP8 DUP1 DUP7 ADD PUSH1 0x5 SHR DUP3 ADD SWAP3 DUP12 DUP8 LT PUSH3 0x2D49 JUMPI ADD PUSH1 0x5 SHR ADD SWAP1 PUSH3 0x2B43 JUMP JUMPDEST CODESIZE PUSH3 0x2F76 JUMP JUMPDEST SWAP1 DUP2 SLOAD PUSH1 0x1 PUSH1 0x40 SHL DUP2 LT ISZERO PUSH3 0x84D JUMPI PUSH1 0x1 DUP2 ADD DUP1 DUP5 SSTORE DUP2 LT ISZERO PUSH3 0x837 JUMPI PUSH3 0x2662 SWAP3 PUSH1 0x0 MSTORE PUSH1 0x14 PUSH1 0x20 PUSH1 0x0 KECCAK256 SWAP2 MUL ADD PUSH3 0x2EDF JUMP JUMPDEST PUSH1 0x2 PUSH1 0x0 SLOAD EQ PUSH3 0x359A JUMPI PUSH1 0x2 PUSH1 0x0 SSTORE JUMP JUMPDEST PUSH1 0x40 MLOAD PUSH4 0x3EE5AEB5 PUSH1 0xE0 SHL DUP2 MSTORE PUSH1 0x4 SWAP1 REVERT JUMPDEST SWAP1 DUP2 PUSH1 0x20 SWAP2 SUB SLT PUSH3 0x8A8 JUMPI MLOAD DUP1 ISZERO ISZERO DUP2 SUB PUSH3 0x8A8 JUMPI SWAP1 JUMP JUMPDEST PUSH3 0x3630 SWAP3 PUSH1 0x20 SWAP3 SWAP1 SWAP2 SWAP1 PUSH1 0x1 PUSH1 0x1 PUSH1 0xA0 SHL SUB SWAP1 PUSH3 0x35E9 DUP3 DUP5 AND ISZERO ISZERO PUSH3 0x2A2D JUMP JUMPDEST AND SWAP1 PUSH3 0x35F8 DUP3 ISZERO ISZERO PUSH3 0x2A2D JUMP JUMPDEST PUSH1 0x40 MLOAD PUSH4 0x95EA7B3 PUSH1 0xE0 SHL DUP2 MSTORE PUSH1 0x1 PUSH1 0x1 PUSH1 0xA0 SHL SUB SWAP1 SWAP2 AND PUSH1 0x4 DUP3 ADD MSTORE PUSH1 0x24 DUP2 ADD SWAP3 SWAP1 SWAP3 MSTORE SWAP1 SWAP3 DUP4 SWAP2 SWAP1 DUP3 SWAP1 PUSH1 0x0 SWAP1 DUP3 SWAP1 PUSH1 0x44 DUP3 ADD SWAP1 JUMP JUMPDEST SUB SWAP3 GAS CALL DUP1 ISZERO PUSH3 0x366B JUMPI PUSH3 0x3647 JUMPI JUMPDEST POP PUSH1 0x1 SWAP1 JUMP JUMPDEST PUSH3 0x3663 SWAP1 PUSH1 0x20 RETURNDATASIZE PUSH1 0x20 GT PUSH3 0x1F85 JUMPI PUSH3 0x1F74 DUP2 DUP4 PUSH3 0x25F7 JUMP JUMPDEST POP CODESIZE PUSH3 0x3641 JUMP JUMPDEST PUSH1 0x40 MLOAD RETURNDATASIZE PUSH1 0x0 DUP3 RETURNDATACOPY RETURNDATASIZE SWAP1 REVERT JUMPDEST PUSH1 0x1 PUSH1 0x1 PUSH1 0xA0 SHL SUB SWAP1 DUP2 AND PUSH3 0x368F DUP2 ISZERO ISZERO PUSH3 0x2A2D JUMP JUMPDEST PUSH1 0x8 SLOAD SWAP2 PUSH1 0x0 JUMPDEST DUP4 DUP2 LT PUSH3 0x36A7 JUMPI POP POP POP POP PUSH1 0x0 SWAP1 JUMP JUMPDEST DUP3 DUP3 PUSH3 0x36B4 DUP4 PUSH3 0x29D9 JUMP JUMPDEST POP SLOAD AND EQ PUSH3 0x36C6 JUMPI PUSH1 0x1 ADD PUSH3 0x3696 JUMP JUMPDEST POP POP POP POP PUSH1 0x1 SWAP1 JUMP JUMPDEST PUSH3 0x36DB DUP2 SLOAD PUSH3 0x2561 JUMP JUMPDEST SWAP1 DUP2 PUSH3 0x36E6 JUMPI POP POP JUMP JUMPDEST DUP2 PUSH1 0x1F PUSH1 0x0 SWAP4 GT PUSH1 0x1 EQ PUSH3 0x36F9 JUMPI POP SSTORE JUMP JUMPDEST SWAP1 DUP1 DUP4 SWAP2 DUP3 MSTORE PUSH3 0x371A PUSH1 0x1F PUSH1 0x20 DUP5 KECCAK256 SWAP5 ADD PUSH1 0x5 SHR DUP5 ADD PUSH1 0x1 DUP6 ADD PUSH3 0x2B43 JUMP JUMPDEST SSTORE SSTORE JUMP JUMPDEST DUP2 MLOAD DUP2 SLOAD PUSH1 0x1 PUSH1 0x1 PUSH1 0xA0 SHL SUB NOT AND PUSH1 0x1 PUSH1 0x1 PUSH1 0xA0 SHL SUB SWAP2 SWAP1 SWAP2 AND OR DUP2 SSTORE PUSH1 0x20 SWAP2 DUP3 ADD MLOAD DUP1 MLOAD PUSH1 0x1 SWAP4 SWAP1 SWAP3 DUP5 ADD SWAP2 PUSH1 0x1 PUSH1 0x40 SHL DUP5 GT PUSH3 0x84D JUMPI DUP3 SLOAD DUP5 DUP5 SSTORE DUP1 DUP6 LT PUSH3 0x37A5 JUMPI JUMPDEST POP PUSH1 0x20 ADD SWAP2 PUSH1 0x0 MSTORE PUSH1 0x20 PUSH1 0x0 KECCAK256 PUSH1 0x0 SWAP3 JUMPDEST DUP5 DUP5 LT PUSH3 0x3786 JUMPI POP POP POP POP POP POP JUMP JUMPDEST PUSH1 0x14 DUP4 DUP3 PUSH3 0x3798 DUP10 SWAP5 MLOAD DUP7 PUSH3 0x2EDF JUMP JUMPDEST ADD SWAP3 ADD SWAP4 ADD SWAP3 SWAP1 PUSH3 0x3776 JUMP JUMPDEST PUSH1 0x14 SWAP1 DUP1 PUSH1 0x14 MUL SWAP1 PUSH1 0x14 DUP3 DIV SUB PUSH3 0x2E52 JUMPI DUP6 PUSH1 0x14 MUL PUSH1 0x14 DUP2 DIV DUP8 SUB PUSH3 0x2E52 JUMPI PUSH1 0x0 SWAP1 DUP7 DUP3 MSTORE PUSH1 0x20 DUP3 KECCAK256 SWAP3 DUP4 ADD SWAP3 ADD JUMPDEST DUP3 DUP2 LT PUSH3 0x37E7 JUMPI POP POP POP PUSH3 0x3765 JUMP JUMPDEST DUP1 DUP3 DUP6 SWAP3 SSTORE DUP3 DUP11 DUP3 ADD SSTORE DUP3 PUSH1 0x2 DUP3 ADD SSTORE DUP3 PUSH1 0x3 DUP3 ADD SSTORE PUSH3 0x380B PUSH1 0x4 DUP3 ADD PUSH3 0x36CF JUMP JUMPDEST PUSH3 0x3819 PUSH1 0x5 DUP3 ADD PUSH3 0x36CF JUMP JUMPDEST DUP3 PUSH1 0x6 DUP3 ADD SSTORE DUP3 PUSH1 0x7 DUP3 ADD SSTORE DUP3 PUSH1 0x8 DUP3 ADD SSTORE DUP3 PUSH1 0x9 DUP3 ADD SSTORE DUP3 PUSH1 0xA DUP3 ADD SSTORE DUP3 PUSH1 0xB DUP3 ADD SSTORE DUP3 PUSH1 0xC DUP3 ADD SSTORE PUSH3 0x3851 PUSH1 0xD DUP3 ADD PUSH3 0x36CF JUMP JUMPDEST PUSH3 0x385F PUSH1 0xE DUP3 ADD PUSH3 0x36CF JUMP JUMPDEST PUSH3 0x386D PUSH1 0xF DUP3 ADD PUSH3 0x36CF JUMP JUMPDEST PUSH3 0x387B PUSH1 0x10 DUP3 ADD PUSH3 0x36CF JUMP JUMPDEST PUSH3 0x3889 PUSH1 0x11 DUP3 ADD PUSH3 0x36CF JUMP JUMPDEST PUSH3 0x3897 PUSH1 0x12 DUP3 ADD PUSH3 0x36CF JUMP JUMPDEST DUP3 PUSH1 0x13 DUP3 ADD SSTORE ADD PUSH3 0x37D6 JUMP INVALID PUSH1 0x40 PUSH1 0x80 DUP2 MSTORE CALLVALUE PUSH3 0x429 JUMPI PUSH3 0x10AB DUP1 CODESIZE SUB DUP1 PUSH3 0x1E DUP2 PUSH3 0x42E JUMP JUMPDEST SWAP3 DUP4 CODECOPY DUP2 ADD SWAP1 PUSH1 0x80 DUP2 DUP4 SUB SLT PUSH3 0x429 JUMPI DUP1 MLOAD PUSH1 0x1 PUSH1 0x1 PUSH1 0x40 SHL SUB SWAP2 SWAP1 DUP3 DUP2 GT PUSH3 0x429 JUMPI DUP4 PUSH3 0x51 SWAP2 DUP4 ADD PUSH3 0x46A JUMP JUMPDEST SWAP1 PUSH1 0x20 SWAP4 DUP5 DUP3 ADD MLOAD SWAP1 DUP5 DUP3 GT PUSH3 0x429 JUMPI PUSH3 0x6F SWAP2 DUP4 ADD PUSH3 0x46A JUMP JUMPDEST PUSH1 0x60 DUP7 DUP4 ADD MLOAD SWAP3 ADD MLOAD SWAP1 PUSH1 0x0 SWAP5 CALLER PUSH1 0x1 DUP1 PUSH1 0xA0 SHL SUB NOT DUP8 SLOAD AND OR DUP7 SSTORE CALLER DUP7 PUSH32 0x8BE0079C531659141344CD1FD0A4F28419497F9722A3DAAFE3B4186F6B6457E0 DUP2 DUP1 LOG3 DUP5 MLOAD DUP2 DUP2 GT PUSH3 0x343 JUMPI PUSH1 0x2 SLOAD SWAP1 PUSH1 0x1 SWAP7 DUP8 DUP4 DUP2 SHR SWAP4 AND DUP1 ISZERO PUSH3 0x41E JUMPI JUMPDEST DUP11 DUP5 LT EQ PUSH3 0x324 JUMPI DUP2 SWAP1 PUSH1 0x1F SWAP4 DUP5 DUP2 GT PUSH3 0x3CA JUMPI JUMPDEST POP DUP11 SWAP1 DUP5 DUP4 GT PUSH1 0x1 EQ PUSH3 0x363 JUMPI DUP11 SWAP3 PUSH3 0x357 JUMPI JUMPDEST POP POP PUSH1 0x0 NOT PUSH1 0x3 DUP4 SWAP1 SHL SHR NOT AND SWAP1 DUP8 SHL OR PUSH1 0x2 SSTORE JUMPDEST DUP3 MLOAD SWAP2 DUP3 GT PUSH3 0x343 JUMPI PUSH1 0x3 SWAP3 DUP4 SLOAD DUP8 DUP2 DUP2 SHR SWAP2 AND DUP1 ISZERO PUSH3 0x338 JUMPI JUMPDEST DUP11 DUP3 LT EQ PUSH3 0x324 JUMPI SWAP1 DUP2 DUP4 DUP6 SWAP5 SWAP4 GT PUSH3 0x2CF JUMPI JUMPDEST POP DUP10 SWAP2 DUP4 GT PUSH1 0x1 EQ PUSH3 0x26C JUMPI DUP9 SWAP3 PUSH3 0x260 JUMPI JUMPDEST POP POP PUSH1 0x0 NOT DUP3 DUP5 SHL SHR NOT AND SWAP1 DUP6 SHL OR SWAP1 SSTORE JUMPDEST PUSH8 0xDE0B6B3A7640000 SWAP2 DUP3 DUP2 MUL SWAP3 DUP2 DUP5 DIV EQ SWAP1 ISZERO OR ISZERO PUSH3 0x24C JUMPI DUP2 DUP4 SSTORE PUSH1 0x5 DUP2 GT PUSH3 0x1FE JUMPI SWAP1 PUSH32 0xDDF252AD1BE2C89B69C2B068FC378DAA952BA7F163C4A11628F55A4DF523B3EF SWAP3 SWAP2 PUSH1 0x4 SSTORE CALLER DUP5 MSTORE PUSH1 0x5 DUP6 MSTORE DUP6 DUP5 KECCAK256 SSTORE PUSH1 0x7 DUP5 MSTORE DUP5 DUP4 KECCAK256 PUSH1 0xFF NOT SWAP1 DUP3 DUP3 DUP3 SLOAD AND OR SWAP1 SSTORE ADDRESS DUP5 MSTORE DUP2 DUP7 DUP6 KECCAK256 SWAP2 DUP3 SLOAD AND OR SWAP1 SSTORE SLOAD SWAP3 DUP5 MLOAD SWAP4 DUP5 MSTORE CALLER SWAP4 LOG3 MLOAD PUSH2 0xBCE SWAP1 DUP2 PUSH3 0x4DD DUP3 CODECOPY RETURN JUMPDEST DUP6 MLOAD PUSH3 0x461BCD PUSH1 0xE5 SHL DUP2 MSTORE PUSH1 0x4 DUP2 ADD DUP7 SWAP1 MSTORE PUSH1 0x21 PUSH1 0x24 DUP3 ADD MSTORE PUSH32 0x4D6178205472616E73616374696F6E2063616E6E6F7420657863656564203525 PUSH1 0x44 DUP3 ADD MSTORE PUSH1 0x17 PUSH1 0xF9 SHL PUSH1 0x64 DUP3 ADD MSTORE PUSH1 0x84 SWAP1 REVERT JUMPDEST PUSH4 0x4E487B71 PUSH1 0xE0 SHL DUP5 MSTORE PUSH1 0x11 PUSH1 0x4 MSTORE PUSH1 0x24 DUP5 REVERT JUMPDEST ADD MLOAD SWAP1 POP CODESIZE DUP1 PUSH3 0x15A JUMP JUMPDEST DUP5 DUP10 MSTORE DUP10 DUP10 KECCAK256 DUP9 SWAP5 POP SWAP2 SWAP1 PUSH1 0x1F NOT DUP5 AND DUP11 JUMPDEST DUP13 DUP3 DUP3 LT PUSH3 0x2B8 JUMPI POP POP DUP5 GT PUSH3 0x29F JUMPI JUMPDEST POP POP POP DUP2 SHL ADD SWAP1 SSTORE PUSH3 0x16C JUMP JUMPDEST ADD MLOAD PUSH1 0x0 NOT DUP4 DUP7 SHL PUSH1 0xF8 AND SHR NOT AND SWAP1 SSTORE CODESIZE DUP1 DUP1 PUSH3 0x291 JUMP JUMPDEST DUP4 DUP6 ADD MLOAD DUP7 SSTORE DUP12 SWAP8 SWAP1 SWAP6 ADD SWAP5 SWAP4 DUP5 ADD SWAP4 ADD PUSH3 0x27E JUMP JUMPDEST SWAP1 SWAP2 SWAP3 POP DUP5 DUP10 MSTORE DUP10 DUP10 KECCAK256 DUP4 DUP1 DUP7 ADD PUSH1 0x5 SHR DUP3 ADD SWAP3 DUP13 DUP8 LT PUSH3 0x31A JUMPI JUMPDEST SWAP2 DUP7 SWAP6 DUP12 SWAP3 SWAP6 SWAP5 SWAP4 ADD PUSH1 0x5 SHR ADD SWAP2 JUMPDEST DUP3 DUP2 LT PUSH3 0x30B JUMPI POP POP PUSH3 0x145 JUMP JUMPDEST DUP12 DUP2 SSTORE DUP7 SWAP6 POP DUP11 SWAP2 ADD PUSH3 0x2FB JUMP JUMPDEST SWAP3 POP DUP2 SWAP3 PUSH3 0x2EC JUMP JUMPDEST PUSH4 0x4E487B71 PUSH1 0xE0 SHL DUP10 MSTORE PUSH1 0x22 PUSH1 0x4 MSTORE PUSH1 0x24 DUP10 REVERT JUMPDEST SWAP1 PUSH1 0x7F AND SWAP1 PUSH3 0x12F JUMP JUMPDEST PUSH4 0x4E487B71 PUSH1 0xE0 SHL DUP8 MSTORE PUSH1 0x41 PUSH1 0x4 MSTORE PUSH1 0x24 DUP8 REVERT JUMPDEST ADD MLOAD SWAP1 POP CODESIZE DUP1 PUSH3 0xFD JUMP JUMPDEST PUSH1 0x2 DUP12 MSTORE DUP12 DUP12 KECCAK256 DUP11 SWAP5 POP SWAP2 SWAP1 PUSH1 0x1F NOT DUP5 AND DUP13 DUP15 JUMPDEST DUP3 DUP3 LT PUSH3 0x3B2 JUMPI POP POP DUP5 GT PUSH3 0x398 JUMPI JUMPDEST POP POP POP DUP2 SHL ADD PUSH1 0x2 SSTORE PUSH3 0x112 JUMP JUMPDEST ADD MLOAD PUSH1 0x0 NOT PUSH1 0xF8 DUP5 PUSH1 0x3 SHL AND SHR NOT AND SWAP1 SSTORE CODESIZE DUP1 DUP1 PUSH3 0x389 JUMP JUMPDEST DUP4 DUP6 ADD MLOAD DUP7 SSTORE DUP14 SWAP8 SWAP1 SWAP6 ADD SWAP5 SWAP4 DUP5 ADD SWAP4 ADD DUP15 PUSH3 0x377 JUMP JUMPDEST SWAP1 SWAP2 POP PUSH1 0x2 DUP11 MSTORE DUP11 DUP11 KECCAK256 DUP5 DUP1 DUP6 ADD PUSH1 0x5 SHR DUP3 ADD SWAP3 DUP14 DUP7 LT PUSH3 0x414 JUMPI JUMPDEST SWAP2 DUP12 SWAP2 DUP7 SWAP6 SWAP5 SWAP4 ADD PUSH1 0x5 SHR ADD SWAP2 JUMPDEST DUP3 DUP2 LT PUSH3 0x405 JUMPI POP POP PUSH3 0xE7 JUMP JUMPDEST DUP13 DUP2 SSTORE DUP6 SWAP5 POP DUP12 SWAP2 ADD PUSH3 0x3F5 JUMP JUMPDEST SWAP3 POP DUP2 SWAP3 PUSH3 0x3E7 JUMP JUMPDEST SWAP3 PUSH1 0x7F AND SWAP3 PUSH3 0xD0 JUMP JUMPDEST PUSH1 0x0 DUP1 REVERT JUMPDEST PUSH1 0x40 MLOAD SWAP2 SWAP1 PUSH1 0x1F ADD PUSH1 0x1F NOT AND DUP3 ADD PUSH1 0x1 PUSH1 0x1 PUSH1 0x40 SHL SUB DUP2 GT DUP4 DUP3 LT OR PUSH3 0x454 JUMPI PUSH1 0x40 MSTORE JUMP JUMPDEST PUSH4 0x4E487B71 PUSH1 0xE0 SHL PUSH1 0x0 MSTORE PUSH1 0x41 PUSH1 0x4 MSTORE PUSH1 0x24 PUSH1 0x0 REVERT JUMPDEST SWAP2 SWAP1 DUP1 PUSH1 0x1F DUP5 ADD SLT ISZERO PUSH3 0x429 JUMPI DUP3 MLOAD PUSH1 0x1 PUSH1 0x1 PUSH1 0x40 SHL SUB DUP2 GT PUSH3 0x454 JUMPI PUSH1 0x20 SWAP1 PUSH3 0x4A0 PUSH1 0x1F DUP3 ADD PUSH1 0x1F NOT AND DUP4 ADD PUSH3 0x42E JUMP JUMPDEST SWAP3 DUP2 DUP5 MSTORE DUP3 DUP3 DUP8 ADD ADD GT PUSH3 0x429 JUMPI PUSH1 0x0 JUMPDEST DUP2 DUP2 LT PUSH3 0x4C8 JUMPI POP DUP3 PUSH1 0x0 SWAP4 SWAP5 SWAP6 POP ADD ADD MSTORE SWAP1 JUMP JUMPDEST DUP6 DUP2 ADD DUP4 ADD MLOAD DUP5 DUP3 ADD DUP5 ADD MSTORE DUP3 ADD PUSH3 0x4B2 JUMP INVALID PUSH1 0x80 PUSH1 0x40 DUP2 DUP2 MSTORE PUSH1 0x4 SWAP2 DUP3 CALLDATASIZE LT ISZERO PUSH2 0x16 JUMPI PUSH1 0x0 DUP1 REVERT JUMPDEST PUSH1 0x0 SWAP3 DUP4 CALLDATALOAD PUSH1 0xE0 SHR SWAP2 DUP3 PUSH4 0x6FDDE03 EQ PUSH2 0x5B5 JUMPI POP DUP2 PUSH4 0x95EA7B3 EQ PUSH2 0x58B JUMPI DUP2 PUSH4 0x18160DDD EQ PUSH2 0x56C JUMPI DUP2 PUSH4 0x23B872DD EQ PUSH2 0x497 JUMPI DUP2 PUSH4 0x313CE567 EQ PUSH2 0x47B JUMPI DUP2 PUSH4 0x70A08231 EQ PUSH2 0x443 JUMPI DUP2 PUSH4 0x715018A6 EQ PUSH2 0x3E4 JUMPI DUP2 PUSH4 0x7437681E EQ PUSH2 0x3C6 JUMPI DUP2 PUSH4 0x8DA5CB5B EQ PUSH2 0x39E JUMPI DUP2 PUSH4 0x95D89B41 EQ PUSH2 0x299 JUMPI DUP2 PUSH4 0xA9059CBB EQ PUSH2 0x268 JUMPI DUP2 PUSH4 0xC2D0FFCA EQ PUSH2 0x1B9 JUMPI DUP2 PUSH4 0xDB4CF1E0 EQ PUSH2 0x10A JUMPI POP PUSH4 0xDD62ED3E EQ PUSH2 0xBF JUMPI PUSH1 0x0 DUP1 REVERT JUMPDEST CALLVALUE PUSH2 0x106 JUMPI DUP1 PUSH1 0x3 NOT CALLDATASIZE ADD SLT PUSH2 0x106 JUMPI DUP1 PUSH1 0x20 SWAP3 PUSH2 0xDB PUSH2 0x6BD JUMP JUMPDEST PUSH2 0xE3 PUSH2 0x6D8 JUMP JUMPDEST PUSH1 0x1 PUSH1 0x1 PUSH1 0xA0 SHL SUB SWAP2 DUP3 AND DUP4 MSTORE PUSH1 0x6 DUP7 MSTORE DUP4 DUP4 KECCAK256 SWAP2 AND DUP3 MSTORE DUP5 MSTORE KECCAK256 SLOAD SWAP1 MLOAD SWAP1 DUP2 MSTORE RETURN JUMPDEST POP DUP1 REVERT JUMPDEST SWAP1 POP CALLVALUE PUSH2 0x1B5 JUMPI PUSH1 0x20 CALLDATASIZE PUSH1 0x3 NOT ADD SLT PUSH2 0x1B5 JUMPI PUSH2 0x125 PUSH2 0x6BD JUMP JUMPDEST DUP4 SLOAD PUSH1 0x1 PUSH1 0x1 PUSH1 0xA0 SHL SUB SWAP2 SWAP1 PUSH2 0x13E SWAP1 DUP4 AND CALLER EQ PUSH2 0x726 JUMP JUMPDEST AND SWAP1 DUP2 ISZERO PUSH2 0x15E JUMPI POP DUP3 MSTORE PUSH1 0x7 PUSH1 0x20 MSTORE DUP2 KECCAK256 DUP1 SLOAD PUSH1 0xFF NOT AND PUSH1 0x1 OR SWAP1 SSTORE DUP1 RETURN JUMPDEST PUSH1 0x84 SWAP1 PUSH1 0x20 DUP5 MLOAD SWAP2 PUSH3 0x461BCD PUSH1 0xE5 SHL DUP4 MSTORE DUP3 ADD MSTORE PUSH1 0x2B PUSH1 0x24 DUP3 ADD MSTORE PUSH32 0x45524332303A204578636C756465204D61782054782066726F6D20746865207A PUSH1 0x44 DUP3 ADD MSTORE PUSH11 0x65726F2061646472657373 PUSH1 0xA8 SHL PUSH1 0x64 DUP3 ADD MSTORE REVERT JUMPDEST DUP3 DUP1 REVERT JUMPDEST SWAP2 SWAP1 POP CALLVALUE PUSH2 0x1B5 JUMPI PUSH1 0x20 CALLDATASIZE PUSH1 0x3 NOT ADD SLT PUSH2 0x1B5 JUMPI DUP2 CALLDATALOAD SWAP2 PUSH2 0x1E4 PUSH1 0x1 DUP1 PUSH1 0xA0 SHL SUB DUP6 SLOAD AND CALLER EQ PUSH2 0x726 JUMP JUMPDEST PUSH1 0x5 DUP4 GT PUSH2 0x21C JUMPI SWAP2 PUSH1 0x20 SWAP2 DUP2 PUSH32 0xFF3DD5E80294197918C284BBFC3DADD97D0B40CE92106110946329088F80068A SWAP5 SSTORE MLOAD SWAP1 DUP2 MSTORE LOG1 DUP1 RETURN JUMPDEST PUSH1 0x20 PUSH1 0x84 SWAP3 MLOAD SWAP2 PUSH3 0x461BCD PUSH1 0xE5 SHL DUP4 MSTORE DUP3 ADD MSTORE PUSH1 0x21 PUSH1 0x24 DUP3 ADD MSTORE PUSH32 0x4D6178205472616E73616374696F6E2063616E6E6F7420657863656564203525 PUSH1 0x44 DUP3 ADD MSTORE PUSH1 0x17 PUSH1 0xF9 SHL PUSH1 0x64 DUP3 ADD MSTORE REVERT JUMPDEST POP POP CALLVALUE PUSH2 0x106 JUMPI DUP1 PUSH1 0x3 NOT CALLDATASIZE ADD SLT PUSH2 0x106 JUMPI PUSH1 0x20 SWAP1 PUSH2 0x292 PUSH2 0x288 PUSH2 0x6BD JUMP JUMPDEST PUSH1 0x24 CALLDATALOAD SWAP1 CALLER PUSH2 0x873 JUMP JUMPDEST MLOAD PUSH1 0x1 DUP2 MSTORE RETURN JUMPDEST SWAP2 SWAP1 POP CALLVALUE PUSH2 0x1B5 JUMPI DUP3 PUSH1 0x3 NOT CALLDATASIZE ADD SLT PUSH2 0x1B5 JUMPI DUP1 MLOAD SWAP2 DUP4 PUSH1 0x3 SLOAD SWAP1 PUSH1 0x1 SWAP1 DUP3 PUSH1 0x1 SHR SWAP3 PUSH1 0x1 DUP2 AND DUP1 ISZERO PUSH2 0x394 JUMPI JUMPDEST PUSH1 0x20 SWAP6 DUP7 DUP7 LT DUP3 EQ PUSH2 0x381 JUMPI POP DUP5 DUP9 MSTORE SWAP1 DUP2 ISZERO PUSH2 0x35F JUMPI POP PUSH1 0x1 EQ PUSH2 0x306 JUMPI JUMPDEST PUSH2 0x302 DUP7 DUP7 PUSH2 0x2F8 DUP3 DUP12 SUB DUP4 PUSH2 0x6EE JUMP JUMPDEST MLOAD SWAP2 DUP3 SWAP2 DUP3 PUSH2 0x674 JUMP JUMPDEST SUB SWAP1 RETURN JUMPDEST SWAP3 SWAP6 POP PUSH1 0x3 DUP4 MSTORE PUSH32 0xC2575A0E9E593C00F959F8C92F12DB2869C3395A3B0502D05E2516446F71F85B JUMPDEST DUP3 DUP5 LT PUSH2 0x34C JUMPI POP POP POP DUP3 PUSH2 0x302 SWAP5 PUSH2 0x2F8 SWAP3 DUP3 ADD ADD SWAP5 CODESIZE PUSH2 0x2E7 JUMP JUMPDEST DUP1 SLOAD DUP7 DUP6 ADD DUP9 ADD MSTORE SWAP3 DUP7 ADD SWAP3 DUP2 ADD PUSH2 0x32F JUMP JUMPDEST PUSH1 0xFF NOT AND DUP8 DUP7 ADD MSTORE POP POP POP ISZERO ISZERO PUSH1 0x5 SHL DUP4 ADD ADD SWAP3 POP PUSH2 0x2F8 DUP3 PUSH2 0x302 CODESIZE PUSH2 0x2E7 JUMP JUMPDEST PUSH4 0x4E487B71 PUSH1 0xE0 SHL DUP5 MSTORE PUSH1 0x22 SWAP1 MSTORE PUSH1 0x24 DUP4 REVERT JUMPDEST SWAP4 PUSH1 0x7F AND SWAP4 PUSH2 0x2C7 JUMP JUMPDEST POP POP CALLVALUE PUSH2 0x106 JUMPI DUP2 PUSH1 0x3 NOT CALLDATASIZE ADD SLT PUSH2 0x106 JUMPI SWAP1 SLOAD SWAP1 MLOAD PUSH1 0x1 PUSH1 0x1 PUSH1 0xA0 SHL SUB SWAP1 SWAP2 AND DUP2 MSTORE PUSH1 0x20 SWAP1 RETURN JUMPDEST SWAP1 POP CALLVALUE PUSH2 0x1B5 JUMPI DUP3 PUSH1 0x3 NOT CALLDATASIZE ADD SLT PUSH2 0x1B5 JUMPI PUSH1 0x20 SWAP3 POP SLOAD SWAP1 MLOAD SWAP1 DUP2 MSTORE RETURN JUMPDEST DUP4 CALLVALUE PUSH2 0x440 JUMPI DUP1 PUSH1 0x3 NOT CALLDATASIZE ADD SLT PUSH2 0x440 JUMPI DUP1 SLOAD DUP2 PUSH1 0x1 PUSH1 0x1 PUSH1 0xA0 SHL SUB DUP3 AND PUSH2 0x40D CALLER DUP3 EQ PUSH2 0x726 JUMP JUMPDEST PUSH32 0x8BE0079C531659141344CD1FD0A4F28419497F9722A3DAAFE3B4186F6B6457E0 DUP3 DUP1 LOG3 PUSH1 0x1 PUSH1 0x1 PUSH1 0xA0 SHL SUB NOT AND DUP2 SSTORE DUP1 RETURN JUMPDEST DUP1 REVERT JUMPDEST POP POP CALLVALUE PUSH2 0x106 JUMPI PUSH1 0x20 CALLDATASIZE PUSH1 0x3 NOT ADD SLT PUSH2 0x106 JUMPI PUSH1 0x20 SWAP2 DUP2 SWAP1 PUSH1 0x1 PUSH1 0x1 PUSH1 0xA0 SHL SUB PUSH2 0x46B PUSH2 0x6BD JUMP JUMPDEST AND DUP2 MSTORE PUSH1 0x5 DUP5 MSTORE KECCAK256 SLOAD SWAP1 MLOAD SWAP1 DUP2 MSTORE RETURN JUMPDEST POP POP CALLVALUE PUSH2 0x106 JUMPI DUP2 PUSH1 0x3 NOT CALLDATASIZE ADD SLT PUSH2 0x106 JUMPI PUSH1 0x20 SWAP1 MLOAD PUSH1 0x12 DUP2 MSTORE RETURN JUMPDEST DUP3 DUP5 CALLVALUE PUSH2 0x440 JUMPI PUSH1 0x60 CALLDATASIZE PUSH1 0x3 NOT ADD SLT PUSH2 0x440 JUMPI PUSH2 0x4B2 PUSH2 0x6BD JUMP JUMPDEST SWAP1 PUSH2 0x4BB PUSH2 0x6D8 JUMP JUMPDEST PUSH2 0x4C9 PUSH1 0x44 CALLDATALOAD DUP1 SWAP3 DUP6 PUSH2 0x873 JUMP JUMPDEST PUSH1 0x1 PUSH1 0x1 PUSH1 0xA0 SHL SUB DUP4 AND DUP3 MSTORE PUSH1 0x6 PUSH1 0x20 SWAP1 DUP2 MSTORE DUP5 DUP4 KECCAK256 CALLER DUP5 MSTORE SWAP1 MSTORE DUP4 DUP3 KECCAK256 SLOAD DUP5 MLOAD SWAP3 PUSH1 0x60 DUP5 ADD SWAP1 PUSH8 0xFFFFFFFFFFFFFFFF DUP3 GT DUP6 DUP4 LT OR PUSH2 0x559 JUMPI PUSH1 0x20 DUP8 PUSH2 0x292 DUP9 PUSH2 0x551 DUP10 DUP10 DUP10 DUP10 DUP8 MSTORE PUSH1 0x28 DUP4 MSTORE PUSH32 0x45524332303A207472616E7366657220616D6F756E7420657863656564732061 DUP9 DUP5 ADD MSTORE PUSH8 0x6C6C6F77616E6365 PUSH1 0xC0 SHL DUP8 DUP5 ADD MSTORE PUSH2 0xB4D JUMP JUMPDEST SWAP1 CALLER SWAP1 PUSH2 0x771 JUMP JUMPDEST PUSH4 0x4E487B71 PUSH1 0xE0 SHL DUP2 MSTORE PUSH1 0x41 DUP9 MSTORE PUSH1 0x24 SWAP1 REVERT JUMPDEST POP POP CALLVALUE PUSH2 0x106 JUMPI DUP2 PUSH1 0x3 NOT CALLDATASIZE ADD SLT PUSH2 0x106 JUMPI PUSH1 0x20 SWAP1 PUSH1 0x1 SLOAD SWAP1 MLOAD SWAP1 DUP2 MSTORE RETURN JUMPDEST POP POP CALLVALUE PUSH2 0x106 JUMPI DUP1 PUSH1 0x3 NOT CALLDATASIZE ADD SLT PUSH2 0x106 JUMPI PUSH1 0x20 SWAP1 PUSH2 0x292 PUSH2 0x5AB PUSH2 0x6BD JUMP JUMPDEST PUSH1 0x24 CALLDATALOAD SWAP1 CALLER PUSH2 0x771 JUMP JUMPDEST SWAP3 SWAP2 POP CALLVALUE PUSH2 0x670 JUMPI DUP4 PUSH1 0x3 NOT CALLDATASIZE ADD SLT PUSH2 0x670 JUMPI PUSH1 0x2 SLOAD PUSH1 0x1 DUP2 DUP2 SHR SWAP2 DUP7 SWAP1 DUP3 DUP2 AND DUP1 ISZERO PUSH2 0x666 JUMPI JUMPDEST PUSH1 0x20 SWAP6 DUP7 DUP7 LT DUP3 EQ PUSH2 0x381 JUMPI POP DUP5 DUP9 MSTORE SWAP1 DUP2 ISZERO PUSH2 0x35F JUMPI POP PUSH1 0x1 EQ PUSH2 0x60D JUMPI PUSH2 0x302 DUP7 DUP7 PUSH2 0x2F8 DUP3 DUP12 SUB DUP4 PUSH2 0x6EE JUMP JUMPDEST SWAP3 SWAP6 POP PUSH1 0x2 DUP4 MSTORE PUSH32 0x405787FA12A823E0F2B7631CC41B3BA8828B3321CA811111FA75CD3AA3BB5ACE JUMPDEST DUP3 DUP5 LT PUSH2 0x653 JUMPI POP POP POP DUP3 PUSH2 0x302 SWAP5 PUSH2 0x2F8 SWAP3 DUP3 ADD ADD SWAP5 CODESIZE PUSH2 0x2E7 JUMP JUMPDEST DUP1 SLOAD DUP7 DUP6 ADD DUP9 ADD MSTORE SWAP3 DUP7 ADD SWAP3 DUP2 ADD PUSH2 0x636 JUMP JUMPDEST SWAP4 PUSH1 0x7F AND SWAP4 PUSH2 0x5DD JUMP JUMPDEST DUP4 DUP1 REVERT JUMPDEST PUSH1 0x20 DUP1 DUP3 MSTORE DUP3 MLOAD DUP2 DUP4 ADD DUP2 SWAP1 MSTORE SWAP1 SWAP4 SWAP3 PUSH1 0x0 JUMPDEST DUP3 DUP2 LT PUSH2 0x6A9 JUMPI POP POP PUSH1 0x40 SWAP3 SWAP4 POP PUSH1 0x0 DUP4 DUP3 DUP5 ADD ADD MSTORE PUSH1 0x1F DUP1 NOT SWAP2 ADD AND ADD ADD SWAP1 JUMP JUMPDEST DUP2 DUP2 ADD DUP7 ADD MLOAD DUP5 DUP3 ADD PUSH1 0x40 ADD MSTORE DUP6 ADD PUSH2 0x687 JUMP JUMPDEST PUSH1 0x4 CALLDATALOAD SWAP1 PUSH1 0x1 PUSH1 0x1 PUSH1 0xA0 SHL SUB DUP3 AND DUP3 SUB PUSH2 0x6D3 JUMPI JUMP JUMPDEST PUSH1 0x0 DUP1 REVERT JUMPDEST PUSH1 0x24 CALLDATALOAD SWAP1 PUSH1 0x1 PUSH1 0x1 PUSH1 0xA0 SHL SUB DUP3 AND DUP3 SUB PUSH2 0x6D3 JUMPI JUMP JUMPDEST SWAP1 PUSH1 0x1F DUP1 NOT SWAP2 ADD AND DUP2 ADD SWAP1 DUP2 LT PUSH8 0xFFFFFFFFFFFFFFFF DUP3 GT OR PUSH2 0x710 JUMPI PUSH1 0x40 MSTORE JUMP JUMPDEST PUSH4 0x4E487B71 PUSH1 0xE0 SHL PUSH1 0x0 MSTORE PUSH1 0x41 PUSH1 0x4 MSTORE PUSH1 0x24 PUSH1 0x0 REVERT JUMPDEST ISZERO PUSH2 0x72D JUMPI JUMP JUMPDEST PUSH1 0x64 PUSH1 0x40 MLOAD PUSH3 0x461BCD PUSH1 0xE5 SHL DUP2 MSTORE PUSH1 0x20 PUSH1 0x4 DUP3 ADD MSTORE PUSH1 0x20 PUSH1 0x24 DUP3 ADD MSTORE PUSH32 0x4F776E61626C653A2063616C6C6572206973206E6F7420746865206F776E6572 PUSH1 0x44 DUP3 ADD MSTORE REVERT JUMPDEST PUSH1 0x1 PUSH1 0x1 PUSH1 0xA0 SHL SUB SWAP1 DUP2 AND SWAP2 DUP3 ISZERO PUSH2 0x822 JUMPI AND SWAP2 DUP3 ISZERO PUSH2 0x7D2 JUMPI PUSH1 0x20 PUSH32 0x8C5BE1E5EBEC7D5BD14F71427D1E84F3DD0314C0F7B2291E5B200AC8C7C3B925 SWAP2 DUP4 PUSH1 0x0 MSTORE PUSH1 0x6 DUP3 MSTORE PUSH1 0x40 PUSH1 0x0 KECCAK256 DUP6 PUSH1 0x0 MSTORE DUP3 MSTORE DUP1 PUSH1 0x40 PUSH1 0x0 KECCAK256 SSTORE PUSH1 0x40 MLOAD SWAP1 DUP2 MSTORE LOG3 JUMP JUMPDEST PUSH1 0x40 MLOAD PUSH3 0x461BCD PUSH1 0xE5 SHL DUP2 MSTORE PUSH1 0x20 PUSH1 0x4 DUP3 ADD MSTORE PUSH1 0x22 PUSH1 0x24 DUP3 ADD MSTORE PUSH32 0x45524332303A20617070726F766520746F20746865207A65726F206164647265 PUSH1 0x44 DUP3 ADD MSTORE PUSH2 0x7373 PUSH1 0xF0 SHL PUSH1 0x64 DUP3 ADD MSTORE PUSH1 0x84 SWAP1 REVERT JUMPDEST PUSH1 0x40 MLOAD PUSH3 0x461BCD PUSH1 0xE5 SHL DUP2 MSTORE PUSH1 0x20 PUSH1 0x4 DUP3 ADD MSTORE PUSH1 0x24 DUP1 DUP3 ADD MSTORE PUSH32 0x45524332303A20617070726F76652066726F6D20746865207A65726F20616464 PUSH1 0x44 DUP3 ADD MSTORE PUSH4 0x72657373 PUSH1 0xE0 SHL PUSH1 0x64 DUP3 ADD MSTORE PUSH1 0x84 SWAP1 REVERT JUMPDEST SWAP2 SWAP3 SWAP2 PUSH1 0x1 PUSH1 0x1 PUSH1 0xA0 SHL SUB SWAP1 DUP2 AND SWAP2 DUP3 ISZERO PUSH2 0xAFA JUMPI AND SWAP1 DUP2 ISZERO PUSH2 0xAA9 JUMPI DUP4 ISZERO PUSH2 0xA52 JUMPI PUSH1 0x4 DUP1 SLOAD SWAP5 PUSH1 0x1 SLOAD SWAP6 DUP7 DUP2 MUL SWAP7 DUP2 DUP9 DIV EQ SWAP1 ISZERO OR ISZERO PUSH2 0xA3D JUMPI PUSH1 0x0 SWAP6 DUP4 DUP8 MSTORE PUSH1 0x20 SWAP3 PUSH1 0x7 DUP5 MSTORE PUSH1 0x40 SWAP2 PUSH1 0xFF DUP4 DUP11 KECCAK256 SLOAD AND ISZERO PUSH2 0x9EC JUMPI JUMPDEST POP DUP5 DUP9 MSTORE PUSH1 0x5 DUP5 MSTORE DUP2 DUP9 KECCAK256 SLOAD DUP3 MLOAD SWAP1 DUP4 DUP3 ADD DUP3 DUP2 LT PUSH8 0xFFFFFFFFFFFFFFFF DUP3 GT OR PUSH2 0x9D9 JUMPI PUSH2 0x928 SWAP3 SWAP2 DUP7 SWAP2 DUP7 MSTORE PUSH1 0x1E DUP4 MSTORE PUSH32 0x536166654D6174683A207375627472616374696F6E206F766572666C6F770000 DUP9 DUP5 ADD MSTORE PUSH2 0xB4D JUMP JUMPDEST DUP6 DUP10 MSTORE PUSH1 0x5 DUP6 MSTORE DUP3 DUP10 KECCAK256 SSTORE DUP6 DUP9 MSTORE DUP2 DUP9 KECCAK256 SLOAD SWAP1 DUP4 DUP3 ADD SWAP2 DUP3 DUP2 GT PUSH2 0x9C6 JUMPI DUP3 LT PUSH2 0x983 JUMPI POP DUP2 DUP9 DUP8 PUSH32 0xDDF252AD1BE2C89B69C2B068FC378DAA952BA7F163C4A11628F55A4DF523B3EF SWAP8 SWAP9 SWAP10 SWAP11 MSTORE PUSH1 0x5 DUP7 MSTORE KECCAK256 SSTORE MLOAD SWAP1 DUP2 MSTORE LOG3 JUMP JUMPDEST DUP3 MLOAD PUSH3 0x461BCD PUSH1 0xE5 SHL DUP2 MSTORE SWAP1 DUP2 ADD DUP6 SWAP1 MSTORE PUSH1 0x1B PUSH1 0x24 DUP3 ADD MSTORE PUSH32 0x536166654D6174683A206164646974696F6E206F766572666C6F770000000000 PUSH1 0x44 DUP3 ADD MSTORE PUSH1 0x64 SWAP1 REVERT JUMPDEST PUSH4 0x4E487B71 PUSH1 0xE0 SHL DUP11 MSTORE PUSH1 0x11 DUP3 MSTORE PUSH1 0x24 DUP11 REVERT JUMPDEST PUSH4 0x4E487B71 PUSH1 0xE0 SHL DUP12 MSTORE PUSH1 0x41 DUP5 MSTORE PUSH1 0x24 DUP12 REVERT JUMPDEST PUSH1 0x64 SWAP1 DIV DUP4 GT PUSH2 0x9FC JUMPI CODESIZE PUSH2 0x8CC JUMP JUMPDEST DUP4 PUSH1 0x64 SWAP3 MLOAD SWAP2 PUSH3 0x461BCD PUSH1 0xE5 SHL DUP4 MSTORE DUP3 ADD MSTORE PUSH1 0x18 PUSH1 0x24 DUP3 ADD MSTORE PUSH32 0x4578636565647320746865204D61785478416D6F756E742E0000000000000000 PUSH1 0x44 DUP3 ADD MSTORE REVERT JUMPDEST PUSH1 0x11 DUP3 PUSH4 0x4E487B71 PUSH1 0xE0 SHL PUSH1 0x0 MSTORE MSTORE PUSH1 0x24 PUSH1 0x0 REVERT JUMPDEST PUSH1 0x40 MLOAD PUSH3 0x461BCD PUSH1 0xE5 SHL DUP2 MSTORE PUSH1 0x20 PUSH1 0x4 DUP3 ADD MSTORE PUSH1 0x29 PUSH1 0x24 DUP3 ADD MSTORE PUSH32 0x5472616E7366657220616D6F756E74206D757374206265206772656174657220 PUSH1 0x44 DUP3 ADD MSTORE PUSH9 0x7468616E207A65726F PUSH1 0xB8 SHL PUSH1 0x64 DUP3 ADD MSTORE PUSH1 0x84 SWAP1 REVERT JUMPDEST PUSH1 0x40 MLOAD PUSH3 0x461BCD PUSH1 0xE5 SHL DUP2 MSTORE PUSH1 0x20 PUSH1 0x4 DUP3 ADD MSTORE PUSH1 0x23 PUSH1 0x24 DUP3 ADD MSTORE PUSH32 0x45524332303A207472616E7366657220746F20746865207A65726F2061646472 PUSH1 0x44 DUP3 ADD MSTORE PUSH3 0x657373 PUSH1 0xE8 SHL PUSH1 0x64 DUP3 ADD MSTORE PUSH1 0x84 SWAP1 REVERT JUMPDEST PUSH1 0x40 MLOAD PUSH3 0x461BCD PUSH1 0xE5 SHL DUP2 MSTORE PUSH1 0x20 PUSH1 0x4 DUP3 ADD MSTORE PUSH1 0x25 PUSH1 0x24 DUP3 ADD MSTORE PUSH32 0x45524332303A207472616E736665722066726F6D20746865207A65726F206164 PUSH1 0x44 DUP3 ADD MSTORE PUSH5 0x6472657373 PUSH1 0xD8 SHL PUSH1 0x64 DUP3 ADD MSTORE PUSH1 0x84 SWAP1 REVERT JUMPDEST SWAP2 DUP3 DUP3 GT PUSH2 0xB78 JUMPI POP DUP2 SUB SWAP1 DUP2 GT PUSH2 0xB62 JUMPI SWAP1 JUMP JUMPDEST PUSH4 0x4E487B71 PUSH1 0xE0 SHL PUSH1 0x0 MSTORE PUSH1 0x11 PUSH1 0x4 MSTORE PUSH1 0x24 PUSH1 0x0 REVERT JUMPDEST PUSH1 0x40 MLOAD PUSH3 0x461BCD PUSH1 0xE5 SHL DUP2 MSTORE SWAP1 DUP2 SWAP1 PUSH2 0xB94 SWAP1 PUSH1 0x4 DUP4 ADD PUSH2 0x674 JUMP JUMPDEST SUB SWAP1 REVERT INVALID LOG2 PUSH5 0x6970667358 0x22 SLT KECCAK256 0xC4 SWAP15 SSTORE SELFBALANCE BLOCKHASH 0xCB PUSH18 0xAA09A85B3746B1A934ACBFB9371A9F5EEFD2 PUSH27 0x7B626EA785F264736F6C63430008180033A2646970667358221220 0xF6 DUP12 0xBC CALLDATALOAD 0xEE XOR 0x1E SWAP12 ADDMOD DUP12 CALLVALUE DUP5 SWAP2 BLOBHASH 0x4B SGT RETURN DUP3 0xE7 CALLCODE DUP7 0xCB 0xAE BLOBBASEFEE 0x21 PUSH11 0x2A960926938064736F6C63 NUMBER STOP ADDMOD XOR STOP CALLER "
        },
        "methodIdentifiers": {
          "approval(address,address,uint256)": "5c52a5f2",
          "deploy(address)": "4c96a389",
          "feeTo()": "017e7e58",
          "feeToSetter()": "094b7415",
          "getTokenData(address)": "13ff7e9f",
          "getTokens()": "aa6ca808",
          "getTokensData()": "09402ebd",
          "getUserTokens()": "8a664ebc",
          "launch(string,string,string,string,string[4],uint256,uint256)": "ad256f7d",
          "launchFee()": "cf3cf573",
          "liquidityFee()": "98118cb4",
          "marketCapLimit()": "80997e47",
          "profile(address)": "9dd9d0fd",
          "profiles(uint256)": "c36fe3d6",
          "setFeeTo(address)": "f46901ed",
          "swapETHForTokens(address,address,address)": "57f8d901",
          "swapTokensForETH(uint256,address,address,address)": "512b1e6e",
          "token(address)": "6d46a1db",
          "tokens(uint256)": "4f64b2be",
          "updateLaunchFee(uint256)": "7660f44a",
          "withdraw()": "3ccfd60b"
        }
      }
    }
  }
}