{
  "_format": "hh-sol-artifact-1",
  "contractName": "Router",
  "sourceName": "contracts/Router.sol",
  "abi": [
    {
      "inputs": [
        {
          "internalType": "address",
          "name": "factory_",
          "type": "address"
        },
        {
          "internalType": "address",
          "name": "weth",
          "type": "address"
        }
      ],
      "stateMutability": "nonpayable",
      "type": "constructor"
    },
    {
      "inputs": [],
      "name": "WETH",
      "outputs": [
        {
          "internalType": "address",
          "name": "",
          "type": "address"
        }
      ],
      "stateMutability": "view",
      "type": "function"
    },
    {
      "inputs": [
        {
          "internalType": "address",
          "name": "token",
          "type": "address"
        },
        {
          "internalType": "uint256",
          "name": "amountToken",
          "type": "uint256"
        }
      ],
      "name": "addLiquidityETH",
      "outputs": [
        {
          "internalType": "uint256",
          "name": "",
          "type": "uint256"
        },
        {
          "internalType": "uint256",
          "name": "",
          "type": "uint256"
        }
      ],
      "stateMutability": "payable",
      "type": "function"
    },
    {
      "inputs": [],
      "name": "factory",
      "outputs": [
        {
          "internalType": "address",
          "name": "",
          "type": "address"
        }
      ],
      "stateMutability": "view",
      "type": "function"
    },
    {
      "inputs": [
        {
          "internalType": "address",
          "name": "token",
          "type": "address"
        },
        {
          "internalType": "uint256",
          "name": "amountIn",
          "type": "uint256"
        }
      ],
      "name": "getAmountsOut",
      "outputs": [
        {
          "internalType": "uint256",
          "name": "_amountOut",
          "type": "uint256"
        }
      ],
      "stateMutability": "view",
      "type": "function"
    },
    {
      "inputs": [
        {
          "internalType": "address",
          "name": "token",
          "type": "address"
        },
        {
          "internalType": "uint256",
          "name": "liquidity",
          "type": "uint256"
        },
        {
          "internalType": "address",
          "name": "to",
          "type": "address"
        }
      ],
      "name": "removeLiquidityETH",
      "outputs": [
        {
          "internalType": "uint256",
          "name": "",
          "type": "uint256"
        },
        {
          "internalType": "uint256",
          "name": "",
          "type": "uint256"
        }
      ],
      "stateMutability": "payable",
      "type": "function"
    },
    {
      "inputs": [
        {
          "internalType": "address",
          "name": "token",
          "type": "address"
        },
        {
          "internalType": "address",
          "name": "to",
          "type": "address"
        }
      ],
      "name": "swapETHForTokens",
      "outputs": [
        {
          "internalType": "uint256",
          "name": "",
          "type": "uint256"
        },
        {
          "internalType": "uint256",
          "name": "",
          "type": "uint256"
        }
      ],
      "stateMutability": "payable",
      "type": "function"
    },
    {
      "inputs": [
        {
          "internalType": "uint256",
          "name": "amountIn",
          "type": "uint256"
        },
        {
          "internalType": "address",
          "name": "token",
          "type": "address"
        },
        {
          "internalType": "address",
          "name": "to",
          "type": "address"
        }
      ],
      "name": "swapTokensForETH",
      "outputs": [
        {
          "internalType": "uint256",
          "name": "",
          "type": "uint256"
        },
        {
          "internalType": "uint256",
          "name": "",
          "type": "uint256"
        }
      ],
      "stateMutability": "nonpayable",
      "type": "function"
    }
  ],
  "bytecode": "0x60803461008d57601f610fc838819003918201601f19168301916001600160401b0383118484101761009257808492604094855283398101031261008d57610052602061004b836100a8565b92016100a8565b600080546001600160a01b039384166001600160a01b03199182161790915560018054929093169116179055604051610f0b90816100bd8239f35b600080fd5b634e487b7160e01b600052604160045260246000fd5b51906001600160a01b038216820361008d5756fe60806040908082526004908136101561001757600080fd5b600090813560e01c9081636bf09f10146107cf575080637282d5481461064b5780637f54a36914610356578063ad5c46481461032d578063b682894b146102fd578063c45a0155146102d15763e79a40891461007257600080fd5b60603660031901126102ce576100e2610089610a74565b9160243592610096610a5e565b8254600154885163e6a4390560e01b81526001600160a01b03858116828b0190815292811660208481019190915291999197909591949193919288928b92908816918391829160400190565b03915afa9788156102c4578598610295575b508851630240bc6b60e21b815288851694906060818681895afa801561028b576064916101379189918a91610250575b5061013084918d610b15565b049a610b15565b04986101438984610c97565b1561024c578a516323b872dd60e01b81526001600160a01b03918216868201908152939091166020840152604083018a90529287928492839189919083906060010393165af1908115610242578491610225575b5015610221578651631d24e23160e21b815290810186815260208101869052336040820152909291849184919082908590829060600103925af190811561021657506101e9575b508351928352820152f35b61020890823d841161020f575b6102008183610abc565b810190610afd565b50386101de565b503d6101f6565b8651903d90823e3d90fd5b8280fd5b61023c9150853d871161020f576102008183610abc565b38610197565b88513d86823e3d90fd5b8680fd5b61013092508491506102799060603d606011610284575b6102718183610abc565b810190610b6b565b509290929150610124565b503d610267565b8b513d89823e3d90fd5b6102b6919850863d88116102bd575b6102ae8183610abc565b810190610ade565b96386100f4565b503d6102a4565b89513d87823e3d90fd5b80fd5b5082346102f957816003193601126102f957905490516001600160a01b039091168152602090f35b5080fd5b5082346102f957806003193601126102f95760209061032661031d610a74565b60243590610b86565b9051908152f35b5082346102f957816003193601126102f95760015490516001600160a01b039091168152602090f35b50826003193601126102ce5761036a610a74565b90610373610a43565b8154600154865163e6a4390560e01b81526001600160a01b0386811682890190815292811660208481018290529894821697909695909390929089908290819060400103818b5afa908115610641578691610624575b506103d8828216973490610b86565b8a51632e2952f960e11b8152308782019081526001600160a01b0387166020820152604081018390529199918b908290819060600103818b8d5af19081156105fd578891610607575b501561024c578a5163cf82046160e01b81528a818881855afa9081156105fd578b88928e928b916105c6575b5061045b6064913490610b15565b04936104678534610b5e565b9251622fcfcb60e31b815293849182905afa9182156105bc578992610599575b506104929084610c97565b1561059557906104a191610c97565b156105915789516323b872dd60e01b81526001600160a01b03918216868201908152939091166020840152604083018890529288928492839188919083906060010393165af190811561058757839161056a575b50156102f95781608486928289519687948593635673b02d60e01b85528401528860248401523460448401528160648401525af190811561055f5750610542575b50825191348352820152f35b61055890833d851161020f576102008183610abc565b5038610536565b8551903d90823e3d90fd5b6105819150863d881161020f576102008183610abc565b386104f5565b87513d85823e3d90fd5b8580fd5b8780fd5b6104929192506105b5908d803d106102bd576102ae8183610abc565b9190610487565b8d513d8b823e3d90fd5b935050905081813d83116105f6575b6105df8183610abc565b81010312610595575186908c908c9061045b61044d565b503d6105d5565b8c513d8a823e3d90fd5b61061e91508b3d8d1161020f576102008183610abc565b38610421565b61063b9150893d8b116102bd576102ae8183610abc565b386103c9565b8a513d88823e3d90fd5b5090826003193601126102f9576106b190610664610a74565b8354600154865163e6a4390560e01b81526001600160a01b038085168287019081529281166020848101919091526024359890979196909592949093889286928916918391829160400190565b03915afa9283156102425784936107b0575b506106ce3484610c97565b156107ac5787516323b872dd60e01b8152338382019081526001600160a01b0385166020820152604081018990529091879183919082900360600190829088908a165af190811561024257849161078f575b501561022157865163e7d3fe6b60e01b81529081018681523460208201523360408201529093859285928390036060019183918691165af190811561055f5750610772575b5082519182523490820152f35b61078890823d841161020f576102008183610abc565b5038610765565b6107a69150863d881161020f576102008183610abc565b38610720565b8380fd5b6107c8919350863d88116102bd576102ae8183610abc565b91386106c3565b84915083346107ac5760603660031901126107ac578035916107ef610a43565b946107f8610a5e565b815460015463e6a4390560e01b85526001600160a01b03898116868801908152918116602083810191909152969390928316918790879081906040010381855afa9586156102c457888a9b8992889c9b9c99610a1e575b5090818989888a610862868a9998610b86565b9f516323b872dd60e01b81526001600160a01b0398891691810191825297909316602084015260408301949094528593849283906060010393165af19081156109f7578691610a01575b501561099457895163cf82046160e01b815287818681865afa9081156109f75785918a9188916109c3575b506064916108e491610b15565b0492886108f1858c610b5e565b918d5193848092622fcfcb60e31b82525afa9182156109b9578792610998575b5061091c9192610c97565b15610994579061092b91610c97565b1561022157608485928489938b519788958694635673b02d60e01b86528501528260248501528260448501528a6064850152165af1908115610216575061097757508351928352820152f35b61098d90823d841161020f576102008183610abc565b50846101de565b8480fd5b61091c92506109b3908a3d8c116102bd576102ae8183610abc565b91610911565b8c513d89823e3d90fd5b925050508781813d83116109f0575b6109dc8183610abc565b8101031261059157518490899060646108d7565b503d6109d2565b8b513d88823e3d90fd5b610a189150883d8a1161020f576102008183610abc565b8b6108ac565b8392919950610a3a9085943d85116102bd576102ae8183610abc565b9890919261084f565b602435906001600160a01b0382168203610a5957565b600080fd5b604435906001600160a01b0382168203610a5957565b600435906001600160a01b0382168203610a5957565b6040810190811067ffffffffffffffff821117610aa657604052565b634e487b7160e01b600052604160045260246000fd5b90601f8019910116810190811067ffffffffffffffff821117610aa657604052565b90816020910312610a5957516001600160a01b0381168103610a595790565b90816020910312610a5957518015158103610a595790565b81810292918115918404141715610b2857565b634e487b7160e01b600052601160045260246000fd5b8115610b48570490565b634e487b7160e01b600052601260045260246000fd5b91908203918211610b2857565b90816060910312610a59578051916040602083015192015190565b6000805460015460405163e6a4390560e01b81526001600160a01b038581166004830152918216602482018190529195939492602090829060449082908a165afa908115610c6d5786916060918791610c78575b50600460405180998193630240bc6b60e21b8352165afa928315610c6d5785968694610c45575b50610c0c8488610d05565b95501603610c345791610c26610c2c92610c319594610d7e565b90610dd7565b610e22565b90565b91610c26610c2c92610c3195610d7e565b909350610c6291965060603d606011610284576102718183610abc565b509590959238610c01565b6040513d87823e3d90fd5b610c91915060203d6020116102bd576102ae8183610abc565b38610bda565b600080808094819460018060a01b03165af1903d15610d00573d67ffffffffffffffff8111610cec5760405190610cd8601f8201601f191660200183610abc565b81528160203d92013e5b81156102ce575090565b634e487b7160e01b82526041600452602482fd5b610ce2565b908115610d7757610d20610d198284610b15565b9283610b3e565b03610d285790565b60405162461bcd60e51b815260206004820152602160248201527f536166654d6174683a206d756c7469706c69636174696f6e206f766572666c6f6044820152607760f81b6064820152608490fd5b5050600090565b90810190818111610b28578110610d925790565b60405162461bcd60e51b815260206004820152601b60248201527f536166654d6174683a206164646974696f6e206f766572666c6f7700000000006044820152606490fd5b90610c3191610e1d604051610deb81610a8a565b601a81527f536166654d6174683a206469766973696f6e206279207a65726f0000000000006020820152831515610e6e565b610b3e565b90610c3191610e69604051610e3681610a8a565b601e81527f536166654d6174683a207375627472616374696f6e206f766572666c6f770000602082015282841115610e6e565b610b5e565b15610e765750565b6040519062461bcd60e51b82528160208060048301528251908160248401526000935b828510610ebc575050604492506000838284010152601f80199101168101030190fd5b8481018201518686016044015293810193859350610e9956fea264697066735822122099fbfc6a8641ede5f26a13453823c5a48f8f33791116bb70c68d79c2612e5efb64736f6c63430008180033",
  "linkReferences": {},
  "deployedLinkReferences": {}
}