{
  "_format": "hh-sol-artifact-1",
  "contractName": "Factory",
  "sourceName": "contracts/Factory.sol",
  "abi": [
    {
      "inputs": [
        {
          "internalType": "address",
          "name": "fees_wallet",
          "type": "address"
        }
      ],
      "stateMutability": "nonpayable",
      "type": "constructor"
    },
    {
      "anonymous": false,
      "inputs": [
        {
          "indexed": true,
          "internalType": "address",
          "name": "tokenA",
          "type": "address"
        },
        {
          "indexed": true,
          "internalType": "address",
          "name": "tokenB",
          "type": "address"
        },
        {
          "indexed": false,
          "internalType": "address",
          "name": "pair",
          "type": "address"
        },
        {
          "indexed": false,
          "internalType": "uint256",
          "name": "",
          "type": "uint256"
        }
      ],
      "name": "PairCreated",
      "type": "event"
    },
    {
      "inputs": [
        {
          "internalType": "uint256",
          "name": "n",
          "type": "uint256"
        }
      ],
      "name": "allPairs",
      "outputs": [
        {
          "internalType": "address",
          "name": "",
          "type": "address"
        }
      ],
      "stateMutability": "view",
      "type": "function"
    },
    {
      "inputs": [],
      "name": "allPairsLength",
      "outputs": [
        {
          "internalType": "uint256",
          "name": "",
          "type": "uint256"
        }
      ],
      "stateMutability": "view",
      "type": "function"
    },
    {
      "inputs": [
        {
          "internalType": "address",
          "name": "tokenA",
          "type": "address"
        },
        {
          "internalType": "address",
          "name": "tokenB",
          "type": "address"
        }
      ],
      "name": "createPair",
      "outputs": [
        {
          "internalType": "address",
          "name": "",
          "type": "address"
        }
      ],
      "stateMutability": "nonpayable",
      "type": "function"
    },
    {
      "inputs": [],
      "name": "feeTo",
      "outputs": [
        {
          "internalType": "address",
          "name": "",
          "type": "address"
        }
      ],
      "stateMutability": "view",
      "type": "function"
    },
    {
      "inputs": [],
      "name": "feeToSetter",
      "outputs": [
        {
          "internalType": "address",
          "name": "",
          "type": "address"
        }
      ],
      "stateMutability": "view",
      "type": "function"
    },
    {
      "inputs": [
        {
          "internalType": "address",
          "name": "tokenA",
          "type": "address"
        },
        {
          "internalType": "address",
          "name": "tokenB",
          "type": "address"
        }
      ],
      "name": "getPair",
      "outputs": [
        {
          "internalType": "address",
          "name": "",
          "type": "address"
        }
      ],
      "stateMutability": "view",
      "type": "function"
    },
    {
      "inputs": [],
      "name": "txFee",
      "outputs": [
        {
          "internalType": "uint256",
          "name": "",
          "type": "uint256"
        }
      ],
      "stateMutability": "pure",
      "type": "function"
    }
  ],
  "bytecode": "0x60803461007a57601f610b7038819003918201601f19168301916001600160401b0383118484101761007f5780849260209460405283398101031261007a57516001600160a01b0381169081900361007a5760018060a01b0319338160005416176000556001541617600155604051610ada90816100968239f35b600080fd5b634e487b7160e01b600052604160045260246000fdfe60806040818152600436101561001457600080fd5b600091823560e01c908163017e7e58146102af57508063094b7415146102885780631e3dd18b14610252578063574f2ba314610234578063c9c65396146100d8578063cf820461146100bd5763e6a439051461006f57600080fd5b346100b957806003193601126100b9576020918161008b610333565b9161009461034e565b6001600160a01b03938416825260028652828220908416825285522054915191168152f35b5080fd5b50346100b957816003193601126100b9576020905160058152f35b5090346102315781600319360112610231576100f2610333565b916100fb61034e565b928151936106f3918286019286841067ffffffffffffffff85111761021d576103b2873930835260209560608160018060a01b038080951695868b8901521695868882015203019086f08015610213578116948281526002875284812084825287528481206bffffffffffffffffffffffff60a01b908782825416179055600288528582208483528852868683209182541617905560035490680100000000000000008210156101ff57508060016101b69201600355610364565b819291549060031b9187831b921b19161790557f0d3648bd0f6ba80134a33ba9275ac585d9d315f0ad8355cddefde31afa28d0e98360035481519087825288820152a351908152f35b634e487b7160e01b81526041600452602490fd5b84513d87823e3d90fd5b634e487b7160e01b86526041600452602486fd5b80fd5b50346100b957816003193601126100b9576020906003549051908152f35b50346100b95760203660031901126100b957602090610272600435610364565b905491519160018060a01b039160031b1c168152f35b50346100b957816003193601126100b957905490516001600160a01b039091168152602090f35b828434610231578060031936011261023157546001600160a01b0390811633036102e25760209250600154169051908152f35b62461bcd60e51b835260206004840152602660248401527f4f6e6c7920746865206f776e65722063616e2063616c6c20746869732066756e60448401526531ba34b7b71760d11b6064840152608483fd5b600435906001600160a01b038216820361034957565b600080fd5b602435906001600160a01b038216820361034957565b60035481101561039b5760036000527fc2575a0e9e593c00f959f8c92f12db2869c3395a3b0502d05e2516446f71f85b0190600090565b634e487b7160e01b600052603260045260246000fdfe6080346100a057601f6106f338819003918201601f19168301916001600160401b038311848410176100a5578084926060946040528339810103126100a057610047816100bb565b906100606040610059602084016100bb565b92016100bb565b60018060a01b0380928160018060a01b03199516856000541617600055168360015416176001551690600254161760025560405161062390816100d08239f35b600080fd5b634e487b7160e01b600052604160045260246000fd5b51906001600160a01b03821682036100a05756fe6080604081815260049182361015610022575b505050361561002057600080fd5b005b600090813560e01c9081630902f1ac146104fc575080630e06dfc9146104d95780630fc63d10146104b05780635673b02d146103f65780635b8bec55146103cd5780635c52a5f2146102e55780635c9d6938146102ba5780635f64b55b146102915780637464fc3d14610272578063749388c4146101c1578063ba9a7a56146101a4578063c45a0155146101785763e7d3fe6b03610012573461017557507f8334f87aeaf76e52b061d93ee968e51fdd3ad53ca04e80271249227997aab3a061016b6020936100f036610529565b600380546001600160a01b0319166001600160a01b038316179055909391928361011a86826105a8565b918851610126816105bb565b828152878b820152838a8201526060429101525584600555600655426007558551938493849192604091949360608401958452602084015260018060a01b0316910152565b0390a15160018152f35b80fd5b5090346101a057816003193601126101a057905490516001600160a01b039091168152602090f35b5080fd5b5090346101a057816003193601126101a057602090516103e88152f35b503461017557506101d136610529565b6003549192916001600160a01b039081169082160361021f579061016b83926020968361011a7f254cba6bcaacd15ef1bba85e06c1d71c8cf7a3e036ad089903ba04bad25aaccc97826105a8565b835162461bcd60e51b8152602081870152602760248201527f4f6e6c79204c7020686f6c646572732063616e2063616c6c20746869732066756044820152663731ba34b7b71760c91b6064820152608490fd5b5090346101a057816003193601126101a0576020906006549051908152f35b5090346101a057816003193601126101a05760025490516001600160a01b039091168152602090f35b5090346101a057816003193601126101a0576020906102de60065460055490610558565b9051908152f35b508092346101a05760603660031901126101a05780356001600160a01b03818116918290036103c9576024359081168091036103c95760446020928651958693849263095ea7b360e01b845287840152833560248401525af180156103bc57610353575b6020835160018152f35b6020903d6020116103b4575b601f8201601f191683019067ffffffffffffffff8211848310176103a15750602091839185528101031261039d5751801515036101a0578180610349565b8280fd5b634e487b7160e01b865260419052602485fd5b3d915061035f565b50505051903d90823e3d90fd5b8380fd5b5090346101a057816003193601126101a05760035490516001600160a01b039091168152602090f35b503461017557608036600319011261017557507f298c349c742327269dc8de6ad66687767310c948ea309df826f5bd103e19d207608083602094359060243560443590606435926104518261044c878454610578565b61059b565b6104618561044c86600554610578565b9061046c82826105a8565b928a51610478816105bb565b828152838d820152848c8201526060429101525560055560065542600755865193845287840152858301526060820152a15160018152f35b5090346101a057816003193601126101a05760015490516001600160a01b039091168152602090f35b5034610175578060031936011261017557506102de602092600654905490610558565b90508284346103c957836003193601126103c9576060935054906005546007549284526020840152820152f35b60609060031901126105535760043590602435906044356001600160a01b03811681036105535790565b600080fd5b8115610562570490565b634e487b7160e01b600052601260045260246000fd5b9190820180921161058557565b634e487b7160e01b600052601160045260246000fd5b9190820391821161058557565b8181029291811591840414171561058557565b6080810190811067ffffffffffffffff8211176105d757604052565b634e487b7160e01b600052604160045260246000fdfea2646970667358221220d5abffbf4be8bee14ed9ee036819c8d66b03c026125a632ee6af263b5f80a2e064736f6c63430008180033a26469706673582212205245bb7cb41f0d1afc7e3b0de6d9819e662c0c49eef4e11c4d9b8f9cfecc27da64736f6c63430008180033",
  "linkReferences": {},
  "deployedLinkReferences": {}
}