{
  "_format": "hh-sol-artifact-1",
  "contractName": "PumpFun",
  "sourceName": "contracts/PumpFun.sol",
  "abi": [
    {
      "inputs": [
        {
          "internalType": "address",
          "name": "factory_",
          "type": "address"
        },
        {
          "internalType": "address",
          "name": "router_",
          "type": "address"
        },
        {
          "internalType": "address",
          "name": "fees_wallet",
          "type": "address"
        },
        {
          "internalType": "uint256",
          "name": "_fee",
          "type": "uint256"
        },
        {
          "internalType": "uint256",
          "name": "_refFee",
          "type": "uint256"
        },
        {
          "internalType": "uint256",
          "name": "_lpFee",
          "type": "uint256"
        }
      ],
      "stateMutability": "nonpayable",
      "type": "constructor"
    },
    {
      "anonymous": false,
      "inputs": [
        {
          "indexed": true,
          "internalType": "address",
          "name": "token",
          "type": "address"
        },
        {
          "indexed": true,
          "internalType": "address",
          "name": "pair",
          "type": "address"
        },
        {
          "indexed": false,
          "internalType": "uint256",
          "name": "",
          "type": "uint256"
        }
      ],
      "name": "Launched",
      "type": "event"
    },
    {
      "inputs": [
        {
          "internalType": "address",
          "name": "_user",
          "type": "address"
        },
        {
          "internalType": "address",
          "name": "_token",
          "type": "address"
        },
        {
          "internalType": "uint256",
          "name": "amount",
          "type": "uint256"
        }
      ],
      "name": "approval",
      "outputs": [
        {
          "internalType": "bool",
          "name": "",
          "type": "bool"
        }
      ],
      "stateMutability": "nonpayable",
      "type": "function"
    },
    {
      "inputs": [],
      "name": "deploy",
      "outputs": [
        {
          "internalType": "uint256",
          "name": "",
          "type": "uint256"
        }
      ],
      "stateMutability": "pure",
      "type": "function"
    },
    {
      "inputs": [],
      "name": "feeTo",
      "outputs": [
        {
          "internalType": "address",
          "name": "",
          "type": "address"
        }
      ],
      "stateMutability": "view",
      "type": "function"
    },
    {
      "inputs": [],
      "name": "feeToSetter",
      "outputs": [
        {
          "internalType": "address",
          "name": "",
          "type": "address"
        }
      ],
      "stateMutability": "view",
      "type": "function"
    },
    {
      "inputs": [
        {
          "internalType": "string",
          "name": "_name",
          "type": "string"
        },
        {
          "internalType": "string",
          "name": "_ticker",
          "type": "string"
        },
        {
          "internalType": "string",
          "name": "desc",
          "type": "string"
        },
        {
          "internalType": "string",
          "name": "img",
          "type": "string"
        },
        {
          "internalType": "string[4]",
          "name": "urls",
          "type": "string[4]"
        },
        {
          "internalType": "uint256",
          "name": "_supply",
          "type": "uint256"
        },
        {
          "internalType": "uint256",
          "name": "maxTx",
          "type": "uint256"
        },
        {
          "internalType": "address",
          "name": "ref",
          "type": "address"
        }
      ],
      "name": "launch",
      "outputs": [
        {
          "internalType": "address",
          "name": "",
          "type": "address"
        },
        {
          "internalType": "address",
          "name": "",
          "type": "address"
        },
        {
          "internalType": "uint256",
          "name": "",
          "type": "uint256"
        }
      ],
      "stateMutability": "payable",
      "type": "function"
    },
    {
      "inputs": [],
      "name": "launchFee",
      "outputs": [
        {
          "internalType": "uint256",
          "name": "",
          "type": "uint256"
        }
      ],
      "stateMutability": "view",
      "type": "function"
    },
    {
      "inputs": [],
      "name": "liquidityFee",
      "outputs": [
        {
          "internalType": "uint256",
          "name": "",
          "type": "uint256"
        }
      ],
      "stateMutability": "view",
      "type": "function"
    },
    {
      "inputs": [],
      "name": "marketCap",
      "outputs": [
        {
          "internalType": "uint256",
          "name": "",
          "type": "uint256"
        }
      ],
      "stateMutability": "pure",
      "type": "function"
    },
    {
      "inputs": [],
      "name": "referralFee",
      "outputs": [
        {
          "internalType": "uint256",
          "name": "",
          "type": "uint256"
        }
      ],
      "stateMutability": "view",
      "type": "function"
    },
    {
      "inputs": [
        {
          "internalType": "uint256",
          "name": "_fee",
          "type": "uint256"
        }
      ],
      "name": "updateLaunchFee",
      "outputs": [
        {
          "internalType": "uint256",
          "name": "",
          "type": "uint256"
        }
      ],
      "stateMutability": "nonpayable",
      "type": "function"
    },
    {
      "inputs": [
        {
          "internalType": "uint256",
          "name": "_fee",
          "type": "uint256"
        }
      ],
      "name": "updateLiquidityFee",
      "outputs": [
        {
          "internalType": "uint256",
          "name": "",
          "type": "uint256"
        }
      ],
      "stateMutability": "nonpayable",
      "type": "function"
    },
    {
      "inputs": [
        {
          "internalType": "uint256",
          "name": "_fee",
          "type": "uint256"
        }
      ],
      "name": "updateReferralFee",
      "outputs": [
        {
          "internalType": "uint256",
          "name": "",
          "type": "uint256"
        }
      ],
      "stateMutability": "nonpayable",
      "type": "function"
    }
  ],
  "bytecode": "0x608034620001a357601f62002b2c38819003918201601f19168301916001600160401b03831184841017620001a85780849260c094604052833981010312620001a3576200004d81620001be565b906200005c60208201620001be565b6200006a60408301620001be565b9260608301519160a060808501519401519460018060a01b0319923384600054161760005560018060a01b0392838092168560015416176001551683600354161760035516906004541617600455670de0b6b3a7640000908181029181830414901517156200018d576103e890046005556005811162000148576005821162000103576006556007556040516129589081620001d48239f35b60405162461bcd60e51b815260206004820152601f60248201527f4c6971756964697479204665652063616e6e6f74206578636565642035252e006044820152606490fd5b60405162461bcd60e51b815260206004820152601e60248201527f526566657272616c204665652063616e6e6f74206578636565642035252e00006044820152606490fd5b634e487b7160e01b600052601160045260246000fd5b600080fd5b634e487b7160e01b600052604160045260246000fd5b51906001600160a01b0382168203620001a35756fe60808060405260043610156200001457600080fd5b60003560e01c908163017e7e581462000a3457508063094b74151462000a095780632c135b9314620009e25780635c52a5f214620009915780637660f44a146200096d578063775c300c146200094f57806384ae2bc6146200092f5780638e675663146200090b57806398118cb414620008eb578063a153e6ff14620000f9578063cf3cf57314620000d95763f3f524b814620000b057600080fd5b34620000d4576020366003190112620000d457602060043580600655604051908152f35b600080fd5b34620000d4576000366003190112620000d4576020600554604051908152f35b610100366003190112620000d4576004356001600160401b038111620000d4576200012990369060040162000b17565b6024356001600160401b038111620000d4576200014b90369060040162000b17565b6044356001600160401b038111620000d4576200016d90369060040162000b17565b6064356001600160401b038111620000d4576200018f90369060040162000b17565b92608435926001600160401b038411620000d45736602385011215620000d45760405193620001be8562000abd565b84906084810190368211620000d45780600401925b828410620008b857505060e435929150506001600160a01b0382168203620000d4576005543410620008735760405161100d81818101106001600160401b038284011117620006995780829162001916833960808183015262000253620002406080838501018862000c01565b8284018103602084860101528562000c01565b9060a43560408285010152606060c435918401015203906000f0948515620007b3576003546040516315ab88c960e31b81529590602090879060049082906001600160a01b03165afa958615620007b357600096602091889162000851575b506001546040516364e329cb60e11b81526001600160a01b038b811660048301529283166024820152988992604492849291165af1958615620007b35760009662000819575b5060035460405163313ce56760e01b8152906001600160a01b0390811690602090839060049082908d165afa8015620007b3576200034962000352916200036494600091620007f5575b5062000c7f565b60a43562000ca7565b906001600160a01b038a169062000b64565b15620000d45760646200037a3460075462000ca7565b049760046200038a8a3462000cbb565b60035460405163313ce56760e01b8152919b91926001600160a01b039182169291602091859182908f165afa918215620007b3578b620003de620003496040956200040d97600091620007bf575062000c7f565b8451630e505aa960e31b81526001600160a01b0390921660048301526024820152938492839182906044820190565b03925af18015620007b35762000782575b5033600090815260086020526040902060018101549099906001600160a01b03168015620006c557506004546000918291829182916001600160a01b03165af16200046862000cc9565b5015620000d4575b825190602084015192606060408601519501519560405198896101608101106001600160401b036101608c01111762000699576101608a0160405260018060a01b038c168a5260018060a01b038b1660208b015260408a0152606089015260a435608089015260a088015260c087015260e086015261010085015261012084015261014083015260018060a01b038416600052600a6020526200051882604060002062000d54565b600b54600160401b908181101562000699576001810180600b55811015620006af5783600b6200056f9281600052027f0175b7a638427703f0dbe7bb9bbf987a2551717b34e79f33b5b1008d1fa01db90162000d54565b6200057a336200163b565b15620005f55750506200059390600360609501620015c7565b600b546040518181529091906001600160a01b0380831691908516907f714aa39317ad9a7a7a99db52b44490da5d068a0b2710fffb1a1282ad3cadae1f90602090a3604080516001600160a01b03948516815291909316602082015291820152f35b6040519291620006058462000abd565b33845260018060a01b03166020840152606060408401526060808401523360005260086020526200063b836040600020620016d2565b60095490811015620006995780600162000659920160095562001600565b9290926200068357606095620006766003926200067d95620016d2565b01620015c7565b62000593565b634e487b7160e01b600052600060045260246000fd5b634e487b7160e01b600052604160045260246000fd5b634e487b7160e01b600052603260045260246000fd5b6000526002604060002001805491600160401b831015620006995760018301808355831015620006af576000808093928e95829483526020832001336bffffffffffffffffffffffff60a01b8254161790556200073460646200072b8360065462000ca7565b04809262000cbb565b6001909601546001600160a01b03165af16200074f62000cc9565b5015620000d4576004546000918291829182916001600160a01b03165af16200077762000cc9565b506200047057600080fd5b604090813d8311620007ab575b6200079b818362000ad9565b81010312620000d457896200041e565b503d6200078f565b6040513d6000823e3d90fd5b620007e6915060203d602011620007ed575b620007dd818362000ad9565b81019062000c64565b3862000342565b503d620007d1565b62000812915060203d602011620007ed57620007dd818362000ad9565b8d62000342565b6200084191965060203d60201162000849575b62000838818362000ad9565b81019062000c43565b9488620002f8565b503d6200082c565b6200086c9150823d8411620008495762000838818362000ad9565b8a620002b2565b60405162461bcd60e51b815260206004820152601960248201527f496e73756666696369656e7420616d6f756e742073656e742e000000000000006044820152606490fd5b83356001600160401b038111620000d457602091620008df83926004369187010162000b17565b815201930192620001d3565b34620000d4576000366003190112620000d4576020600754604051908152f35b34620000d4576020366003190112620000d457602060043580600755604051908152f35b34620000d4576000366003190112620000d4576020600654604051908152f35b34620000d4576000366003190112620000d457602060405160008152f35b34620000d4576020366003190112620000d457602060043580600555604051908152f35b34620000d4576060366003190112620000d4576004356001600160a01b038082168203620000d4576024359081168103620000d457602091620009d8916044359162000b64565b6040519015158152f35b34620000d4576000366003190112620000d457602060405169152d02c7e14af68000008152f35b34620000d4576000366003190112620000d4576000546040516001600160a01b039091168152602090f35b34620000d4576000366003190112620000d4576000546001600160a01b0391908216330362000a6c5760208260045416604051908152f35b62461bcd60e51b815260206004820152602660248201527f4f6e6c7920746865206f776e65722063616e2063616c6c20746869732066756e60448201526531ba34b7b71760d11b6064820152608490fd5b608081019081106001600160401b038211176200069957604052565b90601f801991011681019081106001600160401b038211176200069957604052565b6001600160401b0381116200069957601f01601f191660200190565b81601f82011215620000d45780359062000b318262000afb565b9262000b41604051948562000ad9565b82845260208383010111620000d457816000926020809301838601378301015290565b60405163095ea7b360e01b81526001600160a01b039182166004820152602481019390935260009291602091839160449183918791165af1801562000bf65762000bb0575b5050600190565b6020813d60201162000bed575b8162000bcc6020938362000ad9565b8101031262000be957518015150362000be6578062000ba9565b80fd5b5080fd5b3d915062000bbd565b6040513d84823e3d90fd5b919082519283825260005b84811062000c2e575050826000602080949584010152601f8019910116010190565b60208183018101518483018201520162000c0c565b90816020910312620000d457516001600160a01b0381168103620000d45790565b90816020910312620000d4575160ff81168103620000d45790565b60ff16604d811162000c9157600a0a90565b634e487b7160e01b600052601160045260246000fd5b8181029291811591840414171562000c9157565b9190820391821162000c9157565b3d1562000cf9573d9062000cdd8262000afb565b9162000ced604051938462000ad9565b82523d6000602084013e565b606090565b90600182811c9216801562000d30575b602083101462000d1a57565b634e487b7160e01b600052602260045260246000fd5b91607f169162000d0e565b81811062000d47575050565b6000815560010162000d3b565b815181546001600160a01b03199081166001600160a01b039283161783556020808501516001858101805490941691909416179091556040840151805190936001600160401b0393909290916002840190858111620006995762000db9825462000cfe565b96601f9788811162001595575b5083908883116001146200152e5762000df9929160009183620010a7575b50508160011b916000199060031b1c19161790565b90555b60038084016060880151805190878211620006995762000e1d835462000cfe565b898111620014f1575b5084908983116001146200148b5762000e58929160009183620010a75750508160011b916000199060031b1c19161790565b90555b60049360808801518582015560059081810160a08a01518051908982116200121e5762000e89835462000cfe565b8b81116200145b575b5086908b8311600114620013f55762000ec4929160009183620010a75750508160011b916000199060031b1c19161790565b90555b6006810160c08a01518051908982116200121e5762000ee7835462000cfe565b8b8111620013c5575b5086908b83116001146200135f5762000f22929160009183620010a75750508160011b916000199060031b1c19161790565b90555b6007810160e08a01518051908982116200121e5762000f45835462000cfe565b8b81116200132f575b5086908b8311600114620012c95762000f80929160009183620010a75750508160011b916000199060031b1c19161790565b90555b600881016101008a01518051908982116200121e5762000fa4835462000cfe565b8b811162001299575b5086908b8311600114620012335762000fdf929160009183620010a75750508160011b916000199060031b1c19161790565b90555b600981016101208a01518051908982116200121e5762001003835462000cfe565b8b8111620011e3575b5086908b83116001146200117057826101409593600a95936200104693600092620010a75750508160011b916000199060031b1c19161790565b90555b019801519485519687116200115b575062001065885462000cfe565b8781116200111e575b505081958511600114620010b357505050620010a3928291600092620010a75750508160011b916000199060031b1c19161790565b9055565b01519050388062000de4565b9194909284601f1981168860005285600020956000905b89838310620011035750505010620010e8575b50505050811b019055565b01519060f884600019921b161c1916905538808080620010dd565b858701518955909701969485019488935090810190620010ca565b620011499189600052846000209089808a01821c830193878b1062001151575b01901c019062000d3b565b38806200106e565b935082936200113e565b604190634e487b7160e01b6000525260246000fd5b889291601f1983169185600052896000209260005b8b828210620011cc575050916101409795939185600a98969410620011b3575b505050811b01905562001049565b0151600019838b1b60f8161c19169055388080620011a5565b8385015186558d9790950194938401930162001185565b6200120d9084600052886000208d808601891c8201928b871062001214575b01881c019062000d3b565b386200100c565b9250819262001202565b604189634e487b7160e01b6000525260246000fd5b889291601f1983169185600052896000209260005b8b82821062001282575050841162001269575b505050811b01905562000fe2565b015160001983891b60f8161c191690553880806200125b565b8385015186558d9790950194938401930162001248565b620012c29084600052886000208d808601891c8201928b8710620012145701881c019062000d3b565b3862000fad565b889291601f1983169185600052896000209260005b8b828210620013185750508411620012ff575b505050811b01905562000f83565b015160001983891b60f8161c19169055388080620012f1565b8385015186558d97909501949384019301620012de565b620013589084600052886000208d808601891c8201928b8710620012145701881c019062000d3b565b3862000f4e565b889291601f1983169185600052896000209260005b8b828210620013ae575050841162001395575b505050811b01905562000f25565b015160001983891b60f8161c1916905538808062001387565b8385015186558d9790950194938401930162001374565b620013ee9084600052886000208d808601891c8201928b8710620012145701881c019062000d3b565b3862000ef0565b889291601f1983169185600052896000209260005b8b8282106200144457505084116200142b575b505050811b01905562000ec7565b015160001983891b60f8161c191690553880806200141d565b8385015186558d979095019493840193016200140a565b620014849084600052886000208d808601891c8201928b8710620012145701881c019062000d3b565b3862000e92565b869291601f1983169185600052876000209260005b89828210620014da5750508411620014c1575b505050811b01905562000e5b565b015160001983871b60f8161c19169055388080620014b3565b8385015186558b97909501949384019301620014a0565b6200151d9084600052866000208b80860160051c82019289871062001524575b0160051c019062000d3b565b3862000e26565b9250819262001511565b859291601f1983169185600052866000209260005b888282106200157e575050841162001564575b505050811b01905562000dfc565b015160001960f88460031b161c1916905538808062001556565b8385015186558a9790950194938401930162001543565b620015c09084600052856000208a80860160051c82019288871062001524570160051c019062000d3b565b3862000dc6565b908154600160401b811015620006995760018101808455811015620006af57620015fe92600052600b602060002091020162000d54565b565b600954811015620006af57600960005260021b7f6e1540171b6c0c960b71a7020d9f60077f6af931a8bbf590da0223dacf75c7af0190600090565b6009549060005b8281106200165257505050600090565b6200165d8162001600565b50546001600160a01b038381169116146200167b5760010162001642565b505050600190565b6200168f815462000cfe565b90816200169a575050565b81601f60009311600114620016ad575055565b908083918252620016ce601f60208420940160051c84016001850162000d3b565b5555565b60018060a01b0390818351166bffffffffffffffffffffffff60a01b9081835416178255600193600183016020928584840151169082541617905560029260028101936040830151958651906001600160401b0382116200069957600160401b97888311620006995786908854848a55808510620018f5575b5001906000978852868820908a895b858110620018e05750505050505060606003809301930151918251968711620018cc57835487855585939291818910620017ca575b50505091845282842091015b848410620017ab57505050505050565b600b8382620017bd8994518662000d54565b019201930192906200179b565b9091929350600b9282600b0292600b840403620018b85788600b02600b81048a03620018a457868952878920889695948101939291015b838110620018115750506200178f565b849596508981959293949555898c8201556200182f83820162001683565b6200183c84820162001683565b896004820155620018506005820162001683565b6200185e6006820162001683565b6200186c6007820162001683565b6200187a6008820162001683565b620018886009820162001683565b62001896600a820162001683565b019087959493929162001801565b634e487b7160e01b89526011600452602489fd5b634e487b7160e01b88526011600452602488fd5b634e487b7160e01b86526041600452602486fd5b898386511695019481850155018b906200175a565b6200190e908a6000528584600020918201910162000d3b565b386200174b56fe6040608081523462000429576200100d803803806200001e816200042e565b928339810190608081830312620004295780516001600160401b039190828111620004295783620000519183016200046a565b90602093848201519084821162000429576200006f9183016200046a565b606086830151920151906000943360018060a01b031987541617865533867f8be0079c531659141344cd1fd0a4f28419497f9722a3daafe3b4186f6b6457e08180a384518181116200034357600254906001968783811c931680156200041e575b8a84101462000324578190601f93848111620003ca575b508a9084831160011462000363578a9262000357575b5050600019600383901b1c191690871b176002555b8251918211620003435760039283548781811c9116801562000338575b8a821014620003245790818385949311620002cf575b50899183116001146200026c57889262000260575b505060001982841b1c191690851b1790555b670de0b6b3a7640000918281029281840414901517156200024c5781835560058111620001fe57907fddf252ad1be2c89b69c2b068fc378daa952ba7f163c4a11628f55a4df523b3ef929160045533845260058552858420556007845284832060ff199082828254161790553084528186852091825416179055549284519384523393a351610b309081620004dd8239f35b855162461bcd60e51b815260048101869052602160248201527f4d6178205472616e73616374696f6e2063616e6e6f74206578636565642035256044820152601760f91b6064820152608490fd5b634e487b7160e01b84526011600452602484fd5b0151905038806200015a565b8489528989208894509190601f1984168a5b8c828210620002b857505084116200029f575b505050811b0190556200016c565b015160001983861b60f8161c1916905538808062000291565b8385015186558b979095019493840193016200027e565b909192508489528989208380860160051c8201928c87106200031a575b9186958b929594930160051c01915b8281106200030b57505062000145565b8b81558695508a9101620002fb565b92508192620002ec565b634e487b7160e01b89526022600452602489fd5b90607f16906200012f565b634e487b7160e01b87526041600452602487fd5b015190503880620000fd565b60028b528b8b208a94509190601f1984168c8e5b828210620003b2575050841162000398575b505050811b0160025562000112565b015160001960f88460031b161c1916905538808062000389565b8385015186558d979095019493840193018e62000377565b90915060028a528a8a208480850160051c8201928d861062000414575b918b91869594930160051c01915b82811062000405575050620000e7565b8c81558594508b9101620003f5565b92508192620003e7565b92607f1692620000d0565b600080fd5b6040519190601f01601f191682016001600160401b038111838210176200045457604052565b634e487b7160e01b600052604160045260246000fd5b919080601f84011215620004295782516001600160401b0381116200045457602090620004a0601f8201601f191683016200042e565b92818452828287010111620004295760005b818110620004c857508260009394955001015290565b8581018301518482018401528201620004b256fe608060408181526004918236101561001657600080fd5b600092833560e01c91826306fdde03146104ff57508163095ea7b3146104d557816318160ddd146104b657816323b872dd146103e1578163313ce567146103c557816370a082311461038d578163715018a61461032e5781637437681e146103105781638da5cb5b146102e857816395d89b41146101e3578163a9059cbb146101b2578163c2d0ffca146100ff575063dd62ed3e146100b457600080fd5b346100fb57806003193601126100fb57806020926100d0610607565b6100d8610622565b6001600160a01b0391821683526006865283832091168252845220549051908152f35b5080fd5b919050346101ae5760203660031901126101ae5781359161012a60018060a01b038554163314610670565b600583116101625791602091817fff3dd5e80294197918c284bbfc3dadd97d0b40ce92106110946329088f80068a945551908152a180f35b6020608492519162461bcd60e51b8352820152602160248201527f4d6178205472616e73616374696f6e2063616e6e6f74206578636565642035256044820152601760f91b6064820152fd5b8280fd5b5050346100fb57806003193601126100fb576020906101dc6101d2610607565b60243590336107bd565b5160018152f35b919050346101ae57826003193601126101ae5780519183600354906001908260011c926001811680156102de575b60209586861082146102cb57508488529081156102a95750600114610250575b61024c8686610242828b0383610638565b51918291826105be565b0390f35b929550600383527fc2575a0e9e593c00f959f8c92f12db2869c3395a3b0502d05e2516446f71f85b5b828410610296575050508261024c94610242928201019438610231565b8054868501880152928601928101610279565b60ff191687860152505050151560051b83010192506102428261024c38610231565b634e487b7160e01b845260229052602483fd5b93607f1693610211565b5050346100fb57816003193601126100fb57905490516001600160a01b039091168152602090f35b9050346101ae57826003193601126101ae5760209250549051908152f35b833461038a578060031936011261038a578054816001600160a01b038216610357338214610670565b7f8be0079c531659141344cd1fd0a4f28419497f9722a3daafe3b4186f6b6457e08280a36001600160a01b031916815580f35b80fd5b5050346100fb5760203660031901126100fb5760209181906001600160a01b036103b5610607565b1681526005845220549051908152f35b5050346100fb57816003193601126100fb576020905160128152f35b82843461038a57606036600319011261038a576103fc610607565b90610405610622565b6104136044358092856107bd565b6001600160a01b038316825260066020908152848320338452905283822054845192606084019067ffffffffffffffff8211858310176104a3576020876101dc8861049b898989898752602883527f45524332303a207472616e7366657220616d6f756e742065786365656473206188840152676c6c6f77616e636560c01b87840152610aaf565b9033906106bb565b634e487b7160e01b815260418852602490fd5b5050346100fb57816003193601126100fb576020906001549051908152f35b5050346100fb57806003193601126100fb576020906101dc6104f5610607565b60243590336106bb565b929150346105ba57836003193601126105ba57600254600181811c91869082811680156105b0575b60209586861082146102cb57508488529081156102a957506001146105575761024c8686610242828b0383610638565b929550600283527f405787fa12a823e0f2b7631cc41b3ba8828b3321ca811111fa75cd3aa3bb5ace5b82841061059d575050508261024c94610242928201019438610231565b8054868501880152928601928101610580565b93607f1693610527565b8380fd5b6020808252825181830181905290939260005b8281106105f357505060409293506000838284010152601f8019910116010190565b8181018601518482016040015285016105d1565b600435906001600160a01b038216820361061d57565b600080fd5b602435906001600160a01b038216820361061d57565b90601f8019910116810190811067ffffffffffffffff82111761065a57604052565b634e487b7160e01b600052604160045260246000fd5b1561067757565b606460405162461bcd60e51b815260206004820152602060248201527f4f776e61626c653a2063616c6c6572206973206e6f7420746865206f776e65726044820152fd5b6001600160a01b0390811691821561076c571691821561071c5760207f8c5be1e5ebec7d5bd14f71427d1e84f3dd0314c0f7b2291e5b200ac8c7c3b925918360005260068252604060002085600052825280604060002055604051908152a3565b60405162461bcd60e51b815260206004820152602260248201527f45524332303a20617070726f766520746f20746865207a65726f206164647265604482015261737360f01b6064820152608490fd5b60405162461bcd60e51b8152602060048201526024808201527f45524332303a20617070726f76652066726f6d20746865207a65726f206164646044820152637265737360e01b6064820152608490fd5b9192916001600160a01b03908116918215610a5c5716908115610a0b5783156109b45760048054946001549586810296818804149015171561099f576000958387526020926007845260409160ff838a20541615801561098e575b61093d575b50848852600584528188205482519083820182811067ffffffffffffffff82111761092a57610879929186918652601e83527f536166654d6174683a207375627472616374696f6e206f766572666c6f77000088840152610aaf565b85895260058552828920558588528188205490838201918281116109175782106108d457508188877fddf252ad1be2c89b69c2b068fc378daa952ba7f163c4a11628f55a4df523b3ef9798999a5260058652205551908152a3565b825162461bcd60e51b8152908101859052601b60248201527f536166654d6174683a206164646974696f6e206f766572666c6f7700000000006044820152606490fd5b634e487b7160e01b8a526011825260248afd5b634e487b7160e01b8b526041845260248bfd5b60649004831161094d573861081d565b83606492519162461bcd60e51b8352820152601860248201527f4578636565647320746865204d61785478416d6f756e742e00000000000000006044820152fd5b5086895260ff838a20541615610818565b601182634e487b7160e01b6000525260246000fd5b60405162461bcd60e51b815260206004820152602960248201527f5472616e7366657220616d6f756e74206d7573742062652067726561746572206044820152687468616e207a65726f60b81b6064820152608490fd5b60405162461bcd60e51b815260206004820152602360248201527f45524332303a207472616e7366657220746f20746865207a65726f206164647260448201526265737360e81b6064820152608490fd5b60405162461bcd60e51b815260206004820152602560248201527f45524332303a207472616e736665722066726f6d20746865207a65726f206164604482015264647265737360d81b6064820152608490fd5b91828211610ada57508103908111610ac45790565b634e487b7160e01b600052601160045260246000fd5b60405162461bcd60e51b8152908190610af690600483016105be565b0390fdfea2646970667358221220a7c068951d1959345fd3384d2c0fe8e744a3a24489e42bf8ea78484d0053ac0464736f6c63430008180033a2646970667358221220528d10f7548bcf52067d2096f9ce54ae7b819bad0e95d5e58846bfe3ed4ba1e464736f6c63430008180033",
  "linkReferences": {},
  "deployedLinkReferences": {}
}