{
  "_format": "hh-sol-artifact-1",
  "contractName": "PumpFun",
  "sourceName": "contracts/PumpFun.sol",
  "abi": [
    {
      "inputs": [
        {
          "internalType": "address",
          "name": "factory_",
          "type": "address"
        },
        {
          "internalType": "address",
          "name": "router_",
          "type": "address"
        },
        {
          "internalType": "address",
          "name": "fees_wallet",
          "type": "address"
        },
        {
          "internalType": "uint256",
          "name": "_fee",
          "type": "uint256"
        },
        {
          "internalType": "uint256",
          "name": "_refFee",
          "type": "uint256"
        },
        {
          "internalType": "uint256",
          "name": "_lpFee",
          "type": "uint256"
        }
      ],
      "stateMutability": "nonpayable",
      "type": "constructor"
    },
    {
      "anonymous": false,
      "inputs": [
        {
          "indexed": true,
          "internalType": "address",
          "name": "token",
          "type": "address"
        },
        {
          "indexed": true,
          "internalType": "address",
          "name": "pair",
          "type": "address"
        },
        {
          "indexed": false,
          "internalType": "uint256",
          "name": "",
          "type": "uint256"
        }
      ],
      "name": "Launched",
      "type": "event"
    },
    {
      "inputs": [
        {
          "internalType": "address",
          "name": "_user",
          "type": "address"
        },
        {
          "internalType": "address",
          "name": "_token",
          "type": "address"
        },
        {
          "internalType": "uint256",
          "name": "amount",
          "type": "uint256"
        }
      ],
      "name": "approval",
      "outputs": [
        {
          "internalType": "bool",
          "name": "",
          "type": "bool"
        }
      ],
      "stateMutability": "nonpayable",
      "type": "function"
    },
    {
      "inputs": [],
      "name": "deploy",
      "outputs": [
        {
          "internalType": "uint256",
          "name": "",
          "type": "uint256"
        }
      ],
      "stateMutability": "pure",
      "type": "function"
    },
    {
      "inputs": [],
      "name": "feeTo",
      "outputs": [
        {
          "internalType": "address",
          "name": "",
          "type": "address"
        }
      ],
      "stateMutability": "view",
      "type": "function"
    },
    {
      "inputs": [],
      "name": "feeToSetter",
      "outputs": [
        {
          "internalType": "address",
          "name": "",
          "type": "address"
        }
      ],
      "stateMutability": "view",
      "type": "function"
    },
    {
      "inputs": [
        {
          "internalType": "string",
          "name": "_name",
          "type": "string"
        },
        {
          "internalType": "string",
          "name": "_ticker",
          "type": "string"
        },
        {
          "internalType": "string",
          "name": "desc",
          "type": "string"
        },
        {
          "internalType": "string",
          "name": "img",
          "type": "string"
        },
        {
          "internalType": "string[4]",
          "name": "urls",
          "type": "string[4]"
        },
        {
          "internalType": "uint256",
          "name": "_supply",
          "type": "uint256"
        },
        {
          "internalType": "uint256",
          "name": "maxTx",
          "type": "uint256"
        },
        {
          "internalType": "address",
          "name": "ref",
          "type": "address"
        }
      ],
      "name": "launch",
      "outputs": [
        {
          "internalType": "address",
          "name": "",
          "type": "address"
        },
        {
          "internalType": "address",
          "name": "",
          "type": "address"
        },
        {
          "internalType": "uint256",
          "name": "",
          "type": "uint256"
        }
      ],
      "stateMutability": "payable",
      "type": "function"
    },
    {
      "inputs": [],
      "name": "launchFee",
      "outputs": [
        {
          "internalType": "uint256",
          "name": "",
          "type": "uint256"
        }
      ],
      "stateMutability": "view",
      "type": "function"
    },
    {
      "inputs": [],
      "name": "liquidityFee",
      "outputs": [
        {
          "internalType": "uint256",
          "name": "",
          "type": "uint256"
        }
      ],
      "stateMutability": "view",
      "type": "function"
    },
    {
      "inputs": [],
      "name": "marketCap",
      "outputs": [
        {
          "internalType": "uint256",
          "name": "",
          "type": "uint256"
        }
      ],
      "stateMutability": "pure",
      "type": "function"
    },
    {
      "inputs": [
        {
          "internalType": "address",
          "name": "",
          "type": "address"
        }
      ],
      "name": "profile",
      "outputs": [
        {
          "internalType": "address",
          "name": "user",
          "type": "address"
        },
        {
          "internalType": "address",
          "name": "referree",
          "type": "address"
        }
      ],
      "stateMutability": "view",
      "type": "function"
    },
    {
      "inputs": [
        {
          "internalType": "uint256",
          "name": "",
          "type": "uint256"
        }
      ],
      "name": "profiles",
      "outputs": [
        {
          "internalType": "address",
          "name": "user",
          "type": "address"
        },
        {
          "internalType": "address",
          "name": "referree",
          "type": "address"
        }
      ],
      "stateMutability": "view",
      "type": "function"
    },
    {
      "inputs": [],
      "name": "referralFee",
      "outputs": [
        {
          "internalType": "uint256",
          "name": "",
          "type": "uint256"
        }
      ],
      "stateMutability": "view",
      "type": "function"
    },
    {
      "inputs": [
        {
          "internalType": "address",
          "name": "",
          "type": "address"
        }
      ],
      "name": "token",
      "outputs": [
        {
          "internalType": "address",
          "name": "token",
          "type": "address"
        },
        {
          "internalType": "address",
          "name": "pair",
          "type": "address"
        },
        {
          "internalType": "string",
          "name": "name",
          "type": "string"
        },
        {
          "internalType": "string",
          "name": "ticker",
          "type": "string"
        },
        {
          "internalType": "uint256",
          "name": "supply",
          "type": "uint256"
        },
        {
          "internalType": "string",
          "name": "description",
          "type": "string"
        },
        {
          "internalType": "string",
          "name": "image",
          "type": "string"
        },
        {
          "internalType": "string",
          "name": "twitter",
          "type": "string"
        },
        {
          "internalType": "string",
          "name": "telegram",
          "type": "string"
        },
        {
          "internalType": "string",
          "name": "youtube",
          "type": "string"
        },
        {
          "internalType": "string",
          "name": "website",
          "type": "string"
        }
      ],
      "stateMutability": "view",
      "type": "function"
    },
    {
      "inputs": [
        {
          "internalType": "uint256",
          "name": "",
          "type": "uint256"
        }
      ],
      "name": "tokens",
      "outputs": [
        {
          "internalType": "address",
          "name": "token",
          "type": "address"
        },
        {
          "internalType": "address",
          "name": "pair",
          "type": "address"
        },
        {
          "internalType": "string",
          "name": "name",
          "type": "string"
        },
        {
          "internalType": "string",
          "name": "ticker",
          "type": "string"
        },
        {
          "internalType": "uint256",
          "name": "supply",
          "type": "uint256"
        },
        {
          "internalType": "string",
          "name": "description",
          "type": "string"
        },
        {
          "internalType": "string",
          "name": "image",
          "type": "string"
        },
        {
          "internalType": "string",
          "name": "twitter",
          "type": "string"
        },
        {
          "internalType": "string",
          "name": "telegram",
          "type": "string"
        },
        {
          "internalType": "string",
          "name": "youtube",
          "type": "string"
        },
        {
          "internalType": "string",
          "name": "website",
          "type": "string"
        }
      ],
      "stateMutability": "view",
      "type": "function"
    },
    {
      "inputs": [
        {
          "internalType": "uint256",
          "name": "_fee",
          "type": "uint256"
        }
      ],
      "name": "updateLaunchFee",
      "outputs": [
        {
          "internalType": "uint256",
          "name": "",
          "type": "uint256"
        }
      ],
      "stateMutability": "nonpayable",
      "type": "function"
    },
    {
      "inputs": [
        {
          "internalType": "uint256",
          "name": "_fee",
          "type": "uint256"
        }
      ],
      "name": "updateLiquidityFee",
      "outputs": [
        {
          "internalType": "uint256",
          "name": "",
          "type": "uint256"
        }
      ],
      "stateMutability": "nonpayable",
      "type": "function"
    },
    {
      "inputs": [
        {
          "internalType": "uint256",
          "name": "_fee",
          "type": "uint256"
        }
      ],
      "name": "updateReferralFee",
      "outputs": [
        {
          "internalType": "uint256",
          "name": "",
          "type": "uint256"
        }
      ],
      "stateMutability": "nonpayable",
      "type": "function"
    }
  ],
  "bytecode": "0x608034620001a357601f6200306238819003918201601f19168301916001600160401b03831184841017620001a85780849260c094604052833981010312620001a3576200004d81620001be565b906200005c60208201620001be565b6200006a60408301620001be565b9260608301519160a060808501519401519460018060a01b0319923384600054161760005560018060a01b0392838092168560015416176001551683600354161760035516906004541617600455670de0b6b3a7640000908181029181830414901517156200018d576103e89004600555600581116200014857600582116200010357600655600755604051612e8e9081620001d48239f35b60405162461bcd60e51b815260206004820152601f60248201527f4c6971756964697479204665652063616e6e6f74206578636565642035252e006044820152606490fd5b60405162461bcd60e51b815260206004820152601e60248201527f526566657272616c204665652063616e6e6f74206578636565642035252e00006044820152606490fd5b634e487b7160e01b600052601160045260246000fd5b600080fd5b634e487b7160e01b600052604160045260246000fd5b51906001600160a01b0382168203620001a35756fe60808060405260043610156200001457600080fd5b60003560e01c908163017e7e581462000df757508063094b74151462000dcc5780632c135b931462000da55780634f64b2be1462000b9c5780635c52a5f21462000b4f5780636d46a1db1462000a835780637660f44a1462000a5f578063775c300c1462000a4157806384ae2bc61462000a215780638e67566314620009fd57806398118cb414620009dd5780639dd9d0fd1462000981578063a153e6ff146200017f578063c36fe3d61462000129578063cf3cf57314620001095763f3f524b814620000e057600080fd5b34620001045760203660031901126200010457602060043580600655604051908152f35b600080fd5b346200010457600036600319011262000104576020600554604051908152f35b346200010457602036600319011262000104576004356009548110156200010457620001559062001133565b508054600190910154604080516001600160a01b03938416815292909116602083015290f35b0390f35b61010036600319011262000104576004356001600160401b0381116200010457620001af903690600401620010e6565b6024356001600160401b0381116200010457620001d1903690600401620010e6565b6044356001600160401b0381116200010457620001f3903690600401620010e6565b6064356001600160401b038111620001045762000215903690600401620010e6565b92608435926001600160401b038411620001045736602385011215620001045760405193620002448562000ebd565b84906084810190368211620001045780600401925b8284106200094e57505060e435929150506001600160a01b0382168203620001045760055434106200090957604051610ff581818101106001600160401b0382840111176200072f5780829162001e648339608081830152620002d9620002c66080838501018862000fac565b8284018103602084860101528562000fac565b9060a43560408285010152606060c435918401015203906000f094851562000849576003546040516315ab88c960e31b81529590602090879060049082906001600160a01b03165afa95861562000849576200037996602091600091620008e7575b506001546040516364e329cb60e11b81526001600160a01b038b81166004830152928316602482015298899290911690829060009082906044820190565b03925af19586156200084957600096620008af575b5060035460405163313ce56760e01b8152906001600160a01b0390811690602090839060049082908d165afa80156200084957620003df620003e891620003fa946000916200088b575b5062001247565b60a4356200126f565b906001600160a01b038a16906200116e565b156200010457606462000410346007546200126f565b04976004620004208a3462001283565b60035460405163313ce56760e01b8152919b91926001600160a01b039182169291602091859182908f165afa91821562000849578b62000474620003df604095620004a39760009162000855575062001247565b8451630e505aa960e31b81526001600160a01b0390921660048301526024820152938492839182906044820190565b03925af18015620008495762000818575b5033600090815260086020526040902060018101549099906001600160a01b031680156200075b57506004546000918291829182916001600160a01b03165af1620004fe62001291565b501562000104575b825190602084015192606060408601519501519560405198896101608101106001600160401b036101608c0111176200072f576101608a0160405260018060a01b038c168a5260018060a01b038b1660208b015260408a0152606089015260a435608089015260a088015260c087015260e086015261010085015261012084015261014083015260018060a01b038416600052600a602052620005ae826040600020620012df565b600b54600160401b90818110156200072f576001810180600b55811015620007455783600b620006059281600052027f0175b7a638427703f0dbe7bb9bbf987a2551717b34e79f33b5b1008d1fa01db901620012df565b620006103362001b89565b156200068b575050620006299060036060950162001b52565b600b546040518181529091906001600160a01b0380831691908516907f714aa39317ad9a7a7a99db52b44490da5d068a0b2710fffb1a1282ad3cadae1f90602090a3604080516001600160a01b03948516815291909316602082015291820152f35b60405192916200069b8462000ebd565b33845260018060a01b0316602084015260606040840152606080840152336000526008602052620006d183604060002062001c20565b600954908110156200072f57806001620006ef920160095562001133565b92909262000719576060956200070c600392620007139562001c20565b0162001b52565b62000629565b634e487b7160e01b600052600060045260246000fd5b634e487b7160e01b600052604160045260246000fd5b634e487b7160e01b600052603260045260246000fd5b6000526002604060002001805491600160401b8310156200072f576001830180835583101562000745576000808093928e95829483526020832001336bffffffffffffffffffffffff60a01b825416179055620007ca6064620007c1836006546200126f565b04809262001283565b6001909601546001600160a01b03165af1620007e562001291565b501562000104576004546000918291829182916001600160a01b03165af16200080d62001291565b506200050657600080fd5b604090813d831162000841575b62000831818362000ed9565b81010312620001045789620004b4565b503d62000825565b6040513d6000823e3d90fd5b6200087c915060203d60201162000883575b62000873818362000ed9565b8101906200122c565b38620003d8565b503d62000867565b620008a8915060203d602011620008835762000873818362000ed9565b8d620003d8565b620008d791965060203d602011620008df575b620008ce818362000ed9565b8101906200120b565b94886200038e565b503d620008c2565b620009029150823d8411620008df57620008ce818362000ed9565b8a6200033b565b60405162461bcd60e51b815260206004820152601960248201527f496e73756666696369656e7420616d6f756e742073656e742e000000000000006044820152606490fd5b83356001600160401b038111620001045760209162000975839260043691870101620010e6565b81520193019262000259565b346200010457602036600319011262000104576001600160a01b0380620009a7620010b3565b16600090815260086020908152604091829020805460019091015483516001600160a01b03928616831681529416169083015290f35b346200010457600036600319011262000104576020600754604051908152f35b34620001045760203660031901126200010457602060043580600755604051908152f35b346200010457600036600319011262000104576020600654604051908152f35b34620001045760003660031901126200010457602060405160008152f35b34620001045760203660031901126200010457602060043580600555604051908152f35b346200010457602036600319011262000104576001600160a01b038062000aa9620010b3565b16600052600a6020526040600020906200017b81835416916001840154169262000ad66002820162000efb565b9062000ae56003820162000efb565b600482015462000af86005840162000efb565b62000b066006850162000efb565b9062000b156007860162000efb565b9262000b246008870162000efb565b9462000b41600a62000b3960098a0162000efb565b980162000efb565b976040519b8c9b8c62000fee565b3462000104576060366003190112620001045762000b6c620010b3565b6024356001600160a01b0381168103620001045760209162000b9291604435916200116e565b6040519015158152f35b34620001045760203660031901126200010457600435600b548110156200010457600b90816000520260018060a01b036200017b81837f0175b7a638427703f0dbe7bb9bbf987a2551717b34e79f33b5b1008d1fa01db9015416917f0175b7a638427703f0dbe7bb9bbf987a2551717b34e79f33b5b1008d1fa01dba840154169262000c4a7f0175b7a638427703f0dbe7bb9bbf987a2551717b34e79f33b5b1008d1fa01dbb820162000efb565b9062000c787f0175b7a638427703f0dbe7bb9bbf987a2551717b34e79f33b5b1008d1fa01dbc820162000efb565b7f0175b7a638427703f0dbe7bb9bbf987a2551717b34e79f33b5b1008d1fa01dbd82015462000cc97f0175b7a638427703f0dbe7bb9bbf987a2551717b34e79f33b5b1008d1fa01dbe840162000efb565b62000cf67f0175b7a638427703f0dbe7bb9bbf987a2551717b34e79f33b5b1008d1fa01dbf850162000efb565b9062000d247f0175b7a638427703f0dbe7bb9bbf987a2551717b34e79f33b5b1008d1fa01dc0860162000efb565b9262000d527f0175b7a638427703f0dbe7bb9bbf987a2551717b34e79f33b5b1008d1fa01dc1870162000efb565b9462000b417f0175b7a638427703f0dbe7bb9bbf987a2551717b34e79f33b5b1008d1fa01dc362000b397f0175b7a638427703f0dbe7bb9bbf987a2551717b34e79f33b5b1008d1fa01dc28a0162000efb565b34620001045760003660031901126200010457602060405169152d02c7e14af68000008152f35b346200010457600036600319011262000104576000546040516001600160a01b039091168152602090f35b346200010457600036600319011262000104576000546001600160a01b0391908216330362000e2f5760208260045416604051908152f35b62461bcd60e51b815260206004820152602660248201527f4f6e6c7920746865206f776e65722063616e2063616c6c20746869732066756e60448201526531ba34b7b71760d11b6064820152608490fd5b90600182811c9216801562000eb2575b602083101462000e9c57565b634e487b7160e01b600052602260045260246000fd5b91607f169162000e90565b608081019081106001600160401b038211176200072f57604052565b90601f801991011681019081106001600160401b038211176200072f57604052565b9060405191826000825462000f108162000e80565b9081845260209460019160018116908160001462000f88575060011462000f45575b50505062000f439250038362000ed9565b565b600090815285812095935091905b81831062000f6f57505062000f43935082010138808062000f32565b8554888401850152948501948794509183019162000f53565b9250505062000f4394925060ff191682840152151560051b82010138808062000f32565b919082519283825260005b84811062000fd9575050826000602080949584010152601f8019910116010190565b60208183018101518483018201520162000fb7565b9996908a6200109097620010b09d9b97608062001051620010809962001042620010a09f9a620010719a62001062996101609160018060a01b038092168b521660208a01528060408a015288019062000fac565b90868203606088015262000fac565b9301528c820360a08e015262000fac565b908a820360c08c015262000fac565b9088820360e08a015262000fac565b9086820361010088015262000fac565b9084820361012086015262000fac565b9161014081840391015262000fac565b90565b600435906001600160a01b03821682036200010457565b6001600160401b0381116200072f57601f01601f191660200190565b81601f8201121562000104578035906200110082620010ca565b9262001110604051948562000ed9565b828452602083830101116200010457816000926020809301838601378301015290565b6009548110156200074557600960005260021b7f6e1540171b6c0c960b71a7020d9f60077f6af931a8bbf590da0223dacf75c7af0190600090565b60405163095ea7b360e01b81526001600160a01b039182166004820152602481019390935260009291602091839160449183918791165af180156200120057620011ba575b5050600190565b6020813d602011620011f7575b81620011d66020938362000ed9565b81010312620011f3575180151503620011f05780620011b3565b80fd5b5080fd5b3d9150620011c7565b6040513d84823e3d90fd5b908160209103126200010457516001600160a01b0381168103620001045790565b9081602091031262000104575160ff81168103620001045790565b60ff16604d81116200125957600a0a90565b634e487b7160e01b600052601160045260246000fd5b818102929181159184041417156200125957565b919082039182116200125957565b3d15620012c1573d90620012a582620010ca565b91620012b5604051938462000ed9565b82523d6000602084013e565b606090565b818110620012d2575050565b60008155600101620012c6565b815181546001600160a01b03199081166001600160a01b039283161783556020808501516001858101805490941691909416179091556040840151805190936001600160401b03939092909160028401908581116200072f5762001344825462000e80565b96601f9788811162001b20575b50839088831160011462001ab9576200138492916000918362001632575b50508160011b916000199060031b1c19161790565b90555b600380840160608801518051908782116200072f57620013a8835462000e80565b89811162001a7c575b50849089831160011462001a1657620013e3929160009183620016325750508160011b916000199060031b1c19161790565b90555b60049360808801518582015560059081810160a08a0151805190898211620017a95762001414835462000e80565b8b8111620019e6575b5086908b831160011462001980576200144f929160009183620016325750508160011b916000199060031b1c19161790565b90555b6006810160c08a0151805190898211620017a95762001472835462000e80565b8b811162001950575b5086908b8311600114620018ea57620014ad929160009183620016325750508160011b916000199060031b1c19161790565b90555b6007810160e08a0151805190898211620017a957620014d0835462000e80565b8b8111620018ba575b5086908b831160011462001854576200150b929160009183620016325750508160011b916000199060031b1c19161790565b90555b600881016101008a0151805190898211620017a9576200152f835462000e80565b8b811162001824575b5086908b8311600114620017be576200156a929160009183620016325750508160011b916000199060031b1c19161790565b90555b600981016101208a0151805190898211620017a9576200158e835462000e80565b8b81116200176e575b5086908b8311600114620016fb57826101409593600a9593620015d193600092620016325750508160011b916000199060031b1c19161790565b90555b01980151948551968711620016e65750620015f0885462000e80565b878111620016a9575b5050819585116001146200163e575050506200162e928291600092620016325750508160011b916000199060031b1c19161790565b9055565b0151905038806200136f565b9194909284601f1981168860005285600020956000905b898383106200168e575050501062001673575b50505050811b019055565b01519060f884600019921b161c191690553880808062001668565b85870151895590970196948501948893509081019062001655565b620016d49189600052846000209089808a01821c830193878b10620016dc575b01901c0190620012c6565b3880620015f9565b93508293620016c9565b604190634e487b7160e01b6000525260246000fd5b889291601f1983169185600052896000209260005b8b82821062001757575050916101409795939185600a989694106200173e575b505050811b019055620015d4565b0151600019838b1b60f8161c1916905538808062001730565b8385015186558d9790950194938401930162001710565b620017989084600052886000208d808601891c8201928b87106200179f575b01881c0190620012c6565b3862001597565b925081926200178d565b604189634e487b7160e01b6000525260246000fd5b889291601f1983169185600052896000209260005b8b8282106200180d5750508411620017f4575b505050811b0190556200156d565b015160001983891b60f8161c19169055388080620017e6565b8385015186558d97909501949384019301620017d3565b6200184d9084600052886000208d808601891c8201928b87106200179f5701881c0190620012c6565b3862001538565b889291601f1983169185600052896000209260005b8b828210620018a357505084116200188a575b505050811b0190556200150e565b015160001983891b60f8161c191690553880806200187c565b8385015186558d9790950194938401930162001869565b620018e39084600052886000208d808601891c8201928b87106200179f5701881c0190620012c6565b38620014d9565b889291601f1983169185600052896000209260005b8b82821062001939575050841162001920575b505050811b019055620014b0565b015160001983891b60f8161c1916905538808062001912565b8385015186558d97909501949384019301620018ff565b620019799084600052886000208d808601891c8201928b87106200179f5701881c0190620012c6565b386200147b565b889291601f1983169185600052896000209260005b8b828210620019cf5750508411620019b6575b505050811b01905562001452565b015160001983891b60f8161c19169055388080620019a8565b8385015186558d9790950194938401930162001995565b62001a0f9084600052886000208d808601891c8201928b87106200179f5701881c0190620012c6565b386200141d565b869291601f1983169185600052876000209260005b8982821062001a65575050841162001a4c575b505050811b019055620013e6565b015160001983871b60f8161c1916905538808062001a3e565b8385015186558b9790950194938401930162001a2b565b62001aa89084600052866000208b80860160051c82019289871062001aaf575b0160051c0190620012c6565b38620013b1565b9250819262001a9c565b859291601f1983169185600052866000209260005b8882821062001b09575050841162001aef575b505050811b01905562001387565b015160001960f88460031b161c1916905538808062001ae1565b8385015186558a9790950194938401930162001ace565b62001b4b9084600052856000208a80860160051c82019288871062001aaf570160051c0190620012c6565b3862001351565b908154600160401b8110156200072f5760018101808455811015620007455762000f4392600052600b6020600020910201620012df565b6009549060005b82811062001ba057505050600090565b62001bab8162001133565b50546001600160a01b0383811691161462001bc95760010162001b90565b505050600190565b62001bdd815462000e80565b908162001be8575050565b81601f6000931160011462001bfb575055565b90808391825262001c1c601f60208420940160051c840160018501620012c6565b5555565b60018060a01b0390818351166bffffffffffffffffffffffff60a01b9081835416178255600193600183016020928584840151169082541617905560029260028101936040830151958651906001600160401b0382116200072f57600160401b978883116200072f5786908854848a5580851062001e43575b5001906000978852868820908a895b85811062001e2e575050505050506060600380930193015191825196871162001e1a5783548785558593929181891062001d18575b50505091845282842091015b84841062001cf957505050505050565b600b838262001d0b89945186620012df565b0192019301929062001ce9565b9091929350600b9282600b0292600b84040362001e065788600b02600b81048a0362001df257868952878920889695948101939291015b83811062001d5f57505062001cdd565b849596508981959293949555898c82015562001d7d83820162001bd1565b62001d8a84820162001bd1565b89600482015562001d9e6005820162001bd1565b62001dac6006820162001bd1565b62001dba6007820162001bd1565b62001dc86008820162001bd1565b62001dd66009820162001bd1565b62001de4600a820162001bd1565b019087959493929162001d4f565b634e487b7160e01b89526011600452602489fd5b634e487b7160e01b88526011600452602488fd5b634e487b7160e01b86526041600452602486fd5b898386511695019481850155018b9062001ca8565b62001e5c908a60005285846000209182019101620012c6565b3862001c9956fe60406080815234620004295762000ff5803803806200001e816200042e565b928339810190608081830312620004295780516001600160401b039190828111620004295783620000519183016200046a565b90602093848201519084821162000429576200006f9183016200046a565b606086830151920151906000943360018060a01b031987541617865533867f8be0079c531659141344cd1fd0a4f28419497f9722a3daafe3b4186f6b6457e08180a384518181116200034357600254906001968783811c931680156200041e575b8a84101462000324578190601f93848111620003ca575b508a9084831160011462000363578a9262000357575b5050600019600383901b1c191690871b176002555b8251918211620003435760039283548781811c9116801562000338575b8a821014620003245790818385949311620002cf575b50899183116001146200026c57889262000260575b505060001982841b1c191690851b1790555b670de0b6b3a7640000918281029281840414901517156200024c5781835560058111620001fe57907fddf252ad1be2c89b69c2b068fc378daa952ba7f163c4a11628f55a4df523b3ef929160045533845260058552858420556007845284832060ff199082828254161790553084528186852091825416179055549284519384523393a351610b189081620004dd8239f35b855162461bcd60e51b815260048101869052602160248201527f4d6178205472616e73616374696f6e2063616e6e6f74206578636565642035256044820152601760f91b6064820152608490fd5b634e487b7160e01b84526011600452602484fd5b0151905038806200015a565b8489528989208894509190601f1984168a5b8c828210620002b857505084116200029f575b505050811b0190556200016c565b015160001983861b60f8161c1916905538808062000291565b8385015186558b979095019493840193016200027e565b909192508489528989208380860160051c8201928c87106200031a575b9186958b929594930160051c01915b8281106200030b57505062000145565b8b81558695508a9101620002fb565b92508192620002ec565b634e487b7160e01b89526022600452602489fd5b90607f16906200012f565b634e487b7160e01b87526041600452602487fd5b015190503880620000fd565b60028b528b8b208a94509190601f1984168c8e5b828210620003b2575050841162000398575b505050811b0160025562000112565b015160001960f88460031b161c1916905538808062000389565b8385015186558d979095019493840193018e62000377565b90915060028a528a8a208480850160051c8201928d861062000414575b918b91869594930160051c01915b82811062000405575050620000e7565b8c81558594508b9101620003f5565b92508192620003e7565b92607f1692620000d0565b600080fd5b6040519190601f01601f191682016001600160401b038111838210176200045457604052565b634e487b7160e01b600052604160045260246000fd5b919080601f84011215620004295782516001600160401b0381116200045457602090620004a0601f8201601f191683016200042e565b92818452828287010111620004295760005b818110620004c857508260009394955001015290565b8581018301518482018401528201620004b256fe608060408181526004918236101561001657600080fd5b600092833560e01c91826306fdde03146104ff57508163095ea7b3146104d557816318160ddd146104b657816323b872dd146103e1578163313ce567146103c557816370a082311461038d578163715018a61461032e5781637437681e146103105781638da5cb5b146102e857816395d89b41146101e3578163a9059cbb146101b2578163c2d0ffca146100ff575063dd62ed3e146100b457600080fd5b346100fb57806003193601126100fb57806020926100d0610607565b6100d8610622565b6001600160a01b0391821683526006865283832091168252845220549051908152f35b5080fd5b919050346101ae5760203660031901126101ae5781359161012a60018060a01b038554163314610670565b600583116101625791602091817fff3dd5e80294197918c284bbfc3dadd97d0b40ce92106110946329088f80068a945551908152a180f35b6020608492519162461bcd60e51b8352820152602160248201527f4d6178205472616e73616374696f6e2063616e6e6f74206578636565642035256044820152601760f91b6064820152fd5b8280fd5b5050346100fb57806003193601126100fb576020906101dc6101d2610607565b60243590336107bd565b5160018152f35b919050346101ae57826003193601126101ae5780519183600354906001908260011c926001811680156102de575b60209586861082146102cb57508488529081156102a95750600114610250575b61024c8686610242828b0383610638565b51918291826105be565b0390f35b929550600383527fc2575a0e9e593c00f959f8c92f12db2869c3395a3b0502d05e2516446f71f85b5b828410610296575050508261024c94610242928201019438610231565b8054868501880152928601928101610279565b60ff191687860152505050151560051b83010192506102428261024c38610231565b634e487b7160e01b845260229052602483fd5b93607f1693610211565b5050346100fb57816003193601126100fb57905490516001600160a01b039091168152602090f35b9050346101ae57826003193601126101ae5760209250549051908152f35b833461038a578060031936011261038a578054816001600160a01b038216610357338214610670565b7f8be0079c531659141344cd1fd0a4f28419497f9722a3daafe3b4186f6b6457e08280a36001600160a01b031916815580f35b80fd5b5050346100fb5760203660031901126100fb5760209181906001600160a01b036103b5610607565b1681526005845220549051908152f35b5050346100fb57816003193601126100fb576020905160128152f35b82843461038a57606036600319011261038a576103fc610607565b90610405610622565b6104136044358092856107bd565b6001600160a01b038316825260066020908152848320338452905283822054845192606084019067ffffffffffffffff8211858310176104a3576020876101dc8861049b898989898752602883527f45524332303a207472616e7366657220616d6f756e742065786365656473206188840152676c6c6f77616e636560c01b87840152610a97565b9033906106bb565b634e487b7160e01b815260418852602490fd5b5050346100fb57816003193601126100fb576020906001549051908152f35b5050346100fb57806003193601126100fb576020906101dc6104f5610607565b60243590336106bb565b929150346105ba57836003193601126105ba57600254600181811c91869082811680156105b0575b60209586861082146102cb57508488529081156102a957506001146105575761024c8686610242828b0383610638565b929550600283527f405787fa12a823e0f2b7631cc41b3ba8828b3321ca811111fa75cd3aa3bb5ace5b82841061059d575050508261024c94610242928201019438610231565b8054868501880152928601928101610580565b93607f1693610527565b8380fd5b6020808252825181830181905290939260005b8281106105f357505060409293506000838284010152601f8019910116010190565b8181018601518482016040015285016105d1565b600435906001600160a01b038216820361061d57565b600080fd5b602435906001600160a01b038216820361061d57565b90601f8019910116810190811067ffffffffffffffff82111761065a57604052565b634e487b7160e01b600052604160045260246000fd5b1561067757565b606460405162461bcd60e51b815260206004820152602060248201527f4f776e61626c653a2063616c6c6572206973206e6f7420746865206f776e65726044820152fd5b6001600160a01b0390811691821561076c571691821561071c5760207f8c5be1e5ebec7d5bd14f71427d1e84f3dd0314c0f7b2291e5b200ac8c7c3b925918360005260068252604060002085600052825280604060002055604051908152a3565b60405162461bcd60e51b815260206004820152602260248201527f45524332303a20617070726f766520746f20746865207a65726f206164647265604482015261737360f01b6064820152608490fd5b60405162461bcd60e51b8152602060048201526024808201527f45524332303a20617070726f76652066726f6d20746865207a65726f206164646044820152637265737360e01b6064820152608490fd5b9192916001600160a01b03908116918215610a4457169081156109f357831561099c57600480549460015495868102968188041490151715610987576000958387526020926007845260409160ff838a20541615610936575b50848852600584528188205482519083820182811067ffffffffffffffff82111761092357610872929186918652601e83527f536166654d6174683a207375627472616374696f6e206f766572666c6f77000088840152610a97565b85895260058552828920558588528188205490838201918281116109105782106108cd57508188877fddf252ad1be2c89b69c2b068fc378daa952ba7f163c4a11628f55a4df523b3ef9798999a5260058652205551908152a3565b825162461bcd60e51b8152908101859052601b60248201527f536166654d6174683a206164646974696f6e206f766572666c6f7700000000006044820152606490fd5b634e487b7160e01b8a526011825260248afd5b634e487b7160e01b8b526041845260248bfd5b6064900483116109465738610816565b83606492519162461bcd60e51b8352820152601860248201527f4578636565647320746865204d61785478416d6f756e742e00000000000000006044820152fd5b601182634e487b7160e01b6000525260246000fd5b60405162461bcd60e51b815260206004820152602960248201527f5472616e7366657220616d6f756e74206d7573742062652067726561746572206044820152687468616e207a65726f60b81b6064820152608490fd5b60405162461bcd60e51b815260206004820152602360248201527f45524332303a207472616e7366657220746f20746865207a65726f206164647260448201526265737360e81b6064820152608490fd5b60405162461bcd60e51b815260206004820152602560248201527f45524332303a207472616e736665722066726f6d20746865207a65726f206164604482015264647265737360d81b6064820152608490fd5b91828211610ac257508103908111610aac5790565b634e487b7160e01b600052601160045260246000fd5b60405162461bcd60e51b8152908190610ade90600483016105be565b0390fdfea2646970667358221220125325736e75a597f98b9c4b5c0bb93954d3bb1aef8717cc3f9f5f7b8cd6bc4a64736f6c63430008180033a264697066735822122030297f461adeee860c50e881a5031baec84f6cc5e59778fc8d68b3d5fec8116164736f6c63430008180033",
  "linkReferences": {},
  "deployedLinkReferences": {}
}